{
  "_format": "hh-sol-artifact-1",
  "contractName": "MinterRAMV0",
  "sourceName": "contracts/minter-suite/Minters/MinterRAMV0.sol",
  "abi": [
    {
      "inputs": [
        {
          "internalType": "address",
          "name": "minterFilter",
          "type": "address"
        }
      ],
      "stateMutability": "nonpayable",
      "type": "constructor"
    },
    {
      "anonymous": false,
      "inputs": [
        {
          "indexed": false,
          "internalType": "uint256",
          "name": "auctionBufferSeconds",
          "type": "uint256"
        },
        {
          "indexed": false,
          "internalType": "uint256",
          "name": "maxAuctionExtraSeconds",
          "type": "uint256"
        }
      ],
      "name": "AuctionBufferTimeParamsUpdated",
      "type": "event"
    },
    {
      "anonymous": false,
      "inputs": [
        {
          "indexed": true,
          "internalType": "uint256",
          "name": "projectId",
          "type": "uint256"
        },
        {
          "indexed": true,
          "internalType": "address",
          "name": "coreContract",
          "type": "address"
        },
        {
          "indexed": false,
          "internalType": "uint256",
          "name": "timestampStart",
          "type": "uint256"
        },
        {
          "indexed": false,
          "internalType": "uint256",
          "name": "timestampEnd",
          "type": "uint256"
        },
        {
          "indexed": false,
          "internalType": "uint256",
          "name": "basePrice",
          "type": "uint256"
        },
        {
          "indexed": false,
          "internalType": "bool",
          "name": "allowExtraTime",
          "type": "bool"
        },
        {
          "indexed": false,
          "internalType": "bool",
          "name": "adminArtistOnlyMintPeriodIfSellout",
          "type": "bool"
        },
        {
          "indexed": false,
          "internalType": "uint256",
          "name": "numTokensInAuction",
          "type": "uint256"
        }
      ],
      "name": "AuctionConfigUpdated",
      "type": "event"
    },
    {
      "anonymous": false,
      "inputs": [
        {
          "indexed": true,
          "internalType": "uint256",
          "name": "projectId",
          "type": "uint256"
        },
        {
          "indexed": true,
          "internalType": "address",
          "name": "coreContract",
          "type": "address"
        },
        {
          "indexed": false,
          "internalType": "uint256",
          "name": "timestampEnd",
          "type": "uint256"
        }
      ],
      "name": "AuctionTimestampEndUpdated",
      "type": "event"
    },
    {
      "anonymous": false,
      "inputs": [
        {
          "indexed": true,
          "internalType": "uint256",
          "name": "projectId",
          "type": "uint256"
        },
        {
          "indexed": true,
          "internalType": "address",
          "name": "coreContract",
          "type": "address"
        },
        {
          "indexed": false,
          "internalType": "uint256",
          "name": "slotIndex",
          "type": "uint256"
        },
        {
          "indexed": false,
          "internalType": "uint256",
          "name": "bidId",
          "type": "uint256"
        },
        {
          "indexed": false,
          "internalType": "address",
          "name": "bidder",
          "type": "address"
        }
      ],
      "name": "BidCreated",
      "type": "event"
    },
    {
      "anonymous": false,
      "inputs": [
        {
          "indexed": true,
          "internalType": "uint256",
          "name": "projectId",
          "type": "uint256"
        },
        {
          "indexed": true,
          "internalType": "address",
          "name": "coreContract",
          "type": "address"
        },
        {
          "indexed": false,
          "internalType": "uint256",
          "name": "bidId",
          "type": "uint256"
        },
        {
          "indexed": false,
          "internalType": "uint256",
          "name": "tokenId",
          "type": "uint256"
        }
      ],
      "name": "BidMinted",
      "type": "event"
    },
    {
      "anonymous": false,
      "inputs": [
        {
          "indexed": true,
          "internalType": "uint256",
          "name": "projectId",
          "type": "uint256"
        },
        {
          "indexed": true,
          "internalType": "address",
          "name": "coreContract",
          "type": "address"
        },
        {
          "indexed": false,
          "internalType": "uint256",
          "name": "bidId",
          "type": "uint256"
        }
      ],
      "name": "BidRefunded",
      "type": "event"
    },
    {
      "anonymous": false,
      "inputs": [
        {
          "indexed": true,
          "internalType": "uint256",
          "name": "projectId",
          "type": "uint256"
        },
        {
          "indexed": true,
          "internalType": "address",
          "name": "coreContract",
          "type": "address"
        },
        {
          "indexed": false,
          "internalType": "uint256",
          "name": "bidId",
          "type": "uint256"
        }
      ],
      "name": "BidRemoved",
      "type": "event"
    },
    {
      "anonymous": false,
      "inputs": [
        {
          "indexed": true,
          "internalType": "uint256",
          "name": "projectId",
          "type": "uint256"
        },
        {
          "indexed": true,
          "internalType": "address",
          "name": "coreContract",
          "type": "address"
        },
        {
          "indexed": false,
          "internalType": "uint256",
          "name": "bidId",
          "type": "uint256"
        }
      ],
      "name": "BidSettled",
      "type": "event"
    },
    {
      "anonymous": false,
      "inputs": [
        {
          "indexed": true,
          "internalType": "uint256",
          "name": "projectId",
          "type": "uint256"
        },
        {
          "indexed": true,
          "internalType": "address",
          "name": "coreContract",
          "type": "address"
        },
        {
          "indexed": false,
          "internalType": "uint256",
          "name": "bidId",
          "type": "uint256"
        },
        {
          "indexed": false,
          "internalType": "uint256",
          "name": "newSlotIndex",
          "type": "uint256"
        }
      ],
      "name": "BidToppedUp",
      "type": "event"
    },
    {
      "anonymous": false,
      "inputs": [
        {
          "indexed": true,
          "internalType": "uint256",
          "name": "projectId",
          "type": "uint256"
        },
        {
          "indexed": true,
          "internalType": "address",
          "name": "coreContract",
          "type": "address"
        },
        {
          "indexed": false,
          "internalType": "bytes32",
          "name": "key",
          "type": "bytes32"
        },
        {
          "indexed": false,
          "internalType": "bool",
          "name": "value",
          "type": "bool"
        }
      ],
      "name": "ConfigValueSet",
      "type": "event"
    },
    {
      "anonymous": false,
      "inputs": [
        {
          "indexed": true,
          "internalType": "address",
          "name": "coreContract",
          "type": "address"
        },
        {
          "indexed": false,
          "internalType": "enum RAMLib.AdminMintingConstraint",
          "name": "adminMintingConstraint",
          "type": "uint8"
        }
      ],
      "name": "ContractConfigUpdated",
      "type": "event"
    },
    {
      "anonymous": false,
      "inputs": [
        {
          "indexed": false,
          "internalType": "uint256",
          "name": "minAuctionDurationSeconds",
          "type": "uint256"
        }
      ],
      "name": "MinAuctionDurationSecondsUpdated",
      "type": "event"
    },
    {
      "anonymous": false,
      "inputs": [
        {
          "indexed": false,
          "internalType": "uint24",
          "name": "refundGasLimit",
          "type": "uint24"
        }
      ],
      "name": "MinterRefundGasLimitUpdated",
      "type": "event"
    },
    {
      "anonymous": false,
      "inputs": [
        {
          "indexed": false,
          "internalType": "uint256",
          "name": "numSlots",
          "type": "uint256"
        }
      ],
      "name": "NumSlotsUpdated",
      "type": "event"
    },
    {
      "anonymous": false,
      "inputs": [
        {
          "indexed": true,
          "internalType": "uint256",
          "name": "projectId",
          "type": "uint256"
        },
        {
          "indexed": true,
          "internalType": "address",
          "name": "coreContract",
          "type": "address"
        },
        {
          "indexed": false,
          "internalType": "uint256",
          "name": "numTokensInAuction",
          "type": "uint256"
        }
      ],
      "name": "NumTokensInAuctionUpdated",
      "type": "event"
    },
    {
      "anonymous": false,
      "inputs": [
        {
          "indexed": true,
          "internalType": "uint256",
          "name": "projectId",
          "type": "uint256"
        },
        {
          "indexed": true,
          "internalType": "address",
          "name": "coreContract",
          "type": "address"
        },
        {
          "indexed": false,
          "internalType": "uint256",
          "name": "maxInvocations",
          "type": "uint256"
        }
      ],
      "name": "ProjectMaxInvocationsLimitUpdated",
      "type": "event"
    },
    {
      "anonymous": false,
      "inputs": [
        {
          "indexed": true,
          "internalType": "uint256",
          "name": "projectId",
          "type": "uint256"
        },
        {
          "indexed": true,
          "internalType": "address",
          "name": "coreContract",
          "type": "address"
        },
        {
          "indexed": false,
          "internalType": "uint256",
          "name": "tokenId",
          "type": "uint256"
        },
        {
          "indexed": false,
          "internalType": "address",
          "name": "to",
          "type": "address"
        }
      ],
      "name": "TokenPurchased",
      "type": "event"
    },
    {
      "inputs": [],
      "name": "MIN_AUCTION_DURATION_SECONDS",
      "outputs": [
        {
          "internalType": "uint256",
          "name": "",
          "type": "uint256"
        }
      ],
      "stateMutability": "view",
      "type": "function"
    },
    {
      "inputs": [
        {
          "internalType": "uint256",
          "name": "projectId",
          "type": "uint256"
        },
        {
          "internalType": "address",
          "name": "coreContract",
          "type": "address"
        },
        {
          "internalType": "uint8",
          "name": "emergencyHoursToAdd",
          "type": "uint8"
        }
      ],
      "name": "adminAddEmergencyAuctionHours",
      "outputs": [],
      "stateMutability": "nonpayable",
      "type": "function"
    },
    {
      "inputs": [
        {
          "internalType": "uint256",
          "name": "projectId",
          "type": "uint256"
        },
        {
          "internalType": "address",
          "name": "coreContract",
          "type": "address"
        },
        {
          "internalType": "uint24",
          "name": "numTokensToMint",
          "type": "uint24"
        }
      ],
      "name": "adminArtistAutoMintTokensToWinners",
      "outputs": [],
      "stateMutability": "nonpayable",
      "type": "function"
    },
    {
      "inputs": [
        {
          "internalType": "uint256",
          "name": "projectId",
          "type": "uint256"
        },
        {
          "internalType": "address",
          "name": "coreContract",
          "type": "address"
        },
        {
          "internalType": "uint32[]",
          "name": "bidIds",
          "type": "uint32[]"
        }
      ],
      "name": "adminArtistDirectMintTokensToWinners",
      "outputs": [],
      "stateMutability": "nonpayable",
      "type": "function"
    },
    {
      "inputs": [
        {
          "internalType": "uint256",
          "name": "projectId",
          "type": "uint256"
        },
        {
          "internalType": "address",
          "name": "coreContract",
          "type": "address"
        },
        {
          "internalType": "uint32[]",
          "name": "bidIds",
          "type": "uint32[]"
        }
      ],
      "name": "adminArtistDirectRefundWinners",
      "outputs": [],
      "stateMutability": "nonpayable",
      "type": "function"
    },
    {
      "inputs": [
        {
          "internalType": "uint256",
          "name": "projectId",
          "type": "uint256"
        },
        {
          "internalType": "address",
          "name": "coreContract",
          "type": "address"
        },
        {
          "internalType": "uint24",
          "name": "numBidsToRefund",
          "type": "uint24"
        }
      ],
      "name": "adminAutoRefundWinners",
      "outputs": [],
      "stateMutability": "nonpayable",
      "type": "function"
    },
    {
      "inputs": [
        {
          "internalType": "uint256",
          "name": "projectId",
          "type": "uint256"
        },
        {
          "internalType": "address",
          "name": "coreContract",
          "type": "address"
        },
        {
          "internalType": "uint32[]",
          "name": "bidIds",
          "type": "uint32[]"
        }
      ],
      "name": "collectSettlements",
      "outputs": [],
      "stateMutability": "nonpayable",
      "type": "function"
    },
    {
      "inputs": [
        {
          "internalType": "address",
          "name": "coreContract",
          "type": "address"
        }
      ],
      "name": "contractConfigurationDetails",
      "outputs": [
        {
          "components": [
            {
              "internalType": "enum RAMLib.AdminMintingConstraint",
              "name": "adminMintingConstraint",
              "type": "uint8"
            }
          ],
          "internalType": "struct RAMLib.RAMContractConfig",
          "name": "",
          "type": "tuple"
        }
      ],
      "stateMutability": "view",
      "type": "function"
    },
    {
      "inputs": [
        {
          "internalType": "uint256",
          "name": "projectId",
          "type": "uint256"
        },
        {
          "internalType": "address",
          "name": "coreContract",
          "type": "address"
        },
        {
          "internalType": "uint16",
          "name": "slotIndex",
          "type": "uint16"
        }
      ],
      "name": "createBid",
      "outputs": [],
      "stateMutability": "payable",
      "type": "function"
    },
    {
      "inputs": [
        {
          "internalType": "uint256",
          "name": "projectId",
          "type": "uint256"
        },
        {
          "internalType": "address",
          "name": "coreContract",
          "type": "address"
        }
      ],
      "name": "getAuctionDetails",
      "outputs": [
        {
          "internalType": "uint256",
          "name": "auctionTimestampStart",
          "type": "uint256"
        },
        {
          "internalType": "uint256",
          "name": "auctionTimestampEnd",
          "type": "uint256"
        },
        {
          "internalType": "uint256",
          "name": "basePrice",
          "type": "uint256"
        },
        {
          "internalType": "uint256",
          "name": "numTokensInAuction",
          "type": "uint256"
        },
        {
          "internalType": "uint256",
          "name": "numBids",
          "type": "uint256"
        },
        {
          "internalType": "uint256",
          "name": "numBidsMintedTokens",
          "type": "uint256"
        },
        {
          "internalType": "uint256",
          "name": "numBidsErrorRefunded",
          "type": "uint256"
        },
        {
          "internalType": "uint256",
          "name": "minBidSlotIndex",
          "type": "uint256"
        },
        {
          "internalType": "bool",
          "name": "allowExtraTime",
          "type": "bool"
        },
        {
          "internalType": "bool",
          "name": "adminArtistOnlyMintPeriodIfSellout",
          "type": "bool"
        },
        {
          "internalType": "bool",
          "name": "revenuesCollected",
          "type": "bool"
        },
        {
          "internalType": "enum RAMLib.ProjectMinterStates",
          "name": "projectMinterState",
          "type": "uint8"
        }
      ],
      "stateMutability": "view",
      "type": "function"
    },
    {
      "inputs": [
        {
          "internalType": "uint256",
          "name": "projectId",
          "type": "uint256"
        },
        {
          "internalType": "address",
          "name": "coreContract",
          "type": "address"
        }
      ],
      "name": "getIsErrorE1",
      "outputs": [
        {
          "internalType": "bool",
          "name": "isError",
          "type": "bool"
        },
        {
          "internalType": "uint256",
          "name": "numBidsToRefund",
          "type": "uint256"
        }
      ],
      "stateMutability": "view",
      "type": "function"
    },
    {
      "inputs": [
        {
          "internalType": "uint256",
          "name": "projectId",
          "type": "uint256"
        },
        {
          "internalType": "address",
          "name": "coreContract",
          "type": "address"
        }
      ],
      "name": "getLowestBidValue",
      "outputs": [
        {
          "internalType": "uint256",
          "name": "",
          "type": "uint256"
        }
      ],
      "stateMutability": "view",
      "type": "function"
    },
    {
      "inputs": [
        {
          "internalType": "uint256",
          "name": "projectId",
          "type": "uint256"
        },
        {
          "internalType": "address",
          "name": "coreContract",
          "type": "address"
        }
      ],
      "name": "getMinimumNextBid",
      "outputs": [
        {
          "internalType": "uint256",
          "name": "minNextBidValueInWei",
          "type": "uint256"
        },
        {
          "internalType": "uint256",
          "name": "minNextBidSlotIndex",
          "type": "uint256"
        }
      ],
      "stateMutability": "view",
      "type": "function"
    },
    {
      "inputs": [
        {
          "internalType": "uint256",
          "name": "projectId",
          "type": "uint256"
        },
        {
          "internalType": "address",
          "name": "coreContract",
          "type": "address"
        }
      ],
      "name": "getPriceInfo",
      "outputs": [
        {
          "internalType": "bool",
          "name": "isConfigured",
          "type": "bool"
        },
        {
          "internalType": "uint256",
          "name": "tokenPriceInWei",
          "type": "uint256"
        },
        {
          "internalType": "string",
          "name": "currencySymbol",
          "type": "string"
        },
        {
          "internalType": "address",
          "name": "currencyAddress",
          "type": "address"
        }
      ],
      "stateMutability": "view",
      "type": "function"
    },
    {
      "inputs": [
        {
          "internalType": "uint256",
          "name": "projectId",
          "type": "uint256"
        },
        {
          "internalType": "address",
          "name": "coreContract",
          "type": "address"
        }
      ],
      "name": "getProjectBalance",
      "outputs": [
        {
          "internalType": "uint256",
          "name": "",
          "type": "uint256"
        }
      ],
      "stateMutability": "view",
      "type": "function"
    },
    {
      "inputs": [
        {
          "internalType": "address",
          "name": "coreContract",
          "type": "address"
        }
      ],
      "name": "isEngineView",
      "outputs": [
        {
          "internalType": "bool",
          "name": "",
          "type": "bool"
        }
      ],
      "stateMutability": "view",
      "type": "function"
    },
    {
      "inputs": [
        {
          "internalType": "uint256",
          "name": "projectId",
          "type": "uint256"
        },
        {
          "internalType": "address",
          "name": "coreContract",
          "type": "address"
        },
        {
          "internalType": "uint24",
          "name": "maxInvocations",
          "type": "uint24"
        }
      ],
      "name": "manuallyLimitProjectMaxInvocations",
      "outputs": [],
      "stateMutability": "nonpayable",
      "type": "function"
    },
    {
      "inputs": [
        {
          "internalType": "uint256",
          "name": "projectId",
          "type": "uint256"
        },
        {
          "internalType": "address",
          "name": "coreContract",
          "type": "address"
        }
      ],
      "name": "maxInvocationsProjectConfig",
      "outputs": [
        {
          "components": [
            {
              "internalType": "bool",
              "name": "maxHasBeenInvoked",
              "type": "bool"
            },
            {
              "internalType": "uint24",
              "name": "maxInvocations",
              "type": "uint24"
            }
          ],
          "internalType": "struct MaxInvocationsLib.MaxInvocationsProjectConfig",
          "name": "",
          "type": "tuple"
        }
      ],
      "stateMutability": "view",
      "type": "function"
    },
    {
      "inputs": [],
      "name": "minterConfigurationDetails",
      "outputs": [
        {
          "internalType": "uint256",
          "name": "minAuctionDurationSeconds",
          "type": "uint256"
        },
        {
          "internalType": "uint256",
          "name": "auctionBufferSeconds",
          "type": "uint256"
        },
        {
          "internalType": "uint256",
          "name": "maxAuctionExtraSeconds",
          "type": "uint256"
        },
        {
          "internalType": "uint256",
          "name": "maxAuctionAdminEmergencyExtensionHours",
          "type": "uint256"
        },
        {
          "internalType": "uint256",
          "name": "adminArtistOnlyMintTimeSeconds",
          "type": "uint256"
        },
        {
          "internalType": "uint24",
          "name": "minterRefundGasLimit",
          "type": "uint24"
        }
      ],
      "stateMutability": "view",
      "type": "function"
    },
    {
      "inputs": [],
      "name": "minterFilterAddress",
      "outputs": [
        {
          "internalType": "address",
          "name": "",
          "type": "address"
        }
      ],
      "stateMutability": "view",
      "type": "function"
    },
    {
      "inputs": [],
      "name": "minterType",
      "outputs": [
        {
          "internalType": "string",
          "name": "",
          "type": "string"
        }
      ],
      "stateMutability": "view",
      "type": "function"
    },
    {
      "inputs": [],
      "name": "minterVersion",
      "outputs": [
        {
          "internalType": "string",
          "name": "",
          "type": "string"
        }
      ],
      "stateMutability": "view",
      "type": "function"
    },
    {
      "inputs": [
        {
          "internalType": "uint256",
          "name": "projectId",
          "type": "uint256"
        },
        {
          "internalType": "address",
          "name": "coreContract",
          "type": "address"
        }
      ],
      "name": "projectMaxHasBeenInvoked",
      "outputs": [
        {
          "internalType": "bool",
          "name": "",
          "type": "bool"
        }
      ],
      "stateMutability": "view",
      "type": "function"
    },
    {
      "inputs": [
        {
          "internalType": "uint256",
          "name": "projectId",
          "type": "uint256"
        },
        {
          "internalType": "address",
          "name": "coreContract",
          "type": "address"
        }
      ],
      "name": "projectMaxInvocations",
      "outputs": [
        {
          "internalType": "uint256",
          "name": "",
          "type": "uint256"
        }
      ],
      "stateMutability": "view",
      "type": "function"
    },
    {
      "inputs": [
        {
          "internalType": "uint256",
          "name": "projectId",
          "type": "uint256"
        },
        {
          "internalType": "address",
          "name": "coreContract",
          "type": "address"
        }
      ],
      "name": "purchase",
      "outputs": [
        {
          "internalType": "uint256",
          "name": "tokenId",
          "type": "uint256"
        }
      ],
      "stateMutability": "payable",
      "type": "function"
    },
    {
      "inputs": [
        {
          "internalType": "address",
          "name": "to",
          "type": "address"
        },
        {
          "internalType": "uint256",
          "name": "projectId",
          "type": "uint256"
        },
        {
          "internalType": "address",
          "name": "coreContract",
          "type": "address"
        }
      ],
      "name": "purchaseTo",
      "outputs": [
        {
          "internalType": "uint256",
          "name": "tokenId",
          "type": "uint256"
        }
      ],
      "stateMutability": "payable",
      "type": "function"
    },
    {
      "inputs": [
        {
          "internalType": "uint256",
          "name": "projectId",
          "type": "uint256"
        },
        {
          "internalType": "address",
          "name": "coreContract",
          "type": "address"
        },
        {
          "internalType": "uint40",
          "name": "auctionTimestampEnd",
          "type": "uint40"
        }
      ],
      "name": "reduceAuctionLength",
      "outputs": [],
      "stateMutability": "nonpayable",
      "type": "function"
    },
    {
      "inputs": [
        {
          "internalType": "uint256",
          "name": "projectId",
          "type": "uint256"
        },
        {
          "internalType": "address",
          "name": "coreContract",
          "type": "address"
        },
        {
          "internalType": "uint40",
          "name": "auctionTimestampStart",
          "type": "uint40"
        },
        {
          "internalType": "uint40",
          "name": "auctionTimestampEnd",
          "type": "uint40"
        },
        {
          "internalType": "uint256",
          "name": "basePrice",
          "type": "uint256"
        },
        {
          "internalType": "bool",
          "name": "allowExtraTime",
          "type": "bool"
        },
        {
          "internalType": "bool",
          "name": "adminArtistOnlyMintPeriodIfSellout",
          "type": "bool"
        }
      ],
      "name": "setAuctionDetails",
      "outputs": [],
      "stateMutability": "nonpayable",
      "type": "function"
    },
    {
      "inputs": [
        {
          "internalType": "address",
          "name": "coreContract",
          "type": "address"
        },
        {
          "internalType": "enum RAMLib.AdminMintingConstraint",
          "name": "adminMintingConstraint",
          "type": "uint8"
        }
      ],
      "name": "setContractConfig",
      "outputs": [],
      "stateMutability": "nonpayable",
      "type": "function"
    },
    {
      "inputs": [
        {
          "internalType": "uint256",
          "name": "projectId",
          "type": "uint256"
        },
        {
          "internalType": "address",
          "name": "coreContract",
          "type": "address"
        },
        {
          "internalType": "uint16",
          "name": "slotIndex",
          "type": "uint16"
        }
      ],
      "name": "slotIndexToBidValue",
      "outputs": [
        {
          "internalType": "uint256",
          "name": "",
          "type": "uint256"
        }
      ],
      "stateMutability": "view",
      "type": "function"
    },
    {
      "inputs": [
        {
          "internalType": "uint256",
          "name": "",
          "type": "uint256"
        },
        {
          "internalType": "address",
          "name": "",
          "type": "address"
        }
      ],
      "name": "syncProjectMaxInvocationsToCore",
      "outputs": [],
      "stateMutability": "pure",
      "type": "function"
    },
    {
      "inputs": [
        {
          "internalType": "uint256",
          "name": "projectId",
          "type": "uint256"
        },
        {
          "internalType": "address",
          "name": "coreContract",
          "type": "address"
        },
        {
          "internalType": "uint32",
          "name": "bidId",
          "type": "uint32"
        },
        {
          "internalType": "uint16",
          "name": "newSlotIndex",
          "type": "uint16"
        }
      ],
      "name": "topUpBid",
      "outputs": [],
      "stateMutability": "payable",
      "type": "function"
    },
    {
      "inputs": [
        {
          "internalType": "uint24",
          "name": "minterRefundGasLimit",
          "type": "uint24"
        }
      ],
      "name": "updateRefundGasLimit",
      "outputs": [],
      "stateMutability": "nonpayable",
      "type": "function"
    },
    {
      "inputs": [
        {
          "internalType": "uint256",
          "name": "projectId",
          "type": "uint256"
        },
        {
          "internalType": "address",
          "name": "coreContract",
          "type": "address"
        },
        {
          "internalType": "uint32[]",
          "name": "bidIds",
          "type": "uint32[]"
        }
      ],
      "name": "winnerDirectMintTokens",
      "outputs": [],
      "stateMutability": "nonpayable",
      "type": "function"
    },
    {
      "inputs": [
        {
          "internalType": "uint256",
          "name": "projectId",
          "type": "uint256"
        },
        {
          "internalType": "address",
          "name": "coreContract",
          "type": "address"
        },
        {
          "internalType": "uint32[]",
          "name": "bidIds",
          "type": "uint32[]"
        }
      ],
      "name": "winnerDirectRefund",
      "outputs": [],
      "stateMutability": "nonpayable",
      "type": "function"
    },
    {
      "inputs": [
        {
          "internalType": "uint256",
          "name": "projectId",
          "type": "uint256"
        },
        {
          "internalType": "address",
          "name": "coreContract",
          "type": "address"
        }
      ],
      "name": "withdrawArtistAndAdminRevenues",
      "outputs": [],
      "stateMutability": "nonpayable",
      "type": "function"
    }
  ],
  "bytecode": "0x60c06040526001805462ffffff19166175301790553480156200002157600080fd5b506040516200601938038062006019833981016040819052620000449162000144565b60016000556001600160a01b038116608081905260a05260405161025881527f4ef0f5aca00c220a4058c318e0dd5526680003d4e6fceb9ad65087452a8313fa9060200160405180910390a160015460405162ffffff90911681527ff28602592f2788507e76a86523ec8d5ef26873807e258d4cae31571370c0e6c89060200160405180910390a16040805161012c8152610e1060208201527f0c92d75d9ae429e723cd03b00b1498b72fd1a30fd4337bf4cbdf14650599dd38910160405180910390a160405161020081527f93eac00dcf92d1cee4f4605f83f625533396c288555591736b62533e656beaf69060200160405180910390a15062000176565b6000602082840312156200015757600080fd5b81516001600160a01b03811681146200016f57600080fd5b9392505050565b60805160a051615e4c620001cd600039600081816108b8015281816109d801528181610aa901528181610b2201528181610d1a01528181610dfa01526110a501526000818161068a0152610fab0152615e4c6000f3fe6080604052600436106101ae5760003560e01c80639b7b5585116100e85780639b7b55851461047e578063a5514c7e14610494578063ae77c237146104b4578063b000e334146104c7578063b9daf3b5146104e7578063bf54d5fb14610507578063c1b9281e14610527578063cce7c90914610547578063d009cb9d14610567578063d3ddabe61461059c578063d4f6d0e3146105db578063d8b4e3ba14610608578063d9bffbce14610628578063d9eb16db14610648578063dd85582f14610678578063e624db9f146106c4578063e9d1e8ac146106e4578063f5a759b71461071b57600080fd5b806241673c146101b357806301000da7146101e6578063014053a014610216578063047fef49146102385780631290b96b1461027057806317e70c3c1461029057806340b790bd146102a35780634869f3df146102da5780634e8d8787146102fa578063630766801461030d57806365e92cde1461035c57806366133e291461037c578063711ce3911461039c5780637ca340a6146103bc5780637e86d370146103dc5780638f13865e146103fc5780638fe8a90b1461041c5780639a94488a1461043c575b600080fd5b3480156101bf57600080fd5b506101d36101ce36600461519f565b61072e565b6040519081526020015b60405180910390f35b3480156101f257600080fd5b506102066102013660046151dd565b610764565b60405190151581526020016101dd565b34801561022257600080fd5b506102366102313660046151fa565b61079c565b005b34801561024457600080fd5b50610258610253366004615286565b6107f2565b6040516101dd9c9b9a999897969594939291906152cc565b34801561027c57600080fd5b5061023661028b36600461535a565b610836565b61023661029e36600461519f565b610880565b3480156102af57600080fd5b506102c36102be366004615286565b610979565b6040805192151583526020830191909152016101dd565b3480156102e657600080fd5b506101d36102f5366004615286565b610992565b6101d361030836600461538f565b6109a7565b34801561031957600080fd5b5060015460408051610258815261012c6020820152610e1091810191909152604860608201526203f480608082015262ffffff90911660a082015260c0016101dd565b34801561036857600080fd5b506102366103773660046153d1565b610a09565b34801561038857600080fd5b5061023661039736600461540e565b610a4e565b3480156103a857600080fd5b506102366103b73660046151fa565b610a6f565b3480156103c857600080fd5b506102366103d73660046151fa565b610ad3565b3480156103e857600080fd5b506102366103f736600461544e565b610b4c565b34801561040857600080fd5b506102366104173660046151fa565b610bd5565b34801561042857600080fd5b50610236610437366004615286565b610c2c565b34801561044857600080fd5b5061045c610457366004615286565b610c7a565b6040805182511515815260209283015162ffffff1692810192909252016101dd565b34801561048a57600080fd5b506101d361025881565b3480156104a057600080fd5b506102366104af3660046154e1565b610c98565b6101d36104c2366004615286565b610ce9565b3480156104d357600080fd5b506102366104e23660046154e1565b610d4a565b3480156104f357600080fd5b506102366105023660046154e1565b610db0565b34801561051357600080fd5b506101d3610522366004615286565b610e24565b34801561053357600080fd5b506102366105423660046151fa565b610e30565b34801561055357600080fd5b50610206610562366004615286565b610e72565b34801561057357600080fd5b50610587610582366004615286565b610e7e565b604080519283526020830191909152016101dd565b3480156105a857600080fd5b506105ce60405180604001604052806006815260200165076302e302e360d41b81525081565b6040516101dd9190615566565b3480156105e757600080fd5b506105fb6105f63660046151dd565b610e96565b6040516101dd919061558d565b34801561061457600080fd5b506101d3610623366004615286565b610eee565b34801561063457600080fd5b50610236610643366004615286565b610f2a565b34801561065457600080fd5b50610668610663366004615286565b610f69565b6040516101dd94939291906155a0565b34801561068457600080fd5b506106ac7f000000000000000000000000000000000000000000000000000000000000000081565b6040516001600160a01b0390911681526020016101dd565b3480156106d057600080fd5b506102366106df3660046155da565b610fa6565b3480156106f057600080fd5b506105ce6040518060400160405280600b81526020016a04d696e74657252414d56360ac1b81525081565b610236610729366004615609565b61106d565b60008061073b8585611159565b60060154600160901b90046001600160581b0316905061075b818461118a565b95945050505050565b60008061077083611220565b8054909150610100900460ff161561078c575460ff1692915050565b61079583611265565b9392505050565b6002600054036107c75760405162461bcd60e51b81526004016107be90615658565b60405180910390fd5b6002600055600180546107e79186918691869186919062ffffff166113db565b505060016000555050565b60008060008060008060008060008060008061080e8e8e6115bb565b9b509b509b509b509b509b509b509b509b509b509b509b509295989b509295989b509295989b565b6002600054036108585760405162461bcd60e51b81526004016107be90615658565b600260005561086883833361171a565b610876838383610258611764565b5050600160005550565b6002600054036108a25760405162461bcd60e51b81526004016107be90615658565b6002600055604051635845de1f60e01b815230907f00000000000000000000000000000000000000000000000000000000000000006001600160a01b031690635845de1f906108f7908790879060040161568f565b602060405180830381865afa158015610914573d6000803e3d6000fd5b505050506040513d601f19601f8201168201806040525081019061093891906156a6565b6001600160a01b03161461095e5760405162461bcd60e51b81526004016107be906156c3565b600154610876908490849084903390349062ffffff1661199f565b6000806109868484611cbb565b50909590945092505050565b600061099e8383611d28565b90505b92915050565b60006002600054036109cb5760405162461bcd60e51b81526004016107be90615658565b60026000556109fc8484847f0000000000000000000000000000000000000000000000000000000000000000611d48565b6001600055949350505050565b600260005403610a2b5760405162461bcd60e51b81526004016107be90615658565b6002600055610a438233306332f4966f60e11b611f86565b610876838383611fe1565b610a618233306366133e2960e01b611f86565b610a6b8282612193565b5050565b600260005403610a915760405162461bcd60e51b81526004016107be90615658565b6002600055600180546107e7918691869186918691907f00000000000000000000000000000000000000000000000000000000000000009062ffffff1661220a565b600260005403610af55760405162461bcd60e51b81526004016107be90615658565b6002600055610b0e84843330633e51a05360e11b6123be565b6001546107e79085908590859085906000907f00000000000000000000000000000000000000000000000000000000000000009062ffffff1661220a565b600260005403610b6e5760405162461bcd60e51b81526004016107be90615658565b6002600055610b7e87873361171a565b610258610b8b8686615704565b64ffffffffff161015610bb05760405162461bcd60e51b81526004016107be90615722565b610bc787878787610bc088612427565b8787612493565b505060016000555050505050565b600260005403610bf75760405162461bcd60e51b81526004016107be90615658565b6002600055610c1084843330634789c32f60e11b6123be565b6001546107e790859085908590859060009062ffffff166113db565b600260005403610c4e5760405162461bcd60e51b81526004016107be90615658565b6002600055610c6782823330638fe8a90b60e01b6123be565b610c7182826127fc565b50506001600055565b604080518082019091526000808252602082015261099e83836129cd565b600260005403610cba5760405162461bcd60e51b81526004016107be90615658565b6002600055610cd28233306352a8a63f60e11b611f86565b6001546108769084908490849062ffffff16612a09565b6000600260005403610d0d5760405162461bcd60e51b81526004016107be90615658565b6002600055610d3e3384847f0000000000000000000000000000000000000000000000000000000000000000611d48565b60016000559392505050565b610d5583833361171a565b6000610d618484612be8565b90506000816004811115610d7757610d776152b6565b14610d945760405162461bcd60e51b81526004016107be9061574d565b610d9f848484612d18565b610da98484612dd1565b5050505050565b600260005403610dd25760405162461bcd60e51b81526004016107be90615658565b6002600055610deb8383333063b9daf3b560e01b6123be565b600154610876908490849084907f00000000000000000000000000000000000000000000000000000000000000009062ffffff16612e52565b600061099e838361300e565b600260005403610e525760405162461bcd60e51b81526004016107be90615658565b60026000556001546107e7908590859085908590339062ffffff16613030565b600061099e8383613140565b600080610e8b8484613218565b909590945092505050565b604080516020810190915260008152610eae826133d3565b60408051602081019091528154909190829060ff166002811115610ed457610ed46152b6565b6002811115610ee557610ee56152b6565b90525092915050565b600080610efb84846133dd565b9150506000610f0a8585611159565b60060154600160901b90046001600160581b0316905061075b818361118a565b60405162461bcd60e51b81526020600482015260146024820152731058dd1a5bdb881b9bdd081cdd5c1c1bdc9d195960621b60448201526064016107be565b60008060606000610f7a8686613471565b60408051808201909152600381526208aa8960eb1b602082015291989097509095506000945092505050565b610fd97f0000000000000000000000000000000000000000000000000000000000000000333063e624db9f60e01b6135d4565b611b588162ffffff1610156110215760405162461bcd60e51b815260206004820152600e60248201526d04f6e6c792067746520375f3030360941b60448201526064016107be565b6001805462ffffff191662ffffff83169081179091556040519081527ff28602592f2788507e76a86523ec8d5ef26873807e258d4cae31571370c0e6c89060200160405180910390a150565b60026000540361108f5760405162461bcd60e51b81526004016107be90615658565b6002600055604051635845de1f60e01b815230907f00000000000000000000000000000000000000000000000000000000000000006001600160a01b031690635845de1f906110e4908890889060040161568f565b602060405180830381865afa158015611101573d6000803e3d6000fd5b505050506040513d601f19601f8201168201806040525081019061112591906156a6565b6001600160a01b03161461114b5760405162461bcd60e51b81526004016107be906156c3565b6107e7848484843334613629565b60006111636138aa565b6001600160a01b039290921660009081526020928352604080822094825293909252502090565b60006102008261ffff16106111b15760405162461bcd60e51b81526004016107be90615777565b6111be60086102006157c3565b6111cc9061ffff84166157c3565b6001600160581b038416901b90506111e760086102006157c3565b6111f460086102006157c3565b6112029061ffff85166157d7565b61120c90836157eb565b61121691906157c3565b61099e9082615802565b60007f69f22dd730b53ff235fa96b4306a31bef5dad48fe4bac28b1ceebbce14401b385b6001600160a01b039092166000908152600192909201602052506040902090565b6040516000602482018190526044820181905290819060640160408051601f198184030181529181526020820180516001600160e01b0316638639415b60e01b1790525190915060009081906001600160a01b038616906112c7908590615815565b600060405180830381855afa9150503d8060008114611302576040519150601f19603f3d011682016040523d82523d6000602084013e611307565b606091505b5091509150816113675760405162461bcd60e51b815260206004820152602560248201527f6765745072696d617279526576656e756553706c69747328292063616c6c2066604482015264185a5b195960da1b60648201526084016107be565b805160c081900361137e5750600095945050505050565b80610100036113935750600195945050505050565b60405162461bcd60e51b815260206004820152601e60248201527f556e657870656374656420726576656e75652073706c6974206279746573000060448201526064016107be565b8260006113e88888612be8565b905060038160048111156113fe576113fe6152b6565b1461141b5760405162461bcd60e51b81526004016107be90615831565b6000806114288a8a611cbb565b50915091508161144a5760405162461bcd60e51b81526004016107be90615866565b8084111561146a5760405162461bcd60e51b81526004016107be90615890565b50505060006114798888611159565b905060005b828110156115b057600087878381811061149a5761149a6158c7565b90506020020160208101906114af91906158dd565b63ffffffff166000818152602085905260409020805491925090600160501b90046001600160a01b0316806114f65760405162461bcd60e51b81526004016107be906158f8565b6115018260016138ce565b8061151257506115128260026138ce565b1561151f575050506115a8565b871561154d57336001600160a01b0382161461154d5760405162461bcd60e51b81526004016107be90615920565b8154611569908d908d90600160401b900461ffff16868b6138f1565b600585018054600160c81b900462ffffff169060196115878361594f565b91906101000a81548162ffffff021916908362ffffff160217905550505050505b60010161147e565b505050505050505050565b6000806000806000806000806000806000806115d78e8e612be8565b905060006115e58f8f611159565b90508060060160009054906101000a900464ffffffffff1664ffffffffff169c5080600601600a9054906101000a900464ffffffffff1664ffffffffff169b508060060160129054906101000a90046001600160581b03166001600160581b03169a508060050160109054906101000a900462ffffff1662ffffff1699508060050160139054906101000a900462ffffff1662ffffff1698508060050160169054906101000a900462ffffff1662ffffff1697508060050160199054906101000a900462ffffff1662ffffff1696508060050160009054906101000a900461ffff1661ffff1695508060060160109054906101000a900460ff1694508060060160119054906101000a900460ff16935080600701600f9054906101000a900460ff169250509295989b509295989b509295989b565b611725838383613a69565b61175f5760405162461bcd60e51b815260206004820152600b60248201526a13db9b1e48105c9d1a5cdd60aa1b60448201526064016107be565b505050565b60006117708585611159565b9050600161177e8686612be8565b600481111561178f5761178f6152b6565b146117ac5760405162461bcd60e51b81526004016107be90615971565b6006810154600160781b900460ff16156118065760405162461bcd60e51b815260206004820152601b60248201527a273790383932bb34b7bab99030b236b4b71032bc3a32b739b4b7b760291b60448201526064016107be565b6006810154600160281b810464ffffffffff908116600160501b90920416146118415760405162461bcd60e51b81526004016107be9061599c565b600681015464ffffffffff600160501b9091048116908416106118a35760405162461bcd60e51b815260206004820152601a60248201527909edcd8f240e4cac8eac6ca40c2eac6e8d2dedc40d8cadccee8d60331b60448201526064016107be565b60068101546118ba90839064ffffffffff16615802565b8364ffffffffff16116118df5760405162461bcd60e51b81526004016107be90615722565b428364ffffffffff161161192c5760405162461bcd60e51b81526020600482015260146024820152734f6e6c792066757475726520656e642074696d6560601b60448201526064016107be565b600681018054600160281b600160781b031916600160501b64ffffffffff861690810264ffffffffff60281b191691909117600160281b8202179091556040519081526001600160a01b038516908690600080516020615df7833981519152906020015b60405180910390a35050505050565b60006119ab8787611159565b905060016119b98888612be8565b60048111156119ca576119ca6152b6565b146119e75760405162461bcd60e51b81526004016107be90615971565b6006810154600090611a0990600160901b90046001600160581b03168761118a565b9050808414611a5a5760405162461bcd60e51b815260206004820152601f60248201527f6d73672e76616c7565206d75737420657175616c20736c6f742076616c75650060448201526064016107be565b600782018054859190600090611a7a9084906001600160781b03166159cf565b92506101000a8154816001600160781b0302191690836001600160781b031602179055508160050160139054906101000a900462ffffff1662ffffff16600003611ad457611ac88888613af2565b611ad28888612dd1565b505b6005820154600160801b900462ffffff1680611b295760405162461bcd60e51b81526020600482015260146024820152732737903a37b5b2b7399034b71030bab1ba34b7b760611b60448201526064016107be565b6005830154600160981b900462ffffff168111801590611ca0576000611b51858c8c89613bad565b90506000611b768660060160129054906101000a90046001600160581b03168361118a565b9050611b828189613dd2565b611bc75760405162461bcd60e51b8152602060048201526016602482015275496e73756666696369656e74206269642076616c756560501b60448201526064016107be565b6006860154600090600160801b900460ff168015611c0357506006870154611c009061012c90600160501b900464ffffffffff166159ef565b42115b90508015611c9c576006870154611c4090611c2f90610e1090600160281b900464ffffffffff16615802565b611c3b61012c42615802565b613e28565b60068801805464ffffffffff60501b1916600160501b64ffffffffff93841681029190911791829055604051910490911681526001600160a01b038d16908e90600080516020615df78339815191529060200160405180910390a35b5050505b611caf848b8b8b8b6000613e3e565b50505050505050505050565b600080600080611ccb8686611159565b90506000611cd88261415d565b90506000611ce688886141aa565b9050808211955085611cf9576000611d03565b611d0381836159ef565b945085611d1957611d1482826159ef565b611d1c565b60005b93505050509250925092565b600080611d358484614211565b54610100900462ffffff16949350505050565b600080611d558585611159565b90506000611d638686612be8565b90506003816004811115611d7957611d796152b6565b1480611d9657506004816004811115611d9457611d946152b6565b145b611dfa5760405162461bcd60e51b815260206004820152602f60248201527f4f6e6c7920706f73742d61756374696f6e206f70656e206d696e74206f72206160448201526e1b1b08189a591cc81a185b991b1959608a1b60648201526084016107be565b6000611e068787611cbb565b9250505060008111611e545760405162461bcd60e51b815260206004820152601760248201527652656163686564206d617820696e766f636174696f6e7360481b60448201526064016107be565b50506006810154600160901b90046001600160581b0316348114611eba5760405162461bcd60e51b815260206004820152601f60248201527f4f6e6c792073656e642061756374696f6e20726573657276652070726963650060448201526064016107be565b6040516117cd60e21b81526001600160a01b03851690615f3490611ee8908a908a908a903390600401615a02565b6020604051808303816000875af1158015611f07573d6000803e3d6000fd5b505050506040513d601f19601f82011682018060405250810190611f2b9190615a2d565b9250611f38868287614239565b846001600160a01b0316867fdfd0b295795ee66148297b0ff929867a78b799aca7c8def4666dfd1110e58070858a604051611f7492919061568f565b60405180910390a35050949350505050565b611f92848484846143fa565b611fdb5760405162461bcd60e51b815260206004820152601a60248201527913db9b1e4810dbdc994810591b5a5b9050d308185b1b1bddd95960321b60448201526064016107be565b50505050565b6000611fed8484611159565b90506001611ffb8585612be8565b600481111561200c5761200c6152b6565b146120295760405162461bcd60e51b81526004016107be90615971565b6006810154600160281b810464ffffffffff908116600160501b90920416146120645760405162461bcd60e51b81526004016107be9061599c565b6006810154600090612081908490600160781b900460ff16615a46565b905060488160ff1611156120d55760405162461bcd60e51b815260206004820152601b60248201527a09edcd8f240cadacae4cecadcc6f240d0deeae4e640d8e840dac2f602b1b60448201526064016107be565b60006120e660ff8516610e10615a5f565b60068401546121079161ffff1690600160501b900464ffffffffff16615a85565b60068401805465ffffffffffff60501b1916600160781b60ff86160264ffffffffff60501b191617600160501b64ffffffffff84169081029190911764ffffffffff60281b1916600160281b8202179091556040519081529091506001600160a01b038616908790600080516020615df7833981519152906020015b60405180910390a3505050505050565b600061219e836133d3565b80549091508290829060ff191660018360028111156121bf576121bf6152b6565b0217905550826001600160a01b03167f7e87227cdb277003c1fb102daa540277f21bae680e463f9b0022e4726cb59ab0836040516121fd9190615aa3565b60405180910390a2505050565b60006122168888611159565b90508460006122258a8a612be8565b9050600381600481111561223b5761223b6152b6565b146122585760405162461bcd60e51b81526004016107be90615831565b6122618361415d565b8211156122805760405162461bcd60e51b81526004016107be90615ab1565b5060005b81811015611caf5760008888838181106122a0576122a06158c7565b90506020020160208101906122b591906158dd565b63ffffffff166000818152602086905260409020805491925090600160501b90046001600160a01b0316806122fc5760405162461bcd60e51b81526004016107be906158f8565b6123078260016138ce565b8061231857506123188260026138ce565b15612325575050506123b6565b881561235357336001600160a01b038216146123535760405162461bcd60e51b81526004016107be90615920565b600586018054600160b01b900462ffffff169060166123718361594f565b91906101000a81548162ffffff021916908362ffffff160217905550506123b28d8d8460000160089054906101000a900461ffff1661ffff16868c8c614482565b5050505b600101612284565b6123c9858585613a69565b806123db57506123db848484846143fa565b610da95760405162461bcd60e51b815260206004820152601d60248201527f4f6e6c7920417274697374206f7220436f72652041646d696e2041434c00000060448201526064016107be565b60006001600160581b0382111561248f5760405162461bcd60e51b815260206004820152602660248201527f53616665436173743a2076616c756520646f65736e27742066697420696e203860448201526538206269747360d01b60648201526084016107be565b5090565b600061249f8888611159565b905060006124ad8989612be8565b60048111156124be576124be6152b6565b146124db5760405162461bcd60e51b81526004016107be9061574d565b66b1a2bc2ec50000846001600160581b0316101561253a5760405162461bcd60e51b815260206004820152601c60248201527b09edcd8f240c4c2e6ca40e0e4d2c6ca40cee8ca40605c606a408aa8960231b60448201526064016107be565b428664ffffffffff16116125875760405162461bcd60e51b81526020600482015260146024820152734f6e6c79206675747572652061756374696f6e7360601b60448201526064016107be565b6000612592886133d3565b90506001815460ff1660028111156125ac576125ac6152b6565b0361260357826125fe5760405162461bcd60e51b815260206004820152601d60248201527f4f6e6c792061646d696e2d617274697374206d696e7420706572696f6400000060448201526064016107be565b61266e565b6002815460ff16600281111561261b5761261b6152b6565b0361266e57821561266e5760405162461bcd60e51b815260206004820181905260248201527f4f6e6c79206e6f2061646d696e2d617274697374206d696e7420706572696f6460448201526064016107be565b6126788989613af2565b868260060160006101000a81548164ffffffffff021916908364ffffffffff1602179055508582600601600a6101000a81548164ffffffffff021916908364ffffffffff160217905550858260060160056101000a81548164ffffffffff021916908364ffffffffff160217905550848260060160126101000a8154816001600160581b0302191690836001600160581b03160217905550838260060160106101000a81548160ff021916908315150217905550828260060160116101000a81548160ff02191690831515021790555060006127548a8a612dd1565b905061276360016102006159ef565b60058401805461ffff191661ffff929092169190911790556040805164ffffffffff8a81168252891660208201526001600160581b038816818301528615156060820152851515608082015260a0810183905290516001600160a01b038b16918c917ff5182d65d8ff8a191c9e2f9f31fa4757a3e046c58e19c304b66f1766ec3993829160c0908290030190a350505050505050505050565b60006128088383611159565b905060006128168484612be8565b9050600481600481111561282c5761282c6152b6565b146128845760405162461bcd60e51b815260206004820152602260248201527f4f6e6c7920706f73742d61756374696f6e20616c6c20626964732068616e646c604482015261195960f21b60648201526084016107be565b6007820154600160781b900460ff16156128dd5760405162461bcd60e51b815260206004820152601a6024820152792932bb32b73ab2b99030b63932b0b23c903bb4ba34323930bbb760311b60448201526064016107be565b60078201805460ff60781b1916600160781b17905560006128fd836144f6565b600584015490915060009061291e90600160b01b900462ffffff16836157eb565b60078501805491925082916000906129409084906001600160781b0316615ae8565b92506101000a8154816001600160781b0302191690836001600160781b0316021790555061296f868287614239565b6040805177185d58dd1a5bdb94995d995b9d595cd0dbdb1b1958dd195960421b8152600160208201526001600160a01b0387169188917fbb5f9d4f49f83650956b76c40de0f082a06430bf0222e1b6b3f90a7a0f845c4d9101612183565b60408051808201909152600080825260208201526129eb8383611d28565b62ffffff1660208201526129ff8383613140565b1515815292915050565b6000612a158585612be8565b90506002816004811115612a2b57612a2b6152b6565b14612a485760405162461bcd60e51b81526004016107be90615b08565b600080612a558787611cbb565b509150915081612a775760405162461bcd60e51b81526004016107be90615866565b808562ffffff161115612a9c5760405162461bcd60e51b81526004016107be90615890565b5050506000612aab8585611159565b6005810154600160401b9081900463ffffffff1660008181526020849052604081205493945090929190910461ffff16905b8562ffffff16811015612b7d5782600003612b1557600584015461ffff16600081815260028601602052604090205493509150612b2d565b6000928352602084905260409092205463ffffffff16915b82600003612b6457612b4984612b44846001615802565b61455d565b5061ffff166000818152600286016020526040902054935091505b612b7588888461ffff1686896138f1565b600101612add565b808460050160198282829054906101000a900462ffffff16612b9f9190615b4b565b92506101000a81548162ffffff021916908362ffffff160217905550828460050160086101000a81548163ffffffff021916908363ffffffff1602179055505050505050505050565b600080612bf58484611159565b600681015490915064ffffffffff1680158015904283119080612c155750805b15612c275760009450505050506109a1565b6006840154600160501b900464ffffffffff1642811080612c5157600196505050505050506109a1565b600586015460009062ffffff600160981b8204811691612c8291600160c81b8204811691600160b01b900416615b4b565b62ffffff161490508015612ca05760049750505050505050506109a1565b6006870154600090600160881b900460ff168015612cd757506005880154600160981b810462ffffff908116600160801b90920416145b8015612cee5750612ceb6203f48085615802565b42105b90508015612d07576002985050505050505050506109a1565b5060039a9950505050505050505050565b600080612d2585856145ff565b91509150808362ffffff161115612d4e5760405162461bcd60e51b81526004016107be90615b67565b818362ffffff161015612d735760405162461bcd60e51b81526004016107be90615b67565b6000612d7f8686614211565b805462ffffff861685811463ffffffff19909216610100820260ff1916179190911782556040519081529091506001600160a01b038616908790600080516020615dd783398151915290602001612183565b600080612dde8484611159565b9050612dea84846141aa565b60058201805462ffffff60801b1916600160801b62ffffff8416021790556040518181529092506001600160a01b0384169085907fe61b855b975f8c5d6051b121797e73a9c4e2b5fce1e570689013b3591427efa89060200160405180910390a35092915050565b6000612e5e8686611159565b90506000612e6c8787612be8565b90506002816004811115612e8257612e826152b6565b14612e9f5760405162461bcd60e51b81526004016107be90615b08565b612ea88261415d565b8562ffffff161115612ecc5760405162461bcd60e51b81526004016107be90615ab1565b506005810154600160201b900463ffffffff16600081815260208390526040812054600160401b900461ffff16905b8662ffffff16811015612fa25782600003612f3957600584015462010000900461ffff16600081815260018601602052604090205493509150612f8c565b600092835260208490526040832054600160201b900463ffffffff1692839003612f8c57612f7184612f6c6001856159ef565b61467d565b5061ffff166000818152600186016020526040902054935091505b612f9a898984868a8a614482565b600101612efb565b808460050160168282829054906101000a900462ffffff16612fc49190615b4b565b92506101000a81548162ffffff021916908362ffffff160217905550828460050160046101000a81548163ffffffff021916908363ffffffff160217905550505050505050505050565b60008061301b8484611159565b600701546001600160781b0316949350505050565b600061303c8787611159565b9050600061304a8888612be8565b90506002816004811115613060576130606152b6565b148061307d5750600381600481111561307b5761307b6152b6565b145b6130e95760405162461bcd60e51b815260206004820152603760248201527f4f6e6c7920706f73742d61756374696f6e206f70656e206d696e74206f722061604482015276191b5a5b88185c9d1a5cdd081b5a5b9d081c195c9a5bd9604a1b60648201526084016107be565b5060006130f5826144f6565b90508460005b81811015611caf57613138848b8b868c8c8781811061311c5761311c6158c7565b905060200201602081019061313191906158dd565b8b8b614710565b6001016130fb565b60008061314d8484612be8565b90506000816004811115613163576131636152b6565b036131b45760006131748585611159565b600681015490915064ffffffffff16156131a1576005810154600160801b900462ffffff161592506131ae565b6131ab85856147e3565b92505b50613211565b60018160048111156131c8576131c86152b6565b036131fe5760006131d98585611159565b60050154600160801b810462ffffff908116600160981b909204161492506132119050565b600061320a8585611cbb565b1594505050505b5092915050565b60008060006132278585612be8565b905060006132358686611159565b9050600082600481111561324b5761324b6152b6565b036132c557600681015464ffffffffff161515806132a45760405162461bcd60e51b8152602060048201526016602482015275185d58dd1a5bdb881b9bdd0818dbdb999a59dd5c995960521b60448201526064016107be565b506006810154600160901b90046001600160581b03169350600092506133ca565b600581015462ffffff600160801b82048116600160981b90920416101560018360048111156132f6576132f66152b6565b03613365578015613345576005820154613317908890889061ffff166147fc565b61ffff16935061333e8260060160129054906101000a90046001600160581b03168561118a565b94506133c8565b6006820154600160901b90046001600160581b03169450600093506133c8565b80156133ac5760405162461bcd60e51b8152602060048201526016602482015275185d58dd1a5bdb88195b9919590b081cd95b1b1bdd5d60521b60448201526064016107be565b6006820154600160901b90046001600160581b03169450600093505b505b50509250929050565b60006112446138aa565b60008060006133ec8585611159565b6005810154909150600160981b900462ffffff166134415760405162461bcd60e51b81526020600482015260126024820152712737903134b2399034b71030bab1ba34b7b760711b60448201526064016107be565b600581015461ffff1660008181526002830160209081526040808320548352939052919091209590945092505050565b60008060006134808585612be8565b9050600061348e8686611159565b905060008260048111156134a4576134a46152b6565b036134db57600681015464ffffffffff1615801594506134d6576006810154600160901b90046001600160581b031692505b6133ca565b60058101546001945062ffffff600160801b82048116600160981b9092041610158483600481111561350f5761350f6152b6565b0361357e578015613562576005820154600090613533908990899061ffff166147fc565b61ffff16905061355a8360060160129054906101000a90046001600160581b03168261118a565b9450506133c8565b6006820154600160901b90046001600160581b031693506133c8565b80156135b357600682015460058301546135ac91600160901b90046001600160581b03169061ffff1661118a565b93506133c8565b50600601549295600160901b9093046001600160581b031694509192505050565b6135e0848484846143fa565b611fdb5760405162461bcd60e51b815260206004820152601a60248201527913db9b1e48135a5b9d195c919a5b1d195c8810591b5a5b9050d360321b60448201526064016107be565b60006136358787611159565b63ffffffff86166000908152602082905260409020805491925090600160401b900461ffff1660016136678a8a612be8565b6004811115613678576136786152b6565b146136955760405162461bcd60e51b81526004016107be90615971565b8154600160501b90046001600160a01b03166136f05760405162461bcd60e51b815260206004820152601a60248201527942696420646e65202d207765726520796f75206f75746269643f60301b60448201526064016107be565b81546001600160a01b03868116600160501b90920416146137515760405162461bcd60e51b815260206004820152601b60248201527a13db9b1e48189a5919195c881bd988195e1a5cdd1a5b99c8189a59602a1b60448201526064016107be565b600683015460009061377390600160901b90046001600160581b03168361118a565b905060006137988560060160129054906101000a90046001600160581b03168961118a565b9050806137a58784615802565b146137ea5760405162461bcd60e51b8152602060048201526015602482015274696e636f72726563742061646465642076616c756560581b60448201526064016107be565b505060078301805485919060009061380c9084906001600160781b03166159cf565b92506101000a8154816001600160781b0302191690836001600160781b0316021790555061384183828963ffffffff16614864565b61384f838a8a89898c613e3e565b6040805163ffffffff8916815261ffff881660208201526001600160a01b038a16918b917fbcc60406b6a319d70c3feea7347029fbdfd768eecb981b0d2f6735b1e9633c5e91015b60405180910390a3505050505050505050565b7fa3fe13710cb596cbb938328f55db0dd5473d105cbcbbac73fbdbd94800043ab490565b815460009061099e90600160f01b900460ff1683600160ff919091161b16151590565b60006138fd8686611159565b6000848152602082905260408120805492935091600160501b90046001600160a01b03169061392b846144f6565b905080600061393a85826138ce565b6139715761394b85600060016149d9565b50600685015460019061396e90600160901b90046001600160581b03168a61118a565b91505b61397e85600260016149d9565b60078601805483919060009061399e9084906001600160781b0316615ae8565b92506101000a8154816001600160781b0302191690836001600160781b031602179055506139cd848389614a35565b8015613a1857896001600160a01b03168b7fe152fe384870d25a8d821270b8b8043fada748f138ab7f8512af64c65c7261368a604051613a0f91815260200190565b60405180910390a35b896001600160a01b03168b7fa59312996dc68b7f0224b341fed75d5afeb3bb20624107d37942d14f594281568a604051613a5491815260200190565b60405180910390a35050505050505050505050565b60405163a47d29cb60e01b8152600481018490526000906001600160a01b0384169063a47d29cb90602401602060405180830381865afa158015613ab1573d6000803e3d6000fd5b505050506040513d601f19601f82011682018060405250810190613ad591906156a6565b6001600160a01b0316826001600160a01b03161490509392505050565b6000613afe8383614211565b9050613b0a8383614a6a565b15613b195761175f8383614a9d565b600080613b2685856145ff565b84549193509150610100900462ffffff1681811115613b9257835483831463ffffffff1990911661010062ffffff85160260ff1916171784556040518281526001600160a01b038616908790600080516020615dd78339815191529060200160405180910390a3613ba5565b808310613ba557835460ff191660011784555b505050505050565b600584015461ffff16600081815260028601602052604090205480613bfe5760405162461bcd60e51b81526020600482015260076024820152664e6f206269647360c81b60448201526064016107be565b600081815260208781526040808320805461ffff8716855260028b01909352922063ffffffff821690819055600589018054600160501b9093046001600160a01b031692600160981b900462ffffff16906013613c5a83615b98565b91906101000a81548162ffffff021916908362ffffff160217905550508063ffffffff16600003613cd35761ffff8516600081815260018b016020526040812055613ca6908a90614b17565b613cb589612b44876001615bb7565b5060058a01805461ffff191661ffff92909216919091179055613cf7565b63ffffffff8116600090815260208a905260409020805463ffffffff60201b191690555b6006890154600090613d1990600160901b90046001600160581b03168761118a565b60078b0180549192508291600090613d3b9084906001600160781b0316615ae8565b92506101000a8154816001600160781b0302191690836001600160781b03160217905550613d6a838289614a35565b600085815260208b815260409182902080546001600160f81b031916905590518681526001600160a01b038a16918b917f9d1a4511ddb5e2e227897ca79bbe1d71a9af123cd7c7bde8d2bcb292243310c9910160405180910390a35050505050949350505050565b60006706f05b59d3b20000831115613e0657612710613df38461280a6157eb565b613dfd91906157c3565b821190506109a1565b612710613e15846129046157eb565b613e1f91906157c3565b90911192915050565b6000818310613e37578161099e565b5090919050565b63ffffffff8116158015613e8b57600587018054600c90613e6b90600160601b900463ffffffff16615bd2565b91906101000a81548163ffffffff021916908363ffffffff160217905591505b60008760020160008661ffff1681526020019081526020016000205490506040518060a001604052808263ffffffff168152602001600063ffffffff1681526020018661ffff168152602001856001600160a01b03168152602001600060ff168152508860000160008563ffffffff16815260200190815260200160002060008201518160000160006101000a81548163ffffffff021916908363ffffffff16021790555060208201518160000160046101000a81548163ffffffff021916908363ffffffff16021790555060408201518160000160086101000a81548161ffff021916908361ffff160217905550606082015181600001600a6101000a8154816001600160a01b0302191690836001600160a01b03160217905550608082015181600001601e6101000a81548160ff021916908360ff1602179055509050508263ffffffff168860020160008761ffff168152602001908152602001600020819055508060000361401a5761ffff85166000908152600189016020526040902063ffffffff84169055614045565b6000818152602089905260409020805463ffffffff60201b1916600160201b63ffffffff8616021790555b600588018054600160981b900462ffffff169060136140638361594f565b91906101000a81548162ffffff021916908362ffffff16021790555050806000036140f357614096888661ffff16614b72565b600588015461ffff90811690861610156140be5760058801805461ffff191661ffff87161790555b600588015461ffff62010000909104811690861611156140f35760058801805463ffff000019166201000061ffff8816021790555b8115614153576040805161ffff8716815263ffffffff851660208201526001600160a01b038681168284015291519188169189917fd278a5272d5c4a1fbd78fd96e1dc404c29b3e6fc9a525421b777de714354f5a5919081900360600190a35b5050505050505050565b60058101546000906141849062ffffff600160c81b8204811691600160b01b900416615b4b565b600583015461419f9190600160981b900462ffffff16615beb565b62ffffff1692915050565b60008060006141b985856145ff565b9150915060006141c98686614211565b80549091506000906141e6908490610100900462ffffff16613e28565b90508084106141fc5760009450505050506109a1565b61420684826159ef565b979650505050505050565b60007f73e3af67f35f30fb72bbaaf6cc07b987364ed643c93ba201702e213464e877ee611163565b8160000361424657505050565b600061425182614bc1565b905060008060008060008060008088156142ef57604051638639415b60e01b8152600481018d9052602481018c90526001600160a01b038b1690638639415b9060440161010060405180830381865afa1580156142b2573d6000803e3d6000fd5b505050506040513d601f19601f820116820180604052508101906142d69190615c07565b969e50949c50929a50909850965094509250905061436f565b604051638639415b60e01b8152600481018d9052602481018c90526001600160a01b038b1690638639415b9060440160c060405180830381865afa15801561433b573d6000803e3d6000fd5b505050506040513d601f19601f8201168201806040525081019061435f9190615c8f565b949c50929a509096509450925090505b8a828561437c898c615802565b6143869190615802565b6143909190615802565b146143dc5760405162461bcd60e51b815260206004820152601c60248201527b496e76616c696420726576656e75652073706c697420746f74616c7360201b60448201526064016107be565b6143ec86868a8a88888888614c0f565b505050505050505050505050565b60405163230448b160e01b81526001600160a01b03848116600483015283811660248301526001600160e01b0319831660448301526000919086169063230448b1906064016020604051808303816000875af115801561445e573d6000803e3d6000fd5b505050506040513d601f19601f8201168201806040525081019061075b9190615cf8565b600061448e8787611159565b60008581526020829052604081209192506144a8836144f6565b90506144b6826001806149d9565b81546144d8908a908a908990600160501b90046001600160a01b031689614eb1565b6144e38260006138ce565b6115b0576115b0838a8a8a8a868a614f71565b600581015460009062ffffff600160801b82048116600160981b90920416101580614535576006830154600160901b90046001600160581b0316610795565b6006830154600584015461079591600160901b90046001600160581b03169061ffff1661118a565b6000806101ff8361ffff1611156145865760405162461bcd60e51b81526004016107be90615d15565b600060ff8461ffff1611156145bb5760048501546145a49085615073565b925090506145b461010082615802565b90506145f6565b60038501546145ca9085615073565b92509050816145f65760048501546145e3906000615073565b925090506145f361010082615802565b90505b94909350915050565b604051630ea5613f60e01b81526004810183905260009081906001600160a01b03841690630ea5613f9060240160c060405180830381865afa158015614649573d6000803e3d6000fd5b505050506040513d601f19601f8201168201806040525081019061466d9190615d4b565b5093989297509195505050505050565b6000806101ff8361ffff1611156146a65760405162461bcd60e51b81526004016107be90615d15565b60006101008461ffff1610156146ce5760038501546146c590856150d8565b925090506145f6565b60048501546146dd90856150d8565b925090506146ed61010082615802565b9050816145f65760038501546147049060ff6150d8565b90969095509350505050565b63ffffffff8316600090815260208890526040902080546001600160a01b03848116600160501b90920416146147765760405162461bcd60e51b815260206004820152600b60248201526a27b7363c903134b23232b960a91b60448201526064016107be565b6147818160006138ce565b156147c45760405162461bcd60e51b815260206004820152601360248201527213db9b1e481d5b8b5cd95d1d1b195908189a59606a1b60448201526064016107be565b805461415390899089908990600160401b900461ffff16888a88614f71565b6000806147f08484614211565b5460ff16949350505050565b6000806148098585611159565b6006810154909150600160901b90046001600160581b0316600061482d828661118a565b905061ffff851660005b600190910190614847848361118a565b90506148538382613dd2565b156148375750979650505050505050565b60008181526020849052604081208054909163ffffffff80831692600160201b900416908290036148b25761ffff85166000908152600187016020526040902063ffffffff821690556148e6565b63ffffffff80831660009081526020889052604090208054918316600160201b0263ffffffff60201b199092169190911790555b8063ffffffff166000036149175761ffff85166000908152600287016020526040902063ffffffff83169055614940565b63ffffffff8181166000908152602088905260409020805463ffffffff19169184169190911790555b600586018054600160981b900462ffffff1690601361495e83615b98565b91906101000a81548162ffffff021916908362ffffff160217905550508163ffffffff166000148015614995575063ffffffff8116155b15613ba5576149a8868661ffff16614b17565b6149b786612b44876001615bb7565b5060058701805461ffff90921661ffff19909216919091179055505050505050565b8015614a16578254600160ff8481169190911b600160f01b90920416175b835460ff91909116600160f01b0260ff60f01b19909116178355505050565b82546149f790600160f01b900460ff1683600160ff919091161b191690565b600080600080858786f161175f57826000526073600b5360ff6020536016600b83f061175f57620f42405a1161175f57600080fd5b600080614a778484614211565b8054909150610100900462ffffff16158015614a955750805460ff16155b949350505050565b600080614aaa84846145ff565b915091506000614aba8585614211565b9050614ac58261510c565b815460ff1962ffffff92909216610100029190911663ffffffff19909116178383141781556040516001600160a01b038516908690600080516020615dd7833981519152906119909086815260200190565b6102008110614b385760405162461bcd60e51b81526004016107be90615777565b610100811015614b5a576003820154600160ff83161b19165b60038301555050565b6004820154600160ff83161b19165b60048301555050565b6102008110614b935760405162461bcd60e51b81526004016107be90615777565b610100811015614baf576003820154600160ff83161b17614b51565b6004820154600160ff83161b17614b69565b600080614bcd83611220565b8054909150610100900460ff1615614be9575460ff1692915050565b6000614bf484611265565b825481151561ffff1990911617610100179092555092915050565b8715614cba576000876001600160a01b03168960405160006040518083038185875af1925050503d8060008114614c62576040519150601f19603f3d011682016040523d82523d6000602084013e614c67565b606091505b5050905080614cb85760405162461bcd60e51b815260206004820181905260248201527f506c6174666f726d2050726f7669646572207061796d656e74206661696c656460448201526064016107be565b505b8515614d65576000856001600160a01b03168760405160006040518083038185875af1925050503d8060008114614d0d576040519150601f19603f3d011682016040523d82523d6000602084013e614d12565b606091505b5050905080614d635760405162461bcd60e51b815260206004820152601e60248201527f52656e6465722050726f7669646572207061796d656e74206661696c6564000060448201526064016107be565b505b8315614e08576000836001600160a01b03168560405160006040518083038185875af1925050503d8060008114614db8576040519150601f19603f3d011682016040523d82523d6000602084013e614dbd565b606091505b5050905080614e065760405162461bcd60e51b8152602060048201526015602482015274105c9d1a5cdd081c185e5b595b9d0819985a5b1959605a1b60448201526064016107be565b505b8115614153576000816001600160a01b03168360405160006040518083038185875af1925050503d8060008114614e5b576040519150601f19603f3d011682016040523d82523d6000602084013e614e60565b606091505b50509050806115b05760405162461bcd60e51b815260206004820152601f60248201527f4164646974696f6e616c205061796565207061796d656e74206661696c65640060448201526064016107be565b6040516117cd60e21b81526000906001600160a01b03831690615f3490614ee29086908a908a903390600401615a02565b6020604051808303816000875af1158015614f01573d6000803e3d6000fd5b505050506040513d601f19601f82011682018060405250810190614f259190615a2d565b6040805163ffffffff87168152602081018390529192506001600160a01b0387169188917f3c81bf6062ef45a4f3a4407699b008e79d9310eb22ba240838820f37535a92859101612183565b63ffffffff8316600090815260208890526040812090614f9490829060016149d9565b600083614fb88a60060160129054906101000a90046001600160581b03168861118a565b614fc291906159ef565b9050801561503057600789018054829190600090614fea9084906001600160781b0316615ae8565b92506101000a8154816001600160781b0302191690836001600160781b0316021790555061503082600001600a9054906101000a90046001600160a01b03168285614a35565b60405163ffffffff861681526001600160a01b0388169089907fe152fe384870d25a8d821270b8b8043fada748f138ab7f8512af64c65c72613690602001613897565b6000808260ff1684901c600003615090575060ff905060006150d1565b8260ff1691505b60ff821080156150ad5750600160ff83161b8416155b156150c457816150bc81615da6565b925050615097565b50600160ff82161b831615155b9250929050565b60ff811660005b6000821180156150f55750600160ff83161b8416155b156150c4578161510481615dbf565b9250506150df565b600062ffffff82111561248f5760405162461bcd60e51b815260206004820152602660248201527f53616665436173743a2076616c756520646f65736e27742066697420696e203260448201526534206269747360d01b60648201526084016107be565b6001600160a01b038116811461518557600080fd5b50565b803561ffff8116811461519a57600080fd5b919050565b6000806000606084860312156151b457600080fd5b8335925060208401356151c681615170565b91506151d460408501615188565b90509250925092565b6000602082840312156151ef57600080fd5b813561079581615170565b6000806000806060858703121561521057600080fd5b84359350602085013561522281615170565b9250604085013567ffffffffffffffff8082111561523f57600080fd5b818701915087601f83011261525357600080fd5b81358181111561526257600080fd5b8860208260051b850101111561527757600080fd5b95989497505060200194505050565b6000806040838503121561529957600080fd5b8235915060208301356152ab81615170565b809150509250929050565b634e487b7160e01b600052602160045260246000fd5b6000610180820190508d82528c60208301528b60408301528a60608301528960808301528860a08301528760c08301528660e08301528515156101008301528415156101208301528315156101408301526005831061532d5761532d6152b6565b826101608301529d9c50505050505050505050505050565b803564ffffffffff8116811461519a57600080fd5b60008060006060848603121561536f57600080fd5b83359250602084013561538181615170565b91506151d460408501615345565b6000806000606084860312156153a457600080fd5b83356153af81615170565b92506020840135915060408401356153c681615170565b809150509250925092565b6000806000606084860312156153e657600080fd5b8335925060208401356153f881615170565b9150604084013560ff811681146153c657600080fd5b6000806040838503121561542157600080fd5b823561542c81615170565b91506020830135600381106152ab57600080fd5b801515811461518557600080fd5b600080600080600080600060e0888a03121561546957600080fd5b87359650602088013561547b81615170565b955061548960408901615345565b945061549760608901615345565b93506080880135925060a08801356154ae81615440565b915060c08801356154be81615440565b8091505092959891949750929550565b803562ffffff8116811461519a57600080fd5b6000806000606084860312156154f657600080fd5b83359250602084013561550881615170565b91506151d4604085016154ce565b60005b83811015615531578181015183820152602001615519565b50506000910152565b60008151808452615552816020860160208601615516565b601f01601f19169290920160200192915050565b60208152600061099e602083018461553a565b60038110615589576155896152b6565b9052565b60006020820190506109a1828451615579565b84151581528360208201526080604082015260006155c1608083018561553a565b905060018060a01b038316606083015295945050505050565b6000602082840312156155ec57600080fd5b61099e826154ce565b803563ffffffff8116811461519a57600080fd5b6000806000806080858703121561561f57600080fd5b84359350602085013561563181615170565b925061563f604086016155f5565b915061564d60608601615188565b905092959194509250565b6020808252601f908201527f5265656e7472616e637947756172643a207265656e7472616e742063616c6c00604082015260600190565b9182526001600160a01b0316602082015260400190565b6000602082840312156156b857600080fd5b815161079581615170565b6020808252601190820152704d696e746572206e6f742061637469766560781b604082015260600190565b634e487b7160e01b600052601160045260246000fd5b64ffffffffff828116828216039080821115613211576132116156ee565b602080825260119082015270105d58dd1a5bdb881d1bdbc81cda1bdc9d607a1b604082015260600190565b60208082526010908201526f27b7363c9038393296b0bab1ba34b7b760811b604082015260600190565b6020808252601c908201527b4f6e6c7920736c6f7420696e646578206c74204e554d5f534c4f545360201b604082015260600190565b634e487b7160e01b600052601260045260246000fd5b6000826157d2576157d26157ad565b500490565b6000826157e6576157e66157ad565b500690565b80820281158282048414176109a1576109a16156ee565b808201808211156109a1576109a16156ee565b60008251615827818460208701615516565b9190910192915050565b6020808252601b908201527a13db9b1e481c1bdcdd0b585d58dd1a5bdb881bdc195b881b5a5b9d602a1b604082015260600190565b60208082526010908201526f4f6e6c7920696e20737461746520453160801b604082015260600190565b6020808252601f908201527f6269647320746f20726566756e6420677420617661696c61626c652071747900604082015260600190565b634e487b7160e01b600052603260045260246000fd5b6000602082840312156158ef57600080fd5b61099e826155f5565b6020808252600e908201526d1a5b9d985b1a5908109a5908125160921b604082015260600190565b60208082526015908201527427b7363c9039b2b73232b91034b9903134b23232b960591b604082015260600190565b600062ffffff808316818103615967576159676156ee565b6001019392505050565b60208082526011908201527027b7363c903634bb329030bab1ba34b7b760791b604082015260600190565b6020808252601990820152784e6f7420616c6c6f77656420696e2065787472612074696d6560381b604082015260600190565b6001600160781b03818116838216019080821115613211576132116156ee565b818103818111156109a1576109a16156ee565b6001600160a01b03948516815260208101939093529083166040830152909116606082015260800190565b600060208284031215615a3f57600080fd5b5051919050565b60ff81811683821601908111156109a1576109a16156ee565b61ffff818116838216028082169190828114615a7d57615a7d6156ee565b505092915050565b64ffffffffff818116838216019080821115613211576132116156ee565b602081016109a18284615579565b6020808252601d908201527f746f6b656e7320746f206d696e7420677420746f6b656e73206f776564000000604082015260600190565b6001600160781b03828116828216039080821115613211576132116156ee565b60208082526023908201527f4f6e6c7920706f73742d61756374696f6e2061646d696e2d6172746973742d6f6040820152626e6c7960e81b606082015260800190565b62ffffff818116838216019080821115613211576132116156ee565b602080825260179082015276496e76616c6964206d617820696e766f636174696f6e7360481b604082015260600190565b600062ffffff821680615bad57615bad6156ee565b6000190192915050565b61ffff818116838216019080821115613211576132116156ee565b600063ffffffff808316818103615967576159676156ee565b62ffffff828116828216039080821115613211576132116156ee565b600080600080600080600080610100898b031215615c2457600080fd5b885197506020890151615c3681615170565b60408a015160608b01519198509650615c4e81615170565b60808a015160a08b01519196509450615c6681615170565b60c08a015160e08b01519194509250615c7e81615170565b809150509295985092959890939650565b60008060008060008060c08789031215615ca857600080fd5b865195506020870151615cba81615170565b604088015160608901519196509450615cd281615170565b608088015160a08901519194509250615cea81615170565b809150509295509295509295565b600060208284031215615d0a57600080fd5b815161079581615440565b6020808252601c908201527b27b7363c9039ba30b93a1039b637ba1034b73232bc10363a101a989960211b604082015260600190565b60008060008060008060c08789031215615d6457600080fd5b86519550602087015194506040870151615d7d81615440565b6060880151909450615d8e81615440565b608088015160a08901519194509250615cea81615440565b600060018201615db857615db86156ee565b5060010190565b600081615dce57615dce6156ee565b50600019019056fe1c3e74a6c6fefbaeee166b031cd2016349c6c863d5188b67c9bbd0b0dcb2e237520e05d2a73ab549525f701daae4d8ac1897891bb1afca813602709aafc7a830a2646970667358221220ab2c37416194520f49dbd10cc9ae30eff06d6c7762f964ae3e2c74727a00403a64736f6c63430008160033",
  "linkReferences": {},
  "deployedLinkReferences": {}
}