{
  "_format": "hh-sol-artifact-1",
  "contractName": "MinterSEAV1",
  "sourceName": "contracts/minter-suite/Minters/MinterSEAV1.sol",
  "abi": [
    {
      "inputs": [
        {
          "internalType": "address",
          "name": "_minterFilter",
          "type": "address"
        }
      ],
      "stateMutability": "nonpayable",
      "type": "constructor"
    },
    {
      "anonymous": false,
      "inputs": [
        {
          "indexed": true,
          "internalType": "uint256",
          "name": "tokenId",
          "type": "uint256"
        },
        {
          "indexed": true,
          "internalType": "address",
          "name": "coreContract",
          "type": "address"
        },
        {
          "indexed": true,
          "internalType": "address",
          "name": "bidder",
          "type": "address"
        },
        {
          "indexed": false,
          "internalType": "uint256",
          "name": "bidAmount",
          "type": "uint256"
        }
      ],
      "name": "AuctionBid",
      "type": "event"
    },
    {
      "anonymous": false,
      "inputs": [
        {
          "indexed": true,
          "internalType": "uint256",
          "name": "tokenId",
          "type": "uint256"
        },
        {
          "indexed": true,
          "internalType": "address",
          "name": "coreContract",
          "type": "address"
        },
        {
          "indexed": true,
          "internalType": "address",
          "name": "bidder",
          "type": "address"
        },
        {
          "indexed": false,
          "internalType": "uint256",
          "name": "bidAmount",
          "type": "uint256"
        },
        {
          "indexed": false,
          "internalType": "uint64",
          "name": "endTime",
          "type": "uint64"
        },
        {
          "indexed": false,
          "internalType": "uint8",
          "name": "minBidIncrementPercentage",
          "type": "uint8"
        }
      ],
      "name": "AuctionInitialized",
      "type": "event"
    },
    {
      "anonymous": false,
      "inputs": [
        {
          "indexed": true,
          "internalType": "uint256",
          "name": "tokenId",
          "type": "uint256"
        },
        {
          "indexed": true,
          "internalType": "address",
          "name": "coreContract",
          "type": "address"
        },
        {
          "indexed": true,
          "internalType": "address",
          "name": "winner",
          "type": "address"
        },
        {
          "indexed": false,
          "internalType": "uint256",
          "name": "price",
          "type": "uint256"
        }
      ],
      "name": "AuctionSettled",
      "type": "event"
    },
    {
      "anonymous": false,
      "inputs": [
        {
          "indexed": true,
          "internalType": "uint256",
          "name": "_projectId",
          "type": "uint256"
        },
        {
          "indexed": true,
          "internalType": "address",
          "name": "_coreContract",
          "type": "address"
        },
        {
          "indexed": false,
          "internalType": "bytes32",
          "name": "_key",
          "type": "bytes32"
        }
      ],
      "name": "ConfigKeyRemoved",
      "type": "event"
    },
    {
      "anonymous": false,
      "inputs": [
        {
          "indexed": true,
          "internalType": "uint256",
          "name": "_projectId",
          "type": "uint256"
        },
        {
          "indexed": true,
          "internalType": "address",
          "name": "_coreContract",
          "type": "address"
        },
        {
          "indexed": false,
          "internalType": "bytes32",
          "name": "_key",
          "type": "bytes32"
        },
        {
          "indexed": false,
          "internalType": "uint256",
          "name": "_value",
          "type": "uint256"
        }
      ],
      "name": "ConfigValueAddedToSet",
      "type": "event"
    },
    {
      "anonymous": false,
      "inputs": [
        {
          "indexed": true,
          "internalType": "uint256",
          "name": "_projectId",
          "type": "uint256"
        },
        {
          "indexed": true,
          "internalType": "address",
          "name": "_coreContract",
          "type": "address"
        },
        {
          "indexed": false,
          "internalType": "bytes32",
          "name": "_key",
          "type": "bytes32"
        },
        {
          "indexed": false,
          "internalType": "address",
          "name": "_value",
          "type": "address"
        }
      ],
      "name": "ConfigValueAddedToSet",
      "type": "event"
    },
    {
      "anonymous": false,
      "inputs": [
        {
          "indexed": true,
          "internalType": "uint256",
          "name": "_projectId",
          "type": "uint256"
        },
        {
          "indexed": true,
          "internalType": "address",
          "name": "_coreContract",
          "type": "address"
        },
        {
          "indexed": false,
          "internalType": "bytes32",
          "name": "_key",
          "type": "bytes32"
        },
        {
          "indexed": false,
          "internalType": "bytes32",
          "name": "_value",
          "type": "bytes32"
        }
      ],
      "name": "ConfigValueAddedToSet",
      "type": "event"
    },
    {
      "anonymous": false,
      "inputs": [
        {
          "indexed": true,
          "internalType": "uint256",
          "name": "_projectId",
          "type": "uint256"
        },
        {
          "indexed": true,
          "internalType": "address",
          "name": "_coreContract",
          "type": "address"
        },
        {
          "indexed": false,
          "internalType": "bytes32",
          "name": "_key",
          "type": "bytes32"
        },
        {
          "indexed": false,
          "internalType": "uint256",
          "name": "_value",
          "type": "uint256"
        }
      ],
      "name": "ConfigValueRemovedFromSet",
      "type": "event"
    },
    {
      "anonymous": false,
      "inputs": [
        {
          "indexed": true,
          "internalType": "uint256",
          "name": "_projectId",
          "type": "uint256"
        },
        {
          "indexed": true,
          "internalType": "address",
          "name": "_coreContract",
          "type": "address"
        },
        {
          "indexed": false,
          "internalType": "bytes32",
          "name": "_key",
          "type": "bytes32"
        },
        {
          "indexed": false,
          "internalType": "address",
          "name": "_value",
          "type": "address"
        }
      ],
      "name": "ConfigValueRemovedFromSet",
      "type": "event"
    },
    {
      "anonymous": false,
      "inputs": [
        {
          "indexed": true,
          "internalType": "uint256",
          "name": "_projectId",
          "type": "uint256"
        },
        {
          "indexed": true,
          "internalType": "address",
          "name": "_coreContract",
          "type": "address"
        },
        {
          "indexed": false,
          "internalType": "bytes32",
          "name": "_key",
          "type": "bytes32"
        },
        {
          "indexed": false,
          "internalType": "bytes32",
          "name": "_value",
          "type": "bytes32"
        }
      ],
      "name": "ConfigValueRemovedFromSet",
      "type": "event"
    },
    {
      "anonymous": false,
      "inputs": [
        {
          "indexed": true,
          "internalType": "uint256",
          "name": "_projectId",
          "type": "uint256"
        },
        {
          "indexed": true,
          "internalType": "address",
          "name": "_coreContract",
          "type": "address"
        },
        {
          "indexed": false,
          "internalType": "bytes32",
          "name": "_key",
          "type": "bytes32"
        },
        {
          "indexed": false,
          "internalType": "bool",
          "name": "_value",
          "type": "bool"
        }
      ],
      "name": "ConfigValueSet",
      "type": "event"
    },
    {
      "anonymous": false,
      "inputs": [
        {
          "indexed": true,
          "internalType": "uint256",
          "name": "_projectId",
          "type": "uint256"
        },
        {
          "indexed": true,
          "internalType": "address",
          "name": "_coreContract",
          "type": "address"
        },
        {
          "indexed": false,
          "internalType": "bytes32",
          "name": "_key",
          "type": "bytes32"
        },
        {
          "indexed": false,
          "internalType": "uint256",
          "name": "_value",
          "type": "uint256"
        }
      ],
      "name": "ConfigValueSet",
      "type": "event"
    },
    {
      "anonymous": false,
      "inputs": [
        {
          "indexed": true,
          "internalType": "uint256",
          "name": "_projectId",
          "type": "uint256"
        },
        {
          "indexed": true,
          "internalType": "address",
          "name": "_coreContract",
          "type": "address"
        },
        {
          "indexed": false,
          "internalType": "bytes32",
          "name": "_key",
          "type": "bytes32"
        },
        {
          "indexed": false,
          "internalType": "address",
          "name": "_value",
          "type": "address"
        }
      ],
      "name": "ConfigValueSet",
      "type": "event"
    },
    {
      "anonymous": false,
      "inputs": [
        {
          "indexed": true,
          "internalType": "uint256",
          "name": "_projectId",
          "type": "uint256"
        },
        {
          "indexed": true,
          "internalType": "address",
          "name": "_coreContract",
          "type": "address"
        },
        {
          "indexed": false,
          "internalType": "bytes32",
          "name": "_key",
          "type": "bytes32"
        },
        {
          "indexed": false,
          "internalType": "bytes32",
          "name": "_value",
          "type": "bytes32"
        }
      ],
      "name": "ConfigValueSet",
      "type": "event"
    },
    {
      "anonymous": false,
      "inputs": [
        {
          "indexed": true,
          "internalType": "uint256",
          "name": "projectId",
          "type": "uint256"
        },
        {
          "indexed": true,
          "internalType": "address",
          "name": "coreContract",
          "type": "address"
        },
        {
          "indexed": false,
          "internalType": "uint64",
          "name": "timestampStart",
          "type": "uint64"
        },
        {
          "indexed": false,
          "internalType": "uint32",
          "name": "auctionDurationSeconds",
          "type": "uint32"
        },
        {
          "indexed": false,
          "internalType": "uint256",
          "name": "basePrice",
          "type": "uint256"
        },
        {
          "indexed": false,
          "internalType": "uint8",
          "name": "minBidIncrementPercentage",
          "type": "uint8"
        }
      ],
      "name": "ConfiguredFutureAuctions",
      "type": "event"
    },
    {
      "anonymous": false,
      "inputs": [
        {
          "indexed": false,
          "internalType": "uint256",
          "name": "minAuctionDurationSeconds",
          "type": "uint256"
        }
      ],
      "name": "MinAuctionDurationSecondsUpdated",
      "type": "event"
    },
    {
      "anonymous": false,
      "inputs": [
        {
          "indexed": false,
          "internalType": "uint24",
          "name": "refundGasLimit",
          "type": "uint24"
        }
      ],
      "name": "MinterRefundGasLimitUpdated",
      "type": "event"
    },
    {
      "anonymous": false,
      "inputs": [
        {
          "indexed": false,
          "internalType": "uint32",
          "name": "minterTimeBufferSeconds",
          "type": "uint32"
        }
      ],
      "name": "MinterTimeBufferUpdated",
      "type": "event"
    },
    {
      "anonymous": false,
      "inputs": [
        {
          "indexed": true,
          "internalType": "uint256",
          "name": "_projectId",
          "type": "uint256"
        },
        {
          "indexed": true,
          "internalType": "address",
          "name": "_coreContract",
          "type": "address"
        },
        {
          "indexed": true,
          "internalType": "uint256",
          "name": "_pricePerTokenInWei",
          "type": "uint256"
        }
      ],
      "name": "PricePerTokenInWeiUpdated",
      "type": "event"
    },
    {
      "anonymous": false,
      "inputs": [
        {
          "indexed": true,
          "internalType": "uint256",
          "name": "_projectId",
          "type": "uint256"
        },
        {
          "indexed": true,
          "internalType": "address",
          "name": "_coreContract",
          "type": "address"
        },
        {
          "indexed": true,
          "internalType": "address",
          "name": "_currencyAddress",
          "type": "address"
        },
        {
          "indexed": false,
          "internalType": "string",
          "name": "_currencySymbol",
          "type": "string"
        }
      ],
      "name": "ProjectCurrencyInfoUpdated",
      "type": "event"
    },
    {
      "anonymous": false,
      "inputs": [
        {
          "indexed": true,
          "internalType": "uint256",
          "name": "_projectId",
          "type": "uint256"
        },
        {
          "indexed": true,
          "internalType": "address",
          "name": "_coreContract",
          "type": "address"
        },
        {
          "indexed": false,
          "internalType": "uint256",
          "name": "_maxInvocations",
          "type": "uint256"
        }
      ],
      "name": "ProjectMaxInvocationsLimitUpdated",
      "type": "event"
    },
    {
      "anonymous": false,
      "inputs": [
        {
          "indexed": true,
          "internalType": "uint256",
          "name": "projectId",
          "type": "uint256"
        },
        {
          "indexed": true,
          "internalType": "address",
          "name": "coreContract",
          "type": "address"
        }
      ],
      "name": "ProjectNextTokenEjected",
      "type": "event"
    },
    {
      "anonymous": false,
      "inputs": [
        {
          "indexed": true,
          "internalType": "uint256",
          "name": "projectId",
          "type": "uint256"
        },
        {
          "indexed": true,
          "internalType": "address",
          "name": "coreContract",
          "type": "address"
        },
        {
          "indexed": false,
          "internalType": "uint256",
          "name": "tokenId",
          "type": "uint256"
        }
      ],
      "name": "ProjectNextTokenUpdated",
      "type": "event"
    },
    {
      "anonymous": false,
      "inputs": [
        {
          "indexed": true,
          "internalType": "uint256",
          "name": "projectId",
          "type": "uint256"
        },
        {
          "indexed": true,
          "internalType": "address",
          "name": "coreContract",
          "type": "address"
        }
      ],
      "name": "ResetAuctionDetails",
      "type": "event"
    },
    {
      "inputs": [],
      "name": "MIN_AUCTION_DURATION_SECONDS",
      "outputs": [
        {
          "internalType": "uint256",
          "name": "",
          "type": "uint256"
        }
      ],
      "stateMutability": "view",
      "type": "function"
    },
    {
      "inputs": [
        {
          "internalType": "uint256",
          "name": "_projectId",
          "type": "uint256"
        },
        {
          "internalType": "address",
          "name": "_coreContract",
          "type": "address"
        }
      ],
      "name": "SEAProjectConfigurationDetails",
      "outputs": [
        {
          "components": [
            {
              "internalType": "uint64",
              "name": "timestampStart",
              "type": "uint64"
            },
            {
              "internalType": "uint32",
              "name": "auctionDurationSeconds",
              "type": "uint32"
            },
            {
              "internalType": "uint8",
              "name": "minBidIncrementPercentage",
              "type": "uint8"
            },
            {
              "internalType": "uint24",
              "name": "nextTokenNumber",
              "type": "uint24"
            },
            {
              "internalType": "bool",
              "name": "nextTokenNumberIsPopulated",
              "type": "bool"
            },
            {
              "internalType": "uint256",
              "name": "basePrice",
              "type": "uint256"
            },
            {
              "components": [
                {
                  "internalType": "uint256",
                  "name": "tokenId",
                  "type": "uint256"
                },
                {
                  "internalType": "uint256",
                  "name": "currentBid",
                  "type": "uint256"
                },
                {
                  "internalType": "address payable",
                  "name": "currentBidder",
                  "type": "address"
                },
                {
                  "internalType": "uint64",
                  "name": "endTime",
                  "type": "uint64"
                },
                {
                  "internalType": "uint8",
                  "name": "minBidIncrementPercentage",
                  "type": "uint8"
                },
                {
                  "internalType": "bool",
                  "name": "settled",
                  "type": "bool"
                }
              ],
              "internalType": "struct SEALib.Auction",
              "name": "activeAuction",
              "type": "tuple"
            }
          ],
          "internalType": "struct SEALib.SEAProjectConfig",
          "name": "_SEAProjectConfig",
          "type": "tuple"
        }
      ],
      "stateMutability": "view",
      "type": "function"
    },
    {
      "inputs": [
        {
          "internalType": "uint256",
          "name": "_projectId",
          "type": "uint256"
        },
        {
          "internalType": "address",
          "name": "_coreContract",
          "type": "address"
        },
        {
          "internalType": "uint256",
          "name": "_timestampStart",
          "type": "uint256"
        },
        {
          "internalType": "uint256",
          "name": "_auctionDurationSeconds",
          "type": "uint256"
        },
        {
          "internalType": "uint256",
          "name": "_basePrice",
          "type": "uint256"
        },
        {
          "internalType": "uint8",
          "name": "_minBidIncrementPercentage",
          "type": "uint8"
        }
      ],
      "name": "configureFutureAuctions",
      "outputs": [],
      "stateMutability": "nonpayable",
      "type": "function"
    },
    {
      "inputs": [
        {
          "internalType": "uint256",
          "name": "_tokenId",
          "type": "uint256"
        },
        {
          "internalType": "address",
          "name": "_coreContract",
          "type": "address"
        }
      ],
      "name": "createBid",
      "outputs": [],
      "stateMutability": "payable",
      "type": "function"
    },
    {
      "inputs": [
        {
          "internalType": "uint256",
          "name": "_projectId",
          "type": "uint256"
        },
        {
          "internalType": "address",
          "name": "_coreContract",
          "type": "address"
        },
        {
          "internalType": "address",
          "name": "_to",
          "type": "address"
        }
      ],
      "name": "ejectNextTokenTo",
      "outputs": [],
      "stateMutability": "nonpayable",
      "type": "function"
    },
    {
      "inputs": [
        {
          "internalType": "uint256",
          "name": "_projectId",
          "type": "uint256"
        },
        {
          "internalType": "address",
          "name": "_coreContract",
          "type": "address"
        }
      ],
      "name": "getNextTokenId",
      "outputs": [
        {
          "internalType": "uint256",
          "name": "nextTokenId",
          "type": "uint256"
        }
      ],
      "stateMutability": "view",
      "type": "function"
    },
    {
      "inputs": [
        {
          "internalType": "uint256",
          "name": "_projectId",
          "type": "uint256"
        },
        {
          "internalType": "address",
          "name": "_coreContract",
          "type": "address"
        }
      ],
      "name": "getPriceInfo",
      "outputs": [
        {
          "internalType": "bool",
          "name": "isConfigured",
          "type": "bool"
        },
        {
          "internalType": "uint256",
          "name": "tokenPriceInWei",
          "type": "uint256"
        },
        {
          "internalType": "string",
          "name": "currencySymbol",
          "type": "string"
        },
        {
          "internalType": "address",
          "name": "currencyAddress",
          "type": "address"
        }
      ],
      "stateMutability": "view",
      "type": "function"
    },
    {
      "inputs": [
        {
          "internalType": "uint256",
          "name": "_projectId",
          "type": "uint256"
        },
        {
          "internalType": "address",
          "name": "_coreContract",
          "type": "address"
        }
      ],
      "name": "getTokenToBid",
      "outputs": [
        {
          "internalType": "uint256",
          "name": "",
          "type": "uint256"
        }
      ],
      "stateMutability": "view",
      "type": "function"
    },
    {
      "inputs": [
        {
          "internalType": "uint256",
          "name": "_projectId",
          "type": "uint256"
        },
        {
          "internalType": "address",
          "name": "_coreContract",
          "type": "address"
        },
        {
          "internalType": "uint24",
          "name": "_maxInvocations",
          "type": "uint24"
        }
      ],
      "name": "manuallyLimitProjectMaxInvocations",
      "outputs": [],
      "stateMutability": "nonpayable",
      "type": "function"
    },
    {
      "inputs": [],
      "name": "minterConfigurationDetails",
      "outputs": [
        {
          "internalType": "uint256",
          "name": "minAuctionDurationSeconds_",
          "type": "uint256"
        },
        {
          "internalType": "uint32",
          "name": "minterTimeBufferSeconds_",
          "type": "uint32"
        },
        {
          "internalType": "uint24",
          "name": "minterRefundGasLimit_",
          "type": "uint24"
        }
      ],
      "stateMutability": "view",
      "type": "function"
    },
    {
      "inputs": [],
      "name": "minterFilterAddress",
      "outputs": [
        {
          "internalType": "address",
          "name": "",
          "type": "address"
        }
      ],
      "stateMutability": "view",
      "type": "function"
    },
    {
      "inputs": [],
      "name": "minterType",
      "outputs": [
        {
          "internalType": "string",
          "name": "",
          "type": "string"
        }
      ],
      "stateMutability": "view",
      "type": "function"
    },
    {
      "inputs": [],
      "name": "minterVersion",
      "outputs": [
        {
          "internalType": "string",
          "name": "",
          "type": "string"
        }
      ],
      "stateMutability": "view",
      "type": "function"
    },
    {
      "inputs": [
        {
          "internalType": "uint256",
          "name": "_projectId",
          "type": "uint256"
        },
        {
          "internalType": "address",
          "name": "_coreContract",
          "type": "address"
        }
      ],
      "name": "projectActiveAuctionDetails",
      "outputs": [
        {
          "components": [
            {
              "internalType": "uint256",
              "name": "tokenId",
              "type": "uint256"
            },
            {
              "internalType": "uint256",
              "name": "currentBid",
              "type": "uint256"
            },
            {
              "internalType": "address payable",
              "name": "currentBidder",
              "type": "address"
            },
            {
              "internalType": "uint64",
              "name": "endTime",
              "type": "uint64"
            },
            {
              "internalType": "uint8",
              "name": "minBidIncrementPercentage",
              "type": "uint8"
            },
            {
              "internalType": "bool",
              "name": "settled",
              "type": "bool"
            }
          ],
          "internalType": "struct SEALib.Auction",
          "name": "auction",
          "type": "tuple"
        }
      ],
      "stateMutability": "view",
      "type": "function"
    },
    {
      "inputs": [
        {
          "internalType": "uint256",
          "name": "_projectId",
          "type": "uint256"
        },
        {
          "internalType": "address",
          "name": "_coreContract",
          "type": "address"
        }
      ],
      "name": "projectMaxHasBeenInvoked",
      "outputs": [
        {
          "internalType": "bool",
          "name": "",
          "type": "bool"
        }
      ],
      "stateMutability": "view",
      "type": "function"
    },
    {
      "inputs": [
        {
          "internalType": "uint256",
          "name": "_projectId",
          "type": "uint256"
        },
        {
          "internalType": "address",
          "name": "_coreContract",
          "type": "address"
        }
      ],
      "name": "projectMaxInvocations",
      "outputs": [
        {
          "internalType": "uint256",
          "name": "",
          "type": "uint256"
        }
      ],
      "stateMutability": "view",
      "type": "function"
    },
    {
      "inputs": [
        {
          "internalType": "uint256",
          "name": "",
          "type": "uint256"
        },
        {
          "internalType": "address",
          "name": "",
          "type": "address"
        }
      ],
      "name": "purchase",
      "outputs": [
        {
          "internalType": "uint256",
          "name": "",
          "type": "uint256"
        }
      ],
      "stateMutability": "payable",
      "type": "function"
    },
    {
      "inputs": [
        {
          "internalType": "address",
          "name": "",
          "type": "address"
        },
        {
          "internalType": "uint256",
          "name": "",
          "type": "uint256"
        },
        {
          "internalType": "address",
          "name": "",
          "type": "address"
        }
      ],
      "name": "purchaseTo",
      "outputs": [
        {
          "internalType": "uint256",
          "name": "",
          "type": "uint256"
        }
      ],
      "stateMutability": "payable",
      "type": "function"
    },
    {
      "inputs": [
        {
          "internalType": "uint256",
          "name": "_projectId",
          "type": "uint256"
        },
        {
          "internalType": "address",
          "name": "_coreContract",
          "type": "address"
        }
      ],
      "name": "resetFutureAuctionDetails",
      "outputs": [],
      "stateMutability": "nonpayable",
      "type": "function"
    },
    {
      "inputs": [
        {
          "internalType": "uint256",
          "name": "_tokenId",
          "type": "uint256"
        },
        {
          "internalType": "address",
          "name": "_coreContract",
          "type": "address"
        }
      ],
      "name": "settleAuction",
      "outputs": [],
      "stateMutability": "nonpayable",
      "type": "function"
    },
    {
      "inputs": [
        {
          "internalType": "uint256",
          "name": "_settleTokenId",
          "type": "uint256"
        },
        {
          "internalType": "uint256",
          "name": "_bidTokenId",
          "type": "uint256"
        },
        {
          "internalType": "address",
          "name": "_coreContract",
          "type": "address"
        }
      ],
      "name": "settleAuctionAndCreateBid",
      "outputs": [],
      "stateMutability": "payable",
      "type": "function"
    },
    {
      "inputs": [
        {
          "internalType": "uint256",
          "name": "_projectId",
          "type": "uint256"
        },
        {
          "internalType": "address",
          "name": "_coreContract",
          "type": "address"
        }
      ],
      "name": "syncProjectMaxInvocationsToCore",
      "outputs": [],
      "stateMutability": "nonpayable",
      "type": "function"
    },
    {
      "inputs": [
        {
          "internalType": "uint256",
          "name": "_projectId",
          "type": "uint256"
        },
        {
          "internalType": "address",
          "name": "_coreContract",
          "type": "address"
        }
      ],
      "name": "tryPopulateNextToken",
      "outputs": [],
      "stateMutability": "nonpayable",
      "type": "function"
    },
    {
      "inputs": [
        {
          "internalType": "uint32",
          "name": "_minterTimeBufferSeconds",
          "type": "uint32"
        }
      ],
      "name": "updateMinterTimeBufferSeconds",
      "outputs": [],
      "stateMutability": "nonpayable",
      "type": "function"
    },
    {
      "inputs": [
        {
          "internalType": "uint24",
          "name": "_minterRefundGasLimit",
          "type": "uint24"
        }
      ],
      "name": "updateRefundGasLimit",
      "outputs": [],
      "stateMutability": "nonpayable",
      "type": "function"
    }
  ],
  "bytecode": "0x60c06040526001805466ffffffffffffff1916657530000000781790553480156200002957600080fd5b5060405162002fe138038062002fe18339810160408190526200004c916200011e565b60016000556001600160a01b038116608081905260a052604051603c81527f4ef0f5aca00c220a4058c318e0dd5526680003d4e6fceb9ad65087452a8313fa9060200160405180910390a160015460405163ffffffff90911681527f8b3c10d428bd990a6450cefb1c55333a8e7ad39e44e310574b6357014c8fcbae9060200160405180910390a160015460405164010000000090910462ffffff1681527ff28602592f2788507e76a86523ec8d5ef26873807e258d4cae31571370c0e6c89060200160405180910390a15062000150565b6000602082840312156200013157600080fd5b81516001600160a01b03811681146200014957600080fd5b9392505050565b60805160a051612e5d6200018460003960006116e90152600081816104240152818161053601526111fb0152612e5d6000f3fe6080604052600436106101265760003560e01c8063217748bb1461012b5780633c496a3e1461014d5780634869f3df146101805780634b1614ba146101ca5780634e8d8787146101ea57806355ec841c146101fd578063630766801461021d5780637a1b838f1461025a57806390748d281461027a5780639b7b5585146102a7578063ae77c237146102bc578063b000e334146102ca578063b8bd1b1d146102ea578063b945c4e0146102fd578063cce7c90914610310578063cf76e1b014610363578063d3ddabe614610383578063d9bffbce146103c2578063d9eb16db146103e2578063dd85582f14610412578063e4566f2d1461045e578063e624db9f1461047e578063e9d1e8ac1461049e578063f1d1a7fa146104d5578063ff83e649146104f5575b600080fd5b34801561013757600080fd5b5061014b6101463660046127c4565b610522565b005b34801561015957600080fd5b5061016d6101683660046127ff565b6105b3565b6040519081526020015b60405180910390f35b34801561018c57600080fd5b5061016d61019b3660046127ff565b6001600160a01b031660009081526003602090815260408083209383529290522054610100900462ffffff1690565b3480156101d657600080fd5b5061016d6101e53660046127ff565b6105ea565b61016d6101f836600461282f565b610617565b34801561020957600080fd5b5061014b610218366004612871565b61065b565b34801561022957600080fd5b5060015460408051603c815263ffffffff83166020820152600160201b90920462ffffff1690820152606001610177565b34801561026657600080fd5b5061014b6102753660046128a8565b6107f9565b34801561028657600080fd5b5061029a6102953660046127ff565b610a04565b604051610177919061295a565b3480156102b357600080fd5b5061016d603c81565b61016d6101f83660046127ff565b3480156102d657600080fd5b5061014b6102e53660046129e3565b610b25565b61014b6102f83660046127ff565b610bb7565b61014b61030b366004612a21565b610dec565b34801561031c57600080fd5b5061035361032b3660046127ff565b6001600160a01b03166000908152600360209081526040808320938352929052205460ff1690565b6040519015158152602001610177565b34801561036f57600080fd5b5061014b61037e3660046127ff565b610e5d565b34801561038f57600080fd5b506103b560405180604001604052806006815260200165076312e302e360d41b81525081565b6040516101779190612a9f565b3480156103ce57600080fd5b5061014b6103dd3660046127ff565b610eeb565b3480156103ee57600080fd5b506104026103fd3660046127ff565b610f64565b6040516101779493929190612ab2565b34801561041e57600080fd5b506104467f000000000000000000000000000000000000000000000000000000000000000081565b6040516001600160a01b039091168152602001610177565b34801561046a57600080fd5b5061014b6104793660046127ff565b610fc4565b34801561048a57600080fd5b5061014b610499366004612aec565b6111f6565b3480156104aa57600080fd5b506103b56040518060400160405280600b81526020016a4d696e746572534541563160a81b81525081565b3480156104e157600080fd5b5061014b6104f03660046127ff565b6112c3565b34801561050157600080fd5b506105156105103660046127ff565b611350565b6040516101779190612b07565b6105318163ffffffff16611384565b6105647f0000000000000000000000000000000000000000000000000000000000000000333063217748bb60e01b6113c7565b6001805463ffffffff191663ffffffff83169081179091556040519081527f8b3c10d428bd990a6450cefb1c55333a8e7ad39e44e310574b6357014c8fcbae906020015b60405180910390a150565b6001600160a01b038116600090815260046020908152604080832085845290915281206105e08185611422565b9150505b92915050565b6001600160a01b038116600090815260046020908152604080832085845290915281206105e08185611464565b60405162461bcd60e51b815260206004820152601160248201527024b730b1ba34bb3290333ab731ba34b7b760791b60448201526000906064015b60405180910390fd5b61066e82333063157b210760e21b6113c7565b6001600160a01b0382166000908152600460209081526040808320868452909152902061069a816114e6565b156106e45760405162461bcd60e51b815260206004820152601a6024820152794f6e6c7920756e636f6e666967757265642070726f6a6563747360301b6044820152606401610652565b8054600160801b900460ff1615156001146107315760405162461bcd60e51b815260206004820152600d60248201526c2737903732bc3a103a37b5b2b760991b6044820152606401610652565b805460ff60801b1916808255600090610757908690600160681b900462ffffff166114f9565b6040516323b872dd60e01b81529091506001600160a01b038516906323b872dd9061078a90309087908690600401612b15565b600060405180830381600087803b1580156107a457600080fd5b505af11580156107b8573d6000803e3d6000fd5b50506040516001600160a01b03871692508791507f10cd4451a553c43379019750f57f76e7b32c27d28019cc64e1cb457c678cfef690600090a35050505050565b61080282611384565b61080e8160ff16611384565b610819868633611509565b6001600160a01b03851660008181526004602090815260408083208a84528252808320938352600382528083208a8452909152902085158061085a57508542105b6108a55760405162461bcd60e51b815260206004820152601c60248201527b04f6e6c79206675747572652073746172742074696d6573206f7220360241b6044820152606401610652565b603c8510156108f65760405162461bcd60e51b815260206004820152601e60248201527f41756374696f6e206475726174696f6e2062656c6f77206d696e696d756d00006044820152606401610652565b6108ff8661154e565b825467ffffffffffffffff19166001600160401b0391909116178255610924856115ba565b82546001840186905564ffffffffff60401b1916600160401b63ffffffff929092169190910260ff60601b191617600160601b60ff8516021782556001600160a01b038716887f62be165a67549c68012bfe757f102930d89f0efb86df6ccd057cb526e20977806109948961154e565b61099d896115ba565b604080516001600160401b03909316835263ffffffff9091166020830152810188905260ff8716606082015260800160405180910390a36109dd8161161f565b6109f0576109eb8888610eeb565b6109fa565b6109fa8888611644565b5050505050505050565b610a0c61274c565b506001600160a01b038082166000908152600460208181526040808420878552825292839020835160e08101855281546001600160401b03808216835263ffffffff600160401b8304168386015260ff600160601b830481168489015262ffffff600160681b840416606080860191909152600160801b909304811615156080808601918252600187015460a0808801919091528a5160c08181018d5260028a0154825260038a01549a82019a909a5297909901549a8b1699870199909952600160a01b8a0490921692850192909252600160e01b8804821696840196909652600160e81b90960490951615159281019290925283015251610b0f576000610b15565b80606001515b62ffffff16606082015292915050565b610b30838333611509565b6001600160a01b03821660009081526003602090815260408083208684529091529020610b62908490849084906117d4565b60405162ffffff821681526001600160a01b0383169084907f1c3e74a6c6fefbaeee166b031cd2016349c6c863d5188b67c9bbd0b0dcb2e237906020015b60405180910390a3610bb28383611644565b505050565b600260005403610bd95760405162461bcd60e51b815260040161065290612b39565b60026000908155610be98361185b565b6001600160a01b038316600090815260046020818152604080842085855290915290912090810154600382015492935090916002830191600160a01b90046001600160401b031690610c3a8361186a565b1580610c5157506002830154600160e81b900460ff165b15610c6b57610c6185878961187c565b5050505050610de3565b82548714610cbb5760405162461bcd60e51b815260206004820152601f60248201527f546f6b656e20494420646f6573206e6f74206d617463682061756374696f6e006044820152606401610652565b428211610d025760405162461bcd60e51b8152602060048201526015602482015274105d58dd1a5bdb88185b1c9958591e48195b991959605a1b6044820152606401610652565b610d0b83611b32565b341015610d4b5760405162461bcd60e51b815260206004820152600e60248201526d42696420697320746f6f206c6f7760901b6044820152606401610652565b60028301546001546001600160a01b0390911690610d7290859063ffffffff163433611b6d565b600154610d8e9082908490600160201b900462ffffff16611bf5565b336001600160a01b0316876001600160a01b0316897f3bb6f40a8aeb5dda33c401527cd8f6bd335757d2b1ed2827f0321a090c66b82434604051610dd491815260200190565b60405180910390a45050505050505b50506001600055565b610df58261185b565b610dfe8461185b565b14610e495760405162461bcd60e51b815260206004820152601b60248201527a13db9b1e481d1bdad95b9cc81a5b881cd85b59481c1c9bda9958dd602a1b6044820152606401610652565b610e538382610fc4565b610bb28282610bb7565b600260005403610e7f5760405162461bcd60e51b815260040161065290612b39565b6002600055610e8f828233611509565b6001600160a01b03811660009081526004602090815260408083208584529091529020610ebb816114e6565b610ed75760405162461bcd60e51b815260040161065290612b70565b610ee18383611644565b5050600160005550565b610ef6828233611509565b6001600160a01b03811660009081526003602090815260408083208584529091528120610f269084908490611c2a565b9050816001600160a01b0316837f1c3e74a6c6fefbaeee166b031cd2016349c6c863d5188b67c9bbd0b0dcb2e23783604051610ba091815260200190565b6001600160a01b0381166000908152600460209081526040808320858452909152812081906060908290610f9781611ccf565b60408051808201909152600381526208aa8960eb1b60208201529199909850909650600095509350505050565b600260005403610fe65760405162461bcd60e51b815260040161065290612b39565b60026000908155610ff68361185b565b6001600160a01b03808416600090815260046020818152604080842086855290915290912090810154600382015493945090926002840192919091169061103c8361186a565b6110825760405162461bcd60e51b8152602060048201526017602482015276105d58dd1a5bdb881b9bdd081a5b9a5d1a585b1a5e9959604a1b6044820152606401610652565b6002830154600160e81b900460ff168061109d575082548714155b156110ac575050505050610de3565b6002830154600160a01b90046001600160401b03164210156111085760405162461bcd60e51b8152602060048201526015602482015274105d58dd1a5bdb881b9bdd081e595d08195b991959605a1b6044820152606401610652565b60028301805460ff60e81b1916600160e81b1790556040516323b872dd60e01b81526001600160a01b038716906323b872dd9061114d90309086908c90600401612b15565b600060405180830381600087803b15801561116757600080fd5b505af115801561117b573d6000803e3d6000fd5b505050506001600160a01b03861660009081526002602052604081206111a2908890611d26565b90506111b086838984611d58565b826001600160a01b0316876001600160a01b0316897f3e25c3675d003af5184b628dd8bd4775b9b3abc7351c3574c90870ca25b55f1185604051610dd491815260200190565b6112297f0000000000000000000000000000000000000000000000000000000000000000333063e624db9f60e01b6113c7565b611b588162ffffff1610156112715760405162461bcd60e51b815260206004820152600e60248201526d04f6e6c792067746520375f3030360941b6044820152606401610652565b6001805462ffffff60201b1916600160201b62ffffff8416908102919091179091556040519081527ff28602592f2788507e76a86523ec8d5ef26873807e258d4cae31571370c0e6c8906020016105a8565b6112d7828233306378e8d3fd60e11b612123565b6001600160a01b03811660009081526004602090815260408083208584529091529020611315818054600060018301556001600160681b0319169055565b6040516001600160a01b0383169084907f865169678476a498ca03f184818d6bd6217dd57b754577a944c19d6d75587c8090600090a3505050565b61135861278f565b6001600160a01b038216600090815260046020908152604080832086845290915290206105e081612187565b806000036113c45760405162461bcd60e51b815260206004820152600d60248201526c4f6e6c79206e6f6e2d7a65726f60981b6044820152606401610652565b50565b6113d384848484612253565b61141c5760405162461bcd60e51b815260206004820152601a60248201527913db9b1e4810dbdc994810591b5a5b9050d308185b1b1bddd95960321b6044820152606401610652565b50505050565b6000600283016114318161186a565b80156114515750600281015442600160a01b9091046001600160401b0316115b1561145e575490506105e4565b6105e084845b8154600090600160801b900460ff166114ba5760405162461bcd60e51b815260206004820152601860248201527713995e1d081d1bdad95b881b9bdd081c1bdc1d5b185d195960421b6044820152606401610652565b8254600160681b900462ffffff166114d5620f424084612bb6565b6114df9190612bcd565b9392505050565b54600160401b900463ffffffff16151590565b6000816114d5620f424085612bb6565b6115148383836122e4565b610bb25760405162461bcd60e51b815260206004820152600b60248201526a13db9b1e48105c9d1a5cdd60aa1b6044820152606401610652565b60006001600160401b038211156115b65760405162461bcd60e51b815260206004820152602660248201527f53616665436173743a2076616c756520646f65736e27742066697420696e203660448201526534206269747360d01b6064820152608401610652565b5090565b600063ffffffff8211156115b65760405162461bcd60e51b815260206004820152602660248201527f53616665436173743a2076616c756520646f65736e27742066697420696e203360448201526532206269747360d01b6064820152608401610652565b8054600090610100900462ffffff1615801561163d5750815460ff16155b1592915050565b6001600160a01b038116600081815260046020908152604080832086845282528083209383526003825280832086845290915290208154600160801b900460ff16156116905750505050565b61169b81858561236d565b6116a55750505050565b815460ff60801b1916600160801b1782556040516117cd60e21b8152306004820152602481018590526001600160a01b0384811660448301523360648301526000917f000000000000000000000000000000000000000000000000000000000000000090911690615f34906084016020604051808303816000875af1158015611732573d6000803e3d6000fd5b505050506040513d601f19601f820116820180604052508101906117569190612be0565b9050611761816123a7565b835462ffffff91909116600160681b0262ffffff60681b1990911617835561178981836123b6565b836001600160a01b0316857f0ebdd7cad7efd438492c42bc712f64b1f41b046cd6cb52382c4d1b513459194a836040516117c591815260200190565b60405180910390a35050505050565b6000806117e1868661242e565b91509150808462ffffff16111561180a5760405162461bcd60e51b815260040161065290612bf9565b818462ffffff16101561182f5760405162461bcd60e51b815260040161065290612bf9565b50815460ff1962ffffff90941661010081029490941663ffffffff199091161792149190911790555050565b60006105e4620f424083612c40565b600201546001600160a01b0316151590565b6001600160a01b03821660009081526004602090815260408083208684529091529020600281016118ac826114e6565b6118c85760405162461bcd60e51b815260040161065290612b70565b81546001600160401b03164210156119205760405162461bcd60e51b815260206004820152601b60248201527a4f6e6c79206774652070726f6a6563742073746172742074696d6560281b6044820152606401610652565b6119298161186a565b158061194057506002810154600160e81b900460ff165b61198b5760405162461bcd60e51b815260206004820152601c60248201527b115e1a5cdd1a5b99c8185d58dd1a5bdb881b9bdd081cd95d1d1b195960221b6044820152606401610652565b81600101543410156119da5760405162461bcd60e51b8152602060048201526018602482015277125b9cdd59999a58da595b9d081a5b9a5d1a585b08189a5960421b6044820152606401610652565b8154600160801b900460ff16611a3e5760405162461bcd60e51b8152602060048201526024808201527f4e6f206e65787420746f6b656e2c20636865636b206d617820696e766f636174604482015263696f6e7360e01b6064820152608401610652565b611a47836123a7565b8254600160681b900462ffffff1614611a9e5760405162461bcd60e51b8152602060048201526019602482015278125b98dbdc9c9958dd081d185c99d95d081d1bdad95b881251603a1b6044820152606401610652565b6000611aac838534336124ac565b835460ff60801b191684556004840154604080513481526001600160401b0384166020820152600160e01b90920460ff169082015290915033906001600160a01b0387169086907fb35324b0305f7c72581844f61b571e7136827ec4b3bcd716a1b8a8b7d42e1e549060600160405180910390a4611b2a8686611644565b505050505050565b6002810154600090606490611b5190600160e01b900460ff1682612c54565b60ff168360010154611b639190612bb6565b6105e49190612c40565b600184018290556002840180546001600160a01b0319166001600160a01b0383161790556000611b9d8442612bcd565b6002860154909150600160a01b90046001600160401b0316811115611bee57611bc58161154e565b8560020160146101000a8154816001600160401b0302191690836001600160401b031602179055505b5050505050565b600080600080858786f1610bb257826000526073600b5360ff6020536016600b83f0610bb257620f42405a11610bb257600080fd5b6000806000846001600160a01b0316630ea5613f876040518263ffffffff1660e01b8152600401611c5d91815260200190565b60c060405180830381865afa158015611c7a573d6000803e3d6000fd5b505050506040513d601f19601f82011682018060405250810190611c9e9190612c7d565b5050875493831463ffffffff1990941661010062ffffff85160260ff19161793909317909655979650505050505050565b6000806002830181611ce0856114e6565b90506000611ced83612574565b90508180611cf85750805b94508415611d1e578015611d1657611d0f83611b32565b9350611d1e565b856001015493505b505050915091565b8054600090610100900460ff1615611d435750805460ff166105e4565b6000611d4f84846125a0565b91506105e49050565b821561141c5760008060008060008060008715611ea957604051638639415b60e01b8152600481018c9052602481018b905260009081906001600160a01b038c1690638639415b9060440161010060405180830381865afa158015611dc1573d6000803e3d6000fd5b505050506040513d601f19601f82011682018060405250810190611de59190612cdc565b969e50949c50909a50985091965091945090925090508115611ea2576040516001600160a01b038216908390600081818185875af1925050503d8060008114611e4a576040519150601f19603f3d011682016040523d82523d6000602084013e611e4f565b606091505b50508099505088611ea25760405162461bcd60e51b815260206004820181905260248201527f506c6174666f726d2050726f7669646572207061796d656e74206661696c65646044820152606401610652565b5050611f29565b604051638639415b60e01b8152600481018c9052602481018b90526001600160a01b038a1690638639415b9060440160c060405180830381865afa158015611ef5573d6000803e3d6000fd5b505050506040513d601f19601f82011682018060405250810190611f199190612d64565b949a509298509096509450925090505b8515611fd0576040516001600160a01b038616908790600081818185875af1925050503d8060008114611f78576040519150601f19603f3d011682016040523d82523d6000602084013e611f7d565b606091505b50508097505086611fd05760405162461bcd60e51b815260206004820152601e60248201527f52656e6465722050726f7669646572207061796d656e74206661696c656400006044820152606401610652565b831561206f576040516001600160a01b038416908590600081818185875af1925050503d806000811461201f576040519150601f19603f3d011682016040523d82523d6000602084013e612024565b606091505b5050809750508661206f5760405162461bcd60e51b8152602060048201526015602482015274105c9d1a5cdd081c185e5b595b9d0819985a5b1959605a1b6044820152606401610652565b8115612116576040516001600160a01b038216908390600081818185875af1925050503d80600081146120be576040519150601f19603f3d011682016040523d82523d6000602084013e6120c3565b606091505b505080975050866121165760405162461bcd60e51b815260206004820152601f60248201527f4164646974696f6e616c205061796565207061796d656e74206661696c6564006044820152606401610652565b5050505050505050505050565b61212e8585856122e4565b80612140575061214084848484612253565b611bee5760405162461bcd60e51b815260206004820152601860248201527713db9b1e48105c9d1a5cdd081bdc8810591b5a5b881050d360421b6044820152606401610652565b61218f61278f565b6002820161219c8161186a565b6121e75760405162461bcd60e51b815260206004820152601c60248201527b139bc8185d58dd1a5bdb88195e1a5cdd1cc81bdb881c1c9bda9958dd60221b6044820152606401610652565b50506040805160c08101825260028301548152600383015460208201526004909201546001600160a01b038116918301919091526001600160401b03600160a01b820416606083015260ff600160e01b820481166080840152600160e81b90910416151560a082015290565b60405163230448b160e01b81526001600160a01b03848116600483015283811660248301526001600160e01b0319831660448301526000919086169063230448b1906064016020604051808303816000875af11580156122b7573d6000803e3d6000fd5b505050506040513d601f19601f820116820180604052508101906122db9190612dbf565b95945050505050565b60405163a47d29cb60e01b8152600481018490526000906001600160a01b0384169063a47d29cb90602401602060405180830381865afa15801561232c573d6000803e3d6000fd5b505050506040513d601f19601f820116820180604052508101906123509190612dda565b6001600160a01b0316826001600160a01b03161490509392505050565b600080600061237c858561242e565b87549193509150610100900462ffffff1660006123998383612736565b909310979650505050505050565b60006105e4620f424083612df7565b8054620f4240830660010190610100900462ffffff16808211156124165760405162461bcd60e51b815260206004820152601760248201527613585e081a5b9d9bd8d85d1a5bdb9cc81c995858da1959604a1b6044820152606401610652565b80820361141c57825460ff1916600117835550505050565b604051630ea5613f60e01b81526004810183905260009081906001600160a01b03841690630ea5613f9060240160c060405180830381865afa158015612478573d6000803e3d6000fd5b505050506040513d601f19601f8201168201806040525081019061249c9190612c7d565b5093989297509195505050505050565b83546000906124d1906124cc90600160401b900463ffffffff1642612bcd565b61154e565b6040805160c081018252868152602081018690526001600160a01b03949094169084018190526001600160401b038216606085018190528754600160601b900460ff1660808601819052600060a09096019590955260028801969096556003870194909455600490950180546001600160e01b031916909317600160a01b9094029390931761ffff60e01b1916600160e01b90910260ff60e81b19161790555090565b600061257f8261186a565b80156105e457505060020154600160a01b90046001600160401b0316421090565b6040516000602482018190526044820181905290819060640160408051601f198184030181529181526020820180516001600160e01b0316638639415b60e01b1790525190915060009081906001600160a01b03871690612602908590612e0b565b6000604051808303816000865af19150503d806000811461263f576040519150601f19603f3d011682016040523d82523d6000602084013e612644565b606091505b5091509150816126a45760405162461bcd60e51b815260206004820152602560248201527f6765745072696d617279526576656e756553706c69747328292063616c6c2066604482015264185a5b195960da1b6064820152608401610652565b805160c08190036126ca575050835461ffff191661010017845550600091506105e49050565b80610100036126ee575050835461ffff191661010117845550600191506105e49050565b60405162461bcd60e51b815260206004820152601e60248201527f556e657870656374656420726576656e75652073706c697420627974657300006044820152606401610652565b600081831061274557816114df565b5090919050565b6040805160e081018252600080825260208201819052918101829052606081018290526080810182905260a081019190915260c0810161278a61278f565b905290565b6040805160c081018252600080825260208201819052918101829052606081018290526080810182905260a081019190915290565b6000602082840312156127d657600080fd5b813563ffffffff811681146114df57600080fd5b6001600160a01b03811681146113c457600080fd5b6000806040838503121561281257600080fd5b823591506020830135612824816127ea565b809150509250929050565b60008060006060848603121561284457600080fd5b833561284f816127ea565b9250602084013591506040840135612866816127ea565b809150509250925092565b60008060006060848603121561288657600080fd5b833592506020840135612898816127ea565b91506040840135612866816127ea565b60008060008060008060c087890312156128c157600080fd5b8635955060208701356128d3816127ea565b945060408701359350606087013592506080870135915060a087013560ff811681146128fe57600080fd5b809150509295509295509295565b80518252602080820151908301526040808201516001600160a01b0316908301526060808201516001600160401b03169083015260808082015160ff169083015260a0908101511515910152565b6000610180820190506001600160401b03835116825263ffffffff602084015116602083015260ff604084015116604083015262ffffff606084015116606083015260808301511515608083015260a083015160a083015260c08301516129c460c084018261290c565b5092915050565b803562ffffff811681146129de57600080fd5b919050565b6000806000606084860312156129f857600080fd5b833592506020840135612a0a816127ea565b9150612a18604085016129cb565b90509250925092565b600080600060608486031215612a3657600080fd5b83359250602084013591506040840135612866816127ea565b60005b83811015612a6a578181015183820152602001612a52565b50506000910152565b60008151808452612a8b816020860160208601612a4f565b601f01601f19169290920160200192915050565b6020815260006114df6020830184612a73565b8415158152836020820152608060408201526000612ad36080830185612a73565b905060018060a01b038316606083015295945050505050565b600060208284031215612afe57600080fd5b6114df826129cb565b60c081016105e4828461290c565b6001600160a01b039384168152919092166020820152604081019190915260600190565b6020808252601f908201527f5265656e7472616e637947756172643a207265656e7472616e742063616c6c00604082015260600190565b602080825260169082015275141c9bda9958dd081b9bdd0818dbdb999a59dd5c995960521b604082015260600190565b634e487b7160e01b600052601160045260246000fd5b80820281158282048414176105e4576105e4612ba0565b808201808211156105e4576105e4612ba0565b600060208284031215612bf257600080fd5b5051919050565b602080825260179082015276496e76616c6964206d617820696e766f636174696f6e7360481b604082015260600190565b634e487b7160e01b600052601260045260246000fd5b600082612c4f57612c4f612c2a565b500490565b60ff81811683821601908111156105e4576105e4612ba0565b805180151581146129de57600080fd5b60008060008060008060c08789031215612c9657600080fd5b8651955060208701519450612cad60408801612c6d565b9350612cbb60608801612c6d565b925060808701519150612cd060a08801612c6d565b90509295509295509295565b600080600080600080600080610100898b031215612cf957600080fd5b885197506020890151612d0b816127ea565b60408a015160608b01519198509650612d23816127ea565b60808a015160a08b01519196509450612d3b816127ea565b60c08a015160e08b01519194509250612d53816127ea565b809150509295985092959890939650565b60008060008060008060c08789031215612d7d57600080fd5b865195506020870151612d8f816127ea565b604088015160608901519196509450612da7816127ea565b608088015160a089015191945092506128fe816127ea565b600060208284031215612dd157600080fd5b6114df82612c6d565b600060208284031215612dec57600080fd5b81516114df816127ea565b600082612e0657612e06612c2a565b500690565b60008251612e1d818460208701612a4f565b919091019291505056fea264697066735822122014d11e4f324a749120a0e4793e43de65034fa07314f14183dcd05568aeceeb8e64736f6c63430008130033",
  "linkReferences": {},
  "deployedLinkReferences": {}
}