{
  "_format": "hh-sol-artifact-1",
  "contractName": "MinterRAMV0",
  "sourceName": "contracts/minter-suite/Minters/MinterRAMV0.sol",
  "abi": [
    {
      "inputs": [
        {
          "internalType": "address",
          "name": "minterFilter",
          "type": "address"
        }
      ],
      "stateMutability": "nonpayable",
      "type": "constructor"
    },
    {
      "anonymous": false,
      "inputs": [
        {
          "indexed": false,
          "internalType": "uint256",
          "name": "auctionBufferSeconds",
          "type": "uint256"
        },
        {
          "indexed": false,
          "internalType": "uint256",
          "name": "maxAuctionExtraSeconds",
          "type": "uint256"
        }
      ],
      "name": "AuctionBufferTimeParamsUpdated",
      "type": "event"
    },
    {
      "anonymous": false,
      "inputs": [
        {
          "indexed": true,
          "internalType": "uint256",
          "name": "projectId",
          "type": "uint256"
        },
        {
          "indexed": true,
          "internalType": "address",
          "name": "coreContract",
          "type": "address"
        },
        {
          "indexed": false,
          "internalType": "uint256",
          "name": "timestampStart",
          "type": "uint256"
        },
        {
          "indexed": false,
          "internalType": "uint256",
          "name": "timestampEnd",
          "type": "uint256"
        },
        {
          "indexed": false,
          "internalType": "uint256",
          "name": "basePrice",
          "type": "uint256"
        },
        {
          "indexed": false,
          "internalType": "bool",
          "name": "allowExtraTime",
          "type": "bool"
        },
        {
          "indexed": false,
          "internalType": "bool",
          "name": "adminArtistOnlyMintPeriodIfSellout",
          "type": "bool"
        },
        {
          "indexed": false,
          "internalType": "uint256",
          "name": "numTokensInAuction",
          "type": "uint256"
        }
      ],
      "name": "AuctionConfigUpdated",
      "type": "event"
    },
    {
      "anonymous": false,
      "inputs": [
        {
          "indexed": true,
          "internalType": "uint256",
          "name": "projectId",
          "type": "uint256"
        },
        {
          "indexed": true,
          "internalType": "address",
          "name": "coreContract",
          "type": "address"
        },
        {
          "indexed": false,
          "internalType": "uint256",
          "name": "timestampEnd",
          "type": "uint256"
        }
      ],
      "name": "AuctionTimestampEndUpdated",
      "type": "event"
    },
    {
      "anonymous": false,
      "inputs": [
        {
          "indexed": true,
          "internalType": "uint256",
          "name": "projectId",
          "type": "uint256"
        },
        {
          "indexed": true,
          "internalType": "address",
          "name": "coreContract",
          "type": "address"
        },
        {
          "indexed": false,
          "internalType": "uint256",
          "name": "slotIndex",
          "type": "uint256"
        },
        {
          "indexed": false,
          "internalType": "uint256",
          "name": "bidId",
          "type": "uint256"
        },
        {
          "indexed": false,
          "internalType": "address",
          "name": "bidder",
          "type": "address"
        }
      ],
      "name": "BidCreated",
      "type": "event"
    },
    {
      "anonymous": false,
      "inputs": [
        {
          "indexed": true,
          "internalType": "uint256",
          "name": "projectId",
          "type": "uint256"
        },
        {
          "indexed": true,
          "internalType": "address",
          "name": "coreContract",
          "type": "address"
        },
        {
          "indexed": false,
          "internalType": "uint256",
          "name": "bidId",
          "type": "uint256"
        },
        {
          "indexed": false,
          "internalType": "uint256",
          "name": "tokenId",
          "type": "uint256"
        }
      ],
      "name": "BidMinted",
      "type": "event"
    },
    {
      "anonymous": false,
      "inputs": [
        {
          "indexed": true,
          "internalType": "uint256",
          "name": "projectId",
          "type": "uint256"
        },
        {
          "indexed": true,
          "internalType": "address",
          "name": "coreContract",
          "type": "address"
        },
        {
          "indexed": false,
          "internalType": "uint256",
          "name": "bidId",
          "type": "uint256"
        }
      ],
      "name": "BidRefunded",
      "type": "event"
    },
    {
      "anonymous": false,
      "inputs": [
        {
          "indexed": true,
          "internalType": "uint256",
          "name": "projectId",
          "type": "uint256"
        },
        {
          "indexed": true,
          "internalType": "address",
          "name": "coreContract",
          "type": "address"
        },
        {
          "indexed": false,
          "internalType": "uint256",
          "name": "bidId",
          "type": "uint256"
        }
      ],
      "name": "BidRemoved",
      "type": "event"
    },
    {
      "anonymous": false,
      "inputs": [
        {
          "indexed": true,
          "internalType": "uint256",
          "name": "projectId",
          "type": "uint256"
        },
        {
          "indexed": true,
          "internalType": "address",
          "name": "coreContract",
          "type": "address"
        },
        {
          "indexed": false,
          "internalType": "uint256",
          "name": "bidId",
          "type": "uint256"
        }
      ],
      "name": "BidSettled",
      "type": "event"
    },
    {
      "anonymous": false,
      "inputs": [
        {
          "indexed": true,
          "internalType": "uint256",
          "name": "projectId",
          "type": "uint256"
        },
        {
          "indexed": true,
          "internalType": "address",
          "name": "coreContract",
          "type": "address"
        },
        {
          "indexed": false,
          "internalType": "uint256",
          "name": "bidId",
          "type": "uint256"
        },
        {
          "indexed": false,
          "internalType": "uint256",
          "name": "newSlotIndex",
          "type": "uint256"
        }
      ],
      "name": "BidToppedUp",
      "type": "event"
    },
    {
      "anonymous": false,
      "inputs": [
        {
          "indexed": true,
          "internalType": "uint256",
          "name": "projectId",
          "type": "uint256"
        },
        {
          "indexed": true,
          "internalType": "address",
          "name": "coreContract",
          "type": "address"
        },
        {
          "indexed": false,
          "internalType": "bytes32",
          "name": "key",
          "type": "bytes32"
        },
        {
          "indexed": false,
          "internalType": "bool",
          "name": "value",
          "type": "bool"
        }
      ],
      "name": "ConfigValueSet",
      "type": "event"
    },
    {
      "anonymous": false,
      "inputs": [
        {
          "indexed": true,
          "internalType": "address",
          "name": "coreContract",
          "type": "address"
        },
        {
          "indexed": false,
          "internalType": "bool",
          "name": "imposeConstraints",
          "type": "bool"
        },
        {
          "indexed": false,
          "internalType": "bool",
          "name": "requireAdminArtistOnlyMintPeriod",
          "type": "bool"
        },
        {
          "indexed": false,
          "internalType": "bool",
          "name": "requireNoAdminArtistOnlyMintPeriod",
          "type": "bool"
        }
      ],
      "name": "ContractConfigUpdated",
      "type": "event"
    },
    {
      "anonymous": false,
      "inputs": [
        {
          "indexed": false,
          "internalType": "uint256",
          "name": "minAuctionDurationSeconds",
          "type": "uint256"
        }
      ],
      "name": "MinAuctionDurationSecondsUpdated",
      "type": "event"
    },
    {
      "anonymous": false,
      "inputs": [
        {
          "indexed": false,
          "internalType": "uint24",
          "name": "refundGasLimit",
          "type": "uint24"
        }
      ],
      "name": "MinterRefundGasLimitUpdated",
      "type": "event"
    },
    {
      "anonymous": false,
      "inputs": [
        {
          "indexed": false,
          "internalType": "uint256",
          "name": "numSlots",
          "type": "uint256"
        }
      ],
      "name": "NumSlotsUpdated",
      "type": "event"
    },
    {
      "anonymous": false,
      "inputs": [
        {
          "indexed": true,
          "internalType": "uint256",
          "name": "projectId",
          "type": "uint256"
        },
        {
          "indexed": true,
          "internalType": "address",
          "name": "coreContract",
          "type": "address"
        },
        {
          "indexed": false,
          "internalType": "uint256",
          "name": "numTokensInAuction",
          "type": "uint256"
        }
      ],
      "name": "NumTokensInAuctionUpdated",
      "type": "event"
    },
    {
      "anonymous": false,
      "inputs": [
        {
          "indexed": true,
          "internalType": "uint256",
          "name": "projectId",
          "type": "uint256"
        },
        {
          "indexed": true,
          "internalType": "address",
          "name": "coreContract",
          "type": "address"
        },
        {
          "indexed": false,
          "internalType": "uint256",
          "name": "maxInvocations",
          "type": "uint256"
        }
      ],
      "name": "ProjectMaxInvocationsLimitUpdated",
      "type": "event"
    },
    {
      "anonymous": false,
      "inputs": [
        {
          "indexed": true,
          "internalType": "uint256",
          "name": "projectId",
          "type": "uint256"
        },
        {
          "indexed": true,
          "internalType": "address",
          "name": "coreContract",
          "type": "address"
        },
        {
          "indexed": false,
          "internalType": "uint256",
          "name": "tokenId",
          "type": "uint256"
        },
        {
          "indexed": false,
          "internalType": "address",
          "name": "to",
          "type": "address"
        }
      ],
      "name": "TokenPurchased",
      "type": "event"
    },
    {
      "inputs": [],
      "name": "MIN_AUCTION_DURATION_SECONDS",
      "outputs": [
        {
          "internalType": "uint256",
          "name": "",
          "type": "uint256"
        }
      ],
      "stateMutability": "view",
      "type": "function"
    },
    {
      "inputs": [
        {
          "internalType": "uint256",
          "name": "projectId",
          "type": "uint256"
        },
        {
          "internalType": "address",
          "name": "coreContract",
          "type": "address"
        },
        {
          "internalType": "uint8",
          "name": "emergencyHoursToAdd",
          "type": "uint8"
        }
      ],
      "name": "adminAddEmergencyAuctionHours",
      "outputs": [],
      "stateMutability": "nonpayable",
      "type": "function"
    },
    {
      "inputs": [
        {
          "internalType": "uint256",
          "name": "projectId",
          "type": "uint256"
        },
        {
          "internalType": "address",
          "name": "coreContract",
          "type": "address"
        },
        {
          "internalType": "uint24",
          "name": "numTokensToMint",
          "type": "uint24"
        }
      ],
      "name": "adminArtistAutoMintTokensToWinners",
      "outputs": [],
      "stateMutability": "nonpayable",
      "type": "function"
    },
    {
      "inputs": [
        {
          "internalType": "uint256",
          "name": "projectId",
          "type": "uint256"
        },
        {
          "internalType": "address",
          "name": "coreContract",
          "type": "address"
        },
        {
          "internalType": "uint32[]",
          "name": "bidIds",
          "type": "uint32[]"
        }
      ],
      "name": "adminArtistDirectMintTokensToWinners",
      "outputs": [],
      "stateMutability": "nonpayable",
      "type": "function"
    },
    {
      "inputs": [
        {
          "internalType": "uint256",
          "name": "projectId",
          "type": "uint256"
        },
        {
          "internalType": "address",
          "name": "coreContract",
          "type": "address"
        },
        {
          "internalType": "uint32[]",
          "name": "bidIds",
          "type": "uint32[]"
        }
      ],
      "name": "adminArtistDirectRefundWinners",
      "outputs": [],
      "stateMutability": "nonpayable",
      "type": "function"
    },
    {
      "inputs": [
        {
          "internalType": "uint256",
          "name": "projectId",
          "type": "uint256"
        },
        {
          "internalType": "address",
          "name": "coreContract",
          "type": "address"
        },
        {
          "internalType": "uint24",
          "name": "numBidsToRefund",
          "type": "uint24"
        }
      ],
      "name": "adminAutoRefundBidsToResolveE1",
      "outputs": [],
      "stateMutability": "nonpayable",
      "type": "function"
    },
    {
      "inputs": [
        {
          "internalType": "uint256",
          "name": "projectId",
          "type": "uint256"
        },
        {
          "internalType": "address",
          "name": "coreContract",
          "type": "address"
        },
        {
          "internalType": "uint32[]",
          "name": "bidIds",
          "type": "uint32[]"
        }
      ],
      "name": "collectSettlements",
      "outputs": [],
      "stateMutability": "nonpayable",
      "type": "function"
    },
    {
      "inputs": [
        {
          "internalType": "address",
          "name": "coreContract",
          "type": "address"
        }
      ],
      "name": "contractConfigurationDetails",
      "outputs": [
        {
          "components": [
            {
              "internalType": "bool",
              "name": "imposeConstraints",
              "type": "bool"
            },
            {
              "internalType": "bool",
              "name": "requireAdminArtistOnlyMintPeriod",
              "type": "bool"
            },
            {
              "internalType": "bool",
              "name": "requireNoAdminArtistOnlyMintPeriod",
              "type": "bool"
            }
          ],
          "internalType": "struct RAMLib.RAMContractConfig",
          "name": "",
          "type": "tuple"
        }
      ],
      "stateMutability": "view",
      "type": "function"
    },
    {
      "inputs": [
        {
          "internalType": "uint256",
          "name": "projectId",
          "type": "uint256"
        },
        {
          "internalType": "address",
          "name": "coreContract",
          "type": "address"
        },
        {
          "internalType": "uint16",
          "name": "slotIndex",
          "type": "uint16"
        }
      ],
      "name": "createBid",
      "outputs": [],
      "stateMutability": "payable",
      "type": "function"
    },
    {
      "inputs": [
        {
          "internalType": "uint256",
          "name": "projectId",
          "type": "uint256"
        },
        {
          "internalType": "address",
          "name": "coreContract",
          "type": "address"
        }
      ],
      "name": "getAuctionDetails",
      "outputs": [
        {
          "internalType": "uint256",
          "name": "auctionTimestampStart",
          "type": "uint256"
        },
        {
          "internalType": "uint256",
          "name": "auctionTimestampEnd",
          "type": "uint256"
        },
        {
          "internalType": "uint256",
          "name": "basePrice",
          "type": "uint256"
        },
        {
          "internalType": "uint256",
          "name": "numTokensInAuction",
          "type": "uint256"
        },
        {
          "internalType": "uint256",
          "name": "numBids",
          "type": "uint256"
        },
        {
          "internalType": "uint256",
          "name": "numBidsMintedTokens",
          "type": "uint256"
        },
        {
          "internalType": "uint256",
          "name": "numBidsErrorRefunded",
          "type": "uint256"
        },
        {
          "internalType": "uint256",
          "name": "minBidSlotIndex",
          "type": "uint256"
        },
        {
          "internalType": "bool",
          "name": "allowExtraTime",
          "type": "bool"
        },
        {
          "internalType": "bool",
          "name": "adminArtistOnlyMintPeriodIfSellout",
          "type": "bool"
        },
        {
          "internalType": "bool",
          "name": "revenuesCollected",
          "type": "bool"
        },
        {
          "internalType": "enum RAMLib.ProjectMinterStates",
          "name": "projectMinterState",
          "type": "uint8"
        }
      ],
      "stateMutability": "view",
      "type": "function"
    },
    {
      "inputs": [
        {
          "internalType": "uint256",
          "name": "projectId",
          "type": "uint256"
        },
        {
          "internalType": "address",
          "name": "coreContract",
          "type": "address"
        }
      ],
      "name": "getIsErrorE1",
      "outputs": [
        {
          "internalType": "bool",
          "name": "isError",
          "type": "bool"
        },
        {
          "internalType": "uint256",
          "name": "numBidsToRefund",
          "type": "uint256"
        }
      ],
      "stateMutability": "view",
      "type": "function"
    },
    {
      "inputs": [
        {
          "internalType": "uint256",
          "name": "projectId",
          "type": "uint256"
        },
        {
          "internalType": "address",
          "name": "coreContract",
          "type": "address"
        }
      ],
      "name": "getMinBidValue",
      "outputs": [
        {
          "internalType": "uint256",
          "name": "",
          "type": "uint256"
        }
      ],
      "stateMutability": "view",
      "type": "function"
    },
    {
      "inputs": [
        {
          "internalType": "uint256",
          "name": "projectId",
          "type": "uint256"
        },
        {
          "internalType": "address",
          "name": "coreContract",
          "type": "address"
        }
      ],
      "name": "getMinimumNextBid",
      "outputs": [
        {
          "internalType": "uint256",
          "name": "minNextBidValueInWei",
          "type": "uint256"
        },
        {
          "internalType": "uint256",
          "name": "minNextBidSlotIndex",
          "type": "uint256"
        }
      ],
      "stateMutability": "view",
      "type": "function"
    },
    {
      "inputs": [
        {
          "internalType": "uint256",
          "name": "projectId",
          "type": "uint256"
        },
        {
          "internalType": "address",
          "name": "coreContract",
          "type": "address"
        }
      ],
      "name": "getPriceInfo",
      "outputs": [
        {
          "internalType": "bool",
          "name": "isConfigured",
          "type": "bool"
        },
        {
          "internalType": "uint256",
          "name": "tokenPriceInWei",
          "type": "uint256"
        },
        {
          "internalType": "string",
          "name": "currencySymbol",
          "type": "string"
        },
        {
          "internalType": "address",
          "name": "currencyAddress",
          "type": "address"
        }
      ],
      "stateMutability": "view",
      "type": "function"
    },
    {
      "inputs": [
        {
          "internalType": "uint256",
          "name": "projectId",
          "type": "uint256"
        },
        {
          "internalType": "address",
          "name": "coreContract",
          "type": "address"
        }
      ],
      "name": "getProjectBalance",
      "outputs": [
        {
          "internalType": "uint256",
          "name": "",
          "type": "uint256"
        }
      ],
      "stateMutability": "view",
      "type": "function"
    },
    {
      "inputs": [
        {
          "internalType": "address",
          "name": "coreContract",
          "type": "address"
        }
      ],
      "name": "isEngineView",
      "outputs": [
        {
          "internalType": "bool",
          "name": "",
          "type": "bool"
        }
      ],
      "stateMutability": "view",
      "type": "function"
    },
    {
      "inputs": [
        {
          "internalType": "uint256",
          "name": "projectId",
          "type": "uint256"
        },
        {
          "internalType": "address",
          "name": "coreContract",
          "type": "address"
        },
        {
          "internalType": "uint24",
          "name": "maxInvocations",
          "type": "uint24"
        }
      ],
      "name": "manuallyLimitProjectMaxInvocations",
      "outputs": [],
      "stateMutability": "nonpayable",
      "type": "function"
    },
    {
      "inputs": [
        {
          "internalType": "uint256",
          "name": "projectId",
          "type": "uint256"
        },
        {
          "internalType": "address",
          "name": "coreContract",
          "type": "address"
        }
      ],
      "name": "maxInvocationsProjectConfig",
      "outputs": [
        {
          "components": [
            {
              "internalType": "bool",
              "name": "maxHasBeenInvoked",
              "type": "bool"
            },
            {
              "internalType": "uint24",
              "name": "maxInvocations",
              "type": "uint24"
            }
          ],
          "internalType": "struct MaxInvocationsLib.MaxInvocationsProjectConfig",
          "name": "",
          "type": "tuple"
        }
      ],
      "stateMutability": "view",
      "type": "function"
    },
    {
      "inputs": [],
      "name": "minterConfigurationDetails",
      "outputs": [
        {
          "internalType": "uint256",
          "name": "minAuctionDurationSeconds",
          "type": "uint256"
        },
        {
          "internalType": "uint256",
          "name": "auctionBufferSeconds",
          "type": "uint256"
        },
        {
          "internalType": "uint256",
          "name": "maxAuctionExtraSeconds",
          "type": "uint256"
        },
        {
          "internalType": "uint256",
          "name": "maxAuctionAdminEmergencyExtensionHours",
          "type": "uint256"
        },
        {
          "internalType": "uint256",
          "name": "adminArtistOnlyMintTimeSeconds",
          "type": "uint256"
        },
        {
          "internalType": "uint24",
          "name": "minterRefundGasLimit",
          "type": "uint24"
        }
      ],
      "stateMutability": "view",
      "type": "function"
    },
    {
      "inputs": [],
      "name": "minterFilterAddress",
      "outputs": [
        {
          "internalType": "address",
          "name": "",
          "type": "address"
        }
      ],
      "stateMutability": "view",
      "type": "function"
    },
    {
      "inputs": [],
      "name": "minterType",
      "outputs": [
        {
          "internalType": "string",
          "name": "",
          "type": "string"
        }
      ],
      "stateMutability": "view",
      "type": "function"
    },
    {
      "inputs": [],
      "name": "minterVersion",
      "outputs": [
        {
          "internalType": "string",
          "name": "",
          "type": "string"
        }
      ],
      "stateMutability": "view",
      "type": "function"
    },
    {
      "inputs": [
        {
          "internalType": "uint256",
          "name": "projectId",
          "type": "uint256"
        },
        {
          "internalType": "address",
          "name": "coreContract",
          "type": "address"
        }
      ],
      "name": "projectMaxHasBeenInvoked",
      "outputs": [
        {
          "internalType": "bool",
          "name": "",
          "type": "bool"
        }
      ],
      "stateMutability": "view",
      "type": "function"
    },
    {
      "inputs": [
        {
          "internalType": "uint256",
          "name": "projectId",
          "type": "uint256"
        },
        {
          "internalType": "address",
          "name": "coreContract",
          "type": "address"
        }
      ],
      "name": "projectMaxInvocations",
      "outputs": [
        {
          "internalType": "uint256",
          "name": "",
          "type": "uint256"
        }
      ],
      "stateMutability": "view",
      "type": "function"
    },
    {
      "inputs": [
        {
          "internalType": "uint256",
          "name": "projectId",
          "type": "uint256"
        },
        {
          "internalType": "address",
          "name": "coreContract",
          "type": "address"
        }
      ],
      "name": "purchase",
      "outputs": [
        {
          "internalType": "uint256",
          "name": "tokenId",
          "type": "uint256"
        }
      ],
      "stateMutability": "payable",
      "type": "function"
    },
    {
      "inputs": [
        {
          "internalType": "address",
          "name": "to",
          "type": "address"
        },
        {
          "internalType": "uint256",
          "name": "projectId",
          "type": "uint256"
        },
        {
          "internalType": "address",
          "name": "coreContract",
          "type": "address"
        }
      ],
      "name": "purchaseTo",
      "outputs": [
        {
          "internalType": "uint256",
          "name": "tokenId",
          "type": "uint256"
        }
      ],
      "stateMutability": "payable",
      "type": "function"
    },
    {
      "inputs": [
        {
          "internalType": "uint256",
          "name": "projectId",
          "type": "uint256"
        },
        {
          "internalType": "address",
          "name": "coreContract",
          "type": "address"
        },
        {
          "internalType": "uint40",
          "name": "auctionTimestampEnd",
          "type": "uint40"
        }
      ],
      "name": "reduceAuctionLength",
      "outputs": [],
      "stateMutability": "nonpayable",
      "type": "function"
    },
    {
      "inputs": [
        {
          "internalType": "uint256",
          "name": "projectId",
          "type": "uint256"
        },
        {
          "internalType": "address",
          "name": "coreContract",
          "type": "address"
        },
        {
          "internalType": "uint40",
          "name": "auctionTimestampStart",
          "type": "uint40"
        },
        {
          "internalType": "uint40",
          "name": "auctionTimestampEnd",
          "type": "uint40"
        },
        {
          "internalType": "uint256",
          "name": "basePrice",
          "type": "uint256"
        },
        {
          "internalType": "bool",
          "name": "allowExtraTime",
          "type": "bool"
        },
        {
          "internalType": "bool",
          "name": "adminArtistOnlyMintPeriodIfSellout",
          "type": "bool"
        }
      ],
      "name": "setAuctionDetails",
      "outputs": [],
      "stateMutability": "nonpayable",
      "type": "function"
    },
    {
      "inputs": [
        {
          "internalType": "address",
          "name": "coreContract",
          "type": "address"
        },
        {
          "internalType": "bool",
          "name": "requireAdminArtistOnlyMintPeriod",
          "type": "bool"
        },
        {
          "internalType": "bool",
          "name": "requireNoAdminArtistOnlyMintPeriod",
          "type": "bool"
        }
      ],
      "name": "setContractConfig",
      "outputs": [],
      "stateMutability": "nonpayable",
      "type": "function"
    },
    {
      "inputs": [
        {
          "internalType": "uint256",
          "name": "projectId",
          "type": "uint256"
        },
        {
          "internalType": "address",
          "name": "coreContract",
          "type": "address"
        },
        {
          "internalType": "uint16",
          "name": "slotIndex",
          "type": "uint16"
        }
      ],
      "name": "slotIndexToBidValue",
      "outputs": [
        {
          "internalType": "uint256",
          "name": "",
          "type": "uint256"
        }
      ],
      "stateMutability": "view",
      "type": "function"
    },
    {
      "inputs": [
        {
          "internalType": "uint256",
          "name": "",
          "type": "uint256"
        },
        {
          "internalType": "address",
          "name": "",
          "type": "address"
        }
      ],
      "name": "syncProjectMaxInvocationsToCore",
      "outputs": [],
      "stateMutability": "pure",
      "type": "function"
    },
    {
      "inputs": [
        {
          "internalType": "uint256",
          "name": "projectId",
          "type": "uint256"
        },
        {
          "internalType": "address",
          "name": "coreContract",
          "type": "address"
        },
        {
          "internalType": "uint32",
          "name": "bidId",
          "type": "uint32"
        },
        {
          "internalType": "uint16",
          "name": "newSlotIndex",
          "type": "uint16"
        }
      ],
      "name": "topUpBid",
      "outputs": [],
      "stateMutability": "payable",
      "type": "function"
    },
    {
      "inputs": [
        {
          "internalType": "uint24",
          "name": "minterRefundGasLimit",
          "type": "uint24"
        }
      ],
      "name": "updateRefundGasLimit",
      "outputs": [],
      "stateMutability": "nonpayable",
      "type": "function"
    },
    {
      "inputs": [
        {
          "internalType": "uint256",
          "name": "projectId",
          "type": "uint256"
        },
        {
          "internalType": "address",
          "name": "coreContract",
          "type": "address"
        },
        {
          "internalType": "uint32[]",
          "name": "bidIds",
          "type": "uint32[]"
        }
      ],
      "name": "winnerDirectMintTokens",
      "outputs": [],
      "stateMutability": "nonpayable",
      "type": "function"
    },
    {
      "inputs": [
        {
          "internalType": "uint256",
          "name": "projectId",
          "type": "uint256"
        },
        {
          "internalType": "address",
          "name": "coreContract",
          "type": "address"
        },
        {
          "internalType": "uint32[]",
          "name": "bidIds",
          "type": "uint32[]"
        }
      ],
      "name": "winnerDirectRefund",
      "outputs": [],
      "stateMutability": "nonpayable",
      "type": "function"
    },
    {
      "inputs": [
        {
          "internalType": "uint256",
          "name": "projectId",
          "type": "uint256"
        },
        {
          "internalType": "address",
          "name": "coreContract",
          "type": "address"
        }
      ],
      "name": "withdrawArtistAndAdminRevenues",
      "outputs": [],
      "stateMutability": "nonpayable",
      "type": "function"
    }
  ],
  "bytecode": "0x60c06040526001805462ffffff19166175301790553480156200002157600080fd5b50604051620060eb380380620060eb833981016040819052620000449162000144565b60016000556001600160a01b038116608081905260a05260405161025881527f4ef0f5aca00c220a4058c318e0dd5526680003d4e6fceb9ad65087452a8313fa9060200160405180910390a160015460405162ffffff90911681527ff28602592f2788507e76a86523ec8d5ef26873807e258d4cae31571370c0e6c89060200160405180910390a16040805161012c8152610e1060208201527f0c92d75d9ae429e723cd03b00b1498b72fd1a30fd4337bf4cbdf14650599dd38910160405180910390a160405161020081527f93eac00dcf92d1cee4f4605f83f625533396c288555591736b62533e656beaf69060200160405180910390a15062000176565b6000602082840312156200015757600080fd5b81516001600160a01b03811681146200016f57600080fd5b9392505050565b60805160a051615f1e620001cd600039600081816108d3015281816109f301528181610ac801528181610b9201528181610da001528181610e9f015261114f01526000818161068501526110190152615f1e6000f3fe6080604052600436106101ae5760003560e01c80639a94488a116100e85780639a94488a1461045c5780639b7b55851461049e578063ae77c237146104b4578063b000e334146104c7578063b9daf3b5146104e7578063bf54d5fb14610507578063c1b9281e14610527578063cce7c90914610547578063d009cb9d14610567578063d3ddabe61461059c578063d4f6d0e3146105db578063d9bffbce14610623578063d9eb16db14610643578063dd85582f14610673578063e624db9f146106bf578063e996766e146106df578063e9d1e8ac146106ff578063f5a759b71461073657600080fd5b806241673c146101b357806301000da7146101e6578063014053a014610216578063047fef49146102385780631290b96b1461027057806317e70c3c1461029057806340b790bd146102a35780634869f3df146102da5780634e8d8787146102fa578063630766801461030d57806365e92cde1461035c5780636881dbcf1461037c578063711ce3911461039c578063720281c3146103bc5780637ca340a6146103dc5780637e86d370146103fc5780638f13865e1461041c5780638fe8a90b1461043c575b600080fd5b3480156101bf57600080fd5b506101d36101ce36600461531c565b610749565b6040519081526020015b60405180910390f35b3480156101f257600080fd5b5061020661020136600461535a565b61077f565b60405190151581526020016101dd565b34801561022257600080fd5b50610236610231366004615377565b6107b7565b005b34801561024457600080fd5b50610258610253366004615403565b61080d565b6040516101dd9c9b9a99989796959493929190615449565b34801561027c57600080fd5b5061023661028b3660046154e5565b610851565b61023661029e36600461531c565b61089b565b3480156102af57600080fd5b506102c36102be366004615403565b610994565b6040805192151583526020830191909152016101dd565b3480156102e657600080fd5b506101d36102f5366004615403565b6109ad565b6101d361030836600461551a565b6109c2565b34801561031957600080fd5b5060015460408051610258815261012c6020820152610e1091810191909152604860608201526203f480608082015262ffffff90911660a082015260c0016101dd565b34801561036857600080fd5b5061023661037736600461555c565b610a24565b34801561038857600080fd5b506102366103973660046155a7565b610a69565b3480156103a857600080fd5b506102366103b7366004615377565b610a8e565b3480156103c857600080fd5b506102366103d73660046155fa565b610af2565b3480156103e857600080fd5b506102366103f7366004615377565b610b43565b34801561040857600080fd5b5061023661041736600461562f565b610bbc565b34801561042857600080fd5b50610236610437366004615377565b610cac565b34801561044857600080fd5b50610236610457366004615403565b610d03565b34801561046857600080fd5b5061047c610477366004615403565b610d51565b6040805182511515815260209283015162ffffff1692810192909252016101dd565b3480156104aa57600080fd5b506101d361025881565b6101d36104c2366004615403565b610d6f565b3480156104d357600080fd5b506102366104e23660046155fa565b610dd0565b3480156104f357600080fd5b506102366105023660046155fa565b610e55565b34801561051357600080fd5b506101d3610522366004615403565b610ec9565b34801561053357600080fd5b50610236610542366004615377565b610ed5565b34801561055357600080fd5b50610206610562366004615403565b610f17565b34801561057357600080fd5b50610587610582366004615403565b610f23565b604080519283526020830191909152016101dd565b3480156105a857600080fd5b506105ce60405180604001604052806006815260200165076302e302e360d41b81525081565b6040516101dd91906156ff565b3480156105e757600080fd5b506105fb6105f636600461535a565b610f3b565b60408051825115158152602080840151151590820152918101511515908201526060016101dd565b34801561062f57600080fd5b5061023661063e366004615403565b610f98565b34801561064f57600080fd5b5061066361065e366004615403565b610fd7565b6040516101dd9493929190615712565b34801561067f57600080fd5b506106a77f000000000000000000000000000000000000000000000000000000000000000081565b6040516001600160a01b0390911681526020016101dd565b3480156106cb57600080fd5b506102366106da36600461574c565b611014565b3480156106eb57600080fd5b506101d36106fa366004615403565b6110db565b34801561070b57600080fd5b506105ce6040518060400160405280600b81526020016a04d696e74657252414d56360ac1b81525081565b61023661074436600461577b565b611117565b6000806107568585611203565b60060154600160901b90046001600160581b031690506107768184611234565b95945050505050565b60008061078b836112d5565b8054909150610100900460ff16156107a7575460ff1692915050565b6107b08361131a565b9392505050565b6002600054036107e25760405162461bcd60e51b81526004016107d9906157ca565b60405180910390fd5b6002600055600180546108029186918691869186919062ffffff16611490565b505060016000555050565b6000806000806000806000806000806000806108298e8e611795565b9b509b509b509b509b509b509b509b509b509b509b509b509295989b509295989b509295989b565b6002600054036108735760405162461bcd60e51b81526004016107d9906157ca565b60026000556108838383336118f4565b610891838383610258611939565b5050600160005550565b6002600054036108bd5760405162461bcd60e51b81526004016107d9906157ca565b6002600055604051635845de1f60e01b815230907f00000000000000000000000000000000000000000000000000000000000000006001600160a01b031690635845de1f906109129087908790600401615801565b602060405180830381865afa15801561092f573d6000803e3d6000fd5b505050506040513d601f19601f820116820180604052508101906109539190615818565b6001600160a01b0316146109795760405162461bcd60e51b81526004016107d990615835565b600154610891908490849084903390349062ffffff16611b74565b6000806109a18484611e83565b50909590945092505050565b60006109b98383611ef0565b90505b92915050565b60006002600054036109e65760405162461bcd60e51b81526004016107d9906157ca565b6002600055610a178484847f0000000000000000000000000000000000000000000000000000000000000000611f10565b6001600055949350505050565b600260005403610a465760405162461bcd60e51b81526004016107d9906157ca565b6002600055610a5e8233306332f4966f60e11b61212b565b610891838383612186565b610a7c833330636881dbcf60e01b61212b565b610a898360018484612345565b505050565b600260005403610ab05760405162461bcd60e51b81526004016107d9906157ca565b600260005560018054610802918691869186918691907f00000000000000000000000000000000000000000000000000000000000000009062ffffff16612433565b600260005403610b145760405162461bcd60e51b81526004016107d9906157ca565b6002600055610b2c82333063720281c360e01b61212b565b6001546108919084908490849062ffffff1661262a565b600260005403610b655760405162461bcd60e51b81526004016107d9906157ca565b6002600055610b7e84843330633e51a05360e11b612952565b6001546108029085908590859085906000907f00000000000000000000000000000000000000000000000000000000000000009062ffffff16612433565b600260005403610bde5760405162461bcd60e51b81526004016107d9906157ca565b6002600055610bee8787336118f4565b6000610bfa88886129bb565b6004811115610c0b57610c0b615433565b14610c4b5760405162461bcd60e51b815260206004820152601060248201526f27b7363c9038393296b0bab1ba34b7b760811b60448201526064016107d9565b610258610c588686615876565b64ffffffffff161015610c7d5760405162461bcd60e51b81526004016107d990615894565b610c878787612afe565b610c9e87878787610c9788612bb9565b8787612c25565b505060016000555050505050565b600260005403610cce5760405162461bcd60e51b81526004016107d9906157ca565b6002600055610ce784843330634789c32f60e11b612952565b60015461080290859085908590859060009062ffffff16611490565b600260005403610d255760405162461bcd60e51b81526004016107d9906157ca565b6002600055610d3e82823330638fe8a90b60e01b612952565b610d488282612f90565b50506001600055565b60408051808201909152600080825260208201526109b98383613145565b6000600260005403610d935760405162461bcd60e51b81526004016107d9906157ca565b6002600055610dc43384847f0000000000000000000000000000000000000000000000000000000000000000611f10565b60016000559392505050565b610ddb8383336118f4565b6000610de784846129bb565b90506000816004811115610dfd57610dfd615433565b14610e395760405162461bcd60e51b815260206004820152600c60248201526b4f6e6c79207374617465204160a01b60448201526064016107d9565b610e44848484613181565b610e4e848461323a565b5050505050565b600260005403610e775760405162461bcd60e51b81526004016107d9906157ca565b6002600055610e908383333063b9daf3b560e01b612952565b600154610891908490849084907f00000000000000000000000000000000000000000000000000000000000000009062ffffff166132bb565b60006109b983836134d9565b600260005403610ef75760405162461bcd60e51b81526004016107d9906157ca565b6002600055600154610802908590859085908590339062ffffff166134fb565b60006109b983836135e0565b600080610f3084846136c4565b909590945092505050565b6040805160608101825260008082526020820181905291810191909152610f618261387f565b60408051606081018252915460ff808216151584526101008204811615156020850152620100009091041615159082015292915050565b60405162461bcd60e51b81526020600482015260146024820152731058dd1a5bdb881b9bdd081cdd5c1c1bdc9d195960621b60448201526064016107d9565b60008060606000610fe88686613889565b60408051808201909152600381526208aa8960eb1b602082015291989097509095506000945092505050565b6110477f0000000000000000000000000000000000000000000000000000000000000000333063e624db9f60e01b6139ec565b611b588162ffffff16101561108f5760405162461bcd60e51b815260206004820152600e60248201526d04f6e6c792067746520375f3030360941b60448201526064016107d9565b6001805462ffffff191662ffffff83169081179091556040519081527ff28602592f2788507e76a86523ec8d5ef26873807e258d4cae31571370c0e6c89060200160405180910390a150565b6000806110e88484613a41565b91505060006110f78585611203565b60060154600160901b90046001600160581b031690506107768183611234565b6002600054036111395760405162461bcd60e51b81526004016107d9906157ca565b6002600055604051635845de1f60e01b815230907f00000000000000000000000000000000000000000000000000000000000000006001600160a01b031690635845de1f9061118e9088908890600401615801565b602060405180830381865afa1580156111ab573d6000803e3d6000fd5b505050506040513d601f19601f820116820180604052508101906111cf9190615818565b6001600160a01b0316146111f55760405162461bcd60e51b81526004016107d990615835565b610802848484843334613ad5565b600061120d613d56565b6001600160a01b039290921660009081526020928352604080822094825293909252502090565b60006102008261ffff161061128a5760405162461bcd60e51b815260206004820152601c60248201527b4f6e6c7920736c6f7420696e646578206c74204e554d5f534c4f545360201b60448201526064016107d9565b611299604061ffff84166158d5565b6001600160581b038416901b905060406112b78161ffff85166158e9565b6112c190836158fd565b6112cb91906158d5565b6109b99082615914565b60007f69f22dd730b53ff235fa96b4306a31bef5dad48fe4bac28b1ceebbce14401b385b6001600160a01b039092166000908152600192909201602052506040902090565b6040516000602482018190526044820181905290819060640160408051601f198184030181529181526020820180516001600160e01b0316638639415b60e01b1790525190915060009081906001600160a01b0386169061137c908590615927565b600060405180830381855afa9150503d80600081146113b7576040519150601f19603f3d011682016040523d82523d6000602084013e6113bc565b606091505b50915091508161141c5760405162461bcd60e51b815260206004820152602560248201527f6765745072696d617279526576656e756553706c69747328292063616c6c2066604482015264185a5b195960da1b60648201526084016107d9565b805160c08190036114335750600095945050505050565b80610100036114485750600195945050505050565b60405162461bcd60e51b815260206004820152601e60248201527f556e657870656374656420726576656e75652073706c6974206279746573000060448201526064016107d9565b82600061149d88886129bb565b905060038160048111156114b3576114b3615433565b146114d05760405162461bcd60e51b81526004016107d990615943565b6000806114dd8a8a611e83565b5091509150816114ff5760405162461bcd60e51b81526004016107d990615969565b8084111561151f5760405162461bcd60e51b81526004016107d990615993565b505050600061152e8888611203565b9050600061153b82613d7a565b905060005b8381101561178957600088888381811061155c5761155c6159ca565b905060200201602081019061157191906159e0565b63ffffffff166000818152602086905260409020805491925090600160501b90046001600160a01b0316806115b85760405162461bcd60e51b81526004016107d9906159fb565b6115c3826001613de1565b806115d457506115d4826002613de1565b156115e157505050611781565b881561160f57336001600160a01b0382161461160f5760405162461bcd60e51b81526004016107d990615a23565b84600061161c8482613de1565b6116615761162d8460006001613e04565b506006870154835460019161165e91600160901b9091046001600160581b031690600160401b900461ffff16611234565b91505b61166e8460026001613e04565b600588018054600160c81b900462ffffff1690601961168c83615a52565b91906101000a81548162ffffff021916908362ffffff16021790555050818860070160008282829054906101000a90046001600160781b03166116cf9190615a74565b92506101000a8154816001600160781b0302191690836001600160781b031602179055506116fe83838c613e60565b8015611737578d6001600160a01b03168f600080516020615ec98339815191528760405161172e91815260200190565b60405180910390a35b8d6001600160a01b03168f7fa59312996dc68b7f0224b341fed75d5afeb3bb20624107d37942d14f594281568760405161177391815260200190565b60405180910390a350505050505b600101611540565b50505050505050505050565b6000806000806000806000806000806000806117b18e8e6129bb565b905060006117bf8f8f611203565b90508060060160009054906101000a900464ffffffffff1664ffffffffff169c5080600601600a9054906101000a900464ffffffffff1664ffffffffff169b508060060160129054906101000a90046001600160581b03166001600160581b03169a508060050160109054906101000a900462ffffff1662ffffff1699508060050160139054906101000a900462ffffff1662ffffff1698508060050160169054906101000a900462ffffff1662ffffff1697508060050160199054906101000a900462ffffff1662ffffff1696508060050160009054906101000a900461ffff1661ffff1695508060060160109054906101000a900460ff1694508060060160119054906101000a900460ff16935080600701600f9054906101000a900460ff169250509295989b509295989b509295989b565b6118ff838383613e95565b610a895760405162461bcd60e51b815260206004820152600b60248201526a13db9b1e48105c9d1a5cdd60aa1b60448201526064016107d9565b60006119458585611203565b9050600161195386866129bb565b600481111561196457611964615433565b146119815760405162461bcd60e51b81526004016107d990615a94565b6006810154600160781b900460ff16156119db5760405162461bcd60e51b815260206004820152601b60248201527a273790383932bb34b7bab99030b236b4b71032bc3a32b739b4b7b760291b60448201526064016107d9565b6006810154600160281b810464ffffffffff908116600160501b9092041614611a165760405162461bcd60e51b81526004016107d990615aba565b600681015464ffffffffff600160501b909104811690841610611a785760405162461bcd60e51b815260206004820152601a60248201527909edcd8f240e4cac8eac6ca40c2eac6e8d2dedc40d8cadccee8d60331b60448201526064016107d9565b6006810154611a8f90839064ffffffffff16615914565b8364ffffffffff1611611ab45760405162461bcd60e51b81526004016107d990615894565b428364ffffffffff1611611b015760405162461bcd60e51b81526020600482015260146024820152734f6e6c792066757475726520656e642074696d6560601b60448201526064016107d9565b600681018054600160281b600160781b031916600160501b64ffffffffff861690810264ffffffffff60281b191691909117600160281b8202179091556040519081526001600160a01b038516908690600080516020615ea9833981519152906020015b60405180910390a35050505050565b6000611b808787611203565b90506001611b8e88886129bb565b6004811115611b9f57611b9f615433565b14611bbc5760405162461bcd60e51b81526004016107d990615a94565b6006810154600090611bde90600160901b90046001600160581b031687611234565b9050808414611c2f5760405162461bcd60e51b815260206004820152601f60248201527f6d73672e76616c7565206d75737420657175616c20736c6f742076616c75650060448201526064016107d9565b600782018054859190600090611c4f9084906001600160781b0316615aed565b92506101000a8154816001600160781b0302191690836001600160781b031602179055508160050160139054906101000a900462ffffff1662ffffff16600003611ca957611c9d8888612afe565b611ca7888861323a565b505b6005820154600160801b900462ffffff1680611cfe5760405162461bcd60e51b81526020600482015260146024820152732737903a37b5b2b7399034b71030bab1ba34b7b760611b60448201526064016107d9565b6005830154600160981b900462ffffff1681148015611e74576000611d25858c8c89613f1e565b90506000611d4a8660060160129054906101000a90046001600160581b031683611234565b9050611d568189614121565b611d9b5760405162461bcd60e51b8152602060048201526016602482015275496e73756666696369656e74206269642076616c756560501b60448201526064016107d9565b6006860154600090600160801b900460ff168015611dd757506006870154611dd49061012c90600160501b900464ffffffffff16615b0d565b42115b90508015611e70576006870154611e1490611e0390610e1090600160281b900464ffffffffff16615914565b611e0f61012c42615914565b614177565b60068801805464ffffffffff60501b1916600160501b64ffffffffff93841681029190911791829055604051910490911681526001600160a01b038d16908e90600080516020615ea98339815191529060200160405180910390a35b5050505b611789848b8b8b8b600061418d565b600080600080611e938686611203565b90506000611ea0826144ac565b90506000611eae88886144f9565b9050808211955085611ec1576000611ecb565b611ecb8183615b0d565b945085611ee157611edc8282615b0d565b611ee4565b60005b93505050509250925092565b600080611efd8484614560565b54610100900462ffffff16949350505050565b600080611f1d8585611203565b90506000611f2b86866129bb565b90506003816004811115611f4157611f41615433565b1480611f5e57506004816004811115611f5c57611f5c615433565b145b611f9f5760405162461bcd60e51b81526020600482015260126024820152714f6e6c79207374617465732044206f72204560701b60448201526064016107d9565b6000611fab8787611e83565b9250505060008111611ff95760405162461bcd60e51b815260206004820152601760248201527652656163686564206d617820696e766f636174696f6e7360481b60448201526064016107d9565b50506006810154600160901b90046001600160581b031634811461205f5760405162461bcd60e51b815260206004820152601f60248201527f4f6e6c792073656e642061756374696f6e20726573657276652070726963650060448201526064016107d9565b6040516117cd60e21b81526001600160a01b03851690615f349061208d908a908a908a903390600401615b20565b6020604051808303816000875af11580156120ac573d6000803e3d6000fd5b505050506040513d601f19601f820116820180604052508101906120d09190615b4b565b92506120dd868287614588565b846001600160a01b0316867fdfd0b295795ee66148297b0ff929867a78b799aca7c8def4666dfd1110e58070858a604051612119929190615801565b60405180910390a35050949350505050565b61213784848484614749565b6121805760405162461bcd60e51b815260206004820152601a60248201527913db9b1e4810dbdc994810591b5a5b9050d308185b1b1bddd95960321b60448201526064016107d9565b50505050565b60006121928484611203565b905060016121a085856129bb565b60048111156121b1576121b1615433565b146121ce5760405162461bcd60e51b81526004016107d990615a94565b6006810154600160281b810464ffffffffff908116600160501b90920416146122095760405162461bcd60e51b81526004016107d990615aba565b600681015460ff600160781b90910481169060489061222a90851683615914565b11156122765760405162461bcd60e51b815260206004820152601b60248201527a09edcd8f240cadacae4cecadcc6f240d0deeae4e640d8e840dac2f602b1b60448201526064016107d9565b61228360ff841682615914565b60068301805460ff60781b1916600160781b60ff938416021790556000906122af908516610e10615b64565b60068401546122d09161ffff1690600160501b900464ffffffffff16615b82565b600684018054600160281b600160781b031916600160501b64ffffffffff9390931692830264ffffffffff60281b191617600160281b83021790556040518181529091506001600160a01b038616908790600080516020615ea9833981519152906020015b60405180910390a3505050505050565b81801561234f5750805b1561239c5760405162461bcd60e51b815260206004820152601e60248201527f4f6e6c79206f6e6520636f6e73747261696e742063616e20626520736574000060448201526064016107d9565b60006123a78561387f565b805461ffff191685151561ff00198116919091176101008615159081029190911762ff0000191662010000861515908102919091178455604080519384526020840192909252908201529091506001600160a01b038616907f259bc433e85ee67cf592c09fb7b7c1a9b5c970730454184a794f18905ad46d089060600160405180910390a25050505050565b600061243f8888611203565b905084600061244e8a8a6129bb565b9050600381600481111561246457612464615433565b146124815760405162461bcd60e51b81526004016107d990615943565b61248a836144ac565b8211156124a95760405162461bcd60e51b81526004016107d990615ba0565b5060006124b583613d7a565b905060005b8281101561261d5760008989838181106124d6576124d66159ca565b90506020020160208101906124eb91906159e0565b63ffffffff166000818152602087905260409020805491925090600160501b90046001600160a01b0316806125325760405162461bcd60e51b81526004016107d9906159fb565b61253d826001613de1565b8061254e575061254e826002613de1565b1561255b57505050612615565b891561258957336001600160a01b038216146125895760405162461bcd60e51b81526004016107d990615a23565b61259582600180613e04565b600587018054600160b01b900462ffffff169060166125b383615a52565b91906101000a81548162ffffff021916908362ffffff160217905550506125dd8e8e85848d6147d1565b6125e8826000613de1565b61261157612611878f8f8560000160089054906101000a900461ffff1661ffff16878a8e614891565b5050505b6001016124ba565b5050505050505050505050565b600061263685856129bb565b9050600281600481111561264c5761264c615433565b146126695760405162461bcd60e51b81526004016107d990615bd7565b6000806126768787611e83565b5091509150816126985760405162461bcd60e51b81526004016107d990615969565b808562ffffff1611156126bd5760405162461bcd60e51b81526004016107d990615993565b50505060006126cc8585611203565b6005810154600160401b9081900463ffffffff1660008181526020849052604081205493945090929190910461ffff169061270684613d7a565b905060005b8662ffffff168110156128e6578360000361274357600585015461ffff1660008181526002870160205260409020549450925061275b565b6000938452602085905260409093205463ffffffff16925b836000036127925761277785612772856001615914565b614981565b5061ffff166000818152600287016020526040902054945092505b60008481526020869052604081209083906127ad8382613de1565b6127e4576127be8360006001613e04565b5060068701546001906127e190600160901b90046001600160581b031687611234565b91505b6127f18360026001613e04565b6007880180548391906000906128119084906001600160781b0316615a74565b92506101000a8154816001600160781b0302191690836001600160781b0316021790555061285783600001600a9054906101000a90046001600160a01b0316838b613e60565b80156128925760405163ffffffff881681526001600160a01b038c16908d90600080516020615ec98339815191529060200160405180910390a35b60405163ffffffff881681526001600160a01b038c16908d907fa59312996dc68b7f0224b341fed75d5afeb3bb20624107d37942d14f594281569060200160405180910390a383600101935050505061270b565b808560050160198282829054906101000a900462ffffff166129089190615bfd565b92506101000a81548162ffffff021916908362ffffff160217905550838560050160086101000a81548163ffffffff021916908363ffffffff160217905550505050505050505050565b61295d858585613e95565b8061296f575061296f84848484614749565b610e4e5760405162461bcd60e51b815260206004820152601d60248201527f4f6e6c7920417274697374206f7220436f72652041646d696e2041434c00000060448201526064016107d9565b6000806129c88484611203565b600681015490915064ffffffffff16801580159042831190806129e85750805b156129fa5760009450505050506109bc565b6006840154600160501b900464ffffffffff1642811060008380612a1b5750815b1590508015612a345760019750505050505050506109bc565b600587015460009062ffffff600160981b8204811691612a6591600160c81b8204811691600160b01b900416615bfd565b62ffffff161490508015612a84576004985050505050505050506109bc565b6006880154600090600160881b900460ff168015612abb57506005890154600160981b810462ffffff908116600160801b90920416145b8015612ad25750612acf6203f48086615914565b42105b90508015612aec57600299505050505050505050506109bc565b5060039b9a5050505050505050505050565b6000612b0a8383614560565b9050612b168383614a23565b15612b2557610a898383614a56565b600080612b328585614ad0565b84549193509150610100900462ffffff1681811115612b9e57835483831463ffffffff1990911661010062ffffff85160260ff1916171784556040518281526001600160a01b038616908790600080516020615e898339815191529060200160405180910390a3612bb1565b808310612bb157835460ff191660011784555b505050505050565b60006001600160581b03821115612c215760405162461bcd60e51b815260206004820152602660248201527f53616665436173743a2076616c756520646f65736e27742066697420696e203860448201526538206269747360d01b60648201526084016107d9565b5090565b6000612c318888611203565b905066b1a2bc2ec50000846001600160581b03161015612c925760405162461bcd60e51b815260206004820152601c60248201527b09edcd8f240c4c2e6ca40e0e4d2c6ca40cee8ca40605c606a408aa8960231b60448201526064016107d9565b428664ffffffffff1611612cdf5760405162461bcd60e51b81526020600482015260146024820152734f6e6c79206675747572652061756374696f6e7360601b60448201526064016107d9565b8564ffffffffff168564ffffffffff1611612d3a5760405162461bcd60e51b815260206004820152601b60248201527a4f6e6c7920656e642074696d652067742073746172742074696d6560281b60448201526064016107d9565b6000612d458861387f565b805490915060ff1615612e0c578054610100900460ff1615612dae5782612dae5760405162461bcd60e51b815260206004820152601d60248201527f4f6e6c792061646d696e2d617274697374206d696e7420706572696f6400000060448201526064016107d9565b805462010000900460ff1615612e0c578215612e0c5760405162461bcd60e51b815260206004820181905260248201527f4f6e6c79206e6f2061646d696e2d617274697374206d696e7420706572696f6460448201526064016107d9565b868260060160006101000a81548164ffffffffff021916908364ffffffffff1602179055508582600601600a6101000a81548164ffffffffff021916908364ffffffffff160217905550858260060160056101000a81548164ffffffffff021916908364ffffffffff160217905550848260060160126101000a8154816001600160581b0302191690836001600160581b03160217905550838260060160106101000a81548160ff021916908315150217905550828260060160116101000a81548160ff0219169083151502179055506000612ee88a8a61323a565b9050612ef76001610200615b0d565b60058401805461ffff191661ffff929092169190911790556040805164ffffffffff8a81168252891660208201526001600160581b038816818301528615156060820152851515608082015260a0810183905290516001600160a01b038b16918c917ff5182d65d8ff8a191c9e2f9f31fa4757a3e046c58e19c304b66f1766ec3993829160c0908290030190a350505050505050505050565b6000612f9c8383611203565b90506000612faa84846129bb565b90506004816004811115612fc057612fc0615433565b14612ffc5760405162461bcd60e51b815260206004820152600c60248201526b4f6e6c79207374617465204560a01b60448201526064016107d9565b6007820154600160781b900460ff16156130555760405162461bcd60e51b815260206004820152601a6024820152792932bb32b73ab2b99030b63932b0b23c903bb4ba34323930bbb760311b60448201526064016107d9565b60078201805460ff60781b1916600160781b179055600061307583613d7a565b600584015490915060009061309690600160b01b900462ffffff16836158fd565b60078501805491925082916000906130b89084906001600160781b0316615a74565b92506101000a8154816001600160781b0302191690836001600160781b031602179055506130e7868287614588565b6040805177185d58dd1a5bdb94995d995b9d595cd0dbdb1b1958dd195960421b8152600160208201526001600160a01b0387169188917fbb5f9d4f49f83650956b76c40de0f082a06430bf0222e1b6b3f90a7a0f845c4d9101612335565b60408051808201909152600080825260208201526131638383611ef0565b62ffffff16602082015261317783836135e0565b1515815292915050565b60008061318e8585614ad0565b91509150808362ffffff1611156131b75760405162461bcd60e51b81526004016107d990615c19565b818362ffffff1610156131dc5760405162461bcd60e51b81526004016107d990615c19565b60006131e88686614560565b805462ffffff861685811463ffffffff19909216610100820260ff1916179190911782556040519081529091506001600160a01b038616908790600080516020615e8983398151915290602001612335565b6000806132478484611203565b905061325384846144f9565b60058201805462ffffff60801b1916600160801b62ffffff8416021790556040518181529092506001600160a01b0384169085907fe61b855b975f8c5d6051b121797e73a9c4e2b5fce1e570689013b3591427efa89060200160405180910390a35092915050565b60006132c78686611203565b905060006132d587876129bb565b905060028160048111156132eb576132eb615433565b146133085760405162461bcd60e51b81526004016107d990615bd7565b613311826144ac565b8562ffffff1611156133355760405162461bcd60e51b81526004016107d990615ba0565b506005810154600160201b900463ffffffff16600081815260208390526040812054600160401b900461ffff169061336c84613d7a565b905060005b8762ffffff1681101561346c57836000036133af57600585015462010000900461ffff166000818152600187016020526040902054945092506133ce565b60009384526020859052604090932054600160201b900463ffffffff16925b83600003613405576133ea856133e5600186615b0d565b614b4e565b5061ffff166000818152600187016020526040902054945092505b600084815260208690526040902061341f81600180613e04565b8054613441908c908c908890600160501b90046001600160a01b03168c6147d1565b61344c816000613de1565b61346357613463868c8c8761ffff1689888d614891565b50600101613371565b808560050160168282829054906101000a900462ffffff1661348e9190615bfd565b92506101000a81548162ffffff021916908362ffffff160217905550838560050160046101000a81548163ffffffff021916908363ffffffff16021790555050505050505050505050565b6000806134e68484611203565b600701546001600160781b0316949350505050565b60006135078787611203565b9050600061351588886129bb565b9050600281600481111561352b5761352b615433565b14806135485750600381600481111561354657613546615433565b145b6135895760405162461bcd60e51b815260206004820152601260248201527113db9b1e481cdd185d195cc810c81bdc881160721b60448201526064016107d9565b50600061359582613d7a565b90508460005b81811015611789576135d8848b8b868c8c878181106135bc576135bc6159ca565b90506020020160208101906135d191906159e0565b8b8b614be1565b60010161359b565b6000806135ed84846129bb565b9050600081600481111561360357613603615433565b036136545760006136148585611203565b600681015490915064ffffffffff1615613641576005810154600160801b900462ffffff1615925061364e565b61364b8585614cb4565b92505b506136bd565b600181600481111561366857613668615433565b0361369e5760006136798585611203565b60050154600160801b810462ffffff908116600160981b909204161492506136bd9050565b60006136aa8585611e83565b92505050806000036136bb57600192505b505b5092915050565b60008060006136d385856129bb565b905060006136e18686611203565b905060008260048111156136f7576136f7615433565b0361377157600681015464ffffffffff161515806137505760405162461bcd60e51b8152602060048201526016602482015275185d58dd1a5bdb881b9bdd0818dbdb999a59dd5c995960521b60448201526064016107d9565b506006810154600160901b90046001600160581b0316935060009250613876565b6005810154600160981b810462ffffff908116600160801b909204161460018360048111156137a2576137a2615433565b036138115780156137f15760058201546137c3908890889061ffff16614ccd565b61ffff1693506137ea8260060160129054906101000a90046001600160581b031685611234565b9450613874565b6006820154600160901b90046001600160581b0316945060009350613874565b80156138585760405162461bcd60e51b8152602060048201526016602482015275185d58dd1a5bdb88195b9919590b081cd95b1b1bdd5d60521b60448201526064016107d9565b6006820154600160901b90046001600160581b03169450600093505b505b50509250929050565b60006112f9613d56565b600080600061389885856129bb565b905060006138a68686611203565b905060008260048111156138bc576138bc615433565b036138f357600681015464ffffffffff1615801594506138ee576006810154600160901b90046001600160581b031692505b613876565b600581015460019450600160981b810462ffffff908116600160801b90920416148483600481111561392757613927615433565b0361399657801561397a57600582015460009061394b908990899061ffff16614ccd565b61ffff1690506139728360060160129054906101000a90046001600160581b031682611234565b945050613874565b6006820154600160901b90046001600160581b03169350613874565b80156139cb57600682015460058301546139c491600160901b90046001600160581b03169061ffff16611234565b9350613874565b50600601549295600160901b9093046001600160581b031694509192505050565b6139f884848484614749565b6121805760405162461bcd60e51b815260206004820152601a60248201527913db9b1e48135a5b9d195c919a5b1d195c8810591b5a5b9050d360321b60448201526064016107d9565b6000806000613a508585611203565b6005810154909150600160981b900462ffffff16613aa55760405162461bcd60e51b81526020600482015260126024820152712737903134b2399034b71030bab1ba34b7b760711b60448201526064016107d9565b600581015461ffff1660008181526002830160209081526040808320548352939052919091209590945092505050565b6000613ae18787611203565b63ffffffff86166000908152602082905260409020805491925090600160401b900461ffff166001613b138a8a6129bb565b6004811115613b2457613b24615433565b14613b415760405162461bcd60e51b81526004016107d990615a94565b8154600160501b90046001600160a01b0316613b9c5760405162461bcd60e51b815260206004820152601a60248201527942696420646e65202d207765726520796f75206f75746269643f60301b60448201526064016107d9565b81546001600160a01b03868116600160501b9092041614613bfd5760405162461bcd60e51b815260206004820152601b60248201527a13db9b1e48189a5919195c881bd988195e1a5cdd1a5b99c8189a59602a1b60448201526064016107d9565b6006830154600090613c1f90600160901b90046001600160581b031683611234565b90506000613c448560060160129054906101000a90046001600160581b031689611234565b905080613c518784615914565b14613c965760405162461bcd60e51b8152602060048201526015602482015274696e636f72726563742061646465642076616c756560581b60448201526064016107d9565b5050600783018054859190600090613cb89084906001600160781b0316615aed565b92506101000a8154816001600160781b0302191690836001600160781b03160217905550613ced83828963ffffffff16614d35565b613cfb838a8a89898c61418d565b6040805163ffffffff8916815261ffff881660208201526001600160a01b038a16918b917fbcc60406b6a319d70c3feea7347029fbdfd768eecb981b0d2f6735b1e9633c5e91015b60405180910390a3505050505050505050565b7fa3fe13710cb596cbb938328f55db0dd5473d105cbcbbac73fbdbd94800043ab490565b6005810154600090600160981b810462ffffff908116600160801b909204161480613db9576006830154600160901b90046001600160581b03166107b0565b600683015460058401546107b091600160901b90046001600160581b03169061ffff16611234565b81546000906109b990600160f01b900460ff1683600160ff919091161b16151590565b8015613e41578254600160ff8481169190911b600160f01b90920416175b835460ff91909116600160f01b0260ff60f01b19909116178355505050565b8254613e2290600160f01b900460ff1683600160ff919091161b191690565b600080600080858786f1610a8957826000526073600b5360ff6020536016600b83f0610a8957620f42405a11610a8957600080fd5b60405163a47d29cb60e01b8152600481018490526000906001600160a01b0384169063a47d29cb90602401602060405180830381865afa158015613edd573d6000803e3d6000fd5b505050506040513d601f19601f82011682018060405250810190613f019190615818565b6001600160a01b0316826001600160a01b03161490509392505050565b600584015461ffff16600081815260028601602052604090205480613f6f5760405162461bcd60e51b81526020600482015260076024820152664e6f206269647360c81b60448201526064016107d9565b600081815260208781526040808320805461ffff8716855260028b01909352922063ffffffff821690819055600589018054600160501b9093046001600160a01b031692600160981b900462ffffff16906013613fcb83615c4a565b91906101000a81548162ffffff021916908362ffffff160217905550508063ffffffff166000036140405761ffff8516600081815260018b016020526040812055614017908a90614eaa565b61402689612772876001615c69565b5060058a01805461ffff191661ffff929092169190911790555b600689015460009061406290600160901b90046001600160581b031687611234565b60078b01805491925082916000906140849084906001600160781b0316615a74565b92506101000a8154816001600160781b0302191690836001600160781b031602179055506140b3838289613e60565b876001600160a01b0316897f9d1a4511ddb5e2e227897ca79bbe1d71a9af123cd7c7bde8d2bcb292243310c9876040516140ef91815260200190565b60405180910390a3505050600091825250602095909552604090942080546001600160f81b0319169055509192915050565b60006706f05b59d3b20000831115614155576127106141428461280a6158fd565b61414c91906158d5565b821190506109bc565b612710614164846129046158fd565b61416e91906158d5565b90911192915050565b600081831061418657816109b9565b5090919050565b63ffffffff81161580156141da57600587018054600c906141ba90600160601b900463ffffffff16615c84565b91906101000a81548163ffffffff021916908363ffffffff160217905591505b60008760020160008661ffff1681526020019081526020016000205490506040518060a001604052808263ffffffff168152602001600063ffffffff1681526020018661ffff168152602001856001600160a01b03168152602001600060ff168152508860000160008563ffffffff16815260200190815260200160002060008201518160000160006101000a81548163ffffffff021916908363ffffffff16021790555060208201518160000160046101000a81548163ffffffff021916908363ffffffff16021790555060408201518160000160086101000a81548161ffff021916908361ffff160217905550606082015181600001600a6101000a8154816001600160a01b0302191690836001600160a01b03160217905550608082015181600001601e6101000a81548160ff021916908360ff1602179055509050508263ffffffff168860020160008761ffff16815260200190815260200160002081905550806000036143695761ffff85166000908152600189016020526040902063ffffffff84169055614394565b6000818152602089905260409020805463ffffffff60201b1916600160201b63ffffffff8616021790555b600588018054600160981b900462ffffff169060136143b283615a52565b91906101000a81548162ffffff021916908362ffffff1602179055505080600003614442576143e5888661ffff16614ee4565b600588015461ffff908116908616101561440d5760058801805461ffff191661ffff87161790555b600588015461ffff62010000909104811690861611156144425760058801805463ffff000019166201000061ffff8816021790555b81156144a2576040805161ffff8716815263ffffffff851660208201526001600160a01b038681168284015291519188169189917fd278a5272d5c4a1fbd78fd96e1dc404c29b3e6fc9a525421b777de714354f5a5919081900360600190a35b5050505050505050565b60058101546000906144d39062ffffff600160c81b8204811691600160b01b900416615bfd565b60058301546144ee9190600160981b900462ffffff16615c9d565b62ffffff1692915050565b60008060006145088585614ad0565b9150915060006145188686614560565b8054909150600090614535908490610100900462ffffff16614177565b905080841061454b5760009450505050506109bc565b6145558482615b0d565b979650505050505050565b60007f73e3af67f35f30fb72bbaaf6cc07b987364ed643c93ba201702e213464e877ee61120d565b8160000361459557505050565b60006145a082614f12565b9050600080600080600080600080881561463e57604051638639415b60e01b8152600481018d9052602481018c90526001600160a01b038b1690638639415b9060440161010060405180830381865afa158015614601573d6000803e3d6000fd5b505050506040513d601f19601f820116820180604052508101906146259190615cb9565b969e50949c50929a5090985096509450925090506146be565b604051638639415b60e01b8152600481018d9052602481018c90526001600160a01b038b1690638639415b9060440160c060405180830381865afa15801561468a573d6000803e3d6000fd5b505050506040513d601f19601f820116820180604052508101906146ae9190615d41565b949c50929a509096509450925090505b8a82856146cb898c615914565b6146d59190615914565b6146df9190615914565b1461472b5760405162461bcd60e51b815260206004820152601c60248201527b496e76616c696420726576656e75652073706c697420746f74616c7360201b60448201526064016107d9565b61473b86868a8a88888888614f60565b505050505050505050505050565b60405163230448b160e01b81526001600160a01b03848116600483015283811660248301526001600160e01b0319831660448301526000919086169063230448b1906064016020604051808303816000875af11580156147ad573d6000803e3d6000fd5b505050506040513d601f19601f820116820180604052508101906107769190615daa565b6040516117cd60e21b81526000906001600160a01b03831690615f34906148029086908a908a903390600401615b20565b6020604051808303816000875af1158015614821573d6000803e3d6000fd5b505050506040513d601f19601f820116820180604052508101906148459190615b4b565b6040805163ffffffff87168152602081018390529192506001600160a01b0387169188917f3c81bf6062ef45a4f3a4407699b008e79d9310eb22ba240838820f37535a92859101612335565b63ffffffff83166000908152602088905260408120906148b49082906001613e04565b6000836148d88a60060160129054906101000a90046001600160581b031688611234565b6148e29190615b0d565b905080156149505760078901805482919060009061490a9084906001600160781b0316615a74565b92506101000a8154816001600160781b0302191690836001600160781b0316021790555061495082600001600a9054906101000a90046001600160a01b03168285613e60565b60405163ffffffff861681526001600160a01b038816908990600080516020615ec983398151915290602001613d43565b6000806101ff8361ffff1611156149aa5760405162461bcd60e51b81526004016107d990615dc7565b600060ff8461ffff1611156149df5760048501546149c8908561520d565b925090506149d861010082615914565b9050614a1a565b60038501546149ee908561520d565b9250905081614a1a576004850154614a0790600061520d565b92509050614a1761010082615914565b90505b94909350915050565b600080614a308484614560565b8054909150610100900462ffffff16158015614a4e5750805460ff16155b949350505050565b600080614a638484614ad0565b915091506000614a738585614560565b9050614a7e82615255565b815460ff1962ffffff92909216610100029190911663ffffffff19909116178383141781556040516001600160a01b038516908690600080516020615e8983398151915290611b659086815260200190565b604051630ea5613f60e01b81526004810183905260009081906001600160a01b03841690630ea5613f9060240160c060405180830381865afa158015614b1a573d6000803e3d6000fd5b505050506040513d601f19601f82011682018060405250810190614b3e9190615dfd565b5093989297509195505050505050565b6000806101ff8361ffff161115614b775760405162461bcd60e51b81526004016107d990615dc7565b60006101008461ffff161015614b9f576003850154614b9690856152b9565b92509050614a1a565b6004850154614bae90856152b9565b92509050614bbe61010082615914565b905081614a1a576003850154614bd59060ff6152b9565b90969095509350505050565b63ffffffff8316600090815260208890526040902080546001600160a01b03848116600160501b9092041614614c475760405162461bcd60e51b815260206004820152600b60248201526a27b7363c903134b23232b960a91b60448201526064016107d9565b614c52816000613de1565b15614c955760405162461bcd60e51b815260206004820152601360248201527213db9b1e481d5b8b5cd95d1d1b195908189a59606a1b60448201526064016107d9565b80546144a290899089908990600160401b900461ffff16888a88614891565b600080614cc18484614560565b5460ff16949350505050565b600080614cda8585611203565b6006810154909150600160901b90046001600160581b03166000614cfe8286611234565b905061ffff851660005b600190910190614d188483611234565b9050614d248382614121565b15614d085750979650505050505050565b60008181526020849052604081208054909163ffffffff80831692600160201b90041690829003614d835761ffff85166000908152600187016020526040902063ffffffff82169055614db7565b63ffffffff80831660009081526020889052604090208054918316600160201b0263ffffffff60201b199092169190911790555b8063ffffffff16600003614de85761ffff85166000908152600287016020526040902063ffffffff83169055614e11565b63ffffffff8181166000908152602088905260409020805463ffffffff19169184169190911790555b600586018054600160981b900462ffffff16906013614e2f83615c4a565b91906101000a81548162ffffff021916908362ffffff160217905550508163ffffffff166000148015614e66575063ffffffff8116155b15612bb157614e79868661ffff16614eaa565b614e8886612772876001615c69565b5060058701805461ffff90921661ffff19909216919091179055505050505050565b610100811015614ecc576003820154600160ff83161b19165b60038301555050565b6004820154600160ff83161b19165b60048301555050565b610100811015614f00576003820154600160ff83161b17614ec3565b6004820154600160ff83161b17614edb565b600080614f1e836112d5565b8054909150610100900460ff1615614f3a575460ff1692915050565b6000614f458461131a565b825481151561ffff1990911617610100179092555092915050565b871561500b576000876001600160a01b03168960405160006040518083038185875af1925050503d8060008114614fb3576040519150601f19603f3d011682016040523d82523d6000602084013e614fb8565b606091505b50509050806150095760405162461bcd60e51b815260206004820181905260248201527f506c6174666f726d2050726f7669646572207061796d656e74206661696c656460448201526064016107d9565b505b85156150b6576000856001600160a01b03168760405160006040518083038185875af1925050503d806000811461505e576040519150601f19603f3d011682016040523d82523d6000602084013e615063565b606091505b50509050806150b45760405162461bcd60e51b815260206004820152601e60248201527f52656e6465722050726f7669646572207061796d656e74206661696c6564000060448201526064016107d9565b505b8315615159576000836001600160a01b03168560405160006040518083038185875af1925050503d8060008114615109576040519150601f19603f3d011682016040523d82523d6000602084013e61510e565b606091505b50509050806151575760405162461bcd60e51b8152602060048201526015602482015274105c9d1a5cdd081c185e5b595b9d0819985a5b1959605a1b60448201526064016107d9565b505b81156144a2576000816001600160a01b03168360405160006040518083038185875af1925050503d80600081146151ac576040519150601f19603f3d011682016040523d82523d6000602084013e6151b1565b606091505b50509050806152025760405162461bcd60e51b815260206004820152601f60248201527f4164646974696f6e616c205061796565207061796d656e74206661696c65640060448201526064016107d9565b505050505050505050565b60ff811660005b60ff8210801561522a5750600160ff83161b8416155b15615241578161523981615e58565b925050615214565b600160ff83161b8416151590509250929050565b600062ffffff821115612c215760405162461bcd60e51b815260206004820152602660248201527f53616665436173743a2076616c756520646f65736e27742066697420696e203260448201526534206269747360d01b60648201526084016107d9565b60ff811660005b6000821180156152d65750600160ff83161b8416155b1561524157816152e581615e71565b9250506152c0565b6001600160a01b038116811461530257600080fd5b50565b803561ffff8116811461531757600080fd5b919050565b60008060006060848603121561533157600080fd5b833592506020840135615343816152ed565b915061535160408501615305565b90509250925092565b60006020828403121561536c57600080fd5b81356107b0816152ed565b6000806000806060858703121561538d57600080fd5b84359350602085013561539f816152ed565b9250604085013567ffffffffffffffff808211156153bc57600080fd5b818701915087601f8301126153d057600080fd5b8135818111156153df57600080fd5b8860208260051b85010111156153f457600080fd5b95989497505060200194505050565b6000806040838503121561541657600080fd5b823591506020830135615428816152ed565b809150509250929050565b634e487b7160e01b600052602160045260246000fd5b6000610180820190508d82528c60208301528b60408301528a60608301528960808301528860a08301528760c08301528660e0830152851515610100830152841515610120830152831515610140830152600583106154b857634e487b7160e01b600052602160045260246000fd5b826101608301529d9c50505050505050505050505050565b803564ffffffffff8116811461531757600080fd5b6000806000606084860312156154fa57600080fd5b83359250602084013561550c816152ed565b9150615351604085016154d0565b60008060006060848603121561552f57600080fd5b833561553a816152ed565b9250602084013591506040840135615551816152ed565b809150509250925092565b60008060006060848603121561557157600080fd5b833592506020840135615583816152ed565b9150604084013560ff8116811461555157600080fd5b801515811461530257600080fd5b6000806000606084860312156155bc57600080fd5b83356155c7816152ed565b925060208401356155d781615599565b9150604084013561555181615599565b803562ffffff8116811461531757600080fd5b60008060006060848603121561560f57600080fd5b833592506020840135615621816152ed565b9150615351604085016155e7565b600080600080600080600060e0888a03121561564a57600080fd5b87359650602088013561565c816152ed565b955061566a604089016154d0565b9450615678606089016154d0565b93506080880135925060a088013561568f81615599565b915060c088013561569f81615599565b8091505092959891949750929550565b60005b838110156156ca5781810151838201526020016156b2565b50506000910152565b600081518084526156eb8160208601602086016156af565b601f01601f19169290920160200192915050565b6020815260006109b960208301846156d3565b841515815283602082015260806040820152600061573360808301856156d3565b905060018060a01b038316606083015295945050505050565b60006020828403121561575e57600080fd5b6109b9826155e7565b803563ffffffff8116811461531757600080fd5b6000806000806080858703121561579157600080fd5b8435935060208501356157a3816152ed565b92506157b160408601615767565b91506157bf60608601615305565b905092959194509250565b6020808252601f908201527f5265656e7472616e637947756172643a207265656e7472616e742063616c6c00604082015260600190565b9182526001600160a01b0316602082015260400190565b60006020828403121561582a57600080fd5b81516107b0816152ed565b6020808252601190820152704d696e746572206e6f742061637469766560781b604082015260600190565b634e487b7160e01b600052601160045260246000fd5b64ffffffffff8281168282160390808211156136bd576136bd615860565b602080825260119082015270105d58dd1a5bdb881d1bdbc81cda1bdc9d607a1b604082015260600190565b634e487b7160e01b600052601260045260246000fd5b6000826158e4576158e46158bf565b500490565b6000826158f8576158f86158bf565b500690565b80820281158282048414176109bc576109bc615860565b808201808211156109bc576109bc615860565b600082516159398184602087016156af565b9190910192915050565b6020808252600c908201526b13db9b1e481cdd185d19481160a21b604082015260600190565b60208082526010908201526f4f6e6c7920696e20737461746520453160801b604082015260600190565b6020808252601f908201527f6269647320746f20726566756e6420677420617661696c61626c652071747900604082015260600190565b634e487b7160e01b600052603260045260246000fd5b6000602082840312156159f257600080fd5b6109b982615767565b6020808252600e908201526d1a5b9d985b1a5908109a5908125160921b604082015260600190565b60208082526015908201527427b7363c9039b2b73232b91034b9903134b23232b960591b604082015260600190565b600062ffffff808316818103615a6a57615a6a615860565b6001019392505050565b6001600160781b038281168282160390808211156136bd576136bd615860565b6020808252600c908201526b27b7363c9039ba30ba32902160a11b604082015260600190565b6020808252601990820152784e6f7420616c6c6f77656420696e2065787472612074696d6560381b604082015260600190565b6001600160781b038181168382160190808211156136bd576136bd615860565b818103818111156109bc576109bc615860565b6001600160a01b03948516815260208101939093529083166040830152909116606082015260800190565b600060208284031215615b5d57600080fd5b5051919050565b61ffff8181168382160280821691908281146136bb576136bb615860565b64ffffffffff8181168382160190808211156136bd576136bd615860565b6020808252601d908201527f746f6b656e7320746f206d696e7420677420746f6b656e73206f776564000000604082015260600190565b6020808252600c908201526b4f6e6c79207374617465204360a01b604082015260600190565b62ffffff8181168382160190808211156136bd576136bd615860565b602080825260179082015276496e76616c6964206d617820696e766f636174696f6e7360481b604082015260600190565b600062ffffff821680615c5f57615c5f615860565b6000190192915050565b61ffff8181168382160190808211156136bd576136bd615860565b600063ffffffff808316818103615a6a57615a6a615860565b62ffffff8281168282160390808211156136bd576136bd615860565b600080600080600080600080610100898b031215615cd657600080fd5b885197506020890151615ce8816152ed565b60408a015160608b01519198509650615d00816152ed565b60808a015160a08b01519196509450615d18816152ed565b60c08a015160e08b01519194509250615d30816152ed565b809150509295985092959890939650565b60008060008060008060c08789031215615d5a57600080fd5b865195506020870151615d6c816152ed565b604088015160608901519196509450615d84816152ed565b608088015160a08901519194509250615d9c816152ed565b809150509295509295509295565b600060208284031215615dbc57600080fd5b81516107b081615599565b6020808252601c908201527b27b7363c9039ba30b93a1039b637ba1034b73232bc10363a101a989960211b604082015260600190565b60008060008060008060c08789031215615e1657600080fd5b86519550602087015194506040870151615e2f81615599565b6060880151909450615e4081615599565b608088015160a08901519194509250615d9c81615599565b600060018201615e6a57615e6a615860565b5060010190565b600081615e8057615e80615860565b50600019019056fe1c3e74a6c6fefbaeee166b031cd2016349c6c863d5188b67c9bbd0b0dcb2e237520e05d2a73ab549525f701daae4d8ac1897891bb1afca813602709aafc7a830e152fe384870d25a8d821270b8b8043fada748f138ab7f8512af64c65c726136a26469706673582212200d86423542e0c16a31b97d358612151029a28b2d013eb350baef839556c2fcbe64736f6c63430008160033",
  "linkReferences": {},
  "deployedLinkReferences": {}
}