{
  "_format": "hh-sol-artifact-1",
  "contractName": "MinterSetPriceHolderV5",
  "sourceName": "contracts/minter-suite/Minters/MinterSetPriceHolderV5.sol",
  "abi": [
    {
      "inputs": [
        {
          "internalType": "address",
          "name": "_minterFilter",
          "type": "address"
        },
        {
          "internalType": "address",
          "name": "_delegationRegistryAddress",
          "type": "address"
        }
      ],
      "stateMutability": "nonpayable",
      "type": "constructor"
    },
    {
      "anonymous": false,
      "inputs": [
        {
          "indexed": true,
          "internalType": "uint256",
          "name": "_projectId",
          "type": "uint256"
        },
        {
          "indexed": false,
          "internalType": "address",
          "name": "_coreContract",
          "type": "address"
        },
        {
          "indexed": false,
          "internalType": "address[]",
          "name": "_ownedNFTAddresses",
          "type": "address[]"
        },
        {
          "indexed": false,
          "internalType": "uint256[]",
          "name": "_ownedNFTProjectIds",
          "type": "uint256[]"
        }
      ],
      "name": "AllowedHoldersOfProjects",
      "type": "event"
    },
    {
      "anonymous": false,
      "inputs": [
        {
          "indexed": true,
          "internalType": "uint256",
          "name": "_projectId",
          "type": "uint256"
        },
        {
          "indexed": true,
          "internalType": "address",
          "name": "_coreContract",
          "type": "address"
        },
        {
          "indexed": false,
          "internalType": "bytes32",
          "name": "_key",
          "type": "bytes32"
        }
      ],
      "name": "ConfigKeyRemoved",
      "type": "event"
    },
    {
      "anonymous": false,
      "inputs": [
        {
          "indexed": true,
          "internalType": "uint256",
          "name": "_projectId",
          "type": "uint256"
        },
        {
          "indexed": true,
          "internalType": "address",
          "name": "_coreContract",
          "type": "address"
        },
        {
          "indexed": false,
          "internalType": "bytes32",
          "name": "_key",
          "type": "bytes32"
        },
        {
          "indexed": false,
          "internalType": "uint256",
          "name": "_value",
          "type": "uint256"
        }
      ],
      "name": "ConfigValueAddedToSet",
      "type": "event"
    },
    {
      "anonymous": false,
      "inputs": [
        {
          "indexed": true,
          "internalType": "uint256",
          "name": "_projectId",
          "type": "uint256"
        },
        {
          "indexed": true,
          "internalType": "address",
          "name": "_coreContract",
          "type": "address"
        },
        {
          "indexed": false,
          "internalType": "bytes32",
          "name": "_key",
          "type": "bytes32"
        },
        {
          "indexed": false,
          "internalType": "address",
          "name": "_value",
          "type": "address"
        }
      ],
      "name": "ConfigValueAddedToSet",
      "type": "event"
    },
    {
      "anonymous": false,
      "inputs": [
        {
          "indexed": true,
          "internalType": "uint256",
          "name": "_projectId",
          "type": "uint256"
        },
        {
          "indexed": true,
          "internalType": "address",
          "name": "_coreContract",
          "type": "address"
        },
        {
          "indexed": false,
          "internalType": "bytes32",
          "name": "_key",
          "type": "bytes32"
        },
        {
          "indexed": false,
          "internalType": "bytes32",
          "name": "_value",
          "type": "bytes32"
        }
      ],
      "name": "ConfigValueAddedToSet",
      "type": "event"
    },
    {
      "anonymous": false,
      "inputs": [
        {
          "indexed": true,
          "internalType": "uint256",
          "name": "_projectId",
          "type": "uint256"
        },
        {
          "indexed": true,
          "internalType": "address",
          "name": "_coreContract",
          "type": "address"
        },
        {
          "indexed": false,
          "internalType": "bytes32",
          "name": "_key",
          "type": "bytes32"
        },
        {
          "indexed": false,
          "internalType": "uint256",
          "name": "_value",
          "type": "uint256"
        }
      ],
      "name": "ConfigValueRemovedFromSet",
      "type": "event"
    },
    {
      "anonymous": false,
      "inputs": [
        {
          "indexed": true,
          "internalType": "uint256",
          "name": "_projectId",
          "type": "uint256"
        },
        {
          "indexed": true,
          "internalType": "address",
          "name": "_coreContract",
          "type": "address"
        },
        {
          "indexed": false,
          "internalType": "bytes32",
          "name": "_key",
          "type": "bytes32"
        },
        {
          "indexed": false,
          "internalType": "address",
          "name": "_value",
          "type": "address"
        }
      ],
      "name": "ConfigValueRemovedFromSet",
      "type": "event"
    },
    {
      "anonymous": false,
      "inputs": [
        {
          "indexed": true,
          "internalType": "uint256",
          "name": "_projectId",
          "type": "uint256"
        },
        {
          "indexed": true,
          "internalType": "address",
          "name": "_coreContract",
          "type": "address"
        },
        {
          "indexed": false,
          "internalType": "bytes32",
          "name": "_key",
          "type": "bytes32"
        },
        {
          "indexed": false,
          "internalType": "bytes32",
          "name": "_value",
          "type": "bytes32"
        }
      ],
      "name": "ConfigValueRemovedFromSet",
      "type": "event"
    },
    {
      "anonymous": false,
      "inputs": [
        {
          "indexed": true,
          "internalType": "uint256",
          "name": "_projectId",
          "type": "uint256"
        },
        {
          "indexed": true,
          "internalType": "address",
          "name": "_coreContract",
          "type": "address"
        },
        {
          "indexed": false,
          "internalType": "bytes32",
          "name": "_key",
          "type": "bytes32"
        },
        {
          "indexed": false,
          "internalType": "bool",
          "name": "_value",
          "type": "bool"
        }
      ],
      "name": "ConfigValueSet",
      "type": "event"
    },
    {
      "anonymous": false,
      "inputs": [
        {
          "indexed": true,
          "internalType": "uint256",
          "name": "_projectId",
          "type": "uint256"
        },
        {
          "indexed": true,
          "internalType": "address",
          "name": "_coreContract",
          "type": "address"
        },
        {
          "indexed": false,
          "internalType": "bytes32",
          "name": "_key",
          "type": "bytes32"
        },
        {
          "indexed": false,
          "internalType": "uint256",
          "name": "_value",
          "type": "uint256"
        }
      ],
      "name": "ConfigValueSet",
      "type": "event"
    },
    {
      "anonymous": false,
      "inputs": [
        {
          "indexed": true,
          "internalType": "uint256",
          "name": "_projectId",
          "type": "uint256"
        },
        {
          "indexed": true,
          "internalType": "address",
          "name": "_coreContract",
          "type": "address"
        },
        {
          "indexed": false,
          "internalType": "bytes32",
          "name": "_key",
          "type": "bytes32"
        },
        {
          "indexed": false,
          "internalType": "address",
          "name": "_value",
          "type": "address"
        }
      ],
      "name": "ConfigValueSet",
      "type": "event"
    },
    {
      "anonymous": false,
      "inputs": [
        {
          "indexed": true,
          "internalType": "uint256",
          "name": "_projectId",
          "type": "uint256"
        },
        {
          "indexed": true,
          "internalType": "address",
          "name": "_coreContract",
          "type": "address"
        },
        {
          "indexed": false,
          "internalType": "bytes32",
          "name": "_key",
          "type": "bytes32"
        },
        {
          "indexed": false,
          "internalType": "bytes32",
          "name": "_value",
          "type": "bytes32"
        }
      ],
      "name": "ConfigValueSet",
      "type": "event"
    },
    {
      "anonymous": false,
      "inputs": [
        {
          "indexed": false,
          "internalType": "address",
          "name": "delegationRegistry",
          "type": "address"
        }
      ],
      "name": "DelegationRegistryUpdated",
      "type": "event"
    },
    {
      "anonymous": false,
      "inputs": [
        {
          "indexed": true,
          "internalType": "uint256",
          "name": "_projectId",
          "type": "uint256"
        },
        {
          "indexed": true,
          "internalType": "address",
          "name": "_coreContract",
          "type": "address"
        },
        {
          "indexed": true,
          "internalType": "uint256",
          "name": "_pricePerTokenInWei",
          "type": "uint256"
        }
      ],
      "name": "PricePerTokenInWeiUpdated",
      "type": "event"
    },
    {
      "anonymous": false,
      "inputs": [
        {
          "indexed": true,
          "internalType": "uint256",
          "name": "_projectId",
          "type": "uint256"
        },
        {
          "indexed": true,
          "internalType": "address",
          "name": "_coreContract",
          "type": "address"
        },
        {
          "indexed": true,
          "internalType": "address",
          "name": "_currencyAddress",
          "type": "address"
        },
        {
          "indexed": false,
          "internalType": "string",
          "name": "_currencySymbol",
          "type": "string"
        }
      ],
      "name": "ProjectCurrencyInfoUpdated",
      "type": "event"
    },
    {
      "anonymous": false,
      "inputs": [
        {
          "indexed": true,
          "internalType": "uint256",
          "name": "_projectId",
          "type": "uint256"
        },
        {
          "indexed": true,
          "internalType": "address",
          "name": "_coreContract",
          "type": "address"
        },
        {
          "indexed": false,
          "internalType": "uint256",
          "name": "_maxInvocations",
          "type": "uint256"
        }
      ],
      "name": "ProjectMaxInvocationsLimitUpdated",
      "type": "event"
    },
    {
      "anonymous": false,
      "inputs": [
        {
          "indexed": true,
          "internalType": "address",
          "name": "_NFTAddress",
          "type": "address"
        }
      ],
      "name": "RegisteredNFTAddress",
      "type": "event"
    },
    {
      "anonymous": false,
      "inputs": [
        {
          "indexed": true,
          "internalType": "uint256",
          "name": "_projectId",
          "type": "uint256"
        },
        {
          "indexed": false,
          "internalType": "address",
          "name": "_coreContract",
          "type": "address"
        },
        {
          "indexed": false,
          "internalType": "address[]",
          "name": "_ownedNFTAddresses",
          "type": "address[]"
        },
        {
          "indexed": false,
          "internalType": "uint256[]",
          "name": "_ownedNFTProjectIds",
          "type": "uint256[]"
        }
      ],
      "name": "RemovedHoldersOfProjects",
      "type": "event"
    },
    {
      "anonymous": false,
      "inputs": [
        {
          "indexed": true,
          "internalType": "address",
          "name": "_NFTAddress",
          "type": "address"
        }
      ],
      "name": "UnregisteredNFTAddress",
      "type": "event"
    },
    {
      "inputs": [
        {
          "internalType": "uint256",
          "name": "_projectId",
          "type": "uint256"
        },
        {
          "internalType": "address",
          "name": "_coreContract",
          "type": "address"
        },
        {
          "internalType": "address[]",
          "name": "_ownedNFTAddressesAdd",
          "type": "address[]"
        },
        {
          "internalType": "uint256[]",
          "name": "_ownedNFTProjectIdsAdd",
          "type": "uint256[]"
        },
        {
          "internalType": "address[]",
          "name": "_ownedNFTAddressesRemove",
          "type": "address[]"
        },
        {
          "internalType": "uint256[]",
          "name": "_ownedNFTProjectIdsRemove",
          "type": "uint256[]"
        }
      ],
      "name": "allowAndRemoveHoldersOfProjects",
      "outputs": [],
      "stateMutability": "nonpayable",
      "type": "function"
    },
    {
      "inputs": [
        {
          "internalType": "uint256",
          "name": "_projectId",
          "type": "uint256"
        },
        {
          "internalType": "address",
          "name": "_coreContract",
          "type": "address"
        },
        {
          "internalType": "address[]",
          "name": "_ownedNFTAddresses",
          "type": "address[]"
        },
        {
          "internalType": "uint256[]",
          "name": "_ownedNFTProjectIds",
          "type": "uint256[]"
        }
      ],
      "name": "allowHoldersOfProjects",
      "outputs": [],
      "stateMutability": "nonpayable",
      "type": "function"
    },
    {
      "inputs": [
        {
          "internalType": "address",
          "name": "_coreContract",
          "type": "address"
        },
        {
          "internalType": "uint256",
          "name": "_projectId",
          "type": "uint256"
        },
        {
          "internalType": "address",
          "name": "_ownedNFTAddress",
          "type": "address"
        },
        {
          "internalType": "uint256",
          "name": "_ownedNFTProjectId",
          "type": "uint256"
        }
      ],
      "name": "allowedProjectHolders",
      "outputs": [
        {
          "internalType": "bool",
          "name": "",
          "type": "bool"
        }
      ],
      "stateMutability": "view",
      "type": "function"
    },
    {
      "inputs": [],
      "name": "delegationRegistryAddress",
      "outputs": [
        {
          "internalType": "address",
          "name": "",
          "type": "address"
        }
      ],
      "stateMutability": "view",
      "type": "function"
    },
    {
      "inputs": [
        {
          "internalType": "uint256",
          "name": "_projectId",
          "type": "uint256"
        },
        {
          "internalType": "address",
          "name": "_coreContract",
          "type": "address"
        }
      ],
      "name": "getPriceInfo",
      "outputs": [
        {
          "internalType": "bool",
          "name": "isConfigured",
          "type": "bool"
        },
        {
          "internalType": "uint256",
          "name": "tokenPriceInWei",
          "type": "uint256"
        },
        {
          "internalType": "string",
          "name": "currencySymbol",
          "type": "string"
        },
        {
          "internalType": "address",
          "name": "currencyAddress",
          "type": "address"
        }
      ],
      "stateMutability": "view",
      "type": "function"
    },
    {
      "inputs": [
        {
          "internalType": "address",
          "name": "_coreContract",
          "type": "address"
        },
        {
          "internalType": "uint256",
          "name": "_projectId",
          "type": "uint256"
        },
        {
          "internalType": "address",
          "name": "_ownedNFTAddress",
          "type": "address"
        },
        {
          "internalType": "uint256",
          "name": "_ownedNFTTokenId",
          "type": "uint256"
        }
      ],
      "name": "isAllowlistedNFT",
      "outputs": [
        {
          "internalType": "bool",
          "name": "",
          "type": "bool"
        }
      ],
      "stateMutability": "view",
      "type": "function"
    },
    {
      "inputs": [
        {
          "internalType": "address",
          "name": "_coreContract",
          "type": "address"
        }
      ],
      "name": "isEngineView",
      "outputs": [
        {
          "internalType": "bool",
          "name": "",
          "type": "bool"
        }
      ],
      "stateMutability": "view",
      "type": "function"
    },
    {
      "inputs": [
        {
          "internalType": "uint256",
          "name": "_projectId",
          "type": "uint256"
        },
        {
          "internalType": "address",
          "name": "_coreContract",
          "type": "address"
        },
        {
          "internalType": "uint24",
          "name": "_maxInvocations",
          "type": "uint24"
        }
      ],
      "name": "manuallyLimitProjectMaxInvocations",
      "outputs": [],
      "stateMutability": "nonpayable",
      "type": "function"
    },
    {
      "inputs": [
        {
          "internalType": "address",
          "name": "_contractAddress",
          "type": "address"
        },
        {
          "internalType": "uint256",
          "name": "_projectId",
          "type": "uint256"
        }
      ],
      "name": "maxInvocationsProjectConfig",
      "outputs": [
        {
          "components": [
            {
              "internalType": "bool",
              "name": "maxHasBeenInvoked",
              "type": "bool"
            },
            {
              "internalType": "uint24",
              "name": "maxInvocations",
              "type": "uint24"
            }
          ],
          "internalType": "struct MaxInvocationsLib.MaxInvocationsProjectConfig",
          "name": "",
          "type": "tuple"
        }
      ],
      "stateMutability": "view",
      "type": "function"
    },
    {
      "inputs": [],
      "name": "minterFilterAddress",
      "outputs": [
        {
          "internalType": "address",
          "name": "",
          "type": "address"
        }
      ],
      "stateMutability": "view",
      "type": "function"
    },
    {
      "inputs": [],
      "name": "minterType",
      "outputs": [
        {
          "internalType": "string",
          "name": "",
          "type": "string"
        }
      ],
      "stateMutability": "view",
      "type": "function"
    },
    {
      "inputs": [],
      "name": "minterVersion",
      "outputs": [
        {
          "internalType": "string",
          "name": "",
          "type": "string"
        }
      ],
      "stateMutability": "view",
      "type": "function"
    },
    {
      "inputs": [
        {
          "internalType": "address",
          "name": "_contractAddress",
          "type": "address"
        },
        {
          "internalType": "uint256",
          "name": "_projectId",
          "type": "uint256"
        }
      ],
      "name": "projectConfig",
      "outputs": [
        {
          "components": [
            {
              "internalType": "uint248",
              "name": "pricePerTokenInWei",
              "type": "uint248"
            },
            {
              "internalType": "bool",
              "name": "priceIsConfigured",
              "type": "bool"
            }
          ],
          "internalType": "struct ISharedMinterV0.ProjectConfig",
          "name": "",
          "type": "tuple"
        }
      ],
      "stateMutability": "view",
      "type": "function"
    },
    {
      "inputs": [
        {
          "internalType": "uint256",
          "name": "_projectId",
          "type": "uint256"
        },
        {
          "internalType": "address",
          "name": "_coreContract",
          "type": "address"
        }
      ],
      "name": "projectMaxHasBeenInvoked",
      "outputs": [
        {
          "internalType": "bool",
          "name": "",
          "type": "bool"
        }
      ],
      "stateMutability": "view",
      "type": "function"
    },
    {
      "inputs": [
        {
          "internalType": "uint256",
          "name": "_projectId",
          "type": "uint256"
        },
        {
          "internalType": "address",
          "name": "_coreContract",
          "type": "address"
        }
      ],
      "name": "projectMaxInvocations",
      "outputs": [
        {
          "internalType": "uint256",
          "name": "",
          "type": "uint256"
        }
      ],
      "stateMutability": "view",
      "type": "function"
    },
    {
      "inputs": [
        {
          "internalType": "uint256",
          "name": "_projectId",
          "type": "uint256"
        },
        {
          "internalType": "address",
          "name": "_coreContract",
          "type": "address"
        },
        {
          "internalType": "address",
          "name": "_ownedNFTAddress",
          "type": "address"
        },
        {
          "internalType": "uint256",
          "name": "_ownedNFTTokenId",
          "type": "uint256"
        }
      ],
      "name": "purchase",
      "outputs": [
        {
          "internalType": "uint256",
          "name": "tokenId",
          "type": "uint256"
        }
      ],
      "stateMutability": "payable",
      "type": "function"
    },
    {
      "inputs": [
        {
          "internalType": "uint256",
          "name": "",
          "type": "uint256"
        },
        {
          "internalType": "address",
          "name": "",
          "type": "address"
        }
      ],
      "name": "purchase",
      "outputs": [
        {
          "internalType": "uint256",
          "name": "",
          "type": "uint256"
        }
      ],
      "stateMutability": "payable",
      "type": "function"
    },
    {
      "inputs": [
        {
          "internalType": "address",
          "name": "_to",
          "type": "address"
        },
        {
          "internalType": "uint256",
          "name": "_projectId",
          "type": "uint256"
        },
        {
          "internalType": "address",
          "name": "_coreContract",
          "type": "address"
        },
        {
          "internalType": "address",
          "name": "_ownedNFTAddress",
          "type": "address"
        },
        {
          "internalType": "uint256",
          "name": "_ownedNFTTokenId",
          "type": "uint256"
        },
        {
          "internalType": "address",
          "name": "_vault",
          "type": "address"
        }
      ],
      "name": "purchaseTo",
      "outputs": [
        {
          "internalType": "uint256",
          "name": "tokenId",
          "type": "uint256"
        }
      ],
      "stateMutability": "payable",
      "type": "function"
    },
    {
      "inputs": [
        {
          "internalType": "address",
          "name": "",
          "type": "address"
        },
        {
          "internalType": "uint256",
          "name": "",
          "type": "uint256"
        },
        {
          "internalType": "address",
          "name": "",
          "type": "address"
        }
      ],
      "name": "purchaseTo",
      "outputs": [
        {
          "internalType": "uint256",
          "name": "",
          "type": "uint256"
        }
      ],
      "stateMutability": "payable",
      "type": "function"
    },
    {
      "inputs": [
        {
          "internalType": "address",
          "name": "_to",
          "type": "address"
        },
        {
          "internalType": "uint256",
          "name": "_projectId",
          "type": "uint256"
        },
        {
          "internalType": "address",
          "name": "_coreContract",
          "type": "address"
        },
        {
          "internalType": "address",
          "name": "_ownedNFTAddress",
          "type": "address"
        },
        {
          "internalType": "uint256",
          "name": "_ownedNFTTokenId",
          "type": "uint256"
        }
      ],
      "name": "purchaseTo",
      "outputs": [
        {
          "internalType": "uint256",
          "name": "tokenId",
          "type": "uint256"
        }
      ],
      "stateMutability": "payable",
      "type": "function"
    },
    {
      "inputs": [
        {
          "internalType": "uint256",
          "name": "_projectId",
          "type": "uint256"
        },
        {
          "internalType": "address",
          "name": "_coreContract",
          "type": "address"
        },
        {
          "internalType": "address[]",
          "name": "_ownedNFTAddresses",
          "type": "address[]"
        },
        {
          "internalType": "uint256[]",
          "name": "_ownedNFTProjectIds",
          "type": "uint256[]"
        }
      ],
      "name": "removeHoldersOfProjects",
      "outputs": [],
      "stateMutability": "nonpayable",
      "type": "function"
    },
    {
      "inputs": [
        {
          "internalType": "uint256",
          "name": "_projectId",
          "type": "uint256"
        },
        {
          "internalType": "address",
          "name": "_coreContract",
          "type": "address"
        }
      ],
      "name": "syncProjectMaxInvocationsToCore",
      "outputs": [],
      "stateMutability": "nonpayable",
      "type": "function"
    },
    {
      "inputs": [
        {
          "internalType": "uint256",
          "name": "_projectId",
          "type": "uint256"
        },
        {
          "internalType": "address",
          "name": "_coreContract",
          "type": "address"
        },
        {
          "internalType": "uint248",
          "name": "_pricePerTokenInWei",
          "type": "uint248"
        }
      ],
      "name": "updatePricePerTokenInWei",
      "outputs": [],
      "stateMutability": "nonpayable",
      "type": "function"
    }
  ],
  "bytecode": "0x6101006040523480156200001257600080fd5b5060405162002576380380620025768339810160408190526200003591620000b6565b60016000556001600160a01b03811660c08190526040519081527f836360d1b094a7de3c3eab3d1185f3a5939467c23d4a12709dbdbf8c8d7e2f3b9060200160405180910390a16001600160a01b0390811660e05216608081905260a052620000ee565b80516001600160a01b0381168114620000b157600080fd5b919050565b60008060408385031215620000ca57600080fd5b620000d58362000099565b9150620000e56020840162000099565b90509250929050565b60805160a05160c05160e05161244e6200012860003960006109450152600061034d01526000610a3a0152600061055d015261244e6000f3fe6080604052600436106101105760003560e01c806301000da7146101155780630650eaf01461014a5780630c49ef311461018c57806319d29d7e146101ae5780634869f3df146101cf5780634e8d8787146102195780637e947f241461022c5780637fbbc0051461024c57806380eff0f01461025f5780638a605b51146102ba5780639d923dff146102da578063ae77c237146102ed578063b000e334146102fb578063b97bf1411461031b578063bf5bf5f81461033b578063cce7c90914610387578063d3ddabe6146103ca578063d9bffbce14610409578063d9eb16db14610429578063dcf7398b146104ad578063dd85582f1461054b578063e9d1e8ac1461057f578063f7f5e9d0146105c1575b600080fd5b34801561012157600080fd5b50610135610130366004611ac2565b6105e1565b60405190151581526020015b60405180910390f35b34801561015657600080fd5b5061016a610165366004611adf565b610622565b6040805182511515815260209283015162ffffff169281019290925201610141565b34801561019857600080fd5b506101ac6101a7366004611c43565b610679565b005b6101c16101bc366004611d08565b610733565b604051908152602001610141565b3480156101db57600080fd5b506101c16101ea366004611d78565b6001600160a01b031660009081526003602090815260408083209383529290522054610100900462ffffff1690565b6101c1610227366004611da8565b610bd3565b34801561023857600080fd5b506101ac610247366004611dea565b610c1e565b6101c161025a366004611e2d565b610cdf565b34801561026b57600080fd5b5061013561027a366004611e75565b6001600160a01b03938416600090815260046020908152604080832095835294815284822093909516815291845282822090825290925290205460ff1690565b3480156102c657600080fd5b506101ac6102d5366004611ead565b610cf9565b6101c16102e8366004611f2c565b610d73565b6101c1610227366004611d78565b34801561030757600080fd5b506101ac610316366004611f87565b610d8e565b34801561032757600080fd5b50610135610336366004611e75565b610e15565b34801561034757600080fd5b5061036f7f000000000000000000000000000000000000000000000000000000000000000081565b6040516001600160a01b039091168152602001610141565b34801561039357600080fd5b506101356103a2366004611d78565b6001600160a01b03166000908152600360209081526040808320938352929052205460ff1690565b3480156103d657600080fd5b506103fc60405180604001604052806006815260200165076352e302e360d41b81525081565b6040516101419190612016565b34801561041557600080fd5b506101ac610424366004611d78565b610e43565b34801561043557600080fd5b5061049d610444366004611d78565b6001600160a01b03166000908152600160209081526040808320938352928152828220548351808501909452600384526208aa8960eb1b9184019190915260ff600160f81b820416936001600160f81b03909116929190565b6040516101419493929190612029565b3480156104b957600080fd5b506105256104c8366004611adf565b604080518082018252600080825260209182018190526001600160a01b0394909416845260018152818420928452918252918290208251808401909352546001600160f81b0381168352600160f81b900460ff1615159082015290565b6040805182516001600160f81b0316815260209283015115159281019290925201610141565b34801561055757600080fd5b5061036f7f000000000000000000000000000000000000000000000000000000000000000081565b34801561058b57600080fd5b506103fc604051806040016040528060168152602001754d696e7465725365745072696365486f6c646572563560501b81525081565b3480156105cd57600080fd5b506101ac6105dc366004611ead565b610ebb565b6001600160a01b03811660009081526002602052604081208054610100900460ff1615610612575460ff1692915050565b61061b83610f27565b9392505050565b604080518082018252600080825260209182018190526001600160a01b038516815260038252828120848252825282902082518084019093525460ff811615158352610100900462ffffff16908201525b92915050565b610683868661105f565b6001600160a01b038516600090815260046020908152604080832089845290915290206106b3908585858561111a565b857fe4e108abe1d65a55b2c49a1586fb2afa6c3d79732947e37f71a6c23a5b08ff828686866040516106e793929190612063565b60405180910390a2857f5728c49515724a90b87298ccfb6a8868ff0bfddf7e4fe298cea807dd815ced0986848460405161072393929190612063565b60405180910390a2505050505050565b600060026000540361078c5760405162461bcd60e51b815260206004820152601f60248201527f5265656e7472616e637947756172643a207265656e7472616e742063616c6c0060448201526064015b60405180910390fd5b600260009081556001600160a01b0386168082526001602090815260408084208a85528252808420928452600382528084208a8552909152909120805460ff16156107e95760405162461bcd60e51b8152600401610783906120f7565b81546001600160f81b03811690600160f81b900460ff166108435760405162461bcd60e51b8152602060048201526014602482015273141c9a58d9481b9bdd0818dbdb999a59dd5c995960621b6044820152606401610783565b8034101561088c5760405162461bcd60e51b815260206004820152601660248201527526b4b7103b30b63ab2903a379036b4b73a103932b89760511b6044820152606401610783565b6001600160a01b03881660009081526004602090815260408083208c845290915290206108ba908888611130565b6108fe5760405162461bcd60e51b81526020600482015260156024820152744f6e6c7920616c6c6f776c6973746564204e46547360581b6044820152606401610783565b336001600160a01b03861615610a0657604051631574d39f60e31b81523360048201526001600160a01b0387811660248301528a81166044830152606482018990526000917f00000000000000000000000000000000000000000000000000000000000000009091169063aba69cf890608401602060405180830381865afa15801561098e573d6000803e3d6000fd5b505050506040513d601f19601f820116820180604052508101906109b29190612138565b905080610a015760405162461bcd60e51b815260206004820152601e60248201527f496e76616c69642064656c65676174652d7661756c742070616972696e6700006044820152606401610783565b869150505b6040516117cd60e21b81526001600160a01b038c81166004830152602482018c90528a8116604483015282811660648301527f00000000000000000000000000000000000000000000000000000000000000001690615f34906084016020604051808303816000875af1158015610a81573d6000803e3d6000fd5b505050506040513d601f19601f82011682018060405250810190610aa59190612153565b6001600160a01b038a1660009081526003602090815260408083208e84529091529020909550610ad690869061116e565b6040516331a9108f60e11b8152600481018890526001600160a01b0380831691908a1690636352211e90602401602060405180830381865afa158015610b20573d6000803e3d6000fd5b505050506040513d601f19601f82011682018060405250810190610b44919061216c565b6001600160a01b031614610b8e5760405162461bcd60e51b815260206004820152601160248201527013db9b1e481bdddb995c881bd988139195607a1b6044820152606401610783565b6001600160a01b0389166000908152600260205260408120610bb1908b906111bd565b9050610bbf8b848c846111ef565b505050505060016000559695505050505050565b60405162461bcd60e51b815260206004820152601f60248201527f5075726368617365207265717569726573204e4654206f776e657273686970006044820152600090606401610783565b610c28838361105f565b6001600160a01b03821660008181526001602090815260408083208784529091528082206001600160f81b038516600160f81b8117825591519093919287917f37a132f63521ff11fed0c526f0f30824337316bb2b71fcfc0b6f3cf631595b5f9190a46001600160a01b038316600090815260036020908152604080832087845290915290208054610100900462ffffff16158015610cc95750805460ff16155b15610cd857610cd88585610e43565b5050505050565b6000610cf033868686866000610733565b95945050505050565b610d03848461105f565b6001600160a01b03831660009081526004602090815260408083208784529091529020610d319083836112a6565b837fe4e108abe1d65a55b2c49a1586fb2afa6c3d79732947e37f71a6c23a5b08ff82848484604051610d6593929190612063565b60405180910390a250505050565b6000610d8486868686866000610733565b9695505050505050565b610d98838361105f565b6001600160a01b03821660009081526003602090815260408083208684529091529020610dca90849084908490611369565b60405162ffffff821681526001600160a01b0383169084907f1c3e74a6c6fefbaeee166b031cd2016349c6c863d5188b67c9bbd0b0dcb2e237906020015b60405180910390a3505050565b6001600160a01b03841660009081526004602090815260408083208684529091528120610cf0908484611130565b610e4d828261105f565b6001600160a01b03811660009081526003602090815260408083208584529091528120610e7d9084908490611457565b9050816001600160a01b0316837f1c3e74a6c6fefbaeee166b031cd2016349c6c863d5188b67c9bbd0b0dcb2e23783604051610e0891815260200190565b610ec5848461105f565b6001600160a01b03831660009081526004602090815260408083208784529091529020610ef39083836114fc565b837f5728c49515724a90b87298ccfb6a8868ff0bfddf7e4fe298cea807dd815ced09848484604051610d6593929190612063565b6040516000602482018190526044820181905290819060640160408051601f198184030181529181526020820180516001600160e01b0316638639415b60e01b1790525190915060009081906001600160a01b03861690610f89908590612189565b600060405180830381855afa9150503d8060008114610fc4576040519150601f19603f3d011682016040523d82523d6000602084013e610fc9565b606091505b509150915081610feb5760405162461bcd60e51b8152600401610783906121a5565b805160c08190036110025750600095945050505050565b80610100036110175750600195945050505050565b60405162461bcd60e51b815260206004820152601e60248201527f556e657870656374656420726576656e75652073706c697420627974657300006044820152606401610783565b60405163a47d29cb60e01b8152600481018390526001600160a01b0382169063a47d29cb90602401602060405180830381865afa1580156110a4573d6000803e3d6000fd5b505050506040513d601f19601f820116820180604052508101906110c8919061216c565b6001600160a01b0316336001600160a01b0316146111165760405162461bcd60e51b815260206004820152600b60248201526a13db9b1e48105c9d1a5cdd60aa1b6044820152606401610783565b5050565b6111258585856112a6565b610cd88583836114fc565b600080611140620f424084612200565b6001600160a01b038516600090815260208781526040808320938352929052205460ff169150509392505050565b8054620f4240830660010190610100900462ffffff16808211156111a45760405162461bcd60e51b8152600401610783906120f7565b8082036111b757825460ff191660011783555b50505050565b8054600090610100900460ff16156111da5750805460ff16610673565b60006111e684846115bf565b91506106739050565b34156111b7576000806112028534612222565b905080156112925760405133908290600081818185875af1925050503d806000811461124a576040519150601f19603f3d011682016040523d82523d6000602084013e61124f565b606091505b505080925050816112925760405162461bcd60e51b815260206004820152600d60248201526c1499599d5b990819985a5b1959609a1b6044820152606401610783565b61129e868686866116cf565b505050505050565b80518251146112c75760405162461bcd60e51b815260040161078390612235565b60005b82518110156111b75760018460000160008584815181106112ed576112ed612276565b60200260200101516001600160a01b03166001600160a01b03168152602001908152602001600020600084848151811061132957611329612276565b6020026020010151815260200190815260200160002060006101000a81548160ff02191690831515021790555080806113619061228c565b9150506112ca565b604051630ea5613f60e01b81526004810185905260009081906001600160a01b03861690630ea5613f9060240160c060405180830381865afa1580156113b3573d6000803e3d6000fd5b505050506040513d601f19601f820116820180604052508101906113d791906122a5565b5092955092935050505062ffffff84168210156114065760405162461bcd60e51b815260040161078390612304565b808462ffffff16101561142b5760405162461bcd60e51b815260040161078390612304565b825460ff1962ffffff90951661010081029590951663ffffffff19909116179314929092179055505050565b6000806000846001600160a01b0316630ea5613f876040518263ffffffff1660e01b815260040161148a91815260200190565b60c060405180830381865afa1580156114a7573d6000803e3d6000fd5b505050506040513d601f19601f820116820180604052508101906114cb91906122a5565b5050875493831463ffffffff1990941661010062ffffff85160260ff19161793909317909655979650505050505050565b805182511461151d5760405162461bcd60e51b815260040161078390612235565b60005b82518110156111b757600084600001600085848151811061154357611543612276565b60200260200101516001600160a01b03166001600160a01b03168152602001908152602001600020600084848151811061157f5761157f612276565b6020026020010151815260200190815260200160002060006101000a81548160ff02191690831515021790555080806115b79061228c565b915050611520565b6040516000602482018190526044820181905290819060640160408051601f198184030181529181526020820180516001600160e01b0316638639415b60e01b1790525190915060009081906001600160a01b03871690611621908590612189565b6000604051808303816000865af19150503d806000811461165e576040519150601f19603f3d011682016040523d82523d6000602084013e611663565b606091505b5091509150816116855760405162461bcd60e51b8152600401610783906121a5565b805160c08190036116ab575050835461ffff191661010017845550600091506106739050565b8061010003611017575050835461ffff191661010117845550600191506106739050565b82156111b7576000806000806000806000871561182057604051638639415b60e01b8152600481018c9052602481018b905260009081906001600160a01b038c1690638639415b9060440161010060405180830381865afa158015611738573d6000803e3d6000fd5b505050506040513d601f19601f8201168201806040525081019061175c9190612335565b969e50949c50909a50985091965091945090925090508115611819576040516001600160a01b038216908390600081818185875af1925050503d80600081146117c1576040519150601f19603f3d011682016040523d82523d6000602084013e6117c6565b606091505b505080995050886118195760405162461bcd60e51b815260206004820181905260248201527f506c6174666f726d2050726f7669646572207061796d656e74206661696c65646044820152606401610783565b50506118a0565b604051638639415b60e01b8152600481018c9052602481018b90526001600160a01b038a1690638639415b9060440160c060405180830381865afa15801561186c573d6000803e3d6000fd5b505050506040513d601f19601f8201168201806040525081019061189091906123bd565b949a509298509096509450925090505b8515611947576040516001600160a01b038616908790600081818185875af1925050503d80600081146118ef576040519150601f19603f3d011682016040523d82523d6000602084013e6118f4565b606091505b505080975050866119475760405162461bcd60e51b815260206004820152601e60248201527f52656e6465722050726f7669646572207061796d656e74206661696c656400006044820152606401610783565b83156119e6576040516001600160a01b038416908590600081818185875af1925050503d8060008114611996576040519150601f19603f3d011682016040523d82523d6000602084013e61199b565b606091505b505080975050866119e65760405162461bcd60e51b8152602060048201526015602482015274105c9d1a5cdd081c185e5b595b9d0819985a5b1959605a1b6044820152606401610783565b8115611a8d576040516001600160a01b038216908390600081818185875af1925050503d8060008114611a35576040519150601f19603f3d011682016040523d82523d6000602084013e611a3a565b606091505b50508097505086611a8d5760405162461bcd60e51b815260206004820152601f60248201527f4164646974696f6e616c205061796565207061796d656e74206661696c6564006044820152606401610783565b5050505050505050505050565b6001600160a01b0381168114611aaf57600080fd5b50565b8035611abd81611a9a565b919050565b600060208284031215611ad457600080fd5b813561061b81611a9a565b60008060408385031215611af257600080fd5b8235611afd81611a9a565b946020939093013593505050565b634e487b7160e01b600052604160045260246000fd5b604051601f8201601f191681016001600160401b0381118282101715611b4957611b49611b0b565b604052919050565b60006001600160401b03821115611b6a57611b6a611b0b565b5060051b60200190565b600082601f830112611b8557600080fd5b81356020611b9a611b9583611b51565b611b21565b82815260059290921b84018101918181019086841115611bb957600080fd5b8286015b84811015611bdd578035611bd081611a9a565b8352918301918301611bbd565b509695505050505050565b600082601f830112611bf957600080fd5b81356020611c09611b9583611b51565b82815260059290921b84018101918181019086841115611c2857600080fd5b8286015b84811015611bdd5780358352918301918301611c2c565b60008060008060008060c08789031215611c5c57600080fd5b86359550611c6c60208801611ab2565b945060408701356001600160401b0380821115611c8857600080fd5b611c948a838b01611b74565b95506060890135915080821115611caa57600080fd5b611cb68a838b01611be8565b94506080890135915080821115611ccc57600080fd5b611cd88a838b01611b74565b935060a0890135915080821115611cee57600080fd5b50611cfb89828a01611be8565b9150509295509295509295565b60008060008060008060c08789031215611d2157600080fd5b8635611d2c81611a9a565b9550602087013594506040870135611d4381611a9a565b93506060870135611d5381611a9a565b92506080870135915060a0870135611d6a81611a9a565b809150509295509295509295565b60008060408385031215611d8b57600080fd5b823591506020830135611d9d81611a9a565b809150509250929050565b600080600060608486031215611dbd57600080fd5b8335611dc881611a9a565b9250602084013591506040840135611ddf81611a9a565b809150509250925092565b600080600060608486031215611dff57600080fd5b833592506020840135611e1181611a9a565b915060408401356001600160f81b0381168114611ddf57600080fd5b60008060008060808587031215611e4357600080fd5b843593506020850135611e5581611a9a565b92506040850135611e6581611a9a565b9396929550929360600135925050565b60008060008060808587031215611e8b57600080fd5b8435611e9681611a9a565b9350602085013592506040850135611e6581611a9a565b60008060008060808587031215611ec357600080fd5b843593506020850135611ed581611a9a565b925060408501356001600160401b0380821115611ef157600080fd5b611efd88838901611b74565b93506060870135915080821115611f1357600080fd5b50611f2087828801611be8565b91505092959194509250565b600080600080600060a08688031215611f4457600080fd5b8535611f4f81611a9a565b9450602086013593506040860135611f6681611a9a565b92506060860135611f7681611a9a565b949793965091946080013592915050565b600080600060608486031215611f9c57600080fd5b833592506020840135611fae81611a9a565b9150604084013562ffffff81168114611ddf57600080fd5b60005b83811015611fe1578181015183820152602001611fc9565b50506000910152565b60008151808452612002816020860160208601611fc6565b601f01601f19169290920160200192915050565b60208152600061061b6020830184611fea565b841515815283602082015260806040820152600061204a6080830185611fea565b905060018060a01b038316606083015295945050505050565b6001600160a01b038481168252606060208084018290528551918401829052600092868201929091906080860190855b818110156120b1578551851683529483019491830191600101612093565b5050858103604087015286518082529082019350915080860160005b838110156120e9578151855293820193908201906001016120cd565b509298975050505050505050565b60208082526017908201527613585e081a5b9d9bd8d85d1a5bdb9cc81c995858da1959604a1b604082015260600190565b80518015158114611abd57600080fd5b60006020828403121561214a57600080fd5b61061b82612128565b60006020828403121561216557600080fd5b5051919050565b60006020828403121561217e57600080fd5b815161061b81611a9a565b6000825161219b818460208701611fc6565b9190910192915050565b60208082526025908201527f6765745072696d617279526576656e756553706c69747328292063616c6c2066604082015264185a5b195960da1b606082015260800190565b634e487b7160e01b600052601160045260246000fd5b60008261221d57634e487b7160e01b600052601260045260246000fd5b500490565b81810381811115610673576106736121ea565b60208082526021908201527f546f6b656e486f6c6465724c69623a20617272617973206e6571206c656e67746040820152600d60fb1b606082015260800190565b634e487b7160e01b600052603260045260246000fd5b60006001820161229e5761229e6121ea565b5060010190565b60008060008060008060c087890312156122be57600080fd5b86519550602087015194506122d560408801612128565b93506122e360608801612128565b9250608087015191506122f860a08801612128565b90509295509295509295565b602080825260179082015276496e76616c6964206d617820696e766f636174696f6e7360481b604082015260600190565b600080600080600080600080610100898b03121561235257600080fd5b88519750602089015161236481611a9a565b60408a015160608b0151919850965061237c81611a9a565b60808a015160a08b0151919650945061239481611a9a565b60c08a015160e08b015191945092506123ac81611a9a565b809150509295985092959890939650565b60008060008060008060c087890312156123d657600080fd5b8651955060208701516123e881611a9a565b60408801516060890151919650945061240081611a9a565b608088015160a08901519194509250611d6a81611a9a56fea26469706673582212201cb0d17aeebd6b45ea5daa251c26c71a46d6035d469efca754488f5abf3e36af64736f6c63430008130033",
  "linkReferences": {},
  "deployedLinkReferences": {}
}