{
  "_format": "hh-sol-artifact-1",
  "contractName": "MinterDAExpSettlementV3",
  "sourceName": "contracts/minter-suite/Minters/MinterDAExpSettlementV3.sol",
  "abi": [
    {
      "inputs": [
        {
          "internalType": "address",
          "name": "_minterFilter",
          "type": "address"
        }
      ],
      "stateMutability": "nonpayable",
      "type": "constructor"
    },
    {
      "anonymous": false,
      "inputs": [
        {
          "indexed": false,
          "internalType": "uint256",
          "name": "_minimumPriceDecayHalfLifeSeconds",
          "type": "uint256"
        }
      ],
      "name": "AuctionMinHalfLifeSecondsUpdated",
      "type": "event"
    },
    {
      "anonymous": false,
      "inputs": [
        {
          "indexed": true,
          "internalType": "uint256",
          "name": "_projectId",
          "type": "uint256"
        },
        {
          "indexed": true,
          "internalType": "address",
          "name": "_coreContract",
          "type": "address"
        },
        {
          "indexed": false,
          "internalType": "bytes32",
          "name": "_key",
          "type": "bytes32"
        }
      ],
      "name": "ConfigKeyRemoved",
      "type": "event"
    },
    {
      "anonymous": false,
      "inputs": [
        {
          "indexed": true,
          "internalType": "uint256",
          "name": "_projectId",
          "type": "uint256"
        },
        {
          "indexed": true,
          "internalType": "address",
          "name": "_coreContract",
          "type": "address"
        },
        {
          "indexed": false,
          "internalType": "bytes32",
          "name": "_key",
          "type": "bytes32"
        },
        {
          "indexed": false,
          "internalType": "uint256",
          "name": "_value",
          "type": "uint256"
        }
      ],
      "name": "ConfigValueAddedToSet",
      "type": "event"
    },
    {
      "anonymous": false,
      "inputs": [
        {
          "indexed": true,
          "internalType": "uint256",
          "name": "_projectId",
          "type": "uint256"
        },
        {
          "indexed": true,
          "internalType": "address",
          "name": "_coreContract",
          "type": "address"
        },
        {
          "indexed": false,
          "internalType": "bytes32",
          "name": "_key",
          "type": "bytes32"
        },
        {
          "indexed": false,
          "internalType": "address",
          "name": "_value",
          "type": "address"
        }
      ],
      "name": "ConfigValueAddedToSet",
      "type": "event"
    },
    {
      "anonymous": false,
      "inputs": [
        {
          "indexed": true,
          "internalType": "uint256",
          "name": "_projectId",
          "type": "uint256"
        },
        {
          "indexed": true,
          "internalType": "address",
          "name": "_coreContract",
          "type": "address"
        },
        {
          "indexed": false,
          "internalType": "bytes32",
          "name": "_key",
          "type": "bytes32"
        },
        {
          "indexed": false,
          "internalType": "bytes32",
          "name": "_value",
          "type": "bytes32"
        }
      ],
      "name": "ConfigValueAddedToSet",
      "type": "event"
    },
    {
      "anonymous": false,
      "inputs": [
        {
          "indexed": true,
          "internalType": "uint256",
          "name": "_projectId",
          "type": "uint256"
        },
        {
          "indexed": true,
          "internalType": "address",
          "name": "_coreContract",
          "type": "address"
        },
        {
          "indexed": false,
          "internalType": "bytes32",
          "name": "_key",
          "type": "bytes32"
        },
        {
          "indexed": false,
          "internalType": "uint256",
          "name": "_value",
          "type": "uint256"
        }
      ],
      "name": "ConfigValueRemovedFromSet",
      "type": "event"
    },
    {
      "anonymous": false,
      "inputs": [
        {
          "indexed": true,
          "internalType": "uint256",
          "name": "_projectId",
          "type": "uint256"
        },
        {
          "indexed": true,
          "internalType": "address",
          "name": "_coreContract",
          "type": "address"
        },
        {
          "indexed": false,
          "internalType": "bytes32",
          "name": "_key",
          "type": "bytes32"
        },
        {
          "indexed": false,
          "internalType": "address",
          "name": "_value",
          "type": "address"
        }
      ],
      "name": "ConfigValueRemovedFromSet",
      "type": "event"
    },
    {
      "anonymous": false,
      "inputs": [
        {
          "indexed": true,
          "internalType": "uint256",
          "name": "_projectId",
          "type": "uint256"
        },
        {
          "indexed": true,
          "internalType": "address",
          "name": "_coreContract",
          "type": "address"
        },
        {
          "indexed": false,
          "internalType": "bytes32",
          "name": "_key",
          "type": "bytes32"
        },
        {
          "indexed": false,
          "internalType": "bytes32",
          "name": "_value",
          "type": "bytes32"
        }
      ],
      "name": "ConfigValueRemovedFromSet",
      "type": "event"
    },
    {
      "anonymous": false,
      "inputs": [
        {
          "indexed": true,
          "internalType": "uint256",
          "name": "_projectId",
          "type": "uint256"
        },
        {
          "indexed": true,
          "internalType": "address",
          "name": "_coreContract",
          "type": "address"
        },
        {
          "indexed": false,
          "internalType": "bytes32",
          "name": "_key",
          "type": "bytes32"
        },
        {
          "indexed": false,
          "internalType": "bool",
          "name": "_value",
          "type": "bool"
        }
      ],
      "name": "ConfigValueSet",
      "type": "event"
    },
    {
      "anonymous": false,
      "inputs": [
        {
          "indexed": true,
          "internalType": "uint256",
          "name": "_projectId",
          "type": "uint256"
        },
        {
          "indexed": true,
          "internalType": "address",
          "name": "_coreContract",
          "type": "address"
        },
        {
          "indexed": false,
          "internalType": "bytes32",
          "name": "_key",
          "type": "bytes32"
        },
        {
          "indexed": false,
          "internalType": "uint256",
          "name": "_value",
          "type": "uint256"
        }
      ],
      "name": "ConfigValueSet",
      "type": "event"
    },
    {
      "anonymous": false,
      "inputs": [
        {
          "indexed": true,
          "internalType": "uint256",
          "name": "_projectId",
          "type": "uint256"
        },
        {
          "indexed": true,
          "internalType": "address",
          "name": "_coreContract",
          "type": "address"
        },
        {
          "indexed": false,
          "internalType": "bytes32",
          "name": "_key",
          "type": "bytes32"
        },
        {
          "indexed": false,
          "internalType": "address",
          "name": "_value",
          "type": "address"
        }
      ],
      "name": "ConfigValueSet",
      "type": "event"
    },
    {
      "anonymous": false,
      "inputs": [
        {
          "indexed": true,
          "internalType": "uint256",
          "name": "_projectId",
          "type": "uint256"
        },
        {
          "indexed": true,
          "internalType": "address",
          "name": "_coreContract",
          "type": "address"
        },
        {
          "indexed": false,
          "internalType": "bytes32",
          "name": "_key",
          "type": "bytes32"
        },
        {
          "indexed": false,
          "internalType": "bytes32",
          "name": "_value",
          "type": "bytes32"
        }
      ],
      "name": "ConfigValueSet",
      "type": "event"
    },
    {
      "anonymous": false,
      "inputs": [
        {
          "indexed": true,
          "internalType": "uint256",
          "name": "_projectId",
          "type": "uint256"
        },
        {
          "indexed": true,
          "internalType": "address",
          "name": "_coreContract",
          "type": "address"
        },
        {
          "indexed": true,
          "internalType": "uint256",
          "name": "_pricePerTokenInWei",
          "type": "uint256"
        }
      ],
      "name": "PricePerTokenInWeiUpdated",
      "type": "event"
    },
    {
      "anonymous": false,
      "inputs": [
        {
          "indexed": true,
          "internalType": "uint256",
          "name": "_projectId",
          "type": "uint256"
        },
        {
          "indexed": true,
          "internalType": "address",
          "name": "_coreContract",
          "type": "address"
        },
        {
          "indexed": true,
          "internalType": "address",
          "name": "_currencyAddress",
          "type": "address"
        },
        {
          "indexed": false,
          "internalType": "string",
          "name": "_currencySymbol",
          "type": "string"
        }
      ],
      "name": "ProjectCurrencyInfoUpdated",
      "type": "event"
    },
    {
      "anonymous": false,
      "inputs": [
        {
          "indexed": true,
          "internalType": "uint256",
          "name": "_projectId",
          "type": "uint256"
        },
        {
          "indexed": true,
          "internalType": "address",
          "name": "_coreContract",
          "type": "address"
        },
        {
          "indexed": false,
          "internalType": "uint256",
          "name": "_maxInvocations",
          "type": "uint256"
        }
      ],
      "name": "ProjectMaxInvocationsLimitUpdated",
      "type": "event"
    },
    {
      "anonymous": false,
      "inputs": [
        {
          "indexed": true,
          "internalType": "address",
          "name": "_purchaser",
          "type": "address"
        },
        {
          "indexed": true,
          "internalType": "uint256",
          "name": "_projectId",
          "type": "uint256"
        },
        {
          "indexed": true,
          "internalType": "address",
          "name": "_coreContract",
          "type": "address"
        },
        {
          "indexed": false,
          "internalType": "uint24",
          "name": "_numPurchased",
          "type": "uint24"
        },
        {
          "indexed": false,
          "internalType": "uint232",
          "name": "_netPosted",
          "type": "uint232"
        }
      ],
      "name": "ReceiptUpdated",
      "type": "event"
    },
    {
      "anonymous": false,
      "inputs": [
        {
          "indexed": true,
          "internalType": "uint256",
          "name": "_projectId",
          "type": "uint256"
        },
        {
          "indexed": true,
          "internalType": "address",
          "name": "_coreContract",
          "type": "address"
        }
      ],
      "name": "ResetAuctionDetails",
      "type": "event"
    },
    {
      "anonymous": false,
      "inputs": [
        {
          "indexed": true,
          "internalType": "uint256",
          "name": "_projectId",
          "type": "uint256"
        },
        {
          "indexed": true,
          "internalType": "address",
          "name": "_coreContract",
          "type": "address"
        },
        {
          "indexed": false,
          "internalType": "uint64",
          "name": "_auctionTimestampStart",
          "type": "uint64"
        },
        {
          "indexed": false,
          "internalType": "uint64",
          "name": "_priceDecayHalfLifeSeconds",
          "type": "uint64"
        },
        {
          "indexed": false,
          "internalType": "uint128",
          "name": "_startPrice",
          "type": "uint128"
        },
        {
          "indexed": false,
          "internalType": "uint128",
          "name": "_basePrice",
          "type": "uint128"
        }
      ],
      "name": "SetAuctionDetailsExp",
      "type": "event"
    },
    {
      "inputs": [
        {
          "internalType": "uint256",
          "name": "_projectId",
          "type": "uint256"
        },
        {
          "internalType": "address",
          "name": "_coreContract",
          "type": "address"
        },
        {
          "internalType": "uint128",
          "name": "_newSelloutPrice",
          "type": "uint128"
        }
      ],
      "name": "adminEmergencyReduceSelloutPrice",
      "outputs": [],
      "stateMutability": "nonpayable",
      "type": "function"
    },
    {
      "inputs": [
        {
          "internalType": "uint256",
          "name": "_projectId",
          "type": "uint256"
        },
        {
          "internalType": "address",
          "name": "_coreContract",
          "type": "address"
        }
      ],
      "name": "getNumSettleableInvocations",
      "outputs": [
        {
          "internalType": "uint256",
          "name": "numSettleableInvocations",
          "type": "uint256"
        }
      ],
      "stateMutability": "view",
      "type": "function"
    },
    {
      "inputs": [
        {
          "internalType": "uint256",
          "name": "_projectId",
          "type": "uint256"
        },
        {
          "internalType": "address",
          "name": "_coreContract",
          "type": "address"
        }
      ],
      "name": "getPriceInfo",
      "outputs": [
        {
          "internalType": "bool",
          "name": "isConfigured",
          "type": "bool"
        },
        {
          "internalType": "uint256",
          "name": "tokenPriceInWei",
          "type": "uint256"
        },
        {
          "internalType": "string",
          "name": "currencySymbol",
          "type": "string"
        },
        {
          "internalType": "address",
          "name": "currencyAddress",
          "type": "address"
        }
      ],
      "stateMutability": "view",
      "type": "function"
    },
    {
      "inputs": [
        {
          "internalType": "uint256",
          "name": "_projectId",
          "type": "uint256"
        },
        {
          "internalType": "address",
          "name": "_coreContract",
          "type": "address"
        },
        {
          "internalType": "address",
          "name": "_walletAddress",
          "type": "address"
        }
      ],
      "name": "getProjectExcessSettlementFunds",
      "outputs": [
        {
          "internalType": "uint256",
          "name": "excessSettlementFundsInWei",
          "type": "uint256"
        }
      ],
      "stateMutability": "view",
      "type": "function"
    },
    {
      "inputs": [
        {
          "internalType": "uint256",
          "name": "_projectId",
          "type": "uint256"
        },
        {
          "internalType": "address",
          "name": "_coreContract",
          "type": "address"
        }
      ],
      "name": "getProjectLatestPurchasePrice",
      "outputs": [
        {
          "internalType": "uint256",
          "name": "latestPurchasePrice",
          "type": "uint256"
        }
      ],
      "stateMutability": "view",
      "type": "function"
    },
    {
      "inputs": [
        {
          "internalType": "address",
          "name": "_coreContract",
          "type": "address"
        }
      ],
      "name": "isEngineView",
      "outputs": [
        {
          "internalType": "bool",
          "name": "",
          "type": "bool"
        }
      ],
      "stateMutability": "view",
      "type": "function"
    },
    {
      "inputs": [
        {
          "internalType": "uint256",
          "name": "_projectId",
          "type": "uint256"
        },
        {
          "internalType": "address",
          "name": "_coreContract",
          "type": "address"
        },
        {
          "internalType": "uint24",
          "name": "_maxInvocations",
          "type": "uint24"
        }
      ],
      "name": "manuallyLimitProjectMaxInvocations",
      "outputs": [],
      "stateMutability": "nonpayable",
      "type": "function"
    },
    {
      "inputs": [
        {
          "internalType": "uint256",
          "name": "_projectId",
          "type": "uint256"
        },
        {
          "internalType": "address",
          "name": "_coreContract",
          "type": "address"
        }
      ],
      "name": "maxInvocationsProjectConfig",
      "outputs": [
        {
          "components": [
            {
              "internalType": "bool",
              "name": "maxHasBeenInvoked",
              "type": "bool"
            },
            {
              "internalType": "uint24",
              "name": "maxInvocations",
              "type": "uint24"
            }
          ],
          "internalType": "struct MaxInvocationsLib.MaxInvocationsProjectConfig",
          "name": "",
          "type": "tuple"
        }
      ],
      "stateMutability": "view",
      "type": "function"
    },
    {
      "inputs": [],
      "name": "minimumPriceDecayHalfLifeSeconds",
      "outputs": [
        {
          "internalType": "uint256",
          "name": "",
          "type": "uint256"
        }
      ],
      "stateMutability": "view",
      "type": "function"
    },
    {
      "inputs": [],
      "name": "minterFilterAddress",
      "outputs": [
        {
          "internalType": "address",
          "name": "",
          "type": "address"
        }
      ],
      "stateMutability": "view",
      "type": "function"
    },
    {
      "inputs": [],
      "name": "minterType",
      "outputs": [
        {
          "internalType": "string",
          "name": "",
          "type": "string"
        }
      ],
      "stateMutability": "view",
      "type": "function"
    },
    {
      "inputs": [],
      "name": "minterVersion",
      "outputs": [
        {
          "internalType": "string",
          "name": "",
          "type": "string"
        }
      ],
      "stateMutability": "view",
      "type": "function"
    },
    {
      "inputs": [
        {
          "internalType": "uint256",
          "name": "_projectId",
          "type": "uint256"
        },
        {
          "internalType": "address",
          "name": "_coreContract",
          "type": "address"
        }
      ],
      "name": "projectAuctionParameters",
      "outputs": [
        {
          "internalType": "uint64",
          "name": "timestampStart",
          "type": "uint64"
        },
        {
          "internalType": "uint64",
          "name": "priceDecayHalfLifeSeconds",
          "type": "uint64"
        },
        {
          "internalType": "uint128",
          "name": "startPrice",
          "type": "uint128"
        },
        {
          "internalType": "uint128",
          "name": "basePrice",
          "type": "uint128"
        }
      ],
      "stateMutability": "view",
      "type": "function"
    },
    {
      "inputs": [
        {
          "internalType": "uint256",
          "name": "_projectId",
          "type": "uint256"
        },
        {
          "internalType": "address",
          "name": "_coreContract",
          "type": "address"
        }
      ],
      "name": "projectMaxHasBeenInvoked",
      "outputs": [
        {
          "internalType": "bool",
          "name": "",
          "type": "bool"
        }
      ],
      "stateMutability": "view",
      "type": "function"
    },
    {
      "inputs": [
        {
          "internalType": "uint256",
          "name": "_projectId",
          "type": "uint256"
        },
        {
          "internalType": "address",
          "name": "_coreContract",
          "type": "address"
        }
      ],
      "name": "projectMaxInvocations",
      "outputs": [
        {
          "internalType": "uint256",
          "name": "",
          "type": "uint256"
        }
      ],
      "stateMutability": "view",
      "type": "function"
    },
    {
      "inputs": [
        {
          "internalType": "uint256",
          "name": "_projectId",
          "type": "uint256"
        },
        {
          "internalType": "address",
          "name": "_coreContract",
          "type": "address"
        }
      ],
      "name": "purchase",
      "outputs": [
        {
          "internalType": "uint256",
          "name": "tokenId",
          "type": "uint256"
        }
      ],
      "stateMutability": "payable",
      "type": "function"
    },
    {
      "inputs": [
        {
          "internalType": "address",
          "name": "_to",
          "type": "address"
        },
        {
          "internalType": "uint256",
          "name": "_projectId",
          "type": "uint256"
        },
        {
          "internalType": "address",
          "name": "_coreContract",
          "type": "address"
        }
      ],
      "name": "purchaseTo",
      "outputs": [
        {
          "internalType": "uint256",
          "name": "tokenId",
          "type": "uint256"
        }
      ],
      "stateMutability": "payable",
      "type": "function"
    },
    {
      "inputs": [
        {
          "internalType": "uint256",
          "name": "_projectId",
          "type": "uint256"
        },
        {
          "internalType": "address",
          "name": "_coreContract",
          "type": "address"
        }
      ],
      "name": "reclaimProjectExcessSettlementFunds",
      "outputs": [],
      "stateMutability": "nonpayable",
      "type": "function"
    },
    {
      "inputs": [
        {
          "internalType": "address payable",
          "name": "_to",
          "type": "address"
        },
        {
          "internalType": "uint256",
          "name": "_projectId",
          "type": "uint256"
        },
        {
          "internalType": "address",
          "name": "_coreContract",
          "type": "address"
        }
      ],
      "name": "reclaimProjectExcessSettlementFundsTo",
      "outputs": [],
      "stateMutability": "nonpayable",
      "type": "function"
    },
    {
      "inputs": [
        {
          "internalType": "uint256[]",
          "name": "_projectIds",
          "type": "uint256[]"
        },
        {
          "internalType": "address[]",
          "name": "_coreContracts",
          "type": "address[]"
        }
      ],
      "name": "reclaimProjectsExcessSettlementFunds",
      "outputs": [],
      "stateMutability": "nonpayable",
      "type": "function"
    },
    {
      "inputs": [
        {
          "internalType": "address payable",
          "name": "_to",
          "type": "address"
        },
        {
          "internalType": "uint256[]",
          "name": "_projectIds",
          "type": "uint256[]"
        },
        {
          "internalType": "address[]",
          "name": "_coreContracts",
          "type": "address[]"
        }
      ],
      "name": "reclaimProjectsExcessSettlementFundsTo",
      "outputs": [],
      "stateMutability": "nonpayable",
      "type": "function"
    },
    {
      "inputs": [
        {
          "internalType": "uint256",
          "name": "_projectId",
          "type": "uint256"
        },
        {
          "internalType": "address",
          "name": "_coreContract",
          "type": "address"
        }
      ],
      "name": "resetAuctionDetails",
      "outputs": [],
      "stateMutability": "nonpayable",
      "type": "function"
    },
    {
      "inputs": [
        {
          "internalType": "uint256",
          "name": "_projectId",
          "type": "uint256"
        },
        {
          "internalType": "address",
          "name": "_coreContract",
          "type": "address"
        },
        {
          "internalType": "uint64",
          "name": "_auctionTimestampStart",
          "type": "uint64"
        },
        {
          "internalType": "uint64",
          "name": "_priceDecayHalfLifeSeconds",
          "type": "uint64"
        },
        {
          "internalType": "uint128",
          "name": "_startPrice",
          "type": "uint128"
        },
        {
          "internalType": "uint128",
          "name": "_basePrice",
          "type": "uint128"
        }
      ],
      "name": "setAuctionDetails",
      "outputs": [],
      "stateMutability": "nonpayable",
      "type": "function"
    },
    {
      "inputs": [
        {
          "internalType": "uint256",
          "name": "_minimumPriceDecayHalfLifeSeconds",
          "type": "uint256"
        }
      ],
      "name": "setMinimumPriceDecayHalfLifeSeconds",
      "outputs": [],
      "stateMutability": "nonpayable",
      "type": "function"
    },
    {
      "inputs": [
        {
          "internalType": "uint256",
          "name": "_projectId",
          "type": "uint256"
        },
        {
          "internalType": "address",
          "name": "_coreContract",
          "type": "address"
        }
      ],
      "name": "syncProjectMaxInvocationsToCore",
      "outputs": [],
      "stateMutability": "view",
      "type": "function"
    },
    {
      "inputs": [
        {
          "internalType": "uint256",
          "name": "_projectId",
          "type": "uint256"
        },
        {
          "internalType": "address",
          "name": "_coreContract",
          "type": "address"
        }
      ],
      "name": "withdrawArtistAndAdminRevenues",
      "outputs": [],
      "stateMutability": "nonpayable",
      "type": "function"
    }
  ],
  "bytecode": "0x60c0604052602d6001553480156200001657600080fd5b50604051620033f0380380620033f083398101604081905262000039916200008d565b600160008190556001600160a01b038216608081905260a052546040519081527fdae7136b6b1f9f3031d9536e8bdd02f1d223eb793054446ff278143abeafa21b9060200160405180910390a150620000bf565b600060208284031215620000a057600080fd5b81516001600160a01b0381168114620000b857600080fd5b9392505050565b60805160a051613304620000ec60003960006109ad0152600081816104e4015261102801526133046000f3fe6080604052600436106101315760003560e01c806301000da7146101365780632b001e6c1461016b5780633c22f1d0146101995780634869f3df146101bb5780634e8d8787146102055780635418789c1461021857806367e6aad9146102385780636a9f62fc146102585780638fe8a90b146102a257806393cf5b33146102c257806395c575fa146102e25780639a94488a14610302578063ae77c2371461039a578063b000e334146103ad578063b3fe4723146103cd578063c0244587146103ed578063cce7c9091461040d578063cf6681ea1461042d578063d3ddabe614610443578063d9bffbce14610482578063d9eb16db146104a2578063dd85582f146104d2578063e8af2b3b1461051e578063e9d1e8ac1461053e578063fe676d2614610581578063fea1d7b4146105a1575b600080fd5b34801561014257600080fd5b50610156610151366004612a94565b610623565b60405190151581526020015b60405180910390f35b34801561017757600080fd5b5061018b610186366004612ab1565b610664565b604051908152602001610162565b3480156101a557600080fd5b506101b96101b4366004612ae1565b61069f565b005b3480156101c757600080fd5b5061018b6101d6366004612ab1565b6001600160a01b031660009081526006602090815260408083209383529290522054610100900462ffffff1690565b61018b610213366004612ae1565b610833565b34801561022457600080fd5b506101b9610233366004612b3f565b610aae565b34801561024457600080fd5b506101b9610253366004612bc1565b610b86565b34801561026457600080fd5b5061018b610273366004612ab1565b6001600160a01b031660009081526003602090815260408083209383529290522054610100900462ffffff1690565b3480156102ae57600080fd5b506101b96102bd366004612ab1565b610b99565b3480156102ce57600080fd5b506101b96102dd366004612c43565b610ccf565b3480156102ee57600080fd5b506101b96102fd366004612ab1565b610ed4565b34801561030e57600080fd5b5061037861031d366004612ab1565b6040805180820190915260008082526020820152506001600160a01b031660009081526006602090815260408083209383529281529082902082518084019093525460ff811615158352610100900462ffffff169082015290565b6040805182511515815260209283015162ffffff169281019290925201610162565b61018b6103a8366004612ab1565b610f8f565b3480156103b957600080fd5b506101b96103c8366004612cb2565b610f9c565b3480156103d957600080fd5b506101b96103e8366004612cf1565b611023565b3480156103f957600080fd5b506101b9610408366004612d0a565b6110e1565b34801561041957600080fd5b50610156610428366004612ab1565b611336565b34801561043957600080fd5b5061018b60015481565b34801561044f57600080fd5b5061047560405180604001604052806006815260200165076332e302e360d41b81525081565b6040516101629190612ddc565b34801561048e57600080fd5b506101b961049d366004612ab1565b611362565b3480156104ae57600080fd5b506104c26104bd366004612ab1565b6113a7565b6040516101629493929190612def565b3480156104de57600080fd5b506105067f000000000000000000000000000000000000000000000000000000000000000081565b6040516001600160a01b039091168152602001610162565b34801561052a57600080fd5b506101b9610539366004612ab1565b611481565b34801561054a57600080fd5b50610475604051806040016040528060178152602001764d696e7465724441457870536574746c656d656e74563360481b81525081565b34801561058d57600080fd5b5061018b61059c366004612e29565b611490565b3480156105ad57600080fd5b506106136105bc366004612ab1565b6001600160a01b031660009081526005602090815260408083209383529290522080546001909101546001600160401b0380831693600160401b8404909116926001600160801b03600160801b9091048116921690565b6040516101629493929190612e60565b6001600160a01b03811660009081526002602052604081208054610100900460ff1615610654575460ff1692915050565b61065d8361152e565b9392505050565b6001600160a01b0381166000908152600360209081526040808320858452909152902054600160201b90046001600160801b03165b92915050565b6002600054036106ca5760405162461bcd60e51b81526004016106c190612e94565b60405180910390fd5b60026000556001600160a01b0383166106f55760405162461bcd60e51b81526004016106c190612ecb565b6001600160a01b03811660008181526003602090815260408083208684528252808320338452600483528184209484529382528083208684529091528120908061073f8484611666565b91509150600061074e82611711565b84546001600160e81b0319166001600160e81b038216178086556040519192506001600160a01b03881691899133916000805160206132af833981519152916107a691600160e81b90910462ffffff16908790612f02565b60405180910390a46000886001600160a01b03168460405160006040518083038185875af1925050503d80600081146107fb576040519150601f19603f3d011682016040523d82523d6000602084013e610800565b606091505b505080915050806108235760405162461bcd60e51b81526004016106c190612f20565b5050600160005550505050505050565b60006002600054036108575760405162461bcd60e51b81526004016106c190612e94565b600260009081556001600160a01b038316808252600360209081526040808420878552825280842083855260068352818520888652835281852093855260058352818520888652909252909220815460ff16156108c65760405162461bcd60e51b81526004016106c190612f4b565b60006108d384848461177e565b3360009081526004602090815260408083206001600160a01b038b16845282528083208b845290915281209192508061090c83856117c0565b91509150886001600160a01b03168a336001600160a01b03166000805160206132af8339815191528486604051610944929190612f02565b60405180910390a461095584611881565b87546001600160801b0391909116600160201b02600160201b600160a01b03199091161787556040516117cd60e21b81526001600160a01b038c81166004830152602482018c90528a811660448301523360648301527f00000000000000000000000000000000000000000000000000000000000000001690615f34906084016020604051808303816000875af11580156109f4573d6000803e3d6000fd5b505050506040513d601f19601f82011682018060405250810190610a189190612f7c565b9750610a2488876118ea565b865460ff1615610a65576001600160a01b0389166000908152600260205260408120610a51908b90611938565b9050610a5f8b868c8461196a565b50610a9b565b8654610100900462ffffff16876001610a7d83612fab565b91906101000a81548162ffffff021916908362ffffff160217905550505b5050505050505060016000559392505050565b610ac18233306315061e2760e21b611a21565b6001600160a01b0382166000818152600360209081526040808320878452825280832084845260068352818420888552835281842094845260058352818420888552909252909120909190610b1a868686868686611a76565b604080517263757272656e74536574746c6564507269636560681b81526001600160801b03861660208201526001600160a01b0387169188917f1809fd1f08e6b0df08fd848757688435a0ab8520a51dcca23eba5a3c7f7280d6910160405180910390a3505050505050565b610b9333858585856110e1565b50505050565b600260005403610bbb5760405162461bcd60e51b81526004016106c190612e94565b6002600055610bd4828233306315061e2760e21b611c2b565b6001600160a01b03811660008181526003602090815260408083208684528252808320848452600683528184208785528352818420948452600583528184208785529092528220909291610c2b8686868686611c9b565b6001600160a01b038616600090815260026020526040812091925090610c52908790611938565b9050610c6087838884611e21565b6040805177185d58dd1a5bdb94995d995b9d595cd0dbdb1b1958dd195960421b8152600160208201526001600160a01b0388169189917fbb5f9d4f49f83650956b76c40de0f082a06430bf0222e1b6b3f90a7a0f845c4d910160405180910390a3505060016000555050505050565b610cda8686336121ec565b6001600160a01b03851660008181526005602090815260408083208a84528252808320938352600382528083208a84529091529020610d226001600160801b03851682612236565b610d6e5760405162461bcd60e51b815260206004820152601f60248201527f4f6e6c79206d6f6e6f746f6e69632064656372656173696e672070726963650060448201526064016106c1565b6000836001600160801b031611610dc55760405162461bcd60e51b815260206004820152601b60248201527a42617365207072696365206d757374206265206e6f6e2d7a65726f60281b60448201526064016106c1565b600154856001600160401b03161015610e465760405162461bcd60e51b815260206004820152603e60248201527f50726963652064656361792068616c66206c696665206d75737420626520677260448201527f6561746572207468616e206d696e20616c6c6f7761626c652076616c7565000060648201526084016106c1565b610e538287878787612269565b866001600160a01b0316887f58d87356fdb0a6c5e086484f71655e29a72e1f25c97e5beca2d017f5975137d288888888604051610e939493929190612e60565b60405180910390a36001600160a01b03871660009081526006602090815260408083208b84529091529020610ec98989836123fd565b505050505050505050565b610ee7813330634ae2bafd60e11b611a21565b6001600160a01b03811660009081526003602090815260408083208584529091529020805460ff1615610f2c5760405162461bcd60e51b81526004016106c190612fcd565b6001600160a01b038216600081815260056020908152604080832087845290915280822082815560010180546001600160801b03191690555185917f865169678476a498ca03f184818d6bd6217dd57b754577a944c19d6d75587c8091a3505050565b600061065d338484610833565b610fa78383336121ec565b6001600160a01b03821660009081526006602090815260408083208684529091529020610fd99084908490849061243f565b60405162ffffff821681526001600160a01b0383169084907f1c3e74a6c6fefbaeee166b031cd2016349c6c863d5188b67c9bbd0b0dcb2e2379060200160405180910390a3505050565b6110567f0000000000000000000000000000000000000000000000000000000000000000333063b3fe472360e01b6124c6565b600081116110a65760405162461bcd60e51b815260206004820152601d60248201527f48616c66206c696665206f66207a65726f206e6f7420616c6c6f77656400000060448201526064016106c1565b60018190556040518181527fdae7136b6b1f9f3031d9536e8bdd02f1d223eb793054446ff278143abeafa21b9060200160405180910390a150565b6002600054036111035760405162461bcd60e51b81526004016106c190612e94565b60026000556001600160a01b03851661112e5760405162461bcd60e51b81526004016106c190612ecb565b828181146111795760405162461bcd60e51b8152602060048201526018602482015277082e4e4c2f240d8cadccee8d0e640daeae6e840dac2e8c6d60431b60448201526064016106c1565b6000805b828110156112b157600087878381811061119957611199613004565b90506020020135905060008686848181106111b6576111b6613004565b90506020020160208101906111cb9190612a94565b6001600160a01b038116600081815260036020908152604080832087845282528083203384526004835281842094845293825280832087845290915281209293509091908061121a8484611666565b91509150600061122982611711565b84546001600160e81b0319166001600160e81b038216178555905061124e838a61301a565b9850856001600160a01b031687336001600160a01b03166000805160206132af83398151915287600001601d9054906101000a900462ffffff1685604051611297929190612f02565b60405180910390a48760010197505050505050505061117d565b506000876001600160a01b03168260405160006040518083038185875af1925050503d80600081146112ff576040519150601f19603f3d011682016040523d82523d6000602084013e611304565b606091505b505080915050806113275760405162461bcd60e51b81526004016106c190612f20565b50506001600055505050505050565b6001600160a01b038116600090815260066020908152604080832085845290915281205460ff1661065d565b61136d8282336121ec565b60405162461bcd60e51b815260206004820152600f60248201526e139bdd081a5b5c1b195b595b9d1959608a1b60448201526064016106c1565b6001600160a01b038116600081815260036020908152604080832086845282528083208484526006835281842087855283528184209484526005835281842087855290925282208054600160801b90046001600160801b03161515936060928492909190866114195760009550611453565b80546001600160401b03164211611443578054600160801b90046001600160801b03169550611453565b611450898985858561251b565b95505b6040518060400160405280600381526020016208aa8960eb1b81525094506000935050505092959194509250565b61148c33838361069f565b5050565b60006001600160a01b0382166114da5760405162461bcd60e51b815260206004820152600f60248201526e4e6f207a65726f206164647265737360881b60448201526064016106c1565b6001600160a01b03808416600081815260036020908152604080832089845282528083209487168352600482528083209383529281528282208883529052206115238282611666565b509695505050505050565b6040516000602482018190526044820181905290819060640160408051601f198184030181529181526020820180516001600160e01b0316638639415b60e01b1790525190915060009081906001600160a01b0386169061159090859061302d565b600060405180830381855afa9150503d80600081146115cb576040519150601f19603f3d011682016040523d82523d6000602084013e6115d0565b606091505b5091509150816115f25760405162461bcd60e51b81526004016106c190613049565b805160c08190036116095750600095945050505050565b806101000361161e5750600195945050505050565b60405162461bcd60e51b815260206004820152601e60248201527f556e657870656374656420726576656e75652073706c6974206279746573000060448201526064016106c1565b80546000908190600160e81b900462ffffff16806116d05760405162461bcd60e51b815260206004820152602160248201527f4e6f20707572636861736573206d6164652062792074686973206164647265736044820152607360f81b60648201526084016106c1565b8454600160201b90046001600160801b03166116ec818361308e565b85549093506117059084906001600160e81b03166130a5565b935050505b9250929050565b60006001600160e81b0382111561177a5760405162461bcd60e51b815260206004820152602760248201527f53616665436173743a2076616c756520646f65736e27742066697420696e20326044820152663332206269747360c81b60648201526084016106c1565b5090565b815460009060ff16806117925750835460ff165b156117af57508254600160201b90046001600160801b031661065d565b6117b88261255a565b949350505050565b815460009081906117e4906117df9034906001600160e81b031661301a565b611711565b845490925061180090600160e81b900462ffffff1660016130b8565b90506118118362ffffff831661308e565b826001600160e81b031610156118625760405162461bcd60e51b815260206004820152601660248201527526b4b7103b30b63ab2903a379036b4b73a103932b89760511b60448201526064016106c1565b62ffffff8116600160e81b026001600160e81b03831617909355929050565b60006001600160801b0382111561177a5760405162461bcd60e51b815260206004820152602760248201527f53616665436173743a2076616c756520646f65736e27742066697420696e20316044820152663238206269747360c81b60648201526084016106c1565b8054620f4240830660010190610100900462ffffff16808211156119205760405162461bcd60e51b81526004016106c190612f4b565b808203610b9357825460ff1916600117835550505050565b8054600090610100900460ff16156119555750805460ff16610699565b60006119618484612694565b91506106999050565b3415610b935760008061197d85346130a5565b90508015611a0d5760405133908290600081818185875af1925050503d80600081146119c5576040519150601f19603f3d011682016040523d82523d6000602084013e6119ca565b606091505b50508092505081611a0d5760405162461bcd60e51b815260206004820152600d60248201526c1499599d5b990819985a5b1959609a1b60448201526064016106c1565b611a1986868686611e21565b505050505050565b611a2d848484846127a4565b610b935760405162461bcd60e51b815260206004820152601a60248201527913db9b1e4810dbdc994810591b5a5b9050d308185b1b1bddd95960321b60448201526064016106c1565b825460ff1615611a985760405162461bcd60e51b81526004016106c190612fcd565b611aa38686846123fd565b60018101546001600160801b039081169085161015611afa5760405162461bcd60e51b81526020600482015260136024820152724f6e6c7920677465206261736520707269636560681b60448201526064016106c1565b815460ff16611b465760405162461bcd60e51b815260206004820152601860248201527741756374696f6e206d75737420626520636f6d706c65746560401b60448201526064016106c1565b82546001600160801b03600160201b909104811690851610611baa5760405162461bcd60e51b815260206004820152601d60248201527f4d6179206f6e6c79207265647563652073656c6c6f757420707269636500000060448201526064016106c1565b6000846001600160801b031611611bfd5760405162461bcd60e51b815260206004820152601760248201527604f6e6c792073656c6c6f757420707269636573203e203604c1b60448201526064016106c1565b505080546001600160801b03909216600160201b02600160201b600160a01b03199092169190911790555050565b611c3685858561282c565b80611c485750611c48848484846127a4565b611c945760405162461bcd60e51b815260206004820152601d60248201527f4f6e6c7920417274697374206f7220436f72652041646d696e2041434c00000060448201526064016106c1565b5050505050565b825460009060ff1615611ced5760405162461bcd60e51b815260206004820152601a60248201527914995d995b9d595cc8185b1c9958591e4818dbdb1b1958dd195960321b60448201526064016106c1565b611cf88686856123fd565b6000611d0585858561177e565b60018401549091506001600160801b03168114611d7257835460ff16611d6d5760405162461bcd60e51b815260206004820152601f60248201527f4163746976652061756374696f6e206e6f742079657420736f6c64206f75740060448201526064016106c1565b611df2565b60018301546001600160801b031680611dcc5760405162461bcd60e51b815260206004820152601c60248201527b04f6e6c79206c617465737450757263686173655072696365203e20360241b60448201526064016106c1565b85546001600160801b03909116600160201b02600160201b600160a01b03199091161785555b845460ff1916600117808655611e1490829062ffffff6101009091041661308e565b9150505b95945050505050565b8215610b935760008060008060008060008715611f7257604051638639415b60e01b8152600481018c9052602481018b905260009081906001600160a01b038c1690638639415b9060440161010060405180830381865afa158015611e8a573d6000803e3d6000fd5b505050506040513d601f19601f82011682018060405250810190611eae91906130f1565b969e50949c50909a50985091965091945090925090508115611f6b576040516001600160a01b038216908390600081818185875af1925050503d8060008114611f13576040519150601f19603f3d011682016040523d82523d6000602084013e611f18565b606091505b50508099505088611f6b5760405162461bcd60e51b815260206004820181905260248201527f506c6174666f726d2050726f7669646572207061796d656e74206661696c656460448201526064016106c1565b5050611ff2565b604051638639415b60e01b8152600481018c9052602481018b90526001600160a01b038a1690638639415b9060440160c060405180830381865afa158015611fbe573d6000803e3d6000fd5b505050506040513d601f19601f82011682018060405250810190611fe29190613179565b949a509298509096509450925090505b8515612099576040516001600160a01b038616908790600081818185875af1925050503d8060008114612041576040519150601f19603f3d011682016040523d82523d6000602084013e612046565b606091505b505080975050866120995760405162461bcd60e51b815260206004820152601e60248201527f52656e6465722050726f7669646572207061796d656e74206661696c6564000060448201526064016106c1565b8315612138576040516001600160a01b038416908590600081818185875af1925050503d80600081146120e8576040519150601f19603f3d011682016040523d82523d6000602084013e6120ed565b606091505b505080975050866121385760405162461bcd60e51b8152602060048201526015602482015274105c9d1a5cdd081c185e5b595b9d0819985a5b1959605a1b60448201526064016106c1565b81156121df576040516001600160a01b038216908390600081818185875af1925050503d8060008114612187576040519150601f19603f3d011682016040523d82523d6000602084013e61218c565b606091505b505080975050866121df5760405162461bcd60e51b815260206004820152601f60248201527f4164646974696f6e616c205061796565207061796d656e74206661696c65640060448201526064016106c1565b5050505050505050505050565b6121f783838361282c565b6122315760405162461bcd60e51b815260206004820152600b60248201526a13db9b1e48105c9d1a5cdd60aa1b60448201526064016106c1565b505050565b8054600090600160201b90046001600160801b0316158061065d57505054600160201b90046001600160801b0316101590565b84546001600160401b03161580612289575084546001600160401b031642105b6122d45760405162461bcd60e51b815260206004820152601c60248201527b27379036b7b234b334b1b0ba34b7b7399036b4b216b0bab1ba34b7b760211b60448201526064016106c1565b836001600160401b031642106123235760405162461bcd60e51b81526020600482015260146024820152734f6e6c79206675747572652061756374696f6e7360601b60448201526064016106c1565b806001600160801b0316826001600160801b0316116123a75760405162461bcd60e51b815260206004820152603a60248201527f41756374696f6e207374617274207072696365206d7573742062652067726561604482015279746572207468616e2061756374696f6e20656e6420707269636560301b60648201526084016106c1565b84546001600160801b03928316600160801b026001600160401b03948516600160401b026001600160801b0319928316959096169490941794909417821692909217845560019093018054919093169116179055565b8054600090610100900462ffffff1615801561241b5750815460ff16155b905080156124345761242e8484846128b5565b50610b93565b610b9384848461295a565b60008061244c86866129c0565b91509150808462ffffff1611156124755760405162461bcd60e51b81526004016106c1906131e2565b818462ffffff16101561249a5760405162461bcd60e51b81526004016106c1906131e2565b50815460ff1962ffffff90941661010081029490941663ffffffff199091161792149190911790555050565b6124d2848484846127a4565b610b935760405162461bcd60e51b815260206004820152601a60248201527913db9b1e48135a5b9d195c919a5b1d195c8810591b5a5b9050d360321b60448201526064016106c1565b6000612528868685612a3e565b1561254557508254600160201b90046001600160801b0316611e18565b61255084848461177e565b9695505050505050565b805460018201546000916001600160401b0380821692600160401b90920416906001600160801b03164283106125cc5760405162461bcd60e51b8152602060048201526017602482015276105d58dd1a5bdb881b9bdd081e595d081cdd185c9d1959604a1b60448201526064016106c1565b600082116126175760405162461bcd60e51b81526020600482015260186024820152774f6e6c7920636f6e666967757265642061756374696f6e7360401b60448201526064016106c1565b8454600160801b90046001600160801b03164284900383818161263c5761263c6130db565b0482901c9150600284858381612654576126546130db565b06840281612664576126646130db565b0481612672576126726130db565b04820391508282101561268a57509095945050505050565b5095945050505050565b6040516000602482018190526044820181905290819060640160408051601f198184030181529181526020820180516001600160e01b0316638639415b60e01b1790525190915060009081906001600160a01b038716906126f690859061302d565b6000604051808303816000865af19150503d8060008114612733576040519150601f19603f3d011682016040523d82523d6000602084013e612738565b606091505b50915091508161275a5760405162461bcd60e51b81526004016106c190613049565b805160c0819003612780575050835461ffff191661010017845550600091506106999050565b806101000361161e575050835461ffff191661010117845550600191506106999050565b60405163230448b160e01b81526001600160a01b03848116600483015283811660248301526001600160e01b0319831660448301526000919086169063230448b1906064016020604051808303816000875af1158015612808573d6000803e3d6000fd5b505050506040513d601f19601f82011682018060405250810190611e189190613223565b60405163a47d29cb60e01b8152600481018490526000906001600160a01b0384169063a47d29cb90602401602060405180830381865afa158015612874573d6000803e3d6000fd5b505050506040513d601f19601f82011682018060405250810190612898919061323e565b6001600160a01b0316826001600160a01b03161490509392505050565b6000806000846001600160a01b0316630ea5613f876040518263ffffffff1660e01b81526004016128e891815260200190565b60c060405180830381865afa158015612905573d6000803e3d6000fd5b505050506040513d601f19601f82011682018060405250810190612929919061325b565b5050875493831463ffffffff1990941661010062ffffff85160260ff19161793909317909655979650505050505050565b60008061296785856129c0565b8454909350909150610100900462ffffff16828111156129a657835460ff1962ffffff8516610100021663ffffffff1990911617828414178455611a19565b808210611a1957835460ff19166001178455505050505050565b604051630ea5613f60e01b81526004810183905260009081906001600160a01b03841690630ea5613f9060240160c060405180830381865afa158015612a0a573d6000803e3d6000fd5b505050506040513d601f19601f82011682018060405250810190612a2e919061325b565b5093989297509195505050505050565b6000806000612a4d86866129c0565b85549193509150610100900462ffffff1681811115612a6f575014905061065d565b9091101595945050505050565b6001600160a01b0381168114612a9157600080fd5b50565b600060208284031215612aa657600080fd5b813561065d81612a7c565b60008060408385031215612ac457600080fd5b823591506020830135612ad681612a7c565b809150509250929050565b600080600060608486031215612af657600080fd5b8335612b0181612a7c565b9250602084013591506040840135612b1881612a7c565b809150509250925092565b80356001600160801b0381168114612b3a57600080fd5b919050565b600080600060608486031215612b5457600080fd5b833592506020840135612b6681612a7c565b9150612b7460408501612b23565b90509250925092565b60008083601f840112612b8f57600080fd5b5081356001600160401b03811115612ba657600080fd5b6020830191508360208260051b850101111561170a57600080fd5b60008060008060408587031215612bd757600080fd5b84356001600160401b0380821115612bee57600080fd5b612bfa88838901612b7d565b90965094506020870135915080821115612c1357600080fd5b50612c2087828801612b7d565b95989497509550505050565b80356001600160401b0381168114612b3a57600080fd5b60008060008060008060c08789031215612c5c57600080fd5b863595506020870135612c6e81612a7c565b9450612c7c60408801612c2c565b9350612c8a60608801612c2c565b9250612c9860808801612b23565b9150612ca660a08801612b23565b90509295509295509295565b600080600060608486031215612cc757600080fd5b833592506020840135612cd981612a7c565b9150604084013562ffffff81168114612b1857600080fd5b600060208284031215612d0357600080fd5b5035919050565b600080600080600060608688031215612d2257600080fd5b8535612d2d81612a7c565b945060208601356001600160401b0380821115612d4957600080fd5b612d5589838a01612b7d565b90965094506040880135915080821115612d6e57600080fd5b50612d7b88828901612b7d565b969995985093965092949392505050565b60005b83811015612da7578181015183820152602001612d8f565b50506000910152565b60008151808452612dc8816020860160208601612d8c565b601f01601f19169290920160200192915050565b60208152600061065d6020830184612db0565b8415158152836020820152608060408201526000612e106080830185612db0565b905060018060a01b038316606083015295945050505050565b600080600060608486031215612e3e57600080fd5b833592506020840135612e5081612a7c565b91506040840135612b1881612a7c565b6001600160401b0394851681529290931660208301526001600160801b039081166040830152909116606082015260800190565b6020808252601f908201527f5265656e7472616e637947756172643a207265656e7472616e742063616c6c00604082015260600190565b6020808252601f908201527f4e6f20636c61696d696e6720746f20746865207a65726f206164647265737300604082015260600190565b62ffffff9290921682526001600160e81b0316602082015260400190565b602080825260119082015270149958db185a5b5a5b99c819985a5b1959607a1b604082015260600190565b60208082526017908201527613585e081a5b9d9bd8d85d1a5bdb9cc81c995858da1959604a1b604082015260600190565b600060208284031215612f8e57600080fd5b5051919050565b634e487b7160e01b600052601160045260246000fd5b600062ffffff808316818103612fc357612fc3612f95565b6001019392505050565b6020808252601e908201527f4f6e6c79206265666f726520726576656e75657320636f6c6c65637465640000604082015260600190565b634e487b7160e01b600052603260045260246000fd5b8082018082111561069957610699612f95565b6000825161303f818460208701612d8c565b9190910192915050565b60208082526025908201527f6765745072696d617279526576656e756553706c69747328292063616c6c2066604082015264185a5b195960da1b606082015260800190565b808202811582820484141761069957610699612f95565b8181038181111561069957610699612f95565b62ffffff8181168382160190808211156130d4576130d4612f95565b5092915050565b634e487b7160e01b600052601260045260246000fd5b600080600080600080600080610100898b03121561310e57600080fd5b88519750602089015161312081612a7c565b60408a015160608b0151919850965061313881612a7c565b60808a015160a08b0151919650945061315081612a7c565b60c08a015160e08b0151919450925061316881612a7c565b809150509295985092959890939650565b60008060008060008060c0878903121561319257600080fd5b8651955060208701516131a481612a7c565b6040880151606089015191965094506131bc81612a7c565b608088015160a089015191945092506131d481612a7c565b809150509295509295509295565b602080825260179082015276496e76616c6964206d617820696e766f636174696f6e7360481b604082015260600190565b80518015158114612b3a57600080fd5b60006020828403121561323557600080fd5b61065d82613213565b60006020828403121561325057600080fd5b815161065d81612a7c565b60008060008060008060c0878903121561327457600080fd5b865195506020870151945061328b60408801613213565b935061329960608801613213565b925060808701519150612ca660a0880161321356fee51ee08a882035e8ff2ed3c7edc8c983056fb6ab38d0b69e7a321209ddfc41d5a2646970667358221220fda5da4894799c710a0e25b8e90837dd98031aa0d9ba79412c2a6646a26819d564736f6c63430008130033",
  "linkReferences": {},
  "deployedLinkReferences": {}
}