{
  "_format": "hh-sol-artifact-1",
  "contractName": "MinterSlidingScaleV0",
  "sourceName": "contracts/minter-suite/Minters/MinterSlidingScaleV0.sol",
  "abi": [
    {
      "inputs": [
        {
          "internalType": "address",
          "name": "minterFilter",
          "type": "address"
        }
      ],
      "stateMutability": "nonpayable",
      "type": "constructor"
    },
    {
      "anonymous": false,
      "inputs": [
        {
          "indexed": true,
          "internalType": "address",
          "name": "coreContract",
          "type": "address"
        },
        {
          "indexed": true,
          "internalType": "uint256",
          "name": "tokenId",
          "type": "uint256"
        },
        {
          "indexed": false,
          "internalType": "uint256",
          "name": "pricePaid",
          "type": "uint256"
        }
      ],
      "name": "TokenPricePaid",
      "type": "event"
    },
    {
      "inputs": [
        {
          "internalType": "uint256",
          "name": "projectId",
          "type": "uint256"
        },
        {
          "internalType": "address",
          "name": "coreContract",
          "type": "address"
        }
      ],
      "name": "getPriceInfo",
      "outputs": [
        {
          "internalType": "bool",
          "name": "isConfigured",
          "type": "bool"
        },
        {
          "internalType": "uint256",
          "name": "tokenPriceInWei",
          "type": "uint256"
        },
        {
          "internalType": "string",
          "name": "currencySymbol",
          "type": "string"
        },
        {
          "internalType": "address",
          "name": "currencyAddress",
          "type": "address"
        }
      ],
      "stateMutability": "view",
      "type": "function"
    },
    {
      "inputs": [
        {
          "internalType": "address",
          "name": "coreContract",
          "type": "address"
        },
        {
          "internalType": "uint256",
          "name": "tokenId",
          "type": "uint256"
        }
      ],
      "name": "getTokenPricePaid",
      "outputs": [
        {
          "internalType": "uint256",
          "name": "pricePaidInWei",
          "type": "uint256"
        }
      ],
      "stateMutability": "view",
      "type": "function"
    },
    {
      "inputs": [
        {
          "internalType": "address",
          "name": "coreContract",
          "type": "address"
        }
      ],
      "name": "isEngineView",
      "outputs": [
        {
          "internalType": "bool",
          "name": "",
          "type": "bool"
        }
      ],
      "stateMutability": "view",
      "type": "function"
    },
    {
      "inputs": [
        {
          "internalType": "uint256",
          "name": "projectId",
          "type": "uint256"
        },
        {
          "internalType": "address",
          "name": "coreContract",
          "type": "address"
        },
        {
          "internalType": "uint24",
          "name": "maxInvocations",
          "type": "uint24"
        }
      ],
      "name": "manuallyLimitProjectMaxInvocations",
      "outputs": [],
      "stateMutability": "nonpayable",
      "type": "function"
    },
    {
      "inputs": [
        {
          "internalType": "uint256",
          "name": "projectId",
          "type": "uint256"
        },
        {
          "internalType": "address",
          "name": "coreContract",
          "type": "address"
        }
      ],
      "name": "maxInvocationsProjectConfig",
      "outputs": [
        {
          "components": [
            {
              "internalType": "bool",
              "name": "maxHasBeenInvoked",
              "type": "bool"
            },
            {
              "internalType": "uint24",
              "name": "maxInvocations",
              "type": "uint24"
            }
          ],
          "internalType": "struct MaxInvocationsLib.MaxInvocationsProjectConfig",
          "name": "",
          "type": "tuple"
        }
      ],
      "stateMutability": "view",
      "type": "function"
    },
    {
      "inputs": [],
      "name": "minterFilterAddress",
      "outputs": [
        {
          "internalType": "address",
          "name": "",
          "type": "address"
        }
      ],
      "stateMutability": "view",
      "type": "function"
    },
    {
      "inputs": [],
      "name": "minterType",
      "outputs": [
        {
          "internalType": "string",
          "name": "",
          "type": "string"
        }
      ],
      "stateMutability": "view",
      "type": "function"
    },
    {
      "inputs": [],
      "name": "minterVersion",
      "outputs": [
        {
          "internalType": "string",
          "name": "",
          "type": "string"
        }
      ],
      "stateMutability": "view",
      "type": "function"
    },
    {
      "inputs": [
        {
          "internalType": "uint256",
          "name": "projectId",
          "type": "uint256"
        },
        {
          "internalType": "address",
          "name": "coreContract",
          "type": "address"
        }
      ],
      "name": "projectMaxHasBeenInvoked",
      "outputs": [
        {
          "internalType": "bool",
          "name": "",
          "type": "bool"
        }
      ],
      "stateMutability": "view",
      "type": "function"
    },
    {
      "inputs": [
        {
          "internalType": "uint256",
          "name": "projectId",
          "type": "uint256"
        },
        {
          "internalType": "address",
          "name": "coreContract",
          "type": "address"
        }
      ],
      "name": "projectMaxInvocations",
      "outputs": [
        {
          "internalType": "uint256",
          "name": "",
          "type": "uint256"
        }
      ],
      "stateMutability": "view",
      "type": "function"
    },
    {
      "inputs": [
        {
          "internalType": "uint256",
          "name": "projectId",
          "type": "uint256"
        },
        {
          "internalType": "address",
          "name": "coreContract",
          "type": "address"
        }
      ],
      "name": "purchase",
      "outputs": [
        {
          "internalType": "uint256",
          "name": "tokenId",
          "type": "uint256"
        }
      ],
      "stateMutability": "payable",
      "type": "function"
    },
    {
      "inputs": [
        {
          "internalType": "address",
          "name": "to",
          "type": "address"
        },
        {
          "internalType": "uint256",
          "name": "projectId",
          "type": "uint256"
        },
        {
          "internalType": "address",
          "name": "coreContract",
          "type": "address"
        }
      ],
      "name": "purchaseTo",
      "outputs": [
        {
          "internalType": "uint256",
          "name": "tokenId",
          "type": "uint256"
        }
      ],
      "stateMutability": "payable",
      "type": "function"
    },
    {
      "inputs": [
        {
          "internalType": "uint256",
          "name": "projectId",
          "type": "uint256"
        },
        {
          "internalType": "address",
          "name": "coreContract",
          "type": "address"
        }
      ],
      "name": "setPriceProjectConfig",
      "outputs": [
        {
          "components": [
            {
              "internalType": "uint248",
              "name": "pricePerToken",
              "type": "uint248"
            },
            {
              "internalType": "bool",
              "name": "priceIsConfigured",
              "type": "bool"
            }
          ],
          "internalType": "struct SetPriceLib.SetPriceProjectConfig",
          "name": "",
          "type": "tuple"
        }
      ],
      "stateMutability": "view",
      "type": "function"
    },
    {
      "inputs": [
        {
          "internalType": "uint256",
          "name": "projectId",
          "type": "uint256"
        },
        {
          "internalType": "address",
          "name": "coreContract",
          "type": "address"
        }
      ],
      "name": "syncProjectMaxInvocationsToCore",
      "outputs": [],
      "stateMutability": "nonpayable",
      "type": "function"
    },
    {
      "inputs": [
        {
          "internalType": "uint256",
          "name": "projectId",
          "type": "uint256"
        },
        {
          "internalType": "address",
          "name": "coreContract",
          "type": "address"
        },
        {
          "internalType": "uint248",
          "name": "pricePerTokenInWei",
          "type": "uint248"
        }
      ],
      "name": "updatePricePerTokenInWei",
      "outputs": [],
      "stateMutability": "nonpayable",
      "type": "function"
    }
  ],
  "bytecode": "0x60c060405234801561001057600080fd5b5060405161184238038061184283398101604081905261002f9161004a565b60016000556001600160a01b0316608081905260a05261007a565b60006020828403121561005c57600080fd5b81516001600160a01b038116811461007357600080fd5b9392505050565b60805160a0516117a361009f60003960006104dc015260006102f101526117a36000f3fe6080604052600436106100b85760003560e01c806301000da7146100bd5780630edb4584146100f25780634869f3df146101205780634e8d8787146101405780637e947f24146101535780639a94488a146101755780639b24c3c0146101b7578063ae77c237146101fd578063b000e33414610210578063cce7c90914610230578063d3ddabe614610250578063d9bffbce1461028f578063d9eb16db146102af578063dd85582f146102df578063e9d1e8ac1461032b575b600080fd5b3480156100c957600080fd5b506100dd6100d8366004611337565b61036b565b60405190151581526020015b60405180910390f35b3480156100fe57600080fd5b5061011261010d366004611354565b6103a3565b6040519081526020016100e9565b34801561012c57600080fd5b5061011261013b366004611380565b6103ce565b61011261014e3660046113b0565b6103da565b34801561015f57600080fd5b5061017361016e3660046113f2565b6105c7565b005b34801561018157600080fd5b50610195610190366004611380565b610604565b6040805182511515815260209283015162ffffff1692810192909252016100e9565b3480156101c357600080fd5b506101d76101d2366004611380565b61064c565b6040805182516001600160f81b03168152602092830151151592810192909252016100e9565b61011261020b366004611380565b61069a565b34801561021c57600080fd5b5061017361022b366004611435565b6106a7565b34801561023c57600080fd5b506100dd61024b366004611380565b6106bd565b34801561025c57600080fd5b5061028260405180604001604052806006815260200165076302e302e360d41b81525081565b6040516100e991906114c4565b34801561029b57600080fd5b506101736102aa366004611380565b6106c9565b3480156102bb57600080fd5b506102cf6102ca366004611380565b6106e2565b6040516100e994939291906114d7565b3480156102eb57600080fd5b506103137f000000000000000000000000000000000000000000000000000000000000000081565b6040516001600160a01b0390911681526020016100e9565b34801561033757600080fd5b506102826040518060400160405280601481526020017304d696e746572536c6964696e675363616c6556360641b81525081565b60008061037783610734565b8054909150610100900460ff1615610393575460ff1692915050565b61039c8361076d565b9392505050565b6001600160a01b03821660009081526001602090815260408083208484529091529020545b92915050565b600061039c83836108e3565b60006002600054036104335760405162461bcd60e51b815260206004820152601f60248201527f5265656e7472616e637947756172643a207265656e7472616e742063616c6c0060448201526064015b60405180910390fd5b60026000556104428383610903565b600061044e8484610934565b9050803410156104aa5760405162461bcd60e51b815260206004820152602160248201527f4d7573742073656e642076616c756520677465206d696e696d756d20707269636044820152606560f81b606482015260840161042a565b6040516117cd60e21b81526001600160a01b0386811660048301526024820186905284811660448301523360648301527f00000000000000000000000000000000000000000000000000000000000000001690615f34906084016020604051808303816000875af1158015610523573d6000803e3d6000fd5b505050506040513d601f19601f820116820180604052508101906105479190611511565b915061055382846109a4565b6001600160a01b0383166000818152600160209081526040808320868452825291829020349081905591519182528492917f8102c3544da7dcde3beb046a3eb30020199b0f14ae78d5b53c987bec18eb748a910160405180910390a36105ba843485610a11565b5060016000559392505050565b6105d2838333610bd2565b6105e68383836001600160f81b0316610c17565b6105f08383610c76565b156105ff576105ff8383610ca9565b505050565b60408051808201909152600080825260208201526106228383610d44565b60408051808201909152905460ff811615158252610100900462ffffff1660208201529392505050565b604080518082019091526000808252602082015261066a8383610d8f565b6040805180820190915290546001600160f81b0381168252600160f81b900460ff16151560208201529392505050565b600061039c3384846103da565b6106b2838333610bd2565b6105ff838383610db6565b600061039c8383610e8c565b6106d4828233610bd2565b6106de8282610ca9565b5050565b60008060606000806106f48787610d8f565b5460408051808201909152600381526208aa8960eb1b602082015260ff600160f81b830416996001600160f81b0390921698509650600095509350505050565b6001600160a01b031660009081527f69f22dd730b53ff235fa96b4306a31bef5dad48fe4bac28b1ceebbce14401b396020526040902090565b6040516000602482018190526044820181905290819060640160408051601f198184030181529181526020820180516001600160e01b0316638639415b60e01b1790525190915060009081906001600160a01b038616906107cf90859061152a565b600060405180830381855afa9150503d806000811461080a576040519150601f19603f3d011682016040523d82523d6000602084013e61080f565b606091505b50915091508161086f5760405162461bcd60e51b815260206004820152602560248201527f6765745072696d617279526576656e756553706c69747328292063616c6c2066604482015264185a5b195960da1b606482015260840161042a565b805160c08190036108865750600095945050505050565b806101000361089b5750600195945050505050565b60405162461bcd60e51b815260206004820152601e60248201527f556e657870656374656420726576656e75652073706c69742062797465730000604482015260640161042a565b6000806108f08484610d44565b54610100900462ffffff16949350505050565b600061090f8383610d44565b805490915060ff16156105ff5760405162461bcd60e51b815260040161042a90611546565b6000806109418484610d8f565b8054909150600160f81b900460ff166109935760405162461bcd60e51b8152602060048201526014602482015273141c9a58d9481b9bdd0818dbdb999a59dd5c995960621b604482015260640161042a565b546001600160f81b03169392505050565b60006109af83610ea5565b905060006109bd8284610d44565b8054909150620f4240850660010190610100900462ffffff16808211156109f65760405162461bcd60e51b815260040161042a90611546565b808203610a0957825460ff191660011783555b505050505050565b81600003610a1e57505050565b6000610a2982610eb4565b90506000806000806000806000808815610ac757604051638639415b60e01b8152600481018d9052602481018c90526001600160a01b038b1690638639415b9060440161010060405180830381865afa158015610a8a573d6000803e3d6000fd5b505050506040513d601f19601f82011682018060405250810190610aae9190611577565b969e50949c50929a509098509650945092509050610b47565b604051638639415b60e01b8152600481018d9052602481018c90526001600160a01b038b1690638639415b9060440160c060405180830381865afa158015610b13573d6000803e3d6000fd5b505050506040513d601f19601f82011682018060405250810190610b3791906115ff565b949c50929a509096509450925090505b8a8285610b54898c611668565b610b5e9190611668565b610b689190611668565b14610bb45760405162461bcd60e51b815260206004820152601c60248201527b496e76616c696420726576656e75652073706c697420746f74616c7360201b604482015260640161042a565b610bc486868a8a88888888610f02565b505050505050505050505050565b610bdd8383836111b0565b6105ff5760405162461bcd60e51b815260206004820152600b60248201526a13db9b1e48105c9d1a5cdd60aa1b604482015260640161042a565b6000610c238484610d8f565b600160f81b6001600160f81b03841617815560405190915082906001600160a01b0385169086907f98e99eae7ab1c56b5b882e049df69b522affbaa1a93afd3be411447a1606027890600090a450505050565b600080610c838484610d44565b8054909150610100900462ffffff16158015610ca15750805460ff16155b949350505050565b600080610cb68484611239565b915091506000610cc68585610d44565b9050610cd1826112b7565b815460ff1962ffffff92909216610100029190911663ffffffff19909116178383141781556040516001600160a01b0385169086907f1c3e74a6c6fefbaeee166b031cd2016349c6c863d5188b67c9bbd0b0dcb2e23790610d359086815260200190565b60405180910390a35050505050565b60007f73e3af67f35f30fb72bbaaf6cc07b987364ed643c93ba201702e213464e877ee5b6001600160a01b039290921660009081526020928352604080822094825293909252502090565b60007efc986db700c71340c673de619c46ee721167fc4ea17804bb535c4c196aa7d7610d68565b600080610dc38585611239565b91509150808362ffffff161115610dec5760405162461bcd60e51b815260040161042a90611689565b818362ffffff161015610e115760405162461bcd60e51b815260040161042a90611689565b6000610e1d8686610d44565b805462ffffff861685811463ffffffff19909216610100820260ff1916179190911782556040519081529091506001600160a01b0386169087907f1c3e74a6c6fefbaeee166b031cd2016349c6c863d5188b67c9bbd0b0dcb2e2379060200160405180910390a3505050505050565b600080610e998484610d44565b5460ff16949350505050565b60006103c8620f4240836116ba565b600080610ec083610734565b8054909150610100900460ff1615610edc575460ff1692915050565b6000610ee78461076d565b825481151561ffff1990911617610100179092555092915050565b8715610fad576000876001600160a01b03168960405160006040518083038185875af1925050503d8060008114610f55576040519150601f19603f3d011682016040523d82523d6000602084013e610f5a565b606091505b5050905080610fab5760405162461bcd60e51b815260206004820181905260248201527f506c6174666f726d2050726f7669646572207061796d656e74206661696c6564604482015260640161042a565b505b8515611058576000856001600160a01b03168760405160006040518083038185875af1925050503d8060008114611000576040519150601f19603f3d011682016040523d82523d6000602084013e611005565b606091505b50509050806110565760405162461bcd60e51b815260206004820152601e60248201527f52656e6465722050726f7669646572207061796d656e74206661696c65640000604482015260640161042a565b505b83156110fb576000836001600160a01b03168560405160006040518083038185875af1925050503d80600081146110ab576040519150601f19603f3d011682016040523d82523d6000602084013e6110b0565b606091505b50509050806110f95760405162461bcd60e51b8152602060048201526015602482015274105c9d1a5cdd081c185e5b595b9d0819985a5b1959605a1b604482015260640161042a565b505b81156111a6576000816001600160a01b03168360405160006040518083038185875af1925050503d806000811461114e576040519150601f19603f3d011682016040523d82523d6000602084013e611153565b606091505b50509050806111a45760405162461bcd60e51b815260206004820152601f60248201527f4164646974696f6e616c205061796565207061796d656e74206661696c656400604482015260640161042a565b505b5050505050505050565b60405163a47d29cb60e01b8152600481018490526000906001600160a01b0384169063a47d29cb90602401602060405180830381865afa1580156111f8573d6000803e3d6000fd5b505050506040513d601f19601f8201168201806040525081019061121c91906116dc565b6001600160a01b0316826001600160a01b03161490509392505050565b604051630ea5613f60e01b81526004810183905260009081906001600160a01b03841690630ea5613f9060240160c060405180830381865afa158015611283573d6000803e3d6000fd5b505050506040513d601f19601f820116820180604052508101906112a7919061170e565b5093989297509195505050505050565b600062ffffff82111561131b5760405162461bcd60e51b815260206004820152602660248201527f53616665436173743a2076616c756520646f65736e27742066697420696e203260448201526534206269747360d01b606482015260840161042a565b5090565b6001600160a01b038116811461133457600080fd5b50565b60006020828403121561134957600080fd5b813561039c8161131f565b6000806040838503121561136757600080fd5b82356113728161131f565b946020939093013593505050565b6000806040838503121561139357600080fd5b8235915060208301356113a58161131f565b809150509250929050565b6000806000606084860312156113c557600080fd5b83356113d08161131f565b92506020840135915060408401356113e78161131f565b809150509250925092565b60008060006060848603121561140757600080fd5b8335925060208401356114198161131f565b915060408401356001600160f81b03811681146113e757600080fd5b60008060006060848603121561144a57600080fd5b83359250602084013561145c8161131f565b9150604084013562ffffff811681146113e757600080fd5b60005b8381101561148f578181015183820152602001611477565b50506000910152565b600081518084526114b0816020860160208601611474565b601f01601f19169290920160200192915050565b60208152600061039c6020830184611498565b84151581528360208201526080604082015260006114f86080830185611498565b905060018060a01b038316606083015295945050505050565b60006020828403121561152357600080fd5b5051919050565b6000825161153c818460208701611474565b9190910192915050565b60208082526017908201527613585e081a5b9d9bd8d85d1a5bdb9cc81c995858da1959604a1b604082015260600190565b600080600080600080600080610100898b03121561159457600080fd5b8851975060208901516115a68161131f565b60408a015160608b015191985096506115be8161131f565b60808a015160a08b015191965094506115d68161131f565b60c08a015160e08b015191945092506115ee8161131f565b809150509295985092959890939650565b60008060008060008060c0878903121561161857600080fd5b86519550602087015161162a8161131f565b6040880151606089015191965094506116428161131f565b608088015160a0890151919450925061165a8161131f565b809150509295509295509295565b808201808211156103c857634e487b7160e01b600052601160045260246000fd5b602080825260179082015276496e76616c6964206d617820696e766f636174696f6e7360481b604082015260600190565b6000826116d757634e487b7160e01b600052601260045260246000fd5b500490565b6000602082840312156116ee57600080fd5b815161039c8161131f565b8051801515811461170957600080fd5b919050565b60008060008060008060c0878903121561172757600080fd5b865195506020870151945061173e604088016116f9565b935061174c606088016116f9565b92506080870151915061176160a088016116f9565b9050929550929550929556fea2646970667358221220f9c5594f0a808a0108dd818890a2a9571c4613b0aa3c6dcb8f1114c2f016fdcd64736f6c63430008130033",
  "linkReferences": {},
  "deployedLinkReferences": {}
}