{
  "_format": "hh-sol-artifact-1",
  "contractName": "PMPV0",
  "sourceName": "contracts/web3call/PMPV0.sol",
  "abi": [
    {
      "inputs": [],
      "name": "ReentrancyGuardReentrantCall",
      "type": "error"
    },
    {
      "anonymous": false,
      "inputs": [
        {
          "indexed": false,
          "internalType": "address",
          "name": "coreContract",
          "type": "address"
        },
        {
          "indexed": false,
          "internalType": "uint256",
          "name": "projectId",
          "type": "uint256"
        },
        {
          "components": [
            {
              "internalType": "string",
              "name": "key",
              "type": "string"
            },
            {
              "components": [
                {
                  "internalType": "enum IPMPV0.AuthOption",
                  "name": "authOption",
                  "type": "uint8"
                },
                {
                  "internalType": "enum IPMPV0.ParamType",
                  "name": "paramType",
                  "type": "uint8"
                },
                {
                  "internalType": "uint48",
                  "name": "pmpLockedAfterTimestamp",
                  "type": "uint48"
                },
                {
                  "internalType": "address",
                  "name": "authAddress",
                  "type": "address"
                },
                {
                  "internalType": "string[]",
                  "name": "selectOptions",
                  "type": "string[]"
                },
                {
                  "internalType": "bytes32",
                  "name": "minRange",
                  "type": "bytes32"
                },
                {
                  "internalType": "bytes32",
                  "name": "maxRange",
                  "type": "bytes32"
                }
              ],
              "internalType": "struct IPMPV0.PMPConfig",
              "name": "pmpConfig",
              "type": "tuple"
            }
          ],
          "indexed": false,
          "internalType": "struct IPMPV0.PMPInputConfig[]",
          "name": "pmpInputConfigs",
          "type": "tuple[]"
        },
        {
          "indexed": false,
          "internalType": "uint8",
          "name": "projectConfigNonce",
          "type": "uint8"
        }
      ],
      "name": "ProjectConfigured",
      "type": "event"
    },
    {
      "anonymous": false,
      "inputs": [
        {
          "indexed": false,
          "internalType": "address",
          "name": "coreContract",
          "type": "address"
        },
        {
          "indexed": false,
          "internalType": "uint256",
          "name": "projectId",
          "type": "uint256"
        },
        {
          "indexed": false,
          "internalType": "contract IPMPConfigureHook",
          "name": "tokenPMPPostConfigHook",
          "type": "address"
        },
        {
          "indexed": false,
          "internalType": "contract IPMPAugmentHook",
          "name": "tokenPMPReadAugmentationHook",
          "type": "address"
        }
      ],
      "name": "ProjectHooksConfigured",
      "type": "event"
    },
    {
      "anonymous": false,
      "inputs": [
        {
          "indexed": false,
          "internalType": "address",
          "name": "coreContract",
          "type": "address"
        },
        {
          "indexed": false,
          "internalType": "uint256",
          "name": "tokenId",
          "type": "uint256"
        },
        {
          "components": [
            {
              "internalType": "string",
              "name": "key",
              "type": "string"
            },
            {
              "internalType": "enum IPMPV0.ParamType",
              "name": "configuredParamType",
              "type": "uint8"
            },
            {
              "internalType": "bytes32",
              "name": "configuredValue",
              "type": "bytes32"
            },
            {
              "internalType": "bool",
              "name": "configuringArtistString",
              "type": "bool"
            },
            {
              "internalType": "string",
              "name": "configuredValueString",
              "type": "string"
            }
          ],
          "indexed": false,
          "internalType": "struct IPMPV0.PMPInput[]",
          "name": "pmpInputs",
          "type": "tuple[]"
        }
      ],
      "name": "TokenParamsConfigured",
      "type": "event"
    },
    {
      "inputs": [
        {
          "internalType": "address",
          "name": "coreContract",
          "type": "address"
        },
        {
          "internalType": "uint256",
          "name": "projectId",
          "type": "uint256"
        },
        {
          "components": [
            {
              "internalType": "string",
              "name": "key",
              "type": "string"
            },
            {
              "components": [
                {
                  "internalType": "enum IPMPV0.AuthOption",
                  "name": "authOption",
                  "type": "uint8"
                },
                {
                  "internalType": "enum IPMPV0.ParamType",
                  "name": "paramType",
                  "type": "uint8"
                },
                {
                  "internalType": "uint48",
                  "name": "pmpLockedAfterTimestamp",
                  "type": "uint48"
                },
                {
                  "internalType": "address",
                  "name": "authAddress",
                  "type": "address"
                },
                {
                  "internalType": "string[]",
                  "name": "selectOptions",
                  "type": "string[]"
                },
                {
                  "internalType": "bytes32",
                  "name": "minRange",
                  "type": "bytes32"
                },
                {
                  "internalType": "bytes32",
                  "name": "maxRange",
                  "type": "bytes32"
                }
              ],
              "internalType": "struct IPMPV0.PMPConfig",
              "name": "pmpConfig",
              "type": "tuple"
            }
          ],
          "internalType": "struct IPMPV0.PMPInputConfig[]",
          "name": "pmpInputConfigs",
          "type": "tuple[]"
        }
      ],
      "name": "configureProject",
      "outputs": [],
      "stateMutability": "nonpayable",
      "type": "function"
    },
    {
      "inputs": [
        {
          "internalType": "address",
          "name": "coreContract",
          "type": "address"
        },
        {
          "internalType": "uint256",
          "name": "projectId",
          "type": "uint256"
        },
        {
          "internalType": "contract IPMPConfigureHook",
          "name": "tokenPMPPostConfigHook",
          "type": "address"
        },
        {
          "internalType": "contract IPMPAugmentHook",
          "name": "tokenPMPReadAugmentationHook",
          "type": "address"
        }
      ],
      "name": "configureProjectHooks",
      "outputs": [],
      "stateMutability": "nonpayable",
      "type": "function"
    },
    {
      "inputs": [
        {
          "internalType": "address",
          "name": "coreContract",
          "type": "address"
        },
        {
          "internalType": "uint256",
          "name": "tokenId",
          "type": "uint256"
        },
        {
          "components": [
            {
              "internalType": "string",
              "name": "key",
              "type": "string"
            },
            {
              "internalType": "enum IPMPV0.ParamType",
              "name": "configuredParamType",
              "type": "uint8"
            },
            {
              "internalType": "bytes32",
              "name": "configuredValue",
              "type": "bytes32"
            },
            {
              "internalType": "bool",
              "name": "configuringArtistString",
              "type": "bool"
            },
            {
              "internalType": "string",
              "name": "configuredValueString",
              "type": "string"
            }
          ],
          "internalType": "struct IPMPV0.PMPInput[]",
          "name": "pmpInputs",
          "type": "tuple[]"
        }
      ],
      "name": "configureTokenParams",
      "outputs": [],
      "stateMutability": "nonpayable",
      "type": "function"
    },
    {
      "inputs": [
        {
          "internalType": "address",
          "name": "coreContract",
          "type": "address"
        },
        {
          "internalType": "uint256",
          "name": "projectId",
          "type": "uint256"
        }
      ],
      "name": "getProjectConfig",
      "outputs": [
        {
          "internalType": "string[]",
          "name": "pmpKeys",
          "type": "string[]"
        },
        {
          "internalType": "uint8",
          "name": "configNonce",
          "type": "uint8"
        },
        {
          "internalType": "contract IPMPConfigureHook",
          "name": "tokenPMPPostConfigHook",
          "type": "address"
        },
        {
          "internalType": "contract IPMPAugmentHook",
          "name": "tokenPMPReadAugmentationHook",
          "type": "address"
        }
      ],
      "stateMutability": "view",
      "type": "function"
    },
    {
      "inputs": [
        {
          "internalType": "address",
          "name": "coreContract",
          "type": "address"
        },
        {
          "internalType": "uint256",
          "name": "projectId",
          "type": "uint256"
        },
        {
          "internalType": "string",
          "name": "pmpKey",
          "type": "string"
        }
      ],
      "name": "getProjectPMPConfig",
      "outputs": [
        {
          "components": [
            {
              "internalType": "uint8",
              "name": "highestConfigNonce",
              "type": "uint8"
            },
            {
              "internalType": "enum IPMPV0.AuthOption",
              "name": "authOption",
              "type": "uint8"
            },
            {
              "internalType": "enum IPMPV0.ParamType",
              "name": "paramType",
              "type": "uint8"
            },
            {
              "internalType": "uint48",
              "name": "pmpLockedAfterTimestamp",
              "type": "uint48"
            },
            {
              "internalType": "address",
              "name": "authAddress",
              "type": "address"
            },
            {
              "internalType": "string[]",
              "name": "selectOptions",
              "type": "string[]"
            },
            {
              "internalType": "bytes32",
              "name": "minRange",
              "type": "bytes32"
            },
            {
              "internalType": "bytes32",
              "name": "maxRange",
              "type": "bytes32"
            }
          ],
          "internalType": "struct IPMPV0.PMPConfigStorage",
          "name": "pmpConfigStorage",
          "type": "tuple"
        }
      ],
      "stateMutability": "view",
      "type": "function"
    },
    {
      "inputs": [
        {
          "internalType": "address",
          "name": "coreContract",
          "type": "address"
        },
        {
          "internalType": "uint256",
          "name": "tokenId",
          "type": "uint256"
        },
        {
          "internalType": "string",
          "name": "pmpKey",
          "type": "string"
        }
      ],
      "name": "getTokenPMPStorage",
      "outputs": [
        {
          "components": [
            {
              "internalType": "enum IPMPV0.ParamType",
              "name": "configuredParamType",
              "type": "uint8"
            },
            {
              "internalType": "bytes32",
              "name": "configuredValue",
              "type": "bytes32"
            },
            {
              "internalType": "string",
              "name": "artistConfiguredValueString",
              "type": "string"
            },
            {
              "internalType": "string",
              "name": "nonArtistConfiguredValueString",
              "type": "string"
            }
          ],
          "internalType": "struct IPMPV0.PMPStorage",
          "name": "pmp",
          "type": "tuple"
        }
      ],
      "stateMutability": "view",
      "type": "function"
    },
    {
      "inputs": [
        {
          "internalType": "address",
          "name": "coreContract",
          "type": "address"
        },
        {
          "internalType": "uint256",
          "name": "tokenId",
          "type": "uint256"
        }
      ],
      "name": "getTokenParams",
      "outputs": [
        {
          "components": [
            {
              "internalType": "string",
              "name": "key",
              "type": "string"
            },
            {
              "internalType": "string",
              "name": "value",
              "type": "string"
            }
          ],
          "internalType": "struct IWeb3Call.TokenParam[]",
          "name": "tokenParams",
          "type": "tuple[]"
        }
      ],
      "stateMutability": "view",
      "type": "function"
    },
    {
      "inputs": [
        {
          "internalType": "bytes4",
          "name": "interfaceId",
          "type": "bytes4"
        }
      ],
      "name": "supportsInterface",
      "outputs": [
        {
          "internalType": "bool",
          "name": "",
          "type": "bool"
        }
      ],
      "stateMutability": "view",
      "type": "function"
    }
  ],
  "bytecode": "0x608060405234801561001057600080fd5b506001600055614978806100256000396000f3fe608060405234801561001057600080fd5b50600436106100785760003560e01c806301ffc9a71461007d5780633c303afb146100a557806354ca2237146100ba5780636f8637a0146100dd578063b69c984d146100f0578063ba8dba4814610103578063c2b4f41114610123578063dc809b1a14610143575b600080fd5b61009061008b366004613556565b610163565b60405190151581526020015b60405180910390f35b6100b86100b33660046135e9565b61019a565b005b6100cd6100c8366004613644565b61062d565b60405161009c94939291906136c0565b6100b86100eb3660046135e9565b610690565b6100b86100fe366004613747565b61093b565b6101166101113660046138a7565b610b23565b60405161009c9190613993565b610136610131366004613644565b610d4f565b60405161009c9190613aa3565b6101566101513660046138a7565b610f6f565b60405161009c9190613ab6565b60006001600160e01b0319821663c2b4f41160e01b148061019457506301ffc9a760e01b6001600160e01b03198316145b92915050565b6101a5848433611145565b806101008111156101f85760405162461bcd60e51b8152602060048201526018602482015277504d503a204f6e6c79203c3d2032353620636f6e6669677360401b60448201526064015b60405180910390fd5b60005b818110156102c257600084848381811061021757610217613b13565b90506020028101906102299190613b29565b6102339080613b49565b9050116102805760405162461bcd60e51b815260206004820152601b60248201527a504d503a20706d704b65792063616e6e6f7420626520656d70747960281b60448201526064016101ef565b6102ba84848381811061029557610295613b13565b90506020028101906102a79190613b29565b6102b5906020810190613b8f565b611201565b6001016101fb565b506001600160a01b0385166000908152600160208181526040808420888552909152822060028101549092916102fb9160ff1690613bbb565b60028301805460ff191660ff831617905590506000836001600160401b038111156103285761032861379a565b60405190808252806020026020018201604052801561035b57816020015b60608152602001906001900390816103465790505b50905060005b848110156103f25786868281811061037b5761037b613b13565b905060200281019061038d9190613b29565b6103979080613b49565b8080601f01602080910402602001604051908101604052809392919081815260200183838082843760009201919091525050845185925084915081106103df576103df613b13565b6020908102919091010152600101610361565b506103fd818461197b565b60005b848110156105e357600084600101600061043285858151811061042557610425613b13565b6020026020010151611a13565b8152602081019190915260400160002080549091506301000000900465ffffffffffff1680158061046257504281115b6104bf5760405162461bcd60e51b815260206004820152602860248201527f504d503a20706d70206973206c6f636b656420616e642063616e6e6f74206265604482015267081d5c19185d195960c21b60648201526084016101ef565b50805460ff191660ff851617815560008888848181106104e1576104e1613b13565b90506020028101906104f39190613b29565b610501906020810190613b8f565b61050a90613cb5565b8051835491925090839061ff00191661010083600681111561052e5761052e6138ff565b021790555060208101518254839062ff0000191662010000836008811115610558576105586138ff565b02179055506040810151825460608301516001600160a01b0316600160481b02600160481b600160e81b031965ffffffffffff909316630100000002929092166301000000600160e81b031990911617178255608081015180516105c6916001850191602090910190613499565b5060a0810151600283015560c00151600390910155600101610400565b507f935e8b8dc0c19500cc0d4c29698f1af13be297f62b71eda8dd0e1a0bc6927fca888888888660405161061b959493929190613e17565b60405180910390a15050505050505050565b6001600160a01b03821660009081526001602090815260408083208484529091528120606091908190819061066181611a43565b6002820154600390920154909860ff831698506001600160a01b03610100909304831697509116945092505050565b610698611c6d565b60006106a384611c97565b6001600160a01b038616600090815260016020908152604080832084845290915281209192505b838110156108eb57600061073f8686848181106106e9576106e9613b13565b90506020028101906106fb9190613fb6565b6107059080613b49565b8080601f016020809104026020016040519081016040528093929190818152602001838380828437600092019190915250611a1392505050565b9050600086868481811061075557610755613b13565b90506020028101906107679190613fb6565b61077090613fdc565b6001600160a01b038a1660009081526002602081815260408084208d85528252808420878552825280842060018a019092529092209087015492935090916107c2908b908d908690859060ff16611ca6565b805482546201000090910460ff1690839060ff191660018360088111156107eb576107eb6138ff565b02179055506008815462010000900460ff16600881111561080e5761080e6138ff565b0361084b578260600151156108375760808301516002830190610831908261410f565b50610856565b60808301516003830190610831908261410f565b604083015160018301555b600286015461010090046001600160a01b0316156108db57600286015460405163677e713560e01b81526101009091046001600160a01b03169063677e7135906108a8908e908e9088906004016141ce565b600060405180830381600087803b1580156108c257600080fd5b505af11580156108d6573d6000803e3d6000fd5b505050505b5050600190920191506106ca9050565b507f8ab4d1a907cb32efca4abfcd8bfebaffdae90518a8e48d380e85ad5083fdc131868686866040516109219493929190614245565b60405180910390a150506109356001600055565b50505050565b610946848433611145565b6001600160a01b038216156109da576109668263677e713560e01b6126d3565b6109da576040805162461bcd60e51b81526020600482015260248101919091527f504d503a20746f6b656e504d50506f7374436f6e666967486f6f6b20646f657360448201527f206e6f7420696d706c656d656e742049504d50436f6e666967757265486f6f6b60648201526084016101ef565b6001600160a01b03811615610a7a576109fa816358f8699f60e01b6126d3565b610a7a5760405162461bcd60e51b8152602060048201526044602482018190527f504d503a20746f6b656e504d50526561644175676d656e746174696f6e486f6f908201527f6b20646f6573206e6f7420696d706c656d656e742049504d504175676d656e74606482015263486f6f6b60e01b608482015260a4016101ef565b6001600160a01b038481166000818152600160209081526040808320888452825291829020600281018054610100600160a81b031916610100898816908102919091179091556003820180546001600160a01b031916968816968717905583519485529184018890529183015260608201929092527fd7a93580965b5dbb5c8a723af5a48167de5f41dc65e456be819bf739da05ce389060800160405180910390a15050505050565b610b6b60408051610100810190915260008082526020820190815260200160008152600060208201819052604082018190526060808301526080820181905260a09091015290565b6001600160a01b038416600090815260016020818152604080842087855290915282200190610b9984611a13565b815260208082019290925260409081016000208151610100808201909352815460ff808216835291949293928501929004166006811115610bdc57610bdc6138ff565b6006811115610bed57610bed6138ff565b8152815460209091019062010000900460ff166008811115610c1157610c116138ff565b6008811115610c2257610c226138ff565b815281546301000000810465ffffffffffff16602080840191909152600160481b9091046001600160a01b0316604080840191909152600184018054825181850281018501909352808352606090940193919290919060009084015b82821015610d2a578382906000526020600020018054610c9d9061408d565b80601f0160208091040260200160405190810160405280929190818152602001828054610cc99061408d565b8015610d165780601f10610ceb57610100808354040283529160200191610d16565b820191906000526020600020905b815481529060010190602001808311610cf957829003601f168201915b505050505081526020019060010190610c7e565b5050505081526020016002820154815260200160038201548152505090509392505050565b60606000610d5c83611c97565b6001600160a01b03851660009081526001602090815260408083208484529091528120919250610d8b82611a43565b8051909150806001600160401b03811115610da857610da861379a565b604051908082528060200260200182016040528015610ded57816020015b6040805180820190915260608082526020820152815260200190600190039081610dc65790505b5094506000805b82811015610ecf576000610e1385838151811061042557610425613b13565b600081815260018801602090815260408083206001600160a01b038f168452600283528184208e85528352818420858552909252822092935090918291610e59916126f6565b9150915081610e6a57505050610ec7565b6040518060400160405280888681518110610e8757610e87613b13565b60200260200101518152602001828152508a8681518110610eaa57610eaa613b13565b60200260200101819052508480610ec09061433f565b9550505050505b600101610df4565b5080865260038401546001600160a01b031615610f645760038401546040516358f8699f60e01b81526001600160a01b03909116906358f8699f90610f1c908b908b908b90600401614358565b600060405180830381865afa158015610f39573d6000803e3d6000fd5b505050506040513d6000823e601f3d908101601f19168201604052610f6191908101906143cc565b95505b505050505092915050565b610f9960408051608081019091528060008152600060208201526060604082018190529081015290565b6001600160a01b0384166000908152600260209081526040808320868452909152812090610fc684611a13565b8152602081019190915260409081016000208151608081019092528054829060ff166008811115610ff957610ff96138ff565b600881111561100a5761100a6138ff565b8152602001600182015481526020016002820180546110289061408d565b80601f01602080910402602001604051908101604052809291908181526020018280546110549061408d565b80156110a15780601f10611076576101008083540402835291602001916110a1565b820191906000526020600020905b81548152906001019060200180831161108457829003601f168201915b505050505081526020016003820180546110ba9061408d565b80601f01602080910402602001604051908101604052809291908181526020018280546110e69061408d565b80156111335780601f1061110857610100808354040283529160200191611133565b820191906000526020600020905b81548152906001019060200180831161111657829003601f168201915b50505050508152505090509392505050565b60405163a47d29cb60e01b8152600481018390526001600160a01b03808316919085169063a47d29cb90602401602060405180830381865afa15801561118f573d6000803e3d6000fd5b505050506040513d601f19601f820116820180604052508101906111b391906144d7565b6001600160a01b0316146111fc5760405162461bcd60e51b815260206004820152601060248201526f1413540e881bdb9b1e48185c9d1a5cdd60821b60448201526064016101ef565b505050565b600061121360408301602084016144f4565b90506000611224602084018461450f565b9050600082600881111561123a5761123a6138ff565b036112875760405162461bcd60e51b815260206004820152601e60248201527f504d503a20706172616d5479706520697320756e636f6e66696775726564000060448201526064016101ef565b611297606084016040850161452a565b65ffffffffffff1615806112c15750426112b7606085016040860161452a565b65ffffffffffff16115b6113415760405162461bcd60e51b8152602060048201526044602482018190527f504d503a20706d704c6f636b6564416674657254696d657374616d7020697320908201527f696e20746865207061737420616e64206e6f7420756e6c696d6974656420287a60648201526365726f2960e01b608482015260a4016101ef565b6006816006811115611355576113556138ff565b111561139d5760405162461bcd60e51b81526020600482015260176024820152762826a81d1024b73b30b634b21030baba3427b83a34b7b760491b60448201526064016101ef565b60088260088111156113b1576113b16138ff565b11156113cf5760405162461bcd60e51b81526004016101ef90614545565b60088260088111156113e3576113e36138ff565b036114b95760008160068111156113fc576113fc6138ff565b148061141957506003816006811115611417576114176138ff565b145b8061143557506006816006811115611433576114336138ff565b145b806114515750600481600681111561144f5761144f6138ff565b145b6114b95760405162461bcd60e51b815260206004820152603360248201527f504d503a20537472696e6720706172616d73206d75737420686176652061727460448201527234b9ba159030baba3432b73a34b1b0ba34b7b760691b60648201526084016101ef565b60028160068111156114cd576114cd6138ff565b14806114ea575060058160068111156114e8576114e86138ff565b145b8061150657506004816006811115611504576115046138ff565b145b8061152257506006816006811115611520576115206138ff565b145b1561158f5760006115396080850160608601614575565b6001600160a01b03160361158a5760405162461bcd60e51b8152602060048201526018602482015277504d503a206175746841646472657373206973207a65726f60401b60448201526064016101ef565b6115f6565b60006115a16080850160608601614575565b6001600160a01b0316146115f65760405162461bcd60e51b815260206004820152601c60248201527b504d503a206175746841646472657373206973206e6f74207a65726f60201b60448201526064016101ef565b600282600881111561160a5761160a6138ff565b148061162757506008826008811115611625576116256138ff565b145b8061164357506006826008811115611641576116416138ff565b145b15611712576116556080840184614592565b1590506116745760405162461bcd60e51b81526004016101ef906145db565b60a0830135156116c35760405162461bcd60e51b815260206004820152601a602482015279504d503a206d696e52616e6765206973206e6f7420656d70747960301b60448201526064016101ef565b60c0830135156111fc5760405162461bcd60e51b815260206004820152601a602482015279504d503a206d617852616e6765206973206e6f7420656d70747960301b60448201526064016101ef565b6001826008811115611726576117266138ff565b036117e757600061173a6080850185614592565b9050116117875760405162461bcd60e51b815260206004820152601b60248201527a504d503a2073656c6563744f7074696f6e7320697320656d70747960281b60448201526064016101ef565b6101006117976080850185614592565b905011156116745760405162461bcd60e51b815260206004820152601f60248201527f504d503a2073656c6563744f7074696f6e73206c656e677468203e203235360060448201526064016101ef565b60038260088111156117fb576117fb6138ff565b148061181857506004826008811115611816576118166138ff565b145b8061183457506005826008811115611832576118326138ff565b145b806118505750600782600881111561184e5761184e6138ff565b145b15611963576118626080840184614592565b1590506118815760405162461bcd60e51b81526004016101ef906145db565b6004826008811115611895576118956138ff565b036118ca5760a083013560c08401358082126118c35760405162461bcd60e51b81526004016101ef90614612565b5050505050565b60a083013560c08401358082106118f35760405162461bcd60e51b81526004016101ef90614612565b6007846008811115611907576119076138ff565b036118c3576001600160401b038111156118c35760405162461bcd60e51b815260206004820152601e60248201527f504d503a206d617852616e6765203e205f54494d455354414d505f4d4158000060448201526064016101ef565b60405162461bcd60e51b81526004016101ef90614545565b600061198682611a43565b90506000815184511461199b57506001611a03565b60005b8451811015611a01576119ec8382815181106119bc576119bc613b13565b60200260200101518683815181106119d6576119d6613b13565b6020026020010151612b7990919063ffffffff16565b6119f95760019150611a01565b60010161199e565b505b8015610935576109358385612b9e565b600081604051602001611a269190614645565b604051602081830303815290604052805190602001209050919050565b80546060906001600160a01b0316611a87576040805160008082526020820190925290611a80565b6060815260200190600190039081611a6b5790505b5092915050565b8154600090611a9e906001600160a01b0316612e45565b602081015190915060c01c806001600160401b03811115611ac157611ac161379a565b604051908082528060200260200182016040528015611af457816020015b6060815260200190600190039081611adf5790505b50925060005b81811015611c65576000808084611b12856001614658565b03611b40576000865190506028870193506008850284015160c01c9250600886026008018103915050611b62565b6028860192506008840283015160c01c91506008600185010283015160c01c90505b6000611b6e838361466b565b6001600160401b031690506000611b86826020614658565b6001600160401b03811115611b9d57611b9d61379a565b6040519080825280601f01601f191660200182016040528015611bc7576020820181803683370190505b5090506020810160005b83811015611c2d576000816001600160401b038816611bf18c600861468b565b611bfc906028614658565b611c069190614658565b611c109190614658565b8b0151835250602091820191611c269082614658565b9050611bd1565b50819050828152818a8881518110611c4757611c47613b13565b60200260200101819052505050505050508080600101915050611afa565b505050919050565b600260005403611c9057604051633ee5aeb560e01b815260040160405180910390fd5b6002600055565b6000610194620f4240836146b8565b815460ff828116911614611d1f5760405162461bcd60e51b815260206004820152603a60248201527f504d503a20706172616d206e6f742070617274206f66206d6f737420726563656044820152796e746c7920636f6e6669677572656420504d5020706172616d7360301b60648201526084016101ef565b815462010000900460ff166008811115611d3b57611d3b6138ff565b83602001516008811115611d5157611d516138ff565b14611d985760405162461bcd60e51b81526020600482015260176024820152760a09aa07440e0c2e4c2daa8f2e0ca40dad2e6dac2e8c6d604b1b60448201526064016101ef565b600083602001516008811115611db057611db06138ff565b03611e095760405162461bcd60e51b8152602060048201526024808201527f504d503a20696e70757420706172616d5479706520697320756e636f6e6669676044820152631d5c995960e21b60648201526084016101ef565b8154610100900460ff166000816006811115611e2757611e276138ff565b03611e8457611e37868633612e66565b611e7f5760405162461bcd60e51b81526020600482015260196024820152781413540e88185c9d1a5cdd08185d5d1a081c995c5d5a5c9959603a1b60448201526064016101ef565b612230565b6001816006811115611e9857611e986138ff565b03611ef457611ea8868633612f00565b611e7f5760405162461bcd60e51b815260206004820152601e60248201527f504d503a20746f6b656e206f776e65722061757468207265717569726564000060448201526064016101ef565b6003816006811115611f0857611f086138ff565b03611f8757611f18868633612f00565b80611f295750611f29868633612e66565b611e7f5760405162461bcd60e51b815260206004820152602960248201527f504d503a2061727469737420616e6420746f6b656e206f776e65722061757468604482015268081c995c5d5a5c995960ba1b60648201526084016101ef565b6002816006811115611f9b57611f9b6138ff565b03611ffd578254600160481b90046001600160a01b03163314611e7f5760405162461bcd60e51b815260206004820152601a6024820152791413540e881859191c995cdcc8185d5d1a081c995c5d5a5c995960321b60448201526064016101ef565b6006816006811115612011576120116138ff565b036120b757612021868633612f00565b806120325750612032868633612e66565b8061204d57508254600160481b90046001600160a01b031633145b611e7f5760405162461bcd60e51b815260206004820152603560248201527f504d503a2061727469737420616e6420746f6b656e206f776e657220616e64206044820152741859191c995cdcc8185d5d1a081c995c5d5a5c9959605a1b60648201526084016101ef565b60048160068111156120cb576120cb6138ff565b03612150576120db868633612e66565b806120f657508254600160481b90046001600160a01b031633145b611e7f5760405162461bcd60e51b815260206004820152602560248201527f504d503a2061727469737420616e6420616464726573732061757468207265716044820152641d5a5c995960da1b60648201526084016101ef565b6005816006811115612164576121646138ff565b036121ee57612174868633612f00565b8061218f57508254600160481b90046001600160a01b031633145b611e7f5760405162461bcd60e51b815260206004820152602a60248201527f504d503a20746f6b656e206f776e657220616e642061646472657373206175746044820152691a081c995c5d5a5c995960b21b60648201526084016101ef565b60405162461bcd60e51b81526020600482015260176024820152762826a81d1034b73b30b634b21030baba3427b83a34b7b760491b60448201526064016101ef565b50815462010000900460ff166008816008811115612250576122506138ff565b146124da576001816008811115612269576122696138ff565b036122d95760018301546040850151106122d45760405162461bcd60e51b815260206004820152602660248201527f504d503a2073656c6563744f7074696f6e7320696e646578206f7574206f6620604482015265626f756e647360d01b60648201526084016101ef565b6124da565b60028160088111156122ed576122ed6138ff565b0361235f5760408401511580612307575060408401516001145b6122d45760405162461bcd60e51b8152602060048201526024808201527f504d503a20626f6f6c20706172616d2076616c7565206d7573742062652030206044820152636f72203160e01b60648201526084016101ef565b6003816008811115612373576123736138ff565b14806123905750600581600881111561238e5761238e6138ff565b145b156123d15782600201548460400151101580156123b557508260030154846040015111155b6122d45760405162461bcd60e51b81526004016101ef906146cc565b60048160088111156123e5576123e56138ff565b036124255760028301546040850151128015906123b557506003830154604085015113156122d45760405162461bcd60e51b81526004016101ef906146cc565b6007816008811115612439576124396138ff565b036124595760408401516001600160401b03108015906123b557506124da565b600681600881111561246d5761246d6138ff565b0361249957604084015162ffffff10156122d45760405162461bcd60e51b81526004016101ef90614703565b60405162461bcd60e51b8152602060048201526016602482015275504d503a20696e76616c696420706172616d5479706560501b60448201526064016101ef565b6008835462010000900460ff1660088111156124f8576124f86138ff565b036125e5576040840151156125625760405162461bcd60e51b815260206004820152602a60248201527f504d503a2076616c7565206d75737420626520656d70747920666f7220737472604482015269696e6720706172616d7360b01b60648201526084016101ef565b8360600151156125e057612577868633612e66565b6125e05760405162461bcd60e51b815260206004820152603460248201527f504d503a20617274697374206175746820726571756972656420746f20636f6e6044820152736669677572652061727469737420737472696e6760601b60648201526084016101ef565b6126cb565b608084015151156126535760405162461bcd60e51b815260206004820152603260248201527f504d503a206e6f6e2d737472696e6720706172616d206d757374206861766520604482015271656d70747920737472696e672076616c756560701b60648201526084016101ef565b8360600151156126cb5760405162461bcd60e51b815260206004820152603d60248201527f504d503a2061727469737420737472696e672063616e6e6f7420626520636f6e60448201527f6669677572656420666f72206e6f6e2d737472696e6720706172616d7300000060648201526084016101ef565b505050505050565b60006126de83612f8d565b80156126ef57506126ef8383612fc0565b9392505050565b805460009060609060ff1682816008811115612714576127146138ff565b148061274c5750845462010000900460ff166008811115612737576127376138ff565b816008811115612749576127496138ff565b14155b1561276a575050604080516020810190915260008082529150612b72565b6008855462010000900460ff166008811115612788576127886138ff565b0361288657600084600201805461279e9061408d565b90501115612842576001846002018080546127b89061408d565b80601f01602080910402602001604051908101604052809291908181526020018280546127e49061408d565b80156128315780601f1061280657610100808354040283529160200191612831565b820191906000526020600020905b81548152906001019060200180831161281457829003601f168201915b505050505090509250925050612b72565b60008460030180546128539061408d565b9050111561286d576001846003018080546127b89061408d565b5050604080516020810190915260008082529150612b72565b600181600881111561289a5761289a6138ff565b036128fb5760018086015490850154106128c7575050604080516020810190915260008082529150612b72565b600185600101856001015460001c815481106128e5576128e5613b13565b906000526020600020018080546127b89061408d565b600281600881111561290f5761290f6138ff565b0361296a576001848101541561294157604051806040016040528060048152602001637472756560e01b815250612960565b6040518060400160405280600581526020016466616c736560d81b8152505b9250925050612b72565b600381600881111561297e5761297e6138ff565b148061299b57506006816008811115612999576129996138ff565b145b806129b7575060078160088111156129b5576129b56138ff565b145b806129d3575060058160088111156129d1576129d16138ff565b145b15612ac4576001840154600060068360088111156129f3576129f36138ff565b14612a02576003870154612a07565b62ffffff5b905060006006846008811115612a1f57612a1f6138ff565b14612a2e576002880154612a31565b60005b905080831080612a4057508183115b15612a64576000604051806020016040528060008152509550955050505050612b72565b6005846008811115612a7857612a786138ff565b03612a95576001612a888461304a565b9550955050505050612b72565b6006846008811115612aa957612aa96138ff565b03612ab9576001612a88846130f7565b6001612a88846131e0565b6004816008811115612ad857612ad86138ff565b03612b2f5760018401546002860154811280612af75750600386015481135b15612b1957600060405180602001604052806000815250935093505050612b72565b6001612b2482613272565b935093505050612b72565b60405162461bcd60e51b8152602060048201526018602482015277504d503a20556e68616e646c656420506172616d5479706560401b60448201526064016101ef565b9250929050565b6000815183511480156126ef5750508051602091820120825192909101919091201490565b80516000816001600160401b03811115612bba57612bba61379a565b604051908082528060200260200182016040528015612be3578160200160208202803683370190505b5090506000805b83811015612c555781838281518110612c0557612c05613b13565b60200260200101906001600160401b031690816001600160401b031681525050848181518110612c3757612c37613b13565b60200260200101515182612c4b9190614658565b9150600101612bea565b506001600160401b03811115612cab5760405162461bcd60e51b815260206004820152601b60248201527a13d9999cd95d08195e18d959591cc81d5a5b9d0d8d081b1a5b5a5d602a1b60448201526064016101ef565b600081612cb985600861468b565b612cc4906008614658565b612cce9190614658565b90506000612cdd826020614658565b6001600160401b03811115612cf457612cf461379a565b6040519080825280601f01601f191660200182016040528015612d1e576020820181803683370190505b5060c086901b602082015290506028810160005b86811015612d77576000868281518110612d4e57612d4e613b13565b602090810291909101015160c01b6001600160c01b031916835250600890910190600101612d32565b5060005b86811015612e11576000888281518110612d9757612d97613b13565b6020026020010151905060008151905060006020830190506000602083612dbe91906146b8565b90506000612dcd602085614733565b905060005b82811015612df0578351885260209788019790930192600101612dd2565b508015612e005782518752958601955b505060019093019250612d7b915050565b505081815280612e20816132e4565b88546001600160a01b0319166001600160a01b03919091161790975550505050505050565b6060610194826001612e61816001600160a01b0384163b614747565b613389565b600080612e7285611c97565b9050826001600160a01b0316846001600160a01b031663a47d29cb836040518263ffffffff1660e01b8152600401612eac91815260200190565b602060405180830381865afa158015612ec9573d6000803e3d6000fd5b505050506040513d601f19601f82011682018060405250810190612eed91906144d7565b6001600160a01b03161495945050505050565b6000816001600160a01b0316836001600160a01b0316636352211e866040518263ffffffff1660e01b8152600401612f3a91815260200190565b602060405180830381865afa158015612f57573d6000803e3d6000fd5b505050506040513d601f19601f82011682018060405250810190612f7b91906144d7565b6001600160a01b031614949350505050565b6000612fa0826301ffc9a760e01b612fc0565b80156101945750612fb9826001600160e01b0319612fc0565b1592915050565b6040516001600160e01b031982166024820152600090819060440160408051601f19818403018152919052602080820180516001600160e01b03166301ffc9a760e01b178152825192935060009283928392909183918a617530fa92503d91506000519050828015613033575060208210155b801561303f5750600081115b979650505050505050565b60606000613059600a8061483e565b61306390846146b8565b90506000613072600a8061483e565b61307c9085614733565b90506000613089836131e0565b90506000613096836131e0565b90505b600a815110156130ca57806040516020016130b4919061484a565b6040516020818303038152906040529050613099565b81816040516020016130dd929190614873565b604051602081830303815290604052945050505050919050565b6040805160078082528183019092526060918391600091602082018180368337019050509050602360f81b8160008151811061313557613135613b13565b60200101906001600160f81b031916908160001a90535060065b80156131c1576f181899199a1a9b1b9c1cb0b131b232b360811b83600f166010811061317d5761317d613b13565b1a60f81b82828151811061319357613193613b13565b60200101906001600160f81b031916908160001a90535060049290921c916131ba816148af565b905061314f565b5081156126ef5760405162461bcd60e51b81526004016101ef90614703565b606060006131ed836133ac565b60010190506000816001600160401b0381111561320c5761320c61379a565b6040519080825280601f01601f191660200182016040528015613236576020820181803683370190505b5090508181016020015b600019016f181899199a1a9b1b9c1cb0b131b232b360811b600a86061a8153600a850494508461324057509392505050565b60606000821261329157604051806020016040528060008152506132ac565b604051806040016040528060018152602001602d60f81b8152505b6132bd6132b884613482565b6131e0565b6040516020016132ce9291906148c6565b6040516020818303038152906040529050919050565b600080826040516020016132f891906148f5565b604051602081830303815290604052905060008160405160200161331c919061490e565b60405160208183030381529060405290508051602082016000f092506001600160a01b0383166133825760405162461bcd60e51b81526020600482015260116024820152701111541313d65351539517d19052531151607a1b60448201526064016101ef565b5050919050565b60408051603f8301601f19168101909152818152818360208301863c9392505050565b60008072184f03e93ff9f4daa797ed6e38ed64bf6a1f0160401b83106133eb5772184f03e93ff9f4daa797ed6e38ed64bf6a1f0160401b830492506040015b6904ee2d6d415b85acef8160201b8310613415576904ee2d6d415b85acef8160201b830492506020015b662386f26fc10000831061343357662386f26fc10000830492506010015b6305f5e100831061344b576305f5e100830492506008015b612710831061345f57612710830492506004015b60648310613471576064830492506002015b600a83106101945760010192915050565b6000808212156134955781600003610194565b5090565b8280548282559060005260206000209081019282156134df579160200282015b828111156134df57825182906134cf908261410f565b50916020019190600101906134b9565b506134959291505b808211156134955760006134fb8282613504565b506001016134e7565b5080546135109061408d565b6000825580601f10613520575050565b601f01602090049060005260206000209081019061353e9190613541565b50565b5b808211156134955760008155600101613542565b60006020828403121561356857600080fd5b81356001600160e01b0319811681146126ef57600080fd5b6001600160a01b038116811461353e57600080fd5b80356135a081613580565b919050565b60008083601f8401126135b757600080fd5b5081356001600160401b038111156135ce57600080fd5b6020830191508360208260051b8501011115612b7257600080fd5b600080600080606085870312156135ff57600080fd5b843561360a81613580565b93506020850135925060408501356001600160401b0381111561362c57600080fd5b613638878288016135a5565b95989497509550505050565b6000806040838503121561365757600080fd5b823561366281613580565b946020939093013593505050565b60005b8381101561368b578181015183820152602001613673565b50506000910152565b600081518084526136ac816020860160208601613670565b601f01601f19169290920160200192915050565b6000608082016080835280875180835260a08501915060a08160051b86010192506020808a0160005b8381101561371757609f19888703018552613705868351613694565b955093820193908201906001016136e9565b5050505060ff9690961660208401526001600160a01b039485166040840152929093166060909101529392505050565b6000806000806080858703121561375d57600080fd5b843561376881613580565b935060208501359250604085013561377f81613580565b9150606085013561378f81613580565b939692955090935050565b634e487b7160e01b600052604160045260246000fd5b60405160e081016001600160401b03811182821017156137d2576137d261379a565b60405290565b604080519081016001600160401b03811182821017156137d2576137d261379a565b604051601f8201601f191681016001600160401b03811182821017156138225761382261379a565b604052919050565b60006001600160401b038211156138435761384361379a565b50601f01601f191660200190565b600082601f83011261386257600080fd5b81356138756138708261382a565b6137fa565b81815284602083860101111561388a57600080fd5b816020850160208301376000918101602001919091529392505050565b6000806000606084860312156138bc57600080fd5b83356138c781613580565b92506020840135915060408401356001600160401b038111156138e957600080fd5b6138f586828701613851565b9150509250925092565b634e487b7160e01b600052602160045260246000fd5b60078110613925576139256138ff565b9052565b60098110613925576139256138ff565b60008282518085526020808601955060208260051b8401016020860160005b8481101561398657601f19868403018952613974838351613694565b98840198925090830190600101613958565b5090979650505050505050565b6020815260ff8251166020820152600060208301516139b56040840182613915565b5060408301516139c86060840182613929565b5065ffffffffffff606084015116608083015260808301516139f560a08401826001600160a01b03169052565b5060a08301516101008060c0850152613a12610120850183613939565b915060c085015160e085015260e085015181850152508091505092915050565b600082825180855260208086019550808260051b84010181860160005b8481101561398657601f19868403018952815160408151818652613a7582870182613694565b91505085820151915084810386860152613a8f8183613694565b9a86019a9450505090830190600101613a4f565b6020815260006126ef6020830184613a32565b60208152613ac8602082018351613929565b602082015160408201526000604083015160806060840152613aed60a0840182613694565b90506060840151601f19848303016080850152613b0a8282613694565b95945050505050565b634e487b7160e01b600052603260045260246000fd5b60008235603e19833603018112613b3f57600080fd5b9190910192915050565b6000808335601e19843603018112613b6057600080fd5b8301803591506001600160401b03821115613b7a57600080fd5b602001915036819003821315612b7257600080fd5b6000823560de19833603018112613b3f57600080fd5b634e487b7160e01b600052601160045260246000fd5b60ff818116838216019081111561019457610194613ba5565b8035600781106135a057600080fd5b8035600981106135a057600080fd5b803565ffffffffffff811681146135a057600080fd5b60006001600160401b03821115613c2157613c2161379a565b5060051b60200190565b600082601f830112613c3c57600080fd5b81356020613c4c61387083613c08565b82815260059290921b84018101918181019086841115613c6b57600080fd5b8286015b84811015613caa5780356001600160401b03811115613c8e5760008081fd5b613c9c8986838b0101613851565b845250918301918301613c6f565b509695505050505050565b600060e08236031215613cc757600080fd5b613ccf6137b0565b613cd883613bd4565b8152613ce660208401613be3565b6020820152613cf760408401613bf2565b6040820152613d0860608401613595565b606082015260808301356001600160401b03811115613d2657600080fd5b613d3236828601613c2b565b60808301525060a083013560a082015260c083013560c082015280915050919050565b6000808335601e19843603018112613d6c57600080fd5b83016020810192503590506001600160401b03811115613d8b57600080fd5b803603821315612b7257600080fd5b81835281816020850137506000828201602090810191909152601f909101601f19169091010190565b6000838385526020808601955060208560051b8301018460005b8781101561398657848303601f19018952613df88288613d55565b613e03858284613d9a565b9a86019a9450505090830190600101613ddd565b6001600160a01b038681168252602080830187905260806040808501829052848201879052600093919260a0929183870160058a901b880185018b885b8c811015613f93578a8303609f190184528135368f9003603e19018112613e7a57600080fd5b8e01613e868180613d55565b878652613e968887018284613d9a565b9150508782013560de19833603018112613eaf57600080fd5b858203898701529091019060e0613ece82613ec985613bd4565b613915565b613ed9898401613be3565b613ee58a840182613929565b5065ffffffffffff613ef8898501613bf2565b1688830152606080840135613f0c81613580565b8b1690830152828c013536849003601e19018112613f2957600080fd5b830189810190356001600160401b03811115613f4457600080fd5b8060051b3603821315613f5657600080fd5b828e850152613f688385018284613dc3565b858e0135858f015260c095860135959094019490945250509487019493505090850190600101613e54565b505060ff8a1660608a01529650613fac95505050505050565b9695505050505050565b60008235609e19833603018112613b3f57600080fd5b803580151581146135a057600080fd5b600060a08236031215613fee57600080fd5b60405160a081016001600160401b0380821183831017156140115761401161379a565b81604052843591508082111561402657600080fd5b61403236838701613851565b835261404060208601613be3565b60208401526040850135604084015261405b60608601613fcc565b6060840152608085013591508082111561407457600080fd5b5061408136828601613851565b60808301525092915050565b600181811c908216806140a157607f821691505b6020821081036140c157634e487b7160e01b600052602260045260246000fd5b50919050565b601f8211156111fc576000816000526020600020601f850160051c810160208610156140f05750805b601f850160051c820191505b818110156126cb578281556001016140fc565b81516001600160401b038111156141285761412861379a565b61413c81614136845461408d565b846140c7565b602080601f83116001811461417157600084156141595750858301515b600019600386901b1c1916600185901b1785556126cb565b600085815260208120601f198616915b828110156141a057888601518255948401946001909101908401614181565b50858210156141be5787850151600019600388901b60f8161c191681555b5050505050600190811b01905550565b60018060a01b0384168152826020820152606060408201526000825160a060608401526141ff610100840182613694565b905060208401516142136080850182613929565b50604084015160a08401526060840151151560c08401526080840151838203605f190160e085015261303f8282613694565b6001600160a01b0385168152602080820185905260606040808401829052838201859052600092608091828601600588901b870184018987805b8b81101561432c578a8403607f190185528235368e9003609e190181126142a4578283fd5b8d0160a06142b28280613d55565b8288526142c28389018284613d9a565b925050506142d1898301613be3565b6142dd8a880182613929565b5087820135888701526142f18b8301613fcc565b15158b8701526143038a830183613d55565b92508682038b880152614317828483613d9a565b978a019796505050928701925060010161427f565b50919d9c50505050505050505050505050565b60006001820161435157614351613ba5565b5060010190565b60018060a01b0384168152826020820152606060408201526000613b0a6060830184613a32565b600082601f83011261439057600080fd5b815161439e6138708261382a565b8181528460208386010111156143b357600080fd5b6143c4826020830160208701613670565b949350505050565b600060208083850312156143df57600080fd5b82516001600160401b03808211156143f657600080fd5b818501915085601f83011261440a57600080fd5b815161441861387082613c08565b81815260059190911b8301840190848101908883111561443757600080fd5b8585015b838110156144ca578051858111156144535760008081fd5b86016040818c03601f190181131561446b5760008081fd5b6144736137d8565b89830151888111156144855760008081fd5b6144938e8c8387010161437f565b8252509082015190878211156144a95760008081fd5b6144b78d8b8486010161437f565b818b01528552505091860191860161443b565b5098975050505050505050565b6000602082840312156144e957600080fd5b81516126ef81613580565b60006020828403121561450657600080fd5b6126ef82613be3565b60006020828403121561452157600080fd5b6126ef82613bd4565b60006020828403121561453c57600080fd5b6126ef82613bf2565b602080825260169082015275504d503a20496e76616c696420706172616d5479706560501b604082015260600190565b60006020828403121561458757600080fd5b81356126ef81613580565b6000808335601e198436030181126145a957600080fd5b8301803591506001600160401b038211156145c357600080fd5b6020019150600581901b3603821315612b7257600080fd5b6020808252601f908201527f504d503a2073656c6563744f7074696f6e73206973206e6f7420656d70747900604082015260600190565b602080825260199082015278504d503a206d696e52616e6765203e3d206d617852616e676560381b604082015260600190565b6020815260006126ef6020830184613694565b8082018082111561019457610194613ba5565b6001600160401b03828116828216039080821115611a8057611a80613ba5565b808202811582820484141761019457610194613ba5565b634e487b7160e01b600052601260045260246000fd5b6000826146c7576146c76146a2565b500490565b6020808252601e908201527f504d503a20706172616d2076616c7565206f7574206f6620626f756e64730000604082015260600190565b6020808252601690820152752826a81d1034b73b30b634b2103432bc1031b7b637b960511b604082015260600190565b600082614742576147426146a2565b500690565b8181038181111561019457610194613ba5565b600181815b8085111561479557816000190482111561477b5761477b613ba5565b8085161561478857918102915b93841c939080029061475f565b509250929050565b6000826147ac57506001610194565b816147b957506000610194565b81600181146147cf57600281146147d9576147f5565b6001915050610194565b60ff8411156147ea576147ea613ba5565b50506001821b610194565b5060208310610133831016604e8410600b8410161715614818575081810a610194565b614822838361475a565b806000190482111561483657614836613ba5565b029392505050565b60006126ef838361479d565b600360fc1b815260008251614866816001850160208701613670565b9190910160010192915050565b60008351614885818460208801613670565b601760f91b90830190815283516148a3816001840160208801613670565b01600101949350505050565b6000816148be576148be613ba5565b506000190190565b600083516148d8818460208801613670565b8351908301906148ec818360208801613670565b01949350505050565b6000815260008251614866816001850160208701613670565b6a600b5981380380925939f360a81b8152815160009061493581600b850160208701613670565b91909101600b019291505056fea2646970667358221220d35d5c8e0dd6e773fb4e84f113fb591da6106b5417695f334020f2cf6ba6dce564736f6c63430008160033",
  "linkReferences": {},
  "deployedLinkReferences": {}
}