{
  "_format": "hh-sol-artifact-1",
  "contractName": "SplitAtomicV0",
  "sourceName": "contracts/split/SplitAtomicV0.sol",
  "abi": [
    {
      "inputs": [
        {
          "internalType": "address",
          "name": "target",
          "type": "address"
        }
      ],
      "name": "AddressEmptyCode",
      "type": "error"
    },
    {
      "inputs": [
        {
          "internalType": "address",
          "name": "account",
          "type": "address"
        }
      ],
      "name": "AddressInsufficientBalance",
      "type": "error"
    },
    {
      "inputs": [],
      "name": "FailedInnerCall",
      "type": "error"
    },
    {
      "inputs": [
        {
          "internalType": "address",
          "name": "token",
          "type": "address"
        }
      ],
      "name": "SafeERC20FailedOperation",
      "type": "error"
    },
    {
      "anonymous": false,
      "inputs": [
        {
          "indexed": false,
          "internalType": "address",
          "name": "ERC20TokenAddress",
          "type": "address"
        }
      ],
      "name": "DrainedERC20",
      "type": "event"
    },
    {
      "anonymous": false,
      "inputs": [],
      "name": "DrainedETH",
      "type": "event"
    },
    {
      "anonymous": false,
      "inputs": [
        {
          "indexed": false,
          "internalType": "bytes32",
          "name": "type_",
          "type": "bytes32"
        }
      ],
      "name": "Initialized",
      "type": "event"
    },
    {
      "inputs": [
        {
          "internalType": "address",
          "name": "ERC20TokenAddress",
          "type": "address"
        }
      ],
      "name": "drainERC20",
      "outputs": [],
      "stateMutability": "nonpayable",
      "type": "function"
    },
    {
      "inputs": [],
      "name": "drainETH",
      "outputs": [],
      "stateMutability": "nonpayable",
      "type": "function"
    },
    {
      "inputs": [],
      "name": "getSplits",
      "outputs": [
        {
          "components": [
            {
              "internalType": "address payable",
              "name": "recipient",
              "type": "address"
            },
            {
              "internalType": "uint16",
              "name": "basisPoints",
              "type": "uint16"
            }
          ],
          "internalType": "struct Split[]",
          "name": "",
          "type": "tuple[]"
        }
      ],
      "stateMutability": "view",
      "type": "function"
    },
    {
      "inputs": [
        {
          "components": [
            {
              "internalType": "address payable",
              "name": "recipient",
              "type": "address"
            },
            {
              "internalType": "uint16",
              "name": "basisPoints",
              "type": "uint16"
            }
          ],
          "internalType": "struct Split[]",
          "name": "splits",
          "type": "tuple[]"
        }
      ],
      "name": "initialize",
      "outputs": [],
      "stateMutability": "nonpayable",
      "type": "function"
    },
    {
      "inputs": [],
      "name": "type_",
      "outputs": [
        {
          "internalType": "bytes32",
          "name": "",
          "type": "bytes32"
        }
      ],
      "stateMutability": "view",
      "type": "function"
    },
    {
      "stateMutability": "payable",
      "type": "receive"
    }
  ],
  "bytecode": "0x608060405234801561001057600080fd5b50610bc2806100206000396000f3fe60806040526004361061004e5760003560e01c8063520db9061461007557806366a2d9b0146100a057806379710f07146100d2578063cb88ac16146100f2578063e264172c1461011257600080fd5b366100705761005b610127565b61006434610185565b61006e6001600055565b005b600080fd5b34801561008157600080fd5b5061008a6102cd565b60405161009791906108ea565b60405180910390f35b3480156100ac57600080fd5b506100c46c053706c697441746f6d6963563609c1b81565b604051908152602001610097565b3480156100de57600080fd5b5061006e6100ed36600461095b565b610344565b3480156100fe57600080fd5b5061006e61010d366004610978565b610413565b34801561011e57600080fd5b5061006e6105ca565b60026000540361017e5760405162461bcd60e51b815260206004820152601f60248201527f5265656e7472616e637947756172643a207265656e7472616e742063616c6c0060448201526064015b60405180910390fd5b6002600055565b6002600054146101a75760405162461bcd60e51b8152600401610175906109ec565b60015460005b818110156102c1576000600182815481106101ca576101ca610a23565b60009182526020808320604080518082019091529201546001600160a01b0381168352600160a01b900461ffff169082018190529092506127109061020f9087610a4f565b6102199190610a66565b9050600082600001516001600160a01b03168260405160006040518083038185875af1925050503d806000811461026c576040519150601f19603f3d011682016040523d82523d6000602084013e610271565b606091505b50509050806102b35760405162461bcd60e51b815260206004820152600e60248201526d14185e5b595b9d0819985a5b195960921b6044820152606401610175565b8360010193505050506101ad565b505050565b6001600055565b60606001805480602002602001604051908101604052809291908181526020016000905b8282101561033b57600084815260209081902060408051808201909152908401546001600160a01b0381168252600160a01b900461ffff16818301528252600190920191016102f1565b50505050905090565b61034c610127565b6040516370a0823160e01b81526000906001600160a01b038316906370a082319061037b903090600401610a88565b602060405180830381865afa158015610398573d6000803e3d6000fd5b505050506040513d601f19601f820116820180604052508101906103bc9190610a9c565b905080156103ce576103ce8282610618565b7fd6079f940065d29ba627bf249a62450164c13333078b1f4f3fab6d1e76eca3e6826040516103fd9190610a88565b60405180910390a1506104106001600055565b50565b61041b6106cf565b600081815b8181101561053257600085858381811061043c5761043c610a23565b9050604002018036038101906104529190610ab5565b602081015190915061ffff16801580159061046f57506127108111155b6104b25760405162461bcd60e51b8152602060048201526014602482015273496e76616c696420626173697320706f696e747360601b6044820152606401610175565b60018054808201825560009190915282517fb10e2d527612073b26eecdfd717e6a320cf44b4afac2b0732d9fcbe2b7fa0cf69091018054602085015161ffff16600160a01b026001600160b01b03199091166001600160a01b03909316929092179190911790556105238186610b28565b94508260010192505050610420565b5081612710146105815760405162461bcd60e51b815260206004820152601a602482015279496e76616c696420746f74616c20626173697320706f696e747360301b6044820152606401610175565b6040516c053706c697441746f6d6963563609c1b81527fdc73717d728bcfa015e8117438a65319aa06e979ca324afa6e1ea645c28ea15d9060200160405180910390a150505050565b6105d2610127565b4780156105e2576105e281610185565b6040517f1542e2851d20f49b20e672985cea2bfe198d63937c45e8bd23c0184c9f20baa290600090a1506106166001600055565b565b60026000541461063a5760405162461bcd60e51b8152600401610175906109ec565b6001548260005b828110156106c85760006001828154811061065e5761065e610a23565b60009182526020808320604080518082019091529201546001600160a01b0381168352600160a01b900461ffff16908201819052909250612710906106a39088610a4f565b6106ad9190610a66565b90506106be84836000015183610715565b5050600101610641565b5050505050565b600054156102c65760405162461bcd60e51b8152602060048201526013602482015272105b1c9958591e481a5b9a5d1a585b1a5e9959606a1b6044820152606401610175565b604080516001600160a01b03848116602483015260448083018590528351808403909101815260649092019092526020810180516001600160e01b031663a9059cbb60e01b1790526102c191859190600090610773908416836107b8565b905080516000141580156107985750808060200190518101906107969190610b3b565b155b156102c15782604051635274afe760e01b81526004016101759190610a88565b60606107c6838360006107cf565b90505b92915050565b6060814710156107f4573060405163cd78605960e01b81526004016101759190610a88565b600080856001600160a01b031684866040516108109190610b5d565b60006040518083038185875af1925050503d806000811461084d576040519150601f19603f3d011682016040523d82523d6000602084013e610852565b606091505b509150915061086286838361086e565b925050505b9392505050565b6060826108835761087e826108c1565b610867565b815115801561089a57506001600160a01b0384163b155b156108ba5783604051639996b31560e01b81526004016101759190610a88565b5080610867565b8051156108d15780518082602001fd5b604051630a12f52160e11b815260040160405180910390fd5b602080825282518282018190526000919060409081850190868401855b8281101561093957815180516001600160a01b0316855286015161ffff16868501529284019290850190600101610907565b5091979650505050505050565b6001600160a01b038116811461041057600080fd5b60006020828403121561096d57600080fd5b813561086781610946565b6000806020838503121561098b57600080fd5b82356001600160401b03808211156109a257600080fd5b818501915085601f8301126109b657600080fd5b8135818111156109c557600080fd5b8660208260061b85010111156109da57600080fd5b60209290920196919550909350505050565b6020808252601e908201527f6f6e6c7920696e206e6f6e2d7265656e7472616e742066756e6374696f6e0000604082015260600190565b634e487b7160e01b600052603260045260246000fd5b634e487b7160e01b600052601160045260246000fd5b80820281158282048414176107c9576107c9610a39565b600082610a8357634e487b7160e01b600052601260045260246000fd5b500490565b6001600160a01b0391909116815260200190565b600060208284031215610aae57600080fd5b5051919050565b600060408284031215610ac757600080fd5b604051604081018181106001600160401b0382111715610af757634e487b7160e01b600052604160045260246000fd5b6040528235610b0581610946565b8152602083013561ffff81168114610b1c57600080fd5b60208201529392505050565b808201808211156107c9576107c9610a39565b600060208284031215610b4d57600080fd5b8151801515811461086757600080fd5b6000825160005b81811015610b7e5760208186018101518583015201610b64565b50600092019182525091905056fea26469706673582212206c5db79b543b442daafe3144becbc4378cbbf60e0432bdaccdf095f0c6e5bf9964736f6c63430008160033",
  "linkReferences": {},
  "deployedLinkReferences": {}
}