{
  "_format": "hh-sol-artifact-1",
  "contractName": "ERC20Mock",
  "sourceName": "contracts/mock/ERC20MockAltDecimals.sol",
  "abi": [
    {
      "inputs": [
        {
          "internalType": "uint256",
          "name": "initialSupply",
          "type": "uint256"
        }
      ],
      "stateMutability": "nonpayable",
      "type": "constructor"
    },
    {
      "anonymous": false,
      "inputs": [
        {
          "indexed": true,
          "internalType": "address",
          "name": "owner",
          "type": "address"
        },
        {
          "indexed": true,
          "internalType": "address",
          "name": "spender",
          "type": "address"
        },
        {
          "indexed": false,
          "internalType": "uint256",
          "name": "value",
          "type": "uint256"
        }
      ],
      "name": "Approval",
      "type": "event"
    },
    {
      "anonymous": false,
      "inputs": [
        {
          "indexed": true,
          "internalType": "address",
          "name": "from",
          "type": "address"
        },
        {
          "indexed": true,
          "internalType": "address",
          "name": "to",
          "type": "address"
        },
        {
          "indexed": false,
          "internalType": "uint256",
          "name": "value",
          "type": "uint256"
        }
      ],
      "name": "Transfer",
      "type": "event"
    },
    {
      "inputs": [
        {
          "internalType": "address",
          "name": "owner",
          "type": "address"
        },
        {
          "internalType": "address",
          "name": "spender",
          "type": "address"
        }
      ],
      "name": "allowance",
      "outputs": [
        {
          "internalType": "uint256",
          "name": "",
          "type": "uint256"
        }
      ],
      "stateMutability": "view",
      "type": "function"
    },
    {
      "inputs": [
        {
          "internalType": "address",
          "name": "spender",
          "type": "address"
        },
        {
          "internalType": "uint256",
          "name": "amount",
          "type": "uint256"
        }
      ],
      "name": "approve",
      "outputs": [
        {
          "internalType": "bool",
          "name": "",
          "type": "bool"
        }
      ],
      "stateMutability": "nonpayable",
      "type": "function"
    },
    {
      "inputs": [
        {
          "internalType": "address",
          "name": "account",
          "type": "address"
        }
      ],
      "name": "balanceOf",
      "outputs": [
        {
          "internalType": "uint256",
          "name": "",
          "type": "uint256"
        }
      ],
      "stateMutability": "view",
      "type": "function"
    },
    {
      "inputs": [],
      "name": "bannedReceiver",
      "outputs": [
        {
          "internalType": "address",
          "name": "",
          "type": "address"
        }
      ],
      "stateMutability": "view",
      "type": "function"
    },
    {
      "inputs": [],
      "name": "decimals",
      "outputs": [
        {
          "internalType": "uint8",
          "name": "",
          "type": "uint8"
        }
      ],
      "stateMutability": "view",
      "type": "function"
    },
    {
      "inputs": [
        {
          "internalType": "address",
          "name": "spender",
          "type": "address"
        },
        {
          "internalType": "uint256",
          "name": "subtractedValue",
          "type": "uint256"
        }
      ],
      "name": "decreaseAllowance",
      "outputs": [
        {
          "internalType": "bool",
          "name": "",
          "type": "bool"
        }
      ],
      "stateMutability": "nonpayable",
      "type": "function"
    },
    {
      "inputs": [
        {
          "internalType": "address",
          "name": "spender",
          "type": "address"
        },
        {
          "internalType": "uint256",
          "name": "addedValue",
          "type": "uint256"
        }
      ],
      "name": "increaseAllowance",
      "outputs": [
        {
          "internalType": "bool",
          "name": "",
          "type": "bool"
        }
      ],
      "stateMutability": "nonpayable",
      "type": "function"
    },
    {
      "inputs": [],
      "name": "name",
      "outputs": [
        {
          "internalType": "string",
          "name": "",
          "type": "string"
        }
      ],
      "stateMutability": "view",
      "type": "function"
    },
    {
      "inputs": [],
      "name": "symbol",
      "outputs": [
        {
          "internalType": "string",
          "name": "",
          "type": "string"
        }
      ],
      "stateMutability": "view",
      "type": "function"
    },
    {
      "inputs": [],
      "name": "totalSupply",
      "outputs": [
        {
          "internalType": "uint256",
          "name": "",
          "type": "uint256"
        }
      ],
      "stateMutability": "view",
      "type": "function"
    },
    {
      "inputs": [
        {
          "internalType": "address",
          "name": "to",
          "type": "address"
        },
        {
          "internalType": "uint256",
          "name": "amount",
          "type": "uint256"
        }
      ],
      "name": "transfer",
      "outputs": [
        {
          "internalType": "bool",
          "name": "",
          "type": "bool"
        }
      ],
      "stateMutability": "nonpayable",
      "type": "function"
    },
    {
      "inputs": [
        {
          "internalType": "address",
          "name": "from",
          "type": "address"
        },
        {
          "internalType": "address",
          "name": "to",
          "type": "address"
        },
        {
          "internalType": "uint256",
          "name": "amount",
          "type": "uint256"
        }
      ],
      "name": "transferFrom",
      "outputs": [
        {
          "internalType": "bool",
          "name": "",
          "type": "bool"
        }
      ],
      "stateMutability": "nonpayable",
      "type": "function"
    },
    {
      "inputs": [
        {
          "internalType": "address",
          "name": "account",
          "type": "address"
        }
      ],
      "name": "updateBannedAddress",
      "outputs": [],
      "stateMutability": "nonpayable",
      "type": "function"
    }
  ],
  "bytecode": "0x60806040523480156200001157600080fd5b5060405162000d7738038062000d7783398101604081905262000034916200022d565b6040518060400160405280600a81526020016926b7b1b5902a37b5b2b760b11b815250604051806040016040528060048152602001634d4f434b60e01b8152508160039081620000859190620002ed565b506004620000948282620002ed565b505050620000a93382620000b060201b60201c565b50620003e1565b6001600160a01b0382166200010c5760405162461bcd60e51b815260206004820152601f60248201527f45524332303a206d696e7420746f20746865207a65726f20616464726573730060448201526064015b60405180910390fd5b8060026000828254620001209190620003b9565b90915550506001600160a01b038216600090815260208190526040812080548392906200014f908490620003b9565b90915550506040518181526001600160a01b038316906000907fddf252ad1be2c89b69c2b068fc378daa952ba7f163c4a11628f55a4df523b3ef9060200160405180910390a3620001a360008383620001ac565b5050565b505050565b6005546001600160a01b03908116908316036200021a5760405162461bcd60e51b815260206004820152602560248201527f45524332304d6f636b3a207472616e7366657220746f2062616e6e6564206164604482015264647265737360d81b606482015260840162000103565b620001a78383836001600160e01b038416565b6000602082840312156200024057600080fd5b5051919050565b634e487b7160e01b600052604160045260246000fd5b600181811c908216806200027257607f821691505b6020821081036200029357634e487b7160e01b600052602260045260246000fd5b50919050565b601f821115620001a7576000816000526020600020601f850160051c81016020861015620002c45750805b601f850160051c820191505b81811015620002e557828155600101620002d0565b505050505050565b81516001600160401b0381111562000309576200030962000247565b62000321816200031a84546200025d565b8462000299565b602080601f831160018114620003595760008415620003405750858301515b600019600386901b1c1916600185901b178555620002e5565b600085815260208120601f198616915b828110156200038a5788860151825594840194600190910190840162000369565b5085821015620003a95787850151600019600388901b60f8161c191681555b5050505050600190811b01905550565b80820180821115620003db57634e487b7160e01b600052601160045260246000fd5b92915050565b61098680620003f16000396000f3fe608060405234801561001057600080fd5b50600436106100af5760003560e01c806306fdde03146100b4578063095ea7b3146100d257806318160ddd146100f557806323b872dd14610107578063313ce5671461011a57806339509351146101295780636f6d82e31461013c57806370a082311461016e57806395d89b4114610197578063a457c2d71461019f578063a9059cbb146101b2578063dd62ed3e146101c5578063fed6db29146101d8575b600080fd5b6100bc610203565b6040516100c991906107cf565b60405180910390f35b6100e56100e036600461083a565b610295565b60405190151581526020016100c9565b6002545b6040519081526020016100c9565b6100e5610115366004610864565b6102af565b604051600681526020016100c9565b6100e561013736600461083a565b6102d3565b61016c61014a3660046108a0565b600580546001600160a01b0319166001600160a01b0392909216919091179055565b005b6100f961017c3660046108a0565b6001600160a01b031660009081526020819052604090205490565b6100bc610312565b6100e56101ad36600461083a565b610321565b6100e56101c036600461083a565b6103b8565b6100f96101d33660046108c2565b6103c6565b6005546101eb906001600160a01b031681565b6040516001600160a01b0390911681526020016100c9565b606060038054610212906108f5565b80601f016020809104026020016040519081016040528092919081815260200182805461023e906108f5565b801561028b5780601f106102605761010080835404028352916020019161028b565b820191906000526020600020905b81548152906001019060200180831161026e57829003601f168201915b5050505050905090565b6000336102a38185856103f1565b60019150505b92915050565b6000336102bd858285610515565b6102c885858561058f565b506001949350505050565b3360008181526001602090815260408083206001600160a01b03871684529091528120549091906102a3908290869061030d90879061092f565b6103f1565b606060048054610212906108f5565b3360008181526001602090815260408083206001600160a01b0387168452909152812054909190838110156103ab5760405162461bcd60e51b815260206004820152602560248201527f45524332303a2064656372656173656420616c6c6f77616e63652062656c6f77604482015264207a65726f60d81b60648201526084015b60405180910390fd5b6102c882868684036103f1565b6000336102a381858561058f565b6001600160a01b03918216600090815260016020908152604080832093909416825291909152205490565b6001600160a01b0383166104535760405162461bcd60e51b8152602060048201526024808201527f45524332303a20617070726f76652066726f6d20746865207a65726f206164646044820152637265737360e01b60648201526084016103a2565b6001600160a01b0382166104b45760405162461bcd60e51b815260206004820152602260248201527f45524332303a20617070726f766520746f20746865207a65726f206164647265604482015261737360f01b60648201526084016103a2565b6001600160a01b0383811660008181526001602090815260408083209487168084529482529182902085905590518481527f8c5be1e5ebec7d5bd14f71427d1e84f3dd0314c0f7b2291e5b200ac8c7c3b925910160405180910390a3505050565b600061052184846103c6565b90506000198114610589578181101561057c5760405162461bcd60e51b815260206004820152601d60248201527f45524332303a20696e73756666696369656e7420616c6c6f77616e636500000060448201526064016103a2565b61058984848484036103f1565b50505050565b6001600160a01b0383166105f35760405162461bcd60e51b815260206004820152602560248201527f45524332303a207472616e736665722066726f6d20746865207a65726f206164604482015264647265737360d81b60648201526084016103a2565b6001600160a01b0382166106555760405162461bcd60e51b815260206004820152602360248201527f45524332303a207472616e7366657220746f20746865207a65726f206164647260448201526265737360e81b60648201526084016103a2565b6001600160a01b038316600090815260208190526040902054818110156106cd5760405162461bcd60e51b815260206004820152602660248201527f45524332303a207472616e7366657220616d6f756e7420657863656564732062604482015265616c616e636560d01b60648201526084016103a2565b6001600160a01b0380851660009081526020819052604080822085850390559185168152908120805484929061070490849061092f565b92505081905550826001600160a01b0316846001600160a01b03167fddf252ad1be2c89b69c2b068fc378daa952ba7f163c4a11628f55a4df523b3ef8460405161075091815260200190565b60405180910390a36105898484846005546001600160a01b03908116908316036107ca5760405162461bcd60e51b815260206004820152602560248201527f45524332304d6f636b3a207472616e7366657220746f2062616e6e6564206164604482015264647265737360d81b60648201526084016103a2565b505050565b60006020808352835180602085015260005b818110156107fd578581018301518582016040015282016107e1565b506000604082860101526040601f19601f8301168501019250505092915050565b80356001600160a01b038116811461083557600080fd5b919050565b6000806040838503121561084d57600080fd5b6108568361081e565b946020939093013593505050565b60008060006060848603121561087957600080fd5b6108828461081e565b92506108906020850161081e565b9150604084013590509250925092565b6000602082840312156108b257600080fd5b6108bb8261081e565b9392505050565b600080604083850312156108d557600080fd5b6108de8361081e565b91506108ec6020840161081e565b90509250929050565b600181811c9082168061090957607f821691505b60208210810361092957634e487b7160e01b600052602260045260246000fd5b50919050565b808201808211156102a957634e487b7160e01b600052601160045260246000fdfea26469706673582212209f848d50376202e766606f8c77aafab759f91b25b84ead7a15ac215af19e252c64736f6c63430008160033",
  "linkReferences": {},
  "deployedLinkReferences": {}
}