{
  "_format": "hh-sol-artifact-1",
  "contractName": "MinterSetPriceMerkleV5",
  "sourceName": "contracts/minter-suite/Minters/MinterSetPriceMerkleV5.sol",
  "abi": [
    {
      "inputs": [
        {
          "internalType": "address",
          "name": "_minterFilter",
          "type": "address"
        },
        {
          "internalType": "address",
          "name": "_delegationRegistryAddress",
          "type": "address"
        }
      ],
      "stateMutability": "nonpayable",
      "type": "constructor"
    },
    {
      "anonymous": false,
      "inputs": [
        {
          "indexed": true,
          "internalType": "uint256",
          "name": "_projectId",
          "type": "uint256"
        },
        {
          "indexed": true,
          "internalType": "address",
          "name": "_coreContract",
          "type": "address"
        },
        {
          "indexed": false,
          "internalType": "bytes32",
          "name": "_key",
          "type": "bytes32"
        }
      ],
      "name": "ConfigKeyRemoved",
      "type": "event"
    },
    {
      "anonymous": false,
      "inputs": [
        {
          "indexed": true,
          "internalType": "uint256",
          "name": "_projectId",
          "type": "uint256"
        },
        {
          "indexed": true,
          "internalType": "address",
          "name": "_coreContract",
          "type": "address"
        },
        {
          "indexed": false,
          "internalType": "bytes32",
          "name": "_key",
          "type": "bytes32"
        },
        {
          "indexed": false,
          "internalType": "uint256",
          "name": "_value",
          "type": "uint256"
        }
      ],
      "name": "ConfigValueAddedToSet",
      "type": "event"
    },
    {
      "anonymous": false,
      "inputs": [
        {
          "indexed": true,
          "internalType": "uint256",
          "name": "_projectId",
          "type": "uint256"
        },
        {
          "indexed": true,
          "internalType": "address",
          "name": "_coreContract",
          "type": "address"
        },
        {
          "indexed": false,
          "internalType": "bytes32",
          "name": "_key",
          "type": "bytes32"
        },
        {
          "indexed": false,
          "internalType": "address",
          "name": "_value",
          "type": "address"
        }
      ],
      "name": "ConfigValueAddedToSet",
      "type": "event"
    },
    {
      "anonymous": false,
      "inputs": [
        {
          "indexed": true,
          "internalType": "uint256",
          "name": "_projectId",
          "type": "uint256"
        },
        {
          "indexed": true,
          "internalType": "address",
          "name": "_coreContract",
          "type": "address"
        },
        {
          "indexed": false,
          "internalType": "bytes32",
          "name": "_key",
          "type": "bytes32"
        },
        {
          "indexed": false,
          "internalType": "bytes32",
          "name": "_value",
          "type": "bytes32"
        }
      ],
      "name": "ConfigValueAddedToSet",
      "type": "event"
    },
    {
      "anonymous": false,
      "inputs": [
        {
          "indexed": true,
          "internalType": "uint256",
          "name": "_projectId",
          "type": "uint256"
        },
        {
          "indexed": true,
          "internalType": "address",
          "name": "_coreContract",
          "type": "address"
        },
        {
          "indexed": false,
          "internalType": "bytes32",
          "name": "_key",
          "type": "bytes32"
        },
        {
          "indexed": false,
          "internalType": "uint256",
          "name": "_value",
          "type": "uint256"
        }
      ],
      "name": "ConfigValueRemovedFromSet",
      "type": "event"
    },
    {
      "anonymous": false,
      "inputs": [
        {
          "indexed": true,
          "internalType": "uint256",
          "name": "_projectId",
          "type": "uint256"
        },
        {
          "indexed": true,
          "internalType": "address",
          "name": "_coreContract",
          "type": "address"
        },
        {
          "indexed": false,
          "internalType": "bytes32",
          "name": "_key",
          "type": "bytes32"
        },
        {
          "indexed": false,
          "internalType": "address",
          "name": "_value",
          "type": "address"
        }
      ],
      "name": "ConfigValueRemovedFromSet",
      "type": "event"
    },
    {
      "anonymous": false,
      "inputs": [
        {
          "indexed": true,
          "internalType": "uint256",
          "name": "_projectId",
          "type": "uint256"
        },
        {
          "indexed": true,
          "internalType": "address",
          "name": "_coreContract",
          "type": "address"
        },
        {
          "indexed": false,
          "internalType": "bytes32",
          "name": "_key",
          "type": "bytes32"
        },
        {
          "indexed": false,
          "internalType": "bytes32",
          "name": "_value",
          "type": "bytes32"
        }
      ],
      "name": "ConfigValueRemovedFromSet",
      "type": "event"
    },
    {
      "anonymous": false,
      "inputs": [
        {
          "indexed": true,
          "internalType": "uint256",
          "name": "_projectId",
          "type": "uint256"
        },
        {
          "indexed": true,
          "internalType": "address",
          "name": "_coreContract",
          "type": "address"
        },
        {
          "indexed": false,
          "internalType": "bytes32",
          "name": "_key",
          "type": "bytes32"
        },
        {
          "indexed": false,
          "internalType": "bool",
          "name": "_value",
          "type": "bool"
        }
      ],
      "name": "ConfigValueSet",
      "type": "event"
    },
    {
      "anonymous": false,
      "inputs": [
        {
          "indexed": true,
          "internalType": "uint256",
          "name": "_projectId",
          "type": "uint256"
        },
        {
          "indexed": true,
          "internalType": "address",
          "name": "_coreContract",
          "type": "address"
        },
        {
          "indexed": false,
          "internalType": "bytes32",
          "name": "_key",
          "type": "bytes32"
        },
        {
          "indexed": false,
          "internalType": "uint256",
          "name": "_value",
          "type": "uint256"
        }
      ],
      "name": "ConfigValueSet",
      "type": "event"
    },
    {
      "anonymous": false,
      "inputs": [
        {
          "indexed": true,
          "internalType": "uint256",
          "name": "_projectId",
          "type": "uint256"
        },
        {
          "indexed": true,
          "internalType": "address",
          "name": "_coreContract",
          "type": "address"
        },
        {
          "indexed": false,
          "internalType": "bytes32",
          "name": "_key",
          "type": "bytes32"
        },
        {
          "indexed": false,
          "internalType": "address",
          "name": "_value",
          "type": "address"
        }
      ],
      "name": "ConfigValueSet",
      "type": "event"
    },
    {
      "anonymous": false,
      "inputs": [
        {
          "indexed": true,
          "internalType": "uint256",
          "name": "_projectId",
          "type": "uint256"
        },
        {
          "indexed": true,
          "internalType": "address",
          "name": "_coreContract",
          "type": "address"
        },
        {
          "indexed": false,
          "internalType": "bytes32",
          "name": "_key",
          "type": "bytes32"
        },
        {
          "indexed": false,
          "internalType": "bytes32",
          "name": "_value",
          "type": "bytes32"
        }
      ],
      "name": "ConfigValueSet",
      "type": "event"
    },
    {
      "anonymous": false,
      "inputs": [
        {
          "indexed": false,
          "internalType": "uint256",
          "name": "defaultMaxInvocationsPerAddress",
          "type": "uint256"
        }
      ],
      "name": "DefaultMaxInvocationsPerAddress",
      "type": "event"
    },
    {
      "anonymous": false,
      "inputs": [
        {
          "indexed": false,
          "internalType": "address",
          "name": "delegationRegistry",
          "type": "address"
        }
      ],
      "name": "DelegationRegistryUpdated",
      "type": "event"
    },
    {
      "anonymous": false,
      "inputs": [
        {
          "indexed": true,
          "internalType": "uint256",
          "name": "_projectId",
          "type": "uint256"
        },
        {
          "indexed": true,
          "internalType": "address",
          "name": "_coreContract",
          "type": "address"
        },
        {
          "indexed": true,
          "internalType": "uint256",
          "name": "_pricePerTokenInWei",
          "type": "uint256"
        }
      ],
      "name": "PricePerTokenInWeiUpdated",
      "type": "event"
    },
    {
      "anonymous": false,
      "inputs": [
        {
          "indexed": true,
          "internalType": "uint256",
          "name": "_projectId",
          "type": "uint256"
        },
        {
          "indexed": true,
          "internalType": "address",
          "name": "_coreContract",
          "type": "address"
        },
        {
          "indexed": true,
          "internalType": "address",
          "name": "_currencyAddress",
          "type": "address"
        },
        {
          "indexed": false,
          "internalType": "string",
          "name": "_currencySymbol",
          "type": "string"
        }
      ],
      "name": "ProjectCurrencyInfoUpdated",
      "type": "event"
    },
    {
      "anonymous": false,
      "inputs": [
        {
          "indexed": true,
          "internalType": "uint256",
          "name": "_projectId",
          "type": "uint256"
        },
        {
          "indexed": true,
          "internalType": "address",
          "name": "_coreContract",
          "type": "address"
        },
        {
          "indexed": false,
          "internalType": "uint256",
          "name": "_maxInvocations",
          "type": "uint256"
        }
      ],
      "name": "ProjectMaxInvocationsLimitUpdated",
      "type": "event"
    },
    {
      "inputs": [],
      "name": "delegationRegistryAddress",
      "outputs": [
        {
          "internalType": "address",
          "name": "",
          "type": "address"
        }
      ],
      "stateMutability": "view",
      "type": "function"
    },
    {
      "inputs": [
        {
          "internalType": "uint256",
          "name": "_projectId",
          "type": "uint256"
        },
        {
          "internalType": "address",
          "name": "_coreContract",
          "type": "address"
        }
      ],
      "name": "getPriceInfo",
      "outputs": [
        {
          "internalType": "bool",
          "name": "isConfigured",
          "type": "bool"
        },
        {
          "internalType": "uint256",
          "name": "tokenPriceInWei",
          "type": "uint256"
        },
        {
          "internalType": "string",
          "name": "currencySymbol",
          "type": "string"
        },
        {
          "internalType": "address",
          "name": "currencyAddress",
          "type": "address"
        }
      ],
      "stateMutability": "view",
      "type": "function"
    },
    {
      "inputs": [
        {
          "internalType": "address",
          "name": "_address",
          "type": "address"
        }
      ],
      "name": "hashAddress",
      "outputs": [
        {
          "internalType": "bytes32",
          "name": "",
          "type": "bytes32"
        }
      ],
      "stateMutability": "pure",
      "type": "function"
    },
    {
      "inputs": [
        {
          "internalType": "address",
          "name": "_coreContract",
          "type": "address"
        }
      ],
      "name": "isEngineView",
      "outputs": [
        {
          "internalType": "bool",
          "name": "",
          "type": "bool"
        }
      ],
      "stateMutability": "view",
      "type": "function"
    },
    {
      "inputs": [
        {
          "internalType": "uint256",
          "name": "_projectId",
          "type": "uint256"
        },
        {
          "internalType": "address",
          "name": "_coreContract",
          "type": "address"
        },
        {
          "internalType": "uint24",
          "name": "_maxInvocations",
          "type": "uint24"
        }
      ],
      "name": "manuallyLimitProjectMaxInvocations",
      "outputs": [],
      "stateMutability": "nonpayable",
      "type": "function"
    },
    {
      "inputs": [
        {
          "internalType": "uint256",
          "name": "_projectId",
          "type": "uint256"
        },
        {
          "internalType": "address",
          "name": "_coreContract",
          "type": "address"
        }
      ],
      "name": "maxInvocationsProjectConfig",
      "outputs": [
        {
          "components": [
            {
              "internalType": "bool",
              "name": "maxHasBeenInvoked",
              "type": "bool"
            },
            {
              "internalType": "uint24",
              "name": "maxInvocations",
              "type": "uint24"
            }
          ],
          "internalType": "struct MaxInvocationsLib.MaxInvocationsProjectConfig",
          "name": "",
          "type": "tuple"
        }
      ],
      "stateMutability": "view",
      "type": "function"
    },
    {
      "inputs": [
        {
          "internalType": "uint256",
          "name": "_projectId",
          "type": "uint256"
        },
        {
          "internalType": "address",
          "name": "_coreContract",
          "type": "address"
        }
      ],
      "name": "merkleProjectConfig",
      "outputs": [
        {
          "internalType": "bool",
          "name": "",
          "type": "bool"
        },
        {
          "internalType": "uint24",
          "name": "",
          "type": "uint24"
        },
        {
          "internalType": "bytes32",
          "name": "",
          "type": "bytes32"
        }
      ],
      "stateMutability": "view",
      "type": "function"
    },
    {
      "inputs": [],
      "name": "minterFilterAddress",
      "outputs": [
        {
          "internalType": "address",
          "name": "",
          "type": "address"
        }
      ],
      "stateMutability": "view",
      "type": "function"
    },
    {
      "inputs": [],
      "name": "minterType",
      "outputs": [
        {
          "internalType": "string",
          "name": "",
          "type": "string"
        }
      ],
      "stateMutability": "view",
      "type": "function"
    },
    {
      "inputs": [],
      "name": "minterVersion",
      "outputs": [
        {
          "internalType": "string",
          "name": "",
          "type": "string"
        }
      ],
      "stateMutability": "view",
      "type": "function"
    },
    {
      "inputs": [
        {
          "internalType": "bytes32[]",
          "name": "_proof",
          "type": "bytes32[]"
        },
        {
          "internalType": "address",
          "name": "_address",
          "type": "address"
        }
      ],
      "name": "processProofForAddress",
      "outputs": [
        {
          "internalType": "bytes32",
          "name": "",
          "type": "bytes32"
        }
      ],
      "stateMutability": "pure",
      "type": "function"
    },
    {
      "inputs": [
        {
          "internalType": "uint256",
          "name": "_projectId",
          "type": "uint256"
        },
        {
          "internalType": "address",
          "name": "_coreContract",
          "type": "address"
        }
      ],
      "name": "projectConfig",
      "outputs": [
        {
          "components": [
            {
              "internalType": "uint248",
              "name": "pricePerTokenInWei",
              "type": "uint248"
            },
            {
              "internalType": "bool",
              "name": "priceIsConfigured",
              "type": "bool"
            }
          ],
          "internalType": "struct ISharedMinterV0.ProjectConfig",
          "name": "",
          "type": "tuple"
        }
      ],
      "stateMutability": "view",
      "type": "function"
    },
    {
      "inputs": [
        {
          "internalType": "uint256",
          "name": "_projectId",
          "type": "uint256"
        },
        {
          "internalType": "address",
          "name": "_coreContract",
          "type": "address"
        }
      ],
      "name": "projectMaxHasBeenInvoked",
      "outputs": [
        {
          "internalType": "bool",
          "name": "",
          "type": "bool"
        }
      ],
      "stateMutability": "view",
      "type": "function"
    },
    {
      "inputs": [
        {
          "internalType": "uint256",
          "name": "_projectId",
          "type": "uint256"
        },
        {
          "internalType": "address",
          "name": "_coreContract",
          "type": "address"
        }
      ],
      "name": "projectMaxInvocations",
      "outputs": [
        {
          "internalType": "uint256",
          "name": "",
          "type": "uint256"
        }
      ],
      "stateMutability": "view",
      "type": "function"
    },
    {
      "inputs": [
        {
          "internalType": "uint256",
          "name": "_projectId",
          "type": "uint256"
        },
        {
          "internalType": "address",
          "name": "_coreContract",
          "type": "address"
        }
      ],
      "name": "projectMaxInvocationsPerAddress",
      "outputs": [
        {
          "internalType": "uint256",
          "name": "",
          "type": "uint256"
        }
      ],
      "stateMutability": "view",
      "type": "function"
    },
    {
      "inputs": [
        {
          "internalType": "uint256",
          "name": "_projectId",
          "type": "uint256"
        },
        {
          "internalType": "address",
          "name": "_coreContract",
          "type": "address"
        },
        {
          "internalType": "address",
          "name": "_address",
          "type": "address"
        }
      ],
      "name": "projectRemainingInvocationsForAddress",
      "outputs": [
        {
          "internalType": "bool",
          "name": "projectLimitsMintInvocationsPerAddress",
          "type": "bool"
        },
        {
          "internalType": "uint256",
          "name": "mintInvocationsRemaining",
          "type": "uint256"
        }
      ],
      "stateMutability": "view",
      "type": "function"
    },
    {
      "inputs": [
        {
          "internalType": "uint256",
          "name": "_projectId",
          "type": "uint256"
        },
        {
          "internalType": "address",
          "name": "_coreContract",
          "type": "address"
        },
        {
          "internalType": "address",
          "name": "_purchaser",
          "type": "address"
        }
      ],
      "name": "projectUserMintInvocations",
      "outputs": [
        {
          "internalType": "uint256",
          "name": "",
          "type": "uint256"
        }
      ],
      "stateMutability": "view",
      "type": "function"
    },
    {
      "inputs": [
        {
          "internalType": "uint256",
          "name": "",
          "type": "uint256"
        },
        {
          "internalType": "address",
          "name": "",
          "type": "address"
        }
      ],
      "name": "purchase",
      "outputs": [
        {
          "internalType": "uint256",
          "name": "",
          "type": "uint256"
        }
      ],
      "stateMutability": "payable",
      "type": "function"
    },
    {
      "inputs": [
        {
          "internalType": "uint256",
          "name": "_projectId",
          "type": "uint256"
        },
        {
          "internalType": "address",
          "name": "_coreContract",
          "type": "address"
        },
        {
          "internalType": "bytes32[]",
          "name": "_proof",
          "type": "bytes32[]"
        }
      ],
      "name": "purchase",
      "outputs": [
        {
          "internalType": "uint256",
          "name": "tokenId",
          "type": "uint256"
        }
      ],
      "stateMutability": "payable",
      "type": "function"
    },
    {
      "inputs": [
        {
          "internalType": "address",
          "name": "_to",
          "type": "address"
        },
        {
          "internalType": "uint256",
          "name": "_projectId",
          "type": "uint256"
        },
        {
          "internalType": "address",
          "name": "_coreContract",
          "type": "address"
        },
        {
          "internalType": "bytes32[]",
          "name": "_proof",
          "type": "bytes32[]"
        }
      ],
      "name": "purchaseTo",
      "outputs": [
        {
          "internalType": "uint256",
          "name": "tokenId",
          "type": "uint256"
        }
      ],
      "stateMutability": "payable",
      "type": "function"
    },
    {
      "inputs": [
        {
          "internalType": "address",
          "name": "",
          "type": "address"
        },
        {
          "internalType": "uint256",
          "name": "",
          "type": "uint256"
        },
        {
          "internalType": "address",
          "name": "",
          "type": "address"
        }
      ],
      "name": "purchaseTo",
      "outputs": [
        {
          "internalType": "uint256",
          "name": "",
          "type": "uint256"
        }
      ],
      "stateMutability": "payable",
      "type": "function"
    },
    {
      "inputs": [
        {
          "internalType": "address",
          "name": "_to",
          "type": "address"
        },
        {
          "internalType": "uint256",
          "name": "_projectId",
          "type": "uint256"
        },
        {
          "internalType": "address",
          "name": "_coreContract",
          "type": "address"
        },
        {
          "internalType": "bytes32[]",
          "name": "_proof",
          "type": "bytes32[]"
        },
        {
          "internalType": "address",
          "name": "_vault",
          "type": "address"
        }
      ],
      "name": "purchaseTo",
      "outputs": [
        {
          "internalType": "uint256",
          "name": "tokenId",
          "type": "uint256"
        }
      ],
      "stateMutability": "payable",
      "type": "function"
    },
    {
      "inputs": [
        {
          "internalType": "uint256",
          "name": "_projectId",
          "type": "uint256"
        },
        {
          "internalType": "address",
          "name": "_coreContract",
          "type": "address"
        },
        {
          "internalType": "uint24",
          "name": "_maxInvocationsPerAddress",
          "type": "uint24"
        }
      ],
      "name": "setProjectInvocationsPerAddress",
      "outputs": [],
      "stateMutability": "nonpayable",
      "type": "function"
    },
    {
      "inputs": [
        {
          "internalType": "uint256",
          "name": "_projectId",
          "type": "uint256"
        },
        {
          "internalType": "address",
          "name": "_coreContract",
          "type": "address"
        }
      ],
      "name": "syncProjectMaxInvocationsToCore",
      "outputs": [],
      "stateMutability": "nonpayable",
      "type": "function"
    },
    {
      "inputs": [
        {
          "internalType": "uint256",
          "name": "_projectId",
          "type": "uint256"
        },
        {
          "internalType": "address",
          "name": "_coreContract",
          "type": "address"
        },
        {
          "internalType": "bytes32",
          "name": "_root",
          "type": "bytes32"
        }
      ],
      "name": "updateMerkleRoot",
      "outputs": [],
      "stateMutability": "nonpayable",
      "type": "function"
    },
    {
      "inputs": [
        {
          "internalType": "uint256",
          "name": "_projectId",
          "type": "uint256"
        },
        {
          "internalType": "address",
          "name": "_coreContract",
          "type": "address"
        },
        {
          "internalType": "uint248",
          "name": "_pricePerTokenInWei",
          "type": "uint248"
        }
      ],
      "name": "updatePricePerTokenInWei",
      "outputs": [],
      "stateMutability": "nonpayable",
      "type": "function"
    }
  ],
  "bytecode": "0x6101006040523480156200001257600080fd5b5060405162002417380380620024178339810160408190526200003591620000e5565b60016000556001600160a01b03828116608081905260a052811660c081905260e08190526040519081527f836360d1b094a7de3c3eab3d1185f3a5939467c23d4a12709dbdbf8c8d7e2f3b9060200160405180910390a1604051600181527fb004e34bc1718c504fde68324f2eba80b0329056f240eaaa6803c286c4b9e7ed9060200160405180910390a150506200011d565b80516001600160a01b0381168114620000e057600080fd5b919050565b60008060408385031215620000f957600080fd5b6200010483620000c8565b91506200011460208401620000c8565b90509250929050565b60805160a05160c05160e0516122c06200015760003960006109d30152600061051a01526000610b830152600061068c01526122c06000f3fe6080604052600436106101315760003560e01c806301000da7146101365780631467b1f71461016b5780631ec2e5231461018c5780633aa5fe59146101ac57806340e5fa3b146101cc5780634869f3df146102035780634e8d87871461024d57806350a9e842146102605780635cf0a411146102b35780636ece43dc146102c65780637e947f241461033e5780638b4eb61d146103605780639a94488a14610380578063a84d172c14610418578063ae77c237146104ba578063b000e334146104c8578063b466dded146104e8578063bf5bf5f814610508578063cce7c90914610554578063d3ddabe614610597578063d9bffbce146105d6578063d9eb16db146105f6578063dd85582f1461067a578063e9d1e8ac146106ae578063eb7eb95a146106f0578063ef2c8cc714610703575b600080fd5b34801561014257600080fd5b50610156610151366004611bc8565b610723565b60405190151581526020015b60405180910390f35b61017e610179366004611c30565b610764565b604051908152602001610162565b34801561019857600080fd5b5061017e6101a7366004611ca2565b61077f565b3480156101b857600080fd5b5061017e6101c7366004611bc8565b610794565b3480156101d857600080fd5b506101ec6101e7366004611cf8565b6107a5565b604080519215158352602083019190915201610162565b34801561020f57600080fd5b5061017e61021e366004611d2f565b6001600160a01b031660009081526004602090815260408083209383529290522054610100900462ffffff1690565b61017e61025b366004611d5f565b6107e1565b34801561026c57600080fd5b5061017e61027b366004611cf8565b6001600160a01b0391821660009081526003602090815260408083209583529481528482209290931681526002909101909152205490565b61017e6102c1366004611d96565b61082d565b3480156102d257600080fd5b5061031d6102e1366004611d2f565b6001600160a01b0316600090815260036020908152604080832093835292905220805460019091015460ff82169261010090920462ffffff1691565b60408051931515845262ffffff909216602084015290820152606001610162565b34801561034a57600080fd5b5061035e610359366004611e1a565b610c78565b005b34801561036c57600080fd5b5061017e61037b366004611d2f565b610d39565b34801561038c57600080fd5b506103f661039b366004611d2f565b6040805180820190915260008082526020820152506001600160a01b031660009081526004602090815260408083209383529281529082902082518084019093525460ff811615158352610100900462ffffff169082015290565b6040805182511515815260209283015162ffffff169281019290925201610162565b34801561042457600080fd5b50610494610433366004611d2f565b6040805180820190915260008082526020820152506001600160a01b03166000908152600160209081526040808320938352928152908290208251808401909352546001600160f81b0381168352600160f81b900460ff1615159082015290565b6040805182516001600160f81b0316815260209283015115159281019290925201610162565b61017e61025b366004611d2f565b3480156104d457600080fd5b5061035e6104e3366004611e5d565b610d65565b3480156104f457600080fd5b5061035e610503366004611e9c565b610dec565b34801561051457600080fd5b5061053c7f000000000000000000000000000000000000000000000000000000000000000081565b6040516001600160a01b039091168152602001610162565b34801561056057600080fd5b5061015661056f366004611d2f565b6001600160a01b03166000908152600460209081526040808320938352929052205460ff1690565b3480156105a357600080fd5b506105c960405180604001604052806006815260200165076352e302e360d41b81525081565b6040516101629190611f24565b3480156105e257600080fd5b5061035e6105f1366004611d2f565b610eb8565b34801561060257600080fd5b5061066a610611366004611d2f565b6001600160a01b03166000908152600160209081526040808320938352928152828220548351808501909452600384526208aa8960eb1b9184019190915260ff600160f81b820416936001600160f81b03909116929190565b6040516101629493929190611f37565b34801561068657600080fd5b5061053c7f000000000000000000000000000000000000000000000000000000000000000081565b3480156106ba57600080fd5b506105c9604051806040016040528060168152602001754d696e74657253657450726963654d65726b6c65563560501b81525081565b61017e6106fe366004611f71565b610f30565b34801561070f57600080fd5b5061035e61071e366004611e5d565b610f4a565b6001600160a01b03811660009081526002602052604081208054610100900460ff1615610754575460ff1692915050565b61075d83611048565b9392505050565b60006107758686868686600061082d565b9695505050505050565b600061078c848484611180565b949350505050565b600061079f82611197565b92915050565b6001600160a01b0382166000908152600360209081526040808320868452909152812081906107d481856111d1565b9250925050935093915050565b60405162461bcd60e51b815260206004820152601960248201527826bab9ba10383937bb34b2329026b2b935b63290383937b7b360391b60448201526000906064015b60405180910390fd5b60006002600054036108815760405162461bcd60e51b815260206004820152601f60248201527f5265656e7472616e637947756172643a207265656e7472616e742063616c6c006044820152606401610824565b600260009081556001600160a01b0386168082526001602090815260408084208a85528252808420838552600483528185208b86528352818520938552600383528185208b8652909252909220815460ff16156108f05760405162461bcd60e51b815260040161082490611fcc565b8254600160f81b900460ff1661093f5760405162461bcd60e51b8152602060048201526014602482015273141c9a58d9481b9bdd0818dbdb999a59dd5c995960621b6044820152606401610824565b82546001600160f81b0316348111156109935760405162461bcd60e51b815260206004820152601660248201527526b4b7103b30b63ab2903a379036b4b73a103932b89760511b6044820152606401610824565b336001600160a01b03871615610a945760405163090c9a2d60e41b81523360048201526001600160a01b0388811660248301528b811660448301526000917f0000000000000000000000000000000000000000000000000000000000000000909116906390c9a2d090606401602060405180830381865afa158015610a1c573d6000803e3d6000fd5b505050506040513d601f19601f82011682018060405250810190610a40919061200d565b905080610a8f5760405162461bcd60e51b815260206004820152601e60248201527f496e76616c69642064656c65676174652d7661756c742070616972696e6700006044820152606401610824565b879150505b610aa483600101548a8a8461121e565b610ae75760405162461bcd60e51b815260206004820152601460248201527324b73b30b634b21026b2b935b63290383937b7b360611b6044820152606401610824565b6000610af284611236565b6001600160a01b0383166000908152600286016020526040902054909150811180610b1b575080155b610b375760405162461bcd60e51b815260040161082490611fcc565b6001600160a01b0380831660009081526002860160205260409081902080546001019055516117cd60e21b81528e82166004820152602481018e90528c821660448201523360648201527f000000000000000000000000000000000000000000000000000000000000000090911690615f34906084016020604051808303816000875af1158015610bcc573d6000803e3d6000fd5b505050506040513d601f19601f82011682018060405250810190610bf09190612028565b9650610c3187600460008e6001600160a01b03166001600160a01b0316815260200190815260200160002060008f815260200190815260200160002061125f565b6001600160a01b038b166000908152600260205260408120610c54908d906112ae565b9050610c628d858e846112e0565b5050505050505060016000559695505050505050565b610c828383611397565b6001600160a01b03821660008181526001602090815260408083208784529091528082206001600160f81b038516600160f81b8117825591519093919287917f37a132f63521ff11fed0c526f0f30824337316bb2b71fcfc0b6f3cf631595b5f9190a46001600160a01b038316600090815260046020908152604080832087845290915290208054610100900462ffffff16158015610d235750805460ff16155b15610d3257610d328585610eb8565b5050505050565b6001600160a01b0381166000908152600360209081526040808320858452909152812061078c81611236565b610d6f8383611397565b6001600160a01b03821660009081526004602090815260408083208684529091529020610da190849084908490611452565b60405162ffffff821681526001600160a01b0383169084907f1c3e74a6c6fefbaeee166b031cd2016349c6c863d5188b67c9bbd0b0dcb2e237906020015b60405180910390a3505050565b610df68383611397565b80610e3b5760405162461bcd60e51b8152602060048201526015602482015274149bdbdd081b5d5cdd081899481c1c9bdd9a591959605a1b6044820152606401610824565b6001600160a01b03821660009081526003602090815260408083208684529091529020610e6890826114d9565b60408051691b595c9adb19549bdbdd60b21b8152602081018390526001600160a01b0384169185917fbd2962ddf019622ba935ab411adde29d756d1db6d628d89b2a174cdf6538b8d59101610ddf565b610ec28282611397565b6001600160a01b03811660009081526004602090815260408083208584529091528120610ef29084908490611522565b9050816001600160a01b0316837f1c3e74a6c6fefbaeee166b031cd2016349c6c863d5188b67c9bbd0b0dcb2e23783604051610ddf91815260200190565b6000610f413386868686600061082d565b95945050505050565b610f548383611397565b6001600160a01b03821660008181526003602090815260408083208784528252918290208054600163ffffffff1990911661010062ffffff8816021781179091558251797573654d61784d696e7473506572416464724f7665727269646560301b815291820152815186927fbb5f9d4f49f83650956b76c40de0f082a06430bf0222e1b6b3f90a7a0f845c4d928290030190a360408051766d61784d696e7473506572416464724f7665727269646560481b815262ffffff831660208201526001600160a01b0384169185917f1809fd1f08e6b0df08fd848757688435a0ab8520a51dcca23eba5a3c7f7280d69101610ddf565b6040516000602482018190526044820181905290819060640160408051601f198184030181529181526020820180516001600160e01b0316638639415b60e01b1790525190915060009081906001600160a01b038616906110aa908590612041565b600060405180830381855afa9150503d80600081146110e5576040519150601f19603f3d011682016040523d82523d6000602084013e6110ea565b606091505b50915091508161110c5760405162461bcd60e51b81526004016108249061205d565b805160c08190036111235750600095945050505050565b80610100036111385750600195945050505050565b60405162461bcd60e51b815260206004820152601e60248201527f556e657870656374656420726576656e75652073706c697420627974657300006044820152606401610824565b600061078c61118e83611197565b859085906115c7565b6040516001600160601b0319606083901b166020820152600090603401604051602081830303815290604052805190602001209050919050565b60008060006111df85611236565b90508015611216576001600160a01b038416600090815260028601602052604090205460019350808211156112145780820392505b505b509250929050565b6000610f418561122d84611197565b86918691611613565b805460009060ff1615611252575054610100900462ffffff1690565b506001919050565b919050565b8054620f4240830660010190610100900462ffffff16808211156112955760405162461bcd60e51b815260040161082490611fcc565b8082036112a857825460ff191660011783555b50505050565b8054600090610100900460ff16156112cb5750805460ff1661079f565b60006112d7848461162b565b915061079f9050565b34156112a8576000806112f385346120b8565b905080156113835760405133908290600081818185875af1925050503d806000811461133b576040519150601f19603f3d011682016040523d82523d6000602084013e611340565b606091505b505080925050816113835760405162461bcd60e51b815260206004820152600d60248201526c1499599d5b990819985a5b1959609a1b6044820152606401610824565b61138f8686868661173b565b505050505050565b60405163a47d29cb60e01b8152600481018390526001600160a01b0382169063a47d29cb90602401602060405180830381865afa1580156113dc573d6000803e3d6000fd5b505050506040513d601f19601f8201168201806040525081019061140091906120cb565b6001600160a01b0316336001600160a01b03161461144e5760405162461bcd60e51b815260206004820152600b60248201526a13db9b1e48105c9d1a5cdd60aa1b6044820152606401610824565b5050565b60008061145f8686611b06565b91509150808462ffffff1611156114885760405162461bcd60e51b8152600401610824906120e8565b818462ffffff1610156114ad5760405162461bcd60e51b8152600401610824906120e8565b50815460ff1962ffffff90941661010081029490941663ffffffff199091161792149190911790555050565b8061151a5760405162461bcd60e51b8152602060048201526011602482015270135d5cdd081c1c9bdd9a5919481c9bdbdd607a1b6044820152606401610824565b600190910155565b6000806000846001600160a01b0316630ea5613f876040518263ffffffff1660e01b815260040161155591815260200190565b60c060405180830381865afa158015611572573d6000803e3d6000fd5b505050506040513d601f19601f820116820180604052508101906115969190612119565b5050875493831463ffffffff1990941661010062ffffff85160260ff19161793909317909655979650505050505050565b600081815b8481101561160a576115f6828787848181106115ea576115ea612178565b90506020020135611b84565b9150806116028161218e565b9150506115cc565b50949350505050565b6000826116218686856115c7565b1495945050505050565b6040516000602482018190526044820181905290819060640160408051601f198184030181529181526020820180516001600160e01b0316638639415b60e01b1790525190915060009081906001600160a01b0387169061168d908590612041565b6000604051808303816000865af19150503d80600081146116ca576040519150601f19603f3d011682016040523d82523d6000602084013e6116cf565b606091505b5091509150816116f15760405162461bcd60e51b81526004016108249061205d565b805160c0819003611717575050835461ffff1916610100178455506000915061079f9050565b8061010003611138575050835461ffff1916610101178455506001915061079f9050565b82156112a8576000806000806000806000871561188c57604051638639415b60e01b8152600481018c9052602481018b905260009081906001600160a01b038c1690638639415b9060440161010060405180830381865afa1580156117a4573d6000803e3d6000fd5b505050506040513d601f19601f820116820180604052508101906117c891906121a7565b969e50949c50909a50985091965091945090925090508115611885576040516001600160a01b038216908390600081818185875af1925050503d806000811461182d576040519150601f19603f3d011682016040523d82523d6000602084013e611832565b606091505b505080995050886118855760405162461bcd60e51b815260206004820181905260248201527f506c6174666f726d2050726f7669646572207061796d656e74206661696c65646044820152606401610824565b505061190c565b604051638639415b60e01b8152600481018c9052602481018b90526001600160a01b038a1690638639415b9060440160c060405180830381865afa1580156118d8573d6000803e3d6000fd5b505050506040513d601f19601f820116820180604052508101906118fc919061222f565b949a509298509096509450925090505b85156119b3576040516001600160a01b038616908790600081818185875af1925050503d806000811461195b576040519150601f19603f3d011682016040523d82523d6000602084013e611960565b606091505b505080975050866119b35760405162461bcd60e51b815260206004820152601e60248201527f52656e6465722050726f7669646572207061796d656e74206661696c656400006044820152606401610824565b8315611a52576040516001600160a01b038416908590600081818185875af1925050503d8060008114611a02576040519150601f19603f3d011682016040523d82523d6000602084013e611a07565b606091505b50508097505086611a525760405162461bcd60e51b8152602060048201526015602482015274105c9d1a5cdd081c185e5b595b9d0819985a5b1959605a1b6044820152606401610824565b8115611af9576040516001600160a01b038216908390600081818185875af1925050503d8060008114611aa1576040519150601f19603f3d011682016040523d82523d6000602084013e611aa6565b606091505b50508097505086611af95760405162461bcd60e51b815260206004820152601f60248201527f4164646974696f6e616c205061796565207061796d656e74206661696c6564006044820152606401610824565b5050505050505050505050565b604051630ea5613f60e01b81526004810183905260009081906001600160a01b03841690630ea5613f9060240160c060405180830381865afa158015611b50573d6000803e3d6000fd5b505050506040513d601f19601f82011682018060405250810190611b749190612119565b5093989297509195505050505050565b6000818310611ba057600082815260208490526040902061075d565b5060009182526020526040902090565b6001600160a01b0381168114611bc557600080fd5b50565b600060208284031215611bda57600080fd5b813561075d81611bb0565b60008083601f840112611bf757600080fd5b5081356001600160401b03811115611c0e57600080fd5b6020830191508360208260051b8501011115611c2957600080fd5b9250929050565b600080600080600060808688031215611c4857600080fd5b8535611c5381611bb0565b9450602086013593506040860135611c6a81611bb0565b925060608601356001600160401b03811115611c8557600080fd5b611c9188828901611be5565b969995985093965092949392505050565b600080600060408486031215611cb757600080fd5b83356001600160401b03811115611ccd57600080fd5b611cd986828701611be5565b9094509250506020840135611ced81611bb0565b809150509250925092565b600080600060608486031215611d0d57600080fd5b833592506020840135611d1f81611bb0565b91506040840135611ced81611bb0565b60008060408385031215611d4257600080fd5b823591506020830135611d5481611bb0565b809150509250929050565b600080600060608486031215611d7457600080fd5b8335611d7f81611bb0565b9250602084013591506040840135611ced81611bb0565b60008060008060008060a08789031215611daf57600080fd5b8635611dba81611bb0565b9550602087013594506040870135611dd181611bb0565b935060608701356001600160401b03811115611dec57600080fd5b611df889828a01611be5565b9094509250506080870135611e0c81611bb0565b809150509295509295509295565b600080600060608486031215611e2f57600080fd5b833592506020840135611e4181611bb0565b915060408401356001600160f81b0381168114611ced57600080fd5b600080600060608486031215611e7257600080fd5b833592506020840135611e8481611bb0565b9150604084013562ffffff81168114611ced57600080fd5b600080600060608486031215611eb157600080fd5b833592506020840135611ec381611bb0565b929592945050506040919091013590565b60005b83811015611eef578181015183820152602001611ed7565b50506000910152565b60008151808452611f10816020860160208601611ed4565b601f01601f19169290920160200192915050565b60208152600061075d6020830184611ef8565b8415158152836020820152608060408201526000611f586080830185611ef8565b905060018060a01b038316606083015295945050505050565b60008060008060608587031215611f8757600080fd5b843593506020850135611f9981611bb0565b925060408501356001600160401b03811115611fb457600080fd5b611fc087828801611be5565b95989497509550505050565b60208082526017908201527613585e081a5b9d9bd8d85d1a5bdb9cc81c995858da1959604a1b604082015260600190565b8051801515811461125a57600080fd5b60006020828403121561201f57600080fd5b61075d82611ffd565b60006020828403121561203a57600080fd5b5051919050565b60008251612053818460208701611ed4565b9190910192915050565b60208082526025908201527f6765745072696d617279526576656e756553706c69747328292063616c6c2066604082015264185a5b195960da1b606082015260800190565b634e487b7160e01b600052601160045260246000fd5b8181038181111561079f5761079f6120a2565b6000602082840312156120dd57600080fd5b815161075d81611bb0565b602080825260179082015276496e76616c6964206d617820696e766f636174696f6e7360481b604082015260600190565b60008060008060008060c0878903121561213257600080fd5b865195506020870151945061214960408801611ffd565b935061215760608801611ffd565b92506080870151915061216c60a08801611ffd565b90509295509295509295565b634e487b7160e01b600052603260045260246000fd5b6000600182016121a0576121a06120a2565b5060010190565b600080600080600080600080610100898b0312156121c457600080fd5b8851975060208901516121d681611bb0565b60408a015160608b015191985096506121ee81611bb0565b60808a015160a08b0151919650945061220681611bb0565b60c08a015160e08b0151919450925061221e81611bb0565b809150509295985092959890939650565b60008060008060008060c0878903121561224857600080fd5b86519550602087015161225a81611bb0565b60408801516060890151919650945061227281611bb0565b608088015160a08901519194509250611e0c81611bb056fea26469706673582212204016f37d904468cebec32f4daa3b091f888eb9e198c8a8aad133dc503e29ad7164736f6c63430008130033",
  "linkReferences": {},
  "deployedLinkReferences": {}
}