{
  "_format": "hh-sol-artifact-1",
  "contractName": "MinterSetPriceV5",
  "sourceName": "contracts/minter-suite/Minters/MinterSetPriceV5.sol",
  "abi": [
    {
      "inputs": [
        {
          "internalType": "address",
          "name": "_minterFilter",
          "type": "address"
        }
      ],
      "stateMutability": "nonpayable",
      "type": "constructor"
    },
    {
      "anonymous": false,
      "inputs": [
        {
          "indexed": true,
          "internalType": "uint256",
          "name": "_projectId",
          "type": "uint256"
        },
        {
          "indexed": true,
          "internalType": "address",
          "name": "_coreContract",
          "type": "address"
        },
        {
          "indexed": false,
          "internalType": "bytes32",
          "name": "_key",
          "type": "bytes32"
        }
      ],
      "name": "ConfigKeyRemoved",
      "type": "event"
    },
    {
      "anonymous": false,
      "inputs": [
        {
          "indexed": true,
          "internalType": "uint256",
          "name": "_projectId",
          "type": "uint256"
        },
        {
          "indexed": true,
          "internalType": "address",
          "name": "_coreContract",
          "type": "address"
        },
        {
          "indexed": false,
          "internalType": "bytes32",
          "name": "_key",
          "type": "bytes32"
        },
        {
          "indexed": false,
          "internalType": "uint256",
          "name": "_value",
          "type": "uint256"
        }
      ],
      "name": "ConfigValueAddedToSet",
      "type": "event"
    },
    {
      "anonymous": false,
      "inputs": [
        {
          "indexed": true,
          "internalType": "uint256",
          "name": "_projectId",
          "type": "uint256"
        },
        {
          "indexed": true,
          "internalType": "address",
          "name": "_coreContract",
          "type": "address"
        },
        {
          "indexed": false,
          "internalType": "bytes32",
          "name": "_key",
          "type": "bytes32"
        },
        {
          "indexed": false,
          "internalType": "address",
          "name": "_value",
          "type": "address"
        }
      ],
      "name": "ConfigValueAddedToSet",
      "type": "event"
    },
    {
      "anonymous": false,
      "inputs": [
        {
          "indexed": true,
          "internalType": "uint256",
          "name": "_projectId",
          "type": "uint256"
        },
        {
          "indexed": true,
          "internalType": "address",
          "name": "_coreContract",
          "type": "address"
        },
        {
          "indexed": false,
          "internalType": "bytes32",
          "name": "_key",
          "type": "bytes32"
        },
        {
          "indexed": false,
          "internalType": "bytes32",
          "name": "_value",
          "type": "bytes32"
        }
      ],
      "name": "ConfigValueAddedToSet",
      "type": "event"
    },
    {
      "anonymous": false,
      "inputs": [
        {
          "indexed": true,
          "internalType": "uint256",
          "name": "_projectId",
          "type": "uint256"
        },
        {
          "indexed": true,
          "internalType": "address",
          "name": "_coreContract",
          "type": "address"
        },
        {
          "indexed": false,
          "internalType": "bytes32",
          "name": "_key",
          "type": "bytes32"
        },
        {
          "indexed": false,
          "internalType": "uint256",
          "name": "_value",
          "type": "uint256"
        }
      ],
      "name": "ConfigValueRemovedFromSet",
      "type": "event"
    },
    {
      "anonymous": false,
      "inputs": [
        {
          "indexed": true,
          "internalType": "uint256",
          "name": "_projectId",
          "type": "uint256"
        },
        {
          "indexed": true,
          "internalType": "address",
          "name": "_coreContract",
          "type": "address"
        },
        {
          "indexed": false,
          "internalType": "bytes32",
          "name": "_key",
          "type": "bytes32"
        },
        {
          "indexed": false,
          "internalType": "address",
          "name": "_value",
          "type": "address"
        }
      ],
      "name": "ConfigValueRemovedFromSet",
      "type": "event"
    },
    {
      "anonymous": false,
      "inputs": [
        {
          "indexed": true,
          "internalType": "uint256",
          "name": "_projectId",
          "type": "uint256"
        },
        {
          "indexed": true,
          "internalType": "address",
          "name": "_coreContract",
          "type": "address"
        },
        {
          "indexed": false,
          "internalType": "bytes32",
          "name": "_key",
          "type": "bytes32"
        },
        {
          "indexed": false,
          "internalType": "bytes32",
          "name": "_value",
          "type": "bytes32"
        }
      ],
      "name": "ConfigValueRemovedFromSet",
      "type": "event"
    },
    {
      "anonymous": false,
      "inputs": [
        {
          "indexed": true,
          "internalType": "uint256",
          "name": "_projectId",
          "type": "uint256"
        },
        {
          "indexed": true,
          "internalType": "address",
          "name": "_coreContract",
          "type": "address"
        },
        {
          "indexed": false,
          "internalType": "bytes32",
          "name": "_key",
          "type": "bytes32"
        },
        {
          "indexed": false,
          "internalType": "bool",
          "name": "_value",
          "type": "bool"
        }
      ],
      "name": "ConfigValueSet",
      "type": "event"
    },
    {
      "anonymous": false,
      "inputs": [
        {
          "indexed": true,
          "internalType": "uint256",
          "name": "_projectId",
          "type": "uint256"
        },
        {
          "indexed": true,
          "internalType": "address",
          "name": "_coreContract",
          "type": "address"
        },
        {
          "indexed": false,
          "internalType": "bytes32",
          "name": "_key",
          "type": "bytes32"
        },
        {
          "indexed": false,
          "internalType": "uint256",
          "name": "_value",
          "type": "uint256"
        }
      ],
      "name": "ConfigValueSet",
      "type": "event"
    },
    {
      "anonymous": false,
      "inputs": [
        {
          "indexed": true,
          "internalType": "uint256",
          "name": "_projectId",
          "type": "uint256"
        },
        {
          "indexed": true,
          "internalType": "address",
          "name": "_coreContract",
          "type": "address"
        },
        {
          "indexed": false,
          "internalType": "bytes32",
          "name": "_key",
          "type": "bytes32"
        },
        {
          "indexed": false,
          "internalType": "address",
          "name": "_value",
          "type": "address"
        }
      ],
      "name": "ConfigValueSet",
      "type": "event"
    },
    {
      "anonymous": false,
      "inputs": [
        {
          "indexed": true,
          "internalType": "uint256",
          "name": "_projectId",
          "type": "uint256"
        },
        {
          "indexed": true,
          "internalType": "address",
          "name": "_coreContract",
          "type": "address"
        },
        {
          "indexed": false,
          "internalType": "bytes32",
          "name": "_key",
          "type": "bytes32"
        },
        {
          "indexed": false,
          "internalType": "bytes32",
          "name": "_value",
          "type": "bytes32"
        }
      ],
      "name": "ConfigValueSet",
      "type": "event"
    },
    {
      "anonymous": false,
      "inputs": [
        {
          "indexed": true,
          "internalType": "uint256",
          "name": "_projectId",
          "type": "uint256"
        },
        {
          "indexed": true,
          "internalType": "address",
          "name": "_coreContract",
          "type": "address"
        },
        {
          "indexed": true,
          "internalType": "uint256",
          "name": "_pricePerTokenInWei",
          "type": "uint256"
        }
      ],
      "name": "PricePerTokenInWeiUpdated",
      "type": "event"
    },
    {
      "anonymous": false,
      "inputs": [
        {
          "indexed": true,
          "internalType": "uint256",
          "name": "_projectId",
          "type": "uint256"
        },
        {
          "indexed": true,
          "internalType": "address",
          "name": "_coreContract",
          "type": "address"
        },
        {
          "indexed": true,
          "internalType": "address",
          "name": "_currencyAddress",
          "type": "address"
        },
        {
          "indexed": false,
          "internalType": "string",
          "name": "_currencySymbol",
          "type": "string"
        }
      ],
      "name": "ProjectCurrencyInfoUpdated",
      "type": "event"
    },
    {
      "anonymous": false,
      "inputs": [
        {
          "indexed": true,
          "internalType": "uint256",
          "name": "_projectId",
          "type": "uint256"
        },
        {
          "indexed": true,
          "internalType": "address",
          "name": "_coreContract",
          "type": "address"
        },
        {
          "indexed": false,
          "internalType": "uint256",
          "name": "_maxInvocations",
          "type": "uint256"
        }
      ],
      "name": "ProjectMaxInvocationsLimitUpdated",
      "type": "event"
    },
    {
      "inputs": [
        {
          "internalType": "uint256",
          "name": "_projectId",
          "type": "uint256"
        },
        {
          "internalType": "address",
          "name": "_coreContract",
          "type": "address"
        }
      ],
      "name": "getPriceInfo",
      "outputs": [
        {
          "internalType": "bool",
          "name": "isConfigured",
          "type": "bool"
        },
        {
          "internalType": "uint256",
          "name": "tokenPriceInWei",
          "type": "uint256"
        },
        {
          "internalType": "string",
          "name": "currencySymbol",
          "type": "string"
        },
        {
          "internalType": "address",
          "name": "currencyAddress",
          "type": "address"
        }
      ],
      "stateMutability": "view",
      "type": "function"
    },
    {
      "inputs": [
        {
          "internalType": "address",
          "name": "_coreContract",
          "type": "address"
        }
      ],
      "name": "isEngineView",
      "outputs": [
        {
          "internalType": "bool",
          "name": "",
          "type": "bool"
        }
      ],
      "stateMutability": "view",
      "type": "function"
    },
    {
      "inputs": [
        {
          "internalType": "uint256",
          "name": "_projectId",
          "type": "uint256"
        },
        {
          "internalType": "address",
          "name": "_coreContract",
          "type": "address"
        },
        {
          "internalType": "uint24",
          "name": "_maxInvocations",
          "type": "uint24"
        }
      ],
      "name": "manuallyLimitProjectMaxInvocations",
      "outputs": [],
      "stateMutability": "nonpayable",
      "type": "function"
    },
    {
      "inputs": [
        {
          "internalType": "uint256",
          "name": "_projectId",
          "type": "uint256"
        },
        {
          "internalType": "address",
          "name": "_coreContract",
          "type": "address"
        }
      ],
      "name": "maxInvocationsProjectConfig",
      "outputs": [
        {
          "components": [
            {
              "internalType": "bool",
              "name": "maxHasBeenInvoked",
              "type": "bool"
            },
            {
              "internalType": "uint24",
              "name": "maxInvocations",
              "type": "uint24"
            }
          ],
          "internalType": "struct MaxInvocationsLib.MaxInvocationsProjectConfig",
          "name": "",
          "type": "tuple"
        }
      ],
      "stateMutability": "view",
      "type": "function"
    },
    {
      "inputs": [],
      "name": "minterFilterAddress",
      "outputs": [
        {
          "internalType": "address",
          "name": "",
          "type": "address"
        }
      ],
      "stateMutability": "view",
      "type": "function"
    },
    {
      "inputs": [],
      "name": "minterType",
      "outputs": [
        {
          "internalType": "string",
          "name": "",
          "type": "string"
        }
      ],
      "stateMutability": "view",
      "type": "function"
    },
    {
      "inputs": [],
      "name": "minterVersion",
      "outputs": [
        {
          "internalType": "string",
          "name": "",
          "type": "string"
        }
      ],
      "stateMutability": "view",
      "type": "function"
    },
    {
      "inputs": [
        {
          "internalType": "uint256",
          "name": "_projectId",
          "type": "uint256"
        },
        {
          "internalType": "address",
          "name": "_coreContract",
          "type": "address"
        }
      ],
      "name": "projectConfig",
      "outputs": [
        {
          "components": [
            {
              "internalType": "uint248",
              "name": "pricePerTokenInWei",
              "type": "uint248"
            },
            {
              "internalType": "bool",
              "name": "priceIsConfigured",
              "type": "bool"
            }
          ],
          "internalType": "struct ISharedMinterV0.ProjectConfig",
          "name": "",
          "type": "tuple"
        }
      ],
      "stateMutability": "view",
      "type": "function"
    },
    {
      "inputs": [
        {
          "internalType": "uint256",
          "name": "_projectId",
          "type": "uint256"
        },
        {
          "internalType": "address",
          "name": "_coreContract",
          "type": "address"
        }
      ],
      "name": "projectMaxHasBeenInvoked",
      "outputs": [
        {
          "internalType": "bool",
          "name": "",
          "type": "bool"
        }
      ],
      "stateMutability": "view",
      "type": "function"
    },
    {
      "inputs": [
        {
          "internalType": "uint256",
          "name": "_projectId",
          "type": "uint256"
        },
        {
          "internalType": "address",
          "name": "_coreContract",
          "type": "address"
        }
      ],
      "name": "projectMaxInvocations",
      "outputs": [
        {
          "internalType": "uint256",
          "name": "",
          "type": "uint256"
        }
      ],
      "stateMutability": "view",
      "type": "function"
    },
    {
      "inputs": [
        {
          "internalType": "uint256",
          "name": "_projectId",
          "type": "uint256"
        },
        {
          "internalType": "address",
          "name": "_coreContract",
          "type": "address"
        }
      ],
      "name": "purchase",
      "outputs": [
        {
          "internalType": "uint256",
          "name": "tokenId",
          "type": "uint256"
        }
      ],
      "stateMutability": "payable",
      "type": "function"
    },
    {
      "inputs": [
        {
          "internalType": "address",
          "name": "_to",
          "type": "address"
        },
        {
          "internalType": "uint256",
          "name": "_projectId",
          "type": "uint256"
        },
        {
          "internalType": "address",
          "name": "_coreContract",
          "type": "address"
        }
      ],
      "name": "purchaseTo",
      "outputs": [
        {
          "internalType": "uint256",
          "name": "tokenId",
          "type": "uint256"
        }
      ],
      "stateMutability": "payable",
      "type": "function"
    },
    {
      "inputs": [
        {
          "internalType": "uint256",
          "name": "_projectId",
          "type": "uint256"
        },
        {
          "internalType": "address",
          "name": "_coreContract",
          "type": "address"
        }
      ],
      "name": "syncProjectMaxInvocationsToCore",
      "outputs": [],
      "stateMutability": "nonpayable",
      "type": "function"
    },
    {
      "inputs": [
        {
          "internalType": "uint256",
          "name": "_projectId",
          "type": "uint256"
        },
        {
          "internalType": "address",
          "name": "_coreContract",
          "type": "address"
        },
        {
          "internalType": "uint248",
          "name": "_pricePerTokenInWei",
          "type": "uint248"
        }
      ],
      "name": "updatePricePerTokenInWei",
      "outputs": [],
      "stateMutability": "nonpayable",
      "type": "function"
    }
  ],
  "bytecode": "0x60c060405234801561001057600080fd5b506040516117da3803806117da83398101604081905261002f9161004a565b60016000556001600160a01b0316608081905260a05261007a565b60006020828403121561005c57600080fd5b81516001600160a01b038116811461007357600080fd5b9392505050565b60805160a05161173b61009f6000396000610666015260006103ef015261173b6000f3fe6080604052600436106100ad5760003560e01c806301000da7146100b25780634869f3df146100e75780634e8d8787146101155780637e947f24146101285780639a94488a1461014a578063a84d172c146101e2578063ae77c23714610284578063b000e33414610297578063cce7c909146102b7578063d3ddabe6146102fa578063d9bffbce14610339578063d9eb16db14610359578063dd85582f146103dd578063e9d1e8ac14610429575b600080fd5b3480156100be57600080fd5b506100d26100cd3660046112d8565b610465565b60405190151581526020015b60405180910390f35b3480156100f357600080fd5b506101076101023660046112f5565b6104a6565b6040519081526020016100de565b610107610123366004611325565b6104db565b34801561013457600080fd5b50610148610143366004611367565b610743565b005b34801561015657600080fd5b506101c06101653660046112f5565b6040805180820190915260008082526020820152506001600160a01b031660009081526003602090815260408083209383529281529082902082518084019093525460ff811615158352610100900462ffffff169082015290565b6040805182511515815260209283015162ffffff1692810192909252016100de565b3480156101ee57600080fd5b5061025e6101fd3660046112f5565b6040805180820190915260008082526020820152506001600160a01b03166000908152600160209081526040808320938352928152908290208251808401909352546001600160f81b0381168352600160f81b900460ff1615159082015290565b6040805182516001600160f81b03168152602092830151151592810192909252016100de565b6101076102923660046112f5565b610804565b3480156102a357600080fd5b506101486102b23660046113aa565b610811565b3480156102c357600080fd5b506100d26102d23660046112f5565b6001600160a01b03166000908152600360209081526040808320938352929052205460ff1690565b34801561030657600080fd5b5061032c60405180604001604052806006815260200165076352e302e360d41b81525081565b6040516100de9190611439565b34801561034557600080fd5b506101486103543660046112f5565b610898565b34801561036557600080fd5b506103cd6103743660046112f5565b6001600160a01b03166000908152600160209081526040808320938352928152828220548351808501909452600384526208aa8960eb1b9184019190915260ff600160f81b820416936001600160f81b03909116929190565b6040516100de949392919061144c565b3480156103e957600080fd5b506104117f000000000000000000000000000000000000000000000000000000000000000081565b6040516001600160a01b0390911681526020016100de565b34801561043557600080fd5b5061032c6040518060400160405280601081526020016f4d696e7465725365745072696365563560801b81525081565b6001600160a01b03811660009081526002602052604081208054610100900460ff1615610496575460ff1692915050565b61049f83610910565b9392505050565b6001600160a01b0381166000908152600360209081526040808320858452909152902054610100900462ffffff165b92915050565b60006002600054036105345760405162461bcd60e51b815260206004820152601f60248201527f5265656e7472616e637947756172643a207265656e7472616e742063616c6c0060448201526064015b60405180910390fd5b600260009081556001600160a01b038316808252600160209081526040808420878552825280842092845260038252808420878552909152909120805460ff16156105915760405162461bcd60e51b815260040161052b90611486565b8154600160f81b900460ff166105e05760405162461bcd60e51b8152602060048201526014602482015273141c9a58d9481b9bdd0818dbdb999a59dd5c995960621b604482015260640161052b565b81546001600160f81b0316348111156106345760405162461bcd60e51b815260206004820152601660248201527526b4b7103b30b63ab2903a379036b4b73a103932b89760511b604482015260640161052b565b6040516117cd60e21b81526001600160a01b0388811660048301526024820188905286811660448301523360648301527f00000000000000000000000000000000000000000000000000000000000000001690615f34906084016020604051808303816000875af11580156106ad573d6000803e3d6000fd5b505050506040513d601f19601f820116820180604052508101906106d191906114b7565b6001600160a01b03861660009081526003602090815260408083208a84529091529020909450610702908590610a48565b6001600160a01b0385166000908152600260205260408120610725908790610a97565b905061073387838884610ac9565b5050505060016000559392505050565b61074d8383610b80565b6001600160a01b03821660008181526001602090815260408083208784529091528082206001600160f81b038516600160f81b8117825591519093919287917f37a132f63521ff11fed0c526f0f30824337316bb2b71fcfc0b6f3cf631595b5f9190a46001600160a01b038316600090815260036020908152604080832087845290915290208054610100900462ffffff161580156107ee5750805460ff16155b156107fd576107fd8585610898565b5050505050565b600061049f3384846104db565b61081b8383610b80565b6001600160a01b0382166000908152600360209081526040808320868452909152902061084d90849084908490610c3b565b60405162ffffff821681526001600160a01b0383169084907f1c3e74a6c6fefbaeee166b031cd2016349c6c863d5188b67c9bbd0b0dcb2e237906020015b60405180910390a3505050565b6108a28282610b80565b6001600160a01b038116600090815260036020908152604080832085845290915281206108d29084908490610cc2565b9050816001600160a01b0316837f1c3e74a6c6fefbaeee166b031cd2016349c6c863d5188b67c9bbd0b0dcb2e2378360405161088b91815260200190565b6040516000602482018190526044820181905290819060640160408051601f198184030181529181526020820180516001600160e01b0316638639415b60e01b1790525190915060009081906001600160a01b038616906109729085906114d0565b600060405180830381855afa9150503d80600081146109ad576040519150601f19603f3d011682016040523d82523d6000602084013e6109b2565b606091505b5091509150816109d45760405162461bcd60e51b815260040161052b906114ec565b805160c08190036109eb5750600095945050505050565b8061010003610a005750600195945050505050565b60405162461bcd60e51b815260206004820152601e60248201527f556e657870656374656420726576656e75652073706c69742062797465730000604482015260640161052b565b8054620f4240830660010190610100900462ffffff1680821115610a7e5760405162461bcd60e51b815260040161052b90611486565b808203610a9157825460ff191660011783555b50505050565b8054600090610100900460ff1615610ab45750805460ff166104d5565b6000610ac08484610d67565b91506104d59050565b3415610a9157600080610adc8534611531565b90508015610b6c5760405133908290600081818185875af1925050503d8060008114610b24576040519150601f19603f3d011682016040523d82523d6000602084013e610b29565b606091505b50508092505081610b6c5760405162461bcd60e51b815260206004820152600d60248201526c1499599d5b990819985a5b1959609a1b604482015260640161052b565b610b7886868686610e77565b505050505050565b60405163a47d29cb60e01b8152600481018390526001600160a01b0382169063a47d29cb90602401602060405180830381865afa158015610bc5573d6000803e3d6000fd5b505050506040513d601f19601f82011682018060405250810190610be99190611552565b6001600160a01b0316336001600160a01b031614610c375760405162461bcd60e51b815260206004820152600b60248201526a13db9b1e48105c9d1a5cdd60aa1b604482015260640161052b565b5050565b600080610c488686611242565b91509150808462ffffff161115610c715760405162461bcd60e51b815260040161052b9061156f565b818462ffffff161015610c965760405162461bcd60e51b815260040161052b9061156f565b50815460ff1962ffffff90941661010081029490941663ffffffff199091161792149190911790555050565b6000806000846001600160a01b0316630ea5613f876040518263ffffffff1660e01b8152600401610cf591815260200190565b60c060405180830381865afa158015610d12573d6000803e3d6000fd5b505050506040513d601f19601f82011682018060405250810190610d3691906115b5565b5050875493831463ffffffff1990941661010062ffffff85160260ff19161793909317909655979650505050505050565b6040516000602482018190526044820181905290819060640160408051601f198184030181529181526020820180516001600160e01b0316638639415b60e01b1790525190915060009081906001600160a01b03871690610dc99085906114d0565b6000604051808303816000865af19150503d8060008114610e06576040519150601f19603f3d011682016040523d82523d6000602084013e610e0b565b606091505b509150915081610e2d5760405162461bcd60e51b815260040161052b906114ec565b805160c0819003610e53575050835461ffff191661010017845550600091506104d59050565b8061010003610a00575050835461ffff191661010117845550600191506104d59050565b8215610a915760008060008060008060008715610fc857604051638639415b60e01b8152600481018c9052602481018b905260009081906001600160a01b038c1690638639415b9060440161010060405180830381865afa158015610ee0573d6000803e3d6000fd5b505050506040513d601f19601f82011682018060405250810190610f049190611614565b969e50949c50909a50985091965091945090925090508115610fc1576040516001600160a01b038216908390600081818185875af1925050503d8060008114610f69576040519150601f19603f3d011682016040523d82523d6000602084013e610f6e565b606091505b50508099505088610fc15760405162461bcd60e51b815260206004820181905260248201527f506c6174666f726d2050726f7669646572207061796d656e74206661696c6564604482015260640161052b565b5050611048565b604051638639415b60e01b8152600481018c9052602481018b90526001600160a01b038a1690638639415b9060440160c060405180830381865afa158015611014573d6000803e3d6000fd5b505050506040513d601f19601f82011682018060405250810190611038919061169c565b949a509298509096509450925090505b85156110ef576040516001600160a01b038616908790600081818185875af1925050503d8060008114611097576040519150601f19603f3d011682016040523d82523d6000602084013e61109c565b606091505b505080975050866110ef5760405162461bcd60e51b815260206004820152601e60248201527f52656e6465722050726f7669646572207061796d656e74206661696c65640000604482015260640161052b565b831561118e576040516001600160a01b038416908590600081818185875af1925050503d806000811461113e576040519150601f19603f3d011682016040523d82523d6000602084013e611143565b606091505b5050809750508661118e5760405162461bcd60e51b8152602060048201526015602482015274105c9d1a5cdd081c185e5b595b9d0819985a5b1959605a1b604482015260640161052b565b8115611235576040516001600160a01b038216908390600081818185875af1925050503d80600081146111dd576040519150601f19603f3d011682016040523d82523d6000602084013e6111e2565b606091505b505080975050866112355760405162461bcd60e51b815260206004820152601f60248201527f4164646974696f6e616c205061796565207061796d656e74206661696c656400604482015260640161052b565b5050505050505050505050565b604051630ea5613f60e01b81526004810183905260009081906001600160a01b03841690630ea5613f9060240160c060405180830381865afa15801561128c573d6000803e3d6000fd5b505050506040513d601f19601f820116820180604052508101906112b091906115b5565b5093989297509195505050505050565b6001600160a01b03811681146112d557600080fd5b50565b6000602082840312156112ea57600080fd5b813561049f816112c0565b6000806040838503121561130857600080fd5b82359150602083013561131a816112c0565b809150509250929050565b60008060006060848603121561133a57600080fd5b8335611345816112c0565b925060208401359150604084013561135c816112c0565b809150509250925092565b60008060006060848603121561137c57600080fd5b83359250602084013561138e816112c0565b915060408401356001600160f81b038116811461135c57600080fd5b6000806000606084860312156113bf57600080fd5b8335925060208401356113d1816112c0565b9150604084013562ffffff8116811461135c57600080fd5b60005b838110156114045781810151838201526020016113ec565b50506000910152565b600081518084526114258160208601602086016113e9565b601f01601f19169290920160200192915050565b60208152600061049f602083018461140d565b841515815283602082015260806040820152600061146d608083018561140d565b905060018060a01b038316606083015295945050505050565b60208082526017908201527613585e081a5b9d9bd8d85d1a5bdb9cc81c995858da1959604a1b604082015260600190565b6000602082840312156114c957600080fd5b5051919050565b600082516114e28184602087016113e9565b9190910192915050565b60208082526025908201527f6765745072696d617279526576656e756553706c69747328292063616c6c2066604082015264185a5b195960da1b606082015260800190565b818103818111156104d557634e487b7160e01b600052601160045260246000fd5b60006020828403121561156457600080fd5b815161049f816112c0565b602080825260179082015276496e76616c6964206d617820696e766f636174696f6e7360481b604082015260600190565b805180151581146115b057600080fd5b919050565b60008060008060008060c087890312156115ce57600080fd5b86519550602087015194506115e5604088016115a0565b93506115f3606088016115a0565b92506080870151915061160860a088016115a0565b90509295509295509295565b600080600080600080600080610100898b03121561163157600080fd5b885197506020890151611643816112c0565b60408a015160608b0151919850965061165b816112c0565b60808a015160a08b01519196509450611673816112c0565b60c08a015160e08b0151919450925061168b816112c0565b809150509295985092959890939650565b60008060008060008060c087890312156116b557600080fd5b8651955060208701516116c7816112c0565b6040880151606089015191965094506116df816112c0565b608088015160a089015191945092506116f7816112c0565b80915050929550929550929556fea2646970667358221220be94131ee90d5d533048f8257b548c7adb39e91d44f283aa47a87e3dbba8d28b64736f6c63430008130033",
  "linkReferences": {},
  "deployedLinkReferences": {}
}