{
  "_format": "hh-sol-artifact-1",
  "contractName": "MinterMinPriceV0",
  "sourceName": "contracts/minter-suite/Minters/MinterMinPriceV0.sol",
  "abi": [
    {
      "inputs": [
        {
          "internalType": "address",
          "name": "minterFilter",
          "type": "address"
        },
        {
          "internalType": "uint256",
          "name": "defaultMinMintFee_",
          "type": "uint256"
        }
      ],
      "stateMutability": "nonpayable",
      "type": "constructor"
    },
    {
      "inputs": [],
      "name": "defaultMinMintFee",
      "outputs": [
        {
          "internalType": "uint256",
          "name": "",
          "type": "uint256"
        }
      ],
      "stateMutability": "view",
      "type": "function"
    },
    {
      "inputs": [
        {
          "internalType": "uint256",
          "name": "projectId",
          "type": "uint256"
        },
        {
          "internalType": "address",
          "name": "coreContract",
          "type": "address"
        }
      ],
      "name": "getPriceInfo",
      "outputs": [
        {
          "internalType": "bool",
          "name": "isConfigured",
          "type": "bool"
        },
        {
          "internalType": "uint256",
          "name": "tokenPriceInWei",
          "type": "uint256"
        },
        {
          "internalType": "string",
          "name": "currencySymbol",
          "type": "string"
        },
        {
          "internalType": "address",
          "name": "currencyAddress",
          "type": "address"
        }
      ],
      "stateMutability": "view",
      "type": "function"
    },
    {
      "inputs": [
        {
          "internalType": "address",
          "name": "coreContract",
          "type": "address"
        }
      ],
      "name": "isEngineView",
      "outputs": [
        {
          "internalType": "bool",
          "name": "",
          "type": "bool"
        }
      ],
      "stateMutability": "view",
      "type": "function"
    },
    {
      "inputs": [
        {
          "internalType": "uint256",
          "name": "projectId",
          "type": "uint256"
        },
        {
          "internalType": "address",
          "name": "coreContract",
          "type": "address"
        },
        {
          "internalType": "uint24",
          "name": "maxInvocations",
          "type": "uint24"
        }
      ],
      "name": "manuallyLimitProjectMaxInvocations",
      "outputs": [],
      "stateMutability": "nonpayable",
      "type": "function"
    },
    {
      "inputs": [
        {
          "internalType": "uint256",
          "name": "projectId",
          "type": "uint256"
        },
        {
          "internalType": "address",
          "name": "coreContract",
          "type": "address"
        }
      ],
      "name": "maxInvocationsProjectConfig",
      "outputs": [
        {
          "components": [
            {
              "internalType": "bool",
              "name": "maxHasBeenInvoked",
              "type": "bool"
            },
            {
              "internalType": "uint24",
              "name": "maxInvocations",
              "type": "uint24"
            }
          ],
          "internalType": "struct MaxInvocationsLib.MaxInvocationsProjectConfig",
          "name": "",
          "type": "tuple"
        }
      ],
      "stateMutability": "view",
      "type": "function"
    },
    {
      "inputs": [],
      "name": "minterFilterAddress",
      "outputs": [
        {
          "internalType": "address",
          "name": "",
          "type": "address"
        }
      ],
      "stateMutability": "view",
      "type": "function"
    },
    {
      "inputs": [],
      "name": "minterType",
      "outputs": [
        {
          "internalType": "string",
          "name": "",
          "type": "string"
        }
      ],
      "stateMutability": "view",
      "type": "function"
    },
    {
      "inputs": [],
      "name": "minterVersion",
      "outputs": [
        {
          "internalType": "string",
          "name": "",
          "type": "string"
        }
      ],
      "stateMutability": "view",
      "type": "function"
    },
    {
      "inputs": [
        {
          "internalType": "uint256",
          "name": "projectId",
          "type": "uint256"
        },
        {
          "internalType": "address",
          "name": "coreContract",
          "type": "address"
        }
      ],
      "name": "projectMaxHasBeenInvoked",
      "outputs": [
        {
          "internalType": "bool",
          "name": "",
          "type": "bool"
        }
      ],
      "stateMutability": "view",
      "type": "function"
    },
    {
      "inputs": [
        {
          "internalType": "uint256",
          "name": "projectId",
          "type": "uint256"
        },
        {
          "internalType": "address",
          "name": "coreContract",
          "type": "address"
        }
      ],
      "name": "projectMaxInvocations",
      "outputs": [
        {
          "internalType": "uint256",
          "name": "",
          "type": "uint256"
        }
      ],
      "stateMutability": "view",
      "type": "function"
    },
    {
      "inputs": [
        {
          "internalType": "uint256",
          "name": "projectId",
          "type": "uint256"
        },
        {
          "internalType": "address",
          "name": "coreContract",
          "type": "address"
        }
      ],
      "name": "purchase",
      "outputs": [
        {
          "internalType": "uint256",
          "name": "tokenId",
          "type": "uint256"
        }
      ],
      "stateMutability": "payable",
      "type": "function"
    },
    {
      "inputs": [
        {
          "internalType": "address",
          "name": "to",
          "type": "address"
        },
        {
          "internalType": "uint256",
          "name": "projectId",
          "type": "uint256"
        },
        {
          "internalType": "address",
          "name": "coreContract",
          "type": "address"
        }
      ],
      "name": "purchaseTo",
      "outputs": [
        {
          "internalType": "uint256",
          "name": "tokenId",
          "type": "uint256"
        }
      ],
      "stateMutability": "payable",
      "type": "function"
    },
    {
      "inputs": [
        {
          "internalType": "uint256",
          "name": "projectId",
          "type": "uint256"
        },
        {
          "internalType": "address",
          "name": "coreContract",
          "type": "address"
        }
      ],
      "name": "setPriceProjectConfig",
      "outputs": [
        {
          "components": [
            {
              "internalType": "uint248",
              "name": "pricePerToken",
              "type": "uint248"
            },
            {
              "internalType": "bool",
              "name": "priceIsConfigured",
              "type": "bool"
            }
          ],
          "internalType": "struct SetPriceLib.SetPriceProjectConfig",
          "name": "",
          "type": "tuple"
        }
      ],
      "stateMutability": "view",
      "type": "function"
    },
    {
      "inputs": [
        {
          "internalType": "uint256",
          "name": "projectId",
          "type": "uint256"
        },
        {
          "internalType": "address",
          "name": "coreContract",
          "type": "address"
        }
      ],
      "name": "syncProjectMaxInvocationsToCore",
      "outputs": [],
      "stateMutability": "nonpayable",
      "type": "function"
    },
    {
      "inputs": [
        {
          "internalType": "uint256",
          "name": "newDefaultMinMintFee",
          "type": "uint256"
        }
      ],
      "name": "updateDefaultMinMintFee",
      "outputs": [],
      "stateMutability": "nonpayable",
      "type": "function"
    },
    {
      "inputs": [
        {
          "internalType": "uint256",
          "name": "projectId",
          "type": "uint256"
        },
        {
          "internalType": "address",
          "name": "coreContract",
          "type": "address"
        },
        {
          "internalType": "uint248",
          "name": "pricePerTokenInWei",
          "type": "uint248"
        }
      ],
      "name": "updatePricePerTokenInWei",
      "outputs": [],
      "stateMutability": "nonpayable",
      "type": "function"
    }
  ],
  "bytecode": "0x60c060405234801561001057600080fd5b506040516118ae3803806118ae83398101604081905261002f916100b1565b60016000556001600160a01b038216608081905260a05261004f81610056565b50506100eb565b7f6aab9ffc5cd1e167fd16093ec2dc9fad33c2d2de62ce5b9a1df3152d598e2f938181556040805183815290517fb13c9ff20c583e44ba9790163d0cdaa4092a61ed9494ace06732fc4cbfa323409181900360200190a15050565b600080604083850312156100c457600080fd5b82516001600160a01b03811681146100db57600080fd5b6020939093015192949293505050565b60805160a051611797610117600039600061051301526000818161031101526103c401526117976000f3fe6080604052600436106100c35760003560e01c806301000da7146100c85780633288c950146100fd578063410c21871461011f5780634869f3df146101425780634e8d8787146101625780637e947f24146101755780639a94488a146101955780639b24c3c0146101d7578063ae77c2371461021d578063b000e33414610230578063cce7c90914610250578063d3ddabe614610270578063d9bffbce146102af578063d9eb16db146102cf578063dd85582f146102ff578063e9d1e8ac1461034b575b600080fd5b3480156100d457600080fd5b506100e86100e3366004611323565b610387565b60405190151581526020015b60405180910390f35b34801561010957600080fd5b5061011d610118366004611340565b6103bf565b005b34801561012b57600080fd5b506101346103fe565b6040519081526020016100f4565b34801561014e57600080fd5b5061013461015d366004611359565b61040d565b610134610170366004611389565b610422565b34801561018157600080fd5b5061011d6101903660046113cb565b6105a2565b3480156101a157600080fd5b506101b56101b0366004611359565b610637565b6040805182511515815260209283015162ffffff1692810192909252016100f4565b3480156101e357600080fd5b506101f76101f2366004611359565b61067f565b6040805182516001600160f81b03168152602092830151151592810192909252016100f4565b61013461022b366004611359565b6106cd565b34801561023c57600080fd5b5061011d61024b36600461140e565b6106da565b34801561025c57600080fd5b506100e861026b366004611359565b6106f0565b34801561027c57600080fd5b506102a260405180604001604052806006815260200165076302e302e360d41b81525081565b6040516100f4919061149d565b3480156102bb57600080fd5b5061011d6102ca366004611359565b6106fc565b3480156102db57600080fd5b506102ef6102ea366004611359565b610715565b6040516100f494939291906114b0565b34801561030b57600080fd5b506103337f000000000000000000000000000000000000000000000000000000000000000081565b6040516001600160a01b0390911681526020016100f4565b34801561035757600080fd5b506102a26040518060400160405280601081526020016f04d696e7465724d696e507269636556360841b81525081565b60008061039383610767565b8054909150610100900460ff16156103af575460ff1692915050565b6103b8836107a0565b9392505050565b6103f27f000000000000000000000000000000000000000000000000000000000000000033306303288c9560e41b610916565b6103fb81610971565b50565b60006104086109b8565b905090565b600061041983836109c8565b90505b92915050565b600060026000540361047b5760405162461bcd60e51b815260206004820152601f60248201527f5265656e7472616e637947756172643a207265656e7472616e742063616c6c0060448201526064015b60405180910390fd5b600260005561048a83836109e8565b60006104968484610a19565b9050803410156104e15760405162461bcd60e51b815260206004820152601660248201527526b4b7103b30b63ab2903a379036b4b73a103932b89760511b6044820152606401610472565b6040516117cd60e21b81526001600160a01b0386811660048301526024820186905284811660448301523360648301527f00000000000000000000000000000000000000000000000000000000000000001690615f34906084016020604051808303816000875af115801561055a573d6000803e3d6000fd5b505050506040513d601f19601f8201168201806040525081019061057e91906114ea565b915061058a8284610a89565b610595848285610af6565b5060016000559392505050565b6105ad838333610ba5565b6105b56109b8565b816001600160f81b031610156106055760405162461bcd60e51b81526020600482015260156024820152744f6e6c7920677465206d696e206d696e742066656560581b6044820152606401610472565b6106198383836001600160f81b0316610bea565b6106238383610c49565b15610632576106328383610c7c565b505050565b60408051808201909152600080825260208201526106558383610d17565b60408051808201909152905460ff811615158252610100900462ffffff1660208201529392505050565b604080518082019091526000808252602082015261069d8383610d62565b6040805180820190915290546001600160f81b0381168252600160f81b900460ff16151560208201529392505050565b6000610419338484610422565b6106e5838333610ba5565b610632838383610d89565b60006104198383610e5f565b610707828233610ba5565b6107118282610c7c565b5050565b60008060606000806107278787610d62565b5460408051808201909152600381526208aa8960eb1b602082015260ff600160f81b830416996001600160f81b0390921698509650600095509350505050565b6001600160a01b031660009081527f69f22dd730b53ff235fa96b4306a31bef5dad48fe4bac28b1ceebbce14401b396020526040902090565b6040516000602482018190526044820181905290819060640160408051601f198184030181529181526020820180516001600160e01b0316638639415b60e01b1790525190915060009081906001600160a01b03861690610802908590611503565b600060405180830381855afa9150503d806000811461083d576040519150601f19603f3d011682016040523d82523d6000602084013e610842565b606091505b5091509150816108a25760405162461bcd60e51b815260206004820152602560248201527f6765745072696d617279526576656e756553706c69747328292063616c6c2066604482015264185a5b195960da1b6064820152608401610472565b805160c08190036108b95750600095945050505050565b80610100036108ce5750600195945050505050565b60405162461bcd60e51b815260206004820152601e60248201527f556e657870656374656420726576656e75652073706c697420627974657300006044820152606401610472565b61092284848484610e78565b61096b5760405162461bcd60e51b815260206004820152601a60248201527913db9b1e48135a5b9d195c919a5b1d195c8810591b5a5b9050d360321b6044820152606401610472565b50505050565b600061097b610f09565b8281556040518381529091507fb13c9ff20c583e44ba9790163d0cdaa4092a61ed9494ace06732fc4cbfa323409060200160405180910390a15050565b60006109c2610f09565b54919050565b6000806109d58484610d17565b54610100900462ffffff16949350505050565b60006109f48383610d17565b805490915060ff16156106325760405162461bcd60e51b81526004016104729061151f565b600080610a268484610d62565b8054909150600160f81b900460ff16610a785760405162461bcd60e51b8152602060048201526014602482015273141c9a58d9481b9bdd0818dbdb999a59dd5c995960621b6044820152606401610472565b546001600160f81b03169392505050565b6000610a9483610f2d565b90506000610aa28284610d17565b8054909150620f4240850660010190610100900462ffffff1680821115610adb5760405162461bcd60e51b81526004016104729061151f565b808203610aee57825460ff191660011783555b505050505050565b3415610632576000610b088334611550565b90508015610b9a57604051600090339083908381818185875af1925050503d8060008114610b52576040519150601f19603f3d011682016040523d82523d6000602084013e610b57565b606091505b5050905080610b985760405162461bcd60e51b815260206004820152600d60248201526c1499599d5b990819985a5b1959609a1b6044820152606401610472565b505b61096b848484610f3c565b610bb0838383611151565b6106325760405162461bcd60e51b815260206004820152600b60248201526a13db9b1e48105c9d1a5cdd60aa1b6044820152606401610472565b6000610bf68484610d62565b600160f81b6001600160f81b03841617815560405190915082906001600160a01b0385169086907f98e99eae7ab1c56b5b882e049df69b522affbaa1a93afd3be411447a1606027890600090a450505050565b600080610c568484610d17565b8054909150610100900462ffffff16158015610c745750805460ff16155b949350505050565b600080610c8984846111da565b915091506000610c998585610d17565b9050610ca482611258565b815460ff1962ffffff92909216610100029190911663ffffffff19909116178383141781556040516001600160a01b0385169086907f1c3e74a6c6fefbaeee166b031cd2016349c6c863d5188b67c9bbd0b0dcb2e23790610d089086815260200190565b60405180910390a35050505050565b60007f73e3af67f35f30fb72bbaaf6cc07b987364ed643c93ba201702e213464e877ee5b6001600160a01b039290921660009081526020928352604080822094825293909252502090565b60007efc986db700c71340c673de619c46ee721167fc4ea17804bb535c4c196aa7d7610d3b565b600080610d9685856111da565b91509150808362ffffff161115610dbf5760405162461bcd60e51b815260040161047290611571565b818362ffffff161015610de45760405162461bcd60e51b815260040161047290611571565b6000610df08686610d17565b805462ffffff861685811463ffffffff19909216610100820260ff1916179190911782556040519081529091506001600160a01b0386169087907f1c3e74a6c6fefbaeee166b031cd2016349c6c863d5188b67c9bbd0b0dcb2e2379060200160405180910390a3505050505050565b600080610e6c8484610d17565b5460ff16949350505050565b60405163230448b160e01b81526001600160a01b03848116600483015283811660248301526001600160e01b0319831660448301526000919086169063230448b1906064016020604051808303816000875af1158015610edc573d6000803e3d6000fd5b505050506040513d601f19601f82011682018060405250810190610f0091906115b7565b95945050505050565b7f6aab9ffc5cd1e167fd16093ec2dc9fad33c2d2de62ce5b9a1df3152d598e2f9390565b600061041c620f4240836115d2565b81600003610f4957505050565b6000610f54826112c0565b905060008115610fdf57604051638639415b60e01b815260048101869052602481018590526001600160a01b03841690638639415b9060440161010060405180830381865afa158015610fab573d6000803e3d6000fd5b505050506040513d601f19601f82011682018060405250810190610fcf91906115f4565b5094965061105895505050505050565b604051638639415b60e01b815260048101869052602481018590526001600160a01b03841690638639415b9060440160c060405180830381865afa15801561102b573d6000803e3d6000fd5b505050506040513d601f19601f8201168201806040525081019061104f919061167c565b50929450505050505b6001600160a01b0381166110ae5760405162461bcd60e51b815260206004820152601f60248201527f52656e6465722050726f76696465722061646472657373206e6f7420736574006044820152606401610472565b6000816001600160a01b03168560405160006040518083038185875af1925050503d80600081146110fb576040519150601f19603f3d011682016040523d82523d6000602084013e611100565b606091505b5050905080610aee5760405162461bcd60e51b815260206004820152601e60248201527f52656e6465722050726f7669646572207061796d656e74206661696c656400006044820152606401610472565b60405163a47d29cb60e01b8152600481018490526000906001600160a01b0384169063a47d29cb90602401602060405180830381865afa158015611199573d6000803e3d6000fd5b505050506040513d601f19601f820116820180604052508101906111bd91906116e5565b6001600160a01b0316826001600160a01b03161490509392505050565b604051630ea5613f60e01b81526004810183905260009081906001600160a01b03841690630ea5613f9060240160c060405180830381865afa158015611224573d6000803e3d6000fd5b505050506040513d601f19601f820116820180604052508101906112489190611702565b5093989297509195505050505050565b600062ffffff8211156112bc5760405162461bcd60e51b815260206004820152602660248201527f53616665436173743a2076616c756520646f65736e27742066697420696e203260448201526534206269747360d01b6064820152608401610472565b5090565b6000806112cc83610767565b8054909150610100900460ff16156112e8575460ff1692915050565b60006112f3846107a0565b825481151561ffff1990911617610100179092555092915050565b6001600160a01b03811681146103fb57600080fd5b60006020828403121561133557600080fd5b81356103b88161130e565b60006020828403121561135257600080fd5b5035919050565b6000806040838503121561136c57600080fd5b82359150602083013561137e8161130e565b809150509250929050565b60008060006060848603121561139e57600080fd5b83356113a98161130e565b92506020840135915060408401356113c08161130e565b809150509250925092565b6000806000606084860312156113e057600080fd5b8335925060208401356113f28161130e565b915060408401356001600160f81b03811681146113c057600080fd5b60008060006060848603121561142357600080fd5b8335925060208401356114358161130e565b9150604084013562ffffff811681146113c057600080fd5b60005b83811015611468578181015183820152602001611450565b50506000910152565b6000815180845261148981602086016020860161144d565b601f01601f19169290920160200192915050565b6020815260006104196020830184611471565b84151581528360208201526080604082015260006114d16080830185611471565b905060018060a01b038316606083015295945050505050565b6000602082840312156114fc57600080fd5b5051919050565b6000825161151581846020870161144d565b9190910192915050565b60208082526017908201527613585e081a5b9d9bd8d85d1a5bdb9cc81c995858da1959604a1b604082015260600190565b8181038181111561041c57634e487b7160e01b600052601160045260246000fd5b602080825260179082015276496e76616c6964206d617820696e766f636174696f6e7360481b604082015260600190565b805180151581146115b257600080fd5b919050565b6000602082840312156115c957600080fd5b610419826115a2565b6000826115ef57634e487b7160e01b600052601260045260246000fd5b500490565b600080600080600080600080610100898b03121561161157600080fd5b8851975060208901516116238161130e565b60408a015160608b0151919850965061163b8161130e565b60808a015160a08b015191965094506116538161130e565b60c08a015160e08b0151919450925061166b8161130e565b809150509295985092959890939650565b60008060008060008060c0878903121561169557600080fd5b8651955060208701516116a78161130e565b6040880151606089015191965094506116bf8161130e565b608088015160a089015191945092506116d78161130e565b809150509295509295509295565b6000602082840312156116f757600080fd5b81516103b88161130e565b60008060008060008060c0878903121561171b57600080fd5b8651955060208701519450611732604088016115a2565b9350611740606088016115a2565b92506080870151915061175560a088016115a2565b9050929550929550929556fea2646970667358221220bee70c63b5c12ad715cf04b7644bf8b38d671926137264a04f65ede77a98a3ab64736f6c63430008130033",
  "linkReferences": {},
  "deployedLinkReferences": {}
}