{
  "_format": "hh-sol-artifact-1",
  "contractName": "MinterSetPriceV5",
  "sourceName": "contracts/minter-suite/Minters/MinterSetPriceV5.sol",
  "abi": [
    {
      "inputs": [
        {
          "internalType": "address",
          "name": "_minterFilter",
          "type": "address"
        }
      ],
      "stateMutability": "nonpayable",
      "type": "constructor"
    },
    {
      "anonymous": false,
      "inputs": [
        {
          "indexed": true,
          "internalType": "uint256",
          "name": "_projectId",
          "type": "uint256"
        },
        {
          "indexed": true,
          "internalType": "address",
          "name": "_coreContract",
          "type": "address"
        },
        {
          "indexed": false,
          "internalType": "bytes32",
          "name": "_key",
          "type": "bytes32"
        }
      ],
      "name": "ConfigKeyRemoved",
      "type": "event"
    },
    {
      "anonymous": false,
      "inputs": [
        {
          "indexed": true,
          "internalType": "uint256",
          "name": "_projectId",
          "type": "uint256"
        },
        {
          "indexed": true,
          "internalType": "address",
          "name": "_coreContract",
          "type": "address"
        },
        {
          "indexed": false,
          "internalType": "bytes32",
          "name": "_key",
          "type": "bytes32"
        },
        {
          "indexed": false,
          "internalType": "uint256",
          "name": "_value",
          "type": "uint256"
        }
      ],
      "name": "ConfigValueAddedToSet",
      "type": "event"
    },
    {
      "anonymous": false,
      "inputs": [
        {
          "indexed": true,
          "internalType": "uint256",
          "name": "_projectId",
          "type": "uint256"
        },
        {
          "indexed": true,
          "internalType": "address",
          "name": "_coreContract",
          "type": "address"
        },
        {
          "indexed": false,
          "internalType": "bytes32",
          "name": "_key",
          "type": "bytes32"
        },
        {
          "indexed": false,
          "internalType": "address",
          "name": "_value",
          "type": "address"
        }
      ],
      "name": "ConfigValueAddedToSet",
      "type": "event"
    },
    {
      "anonymous": false,
      "inputs": [
        {
          "indexed": true,
          "internalType": "uint256",
          "name": "_projectId",
          "type": "uint256"
        },
        {
          "indexed": true,
          "internalType": "address",
          "name": "_coreContract",
          "type": "address"
        },
        {
          "indexed": false,
          "internalType": "bytes32",
          "name": "_key",
          "type": "bytes32"
        },
        {
          "indexed": false,
          "internalType": "bytes32",
          "name": "_value",
          "type": "bytes32"
        }
      ],
      "name": "ConfigValueAddedToSet",
      "type": "event"
    },
    {
      "anonymous": false,
      "inputs": [
        {
          "indexed": true,
          "internalType": "uint256",
          "name": "_projectId",
          "type": "uint256"
        },
        {
          "indexed": true,
          "internalType": "address",
          "name": "_coreContract",
          "type": "address"
        },
        {
          "indexed": false,
          "internalType": "bytes32",
          "name": "_key",
          "type": "bytes32"
        },
        {
          "indexed": false,
          "internalType": "uint256",
          "name": "_value",
          "type": "uint256"
        }
      ],
      "name": "ConfigValueRemovedFromSet",
      "type": "event"
    },
    {
      "anonymous": false,
      "inputs": [
        {
          "indexed": true,
          "internalType": "uint256",
          "name": "_projectId",
          "type": "uint256"
        },
        {
          "indexed": true,
          "internalType": "address",
          "name": "_coreContract",
          "type": "address"
        },
        {
          "indexed": false,
          "internalType": "bytes32",
          "name": "_key",
          "type": "bytes32"
        },
        {
          "indexed": false,
          "internalType": "address",
          "name": "_value",
          "type": "address"
        }
      ],
      "name": "ConfigValueRemovedFromSet",
      "type": "event"
    },
    {
      "anonymous": false,
      "inputs": [
        {
          "indexed": true,
          "internalType": "uint256",
          "name": "_projectId",
          "type": "uint256"
        },
        {
          "indexed": true,
          "internalType": "address",
          "name": "_coreContract",
          "type": "address"
        },
        {
          "indexed": false,
          "internalType": "bytes32",
          "name": "_key",
          "type": "bytes32"
        },
        {
          "indexed": false,
          "internalType": "bytes32",
          "name": "_value",
          "type": "bytes32"
        }
      ],
      "name": "ConfigValueRemovedFromSet",
      "type": "event"
    },
    {
      "anonymous": false,
      "inputs": [
        {
          "indexed": true,
          "internalType": "uint256",
          "name": "_projectId",
          "type": "uint256"
        },
        {
          "indexed": true,
          "internalType": "address",
          "name": "_coreContract",
          "type": "address"
        },
        {
          "indexed": false,
          "internalType": "bytes32",
          "name": "_key",
          "type": "bytes32"
        },
        {
          "indexed": false,
          "internalType": "bool",
          "name": "_value",
          "type": "bool"
        }
      ],
      "name": "ConfigValueSet",
      "type": "event"
    },
    {
      "anonymous": false,
      "inputs": [
        {
          "indexed": true,
          "internalType": "uint256",
          "name": "_projectId",
          "type": "uint256"
        },
        {
          "indexed": true,
          "internalType": "address",
          "name": "_coreContract",
          "type": "address"
        },
        {
          "indexed": false,
          "internalType": "bytes32",
          "name": "_key",
          "type": "bytes32"
        },
        {
          "indexed": false,
          "internalType": "uint256",
          "name": "_value",
          "type": "uint256"
        }
      ],
      "name": "ConfigValueSet",
      "type": "event"
    },
    {
      "anonymous": false,
      "inputs": [
        {
          "indexed": true,
          "internalType": "uint256",
          "name": "_projectId",
          "type": "uint256"
        },
        {
          "indexed": true,
          "internalType": "address",
          "name": "_coreContract",
          "type": "address"
        },
        {
          "indexed": false,
          "internalType": "bytes32",
          "name": "_key",
          "type": "bytes32"
        },
        {
          "indexed": false,
          "internalType": "address",
          "name": "_value",
          "type": "address"
        }
      ],
      "name": "ConfigValueSet",
      "type": "event"
    },
    {
      "anonymous": false,
      "inputs": [
        {
          "indexed": true,
          "internalType": "uint256",
          "name": "_projectId",
          "type": "uint256"
        },
        {
          "indexed": true,
          "internalType": "address",
          "name": "_coreContract",
          "type": "address"
        },
        {
          "indexed": false,
          "internalType": "bytes32",
          "name": "_key",
          "type": "bytes32"
        },
        {
          "indexed": false,
          "internalType": "bytes32",
          "name": "_value",
          "type": "bytes32"
        }
      ],
      "name": "ConfigValueSet",
      "type": "event"
    },
    {
      "anonymous": false,
      "inputs": [
        {
          "indexed": true,
          "internalType": "uint256",
          "name": "_projectId",
          "type": "uint256"
        },
        {
          "indexed": true,
          "internalType": "address",
          "name": "_coreContract",
          "type": "address"
        },
        {
          "indexed": true,
          "internalType": "uint256",
          "name": "_pricePerTokenInWei",
          "type": "uint256"
        }
      ],
      "name": "PricePerTokenInWeiUpdated",
      "type": "event"
    },
    {
      "anonymous": false,
      "inputs": [
        {
          "indexed": true,
          "internalType": "uint256",
          "name": "_projectId",
          "type": "uint256"
        },
        {
          "indexed": true,
          "internalType": "address",
          "name": "_coreContract",
          "type": "address"
        },
        {
          "indexed": true,
          "internalType": "address",
          "name": "_currencyAddress",
          "type": "address"
        },
        {
          "indexed": false,
          "internalType": "string",
          "name": "_currencySymbol",
          "type": "string"
        }
      ],
      "name": "ProjectCurrencyInfoUpdated",
      "type": "event"
    },
    {
      "anonymous": false,
      "inputs": [
        {
          "indexed": true,
          "internalType": "uint256",
          "name": "_projectId",
          "type": "uint256"
        },
        {
          "indexed": true,
          "internalType": "address",
          "name": "_coreContract",
          "type": "address"
        },
        {
          "indexed": false,
          "internalType": "uint256",
          "name": "_maxInvocations",
          "type": "uint256"
        }
      ],
      "name": "ProjectMaxInvocationsLimitUpdated",
      "type": "event"
    },
    {
      "inputs": [
        {
          "internalType": "uint256",
          "name": "_projectId",
          "type": "uint256"
        },
        {
          "internalType": "address",
          "name": "_coreContract",
          "type": "address"
        }
      ],
      "name": "getPriceInfo",
      "outputs": [
        {
          "internalType": "bool",
          "name": "isConfigured",
          "type": "bool"
        },
        {
          "internalType": "uint256",
          "name": "tokenPriceInWei",
          "type": "uint256"
        },
        {
          "internalType": "string",
          "name": "currencySymbol",
          "type": "string"
        },
        {
          "internalType": "address",
          "name": "currencyAddress",
          "type": "address"
        }
      ],
      "stateMutability": "view",
      "type": "function"
    },
    {
      "inputs": [
        {
          "internalType": "address",
          "name": "_coreContract",
          "type": "address"
        }
      ],
      "name": "isEngineView",
      "outputs": [
        {
          "internalType": "bool",
          "name": "",
          "type": "bool"
        }
      ],
      "stateMutability": "view",
      "type": "function"
    },
    {
      "inputs": [
        {
          "internalType": "uint256",
          "name": "_projectId",
          "type": "uint256"
        },
        {
          "internalType": "address",
          "name": "_coreContract",
          "type": "address"
        },
        {
          "internalType": "uint24",
          "name": "_maxInvocations",
          "type": "uint24"
        }
      ],
      "name": "manuallyLimitProjectMaxInvocations",
      "outputs": [],
      "stateMutability": "nonpayable",
      "type": "function"
    },
    {
      "inputs": [
        {
          "internalType": "address",
          "name": "_coreContract",
          "type": "address"
        },
        {
          "internalType": "uint256",
          "name": "_projectId",
          "type": "uint256"
        }
      ],
      "name": "maxInvocationsProjectConfig",
      "outputs": [
        {
          "components": [
            {
              "internalType": "bool",
              "name": "maxHasBeenInvoked",
              "type": "bool"
            },
            {
              "internalType": "uint24",
              "name": "maxInvocations",
              "type": "uint24"
            }
          ],
          "internalType": "struct MaxInvocationsLib.MaxInvocationsProjectConfig",
          "name": "",
          "type": "tuple"
        }
      ],
      "stateMutability": "view",
      "type": "function"
    },
    {
      "inputs": [],
      "name": "minterFilterAddress",
      "outputs": [
        {
          "internalType": "address",
          "name": "",
          "type": "address"
        }
      ],
      "stateMutability": "view",
      "type": "function"
    },
    {
      "inputs": [],
      "name": "minterType",
      "outputs": [
        {
          "internalType": "string",
          "name": "",
          "type": "string"
        }
      ],
      "stateMutability": "view",
      "type": "function"
    },
    {
      "inputs": [],
      "name": "minterVersion",
      "outputs": [
        {
          "internalType": "string",
          "name": "",
          "type": "string"
        }
      ],
      "stateMutability": "view",
      "type": "function"
    },
    {
      "inputs": [
        {
          "internalType": "address",
          "name": "_coreContract",
          "type": "address"
        },
        {
          "internalType": "uint256",
          "name": "_projectId",
          "type": "uint256"
        }
      ],
      "name": "projectConfig",
      "outputs": [
        {
          "components": [
            {
              "internalType": "uint248",
              "name": "pricePerTokenInWei",
              "type": "uint248"
            },
            {
              "internalType": "bool",
              "name": "priceIsConfigured",
              "type": "bool"
            }
          ],
          "internalType": "struct ISharedMinterV0.ProjectConfig",
          "name": "",
          "type": "tuple"
        }
      ],
      "stateMutability": "view",
      "type": "function"
    },
    {
      "inputs": [
        {
          "internalType": "uint256",
          "name": "_projectId",
          "type": "uint256"
        },
        {
          "internalType": "address",
          "name": "_coreContract",
          "type": "address"
        }
      ],
      "name": "projectMaxHasBeenInvoked",
      "outputs": [
        {
          "internalType": "bool",
          "name": "",
          "type": "bool"
        }
      ],
      "stateMutability": "view",
      "type": "function"
    },
    {
      "inputs": [
        {
          "internalType": "uint256",
          "name": "_projectId",
          "type": "uint256"
        },
        {
          "internalType": "address",
          "name": "_coreContract",
          "type": "address"
        }
      ],
      "name": "projectMaxInvocations",
      "outputs": [
        {
          "internalType": "uint256",
          "name": "",
          "type": "uint256"
        }
      ],
      "stateMutability": "view",
      "type": "function"
    },
    {
      "inputs": [
        {
          "internalType": "uint256",
          "name": "_projectId",
          "type": "uint256"
        },
        {
          "internalType": "address",
          "name": "_coreContract",
          "type": "address"
        }
      ],
      "name": "purchase",
      "outputs": [
        {
          "internalType": "uint256",
          "name": "tokenId",
          "type": "uint256"
        }
      ],
      "stateMutability": "payable",
      "type": "function"
    },
    {
      "inputs": [
        {
          "internalType": "address",
          "name": "_to",
          "type": "address"
        },
        {
          "internalType": "uint256",
          "name": "_projectId",
          "type": "uint256"
        },
        {
          "internalType": "address",
          "name": "_coreContract",
          "type": "address"
        }
      ],
      "name": "purchaseTo",
      "outputs": [
        {
          "internalType": "uint256",
          "name": "tokenId",
          "type": "uint256"
        }
      ],
      "stateMutability": "payable",
      "type": "function"
    },
    {
      "inputs": [
        {
          "internalType": "uint256",
          "name": "_projectId",
          "type": "uint256"
        },
        {
          "internalType": "address",
          "name": "_coreContract",
          "type": "address"
        }
      ],
      "name": "syncProjectMaxInvocationsToCore",
      "outputs": [],
      "stateMutability": "nonpayable",
      "type": "function"
    },
    {
      "inputs": [
        {
          "internalType": "uint256",
          "name": "_projectId",
          "type": "uint256"
        },
        {
          "internalType": "address",
          "name": "_coreContract",
          "type": "address"
        },
        {
          "internalType": "uint248",
          "name": "_pricePerTokenInWei",
          "type": "uint248"
        }
      ],
      "name": "updatePricePerTokenInWei",
      "outputs": [],
      "stateMutability": "nonpayable",
      "type": "function"
    }
  ],
  "bytecode": "0x60c060405234801561001057600080fd5b506040516117e13803806117e183398101604081905261002f9161004a565b60016000556001600160a01b0316608081905260a05261007a565b60006020828403121561005c57600080fd5b81516001600160a01b038116811461007357600080fd5b9392505050565b60805160a05161174261009f6000396000610658015260006103bf01526117426000f3fe6080604052600436106100ad5760003560e01c806301000da7146100b25780630650eaf0146100e75780634869f3df146101295780634e8d8787146101815780637e947f2414610194578063ae77c237146101b6578063b000e334146101c9578063cce7c909146101e9578063d3ddabe61461022c578063d9bffbce1461026b578063d9eb16db1461028b578063dcf7398b1461030f578063dd85582f146103ad578063e9d1e8ac146103f9575b600080fd5b3480156100be57600080fd5b506100d26100cd3660046112b3565b610435565b60405190151581526020015b60405180910390f35b3480156100f357600080fd5b506101076101023660046112d0565b610476565b6040805182511515815260209283015162ffffff1692810192909252016100de565b34801561013557600080fd5b506101736101443660046112fc565b6001600160a01b031660009081526003602090815260408083209383529290522054610100900462ffffff1690565b6040519081526020016100de565b61017361018f36600461132c565b6104cd565b3480156101a057600080fd5b506101b46101af36600461136e565b610735565b005b6101736101c43660046112fc565b6107f6565b3480156101d557600080fd5b506101b46101e43660046113b1565b610803565b3480156101f557600080fd5b506100d26102043660046112fc565b6001600160a01b03166000908152600360209081526040808320938352929052205460ff1690565b34801561023857600080fd5b5061025e60405180604001604052806006815260200165076352e302e360d41b81525081565b6040516100de9190611440565b34801561027757600080fd5b506101b46102863660046112fc565b61088a565b34801561029757600080fd5b506102ff6102a63660046112fc565b6001600160a01b03166000908152600160209081526040808320938352928152828220548351808501909452600384526208aa8960eb1b9184019190915260ff600160f81b820416936001600160f81b03909116929190565b6040516100de9493929190611453565b34801561031b57600080fd5b5061038761032a3660046112d0565b604080518082018252600080825260209182018190526001600160a01b0394909416845260018152818420928452918252918290208251808401909352546001600160f81b0381168352600160f81b900460ff1615159082015290565b6040805182516001600160f81b03168152602092830151151592810192909252016100de565b3480156103b957600080fd5b506103e17f000000000000000000000000000000000000000000000000000000000000000081565b6040516001600160a01b0390911681526020016100de565b34801561040557600080fd5b5061025e6040518060400160405280601081526020016f4d696e7465725365745072696365563560801b81525081565b6001600160a01b03811660009081526002602052604081208054610100900460ff1615610466575460ff1692915050565b61046f83610902565b9392505050565b604080518082018252600080825260209182018190526001600160a01b038516815260038252828120848252825282902082518084019093525460ff811615158352610100900462ffffff16908201525b92915050565b60006002600054036105265760405162461bcd60e51b815260206004820152601f60248201527f5265656e7472616e637947756172643a207265656e7472616e742063616c6c0060448201526064015b60405180910390fd5b600260009081556001600160a01b038316808252600160209081526040808420878552825280842092845260038252808420878552909152909120805460ff16156105835760405162461bcd60e51b815260040161051d9061148d565b8154600160f81b900460ff166105d25760405162461bcd60e51b8152602060048201526014602482015273141c9a58d9481b9bdd0818dbdb999a59dd5c995960621b604482015260640161051d565b81546001600160f81b0316348111156106265760405162461bcd60e51b815260206004820152601660248201527526b4b7103b30b63ab2903a379036b4b73a103932b89760511b604482015260640161051d565b6040516117cd60e21b81526001600160a01b0388811660048301526024820188905286811660448301523360648301527f00000000000000000000000000000000000000000000000000000000000000001690615f34906084016020604051808303816000875af115801561069f573d6000803e3d6000fd5b505050506040513d601f19601f820116820180604052508101906106c391906114be565b6001600160a01b03861660009081526003602090815260408083208a845290915290209094506106f4908590610a3a565b6001600160a01b0385166000908152600260205260408120610717908790610a89565b905061072587838884610abb565b5050505060016000559392505050565b61073f8383610b72565b6001600160a01b03821660008181526001602090815260408083208784529091528082206001600160f81b038516600160f81b8117825591519093919287917f37a132f63521ff11fed0c526f0f30824337316bb2b71fcfc0b6f3cf631595b5f9190a46001600160a01b038316600090815260036020908152604080832087845290915290208054610100900462ffffff161580156107e05750805460ff16155b156107ef576107ef858561088a565b5050505050565b600061046f3384846104cd565b61080d8383610b72565b6001600160a01b0382166000908152600360209081526040808320868452909152902061083f90849084908490610c2d565b60405162ffffff821681526001600160a01b0383169084907f1c3e74a6c6fefbaeee166b031cd2016349c6c863d5188b67c9bbd0b0dcb2e237906020015b60405180910390a3505050565b6108948282610b72565b6001600160a01b038116600090815260036020908152604080832085845290915281206108c49084908490610d1b565b9050816001600160a01b0316837f1c3e74a6c6fefbaeee166b031cd2016349c6c863d5188b67c9bbd0b0dcb2e2378360405161087d91815260200190565b6040516000602482018190526044820181905290819060640160408051601f198184030181529181526020820180516001600160e01b0316638639415b60e01b1790525190915060009081906001600160a01b038616906109649085906114d7565b600060405180830381855afa9150503d806000811461099f576040519150601f19603f3d011682016040523d82523d6000602084013e6109a4565b606091505b5091509150816109c65760405162461bcd60e51b815260040161051d906114f3565b805160c08190036109dd5750600095945050505050565b80610100036109f25750600195945050505050565b60405162461bcd60e51b815260206004820152601e60248201527f556e657870656374656420726576656e75652073706c69742062797465730000604482015260640161051d565b8054620f4240830660010190610100900462ffffff1680821115610a705760405162461bcd60e51b815260040161051d9061148d565b808203610a8357825460ff191660011783555b50505050565b8054600090610100900460ff1615610aa65750805460ff166104c7565b6000610ab28484610dc0565b91506104c79050565b3415610a8357600080610ace8534611538565b90508015610b5e5760405133908290600081818185875af1925050503d8060008114610b16576040519150601f19603f3d011682016040523d82523d6000602084013e610b1b565b606091505b50508092505081610b5e5760405162461bcd60e51b815260206004820152600d60248201526c1499599d5b990819985a5b1959609a1b604482015260640161051d565b610b6a86868686610ed0565b505050505050565b60405163a47d29cb60e01b8152600481018390526001600160a01b0382169063a47d29cb90602401602060405180830381865afa158015610bb7573d6000803e3d6000fd5b505050506040513d601f19601f82011682018060405250810190610bdb9190611559565b6001600160a01b0316336001600160a01b031614610c295760405162461bcd60e51b815260206004820152600b60248201526a13db9b1e48105c9d1a5cdd60aa1b604482015260640161051d565b5050565b604051630ea5613f60e01b81526004810185905260009081906001600160a01b03861690630ea5613f9060240160c060405180830381865afa158015610c77573d6000803e3d6000fd5b505050506040513d601f19601f82011682018060405250810190610c9b919061158b565b5092955092935050505062ffffff8416821015610cca5760405162461bcd60e51b815260040161051d906115ea565b808462ffffff161015610cef5760405162461bcd60e51b815260040161051d906115ea565b825460ff1962ffffff90951661010081029590951663ffffffff19909116179314929092179055505050565b6000806000846001600160a01b0316630ea5613f876040518263ffffffff1660e01b8152600401610d4e91815260200190565b60c060405180830381865afa158015610d6b573d6000803e3d6000fd5b505050506040513d601f19601f82011682018060405250810190610d8f919061158b565b5050875493831463ffffffff1990941661010062ffffff85160260ff19161793909317909655979650505050505050565b6040516000602482018190526044820181905290819060640160408051601f198184030181529181526020820180516001600160e01b0316638639415b60e01b1790525190915060009081906001600160a01b03871690610e229085906114d7565b6000604051808303816000865af19150503d8060008114610e5f576040519150601f19603f3d011682016040523d82523d6000602084013e610e64565b606091505b509150915081610e865760405162461bcd60e51b815260040161051d906114f3565b805160c0819003610eac575050835461ffff191661010017845550600091506104c79050565b80610100036109f2575050835461ffff191661010117845550600191506104c79050565b8215610a83576000806000806000806000871561102157604051638639415b60e01b8152600481018c9052602481018b905260009081906001600160a01b038c1690638639415b9060440161010060405180830381865afa158015610f39573d6000803e3d6000fd5b505050506040513d601f19601f82011682018060405250810190610f5d919061161b565b969e50949c50909a5098509196509194509092509050811561101a576040516001600160a01b038216908390600081818185875af1925050503d8060008114610fc2576040519150601f19603f3d011682016040523d82523d6000602084013e610fc7565b606091505b5050809950508861101a5760405162461bcd60e51b815260206004820181905260248201527f506c6174666f726d2050726f7669646572207061796d656e74206661696c6564604482015260640161051d565b50506110a1565b604051638639415b60e01b8152600481018c9052602481018b90526001600160a01b038a1690638639415b9060440160c060405180830381865afa15801561106d573d6000803e3d6000fd5b505050506040513d601f19601f8201168201806040525081019061109191906116a3565b949a509298509096509450925090505b8515611148576040516001600160a01b038616908790600081818185875af1925050503d80600081146110f0576040519150601f19603f3d011682016040523d82523d6000602084013e6110f5565b606091505b505080975050866111485760405162461bcd60e51b815260206004820152601e60248201527f52656e6465722050726f7669646572207061796d656e74206661696c65640000604482015260640161051d565b83156111e7576040516001600160a01b038416908590600081818185875af1925050503d8060008114611197576040519150601f19603f3d011682016040523d82523d6000602084013e61119c565b606091505b505080975050866111e75760405162461bcd60e51b8152602060048201526015602482015274105c9d1a5cdd081c185e5b595b9d0819985a5b1959605a1b604482015260640161051d565b811561128e576040516001600160a01b038216908390600081818185875af1925050503d8060008114611236576040519150601f19603f3d011682016040523d82523d6000602084013e61123b565b606091505b5050809750508661128e5760405162461bcd60e51b815260206004820152601f60248201527f4164646974696f6e616c205061796565207061796d656e74206661696c656400604482015260640161051d565b5050505050505050505050565b6001600160a01b03811681146112b057600080fd5b50565b6000602082840312156112c557600080fd5b813561046f8161129b565b600080604083850312156112e357600080fd5b82356112ee8161129b565b946020939093013593505050565b6000806040838503121561130f57600080fd5b8235915060208301356113218161129b565b809150509250929050565b60008060006060848603121561134157600080fd5b833561134c8161129b565b92506020840135915060408401356113638161129b565b809150509250925092565b60008060006060848603121561138357600080fd5b8335925060208401356113958161129b565b915060408401356001600160f81b038116811461136357600080fd5b6000806000606084860312156113c657600080fd5b8335925060208401356113d88161129b565b9150604084013562ffffff8116811461136357600080fd5b60005b8381101561140b5781810151838201526020016113f3565b50506000910152565b6000815180845261142c8160208601602086016113f0565b601f01601f19169290920160200192915050565b60208152600061046f6020830184611414565b84151581528360208201526080604082015260006114746080830185611414565b905060018060a01b038316606083015295945050505050565b60208082526017908201527613585e081a5b9d9bd8d85d1a5bdb9cc81c995858da1959604a1b604082015260600190565b6000602082840312156114d057600080fd5b5051919050565b600082516114e98184602087016113f0565b9190910192915050565b60208082526025908201527f6765745072696d617279526576656e756553706c69747328292063616c6c2066604082015264185a5b195960da1b606082015260800190565b818103818111156104c757634e487b7160e01b600052601160045260246000fd5b60006020828403121561156b57600080fd5b815161046f8161129b565b8051801515811461158657600080fd5b919050565b60008060008060008060c087890312156115a457600080fd5b86519550602087015194506115bb60408801611576565b93506115c960608801611576565b9250608087015191506115de60a08801611576565b90509295509295509295565b602080825260179082015276496e76616c6964206d617820696e766f636174696f6e7360481b604082015260600190565b600080600080600080600080610100898b03121561163857600080fd5b88519750602089015161164a8161129b565b60408a015160608b015191985096506116628161129b565b60808a015160a08b0151919650945061167a8161129b565b60c08a015160e08b015191945092506116928161129b565b809150509295985092959890939650565b60008060008060008060c087890312156116bc57600080fd5b8651955060208701516116ce8161129b565b6040880151606089015191965094506116e68161129b565b608088015160a089015191945092506116fe8161129b565b80915050929550929550929556fea26469706673582212209e13dff4b1bcbc60b1166322f6a5291a1cea7770b1223169e35923d03cbe7b1064736f6c63430008130033",
  "linkReferences": {},
  "deployedLinkReferences": {}
}