{
  "_format": "hh-sol-artifact-1",
  "contractName": "MinterSetPriceERC20V5",
  "sourceName": "contracts/minter-suite/Minters/MinterSetPriceERC20V5.sol",
  "abi": [
    {
      "inputs": [
        {
          "internalType": "address",
          "name": "_minterFilter",
          "type": "address"
        }
      ],
      "stateMutability": "nonpayable",
      "type": "constructor"
    },
    {
      "anonymous": false,
      "inputs": [
        {
          "indexed": true,
          "internalType": "uint256",
          "name": "_projectId",
          "type": "uint256"
        },
        {
          "indexed": true,
          "internalType": "address",
          "name": "_coreContract",
          "type": "address"
        },
        {
          "indexed": false,
          "internalType": "bytes32",
          "name": "_key",
          "type": "bytes32"
        }
      ],
      "name": "ConfigKeyRemoved",
      "type": "event"
    },
    {
      "anonymous": false,
      "inputs": [
        {
          "indexed": true,
          "internalType": "uint256",
          "name": "_projectId",
          "type": "uint256"
        },
        {
          "indexed": true,
          "internalType": "address",
          "name": "_coreContract",
          "type": "address"
        },
        {
          "indexed": false,
          "internalType": "bytes32",
          "name": "_key",
          "type": "bytes32"
        },
        {
          "indexed": false,
          "internalType": "uint256",
          "name": "_value",
          "type": "uint256"
        }
      ],
      "name": "ConfigValueAddedToSet",
      "type": "event"
    },
    {
      "anonymous": false,
      "inputs": [
        {
          "indexed": true,
          "internalType": "uint256",
          "name": "_projectId",
          "type": "uint256"
        },
        {
          "indexed": true,
          "internalType": "address",
          "name": "_coreContract",
          "type": "address"
        },
        {
          "indexed": false,
          "internalType": "bytes32",
          "name": "_key",
          "type": "bytes32"
        },
        {
          "indexed": false,
          "internalType": "address",
          "name": "_value",
          "type": "address"
        }
      ],
      "name": "ConfigValueAddedToSet",
      "type": "event"
    },
    {
      "anonymous": false,
      "inputs": [
        {
          "indexed": true,
          "internalType": "uint256",
          "name": "_projectId",
          "type": "uint256"
        },
        {
          "indexed": true,
          "internalType": "address",
          "name": "_coreContract",
          "type": "address"
        },
        {
          "indexed": false,
          "internalType": "bytes32",
          "name": "_key",
          "type": "bytes32"
        },
        {
          "indexed": false,
          "internalType": "bytes32",
          "name": "_value",
          "type": "bytes32"
        }
      ],
      "name": "ConfigValueAddedToSet",
      "type": "event"
    },
    {
      "anonymous": false,
      "inputs": [
        {
          "indexed": true,
          "internalType": "uint256",
          "name": "_projectId",
          "type": "uint256"
        },
        {
          "indexed": true,
          "internalType": "address",
          "name": "_coreContract",
          "type": "address"
        },
        {
          "indexed": false,
          "internalType": "bytes32",
          "name": "_key",
          "type": "bytes32"
        },
        {
          "indexed": false,
          "internalType": "uint256",
          "name": "_value",
          "type": "uint256"
        }
      ],
      "name": "ConfigValueRemovedFromSet",
      "type": "event"
    },
    {
      "anonymous": false,
      "inputs": [
        {
          "indexed": true,
          "internalType": "uint256",
          "name": "_projectId",
          "type": "uint256"
        },
        {
          "indexed": true,
          "internalType": "address",
          "name": "_coreContract",
          "type": "address"
        },
        {
          "indexed": false,
          "internalType": "bytes32",
          "name": "_key",
          "type": "bytes32"
        },
        {
          "indexed": false,
          "internalType": "address",
          "name": "_value",
          "type": "address"
        }
      ],
      "name": "ConfigValueRemovedFromSet",
      "type": "event"
    },
    {
      "anonymous": false,
      "inputs": [
        {
          "indexed": true,
          "internalType": "uint256",
          "name": "_projectId",
          "type": "uint256"
        },
        {
          "indexed": true,
          "internalType": "address",
          "name": "_coreContract",
          "type": "address"
        },
        {
          "indexed": false,
          "internalType": "bytes32",
          "name": "_key",
          "type": "bytes32"
        },
        {
          "indexed": false,
          "internalType": "bytes32",
          "name": "_value",
          "type": "bytes32"
        }
      ],
      "name": "ConfigValueRemovedFromSet",
      "type": "event"
    },
    {
      "anonymous": false,
      "inputs": [
        {
          "indexed": true,
          "internalType": "uint256",
          "name": "_projectId",
          "type": "uint256"
        },
        {
          "indexed": true,
          "internalType": "address",
          "name": "_coreContract",
          "type": "address"
        },
        {
          "indexed": false,
          "internalType": "bytes32",
          "name": "_key",
          "type": "bytes32"
        },
        {
          "indexed": false,
          "internalType": "bool",
          "name": "_value",
          "type": "bool"
        }
      ],
      "name": "ConfigValueSet",
      "type": "event"
    },
    {
      "anonymous": false,
      "inputs": [
        {
          "indexed": true,
          "internalType": "uint256",
          "name": "_projectId",
          "type": "uint256"
        },
        {
          "indexed": true,
          "internalType": "address",
          "name": "_coreContract",
          "type": "address"
        },
        {
          "indexed": false,
          "internalType": "bytes32",
          "name": "_key",
          "type": "bytes32"
        },
        {
          "indexed": false,
          "internalType": "uint256",
          "name": "_value",
          "type": "uint256"
        }
      ],
      "name": "ConfigValueSet",
      "type": "event"
    },
    {
      "anonymous": false,
      "inputs": [
        {
          "indexed": true,
          "internalType": "uint256",
          "name": "_projectId",
          "type": "uint256"
        },
        {
          "indexed": true,
          "internalType": "address",
          "name": "_coreContract",
          "type": "address"
        },
        {
          "indexed": false,
          "internalType": "bytes32",
          "name": "_key",
          "type": "bytes32"
        },
        {
          "indexed": false,
          "internalType": "address",
          "name": "_value",
          "type": "address"
        }
      ],
      "name": "ConfigValueSet",
      "type": "event"
    },
    {
      "anonymous": false,
      "inputs": [
        {
          "indexed": true,
          "internalType": "uint256",
          "name": "_projectId",
          "type": "uint256"
        },
        {
          "indexed": true,
          "internalType": "address",
          "name": "_coreContract",
          "type": "address"
        },
        {
          "indexed": false,
          "internalType": "bytes32",
          "name": "_key",
          "type": "bytes32"
        },
        {
          "indexed": false,
          "internalType": "bytes32",
          "name": "_value",
          "type": "bytes32"
        }
      ],
      "name": "ConfigValueSet",
      "type": "event"
    },
    {
      "anonymous": false,
      "inputs": [
        {
          "indexed": true,
          "internalType": "uint256",
          "name": "_projectId",
          "type": "uint256"
        },
        {
          "indexed": true,
          "internalType": "address",
          "name": "_coreContract",
          "type": "address"
        },
        {
          "indexed": true,
          "internalType": "uint256",
          "name": "_pricePerTokenInWei",
          "type": "uint256"
        }
      ],
      "name": "PricePerTokenInWeiUpdated",
      "type": "event"
    },
    {
      "anonymous": false,
      "inputs": [
        {
          "indexed": true,
          "internalType": "uint256",
          "name": "_projectId",
          "type": "uint256"
        },
        {
          "indexed": true,
          "internalType": "address",
          "name": "_coreContract",
          "type": "address"
        },
        {
          "indexed": true,
          "internalType": "address",
          "name": "_currencyAddress",
          "type": "address"
        },
        {
          "indexed": false,
          "internalType": "string",
          "name": "_currencySymbol",
          "type": "string"
        }
      ],
      "name": "ProjectCurrencyInfoUpdated",
      "type": "event"
    },
    {
      "anonymous": false,
      "inputs": [
        {
          "indexed": true,
          "internalType": "uint256",
          "name": "_projectId",
          "type": "uint256"
        },
        {
          "indexed": true,
          "internalType": "address",
          "name": "_coreContract",
          "type": "address"
        },
        {
          "indexed": false,
          "internalType": "uint256",
          "name": "_maxInvocations",
          "type": "uint256"
        }
      ],
      "name": "ProjectMaxInvocationsLimitUpdated",
      "type": "event"
    },
    {
      "inputs": [
        {
          "internalType": "uint256",
          "name": "_projectId",
          "type": "uint256"
        },
        {
          "internalType": "address",
          "name": "_coreContract",
          "type": "address"
        }
      ],
      "name": "checkYourAllowanceOfProjectERC20",
      "outputs": [
        {
          "internalType": "uint256",
          "name": "remaining",
          "type": "uint256"
        }
      ],
      "stateMutability": "view",
      "type": "function"
    },
    {
      "inputs": [
        {
          "internalType": "uint256",
          "name": "_projectId",
          "type": "uint256"
        },
        {
          "internalType": "address",
          "name": "_coreContract",
          "type": "address"
        }
      ],
      "name": "getPriceInfo",
      "outputs": [
        {
          "internalType": "bool",
          "name": "isConfigured",
          "type": "bool"
        },
        {
          "internalType": "uint256",
          "name": "tokenPriceInWei",
          "type": "uint256"
        },
        {
          "internalType": "string",
          "name": "currencySymbol",
          "type": "string"
        },
        {
          "internalType": "address",
          "name": "currencyAddress",
          "type": "address"
        }
      ],
      "stateMutability": "view",
      "type": "function"
    },
    {
      "inputs": [
        {
          "internalType": "uint256",
          "name": "_projectId",
          "type": "uint256"
        },
        {
          "internalType": "address",
          "name": "_coreContract",
          "type": "address"
        }
      ],
      "name": "getYourBalanceOfProjectERC20",
      "outputs": [
        {
          "internalType": "uint256",
          "name": "balance",
          "type": "uint256"
        }
      ],
      "stateMutability": "view",
      "type": "function"
    },
    {
      "inputs": [
        {
          "internalType": "address",
          "name": "_coreContract",
          "type": "address"
        }
      ],
      "name": "isEngineView",
      "outputs": [
        {
          "internalType": "bool",
          "name": "",
          "type": "bool"
        }
      ],
      "stateMutability": "view",
      "type": "function"
    },
    {
      "inputs": [
        {
          "internalType": "uint256",
          "name": "_projectId",
          "type": "uint256"
        },
        {
          "internalType": "address",
          "name": "_coreContract",
          "type": "address"
        },
        {
          "internalType": "uint24",
          "name": "_maxInvocations",
          "type": "uint24"
        }
      ],
      "name": "manuallyLimitProjectMaxInvocations",
      "outputs": [],
      "stateMutability": "nonpayable",
      "type": "function"
    },
    {
      "inputs": [
        {
          "internalType": "uint256",
          "name": "_projectId",
          "type": "uint256"
        },
        {
          "internalType": "address",
          "name": "_coreContract",
          "type": "address"
        }
      ],
      "name": "maxInvocationsProjectConfig",
      "outputs": [
        {
          "components": [
            {
              "internalType": "bool",
              "name": "maxHasBeenInvoked",
              "type": "bool"
            },
            {
              "internalType": "uint24",
              "name": "maxInvocations",
              "type": "uint24"
            }
          ],
          "internalType": "struct MaxInvocationsLib.MaxInvocationsProjectConfig",
          "name": "",
          "type": "tuple"
        }
      ],
      "stateMutability": "view",
      "type": "function"
    },
    {
      "inputs": [],
      "name": "minterFilterAddress",
      "outputs": [
        {
          "internalType": "address",
          "name": "",
          "type": "address"
        }
      ],
      "stateMutability": "view",
      "type": "function"
    },
    {
      "inputs": [],
      "name": "minterType",
      "outputs": [
        {
          "internalType": "string",
          "name": "",
          "type": "string"
        }
      ],
      "stateMutability": "view",
      "type": "function"
    },
    {
      "inputs": [],
      "name": "minterVersion",
      "outputs": [
        {
          "internalType": "string",
          "name": "",
          "type": "string"
        }
      ],
      "stateMutability": "view",
      "type": "function"
    },
    {
      "inputs": [
        {
          "internalType": "uint256",
          "name": "_projectId",
          "type": "uint256"
        },
        {
          "internalType": "address",
          "name": "_coreContract",
          "type": "address"
        }
      ],
      "name": "projectConfig",
      "outputs": [
        {
          "components": [
            {
              "internalType": "uint248",
              "name": "pricePerTokenInWei",
              "type": "uint248"
            },
            {
              "internalType": "bool",
              "name": "priceIsConfigured",
              "type": "bool"
            }
          ],
          "internalType": "struct ISharedMinterV0.ProjectConfig",
          "name": "",
          "type": "tuple"
        }
      ],
      "stateMutability": "view",
      "type": "function"
    },
    {
      "inputs": [
        {
          "internalType": "uint256",
          "name": "_projectId",
          "type": "uint256"
        },
        {
          "internalType": "address",
          "name": "_coreContract",
          "type": "address"
        }
      ],
      "name": "projectMaxHasBeenInvoked",
      "outputs": [
        {
          "internalType": "bool",
          "name": "",
          "type": "bool"
        }
      ],
      "stateMutability": "view",
      "type": "function"
    },
    {
      "inputs": [
        {
          "internalType": "uint256",
          "name": "_projectId",
          "type": "uint256"
        },
        {
          "internalType": "address",
          "name": "_coreContract",
          "type": "address"
        }
      ],
      "name": "projectMaxInvocations",
      "outputs": [
        {
          "internalType": "uint256",
          "name": "",
          "type": "uint256"
        }
      ],
      "stateMutability": "view",
      "type": "function"
    },
    {
      "inputs": [
        {
          "internalType": "uint256",
          "name": "_projectId",
          "type": "uint256"
        },
        {
          "internalType": "address",
          "name": "_coreContract",
          "type": "address"
        }
      ],
      "name": "purchase",
      "outputs": [
        {
          "internalType": "uint256",
          "name": "tokenId",
          "type": "uint256"
        }
      ],
      "stateMutability": "payable",
      "type": "function"
    },
    {
      "inputs": [
        {
          "internalType": "address",
          "name": "_to",
          "type": "address"
        },
        {
          "internalType": "uint256",
          "name": "_projectId",
          "type": "uint256"
        },
        {
          "internalType": "address",
          "name": "_coreContract",
          "type": "address"
        }
      ],
      "name": "purchaseTo",
      "outputs": [
        {
          "internalType": "uint256",
          "name": "tokenId",
          "type": "uint256"
        }
      ],
      "stateMutability": "payable",
      "type": "function"
    },
    {
      "inputs": [
        {
          "internalType": "uint256",
          "name": "_projectId",
          "type": "uint256"
        },
        {
          "internalType": "address",
          "name": "_coreContract",
          "type": "address"
        }
      ],
      "name": "syncProjectMaxInvocationsToCore",
      "outputs": [],
      "stateMutability": "nonpayable",
      "type": "function"
    },
    {
      "inputs": [
        {
          "internalType": "uint256",
          "name": "_projectId",
          "type": "uint256"
        },
        {
          "internalType": "address",
          "name": "_coreContract",
          "type": "address"
        },
        {
          "internalType": "uint248",
          "name": "_pricePerTokenInWei",
          "type": "uint248"
        }
      ],
      "name": "updatePricePerTokenInWei",
      "outputs": [],
      "stateMutability": "nonpayable",
      "type": "function"
    },
    {
      "inputs": [
        {
          "internalType": "uint256",
          "name": "_projectId",
          "type": "uint256"
        },
        {
          "internalType": "address",
          "name": "_coreContract",
          "type": "address"
        },
        {
          "internalType": "string",
          "name": "_currencySymbol",
          "type": "string"
        },
        {
          "internalType": "address",
          "name": "_currencyAddress",
          "type": "address"
        }
      ],
      "name": "updateProjectCurrencyInfo",
      "outputs": [],
      "stateMutability": "nonpayable",
      "type": "function"
    }
  ],
  "bytecode": "0x60c060405234801561001057600080fd5b5060405161208f38038061208f83398101604081905261002f9161004a565b60016000556001600160a01b0316608081905260a05261007a565b60006020828403121561005c57600080fd5b81516001600160a01b038116811461007357600080fd5b9392505050565b60805160a051611ff061009f6000396000610613015260006103fc0152611ff06000f3fe6080604052600436106100ce5760003560e01c806301000da7146100d35780634869f3df146101085780634e8d8787146101365780635e62aa78146101495780637e947f24146101695780639a94488a1461018b578063a84d172c14610223578063ae4bec82146102c5578063ae77c237146102e5578063b000e334146102f8578063cce7c90914610318578063d3ddabe61461035b578063d9bffbce1461039a578063d9eb16db146103ba578063dd85582f146103ea578063e9d1e8ac1461042b578063ed6677a91461046c575b600080fd5b3480156100df57600080fd5b506100f36100ee3660046118db565b61048c565b60405190151581526020015b60405180910390f35b34801561011457600080fd5b506101286101233660046118f8565b6104d3565b6040519081526020016100ff565b610128610144366004611928565b610508565b34801561015557600080fd5b506101286101643660046118f8565b610723565b34801561017557600080fd5b5061018961018436600461196a565b610760565b005b34801561019757600080fd5b506102016101a63660046118f8565b6040805180820190915260008082526020820152506001600160a01b031660009081526004602090815260408083209383529281529082902082518084019093525460ff811615158352610100900462ffffff169082015290565b6040805182511515815260209283015162ffffff1692810192909252016100ff565b34801561022f57600080fd5b5061029f61023e3660046118f8565b6040805180820190915260008082526020820152506001600160a01b03166000908152600160209081526040808320938352928152908290208251808401909352546001600160f81b0381168352600160f81b900460ff1615159082015290565b6040805182516001600160f81b03168152602092830151151592810192909252016100ff565b3480156102d157600080fd5b506101286102e03660046118f8565b610821565b6101286102f33660046118f8565b610857565b34801561030457600080fd5b506101896103133660046119ad565b610864565b34801561032457600080fd5b506100f36103333660046118f8565b6001600160a01b03166000908152600460209081526040808320938352929052205460ff1690565b34801561036757600080fd5b5061038d60405180604001604052806006815260200165076352e302e360d41b81525081565b6040516100ff9190611a3c565b3480156103a657600080fd5b506101896103b53660046118f8565b6108eb565b3480156103c657600080fd5b506103da6103d53660046118f8565b610963565b6040516100ff9493929190611a4f565b3480156103f657600080fd5b5061041e7f000000000000000000000000000000000000000000000000000000000000000081565b6040516100ff9190611a89565b34801561043757600080fd5b5061038d604051806040016040528060158152602001744d696e74657253657450726963654552433230563560581b81525081565b34801561047857600080fd5b50610189610487366004611ab3565b6109e7565b6001600160a01b03811660009081526002602052604081208054610100900460ff16156104bd575460ff1692915050565b6104c683610a9e565b9392505050565b50919050565b6001600160a01b0381166000908152600460209081526040808320858452909152902054610100900462ffffff165b92915050565b60006002600054036105355760405162461bcd60e51b815260040161052c90611b90565b60405180910390fd5b600260009081556001600160a01b038316808252600160209081526040808420878552825280842092845260048252808420878552909152909120805460ff16156105925760405162461bcd60e51b815260040161052c90611bc7565b8154600160f81b900460ff166105e15760405162461bcd60e51b8152602060048201526014602482015273141c9a58d9481b9bdd0818dbdb999a59dd5c995960621b604482015260640161052c565b6040516117cd60e21b81526001600160a01b0387811660048301526024820187905285811660448301523360648301527f00000000000000000000000000000000000000000000000000000000000000001690615f34906084016020604051808303816000875af115801561065a573d6000803e3d6000fd5b505050506040513d601f19601f8201168201806040525081019061067e9190611bf8565b6001600160a01b038516600090815260046020908152604080832089845290915290209093506106af908490610bd6565b6001600160a01b03841660009081526002602052604081206106d2908690610c25565b6001600160a01b03861660009081526003602090815260408083208a8452909152902084549192509061071390829089906001600160f81b03168986610c57565b5050505060016000559392505050565b6001600160a01b038082166000908152600360209081526040808320868452909152812080549192909161075891163361114a565b949350505050565b61076a83836111ba565b6001600160a01b03821660008181526001602090815260408083208784529091528082206001600160f81b038516600160f81b8117825591519093919287917f37a132f63521ff11fed0c526f0f30824337316bb2b71fcfc0b6f3cf631595b5f9190a46001600160a01b038316600090815260046020908152604080832087845290915290208054610100900462ffffff1615801561080b5750805460ff16155b1561081a5761081a85856108eb565b5050505050565b6001600160a01b038082166000908152600360209081526040808320868452909152812080549192909161075891163330611275565b60006104c6338484610508565b61086e83836111ba565b6001600160a01b038216600090815260046020908152604080832086845290915290206108a0908490849084906112e7565b60405162ffffff821681526001600160a01b0383169084907f1c3e74a6c6fefbaeee166b031cd2016349c6c863d5188b67c9bbd0b0dcb2e237906020015b60405180910390a3505050565b6108f582826111ba565b6001600160a01b03811660009081526004602090815260408083208584529091528120610925908490849061136e565b9050816001600160a01b0316837f1c3e74a6c6fefbaeee166b031cd2016349c6c863d5188b67c9bbd0b0dcb2e237836040516108de91815260200190565b6001600160a01b03811660008181526001602090815260408083208684528252808320805494845260038352818420878552909252822091926001600160f81b03169160609184916109b481611413565b8354909550909350600160f81b900460ff1680156109da57506001600160a01b03831615155b9550505092959194509250565b600260005403610a095760405162461bcd60e51b815260040161052c90611b90565b6002600055610a1884846111ba565b6001600160a01b03831660009081526003602090815260408083208784529091529020610a468184846114e1565b816001600160a01b0316846001600160a01b0316867f9009be442961d697adbe398af85c4743d0539b16e89324b6448ebac47eced55e86604051610a8a9190611a3c565b60405180910390a450506001600055505050565b6040516000602482018190526044820181905290819060640160408051601f198184030181529181526020820180516001600160e01b0316638639415b60e01b1790525190915060009081906001600160a01b03861690610b00908590611c11565b600060405180830381855afa9150503d8060008114610b3b576040519150601f19603f3d011682016040523d82523d6000602084013e610b40565b606091505b509150915081610b625760405162461bcd60e51b815260040161052c90611c2d565b805160c0819003610b795750600095945050505050565b8061010003610b8e5750600195945050505050565b60405162461bcd60e51b815260206004820152601e60248201527f556e657870656374656420726576656e75652073706c69742062797465730000604482015260640161052c565b8054620f4240830660010190610100900462ffffff1680821115610c0c5760405162461bcd60e51b815260040161052c90611bc7565b808203610c1f57825460ff191660011783555b50505050565b8054600090610100900460ff1615610c425750805460ff16610502565b6000610c4e84846115a8565b91506105029050565b821561081a5784546001600160a01b031680610cb55760405162461bcd60e51b815260206004820152601d60248201527f45524332303a207061796d656e74206e6f7420636f6e66696775726564000000604482015260640161052c565b3415610d035760405162461bcd60e51b815260206004820152601e60248201527f45524332303a204e6f20455448207768656e207573696e672045524332300000604482015260640161052c565b610d0e3382866116b8565b80600080808080808815610e7457604051638639415b60e01b8152600481018d9052602481018c905260009081906001600160a01b038d1690638639415b9060440161010060405180830381865afa158015610d6e573d6000803e3d6000fd5b505050506040513d601f19601f82011682018060405250810190610d929190611c72565b969e50949c50909a50985091965091945090925090508115610e6d576040516323b872dd60e01b81526001600160a01b038a16906323b872dd90610dde90339085908790600401611cfa565b6020604051808303816000875af1158015610dfd573d6000803e3d6000fd5b505050506040513d601f19601f82011682018060405250810190610e219190611d2e565b610e6d5760405162461bcd60e51b815260206004820181905260248201527f506c6174666f726d2050726f7669646572207061796d656e74206661696c6564604482015260640161052c565b5050610ef4565b604051638639415b60e01b8152600481018d9052602481018c90526001600160a01b038b1690638639415b9060440160c060405180830381865afa158015610ec0573d6000803e3d6000fd5b505050506040513d601f19601f82011682018060405250810190610ee49190611d49565b949a509298509096509450925090505b8515610fb9576040516323b872dd60e01b81526001600160a01b038816906323b872dd90610f2a90339089908b90600401611cfa565b6020604051808303816000875af1158015610f49573d6000803e3d6000fd5b505050506040513d601f19601f82011682018060405250810190610f6d9190611d2e565b610fb95760405162461bcd60e51b815260206004820152601e60248201527f52656e6465722050726f7669646572207061796d656e74206661696c65640000604482015260640161052c565b8315611076576040516323b872dd60e01b81526001600160a01b038816906323b872dd90610fef90339087908990600401611cfa565b6020604051808303816000875af115801561100e573d6000803e3d6000fd5b505050506040513d601f19601f820116820180604052508101906110329190611d2e565b6110765760405162461bcd60e51b8152602060048201526015602482015274105c9d1a5cdd081c185e5b595b9d0819985a5b1959605a1b604482015260640161052c565b811561113b576040516323b872dd60e01b81526001600160a01b038816906323b872dd906110ac90339085908790600401611cfa565b6020604051808303816000875af11580156110cb573d6000803e3d6000fd5b505050506040513d601f19601f820116820180604052508101906110ef9190611d2e565b61113b5760405162461bcd60e51b815260206004820152601f60248201527f4164646974696f6e616c205061796565207061796d656e74206661696c656400604482015260640161052c565b50505050505050505050505050565b6040516370a0823160e01b81526000906001600160a01b038416906370a0823190611179908590600401611a89565b602060405180830381865afa158015611196573d6000803e3d6000fd5b505050506040513d601f19601f820116820180604052508101906104c69190611bf8565b60405163a47d29cb60e01b8152600481018390526001600160a01b0382169063a47d29cb90602401602060405180830381865afa1580156111ff573d6000803e3d6000fd5b505050506040513d601f19601f820116820180604052508101906112239190611db2565b6001600160a01b0316336001600160a01b0316146112715760405162461bcd60e51b815260206004820152600b60248201526a13db9b1e48105c9d1a5cdd60aa1b604482015260640161052c565b5050565b604051636eb1769f60e11b81526000906001600160a01b0385169063dd62ed3e906112a69086908690600401611dcf565b602060405180830381865afa1580156112c3573d6000803e3d6000fd5b505050506040513d601f19601f820116820180604052508101906107589190611bf8565b6000806112f48686611835565b91509150808462ffffff16111561131d5760405162461bcd60e51b815260040161052c90611de9565b818462ffffff1610156113425760405162461bcd60e51b815260040161052c90611de9565b50815460ff1962ffffff90941661010081029490941663ffffffff199091161792149190911790555050565b6000806000846001600160a01b0316630ea5613f876040518263ffffffff1660e01b81526004016113a191815260200190565b60c060405180830381865afa1580156113be573d6000803e3d6000fd5b505050506040513d601f19601f820116820180604052508101906113e29190611e1a565b5050875493831463ffffffff1990941661010062ffffff85160260ff19161793909317909655979650505050505050565b80546001600160a01b0316606081156114b85782600101805461143590611e79565b80601f016020809104026020016040519081016040528092919081815260200182805461146190611e79565b80156114ae5780601f10611483576101008083540402835291602001916114ae565b820191906000526020600020905b81548152906001019060200180831161149157829003601f168201915b50505050506114da565b60405180604001604052806008815260200167554e434f4e46494760c01b8152505b9050915091565b6001600160a01b0381166115325760405162461bcd60e51b815260206004820152601860248201527706e756c6c20616464726573732c206f6e6c792045524332360441b604482015260640161052c565b600082511161157a5760405162461bcd60e51b81526020600482015260146024820152731bdb9b1e481b9bdb8b5b9d5b1b081cde5b589bdb60621b604482015260640161052c565b600183016115888382611efb565b5082546001600160a01b0319166001600160a01b03919091161790915550565b6040516000602482018190526044820181905290819060640160408051601f198184030181529181526020820180516001600160e01b0316638639415b60e01b1790525190915060009081906001600160a01b0387169061160a908590611c11565b6000604051808303816000865af19150503d8060008114611647576040519150601f19603f3d011682016040523d82523d6000602084013e61164c565b606091505b50915091508161166e5760405162461bcd60e51b815260040161052c90611c2d565b805160c0819003611694575050835461ffff191661010017845550600091506105029050565b8061010003610b8e575050835461ffff191661010117845550600191506105029050565b604051636eb1769f60e11b815281906001600160a01b0384169063dd62ed3e906116e89087903090600401611dcf565b602060405180830381865afa158015611705573d6000803e3d6000fd5b505050506040513d601f19601f820116820180604052508101906117299190611bf8565b10156117765760405162461bcd60e51b815260206004820152601c60248201527b496e73756666696369656e7420455243323020616c6c6f77616e636560201b604482015260640161052c565b6040516370a0823160e01b815281906001600160a01b038416906370a08231906117a4908790600401611a89565b602060405180830381865afa1580156117c1573d6000803e3d6000fd5b505050506040513d601f19601f820116820180604052508101906117e59190611bf8565b10156118305760405162461bcd60e51b815260206004820152601a602482015279496e73756666696369656e742045524332302062616c616e636560301b604482015260640161052c565b505050565b604051630ea5613f60e01b81526004810183905260009081906001600160a01b03841690630ea5613f9060240160c060405180830381865afa15801561187f573d6000803e3d6000fd5b505050506040513d601f19601f820116820180604052508101906118a39190611e1a565b5093989297509195505050505050565b6001600160a01b03811681146118c857600080fd5b50565b80356118d6816118b3565b919050565b6000602082840312156118ed57600080fd5b81356104c6816118b3565b6000806040838503121561190b57600080fd5b82359150602083013561191d816118b3565b809150509250929050565b60008060006060848603121561193d57600080fd5b8335611948816118b3565b925060208401359150604084013561195f816118b3565b809150509250925092565b60008060006060848603121561197f57600080fd5b833592506020840135611991816118b3565b915060408401356001600160f81b038116811461195f57600080fd5b6000806000606084860312156119c257600080fd5b8335925060208401356119d4816118b3565b9150604084013562ffffff8116811461195f57600080fd5b60005b83811015611a075781810151838201526020016119ef565b50506000910152565b60008151808452611a288160208601602086016119ec565b601f01601f19169290920160200192915050565b6020815260006104c66020830184611a10565b8415158152836020820152608060408201526000611a706080830185611a10565b905060018060a01b038316606083015295945050505050565b6001600160a01b0391909116815260200190565b634e487b7160e01b600052604160045260246000fd5b60008060008060808587031215611ac957600080fd5b843593506020850135611adb816118b3565b925060408501356001600160401b0380821115611af757600080fd5b818701915087601f830112611b0b57600080fd5b813581811115611b1d57611b1d611a9d565b604051601f8201601f19908116603f01168101908382118183101715611b4557611b45611a9d565b816040528281528a6020848701011115611b5e57600080fd5b826020860160208301376000602084830101528096505050505050611b85606086016118cb565b905092959194509250565b6020808252601f908201527f5265656e7472616e637947756172643a207265656e7472616e742063616c6c00604082015260600190565b60208082526017908201527613585e081a5b9d9bd8d85d1a5bdb9cc81c995858da1959604a1b604082015260600190565b600060208284031215611c0a57600080fd5b5051919050565b60008251611c238184602087016119ec565b9190910192915050565b60208082526025908201527f6765745072696d617279526576656e756553706c69747328292063616c6c2066604082015264185a5b195960da1b606082015260800190565b600080600080600080600080610100898b031215611c8f57600080fd5b885197506020890151611ca1816118b3565b60408a015160608b01519198509650611cb9816118b3565b60808a015160a08b01519196509450611cd1816118b3565b60c08a015160e08b01519194509250611ce9816118b3565b809150509295985092959890939650565b6001600160a01b039384168152919092166020820152604081019190915260600190565b805180151581146118d657600080fd5b600060208284031215611d4057600080fd5b6104c682611d1e565b60008060008060008060c08789031215611d6257600080fd5b865195506020870151611d74816118b3565b604088015160608901519196509450611d8c816118b3565b608088015160a08901519194509250611da4816118b3565b809150509295509295509295565b600060208284031215611dc457600080fd5b81516104c6816118b3565b6001600160a01b0392831681529116602082015260400190565b602080825260179082015276496e76616c6964206d617820696e766f636174696f6e7360481b604082015260600190565b60008060008060008060c08789031215611e3357600080fd5b8651955060208701519450611e4a60408801611d1e565b9350611e5860608801611d1e565b925060808701519150611e6d60a08801611d1e565b90509295509295509295565b600181811c90821680611e8d57607f821691505b6020821081036104cd57634e487b7160e01b600052602260045260246000fd5b601f82111561183057600081815260208120601f850160051c81016020861015611ed45750805b601f850160051c820191505b81811015611ef357828155600101611ee0565b505050505050565b81516001600160401b03811115611f1457611f14611a9d565b611f2881611f228454611e79565b84611ead565b602080601f831160018114611f5d5760008415611f455750858301515b600019600386901b1c1916600185901b178555611ef3565b600085815260208120601f198616915b82811015611f8c57888601518255948401946001909101908401611f6d565b5085821015611faa5787850151600019600388901b60f8161c191681555b5050505050600190811b0190555056fea26469706673582212209e55e815f28d530efe3bc96f7e4d242caa9bad6ad257c9f54aba50df1b30798964736f6c63430008130033",
  "linkReferences": {},
  "deployedLinkReferences": {}
}