{
  "_format": "hh-sol-artifact-1",
  "contractName": "MinterDALinV5",
  "sourceName": "contracts/minter-suite/Minters/MinterDALinV5.sol",
  "abi": [
    {
      "inputs": [
        {
          "internalType": "address",
          "name": "_minterFilter",
          "type": "address"
        }
      ],
      "stateMutability": "nonpayable",
      "type": "constructor"
    },
    {
      "anonymous": false,
      "inputs": [
        {
          "indexed": false,
          "internalType": "uint256",
          "name": "_minimumAuctionLengthSeconds",
          "type": "uint256"
        }
      ],
      "name": "AuctionMinimumLengthSecondsUpdated",
      "type": "event"
    },
    {
      "anonymous": false,
      "inputs": [
        {
          "indexed": true,
          "internalType": "uint256",
          "name": "_projectId",
          "type": "uint256"
        },
        {
          "indexed": true,
          "internalType": "address",
          "name": "_coreContract",
          "type": "address"
        },
        {
          "indexed": false,
          "internalType": "bytes32",
          "name": "_key",
          "type": "bytes32"
        }
      ],
      "name": "ConfigKeyRemoved",
      "type": "event"
    },
    {
      "anonymous": false,
      "inputs": [
        {
          "indexed": true,
          "internalType": "uint256",
          "name": "_projectId",
          "type": "uint256"
        },
        {
          "indexed": true,
          "internalType": "address",
          "name": "_coreContract",
          "type": "address"
        },
        {
          "indexed": false,
          "internalType": "bytes32",
          "name": "_key",
          "type": "bytes32"
        },
        {
          "indexed": false,
          "internalType": "uint256",
          "name": "_value",
          "type": "uint256"
        }
      ],
      "name": "ConfigValueAddedToSet",
      "type": "event"
    },
    {
      "anonymous": false,
      "inputs": [
        {
          "indexed": true,
          "internalType": "uint256",
          "name": "_projectId",
          "type": "uint256"
        },
        {
          "indexed": true,
          "internalType": "address",
          "name": "_coreContract",
          "type": "address"
        },
        {
          "indexed": false,
          "internalType": "bytes32",
          "name": "_key",
          "type": "bytes32"
        },
        {
          "indexed": false,
          "internalType": "address",
          "name": "_value",
          "type": "address"
        }
      ],
      "name": "ConfigValueAddedToSet",
      "type": "event"
    },
    {
      "anonymous": false,
      "inputs": [
        {
          "indexed": true,
          "internalType": "uint256",
          "name": "_projectId",
          "type": "uint256"
        },
        {
          "indexed": true,
          "internalType": "address",
          "name": "_coreContract",
          "type": "address"
        },
        {
          "indexed": false,
          "internalType": "bytes32",
          "name": "_key",
          "type": "bytes32"
        },
        {
          "indexed": false,
          "internalType": "bytes32",
          "name": "_value",
          "type": "bytes32"
        }
      ],
      "name": "ConfigValueAddedToSet",
      "type": "event"
    },
    {
      "anonymous": false,
      "inputs": [
        {
          "indexed": true,
          "internalType": "uint256",
          "name": "_projectId",
          "type": "uint256"
        },
        {
          "indexed": true,
          "internalType": "address",
          "name": "_coreContract",
          "type": "address"
        },
        {
          "indexed": false,
          "internalType": "bytes32",
          "name": "_key",
          "type": "bytes32"
        },
        {
          "indexed": false,
          "internalType": "uint256",
          "name": "_value",
          "type": "uint256"
        }
      ],
      "name": "ConfigValueRemovedFromSet",
      "type": "event"
    },
    {
      "anonymous": false,
      "inputs": [
        {
          "indexed": true,
          "internalType": "uint256",
          "name": "_projectId",
          "type": "uint256"
        },
        {
          "indexed": true,
          "internalType": "address",
          "name": "_coreContract",
          "type": "address"
        },
        {
          "indexed": false,
          "internalType": "bytes32",
          "name": "_key",
          "type": "bytes32"
        },
        {
          "indexed": false,
          "internalType": "address",
          "name": "_value",
          "type": "address"
        }
      ],
      "name": "ConfigValueRemovedFromSet",
      "type": "event"
    },
    {
      "anonymous": false,
      "inputs": [
        {
          "indexed": true,
          "internalType": "uint256",
          "name": "_projectId",
          "type": "uint256"
        },
        {
          "indexed": true,
          "internalType": "address",
          "name": "_coreContract",
          "type": "address"
        },
        {
          "indexed": false,
          "internalType": "bytes32",
          "name": "_key",
          "type": "bytes32"
        },
        {
          "indexed": false,
          "internalType": "bytes32",
          "name": "_value",
          "type": "bytes32"
        }
      ],
      "name": "ConfigValueRemovedFromSet",
      "type": "event"
    },
    {
      "anonymous": false,
      "inputs": [
        {
          "indexed": true,
          "internalType": "uint256",
          "name": "_projectId",
          "type": "uint256"
        },
        {
          "indexed": true,
          "internalType": "address",
          "name": "_coreContract",
          "type": "address"
        },
        {
          "indexed": false,
          "internalType": "bytes32",
          "name": "_key",
          "type": "bytes32"
        },
        {
          "indexed": false,
          "internalType": "bool",
          "name": "_value",
          "type": "bool"
        }
      ],
      "name": "ConfigValueSet",
      "type": "event"
    },
    {
      "anonymous": false,
      "inputs": [
        {
          "indexed": true,
          "internalType": "uint256",
          "name": "_projectId",
          "type": "uint256"
        },
        {
          "indexed": true,
          "internalType": "address",
          "name": "_coreContract",
          "type": "address"
        },
        {
          "indexed": false,
          "internalType": "bytes32",
          "name": "_key",
          "type": "bytes32"
        },
        {
          "indexed": false,
          "internalType": "uint256",
          "name": "_value",
          "type": "uint256"
        }
      ],
      "name": "ConfigValueSet",
      "type": "event"
    },
    {
      "anonymous": false,
      "inputs": [
        {
          "indexed": true,
          "internalType": "uint256",
          "name": "_projectId",
          "type": "uint256"
        },
        {
          "indexed": true,
          "internalType": "address",
          "name": "_coreContract",
          "type": "address"
        },
        {
          "indexed": false,
          "internalType": "bytes32",
          "name": "_key",
          "type": "bytes32"
        },
        {
          "indexed": false,
          "internalType": "address",
          "name": "_value",
          "type": "address"
        }
      ],
      "name": "ConfigValueSet",
      "type": "event"
    },
    {
      "anonymous": false,
      "inputs": [
        {
          "indexed": true,
          "internalType": "uint256",
          "name": "_projectId",
          "type": "uint256"
        },
        {
          "indexed": true,
          "internalType": "address",
          "name": "_coreContract",
          "type": "address"
        },
        {
          "indexed": false,
          "internalType": "bytes32",
          "name": "_key",
          "type": "bytes32"
        },
        {
          "indexed": false,
          "internalType": "bytes32",
          "name": "_value",
          "type": "bytes32"
        }
      ],
      "name": "ConfigValueSet",
      "type": "event"
    },
    {
      "anonymous": false,
      "inputs": [
        {
          "indexed": true,
          "internalType": "uint256",
          "name": "_projectId",
          "type": "uint256"
        },
        {
          "indexed": true,
          "internalType": "address",
          "name": "_coreContract",
          "type": "address"
        },
        {
          "indexed": true,
          "internalType": "uint256",
          "name": "_pricePerTokenInWei",
          "type": "uint256"
        }
      ],
      "name": "PricePerTokenInWeiUpdated",
      "type": "event"
    },
    {
      "anonymous": false,
      "inputs": [
        {
          "indexed": true,
          "internalType": "uint256",
          "name": "_projectId",
          "type": "uint256"
        },
        {
          "indexed": true,
          "internalType": "address",
          "name": "_coreContract",
          "type": "address"
        },
        {
          "indexed": true,
          "internalType": "address",
          "name": "_currencyAddress",
          "type": "address"
        },
        {
          "indexed": false,
          "internalType": "string",
          "name": "_currencySymbol",
          "type": "string"
        }
      ],
      "name": "ProjectCurrencyInfoUpdated",
      "type": "event"
    },
    {
      "anonymous": false,
      "inputs": [
        {
          "indexed": true,
          "internalType": "uint256",
          "name": "_projectId",
          "type": "uint256"
        },
        {
          "indexed": true,
          "internalType": "address",
          "name": "_coreContract",
          "type": "address"
        },
        {
          "indexed": false,
          "internalType": "uint256",
          "name": "_maxInvocations",
          "type": "uint256"
        }
      ],
      "name": "ProjectMaxInvocationsLimitUpdated",
      "type": "event"
    },
    {
      "anonymous": false,
      "inputs": [
        {
          "indexed": true,
          "internalType": "uint256",
          "name": "_projectId",
          "type": "uint256"
        },
        {
          "indexed": true,
          "internalType": "address",
          "name": "_coreContract",
          "type": "address"
        }
      ],
      "name": "ResetAuctionDetails",
      "type": "event"
    },
    {
      "anonymous": false,
      "inputs": [
        {
          "indexed": true,
          "internalType": "uint256",
          "name": "_projectId",
          "type": "uint256"
        },
        {
          "indexed": true,
          "internalType": "address",
          "name": "_coreContract",
          "type": "address"
        },
        {
          "indexed": false,
          "internalType": "uint64",
          "name": "_auctionTimestampStart",
          "type": "uint64"
        },
        {
          "indexed": false,
          "internalType": "uint64",
          "name": "_auctionTimestampEnd",
          "type": "uint64"
        },
        {
          "indexed": false,
          "internalType": "uint128",
          "name": "_startPrice",
          "type": "uint128"
        },
        {
          "indexed": false,
          "internalType": "uint128",
          "name": "_basePrice",
          "type": "uint128"
        }
      ],
      "name": "SetAuctionDetailsLin",
      "type": "event"
    },
    {
      "inputs": [
        {
          "internalType": "uint256",
          "name": "_projectId",
          "type": "uint256"
        },
        {
          "internalType": "address",
          "name": "_coreContract",
          "type": "address"
        }
      ],
      "name": "getPriceInfo",
      "outputs": [
        {
          "internalType": "bool",
          "name": "isConfigured",
          "type": "bool"
        },
        {
          "internalType": "uint256",
          "name": "tokenPriceInWei",
          "type": "uint256"
        },
        {
          "internalType": "string",
          "name": "currencySymbol",
          "type": "string"
        },
        {
          "internalType": "address",
          "name": "currencyAddress",
          "type": "address"
        }
      ],
      "stateMutability": "view",
      "type": "function"
    },
    {
      "inputs": [
        {
          "internalType": "address",
          "name": "_coreContract",
          "type": "address"
        }
      ],
      "name": "isEngineView",
      "outputs": [
        {
          "internalType": "bool",
          "name": "",
          "type": "bool"
        }
      ],
      "stateMutability": "view",
      "type": "function"
    },
    {
      "inputs": [
        {
          "internalType": "uint256",
          "name": "_projectId",
          "type": "uint256"
        },
        {
          "internalType": "address",
          "name": "_coreContract",
          "type": "address"
        },
        {
          "internalType": "uint24",
          "name": "_maxInvocations",
          "type": "uint24"
        }
      ],
      "name": "manuallyLimitProjectMaxInvocations",
      "outputs": [],
      "stateMutability": "nonpayable",
      "type": "function"
    },
    {
      "inputs": [
        {
          "internalType": "uint256",
          "name": "_projectId",
          "type": "uint256"
        },
        {
          "internalType": "address",
          "name": "_coreContract",
          "type": "address"
        }
      ],
      "name": "maxInvocationsProjectConfig",
      "outputs": [
        {
          "components": [
            {
              "internalType": "bool",
              "name": "maxHasBeenInvoked",
              "type": "bool"
            },
            {
              "internalType": "uint24",
              "name": "maxInvocations",
              "type": "uint24"
            }
          ],
          "internalType": "struct MaxInvocationsLib.MaxInvocationsProjectConfig",
          "name": "",
          "type": "tuple"
        }
      ],
      "stateMutability": "view",
      "type": "function"
    },
    {
      "inputs": [],
      "name": "minimumAuctionLengthSeconds",
      "outputs": [
        {
          "internalType": "uint256",
          "name": "",
          "type": "uint256"
        }
      ],
      "stateMutability": "view",
      "type": "function"
    },
    {
      "inputs": [],
      "name": "minterFilterAddress",
      "outputs": [
        {
          "internalType": "address",
          "name": "",
          "type": "address"
        }
      ],
      "stateMutability": "view",
      "type": "function"
    },
    {
      "inputs": [],
      "name": "minterType",
      "outputs": [
        {
          "internalType": "string",
          "name": "",
          "type": "string"
        }
      ],
      "stateMutability": "view",
      "type": "function"
    },
    {
      "inputs": [],
      "name": "minterVersion",
      "outputs": [
        {
          "internalType": "string",
          "name": "",
          "type": "string"
        }
      ],
      "stateMutability": "view",
      "type": "function"
    },
    {
      "inputs": [
        {
          "internalType": "uint256",
          "name": "_projectId",
          "type": "uint256"
        },
        {
          "internalType": "address",
          "name": "_coreContract",
          "type": "address"
        }
      ],
      "name": "projectAuctionParameters",
      "outputs": [
        {
          "internalType": "uint64",
          "name": "timestampStart",
          "type": "uint64"
        },
        {
          "internalType": "uint64",
          "name": "timestampEnd",
          "type": "uint64"
        },
        {
          "internalType": "uint128",
          "name": "startPrice",
          "type": "uint128"
        },
        {
          "internalType": "uint128",
          "name": "basePrice",
          "type": "uint128"
        }
      ],
      "stateMutability": "view",
      "type": "function"
    },
    {
      "inputs": [
        {
          "internalType": "uint256",
          "name": "_projectId",
          "type": "uint256"
        },
        {
          "internalType": "address",
          "name": "_coreContract",
          "type": "address"
        }
      ],
      "name": "projectMaxHasBeenInvoked",
      "outputs": [
        {
          "internalType": "bool",
          "name": "",
          "type": "bool"
        }
      ],
      "stateMutability": "view",
      "type": "function"
    },
    {
      "inputs": [
        {
          "internalType": "uint256",
          "name": "_projectId",
          "type": "uint256"
        },
        {
          "internalType": "address",
          "name": "_coreContract",
          "type": "address"
        }
      ],
      "name": "projectMaxInvocations",
      "outputs": [
        {
          "internalType": "uint256",
          "name": "",
          "type": "uint256"
        }
      ],
      "stateMutability": "view",
      "type": "function"
    },
    {
      "inputs": [
        {
          "internalType": "uint256",
          "name": "_projectId",
          "type": "uint256"
        },
        {
          "internalType": "address",
          "name": "_coreContract",
          "type": "address"
        }
      ],
      "name": "purchase",
      "outputs": [
        {
          "internalType": "uint256",
          "name": "tokenId",
          "type": "uint256"
        }
      ],
      "stateMutability": "payable",
      "type": "function"
    },
    {
      "inputs": [
        {
          "internalType": "address",
          "name": "_to",
          "type": "address"
        },
        {
          "internalType": "uint256",
          "name": "_projectId",
          "type": "uint256"
        },
        {
          "internalType": "address",
          "name": "_coreContract",
          "type": "address"
        }
      ],
      "name": "purchaseTo",
      "outputs": [
        {
          "internalType": "uint256",
          "name": "tokenId",
          "type": "uint256"
        }
      ],
      "stateMutability": "payable",
      "type": "function"
    },
    {
      "inputs": [
        {
          "internalType": "uint256",
          "name": "_projectId",
          "type": "uint256"
        },
        {
          "internalType": "address",
          "name": "_coreContract",
          "type": "address"
        }
      ],
      "name": "resetAuctionDetails",
      "outputs": [],
      "stateMutability": "nonpayable",
      "type": "function"
    },
    {
      "inputs": [
        {
          "internalType": "uint256",
          "name": "_projectId",
          "type": "uint256"
        },
        {
          "internalType": "address",
          "name": "_coreContract",
          "type": "address"
        },
        {
          "internalType": "uint64",
          "name": "_auctionTimestampStart",
          "type": "uint64"
        },
        {
          "internalType": "uint64",
          "name": "_auctionTimestampEnd",
          "type": "uint64"
        },
        {
          "internalType": "uint128",
          "name": "_startPrice",
          "type": "uint128"
        },
        {
          "internalType": "uint128",
          "name": "_basePrice",
          "type": "uint128"
        }
      ],
      "name": "setAuctionDetails",
      "outputs": [],
      "stateMutability": "nonpayable",
      "type": "function"
    },
    {
      "inputs": [
        {
          "internalType": "uint256",
          "name": "_minimumAuctionLengthSeconds",
          "type": "uint256"
        }
      ],
      "name": "setMinimumAuctionLengthSeconds",
      "outputs": [],
      "stateMutability": "nonpayable",
      "type": "function"
    },
    {
      "inputs": [
        {
          "internalType": "uint256",
          "name": "_projectId",
          "type": "uint256"
        },
        {
          "internalType": "address",
          "name": "_coreContract",
          "type": "address"
        }
      ],
      "name": "syncProjectMaxInvocationsToCore",
      "outputs": [],
      "stateMutability": "nonpayable",
      "type": "function"
    }
  ],
  "bytecode": "0x60c060405261025860015534801561001657600080fd5b50604051611ebf380380611ebf83398101604081905261003591610088565b600160008190556001600160a01b038216608081905260a052546040519081527f60faa7f980566852d75d660aa6b4fed89d6ec2b2137d08e2f12dbe34028b70309060200160405180910390a1506100b8565b60006020828403121561009a57600080fd5b81516001600160a01b03811681146100b157600080fd5b9392505050565b60805160a051611ddb6100e4600039600061066701526000818161034d01526104880152611ddb6000f3fe6080604052600436106100ce5760003560e01c806301000da7146100d35780632fc37ef1146101085780634869f3df1461012a5780634e8d87871461015857806393cf5b331461016b57806395c575fa1461018b5780639a94488a146101ab578063ae77c23714610243578063b000e33414610256578063b2d30ac714610276578063cce7c9091461028c578063d3ddabe6146102ac578063d9bffbce146102eb578063d9eb16db1461030b578063dd85582f1461033b578063e9d1e8ac14610387578063fea1d7b4146103c0575b600080fd5b3480156100df57600080fd5b506100f36100ee36600461186e565b610442565b60405190151581526020015b60405180910390f35b34801561011457600080fd5b5061012861012336600461188b565b610483565b005b34801561013657600080fd5b5061014a6101453660046118a4565b6104f1565b6040519081526020016100ff565b61014a6101663660046118d4565b610529565b34801561017757600080fd5b50610128610186366004611949565b61071f565b34801561019757600080fd5b506101286101a63660046118a4565b610879565b3480156101b757600080fd5b506102216101c63660046118a4565b6040805180820190915260008082526020820152506001600160a01b031660009081526004602090815260408083209383529281529082902082518084019093525460ff811615158352610100900462ffffff169082015290565b6040805182511515815260209283015162ffffff1692810192909252016100ff565b61014a6102513660046118a4565b6108ee565b34801561026257600080fd5b506101286102713660046119b8565b6108fb565b34801561028257600080fd5b5061014a60015481565b34801561029857600080fd5b506100f36102a73660046118a4565b610983565b3480156102b857600080fd5b506102de60405180604001604052806006815260200165076352e302e360d41b81525081565b6040516100ff9190611a47565b3480156102f757600080fd5b506101286103063660046118a4565b6109af565b34801561031757600080fd5b5061032b6103263660046118a4565b610a28565b6040516100ff9493929190611a5a565b34801561034757600080fd5b5061036f7f000000000000000000000000000000000000000000000000000000000000000081565b6040516001600160a01b0390911681526020016100ff565b34801561039357600080fd5b506102de6040518060400160405280600d81526020016c4d696e74657244414c696e563560981b81525081565b3480156103cc57600080fd5b506104326103db3660046118a4565b6001600160a01b031660009081526003602090815260408083209383529290522080546001909101546001600160401b0380831693600160401b8404909116926001600160801b03600160801b9091048116921690565b6040516100ff9493929190611a94565b6001600160a01b03811660009081526002602052604081208054610100900460ff1615610473575460ff1692915050565b61047c83610ae9565b9392505050565b6104b67f00000000000000000000000000000000000000000000000000000000000000003330632fc37ef160e01b610c21565b60018190556040518181527f60faa7f980566852d75d660aa6b4fed89d6ec2b2137d08e2f12dbe34028b70309060200160405180910390a150565b6001600160a01b0381166000908152600460209081526040808320858452909152812054610100900462ffffff165b90505b92915050565b60006002600054036105825760405162461bcd60e51b815260206004820152601f60248201527f5265656e7472616e637947756172643a207265656e7472616e742063616c6c0060448201526064015b60405180910390fd5b600260009081556001600160a01b038316808252600460209081526040808420878552825280842092845260038252808420878552909152909120815460ff16156105df5760405162461bcd60e51b815260040161057990611ac8565b60006105ea82610c7c565b9050803410156106355760405162461bcd60e51b815260206004820152601660248201527526b4b7103b30b63ab2903a379036b4b73a103932b89760511b6044820152606401610579565b6040516117cd60e21b81526001600160a01b0388811660048301526024820188905286811660448301523360648301527f00000000000000000000000000000000000000000000000000000000000000001690615f34906084016020604051808303816000875af11580156106ae573d6000803e3d6000fd5b505050506040513d601f19601f820116820180604052508101906106d29190611af9565b93506106de8484610d8b565b6001600160a01b0385166000908152600260205260408120610701908790610dd9565b905061070f87838884610e0b565b5050505060016000559392505050565b61072a868633610ec2565b6001600160a01b03851660009081526003602090815260408083208984529091529020600154610763906001600160401b038716611b28565b846001600160401b031610156107df5760405162461bcd60e51b815260206004820152603b60248201527f41756374696f6e206c656e677468206d757374206265206174206c656173742060448201527a6d696e696d756d41756374696f6e4c656e6774685365636f6e647360281b6064820152608401610579565b6107ec8186868686610f0c565b856001600160a01b0316877f300a4b371364240171f5c3f3082ff67ff31417f587860798ade5f36378f331908787878760405161082c9493929190611a94565b60405180910390a36001600160a01b03861660009081526004602090815260408083208a84529091529020610860816110a0565b1561086f5761086f88886109af565b5050505050505050565b61088c813330634ae2bafd60e11b610c21565b6001600160a01b038116600081815260036020908152604080832086845290915280822082815560010180546001600160801b03191690555184917f865169678476a498ca03f184818d6bd6217dd57b754577a944c19d6d75587c8091a35050565b6000610520338484610529565b610906838333610ec2565b6001600160a01b03821660009081526004602090815260408083208684529091529020610938908490849084906110c0565b60405162ffffff821681526001600160a01b0383169084907f1c3e74a6c6fefbaeee166b031cd2016349c6c863d5188b67c9bbd0b0dcb2e237906020015b60405180910390a3505050565b6001600160a01b038116600090815260046020908152604080832085845290915281205460ff16610520565b6109ba828233610ec2565b6001600160a01b038116600090815260046020908152604080832085845290915281206109ea9084908490611147565b9050816001600160a01b0316837f1c3e74a6c6fefbaeee166b031cd2016349c6c863d5188b67c9bbd0b0dcb2e2378360405161097691815260200190565b6001600160a01b0381166000908152600360209081526040808320858452909152812080546001600160801b03600160801b820416151592916060918391906001600160401b03164211610a8f578054600160801b90046001600160801b03169350610abd565b8054600160401b90046001600160401b0316600003610ab15760009350610abd565b610aba81610c7c565b93505b6040518060400160405280600381526020016208aa8960eb1b8152509250600091505092959194509250565b6040516000602482018190526044820181905290819060640160408051601f198184030181529181526020820180516001600160e01b0316638639415b60e01b1790525190915060009081906001600160a01b03861690610b4b908590611b3b565b600060405180830381855afa9150503d8060008114610b86576040519150601f19603f3d011682016040523d82523d6000602084013e610b8b565b606091505b509150915081610bad5760405162461bcd60e51b815260040161057990611b57565b805160c0819003610bc45750600095945050505050565b8061010003610bd95750600195945050505050565b60405162461bcd60e51b815260206004820152601e60248201527f556e657870656374656420726576656e75652073706c697420627974657300006044820152606401610579565b610c2d848484846111ec565b610c765760405162461bcd60e51b815260206004820152601a60248201527913db9b1e4810dbdc994810591b5a5b9050d308185b1b1bddd95960321b6044820152606401610579565b50505050565b805460018201546000916001600160401b0380821692600160401b8304909116916001600160801b03600160801b90910481169116428410610cfa5760405162461bcd60e51b8152602060048201526017602482015276105d58dd1a5bdb881b9bdd081e595d081cdd185c9d1959604a1b6044820152606401610579565b824210610d555760008311610d4c5760405162461bcd60e51b81526020600482015260186024820152774f6e6c7920636f6e666967757265642061756374696f6e7360401b6044820152606401610579565b95945050505050565b4284900384840382840381610d6a8285611b9c565b610d749190611bb3565b610d7e9086611bd5565b9998505050505050505050565b8054620f4240830660010190610100900462ffffff1680821115610dc15760405162461bcd60e51b815260040161057990611ac8565b808203610c7657825460ff1916600117835550505050565b8054600090610100900460ff1615610df65750805460ff16610523565b6000610e028484611274565b91506105239050565b3415610c7657600080610e1e8534611bd5565b90508015610eae5760405133908290600081818185875af1925050503d8060008114610e66576040519150601f19603f3d011682016040523d82523d6000602084013e610e6b565b606091505b50508092505081610eae5760405162461bcd60e51b815260206004820152600d60248201526c1499599d5b990819985a5b1959609a1b6044820152606401610579565b610eba86868686611384565b505050505050565b610ecd83838361174f565b610f075760405162461bcd60e51b815260206004820152600b60248201526a13db9b1e48105c9d1a5cdd60aa1b6044820152606401610579565b505050565b84546001600160401b03161580610f2c575084546001600160401b031642105b610f775760405162461bcd60e51b815260206004820152601c60248201527b27379036b7b234b334b1b0ba34b7b7399036b4b216b0bab1ba34b7b760211b6044820152606401610579565b836001600160401b03164210610fc65760405162461bcd60e51b81526020600482015260146024820152734f6e6c79206675747572652061756374696f6e7360601b6044820152606401610579565b806001600160801b0316826001600160801b03161161104a5760405162461bcd60e51b815260206004820152603a60248201527f41756374696f6e207374617274207072696365206d7573742062652067726561604482015279746572207468616e2061756374696f6e20656e6420707269636560301b6064820152608401610579565b84546001600160801b03928316600160801b026001600160401b03948516600160401b026001600160801b0319928316959096169490941794909417821692909217845560019093018054919093169116179055565b8054600090610100900462ffffff161580156105235750505460ff161590565b6000806110cd86866117d8565b91509150808462ffffff1611156110f65760405162461bcd60e51b815260040161057990611be8565b818462ffffff16101561111b5760405162461bcd60e51b815260040161057990611be8565b50815460ff1962ffffff90941661010081029490941663ffffffff199091161792149190911790555050565b6000806000846001600160a01b0316630ea5613f876040518263ffffffff1660e01b815260040161117a91815260200190565b60c060405180830381865afa158015611197573d6000803e3d6000fd5b505050506040513d601f19601f820116820180604052508101906111bb9190611c29565b5050875493831463ffffffff1990941661010062ffffff85160260ff19161793909317909655979650505050505050565b60405163230448b160e01b81526001600160a01b03848116600483015283811660248301526001600160e01b0319831660448301526000919086169063230448b1906064016020604051808303816000875af1158015611250573d6000803e3d6000fd5b505050506040513d601f19601f82011682018060405250810190610d4c9190611c7c565b6040516000602482018190526044820181905290819060640160408051601f198184030181529181526020820180516001600160e01b0316638639415b60e01b1790525190915060009081906001600160a01b038716906112d6908590611b3b565b6000604051808303816000865af19150503d8060008114611313576040519150601f19603f3d011682016040523d82523d6000602084013e611318565b606091505b50915091508161133a5760405162461bcd60e51b815260040161057990611b57565b805160c0819003611360575050835461ffff191661010017845550600091506105239050565b8061010003610bd9575050835461ffff191661010117845550600191506105239050565b8215610c7657600080600080600080600087156114d557604051638639415b60e01b8152600481018c9052602481018b905260009081906001600160a01b038c1690638639415b9060440161010060405180830381865afa1580156113ed573d6000803e3d6000fd5b505050506040513d601f19601f820116820180604052508101906114119190611c97565b969e50949c50909a509850919650919450909250905081156114ce576040516001600160a01b038216908390600081818185875af1925050503d8060008114611476576040519150601f19603f3d011682016040523d82523d6000602084013e61147b565b606091505b505080995050886114ce5760405162461bcd60e51b815260206004820181905260248201527f506c6174666f726d2050726f7669646572207061796d656e74206661696c65646044820152606401610579565b5050611555565b604051638639415b60e01b8152600481018c9052602481018b90526001600160a01b038a1690638639415b9060440160c060405180830381865afa158015611521573d6000803e3d6000fd5b505050506040513d601f19601f820116820180604052508101906115459190611d1f565b949a509298509096509450925090505b85156115fc576040516001600160a01b038616908790600081818185875af1925050503d80600081146115a4576040519150601f19603f3d011682016040523d82523d6000602084013e6115a9565b606091505b505080975050866115fc5760405162461bcd60e51b815260206004820152601e60248201527f52656e6465722050726f7669646572207061796d656e74206661696c656400006044820152606401610579565b831561169b576040516001600160a01b038416908590600081818185875af1925050503d806000811461164b576040519150601f19603f3d011682016040523d82523d6000602084013e611650565b606091505b5050809750508661169b5760405162461bcd60e51b8152602060048201526015602482015274105c9d1a5cdd081c185e5b595b9d0819985a5b1959605a1b6044820152606401610579565b8115611742576040516001600160a01b038216908390600081818185875af1925050503d80600081146116ea576040519150601f19603f3d011682016040523d82523d6000602084013e6116ef565b606091505b505080975050866117425760405162461bcd60e51b815260206004820152601f60248201527f4164646974696f6e616c205061796565207061796d656e74206661696c6564006044820152606401610579565b5050505050505050505050565b60405163a47d29cb60e01b8152600481018490526000906001600160a01b0384169063a47d29cb90602401602060405180830381865afa158015611797573d6000803e3d6000fd5b505050506040513d601f19601f820116820180604052508101906117bb9190611d88565b6001600160a01b0316826001600160a01b03161490509392505050565b604051630ea5613f60e01b81526004810183905260009081906001600160a01b03841690630ea5613f9060240160c060405180830381865afa158015611822573d6000803e3d6000fd5b505050506040513d601f19601f820116820180604052508101906118469190611c29565b5093989297509195505050505050565b6001600160a01b038116811461186b57600080fd5b50565b60006020828403121561188057600080fd5b813561047c81611856565b60006020828403121561189d57600080fd5b5035919050565b600080604083850312156118b757600080fd5b8235915060208301356118c981611856565b809150509250929050565b6000806000606084860312156118e957600080fd5b83356118f481611856565b925060208401359150604084013561190b81611856565b809150509250925092565b80356001600160401b038116811461192d57600080fd5b919050565b80356001600160801b038116811461192d57600080fd5b60008060008060008060c0878903121561196257600080fd5b86359550602087013561197481611856565b945061198260408801611916565b935061199060608801611916565b925061199e60808801611932565b91506119ac60a08801611932565b90509295509295509295565b6000806000606084860312156119cd57600080fd5b8335925060208401356119df81611856565b9150604084013562ffffff8116811461190b57600080fd5b60005b83811015611a125781810151838201526020016119fa565b50506000910152565b60008151808452611a338160208601602086016119f7565b601f01601f19169290920160200192915050565b6020815260006105206020830184611a1b565b8415158152836020820152608060408201526000611a7b6080830185611a1b565b905060018060a01b038316606083015295945050505050565b6001600160401b0394851681529290931660208301526001600160801b039081166040830152909116606082015260800190565b60208082526017908201527613585e081a5b9d9bd8d85d1a5bdb9cc81c995858da1959604a1b604082015260600190565b600060208284031215611b0b57600080fd5b5051919050565b634e487b7160e01b600052601160045260246000fd5b8082018082111561052357610523611b12565b60008251611b4d8184602087016119f7565b9190910192915050565b60208082526025908201527f6765745072696d617279526576656e756553706c69747328292063616c6c2066604082015264185a5b195960da1b606082015260800190565b808202811582820484141761052357610523611b12565b600082611bd057634e487b7160e01b600052601260045260246000fd5b500490565b8181038181111561052357610523611b12565b602080825260179082015276496e76616c6964206d617820696e766f636174696f6e7360481b604082015260600190565b8051801515811461192d57600080fd5b60008060008060008060c08789031215611c4257600080fd5b8651955060208701519450611c5960408801611c19565b9350611c6760608801611c19565b9250608087015191506119ac60a08801611c19565b600060208284031215611c8e57600080fd5b61052082611c19565b600080600080600080600080610100898b031215611cb457600080fd5b885197506020890151611cc681611856565b60408a015160608b01519198509650611cde81611856565b60808a015160a08b01519196509450611cf681611856565b60c08a015160e08b01519194509250611d0e81611856565b809150509295985092959890939650565b60008060008060008060c08789031215611d3857600080fd5b865195506020870151611d4a81611856565b604088015160608901519196509450611d6281611856565b608088015160a08901519194509250611d7a81611856565b809150509295509295509295565b600060208284031215611d9a57600080fd5b815161047c8161185656fea2646970667358221220b5aeb88858456b3753796283d8ddf31277a054870f10e1d398b09a0ce44be2bc64736f6c63430008130033",
  "linkReferences": {},
  "deployedLinkReferences": {}
}