{
  "_format": "hh-sol-artifact-1",
  "contractName": "MinterSetPriceMerkleV5",
  "sourceName": "contracts/minter-suite/Minters/MinterSetPriceMerkleV5.sol",
  "abi": [
    {
      "inputs": [
        {
          "internalType": "address",
          "name": "_minterFilter",
          "type": "address"
        },
        {
          "internalType": "address",
          "name": "_delegationRegistryAddress",
          "type": "address"
        }
      ],
      "stateMutability": "nonpayable",
      "type": "constructor"
    },
    {
      "anonymous": false,
      "inputs": [
        {
          "indexed": true,
          "internalType": "uint256",
          "name": "_projectId",
          "type": "uint256"
        },
        {
          "indexed": true,
          "internalType": "address",
          "name": "_coreContract",
          "type": "address"
        },
        {
          "indexed": false,
          "internalType": "bytes32",
          "name": "_key",
          "type": "bytes32"
        }
      ],
      "name": "ConfigKeyRemoved",
      "type": "event"
    },
    {
      "anonymous": false,
      "inputs": [
        {
          "indexed": true,
          "internalType": "uint256",
          "name": "_projectId",
          "type": "uint256"
        },
        {
          "indexed": true,
          "internalType": "address",
          "name": "_coreContract",
          "type": "address"
        },
        {
          "indexed": false,
          "internalType": "bytes32",
          "name": "_key",
          "type": "bytes32"
        },
        {
          "indexed": false,
          "internalType": "uint256",
          "name": "_value",
          "type": "uint256"
        }
      ],
      "name": "ConfigValueAddedToSet",
      "type": "event"
    },
    {
      "anonymous": false,
      "inputs": [
        {
          "indexed": true,
          "internalType": "uint256",
          "name": "_projectId",
          "type": "uint256"
        },
        {
          "indexed": true,
          "internalType": "address",
          "name": "_coreContract",
          "type": "address"
        },
        {
          "indexed": false,
          "internalType": "bytes32",
          "name": "_key",
          "type": "bytes32"
        },
        {
          "indexed": false,
          "internalType": "address",
          "name": "_value",
          "type": "address"
        }
      ],
      "name": "ConfigValueAddedToSet",
      "type": "event"
    },
    {
      "anonymous": false,
      "inputs": [
        {
          "indexed": true,
          "internalType": "uint256",
          "name": "_projectId",
          "type": "uint256"
        },
        {
          "indexed": true,
          "internalType": "address",
          "name": "_coreContract",
          "type": "address"
        },
        {
          "indexed": false,
          "internalType": "bytes32",
          "name": "_key",
          "type": "bytes32"
        },
        {
          "indexed": false,
          "internalType": "bytes32",
          "name": "_value",
          "type": "bytes32"
        }
      ],
      "name": "ConfigValueAddedToSet",
      "type": "event"
    },
    {
      "anonymous": false,
      "inputs": [
        {
          "indexed": true,
          "internalType": "uint256",
          "name": "_projectId",
          "type": "uint256"
        },
        {
          "indexed": true,
          "internalType": "address",
          "name": "_coreContract",
          "type": "address"
        },
        {
          "indexed": false,
          "internalType": "bytes32",
          "name": "_key",
          "type": "bytes32"
        },
        {
          "indexed": false,
          "internalType": "uint256",
          "name": "_value",
          "type": "uint256"
        }
      ],
      "name": "ConfigValueRemovedFromSet",
      "type": "event"
    },
    {
      "anonymous": false,
      "inputs": [
        {
          "indexed": true,
          "internalType": "uint256",
          "name": "_projectId",
          "type": "uint256"
        },
        {
          "indexed": true,
          "internalType": "address",
          "name": "_coreContract",
          "type": "address"
        },
        {
          "indexed": false,
          "internalType": "bytes32",
          "name": "_key",
          "type": "bytes32"
        },
        {
          "indexed": false,
          "internalType": "address",
          "name": "_value",
          "type": "address"
        }
      ],
      "name": "ConfigValueRemovedFromSet",
      "type": "event"
    },
    {
      "anonymous": false,
      "inputs": [
        {
          "indexed": true,
          "internalType": "uint256",
          "name": "_projectId",
          "type": "uint256"
        },
        {
          "indexed": true,
          "internalType": "address",
          "name": "_coreContract",
          "type": "address"
        },
        {
          "indexed": false,
          "internalType": "bytes32",
          "name": "_key",
          "type": "bytes32"
        },
        {
          "indexed": false,
          "internalType": "bytes32",
          "name": "_value",
          "type": "bytes32"
        }
      ],
      "name": "ConfigValueRemovedFromSet",
      "type": "event"
    },
    {
      "anonymous": false,
      "inputs": [
        {
          "indexed": true,
          "internalType": "uint256",
          "name": "_projectId",
          "type": "uint256"
        },
        {
          "indexed": true,
          "internalType": "address",
          "name": "_coreContract",
          "type": "address"
        },
        {
          "indexed": false,
          "internalType": "bytes32",
          "name": "_key",
          "type": "bytes32"
        },
        {
          "indexed": false,
          "internalType": "bool",
          "name": "_value",
          "type": "bool"
        }
      ],
      "name": "ConfigValueSet",
      "type": "event"
    },
    {
      "anonymous": false,
      "inputs": [
        {
          "indexed": true,
          "internalType": "uint256",
          "name": "_projectId",
          "type": "uint256"
        },
        {
          "indexed": true,
          "internalType": "address",
          "name": "_coreContract",
          "type": "address"
        },
        {
          "indexed": false,
          "internalType": "bytes32",
          "name": "_key",
          "type": "bytes32"
        },
        {
          "indexed": false,
          "internalType": "uint256",
          "name": "_value",
          "type": "uint256"
        }
      ],
      "name": "ConfigValueSet",
      "type": "event"
    },
    {
      "anonymous": false,
      "inputs": [
        {
          "indexed": true,
          "internalType": "uint256",
          "name": "_projectId",
          "type": "uint256"
        },
        {
          "indexed": true,
          "internalType": "address",
          "name": "_coreContract",
          "type": "address"
        },
        {
          "indexed": false,
          "internalType": "bytes32",
          "name": "_key",
          "type": "bytes32"
        },
        {
          "indexed": false,
          "internalType": "address",
          "name": "_value",
          "type": "address"
        }
      ],
      "name": "ConfigValueSet",
      "type": "event"
    },
    {
      "anonymous": false,
      "inputs": [
        {
          "indexed": true,
          "internalType": "uint256",
          "name": "_projectId",
          "type": "uint256"
        },
        {
          "indexed": true,
          "internalType": "address",
          "name": "_coreContract",
          "type": "address"
        },
        {
          "indexed": false,
          "internalType": "bytes32",
          "name": "_key",
          "type": "bytes32"
        },
        {
          "indexed": false,
          "internalType": "bytes32",
          "name": "_value",
          "type": "bytes32"
        }
      ],
      "name": "ConfigValueSet",
      "type": "event"
    },
    {
      "anonymous": false,
      "inputs": [
        {
          "indexed": false,
          "internalType": "uint256",
          "name": "defaultMaxInvocationsPerAddress",
          "type": "uint256"
        }
      ],
      "name": "DefaultMaxInvocationsPerAddress",
      "type": "event"
    },
    {
      "anonymous": false,
      "inputs": [
        {
          "indexed": false,
          "internalType": "address",
          "name": "delegationRegistry",
          "type": "address"
        }
      ],
      "name": "DelegationRegistryUpdated",
      "type": "event"
    },
    {
      "anonymous": false,
      "inputs": [
        {
          "indexed": true,
          "internalType": "uint256",
          "name": "_projectId",
          "type": "uint256"
        },
        {
          "indexed": true,
          "internalType": "address",
          "name": "_coreContract",
          "type": "address"
        },
        {
          "indexed": true,
          "internalType": "uint256",
          "name": "_pricePerTokenInWei",
          "type": "uint256"
        }
      ],
      "name": "PricePerTokenInWeiUpdated",
      "type": "event"
    },
    {
      "anonymous": false,
      "inputs": [
        {
          "indexed": true,
          "internalType": "uint256",
          "name": "_projectId",
          "type": "uint256"
        },
        {
          "indexed": true,
          "internalType": "address",
          "name": "_coreContract",
          "type": "address"
        },
        {
          "indexed": true,
          "internalType": "address",
          "name": "_currencyAddress",
          "type": "address"
        },
        {
          "indexed": false,
          "internalType": "string",
          "name": "_currencySymbol",
          "type": "string"
        }
      ],
      "name": "ProjectCurrencyInfoUpdated",
      "type": "event"
    },
    {
      "anonymous": false,
      "inputs": [
        {
          "indexed": true,
          "internalType": "uint256",
          "name": "_projectId",
          "type": "uint256"
        },
        {
          "indexed": true,
          "internalType": "address",
          "name": "_coreContract",
          "type": "address"
        },
        {
          "indexed": false,
          "internalType": "uint256",
          "name": "_maxInvocations",
          "type": "uint256"
        }
      ],
      "name": "ProjectMaxInvocationsLimitUpdated",
      "type": "event"
    },
    {
      "inputs": [],
      "name": "delegationRegistryAddress",
      "outputs": [
        {
          "internalType": "address",
          "name": "",
          "type": "address"
        }
      ],
      "stateMutability": "view",
      "type": "function"
    },
    {
      "inputs": [
        {
          "internalType": "uint256",
          "name": "_projectId",
          "type": "uint256"
        },
        {
          "internalType": "address",
          "name": "_coreContract",
          "type": "address"
        }
      ],
      "name": "getPriceInfo",
      "outputs": [
        {
          "internalType": "bool",
          "name": "isConfigured",
          "type": "bool"
        },
        {
          "internalType": "uint256",
          "name": "tokenPriceInWei",
          "type": "uint256"
        },
        {
          "internalType": "string",
          "name": "currencySymbol",
          "type": "string"
        },
        {
          "internalType": "address",
          "name": "currencyAddress",
          "type": "address"
        }
      ],
      "stateMutability": "view",
      "type": "function"
    },
    {
      "inputs": [
        {
          "internalType": "address",
          "name": "_address",
          "type": "address"
        }
      ],
      "name": "hashAddress",
      "outputs": [
        {
          "internalType": "bytes32",
          "name": "",
          "type": "bytes32"
        }
      ],
      "stateMutability": "pure",
      "type": "function"
    },
    {
      "inputs": [
        {
          "internalType": "address",
          "name": "_coreContract",
          "type": "address"
        }
      ],
      "name": "isEngineView",
      "outputs": [
        {
          "internalType": "bool",
          "name": "",
          "type": "bool"
        }
      ],
      "stateMutability": "view",
      "type": "function"
    },
    {
      "inputs": [
        {
          "internalType": "uint256",
          "name": "_projectId",
          "type": "uint256"
        },
        {
          "internalType": "address",
          "name": "_coreContract",
          "type": "address"
        },
        {
          "internalType": "uint24",
          "name": "_maxInvocations",
          "type": "uint24"
        }
      ],
      "name": "manuallyLimitProjectMaxInvocations",
      "outputs": [],
      "stateMutability": "nonpayable",
      "type": "function"
    },
    {
      "inputs": [
        {
          "internalType": "address",
          "name": "_coreContract",
          "type": "address"
        },
        {
          "internalType": "uint256",
          "name": "_projectId",
          "type": "uint256"
        }
      ],
      "name": "maxInvocationsProjectConfig",
      "outputs": [
        {
          "components": [
            {
              "internalType": "bool",
              "name": "maxHasBeenInvoked",
              "type": "bool"
            },
            {
              "internalType": "uint24",
              "name": "maxInvocations",
              "type": "uint24"
            }
          ],
          "internalType": "struct MaxInvocationsLib.MaxInvocationsProjectConfig",
          "name": "",
          "type": "tuple"
        }
      ],
      "stateMutability": "view",
      "type": "function"
    },
    {
      "inputs": [
        {
          "internalType": "address",
          "name": "_coreContract",
          "type": "address"
        },
        {
          "internalType": "uint256",
          "name": "_projectId",
          "type": "uint256"
        }
      ],
      "name": "merkleProjectConfig",
      "outputs": [
        {
          "internalType": "bool",
          "name": "",
          "type": "bool"
        },
        {
          "internalType": "uint24",
          "name": "",
          "type": "uint24"
        },
        {
          "internalType": "bytes32",
          "name": "",
          "type": "bytes32"
        }
      ],
      "stateMutability": "view",
      "type": "function"
    },
    {
      "inputs": [],
      "name": "minterFilterAddress",
      "outputs": [
        {
          "internalType": "address",
          "name": "",
          "type": "address"
        }
      ],
      "stateMutability": "view",
      "type": "function"
    },
    {
      "inputs": [],
      "name": "minterType",
      "outputs": [
        {
          "internalType": "string",
          "name": "",
          "type": "string"
        }
      ],
      "stateMutability": "view",
      "type": "function"
    },
    {
      "inputs": [],
      "name": "minterVersion",
      "outputs": [
        {
          "internalType": "string",
          "name": "",
          "type": "string"
        }
      ],
      "stateMutability": "view",
      "type": "function"
    },
    {
      "inputs": [
        {
          "internalType": "bytes32[]",
          "name": "_proof",
          "type": "bytes32[]"
        },
        {
          "internalType": "address",
          "name": "_address",
          "type": "address"
        }
      ],
      "name": "processProofForAddress",
      "outputs": [
        {
          "internalType": "bytes32",
          "name": "",
          "type": "bytes32"
        }
      ],
      "stateMutability": "view",
      "type": "function"
    },
    {
      "inputs": [
        {
          "internalType": "address",
          "name": "_coreContract",
          "type": "address"
        },
        {
          "internalType": "uint256",
          "name": "_projectId",
          "type": "uint256"
        }
      ],
      "name": "projectConfig",
      "outputs": [
        {
          "components": [
            {
              "internalType": "uint248",
              "name": "pricePerTokenInWei",
              "type": "uint248"
            },
            {
              "internalType": "bool",
              "name": "priceIsConfigured",
              "type": "bool"
            }
          ],
          "internalType": "struct ISharedMinterV0.ProjectConfig",
          "name": "",
          "type": "tuple"
        }
      ],
      "stateMutability": "view",
      "type": "function"
    },
    {
      "inputs": [
        {
          "internalType": "uint256",
          "name": "_projectId",
          "type": "uint256"
        },
        {
          "internalType": "address",
          "name": "_coreContract",
          "type": "address"
        }
      ],
      "name": "projectMaxHasBeenInvoked",
      "outputs": [
        {
          "internalType": "bool",
          "name": "",
          "type": "bool"
        }
      ],
      "stateMutability": "view",
      "type": "function"
    },
    {
      "inputs": [
        {
          "internalType": "uint256",
          "name": "_projectId",
          "type": "uint256"
        },
        {
          "internalType": "address",
          "name": "_coreContract",
          "type": "address"
        }
      ],
      "name": "projectMaxInvocations",
      "outputs": [
        {
          "internalType": "uint256",
          "name": "",
          "type": "uint256"
        }
      ],
      "stateMutability": "view",
      "type": "function"
    },
    {
      "inputs": [
        {
          "internalType": "uint256",
          "name": "_projectId",
          "type": "uint256"
        },
        {
          "internalType": "address",
          "name": "_coreContract",
          "type": "address"
        }
      ],
      "name": "projectMaxInvocationsPerAddress",
      "outputs": [
        {
          "internalType": "uint256",
          "name": "",
          "type": "uint256"
        }
      ],
      "stateMutability": "view",
      "type": "function"
    },
    {
      "inputs": [
        {
          "internalType": "uint256",
          "name": "_projectId",
          "type": "uint256"
        },
        {
          "internalType": "address",
          "name": "_coreContract",
          "type": "address"
        },
        {
          "internalType": "address",
          "name": "_address",
          "type": "address"
        }
      ],
      "name": "projectRemainingInvocationsForAddress",
      "outputs": [
        {
          "internalType": "bool",
          "name": "projectLimitsMintInvocationsPerAddress",
          "type": "bool"
        },
        {
          "internalType": "uint256",
          "name": "mintInvocationsRemaining",
          "type": "uint256"
        }
      ],
      "stateMutability": "view",
      "type": "function"
    },
    {
      "inputs": [
        {
          "internalType": "address",
          "name": "_coreContract",
          "type": "address"
        },
        {
          "internalType": "uint256",
          "name": "_projectId",
          "type": "uint256"
        },
        {
          "internalType": "address",
          "name": "_purchaser",
          "type": "address"
        }
      ],
      "name": "projectUserMintInvocations",
      "outputs": [
        {
          "internalType": "uint256",
          "name": "",
          "type": "uint256"
        }
      ],
      "stateMutability": "view",
      "type": "function"
    },
    {
      "inputs": [
        {
          "internalType": "uint256",
          "name": "",
          "type": "uint256"
        },
        {
          "internalType": "address",
          "name": "",
          "type": "address"
        }
      ],
      "name": "purchase",
      "outputs": [
        {
          "internalType": "uint256",
          "name": "",
          "type": "uint256"
        }
      ],
      "stateMutability": "payable",
      "type": "function"
    },
    {
      "inputs": [
        {
          "internalType": "uint256",
          "name": "_projectId",
          "type": "uint256"
        },
        {
          "internalType": "address",
          "name": "_coreContract",
          "type": "address"
        },
        {
          "internalType": "bytes32[]",
          "name": "_proof",
          "type": "bytes32[]"
        }
      ],
      "name": "purchase",
      "outputs": [
        {
          "internalType": "uint256",
          "name": "tokenId",
          "type": "uint256"
        }
      ],
      "stateMutability": "payable",
      "type": "function"
    },
    {
      "inputs": [
        {
          "internalType": "address",
          "name": "_to",
          "type": "address"
        },
        {
          "internalType": "uint256",
          "name": "_projectId",
          "type": "uint256"
        },
        {
          "internalType": "address",
          "name": "_coreContract",
          "type": "address"
        },
        {
          "internalType": "bytes32[]",
          "name": "_proof",
          "type": "bytes32[]"
        }
      ],
      "name": "purchaseTo",
      "outputs": [
        {
          "internalType": "uint256",
          "name": "tokenId",
          "type": "uint256"
        }
      ],
      "stateMutability": "payable",
      "type": "function"
    },
    {
      "inputs": [
        {
          "internalType": "address",
          "name": "",
          "type": "address"
        },
        {
          "internalType": "uint256",
          "name": "",
          "type": "uint256"
        },
        {
          "internalType": "address",
          "name": "",
          "type": "address"
        }
      ],
      "name": "purchaseTo",
      "outputs": [
        {
          "internalType": "uint256",
          "name": "",
          "type": "uint256"
        }
      ],
      "stateMutability": "payable",
      "type": "function"
    },
    {
      "inputs": [
        {
          "internalType": "address",
          "name": "_to",
          "type": "address"
        },
        {
          "internalType": "uint256",
          "name": "_projectId",
          "type": "uint256"
        },
        {
          "internalType": "address",
          "name": "_coreContract",
          "type": "address"
        },
        {
          "internalType": "bytes32[]",
          "name": "_proof",
          "type": "bytes32[]"
        },
        {
          "internalType": "address",
          "name": "_vault",
          "type": "address"
        }
      ],
      "name": "purchaseTo",
      "outputs": [
        {
          "internalType": "uint256",
          "name": "tokenId",
          "type": "uint256"
        }
      ],
      "stateMutability": "payable",
      "type": "function"
    },
    {
      "inputs": [
        {
          "internalType": "address",
          "name": "_coreContract",
          "type": "address"
        },
        {
          "internalType": "uint256",
          "name": "_projectId",
          "type": "uint256"
        },
        {
          "internalType": "uint24",
          "name": "_maxInvocationsPerAddress",
          "type": "uint24"
        }
      ],
      "name": "setProjectInvocationsPerAddress",
      "outputs": [],
      "stateMutability": "nonpayable",
      "type": "function"
    },
    {
      "inputs": [
        {
          "internalType": "uint256",
          "name": "_projectId",
          "type": "uint256"
        },
        {
          "internalType": "address",
          "name": "_coreContract",
          "type": "address"
        }
      ],
      "name": "syncProjectMaxInvocationsToCore",
      "outputs": [],
      "stateMutability": "nonpayable",
      "type": "function"
    },
    {
      "inputs": [
        {
          "internalType": "uint256",
          "name": "_projectId",
          "type": "uint256"
        },
        {
          "internalType": "address",
          "name": "_coreContract",
          "type": "address"
        },
        {
          "internalType": "bytes32",
          "name": "_root",
          "type": "bytes32"
        }
      ],
      "name": "updateMerkleRoot",
      "outputs": [],
      "stateMutability": "nonpayable",
      "type": "function"
    },
    {
      "inputs": [
        {
          "internalType": "uint256",
          "name": "_projectId",
          "type": "uint256"
        },
        {
          "internalType": "address",
          "name": "_coreContract",
          "type": "address"
        },
        {
          "internalType": "uint248",
          "name": "_pricePerTokenInWei",
          "type": "uint248"
        }
      ],
      "name": "updatePricePerTokenInWei",
      "outputs": [],
      "stateMutability": "nonpayable",
      "type": "function"
    }
  ],
  "bytecode": "0x6101006040523480156200001257600080fd5b5060405162002476380380620024768339810160408190526200003591620000ed565b60016000556001600160a01b03828116608081905260a052811660c08190526040519081527f836360d1b094a7de3c3eab3d1185f3a5939467c23d4a12709dbdbf8c8d7e2f3b9060200160405180910390a16001600160a01b03811660e052604051600181527fb004e34bc1718c504fde68324f2eba80b0329056f240eaaa6803c286c4b9e7ed9060200160405180910390a1505062000125565b80516001600160a01b0381168114620000e857600080fd5b919050565b600080604083850312156200010157600080fd5b6200010c83620000d0565b91506200011c60208401620000d0565b90509250929050565b60805160a05160c05160e0516123176200015f60003960006109ce015260006103ab01526000610b7e015260006105db01526123176000f3fe6080604052600436106101315760003560e01c806301000da7146101365780630650eaf01461016b5780630e970b83146101ad5780631467b1f71461020f5780631ec2e523146102225780633aa5fe591461024257806340e5fa3b146102625780634869f3df146102995780634e8d8787146102e35780635cf0a411146102f65780637e947f24146103095780638b4eb61d1461032b578063ae77c2371461034b578063b000e33414610359578063b466dded14610379578063bf5bf5f814610399578063cce7c909146103e5578063d3ddabe614610428578063d84c79b614610467578063d9bffbce14610487578063d9eb16db146104a7578063dcf7398b1461052b578063dd85582f146105c9578063e9d1e8ac146105fd578063eb7eb95a1461063f578063f26f8f3814610652575b600080fd5b34801561014257600080fd5b50610156610151366004611bac565b6106cd565b60405190151581526020015b60405180910390f35b34801561017757600080fd5b5061018b610186366004611bc9565b61070e565b6040805182511515815260209283015162ffffff169281019290925201610162565b3480156101b957600080fd5b506102016101c8366004611bf5565b6001600160a01b038084166000908152600360209081526040808320868452825280832093851683526002909301905220549392505050565b604051908152602001610162565b61020161021d366004611c82565b610765565b34801561022e57600080fd5b5061020161023d366004611cf4565b610780565b34801561024e57600080fd5b5061020161025d366004611bac565b610795565b34801561026e57600080fd5b5061028261027d366004611d3f565b6107a0565b604080519215158352602083019190915201610162565b3480156102a557600080fd5b506102016102b4366004611d76565b6001600160a01b031660009081526004602090815260408083209383529290522054610100900462ffffff1690565b6102016102f1366004611bf5565b6107dc565b610201610304366004611da6565b610828565b34801561031557600080fd5b50610329610324366004611e2a565b610c73565b005b34801561033757600080fd5b50610201610346366004611d76565b610d34565b6102016102f1366004611d76565b34801561036557600080fd5b50610329610374366004611e80565b610d60565b34801561038557600080fd5b50610329610394366004611ebe565b610de7565b3480156103a557600080fd5b506103cd7f000000000000000000000000000000000000000000000000000000000000000081565b6040516001600160a01b039091168152602001610162565b3480156103f157600080fd5b50610156610400366004611d76565b6001600160a01b03166000908152600460209081526040808320938352929052205460ff1690565b34801561043457600080fd5b5061045a60405180604001604052806006815260200165076352e302e360d41b81525081565b6040516101629190611f46565b34801561047357600080fd5b50610329610482366004611f59565b610eb3565b34801561049357600080fd5b506103296104a2366004611d76565b610fb1565b3480156104b357600080fd5b5061051b6104c2366004611d76565b6001600160a01b03166000908152600160209081526040808320938352928152828220548351808501909452600384526208aa8960eb1b9184019190915260ff600160f81b820416936001600160f81b03909116929190565b6040516101629493929190611f8e565b34801561053757600080fd5b506105a3610546366004611bc9565b604080518082018252600080825260209182018190526001600160a01b0394909416845260018152818420928452918252918290208251808401909352546001600160f81b0381168352600160f81b900460ff1615159082015290565b6040805182516001600160f81b0316815260209283015115159281019290925201610162565b3480156105d557600080fd5b506103cd7f000000000000000000000000000000000000000000000000000000000000000081565b34801561060957600080fd5b5061045a604051806040016040528060168152602001754d696e74657253657450726963654d65726b6c65563560501b81525081565b61020161064d366004611fc8565b611029565b34801561065e57600080fd5b506106ac61066d366004611bc9565b6001600160a01b0391909116600090815260036020908152604080832093835292905220805460019091015460ff82169261010090920462ffffff1691565b60408051931515845262ffffff909216602084015290820152606001610162565b6001600160a01b03811660009081526002602052604081208054610100900460ff16156106fe575460ff1692915050565b61070783611043565b9392505050565b604080518082018252600080825260209182018190526001600160a01b038516815260048252828120848252825282902082518084019093525460ff811615158352610100900462ffffff16908201525b92915050565b600061077686868686866000610828565b9695505050505050565b600061078d84848461117b565b949350505050565b600061075f82611192565b6001600160a01b0382166000908152600360209081526040808320868452909152812081906107cf81856111cc565b9250925050935093915050565b60405162461bcd60e51b815260206004820152601960248201527826bab9ba10383937bb34b2329026b2b935b63290383937b7b360391b60448201526000906064015b60405180910390fd5b600060026000540361087c5760405162461bcd60e51b815260206004820152601f60248201527f5265656e7472616e637947756172643a207265656e7472616e742063616c6c00604482015260640161081f565b600260009081556001600160a01b0386168082526004602090815260408084208a85528252808420838552600183528185208b86528352818520938552600383528185208b8652909252909220825460ff16156108eb5760405162461bcd60e51b815260040161081f90612023565b8154600160f81b900460ff1661093a5760405162461bcd60e51b8152602060048201526014602482015273141c9a58d9481b9bdd0818dbdb999a59dd5c995960621b604482015260640161081f565b81546001600160f81b03163481111561098e5760405162461bcd60e51b815260206004820152601660248201527526b4b7103b30b63ab2903a379036b4b73a103932b89760511b604482015260640161081f565b336001600160a01b03871615610a8f5760405163090c9a2d60e41b81523360048201526001600160a01b0388811660248301528b811660448301526000917f0000000000000000000000000000000000000000000000000000000000000000909116906390c9a2d090606401602060405180830381865afa158015610a17573d6000803e3d6000fd5b505050506040513d601f19601f82011682018060405250810190610a3b9190612064565b905080610a8a5760405162461bcd60e51b815260206004820152601e60248201527f496e76616c69642064656c65676174652d7661756c742070616972696e670000604482015260640161081f565b879150505b610a9f83600101548a8a84611219565b610ae25760405162461bcd60e51b815260206004820152601460248201527324b73b30b634b21026b2b935b63290383937b7b360611b604482015260640161081f565b6000610aed84611231565b6001600160a01b0383166000908152600286016020526040902054909150811180610b16575080155b610b325760405162461bcd60e51b815260040161081f90612023565b6001600160a01b0380831660009081526002860160205260409081902080546001019055516117cd60e21b81528e82166004820152602481018e90528c821660448201523360648201527f000000000000000000000000000000000000000000000000000000000000000090911690615f34906084016020604051808303816000875af1158015610bc7573d6000803e3d6000fd5b505050506040513d601f19601f82011682018060405250810190610beb919061207f565b9650610c2c87600460008e6001600160a01b03166001600160a01b0316815260200190815260200160002060008f815260200190815260200160002061125a565b6001600160a01b038b166000908152600260205260408120610c4f908d906112a9565b9050610c5d8d858e846112db565b5050505050505060016000559695505050505050565b610c7d8383611392565b6001600160a01b03821660008181526001602090815260408083208784529091528082206001600160f81b038516600160f81b8117825591519093919287917f37a132f63521ff11fed0c526f0f30824337316bb2b71fcfc0b6f3cf631595b5f9190a46001600160a01b038316600090815260046020908152604080832087845290915290208054610100900462ffffff16158015610d1e5750805460ff16155b15610d2d57610d2d8585610fb1565b5050505050565b6001600160a01b0381166000908152600360209081526040808320858452909152812061078d81611231565b610d6a8383611392565b6001600160a01b03821660009081526004602090815260408083208684529091529020610d9c9084908490849061144d565b60405162ffffff821681526001600160a01b0383169084907f1c3e74a6c6fefbaeee166b031cd2016349c6c863d5188b67c9bbd0b0dcb2e237906020015b60405180910390a3505050565b610df18383611392565b80610e365760405162461bcd60e51b8152602060048201526015602482015274149bdbdd081b5d5cdd081899481c1c9bdd9a591959605a1b604482015260640161081f565b6001600160a01b03821660009081526003602090815260408083208684529091529020610e63908261153b565b60408051691b595c9adb19549bdbdd60b21b8152602081018390526001600160a01b0384169185917fbd2962ddf019622ba935ab411adde29d756d1db6d628d89b2a174cdf6538b8d59101610dda565b610ebd8284611392565b6001600160a01b03831660008181526003602090815260408083208684528252918290208054600163ffffffff1990911661010062ffffff8816021781179091558251797573654d61784d696e7473506572416464724f7665727269646560301b815291820152815185927fbb5f9d4f49f83650956b76c40de0f082a06430bf0222e1b6b3f90a7a0f845c4d928290030190a360408051766d61784d696e7473506572416464724f7665727269646560481b815262ffffff831660208201526001600160a01b0385169184917f1809fd1f08e6b0df08fd848757688435a0ab8520a51dcca23eba5a3c7f7280d69101610dda565b610fbb8282611392565b6001600160a01b03811660009081526004602090815260408083208584529091528120610feb9084908490611584565b9050816001600160a01b0316837f1c3e74a6c6fefbaeee166b031cd2016349c6c863d5188b67c9bbd0b0dcb2e23783604051610dda91815260200190565b600061103a33868686866000610828565b95945050505050565b6040516000602482018190526044820181905290819060640160408051601f198184030181529181526020820180516001600160e01b0316638639415b60e01b1790525190915060009081906001600160a01b038616906110a5908590612098565b600060405180830381855afa9150503d80600081146110e0576040519150601f19603f3d011682016040523d82523d6000602084013e6110e5565b606091505b5091509150816111075760405162461bcd60e51b815260040161081f906120b4565b805160c081900361111e5750600095945050505050565b80610100036111335750600195945050505050565b60405162461bcd60e51b815260206004820152601e60248201527f556e657870656374656420726576656e75652073706c69742062797465730000604482015260640161081f565b600061078d61118983611192565b85908590611629565b6040516001600160601b0319606083901b166020820152600090603401604051602081830303815290604052805190602001209050919050565b60008060006111da85611231565b90508015611211576001600160a01b0384166000908152600286016020526040902054600193508082111561120f5780820392505b505b509250929050565b600061103a8561122884611192565b86918691611675565b805460009060ff161561124d575054610100900462ffffff1690565b506001919050565b919050565b8054620f4240830660010190610100900462ffffff16808211156112905760405162461bcd60e51b815260040161081f90612023565b8082036112a357825460ff191660011783555b50505050565b8054600090610100900460ff16156112c65750805460ff1661075f565b60006112d2848461168d565b915061075f9050565b34156112a3576000806112ee853461210f565b9050801561137e5760405133908290600081818185875af1925050503d8060008114611336576040519150601f19603f3d011682016040523d82523d6000602084013e61133b565b606091505b5050809250508161137e5760405162461bcd60e51b815260206004820152600d60248201526c1499599d5b990819985a5b1959609a1b604482015260640161081f565b61138a8686868661179d565b505050505050565b60405163a47d29cb60e01b8152600481018390526001600160a01b0382169063a47d29cb90602401602060405180830381865afa1580156113d7573d6000803e3d6000fd5b505050506040513d601f19601f820116820180604052508101906113fb9190612122565b6001600160a01b0316336001600160a01b0316146114495760405162461bcd60e51b815260206004820152600b60248201526a13db9b1e48105c9d1a5cdd60aa1b604482015260640161081f565b5050565b604051630ea5613f60e01b81526004810185905260009081906001600160a01b03861690630ea5613f9060240160c060405180830381865afa158015611497573d6000803e3d6000fd5b505050506040513d601f19601f820116820180604052508101906114bb919061213f565b5092955092935050505062ffffff84168210156114ea5760405162461bcd60e51b815260040161081f9061219e565b808462ffffff16101561150f5760405162461bcd60e51b815260040161081f9061219e565b825460ff1962ffffff90951661010081029590951663ffffffff19909116179314929092179055505050565b8061157c5760405162461bcd60e51b8152602060048201526011602482015270135d5cdd081c1c9bdd9a5919481c9bdbdd607a1b604482015260640161081f565b600190910155565b6000806000846001600160a01b0316630ea5613f876040518263ffffffff1660e01b81526004016115b791815260200190565b60c060405180830381865afa1580156115d4573d6000803e3d6000fd5b505050506040513d601f19601f820116820180604052508101906115f8919061213f565b5050875493831463ffffffff1990941661010062ffffff85160260ff19161793909317909655979650505050505050565b600081815b8481101561166c576116588287878481811061164c5761164c6121cf565b90506020020135611b68565b915080611664816121e5565b91505061162e565b50949350505050565b600082611683868685611629565b1495945050505050565b6040516000602482018190526044820181905290819060640160408051601f198184030181529181526020820180516001600160e01b0316638639415b60e01b1790525190915060009081906001600160a01b038716906116ef908590612098565b6000604051808303816000865af19150503d806000811461172c576040519150601f19603f3d011682016040523d82523d6000602084013e611731565b606091505b5091509150816117535760405162461bcd60e51b815260040161081f906120b4565b805160c0819003611779575050835461ffff1916610100178455506000915061075f9050565b8061010003611133575050835461ffff1916610101178455506001915061075f9050565b82156112a357600080600080600080600087156118ee57604051638639415b60e01b8152600481018c9052602481018b905260009081906001600160a01b038c1690638639415b9060440161010060405180830381865afa158015611806573d6000803e3d6000fd5b505050506040513d601f19601f8201168201806040525081019061182a91906121fe565b969e50949c50909a509850919650919450909250905081156118e7576040516001600160a01b038216908390600081818185875af1925050503d806000811461188f576040519150601f19603f3d011682016040523d82523d6000602084013e611894565b606091505b505080995050886118e75760405162461bcd60e51b815260206004820181905260248201527f506c6174666f726d2050726f7669646572207061796d656e74206661696c6564604482015260640161081f565b505061196e565b604051638639415b60e01b8152600481018c9052602481018b90526001600160a01b038a1690638639415b9060440160c060405180830381865afa15801561193a573d6000803e3d6000fd5b505050506040513d601f19601f8201168201806040525081019061195e9190612286565b949a509298509096509450925090505b8515611a15576040516001600160a01b038616908790600081818185875af1925050503d80600081146119bd576040519150601f19603f3d011682016040523d82523d6000602084013e6119c2565b606091505b50508097505086611a155760405162461bcd60e51b815260206004820152601e60248201527f52656e6465722050726f7669646572207061796d656e74206661696c65640000604482015260640161081f565b8315611ab4576040516001600160a01b038416908590600081818185875af1925050503d8060008114611a64576040519150601f19603f3d011682016040523d82523d6000602084013e611a69565b606091505b50508097505086611ab45760405162461bcd60e51b8152602060048201526015602482015274105c9d1a5cdd081c185e5b595b9d0819985a5b1959605a1b604482015260640161081f565b8115611b5b576040516001600160a01b038216908390600081818185875af1925050503d8060008114611b03576040519150601f19603f3d011682016040523d82523d6000602084013e611b08565b606091505b50508097505086611b5b5760405162461bcd60e51b815260206004820152601f60248201527f4164646974696f6e616c205061796565207061796d656e74206661696c656400604482015260640161081f565b5050505050505050505050565b6000818310611b84576000828152602084905260409020610707565b5060009182526020526040902090565b6001600160a01b0381168114611ba957600080fd5b50565b600060208284031215611bbe57600080fd5b813561070781611b94565b60008060408385031215611bdc57600080fd5b8235611be781611b94565b946020939093013593505050565b600080600060608486031215611c0a57600080fd5b8335611c1581611b94565b9250602084013591506040840135611c2c81611b94565b809150509250925092565b60008083601f840112611c4957600080fd5b5081356001600160401b03811115611c6057600080fd5b6020830191508360208260051b8501011115611c7b57600080fd5b9250929050565b600080600080600060808688031215611c9a57600080fd5b8535611ca581611b94565b9450602086013593506040860135611cbc81611b94565b925060608601356001600160401b03811115611cd757600080fd5b611ce388828901611c37565b969995985093965092949392505050565b600080600060408486031215611d0957600080fd5b83356001600160401b03811115611d1f57600080fd5b611d2b86828701611c37565b9094509250506020840135611c2c81611b94565b600080600060608486031215611d5457600080fd5b833592506020840135611d6681611b94565b91506040840135611c2c81611b94565b60008060408385031215611d8957600080fd5b823591506020830135611d9b81611b94565b809150509250929050565b60008060008060008060a08789031215611dbf57600080fd5b8635611dca81611b94565b9550602087013594506040870135611de181611b94565b935060608701356001600160401b03811115611dfc57600080fd5b611e0889828a01611c37565b9094509250506080870135611e1c81611b94565b809150509295509295509295565b600080600060608486031215611e3f57600080fd5b833592506020840135611e5181611b94565b915060408401356001600160f81b0381168114611c2c57600080fd5b803562ffffff8116811461125557600080fd5b600080600060608486031215611e9557600080fd5b833592506020840135611ea781611b94565b9150611eb560408501611e6d565b90509250925092565b600080600060608486031215611ed357600080fd5b833592506020840135611ee581611b94565b929592945050506040919091013590565b60005b83811015611f11578181015183820152602001611ef9565b50506000910152565b60008151808452611f32816020860160208601611ef6565b601f01601f19169290920160200192915050565b6020815260006107076020830184611f1a565b600080600060608486031215611f6e57600080fd5b8335611f7981611b94565b925060208401359150611eb560408501611e6d565b8415158152836020820152608060408201526000611faf6080830185611f1a565b905060018060a01b038316606083015295945050505050565b60008060008060608587031215611fde57600080fd5b843593506020850135611ff081611b94565b925060408501356001600160401b0381111561200b57600080fd5b61201787828801611c37565b95989497509550505050565b60208082526017908201527613585e081a5b9d9bd8d85d1a5bdb9cc81c995858da1959604a1b604082015260600190565b8051801515811461125557600080fd5b60006020828403121561207657600080fd5b61070782612054565b60006020828403121561209157600080fd5b5051919050565b600082516120aa818460208701611ef6565b9190910192915050565b60208082526025908201527f6765745072696d617279526576656e756553706c69747328292063616c6c2066604082015264185a5b195960da1b606082015260800190565b634e487b7160e01b600052601160045260246000fd5b8181038181111561075f5761075f6120f9565b60006020828403121561213457600080fd5b815161070781611b94565b60008060008060008060c0878903121561215857600080fd5b865195506020870151945061216f60408801612054565b935061217d60608801612054565b92506080870151915061219260a08801612054565b90509295509295509295565b602080825260179082015276496e76616c6964206d617820696e766f636174696f6e7360481b604082015260600190565b634e487b7160e01b600052603260045260246000fd5b6000600182016121f7576121f76120f9565b5060010190565b600080600080600080600080610100898b03121561221b57600080fd5b88519750602089015161222d81611b94565b60408a015160608b0151919850965061224581611b94565b60808a015160a08b0151919650945061225d81611b94565b60c08a015160e08b0151919450925061227581611b94565b809150509295985092959890939650565b60008060008060008060c0878903121561229f57600080fd5b8651955060208701516122b181611b94565b6040880151606089015191965094506122c981611b94565b608088015160a08901519194509250611e1c81611b9456fea26469706673582212203e52cb86bc63477b32b7bed2494034687c9dbeedf6eee853dc91af306a1da39b64736f6c63430008130033",
  "linkReferences": {},
  "deployedLinkReferences": {}
}