{
  "_format": "hh-sol-artifact-1",
  "contractName": "SplitAtomicFactoryV0",
  "sourceName": "contracts/split/SplitAtomicFactoryV0.sol",
  "abi": [
    {
      "inputs": [
        {
          "internalType": "address",
          "name": "splitAtomicImplementation_",
          "type": "address"
        },
        {
          "internalType": "address",
          "name": "requiredSplitAddress_",
          "type": "address"
        },
        {
          "internalType": "uint16",
          "name": "requiredSplitBasisPoints_",
          "type": "uint16"
        }
      ],
      "stateMutability": "nonpayable",
      "type": "constructor"
    },
    {
      "inputs": [],
      "name": "ERC1167FailedCreateClone",
      "type": "error"
    },
    {
      "anonymous": false,
      "inputs": [],
      "name": "Abandoned",
      "type": "event"
    },
    {
      "anonymous": false,
      "inputs": [
        {
          "indexed": true,
          "internalType": "address",
          "name": "implementation",
          "type": "address"
        },
        {
          "indexed": true,
          "internalType": "bytes32",
          "name": "type_",
          "type": "bytes32"
        },
        {
          "indexed": false,
          "internalType": "address",
          "name": "requiredSplitAddress",
          "type": "address"
        },
        {
          "indexed": false,
          "internalType": "uint16",
          "name": "requiredSplitBasisPoints",
          "type": "uint16"
        }
      ],
      "name": "Deployed",
      "type": "event"
    },
    {
      "anonymous": false,
      "inputs": [
        {
          "indexed": true,
          "internalType": "address",
          "name": "splitAtomic",
          "type": "address"
        }
      ],
      "name": "SplitAtomicCreated",
      "type": "event"
    },
    {
      "inputs": [],
      "name": "abandon",
      "outputs": [],
      "stateMutability": "nonpayable",
      "type": "function"
    },
    {
      "inputs": [
        {
          "components": [
            {
              "internalType": "address payable",
              "name": "recipient",
              "type": "address"
            },
            {
              "internalType": "uint16",
              "name": "basisPoints",
              "type": "uint16"
            }
          ],
          "internalType": "struct Split[]",
          "name": "splits",
          "type": "tuple[]"
        }
      ],
      "name": "createSplit",
      "outputs": [
        {
          "internalType": "address",
          "name": "splitAtomic",
          "type": "address"
        }
      ],
      "stateMutability": "nonpayable",
      "type": "function"
    },
    {
      "inputs": [],
      "name": "deployer",
      "outputs": [
        {
          "internalType": "address",
          "name": "",
          "type": "address"
        }
      ],
      "stateMutability": "view",
      "type": "function"
    },
    {
      "inputs": [],
      "name": "isAbandoned",
      "outputs": [
        {
          "internalType": "bool",
          "name": "",
          "type": "bool"
        }
      ],
      "stateMutability": "view",
      "type": "function"
    },
    {
      "inputs": [],
      "name": "requiredSplitAddress",
      "outputs": [
        {
          "internalType": "address",
          "name": "",
          "type": "address"
        }
      ],
      "stateMutability": "view",
      "type": "function"
    },
    {
      "inputs": [],
      "name": "requiredSplitBasisPoints",
      "outputs": [
        {
          "internalType": "uint16",
          "name": "",
          "type": "uint16"
        }
      ],
      "stateMutability": "view",
      "type": "function"
    },
    {
      "inputs": [],
      "name": "splitAtomicImplementation",
      "outputs": [
        {
          "internalType": "address",
          "name": "",
          "type": "address"
        }
      ],
      "stateMutability": "view",
      "type": "function"
    },
    {
      "inputs": [],
      "name": "type_",
      "outputs": [
        {
          "internalType": "bytes32",
          "name": "",
          "type": "bytes32"
        }
      ],
      "stateMutability": "view",
      "type": "function"
    }
  ],
  "bytecode": "0x61010060405234801561001157600080fd5b5060405161087138038061087183398101604081905261003091610131565b6127108161ffff16111561008a5760405162461bcd60e51b815260206004820152601d60248201527f6f6e6c7920726571642073706c697420425053203c3d2031305f303030000000604482015260640160405180910390fd5b6001600160a01b03838116608081905290831660a081905261ffff831660c08190523360e0526040805192835260208301919091527f53706c697441746f6d6963466163746f7279563000000000000000000000000092917fe9def90da0d4067fd2ed8ed6037440877f758d88ad72e56268ef2f7b072e1e52910160405180910390a350505061017f565b80516001600160a01b038116811461012c57600080fd5b919050565b60008060006060848603121561014657600080fd5b61014f84610115565b925061015d60208501610115565b9150604084015161ffff8116811461017457600080fd5b809150509250925092565b60805160a05160c05160e05161069e6101d36000396000818161016601526103d601526000818160a4015261024201526000818161010a01526101de01526000818161018d01526102e7015261069e6000f3fe608060405234801561001057600080fd5b50600436106100785760003560e01c806324377e9f1461007d578063417d37b11461009f57806366a2d9b0146100d9578063779618201461010557806378d58b67146101445780638831883414610157578063d5f3948814610161578063e19a67ae14610188575b600080fd5b60005461008a9060ff1681565b60405190151581526020015b60405180910390f35b6100c67f000000000000000000000000000000000000000000000000000000000000000081565b60405161ffff9091168152602001610096565b6100f773053706c697441746f6d6963466163746f727956360641b81565b604051908152602001610096565b61012c7f000000000000000000000000000000000000000000000000000000000000000081565b6040516001600160a01b039091168152602001610096565b61012c6101523660046104e7565b6101af565b61015f6103a8565b005b61012c7f000000000000000000000000000000000000000000000000000000000000000081565b61012c7f000000000000000000000000000000000000000000000000000000000000000081565b6000805460ff16156101dc5760405162461bcd60e51b81526004016101d39061055c565b60405180910390fd5b7f00000000000000000000000000000000000000000000000000000000000000006001600160a01b0316838360008181106102195761021961058a565b61022f92602060409092020190810191506105b7565b6001600160a01b031614801561029657507f000000000000000000000000000000000000000000000000000000000000000061ffff16838360008181106102785761027861058a565b905060400201602001602081019061029091906105eb565b61ffff16145b6102e25760405162461bcd60e51b815260206004820181905260248201527f73706c6974735b305d206d7573742062652072657175697265642073706c697460448201526064016101d3565b61030b7f0000000000000000000000000000000000000000000000000000000000000000610475565b6040516365c4560b60e11b81529091506001600160a01b0382169063cb88ac169061033c9086908690600401610606565b600060405180830381600087803b15801561035657600080fd5b505af115801561036a573d6000803e3d6000fd5b50506040516001600160a01b03841692507ff5f6d5d4eddf8a521729b7ad23caa2d2b4b3d750c8604b5c58a24af509b79b329150600090a292915050565b60005460ff16156103cb5760405162461bcd60e51b81526004016101d39061055c565b336001600160a01b037f0000000000000000000000000000000000000000000000000000000000000000161461043f5760405162461bcd60e51b815260206004820152601960248201527837b7363c903232b83637bcb2b91036b0bc9030b130b73237b760391b60448201526064016101d3565b6000805460ff191660011781556040517ffb03bbbb81551103a80dda8d3bda55d93637ca4a96390de3719644774bdf1e989190a1565b6000763d602d80600a3d3981f3363d3d373d3d3d363d730000008260601b60e81c176000526e5af43d82803e903d91602b57fd5bf38260781b17602052603760096000f090506001600160a01b0381166104e2576040516330be1a3d60e21b815260040160405180910390fd5b919050565b600080602083850312156104fa57600080fd5b823567ffffffffffffffff8082111561051257600080fd5b818501915085601f83011261052657600080fd5b81358181111561053557600080fd5b8660208260061b850101111561054a57600080fd5b60209290920196919550909350505050565b602080825260149082015273199858dd1bdc9e481a5cc81858985b991bdb995960621b604082015260600190565b634e487b7160e01b600052603260045260246000fd5b80356001600160a01b03811681146104e257600080fd5b6000602082840312156105c957600080fd5b6105d2826105a0565b9392505050565b803561ffff811681146104e257600080fd5b6000602082840312156105fd57600080fd5b6105d2826105d9565b6020808252818101839052600090604080840186845b8781101561065b576001600160a01b03610635836105a0565b16835261ffff6106468684016105d9565b1683860152918301919083019060010161061c565b509097965050505050505056fea264697066735822122047b267ef95e44b754cb0506068c1e3649f93ab41df3342bbe934b6032708888564736f6c63430008160033",
  "linkReferences": {},
  "deployedLinkReferences": {}
}