{
  "_format": "hh-sol-artifact-1",
  "contractName": "SplitAtomicV0",
  "sourceName": "contracts/split/SplitAtomicV0.sol",
  "abi": [
    {
      "inputs": [
        {
          "internalType": "address",
          "name": "target",
          "type": "address"
        }
      ],
      "name": "AddressEmptyCode",
      "type": "error"
    },
    {
      "inputs": [
        {
          "internalType": "address",
          "name": "account",
          "type": "address"
        }
      ],
      "name": "AddressInsufficientBalance",
      "type": "error"
    },
    {
      "inputs": [],
      "name": "FailedInnerCall",
      "type": "error"
    },
    {
      "inputs": [
        {
          "internalType": "address",
          "name": "token",
          "type": "address"
        }
      ],
      "name": "SafeERC20FailedOperation",
      "type": "error"
    },
    {
      "anonymous": false,
      "inputs": [
        {
          "indexed": false,
          "internalType": "bytes32",
          "name": "type_",
          "type": "bytes32"
        }
      ],
      "name": "Initialized",
      "type": "event"
    },
    {
      "inputs": [
        {
          "internalType": "address",
          "name": "ERC20TokenAddress",
          "type": "address"
        }
      ],
      "name": "drainERC20",
      "outputs": [],
      "stateMutability": "nonpayable",
      "type": "function"
    },
    {
      "inputs": [],
      "name": "drainETH",
      "outputs": [],
      "stateMutability": "nonpayable",
      "type": "function"
    },
    {
      "inputs": [],
      "name": "getSplits",
      "outputs": [
        {
          "components": [
            {
              "internalType": "address payable",
              "name": "recipient",
              "type": "address"
            },
            {
              "internalType": "uint16",
              "name": "basisPoints",
              "type": "uint16"
            }
          ],
          "internalType": "struct Split[]",
          "name": "",
          "type": "tuple[]"
        }
      ],
      "stateMutability": "view",
      "type": "function"
    },
    {
      "inputs": [
        {
          "components": [
            {
              "internalType": "address payable",
              "name": "recipient",
              "type": "address"
            },
            {
              "internalType": "uint16",
              "name": "basisPoints",
              "type": "uint16"
            }
          ],
          "internalType": "struct Split[]",
          "name": "splits",
          "type": "tuple[]"
        }
      ],
      "name": "initialize",
      "outputs": [],
      "stateMutability": "nonpayable",
      "type": "function"
    },
    {
      "inputs": [],
      "name": "type_",
      "outputs": [
        {
          "internalType": "bytes32",
          "name": "",
          "type": "bytes32"
        }
      ],
      "stateMutability": "view",
      "type": "function"
    },
    {
      "stateMutability": "payable",
      "type": "receive"
    }
  ],
  "bytecode": "0x608060405234801561001057600080fd5b50610ba4806100206000396000f3fe60806040526004361061004e5760003560e01c8063520db9061461007557806366a2d9b0146100a057806379710f07146100d2578063cb88ac16146100f2578063e264172c1461011257600080fd5b366100705761005b610127565b61006434610185565b61006e6001600055565b005b600080fd5b34801561008157600080fd5b5061008a6102cd565b60405161009791906108cc565b60405180910390f35b3480156100ac57600080fd5b506100c46c053706c697441746f6d6963563609c1b81565b604051908152602001610097565b3480156100de57600080fd5b5061006e6100ed36600461093d565b610386565b3480156100fe57600080fd5b5061006e61010d36600461095a565b61041e565b34801561011e57600080fd5b5061006e6105d5565b60026000540361017e5760405162461bcd60e51b815260206004820152601f60248201527f5265656e7472616e637947756172643a207265656e7472616e742063616c6c0060448201526064015b60405180910390fd5b6002600055565b6002600054146101a75760405162461bcd60e51b8152600401610175906109ce565b60015460005b818110156102c1576000600182815481106101ca576101ca610a05565b60009182526020808320604080518082019091529201546001600160a01b0381168352600160a01b900461ffff169082018190529092506127109061020f9087610a31565b6102199190610a48565b9050600082600001516001600160a01b03168260405160006040518083038185875af1925050503d806000811461026c576040519150601f19603f3d011682016040523d82523d6000602084013e610271565b606091505b50509050806102b35760405162461bcd60e51b815260206004820152600e60248201526d14185e5b595b9d0819985a5b195960921b6044820152606401610175565b8360010193505050506101ad565b505050565b6001600055565b6000546060906103115760405162461bcd60e51b815260206004820152600f60248201526e139bdd081a5b9a5d1a585b1a5e9959608a1b6044820152606401610175565b6001805480602002602001604051908101604052809291908181526020016000905b8282101561037d57600084815260209081902060408051808201909152908401546001600160a01b0381168252600160a01b900461ffff1681830152825260019092019101610333565b50505050905090565b61038e610127565b6040516370a0823160e01b81526000906001600160a01b038316906370a08231906103bd903090600401610a6a565b602060405180830381865afa1580156103da573d6000803e3d6000fd5b505050506040513d601f19601f820116820180604052508101906103fe9190610a7e565b905080156104105761041082826105fa565b5061041b6001600055565b50565b6104266106b1565b600081815b8181101561053d57600085858381811061044757610447610a05565b90506040020180360381019061045d9190610a97565b602081015190915061ffff16801580159061047a57506127108111155b6104bd5760405162461bcd60e51b8152602060048201526014602482015273496e76616c696420626173697320706f696e747360601b6044820152606401610175565b60018054808201825560009190915282517fb10e2d527612073b26eecdfd717e6a320cf44b4afac2b0732d9fcbe2b7fa0cf69091018054602085015161ffff16600160a01b026001600160b01b03199091166001600160a01b039093169290921791909117905561052e8186610b0a565b9450826001019250505061042b565b50816127101461058c5760405162461bcd60e51b815260206004820152601a602482015279496e76616c696420746f74616c20626173697320706f696e747360301b6044820152606401610175565b6040516c053706c697441746f6d6963563609c1b81527fdc73717d728bcfa015e8117438a65319aa06e979ca324afa6e1ea645c28ea15d9060200160405180910390a150505050565b6105dd610127565b4780156105ed576105ed81610185565b506105f86001600055565b565b60026000541461061c5760405162461bcd60e51b8152600401610175906109ce565b6001548260005b828110156106aa5760006001828154811061064057610640610a05565b60009182526020808320604080518082019091529201546001600160a01b0381168352600160a01b900461ffff16908201819052909250612710906106859088610a31565b61068f9190610a48565b90506106a0848360000151836106f7565b5050600101610623565b5050505050565b600054156102c65760405162461bcd60e51b8152602060048201526013602482015272105b1c9958591e481a5b9a5d1a585b1a5e9959606a1b6044820152606401610175565b604080516001600160a01b03848116602483015260448083018590528351808403909101815260649092019092526020810180516001600160e01b031663a9059cbb60e01b1790526102c1918591906000906107559084168361079a565b9050805160001415801561077a5750808060200190518101906107789190610b1d565b155b156102c15782604051635274afe760e01b81526004016101759190610a6a565b60606107a8838360006107b1565b90505b92915050565b6060814710156107d6573060405163cd78605960e01b81526004016101759190610a6a565b600080856001600160a01b031684866040516107f29190610b3f565b60006040518083038185875af1925050503d806000811461082f576040519150601f19603f3d011682016040523d82523d6000602084013e610834565b606091505b5091509150610844868383610850565b925050505b9392505050565b60608261086557610860826108a3565b610849565b815115801561087c57506001600160a01b0384163b155b1561089c5783604051639996b31560e01b81526004016101759190610a6a565b5080610849565b8051156108b35780518082602001fd5b604051630a12f52160e11b815260040160405180910390fd5b602080825282518282018190526000919060409081850190868401855b8281101561091b57815180516001600160a01b0316855286015161ffff168685015292840192908501906001016108e9565b5091979650505050505050565b6001600160a01b038116811461041b57600080fd5b60006020828403121561094f57600080fd5b813561084981610928565b6000806020838503121561096d57600080fd5b82356001600160401b038082111561098457600080fd5b818501915085601f83011261099857600080fd5b8135818111156109a757600080fd5b8660208260061b85010111156109bc57600080fd5b60209290920196919550909350505050565b6020808252601e908201527f6f6e6c7920696e206e6f6e2d7265656e7472616e742066756e6374696f6e0000604082015260600190565b634e487b7160e01b600052603260045260246000fd5b634e487b7160e01b600052601160045260246000fd5b80820281158282048414176107ab576107ab610a1b565b600082610a6557634e487b7160e01b600052601260045260246000fd5b500490565b6001600160a01b0391909116815260200190565b600060208284031215610a9057600080fd5b5051919050565b600060408284031215610aa957600080fd5b604051604081018181106001600160401b0382111715610ad957634e487b7160e01b600052604160045260246000fd5b6040528235610ae781610928565b8152602083013561ffff81168114610afe57600080fd5b60208201529392505050565b808201808211156107ab576107ab610a1b565b600060208284031215610b2f57600080fd5b8151801515811461084957600080fd5b6000825160005b81811015610b605760208186018101518583015201610b46565b50600092019182525091905056fea26469706673582212206dbb0b6121fae95c532ac483c990af2090e094218b95cb7ddb01fa371eba3f9364736f6c63430008160033",
  "linkReferences": {},
  "deployedLinkReferences": {}
}