{
  "_format": "hh-sol-artifact-1",
  "contractName": "SplitAtomicFactoryV0",
  "sourceName": "contracts/split/SplitAtomicFactoryV0.sol",
  "abi": [
    {
      "inputs": [
        {
          "internalType": "address",
          "name": "splitAtomicImplementation_",
          "type": "address"
        }
      ],
      "stateMutability": "nonpayable",
      "type": "constructor"
    },
    {
      "inputs": [],
      "name": "ERC1167FailedCreateClone",
      "type": "error"
    },
    {
      "anonymous": false,
      "inputs": [
        {
          "indexed": true,
          "internalType": "address",
          "name": "implementation",
          "type": "address"
        },
        {
          "indexed": true,
          "internalType": "bytes32",
          "name": "type_",
          "type": "bytes32"
        }
      ],
      "name": "Deployed",
      "type": "event"
    },
    {
      "anonymous": false,
      "inputs": [
        {
          "indexed": true,
          "internalType": "address",
          "name": "splitAtomic",
          "type": "address"
        }
      ],
      "name": "SplitAtomicCreated",
      "type": "event"
    },
    {
      "inputs": [
        {
          "components": [
            {
              "internalType": "address payable",
              "name": "recipient",
              "type": "address"
            },
            {
              "internalType": "uint16",
              "name": "basisPoints",
              "type": "uint16"
            }
          ],
          "internalType": "struct Split[]",
          "name": "splits",
          "type": "tuple[]"
        }
      ],
      "name": "createSplit",
      "outputs": [
        {
          "internalType": "address",
          "name": "splitAtomic",
          "type": "address"
        }
      ],
      "stateMutability": "nonpayable",
      "type": "function"
    },
    {
      "inputs": [],
      "name": "splitAtomicImplementation",
      "outputs": [
        {
          "internalType": "address",
          "name": "",
          "type": "address"
        }
      ],
      "stateMutability": "view",
      "type": "function"
    },
    {
      "inputs": [],
      "name": "type_",
      "outputs": [
        {
          "internalType": "bytes32",
          "name": "",
          "type": "bytes32"
        }
      ],
      "stateMutability": "view",
      "type": "function"
    }
  ],
  "bytecode": "0x60a060405234801561001057600080fd5b506040516103fe3803806103fe83398101604081905261002f91610090565b6001600160a01b03811660808190526040517f53706c697441746f6d6963466163746f7279563000000000000000000000000091907f94bfd9af14ef450884c8a7ddb5734e2e1e14e70a1c84f0801cc5a29e34d2642890600090a3506100c0565b6000602082840312156100a257600080fd5b81516001600160a01b03811681146100b957600080fd5b9392505050565b60805161031e6100e06000396000818160a7015260d0015261031e6000f3fe608060405234801561001057600080fd5b50600436106100415760003560e01c806366a2d9b01461004657806378d58b6714610077578063e19a67ae146100a2575b600080fd5b61006473053706c697441746f6d6963466163746f727956360641b81565b6040519081526020015b60405180910390f35b61008a610085366004610203565b6100c9565b6040516001600160a01b03909116815260200161006e565b61008a7f000000000000000000000000000000000000000000000000000000000000000081565b60006100f47f0000000000000000000000000000000000000000000000000000000000000000610191565b6040516365c4560b60e11b81529091506001600160a01b0382169063cb88ac16906101259086908690600401610278565b600060405180830381600087803b15801561013f57600080fd5b505af1158015610153573d6000803e3d6000fd5b50506040516001600160a01b03841692507ff5f6d5d4eddf8a521729b7ad23caa2d2b4b3d750c8604b5c58a24af509b79b329150600090a292915050565b6000763d602d80600a3d3981f3363d3d373d3d3d363d730000008260601b60e81c176000526e5af43d82803e903d91602b57fd5bf38260781b17602052603760096000f090506001600160a01b0381166101fe576040516330be1a3d60e21b815260040160405180910390fd5b919050565b6000806020838503121561021657600080fd5b823567ffffffffffffffff8082111561022e57600080fd5b818501915085601f83011261024257600080fd5b81358181111561025157600080fd5b8660208260061b850101111561026657600080fd5b60209290920196919550909350505050565b6020808252818101839052600090604080840186845b878110156102db5781356001600160a01b0381168082146102ae57600080fd5b8452508185013561ffff81168082146102c657600080fd5b8487015250918301919083019060010161028e565b509097965050505050505056fea264697066735822122037602369421e992b909b123b18229cf4428f780af23b594069e1a597aa73929a64736f6c63430008160033",
  "linkReferences": {},
  "deployedLinkReferences": {}
}