{
  "_format": "hh-sol-artifact-1",
  "contractName": "DependencyRegistryV0",
  "sourceName": "contracts/DependencyRegistryV0.sol",
  "abi": [
    {
      "anonymous": false,
      "inputs": [
        {
          "indexed": true,
          "internalType": "bytes32",
          "name": "_dependencyType",
          "type": "bytes32"
        },
        {
          "indexed": false,
          "internalType": "string",
          "name": "_preferredCDN",
          "type": "string"
        },
        {
          "indexed": false,
          "internalType": "string",
          "name": "_preferredRepository",
          "type": "string"
        },
        {
          "indexed": false,
          "internalType": "string",
          "name": "_referenceWebsite",
          "type": "string"
        }
      ],
      "name": "DependencyAdded",
      "type": "event"
    },
    {
      "anonymous": false,
      "inputs": [
        {
          "indexed": true,
          "internalType": "bytes32",
          "name": "_dependencyType",
          "type": "bytes32"
        },
        {
          "indexed": true,
          "internalType": "uint256",
          "name": "_additionalCDNIndex",
          "type": "uint256"
        }
      ],
      "name": "DependencyAdditionalCDNRemoved",
      "type": "event"
    },
    {
      "anonymous": false,
      "inputs": [
        {
          "indexed": true,
          "internalType": "bytes32",
          "name": "_dependencyType",
          "type": "bytes32"
        },
        {
          "indexed": false,
          "internalType": "string",
          "name": "_additionalCDN",
          "type": "string"
        },
        {
          "indexed": false,
          "internalType": "uint256",
          "name": "_additionalCDNIndex",
          "type": "uint256"
        }
      ],
      "name": "DependencyAdditionalCDNUpdated",
      "type": "event"
    },
    {
      "anonymous": false,
      "inputs": [
        {
          "indexed": true,
          "internalType": "bytes32",
          "name": "_dependencyType",
          "type": "bytes32"
        },
        {
          "indexed": true,
          "internalType": "uint256",
          "name": "_additionalRepositoryIndex",
          "type": "uint256"
        }
      ],
      "name": "DependencyAdditionalRepositoryRemoved",
      "type": "event"
    },
    {
      "anonymous": false,
      "inputs": [
        {
          "indexed": true,
          "internalType": "bytes32",
          "name": "_dependencyType",
          "type": "bytes32"
        },
        {
          "indexed": false,
          "internalType": "string",
          "name": "_additionalRepository",
          "type": "string"
        },
        {
          "indexed": false,
          "internalType": "uint256",
          "name": "_additionalRepositoryIndex",
          "type": "uint256"
        }
      ],
      "name": "DependencyAdditionalRepositoryUpdated",
      "type": "event"
    },
    {
      "anonymous": false,
      "inputs": [
        {
          "indexed": true,
          "internalType": "bytes32",
          "name": "_dependencyType",
          "type": "bytes32"
        },
        {
          "indexed": false,
          "internalType": "string",
          "name": "_preferredCDN",
          "type": "string"
        }
      ],
      "name": "DependencyPreferredCDNUpdated",
      "type": "event"
    },
    {
      "anonymous": false,
      "inputs": [
        {
          "indexed": true,
          "internalType": "bytes32",
          "name": "_dependencyType",
          "type": "bytes32"
        },
        {
          "indexed": false,
          "internalType": "string",
          "name": "_preferredRepository",
          "type": "string"
        }
      ],
      "name": "DependencyPreferredRepositoryUpdated",
      "type": "event"
    },
    {
      "anonymous": false,
      "inputs": [
        {
          "indexed": true,
          "internalType": "bytes32",
          "name": "_dependencyType",
          "type": "bytes32"
        },
        {
          "indexed": false,
          "internalType": "string",
          "name": "_referenceWebsite",
          "type": "string"
        }
      ],
      "name": "DependencyReferenceWebsiteUpdated",
      "type": "event"
    },
    {
      "anonymous": false,
      "inputs": [
        {
          "indexed": true,
          "internalType": "bytes32",
          "name": "_dependencyType",
          "type": "bytes32"
        }
      ],
      "name": "DependencyRemoved",
      "type": "event"
    },
    {
      "anonymous": false,
      "inputs": [
        {
          "indexed": true,
          "internalType": "bytes32",
          "name": "_dependencyType",
          "type": "bytes32"
        }
      ],
      "name": "DependencyScriptUpdated",
      "type": "event"
    },
    {
      "anonymous": false,
      "inputs": [
        {
          "indexed": false,
          "internalType": "uint8",
          "name": "version",
          "type": "uint8"
        }
      ],
      "name": "Initialized",
      "type": "event"
    },
    {
      "anonymous": false,
      "inputs": [
        {
          "indexed": true,
          "internalType": "address",
          "name": "previousOwner",
          "type": "address"
        },
        {
          "indexed": true,
          "internalType": "address",
          "name": "newOwner",
          "type": "address"
        }
      ],
      "name": "OwnershipTransferred",
      "type": "event"
    },
    {
      "anonymous": false,
      "inputs": [
        {
          "indexed": true,
          "internalType": "address",
          "name": "_coreContractAddress",
          "type": "address"
        },
        {
          "indexed": true,
          "internalType": "uint256",
          "name": "_projectId",
          "type": "uint256"
        },
        {
          "indexed": false,
          "internalType": "bytes32",
          "name": "_dependencyType",
          "type": "bytes32"
        }
      ],
      "name": "ProjectDependencyTypeOverrideAdded",
      "type": "event"
    },
    {
      "anonymous": false,
      "inputs": [
        {
          "indexed": true,
          "internalType": "address",
          "name": "_coreContractAddress",
          "type": "address"
        },
        {
          "indexed": true,
          "internalType": "uint256",
          "name": "_projectId",
          "type": "uint256"
        }
      ],
      "name": "ProjectDependencyTypeOverrideRemoved",
      "type": "event"
    },
    {
      "anonymous": false,
      "inputs": [
        {
          "indexed": true,
          "internalType": "address",
          "name": "_coreContractAddress",
          "type": "address"
        }
      ],
      "name": "SupportedCoreContractAdded",
      "type": "event"
    },
    {
      "anonymous": false,
      "inputs": [
        {
          "indexed": true,
          "internalType": "address",
          "name": "_coreContractAddress",
          "type": "address"
        }
      ],
      "name": "SupportedCoreContractRemoved",
      "type": "event"
    },
    {
      "inputs": [
        {
          "internalType": "bytes32",
          "name": "_dependencyType",
          "type": "bytes32"
        },
        {
          "internalType": "string",
          "name": "_preferredCDN",
          "type": "string"
        },
        {
          "internalType": "string",
          "name": "_preferredRepository",
          "type": "string"
        },
        {
          "internalType": "string",
          "name": "_referenceWebsite",
          "type": "string"
        }
      ],
      "name": "addDependency",
      "outputs": [],
      "stateMutability": "nonpayable",
      "type": "function"
    },
    {
      "inputs": [
        {
          "internalType": "bytes32",
          "name": "_dependencyType",
          "type": "bytes32"
        },
        {
          "internalType": "string",
          "name": "_additionalCDN",
          "type": "string"
        }
      ],
      "name": "addDependencyAdditionalCDN",
      "outputs": [],
      "stateMutability": "nonpayable",
      "type": "function"
    },
    {
      "inputs": [
        {
          "internalType": "bytes32",
          "name": "_dependencyType",
          "type": "bytes32"
        },
        {
          "internalType": "string",
          "name": "_additionalRepository",
          "type": "string"
        }
      ],
      "name": "addDependencyAdditionalRepository",
      "outputs": [],
      "stateMutability": "nonpayable",
      "type": "function"
    },
    {
      "inputs": [
        {
          "internalType": "bytes32",
          "name": "_dependencyType",
          "type": "bytes32"
        },
        {
          "internalType": "string",
          "name": "_script",
          "type": "string"
        }
      ],
      "name": "addDependencyScript",
      "outputs": [],
      "stateMutability": "nonpayable",
      "type": "function"
    },
    {
      "inputs": [
        {
          "internalType": "address",
          "name": "_contractAddress",
          "type": "address"
        },
        {
          "internalType": "uint256",
          "name": "_projectId",
          "type": "uint256"
        },
        {
          "internalType": "bytes32",
          "name": "_dependencyType",
          "type": "bytes32"
        }
      ],
      "name": "addProjectDependencyTypeOverride",
      "outputs": [],
      "stateMutability": "nonpayable",
      "type": "function"
    },
    {
      "inputs": [
        {
          "internalType": "address",
          "name": "_contractAddress",
          "type": "address"
        }
      ],
      "name": "addSupportedCoreContract",
      "outputs": [],
      "stateMutability": "nonpayable",
      "type": "function"
    },
    {
      "inputs": [
        {
          "internalType": "address",
          "name": "_sender",
          "type": "address"
        },
        {
          "internalType": "address",
          "name": "_contract",
          "type": "address"
        },
        {
          "internalType": "bytes4",
          "name": "_selector",
          "type": "bytes4"
        }
      ],
      "name": "adminACLAllowed",
      "outputs": [
        {
          "internalType": "bool",
          "name": "",
          "type": "bool"
        }
      ],
      "stateMutability": "nonpayable",
      "type": "function"
    },
    {
      "inputs": [],
      "name": "adminACLContract",
      "outputs": [
        {
          "internalType": "contract IAdminACLV0",
          "name": "",
          "type": "address"
        }
      ],
      "stateMutability": "view",
      "type": "function"
    },
    {
      "inputs": [
        {
          "internalType": "bytes32",
          "name": "_dependencyType",
          "type": "bytes32"
        },
        {
          "internalType": "uint256",
          "name": "_index",
          "type": "uint256"
        }
      ],
      "name": "getDependencyAdditionalCDNAtIndex",
      "outputs": [
        {
          "internalType": "string",
          "name": "",
          "type": "string"
        }
      ],
      "stateMutability": "view",
      "type": "function"
    },
    {
      "inputs": [
        {
          "internalType": "bytes32",
          "name": "_dependencyType",
          "type": "bytes32"
        },
        {
          "internalType": "uint256",
          "name": "_index",
          "type": "uint256"
        }
      ],
      "name": "getDependencyAdditionalRepositoryAtIndex",
      "outputs": [
        {
          "internalType": "string",
          "name": "",
          "type": "string"
        }
      ],
      "stateMutability": "view",
      "type": "function"
    },
    {
      "inputs": [
        {
          "internalType": "bytes32",
          "name": "_dependencyType",
          "type": "bytes32"
        }
      ],
      "name": "getDependencyDetails",
      "outputs": [
        {
          "internalType": "string",
          "name": "typeAndVersion",
          "type": "string"
        },
        {
          "internalType": "string",
          "name": "preferredCDN",
          "type": "string"
        },
        {
          "internalType": "uint24",
          "name": "additionalCDNCount",
          "type": "uint24"
        },
        {
          "internalType": "string",
          "name": "preferredRepository",
          "type": "string"
        },
        {
          "internalType": "uint24",
          "name": "additionalRepositoryCount",
          "type": "uint24"
        },
        {
          "internalType": "string",
          "name": "referenceWebsite",
          "type": "string"
        },
        {
          "internalType": "bool",
          "name": "availableOnChain",
          "type": "bool"
        },
        {
          "internalType": "uint24",
          "name": "scriptCount",
          "type": "uint24"
        }
      ],
      "stateMutability": "view",
      "type": "function"
    },
    {
      "inputs": [
        {
          "internalType": "bytes32",
          "name": "_dependencyType",
          "type": "bytes32"
        },
        {
          "internalType": "uint256",
          "name": "_index",
          "type": "uint256"
        }
      ],
      "name": "getDependencyScriptAtIndex",
      "outputs": [
        {
          "internalType": "string",
          "name": "",
          "type": "string"
        }
      ],
      "stateMutability": "view",
      "type": "function"
    },
    {
      "inputs": [
        {
          "internalType": "bytes32",
          "name": "_dependencyType",
          "type": "bytes32"
        },
        {
          "internalType": "uint256",
          "name": "_index",
          "type": "uint256"
        }
      ],
      "name": "getDependencyScriptBytecodeAddressAtIndex",
      "outputs": [
        {
          "internalType": "address",
          "name": "",
          "type": "address"
        }
      ],
      "stateMutability": "view",
      "type": "function"
    },
    {
      "inputs": [
        {
          "internalType": "bytes32",
          "name": "_dependencyType",
          "type": "bytes32"
        }
      ],
      "name": "getDependencyScriptCount",
      "outputs": [
        {
          "internalType": "uint256",
          "name": "",
          "type": "uint256"
        }
      ],
      "stateMutability": "view",
      "type": "function"
    },
    {
      "inputs": [
        {
          "internalType": "uint256",
          "name": "_index",
          "type": "uint256"
        }
      ],
      "name": "getDependencyTypeAtIndex",
      "outputs": [
        {
          "internalType": "string",
          "name": "",
          "type": "string"
        }
      ],
      "stateMutability": "view",
      "type": "function"
    },
    {
      "inputs": [],
      "name": "getDependencyTypeCount",
      "outputs": [
        {
          "internalType": "uint256",
          "name": "",
          "type": "uint256"
        }
      ],
      "stateMutability": "view",
      "type": "function"
    },
    {
      "inputs": [
        {
          "internalType": "address",
          "name": "_contractAddress",
          "type": "address"
        },
        {
          "internalType": "uint256",
          "name": "_projectId",
          "type": "uint256"
        }
      ],
      "name": "getDependencyTypeForProject",
      "outputs": [
        {
          "internalType": "string",
          "name": "",
          "type": "string"
        }
      ],
      "stateMutability": "view",
      "type": "function"
    },
    {
      "inputs": [],
      "name": "getDependencyTypes",
      "outputs": [
        {
          "internalType": "string[]",
          "name": "",
          "type": "string[]"
        }
      ],
      "stateMutability": "view",
      "type": "function"
    },
    {
      "inputs": [
        {
          "internalType": "uint256",
          "name": "_index",
          "type": "uint256"
        }
      ],
      "name": "getSupportedCoreContractAtIndex",
      "outputs": [
        {
          "internalType": "address",
          "name": "",
          "type": "address"
        }
      ],
      "stateMutability": "view",
      "type": "function"
    },
    {
      "inputs": [],
      "name": "getSupportedCoreContractCount",
      "outputs": [
        {
          "internalType": "uint256",
          "name": "",
          "type": "uint256"
        }
      ],
      "stateMutability": "view",
      "type": "function"
    },
    {
      "inputs": [],
      "name": "getSupportedCoreContracts",
      "outputs": [
        {
          "internalType": "address[]",
          "name": "",
          "type": "address[]"
        }
      ],
      "stateMutability": "view",
      "type": "function"
    },
    {
      "inputs": [
        {
          "internalType": "address",
          "name": "_adminACLContract",
          "type": "address"
        }
      ],
      "name": "initialize",
      "outputs": [],
      "stateMutability": "nonpayable",
      "type": "function"
    },
    {
      "inputs": [],
      "name": "owner",
      "outputs": [
        {
          "internalType": "address",
          "name": "",
          "type": "address"
        }
      ],
      "stateMutability": "view",
      "type": "function"
    },
    {
      "inputs": [
        {
          "internalType": "bytes32",
          "name": "_dependencyType",
          "type": "bytes32"
        }
      ],
      "name": "removeDependency",
      "outputs": [],
      "stateMutability": "nonpayable",
      "type": "function"
    },
    {
      "inputs": [
        {
          "internalType": "bytes32",
          "name": "_dependencyType",
          "type": "bytes32"
        },
        {
          "internalType": "uint256",
          "name": "_index",
          "type": "uint256"
        }
      ],
      "name": "removeDependencyAdditionalCDNAtIndex",
      "outputs": [],
      "stateMutability": "nonpayable",
      "type": "function"
    },
    {
      "inputs": [
        {
          "internalType": "bytes32",
          "name": "_dependencyType",
          "type": "bytes32"
        },
        {
          "internalType": "uint256",
          "name": "_index",
          "type": "uint256"
        }
      ],
      "name": "removeDependencyAdditionalRepositoryAtIndex",
      "outputs": [],
      "stateMutability": "nonpayable",
      "type": "function"
    },
    {
      "inputs": [
        {
          "internalType": "bytes32",
          "name": "_dependencyType",
          "type": "bytes32"
        }
      ],
      "name": "removeDependencyLastScript",
      "outputs": [],
      "stateMutability": "nonpayable",
      "type": "function"
    },
    {
      "inputs": [
        {
          "internalType": "address",
          "name": "_contractAddress",
          "type": "address"
        },
        {
          "internalType": "uint256",
          "name": "_projectId",
          "type": "uint256"
        }
      ],
      "name": "removeProjectDependencyTypeOverride",
      "outputs": [],
      "stateMutability": "nonpayable",
      "type": "function"
    },
    {
      "inputs": [
        {
          "internalType": "address",
          "name": "_contractAddress",
          "type": "address"
        }
      ],
      "name": "removeSupportedCoreContract",
      "outputs": [],
      "stateMutability": "nonpayable",
      "type": "function"
    },
    {
      "inputs": [],
      "name": "renounceOwnership",
      "outputs": [],
      "stateMutability": "nonpayable",
      "type": "function"
    },
    {
      "inputs": [
        {
          "internalType": "address",
          "name": "newOwner",
          "type": "address"
        }
      ],
      "name": "transferOwnership",
      "outputs": [],
      "stateMutability": "nonpayable",
      "type": "function"
    },
    {
      "inputs": [
        {
          "internalType": "bytes32",
          "name": "_dependencyType",
          "type": "bytes32"
        },
        {
          "internalType": "uint256",
          "name": "_index",
          "type": "uint256"
        },
        {
          "internalType": "string",
          "name": "_additionalCDN",
          "type": "string"
        }
      ],
      "name": "updateDependencyAdditionalCDNAtIndex",
      "outputs": [],
      "stateMutability": "nonpayable",
      "type": "function"
    },
    {
      "inputs": [
        {
          "internalType": "bytes32",
          "name": "_dependencyType",
          "type": "bytes32"
        },
        {
          "internalType": "uint256",
          "name": "_index",
          "type": "uint256"
        },
        {
          "internalType": "string",
          "name": "_additionalRepository",
          "type": "string"
        }
      ],
      "name": "updateDependencyAdditionalRepositoryAtIndex",
      "outputs": [],
      "stateMutability": "nonpayable",
      "type": "function"
    },
    {
      "inputs": [
        {
          "internalType": "bytes32",
          "name": "_dependencyType",
          "type": "bytes32"
        },
        {
          "internalType": "string",
          "name": "_preferredCDN",
          "type": "string"
        }
      ],
      "name": "updateDependencyPreferredCDN",
      "outputs": [],
      "stateMutability": "nonpayable",
      "type": "function"
    },
    {
      "inputs": [
        {
          "internalType": "bytes32",
          "name": "_dependencyType",
          "type": "bytes32"
        },
        {
          "internalType": "string",
          "name": "_preferredRepository",
          "type": "string"
        }
      ],
      "name": "updateDependencyPreferredRepository",
      "outputs": [],
      "stateMutability": "nonpayable",
      "type": "function"
    },
    {
      "inputs": [
        {
          "internalType": "bytes32",
          "name": "_dependencyType",
          "type": "bytes32"
        },
        {
          "internalType": "string",
          "name": "_referenceWebsite",
          "type": "string"
        }
      ],
      "name": "updateDependencyReferenceWebsite",
      "outputs": [],
      "stateMutability": "nonpayable",
      "type": "function"
    },
    {
      "inputs": [
        {
          "internalType": "bytes32",
          "name": "_dependencyType",
          "type": "bytes32"
        },
        {
          "internalType": "uint256",
          "name": "_scriptId",
          "type": "uint256"
        },
        {
          "internalType": "string",
          "name": "_script",
          "type": "string"
        }
      ],
      "name": "updateDependencyScript",
      "outputs": [],
      "stateMutability": "nonpayable",
      "type": "function"
    }
  ],
  "bytecode": "0x608060405234801561001057600080fd5b50613355806100206000396000f3fe608060405234801561001057600080fd5b50600436106101c75760003560e01c80637cbb45c8116101005780637cbb45c81461039957806389f8ba4f146103a15780638da5cb5b146103b457806392f4f506146103bc5780639d5c4b78146103f4578063a809c1fc14610407578063b491702c1461041a578063b86b69f11461042d578063bbf2aefb14610435578063be3d3ee614610448578063c4d66de81461045b578063da7810fe1461046e578063dbc71ccb14610481578063dc33f4ae14610494578063f146f17f146104a7578063f2fde38b146104ba578063f73f4991146104cd578063f8ac18be146104e0578063f9c0fae6146104f357600080fd5b806304e3c7f6146101cc57806307f9f786146101e1578063199eb8e0146101ff5780631a051d49146102125780631e9bef4614610225578063230448b11461025057806325ffb37614610273578063336af8101461029a5780633bd7cfa2146102ba578063474bbdc2146102cd57806351eda999146102e057806352ccc021146102f55780635668bc5e146103085780635710f83d14610345578063596224dc1461035857806359d8a7331461036b5780636c4056a81461037e578063715018a614610391575b600080fd5b6101df6101da3660046127f8565b610506565b005b6101e9610656565b6040516101f6919061281a565b60405180910390f35b6101df61020d366004612877565b610705565b6101df610220366004612955565b6107a0565b606554610238906001600160a01b031681565b6040516001600160a01b0390911681526020016101f6565b61026361025e3660046129a4565b6108f8565b60405190151581526020016101f6565b6102866102813660046129f8565b6109a4565b6040516101f6989796959493929190612a61565b6102ad6102a83660046127f8565b610bbb565b6040516101f69190612ae6565b6101df6102c8366004612af9565b610c6d565b6102ad6102db366004612b3f565b610d1e565b6102e8610e79565b6040516101f69190612b69565b6101df6103033660046129f8565b610f38565b6103376103163660046129f8565b600090815260686020526040902060060154600160301b900462ffffff1690565b6040519081526020016101f6565b6101df610353366004612af9565b6110d9565b6101df610366366004612955565b6111f9565b6102386103793660046129f8565b61130f565b6102ad61038c3660046129f8565b61136a565b6101df6113c7565b6103376113db565b6101df6103af3660046127f8565b6113ec565b61023861150f565b6102386103ca3660046127f8565b6000918252606860209081526040808420928452600590920190529020546001600160a01b031690565b6102ad6104023660046127f8565b611523565b6101df610415366004612bcb565b61154e565b6102ad6104283660046127f8565b6116b3565b610337611715565b6101df610443366004612c5c565b611721565b6101df610456366004612af9565b611802565b6101df610469366004612877565b6118a2565b6101df61047c366004612955565b6119bd565b6101df61048f366004612877565b611aba565b6101df6104a2366004612af9565b611bd8565b6101df6104b5366004612af9565b611d04565b6101df6104c8366004612877565b611e0c565b6101df6104db366004612b3f565b611e85565b6101df6104ee3660046129f8565b611f75565b6101df610501366004612af9565b61211f565b630271e3fb60e11b6105193330836108f8565b61053e5760405162461bcd60e51b815260040161053590612c8f565b60405180910390fd5b8261054a6066826121c2565b6105665760405162461bcd60e51b815260040161053590612cbf565b600084815260686020526040902060068101546301000000900462ffffff168085106105a45760405162461bcd60e51b815260040161053590612cf6565b60006105b1600183612d3e565b6000888152606860209081526040808320848452600390810183528184208b85529088019092529091209192506105e89082612de9565b5060008181526003840160205260408120610602916127aa565b60068301805465ffffff0000001916630100000062ffffff841602179055604051869088907fc02725dfc9639e3399432cdae3db1c062229f4cc41bcc18631517617c020b71c90600090a350505050505050565b6060600061066460696121d5565b90506000816001600160401b0381111561068057610680612892565b6040519080825280602002602001820160405280156106a9578160200160208202803683370190505b50905060005b828110156106fe576106c26069826121df565b8282815181106106d4576106d4612ec3565b6001600160a01b0390921660209283029190910190910152806106f681612ed9565b9150506106af565b5092915050565b62ccf5c760e51b6107173330836108f8565b6107335760405162461bcd60e51b815260040161053590612c8f565b8161073f6069826121eb565b61075b5760405162461bcd60e51b815260040161053590612ef2565b610766606984612200565b506040516001600160a01b038416907f2453d2f77bae1012d39e2257356d2566625ebe0ffd6094198aa051689dc65ba090600090a2505050565b631a051d4960e01b6107b33330836108f8565b6107cf5760405162461bcd60e51b815260040161053590612c8f565b8180516000036107f15760405162461bcd60e51b815260040161053590612f27565b846107fd6066826121c2565b6108195760405162461bcd60e51b815260040161053590612cbf565b60008681526068602052604090206006810154600160301b900462ffffff16861061087e5760405162461bcd60e51b81526020600482015260156024820152747363726970744964206f7574206f662072616e676560581b6044820152606401610535565b60008681526005820160205260409020546108a1906001600160a01b0316612215565b6108aa856122cc565b600087815260058301602052604080822080546001600160a01b0319166001600160a01b0394909416939093179092559051889160008051602061330083398151915291a250505050505050565b60008061090361150f565b6001600160a01b03161415801561099c57506065546040516217798b60e61b81526001600160a01b03868116600483015285811660248301526001600160e01b031985166044830152909116906305de62c0906064016020604051808303816000875af1158015610978573d6000803e3d6000fd5b505050506040513d601f19601f8201168201806040525081019061099c9190612f5c565b949350505050565b60008181526068602052604081206060918291829082908290829081906109ca8a61235a565b60068201548254839162ffffff808216926002850192630100000081048316926004870192600160301b90920416801515918790610a0790612d51565b80601f0160208091040260200160405190810160405280929190818152602001828054610a3390612d51565b8015610a805780601f10610a5557610100808354040283529160200191610a80565b820191906000526020600020905b815481529060010190602001808311610a6357829003601f168201915b50505050509650848054610a9390612d51565b80601f0160208091040260200160405190810160405280929190818152602001828054610abf90612d51565b8015610b0c5780601f10610ae157610100808354040283529160200191610b0c565b820191906000526020600020905b815481529060010190602001808311610aef57829003601f168201915b50505050509450828054610b1f90612d51565b80601f0160208091040260200160405190810160405280929190818152602001828054610b4b90612d51565b8015610b985780601f10610b6d57610100808354040283529160200191610b98565b820191906000526020600020905b815481529060010190602001808311610b7b57829003601f168201915b505050505092509850985098509850985098509850985050919395975091939597565b60008281526068602090815260408083208484526003019091529020805460609190610be690612d51565b80601f0160208091040260200160405190810160405280929190818152602001828054610c1290612d51565b8015610c5f5780601f10610c3457610100808354040283529160200191610c5f565b820191906000526020600020905b815481529060010190602001808311610c4257829003601f168201915b505050505090505b92915050565b631debe7d160e11b610c803330836108f8565b610c9c5760405162461bcd60e51b815260040161053590612c8f565b82610ca86066826121c2565b610cc45760405162461bcd60e51b815260040161053590612cbf565b6000848152606860205260409020600401610cdf8482612f7e565b50837f9959f3af1c0191277b92c192984b5ca38adaf82d8465332b4da850e0e6a199f484604051610d109190612ae6565b60405180910390a250505050565b606082610d2c6069826121eb565b610d485760405162461bcd60e51b815260040161053590612ef2565b6001600160a01b0384166000908152606b602090815260408083208684529091529020548015610d8357610d7b8161235a565b9250506106fe565b604051633ae7357560e21b8152600481018590526001600160a01b0386169063eb9cd5d490602401600060405180830381865afa925050508015610de957506040513d6000823e601f3d908101601f19168201604052610de69190810190613076565b60015b610e6d5760405162461bcd60e51b815260206004820152604960248201527f436f6e747261637420646f6573206e6f7420696d706c656d656e742070726f6a60448201527f65637453637269707444657461696c7320616e6420686173206e6f206f7665726064820152683934b2329039b2ba1760b91b608482015260a401610535565b50909695505050505050565b60606000610e8760666121d5565b6001600160401b03811115610e9e57610e9e612892565b604051908082528060200260200182016040528015610ed157816020015b6060815260200190600190039081610ebc5790505b5090506000610ee060666121d5565b905060005b81811015610f3057610f00610efb6066836121df565b61235a565b838281518110610f1257610f12612ec3565b60200260200101819052508080610f2890612ed9565b915050610ee5565b509092915050565b6352ccc02160e01b610f4b3330836108f8565b610f675760405162461bcd60e51b815260040161053590612c8f565b81610f736066826121c2565b610f8f5760405162461bcd60e51b815260040161053590612cbf565b60008381526068602052604090206006810154600160301b900462ffffff16610ffa5760405162461bcd60e51b815260206004820152601e60248201527f746865726520617265206e6f207363726970747320746f2072656d6f766500006044820152606401610535565b61104781600501600060018460060160069054906101000a900462ffffff1661102391906130e2565b62ffffff1681526020810191909152604001600020546001600160a01b0316612215565b6006810154600582019060009061106c90600190600160301b900462ffffff166130e2565b62ffffff908116825260208201929092526040908101600090812080546001600160a01b031916905560068401805462ffffff60301b198116600160301b91829004861660001901909516029390931790925551859160008051602061330083398151915291a250505050565b635710f83d60e01b6110ec3330836108f8565b6111085760405162461bcd60e51b815260040161053590612c8f565b81805160000361112a5760405162461bcd60e51b815260040161053590612f27565b836111366066826121c2565b6111525760405162461bcd60e51b815260040161053590612cbf565b600085815260686020908152604080832060068101546301000000900462ffffff1680855260038201909352922061118a8782612f7e565b506111968160016130fe565b8260060160036101000a81548162ffffff021916908362ffffff160217905550867ffe07adc986f904acd19c0f4f5d0716973976f0450de010a753a52d119ddadbde87836040516111e8929190613111565b60405180910390a250505050505050565b631658893760e21b61120c3330836108f8565b6112285760405162461bcd60e51b815260040161053590612c8f565b81805160000361124a5760405162461bcd60e51b815260040161053590612f27565b846112566066826121c2565b6112725760405162461bcd60e51b815260040161053590612cbf565b600086815260686020526040902060068101546301000000900462ffffff168087106112b05760405162461bcd60e51b815260040161053590612cf6565b600087815260038301602052604090206112ca8782612f7e565b50877ffe07adc986f904acd19c0f4f5d0716973976f0450de010a753a52d119ddadbde87896040516112fd929190613111565b60405180910390a25050505050505050565b60008161131c60696121d5565b1161135f5760405162461bcd60e51b8152602060048201526013602482015272496e646578206f7574206f6620626f756e647360681b6044820152606401610535565b610c676069836121df565b60608161137760666121d5565b116113b95760405162461bcd60e51b8152602060048201526012602482015271496e646578206f7574206f662072616e676560701b6044820152606401610535565b610c67610efb6066846121df565b6113cf6123c5565b6113d96000612424565b565b60006113e760666121d5565b905090565b6389f8ba4f60e01b6113ff3330836108f8565b61141b5760405162461bcd60e51b815260040161053590612c8f565b826114276066826121c2565b6114435760405162461bcd60e51b815260040161053590612cbf565b6000848152606860205260409020600681015462ffffff1680851061147a5760405162461bcd60e51b815260040161053590612cf6565b6000611487600183612d3e565b600081815260018501602052604080822089835291209192506114aa9082612de9565b50600081815260018401602052604081206114c4916127aa565b60068301805462ffffff191662ffffff8316179055604051869088907f225454b600cf489553fde6e3b7f5e458b1093c035390b678067ea799b3b016cd90600090a350505050505050565b60006113e76033546001600160a01b031690565b60008281526068602090815260408083208484526001019091529020805460609190610be690612d51565b632a02707f60e21b6115613330836108f8565b61157d5760405162461bcd60e51b815260040161053590612c8f565b6115886066866121c2565b156115d55760405162461bcd60e51b815260206004820152601e60248201527f446570656e64656e6379207479706520616c72656164792065786973747300006044820152606401610535565b6115e2856040600161244f565b61162b5760405162461bcd60e51b815260206004820152601a60248201527901b5d5cdd0818dbdb9d185a5b88195e1858dd1b1e481bdb9948160361b6044820152606401610535565b6116366066866124c2565b506000858152606860205260409020806116508682612f7e565b506002810161165f8582612f7e565b506004810161166e8482612f7e565b50857f39626dd6a5a74e9944752116c5e878fbb4c1ac0cab72cd316f6f25ee19cff7658686866040516116a393929190613133565b60405180910390a2505050505050565b6000828152606860205260409020600681015460609190600160301b900462ffffff1683106116f2575050604080516020810190915260008152610c67565b600083815260058201602052604090205461099c906001600160a01b03166124ce565b60006113e760696121d5565b63bbf2aefb60e01b6117343330836108f8565b6117505760405162461bcd60e51b815260040161053590612c8f565b8161175c6066826121c2565b6117785760405162461bcd60e51b815260040161053590612cbf565b846117846069826121eb565b6117a05760405162461bcd60e51b815260040161053590612ef2565b6001600160a01b0386166000818152606b6020908152604080832089845282529182902087905590518681528792917f27d39273f3676c181ec3de60b583da776123d9f9517761fb91f370a83c798918910160405180910390a3505050505050565b635f1e9f7360e11b6118153330836108f8565b6118315760405162461bcd60e51b815260040161053590612c8f565b8261183d6066826121c2565b6118595760405162461bcd60e51b815260040161053590612cbf565b60008481526068602052604090206118718482612f7e565b50837fc9890a31ec780bb5a8a017d683d3913f97260548d71c2cee78194ed2833f023584604051610d109190612ae6565b600054610100900460ff16158080156118c25750600054600160ff909116105b806118dc5750303b1580156118dc575060005460ff166001145b61193f5760405162461bcd60e51b815260206004820152602e60248201527f496e697469616c697a61626c653a20636f6e747261637420697320616c72656160448201526d191e481a5b9a5d1a585b1a5e995960921b6064820152608401610535565b6000805460ff191660011790558015611962576000805461ff0019166101001790555b61196a612559565b61197382612424565b80156119b9576000805461ff0019169055604051600181527f7f26b83ff96e1f2b6a682f133852f6798a09c465da95921460cefb38474024989060200160405180910390a15b5050565b636d3c087f60e11b6119d03330836108f8565b6119ec5760405162461bcd60e51b815260040161053590612c8f565b818051600003611a0e5760405162461bcd60e51b815260040161053590612f27565b84611a1a6066826121c2565b611a365760405162461bcd60e51b815260040161053590612cbf565b6000868152606860205260409020600681015462ffffff16808710611a6d5760405162461bcd60e51b815260040161053590612cf6565b60008781526001830160205260409020611a878782612f7e565b50877f5f667fb1eaf23e0fee1a9dcc154d842202b184eb9ad83502c00c784808a8d00d87896040516112fd929190613111565b63dbc71ccb60e01b611acd3330836108f8565b611ae95760405162461bcd60e51b815260040161053590612c8f565b816001600160a01b038116611b3e5760405162461bcd60e51b815260206004820152601b60248201527a4d75737420696e707574206e6f6e2d7a65726f206164647265737360281b6044820152606401610535565b611b496069846121eb565b15611b935760405162461bcd60e51b815260206004820152601a60248201527910dbdb9d1c9858dd08185b1c9958591e481cdd5c1c1bdc9d195960321b6044820152606401610535565b611b9e606984612588565b506040516001600160a01b038416907f59e1b889b92ad05213b7934a67c5d824348c868455d1c741a2cfe16e46d832dc90600090a2505050565b636e19fa5760e11b611beb3330836108f8565b611c075760405162461bcd60e51b815260040161053590612c8f565b818051600003611c295760405162461bcd60e51b815260040161053590612f27565b83611c356066826121c2565b611c515760405162461bcd60e51b815260040161053590612cbf565b6000858152606860205260409020611c68856122cc565b600682018054600160301b9081900462ffffff9081166000908152600586016020526040902080546001600160a01b0319166001600160a01b0395909516949094179093559054611cbe92919004166001613176565b60068201805462ffffff92909216600160301b0262ffffff60301b19909216919091179055604051869060008051602061330083398151915290600090a2505050505050565b63f146f17f60e01b611d173330836108f8565b611d335760405162461bcd60e51b815260040161053590612c8f565b818051600003611d555760405162461bcd60e51b815260040161053590612f27565b83611d616066826121c2565b611d7d5760405162461bcd60e51b815260040161053590612cbf565b6000858152606860209081526040808320600681015462ffffff16808552600182019093529220611dae8782612f7e565b50611dba8160016130fe565b8260060160006101000a81548162ffffff021916908362ffffff160217905550867f5f667fb1eaf23e0fee1a9dcc154d842202b184eb9ad83502c00c784808a8d00d87836040516111e8929190613111565b611e146123c5565b6001600160a01b038116611e795760405162461bcd60e51b815260206004820152602660248201527f4f776e61626c653a206e6577206f776e657220697320746865207a65726f206160448201526564647265737360d01b6064820152608401610535565b611e8281612424565b50565b63f73f499160e01b611e983330836108f8565b611eb45760405162461bcd60e51b815260040161053590612c8f565b6001600160a01b0383166000908152606b60209081526040808320858452909152902054611f225760405162461bcd60e51b815260206004820152601b60248201527a139bc81bdd995c9c9a5919481cd95d08199bdc881c1c9bda9958dd602a1b6044820152606401610535565b6001600160a01b0383166000818152606b60209081526040808320868452909152808220829055518492917f0732620824c0200808d04ab037f3abc3c31853170b90f5a855d32f44486048ed91a3505050565b637c560c5f60e11b611f883330836108f8565b611fa45760405162461bcd60e51b815260040161053590612c8f565b81611fb06066826121c2565b611fcc5760405162461bcd60e51b815260040161053590612cbf565b6000838152606860205260409020600681015462ffffff16158015611fff575060068101546301000000900462ffffff16155b801561201957506006810154600160301b900462ffffff16155b61209b5760405162461bcd60e51b815260206004820152604760248201527f43616e6e6f742072656d6f766520646570656e64656e6379207769746820616460448201527f646974696f6e616c2043444e732c207265706f7369746f726965732c206f72206064820152667363726970747360c81b608482015260a401610535565b6120a660668561259d565b506000848152606860205260408120906120c082826127aa565b6120ce6002830160006127aa565b6120dc6004830160006127aa565b5060060180546001600160481b031916905560405184907f60e2aa021c4f5303dd65e2173f0180636e4d42eaefc6187278e92bee9d06aa7290600090a250505050565b637ce07d7360e11b6121323330836108f8565b61214e5760405162461bcd60e51b815260040161053590612c8f565b8261215a6066826121c2565b6121765760405162461bcd60e51b815260040161053590612cbf565b60008481526068602052604090206002016121918482612f7e565b50837f774918414e4887efe5349a305fe253ee8b1e3fe0c2117012f0c215645693cbfd84604051610d109190612ae6565b60006121ce83836125a9565b9392505050565b6000610c67825490565b60006121ce83836125c1565b60006121ce836001600160a01b0384166125a9565b60006121ce836001600160a01b0384166125eb565b6000816001600160a01b0316604051612239906001600160f81b0319815260010190565b6000604051808303816000865af19150503d8060008114612276576040519150601f19603f3d011682016040523d82523d6000602084013e61227b565b606091505b50509050806119b95760405162461bcd60e51b815260206004820152601f60248201527f436f6e7472616374417353746f726167653a2044656c657465204572726f72006044820152606401610535565b60008030836040516020016122e29291906131ae565b60405160208183030381529060405290508051602082016000f091506001600160a01b0382166123545760405162461bcd60e51b815260206004820152601e60248201527f436f6e7472616374417353746f726167653a205772697465204572726f7200006044820152606401610535565b50919050565b606060005b828160ff166020811061237457612374612ec3565b1a60f81b6001600160f81b03191615801590612393575060208160ff16105b156123aa57806123a28161327f565b91505061235f565b60405191506040820160405280825282602083015250919050565b336123ce61150f565b6001600160a01b0316146113d95760405162461bcd60e51b815260206004820181905260248201527f4f776e61626c653a2063616c6c6572206973206e6f7420746865206f776e65726044820152606401610535565b61242d816126de565b606580546001600160a01b0319166001600160a01b0392909216919091179055565b600080805b60208160ff1610156124ae576000868260ff166020811061247757612477612ec3565b1a9050801580159061248c575060808160ff16105b156124a5578560ff168160ff16036124a5578260010192505b50600101612454565b8360ff168260ff1614925050509392505050565b60006121ce8383612730565b6060813b60688110806124df575080155b1561252c5760405162461bcd60e51b815260206004820152601d60248201527f436f6e7472616374417353746f726167653a2052656164204572726f720000006044820152606401610535565b604080516028198301601f19168101909152606719820180825290925080606860208501863c5050919050565b600054610100900460ff166125805760405162461bcd60e51b81526004016105359061329e565b6113d961277a565b60006121ce836001600160a01b038416612730565b60006121ce83836125eb565b60009081526001919091016020526040902054151590565b60008260000182815481106125d8576125d8612ec3565b9060005260206000200154905092915050565b600081815260018301602052604081205480156126d457600061260f600183612d3e565b855490915060009061262390600190612d3e565b905081811461268857600086600001828154811061264357612643612ec3565b906000526020600020015490508087600001848154811061266657612666612ec3565b6000918252602080832090910192909255918252600188019052604090208390555b8554869080612699576126996132e9565b600190038181906000526020600020016000905590558560010160008681526020019081526020016000206000905560019350505050610c67565b6000915050610c67565b603380546001600160a01b038381166001600160a01b0319831681179093556040519116919082907f8be0079c531659141344cd1fd0a4f28419497f9722a3daafe3b4186f6b6457e090600090a35050565b600061273c83836125a9565b61277257508154600181810184556000848152602080822090930184905584548482528286019093526040902091909155610c67565b506000610c67565b600054610100900460ff166127a15760405162461bcd60e51b81526004016105359061329e565b6113d933612424565b5080546127b690612d51565b6000825580601f106127c6575050565b601f016020900490600052602060002090810190611e8291905b808211156127f457600081556001016127e0565b5090565b6000806040838503121561280b57600080fd5b50508035926020909101359150565b6020808252825182820181905260009190848201906040850190845b81811015610e6d5783516001600160a01b031683529284019291840191600101612836565b80356001600160a01b038116811461287257600080fd5b919050565b60006020828403121561288957600080fd5b6121ce8261285b565b634e487b7160e01b600052604160045260246000fd5b604051601f8201601f191681016001600160401b03811182821017156128d0576128d0612892565b604052919050565b60006001600160401b038211156128f1576128f1612892565b50601f01601f191660200190565b600082601f83011261291057600080fd5b813561292361291e826128d8565b6128a8565b81815284602083860101111561293857600080fd5b816020850160208301376000918101602001919091529392505050565b60008060006060848603121561296a57600080fd5b833592506020840135915060408401356001600160401b0381111561298e57600080fd5b61299a868287016128ff565b9150509250925092565b6000806000606084860312156129b957600080fd5b6129c28461285b565b92506129d06020850161285b565b915060408401356001600160e01b0319811681146129ed57600080fd5b809150509250925092565b600060208284031215612a0a57600080fd5b5035919050565b60005b83811015612a2c578181015183820152602001612a14565b50506000910152565b60008151808452612a4d816020860160208601612a11565b601f01601f19169290920160200192915050565b6000610100808352612a758184018c612a35565b90508281036020840152612a89818b612a35565b905062ffffff808a1660408501528382036060850152612aa9828a612a35565b9150808816608085015283820360a0850152612ac58288612a35565b925085151560c085015280851660e085015250509998505050505050505050565b6020815260006121ce6020830184612a35565b60008060408385031215612b0c57600080fd5b8235915060208301356001600160401b03811115612b2957600080fd5b612b35858286016128ff565b9150509250929050565b60008060408385031215612b5257600080fd5b612b5b8361285b565b946020939093013593505050565b6000602080830181845280855180835260408601915060408160051b870101925083870160005b82811015612bbe57603f19888603018452612bac858351612a35565b94509285019290850190600101612b90565b5092979650505050505050565b60008060008060808587031215612be157600080fd5b8435935060208501356001600160401b0380821115612bff57600080fd5b612c0b888389016128ff565b94506040870135915080821115612c2157600080fd5b612c2d888389016128ff565b93506060870135915080821115612c4357600080fd5b50612c50878288016128ff565b91505092959194509250565b600080600060608486031215612c7157600080fd5b612c7a8461285b565b95602085013595506040909401359392505050565b60208082526016908201527513db9b1e4810591b5a5b881050d308185b1b1bddd95960521b604082015260600190565b6020808252601e908201527f446570656e64656e6379207479706520646f6573206e6f742065786973740000604082015260600190565b602080825260189082015277417373657420696e646578206f7574206f662072616e676560401b604082015260600190565b634e487b7160e01b600052601160045260246000fd5b81810381811115610c6757610c67612d28565b600181811c90821680612d6557607f821691505b60208210810361235457634e487b7160e01b600052602260045260246000fd5b601f821115612dcf57600081815260208120601f850160051c81016020861015612dac5750805b601f850160051c820191505b81811015612dcb57828155600101612db8565b5050505b505050565b600019600383901b1c191660019190911b1790565b818103612df4575050565b612dfe8254612d51565b6001600160401b03811115612e1557612e15612892565b612e2981612e238454612d51565b84612d85565b6000601f821160018114612e575760008315612e455750848201545b612e4f8482612dd4565b855550612ebc565b600085815260209020601f19841690600086815260209020845b83811015612e915782860154825560019586019590910190602001612e71565b5085831015612eaf5781850154600019600388901b60f8161c191681555b50505060018360011b0184555b5050505050565b634e487b7160e01b600052603260045260246000fd5b600060018201612eeb57612eeb612d28565b5060010190565b6020808252601b908201527a10dbdc994818dbdb9d1c9858dd081b9bdd081cdd5c1c1bdc9d1959602a1b604082015260600190565b6020808252601b908201527a4d75737420696e707574206e6f6e2d656d70747920737472696e6760281b604082015260600190565b600060208284031215612f6e57600080fd5b815180151581146121ce57600080fd5b81516001600160401b03811115612f9757612f97612892565b612fa581612e238454612d51565b602080601f831160018114612fd45760008415612fc25750858301515b612fcc8582612dd4565b865550612dcb565b600085815260208120601f198616915b8281101561300357888601518255948401946001909101908401612fe4565b50858210156130215787850151600019600388901b60f8161c191681555b5050505050600190811b01905550565b600082601f83011261304257600080fd5b815161305061291e826128d8565b81815284602083860101111561306557600080fd5b61099c826020830160208701612a11565b60008060006060848603121561308b57600080fd5b83516001600160401b03808211156130a257600080fd5b6130ae87838801613031565b945060208601519150808211156130c457600080fd5b506130d186828701613031565b925050604084015190509250925092565b62ffffff8281168282160390808211156106fe576106fe612d28565b80820180821115610c6757610c67612d28565b6040815260006131246040830185612a35565b90508260208301529392505050565b6060815260006131466060830186612a35565b82810360208401526131588186612a35565b9050828103604084015261316c8185612a35565b9695505050505050565b62ffffff8181168382160190808211156106fe576106fe612d28565b600081516131a4818560208601612a11565b9290920192915050565b6a600b5981380380925939f360a81b81526b1808181218000e5800144cc560a21b600b8201526330082bff60e11b60178201526416d8004d8560da1b601b82015263300cabff60e11b6020820152635b60003560e01b6024820152617fff60f01b6028820152600060488201819052600560fa1b6049830152633021abff60e11b604a830152645b600051ff60d81b604e8301526132536053830160008152600c0190565b613269818660601b6001600160601b0319169052565b6132766014820185613192565b95945050505050565b600060ff821660ff810361329557613295612d28565b60010192915050565b6020808252602b908201527f496e697469616c697a61626c653a20636f6e7472616374206973206e6f74206960408201526a6e697469616c697a696e6760a81b606082015260800190565b634e487b7160e01b600052603160045260246000fdfef79e11fc86b9bf37d5dfd4359c053136f7c046da6a08f9cf7ca56d80d5aab839a2646970667358221220be1863892aaa1ee2ee0a4d5449fd77a265b83f9c85ba60d572f6607012340be464736f6c63430008110033",
  "linkReferences": {},
  "deployedLinkReferences": {}
}