{
  "_format": "hh-sol-artifact-1",
  "contractName": "EngineRegistryV0",
  "sourceName": "contracts/engine-registry/EngineRegistryV0.sol",
  "abi": [
    {
      "inputs": [],
      "stateMutability": "nonpayable",
      "type": "constructor"
    },
    {
      "anonymous": false,
      "inputs": [
        {
          "indexed": true,
          "internalType": "address",
          "name": "_contractAddress",
          "type": "address"
        },
        {
          "indexed": false,
          "internalType": "bytes32",
          "name": "_coreVersion",
          "type": "bytes32"
        },
        {
          "indexed": false,
          "internalType": "bytes32",
          "name": "_coreType",
          "type": "bytes32"
        }
      ],
      "name": "ContractRegistered",
      "type": "event"
    },
    {
      "anonymous": false,
      "inputs": [
        {
          "indexed": true,
          "internalType": "address",
          "name": "_contractAddress",
          "type": "address"
        }
      ],
      "name": "ContractUnregistered",
      "type": "event"
    },
    {
      "inputs": [
        {
          "internalType": "address",
          "name": "_contractAddress",
          "type": "address"
        },
        {
          "internalType": "bytes32",
          "name": "_coreVersion",
          "type": "bytes32"
        },
        {
          "internalType": "bytes32",
          "name": "_coreType",
          "type": "bytes32"
        }
      ],
      "name": "registerContract",
      "outputs": [],
      "stateMutability": "nonpayable",
      "type": "function"
    },
    {
      "inputs": [
        {
          "internalType": "bytes4",
          "name": "interfaceId",
          "type": "bytes4"
        }
      ],
      "name": "supportsInterface",
      "outputs": [
        {
          "internalType": "bool",
          "name": "",
          "type": "bool"
        }
      ],
      "stateMutability": "view",
      "type": "function"
    },
    {
      "inputs": [
        {
          "internalType": "address",
          "name": "_contractAddress",
          "type": "address"
        }
      ],
      "name": "unregisterContract",
      "outputs": [],
      "stateMutability": "nonpayable",
      "type": "function"
    }
  ],
  "bytecode": "0x60a060405234801561001057600080fd5b50326080526080516103936100366000396000818160b1015261016c01526103936000f3fe608060405234801561001057600080fd5b50600436106100415760003560e01c806301ffc9a714610046578063f889b3ed1461007e578063fac2c62114610093575b600080fd5b61006a61005436600461027b565b6001600160e01b0319166301ffc9a760e01b1490565b604051901515815260200160405180910390f35b61009161008c3660046102c8565b6100a6565b005b6100916100a13660046102fb565b610161565b326001600160a01b037f000000000000000000000000000000000000000000000000000000000000000016146100f75760405162461bcd60e51b81526004016100ee90610316565b60405180910390fd5b60408051838152602081018390526001600160a01b038516917f961dc2d336161fe3b9b4b3966ee713e56cdc9143f77c75a4334e85d6e96bc158910160405180910390a250506001600160a01b03166000908152602081905260409020805460ff19166001179055565b326001600160a01b037f000000000000000000000000000000000000000000000000000000000000000016146101a95760405162461bcd60e51b81526004016100ee90610316565b6001600160a01b03811660009081526020819052604090205460ff166102265760405162461bcd60e51b815260206004820152602c60248201527f4f6e6c7920756e726567697374657220616c726561647920726567697374657260448201526b656420636f6e74726163747360a01b60648201526084016100ee565b6040516001600160a01b038216907f3475b9891ecf29e996feed01eeb42a860ec225283a439d214ffaeac5e006be7d90600090a26001600160a01b03166000908152602081905260409020805460ff19169055565b60006020828403121561028d57600080fd5b81356001600160e01b0319811681146102a557600080fd5b9392505050565b80356001600160a01b03811681146102c357600080fd5b919050565b6000806000606084860312156102dd57600080fd5b6102e6846102ac565b95602085013595506040909401359392505050565b60006020828403121561030d57600080fd5b6102a5826102ac565b60208082526027908201527f4f6e6c7920616c6c6f776564206465706c6f7965722d616464726573732054586040820152661037b934b3b4b760c91b60608201526080019056fea2646970667358221220154e61c347027e11a13324d16beb23489881e3b244026ab64c6d32a1532c88f064736f6c63430008110033",
  "linkReferences": {},
  "deployedLinkReferences": {}
}