{
  "_format": "hh-sol-artifact-1",
  "contractName": "GenArt721CoreV3",
  "sourceName": "contracts/GenArt721CoreV3.sol",
  "abi": [
    {
      "inputs": [
        {
          "internalType": "string",
          "name": "_tokenName",
          "type": "string"
        },
        {
          "internalType": "string",
          "name": "_tokenSymbol",
          "type": "string"
        },
        {
          "internalType": "address",
          "name": "_randomizerContract",
          "type": "address"
        },
        {
          "internalType": "address",
          "name": "_adminACLContract",
          "type": "address"
        },
        {
          "internalType": "uint248",
          "name": "_startingProjectId",
          "type": "uint248"
        }
      ],
      "stateMutability": "nonpayable",
      "type": "constructor"
    },
    {
      "anonymous": false,
      "inputs": [
        {
          "indexed": true,
          "internalType": "uint256",
          "name": "_projectId",
          "type": "uint256"
        }
      ],
      "name": "AcceptedArtistAddressesAndSplits",
      "type": "event"
    },
    {
      "anonymous": false,
      "inputs": [
        {
          "indexed": true,
          "internalType": "address",
          "name": "owner",
          "type": "address"
        },
        {
          "indexed": true,
          "internalType": "address",
          "name": "approved",
          "type": "address"
        },
        {
          "indexed": true,
          "internalType": "uint256",
          "name": "tokenId",
          "type": "uint256"
        }
      ],
      "name": "Approval",
      "type": "event"
    },
    {
      "anonymous": false,
      "inputs": [
        {
          "indexed": true,
          "internalType": "address",
          "name": "owner",
          "type": "address"
        },
        {
          "indexed": true,
          "internalType": "address",
          "name": "operator",
          "type": "address"
        },
        {
          "indexed": false,
          "internalType": "bool",
          "name": "approved",
          "type": "bool"
        }
      ],
      "name": "ApprovalForAll",
      "type": "event"
    },
    {
      "anonymous": false,
      "inputs": [
        {
          "indexed": true,
          "internalType": "address",
          "name": "_to",
          "type": "address"
        },
        {
          "indexed": true,
          "internalType": "uint256",
          "name": "_tokenId",
          "type": "uint256"
        }
      ],
      "name": "Mint",
      "type": "event"
    },
    {
      "anonymous": false,
      "inputs": [
        {
          "indexed": true,
          "internalType": "address",
          "name": "_currentMinter",
          "type": "address"
        }
      ],
      "name": "MinterUpdated",
      "type": "event"
    },
    {
      "anonymous": false,
      "inputs": [
        {
          "indexed": true,
          "internalType": "address",
          "name": "previousOwner",
          "type": "address"
        },
        {
          "indexed": true,
          "internalType": "address",
          "name": "newOwner",
          "type": "address"
        }
      ],
      "name": "OwnershipTransferred",
      "type": "event"
    },
    {
      "anonymous": false,
      "inputs": [
        {
          "indexed": true,
          "internalType": "bytes32",
          "name": "_field",
          "type": "bytes32"
        }
      ],
      "name": "PlatformUpdated",
      "type": "event"
    },
    {
      "anonymous": false,
      "inputs": [
        {
          "indexed": true,
          "internalType": "uint256",
          "name": "_projectId",
          "type": "uint256"
        },
        {
          "indexed": true,
          "internalType": "bytes32",
          "name": "_update",
          "type": "bytes32"
        }
      ],
      "name": "ProjectUpdated",
      "type": "event"
    },
    {
      "anonymous": false,
      "inputs": [
        {
          "indexed": true,
          "internalType": "uint256",
          "name": "_projectId",
          "type": "uint256"
        },
        {
          "indexed": false,
          "internalType": "address",
          "name": "_artistAddress",
          "type": "address"
        },
        {
          "indexed": false,
          "internalType": "address",
          "name": "_additionalPayeePrimarySales",
          "type": "address"
        },
        {
          "indexed": false,
          "internalType": "uint256",
          "name": "_additionalPayeePrimarySalesPercentage",
          "type": "uint256"
        },
        {
          "indexed": false,
          "internalType": "address",
          "name": "_additionalPayeeSecondarySales",
          "type": "address"
        },
        {
          "indexed": false,
          "internalType": "uint256",
          "name": "_additionalPayeeSecondarySalesPercentage",
          "type": "uint256"
        }
      ],
      "name": "ProposedArtistAddressesAndSplits",
      "type": "event"
    },
    {
      "anonymous": false,
      "inputs": [
        {
          "indexed": true,
          "internalType": "address",
          "name": "from",
          "type": "address"
        },
        {
          "indexed": true,
          "internalType": "address",
          "name": "to",
          "type": "address"
        },
        {
          "indexed": true,
          "internalType": "uint256",
          "name": "tokenId",
          "type": "uint256"
        }
      ],
      "name": "Transfer",
      "type": "event"
    },
    {
      "inputs": [],
      "name": "ART_BLOCKS_ERC721TOKEN_ADDRESS_V0",
      "outputs": [
        {
          "internalType": "address",
          "name": "",
          "type": "address"
        }
      ],
      "stateMutability": "view",
      "type": "function"
    },
    {
      "inputs": [],
      "name": "ART_BLOCKS_ERC721TOKEN_ADDRESS_V1",
      "outputs": [
        {
          "internalType": "address",
          "name": "",
          "type": "address"
        }
      ],
      "stateMutability": "view",
      "type": "function"
    },
    {
      "inputs": [
        {
          "internalType": "string",
          "name": "_projectName",
          "type": "string"
        },
        {
          "internalType": "address payable",
          "name": "_artistAddress",
          "type": "address"
        }
      ],
      "name": "addProject",
      "outputs": [],
      "stateMutability": "nonpayable",
      "type": "function"
    },
    {
      "inputs": [
        {
          "internalType": "uint256",
          "name": "_projectId",
          "type": "uint256"
        },
        {
          "internalType": "string",
          "name": "_script",
          "type": "string"
        }
      ],
      "name": "addProjectScript",
      "outputs": [],
      "stateMutability": "nonpayable",
      "type": "function"
    },
    {
      "inputs": [],
      "name": "admin",
      "outputs": [
        {
          "internalType": "address",
          "name": "",
          "type": "address"
        }
      ],
      "stateMutability": "view",
      "type": "function"
    },
    {
      "inputs": [
        {
          "internalType": "address",
          "name": "_sender",
          "type": "address"
        },
        {
          "internalType": "address",
          "name": "_contract",
          "type": "address"
        },
        {
          "internalType": "bytes4",
          "name": "_selector",
          "type": "bytes4"
        }
      ],
      "name": "adminACLAllowed",
      "outputs": [
        {
          "internalType": "bool",
          "name": "",
          "type": "bool"
        }
      ],
      "stateMutability": "nonpayable",
      "type": "function"
    },
    {
      "inputs": [],
      "name": "adminACLContract",
      "outputs": [
        {
          "internalType": "contract IAdminACLV0",
          "name": "",
          "type": "address"
        }
      ],
      "stateMutability": "view",
      "type": "function"
    },
    {
      "inputs": [
        {
          "internalType": "uint256",
          "name": "_projectId",
          "type": "uint256"
        },
        {
          "internalType": "address payable",
          "name": "_artistAddress",
          "type": "address"
        },
        {
          "internalType": "address payable",
          "name": "_additionalPayeePrimarySales",
          "type": "address"
        },
        {
          "internalType": "uint256",
          "name": "_additionalPayeePrimarySalesPercentage",
          "type": "uint256"
        },
        {
          "internalType": "address payable",
          "name": "_additionalPayeeSecondarySales",
          "type": "address"
        },
        {
          "internalType": "uint256",
          "name": "_additionalPayeeSecondarySalesPercentage",
          "type": "uint256"
        }
      ],
      "name": "adminAcceptArtistAddressesAndSplits",
      "outputs": [],
      "stateMutability": "nonpayable",
      "type": "function"
    },
    {
      "inputs": [
        {
          "internalType": "address",
          "name": "to",
          "type": "address"
        },
        {
          "internalType": "uint256",
          "name": "tokenId",
          "type": "uint256"
        }
      ],
      "name": "approve",
      "outputs": [],
      "stateMutability": "nonpayable",
      "type": "function"
    },
    {
      "inputs": [],
      "name": "artblocksAddress",
      "outputs": [
        {
          "internalType": "address payable",
          "name": "",
          "type": "address"
        }
      ],
      "stateMutability": "view",
      "type": "function"
    },
    {
      "inputs": [],
      "name": "artblocksCurationRegistryAddress",
      "outputs": [
        {
          "internalType": "address",
          "name": "",
          "type": "address"
        }
      ],
      "stateMutability": "view",
      "type": "function"
    },
    {
      "inputs": [],
      "name": "artblocksDependencyRegistryAddress",
      "outputs": [
        {
          "internalType": "address",
          "name": "",
          "type": "address"
        }
      ],
      "stateMutability": "view",
      "type": "function"
    },
    {
      "inputs": [],
      "name": "artblocksPercentage",
      "outputs": [
        {
          "internalType": "uint256",
          "name": "",
          "type": "uint256"
        }
      ],
      "stateMutability": "view",
      "type": "function"
    },
    {
      "inputs": [],
      "name": "artblocksPrimarySalesAddress",
      "outputs": [
        {
          "internalType": "address payable",
          "name": "",
          "type": "address"
        }
      ],
      "stateMutability": "view",
      "type": "function"
    },
    {
      "inputs": [],
      "name": "artblocksPrimarySalesPercentage",
      "outputs": [
        {
          "internalType": "uint256",
          "name": "",
          "type": "uint256"
        }
      ],
      "stateMutability": "view",
      "type": "function"
    },
    {
      "inputs": [],
      "name": "artblocksSecondarySalesAddress",
      "outputs": [
        {
          "internalType": "address payable",
          "name": "",
          "type": "address"
        }
      ],
      "stateMutability": "view",
      "type": "function"
    },
    {
      "inputs": [],
      "name": "artblocksSecondarySalesBPS",
      "outputs": [
        {
          "internalType": "uint256",
          "name": "",
          "type": "uint256"
        }
      ],
      "stateMutability": "view",
      "type": "function"
    },
    {
      "inputs": [
        {
          "internalType": "address",
          "name": "owner",
          "type": "address"
        }
      ],
      "name": "balanceOf",
      "outputs": [
        {
          "internalType": "uint256",
          "name": "",
          "type": "uint256"
        }
      ],
      "stateMutability": "view",
      "type": "function"
    },
    {
      "inputs": [],
      "name": "coreType",
      "outputs": [
        {
          "internalType": "string",
          "name": "",
          "type": "string"
        }
      ],
      "stateMutability": "view",
      "type": "function"
    },
    {
      "inputs": [],
      "name": "coreVersion",
      "outputs": [
        {
          "internalType": "string",
          "name": "",
          "type": "string"
        }
      ],
      "stateMutability": "view",
      "type": "function"
    },
    {
      "inputs": [],
      "name": "defaultBaseURI",
      "outputs": [
        {
          "internalType": "string",
          "name": "",
          "type": "string"
        }
      ],
      "stateMutability": "view",
      "type": "function"
    },
    {
      "inputs": [],
      "name": "forbidNewProjects",
      "outputs": [],
      "stateMutability": "nonpayable",
      "type": "function"
    },
    {
      "inputs": [
        {
          "internalType": "uint256",
          "name": "tokenId",
          "type": "uint256"
        }
      ],
      "name": "getApproved",
      "outputs": [
        {
          "internalType": "address",
          "name": "",
          "type": "address"
        }
      ],
      "stateMutability": "view",
      "type": "function"
    },
    {
      "inputs": [
        {
          "internalType": "uint256",
          "name": "_index",
          "type": "uint256"
        }
      ],
      "name": "getHistoricalRandomizerAt",
      "outputs": [
        {
          "internalType": "address",
          "name": "",
          "type": "address"
        }
      ],
      "stateMutability": "view",
      "type": "function"
    },
    {
      "inputs": [
        {
          "internalType": "uint256",
          "name": "_projectId",
          "type": "uint256"
        },
        {
          "internalType": "uint256",
          "name": "_price",
          "type": "uint256"
        }
      ],
      "name": "getPrimaryRevenueSplits",
      "outputs": [
        {
          "internalType": "uint256",
          "name": "artblocksRevenue_",
          "type": "uint256"
        },
        {
          "internalType": "address payable",
          "name": "artblocksAddress_",
          "type": "address"
        },
        {
          "internalType": "uint256",
          "name": "artistRevenue_",
          "type": "uint256"
        },
        {
          "internalType": "address payable",
          "name": "artistAddress_",
          "type": "address"
        },
        {
          "internalType": "uint256",
          "name": "additionalPayeePrimaryRevenue_",
          "type": "uint256"
        },
        {
          "internalType": "address payable",
          "name": "additionalPayeePrimaryAddress_",
          "type": "address"
        }
      ],
      "stateMutability": "view",
      "type": "function"
    },
    {
      "inputs": [
        {
          "internalType": "uint256",
          "name": "_tokenId",
          "type": "uint256"
        }
      ],
      "name": "getRoyalties",
      "outputs": [
        {
          "internalType": "address payable[]",
          "name": "recipients",
          "type": "address[]"
        },
        {
          "internalType": "uint256[]",
          "name": "bps",
          "type": "uint256[]"
        }
      ],
      "stateMutability": "view",
      "type": "function"
    },
    {
      "inputs": [
        {
          "internalType": "uint256",
          "name": "_tokenId",
          "type": "uint256"
        }
      ],
      "name": "getRoyaltyData",
      "outputs": [
        {
          "internalType": "address",
          "name": "artistAddress",
          "type": "address"
        },
        {
          "internalType": "address",
          "name": "additionalPayee",
          "type": "address"
        },
        {
          "internalType": "uint256",
          "name": "additionalPayeePercentage",
          "type": "uint256"
        },
        {
          "internalType": "uint256",
          "name": "royaltyFeeByID",
          "type": "uint256"
        }
      ],
      "stateMutability": "view",
      "type": "function"
    },
    {
      "inputs": [
        {
          "internalType": "address",
          "name": "owner",
          "type": "address"
        },
        {
          "internalType": "address",
          "name": "operator",
          "type": "address"
        }
      ],
      "name": "isApprovedForAll",
      "outputs": [
        {
          "internalType": "bool",
          "name": "",
          "type": "bool"
        }
      ],
      "stateMutability": "view",
      "type": "function"
    },
    {
      "inputs": [
        {
          "internalType": "address",
          "name": "_minter",
          "type": "address"
        }
      ],
      "name": "isMintWhitelisted",
      "outputs": [
        {
          "internalType": "bool",
          "name": "",
          "type": "bool"
        }
      ],
      "stateMutability": "view",
      "type": "function"
    },
    {
      "inputs": [
        {
          "internalType": "address",
          "name": "_to",
          "type": "address"
        },
        {
          "internalType": "uint256",
          "name": "_projectId",
          "type": "uint256"
        },
        {
          "internalType": "address",
          "name": "_by",
          "type": "address"
        }
      ],
      "name": "mint_Ecf",
      "outputs": [
        {
          "internalType": "uint256",
          "name": "_tokenId",
          "type": "uint256"
        }
      ],
      "stateMutability": "nonpayable",
      "type": "function"
    },
    {
      "inputs": [],
      "name": "minterContract",
      "outputs": [
        {
          "internalType": "address",
          "name": "",
          "type": "address"
        }
      ],
      "stateMutability": "view",
      "type": "function"
    },
    {
      "inputs": [],
      "name": "name",
      "outputs": [
        {
          "internalType": "string",
          "name": "",
          "type": "string"
        }
      ],
      "stateMutability": "view",
      "type": "function"
    },
    {
      "inputs": [],
      "name": "newProjectsForbidden",
      "outputs": [
        {
          "internalType": "bool",
          "name": "",
          "type": "bool"
        }
      ],
      "stateMutability": "view",
      "type": "function"
    },
    {
      "inputs": [],
      "name": "nextProjectId",
      "outputs": [
        {
          "internalType": "uint256",
          "name": "",
          "type": "uint256"
        }
      ],
      "stateMutability": "view",
      "type": "function"
    },
    {
      "inputs": [],
      "name": "numHistoricalRandomizers",
      "outputs": [
        {
          "internalType": "uint256",
          "name": "",
          "type": "uint256"
        }
      ],
      "stateMutability": "view",
      "type": "function"
    },
    {
      "inputs": [],
      "name": "owner",
      "outputs": [
        {
          "internalType": "address",
          "name": "",
          "type": "address"
        }
      ],
      "stateMutability": "view",
      "type": "function"
    },
    {
      "inputs": [
        {
          "internalType": "uint256",
          "name": "tokenId",
          "type": "uint256"
        }
      ],
      "name": "ownerOf",
      "outputs": [
        {
          "internalType": "address",
          "name": "",
          "type": "address"
        }
      ],
      "stateMutability": "view",
      "type": "function"
    },
    {
      "inputs": [
        {
          "internalType": "uint256",
          "name": "_projectId",
          "type": "uint256"
        }
      ],
      "name": "projectArtistPaymentInfo",
      "outputs": [
        {
          "internalType": "address",
          "name": "artistAddress",
          "type": "address"
        },
        {
          "internalType": "address",
          "name": "additionalPayeePrimarySales",
          "type": "address"
        },
        {
          "internalType": "uint256",
          "name": "additionalPayeePrimarySalesPercentage",
          "type": "uint256"
        },
        {
          "internalType": "address",
          "name": "additionalPayeeSecondarySales",
          "type": "address"
        },
        {
          "internalType": "uint256",
          "name": "additionalPayeeSecondarySalesPercentage",
          "type": "uint256"
        },
        {
          "internalType": "uint256",
          "name": "secondaryMarketRoyaltyPercentage",
          "type": "uint256"
        }
      ],
      "stateMutability": "view",
      "type": "function"
    },
    {
      "inputs": [
        {
          "internalType": "uint256",
          "name": "_projectId",
          "type": "uint256"
        }
      ],
      "name": "projectDetails",
      "outputs": [
        {
          "internalType": "string",
          "name": "projectName",
          "type": "string"
        },
        {
          "internalType": "string",
          "name": "artist",
          "type": "string"
        },
        {
          "internalType": "string",
          "name": "description",
          "type": "string"
        },
        {
          "internalType": "string",
          "name": "website",
          "type": "string"
        },
        {
          "internalType": "string",
          "name": "license",
          "type": "string"
        }
      ],
      "stateMutability": "view",
      "type": "function"
    },
    {
      "inputs": [
        {
          "internalType": "uint256",
          "name": "_projectId",
          "type": "uint256"
        }
      ],
      "name": "projectIdToAdditionalPayeePrimarySales",
      "outputs": [
        {
          "internalType": "address payable",
          "name": "",
          "type": "address"
        }
      ],
      "stateMutability": "view",
      "type": "function"
    },
    {
      "inputs": [
        {
          "internalType": "uint256",
          "name": "_projectId",
          "type": "uint256"
        }
      ],
      "name": "projectIdToAdditionalPayeePrimarySalesPercentage",
      "outputs": [
        {
          "internalType": "uint256",
          "name": "",
          "type": "uint256"
        }
      ],
      "stateMutability": "view",
      "type": "function"
    },
    {
      "inputs": [
        {
          "internalType": "uint256",
          "name": "_projectId",
          "type": "uint256"
        }
      ],
      "name": "projectIdToAdditionalPayeeSecondarySales",
      "outputs": [
        {
          "internalType": "address payable",
          "name": "",
          "type": "address"
        }
      ],
      "stateMutability": "view",
      "type": "function"
    },
    {
      "inputs": [
        {
          "internalType": "uint256",
          "name": "_projectId",
          "type": "uint256"
        }
      ],
      "name": "projectIdToAdditionalPayeeSecondarySalesPercentage",
      "outputs": [
        {
          "internalType": "uint256",
          "name": "",
          "type": "uint256"
        }
      ],
      "stateMutability": "view",
      "type": "function"
    },
    {
      "inputs": [
        {
          "internalType": "uint256",
          "name": "_projectId",
          "type": "uint256"
        }
      ],
      "name": "projectIdToArtistAddress",
      "outputs": [
        {
          "internalType": "address payable",
          "name": "",
          "type": "address"
        }
      ],
      "stateMutability": "view",
      "type": "function"
    },
    {
      "inputs": [
        {
          "internalType": "uint256",
          "name": "_projectId",
          "type": "uint256"
        }
      ],
      "name": "projectIdToSecondaryMarketRoyaltyPercentage",
      "outputs": [
        {
          "internalType": "uint256",
          "name": "",
          "type": "uint256"
        }
      ],
      "stateMutability": "view",
      "type": "function"
    },
    {
      "inputs": [
        {
          "internalType": "uint256",
          "name": "_projectId",
          "type": "uint256"
        },
        {
          "internalType": "uint256",
          "name": "_index",
          "type": "uint256"
        }
      ],
      "name": "projectScriptByIndex",
      "outputs": [
        {
          "internalType": "string",
          "name": "",
          "type": "string"
        }
      ],
      "stateMutability": "view",
      "type": "function"
    },
    {
      "inputs": [
        {
          "internalType": "uint256",
          "name": "_projectId",
          "type": "uint256"
        },
        {
          "internalType": "uint256",
          "name": "_index",
          "type": "uint256"
        }
      ],
      "name": "projectScriptBytecodeAddressByIndex",
      "outputs": [
        {
          "internalType": "address",
          "name": "",
          "type": "address"
        }
      ],
      "stateMutability": "view",
      "type": "function"
    },
    {
      "inputs": [
        {
          "internalType": "uint256",
          "name": "_projectId",
          "type": "uint256"
        }
      ],
      "name": "projectScriptDetails",
      "outputs": [
        {
          "internalType": "string",
          "name": "scriptTypeAndVersion",
          "type": "string"
        },
        {
          "internalType": "string",
          "name": "aspectRatio",
          "type": "string"
        },
        {
          "internalType": "uint256",
          "name": "scriptCount",
          "type": "uint256"
        }
      ],
      "stateMutability": "view",
      "type": "function"
    },
    {
      "inputs": [
        {
          "internalType": "uint256",
          "name": "_projectId",
          "type": "uint256"
        }
      ],
      "name": "projectStateData",
      "outputs": [
        {
          "internalType": "uint256",
          "name": "invocations",
          "type": "uint256"
        },
        {
          "internalType": "uint256",
          "name": "maxInvocations",
          "type": "uint256"
        },
        {
          "internalType": "bool",
          "name": "active",
          "type": "bool"
        },
        {
          "internalType": "bool",
          "name": "paused",
          "type": "bool"
        },
        {
          "internalType": "uint256",
          "name": "completedTimestamp",
          "type": "uint256"
        },
        {
          "internalType": "bool",
          "name": "locked",
          "type": "bool"
        }
      ],
      "stateMutability": "view",
      "type": "function"
    },
    {
      "inputs": [
        {
          "internalType": "uint256",
          "name": "_projectId",
          "type": "uint256"
        }
      ],
      "name": "projectURIInfo",
      "outputs": [
        {
          "internalType": "string",
          "name": "projectBaseURI",
          "type": "string"
        }
      ],
      "stateMutability": "view",
      "type": "function"
    },
    {
      "inputs": [
        {
          "internalType": "uint256",
          "name": "_projectId",
          "type": "uint256"
        },
        {
          "internalType": "address payable",
          "name": "_artistAddress",
          "type": "address"
        },
        {
          "internalType": "address payable",
          "name": "_additionalPayeePrimarySales",
          "type": "address"
        },
        {
          "internalType": "uint256",
          "name": "_additionalPayeePrimarySalesPercentage",
          "type": "uint256"
        },
        {
          "internalType": "address payable",
          "name": "_additionalPayeeSecondarySales",
          "type": "address"
        },
        {
          "internalType": "uint256",
          "name": "_additionalPayeeSecondarySalesPercentage",
          "type": "uint256"
        }
      ],
      "name": "proposeArtistPaymentAddressesAndSplits",
      "outputs": [],
      "stateMutability": "nonpayable",
      "type": "function"
    },
    {
      "inputs": [
        {
          "internalType": "uint256",
          "name": "",
          "type": "uint256"
        }
      ],
      "name": "proposedArtistAddressesAndSplitsHash",
      "outputs": [
        {
          "internalType": "bytes32",
          "name": "",
          "type": "bytes32"
        }
      ],
      "stateMutability": "view",
      "type": "function"
    },
    {
      "inputs": [],
      "name": "randomizerContract",
      "outputs": [
        {
          "internalType": "contract IRandomizerV2",
          "name": "",
          "type": "address"
        }
      ],
      "stateMutability": "view",
      "type": "function"
    },
    {
      "inputs": [
        {
          "internalType": "uint256",
          "name": "_projectId",
          "type": "uint256"
        }
      ],
      "name": "removeProjectLastScript",
      "outputs": [],
      "stateMutability": "nonpayable",
      "type": "function"
    },
    {
      "inputs": [],
      "name": "renounceOwnership",
      "outputs": [],
      "stateMutability": "nonpayable",
      "type": "function"
    },
    {
      "inputs": [
        {
          "internalType": "address",
          "name": "from",
          "type": "address"
        },
        {
          "internalType": "address",
          "name": "to",
          "type": "address"
        },
        {
          "internalType": "uint256",
          "name": "tokenId",
          "type": "uint256"
        }
      ],
      "name": "safeTransferFrom",
      "outputs": [],
      "stateMutability": "nonpayable",
      "type": "function"
    },
    {
      "inputs": [
        {
          "internalType": "address",
          "name": "from",
          "type": "address"
        },
        {
          "internalType": "address",
          "name": "to",
          "type": "address"
        },
        {
          "internalType": "uint256",
          "name": "tokenId",
          "type": "uint256"
        },
        {
          "internalType": "bytes",
          "name": "data",
          "type": "bytes"
        }
      ],
      "name": "safeTransferFrom",
      "outputs": [],
      "stateMutability": "nonpayable",
      "type": "function"
    },
    {
      "inputs": [
        {
          "internalType": "address",
          "name": "operator",
          "type": "address"
        },
        {
          "internalType": "bool",
          "name": "approved",
          "type": "bool"
        }
      ],
      "name": "setApprovalForAll",
      "outputs": [],
      "stateMutability": "nonpayable",
      "type": "function"
    },
    {
      "inputs": [
        {
          "internalType": "uint256",
          "name": "_tokenId",
          "type": "uint256"
        },
        {
          "internalType": "bytes32",
          "name": "_hashSeed",
          "type": "bytes32"
        }
      ],
      "name": "setTokenHash_8PT",
      "outputs": [],
      "stateMutability": "nonpayable",
      "type": "function"
    },
    {
      "inputs": [],
      "name": "startingProjectId",
      "outputs": [
        {
          "internalType": "uint256",
          "name": "",
          "type": "uint256"
        }
      ],
      "stateMutability": "view",
      "type": "function"
    },
    {
      "inputs": [
        {
          "internalType": "bytes4",
          "name": "interfaceId",
          "type": "bytes4"
        }
      ],
      "name": "supportsInterface",
      "outputs": [
        {
          "internalType": "bool",
          "name": "",
          "type": "bool"
        }
      ],
      "stateMutability": "view",
      "type": "function"
    },
    {
      "inputs": [],
      "name": "symbol",
      "outputs": [
        {
          "internalType": "string",
          "name": "",
          "type": "string"
        }
      ],
      "stateMutability": "view",
      "type": "function"
    },
    {
      "inputs": [
        {
          "internalType": "uint256",
          "name": "_projectId",
          "type": "uint256"
        }
      ],
      "name": "toggleProjectIsActive",
      "outputs": [],
      "stateMutability": "nonpayable",
      "type": "function"
    },
    {
      "inputs": [
        {
          "internalType": "uint256",
          "name": "_projectId",
          "type": "uint256"
        }
      ],
      "name": "toggleProjectIsPaused",
      "outputs": [],
      "stateMutability": "nonpayable",
      "type": "function"
    },
    {
      "inputs": [
        {
          "internalType": "uint256",
          "name": "_tokenId",
          "type": "uint256"
        }
      ],
      "name": "tokenIdToHash",
      "outputs": [
        {
          "internalType": "bytes32",
          "name": "",
          "type": "bytes32"
        }
      ],
      "stateMutability": "view",
      "type": "function"
    },
    {
      "inputs": [
        {
          "internalType": "uint256",
          "name": "_tokenId",
          "type": "uint256"
        }
      ],
      "name": "tokenIdToProjectId",
      "outputs": [
        {
          "internalType": "uint256",
          "name": "_projectId",
          "type": "uint256"
        }
      ],
      "stateMutability": "pure",
      "type": "function"
    },
    {
      "inputs": [
        {
          "internalType": "uint256",
          "name": "_tokenId",
          "type": "uint256"
        }
      ],
      "name": "tokenURI",
      "outputs": [
        {
          "internalType": "string",
          "name": "",
          "type": "string"
        }
      ],
      "stateMutability": "view",
      "type": "function"
    },
    {
      "inputs": [
        {
          "internalType": "address",
          "name": "from",
          "type": "address"
        },
        {
          "internalType": "address",
          "name": "to",
          "type": "address"
        },
        {
          "internalType": "uint256",
          "name": "tokenId",
          "type": "uint256"
        }
      ],
      "name": "transferFrom",
      "outputs": [],
      "stateMutability": "nonpayable",
      "type": "function"
    },
    {
      "inputs": [
        {
          "internalType": "address",
          "name": "newOwner",
          "type": "address"
        }
      ],
      "name": "transferOwnership",
      "outputs": [],
      "stateMutability": "nonpayable",
      "type": "function"
    },
    {
      "inputs": [
        {
          "internalType": "address",
          "name": "_artblocksCurationRegistryAddress",
          "type": "address"
        }
      ],
      "name": "updateArtblocksCurationRegistryAddress",
      "outputs": [],
      "stateMutability": "nonpayable",
      "type": "function"
    },
    {
      "inputs": [
        {
          "internalType": "address",
          "name": "_artblocksDependencyRegistryAddress",
          "type": "address"
        }
      ],
      "name": "updateArtblocksDependencyRegistryAddress",
      "outputs": [],
      "stateMutability": "nonpayable",
      "type": "function"
    },
    {
      "inputs": [
        {
          "internalType": "address payable",
          "name": "_artblocksPrimarySalesAddress",
          "type": "address"
        }
      ],
      "name": "updateArtblocksPrimarySalesAddress",
      "outputs": [],
      "stateMutability": "nonpayable",
      "type": "function"
    },
    {
      "inputs": [
        {
          "internalType": "uint256",
          "name": "artblocksPrimarySalesPercentage_",
          "type": "uint256"
        }
      ],
      "name": "updateArtblocksPrimarySalesPercentage",
      "outputs": [],
      "stateMutability": "nonpayable",
      "type": "function"
    },
    {
      "inputs": [
        {
          "internalType": "address payable",
          "name": "_artblocksSecondarySalesAddress",
          "type": "address"
        }
      ],
      "name": "updateArtblocksSecondarySalesAddress",
      "outputs": [],
      "stateMutability": "nonpayable",
      "type": "function"
    },
    {
      "inputs": [
        {
          "internalType": "uint256",
          "name": "_artblocksSecondarySalesBPS",
          "type": "uint256"
        }
      ],
      "name": "updateArtblocksSecondarySalesBPS",
      "outputs": [],
      "stateMutability": "nonpayable",
      "type": "function"
    },
    {
      "inputs": [
        {
          "internalType": "string",
          "name": "_defaultBaseURI",
          "type": "string"
        }
      ],
      "name": "updateDefaultBaseURI",
      "outputs": [],
      "stateMutability": "nonpayable",
      "type": "function"
    },
    {
      "inputs": [
        {
          "internalType": "address",
          "name": "_address",
          "type": "address"
        }
      ],
      "name": "updateMinterContract",
      "outputs": [],
      "stateMutability": "nonpayable",
      "type": "function"
    },
    {
      "inputs": [
        {
          "internalType": "uint256",
          "name": "_projectId",
          "type": "uint256"
        },
        {
          "internalType": "address payable",
          "name": "_artistAddress",
          "type": "address"
        }
      ],
      "name": "updateProjectArtistAddress",
      "outputs": [],
      "stateMutability": "nonpayable",
      "type": "function"
    },
    {
      "inputs": [
        {
          "internalType": "uint256",
          "name": "_projectId",
          "type": "uint256"
        },
        {
          "internalType": "string",
          "name": "_projectArtistName",
          "type": "string"
        }
      ],
      "name": "updateProjectArtistName",
      "outputs": [],
      "stateMutability": "nonpayable",
      "type": "function"
    },
    {
      "inputs": [
        {
          "internalType": "uint256",
          "name": "_projectId",
          "type": "uint256"
        },
        {
          "internalType": "string",
          "name": "_aspectRatio",
          "type": "string"
        }
      ],
      "name": "updateProjectAspectRatio",
      "outputs": [],
      "stateMutability": "nonpayable",
      "type": "function"
    },
    {
      "inputs": [
        {
          "internalType": "uint256",
          "name": "_projectId",
          "type": "uint256"
        },
        {
          "internalType": "string",
          "name": "_newBaseURI",
          "type": "string"
        }
      ],
      "name": "updateProjectBaseURI",
      "outputs": [],
      "stateMutability": "nonpayable",
      "type": "function"
    },
    {
      "inputs": [
        {
          "internalType": "uint256",
          "name": "_projectId",
          "type": "uint256"
        },
        {
          "internalType": "string",
          "name": "_projectDescription",
          "type": "string"
        }
      ],
      "name": "updateProjectDescription",
      "outputs": [],
      "stateMutability": "nonpayable",
      "type": "function"
    },
    {
      "inputs": [
        {
          "internalType": "uint256",
          "name": "_projectId",
          "type": "uint256"
        },
        {
          "internalType": "string",
          "name": "_projectLicense",
          "type": "string"
        }
      ],
      "name": "updateProjectLicense",
      "outputs": [],
      "stateMutability": "nonpayable",
      "type": "function"
    },
    {
      "inputs": [
        {
          "internalType": "uint256",
          "name": "_projectId",
          "type": "uint256"
        },
        {
          "internalType": "uint24",
          "name": "_maxInvocations",
          "type": "uint24"
        }
      ],
      "name": "updateProjectMaxInvocations",
      "outputs": [],
      "stateMutability": "nonpayable",
      "type": "function"
    },
    {
      "inputs": [
        {
          "internalType": "uint256",
          "name": "_projectId",
          "type": "uint256"
        },
        {
          "internalType": "string",
          "name": "_projectName",
          "type": "string"
        }
      ],
      "name": "updateProjectName",
      "outputs": [],
      "stateMutability": "nonpayable",
      "type": "function"
    },
    {
      "inputs": [
        {
          "internalType": "uint256",
          "name": "_projectId",
          "type": "uint256"
        },
        {
          "internalType": "uint256",
          "name": "_scriptId",
          "type": "uint256"
        },
        {
          "internalType": "string",
          "name": "_script",
          "type": "string"
        }
      ],
      "name": "updateProjectScript",
      "outputs": [],
      "stateMutability": "nonpayable",
      "type": "function"
    },
    {
      "inputs": [
        {
          "internalType": "uint256",
          "name": "_projectId",
          "type": "uint256"
        },
        {
          "internalType": "bytes32",
          "name": "_scriptTypeAndVersion",
          "type": "bytes32"
        }
      ],
      "name": "updateProjectScriptType",
      "outputs": [],
      "stateMutability": "nonpayable",
      "type": "function"
    },
    {
      "inputs": [
        {
          "internalType": "uint256",
          "name": "_projectId",
          "type": "uint256"
        },
        {
          "internalType": "uint256",
          "name": "_secondMarketRoyalty",
          "type": "uint256"
        }
      ],
      "name": "updateProjectSecondaryMarketRoyaltyPercentage",
      "outputs": [],
      "stateMutability": "nonpayable",
      "type": "function"
    },
    {
      "inputs": [
        {
          "internalType": "uint256",
          "name": "_projectId",
          "type": "uint256"
        },
        {
          "internalType": "string",
          "name": "_projectWebsite",
          "type": "string"
        }
      ],
      "name": "updateProjectWebsite",
      "outputs": [],
      "stateMutability": "nonpayable",
      "type": "function"
    },
    {
      "inputs": [
        {
          "internalType": "address",
          "name": "_randomizerAddress",
          "type": "address"
        }
      ],
      "name": "updateRandomizerAddress",
      "outputs": [],
      "stateMutability": "nonpayable",
      "type": "function"
    }
  ],
  "bytecode": "0x60a0604052600f805460ff60a01b1916600560a11b17905560fa6011553480156200002957600080fd5b50604051620063d5380380620063d58339810160408190526200004c91620004aa565b848460006200005c8382620005eb565b5060016200006b8282620005eb565b5050506200008862000082620001c560201b60201c565b620001c9565b826001600160a01b038116620000e45760405162461bcd60e51b815260206004820152601b60248201527f4d75737420696e707574206e6f6e2d7a65726f20616464726573730000000000604482015260640160405180910390fd5b6001600160f81b038216608052620000fc3362000201565b620001073362000259565b6200011284620002b1565b6200011d83620001c9565b60408051808201909152601b81527f68747470733a2f2f746f6b656e2e617274626c6f636b732e696f2f000000000060208201526200015c9062000339565b601380547fff00000000000000000000000000000000000000000000000000000000000000166001600160f81b0384161790556040516c1b995e1d141c9bda9958dd1259609a1b90600080516020620063b583398151915290600090a2505050505050620006b7565b3390565b620001df816200037660201b620040871760201c565b600b80546001600160a01b0319166001600160a01b0392909216919091179055565b600f80546001600160a01b0319166001600160a01b0383161790556040517f617274626c6f636b735072696d61727953616c6573416464726573730000000090600080516020620063b583398151915290600090a250565b601080546001600160a01b0319166001600160a01b0383161790556040517f617274626c6f636b735365636f6e6461727953616c657341646472657373000090600080516020620063b583398151915290600090a250565b600980546001600160a01b0383166001600160a01b03199182168117909255600a805460018101825560009182527fc65a7bb8d6351c1cf70c95a316cc6a92839c986682d98bc35f958f4883f9d2a801805490921690921790556040517072616e646f6d697a65724164647265737360781b91600080516020620063b583398151915291a250565b6014620003478282620005eb565b506040516d64656661756c744261736555524960901b90600080516020620063b583398151915290600090a250565b600680546001600160a01b038381166001600160a01b0319831681179093556040519116919082907f8be0079c531659141344cd1fd0a4f28419497f9722a3daafe3b4186f6b6457e090600090a35050565b634e487b7160e01b600052604160045260246000fd5b600082601f830112620003f057600080fd5b81516001600160401b03808211156200040d576200040d620003c8565b604051601f8301601f19908116603f01168101908282118183101715620004385762000438620003c8565b816040528381526020925086838588010111156200045557600080fd5b600091505b838210156200047957858201830151818301840152908201906200045a565b600093810190920192909252949350505050565b80516001600160a01b0381168114620004a557600080fd5b919050565b600080600080600060a08688031215620004c357600080fd5b85516001600160401b0380821115620004db57600080fd5b620004e989838a01620003de565b965060208801519150808211156200050057600080fd5b506200050f88828901620003de565b94505062000520604087016200048d565b925062000530606087016200048d565b60808701519092506001600160f81b03811681146200054e57600080fd5b809150509295509295909350565b600181811c908216806200057157607f821691505b6020821081036200059257634e487b7160e01b600052602260045260246000fd5b50919050565b601f821115620005e657600081815260208120601f850160051c81016020861015620005c15750805b601f850160051c820191505b81811015620005e257828155600101620005cd565b5050505b505050565b81516001600160401b03811115620006075762000607620003c8565b6200061f816200061884546200055c565b8462000598565b602080601f8311600181146200065757600084156200063e5750858301515b600019600386901b1c1916600185901b178555620005e2565b600085815260208120601f198616915b82811015620006885788860151825594840194600190910190840162000667565b5085821015620006a75787850151600019600388901b60f8161c191681555b5050505050600190811b01905550565b608051615cbf620006f660003960008181610cfd01528181611d2b0152818161251a0152818161276001528181613ca401526142850152615cbf6000f3fe608060405234801561001057600080fd5b506004361061042a5760003560e01c806376ee6fab1161022e578063ad2cdfc411610137578063ad2cdfc414610a82578063ae45ad9814610aaf578063b1656ba314610add578063b168762214610af0578063b7b04fae14610b03578063b88d4fde14610b16578063b971136814610b29578063bb3bafd614610b31578063bba4448a14610b52578063c34a03b514610b65578063c87b56dd14610b78578063cc90e72514610b8b578063d03c390c14610b9e578063db2ff86114610bb1578063ddd0ee0f14610bc4578063e935b7b114610bd7578063e985e9c514610be8578063eb9cd5d414610bfb578063ed8abfda14610c1d578063f2fde38b14610c47578063f313d73314610c5a578063f851a44014610cf0578063f893c07b14610cf857600080fd5b806376ee6fab1461086d5780638639415b146108805780638c3c9cdd146108cb5780638da5cb5b146108de5780638dd91a56146108e657806392f002331461090a57806394535b991461091d57806395d89b41146109305780639ab31a2d146109385780639afc2be51461094b578063a0bee56414610966578063a11ec70a14610979578063a22cb4651461098c578063a3b2cca61461099f578063a47d29cb146109b2578063a65ff74c146109de578063a87ac619146107a7578063abcbb7b414610a1c578063ac11fa1c14610a24578063acad012414610a44578063accd17f014610a57578063ad0305ce14610a6057600080fd5b806328ec8f501161033b57806328ec8f501461065a5780632b274166146106875780632b65e67d1461069a5780632b6cfc8d146106ad5780632d9c0205146106c057806336c7c12c146106d357806337859963146106e657806338c8e468146106f95780633949f906146107255780633e48e8481461073657806342842e0e14610749578063483372821461075c5780634bbc4ff01461076f5780634e1d64af146107825780634f029c39146107a75780635508fd52146107ba57806358b9a5a9146107ce578063621a1f74146108065780636352211e1461081957806369d14faf1461082c5780636c907b7f1461083f57806370a0823114610852578063715018a61461086557600080fd5b80611e3c1461042f5780615de5146104445780630132c6971461046a57806301856fd41461047d57806301ffc9a71461049057806304143a5c146104b357806306fdde03146104bb578063081812fc146104d0578063095ea7b3146104fb5780630c5b1ad41461050e5780630d170673146105215780630e79c928146105345780630ea5613f146105475780630ebeb0ee1461059157806314fc8f2d146105ba57806317df5366146105d55780631b689c0b146105e85780631e9bef46146105fb5780632302cbda1461060e578063230448b11461062157806323b872dd1461063457806325b75d6814610647575b600080fd5b61044261043d366004614dff565b610d1f565b005b610457610452366004614e36565b610e71565b6040519081526020015b60405180910390f35b610442610478366004614e78565b611115565b61044261048b366004614dff565b611299565b6104a361049e366004614ec6565b6113b1565b6040519015158152602001610461565b6104426113dc565b6104c3611464565b6040516104619190614f3a565b6104e36104de366004614f4d565b6114f6565b6040516001600160a01b039091168152602001610461565b610442610509366004614f66565b61151d565b61044261051c366004614f92565b611632565b61044261052f36600461505a565b611691565b61044261054236600461505a565b611774565b61055a610555366004614f4d565b6119ee565b60408051968752602087019590955292151593850193909352151560608401526080830191909152151560a082015260c001610461565b6104e361059f366004614f4d565b6000908152600d60205260409020546001600160a01b031690565b6104e373059edd72cd353df5106d2b9cc5ab83a52287ac3a81565b6008546104e3906001600160a01b031681565b6104576105f6366004614f4d565b611a51565b600b546104e3906001600160a01b031681565b61044261061c3660046150a0565b611a60565b6104a361062f3660046150d4565b611aba565b610442610642366004615114565b611b66565b61044261065536600461505a565b611b97565b610457610668366004614f4d565b6000908152600d6020526040902060010154600160a01b900460ff1690565b610442610695366004614f92565b611c7d565b6104426106a8366004615155565b611d28565b6104426106bb366004614f92565b6120a5565b6104c36106ce366004614f4d565b612104565b6009546104e3906001600160a01b031681565b6104426106f436600461505a565b6121a9565b6104e3610707366004614f4d565b6000908152600d60205260409020600101546001600160a01b031690565b600f546001600160a01b03166104e3565b61044261074436600461505a565b61222a565b610442610757366004615114565b6122ce565b61044261076a366004614f92565b6122e9565b61044261077d366004614f4d565b61238b565b6104c360405180604001604052806006815260200165076332e302e360d41b81525081565b610457600f54600160a01b900460ff1690565b6013546104a390600160f81b900460ff1681565b6104e36107dc366004614dff565b6000918252600c60209081526040808420928452600990920190529020546001600160a01b031690565b610457610814366004614f4d565b61247c565b6104e3610827366004614f4d565b6124e2565b61044261083a3660046151bc565b612517565b61044261084d366004614f92565b61265e565b610457610860366004614f92565b6126bd565b610442612743565b61044261087b366004615155565b61275d565b61089361088e366004614dff565b6129f3565b604080519687526001600160a01b039586166020880152860193909352908316606085015260808401521660a082015260c001610461565b6104c36108d9366004614dff565b612aaa565b6104e3612b09565b6108f96108f4366004614f4d565b612b22565b6040516104619594939291906151e1565b6012546104e3906001600160a01b031681565b6010546104e3906001600160a01b031681565b6104c3612e16565b610442610946366004614f4d565b612e25565b6104e373a7d8d9ef8d8ce8992df33d8b8cf4aebabd5bd27081565b610442610974366004614f92565b612ef6565b610442610987366004614f4d565b612f9f565b61044261099a36600461525c565b61302a565b6104426109ad36600461505a565b613039565b6104e36109c0366004614f4d565b6000908152600d60205260409020600201546001600160a01b031690565b6109f16109ec366004614f4d565b613125565b604080516001600160a01b039586168152949093166020850152918301526060820152608001610461565b6104c361317e565b610457610a32366004614f4d565b600e6020526000908152604090205481565b610442610a5236600461505a565b61320c565b61045760115481565b6104a3610a6e366004614f92565b6012546001600160a01b0390811691161490565b610457610a90366004614f4d565b6000908152600d6020526040902060020154600160a01b900460ff1690565b6104c36040518060400160405280600f81526020016e47656e417274373231436f7265563360881b81525081565b610442610aeb36600461528a565b61335d565b6104e3610afe366004614f4d565b6134e3565b610442610b1136600461505a565b61355b565b610442610b243660046152d9565b613644565b600a54610457565b610b44610b3f366004614f4d565b61367c565b604051610461929190615358565b6007546104e3906001600160a01b031681565b610442610b73366004614dff565b6138bd565b6104c3610b86366004614f4d565b6139bd565b610442610b993660046153dc565b613ac4565b610442610bac366004614f4d565b613c72565b610442610bbf366004614f4d565b613d49565b600f546104e3906001600160a01b031681565b6013546001600160f81b0316610457565b6104a3610bf6366004615422565b613f0d565b610c0e610c09366004614f4d565b613f3b565b60405161046193929190615450565b610457610c2b366004614f4d565b6000908152600d6020526040902054600160a01b900460ff1690565b610442610c55366004614f92565b614007565b610cb2610c68366004614f4d565b6000908152600d60205260409020600281015481546001909201546001600160a01b03808316948482169460ff600160a01b95869004811695938516948490048116939091041690565b604080516001600160a01b039788168152958716602087015285019390935293166060830152608082019290925260a081019190915260c001610461565b6104e361407d565b6104577f000000000000000000000000000000000000000000000000000000000000000081565b81610d29816140d9565b610d4e5760405162461bcd60e51b8152600401610d4590615486565b60405180910390fd5b60008381526002602052604090206009546001600160a01b03163314610db05760405162461bcd60e51b815260206004820152601760248201527613db9b1e481c985b991bdb5a5e995c881b585e481cd95d604a1b6044820152606401610d45565b8054600160a01b900460a01b6001600160a01b03191615610e0c5760405162461bcd60e51b8152602060048201526016602482015275151bdad95b881a185cda08185b1c9958591e481cd95d60521b6044820152606401610d45565b82610e4d5760405162461bcd60e51b8152602060048201526011602482015270139bc81e995c9bc81a185cda081cd95959607a1b6044820152606401610d45565b805460a09390931c600160a01b026001600160a01b03909316929092179091555050565b6012546000906001600160a01b03163314610ece5760405162461bcd60e51b815260206004820152601e60248201527f4d757374206d696e742066726f6d206d696e74657220636f6e747261637400006044820152606401610d45565b6000838152600c60205260409020805462ffffff808216916001830191630100000090910416808310610f435760405162461bcd60e51b815260206004820152601f60248201527f4d757374206e6f7420657863656564206d617820696e766f636174696f6e73006044820152606401610d45565b8354600160881b900460ff1680610f7657506000878152600d60205260409020600201546001600160a01b038781169116145b610fc25760405162461bcd60e51b815260206004820181905260248201527f50726f6a656374206d75737420657869737420616e64206265206163746976656044820152606401610d45565b8354600160901b900460ff161580610ff657506000878152600d60205260409020600201546001600160a01b038781169116145b61103a5760405162461bcd60e51b8152602060048201526015602482015274283ab931b430b9b2b99030b932903830bab9b2b21760591b6044820152606401610d45565b835462ffffff191662ffffff8381169182178655848116620f42408a020191908316900361106b5761106b886140f6565b611075898261414e565b600954604051635b140b8d60e11b8152600481018390526001600160a01b039091169063b628171a90602401600060405180830381600087803b1580156110bb57600080fd5b505af11580156110cf573d6000803e3d6000fd5b50506040518392506001600160a01b038c1691507f0f6798a560793a54c3bcfe86a93cde1e73087d944c0ea20544137d412139688590600090a398975050505050505050565b6000828152600d602052604090206002015482906001600160a01b031633146111505760405162461bcd60e51b8152600401610d45906154b7565b6000838152600c60205260409020805462ffffff80821691630100000090048116908516106111cd5760405162461bcd60e51b8152602060048201526024808201527f6d6178496e766f636174696f6e73206d6179206f6e6c79206265206465637265604482015263185cd95960e21b6064820152608401610d45565b808462ffffff1610156112375760405162461bcd60e51b815260206004820152602c60248201527f4f6e6c79206d617820696e766f636174696f6e73206774652063757272656e7460448201526b20696e766f636174696f6e7360a01b6064820152608401610d45565b815465ffffff0000001916630100000062ffffff8616021782556040516d6d6178496e766f636174696f6e7360901b908690600080516020615c6a83398151915290600090a3808462ffffff160361129257611292856140f6565b5050505050565b816112a381614280565b6112bf5760405162461bcd60e51b8152600401610d45906154dc565b6000838152600d6020526040902060020154839062615bf560e21b906001600160a01b03163314806112f757506112f7333083611aba565b6113135760405162461bcd60e51b8152600401610d4590615506565b6000858152600c60205260409081902090611331908690600161431a565b61137a5760405162461bcd60e51b815260206004820152601a60248201527901b5d5cdd0818dbdb9d185a5b88195e1858dd1b1e481bdb9948160361b6044820152606401610d45565b60078101859055604051697363726970745479706560b01b908790600080516020615c6a83398151915290600090a3505050505050565b60006001600160e01b03198216635d9dd7eb60e11b14806113d657506113d68261438d565b92915050565b6301050e9760e21b6113ef333083611aba565b61140b5760405162461bcd60e51b8152600401610d459061553b565b601354600160f81b900460ff16156114595760405162461bcd60e51b815260206004820152601160248201527020b63932b0b23c903337b93134b23232b760791b6044820152606401610d45565b6114616143dd565b50565b6060600080546114739061556b565b80601f016020809104026020016040519081016040528092919081815260200182805461149f9061556b565b80156114ec5780601f106114c1576101008083540402835291602001916114ec565b820191906000526020600020905b8154815290600101906020018083116114cf57829003601f168201915b5050505050905090565b600061150182614435565b506000908152600460205260409020546001600160a01b031690565b6000611528826124e2565b9050806001600160a01b0316836001600160a01b0316036115955760405162461bcd60e51b815260206004820152602160248201527f4552433732313a20617070726f76616c20746f2063757272656e74206f776e656044820152603960f91b6064820152608401610d45565b336001600160a01b03821614806115b157506115b18133613f0d565b6116235760405162461bcd60e51b815260206004820152603e60248201527f4552433732313a20617070726f76652063616c6c6572206973206e6f7420746f60448201527f6b656e206f776e6572206e6f7220617070726f76656420666f7220616c6c00006064820152608401610d45565b61162d838361445a565b505050565b630316c6b560e21b611645333083611aba565b6116615760405162461bcd60e51b8152600401610d459061553b565b816001600160a01b0381166116885760405162461bcd60e51b8152600401610d459061559f565b61162d836144c8565b8161169b81614280565b6116b75760405162461bcd60e51b8152600401610d45906154dc565b6000838152600d60205260409020600201548390630d17067360e01b906001600160a01b03163314806116f057506116f0333083611aba565b61170c5760405162461bcd60e51b8152600401610d4590615506565b83805160000361172e5760405162461bcd60e51b8152600401610d45906155d4565b6000868152600c60205260409020600101611749868261566c565b50604051636e616d6560e01b908790600080516020615c6a83398151915290600090a3505050505050565b8161177e81614280565b61179a5760405162461bcd60e51b8152600401610d45906154dc565b6000838152600d602052604090206002015483906301cf392560e31b906001600160a01b03163314806117d357506117d3333083611aba565b6117ef5760405162461bcd60e51b8152600401610d4590615506565b8380516000036118115760405162461bcd60e51b8152600401610d45906155d4565b84518590600b8111156118655760405162461bcd60e51b815260206004820152601c60248201527b41737065637420726174696f20666f726d617420746f6f206c6f6e6760201b6044820152606401610d45565b60008060005b8381101561195157600085828151811061188757611887615725565b01602001516001600160f81b0319169050600360fc1b81108015906118ba5750603960f81b6001600160f81b0319821611155b156118c957600192505061193f565b6001600160f81b03198116601760f91b036118ed57836118ed57600193505061193f565b60405162461bcd60e51b815260206004820152602160248201527f496d70726f7065726c7920666f726d61747465642061737065637420726174696044820152606f60f81b6064820152608401610d45565b8061194981615751565b91505061186b565b508061199d5760405162461bcd60e51b815260206004820152601b60248201527a41737065637420726174696f20686173206e6f206e756d6265727360281b6044820152606401610d45565b60008a8152600c602052604090206008016119b88a8261566c565b506040516a617370656374526174696f60a81b908b90600080516020615c6a83398151915290600090a350505050505050505050565b6000818152600c60205260408120805462ffffff808216936301000000830490911692600160881b830460ff90811693600160901b810490911692600160481b9091046001600160401b031691611a4488614280565b1591505091939550919395565b60006113d6620f424083615780565b63118165ed60e11b611a73333083611aba565b611a8f5760405162461bcd60e51b8152600401610d459061553b565b818051600003611ab15760405162461bcd60e51b8152600401610d45906155d4565b61162d8361451e565b600080611ac5612b09565b6001600160a01b031614158015611b5e5750600b546040516217798b60e61b81526001600160a01b03868116600483015285811660248301526001600160e01b031985166044830152909116906305de62c0906064016020604051808303816000875af1158015611b3a573d6000803e3d6000fd5b505050506040513d601f19601f82011682018060405250810190611b5e9190615794565b949350505050565b611b703382614558565b611b8c5760405162461bcd60e51b8152600401610d45906157b1565b61162d8383836145b6565b81611ba181614280565b611bbd5760405162461bcd60e51b8152600401610d45906154dc565b6000838152600d602052604090206002015483906304b6ebad60e31b906001600160a01b0316331480611bf65750611bf6333083611aba565b611c125760405162461bcd60e51b8152600401610d4590615506565b838051600003611c345760405162461bcd60e51b8152600401610d45906155d4565b6000868152600c60205260409020600501611c4f868261566c565b50604051666c6963656e736560c81b908790600080516020615c6a83398151915290600090a3505050505050565b631593a0b360e11b611c90333083611aba565b611cac5760405162461bcd60e51b8152600401610d459061553b565b816001600160a01b038116611cd35760405162461bcd60e51b8152600401610d459061559f565b600880546001600160a01b0319166001600160a01b03851617905560405178646570656e64656e637952656769737472794164647265737360381b90600080516020615c4a83398151915290600090a2505050565b857f00000000000000000000000000000000000000000000000000000000000000008110158015611d6357506013546001600160f81b031681105b611d7f5760405162461bcd60e51b8152600401610d45906157ff565b6000878152600d602052604090206002015487906001600160a01b03163314611dba5760405162461bcd60e51b8152600401610d45906154b7565b866001600160a01b038116611de15760405162461bcd60e51b8152600401610d459061559f565b6000898152600d6020526040902060648711801590611e01575060648511155b611e3b5760405162461bcd60e51b815260206004820152600b60248201526a4d6178206f66203130302560a81b6044820152606401610d45565b861580611e5057506001600160a01b03881615155b611e9c5760405162461bcd60e51b815260206004820152601d60248201527f5072696d617279207061796565206973207a65726f20616464726573730000006044820152606401610d45565b841580611eb157506001600160a01b03861615155b611efd5760405162461bcd60e51b815260206004820152601f60248201527f5365636f6e64617279207061796565206973207a65726f2061646472657373006044820152606401610d45565b897f6ff7d102bb3657a26dcbbcd299d821a066718a7cf76ae7cd98279f18b74da8ac8a8a8a8a8a604051611f35959493929190615832565b60405180910390a2600281015481546000916001600160a01b039081168c821614918391908116908c161480611f7257506001600160a01b038b16155b60018501549091506000906001600160a01b038b811691161480611f9d57506001600160a01b038a16155b9050828015611fa95750815b8015611fb25750805b935050505080156120595760008b8152600e602052604080822082905583546001600160a01b0319166001600160a01b038c811691909117855560028501805460ff60a01b1916600160a01b60ff8e8116820292909217909255600187018054938d166001600160a81b031990941693909317908b16909102179055518c917fc582d05e1da854143bd3271ef4529d79cf5a69fc6057ae320f357acfd291b73891a2612098565b8989898989604051602001612072959493929190615832565b60408051601f19818403018152918152815160209283012060008e8152600e9093529120555b5050505050505050505050565b632b6cfc8d60e01b6120b8333083611aba565b6120d45760405162461bcd60e51b8152600401610d459061553b565b816001600160a01b0381166120fb5760405162461bcd60e51b8152600401610d459061559f565b61162d83614752565b6000818152600c602052604090206006018054606091906121249061556b565b80601f01602080910402602001604051908101604052809291908181526020018280546121509061556b565b801561219d5780601f106121725761010080835404028352916020019161219d565b820191906000526020600020905b81548152906001019060200180831161218057829003601f168201915b50505050509050919050565b6000828152600d602052604090206002015482906001600160a01b031633146121e45760405162461bcd60e51b8152600401610d45906154b7565b6000838152600c602052604090206004016121ff838261566c565b50604051667765627369746560c81b908490600080516020615c6a83398151915290600090a3505050565b6000828152600d602052604090206002015482906001600160a01b031633146122655760405162461bcd60e51b8152600401610d45906154b7565b8180516000036122875760405162461bcd60e51b8152600401610d45906155d4565b6000848152600c602052604090206006016122a2848261566c565b50604051666261736555524960c81b908590600080516020615c6a83398151915290600090a350505050565b61162d83838360405180602001604052806000815250613644565b632419b94160e11b6122fc333083611aba565b6123185760405162461bcd60e51b8152600401610d459061553b565b816001600160a01b03811661233f5760405162461bcd60e51b8152600401610d459061559f565b601280546001600160a01b0319166001600160a01b0385169081179091556040517fad0f299ec81a386c98df0ac27dae11dd020ed1b56963c53a7292e7a3a314539a90600090a2505050565b6304bbc4ff60e41b61239e333083611aba565b6123ba5760405162461bcd60e51b8152600401610d459061553b565b601982111561242a5760405162461bcd60e51b815260206004820152603660248201527f4d6178206f66204152545f424c4f434b535f4d41585f5052494d4152595f5341604482015275131154d7d4115490d153951051d1481c195c98d95b9d60521b6064820152608401610d45565b600f805460ff60a01b1916600160a01b60ff85160217905560405179617274626c6f636b735072696d61727950657263656e7461676560301b90600080516020615c4a83398151915290600090a25050565b600081815260026020526040812054600160a01b900460a01b6001600160a01b0319811682036124af5750600092915050565b604080516001600160a01b0319831660208201520160405160208183030381529060405280519060200120915050919050565b6000818152600260205260408120546001600160a01b0316806113d65760405162461bcd60e51b8152600401610d4590615865565b817f0000000000000000000000000000000000000000000000000000000000000000811015801561255257506013546001600160f81b031681105b61256e5760405162461bcd60e51b8152600401610d45906157ff565b826369d14faf60e01b612582333083611aba565b806125c157506000612592612b09565b6001600160a01b03161480156125c157506000828152600d60205260409020600201546001600160a01b031633145b6125dd5760405162461bcd60e51b8152600401610d4590615897565b836001600160a01b0381166126045760405162461bcd60e51b8152600401610d459061559f565b6000868152600d602052604080822060020180546001600160a01b0319166001600160a01b038916179055516c6172746973744164647265737360981b918891600080516020615c6a8339815191529190a3505050505050565b636c907b7f60e01b612671333083611aba565b61268d5760405162461bcd60e51b8152600401610d459061553b565b816001600160a01b0381166126b45760405162461bcd60e51b8152600401610d459061559f565b61162d836147a9565b60006001600160a01b0382166127275760405162461bcd60e51b815260206004820152602960248201527f4552433732313a2061646472657373207a65726f206973206e6f7420612076616044820152683634b21037bbb732b960b91b6064820152608401610d45565b506001600160a01b031660009081526003602052604090205490565b61274b614830565b6127536143dd565b61275b61488f565b565b857f0000000000000000000000000000000000000000000000000000000000000000811015801561279857506013546001600160f81b031681105b6127b45760405162461bcd60e51b8152600401610d45906157ff565b866376ee6fab60e01b6127c8333083611aba565b80612807575060006127d8612b09565b6001600160a01b031614801561280757506000828152600d60205260409020600201546001600160a01b031633145b6128235760405162461bcd60e51b8152600401610d4590615897565b876001600160a01b03811661284a5760405162461bcd60e51b8152600401610d459061559f565b8888888888604051602001612863959493929190615832565b60408051601f19818403018152918152815160209283012060008d8152600e909352912054146128d25760405162461bcd60e51b815260206004820152601a602482015279135d5cdd081b585d18da08185c9d1a5cdd081c1c9bdc1bdcd85b60321b6044820152606401610d45565b6000600d60008c81526020019081526020016000209050898160020160006101000a8154816001600160a01b0302191690836001600160a01b03160217905550888160000160006101000a8154816001600160a01b0302191690836001600160a01b03160217905550878160020160146101000a81548160ff021916908360ff160217905550868160010160006101000a8154816001600160a01b0302191690836001600160a01b03160217905550858160010160146101000a81548160ff021916908360ff1602179055506000801b600e60008d8152602001908152602001600020819055508a7fc582d05e1da854143bd3271ef4529d79cf5a69fc6057ae320f357acfd291b73860405160405180910390a25050505050505050505050565b6000828152600d60205260408120600f548291829182918291829190606490612a2690600160a01b900460ff168a6158ef565b612a309190615780565b600282015490975087890390606490612a5390600160a01b900460ff16836158ef565b612a5d9190615780565b600f546001600160a01b0316975080820396509350808414612a8a5760028201546001600160a01b031694505b8315612a9e5781546001600160a01b031692505b50509295509295509295565b6000828152600c60205260409020805460609190600160301b900462ffffff168310612ae65750506040805160208101909152600081526113d6565b6000838152600982016020526040902054611b5e906001600160a01b03166148a1565b6000612b1d6006546001600160a01b031690565b905090565b60608060608060606000600c60008881526020019081526020016000209050806001018054612b509061556b565b80601f0160208091040260200160405190810160405280929190818152602001828054612b7c9061556b565b8015612bc95780601f10612b9e57610100808354040283529160200191612bc9565b820191906000526020600020905b815481529060010190602001808311612bac57829003601f168201915b50505050509550806002018054612bdf9061556b565b80601f0160208091040260200160405190810160405280929190818152602001828054612c0b9061556b565b8015612c585780601f10612c2d57610100808354040283529160200191612c58565b820191906000526020600020905b815481529060010190602001808311612c3b57829003601f168201915b50505050509450806003018054612c6e9061556b565b80601f0160208091040260200160405190810160405280929190818152602001828054612c9a9061556b565b8015612ce75780601f10612cbc57610100808354040283529160200191612ce7565b820191906000526020600020905b815481529060010190602001808311612cca57829003601f168201915b50505050509350806004018054612cfd9061556b565b80601f0160208091040260200160405190810160405280929190818152602001828054612d299061556b565b8015612d765780601f10612d4b57610100808354040283529160200191612d76565b820191906000526020600020905b815481529060010190602001808311612d5957829003601f168201915b50505050509250806005018054612d8c9061556b565b80601f0160208091040260200160405190810160405280929190818152602001828054612db89061556b565b8015612e055780601f10612dda57610100808354040283529160200191612e05565b820191906000526020600020905b815481529060010190602001808311612de857829003601f168201915b505050505091505091939590929450565b6060600180546114739061556b565b639ab31a2d60e01b612e38333083611aba565b612e545760405162461bcd60e51b8152600401610d459061553b565b612710821115612ebc5760405162461bcd60e51b815260206004820152602d60248201527f4d6178206f66204152545f424c4f434b535f4d41585f5345434f4e444152595f60448201526c53414c45535f4250532042505360981b6064820152608401610d45565b601182905560405174617274626c6f636b735365636f6e6461727942505360581b90600080516020615c4a83398151915290600090a25050565b63282fb95960e21b612f09333083611aba565b612f255760405162461bcd60e51b8152600401610d459061553b565b816001600160a01b038116612f4c5760405162461bcd60e51b8152600401610d459061559f565b600780546001600160a01b0319166001600160a01b038516179055604051766375726174696f6e52656769737472794164647265737360481b90600080516020615c4a83398151915290600090a2505050565b6000818152600d602052604090206002015481906001600160a01b03163314612fda5760405162461bcd60e51b8152600401610d45906154b7565b6000828152600c6020526040808220805460ff60901b198116600160901b9182900460ff161590910217905551651c185d5cd95960d21b918491600080516020615c6a8339815191529190a35050565b61303533838361492c565b5050565b61304282614280565b61305d5761305833306351d9665360e11b611aba565b61307b565b6000828152600d60205260409020600201546001600160a01b031633145b6130dc5760405162461bcd60e51b815260206004820152602c60248201527f4f6e6c7920617274697374207768656e20756e6c6f636b65642c206f776e657260448201526b081dda195b881b1bd8dad95960a21b6064820152608401610d45565b6000828152600c602052604090206003016130f7828261566c565b506040516a3232b9b1b934b83a34b7b760a91b908390600080516020615c6a83398151915290600090a35050565b600080600080600061313686611a51565b6000908152600d602052604090206002810154600182015491546001600160a01b0391821699918316985060ff600160a01b9384900481169850929004909116945092505050565b6014805461318b9061556b565b80601f01602080910402602001604051908101604052809291908181526020018280546131b79061556b565b80156132045780601f106131d957610100808354040283529160200191613204565b820191906000526020600020905b8154815290600101906020018083116131e757829003601f168201915b505050505081565b8161321681614280565b6132325760405162461bcd60e51b8152600401610d45906154dc565b6000838152600d60205260409020600201548390632b2b404960e21b906001600160a01b031633148061326b575061326b333083611aba565b6132875760405162461bcd60e51b8152600401610d4590615506565b8380516000036132a95760405162461bcd60e51b8152600401610d45906155d4565b6000868152600c602052604090206132c0866149f6565b8154600160301b9081900462ffffff9081166000908152600985016020526040902080546001600160a01b0319166001600160a01b039490941693909317909255825461331292919004166001615906565b815462ffffff91909116600160301b0262ffffff60301b19909116178155604051651cd8dc9a5c1d60d21b908890600080516020615c6a83398151915290600090a350505050505050565b8261336781614280565b6133835760405162461bcd60e51b8152600401610d45906154dc565b6000848152600d6020526040902060020154849063b1656ba360e01b906001600160a01b03163314806133bc57506133bc333083611aba565b6133d85760405162461bcd60e51b8152600401610d4590615506565b8380516000036133fa5760405162461bcd60e51b8152600401610d45906155d4565b6000878152600c602052604090208054600160301b900462ffffff16871061345c5760405162461bcd60e51b81526020600482015260156024820152747363726970744964206f7574206f662072616e676560581b6044820152606401610d45565b600087815260098201602052604090205461347f906001600160a01b0316614a7e565b613488866149f6565b600088815260098301602052604080822080546001600160a01b0319166001600160a01b0394909416939093179092559051651cd8dc9a5c1d60d21b918a91600080516020615c6a8339815191529190a35050505050505050565b600a54600090821061352d5760405162461bcd60e51b8152602060048201526013602482015272496e646578206f7574206f6620626f756e647360681b6044820152606401610d45565b600a828154811061354057613540615725565b6000918252602090912001546001600160a01b031692915050565b8161356581614280565b6135815760405162461bcd60e51b8152600401610d45906154dc565b6000838152600d60205260409020600201548390635bd827d760e11b906001600160a01b03163314806135ba57506135ba333083611aba565b6135d65760405162461bcd60e51b8152600401610d4590615506565b8380516000036135f85760405162461bcd60e51b8152600401610d45906155d4565b6000868152600c60205260409020600201613613868261566c565b50604051696172746973744e616d6560b01b908790600080516020615c6a83398151915290600090a3505050505050565b61364e3383614558565b61366a5760405162461bcd60e51b8152600401610d45906157b1565b61367684848484614b35565b50505050565b60608082613689816140d9565b6136a55760405162461bcd60e51b8152600401610d4590615486565b60408051600380825260808201909252906020820160608036833750506040805160038082526080820190925292955090506020820160608036833701905050915060006136f285611a51565b6000818152600d6020526040812080546001820154939450909260ff600160a01b928390048116939290910416908261372c836064615929565b61373691906158ef565b9050600061374484846158ef565b601154909150600083156137ba5760028701548b516001600160a01b03909116908c908390811061377757613777615725565b6001600160a01b0390921660209283029190910190910152838a8261379b81615751565b9350815181106137ad576137ad615725565b6020026020010181815250505b82156138285760018701548b516001600160a01b03909116908c90839081106137e5576137e5615725565b6001600160a01b0390921660209283029190910190910152828a8261380981615751565b93508151811061381b5761381b615725565b6020026020010181815250505b8115613894576010548b516001600160a01b03909116908c908390811061385157613851615725565b6001600160a01b0390921660209283029190910190910152818a8261387581615751565b93508151811061388757613887615725565b6020026020010181815250505b80600311156138af5780600303808c51038c52808b51038b52505b505050505050505050915091565b6000828152600d602052604090206002015482906001600160a01b031633146138f85760405162461bcd60e51b8152600401610d45906154b7565b605f8211156139685760405162461bcd60e51b815260206004820152603660248201527f4d6178206f66204152544953545f4d41585f5345434f4e444152595f524f594160448201527513151657d4115490d153951051d1481c195c98d95b9d60521b6064820152608401610d45565b6000838152600d6020526040808220805460ff60a01b1916600160a01b60ff8716021790555170726f79616c747950657263656e7461676560781b918591600080516020615c6a8339815191529190a3505050565b6060816139c9816140d9565b6139e55760405162461bcd60e51b8152600401610d4590615486565b6000600c60006139f486611a51565b81526020019081526020016000206006018054613a109061556b565b80601f0160208091040260200160405190810160405280929190818152602001828054613a3c9061556b565b8015613a895780601f10613a5e57610100808354040283529160200191613a89565b820191906000526020600020905b815481529060010190602001808311613a6c57829003601f168201915b5050505050905080613a9a85614b68565b604051602001613aab929190615958565b6040516020818303038152906040529250505b50919050565b63cc90e72560e01b613ad7333083611aba565b613af35760405162461bcd60e51b8152600401610d459061553b565b828051600003613b155760405162461bcd60e51b8152600401610d45906155d4565b826001600160a01b038116613b3c5760405162461bcd60e51b8152600401610d459061559f565b601354600160f81b900460ff1615613b8f5760405162461bcd60e51b81526020600482015260166024820152752732bb90383937b532b1ba39903337b93134b23232b760511b6044820152606401610d45565b6013546001600160f81b03166000818152600d6020908152604080832060020180546001600160a01b0319166001600160a01b038a16179055600c9091529020600101613bdc878261566c565b506000818152600c60205260409020805465ffffff00000060ff60901b011916613d09601e1b600160901b01178155600601613c19601482615987565b50613c25816001615a53565b601380546001600160f81b0319166001600160f81b03929092169190911790556040516618dc99585d195960ca1b908290600080516020615c6a83398151915290600090a3505050505050565b63340f0e4360e21b613c85333083611aba565b613ca15760405162461bcd60e51b8152600401610d459061553b565b817f00000000000000000000000000000000000000000000000000000000000000008110158015613cdc57506013546001600160f81b031681105b613cf85760405162461bcd60e51b8152600401610d45906157ff565b6000838152600c6020526040808220805460ff60881b198116600160881b9182900460ff1615909102179055516561637469766560d01b918591600080516020615c6a8339815191529190a3505050565b80613d5381614280565b613d6f5760405162461bcd60e51b8152600401610d45906154dc565b6000828152600d6020526040902060020154829063db2ff86160e01b906001600160a01b0316331480613da85750613da8333083611aba565b613dc45760405162461bcd60e51b8152600401610d4590615506565b6000848152600c602052604090208054600160301b900462ffffff16613e2c5760405162461bcd60e51b815260206004820152601e60248201527f746865726520617265206e6f207363726970747320746f2072656d6f766500006044820152606401610d45565b8054613e76906009830190600090613e5290600190600160301b900462ffffff16615a73565b62ffffff1681526020810191909152604001600020546001600160a01b0316614a7e565b80546009820190600090613e9890600190600160301b900462ffffff16615a73565b62ffffff908116825260208201929092526040908101600090812080546001600160a01b0319169055835462ffffff60301b198116600160301b918290048516600019019094160292909217835551651cd8dc9a5c1d60d21b918791600080516020615c6a8339815191529190a35050505050565b6001600160a01b03918216600090815260056020908152604080832093909416825291909152205460ff1690565b6000818152600c60205260408120600781015460609283929091613f5e90614c68565b9350806008018054613f6f9061556b565b80601f0160208091040260200160405190810160405280929190818152602001828054613f9b9061556b565b8015613fe85780601f10613fbd57610100808354040283529160200191613fe8565b820191906000526020600020905b815481529060010190602001808311613fcb57829003601f168201915b5050935496989297505050600160301b90940462ffffff169392505050565b61400f614830565b6001600160a01b0381166140745760405162461bcd60e51b815260206004820152602660248201527f4f776e61626c653a206e6577206f776e657220697320746865207a65726f206160448201526564647265737360d01b6064820152608401610d45565b61146181614cd3565b6000612b1d612b09565b600680546001600160a01b038381166001600160a01b0319831681179093556040519116919082907f8be0079c531659141344cd1fd0a4f28419497f9722a3daafe3b4186f6b6457e090600090a35050565b6000908152600260205260409020546001600160a01b0316151590565b6000818152600c6020526040808220805467ffffffffffffffff60481b1916600160481b426001600160401b031602179055516818dbdb5c1b195d195960ba1b918391600080516020615c6a8339815191529190a350565b6001600160a01b0382166141a45760405162461bcd60e51b815260206004820181905260248201527f4552433732313a206d696e7420746f20746865207a65726f20616464726573736044820152606401610d45565b6141ad816140d9565b156141f95760405162461bcd60e51b815260206004820152601c60248201527b115490cdcc8c4e881d1bdad95b88185b1c9958591e481b5a5b9d195960221b6044820152606401610d45565b6001600160a01b0382166000908152600360205260408120805460019290614222908490615a8f565b909155505060008181526002602052604080822080546001600160a01b0319166001600160a01b03861690811790915590518392907fddf252ad1be2c89b69c2b068fc378daa952ba7f163c4a11628f55a4df523b3ef908290a45050565b6000817f000000000000000000000000000000000000000000000000000000000000000081101580156142bd57506013546001600160f81b031681105b6142d95760405162461bcd60e51b8152600401610d45906157ff565b6000838152600c6020526040902054600160481b90046001600160401b03168015808061431157506224ea0061430f8342615929565b105b95945050505050565b600080805b60208160ff161015614379576000868260ff166020811061434257614342615725565b1a90508015801590614357575060808160ff16105b15614370578560ff168160ff1603614370578260010192505b5060010161431f565b8360ff168260ff1614925050509392505050565b60006001600160e01b031982166380ac58cd60e01b14806143be57506001600160e01b03198216635b5e139f60e01b145b806113d657506301ffc9a760e01b6001600160e01b03198316146113d6565b601354600160f81b900460ff1661275b57601380546001600160f81b0316600160f81b179055604051733732bba83937b532b1ba39a337b93134b23232b760611b90600080516020615c4a83398151915290600090a2565b61443e816140d9565b6114615760405162461bcd60e51b8152600401610d4590615865565b600081815260046020526040902080546001600160a01b0319166001600160a01b038416908117909155819061448f826124e2565b6001600160a01b03167f8c5be1e5ebec7d5bd14f71427d1e84f3dd0314c0f7b2291e5b200ac8c7c3b92560405160405180910390a45050565b600f80546001600160a01b0319166001600160a01b0383161790556040517b617274626c6f636b735072696d61727953616c65734164647265737360201b90600080516020615c4a83398151915290600090a250565b601461452a828261566c565b506040516d64656661756c744261736555524960901b90600080516020615c4a83398151915290600090a250565b600080614564836124e2565b9050806001600160a01b0316846001600160a01b0316148061458b575061458b8185613f0d565b80611b5e5750836001600160a01b03166145a4846114f6565b6001600160a01b031614949350505050565b826001600160a01b03166145c9826124e2565b6001600160a01b03161461462d5760405162461bcd60e51b815260206004820152602560248201527f4552433732313a207472616e736665722066726f6d20696e636f72726563742060448201526437bbb732b960d91b6064820152608401610d45565b6001600160a01b03821661468f5760405162461bcd60e51b8152602060048201526024808201527f4552433732313a207472616e7366657220746f20746865207a65726f206164646044820152637265737360e01b6064820152608401610d45565b61469a60008261445a565b6001600160a01b03831660009081526003602052604081208054600192906146c3908490615929565b90915550506001600160a01b03821660009081526003602052604081208054600192906146f1908490615a8f565b909155505060008181526002602052604080822080546001600160a01b0319166001600160a01b0386811691821790925591518493918716917fddf252ad1be2c89b69c2b068fc378daa952ba7f163c4a11628f55a4df523b3ef91a4505050565b601080546001600160a01b0319166001600160a01b0383161790556040517f617274626c6f636b735365636f6e6461727953616c657341646472657373000090600080516020615c4a83398151915290600090a250565b600980546001600160a01b0383166001600160a01b03199182168117909255600a805460018101825560009182527fc65a7bb8d6351c1cf70c95a316cc6a92839c986682d98bc35f958f4883f9d2a801805490921690921790556040517072616e646f6d697a65724164647265737360781b91600080516020615c4a83398151915291a250565b33614839612b09565b6001600160a01b03161461275b5760405162461bcd60e51b815260206004820181905260248201527f4f776e61626c653a2063616c6c6572206973206e6f7420746865206f776e65726044820152606401610d45565b614897614830565b61275b6000614cd3565b6060813b60688110806148b2575080155b156148ff5760405162461bcd60e51b815260206004820152601d60248201527f436f6e7472616374417353746f726167653a2052656164204572726f720000006044820152606401610d45565b604080516028198301601f19168101909152606719820180825290925080606860208501863c5050919050565b816001600160a01b0316836001600160a01b0316036149895760405162461bcd60e51b815260206004820152601960248201527822a9219b99189d1030b8383937bb32903a379031b0b63632b960391b6044820152606401610d45565b6001600160a01b03838116600081815260056020908152604080832094871680845294825291829020805460ff191686151590811790915591519182527f17307eab39ab6107e8899845ad3d59bd9653f200f220920489ca2b5937696c31910160405180910390a3505050565b6000803083604051602001614a0c929190615aa2565b60405160208183030381529060405290508051602082016000f091506001600160a01b038216613abe5760405162461bcd60e51b815260206004820152601e60248201527f436f6e7472616374417353746f726167653a205772697465204572726f7200006044820152606401610d45565b6000816001600160a01b0316604051614aa2906001600160f81b0319815260010190565b6000604051808303816000865af19150503d8060008114614adf576040519150601f19603f3d011682016040523d82523d6000602084013e614ae4565b606091505b50509050806130355760405162461bcd60e51b815260206004820152601f60248201527f436f6e7472616374417353746f726167653a2044656c657465204572726f72006044820152606401610d45565b614b408484846145b6565b614b4c84848484614cfe565b6136765760405162461bcd60e51b8152600401610d4590615b6a565b606081600003614b8f5750506040805180820190915260018152600360fc1b602082015290565b8160005b8115614bb95780614ba381615751565b9150614bb29050600a83615780565b9150614b93565b6000816001600160401b03811115614bd357614bd3614faf565b6040519080825280601f01601f191660200182016040528015614bfd576020820181803683370190505b5090505b8415611b5e57614c12600183615929565b9150614c1f600a86615bbc565b614c2a906030615a8f565b60f81b818381518110614c3f57614c3f615725565b60200101906001600160f81b031916908160001a905350614c61600a86615780565b9450614c01565b606060005b828160ff1660208110614c8257614c82615725565b1a60f81b6001600160f81b03191615801590614ca1575060208160ff16105b15614cb85780614cb081615bd0565b915050614c6d565b60405191506040820160405280825282602083015250919050565b614cdc81614087565b600b80546001600160a01b0319166001600160a01b0392909216919091179055565b60006001600160a01b0384163b15614df457604051630a85bd0160e11b81526001600160a01b0385169063150b7a0290614d42903390899088908890600401615bef565b6020604051808303816000875af1925050508015614d7d575060408051601f3d908101601f19168201909252614d7a91810190615c2c565b60015b614dda573d808015614dab576040519150601f19603f3d011682016040523d82523d6000602084013e614db0565b606091505b508051600003614dd25760405162461bcd60e51b8152600401610d4590615b6a565b805181602001fd5b6001600160e01b031916630a85bd0160e11b149050611b5e565b506001949350505050565b60008060408385031215614e1257600080fd5b50508035926020909101359150565b6001600160a01b038116811461146157600080fd5b600080600060608486031215614e4b57600080fd5b8335614e5681614e21565b9250602084013591506040840135614e6d81614e21565b809150509250925092565b60008060408385031215614e8b57600080fd5b82359150602083013562ffffff81168114614ea557600080fd5b809150509250929050565b6001600160e01b03198116811461146157600080fd5b600060208284031215614ed857600080fd5b8135614ee381614eb0565b9392505050565b60005b83811015614f05578181015183820152602001614eed565b50506000910152565b60008151808452614f26816020860160208601614eea565b601f01601f19169290920160200192915050565b602081526000614ee36020830184614f0e565b600060208284031215614f5f57600080fd5b5035919050565b60008060408385031215614f7957600080fd5b8235614f8481614e21565b946020939093013593505050565b600060208284031215614fa457600080fd5b8135614ee381614e21565b634e487b7160e01b600052604160045260246000fd5b60006001600160401b0380841115614fdf57614fdf614faf565b604051601f8501601f19908116603f0116810190828211818310171561500757615007614faf565b8160405280935085815286868601111561502057600080fd5b858560208301376000602087830101525050509392505050565b600082601f83011261504b57600080fd5b614ee383833560208501614fc5565b6000806040838503121561506d57600080fd5b8235915060208301356001600160401b0381111561508a57600080fd5b6150968582860161503a565b9150509250929050565b6000602082840312156150b257600080fd5b81356001600160401b038111156150c857600080fd5b611b5e8482850161503a565b6000806000606084860312156150e957600080fd5b83356150f481614e21565b9250602084013561510481614e21565b91506040840135614e6d81614eb0565b60008060006060848603121561512957600080fd5b833561513481614e21565b9250602084013561514481614e21565b929592945050506040919091013590565b60008060008060008060c0878903121561516e57600080fd5b86359550602087013561518081614e21565b9450604087013561519081614e21565b93506060870135925060808701356151a781614e21565b8092505060a087013590509295509295509295565b600080604083850312156151cf57600080fd5b823591506020830135614ea581614e21565b60a0815260006151f460a0830188614f0e565b82810360208401526152068188614f0e565b9050828103604084015261521a8187614f0e565b9050828103606084015261522e8186614f0e565b905082810360808401526152428185614f0e565b98975050505050505050565b801515811461146157600080fd5b6000806040838503121561526f57600080fd5b823561527a81614e21565b91506020830135614ea58161524e565b60008060006060848603121561529f57600080fd5b833592506020840135915060408401356001600160401b038111156152c357600080fd5b6152cf8682870161503a565b9150509250925092565b600080600080608085870312156152ef57600080fd5b84356152fa81614e21565b9350602085013561530a81614e21565b92506040850135915060608501356001600160401b0381111561532c57600080fd5b8501601f8101871361533d57600080fd5b61534c87823560208401614fc5565b91505092959194509250565b604080825283519082018190526000906020906060840190828701845b8281101561539a5781516001600160a01b031684529284019290840190600101615375565b5050508381038285015284518082528583019183019060005b818110156153cf578351835292840192918401916001016153b3565b5090979650505050505050565b600080604083850312156153ef57600080fd5b82356001600160401b0381111561540557600080fd5b6154118582860161503a565b9250506020830135614ea581614e21565b6000806040838503121561543557600080fd5b823561544081614e21565b91506020830135614ea581614e21565b6060815260006154636060830186614f0e565b82810360208401526154758186614f0e565b915050826040830152949350505050565b602080825260179082015276151bdad95b88125108191bd95cc81b9bdd08195e1a5cdd604a1b604082015260600190565b6020808252600b908201526a13db9b1e48185c9d1a5cdd60aa1b604082015260600190565b60208082526010908201526f13db9b1e481a59881d5b9b1bd8dad95960821b604082015260600190565b6020808252818101527f4f6e6c7920617274697374206f722041646d696e2041434c20616c6c6f776564604082015260600190565b60208082526016908201527513db9b1e4810591b5a5b881050d308185b1b1bddd95960521b604082015260600190565b600181811c9082168061557f57607f821691505b602082108103613abe57634e487b7160e01b600052602260045260246000fd5b6020808252601b908201527a4d75737420696e707574206e6f6e2d7a65726f206164647265737360281b604082015260600190565b6020808252601b908201527a4d75737420696e707574206e6f6e2d656d70747920737472696e6760281b604082015260600190565b601f82111561162d57600081815260208120601f850160051c810160208610156156305750805b601f850160051c820191505b8181101561564f5782815560010161563c565b505050505050565b600019600383901b1c191660019190911b1790565b81516001600160401b0381111561568557615685614faf565b61569981615693845461556b565b84615609565b602080601f8311600181146156c857600084156156b65750858301515b6156c08582615657565b86555061564f565b600085815260208120601f198616915b828110156156f7578886015182559484019460019091019084016156d8565b50858210156157155787850151600019600388901b60f8161c191681555b5050505050600190811b01905550565b634e487b7160e01b600052603260045260246000fd5b634e487b7160e01b600052601160045260246000fd5b6000600182016157635761576361573b565b5060010190565b634e487b7160e01b600052601260045260246000fd5b60008261578f5761578f61576a565b500490565b6000602082840312156157a657600080fd5b8151614ee38161524e565b6020808252602e908201527f4552433732313a2063616c6c6572206973206e6f7420746f6b656e206f776e6560408201526d1c881b9bdc88185c1c1c9bdd995960921b606082015260800190565b602080825260199082015278141c9bda9958dd08125108191bd95cc81b9bdd08195e1a5cdd603a1b604082015260600190565b6001600160a01b039586168152938516602085015260408401929092529092166060820152608081019190915260a00190565b602080825260189082015277115490cdcc8c4e881a5b9d985b1a59081d1bdad95b88125160421b604082015260600190565b60208082526038908201527f4f6e6c792041646d696e2041434c20616c6c6f7765642c206f722061727469736040820152771d081a59881bdddb995c881a185cc81c995b9bdd5b98d95960421b606082015260800190565b80820281158282048414176113d6576113d661573b565b62ffffff8181168382160190808211156159225761592261573b565b5092915050565b818103818111156113d6576113d661573b565b6000815161594e818560208601614eea565b9290920192915050565b6000835161596a818460208801614eea565b83519083019061597e818360208801614eea565b01949350505050565b818103615992575050565b61599c825461556b565b6001600160401b038111156159b3576159b3614faf565b6159c181615693845461556b565b6000601f8211600181146159ef57600083156159dd5750848201545b6159e78482615657565b855550611292565b600085815260209020601f19841690600086815260209020845b83811015615a295782860154825560019586019590910190602001615a09565b50858310156157155793015460001960f8600387901b161c19169092555050600190811b01905550565b6001600160f81b038181168382160190808211156159225761592261573b565b62ffffff8281168282160390808211156159225761592261573b565b808201808211156113d6576113d661573b565b6a600b5981380380925939f360a81b81526b1808181218000e5800144cc560a21b600b8201526330082bff60e11b60178201526416d8004d8560da1b601b82015263300cabff60e11b6020820152635b60003560e01b6024820152617fff60f01b6028820152600060488201819052600560fa1b6049830152633021abff60e11b604a830152645b600051ff60d81b604e830152615b476053830160008152600c0190565b615b5d818660601b6001600160601b0319169052565b614311601482018561593c565b60208082526032908201527f4552433732313a207472616e7366657220746f206e6f6e20455243373231526560408201527131b2b4bb32b91034b6b83632b6b2b73a32b960711b606082015260800190565b600082615bcb57615bcb61576a565b500690565b600060ff821660ff8103615be657615be661573b565b60010192915050565b6001600160a01b0385811682528416602082015260408101839052608060608201819052600090615c2290830184614f0e565b9695505050505050565b600060208284031215615c3e57600080fd5b8151614ee381614eb056fe8b810f233ce7ee6e962ab4d98bf0277751de1f5589de3dcc812ac2047994d009b96a30340e86d03ce4be42f94ac02d7b27b4a4cdae942beb69026718dfe66afca2646970667358221220c210cc2a40068b643f858150282e827b08a67737835e7fa6035a3a9c64ee58c464736f6c634300081100338b810f233ce7ee6e962ab4d98bf0277751de1f5589de3dcc812ac2047994d009",
  "linkReferences": {},
  "deployedLinkReferences": {}
}