{
  "_format": "hh-sol-artifact-1",
  "contractName": "GenArt721FilteredMinterETHAuction",
  "sourceName": "contracts/minter-suite/GenArt721FilteredMinterETHAuction.sol",
  "abi": [
    {
      "inputs": [
        {
          "internalType": "address",
          "name": "_genArt721Address",
          "type": "address"
        },
        {
          "internalType": "address",
          "name": "_minterFilter",
          "type": "address"
        }
      ],
      "stateMutability": "nonpayable",
      "type": "constructor"
    },
    {
      "anonymous": false,
      "inputs": [
        {
          "indexed": false,
          "internalType": "uint256",
          "name": "_minimumAuctionLengthSeconds",
          "type": "uint256"
        }
      ],
      "name": "MinimumAuctionLengthSecondsUpdated",
      "type": "event"
    },
    {
      "anonymous": false,
      "inputs": [
        {
          "indexed": true,
          "internalType": "uint256",
          "name": "_projectId",
          "type": "uint256"
        },
        {
          "indexed": true,
          "internalType": "uint256",
          "name": "_pricePerTokenInWei",
          "type": "uint256"
        }
      ],
      "name": "PricePerTokenInWeiUpdated",
      "type": "event"
    },
    {
      "anonymous": false,
      "inputs": [
        {
          "indexed": true,
          "internalType": "uint256",
          "name": "_projectId",
          "type": "uint256"
        },
        {
          "indexed": true,
          "internalType": "string",
          "name": "_currencySymbol",
          "type": "string"
        },
        {
          "indexed": true,
          "internalType": "address",
          "name": "_currencyAddress",
          "type": "address"
        }
      ],
      "name": "ProjectCurrencyInfoUpdated",
      "type": "event"
    },
    {
      "anonymous": false,
      "inputs": [
        {
          "indexed": true,
          "internalType": "uint256",
          "name": "_projectId",
          "type": "uint256"
        },
        {
          "indexed": false,
          "internalType": "bool",
          "name": "_purchaseToDisabled",
          "type": "bool"
        }
      ],
      "name": "PurchaseToDisabledUpdated",
      "type": "event"
    },
    {
      "anonymous": false,
      "inputs": [
        {
          "indexed": true,
          "internalType": "uint256",
          "name": "projectId",
          "type": "uint256"
        },
        {
          "indexed": false,
          "internalType": "uint256",
          "name": "_auctionTimestampStart",
          "type": "uint256"
        },
        {
          "indexed": false,
          "internalType": "uint256",
          "name": "_auctionTimestampEnd",
          "type": "uint256"
        },
        {
          "indexed": false,
          "internalType": "uint256",
          "name": "_startPrice",
          "type": "uint256"
        },
        {
          "indexed": false,
          "internalType": "uint256",
          "name": "_basePrice",
          "type": "uint256"
        }
      ],
      "name": "SetAuctionDetails",
      "type": "event"
    },
    {
      "inputs": [],
      "name": "artblocksContract",
      "outputs": [
        {
          "internalType": "contract IGenArt721CoreContract",
          "name": "",
          "type": "address"
        }
      ],
      "stateMutability": "view",
      "type": "function"
    },
    {
      "inputs": [
        {
          "internalType": "uint256",
          "name": "_projectId",
          "type": "uint256"
        }
      ],
      "name": "auctionTimeRemaining",
      "outputs": [
        {
          "internalType": "uint256",
          "name": "",
          "type": "uint256"
        }
      ],
      "stateMutability": "view",
      "type": "function"
    },
    {
      "inputs": [
        {
          "internalType": "uint256",
          "name": "",
          "type": "uint256"
        }
      ],
      "name": "contractMintable",
      "outputs": [
        {
          "internalType": "bool",
          "name": "",
          "type": "bool"
        }
      ],
      "stateMutability": "view",
      "type": "function"
    },
    {
      "inputs": [
        {
          "internalType": "uint256",
          "name": "_projectId",
          "type": "uint256"
        }
      ],
      "name": "getPriceInfo",
      "outputs": [
        {
          "internalType": "bool",
          "name": "isConfigured",
          "type": "bool"
        },
        {
          "internalType": "uint256",
          "name": "tokenPriceInWei",
          "type": "uint256"
        },
        {
          "internalType": "string",
          "name": "currencySymbol",
          "type": "string"
        },
        {
          "internalType": "address",
          "name": "currencyAddress",
          "type": "address"
        }
      ],
      "stateMutability": "view",
      "type": "function"
    },
    {
      "inputs": [
        {
          "internalType": "uint256",
          "name": "_projectId",
          "type": "uint256"
        }
      ],
      "name": "isAuctionLive",
      "outputs": [
        {
          "internalType": "bool",
          "name": "",
          "type": "bool"
        }
      ],
      "stateMutability": "view",
      "type": "function"
    },
    {
      "inputs": [],
      "name": "minimumAuctionLengthSeconds",
      "outputs": [
        {
          "internalType": "uint256",
          "name": "",
          "type": "uint256"
        }
      ],
      "stateMutability": "view",
      "type": "function"
    },
    {
      "inputs": [],
      "name": "minterFilter",
      "outputs": [
        {
          "internalType": "contract IMinterFilter",
          "name": "",
          "type": "address"
        }
      ],
      "stateMutability": "view",
      "type": "function"
    },
    {
      "inputs": [],
      "name": "minterType",
      "outputs": [
        {
          "internalType": "string",
          "name": "",
          "type": "string"
        }
      ],
      "stateMutability": "view",
      "type": "function"
    },
    {
      "inputs": [
        {
          "internalType": "uint256",
          "name": "",
          "type": "uint256"
        }
      ],
      "name": "projectAuctionParameters",
      "outputs": [
        {
          "internalType": "uint256",
          "name": "timestampStart",
          "type": "uint256"
        },
        {
          "internalType": "uint256",
          "name": "timestampEnd",
          "type": "uint256"
        },
        {
          "internalType": "uint256",
          "name": "startPrice",
          "type": "uint256"
        },
        {
          "internalType": "uint256",
          "name": "basePrice",
          "type": "uint256"
        }
      ],
      "stateMutability": "view",
      "type": "function"
    },
    {
      "inputs": [
        {
          "internalType": "uint256",
          "name": "",
          "type": "uint256"
        }
      ],
      "name": "projectMaxHasBeenInvoked",
      "outputs": [
        {
          "internalType": "bool",
          "name": "",
          "type": "bool"
        }
      ],
      "stateMutability": "view",
      "type": "function"
    },
    {
      "inputs": [
        {
          "internalType": "uint256",
          "name": "",
          "type": "uint256"
        }
      ],
      "name": "projectMaxInvocations",
      "outputs": [
        {
          "internalType": "uint256",
          "name": "",
          "type": "uint256"
        }
      ],
      "stateMutability": "view",
      "type": "function"
    },
    {
      "inputs": [
        {
          "internalType": "address",
          "name": "",
          "type": "address"
        },
        {
          "internalType": "uint256",
          "name": "",
          "type": "uint256"
        }
      ],
      "name": "projectMintCounter",
      "outputs": [
        {
          "internalType": "uint256",
          "name": "",
          "type": "uint256"
        }
      ],
      "stateMutability": "view",
      "type": "function"
    },
    {
      "inputs": [
        {
          "internalType": "uint256",
          "name": "",
          "type": "uint256"
        }
      ],
      "name": "projectMintLimit",
      "outputs": [
        {
          "internalType": "uint256",
          "name": "",
          "type": "uint256"
        }
      ],
      "stateMutability": "view",
      "type": "function"
    },
    {
      "inputs": [
        {
          "internalType": "uint256",
          "name": "_projectId",
          "type": "uint256"
        }
      ],
      "name": "purchase",
      "outputs": [
        {
          "internalType": "uint256",
          "name": "tokenId",
          "type": "uint256"
        }
      ],
      "stateMutability": "payable",
      "type": "function"
    },
    {
      "inputs": [
        {
          "internalType": "address",
          "name": "_to",
          "type": "address"
        },
        {
          "internalType": "uint256",
          "name": "_projectId",
          "type": "uint256"
        }
      ],
      "name": "purchaseTo",
      "outputs": [
        {
          "internalType": "uint256",
          "name": "tokenId",
          "type": "uint256"
        }
      ],
      "stateMutability": "payable",
      "type": "function"
    },
    {
      "inputs": [
        {
          "internalType": "uint256",
          "name": "",
          "type": "uint256"
        }
      ],
      "name": "purchaseToDisabled",
      "outputs": [
        {
          "internalType": "bool",
          "name": "",
          "type": "bool"
        }
      ],
      "stateMutability": "view",
      "type": "function"
    },
    {
      "inputs": [
        {
          "internalType": "uint256",
          "name": "_projectId",
          "type": "uint256"
        },
        {
          "internalType": "uint256",
          "name": "_auctionTimestampStart",
          "type": "uint256"
        },
        {
          "internalType": "uint256",
          "name": "_auctionTimestampEnd",
          "type": "uint256"
        },
        {
          "internalType": "uint256",
          "name": "_startPrice",
          "type": "uint256"
        },
        {
          "internalType": "uint256",
          "name": "_basePrice",
          "type": "uint256"
        }
      ],
      "name": "setAuctionDetails",
      "outputs": [],
      "stateMutability": "nonpayable",
      "type": "function"
    },
    {
      "inputs": [
        {
          "internalType": "uint256",
          "name": "_minimumAuctionLengthSeconds",
          "type": "uint256"
        }
      ],
      "name": "setMinimumAuctionLengthSeconds",
      "outputs": [],
      "stateMutability": "nonpayable",
      "type": "function"
    },
    {
      "inputs": [
        {
          "internalType": "uint256",
          "name": "_projectId",
          "type": "uint256"
        }
      ],
      "name": "setProjectMaxInvocations",
      "outputs": [],
      "stateMutability": "nonpayable",
      "type": "function"
    },
    {
      "inputs": [
        {
          "internalType": "uint256",
          "name": "_projectId",
          "type": "uint256"
        },
        {
          "internalType": "uint8",
          "name": "_limit",
          "type": "uint8"
        }
      ],
      "name": "setProjectMintLimit",
      "outputs": [],
      "stateMutability": "nonpayable",
      "type": "function"
    },
    {
      "inputs": [
        {
          "internalType": "uint256",
          "name": "_projectId",
          "type": "uint256"
        }
      ],
      "name": "toggleContractMintable",
      "outputs": [],
      "stateMutability": "nonpayable",
      "type": "function"
    },
    {
      "inputs": [
        {
          "internalType": "uint256",
          "name": "_projectId",
          "type": "uint256"
        }
      ],
      "name": "togglePurchaseToDisabled",
      "outputs": [],
      "stateMutability": "nonpayable",
      "type": "function"
    }
  ],
  "bytecode": "0x6080604052610e106008553480156200001757600080fd5b5060405162001d1938038062001d198339810160408190526200003a916200015c565b600080546001600160a01b03199081166001600160a01b0385811691821784556001805490931690851690811790925560408051630dcd404b60e01b815290519193630dcd404b926004808401936020939083900390910190829087803b158015620000a557600080fd5b505af1158015620000ba573d6000803e3d6000fd5b505050506040513d601f19601f82011682018060405250810190620000e091906200019b565b6001600160a01b0316146200013b5760405162461bcd60e51b815260206004820152601860248201527f496c6c6567616c20636f6e74726163742070616972696e670000000000000000604482015260640160405180910390fd5b5050620001c2565b6001600160a01b03811681146200015957600080fd5b50565b600080604083850312156200017057600080fd5b82516200017d8162000143565b6020840151909250620001908162000143565b809150509250929050565b600060208284031215620001ae57600080fd5b8151620001bb8162000143565b9392505050565b611b4780620001d26000396000f3fe6080604052600436106101355760003560e01c8063891407c0116100ab578063c9008b431161006f578063c9008b43146103fd578063cd379f6e1461041d578063cfff5cf11461043d578063e9d1e8ac1461046d578063efef39a11461048f578063f7bd4b88146104a257600080fd5b8063891407c0146103645780639e85741914610377578063acffea0514610397578063b2d30ac7146103b7578063bee56003146103cd57600080fd5b80633a4657b4116100fd5780633a4657b41461023457806340d1397e1461027a578063462add461461029a57806356690aaf146102da57806362f7a7ed14610307578063774159c61461033457600080fd5b806308d941881461013a5780630dcd404b14610170578063231c2281146101905780632f077ee6146101b25780632fc37ef114610214575b600080fd5b34801561014657600080fd5b5060015461015a906001600160a01b031681565b60405161016791906116d2565b60405180910390f35b34801561017c57600080fd5b5060005461015a906001600160a01b031681565b34801561019c57600080fd5b506101b06101ab3660046116e6565b6104c2565b005b3480156101be57600080fd5b506101f46101cd36600461171c565b60096020526000908152604090208054600182015460028301546003909301549192909184565b604080519485526020850193909352918301526060820152608001610167565b34801561022057600080fd5b506101b061022f36600461171c565b61057f565b34801561024057600080fd5b5061026c61024f36600461174d565b600460209081526000928352604080842090915290825290205481565b604051908152602001610167565b34801561028657600080fd5b506101b061029536600461171c565b610656565b3480156102a657600080fd5b506102ca6102b536600461171c565b60066020526000908152604090205460ff1681565b6040519015158152602001610167565b3480156102e657600080fd5b5061026c6102f536600461171c565b60076020526000908152604090205481565b34801561031357600080fd5b5061026c61032236600461171c565b60056020526000908152604090205481565b34801561034057600080fd5b5061035461034f36600461171c565b61074f565b60405161016794939291906117d5565b61026c61037236600461174d565b6107c9565b34801561038357600080fd5b5061026c61039236600461171c565b610b00565b3480156103a357600080fd5b506101b06103b236600461171c565b610baa565b3480156103c357600080fd5b5061026c60085481565b3480156103d957600080fd5b506102ca6103e836600461171c565b60026020526000908152604090205460ff1681565b34801561040957600080fd5b506102ca61041836600461171c565b610c66565b34801561042957600080fd5b506101b061043836600461180f565b610cb6565b34801561044957600080fd5b506102ca61045836600461171c565b60036020526000908152604090205460ff1681565b34801561047957600080fd5b5061048261100f565b604051610167919061184a565b61026c61049d36600461171c565b61102b565b3480156104ae57600080fd5b506101b06104bd36600461171c565b61103d565b600054604051633af32abf60e01b81526001600160a01b0390911690633af32abf906104f29033906004016116d2565b60206040518083038186803b15801561050a57600080fd5b505afa15801561051e573d6000803e3d6000fd5b505050506040513d601f19601f820116820180604052508101906105429190611872565b6105675760405162461bcd60e51b815260040161055e9061188d565b60405180910390fd5b60009182526005602052604090912060ff9091169055565b600054604051633af32abf60e01b81526001600160a01b0390911690633af32abf906105af9033906004016116d2565b60206040518083038186803b1580156105c757600080fd5b505afa1580156105db573d6000803e3d6000fd5b505050506040513d601f19601f820116820180604052508101906105ff9190611872565b61061b5760405162461bcd60e51b815260040161055e9061188d565b60088190556040518181527f03c81e81b0ed0ca5444a9d70c9f3d1c78d79d6a31419f77736e886d092ed1a9e9060200160405180910390a150565b600054604051633af32abf60e01b81526001600160a01b0390911690633af32abf906106869033906004016116d2565b60206040518083038186803b15801561069e57600080fd5b505afa1580156106b2573d6000803e3d6000fd5b505050506040513d601f19601f820116820180604052508101906106d69190611872565b6106f25760405162461bcd60e51b815260040161055e9061188d565b600081815260036020908152604091829020805460ff8082161560ff199092168217909255925192161515825282917fce8ced1e9d6979c7589d3c8786f4d51a8034faa5ff2cbc5a2271364f787feccb910160405180910390a250565b6000818152600960209081526040808320815160808101835281548152600182015493810193909352600281015491830182905260030154606083810191909152901515929182906107a08661119c565b60408051808201909152600381526208aa8960eb1b602082015295979096506000945092505050565b60008181526006602052604081205460ff16156108365760405162461bcd60e51b815260206004820152602560248201527f4d6178696d756d206e756d626572206f6620696e766f636174696f6e732072656044820152641858da195960da1b606482015260840161055e565b60008281526002602052604090205460ff1661088e5733321461088e5760405162461bcd60e51b815260206004820152601060248201526f4e6f20436f6e7472616374204275797360801b604482015260640161055e565b60008281526003602052604090205460ff16156108f757336001600160a01b038416146108f75760405162461bcd60e51b8152602060048201526017602482015276139bc8181c1d5c98da185cd9551bd808105b1b1bddd959604a1b604482015260640161055e565b60006109028361119c565b9050803410156109545760405162461bcd60e51b815260206004820181905260248201527f4d7573742073656e64206d696e696d756d2076616c756520746f206d696e7421604482015260640161055e565b600083815260056020526040902054156109ff576000838152600560209081526040808320543384526004835281842087855290925290912054106109d35760405162461bcd60e51b815260206004820152601560248201527414995858da1959081b5a5b9d1a5b99c81b1a5b5a5d605a1b604482015260640161055e565b33600090815260046020908152604080832086845290915281208054916109f9836118d2565b91905055505b610a098382611270565b600154604051630d4d151360e01b81526001600160a01b0386811660048301526024820186905233604483015290911690630d4d151390606401602060405180830381600087803b158015610a5d57600080fd5b505af1158015610a71573d6000803e3d6000fd5b505050506040513d601f19601f82011682018060405250810190610a9591906118ed565b60008481526007602052604090205490925015801590610ada5750600083815260076020526040902054610acb90600190611906565b610ad8620f424084611933565b145b15610af9576000838152600660205260409020805460ff191660011790555b5092915050565b6000818152600960209081526040808320815160808101835281548152600182015493810193909352600281015491830191909152600301546060820152610b4783610c66565b610b935760405162461bcd60e51b815260206004820152601d60248201527f61756374696f6e206973206e6f742063757272656e746c79206c697665000000604482015260640161055e565b428160200151610ba39190611906565b9392505050565b600054604051633af32abf60e01b81526001600160a01b0390911690633af32abf90610bda9033906004016116d2565b60206040518083038186803b158015610bf257600080fd5b505afa158015610c06573d6000803e3d6000fd5b505050506040513d601f19601f82011682018060405250810190610c2a9190611872565b610c465760405162461bcd60e51b815260040161055e9061188d565b6000908152600260205260409020805460ff19811660ff90911615179055565b600081815260096020908152604080832081516080810183528154815260018201549381018490526002820154928101929092526003015460608201529042108015610ba3575051421192915050565b600054604051633af32abf60e01b815286916001600160a01b031690633af32abf90610ce69033906004016116d2565b60206040518083038186803b158015610cfe57600080fd5b505afa158015610d12573d6000803e3d6000fd5b505050506040513d601f19601f82011682018060405250810190610d369190611872565b80610dcd575060005460405163a47d29cb60e01b8152600481018390526001600160a01b039091169063a47d29cb9060240160206040518083038186803b158015610d8057600080fd5b505afa158015610d94573d6000803e3d6000fd5b505050506040513d601f19601f82011682018060405250810190610db89190611947565b6001600160a01b0316336001600160a01b0316145b610e195760405162461bcd60e51b815260206004820152601f60248201527f4f6e6c7920436f72652077686974656c6973746564206f722041727469737400604482015260640161055e565b848411610e7f5760405162461bcd60e51b815260206004820152602e60248201527f41756374696f6e20656e64206d7573742062652067726561746572207468616e60448201526d08185d58dd1a5bdb881cdd185c9d60921b606482015260840161055e565b600854610e8c9086611964565b841015610f015760405162461bcd60e51b815260206004820152603b60248201527f41756374696f6e206c656e677468206d757374206265206174206c656173742060448201527f6d696e696d756d41756374696f6e4c656e6774685365636f6e64730000000000606482015260840161055e565b818311610f765760405162461bcd60e51b815260206004820152603a60248201527f41756374696f6e207374617274207072696365206d757374206265206772656160448201527f746572207468616e2061756374696f6e20656e64207072696365000000000000606482015260840161055e565b60408051608080820183528782526020808301888152838501888152606080860189815260008e8152600986528890209651875592516001870155905160028601559051600390940193909355835189815290810188905292830186905290820184905287917f38b3058b75696f9e45bffa9c4b237adcde13d74c7bc1bea63e13c712d0776c74910160405180910390a2505050505050565b604051806060016040528060218152602001611af16021913981565b600061103733836107c9565b92915050565b600054604051633af32abf60e01b81526001600160a01b0390911690633af32abf9061106d9033906004016116d2565b60206040518083038186803b15801561108557600080fd5b505afa158015611099573d6000803e3d6000fd5b505050506040513d601f19601f820116820180604052508101906110bd9190611872565b6110d95760405162461bcd60e51b815260040161055e9061188d565b600080546040516346161b1160e11b81526004810184905282916001600160a01b031690638c2c36229060240160006040518083038186803b15801561111e57600080fd5b505afa158015611132573d6000803e3d6000fd5b505050506040513d6000823e601f3d908101601f1916820160405261115a919081019061199d565b50505060008981526007602052604090208390555090955090935050505081811015611197576000838152600660205260409020805460ff191690555b505050565b6000818152600960209081526040808320815160808101835281548082526001830154948201949094526002820154928101929092526003015460608201529042116111ec576040015192915050565b80602001514210611201576060015192915050565b80516000906112109042611906565b90506000826000015183602001516112289190611906565b90506000836060015184604001516112409190611906565b90508161124d8285611abd565b6112579190611adc565b84604001516112669190611906565b9695505050505050565b34156116ce5760006112828234611906565b905080156112b957604051339082156108fc029083906000818181858888f193505050501580156112b7573d6000803e3d6000fd5b505b60008060009054906101000a90046001600160a01b03166001600160a01b0316634f029c396040518163ffffffff1660e01b815260040160206040518083038186803b15801561130857600080fd5b505afa15801561131c573d6000803e3d6000fd5b505050506040513d601f19601f8201168201806040525081019061134091906118ed565b61134b606485611adc565b6113559190611abd565b9050801561141b5760008054906101000a90046001600160a01b03166001600160a01b0316633949f9066040518163ffffffff1660e01b815260040160206040518083038186803b1580156113a957600080fd5b505afa1580156113bd573d6000803e3d6000fd5b505050506040513d601f19601f820116820180604052508101906113e19190611947565b6001600160a01b03166108fc829081150290604051600060405180830381858888f19350505050158015611419573d6000803e3d6000fd5b505b60006114278285611906565b6000805460405163cc74234b60e01b815260048101899052929350909182916001600160a01b03169063cc74234b9060240160206040518083038186803b15801561147157600080fd5b505afa158015611485573d6000803e3d6000fd5b505050506040513d601f19601f820116820180604052508101906114a991906118ed565b11156115fe5760005460405163cc74234b60e01b8152600481018890526001600160a01b039091169063cc74234b9060240160206040518083038186803b1580156114f357600080fd5b505afa158015611507573d6000803e3d6000fd5b505050506040513d601f19601f8201168201806040525081019061152b91906118ed565b611536606484611adc565b6115409190611abd565b905080156115fe57600054604051636bd8225b60e11b8152600481018890526001600160a01b039091169063d7b044b69060240160206040518083038186803b15801561158c57600080fd5b505afa1580156115a0573d6000803e3d6000fd5b505050506040513d601f19601f820116820180604052508101906115c49190611947565b6001600160a01b03166108fc829081150290604051600060405180830381858888f193505050501580156115fc573d6000803e3d6000fd5b505b600061160a8284611906565b905080156116c85760005460405163a47d29cb60e01b8152600481018990526001600160a01b039091169063a47d29cb9060240160206040518083038186803b15801561165657600080fd5b505afa15801561166a573d6000803e3d6000fd5b505050506040513d601f19601f8201168201806040525081019061168e9190611947565b6001600160a01b03166108fc829081150290604051600060405180830381858888f193505050501580156116c6573d6000803e3d6000fd5b505b50505050505b5050565b6001600160a01b0391909116815260200190565b600080604083850312156116f957600080fd5b82359150602083013560ff8116811461171157600080fd5b809150509250929050565b60006020828403121561172e57600080fd5b5035919050565b6001600160a01b038116811461174a57600080fd5b50565b6000806040838503121561176057600080fd5b823561176b81611735565b946020939093013593505050565b60005b8381101561179457818101518382015260200161177c565b838111156117a3576000848401525b50505050565b600081518084526117c1816020860160208601611779565b601f01601f19169290920160200192915050565b84151581528360208201526080604082015260006117f660808301856117a9565b905060018060a01b038316606083015295945050505050565b600080600080600060a0868803121561182757600080fd5b505083359560208501359550604085013594606081013594506080013592509050565b602081526000610ba360208301846117a9565b8051801515811461186d57600080fd5b919050565b60006020828403121561188457600080fd5b610ba38261185d565b60208082526015908201527413db9b1e4810dbdc99481dda1a5d195b1a5cdd1959605a1b604082015260600190565b634e487b7160e01b600052601160045260246000fd5b60006000198214156118e6576118e66118bc565b5060010190565b6000602082840312156118ff57600080fd5b5051919050565b600082821015611918576119186118bc565b500390565b634e487b7160e01b600052601260045260246000fd5b6000826119425761194261191d565b500690565b60006020828403121561195957600080fd5b8151610ba381611735565b60008219821115611977576119776118bc565b500190565b805161186d81611735565b634e487b7160e01b600052604160045260246000fd5b60008060008060008060008060006101208a8c0312156119bc57600080fd5b89516119c781611735565b8099505060208a0151975060408a0151965060608a015195506119ec60808b0161185d565b945060a08a01516119fc81611735565b60c08b015160e08c0151919550935067ffffffffffffffff80821115611a2157600080fd5b818c0191508c601f830112611a3557600080fd5b815181811115611a4757611a47611987565b604051601f8201601f19908116603f01168101908382118183101715611a6f57611a6f611987565b816040528281528f6020848701011115611a8857600080fd5b611a99836020830160208801611779565b8096505050505050611aae6101008b0161197c565b90509295985092959850929598565b6000816000190483118215151615611ad757611ad76118bc565b500290565b600082611aeb57611aeb61191d565b50049056fe47656e41727437323146696c74657265644d696e74657245544841756374696f6ea2646970667358221220b980de535caac81ce948508d84fc12e0c09d59754971667eb6652dbdfb3b895264736f6c63430008090033",
  "linkReferences": {},
  "deployedLinkReferences": {}
}