{
  "_format": "hh-sol-artifact-1",
  "contractName": "GenArt721FilteredMinterETH",
  "sourceName": "contracts/minter-suite/GenArt721FilteredMinterETH.sol",
  "abi": [
    {
      "inputs": [
        {
          "internalType": "address",
          "name": "_genArt721Address",
          "type": "address"
        },
        {
          "internalType": "address",
          "name": "_minterFilter",
          "type": "address"
        }
      ],
      "stateMutability": "nonpayable",
      "type": "constructor"
    },
    {
      "anonymous": false,
      "inputs": [
        {
          "indexed": true,
          "internalType": "uint256",
          "name": "_projectId",
          "type": "uint256"
        },
        {
          "indexed": false,
          "internalType": "bool",
          "name": "_purchaseToDisabled",
          "type": "bool"
        }
      ],
      "name": "PurchaseToDisabledUpdated",
      "type": "event"
    },
    {
      "inputs": [],
      "name": "artblocksContract",
      "outputs": [
        {
          "internalType": "contract IGenArt721CoreContract",
          "name": "",
          "type": "address"
        }
      ],
      "stateMutability": "view",
      "type": "function"
    },
    {
      "inputs": [
        {
          "internalType": "uint256",
          "name": "",
          "type": "uint256"
        }
      ],
      "name": "contractMintable",
      "outputs": [
        {
          "internalType": "bool",
          "name": "",
          "type": "bool"
        }
      ],
      "stateMutability": "view",
      "type": "function"
    },
    {
      "inputs": [],
      "name": "minterFilter",
      "outputs": [
        {
          "internalType": "contract IMinterFilter",
          "name": "",
          "type": "address"
        }
      ],
      "stateMutability": "view",
      "type": "function"
    },
    {
      "inputs": [],
      "name": "minterType",
      "outputs": [
        {
          "internalType": "string",
          "name": "",
          "type": "string"
        }
      ],
      "stateMutability": "view",
      "type": "function"
    },
    {
      "inputs": [
        {
          "internalType": "uint256",
          "name": "",
          "type": "uint256"
        }
      ],
      "name": "projectMaxHasBeenInvoked",
      "outputs": [
        {
          "internalType": "bool",
          "name": "",
          "type": "bool"
        }
      ],
      "stateMutability": "view",
      "type": "function"
    },
    {
      "inputs": [
        {
          "internalType": "uint256",
          "name": "",
          "type": "uint256"
        }
      ],
      "name": "projectMaxInvocations",
      "outputs": [
        {
          "internalType": "uint256",
          "name": "",
          "type": "uint256"
        }
      ],
      "stateMutability": "view",
      "type": "function"
    },
    {
      "inputs": [
        {
          "internalType": "address",
          "name": "",
          "type": "address"
        },
        {
          "internalType": "uint256",
          "name": "",
          "type": "uint256"
        }
      ],
      "name": "projectMintCounter",
      "outputs": [
        {
          "internalType": "uint256",
          "name": "",
          "type": "uint256"
        }
      ],
      "stateMutability": "view",
      "type": "function"
    },
    {
      "inputs": [
        {
          "internalType": "uint256",
          "name": "",
          "type": "uint256"
        }
      ],
      "name": "projectMintLimit",
      "outputs": [
        {
          "internalType": "uint256",
          "name": "",
          "type": "uint256"
        }
      ],
      "stateMutability": "view",
      "type": "function"
    },
    {
      "inputs": [
        {
          "internalType": "uint256",
          "name": "_projectId",
          "type": "uint256"
        }
      ],
      "name": "purchase",
      "outputs": [
        {
          "internalType": "uint256",
          "name": "tokenId",
          "type": "uint256"
        }
      ],
      "stateMutability": "payable",
      "type": "function"
    },
    {
      "inputs": [
        {
          "internalType": "address",
          "name": "_to",
          "type": "address"
        },
        {
          "internalType": "uint256",
          "name": "_projectId",
          "type": "uint256"
        }
      ],
      "name": "purchaseTo",
      "outputs": [
        {
          "internalType": "uint256",
          "name": "tokenId",
          "type": "uint256"
        }
      ],
      "stateMutability": "payable",
      "type": "function"
    },
    {
      "inputs": [
        {
          "internalType": "uint256",
          "name": "",
          "type": "uint256"
        }
      ],
      "name": "purchaseToDisabled",
      "outputs": [
        {
          "internalType": "bool",
          "name": "",
          "type": "bool"
        }
      ],
      "stateMutability": "view",
      "type": "function"
    },
    {
      "inputs": [
        {
          "internalType": "uint256",
          "name": "_projectId",
          "type": "uint256"
        }
      ],
      "name": "setProjectMaxInvocations",
      "outputs": [],
      "stateMutability": "nonpayable",
      "type": "function"
    },
    {
      "inputs": [
        {
          "internalType": "uint256",
          "name": "_projectId",
          "type": "uint256"
        },
        {
          "internalType": "uint8",
          "name": "_limit",
          "type": "uint8"
        }
      ],
      "name": "setProjectMintLimit",
      "outputs": [],
      "stateMutability": "nonpayable",
      "type": "function"
    },
    {
      "inputs": [
        {
          "internalType": "uint256",
          "name": "_projectId",
          "type": "uint256"
        }
      ],
      "name": "toggleContractMintable",
      "outputs": [],
      "stateMutability": "nonpayable",
      "type": "function"
    },
    {
      "inputs": [
        {
          "internalType": "uint256",
          "name": "_projectId",
          "type": "uint256"
        }
      ],
      "name": "togglePurchaseToDisabled",
      "outputs": [],
      "stateMutability": "nonpayable",
      "type": "function"
    }
  ],
  "bytecode": "0x608060405234801561001057600080fd5b506040516115c43803806115c483398101604081905261002f9161007c565b600080546001600160a01b039384166001600160a01b031991821617909155600180549290931691161790556100af565b80516001600160a01b038116811461007757600080fd5b919050565b6000806040838503121561008f57600080fd5b61009883610060565b91506100a660208401610060565b90509250929050565b611506806100be6000396000f3fe6080604052600436106100c85760003560e01c806362f7a7ed1161007a57806362f7a7ed14610218578063891407c014610245578063acffea0514610258578063bee5600314610278578063cfff5cf1146102a8578063e9d1e8ac146102d8578063efef39a11461032e578063f7bd4b881461034157600080fd5b806308d94188146100cd5780630dcd404b14610103578063231c2281146101235780633a4657b41461014557806340d1397e1461018b578063462add46146101ab57806356690aaf146101eb575b600080fd5b3480156100d957600080fd5b506001546100ed906001600160a01b031681565b6040516100fa91906110df565b60405180910390f35b34801561010f57600080fd5b506000546100ed906001600160a01b031681565b34801561012f57600080fd5b5061014361013e3660046110f3565b610361565b005b34801561015157600080fd5b5061017d61016036600461113e565b600460209081526000928352604080842090915290825290205481565b6040519081526020016100fa565b34801561019757600080fd5b506101436101a636600461116a565b61041e565b3480156101b757600080fd5b506101db6101c636600461116a565b60066020526000908152604090205460ff1681565b60405190151581526020016100fa565b3480156101f757600080fd5b5061017d61020636600461116a565b60076020526000908152604090205481565b34801561022457600080fd5b5061017d61023336600461116a565b60056020526000908152604090205481565b61017d61025336600461113e565b610517565b34801561026457600080fd5b5061014361027336600461116a565b6109d7565b34801561028457600080fd5b506101db61029336600461116a565b60026020526000908152604090205460ff1681565b3480156102b457600080fd5b506101db6102c336600461116a565b60036020526000908152604090205460ff1681565b3480156102e457600080fd5b506103216040518060400160405280601a81526020017f47656e41727437323146696c74657265644d696e74657245544800000000000081525081565b6040516100fa91906111b3565b61017d61033c36600461116a565b610a93565b34801561034d57600080fd5b5061014361035c36600461116a565b610a9f565b600054604051633af32abf60e01b81526001600160a01b0390911690633af32abf906103919033906004016110df565b60206040518083038186803b1580156103a957600080fd5b505afa1580156103bd573d6000803e3d6000fd5b505050506040513d601f19601f820116820180604052508101906103e191906111fb565b6104065760405162461bcd60e51b81526004016103fd9061121d565b60405180910390fd5b60009182526005602052604090912060ff9091169055565b600054604051633af32abf60e01b81526001600160a01b0390911690633af32abf9061044e9033906004016110df565b60206040518083038186803b15801561046657600080fd5b505afa15801561047a573d6000803e3d6000fd5b505050506040513d601f19601f8201168201806040525081019061049e91906111fb565b6104ba5760405162461bcd60e51b81526004016103fd9061121d565b600081815260036020908152604091829020805460ff8082161560ff199092168217909255925192161515825282917fce8ced1e9d6979c7589d3c8786f4d51a8034faa5ff2cbc5a2271364f787feccb910160405180910390a250565b60008181526006602052604081205460ff16156105845760405162461bcd60e51b815260206004820152602560248201527f4d6178696d756d206e756d626572206f6620696e766f636174696f6e732072656044820152641858da195960da1b60648201526084016103fd565b60008281526002602052604090205460ff166105dc573332146105dc5760405162461bcd60e51b815260206004820152601060248201526f4e6f20436f6e7472616374204275797360801b60448201526064016103fd565b60008281526003602052604090205460ff161561064557336001600160a01b038416146106455760405162461bcd60e51b8152602060048201526017602482015276139bc8181c1d5c98da185cd9551bd808105b1b1bddd959604a1b60448201526064016103fd565b6040516208aa8960eb1b602082015260230160408051808303601f190181529082905280516020909101206000546320927ec960e01b83526004830185905290916001600160a01b03909116906320927ec99060240160006040518083038186803b1580156106b357600080fd5b505afa1580156106c7573d6000803e3d6000fd5b505050506040513d6000823e601f3d908101601f191682016040526106ef91908101906112ea565b6040516020016106ff9190611327565b60405160208183030381529060405280519060200120146107625760405162461bcd60e51b815260206004820152601c60248201527f50726f6a6563742063757272656e6379206d757374206265204554480000000060448201526064016103fd565b600054604051633dc303c160e21b8152600481018490526001600160a01b039091169063f70c0f049060240160206040518083038186803b1580156107a657600080fd5b505afa1580156107ba573d6000803e3d6000fd5b505050506040513d601f19601f820116820180604052508101906107de9190611343565b34101561082d5760405162461bcd60e51b815260206004820181905260248201527f4d7573742073656e64206d696e696d756d2076616c756520746f206d696e742160448201526064016103fd565b600082815260056020526040902054156108d8576000828152600560209081526040808320543384526004835281842086855290925290912054106108ac5760405162461bcd60e51b815260206004820152601560248201527414995858da1959081b5a5b9d1a5b99c81b1a5b5a5d605a1b60448201526064016103fd565b33600090815260046020908152604080832085845290915281208054916108d283611372565b91905055505b6108e182610bfe565b600154604051630d4d151360e01b81526001600160a01b0385811660048301526024820185905233604483015290911690630d4d151390606401602060405180830381600087803b15801561093557600080fd5b505af1158015610949573d6000803e3d6000fd5b505050506040513d601f19601f8201168201806040525081019061096d9190611343565b600083815260076020526040902054909150158015906109b257506000828152600760205260409020546109a39060019061138d565b6109b0620f4240836113ba565b145b156109d1576000828152600660205260409020805460ff191660011790555b92915050565b600054604051633af32abf60e01b81526001600160a01b0390911690633af32abf90610a079033906004016110df565b60206040518083038186803b158015610a1f57600080fd5b505afa158015610a33573d6000803e3d6000fd5b505050506040513d601f19601f82011682018060405250810190610a5791906111fb565b610a735760405162461bcd60e51b81526004016103fd9061121d565b6000908152600260205260409020805460ff19811660ff90911615179055565b60006109d13383610517565b600054604051633af32abf60e01b81526001600160a01b0390911690633af32abf90610acf9033906004016110df565b60206040518083038186803b158015610ae757600080fd5b505afa158015610afb573d6000803e3d6000fd5b505050506040513d601f19601f82011682018060405250810190610b1f91906111fb565b610b3b5760405162461bcd60e51b81526004016103fd9061121d565b600080546040516346161b1160e11b81526004810184905282916001600160a01b031690638c2c36229060240160006040518083038186803b158015610b8057600080fd5b505afa158015610b94573d6000803e3d6000fd5b505050506040513d6000823e601f3d908101601f19168201604052610bbc91908101906113ce565b50505060008981526007602052604090208390555090955090935050505081811015610bf9576000838152600660205260409020805460ff191690555b505050565b34156110dc5760008054604051633dc303c160e21b8152600481018490526001600160a01b039091169063f70c0f049060240160206040518083038186803b158015610c4957600080fd5b505afa158015610c5d573d6000803e3d6000fd5b505050506040513d601f19601f82011682018060405250810190610c819190611343565b90506000610c8f823461138d565b90508015610cc657604051339082156108fc029083906000818181858888f19350505050158015610cc4573d6000803e3d6000fd5b505b60008060009054906101000a90046001600160a01b03166001600160a01b0316634f029c396040518163ffffffff1660e01b815260040160206040518083038186803b158015610d1557600080fd5b505afa158015610d29573d6000803e3d6000fd5b505050506040513d601f19601f82011682018060405250810190610d4d9190611343565b610d58606485611480565b610d629190611494565b90508015610e285760008054906101000a90046001600160a01b03166001600160a01b0316633949f9066040518163ffffffff1660e01b815260040160206040518083038186803b158015610db657600080fd5b505afa158015610dca573d6000803e3d6000fd5b505050506040513d601f19601f82011682018060405250810190610dee91906114b3565b6001600160a01b03166108fc829081150290604051600060405180830381858888f19350505050158015610e26573d6000803e3d6000fd5b505b6000610e34828561138d565b6000805460405163cc74234b60e01b815260048101899052929350909182916001600160a01b03169063cc74234b9060240160206040518083038186803b158015610e7e57600080fd5b505afa158015610e92573d6000803e3d6000fd5b505050506040513d601f19601f82011682018060405250810190610eb69190611343565b111561100b5760005460405163cc74234b60e01b8152600481018890526001600160a01b039091169063cc74234b9060240160206040518083038186803b158015610f0057600080fd5b505afa158015610f14573d6000803e3d6000fd5b505050506040513d601f19601f82011682018060405250810190610f389190611343565b610f43606484611480565b610f4d9190611494565b9050801561100b57600054604051636bd8225b60e11b8152600481018890526001600160a01b039091169063d7b044b69060240160206040518083038186803b158015610f9957600080fd5b505afa158015610fad573d6000803e3d6000fd5b505050506040513d601f19601f82011682018060405250810190610fd191906114b3565b6001600160a01b03166108fc829081150290604051600060405180830381858888f19350505050158015611009573d6000803e3d6000fd5b505b6000611017828461138d565b905080156110d55760005460405163a47d29cb60e01b8152600481018990526001600160a01b039091169063a47d29cb9060240160206040518083038186803b15801561106357600080fd5b505afa158015611077573d6000803e3d6000fd5b505050506040513d601f19601f8201168201806040525081019061109b91906114b3565b6001600160a01b03166108fc829081150290604051600060405180830381858888f193505050501580156110d3573d6000803e3d6000fd5b505b5050505050505b50565b6001600160a01b0391909116815260200190565b6000806040838503121561110657600080fd5b82359150602083013560ff8116811461111e57600080fd5b809150509250929050565b6001600160a01b03811681146110dc57600080fd5b6000806040838503121561115157600080fd5b823561115c81611129565b946020939093013593505050565b60006020828403121561117c57600080fd5b5035919050565b60005b8381101561119e578181015183820152602001611186565b838111156111ad576000848401525b50505050565b60208152600082518060208401526111d2816040850160208701611183565b601f01601f19169190910160400192915050565b805180151581146111f657600080fd5b919050565b60006020828403121561120d57600080fd5b611216826111e6565b9392505050565b60208082526015908201527413db9b1e4810dbdc99481dda1a5d195b1a5cdd1959605a1b604082015260600190565b634e487b7160e01b600052604160045260246000fd5b600082601f83011261127357600080fd5b815167ffffffffffffffff8082111561128e5761128e61124c565b604051601f8301601f19908116603f011681019082821181831017156112b6576112b661124c565b816040528381528660208588010111156112cf57600080fd5b6112e0846020830160208901611183565b9695505050505050565b6000602082840312156112fc57600080fd5b815167ffffffffffffffff81111561131357600080fd5b61131f84828501611262565b949350505050565b60008251611339818460208701611183565b9190910192915050565b60006020828403121561135557600080fd5b5051919050565b634e487b7160e01b600052601160045260246000fd5b60006000198214156113865761138661135c565b5060010190565b60008282101561139f5761139f61135c565b500390565b634e487b7160e01b600052601260045260246000fd5b6000826113c9576113c96113a4565b500690565b60008060008060008060008060006101208a8c0312156113ed57600080fd5b89516113f881611129565b8099505060208a0151975060408a0151965060608a0151955061141d60808b016111e6565b945060a08a015161142d81611129565b60c08b015160e08c0151919550935067ffffffffffffffff81111561145157600080fd5b61145d8c828d01611262565b9250506101008a015161146f81611129565b809150509295985092959850929598565b60008261148f5761148f6113a4565b500490565b60008160001904831182151516156114ae576114ae61135c565b500290565b6000602082840312156114c557600080fd5b81516112168161112956fea2646970667358221220813c2fa78995ebfff2ccd7b63fa3ef86b68bf25b418b5ae1118e3e22abf05b0164736f6c63430008090033",
  "linkReferences": {},
  "deployedLinkReferences": {}
}