{
  "_format": "hh-sol-artifact-1",
  "contractName": "GenArt721CoreV2_PBAB",
  "sourceName": "contracts/GenArt721CoreV2_PBAB.sol",
  "abi": [
    {
      "inputs": [
        {
          "internalType": "string",
          "name": "_tokenName",
          "type": "string"
        },
        {
          "internalType": "string",
          "name": "_tokenSymbol",
          "type": "string"
        },
        {
          "internalType": "address",
          "name": "_randomizerContract",
          "type": "address"
        }
      ],
      "payable": false,
      "stateMutability": "nonpayable",
      "type": "constructor"
    },
    {
      "anonymous": false,
      "inputs": [
        {
          "indexed": true,
          "internalType": "address",
          "name": "owner",
          "type": "address"
        },
        {
          "indexed": true,
          "internalType": "address",
          "name": "approved",
          "type": "address"
        },
        {
          "indexed": true,
          "internalType": "uint256",
          "name": "tokenId",
          "type": "uint256"
        }
      ],
      "name": "Approval",
      "type": "event"
    },
    {
      "anonymous": false,
      "inputs": [
        {
          "indexed": true,
          "internalType": "address",
          "name": "owner",
          "type": "address"
        },
        {
          "indexed": true,
          "internalType": "address",
          "name": "operator",
          "type": "address"
        },
        {
          "indexed": false,
          "internalType": "bool",
          "name": "approved",
          "type": "bool"
        }
      ],
      "name": "ApprovalForAll",
      "type": "event"
    },
    {
      "anonymous": false,
      "inputs": [
        {
          "indexed": true,
          "internalType": "address",
          "name": "_to",
          "type": "address"
        },
        {
          "indexed": true,
          "internalType": "uint256",
          "name": "_tokenId",
          "type": "uint256"
        },
        {
          "indexed": true,
          "internalType": "uint256",
          "name": "_projectId",
          "type": "uint256"
        }
      ],
      "name": "Mint",
      "type": "event"
    },
    {
      "anonymous": false,
      "inputs": [
        {
          "indexed": true,
          "internalType": "address",
          "name": "from",
          "type": "address"
        },
        {
          "indexed": true,
          "internalType": "address",
          "name": "to",
          "type": "address"
        },
        {
          "indexed": true,
          "internalType": "uint256",
          "name": "tokenId",
          "type": "uint256"
        }
      ],
      "name": "Transfer",
      "type": "event"
    },
    {
      "constant": false,
      "inputs": [
        {
          "internalType": "address",
          "name": "_address",
          "type": "address"
        }
      ],
      "name": "addMintWhitelisted",
      "outputs": [],
      "payable": false,
      "stateMutability": "nonpayable",
      "type": "function"
    },
    {
      "constant": false,
      "inputs": [
        {
          "internalType": "string",
          "name": "_projectName",
          "type": "string"
        },
        {
          "internalType": "address",
          "name": "_artistAddress",
          "type": "address"
        },
        {
          "internalType": "uint256",
          "name": "_pricePerTokenInWei",
          "type": "uint256"
        },
        {
          "internalType": "bool",
          "name": "_dynamic",
          "type": "bool"
        }
      ],
      "name": "addProject",
      "outputs": [],
      "payable": false,
      "stateMutability": "nonpayable",
      "type": "function"
    },
    {
      "constant": false,
      "inputs": [
        {
          "internalType": "uint256",
          "name": "_projectId",
          "type": "uint256"
        },
        {
          "internalType": "string",
          "name": "_script",
          "type": "string"
        }
      ],
      "name": "addProjectScript",
      "outputs": [],
      "payable": false,
      "stateMutability": "nonpayable",
      "type": "function"
    },
    {
      "constant": false,
      "inputs": [
        {
          "internalType": "address",
          "name": "_address",
          "type": "address"
        }
      ],
      "name": "addWhitelisted",
      "outputs": [],
      "payable": false,
      "stateMutability": "nonpayable",
      "type": "function"
    },
    {
      "constant": true,
      "inputs": [],
      "name": "admin",
      "outputs": [
        {
          "internalType": "address",
          "name": "",
          "type": "address"
        }
      ],
      "payable": false,
      "stateMutability": "view",
      "type": "function"
    },
    {
      "constant": false,
      "inputs": [
        {
          "internalType": "address",
          "name": "to",
          "type": "address"
        },
        {
          "internalType": "uint256",
          "name": "tokenId",
          "type": "uint256"
        }
      ],
      "name": "approve",
      "outputs": [],
      "payable": false,
      "stateMutability": "nonpayable",
      "type": "function"
    },
    {
      "constant": true,
      "inputs": [
        {
          "internalType": "address",
          "name": "owner",
          "type": "address"
        }
      ],
      "name": "balanceOf",
      "outputs": [
        {
          "internalType": "uint256",
          "name": "",
          "type": "uint256"
        }
      ],
      "payable": false,
      "stateMutability": "view",
      "type": "function"
    },
    {
      "constant": false,
      "inputs": [
        {
          "internalType": "uint256",
          "name": "_tokenId",
          "type": "uint256"
        }
      ],
      "name": "clearTokenIpfsImageUri",
      "outputs": [],
      "payable": false,
      "stateMutability": "nonpayable",
      "type": "function"
    },
    {
      "constant": true,
      "inputs": [
        {
          "internalType": "uint256",
          "name": "tokenId",
          "type": "uint256"
        }
      ],
      "name": "getApproved",
      "outputs": [
        {
          "internalType": "address",
          "name": "",
          "type": "address"
        }
      ],
      "payable": false,
      "stateMutability": "view",
      "type": "function"
    },
    {
      "constant": true,
      "inputs": [
        {
          "internalType": "uint256",
          "name": "_tokenId",
          "type": "uint256"
        }
      ],
      "name": "getRoyaltyData",
      "outputs": [
        {
          "internalType": "address",
          "name": "artistAddress",
          "type": "address"
        },
        {
          "internalType": "address",
          "name": "additionalPayee",
          "type": "address"
        },
        {
          "internalType": "uint256",
          "name": "additionalPayeePercentage",
          "type": "uint256"
        },
        {
          "internalType": "uint256",
          "name": "royaltyFeeByID",
          "type": "uint256"
        }
      ],
      "payable": false,
      "stateMutability": "view",
      "type": "function"
    },
    {
      "constant": true,
      "inputs": [
        {
          "internalType": "bytes32",
          "name": "",
          "type": "bytes32"
        }
      ],
      "name": "hashToTokenId",
      "outputs": [
        {
          "internalType": "uint256",
          "name": "",
          "type": "uint256"
        }
      ],
      "payable": false,
      "stateMutability": "view",
      "type": "function"
    },
    {
      "constant": true,
      "inputs": [
        {
          "internalType": "address",
          "name": "owner",
          "type": "address"
        },
        {
          "internalType": "address",
          "name": "operator",
          "type": "address"
        }
      ],
      "name": "isApprovedForAll",
      "outputs": [
        {
          "internalType": "bool",
          "name": "",
          "type": "bool"
        }
      ],
      "payable": false,
      "stateMutability": "view",
      "type": "function"
    },
    {
      "constant": true,
      "inputs": [
        {
          "internalType": "address",
          "name": "",
          "type": "address"
        }
      ],
      "name": "isMintWhitelisted",
      "outputs": [
        {
          "internalType": "bool",
          "name": "",
          "type": "bool"
        }
      ],
      "payable": false,
      "stateMutability": "view",
      "type": "function"
    },
    {
      "constant": true,
      "inputs": [
        {
          "internalType": "address",
          "name": "",
          "type": "address"
        }
      ],
      "name": "isWhitelisted",
      "outputs": [
        {
          "internalType": "bool",
          "name": "",
          "type": "bool"
        }
      ],
      "payable": false,
      "stateMutability": "view",
      "type": "function"
    },
    {
      "constant": false,
      "inputs": [
        {
          "internalType": "address",
          "name": "_to",
          "type": "address"
        },
        {
          "internalType": "uint256",
          "name": "_projectId",
          "type": "uint256"
        },
        {
          "internalType": "address",
          "name": "_by",
          "type": "address"
        }
      ],
      "name": "mint",
      "outputs": [
        {
          "internalType": "uint256",
          "name": "_tokenId",
          "type": "uint256"
        }
      ],
      "payable": false,
      "stateMutability": "nonpayable",
      "type": "function"
    },
    {
      "constant": true,
      "inputs": [],
      "name": "name",
      "outputs": [
        {
          "internalType": "string",
          "name": "",
          "type": "string"
        }
      ],
      "payable": false,
      "stateMutability": "view",
      "type": "function"
    },
    {
      "constant": true,
      "inputs": [],
      "name": "nextProjectId",
      "outputs": [
        {
          "internalType": "uint256",
          "name": "",
          "type": "uint256"
        }
      ],
      "payable": false,
      "stateMutability": "view",
      "type": "function"
    },
    {
      "constant": false,
      "inputs": [
        {
          "internalType": "uint256",
          "name": "_tokenId",
          "type": "uint256"
        },
        {
          "internalType": "string",
          "name": "_ipfsHash",
          "type": "string"
        }
      ],
      "name": "overrideTokenDynamicImageWithIpfsLink",
      "outputs": [],
      "payable": false,
      "stateMutability": "nonpayable",
      "type": "function"
    },
    {
      "constant": true,
      "inputs": [
        {
          "internalType": "uint256",
          "name": "tokenId",
          "type": "uint256"
        }
      ],
      "name": "ownerOf",
      "outputs": [
        {
          "internalType": "address",
          "name": "",
          "type": "address"
        }
      ],
      "payable": false,
      "stateMutability": "view",
      "type": "function"
    },
    {
      "constant": true,
      "inputs": [
        {
          "internalType": "uint256",
          "name": "_projectId",
          "type": "uint256"
        }
      ],
      "name": "projectDetails",
      "outputs": [
        {
          "internalType": "string",
          "name": "projectName",
          "type": "string"
        },
        {
          "internalType": "string",
          "name": "artist",
          "type": "string"
        },
        {
          "internalType": "string",
          "name": "description",
          "type": "string"
        },
        {
          "internalType": "string",
          "name": "website",
          "type": "string"
        },
        {
          "internalType": "string",
          "name": "license",
          "type": "string"
        },
        {
          "internalType": "bool",
          "name": "dynamic",
          "type": "bool"
        }
      ],
      "payable": false,
      "stateMutability": "view",
      "type": "function"
    },
    {
      "constant": true,
      "inputs": [
        {
          "internalType": "uint256",
          "name": "",
          "type": "uint256"
        }
      ],
      "name": "projectIdToAdditionalPayee",
      "outputs": [
        {
          "internalType": "address",
          "name": "",
          "type": "address"
        }
      ],
      "payable": false,
      "stateMutability": "view",
      "type": "function"
    },
    {
      "constant": true,
      "inputs": [
        {
          "internalType": "uint256",
          "name": "",
          "type": "uint256"
        }
      ],
      "name": "projectIdToAdditionalPayeePercentage",
      "outputs": [
        {
          "internalType": "uint256",
          "name": "",
          "type": "uint256"
        }
      ],
      "payable": false,
      "stateMutability": "view",
      "type": "function"
    },
    {
      "constant": true,
      "inputs": [
        {
          "internalType": "uint256",
          "name": "",
          "type": "uint256"
        }
      ],
      "name": "projectIdToArtistAddress",
      "outputs": [
        {
          "internalType": "address",
          "name": "",
          "type": "address"
        }
      ],
      "payable": false,
      "stateMutability": "view",
      "type": "function"
    },
    {
      "constant": true,
      "inputs": [
        {
          "internalType": "uint256",
          "name": "",
          "type": "uint256"
        }
      ],
      "name": "projectIdToCurrencyAddress",
      "outputs": [
        {
          "internalType": "address",
          "name": "",
          "type": "address"
        }
      ],
      "payable": false,
      "stateMutability": "view",
      "type": "function"
    },
    {
      "constant": true,
      "inputs": [
        {
          "internalType": "uint256",
          "name": "",
          "type": "uint256"
        }
      ],
      "name": "projectIdToCurrencySymbol",
      "outputs": [
        {
          "internalType": "string",
          "name": "",
          "type": "string"
        }
      ],
      "payable": false,
      "stateMutability": "view",
      "type": "function"
    },
    {
      "constant": true,
      "inputs": [
        {
          "internalType": "uint256",
          "name": "",
          "type": "uint256"
        }
      ],
      "name": "projectIdToPricePerTokenInWei",
      "outputs": [
        {
          "internalType": "uint256",
          "name": "",
          "type": "uint256"
        }
      ],
      "payable": false,
      "stateMutability": "view",
      "type": "function"
    },
    {
      "constant": true,
      "inputs": [
        {
          "internalType": "uint256",
          "name": "",
          "type": "uint256"
        }
      ],
      "name": "projectIdToSecondaryMarketRoyaltyPercentage",
      "outputs": [
        {
          "internalType": "uint256",
          "name": "",
          "type": "uint256"
        }
      ],
      "payable": false,
      "stateMutability": "view",
      "type": "function"
    },
    {
      "constant": true,
      "inputs": [
        {
          "internalType": "uint256",
          "name": "_projectId",
          "type": "uint256"
        },
        {
          "internalType": "uint256",
          "name": "_index",
          "type": "uint256"
        }
      ],
      "name": "projectScriptByIndex",
      "outputs": [
        {
          "internalType": "string",
          "name": "",
          "type": "string"
        }
      ],
      "payable": false,
      "stateMutability": "view",
      "type": "function"
    },
    {
      "constant": true,
      "inputs": [
        {
          "internalType": "uint256",
          "name": "_projectId",
          "type": "uint256"
        }
      ],
      "name": "projectScriptInfo",
      "outputs": [
        {
          "internalType": "string",
          "name": "scriptJSON",
          "type": "string"
        },
        {
          "internalType": "uint256",
          "name": "scriptCount",
          "type": "uint256"
        },
        {
          "internalType": "bool",
          "name": "useHashString",
          "type": "bool"
        },
        {
          "internalType": "string",
          "name": "ipfsHash",
          "type": "string"
        },
        {
          "internalType": "bool",
          "name": "locked",
          "type": "bool"
        },
        {
          "internalType": "bool",
          "name": "paused",
          "type": "bool"
        }
      ],
      "payable": false,
      "stateMutability": "view",
      "type": "function"
    },
    {
      "constant": true,
      "inputs": [
        {
          "internalType": "uint256",
          "name": "_projectId",
          "type": "uint256"
        }
      ],
      "name": "projectTokenInfo",
      "outputs": [
        {
          "internalType": "address",
          "name": "artistAddress",
          "type": "address"
        },
        {
          "internalType": "uint256",
          "name": "pricePerTokenInWei",
          "type": "uint256"
        },
        {
          "internalType": "uint256",
          "name": "invocations",
          "type": "uint256"
        },
        {
          "internalType": "uint256",
          "name": "maxInvocations",
          "type": "uint256"
        },
        {
          "internalType": "bool",
          "name": "active",
          "type": "bool"
        },
        {
          "internalType": "address",
          "name": "additionalPayee",
          "type": "address"
        },
        {
          "internalType": "uint256",
          "name": "additionalPayeePercentage",
          "type": "uint256"
        },
        {
          "internalType": "string",
          "name": "currency",
          "type": "string"
        },
        {
          "internalType": "address",
          "name": "currencyAddress",
          "type": "address"
        }
      ],
      "payable": false,
      "stateMutability": "view",
      "type": "function"
    },
    {
      "constant": true,
      "inputs": [
        {
          "internalType": "uint256",
          "name": "_projectId",
          "type": "uint256"
        }
      ],
      "name": "projectURIInfo",
      "outputs": [
        {
          "internalType": "string",
          "name": "projectBaseURI",
          "type": "string"
        },
        {
          "internalType": "string",
          "name": "projectBaseIpfsURI",
          "type": "string"
        },
        {
          "internalType": "bool",
          "name": "useIpfs",
          "type": "bool"
        }
      ],
      "payable": false,
      "stateMutability": "view",
      "type": "function"
    },
    {
      "constant": true,
      "inputs": [],
      "name": "randomizerContract",
      "outputs": [
        {
          "internalType": "contract IRandomizer",
          "name": "",
          "type": "address"
        }
      ],
      "payable": false,
      "stateMutability": "view",
      "type": "function"
    },
    {
      "constant": false,
      "inputs": [
        {
          "internalType": "address",
          "name": "_address",
          "type": "address"
        }
      ],
      "name": "removeMintWhitelisted",
      "outputs": [],
      "payable": false,
      "stateMutability": "nonpayable",
      "type": "function"
    },
    {
      "constant": false,
      "inputs": [
        {
          "internalType": "uint256",
          "name": "_projectId",
          "type": "uint256"
        }
      ],
      "name": "removeProjectLastScript",
      "outputs": [],
      "payable": false,
      "stateMutability": "nonpayable",
      "type": "function"
    },
    {
      "constant": false,
      "inputs": [
        {
          "internalType": "address",
          "name": "_address",
          "type": "address"
        }
      ],
      "name": "removeWhitelisted",
      "outputs": [],
      "payable": false,
      "stateMutability": "nonpayable",
      "type": "function"
    },
    {
      "constant": true,
      "inputs": [],
      "name": "renderProviderAddress",
      "outputs": [
        {
          "internalType": "address",
          "name": "",
          "type": "address"
        }
      ],
      "payable": false,
      "stateMutability": "view",
      "type": "function"
    },
    {
      "constant": true,
      "inputs": [],
      "name": "renderProviderPercentage",
      "outputs": [
        {
          "internalType": "uint256",
          "name": "",
          "type": "uint256"
        }
      ],
      "payable": false,
      "stateMutability": "view",
      "type": "function"
    },
    {
      "constant": false,
      "inputs": [
        {
          "internalType": "address",
          "name": "from",
          "type": "address"
        },
        {
          "internalType": "address",
          "name": "to",
          "type": "address"
        },
        {
          "internalType": "uint256",
          "name": "tokenId",
          "type": "uint256"
        }
      ],
      "name": "safeTransferFrom",
      "outputs": [],
      "payable": false,
      "stateMutability": "nonpayable",
      "type": "function"
    },
    {
      "constant": false,
      "inputs": [
        {
          "internalType": "address",
          "name": "from",
          "type": "address"
        },
        {
          "internalType": "address",
          "name": "to",
          "type": "address"
        },
        {
          "internalType": "uint256",
          "name": "tokenId",
          "type": "uint256"
        },
        {
          "internalType": "bytes",
          "name": "_data",
          "type": "bytes"
        }
      ],
      "name": "safeTransferFrom",
      "outputs": [],
      "payable": false,
      "stateMutability": "nonpayable",
      "type": "function"
    },
    {
      "constant": false,
      "inputs": [
        {
          "internalType": "address",
          "name": "to",
          "type": "address"
        },
        {
          "internalType": "bool",
          "name": "approved",
          "type": "bool"
        }
      ],
      "name": "setApprovalForAll",
      "outputs": [],
      "payable": false,
      "stateMutability": "nonpayable",
      "type": "function"
    },
    {
      "constant": true,
      "inputs": [
        {
          "internalType": "uint256",
          "name": "",
          "type": "uint256"
        }
      ],
      "name": "staticIpfsImageLink",
      "outputs": [
        {
          "internalType": "string",
          "name": "",
          "type": "string"
        }
      ],
      "payable": false,
      "stateMutability": "view",
      "type": "function"
    },
    {
      "constant": true,
      "inputs": [
        {
          "internalType": "bytes4",
          "name": "interfaceId",
          "type": "bytes4"
        }
      ],
      "name": "supportsInterface",
      "outputs": [
        {
          "internalType": "bool",
          "name": "",
          "type": "bool"
        }
      ],
      "payable": false,
      "stateMutability": "view",
      "type": "function"
    },
    {
      "constant": true,
      "inputs": [],
      "name": "symbol",
      "outputs": [
        {
          "internalType": "string",
          "name": "",
          "type": "string"
        }
      ],
      "payable": false,
      "stateMutability": "view",
      "type": "function"
    },
    {
      "constant": false,
      "inputs": [
        {
          "internalType": "uint256",
          "name": "_projectId",
          "type": "uint256"
        }
      ],
      "name": "toggleProjectIsActive",
      "outputs": [],
      "payable": false,
      "stateMutability": "nonpayable",
      "type": "function"
    },
    {
      "constant": false,
      "inputs": [
        {
          "internalType": "uint256",
          "name": "_projectId",
          "type": "uint256"
        }
      ],
      "name": "toggleProjectIsDynamic",
      "outputs": [],
      "payable": false,
      "stateMutability": "nonpayable",
      "type": "function"
    },
    {
      "constant": false,
      "inputs": [
        {
          "internalType": "uint256",
          "name": "_projectId",
          "type": "uint256"
        }
      ],
      "name": "toggleProjectIsLocked",
      "outputs": [],
      "payable": false,
      "stateMutability": "nonpayable",
      "type": "function"
    },
    {
      "constant": false,
      "inputs": [
        {
          "internalType": "uint256",
          "name": "_projectId",
          "type": "uint256"
        }
      ],
      "name": "toggleProjectIsPaused",
      "outputs": [],
      "payable": false,
      "stateMutability": "nonpayable",
      "type": "function"
    },
    {
      "constant": false,
      "inputs": [
        {
          "internalType": "uint256",
          "name": "_projectId",
          "type": "uint256"
        }
      ],
      "name": "toggleProjectUseHashString",
      "outputs": [],
      "payable": false,
      "stateMutability": "nonpayable",
      "type": "function"
    },
    {
      "constant": false,
      "inputs": [
        {
          "internalType": "uint256",
          "name": "_projectId",
          "type": "uint256"
        }
      ],
      "name": "toggleProjectUseIpfsForStatic",
      "outputs": [],
      "payable": false,
      "stateMutability": "nonpayable",
      "type": "function"
    },
    {
      "constant": true,
      "inputs": [
        {
          "internalType": "uint256",
          "name": "index",
          "type": "uint256"
        }
      ],
      "name": "tokenByIndex",
      "outputs": [
        {
          "internalType": "uint256",
          "name": "",
          "type": "uint256"
        }
      ],
      "payable": false,
      "stateMutability": "view",
      "type": "function"
    },
    {
      "constant": true,
      "inputs": [
        {
          "internalType": "uint256",
          "name": "",
          "type": "uint256"
        }
      ],
      "name": "tokenIdToHash",
      "outputs": [
        {
          "internalType": "bytes32",
          "name": "",
          "type": "bytes32"
        }
      ],
      "payable": false,
      "stateMutability": "view",
      "type": "function"
    },
    {
      "constant": true,
      "inputs": [
        {
          "internalType": "uint256",
          "name": "",
          "type": "uint256"
        }
      ],
      "name": "tokenIdToProjectId",
      "outputs": [
        {
          "internalType": "uint256",
          "name": "",
          "type": "uint256"
        }
      ],
      "payable": false,
      "stateMutability": "view",
      "type": "function"
    },
    {
      "constant": true,
      "inputs": [
        {
          "internalType": "address",
          "name": "owner",
          "type": "address"
        },
        {
          "internalType": "uint256",
          "name": "index",
          "type": "uint256"
        }
      ],
      "name": "tokenOfOwnerByIndex",
      "outputs": [
        {
          "internalType": "uint256",
          "name": "",
          "type": "uint256"
        }
      ],
      "payable": false,
      "stateMutability": "view",
      "type": "function"
    },
    {
      "constant": true,
      "inputs": [
        {
          "internalType": "uint256",
          "name": "_tokenId",
          "type": "uint256"
        }
      ],
      "name": "tokenURI",
      "outputs": [
        {
          "internalType": "string",
          "name": "",
          "type": "string"
        }
      ],
      "payable": false,
      "stateMutability": "view",
      "type": "function"
    },
    {
      "constant": true,
      "inputs": [
        {
          "internalType": "address",
          "name": "owner",
          "type": "address"
        }
      ],
      "name": "tokensOfOwner",
      "outputs": [
        {
          "internalType": "uint256[]",
          "name": "",
          "type": "uint256[]"
        }
      ],
      "payable": false,
      "stateMutability": "view",
      "type": "function"
    },
    {
      "constant": true,
      "inputs": [],
      "name": "totalSupply",
      "outputs": [
        {
          "internalType": "uint256",
          "name": "",
          "type": "uint256"
        }
      ],
      "payable": false,
      "stateMutability": "view",
      "type": "function"
    },
    {
      "constant": false,
      "inputs": [
        {
          "internalType": "address",
          "name": "from",
          "type": "address"
        },
        {
          "internalType": "address",
          "name": "to",
          "type": "address"
        },
        {
          "internalType": "uint256",
          "name": "tokenId",
          "type": "uint256"
        }
      ],
      "name": "transferFrom",
      "outputs": [],
      "payable": false,
      "stateMutability": "nonpayable",
      "type": "function"
    },
    {
      "constant": false,
      "inputs": [
        {
          "internalType": "address",
          "name": "_adminAddress",
          "type": "address"
        }
      ],
      "name": "updateAdmin",
      "outputs": [],
      "payable": false,
      "stateMutability": "nonpayable",
      "type": "function"
    },
    {
      "constant": false,
      "inputs": [
        {
          "internalType": "uint256",
          "name": "_projectId",
          "type": "uint256"
        },
        {
          "internalType": "address",
          "name": "_additionalPayee",
          "type": "address"
        },
        {
          "internalType": "uint256",
          "name": "_additionalPayeePercentage",
          "type": "uint256"
        }
      ],
      "name": "updateProjectAdditionalPayeeInfo",
      "outputs": [],
      "payable": false,
      "stateMutability": "nonpayable",
      "type": "function"
    },
    {
      "constant": false,
      "inputs": [
        {
          "internalType": "uint256",
          "name": "_projectId",
          "type": "uint256"
        },
        {
          "internalType": "address",
          "name": "_artistAddress",
          "type": "address"
        }
      ],
      "name": "updateProjectArtistAddress",
      "outputs": [],
      "payable": false,
      "stateMutability": "nonpayable",
      "type": "function"
    },
    {
      "constant": false,
      "inputs": [
        {
          "internalType": "uint256",
          "name": "_projectId",
          "type": "uint256"
        },
        {
          "internalType": "string",
          "name": "_projectArtistName",
          "type": "string"
        }
      ],
      "name": "updateProjectArtistName",
      "outputs": [],
      "payable": false,
      "stateMutability": "nonpayable",
      "type": "function"
    },
    {
      "constant": false,
      "inputs": [
        {
          "internalType": "uint256",
          "name": "_projectId",
          "type": "uint256"
        },
        {
          "internalType": "string",
          "name": "_projectBaseIpfsURI",
          "type": "string"
        }
      ],
      "name": "updateProjectBaseIpfsURI",
      "outputs": [],
      "payable": false,
      "stateMutability": "nonpayable",
      "type": "function"
    },
    {
      "constant": false,
      "inputs": [
        {
          "internalType": "uint256",
          "name": "_projectId",
          "type": "uint256"
        },
        {
          "internalType": "string",
          "name": "_newBaseURI",
          "type": "string"
        }
      ],
      "name": "updateProjectBaseURI",
      "outputs": [],
      "payable": false,
      "stateMutability": "nonpayable",
      "type": "function"
    },
    {
      "constant": false,
      "inputs": [
        {
          "internalType": "uint256",
          "name": "_projectId",
          "type": "uint256"
        },
        {
          "internalType": "string",
          "name": "_currencySymbol",
          "type": "string"
        },
        {
          "internalType": "address",
          "name": "_currencyAddress",
          "type": "address"
        }
      ],
      "name": "updateProjectCurrencyInfo",
      "outputs": [],
      "payable": false,
      "stateMutability": "nonpayable",
      "type": "function"
    },
    {
      "constant": false,
      "inputs": [
        {
          "internalType": "uint256",
          "name": "_projectId",
          "type": "uint256"
        },
        {
          "internalType": "string",
          "name": "_projectDescription",
          "type": "string"
        }
      ],
      "name": "updateProjectDescription",
      "outputs": [],
      "payable": false,
      "stateMutability": "nonpayable",
      "type": "function"
    },
    {
      "constant": false,
      "inputs": [
        {
          "internalType": "uint256",
          "name": "_projectId",
          "type": "uint256"
        },
        {
          "internalType": "string",
          "name": "_ipfsHash",
          "type": "string"
        }
      ],
      "name": "updateProjectIpfsHash",
      "outputs": [],
      "payable": false,
      "stateMutability": "nonpayable",
      "type": "function"
    },
    {
      "constant": false,
      "inputs": [
        {
          "internalType": "uint256",
          "name": "_projectId",
          "type": "uint256"
        },
        {
          "internalType": "string",
          "name": "_projectLicense",
          "type": "string"
        }
      ],
      "name": "updateProjectLicense",
      "outputs": [],
      "payable": false,
      "stateMutability": "nonpayable",
      "type": "function"
    },
    {
      "constant": false,
      "inputs": [
        {
          "internalType": "uint256",
          "name": "_projectId",
          "type": "uint256"
        },
        {
          "internalType": "uint256",
          "name": "_maxInvocations",
          "type": "uint256"
        }
      ],
      "name": "updateProjectMaxInvocations",
      "outputs": [],
      "payable": false,
      "stateMutability": "nonpayable",
      "type": "function"
    },
    {
      "constant": false,
      "inputs": [
        {
          "internalType": "uint256",
          "name": "_projectId",
          "type": "uint256"
        },
        {
          "internalType": "string",
          "name": "_projectName",
          "type": "string"
        }
      ],
      "name": "updateProjectName",
      "outputs": [],
      "payable": false,
      "stateMutability": "nonpayable",
      "type": "function"
    },
    {
      "constant": false,
      "inputs": [
        {
          "internalType": "uint256",
          "name": "_projectId",
          "type": "uint256"
        },
        {
          "internalType": "uint256",
          "name": "_pricePerTokenInWei",
          "type": "uint256"
        }
      ],
      "name": "updateProjectPricePerTokenInWei",
      "outputs": [],
      "payable": false,
      "stateMutability": "nonpayable",
      "type": "function"
    },
    {
      "constant": false,
      "inputs": [
        {
          "internalType": "uint256",
          "name": "_projectId",
          "type": "uint256"
        },
        {
          "internalType": "uint256",
          "name": "_scriptId",
          "type": "uint256"
        },
        {
          "internalType": "string",
          "name": "_script",
          "type": "string"
        }
      ],
      "name": "updateProjectScript",
      "outputs": [],
      "payable": false,
      "stateMutability": "nonpayable",
      "type": "function"
    },
    {
      "constant": false,
      "inputs": [
        {
          "internalType": "uint256",
          "name": "_projectId",
          "type": "uint256"
        },
        {
          "internalType": "string",
          "name": "_projectScriptJSON",
          "type": "string"
        }
      ],
      "name": "updateProjectScriptJSON",
      "outputs": [],
      "payable": false,
      "stateMutability": "nonpayable",
      "type": "function"
    },
    {
      "constant": false,
      "inputs": [
        {
          "internalType": "uint256",
          "name": "_projectId",
          "type": "uint256"
        },
        {
          "internalType": "uint256",
          "name": "_secondMarketRoyalty",
          "type": "uint256"
        }
      ],
      "name": "updateProjectSecondaryMarketRoyaltyPercentage",
      "outputs": [],
      "payable": false,
      "stateMutability": "nonpayable",
      "type": "function"
    },
    {
      "constant": false,
      "inputs": [
        {
          "internalType": "uint256",
          "name": "_projectId",
          "type": "uint256"
        },
        {
          "internalType": "string",
          "name": "_projectWebsite",
          "type": "string"
        }
      ],
      "name": "updateProjectWebsite",
      "outputs": [],
      "payable": false,
      "stateMutability": "nonpayable",
      "type": "function"
    },
    {
      "constant": false,
      "inputs": [
        {
          "internalType": "address",
          "name": "_randomizerAddress",
          "type": "address"
        }
      ],
      "name": "updateRandomizerAddress",
      "outputs": [],
      "payable": false,
      "stateMutability": "nonpayable",
      "type": "function"
    },
    {
      "constant": false,
      "inputs": [
        {
          "internalType": "address",
          "name": "_renderProviderAddress",
          "type": "address"
        }
      ],
      "name": "updateRenderProviderAddress",
      "outputs": [],
      "payable": false,
      "stateMutability": "nonpayable",
      "type": "function"
    },
    {
      "constant": false,
      "inputs": [
        {
          "internalType": "uint256",
          "name": "_renderProviderPercentage",
          "type": "uint256"
        }
      ],
      "name": "updateRenderProviderPercentage",
      "outputs": [],
      "payable": false,
      "stateMutability": "nonpayable",
      "type": "function"
    }
  ],
  "bytecode": "0x6080604052600a6015556000601d553480156200001b57600080fd5b506040516200631138038062006311833981810160405260608110156200004157600080fd5b81019080805160405193929190846401000000008211156200006257600080fd5b9083019060208201858111156200007857600080fd5b82516401000000008111828201881017156200009357600080fd5b82525081516020918201929091019080838360005b83811015620000c2578181015183820152602001620000a8565b50505050905090810190601f168015620000f05780820380516001836020036101000a031916815260200191505b50604052602001805160405193929190846401000000008211156200011457600080fd5b9083019060208201858111156200012a57600080fd5b82516401000000008111828201881017156200014557600080fd5b82525081516020918201929091019080838360005b83811015620001745781810151838201526020016200015a565b50505050905090810190601f168015620001a25780820380516001836020036101000a031916815260200191505b5060405260200151915083905082620001cb6301ffc9a760e01b6001600160e01b03620002a716565b620001e66380ac58cd60e01b6001600160e01b03620002a716565b6200020163780e9d6360e01b6001600160e01b03620002a716565b8151620002169060099060208501906200032c565b5080516200022c90600a9060208401906200032c565b5062000248635b5e139f60e01b6001600160e01b03620002a716565b5050601a8054336001600160a01b031991821681179092556000828152601b60205260409020805460ff19166001179055601480548216909217909155600b80549091166001600160a01b039290921691909117905550620003d19050565b6001600160e01b0319808216141562000307576040805162461bcd60e51b815260206004820152601c60248201527f4552433136353a20696e76616c696420696e7465726661636520696400000000604482015290519081900360640190fd5b6001600160e01b0319166000908152602081905260409020805460ff19166001179055565b828054600181600116156101000203166002900490600052602060002090601f016020900481019282601f106200036f57805160ff19168380011785556200039f565b828001600101855582156200039f579182015b828111156200039f57825182559160200191906001019062000382565b50620003ad929150620003b1565b5090565b620003ce91905b80821115620003ad5760008155600101620003b8565b90565b615f3080620003e16000396000f3fe608060405234801561001057600080fd5b506004361061042f5760003560e01c80638462151c1161023c578063b88d4fde11610146578063dce5d858116100c3578063e985e9c511610087578063e985e9c514611ba5578063ed8abfda14611bd3578063f51f74a914611bf0578063f70c0f0414611c0d578063f851a44014611c2a5761042f565b8063dce5d85814611a6e578063e13208b414611a8b578063e2f273bd14611abd578063e3f59c4414611ae3578063e935b7b114611b9d5761042f565b8063cfbf4d971161010a578063cfbf4d9714611959578063d03c390c14611961578063d195b3651461197e578063d7b044b614611a34578063db2ff86114611a515761042f565b8063b88d4fde1461178d578063c34a03b514611851578063c6d7323114611874578063c87b56dd1461191f578063cc74234b1461193c5761042f565b806397dc86cf116101d4578063a65ff74c11610198578063a65ff74c14611512578063acad012414611561578063ad0305ce1461160c578063b1656ba314611632578063b7b04fae146116e25761042f565b806397dc86cf146113dc578063a11ec70a146113ff578063a22cb4651461141c578063a3b2cca61461144a578063a47d29cb146114f55761042f565b80638462151c14610ee8578063867f1a3b14610f5e5780638ba8f14d14610f845780638bddb0a614610fa15780638c2c362214610fc75780638c3c9cdd146110ce5780638dd91a56146110f157806393961c661461132957806395d89b41146113d45761042f565b806336c7c12c1161033d5780634f6ccce7116102d55780636b6ec8a6116102995780636b6ec8a614610da85780636bd5d59114610dce5780636c907b7f14610e7957806370a0823114610e9f578063826fc39114610ec55761042f565b80634f6ccce714610d085780635c088dcc14610d25578063621a1f7414610d425780636352211e14610d5f57806369d14faf14610d7c5761042f565b806336c7c12c14610946578063378599631461094e5780633af32abf146109f95780633bdbd5c414610a1f5780633e48e84814610a3c5780633fef6c2a14610ae757806342842e0e14610b92578063498dd0c114610bc85780634aa6d41714610be55761042f565b80631b689c0b116103cb578063279018221161038f57806327901822146107c9578063291d9549146107e65780632d9c02051461080c5780632e9eb74f146109125780632f745c591461091a5761042f565b80631b689c0b1461069157806320927ec9146106ae57806323b872dd146106cb57806325b75d6814610701578063261eb4e5146107ac5761042f565b806301ffc9a71461043457806306fdde031461046f578063081812fc146104ec578063095ea7b3146105255780630d170673146105535780630d4d1513146105fe57806310154bad1461064657806311f5fdf11461066c57806318160ddd14610689575b600080fd5b61045b6004803603602081101561044a57600080fd5b50356001600160e01b031916611c32565b604080519115158252519081900360200190f35b610477611c55565b6040805160208082528351818301528351919283929083019185019080838360005b838110156104b1578181015183820152602001610499565b50505050905090810190601f1680156104de5780820380516001836020036101000a031916815260200191505b509250505060405180910390f35b6105096004803603602081101561050257600080fd5b5035611cec565b604080516001600160a01b039092168252519081900360200190f35b6105516004803603604081101561053b57600080fd5b506001600160a01b038135169060200135611d4e565b005b6105516004803603604081101561056957600080fd5b81359190810190604081016020820135600160201b81111561058a57600080fd5b82018360208201111561059c57600080fd5b803590602001918460018302840111600160201b831117156105bd57600080fd5b91908080601f016020809104026020016040519081016040528093929190818152602001838380828437600092019190915250929550611e5f945050505050565b6106346004803603606081101561061457600080fd5b506001600160a01b03813581169160208101359160409091013516611f58565b60408051918252519081900360200190f35b6105516004803603602081101561065c57600080fd5b50356001600160a01b0316612152565b6105516004803603602081101561068257600080fd5b50356121c2565b610634612256565b610634600480360360208110156106a757600080fd5b503561225c565b610477600480360360208110156106c457600080fd5b503561226e565b610551600480360360608110156106e157600080fd5b506001600160a01b03813581169160208101359091169060400135612309565b6105516004803603604081101561071757600080fd5b81359190810190604081016020820135600160201b81111561073857600080fd5b82018360208201111561074a57600080fd5b803590602001918460018302840111600160201b8311171561076b57600080fd5b91908080601f01602080910402602001604051908101604052809392919081815260200183838082843760009201919091525092955061235e945050505050565b610477600480360360208110156107c257600080fd5b5035612456565b610551600480360360208110156107df57600080fd5b50356124be565b610551600480360360208110156107fc57600080fd5b50356001600160a01b031661254e565b6108296004803603602081101561082257600080fd5b50356125bb565b60405180806020018060200184151515158152602001838103835286818151815260200191508051906020019080838360005b8381101561087457818101518382015260200161085c565b50505050905090810190601f1680156108a15780820380516001836020036101000a031916815260200191505b50838103825285518152855160209182019187019080838360005b838110156108d45781810151838201526020016108bc565b50505050905090810190601f1680156109015780820380516001836020036101000a031916815260200191505b509550505050505060405180910390f35b61063461271f565b6106346004803603604081101561093057600080fd5b506001600160a01b038135169060200135612725565b6105096127a4565b6105516004803603604081101561096457600080fd5b81359190810190604081016020820135600160201b81111561098557600080fd5b82018360208201111561099757600080fd5b803590602001918460018302840111600160201b831117156109b857600080fd5b91908080601f0160208091040260200160405190810160405280939291908181526020018383808284376000920191909152509295506127b3945050505050565b61045b60048036036020811015610a0f57600080fd5b50356001600160a01b0316612839565b61055160048036036020811015610a3557600080fd5b503561284e565b61055160048036036040811015610a5257600080fd5b81359190810190604081016020820135600160201b811115610a7357600080fd5b820183602082011115610a8557600080fd5b803590602001918460018302840111600160201b83111715610aa657600080fd5b91908080601f0160208091040260200160405190810160405280939291908181526020018383808284376000920191909152509295506129e9945050505050565b61055160048036036040811015610afd57600080fd5b81359190810190604081016020820135600160201b811115610b1e57600080fd5b820183602082011115610b3057600080fd5b803590602001918460018302840111600160201b83111715610b5157600080fd5b91908080601f016020809104026020016040519081016040528093929190818152602001838380828437600092019190915250929550612a69945050505050565b61055160048036036060811015610ba857600080fd5b506001600160a01b03813581169160208101359091169060400135612b61565b61050960048036036020811015610bde57600080fd5b5035612b7c565b610c0260048036036020811015610bfb57600080fd5b5035612b97565b604051808060200187815260200186151515158152602001806020018515151515815260200184151515158152602001838103835289818151815260200191508051906020019080838360005b83811015610c67578181015183820152602001610c4f565b50505050905090810190601f168015610c945780820380516001836020036101000a031916815260200191505b50838103825286518152865160209182019188019080838360005b83811015610cc7578181015183820152602001610caf565b50505050905090810190601f168015610cf45780820380516001836020036101000a031916815260200191505b509850505050505050505060405180910390f35b61063460048036036020811015610d1e57600080fd5b5035612d25565b61055160048036036020811015610d3b57600080fd5b5035612d8b565b61063460048036036020811015610d5857600080fd5b5035612e64565b61050960048036036020811015610d7557600080fd5b5035612e76565b61055160048036036040811015610d9257600080fd5b50803590602001356001600160a01b0316612ed0565b61055160048036036020811015610dbe57600080fd5b50356001600160a01b0316612f74565b61055160048036036040811015610de457600080fd5b81359190810190604081016020820135600160201b811115610e0557600080fd5b820183602082011115610e1757600080fd5b803590602001918460018302840111600160201b83111715610e3857600080fd5b91908080601f016020809104026020016040519081016040528093929190818152602001838380828437600092019190915250929550612fe2945050505050565b61055160048036036020811015610e8f57600080fd5b50356001600160a01b0316613062565b61063460048036036020811015610eb557600080fd5b50356001600160a01b03166130db565b61055160048036036040811015610edb57600080fd5b5080359060200135613143565b610f0e60048036036020811015610efe57600080fd5b50356001600160a01b03166132c4565b60408051602080825283518183015283519192839290830191858101910280838360005b83811015610f4a578181015183820152602001610f32565b505050509050019250505060405180910390f35b61055160048036036020811015610f7457600080fd5b50356001600160a01b0316613325565b61055160048036036020811015610f9a57600080fd5b5035613392565b61055160048036036020811015610fb757600080fd5b50356001600160a01b031661346c565b610fe460048036036020811015610fdd57600080fd5b50356134dc565b604051808a6001600160a01b03166001600160a01b0316815260200189815260200188815260200187815260200186151515158152602001856001600160a01b03166001600160a01b0316815260200184815260200180602001836001600160a01b03166001600160a01b03168152602001828103825284818151815260200191508051906020019080838360005b8381101561108b578181015183820152602001611073565b50505050905090810190601f1680156110b85780820380516001836020036101000a031916815260200191505b509a505050505050505050505060405180910390f35b610477600480360360408110156110e457600080fd5b50803590602001356135fc565b61110e6004803603602081101561110757600080fd5b50356136a9565b6040518080602001806020018060200180602001806020018715151515815260200186810386528c818151815260200191508051906020019080838360005b8381101561116557818101518382015260200161114d565b50505050905090810190601f1680156111925780820380516001836020036101000a031916815260200191505b5086810385528b5181528b516020918201918d019080838360005b838110156111c55781810151838201526020016111ad565b50505050905090810190601f1680156111f25780820380516001836020036101000a031916815260200191505b5086810384528a5181528a516020918201918c019080838360005b8381101561122557818101518382015260200161120d565b50505050905090810190601f1680156112525780820380516001836020036101000a031916815260200191505b5086810383528951815289516020918201918b019080838360005b8381101561128557818101518382015260200161126d565b50505050905090810190601f1680156112b25780820380516001836020036101000a031916815260200191505b5086810382528851815288516020918201918a019080838360005b838110156112e55781810151838201526020016112cd565b50505050905090810190601f1680156113125780820380516001836020036101000a031916815260200191505b509b50505050505050505050505060405180910390f35b6105516004803603604081101561133f57600080fd5b81359190810190604081016020820135600160201b81111561136057600080fd5b82018360208201111561137257600080fd5b803590602001918460018302840111600160201b8311171561139357600080fd5b91908080601f0160208091040260200160405190810160405280939291908181526020018383808284376000920191909152509295506139fe945050505050565b610477613a85565b610551600480360360408110156113f257600080fd5b5080359060200135613ae6565b6105516004803603602081101561141557600080fd5b5035613b54565b6105516004803603604081101561143257600080fd5b506001600160a01b0381351690602001351515613be1565b6105516004803603604081101561146057600080fd5b81359190810190604081016020820135600160201b81111561148157600080fd5b82018360208201111561149357600080fd5b803590602001918460018302840111600160201b831117156114b457600080fd5b91908080601f016020809104026020016040519081016040528093929190818152602001838380828437600092019190915250929550613ca9945050505050565b6105096004803603602081101561150b57600080fd5b5035613d29565b61152f6004803603602081101561152857600080fd5b5035613d44565b604080516001600160a01b03958616815293909416602084015282840191909152606082015290519081900360800190f35b6105516004803603604081101561157757600080fd5b81359190810190604081016020820135600160201b81111561159857600080fd5b8201836020820111156115aa57600080fd5b803590602001918460018302840111600160201b831117156115cb57600080fd5b91908080601f016020809104026020016040519081016040528093929190818152602001838380828437600092019190915250929550613d8d945050505050565b61045b6004803603602081101561162257600080fd5b50356001600160a01b0316613ed0565b6105516004803603606081101561164857600080fd5b813591602081013591810190606081016040820135600160201b81111561166e57600080fd5b82018360208201111561168057600080fd5b803590602001918460018302840111600160201b831117156116a157600080fd5b91908080601f016020809104026020016040519081016040528093929190818152602001838380828437600092019190915250929550613ee5945050505050565b610551600480360360408110156116f857600080fd5b81359190810190604081016020820135600160201b81111561171957600080fd5b82018360208201111561172b57600080fd5b803590602001918460018302840111600160201b8311171561174c57600080fd5b91908080601f016020809104026020016040519081016040528093929190818152602001838380828437600092019190915250929550614048945050505050565b610551600480360360808110156117a357600080fd5b6001600160a01b03823581169260208101359091169160408201359190810190608081016060820135600160201b8111156117dd57600080fd5b8201836020820111156117ef57600080fd5b803590602001918460018302840111600160201b8311171561181057600080fd5b91908080601f016020809104026020016040519081016040528093929190818152602001838380828437600092019190915250929550614140945050505050565b6105516004803603604081101561186757600080fd5b5080359060200135614192565b6105516004803603604081101561188a57600080fd5b81359190810190604081016020820135600160201b8111156118ab57600080fd5b8201836020820111156118bd57600080fd5b803590602001918460018302840111600160201b831117156118de57600080fd5b91908080601f016020809104026020016040519081016040528093929190818152602001838380828437600092019190915250929550614244945050505050565b6104776004803603602081101561193557600080fd5b503561433c565b6106346004803603602081101561195257600080fd5b5035614737565b610509614749565b6105516004803603602081101561197757600080fd5b5035614758565b6105516004803603606081101561199457600080fd5b81359190810190604081016020820135600160201b8111156119b557600080fd5b8201836020820111156119c757600080fd5b803590602001918460018302840111600160201b831117156119e857600080fd5b91908080601f016020809104026020016040519081016040528093929190818152602001838380828437600092019190915250929550505090356001600160a01b031691506147dd9050565b61050960048036036020811015611a4a57600080fd5b5035614889565b61055160048036036020811015611a6757600080fd5b50356148a4565b61055160048036036020811015611a8457600080fd5b5035614a48565b61055160048036036060811015611aa157600080fd5b508035906001600160a01b036020820135169060400135614b8e565b61055160048036036020811015611ad357600080fd5b50356001600160a01b0316614c67565b61055160048036036080811015611af957600080fd5b810190602081018135600160201b811115611b1357600080fd5b820183602082011115611b2557600080fd5b803590602001918460018302840111600160201b83111715611b4657600080fd5b91908080601f016020809104026020016040519081016040528093929190818152602001838380828437600092019190915250929550506001600160a01b0383351693505050602081013590604001351515614cd5565b610634614e4f565b61045b60048036036040811015611bbb57600080fd5b506001600160a01b0381358116916020013516614e55565b61063460048036036020811015611be957600080fd5b5035614e83565b61063460048036036020811015611c0657600080fd5b5035614e95565b61063460048036036020811015611c2357600080fd5b5035614ea7565b610509614eb9565b6001600160e01b0319811660009081526020819052604090205460ff165b919050565b60098054604080516020601f6002600019610100600188161502019095169490940493840181900481028201810190925282815260609390929091830182828015611ce15780601f10611cb657610100808354040283529160200191611ce1565b820191906000526020600020905b815481529060010190602001808311611cc457829003601f168201915b505050505090505b90565b6000611cf782614ec8565b611d325760405162461bcd60e51b815260040180806020018281038252602c815260200180615d80602c913960400191505060405180910390fd5b506000908152600260205260409020546001600160a01b031690565b6000611d5982612e76565b9050806001600160a01b0316836001600160a01b03161415611dac5760405162461bcd60e51b8152600401808060200182810382526021815260200180615dfb6021913960400191505060405180910390fd5b336001600160a01b0382161480611dc85750611dc88133614e55565b611e035760405162461bcd60e51b8152600401808060200182810382526038815260200180615c986038913960400191505060405180910390fd5b60008281526002602052604080822080546001600160a01b0319166001600160a01b0387811691821790925591518593918516917f8c5be1e5ebec7d5bd14f71427d1e84f3dd0314c0f7b2291e5b200ac8c7c3b92591a4505050565b6000828152600c60205260409020600e015482906301000000900460ff1615611ebd576040805162461bcd60e51b81526020600482015260106024820152600080516020615d23833981519152604482015290519081900360640190fd5b336000908152601b6020526040902054839060ff1680611ef357506000818152600d60205260409020546001600160a01b031633145b611f32576040805162461bcd60e51b815260206004820152601a6024820152600080516020615c78833981519152604482015290519081900360640190fd5b6000848152600c602090815260409091208451611f5192860190615ace565b5050505050565b336000908152601c602052604081205460ff16611fa65760405162461bcd60e51b815260040180806020018281038252602b815260200180615ed1602b913960400191505060405180910390fd5b6000838152600c602052604090206009810154600890910154611fd090600163ffffffff614ee516565b1115612023576040805162461bcd60e51b815260206004820152601f60248201527f4d757374206e6f7420657863656564206d617820696e766f636174696f6e7300604482015290519081900360640190fd5b6000838152600c60205260409020600e015462010000900460ff168061206257506000838152600d60205260409020546001600160a01b038381169116145b6120b3576040805162461bcd60e51b815260206004820181905260248201527f50726f6a656374206d75737420657869737420616e6420626520616374697665604482015290519081900360640190fd5b6000838152600c60205260409020600e0154600160201b900460ff1615806120f457506000838152600d60205260409020546001600160a01b038381169116145b61213d576040805162461bcd60e51b8152602060048201526015602482015274283ab931b430b9b2b99030b932903830bab9b2b21760591b604482015290519081900360640190fd5b60006121498585614f46565b95945050505050565b601a546001600160a01b0316331461219e576040805162461bcd60e51b815260206004820152600a60248201526927b7363c9030b236b4b760b11b604482015290519081900360640190fd5b6001600160a01b03166000908152601b60205260409020805460ff19166001179055565b601a546001600160a01b0316331461220e576040805162461bcd60e51b815260206004820152600a60248201526927b7363c9030b236b4b760b11b604482015290519081900360640190fd5b6019811115612251576040805162461bcd60e51b815260206004820152600a6024820152694d6178206f662032352560b01b604482015290519081900360640190fd5b601555565b60075490565b60176020526000908152604090205481565b600e6020908152600091825260409182902080548351601f6002600019610100600186161502019093169290920491820184900484028101840190945280845290918301828280156123015780601f106122d657610100808354040283529160200191612301565b820191906000526020600020905b8154815290600101906020018083116122e457829003601f168201915b505050505081565b61231333826150e7565b61234e5760405162461bcd60e51b8152600401808060200182810382526031815260200180615e1c6031913960400191505060405180910390fd5b61235983838361518b565b505050565b6000828152600c60205260409020600e015482906301000000900460ff16156123bc576040805162461bcd60e51b81526020600482015260106024820152600080516020615d23833981519152604482015290519081900360640190fd5b336000908152601b6020526040902054839060ff16806123f257506000818152600d60205260409020546001600160a01b031633145b612431576040805162461bcd60e51b815260206004820152601a6024820152600080516020615c78833981519152604482015290519081900360640190fd5b6000848152600c602090815260409091208451611f5192600490920191860190615ace565b60166020908152600091825260409182902080548351601f6002600019610100600186161502019093169290920491820184900484028101840190945280845290918301828280156123015780601f106122d657610100808354040283529160200191612301565b600081815260176020908152604080832054808452600d909252909120546001600160a01b03163314612526576040805162461bcd60e51b815260206004820152600b60248201526a13db9b1e48185c9d1a5cdd60aa1b604482015290519081900360640190fd5b60008281526017602090815260408083205483526016909152812061254a91615b4c565b5050565b601a546001600160a01b0316331461259a576040805162461bcd60e51b815260206004820152600a60248201526927b7363c9030b236b4b760b11b604482015290519081900360640190fd5b6001600160a01b03166000908152601b60205260409020805460ff19169055565b6000818152600c6020908152604080832060060180548251601f60026000196101006001861615020190931692909204918201859004850281018501909352808352606094859490939291908301828280156126585780601f1061262d57610100808354040283529160200191612658565b820191906000526020600020905b81548152906001019060200180831161263b57829003601f168201915b5050506000878152600c60209081526040918290206007018054835160026001831615610100026000190190921691909104601f810184900484028201840190945283815295985093509091508301828280156126f65780601f106126cb576101008083540402835291602001916126f6565b820191906000526020600020905b8154815290600101906020018083116126d957829003601f168201915b50505060009687525050600c6020526040909420600e0154929461010090930460ff1692915050565b60155481565b6000612730836130db565b821061276d5760405162461bcd60e51b815260040180806020018281038252602b815260200180615bcb602b913960400191505060405180910390fd5b6001600160a01b038316600090815260056020526040902080548390811061279157fe5b9060005260206000200154905092915050565b600b546001600160a01b031681565b6000828152600d602052604090205482906001600160a01b0316331461280e576040805162461bcd60e51b815260206004820152600b60248201526a13db9b1e48185c9d1a5cdd60aa1b604482015290519081900360640190fd5b6000838152600c60209081526040909120835161283392600390920191850190615ace565b50505050565b601b6020526000908152604090205460ff1681565b6000818152600c60205260409020600e015481906301000000900460ff16156128ac576040805162461bcd60e51b81526020600482015260106024820152600080516020615d23833981519152604482015290519081900360640190fd5b336000908152601b6020526040902054829060ff16806128e257506000818152600d60205260409020546001600160a01b031633145b612921576040805162461bcd60e51b815260206004820152601a6024820152600080516020615c78833981519152604482015290519081900360640190fd5b6000838152600c60205260409020600801541561296f5760405162461bcd60e51b8152600401808060200182810382526027815260200180615e796027913960400191505060405180910390fd5b6000838152600c602052604090206005015460ff16156129a7576000838152600c60205260409020600e01805460ff191690556129c4565b6000838152600c60205260409020600e01805460ff191660011790555b50506000908152600c60205260409020600501805460ff19811660ff90911615179055565b6000828152600d602052604090205482906001600160a01b03163314612a44576040805162461bcd60e51b815260206004820152600b60248201526a13db9b1e48185c9d1a5cdd60aa1b604482015290519081900360640190fd5b6000838152600c60209081526040909120835161283392600690920191850190615ace565b6000828152600c60205260409020600e015482906301000000900460ff1615612ac7576040805162461bcd60e51b81526020600482015260106024820152600080516020615d23833981519152604482015290519081900360640190fd5b336000908152601b6020526040902054839060ff1680612afd57506000818152600d60205260409020546001600160a01b031633145b612b3c576040805162461bcd60e51b815260206004820152601a6024820152600080516020615c78833981519152604482015290519081900360640190fd5b6000848152600c602090815260409091208451611f5192600d90920191860190615ace565b61235983838360405180602001604052806000815250614140565b600f602052600090815260409020546001600160a01b031681565b6000818152600c60209081526040808320600a0180548251601f60026000196101006001861615020190931692909204918201859004850281018501909352808352606094938493869385938493830182828015612c365780601f10612c0b57610100808354040283529160200191612c36565b820191906000526020600020905b815481529060010190602001808311612c1957829003601f168201915b50505060008a8152600c602081815260409283902091820154600e830154600d9093018054855160026101006001841615026000190190921691909104601f8101859004850282018501909652858152979d50909b5060ff9092169950909350909150830182828015612cea5780601f10612cbf57610100808354040283529160200191612cea565b820191906000526020600020905b815481529060010190602001808311612ccd57829003601f168201915b5050506000998a525050600c6020526040909720600e0154959794969395939460ff63010000008604811695600160201b9004169350915050565b6000612d2f612256565b8210612d6c5760405162461bcd60e51b815260040180806020018281038252602c815260200180615e4d602c913960400191505060405180910390fd5b60078281548110612d7957fe5b90600052602060002001549050919050565b6000818152600d602052604090205481906001600160a01b03163314612de6576040805162461bcd60e51b815260206004820152600b60248201526a13db9b1e48185c9d1a5cdd60aa1b604482015290519081900360640190fd5b6000828152600c602052604090206005015460ff1615612e375760405162461bcd60e51b8152600401808060200182810382526031815260200180615ea06031913960400191505060405180910390fd5b506000908152600c60205260409020600e01805461ff001981166101009182900460ff1615909102179055565b60186020526000908152604090205481565b6000818152600160205260408120546001600160a01b031680612eca5760405162461bcd60e51b8152600401808060200182810382526029815260200180615cfa6029913960400191505060405180910390fd5b92915050565b336000908152601b6020526040902054829060ff1680612f0657506000818152600d60205260409020546001600160a01b031633145b612f45576040805162461bcd60e51b815260206004820152601a6024820152600080516020615c78833981519152604482015290519081900360640190fd5b506000918252600d602052604090912080546001600160a01b0319166001600160a01b03909216919091179055565b601a546001600160a01b03163314612fc0576040805162461bcd60e51b815260206004820152600a60248201526927b7363c9030b236b4b760b11b604482015290519081900360640190fd5b601480546001600160a01b0319166001600160a01b0392909216919091179055565b6000828152600d602052604090205482906001600160a01b0316331461303d576040805162461bcd60e51b815260206004820152600b60248201526a13db9b1e48185c9d1a5cdd60aa1b604482015290519081900360640190fd5b6000838152600c60209081526040909120835161283392600790920191850190615ace565b336000908152601b602052604090205460ff166130b9576040805162461bcd60e51b815260206004820152601060248201526f13db9b1e481dda1a5d195b1a5cdd195960821b604482015290519081900360640190fd5b600b80546001600160a01b0319166001600160a01b0392909216919091179055565b60006001600160a01b0382166131225760405162461bcd60e51b815260040180806020018281038252602a815260200180615cd0602a913960400191505060405180910390fd5b6001600160a01b0382166000908152600360205260409020612eca906151aa565b6000828152600d602052604090205482906001600160a01b0316331461319e576040805162461bcd60e51b815260206004820152600b60248201526a13db9b1e48185c9d1a5cdd60aa1b604482015290519081900360640190fd5b6000838152600c60205260409020600e01546301000000900460ff1615806131d657506000838152600c602052604090206009015482105b613215576040805162461bcd60e51b81526020600482015260106024820152600080516020615d23833981519152604482015290519081900360640190fd5b6000838152600c602052604090206008015482116132645760405162461bcd60e51b815260040180806020018281038252603d815260200180615d43603d913960400191505060405180910390fd5b60648211156132ae576040805162461bcd60e51b8152602060048201526011602482015270043616e6e6f74206578636565642031303607c1b604482015290519081900360640190fd5b506000918252600c602052604090912060090155565b60606132cf826151ae565b80548060200260200160405190810160405280929190818152602001828054801561331957602002820191906000526020600020905b815481526020019060010190808311613305575b50505050509050919050565b601a546001600160a01b03163314613371576040805162461bcd60e51b815260206004820152600a60248201526927b7363c9030b236b4b760b11b604482015290519081900360640190fd5b6001600160a01b03166000908152601c60205260409020805460ff19169055565b336000908152601b602052604090205460ff166133e9576040805162461bcd60e51b815260206004820152601060248201526f13db9b1e481dda1a5d195b1a5cdd195960821b604482015290519081900360640190fd5b6000818152600c60205260409020600e015481906301000000900460ff1615613447576040805162461bcd60e51b81526020600482015260106024820152600080516020615d23833981519152604482015290519081900360640190fd5b506000908152600c60205260409020600e01805463ff00000019166301000000179055565b601a546001600160a01b031633146134b8576040805162461bcd60e51b815260206004820152600a60248201526927b7363c9030b236b4b760b11b604482015290519081900360640190fd5b6001600160a01b03166000908152601c60205260409020805460ff19166001179055565b6000818152600d60209081526040808320546010835281842054600c845282852060088101546009820154600e92830154601188528689205460128952878a2054948952878a208054895160026101006001841615026000190190921691909104601f81018c90048c0282018c01909a528981526001600160a01b039889169b979a959994986201000090940460ff1697939092169594606094908301828280156135c85780601f1061359d576101008083540402835291602001916135c8565b820191906000526020600020905b8154815290600101906020018083116135ab57829003601f168201915b50505060009c8d525050600f6020526040909a2054989a9799969895979496939592946001600160a01b0390931692915050565b6000828152600c60209081526040808320848452600b0182529182902080548351601f600260001961010060018616150201909316929092049182018490048402810184019094528084526060939283018282801561369c5780601f106136715761010080835404028352916020019161369c565b820191906000526020600020905b81548152906001019060200180831161367f57829003601f168201915b5050505050905092915050565b6000818152600c602090815260408083208054825160026001831615610100026000190190921691909104601f81018590048502820185019093528281526060948594859485948594929091908301828280156137475780601f1061371c57610100808354040283529160200191613747565b820191906000526020600020905b81548152906001019060200180831161372a57829003601f168201915b50505050509550600c60008881526020019081526020016000206001018054600181600116156101000203166002900480601f0160208091040260200160405190810160405280929190818152602001828054600181600116156101000203166002900480156137f85780601f106137cd576101008083540402835291602001916137f8565b820191906000526020600020905b8154815290600101906020018083116137db57829003601f168201915b50505060008a8152600c60209081526040918290206002908101805484516001821615610100026000190190911692909204601f8101849004840283018401909452838252959a509493509091508301828280156138975780601f1061386c57610100808354040283529160200191613897565b820191906000526020600020905b81548152906001019060200180831161387a57829003601f168201915b50505060008a8152600c60209081526040918290206003018054835160026001831615610100026000190190921691909104601f810184900484028201840190945283815295995093509091508301828280156139355780601f1061390a57610100808354040283529160200191613935565b820191906000526020600020905b81548152906001019060200180831161391857829003601f168201915b50505060008a8152600c60209081526040918290206004018054835160026001831615610100026000190190921691909104601f810184900484028201840190945283815295985093509091508301828280156139d35780601f106139a8576101008083540402835291602001916139d3565b820191906000526020600020905b8154815290600101906020018083116139b657829003601f168201915b5050506000998a525050600c602052604090972060050154959794969395929460ff90931692915050565b600082815260176020908152604080832054808452600d909252909120546001600160a01b03163314613a66576040805162461bcd60e51b815260206004820152600b60248201526a13db9b1e48185c9d1a5cdd60aa1b604482015290519081900360640190fd5b6000838152601660209081526040909120835161283392850190615ace565b600a8054604080516020601f6002600019610100600188161502019095169490940493840181900481028201810190925282815260609390929091830182828015611ce15780601f10611cb657610100808354040283529160200191611ce1565b6000828152600d602052604090205482906001600160a01b03163314613b41576040805162461bcd60e51b815260206004820152600b60248201526a13db9b1e48185c9d1a5cdd60aa1b604482015290519081900360640190fd5b5060009182526010602052604090912055565b6000818152600d602052604090205481906001600160a01b03163314613baf576040805162461bcd60e51b815260206004820152600b60248201526a13db9b1e48185c9d1a5cdd60aa1b604482015290519081900360640190fd5b506000908152600c60205260409020600e01805464ff00000000198116600160201b9182900460ff1615909102179055565b6001600160a01b038216331415613c3b576040805162461bcd60e51b815260206004820152601960248201527822a9219b99189d1030b8383937bb32903a379031b0b63632b960391b604482015290519081900360640190fd5b3360008181526004602090815260408083206001600160a01b03871680855290835292819020805460ff1916861515908117909155815190815290519293927f17307eab39ab6107e8899845ad3d59bd9653f200f220920489ca2b5937696c31929181900390910190a35050565b6000828152600d602052604090205482906001600160a01b03163314613d04576040805162461bcd60e51b815260206004820152600b60248201526a13db9b1e48185c9d1a5cdd60aa1b604482015290519081900360640190fd5b6000838152600c60209081526040909120835161283392600290920191850190615ace565b600d602052600090815260409020546001600160a01b031681565b6000908152601760209081526040808320548352600d82528083205460118352818420546012845282852054601390945291909320546001600160a01b03938416949390911692565b6000828152600c60205260409020600e015482906301000000900460ff1615613deb576040805162461bcd60e51b81526020600482015260106024820152600080516020615d23833981519152604482015290519081900360640190fd5b336000908152601b6020526040902054839060ff1680613e2157506000818152600d60205260409020546001600160a01b031633145b613e60576040805162461bcd60e51b815260206004820152601a6024820152600080516020615c78833981519152604482015290519081900360640190fd5b6000848152600c60208181526040808420928301548452600b909201815291208451613e8e92860190615ace565b506000848152600c602081905260409091200154613eb390600163ffffffff614ee516565b6000948552600c6020819052604090952090940193909355505050565b601c6020526000908152604090205460ff1681565b6000838152600c60205260409020600e015483906301000000900460ff1615613f43576040805162461bcd60e51b81526020600482015260106024820152600080516020615d23833981519152604482015290519081900360640190fd5b336000908152601b6020526040902054849060ff1680613f7957506000818152600d60205260409020546001600160a01b031633145b613fb8576040805162461bcd60e51b815260206004820152601a6024820152600080516020615c78833981519152604482015290519081900360640190fd5b6000858152600c6020819052604090912001548410614016576040805162461bcd60e51b81526020600482015260156024820152747363726970744964206f7574206f662072616e676560581b604482015290519081900360640190fd5b6000858152600c60209081526040808320878452600b018252909120845161404092860190615ace565b505050505050565b6000828152600c60205260409020600e015482906301000000900460ff16156140a6576040805162461bcd60e51b81526020600482015260106024820152600080516020615d23833981519152604482015290519081900360640190fd5b336000908152601b6020526040902054839060ff16806140dc57506000818152600d60205260409020546001600160a01b031633145b61411b576040805162461bcd60e51b815260206004820152601a6024820152600080516020615c78833981519152604482015290519081900360640190fd5b6000848152600c602090815260409091208451611f5192600190920191860190615ace565b61414b848484612309565b614157848484846151c8565b6128335760405162461bcd60e51b8152600401808060200182810382526032815260200180615bf66032913960400191505060405180910390fd5b6000828152600d602052604090205482906001600160a01b031633146141ed576040805162461bcd60e51b815260206004820152600b60248201526a13db9b1e48185c9d1a5cdd60aa1b604482015290519081900360640190fd5b6064821115614231576040805162461bcd60e51b815260206004820152600b60248201526a4d6178206f66203130302560a81b604482015290519081900360640190fd5b5060009182526013602052604090912055565b6000828152600c60205260409020600e015482906301000000900460ff16156142a2576040805162461bcd60e51b81526020600482015260106024820152600080516020615d23833981519152604482015290519081900360640190fd5b336000908152601b6020526040902054839060ff16806142d857506000818152600d60205260409020546001600160a01b031633145b614317576040805162461bcd60e51b815260206004820152601a6024820152600080516020615c78833981519152604482015290519081900360640190fd5b6000848152600c602090815260409091208451611f5192600a90920191860190615ace565b60608161434881614ec8565b614393576040805162461bcd60e51b8152602060048201526017602482015276151bdad95b88125108191bd95cc81b9bdd08195e1a5cdd604a1b604482015290519081900360640190fd5b6000838152601660205260409020546002600019610100600184161502019091160415614505576000838152601760209081526040808320548352600c82529182902060070180548351601f600260001961010060018616150201909316929092049182018490048402810184019094528084526144fe939283018282801561445d5780601f106144325761010080835404028352916020019161445d565b820191906000526020600020905b81548152906001019060200180831161444057829003601f168201915b5050506000878152601660209081526040918290208054835160026001831615610100026000190190921691909104601f8101849004840282018401909452838152945092508301828280156144f45780601f106144c9576101008083540402835291602001916144f4565b820191906000526020600020905b8154815290600101906020018083116144d757829003601f168201915b50505050506152fb565b9150614731565b6000838152601760209081526040808320548352600c90915290206005015460ff1615801561455757506000838152601760209081526040808320548352600c9091529020600e0154610100900460ff165b15614678576000838152601760209081526040808320548352600c82529182902060070180548351601f600260001961010060018616150201909316929092049182018490048402810184019094528084526144fe93928301828280156145ff5780601f106145d4576101008083540402835291602001916145ff565b820191906000526020600020905b8154815290600101906020018083116145e257829003601f168201915b5050506000878152601760209081526040808320548352600c825291829020600d018054835160026001831615610100026000190190921691909104601f8101849004840282018401909452838152945092508301828280156144f45780601f106144c9576101008083540402835291602001916144f4565b6000838152601760209081526040808320548352600c82529182902060060180548351601f6002600019610100600186161502019093169290920491820184900484028101840190945280845261472e939283018282801561471b5780601f106146f05761010080835404028352916020019161471b565b820191906000526020600020905b8154815290600101906020018083116146fe57829003601f168201915b505050505061472985615337565b6152fb565b91505b50919050565b60126020526000908152604090205481565b6014546001600160a01b031681565b336000908152601b602052604090205460ff166147af576040805162461bcd60e51b815260206004820152601060248201526f13db9b1e481dda1a5d195b1a5cdd195960821b604482015290519081900360640190fd5b6000908152600c60205260409020600e01805462ff0000198116620100009182900460ff1615909102179055565b6000838152600d602052604090205483906001600160a01b03163314614838576040805162461bcd60e51b815260206004820152600b60248201526a13db9b1e48185c9d1a5cdd60aa1b604482015290519081900360640190fd5b6000848152600e60209081526040909120845161485792860190615ace565b50506000928352600f602052604090922080546001600160a01b0319166001600160a01b039093169290921790915550565b6011602052600090815260409020546001600160a01b031681565b6000818152600c60205260409020600e015481906301000000900460ff1615614902576040805162461bcd60e51b81526020600482015260106024820152600080516020615d23833981519152604482015290519081900360640190fd5b336000908152601b6020526040902054829060ff168061493857506000818152600d60205260409020546001600160a01b031633145b614977576040805162461bcd60e51b815260206004820152601a6024820152600080516020615c78833981519152604482015290519081900360640190fd5b6000838152600c6020819052604090912001546149db576040805162461bcd60e51b815260206004820152601e60248201527f746865726520617265206e6f207363726970747320746f2072656d6f76650000604482015290519081900360640190fd5b6000838152600c6020818152604080842092830154600019018452600b90920190528120614a0891615b4c565b6000838152600c602081905260409091200154614a2c90600163ffffffff6153f816565b6000938452600c60208190526040909420909301929092555050565b6000818152600c60205260409020600e015481906301000000900460ff1615614aa6576040805162461bcd60e51b81526020600482015260106024820152600080516020615d23833981519152604482015290519081900360640190fd5b336000908152601b6020526040902054829060ff1680614adc57506000818152600d60205260409020546001600160a01b031633145b614b1b576040805162461bcd60e51b815260206004820152601a6024820152600080516020615c78833981519152604482015290519081900360640190fd5b6000838152600c602052604090206008015415614b695760405162461bcd60e51b8152600401808060200182810382526026815260200180615dac6026913960400191505060405180910390fd5b50506000908152600c60205260409020600e01805460ff19811660ff90911615179055565b6000838152600d602052604090205483906001600160a01b03163314614be9576040805162461bcd60e51b815260206004820152600b60248201526a13db9b1e48185c9d1a5cdd60aa1b604482015290519081900360640190fd5b6064821115614c2d576040805162461bcd60e51b815260206004820152600b60248201526a4d6178206f66203130302560a81b604482015290519081900360640190fd5b50600092835260116020908152604080852080546001600160a01b0319166001600160a01b03959095169490941790935560129052912055565b601a546001600160a01b03163314614cb3576040805162461bcd60e51b815260206004820152600a60248201526927b7363c9030b236b4b760b11b604482015290519081900360640190fd5b601a80546001600160a01b0319166001600160a01b0392909216919091179055565b336000908152601b602052604090205460ff16614d2c576040805162461bcd60e51b815260206004820152601060248201526f13db9b1e481dda1a5d195b1a5cdd195960821b604482015290519081900360640190fd5b601d546000818152600d6020908152604080832080546001600160a01b0319166001600160a01b038916179055600c82529091208651614d6e92880190615ace565b50604080518082018252600381526208aa8960eb1b60208083019182526000858152600e909152929092209051614da59290615ace565b506000818152601060209081526040808320869055600c9091529020600e8101805464ff000000001916600160201b17905560058101805484151560ff19909116179055606460099091015581614e14576000818152600c60205260409020600e01805460ff19169055614e31565b6000818152600c60205260409020600e01805460ff191660011790555b601d54614e4590600163ffffffff614ee516565b601d555050505050565b601d5481565b6001600160a01b03918216600090815260046020908152604080832093909416825291909152205460ff1690565b60136020526000908152604090205481565b60196020526000908152604090205481565b60106020526000908152604090205481565b601a546001600160a01b031681565b6000908152600160205260409020546001600160a01b0316151590565b600082820183811015614f3f576040805162461bcd60e51b815260206004820152601b60248201527f536166654d6174683a206164646974696f6e206f766572666c6f770000000000604482015290519081900360640190fd5b9392505050565b6000818152600c6020526040812060080154620f42408302810190614f7290600163ffffffff614ee516565b6000848152600c602052604090206008810191909155600e015460ff1615615091576000838152600c6020908152604080832060080154600b54825163990c8f7960e01b81529251919343936000198501409333936001600160a01b03169263990c8f799260048082019391829003018186803b158015614ff257600080fd5b505afa158015615006573d6000803e3d6000fd5b505050506040513d602081101561501c57600080fd5b505160408051602080820197909752808201959095526060808601949094529190921b6bffffffffffffffffffffffff191660808401526094808401929092528051808403909201825260b4909201825280519083012060008581526018845282812082905590815260199092529020829055505b61509b8482615455565b60008181526017602052604080822085905551849183916001600160a01b038816917f4c209b5fc8ad50758f13e2e1088ba56a560dff690a1c6fef26394f4c03821c4f91a49392505050565b60006150f282614ec8565b61512d5760405162461bcd60e51b815260040180806020018281038252602c815260200180615c4c602c913960400191505060405180910390fd5b600061513883612e76565b9050806001600160a01b0316846001600160a01b031614806151735750836001600160a01b031661516884611cec565b6001600160a01b0316145b8061518357506151838185614e55565b949350505050565b615196838383615472565b6151a083826155b6565b61235982826156a4565b5490565b6001600160a01b0316600090815260056020526040902090565b60006151dc846001600160a01b03166156e2565b6151e857506001615183565b604051630a85bd0160e11b815233600482018181526001600160a01b03888116602485015260448401879052608060648501908152865160848601528651600095928a169463150b7a029490938c938b938b939260a4019060208501908083838e5b8381101561526257818101518382015260200161524a565b50505050905090810190601f16801561528f5780820380516001836020036101000a031916815260200191505b5095505050505050602060405180830381600087803b1580156152b157600080fd5b505af11580156152c5573d6000803e3d6000fd5b505050506040513d60208110156152db57600080fd5b50516001600160e01b031916630a85bd0160e11b14915050949350505050565b6060614f3f83836040518060200160405280600081525060405180602001604052806000815250604051806020016040528060008152506156e8565b60608161535c57506040805180820190915260018152600360fc1b6020820152611c50565b8160005b811561537457600101600a82049150615360565b6060816040519080825280601f01601f1916602001820160405280156153a1576020820181803883390190505b50905060001982015b85156153ef57600a860660300160f81b828280600190039350815181106153cd57fe5b60200101906001600160f81b031916908160001a905350600a860495506153aa565b50949350505050565b60008282111561544f576040805162461bcd60e51b815260206004820152601e60248201527f536166654d6174683a207375627472616374696f6e206f766572666c6f770000604482015290519081900360640190fd5b50900390565b61545f82826158fc565b61546982826156a4565b61254a81615a2d565b826001600160a01b031661548582612e76565b6001600160a01b0316146154ca5760405162461bcd60e51b8152600401808060200182810382526029815260200180615dd26029913960400191505060405180910390fd5b6001600160a01b03821661550f5760405162461bcd60e51b8152600401808060200182810382526024815260200180615c286024913960400191505060405180910390fd5b61551881615a71565b6001600160a01b038316600090815260036020526040902061553990615aae565b6001600160a01b038216600090815260036020526040902061555a90615ac5565b60008181526001602052604080822080546001600160a01b0319166001600160a01b0386811691821790925591518493918716917fddf252ad1be2c89b69c2b068fc378daa952ba7f163c4a11628f55a4df523b3ef91a4505050565b6001600160a01b0382166000908152600560205260408120546155e090600163ffffffff6153f816565b60008381526006602052604090205490915080821461567b576001600160a01b038416600090815260056020526040812080548490811061561d57fe5b906000526020600020015490508060056000876001600160a01b03166001600160a01b03168152602001908152602001600020838154811061565b57fe5b600091825260208083209091019290925591825260069052604090208190555b6001600160a01b0384166000908152600560205260409020805490611f51906000198301615b90565b6001600160a01b0390911660009081526005602081815260408084208054868652600684529185208290559282526001810183559183529091200155565b3b151590565b6060808690506060869050606086905060608690506060869050606081518351855187518951010101016040519080825280601f01601f19166020018201604052801561573c576020820181803883390190505b509050806000805b88518110156157955788818151811061575957fe5b602001015160f81c60f81b83838060010194508151811061577657fe5b60200101906001600160f81b031916908160001a905350600101615744565b5060005b87518110156157ea578781815181106157ae57fe5b602001015160f81c60f81b8383806001019450815181106157cb57fe5b60200101906001600160f81b031916908160001a905350600101615799565b5060005b865181101561583f5786818151811061580357fe5b602001015160f81c60f81b83838060010194508151811061582057fe5b60200101906001600160f81b031916908160001a9053506001016157ee565b5060005b85518110156158945785818151811061585857fe5b602001015160f81c60f81b83838060010194508151811061587557fe5b60200101906001600160f81b031916908160001a905350600101615843565b5060005b84518110156158e9578481815181106158ad57fe5b602001015160f81c60f81b8383806001019450815181106158ca57fe5b60200101906001600160f81b031916908160001a905350600101615898565b50909d9c50505050505050505050505050565b6001600160a01b038216615957576040805162461bcd60e51b815260206004820181905260248201527f4552433732313a206d696e7420746f20746865207a65726f2061646472657373604482015290519081900360640190fd5b61596081614ec8565b156159b2576040805162461bcd60e51b815260206004820152601c60248201527f4552433732313a20746f6b656e20616c7265616479206d696e74656400000000604482015290519081900360640190fd5b600081815260016020908152604080832080546001600160a01b0319166001600160a01b0387169081179091558352600390915290206159f190615ac5565b60405181906001600160a01b038416906000907fddf252ad1be2c89b69c2b068fc378daa952ba7f163c4a11628f55a4df523b3ef908290a45050565b600780546000838152600860205260408120829055600182018355919091527fa66cc928b5edb82af9bd49922954155ab7b0942694bea4ce44661d9a8736c6880155565b6000818152600260205260409020546001600160a01b031615615aab57600081815260026020526040902080546001600160a01b03191690555b50565b8054615ac190600163ffffffff6153f816565b9055565b80546001019055565b828054600181600116156101000203166002900490600052602060002090601f016020900481019282601f10615b0f57805160ff1916838001178555615b3c565b82800160010185558215615b3c579182015b82811115615b3c578251825591602001919060010190615b21565b50615b48929150615bb0565b5090565b50805460018160011615610100020316600290046000825580601f10615b725750615aab565b601f016020900490600052602060002090810190615aab9190615bb0565b815481835581811115612359576000838152602090206123599181019083015b611ce991905b80821115615b485760008155600101615bb656fe455243373231456e756d657261626c653a206f776e657220696e646578206f7574206f6620626f756e64734552433732313a207472616e7366657220746f206e6f6e20455243373231526563656976657220696d706c656d656e7465724552433732313a207472616e7366657220746f20746865207a65726f20616464726573734552433732313a206f70657261746f7220717565727920666f72206e6f6e6578697374656e7420746f6b656e4f6e6c7920617274697374206f722077686974656c69737465640000000000004552433732313a20617070726f76652063616c6c6572206973206e6f74206f776e6572206e6f7220617070726f76656420666f7220616c6c4552433732313a2062616c616e636520717565727920666f7220746865207a65726f20616464726573734552433732313a206f776e657220717565727920666f72206e6f6e6578697374656e7420746f6b656e4f6e6c7920696620756e6c6f636b656400000000000000000000000000000000596f75206d75737420736574206d617820696e766f636174696f6e732067726561746572207468616e2063757272656e7420696e766f636174696f6e734552433732313a20617070726f76656420717565727920666f72206e6f6e6578697374656e7420746f6b656e43616e6e6f74206d6f64696679206166746572206120746f6b656e206973206d696e7465642e4552433732313a207472616e73666572206f6620746f6b656e2074686174206973206e6f74206f776e4552433732313a20617070726f76616c20746f2063757272656e74206f776e65724552433732313a207472616e736665722063616c6c6572206973206e6f74206f776e6572206e6f7220617070726f766564455243373231456e756d657261626c653a20676c6f62616c20696e646578206f7574206f6620626f756e647343616e206e6f7420737769746368206166746572206120746f6b656e206973206d696e7465642e63616e206f6e6c7920736574207374617469632049504653206861736820666f72207374617469632070726f6a656374734d757374206d696e742066726f6d2077686974656c6973746564206d696e74657220636f6e74726163742ea265627a7a723158207c0f24761877661bd263fcbc734b7a9021d376dcf20d76e4c2513caabe511d1f64736f6c63430005110032",
  "linkReferences": {},
  "deployedLinkReferences": {}
}