{
  "_format": "hh-sol-artifact-1",
  "contractName": "GenArt721FilteredMinterETH",
  "sourceName": "contracts/minter-suite/GenArt721FilteredMinterETH.sol",
  "abi": [
    {
      "inputs": [
        {
          "internalType": "address",
          "name": "_genArt721Address",
          "type": "address"
        },
        {
          "internalType": "address",
          "name": "_minterFilter",
          "type": "address"
        }
      ],
      "stateMutability": "nonpayable",
      "type": "constructor"
    },
    {
      "anonymous": false,
      "inputs": [
        {
          "indexed": false,
          "internalType": "uint256",
          "name": "_projectId",
          "type": "uint256"
        },
        {
          "indexed": false,
          "internalType": "bool",
          "name": "_purchaseToDisabled",
          "type": "bool"
        }
      ],
      "name": "PurchaseToDisabledUpdated",
      "type": "event"
    },
    {
      "inputs": [],
      "name": "artblocksContract",
      "outputs": [
        {
          "internalType": "contract IGenArt721CoreContract",
          "name": "",
          "type": "address"
        }
      ],
      "stateMutability": "view",
      "type": "function"
    },
    {
      "inputs": [
        {
          "internalType": "uint256",
          "name": "",
          "type": "uint256"
        }
      ],
      "name": "contractMintable",
      "outputs": [
        {
          "internalType": "bool",
          "name": "",
          "type": "bool"
        }
      ],
      "stateMutability": "view",
      "type": "function"
    },
    {
      "inputs": [],
      "name": "minterFilter",
      "outputs": [
        {
          "internalType": "contract IMinterFilter",
          "name": "",
          "type": "address"
        }
      ],
      "stateMutability": "view",
      "type": "function"
    },
    {
      "inputs": [],
      "name": "minterType",
      "outputs": [
        {
          "internalType": "string",
          "name": "",
          "type": "string"
        }
      ],
      "stateMutability": "view",
      "type": "function"
    },
    {
      "inputs": [
        {
          "internalType": "uint256",
          "name": "",
          "type": "uint256"
        }
      ],
      "name": "projectMaxHasBeenInvoked",
      "outputs": [
        {
          "internalType": "bool",
          "name": "",
          "type": "bool"
        }
      ],
      "stateMutability": "view",
      "type": "function"
    },
    {
      "inputs": [
        {
          "internalType": "uint256",
          "name": "",
          "type": "uint256"
        }
      ],
      "name": "projectMaxInvocations",
      "outputs": [
        {
          "internalType": "uint256",
          "name": "",
          "type": "uint256"
        }
      ],
      "stateMutability": "view",
      "type": "function"
    },
    {
      "inputs": [
        {
          "internalType": "address",
          "name": "",
          "type": "address"
        },
        {
          "internalType": "uint256",
          "name": "",
          "type": "uint256"
        }
      ],
      "name": "projectMintCounter",
      "outputs": [
        {
          "internalType": "uint256",
          "name": "",
          "type": "uint256"
        }
      ],
      "stateMutability": "view",
      "type": "function"
    },
    {
      "inputs": [
        {
          "internalType": "uint256",
          "name": "",
          "type": "uint256"
        }
      ],
      "name": "projectMintLimit",
      "outputs": [
        {
          "internalType": "uint256",
          "name": "",
          "type": "uint256"
        }
      ],
      "stateMutability": "view",
      "type": "function"
    },
    {
      "inputs": [
        {
          "internalType": "uint256",
          "name": "_projectId",
          "type": "uint256"
        }
      ],
      "name": "purchase",
      "outputs": [
        {
          "internalType": "uint256",
          "name": "tokenId",
          "type": "uint256"
        }
      ],
      "stateMutability": "payable",
      "type": "function"
    },
    {
      "inputs": [
        {
          "internalType": "address",
          "name": "_to",
          "type": "address"
        },
        {
          "internalType": "uint256",
          "name": "_projectId",
          "type": "uint256"
        }
      ],
      "name": "purchaseTo",
      "outputs": [
        {
          "internalType": "uint256",
          "name": "tokenId",
          "type": "uint256"
        }
      ],
      "stateMutability": "payable",
      "type": "function"
    },
    {
      "inputs": [
        {
          "internalType": "uint256",
          "name": "",
          "type": "uint256"
        }
      ],
      "name": "purchaseToDisabled",
      "outputs": [
        {
          "internalType": "bool",
          "name": "",
          "type": "bool"
        }
      ],
      "stateMutability": "view",
      "type": "function"
    },
    {
      "inputs": [
        {
          "internalType": "uint256",
          "name": "_projectId",
          "type": "uint256"
        }
      ],
      "name": "setProjectMaxInvocations",
      "outputs": [],
      "stateMutability": "nonpayable",
      "type": "function"
    },
    {
      "inputs": [
        {
          "internalType": "uint256",
          "name": "_projectId",
          "type": "uint256"
        },
        {
          "internalType": "uint8",
          "name": "_limit",
          "type": "uint8"
        }
      ],
      "name": "setProjectMintLimit",
      "outputs": [],
      "stateMutability": "nonpayable",
      "type": "function"
    },
    {
      "inputs": [
        {
          "internalType": "uint256",
          "name": "_projectId",
          "type": "uint256"
        }
      ],
      "name": "toggleContractMintable",
      "outputs": [],
      "stateMutability": "nonpayable",
      "type": "function"
    },
    {
      "inputs": [
        {
          "internalType": "uint256",
          "name": "_projectId",
          "type": "uint256"
        }
      ],
      "name": "togglePurchaseToDisabled",
      "outputs": [],
      "stateMutability": "nonpayable",
      "type": "function"
    }
  ],
  "bytecode": "0x608060405234801561001057600080fd5b506040516115ca3803806115ca83398101604081905261002f9161007c565b600080546001600160a01b039384166001600160a01b031991821617909155600180549290931691161790556100af565b80516001600160a01b038116811461007757600080fd5b919050565b6000806040838503121561008f57600080fd5b61009883610060565b91506100a660208401610060565b90509250929050565b61150c806100be6000396000f3fe6080604052600436106100c85760003560e01c806362f7a7ed1161007a57806362f7a7ed14610218578063891407c014610245578063acffea0514610258578063bee5600314610278578063cfff5cf1146102a8578063e9d1e8ac146102d8578063efef39a11461032e578063f7bd4b881461034157600080fd5b806308d94188146100cd5780630dcd404b14610103578063231c2281146101235780633a4657b41461014557806340d1397e1461018b578063462add46146101ab57806356690aaf146101eb575b600080fd5b3480156100d957600080fd5b506001546100ed906001600160a01b031681565b6040516100fa91906110e5565b60405180910390f35b34801561010f57600080fd5b506000546100ed906001600160a01b031681565b34801561012f57600080fd5b5061014361013e3660046110f9565b610361565b005b34801561015157600080fd5b5061017d610160366004611144565b600460209081526000928352604080842090915290825290205481565b6040519081526020016100fa565b34801561019757600080fd5b506101436101a6366004611170565b61041e565b3480156101b757600080fd5b506101db6101c6366004611170565b60066020526000908152604090205460ff1681565b60405190151581526020016100fa565b3480156101f757600080fd5b5061017d610206366004611170565b60076020526000908152604090205481565b34801561022457600080fd5b5061017d610233366004611170565b60056020526000908152604090205481565b61017d610253366004611144565b61051d565b34801561026457600080fd5b50610143610273366004611170565b6109dd565b34801561028457600080fd5b506101db610293366004611170565b60026020526000908152604090205460ff1681565b3480156102b457600080fd5b506101db6102c3366004611170565b60036020526000908152604090205460ff1681565b3480156102e457600080fd5b506103216040518060400160405280601a81526020017f47656e41727437323146696c74657265644d696e74657245544800000000000081525081565b6040516100fa91906111b9565b61017d61033c366004611170565b610a99565b34801561034d57600080fd5b5061014361035c366004611170565b610aa5565b600054604051633af32abf60e01b81526001600160a01b0390911690633af32abf906103919033906004016110e5565b60206040518083038186803b1580156103a957600080fd5b505afa1580156103bd573d6000803e3d6000fd5b505050506040513d601f19601f820116820180604052508101906103e19190611201565b6104065760405162461bcd60e51b81526004016103fd90611223565b60405180910390fd5b60009182526005602052604090912060ff9091169055565b600054604051633af32abf60e01b81526001600160a01b0390911690633af32abf9061044e9033906004016110e5565b60206040518083038186803b15801561046657600080fd5b505afa15801561047a573d6000803e3d6000fd5b505050506040513d601f19601f8201168201806040525081019061049e9190611201565b6104ba5760405162461bcd60e51b81526004016103fd90611223565b600081815260036020908152604091829020805460ff8082161560ff199092168217909255835185815291161515918101919091527fce8ced1e9d6979c7589d3c8786f4d51a8034faa5ff2cbc5a2271364f787feccb910160405180910390a150565b60008181526006602052604081205460ff161561058a5760405162461bcd60e51b815260206004820152602560248201527f4d6178696d756d206e756d626572206f6620696e766f636174696f6e732072656044820152641858da195960da1b60648201526084016103fd565b60008281526002602052604090205460ff166105e2573332146105e25760405162461bcd60e51b815260206004820152601060248201526f4e6f20436f6e7472616374204275797360801b60448201526064016103fd565b60008281526003602052604090205460ff161561064b57336001600160a01b0384161461064b5760405162461bcd60e51b8152602060048201526017602482015276139bc8181c1d5c98da185cd9551bd808105b1b1bddd959604a1b60448201526064016103fd565b6040516208aa8960eb1b602082015260230160408051808303601f190181529082905280516020909101206000546320927ec960e01b83526004830185905290916001600160a01b03909116906320927ec99060240160006040518083038186803b1580156106b957600080fd5b505afa1580156106cd573d6000803e3d6000fd5b505050506040513d6000823e601f3d908101601f191682016040526106f591908101906112f0565b604051602001610705919061132d565b60405160208183030381529060405280519060200120146107685760405162461bcd60e51b815260206004820152601c60248201527f50726f6a6563742063757272656e6379206d757374206265204554480000000060448201526064016103fd565b600054604051633dc303c160e21b8152600481018490526001600160a01b039091169063f70c0f049060240160206040518083038186803b1580156107ac57600080fd5b505afa1580156107c0573d6000803e3d6000fd5b505050506040513d601f19601f820116820180604052508101906107e49190611349565b3410156108335760405162461bcd60e51b815260206004820181905260248201527f4d7573742073656e64206d696e696d756d2076616c756520746f206d696e742160448201526064016103fd565b600082815260056020526040902054156108de576000828152600560209081526040808320543384526004835281842086855290925290912054106108b25760405162461bcd60e51b815260206004820152601560248201527414995858da1959081b5a5b9d1a5b99c81b1a5b5a5d605a1b60448201526064016103fd565b33600090815260046020908152604080832085845290915281208054916108d883611378565b91905055505b6108e782610c04565b600154604051630d4d151360e01b81526001600160a01b0385811660048301526024820185905233604483015290911690630d4d151390606401602060405180830381600087803b15801561093b57600080fd5b505af115801561094f573d6000803e3d6000fd5b505050506040513d601f19601f820116820180604052508101906109739190611349565b600083815260076020526040902054909150158015906109b857506000828152600760205260409020546109a990600190611393565b6109b6620f4240836113c0565b145b156109d7576000828152600660205260409020805460ff191660011790555b92915050565b600054604051633af32abf60e01b81526001600160a01b0390911690633af32abf90610a0d9033906004016110e5565b60206040518083038186803b158015610a2557600080fd5b505afa158015610a39573d6000803e3d6000fd5b505050506040513d601f19601f82011682018060405250810190610a5d9190611201565b610a795760405162461bcd60e51b81526004016103fd90611223565b6000908152600260205260409020805460ff19811660ff90911615179055565b60006109d7338361051d565b600054604051633af32abf60e01b81526001600160a01b0390911690633af32abf90610ad59033906004016110e5565b60206040518083038186803b158015610aed57600080fd5b505afa158015610b01573d6000803e3d6000fd5b505050506040513d601f19601f82011682018060405250810190610b259190611201565b610b415760405162461bcd60e51b81526004016103fd90611223565b600080546040516346161b1160e11b81526004810184905282916001600160a01b031690638c2c36229060240160006040518083038186803b158015610b8657600080fd5b505afa158015610b9a573d6000803e3d6000fd5b505050506040513d6000823e601f3d908101601f19168201604052610bc291908101906113d4565b50505060008981526007602052604090208390555090955090935050505081811015610bff576000838152600660205260409020805460ff191690555b505050565b34156110e25760008054604051633dc303c160e21b8152600481018490526001600160a01b039091169063f70c0f049060240160206040518083038186803b158015610c4f57600080fd5b505afa158015610c63573d6000803e3d6000fd5b505050506040513d601f19601f82011682018060405250810190610c879190611349565b90506000610c958234611393565b90508015610ccc57604051339082156108fc029083906000818181858888f19350505050158015610cca573d6000803e3d6000fd5b505b60008060009054906101000a90046001600160a01b03166001600160a01b0316634f029c396040518163ffffffff1660e01b815260040160206040518083038186803b158015610d1b57600080fd5b505afa158015610d2f573d6000803e3d6000fd5b505050506040513d601f19601f82011682018060405250810190610d539190611349565b610d5e606485611486565b610d68919061149a565b90508015610e2e5760008054906101000a90046001600160a01b03166001600160a01b0316633949f9066040518163ffffffff1660e01b815260040160206040518083038186803b158015610dbc57600080fd5b505afa158015610dd0573d6000803e3d6000fd5b505050506040513d601f19601f82011682018060405250810190610df491906114b9565b6001600160a01b03166108fc829081150290604051600060405180830381858888f19350505050158015610e2c573d6000803e3d6000fd5b505b6000610e3a8285611393565b6000805460405163cc74234b60e01b815260048101899052929350909182916001600160a01b03169063cc74234b9060240160206040518083038186803b158015610e8457600080fd5b505afa158015610e98573d6000803e3d6000fd5b505050506040513d601f19601f82011682018060405250810190610ebc9190611349565b11156110115760005460405163cc74234b60e01b8152600481018890526001600160a01b039091169063cc74234b9060240160206040518083038186803b158015610f0657600080fd5b505afa158015610f1a573d6000803e3d6000fd5b505050506040513d601f19601f82011682018060405250810190610f3e9190611349565b610f49606484611486565b610f53919061149a565b9050801561101157600054604051636bd8225b60e11b8152600481018890526001600160a01b039091169063d7b044b69060240160206040518083038186803b158015610f9f57600080fd5b505afa158015610fb3573d6000803e3d6000fd5b505050506040513d601f19601f82011682018060405250810190610fd791906114b9565b6001600160a01b03166108fc829081150290604051600060405180830381858888f1935050505015801561100f573d6000803e3d6000fd5b505b600061101d8284611393565b905080156110db5760005460405163a47d29cb60e01b8152600481018990526001600160a01b039091169063a47d29cb9060240160206040518083038186803b15801561106957600080fd5b505afa15801561107d573d6000803e3d6000fd5b505050506040513d601f19601f820116820180604052508101906110a191906114b9565b6001600160a01b03166108fc829081150290604051600060405180830381858888f193505050501580156110d9573d6000803e3d6000fd5b505b5050505050505b50565b6001600160a01b0391909116815260200190565b6000806040838503121561110c57600080fd5b82359150602083013560ff8116811461112457600080fd5b809150509250929050565b6001600160a01b03811681146110e257600080fd5b6000806040838503121561115757600080fd5b82356111628161112f565b946020939093013593505050565b60006020828403121561118257600080fd5b5035919050565b60005b838110156111a457818101518382015260200161118c565b838111156111b3576000848401525b50505050565b60208152600082518060208401526111d8816040850160208701611189565b601f01601f19169190910160400192915050565b805180151581146111fc57600080fd5b919050565b60006020828403121561121357600080fd5b61121c826111ec565b9392505050565b60208082526015908201527413db9b1e4810dbdc99481dda1a5d195b1a5cdd1959605a1b604082015260600190565b634e487b7160e01b600052604160045260246000fd5b600082601f83011261127957600080fd5b815167ffffffffffffffff8082111561129457611294611252565b604051601f8301601f19908116603f011681019082821181831017156112bc576112bc611252565b816040528381528660208588010111156112d557600080fd5b6112e6846020830160208901611189565b9695505050505050565b60006020828403121561130257600080fd5b815167ffffffffffffffff81111561131957600080fd5b61132584828501611268565b949350505050565b6000825161133f818460208701611189565b9190910192915050565b60006020828403121561135b57600080fd5b5051919050565b634e487b7160e01b600052601160045260246000fd5b600060001982141561138c5761138c611362565b5060010190565b6000828210156113a5576113a5611362565b500390565b634e487b7160e01b600052601260045260246000fd5b6000826113cf576113cf6113aa565b500690565b60008060008060008060008060006101208a8c0312156113f357600080fd5b89516113fe8161112f565b8099505060208a0151975060408a0151965060608a0151955061142360808b016111ec565b945060a08a01516114338161112f565b60c08b015160e08c0151919550935067ffffffffffffffff81111561145757600080fd5b6114638c828d01611268565b9250506101008a01516114758161112f565b809150509295985092959850929598565b600082611495576114956113aa565b500490565b60008160001904831182151516156114b4576114b4611362565b500290565b6000602082840312156114cb57600080fd5b815161121c8161112f56fea26469706673582212202867e8177f3e86796eddb4cd56463fe353219891768ca51565826f9b515cd6b064736f6c63430008090033",
  "linkReferences": {},
  "deployedLinkReferences": {}
}