{
  "_format": "hh-sol-artifact-1",
  "contractName": "GenArt721CoreV3_Engine_Flex",
  "sourceName": "contracts/GenArt721CoreV3_Engine_Flex.sol",
  "abi": [
    {
      "inputs": [
        {
          "internalType": "string",
          "name": "_tokenName",
          "type": "string"
        },
        {
          "internalType": "string",
          "name": "_tokenSymbol",
          "type": "string"
        },
        {
          "internalType": "address",
          "name": "_renderProviderAddress",
          "type": "address"
        },
        {
          "internalType": "address",
          "name": "_platformProviderAddress",
          "type": "address"
        },
        {
          "internalType": "address",
          "name": "_randomizerContract",
          "type": "address"
        },
        {
          "internalType": "address",
          "name": "_adminACLContract",
          "type": "address"
        },
        {
          "internalType": "uint248",
          "name": "_startingProjectId",
          "type": "uint248"
        },
        {
          "internalType": "bool",
          "name": "_autoApproveArtistSplitProposals",
          "type": "bool"
        },
        {
          "internalType": "address",
          "name": "_engineRegistryContract",
          "type": "address"
        }
      ],
      "stateMutability": "nonpayable",
      "type": "constructor"
    },
    {
      "anonymous": false,
      "inputs": [
        {
          "indexed": true,
          "internalType": "uint256",
          "name": "_projectId",
          "type": "uint256"
        }
      ],
      "name": "AcceptedArtistAddressesAndSplits",
      "type": "event"
    },
    {
      "anonymous": false,
      "inputs": [
        {
          "indexed": true,
          "internalType": "address",
          "name": "owner",
          "type": "address"
        },
        {
          "indexed": true,
          "internalType": "address",
          "name": "approved",
          "type": "address"
        },
        {
          "indexed": true,
          "internalType": "uint256",
          "name": "tokenId",
          "type": "uint256"
        }
      ],
      "name": "Approval",
      "type": "event"
    },
    {
      "anonymous": false,
      "inputs": [
        {
          "indexed": true,
          "internalType": "address",
          "name": "owner",
          "type": "address"
        },
        {
          "indexed": true,
          "internalType": "address",
          "name": "operator",
          "type": "address"
        },
        {
          "indexed": false,
          "internalType": "bool",
          "name": "approved",
          "type": "bool"
        }
      ],
      "name": "ApprovalForAll",
      "type": "event"
    },
    {
      "anonymous": false,
      "inputs": [
        {
          "indexed": true,
          "internalType": "uint256",
          "name": "_projectId",
          "type": "uint256"
        },
        {
          "indexed": true,
          "internalType": "uint256",
          "name": "_index",
          "type": "uint256"
        }
      ],
      "name": "ExternalAssetDependencyRemoved",
      "type": "event"
    },
    {
      "anonymous": false,
      "inputs": [
        {
          "indexed": true,
          "internalType": "uint256",
          "name": "_projectId",
          "type": "uint256"
        },
        {
          "indexed": true,
          "internalType": "uint256",
          "name": "_index",
          "type": "uint256"
        },
        {
          "indexed": false,
          "internalType": "string",
          "name": "_cid",
          "type": "string"
        },
        {
          "indexed": false,
          "internalType": "enum IGenArt721CoreContractV3_Engine_Flex.ExternalAssetDependencyType",
          "name": "_dependencyType",
          "type": "uint8"
        },
        {
          "indexed": false,
          "internalType": "uint24",
          "name": "_externalAssetDependencyCount",
          "type": "uint24"
        }
      ],
      "name": "ExternalAssetDependencyUpdated",
      "type": "event"
    },
    {
      "anonymous": false,
      "inputs": [
        {
          "indexed": true,
          "internalType": "enum IGenArt721CoreContractV3_Engine_Flex.ExternalAssetDependencyType",
          "name": "_dependencyType",
          "type": "uint8"
        },
        {
          "indexed": false,
          "internalType": "string",
          "name": "_gatewayAddress",
          "type": "string"
        }
      ],
      "name": "GatewayUpdated",
      "type": "event"
    },
    {
      "anonymous": false,
      "inputs": [
        {
          "indexed": true,
          "internalType": "address",
          "name": "_to",
          "type": "address"
        },
        {
          "indexed": true,
          "internalType": "uint256",
          "name": "_tokenId",
          "type": "uint256"
        }
      ],
      "name": "Mint",
      "type": "event"
    },
    {
      "anonymous": false,
      "inputs": [
        {
          "indexed": true,
          "internalType": "address",
          "name": "_currentMinter",
          "type": "address"
        }
      ],
      "name": "MinterUpdated",
      "type": "event"
    },
    {
      "anonymous": false,
      "inputs": [
        {
          "indexed": true,
          "internalType": "address",
          "name": "previousOwner",
          "type": "address"
        },
        {
          "indexed": true,
          "internalType": "address",
          "name": "newOwner",
          "type": "address"
        }
      ],
      "name": "OwnershipTransferred",
      "type": "event"
    },
    {
      "anonymous": false,
      "inputs": [
        {
          "indexed": true,
          "internalType": "bytes32",
          "name": "_field",
          "type": "bytes32"
        }
      ],
      "name": "PlatformUpdated",
      "type": "event"
    },
    {
      "anonymous": false,
      "inputs": [
        {
          "indexed": true,
          "internalType": "uint256",
          "name": "_projectId",
          "type": "uint256"
        }
      ],
      "name": "ProjectExternalAssetDependenciesLocked",
      "type": "event"
    },
    {
      "anonymous": false,
      "inputs": [
        {
          "indexed": true,
          "internalType": "uint256",
          "name": "_projectId",
          "type": "uint256"
        },
        {
          "indexed": true,
          "internalType": "bytes32",
          "name": "_update",
          "type": "bytes32"
        }
      ],
      "name": "ProjectUpdated",
      "type": "event"
    },
    {
      "anonymous": false,
      "inputs": [
        {
          "indexed": true,
          "internalType": "uint256",
          "name": "_projectId",
          "type": "uint256"
        },
        {
          "indexed": false,
          "internalType": "address",
          "name": "_artistAddress",
          "type": "address"
        },
        {
          "indexed": false,
          "internalType": "address",
          "name": "_additionalPayeePrimarySales",
          "type": "address"
        },
        {
          "indexed": false,
          "internalType": "uint256",
          "name": "_additionalPayeePrimarySalesPercentage",
          "type": "uint256"
        },
        {
          "indexed": false,
          "internalType": "address",
          "name": "_additionalPayeeSecondarySales",
          "type": "address"
        },
        {
          "indexed": false,
          "internalType": "uint256",
          "name": "_additionalPayeeSecondarySalesPercentage",
          "type": "uint256"
        }
      ],
      "name": "ProposedArtistAddressesAndSplits",
      "type": "event"
    },
    {
      "anonymous": false,
      "inputs": [
        {
          "indexed": true,
          "internalType": "address",
          "name": "from",
          "type": "address"
        },
        {
          "indexed": true,
          "internalType": "address",
          "name": "to",
          "type": "address"
        },
        {
          "indexed": true,
          "internalType": "uint256",
          "name": "tokenId",
          "type": "uint256"
        }
      ],
      "name": "Transfer",
      "type": "event"
    },
    {
      "inputs": [
        {
          "internalType": "string",
          "name": "_projectName",
          "type": "string"
        },
        {
          "internalType": "address payable",
          "name": "_artistAddress",
          "type": "address"
        }
      ],
      "name": "addProject",
      "outputs": [],
      "stateMutability": "nonpayable",
      "type": "function"
    },
    {
      "inputs": [
        {
          "internalType": "uint256",
          "name": "_projectId",
          "type": "uint256"
        },
        {
          "internalType": "string",
          "name": "_cidOrData",
          "type": "string"
        },
        {
          "internalType": "enum IGenArt721CoreContractV3_Engine_Flex.ExternalAssetDependencyType",
          "name": "_dependencyType",
          "type": "uint8"
        }
      ],
      "name": "addProjectExternalAssetDependency",
      "outputs": [],
      "stateMutability": "nonpayable",
      "type": "function"
    },
    {
      "inputs": [
        {
          "internalType": "uint256",
          "name": "_projectId",
          "type": "uint256"
        },
        {
          "internalType": "string",
          "name": "_script",
          "type": "string"
        }
      ],
      "name": "addProjectScript",
      "outputs": [],
      "stateMutability": "nonpayable",
      "type": "function"
    },
    {
      "inputs": [],
      "name": "admin",
      "outputs": [
        {
          "internalType": "address",
          "name": "",
          "type": "address"
        }
      ],
      "stateMutability": "view",
      "type": "function"
    },
    {
      "inputs": [
        {
          "internalType": "address",
          "name": "_sender",
          "type": "address"
        },
        {
          "internalType": "address",
          "name": "_contract",
          "type": "address"
        },
        {
          "internalType": "bytes4",
          "name": "_selector",
          "type": "bytes4"
        }
      ],
      "name": "adminACLAllowed",
      "outputs": [
        {
          "internalType": "bool",
          "name": "",
          "type": "bool"
        }
      ],
      "stateMutability": "nonpayable",
      "type": "function"
    },
    {
      "inputs": [],
      "name": "adminACLContract",
      "outputs": [
        {
          "internalType": "contract IAdminACLV0",
          "name": "",
          "type": "address"
        }
      ],
      "stateMutability": "view",
      "type": "function"
    },
    {
      "inputs": [
        {
          "internalType": "uint256",
          "name": "_projectId",
          "type": "uint256"
        },
        {
          "internalType": "address payable",
          "name": "_artistAddress",
          "type": "address"
        },
        {
          "internalType": "address payable",
          "name": "_additionalPayeePrimarySales",
          "type": "address"
        },
        {
          "internalType": "uint256",
          "name": "_additionalPayeePrimarySalesPercentage",
          "type": "uint256"
        },
        {
          "internalType": "address payable",
          "name": "_additionalPayeeSecondarySales",
          "type": "address"
        },
        {
          "internalType": "uint256",
          "name": "_additionalPayeeSecondarySalesPercentage",
          "type": "uint256"
        }
      ],
      "name": "adminAcceptArtistAddressesAndSplits",
      "outputs": [],
      "stateMutability": "nonpayable",
      "type": "function"
    },
    {
      "inputs": [
        {
          "internalType": "address",
          "name": "to",
          "type": "address"
        },
        {
          "internalType": "uint256",
          "name": "tokenId",
          "type": "uint256"
        }
      ],
      "name": "approve",
      "outputs": [],
      "stateMutability": "nonpayable",
      "type": "function"
    },
    {
      "inputs": [],
      "name": "artblocksDependencyRegistryAddress",
      "outputs": [
        {
          "internalType": "address",
          "name": "",
          "type": "address"
        }
      ],
      "stateMutability": "view",
      "type": "function"
    },
    {
      "inputs": [],
      "name": "autoApproveArtistSplitProposals",
      "outputs": [
        {
          "internalType": "bool",
          "name": "",
          "type": "bool"
        }
      ],
      "stateMutability": "view",
      "type": "function"
    },
    {
      "inputs": [
        {
          "internalType": "address",
          "name": "owner",
          "type": "address"
        }
      ],
      "name": "balanceOf",
      "outputs": [
        {
          "internalType": "uint256",
          "name": "",
          "type": "uint256"
        }
      ],
      "stateMutability": "view",
      "type": "function"
    },
    {
      "inputs": [],
      "name": "coreType",
      "outputs": [
        {
          "internalType": "string",
          "name": "",
          "type": "string"
        }
      ],
      "stateMutability": "pure",
      "type": "function"
    },
    {
      "inputs": [],
      "name": "coreVersion",
      "outputs": [
        {
          "internalType": "string",
          "name": "",
          "type": "string"
        }
      ],
      "stateMutability": "pure",
      "type": "function"
    },
    {
      "inputs": [],
      "name": "defaultBaseURI",
      "outputs": [
        {
          "internalType": "string",
          "name": "",
          "type": "string"
        }
      ],
      "stateMutability": "view",
      "type": "function"
    },
    {
      "inputs": [],
      "name": "forbidNewProjects",
      "outputs": [],
      "stateMutability": "nonpayable",
      "type": "function"
    },
    {
      "inputs": [
        {
          "internalType": "uint256",
          "name": "tokenId",
          "type": "uint256"
        }
      ],
      "name": "getApproved",
      "outputs": [
        {
          "internalType": "address",
          "name": "",
          "type": "address"
        }
      ],
      "stateMutability": "view",
      "type": "function"
    },
    {
      "inputs": [
        {
          "internalType": "uint256",
          "name": "_index",
          "type": "uint256"
        }
      ],
      "name": "getHistoricalRandomizerAt",
      "outputs": [
        {
          "internalType": "address",
          "name": "",
          "type": "address"
        }
      ],
      "stateMutability": "view",
      "type": "function"
    },
    {
      "inputs": [
        {
          "internalType": "uint256",
          "name": "_projectId",
          "type": "uint256"
        },
        {
          "internalType": "uint256",
          "name": "_price",
          "type": "uint256"
        }
      ],
      "name": "getPrimaryRevenueSplits",
      "outputs": [
        {
          "internalType": "uint256",
          "name": "renderProviderRevenue_",
          "type": "uint256"
        },
        {
          "internalType": "address payable",
          "name": "renderProviderAddress_",
          "type": "address"
        },
        {
          "internalType": "uint256",
          "name": "platformProviderRevenue_",
          "type": "uint256"
        },
        {
          "internalType": "address payable",
          "name": "platformProviderAddress_",
          "type": "address"
        },
        {
          "internalType": "uint256",
          "name": "artistRevenue_",
          "type": "uint256"
        },
        {
          "internalType": "address payable",
          "name": "artistAddress_",
          "type": "address"
        },
        {
          "internalType": "uint256",
          "name": "additionalPayeePrimaryRevenue_",
          "type": "uint256"
        },
        {
          "internalType": "address payable",
          "name": "additionalPayeePrimaryAddress_",
          "type": "address"
        }
      ],
      "stateMutability": "view",
      "type": "function"
    },
    {
      "inputs": [
        {
          "internalType": "uint256",
          "name": "_tokenId",
          "type": "uint256"
        }
      ],
      "name": "getRoyalties",
      "outputs": [
        {
          "internalType": "address payable[]",
          "name": "recipients",
          "type": "address[]"
        },
        {
          "internalType": "uint256[]",
          "name": "bps",
          "type": "uint256[]"
        }
      ],
      "stateMutability": "view",
      "type": "function"
    },
    {
      "inputs": [
        {
          "internalType": "address",
          "name": "owner",
          "type": "address"
        },
        {
          "internalType": "address",
          "name": "operator",
          "type": "address"
        }
      ],
      "name": "isApprovedForAll",
      "outputs": [
        {
          "internalType": "bool",
          "name": "",
          "type": "bool"
        }
      ],
      "stateMutability": "view",
      "type": "function"
    },
    {
      "inputs": [
        {
          "internalType": "address",
          "name": "_minter",
          "type": "address"
        }
      ],
      "name": "isMintWhitelisted",
      "outputs": [
        {
          "internalType": "bool",
          "name": "",
          "type": "bool"
        }
      ],
      "stateMutability": "view",
      "type": "function"
    },
    {
      "inputs": [
        {
          "internalType": "uint256",
          "name": "_projectId",
          "type": "uint256"
        }
      ],
      "name": "lockProjectExternalAssetDependencies",
      "outputs": [],
      "stateMutability": "nonpayable",
      "type": "function"
    },
    {
      "inputs": [
        {
          "internalType": "address",
          "name": "_to",
          "type": "address"
        },
        {
          "internalType": "uint256",
          "name": "_projectId",
          "type": "uint256"
        },
        {
          "internalType": "address",
          "name": "_by",
          "type": "address"
        }
      ],
      "name": "mint_Ecf",
      "outputs": [
        {
          "internalType": "uint256",
          "name": "_tokenId",
          "type": "uint256"
        }
      ],
      "stateMutability": "nonpayable",
      "type": "function"
    },
    {
      "inputs": [],
      "name": "minterContract",
      "outputs": [
        {
          "internalType": "address",
          "name": "",
          "type": "address"
        }
      ],
      "stateMutability": "view",
      "type": "function"
    },
    {
      "inputs": [],
      "name": "name",
      "outputs": [
        {
          "internalType": "string",
          "name": "",
          "type": "string"
        }
      ],
      "stateMutability": "view",
      "type": "function"
    },
    {
      "inputs": [],
      "name": "newProjectsForbidden",
      "outputs": [
        {
          "internalType": "bool",
          "name": "",
          "type": "bool"
        }
      ],
      "stateMutability": "view",
      "type": "function"
    },
    {
      "inputs": [],
      "name": "nextProjectId",
      "outputs": [
        {
          "internalType": "uint256",
          "name": "",
          "type": "uint256"
        }
      ],
      "stateMutability": "view",
      "type": "function"
    },
    {
      "inputs": [],
      "name": "numHistoricalRandomizers",
      "outputs": [
        {
          "internalType": "uint256",
          "name": "",
          "type": "uint256"
        }
      ],
      "stateMutability": "view",
      "type": "function"
    },
    {
      "inputs": [],
      "name": "owner",
      "outputs": [
        {
          "internalType": "address",
          "name": "",
          "type": "address"
        }
      ],
      "stateMutability": "view",
      "type": "function"
    },
    {
      "inputs": [
        {
          "internalType": "uint256",
          "name": "tokenId",
          "type": "uint256"
        }
      ],
      "name": "ownerOf",
      "outputs": [
        {
          "internalType": "address",
          "name": "",
          "type": "address"
        }
      ],
      "stateMutability": "view",
      "type": "function"
    },
    {
      "inputs": [],
      "name": "platformProviderPrimarySalesAddress",
      "outputs": [
        {
          "internalType": "address payable",
          "name": "",
          "type": "address"
        }
      ],
      "stateMutability": "view",
      "type": "function"
    },
    {
      "inputs": [],
      "name": "platformProviderPrimarySalesPercentage",
      "outputs": [
        {
          "internalType": "uint256",
          "name": "",
          "type": "uint256"
        }
      ],
      "stateMutability": "view",
      "type": "function"
    },
    {
      "inputs": [],
      "name": "platformProviderSecondarySalesAddress",
      "outputs": [
        {
          "internalType": "address payable",
          "name": "",
          "type": "address"
        }
      ],
      "stateMutability": "view",
      "type": "function"
    },
    {
      "inputs": [],
      "name": "platformProviderSecondarySalesBPS",
      "outputs": [
        {
          "internalType": "uint256",
          "name": "",
          "type": "uint256"
        }
      ],
      "stateMutability": "view",
      "type": "function"
    },
    {
      "inputs": [],
      "name": "preferredArweaveGateway",
      "outputs": [
        {
          "internalType": "string",
          "name": "",
          "type": "string"
        }
      ],
      "stateMutability": "view",
      "type": "function"
    },
    {
      "inputs": [],
      "name": "preferredIPFSGateway",
      "outputs": [
        {
          "internalType": "string",
          "name": "",
          "type": "string"
        }
      ],
      "stateMutability": "view",
      "type": "function"
    },
    {
      "inputs": [
        {
          "internalType": "uint256",
          "name": "_projectId",
          "type": "uint256"
        }
      ],
      "name": "projectArtistPaymentInfo",
      "outputs": [
        {
          "internalType": "address",
          "name": "artistAddress",
          "type": "address"
        },
        {
          "internalType": "address",
          "name": "additionalPayeePrimarySales",
          "type": "address"
        },
        {
          "internalType": "uint256",
          "name": "additionalPayeePrimarySalesPercentage",
          "type": "uint256"
        },
        {
          "internalType": "address",
          "name": "additionalPayeeSecondarySales",
          "type": "address"
        },
        {
          "internalType": "uint256",
          "name": "additionalPayeeSecondarySalesPercentage",
          "type": "uint256"
        },
        {
          "internalType": "uint256",
          "name": "secondaryMarketRoyaltyPercentage",
          "type": "uint256"
        }
      ],
      "stateMutability": "view",
      "type": "function"
    },
    {
      "inputs": [
        {
          "internalType": "uint256",
          "name": "_projectId",
          "type": "uint256"
        }
      ],
      "name": "projectDetails",
      "outputs": [
        {
          "internalType": "string",
          "name": "projectName",
          "type": "string"
        },
        {
          "internalType": "string",
          "name": "artist",
          "type": "string"
        },
        {
          "internalType": "string",
          "name": "description",
          "type": "string"
        },
        {
          "internalType": "string",
          "name": "website",
          "type": "string"
        },
        {
          "internalType": "string",
          "name": "license",
          "type": "string"
        }
      ],
      "stateMutability": "view",
      "type": "function"
    },
    {
      "inputs": [
        {
          "internalType": "uint256",
          "name": "_projectId",
          "type": "uint256"
        },
        {
          "internalType": "uint256",
          "name": "_index",
          "type": "uint256"
        }
      ],
      "name": "projectExternalAssetDependencyByIndex",
      "outputs": [
        {
          "components": [
            {
              "internalType": "string",
              "name": "cid",
              "type": "string"
            },
            {
              "internalType": "enum IGenArt721CoreContractV3_Engine_Flex.ExternalAssetDependencyType",
              "name": "dependencyType",
              "type": "uint8"
            },
            {
              "internalType": "address",
              "name": "bytecodeAddress",
              "type": "address"
            },
            {
              "internalType": "string",
              "name": "data",
              "type": "string"
            }
          ],
          "internalType": "struct IGenArt721CoreContractV3_Engine_Flex.ExternalAssetDependencyWithData",
          "name": "",
          "type": "tuple"
        }
      ],
      "stateMutability": "view",
      "type": "function"
    },
    {
      "inputs": [
        {
          "internalType": "uint256",
          "name": "_projectId",
          "type": "uint256"
        }
      ],
      "name": "projectExternalAssetDependencyCount",
      "outputs": [
        {
          "internalType": "uint256",
          "name": "",
          "type": "uint256"
        }
      ],
      "stateMutability": "view",
      "type": "function"
    },
    {
      "inputs": [
        {
          "internalType": "uint256",
          "name": "_projectId",
          "type": "uint256"
        }
      ],
      "name": "projectIdToAdditionalPayeePrimarySales",
      "outputs": [
        {
          "internalType": "address payable",
          "name": "",
          "type": "address"
        }
      ],
      "stateMutability": "view",
      "type": "function"
    },
    {
      "inputs": [
        {
          "internalType": "uint256",
          "name": "_projectId",
          "type": "uint256"
        }
      ],
      "name": "projectIdToAdditionalPayeePrimarySalesPercentage",
      "outputs": [
        {
          "internalType": "uint256",
          "name": "",
          "type": "uint256"
        }
      ],
      "stateMutability": "view",
      "type": "function"
    },
    {
      "inputs": [
        {
          "internalType": "uint256",
          "name": "_projectId",
          "type": "uint256"
        }
      ],
      "name": "projectIdToAdditionalPayeeSecondarySales",
      "outputs": [
        {
          "internalType": "address payable",
          "name": "",
          "type": "address"
        }
      ],
      "stateMutability": "view",
      "type": "function"
    },
    {
      "inputs": [
        {
          "internalType": "uint256",
          "name": "_projectId",
          "type": "uint256"
        }
      ],
      "name": "projectIdToAdditionalPayeeSecondarySalesPercentage",
      "outputs": [
        {
          "internalType": "uint256",
          "name": "",
          "type": "uint256"
        }
      ],
      "stateMutability": "view",
      "type": "function"
    },
    {
      "inputs": [
        {
          "internalType": "uint256",
          "name": "_projectId",
          "type": "uint256"
        }
      ],
      "name": "projectIdToArtistAddress",
      "outputs": [
        {
          "internalType": "address payable",
          "name": "",
          "type": "address"
        }
      ],
      "stateMutability": "view",
      "type": "function"
    },
    {
      "inputs": [
        {
          "internalType": "uint256",
          "name": "_projectId",
          "type": "uint256"
        }
      ],
      "name": "projectIdToSecondaryMarketRoyaltyPercentage",
      "outputs": [
        {
          "internalType": "uint256",
          "name": "",
          "type": "uint256"
        }
      ],
      "stateMutability": "view",
      "type": "function"
    },
    {
      "inputs": [
        {
          "internalType": "uint256",
          "name": "_projectId",
          "type": "uint256"
        },
        {
          "internalType": "uint256",
          "name": "_index",
          "type": "uint256"
        }
      ],
      "name": "projectScriptByIndex",
      "outputs": [
        {
          "internalType": "string",
          "name": "",
          "type": "string"
        }
      ],
      "stateMutability": "view",
      "type": "function"
    },
    {
      "inputs": [
        {
          "internalType": "uint256",
          "name": "_projectId",
          "type": "uint256"
        },
        {
          "internalType": "uint256",
          "name": "_index",
          "type": "uint256"
        }
      ],
      "name": "projectScriptBytecodeAddressByIndex",
      "outputs": [
        {
          "internalType": "address",
          "name": "",
          "type": "address"
        }
      ],
      "stateMutability": "view",
      "type": "function"
    },
    {
      "inputs": [
        {
          "internalType": "uint256",
          "name": "_projectId",
          "type": "uint256"
        }
      ],
      "name": "projectScriptDetails",
      "outputs": [
        {
          "internalType": "string",
          "name": "scriptTypeAndVersion",
          "type": "string"
        },
        {
          "internalType": "string",
          "name": "aspectRatio",
          "type": "string"
        },
        {
          "internalType": "uint256",
          "name": "scriptCount",
          "type": "uint256"
        }
      ],
      "stateMutability": "view",
      "type": "function"
    },
    {
      "inputs": [
        {
          "internalType": "uint256",
          "name": "_projectId",
          "type": "uint256"
        }
      ],
      "name": "projectStateData",
      "outputs": [
        {
          "internalType": "uint256",
          "name": "invocations",
          "type": "uint256"
        },
        {
          "internalType": "uint256",
          "name": "maxInvocations",
          "type": "uint256"
        },
        {
          "internalType": "bool",
          "name": "active",
          "type": "bool"
        },
        {
          "internalType": "bool",
          "name": "paused",
          "type": "bool"
        },
        {
          "internalType": "uint256",
          "name": "completedTimestamp",
          "type": "uint256"
        },
        {
          "internalType": "bool",
          "name": "locked",
          "type": "bool"
        }
      ],
      "stateMutability": "view",
      "type": "function"
    },
    {
      "inputs": [
        {
          "internalType": "uint256",
          "name": "_projectId",
          "type": "uint256"
        }
      ],
      "name": "projectURIInfo",
      "outputs": [
        {
          "internalType": "string",
          "name": "projectBaseURI",
          "type": "string"
        }
      ],
      "stateMutability": "view",
      "type": "function"
    },
    {
      "inputs": [
        {
          "internalType": "uint256",
          "name": "_projectId",
          "type": "uint256"
        },
        {
          "internalType": "address payable",
          "name": "_artistAddress",
          "type": "address"
        },
        {
          "internalType": "address payable",
          "name": "_additionalPayeePrimarySales",
          "type": "address"
        },
        {
          "internalType": "uint256",
          "name": "_additionalPayeePrimarySalesPercentage",
          "type": "uint256"
        },
        {
          "internalType": "address payable",
          "name": "_additionalPayeeSecondarySales",
          "type": "address"
        },
        {
          "internalType": "uint256",
          "name": "_additionalPayeeSecondarySalesPercentage",
          "type": "uint256"
        }
      ],
      "name": "proposeArtistPaymentAddressesAndSplits",
      "outputs": [],
      "stateMutability": "nonpayable",
      "type": "function"
    },
    {
      "inputs": [
        {
          "internalType": "uint256",
          "name": "",
          "type": "uint256"
        }
      ],
      "name": "proposedArtistAddressesAndSplitsHash",
      "outputs": [
        {
          "internalType": "bytes32",
          "name": "",
          "type": "bytes32"
        }
      ],
      "stateMutability": "view",
      "type": "function"
    },
    {
      "inputs": [],
      "name": "randomizerContract",
      "outputs": [
        {
          "internalType": "contract IRandomizerV2",
          "name": "",
          "type": "address"
        }
      ],
      "stateMutability": "view",
      "type": "function"
    },
    {
      "inputs": [
        {
          "internalType": "uint256",
          "name": "_projectId",
          "type": "uint256"
        },
        {
          "internalType": "uint256",
          "name": "_index",
          "type": "uint256"
        }
      ],
      "name": "removeProjectExternalAssetDependency",
      "outputs": [],
      "stateMutability": "nonpayable",
      "type": "function"
    },
    {
      "inputs": [
        {
          "internalType": "uint256",
          "name": "_projectId",
          "type": "uint256"
        }
      ],
      "name": "removeProjectLastScript",
      "outputs": [],
      "stateMutability": "nonpayable",
      "type": "function"
    },
    {
      "inputs": [],
      "name": "renderProviderPrimarySalesAddress",
      "outputs": [
        {
          "internalType": "address payable",
          "name": "",
          "type": "address"
        }
      ],
      "stateMutability": "view",
      "type": "function"
    },
    {
      "inputs": [],
      "name": "renderProviderPrimarySalesPercentage",
      "outputs": [
        {
          "internalType": "uint256",
          "name": "",
          "type": "uint256"
        }
      ],
      "stateMutability": "view",
      "type": "function"
    },
    {
      "inputs": [],
      "name": "renderProviderSecondarySalesAddress",
      "outputs": [
        {
          "internalType": "address payable",
          "name": "",
          "type": "address"
        }
      ],
      "stateMutability": "view",
      "type": "function"
    },
    {
      "inputs": [],
      "name": "renderProviderSecondarySalesBPS",
      "outputs": [
        {
          "internalType": "uint256",
          "name": "",
          "type": "uint256"
        }
      ],
      "stateMutability": "view",
      "type": "function"
    },
    {
      "inputs": [],
      "name": "renounceOwnership",
      "outputs": [],
      "stateMutability": "nonpayable",
      "type": "function"
    },
    {
      "inputs": [
        {
          "internalType": "address",
          "name": "from",
          "type": "address"
        },
        {
          "internalType": "address",
          "name": "to",
          "type": "address"
        },
        {
          "internalType": "uint256",
          "name": "tokenId",
          "type": "uint256"
        }
      ],
      "name": "safeTransferFrom",
      "outputs": [],
      "stateMutability": "nonpayable",
      "type": "function"
    },
    {
      "inputs": [
        {
          "internalType": "address",
          "name": "from",
          "type": "address"
        },
        {
          "internalType": "address",
          "name": "to",
          "type": "address"
        },
        {
          "internalType": "uint256",
          "name": "tokenId",
          "type": "uint256"
        },
        {
          "internalType": "bytes",
          "name": "data",
          "type": "bytes"
        }
      ],
      "name": "safeTransferFrom",
      "outputs": [],
      "stateMutability": "nonpayable",
      "type": "function"
    },
    {
      "inputs": [
        {
          "internalType": "address",
          "name": "operator",
          "type": "address"
        },
        {
          "internalType": "bool",
          "name": "approved",
          "type": "bool"
        }
      ],
      "name": "setApprovalForAll",
      "outputs": [],
      "stateMutability": "nonpayable",
      "type": "function"
    },
    {
      "inputs": [
        {
          "internalType": "uint256",
          "name": "_tokenId",
          "type": "uint256"
        },
        {
          "internalType": "bytes32",
          "name": "_hashSeed",
          "type": "bytes32"
        }
      ],
      "name": "setTokenHash_8PT",
      "outputs": [],
      "stateMutability": "nonpayable",
      "type": "function"
    },
    {
      "inputs": [],
      "name": "startingProjectId",
      "outputs": [
        {
          "internalType": "uint256",
          "name": "",
          "type": "uint256"
        }
      ],
      "stateMutability": "view",
      "type": "function"
    },
    {
      "inputs": [
        {
          "internalType": "bytes4",
          "name": "interfaceId",
          "type": "bytes4"
        }
      ],
      "name": "supportsInterface",
      "outputs": [
        {
          "internalType": "bool",
          "name": "",
          "type": "bool"
        }
      ],
      "stateMutability": "view",
      "type": "function"
    },
    {
      "inputs": [],
      "name": "symbol",
      "outputs": [
        {
          "internalType": "string",
          "name": "",
          "type": "string"
        }
      ],
      "stateMutability": "view",
      "type": "function"
    },
    {
      "inputs": [
        {
          "internalType": "uint256",
          "name": "_projectId",
          "type": "uint256"
        }
      ],
      "name": "toggleProjectIsActive",
      "outputs": [],
      "stateMutability": "nonpayable",
      "type": "function"
    },
    {
      "inputs": [
        {
          "internalType": "uint256",
          "name": "_projectId",
          "type": "uint256"
        }
      ],
      "name": "toggleProjectIsPaused",
      "outputs": [],
      "stateMutability": "nonpayable",
      "type": "function"
    },
    {
      "inputs": [
        {
          "internalType": "uint256",
          "name": "_tokenId",
          "type": "uint256"
        }
      ],
      "name": "tokenIdToHash",
      "outputs": [
        {
          "internalType": "bytes32",
          "name": "",
          "type": "bytes32"
        }
      ],
      "stateMutability": "view",
      "type": "function"
    },
    {
      "inputs": [
        {
          "internalType": "uint256",
          "name": "_tokenId",
          "type": "uint256"
        }
      ],
      "name": "tokenIdToHashSeed",
      "outputs": [
        {
          "internalType": "bytes12",
          "name": "",
          "type": "bytes12"
        }
      ],
      "stateMutability": "view",
      "type": "function"
    },
    {
      "inputs": [
        {
          "internalType": "uint256",
          "name": "_tokenId",
          "type": "uint256"
        }
      ],
      "name": "tokenIdToProjectId",
      "outputs": [
        {
          "internalType": "uint256",
          "name": "_projectId",
          "type": "uint256"
        }
      ],
      "stateMutability": "pure",
      "type": "function"
    },
    {
      "inputs": [
        {
          "internalType": "uint256",
          "name": "_tokenId",
          "type": "uint256"
        }
      ],
      "name": "tokenURI",
      "outputs": [
        {
          "internalType": "string",
          "name": "",
          "type": "string"
        }
      ],
      "stateMutability": "view",
      "type": "function"
    },
    {
      "inputs": [
        {
          "internalType": "address",
          "name": "from",
          "type": "address"
        },
        {
          "internalType": "address",
          "name": "to",
          "type": "address"
        },
        {
          "internalType": "uint256",
          "name": "tokenId",
          "type": "uint256"
        }
      ],
      "name": "transferFrom",
      "outputs": [],
      "stateMutability": "nonpayable",
      "type": "function"
    },
    {
      "inputs": [
        {
          "internalType": "address",
          "name": "newOwner",
          "type": "address"
        }
      ],
      "name": "transferOwnership",
      "outputs": [],
      "stateMutability": "nonpayable",
      "type": "function"
    },
    {
      "inputs": [
        {
          "internalType": "address",
          "name": "_artblocksDependencyRegistryAddress",
          "type": "address"
        }
      ],
      "name": "updateArtblocksDependencyRegistryAddress",
      "outputs": [],
      "stateMutability": "nonpayable",
      "type": "function"
    },
    {
      "inputs": [
        {
          "internalType": "string",
          "name": "_gateway",
          "type": "string"
        }
      ],
      "name": "updateArweaveGateway",
      "outputs": [],
      "stateMutability": "nonpayable",
      "type": "function"
    },
    {
      "inputs": [
        {
          "internalType": "string",
          "name": "_defaultBaseURI",
          "type": "string"
        }
      ],
      "name": "updateDefaultBaseURI",
      "outputs": [],
      "stateMutability": "nonpayable",
      "type": "function"
    },
    {
      "inputs": [
        {
          "internalType": "string",
          "name": "_gateway",
          "type": "string"
        }
      ],
      "name": "updateIPFSGateway",
      "outputs": [],
      "stateMutability": "nonpayable",
      "type": "function"
    },
    {
      "inputs": [
        {
          "internalType": "address",
          "name": "_address",
          "type": "address"
        }
      ],
      "name": "updateMinterContract",
      "outputs": [],
      "stateMutability": "nonpayable",
      "type": "function"
    },
    {
      "inputs": [
        {
          "internalType": "uint256",
          "name": "_projectId",
          "type": "uint256"
        },
        {
          "internalType": "address payable",
          "name": "_artistAddress",
          "type": "address"
        }
      ],
      "name": "updateProjectArtistAddress",
      "outputs": [],
      "stateMutability": "nonpayable",
      "type": "function"
    },
    {
      "inputs": [
        {
          "internalType": "uint256",
          "name": "_projectId",
          "type": "uint256"
        },
        {
          "internalType": "string",
          "name": "_projectArtistName",
          "type": "string"
        }
      ],
      "name": "updateProjectArtistName",
      "outputs": [],
      "stateMutability": "nonpayable",
      "type": "function"
    },
    {
      "inputs": [
        {
          "internalType": "uint256",
          "name": "_projectId",
          "type": "uint256"
        },
        {
          "internalType": "string",
          "name": "_aspectRatio",
          "type": "string"
        }
      ],
      "name": "updateProjectAspectRatio",
      "outputs": [],
      "stateMutability": "nonpayable",
      "type": "function"
    },
    {
      "inputs": [
        {
          "internalType": "uint256",
          "name": "_projectId",
          "type": "uint256"
        },
        {
          "internalType": "string",
          "name": "_newBaseURI",
          "type": "string"
        }
      ],
      "name": "updateProjectBaseURI",
      "outputs": [],
      "stateMutability": "nonpayable",
      "type": "function"
    },
    {
      "inputs": [
        {
          "internalType": "uint256",
          "name": "_projectId",
          "type": "uint256"
        },
        {
          "internalType": "string",
          "name": "_projectDescription",
          "type": "string"
        }
      ],
      "name": "updateProjectDescription",
      "outputs": [],
      "stateMutability": "nonpayable",
      "type": "function"
    },
    {
      "inputs": [
        {
          "internalType": "uint256",
          "name": "_projectId",
          "type": "uint256"
        },
        {
          "internalType": "uint256",
          "name": "_index",
          "type": "uint256"
        },
        {
          "internalType": "string",
          "name": "_cidOrData",
          "type": "string"
        },
        {
          "internalType": "enum IGenArt721CoreContractV3_Engine_Flex.ExternalAssetDependencyType",
          "name": "_dependencyType",
          "type": "uint8"
        }
      ],
      "name": "updateProjectExternalAssetDependency",
      "outputs": [],
      "stateMutability": "nonpayable",
      "type": "function"
    },
    {
      "inputs": [
        {
          "internalType": "uint256",
          "name": "_projectId",
          "type": "uint256"
        },
        {
          "internalType": "string",
          "name": "_projectLicense",
          "type": "string"
        }
      ],
      "name": "updateProjectLicense",
      "outputs": [],
      "stateMutability": "nonpayable",
      "type": "function"
    },
    {
      "inputs": [
        {
          "internalType": "uint256",
          "name": "_projectId",
          "type": "uint256"
        },
        {
          "internalType": "uint24",
          "name": "_maxInvocations",
          "type": "uint24"
        }
      ],
      "name": "updateProjectMaxInvocations",
      "outputs": [],
      "stateMutability": "nonpayable",
      "type": "function"
    },
    {
      "inputs": [
        {
          "internalType": "uint256",
          "name": "_projectId",
          "type": "uint256"
        },
        {
          "internalType": "string",
          "name": "_projectName",
          "type": "string"
        }
      ],
      "name": "updateProjectName",
      "outputs": [],
      "stateMutability": "nonpayable",
      "type": "function"
    },
    {
      "inputs": [
        {
          "internalType": "uint256",
          "name": "_projectId",
          "type": "uint256"
        },
        {
          "internalType": "uint256",
          "name": "_scriptId",
          "type": "uint256"
        },
        {
          "internalType": "string",
          "name": "_script",
          "type": "string"
        }
      ],
      "name": "updateProjectScript",
      "outputs": [],
      "stateMutability": "nonpayable",
      "type": "function"
    },
    {
      "inputs": [
        {
          "internalType": "uint256",
          "name": "_projectId",
          "type": "uint256"
        },
        {
          "internalType": "bytes32",
          "name": "_scriptTypeAndVersion",
          "type": "bytes32"
        }
      ],
      "name": "updateProjectScriptType",
      "outputs": [],
      "stateMutability": "nonpayable",
      "type": "function"
    },
    {
      "inputs": [
        {
          "internalType": "uint256",
          "name": "_projectId",
          "type": "uint256"
        },
        {
          "internalType": "uint256",
          "name": "_secondMarketRoyalty",
          "type": "uint256"
        }
      ],
      "name": "updateProjectSecondaryMarketRoyaltyPercentage",
      "outputs": [],
      "stateMutability": "nonpayable",
      "type": "function"
    },
    {
      "inputs": [
        {
          "internalType": "uint256",
          "name": "_projectId",
          "type": "uint256"
        },
        {
          "internalType": "string",
          "name": "_projectWebsite",
          "type": "string"
        }
      ],
      "name": "updateProjectWebsite",
      "outputs": [],
      "stateMutability": "nonpayable",
      "type": "function"
    },
    {
      "inputs": [
        {
          "internalType": "uint256",
          "name": "renderProviderPrimarySalesPercentage_",
          "type": "uint256"
        },
        {
          "internalType": "uint256",
          "name": "platformProviderPrimarySalesPercentage_",
          "type": "uint256"
        }
      ],
      "name": "updateProviderPrimarySalesPercentages",
      "outputs": [],
      "stateMutability": "nonpayable",
      "type": "function"
    },
    {
      "inputs": [
        {
          "internalType": "address payable",
          "name": "_renderProviderPrimarySalesAddress",
          "type": "address"
        },
        {
          "internalType": "address payable",
          "name": "_renderProviderSecondarySalesAddress",
          "type": "address"
        },
        {
          "internalType": "address payable",
          "name": "_platformProviderPrimarySalesAddress",
          "type": "address"
        },
        {
          "internalType": "address payable",
          "name": "_platformProviderSecondarySalesAddress",
          "type": "address"
        }
      ],
      "name": "updateProviderSalesAddresses",
      "outputs": [],
      "stateMutability": "nonpayable",
      "type": "function"
    },
    {
      "inputs": [
        {
          "internalType": "uint256",
          "name": "_renderProviderSecondarySalesBPS",
          "type": "uint256"
        },
        {
          "internalType": "uint256",
          "name": "_platformProviderSecondarySalesBPS",
          "type": "uint256"
        }
      ],
      "name": "updateProviderSecondarySalesBPS",
      "outputs": [],
      "stateMutability": "nonpayable",
      "type": "function"
    },
    {
      "inputs": [
        {
          "internalType": "address",
          "name": "_randomizerAddress",
          "type": "address"
        }
      ],
      "name": "updateRandomizerAddress",
      "outputs": [],
      "stateMutability": "nonpayable",
      "type": "function"
    }
  ],
  "bytecode": "0x60c06040526010805460ff60a01b19908116600560a11b90811790925560118054909116909117905560fa6013819055601555601980546001600160881b0319167014303132333435363738396162636465661790553480156200006257600080fd5b5060405162006a6138038062006a6183398101604081905262000085916200076c565b88886000620000958382620008f6565b506001620000a48282620008f6565b505050620000c1620000bb6200025760201b60201c565b6200025b565b620000cc8762000293565b620000d78662000293565b620000e28562000293565b620000ed8462000293565b81151560a0526001600160f81b0383166080526200010e87808880620002f2565b62000119856200037c565b62000124846200025b565b6200015b620001333062000404565b604051602001620001459190620009c2565b60408051601f1981840301815291905262000430565b601780547fff00000000000000000000000000000000000000000000000000000000000000166001600160f81b0385161790556040516c1b995e1d141c9bda9958dd1259609a1b9060008051602062006a4183398151915290600090a260405163f889b3ed60e01b8152306004820152653b199718971960d11b60248201527f47656e417274373231436f726556335f456e67696e655f466c6578000000000060448201526001600160a01b0382169063f889b3ed90606401600060405180830381600087803b1580156200022f57600080fd5b505af115801562000244573d6000803e3d6000fd5b5050505050505050505050505062000a8a565b3390565b62000271816200046d60201b62003e701760201c565b600a80546001600160a01b0319166001600160a01b0392909216919091179055565b6001600160a01b038116620002ef5760405162461bcd60e51b815260206004820152601b60248201527f4d75737420696e707574206e6f6e2d7a65726f2061646472657373000000000060448201526064015b60405180910390fd5b50565b601180546001600160a01b038085166001600160a01b031992831617909255601480548484169083161790556010805487841690831617905560128054928616929091169190911790556040517f70726f766964657253616c6573416464726573736573000000000000000000009060008051602062006a4183398151915290600090a250505050565b600880546001600160a01b0383166001600160a01b031991821681179092556009805460018101825560009182527f6e1540171b6c0c960b71a7020d9f60077f6af931a8bbf590da0223dacf75c7af01805490921690921790556040517072616e646f6d697a65724164647265737360781b9160008051602062006a4183398151915291a250565b6019546060906200042a906001600160a01b03841690600160801b900460ff16620004bf565b92915050565b60186200043e8282620008f6565b506040516d64656661756c744261736555524960901b9060008051602062006a4183398151915290600090a250565b600680546001600160a01b038381166001600160a01b0319831681179093556040519116919082907f8be0079c531659141344cd1fd0a4f28419497f9722a3daafe3b4186f6b6457e090600090a35050565b60606000620004d083600262000a2a565b620004dd90600262000a44565b6001600160401b03811115620004f757620004f762000671565b6040519080825280601f01601f19166020018201604052801562000522576020820181803683370190505b509050600360fc1b8160008151811062000540576200054062000a5a565b60200101906001600160f81b031916908160001a905350600f60fb1b8160018151811062000572576200057262000a5a565b60200101906001600160f81b031916908160001a90535060006200059884600262000a2a565b620005a590600162000a44565b90505b6001811115620006195760195460801b600f861660108110620005cf57620005cf62000a5a565b1a60f81b828281518110620005e857620005e862000a5a565b60200101906001600160f81b031916908160001a90535060049490941c93620006118162000a70565b9050620005a8565b5083156200066a5760405162461bcd60e51b815260206004820152601760248201527f686578206c656e67746820696e73756666696369656e740000000000000000006044820152606401620002e6565b9392505050565b634e487b7160e01b600052604160045260246000fd5b60005b83811015620006a45781810151838201526020016200068a565b50506000910152565b600082601f830112620006bf57600080fd5b81516001600160401b0380821115620006dc57620006dc62000671565b604051601f8301601f19908116603f0116810190828211818310171562000707576200070762000671565b816040528381528660208588010111156200072157600080fd5b6200073484602083016020890162000687565b9695505050505050565b80516001600160a01b03811681146200075657600080fd5b919050565b805180151581146200075657600080fd5b60008060008060008060008060006101208a8c0312156200078c57600080fd5b89516001600160401b0380821115620007a457600080fd5b620007b28d838e01620006ad565b9a5060208c0151915080821115620007c957600080fd5b50620007d88c828d01620006ad565b985050620007e960408b016200073e565b9650620007f960608b016200073e565b95506200080960808b016200073e565b94506200081960a08b016200073e565b60c08b01519094506001600160f81b03811681146200083757600080fd5b92506200084760e08b016200075b565b9150620008586101008b016200073e565b90509295985092959850929598565b600181811c908216806200087c57607f821691505b6020821081036200089d57634e487b7160e01b600052602260045260246000fd5b50919050565b601f821115620008f157600081815260208120601f850160051c81016020861015620008cc5750805b601f850160051c820191505b81811015620008ed57828155600101620008d8565b5050505b505050565b81516001600160401b0381111562000912576200091262000671565b6200092a8162000923845462000867565b84620008a3565b602080601f831160018114620009625760008415620009495750858301515b600019600386901b1c1916600185901b178555620008ed565b600085815260208120601f198616915b82811015620009935788860151825594840194600190910190840162000972565b5085821015620009b25787850151600019600388901b60f8161c191681555b5050505050600190811b01905550565b7f68747470733a2f2f746f6b656e2e617274626c6f636b732e696f2f0000000000815260008251620009fc81601b85016020870162000687565b602f60f81b601b939091019283015250601c01919050565b634e487b7160e01b600052601160045260246000fd5b80820281158282048414176200042a576200042a62000a14565b808201808211156200042a576200042a62000a14565b634e487b7160e01b600052603260045260246000fd5b60008162000a825762000a8262000a14565b506000190190565b60805160a051615f8362000abe60003960008181610c810152611fac015260008181610dd101526148d10152615f836000f3fe608060405234801561001057600080fd5b50600436106104825760003560e01c806376ee6fab1161025a578063b7b04fae1161014d578063b7b04fae14610b67578063b7ba527d14610b7a578063b88d4fde14610b82578063b971136814610b95578063ba3c234514610b9d578063bb3bafd614610bb0578063bd3d10e714610bd1578063c34a03b514610be4578063c6c7c5bf14610bf7578063c87b56dd14610c0a578063cc90e72514610c1d578063d03c390c14610c30578063d50f513814610c43578063db21a84614610c56578063db2ff86114610c69578063e6032df214610c7c578063e935b7b114610ca3578063e985e9c514610cb4578063eb9cd5d414610cc7578063ed8abfda14610ce9578063f2fde38b14610d13578063f313d73314610d26578063f6cd39e314610dbc578063f851a44014610dc4578063f893c07b14610dcc57600080fd5b806376ee6fab146108e65780638639415b146108f95780638c3c9cdd146109545780638da5cb5b146109675780638dd91a561461096f57806392f002331461099357806395d89b41146109a65780639a02e4fa146109ae578063a11ec70a146109e5578063a22cb465146109f8578063a3b2cca614610a0b578063a47d29cb14610a1e578063abcbb7b414610a4a578063ac11fa1c14610a52578063acad012414610a72578063acd4c66f14610a85578063ad0305ce14610a97578063ad28329014610ab9578063ad2cdfc414610ae6578063ad576c4514610b13578063ae45ad9814610b26578063b1656ba314610b2e578063b168762214610b41578063b75395e014610b5457600080fd5b806328ec8f501161037d57806328ec8f50146106dd5780632b2741661461070a5780632b65e67d1461071d5780632b8258c5146107305780632d9c02051461073957806330ef4c5f1461074c57806336c7c12c1461075e578063378599631461077157806338c8e468146107845780633bb22553146107b05780633e48e848146107b957806341814cd3146107cc57806342842e0e146107df57806348337282146107f25780634e1d64af146108055780635464c3091461080d5780635508fd521461082057806358b9a5a914610834578063621a1f741461086c5780636352211e1461087f57806366e462371461089257806369d14faf146108a55780636c907b7f146108b857806370a08231146108cb578063715018a6146108de57600080fd5b80611e3c146104875780615de51461049c5780630132c697146104c257806301856fd4146104d557806301ffc9a7146104e857806304143a5c1461050b57806306fdde0314610513578063081812fc14610528578063095ea7b3146105535780630d170673146105665780630e79c928146105795780630ea5613f1461058c5780630ebeb0ee146105d657806310a9ef18146105ff57806317df5366146106125780631ab6014c146106255780631b689c0b146106385780631c05cad71461064b5780631e9bef461461065e5780632302cbda14610671578063230448b11461068457806323b872dd1461069757806325b75d68146106aa5780632642c6b6146106bd575b600080fd5b61049a610495366004614eff565b610df3565b005b6104af6104aa366004614f36565b610f22565b6040519081526020015b60405180910390f35b61049a6104d0366004614f78565b6111c6565b61049a6104e3366004614eff565b6112ec565b6104fb6104f6366004614fc6565b6113a0565b60405190151581526020016104b9565b61049a6113cb565b61051b611433565b6040516104b9919061503a565b61053b61053636600461504d565b6114c5565b6040516001600160a01b0390911681526020016104b9565b61049a610561366004615066565b6114ec565b61049a61057436600461513d565b611601565b61049a61058736600461513d565b611666565b61059f61059a36600461504d565b611862565b60408051968752602087019590955292151593850193909352151560608401526080830191909152151560a082015260c0016104b9565b61053b6105e436600461504d565b6000908152600e60205260409020546001600160a01b031690565b61049a61060d366004615197565b6118c5565b60075461053b906001600160a01b031681565b60115461053b906001600160a01b031681565b6104af61064636600461504d565b611a90565b61049a6106593660046151f7565b611a9f565b600a5461053b906001600160a01b031681565b61049a61067f366004615253565b611adf565b6104fb610692366004615287565b611b04565b61049a6106a53660046152c7565b611bb0565b61049a6106b836600461513d565b611be1565b6106d06106cb366004614eff565b611c49565b6040516104b99190615340565b6104af6106eb36600461504d565b6000908152600e6020526040902060010154600160a01b900460ff1690565b61049a6107183660046153aa565b611dc7565b61049a61072b3660046153c7565b611e33565b6104af60155481565b61051b61074736600461504d565b612199565b601154600160a01b900460ff166104af565b60085461053b906001600160a01b031681565b61049a61077f36600461513d565b61223e565b61053b61079236600461504d565b6000908152600e60205260409020600101546001600160a01b031690565b6104af60135481565b61049a6107c736600461513d565b61228c565b60125461053b906001600160a01b031681565b61049a6107ed3660046152c7565b6122e3565b61049a6108003660046153aa565b6122fe565b61051b612361565b61049a61081b36600461542e565b61237a565b6017546104fb90600160f81b900460ff1681565b61053b610842366004614eff565b6000918252600b60209081526040808420928452600990920190529020546001600160a01b031690565b6104af61087a36600461504d565b6123d8565b61053b61088d36600461504d565b61243a565b61049a6108a036600461549f565b61246f565b61049a6108b33660046154f5565b612625565b61049a6108c63660046153aa565b61269e565b6104af6108d93660046153aa565b6126c0565b61049a612746565b61049a6108f43660046153c7565b61275e565b61090c610907366004614eff565b612926565b604080519889526001600160a01b0397881660208a015288019590955292851660608701526080860191909152831660a085015260c08401521660e0820152610100016104b9565b61051b610962366004614eff565b612a2f565b61053b612a8e565b61098261097d36600461504d565b612aa2565b6040516104b995949392919061551a565b60165461053b906001600160a01b031681565b61051b612d96565b6109d86109bc36600461504d565b600090815260026020526040902054600160a01b900460a01b90565b6040516104b99190615587565b61049a6109f336600461504d565b612da5565b61049a610a063660046155aa565b612dfd565b61049a610a1936600461513d565b612e0c565b61053b610a2c36600461504d565b6000908152600e60205260409020600201546001600160a01b031690565b61051b612ef8565b6104af610a6036600461504d565b600f6020526000908152604090205481565b61049a610a8036600461513d565b612f86565b601054600160a01b900460ff166104af565b6104fb610aa53660046153aa565b6016546001600160a01b0390811691161490565b6104af610ac736600461504d565b6000908152600b60205260409020600a0154610100900462ffffff1690565b6104af610af436600461504d565b6000908152600e6020526040902060020154600160a01b900460ff1690565b61049a610b21366004614eff565b613059565b61051b6131e2565b61049a610b3c3660046155d8565b61320b565b61053b610b4f36600461504d565b6132f0565b60105461053b906001600160a01b031681565b61049a610b7536600461513d565b613368565b61051b6133d3565b61049a610b90366004615627565b6133e0565b6009546104af565b61049a610bab36600461504d565b613412565b610bc3610bbe36600461504d565b613472565b6040516104b99291906156a6565b61049a610bdf366004614eff565b613706565b61049a610bf2366004614eff565b6137d2565b60145461053b906001600160a01b031681565b61051b610c1836600461504d565b613873565b61049a610c2b36600461572a565b61395b565b61049a610c3e36600461504d565b613ab0565b61049a610c5136600461542e565b613b18565b61049a610c64366004614eff565b613b3d565b61049a610c7736600461504d565b613bdc565b6104fb7f000000000000000000000000000000000000000000000000000000000000000081565b6017546001600160f81b03166104af565b6104fb610cc2366004615770565b613ce9565b610cda610cd536600461504d565b613d17565b6040516104b99392919061579e565b6104af610cf736600461504d565b6000908152600e6020526040902054600160a01b900460ff1690565b61049a610d213660046153aa565b613de3565b610d7e610d3436600461504d565b6000908152600e60205260409020600281015481546001909201546001600160a01b03808316948482169460ff600160a01b95869004811695938516948490048116939091041690565b604080516001600160a01b039788168152958716602087015285019390935293166060830152608082019290925260a081019190915260c0016104b9565b61051b613e59565b61053b613e66565b6104af7f000000000000000000000000000000000000000000000000000000000000000081565b610dfc82613ec2565b60008281526002602052604090206008546001600160a01b03163314610e635760405162461bcd60e51b815260206004820152601760248201527613db9b1e481c985b991bdb5a5e995c881b585e481cd95d604a1b60448201526064015b60405180910390fd5b8054600160a01b900460a01b6001600160a01b03191615610ebf5760405162461bcd60e51b8152602060048201526016602482015275151bdad95b881a185cda08185b1c9958591e481cd95d60521b6044820152606401610e5a565b81610f005760405162461bcd60e51b8152602060048201526011602482015270139bc81e995c9bc81a185cda081cd95959607a1b6044820152606401610e5a565b805460a09290921c600160a01b026001600160a01b0390921691909117905550565b6016546000906001600160a01b03163314610f7f5760405162461bcd60e51b815260206004820152601e60248201527f4d757374206d696e742066726f6d206d696e74657220636f6e747261637400006044820152606401610e5a565b6000838152600b60205260409020805462ffffff808216916001830191630100000090910416808310610ff45760405162461bcd60e51b815260206004820152601f60248201527f4d757374206e6f7420657863656564206d617820696e766f636174696f6e73006044820152606401610e5a565b8354600160881b900460ff168061102757506000878152600e60205260409020600201546001600160a01b038781169116145b6110735760405162461bcd60e51b815260206004820181905260248201527f50726f6a656374206d75737420657869737420616e64206265206163746976656044820152606401610e5a565b8354600160901b900460ff1615806110a757506000878152600e60205260409020600201546001600160a01b038781169116145b6110eb5760405162461bcd60e51b8152602060048201526015602482015274283ab931b430b9b2b99030b932903830bab9b2b21760591b6044820152606401610e5a565b835462ffffff191662ffffff8381169182178655848116620f42408a020191908316900361111c5761111c88613f11565b6111268982613f69565b600854604051635b140b8d60e11b8152600481018390526001600160a01b039091169063b628171a90602401600060405180830381600087803b15801561116c57600080fd5b505af1158015611180573d6000803e3d6000fd5b50506040518392506001600160a01b038c1691507f0f6798a560793a54c3bcfe86a93cde1e73087d944c0ea20544137d412139688590600090a398975050505050505050565b6111cf8261409b565b6000828152600b60205260409020805462ffffff808216916301000000900481169084161061123f5760405162461bcd60e51b815260206004820152601c60248201527b4f6e6c79206d6178496e766f636174696f6e7320646563726561736560201b6044820152606401610e5a565b808362ffffff16101561128b5760405162461bcd60e51b81526020600482015260146024820152734f6e6c792067746520696e766f636174696f6e7360601b6044820152606401610e5a565b815465ffffff0000001916630100000062ffffff8516021782556040516d6d6178496e766f636174696f6e7360901b908590600080516020615f2e83398151915290600090a3808362ffffff16036112e6576112e684613f11565b50505050565b6112f5826140f2565b6113058262615bf560e21b61413a565b6000828152600b6020526040908190209061132390839060016141b4565b61136c5760405162461bcd60e51b815260206004820152601a60248201527901b5d5cdd0818dbdb9d185a5b88195e1858dd1b1e481bdb9948160361b6044820152606401610e5a565b60078101829055604051697363726970745479706560b01b908490600080516020615f2e83398151915290600090a3505050565b60006001600160e01b03198216635d9dd7eb60e11b14806113c557506113c582614227565b92915050565b6113db6301050e9760e21b614277565b601754600160f81b900460ff16156114295760405162461bcd60e51b815260206004820152601160248201527020b63932b0b23c903337b93134b23232b760791b6044820152606401610e5a565b6114316142c7565b565b606060008054611442906157d4565b80601f016020809104026020016040519081016040528092919081815260200182805461146e906157d4565b80156114bb5780601f10611490576101008083540402835291602001916114bb565b820191906000526020600020905b81548152906001019060200180831161149e57829003601f168201915b5050505050905090565b60006114d08261431f565b506000908152600460205260409020546001600160a01b031690565b60006114f78261243a565b9050806001600160a01b0316836001600160a01b0316036115645760405162461bcd60e51b815260206004820152602160248201527f4552433732313a20617070726f76616c20746f2063757272656e74206f776e656044820152603960f91b6064820152608401610e5a565b336001600160a01b038216148061158057506115808133613ce9565b6115f25760405162461bcd60e51b815260206004820152603e60248201527f4552433732313a20617070726f76652063616c6c6572206973206e6f7420746f60448201527f6b656e206f776e6572206e6f7220617070726f76656420666f7220616c6c00006064820152608401610e5a565b6115fc8383614344565b505050565b61160a826140f2565b61161b82630d17067360e01b61413a565b611624816143b2565b6000828152600b6020526040902060010161163f828261586b565b50604051636e616d6560e01b908390600080516020615f2e83398151915290600090a35050565b61166f826140f2565b611680826301cf392560e31b61413a565b611689816143b2565b80518190600b8111156116dd5760405162461bcd60e51b815260206004820152601c60248201527b41737065637420726174696f20666f726d617420746f6f206c6f6e6760201b6044820152606401610e5a565b60008060005b838110156117c95760008582815181106116ff576116ff615924565b01602001516001600160f81b0319169050600360fc1b81108015906117325750603960f81b6001600160f81b0319821611155b156117415760019250506117b7565b6001600160f81b03198116601760f91b0361176557836117655760019350506117b7565b60405162461bcd60e51b815260206004820152602160248201527f496d70726f7065726c7920666f726d61747465642061737065637420726174696044820152606f60f81b6064820152608401610e5a565b806117c181615950565b9150506116e3565b50806118155760405162461bcd60e51b815260206004820152601b60248201527a41737065637420726174696f20686173206e6f206e756d6265727360281b6044820152606401610e5a565b6000868152600b60205260409020600801611830868261586b565b506040516a617370656374526174696f60a81b908790600080516020615f2e83398151915290600090a3505050505050565b6000818152600b60205260408120805462ffffff808216936301000000830490911692600160881b830460ff90811693600160901b810490911692600160481b9091046001600160401b0316916118b888614401565b1591505091939550919395565b6118ce8461444b565b6118df846302153de360e31b61413a565b6000848152600b60205260409020600a0154610100900462ffffff1680841061191a5760405162461bcd60e51b8152600401610e5a90615969565b6000858152600b60208181526040808420888552909201905290206001808201805460ff81169286929160ff19169083600281111561195b5761195b615308565b0217905550600284600281111561197457611974615308565b03611a2357600281600281111561198d5761198d615308565b146119c557604080516020808201835260008083528a8152600b8083528482208b83520190915291909120906119c3908261586b565b505b6119ce856144ac565b6000888152600b602081815260408084208b8552909201815281832060010180546001600160a01b039590951661010002610100600160a81b0319909516949094179093558051928301905281529450611a4a565b6000878152600b602081815260408084208a855290920190529020611a48868261586b565b505b85877f1628bf0d5f04426de03959d1da1357d8210b3b99e35281256ab7e9bd55dae949878787604051611a7f9392919061599b565b60405180910390a350505050505050565b60006113c5620f4240836159e6565b611aaf631c05cad760e01b614277565b611ab88461453a565b611ac18361453a565b611aca8261453a565b611ad38161453a565b6112e68484848461458e565b611aef63118165ed60e11b614277565b611af8816143b2565b611b0181614610565b50565b600080611b0f612a8e565b6001600160a01b031614158015611ba85750600a546040516217798b60e61b81526001600160a01b03868116600483015285811660248301526001600160e01b031985166044830152909116906305de62c0906064016020604051808303816000875af1158015611b84573d6000803e3d6000fd5b505050506040513d601f19601f82011682018060405250810190611ba891906159fa565b949350505050565b611bba338261464a565b611bd65760405162461bcd60e51b8152600401610e5a90615a17565b6115fc8383836146a8565b611bea826140f2565b611bfb826304b6ebad60e31b61413a565b611c04816143b2565b6000828152600b60205260409020600501611c1f828261586b565b50604051666c6963656e736560c81b908390600080516020615f2e83398151915290600090a35050565b611c75604080516080810190915260608152602081016000815260006020820152606060409091015290565b6000838152600b602081815260408084208685529092019052908190206001810154825160808101909352815491926101009091046001600160a01b03169181908490611cc1906157d4565b80601f0160208091040260200160405190810160405280929190818152602001828054611ced906157d4565b8015611d3a5780601f10611d0f57610100808354040283529160200191611d3a565b820191906000526020600020905b815481529060010190602001808311611d1d57829003601f168201915b5050509183525050600184015460209091019060ff166002811115611d6157611d61615308565b81526001600160a01b03831660208201526040016002600185015460ff166002811115611d9057611d90615308565b14611daa5760405180602001604052806000815250611dbc565b611dbc836001600160a01b0316614844565b905295945050505050565b611dd7631593a0b360e11b614277565b611de08161453a565b600780546001600160a01b0319166001600160a01b03831617905560405178646570656e64656e637952656769737472794164647265737360381b90600080516020615f0e83398151915290600090a250565b611e3c866148cf565b611e458661409b565b611e4e8561453a565b6000868152600e6020526040902060648411801590611e6e575060648211155b611ea85760405162461bcd60e51b815260206004820152600b60248201526a4d6178206f66203130302560a81b6044820152606401610e5a565b831580611ebd57506001600160a01b03851615155b611f095760405162461bcd60e51b815260206004820152601d60248201527f5072696d617279207061796565206973207a65726f20616464726573730000006044820152606401610e5a565b811580611f1e57506001600160a01b03831615155b611f6a5760405162461bcd60e51b815260206004820152601f60248201527f5365636f6e64617279207061796565206973207a65726f2061646472657373006044820152606401610e5a565b867f6ff7d102bb3657a26dcbbcd299d821a066718a7cf76ae7cd98279f18b74da8ac8787878787604051611fa2959493929190615a65565b60405180910390a27f00000000000000000000000000000000000000000000000000000000000000008061204857600282015482546001600160a01b0391821689831614916000918116908916148061200257506001600160a01b038816155b60018501549091506000906001600160a01b038881169116148061202d57506001600160a01b038716155b90508280156120395750815b80156120425750805b93505050505b8015612150576000801b600f60008a815260200190815260200160002081905550868260020160006101000a8154816001600160a01b0302191690836001600160a01b03160217905550858260000160006101000a8154816001600160a01b0302191690836001600160a01b03160217905550848260020160146101000a81548160ff021916908360ff160217905550838260010160006101000a8154816001600160a01b0302191690836001600160a01b03160217905550828260010160146101000a81548160ff021916908360ff160217905550877fc582d05e1da854143bd3271ef4529d79cf5a69fc6057ae320f357acfd291b73860405160405180910390a261218f565b8686868686604051602001612169959493929190615a65565b60408051601f19818403018152918152815160209283012060008b8152600f9093529120555b5050505050505050565b6000818152600b602052604090206006018054606091906121b9906157d4565b80601f01602080910402602001604051908101604052809291908181526020018280546121e5906157d4565b80156122325780601f1061220757610100808354040283529160200191612232565b820191906000526020600020905b81548152906001019060200180831161221557829003601f168201915b50505050509050919050565b6122478261409b565b6000828152600b60205260409020600401612262828261586b565b50604051667765627369746560c81b908390600080516020615f2e83398151915290600090a35050565b6122958261409b565b61229e816143b2565b6000828152600b602052604090206006016122b9828261586b565b50604051666261736555524960c81b908390600080516020615f2e83398151915290600090a35050565b6115fc838383604051806020016040528060008152506133e0565b61230e632419b94160e11b614277565b6123178161453a565b601680546001600160a01b0319166001600160a01b0383169081179091556040517fad0f299ec81a386c98df0ac27dae11dd020ed1b56963c53a7292e7a3a314539a90600090a250565b6060612375653b199718971960d11b614951565b905090565b61238a635464c30960e01b614277565b600d612397828483615a98565b5060015b7f897675a9bb2e78c7082f6dd757f2db5e1d07724c1f2d46fea1da4e17e5061afd83836040516123cc929190615b52565b60405180910390a25050565b600081815260026020526040812054600160a01b900460a01b6001600160a01b03198116820361240b5750600092915050565b8060405160200161241c9190615587565b60405160208183030381529060405280519060200120915050919050565b6000818152600260205260408120546001600160a01b0316806113c55760405162461bcd60e51b8152600401610e5a90615b81565b6124788361444b565b612489836302153de360e31b61413a565b6000838152600b60205260408120600a0154610100900462ffffff169060028360028111156124ba576124ba615308565b036124dd576124c8846144ac565b90506040518060200160405280600081525093505b6000604051806060016040528086815260200185600281111561250257612502615308565b81526001600160a01b0384166020918201526000888152600b808352604080832062ffffff8916845290910190925220815191925082918190612545908261586b565b50602082015160018083018054909160ff199091169083600281111561256d5761256d615308565b021790555060409190910151600191820180546001600160a01b0390921661010002610100600160a81b03199092169190911790556125ad908490615bb3565b6000878152600b60205260409020600a01805463ffffff00191661010062ffffff938416021790558316867f1628bf0d5f04426de03959d1da1357d8210b3b99e35281256ab7e9bd55dae9498787612606886001615bb3565b6040516126159392919061599b565b60405180910390a3505050505050565b61262e826148cf565b61263f826369d14faf60e01b6149bc565b6126488161453a565b6000828152600e602052604080822060020180546001600160a01b0319166001600160a01b038516179055516c6172746973744164647265737360981b918491600080516020615f2e8339815191529190a35050565b6126ae636c907b7f60e01b614277565b6126b78161453a565b611b0181614a73565b60006001600160a01b03821661272a5760405162461bcd60e51b815260206004820152602960248201527f4552433732313a2061646472657373207a65726f206973206e6f7420612076616044820152683634b21037bbb732b960b91b6064820152608401610e5a565b506001600160a01b031660009081526003602052604090205490565b61274e614afa565b6127566142c7565b611431614b59565b612767866148cf565b612778866376ee6fab60e01b6149bc565b6127818561453a565b848484848460405160200161279a959493929190615a65565b60408051601f1981840301815291815281516020928301206000898152600f909352912054146128095760405162461bcd60e51b815260206004820152601a602482015279135d5cdd081b585d18da08185c9d1a5cdd081c1c9bdc1bdcd85b60321b6044820152606401610e5a565b6000600e60008881526020019081526020016000209050858160020160006101000a8154816001600160a01b0302191690836001600160a01b03160217905550848160000160006101000a8154816001600160a01b0302191690836001600160a01b03160217905550838160020160146101000a81548160ff021916908360ff160217905550828160010160006101000a8154816001600160a01b0302191690836001600160a01b03160217905550818160010160146101000a81548160ff021916908360ff1602179055506000801b600f600089815260200190815260200160002081905550867fc582d05e1da854143bd3271ef4529d79cf5a69fc6057ae320f357acfd291b73860405160405180910390a250505050505050565b6000828152600e602052604081206010548291829182918291829182918291908a9060649061295f90600160a01b900460ff1683615bd6565b61296991906159e6565b99506129758a82615bed565b60115490915060649061299290600160a01b900460ff168d615bd6565b61299c91906159e6565b97506129a88882615bed565b60028301549091506064906129c790600160a01b900460ff1683615bd6565b6129d191906159e6565b93506129dd8482615bed565b6010546011546001600160a01b039182169b5016975095508515612a0c5760028201546001600160a01b031694505b8315612a205781546001600160a01b031692505b50509295985092959890939650565b6000828152600b60205260409020805460609190600160301b900462ffffff168310612a6b5750506040805160208101909152600081526113c5565b6000838152600982016020526040902054611ba8906001600160a01b0316614844565b60006123756006546001600160a01b031690565b60608060608060606000600b60008881526020019081526020016000209050806001018054612ad0906157d4565b80601f0160208091040260200160405190810160405280929190818152602001828054612afc906157d4565b8015612b495780601f10612b1e57610100808354040283529160200191612b49565b820191906000526020600020905b815481529060010190602001808311612b2c57829003601f168201915b50505050509550806002018054612b5f906157d4565b80601f0160208091040260200160405190810160405280929190818152602001828054612b8b906157d4565b8015612bd85780601f10612bad57610100808354040283529160200191612bd8565b820191906000526020600020905b815481529060010190602001808311612bbb57829003601f168201915b50505050509450806003018054612bee906157d4565b80601f0160208091040260200160405190810160405280929190818152602001828054612c1a906157d4565b8015612c675780601f10612c3c57610100808354040283529160200191612c67565b820191906000526020600020905b815481529060010190602001808311612c4a57829003601f168201915b50505050509350806004018054612c7d906157d4565b80601f0160208091040260200160405190810160405280929190818152602001828054612ca9906157d4565b8015612cf65780601f10612ccb57610100808354040283529160200191612cf6565b820191906000526020600020905b815481529060010190602001808311612cd957829003601f168201915b50505050509250806005018054612d0c906157d4565b80601f0160208091040260200160405190810160405280929190818152602001828054612d38906157d4565b8015612d855780601f10612d5a57610100808354040283529160200191612d85565b820191906000526020600020905b815481529060010190602001808311612d6857829003601f168201915b505050505091505091939590929450565b606060018054611442906157d4565b612dae8161409b565b6000818152600b6020526040808220805460ff60901b198116600160901b9182900460ff161590910217905551651c185d5cd95960d21b918391600080516020615f2e8339815191529190a350565b612e08338383614b6b565b5050565b612e1582614401565b612e3057612e2b33306351d9665360e11b611b04565b612e4e565b6000828152600e60205260409020600201546001600160a01b031633145b612eaf5760405162461bcd60e51b815260206004820152602c60248201527f4f6e6c7920617274697374207768656e20756e6c6f636b65642c206f776e657260448201526b081dda195b881b1bd8dad95960a21b6064820152608401610e5a565b6000828152600b60205260409020600301612eca828261586b565b506040516a3232b9b1b934b83a34b7b760a91b908390600080516020615f2e83398151915290600090a35050565b60188054612f05906157d4565b80601f0160208091040260200160405190810160405280929190818152602001828054612f31906157d4565b8015612f7e5780601f10612f5357610100808354040283529160200191612f7e565b820191906000526020600020905b815481529060010190602001808311612f6157829003601f168201915b505050505081565b612f8f826140f2565b612fa082632b2b404960e21b61413a565b612fa9816143b2565b6000828152600b60205260409020612fc0826144ac565b8154600160301b9081900462ffffff9081166000908152600985016020526040902080546001600160a01b0319166001600160a01b039490941693909317909255825461301292919004166001615bb3565b815462ffffff91909116600160301b0262ffffff60301b19909116178155604051651cd8dc9a5c1d60d21b908490600080516020615f2e83398151915290600090a3505050565b6130628261444b565b613073826302153de360e31b61413a565b6000828152600b60205260409020600a0154610100900462ffffff168082106130ae5760405162461bcd60e51b8152600401610e5a90615969565b60006130bb600183615c00565b6000858152600b6020818152604080842062ffffff861685529092019052808220868352912091925090806130f08382615c1c565b50600182810154828201805460ff90921692909160ff19169083600281111561311b5761311b615308565b021790555060019182015491018054610100600160a81b031916610100928390046001600160a01b03169092029190911790556000848152600b6020818152604080842062ffffff8616855290920190528120906131798282614eb1565b5060010180546001600160a81b03191690556000848152600b6020526040808220600a01805463ffffff00191661010062ffffff86160217905551849186917fa2290757ebb75dea327ace340daae74c1ac76aca04f6fd163fbf5b87e6d707599190a350505050565b60606123757a08ecadc82e4e86e646286dee4caac66be8adcced2dccabe8cd8caf602b1b614951565b613214836140f2565b6132258363b1656ba360e01b61413a565b61322e816143b2565b6000838152600b602052604090208054600160301b900462ffffff1683106132905760405162461bcd60e51b81526020600482015260156024820152747363726970744964206f7574206f662072616e676560581b6044820152606401610e5a565b613299826144ac565b600084815260098301602052604080822080546001600160a01b0319166001600160a01b0394909416939093179092559051651cd8dc9a5c1d60d21b918691600080516020615f2e8339815191529190a350505050565b600954600090821061333a5760405162461bcd60e51b8152602060048201526013602482015272496e646578206f7574206f6620626f756e647360681b6044820152606401610e5a565b6009828154811061334d5761334d615924565b6000918252602090912001546001600160a01b031692915050565b613371826140f2565b61338282635bd827d760e11b61413a565b61338b816143b2565b6000828152600b602052604090206002016133a6828261586b565b50604051696172746973744e616d6560b01b908390600080516020615f2e83398151915290600090a35050565b600d8054612f05906157d4565b6133ea338361464a565b6134065760405162461bcd60e51b8152600401610e5a90615a17565b6112e684848484614c35565b61341b8161444b565b61342c8163ba3c234560e01b61413a565b6000818152600b6020526040808220600a01805460ff191660011790555182917fcbd4f9053ca1f820efad7731ae6c938613bfef183ee6f03f61cc8d4ab583f5dc91a250565b60608061347e83613ec2565b60408051600480825260a082019092529060208201608080368337505060408051600480825260a0820190925292945090506020820160808036833701905050905060006134cb84611a90565b6000818152600e6020526040812080546001820154939450909260ff600160a01b9283900481169392909104169082613505836064615bed565b61350f9190615bd6565b9050600061351d8484615bd6565b60135460155491925090600084156135975760028801548b516001600160a01b03909116908c908390811061355457613554615924565b6001600160a01b0390921660209283029190910190910152848a8261357881615950565b93508151811061358a5761358a615924565b6020026020010181815250505b83156136055760018801548b516001600160a01b03909116908c90839081106135c2576135c2615924565b6001600160a01b0390921660209283029190910190910152838a826135e681615950565b9350815181106135f8576135f8615924565b6020026020010181815250505b8215613671576012548b516001600160a01b03909116908c908390811061362e5761362e615924565b6001600160a01b0390921660209283029190910190910152828a8261365281615950565b93508151811061366457613664615924565b6020026020010181815250505b81156136dd576014548b516001600160a01b03909116908c908390811061369a5761369a615924565b6001600160a01b0390921660209283029190910190910152818a826136be81615950565b9350815181106136d0576136d0615924565b6020026020010181815250505b80600411156136f85780600403808c51038c52808b51038b52505b505050505050505050915091565b61371663bd3d10e760e01b614277565b60646137228284615ce8565b111561376b5760405162461bcd60e51b81526020600482015260186024820152774d61782073756d206f66204f4e455f48554e44524544202560401b6044820152606401610e5a565b6010805460ff808516600160a01b90810260ff60a01b19938416179093556011805491851690930291161790556040517970726f76696465725072696d61727950657263656e746167657360301b90600080516020615f0e83398151915290600090a25050565b6137db8261409b565b605f81111561381f5760405162461bcd60e51b815260206004820152601060248201526f13dd995c881b585e081c195c98d95b9d60821b6044820152606401610e5a565b6000828152600e6020526040808220805460ff60a01b1916600160a01b60ff8616021790555170726f79616c747950657263656e7461676560781b918491600080516020615f2e8339815191529190a35050565b606061387e82613ec2565b6000600b600061388d85611a90565b815260200190815260200160002060060180546138a9906157d4565b80601f01602080910402602001604051908101604052809291908181526020018280546138d5906157d4565b80156139225780601f106138f757610100808354040283529160200191613922565b820191906000526020600020905b81548152906001019060200180831161390557829003601f168201915b505050505090508061393384614c68565b604051602001613944929190615d17565b604051602081830303815290604052915050919050565b61396b63cc90e72560e01b614277565b613974826143b2565b61397d8161453a565b601754600160f81b900460ff16156139d05760405162461bcd60e51b81526020600482015260166024820152752732bb90383937b532b1ba39903337b93134b23232b760511b6044820152606401610e5a565b6017546001600160f81b03166000818152600e6020908152604080832060020180546001600160a01b0319166001600160a01b038716179055600b9091529020600101613a1d848261586b565b506000818152600b60205260409020805465ffffff00000060ff60901b011916613d09601e1b600160901b01178155600601613a5a601882615c1c565b50613a66816001615d46565b601780546001600160f81b0319166001600160f81b03929092169190911790556040516618dc99585d195960ca1b908290600080516020615f2e83398151915290600090a3505050565b613ac063340f0e4360e21b614277565b613ac9816148cf565b6000818152600b6020526040808220805460ff60881b198116600160881b9182900460ff1615909102179055516561637469766560d01b918391600080516020615f2e8339815191529190a350565b613b28631aa1ea2760e31b614277565b600c613b35828483615a98565b50600061239b565b613b4d636d90d42360e11b614277565b612710613b5a8284615ce8565b1115613b9e5760405162461bcd60e51b81526020600482015260136024820152724f766572206d61782073756d206f662042505360681b6044820152606401610e5a565b601382905560158190556040517370726f76696465725365636f6e6461727942505360601b90600080516020615f0e83398151915290600090a25050565b613be5816140f2565b613bf68163db2ff86160e01b61413a565b6000818152600b602052604090208054600160301b900462ffffff16613c555760405162461bcd60e51b81526020600482015260146024820152734e6f207363726970747320746f2072656d6f766560601b6044820152606401610e5a565b80546009820190600090613c7790600190600160301b900462ffffff16615c00565b62ffffff908116825260208201929092526040908101600090812080546001600160a01b0319169055835462ffffff60301b198116600160301b918290048516600019019094160292909217835551651cd8dc9a5c1d60d21b918491600080516020615f2e8339815191529190a35050565b6001600160a01b03918216600090815260056020908152604080832093909416825291909152205460ff1690565b6000818152600b60205260408120600781015460609283929091613d3a90614951565b9350806008018054613d4b906157d4565b80601f0160208091040260200160405190810160405280929190818152602001828054613d77906157d4565b8015613dc45780601f10613d9957610100808354040283529160200191613dc4565b820191906000526020600020905b815481529060010190602001808311613da757829003601f168201915b5050935496989297505050600160301b90940462ffffff169392505050565b613deb614afa565b6001600160a01b038116613e505760405162461bcd60e51b815260206004820152602660248201527f4f776e61626c653a206e6577206f776e657220697320746865207a65726f206160448201526564647265737360d01b6064820152608401610e5a565b611b0181614d68565b600c8054612f05906157d4565b6000612375612a8e565b600680546001600160a01b038381166001600160a01b0319831681179093556040519116919082907f8be0079c531659141344cd1fd0a4f28419497f9722a3daafe3b4186f6b6457e090600090a35050565b613ecb81614d93565b611b015760405162461bcd60e51b8152602060048201526017602482015276151bdad95b88125108191bd95cc81b9bdd08195e1a5cdd604a1b6044820152606401610e5a565b6000818152600b6020526040808220805467ffffffffffffffff60481b1916600160481b426001600160401b031602179055516818dbdb5c1b195d195960ba1b918391600080516020615f2e8339815191529190a350565b6001600160a01b038216613fbf5760405162461bcd60e51b815260206004820181905260248201527f4552433732313a206d696e7420746f20746865207a65726f20616464726573736044820152606401610e5a565b613fc881614d93565b156140145760405162461bcd60e51b815260206004820152601c60248201527b115490cdcc8c4e881d1bdad95b88185b1c9958591e481b5a5b9d195960221b6044820152606401610e5a565b6001600160a01b038216600090815260036020526040812080546001929061403d908490615ce8565b909155505060008181526002602052604080822080546001600160a01b0319166001600160a01b03861690811790915590518392907fddf252ad1be2c89b69c2b068fc378daa952ba7f163c4a11628f55a4df523b3ef908290a45050565b6000818152600e60205260409020600201546001600160a01b03163314611b015760405162461bcd60e51b815260206004820152600b60248201526a13db9b1e48185c9d1a5cdd60aa1b6044820152606401610e5a565b6140fb81614401565b611b015760405162461bcd60e51b815260206004820152601060248201526f13db9b1e481a59881d5b9b1bd8dad95960821b6044820152606401610e5a565b6000828152600e60205260409020600201546001600160a01b03163314806141685750614168333083611b04565b612e085760405162461bcd60e51b815260206004820181905260248201527f4f6e6c7920617274697374206f722041646d696e2041434c20616c6c6f7765646044820152606401610e5a565b600080805b60208160ff161015614213576000868260ff16602081106141dc576141dc615924565b1a905080158015906141f1575060808160ff16105b1561420a578560ff168160ff160361420a578260010192505b506001016141b9565b8360ff168260ff1614925050509392505050565b60006001600160e01b031982166380ac58cd60e01b148061425857506001600160e01b03198216635b5e139f60e01b145b806113c557506301ffc9a760e01b6001600160e01b03198316146113c5565b614282333083611b04565b611b015760405162461bcd60e51b815260206004820152601660248201527513db9b1e4810591b5a5b881050d308185b1b1bddd95960521b6044820152606401610e5a565b601754600160f81b900460ff1661143157601780546001600160f81b0316600160f81b179055604051733732bba83937b532b1ba39a337b93134b23232b760611b90600080516020615f0e83398151915290600090a2565b61432881614d93565b611b015760405162461bcd60e51b8152600401610e5a90615b81565b600081815260046020526040902080546001600160a01b0319166001600160a01b03841690811790915581906143798261243a565b6001600160a01b03167f8c5be1e5ebec7d5bd14f71427d1e84f3dd0314c0f7b2291e5b200ac8c7c3b92560405160405180910390a45050565b8051600003611b015760405162461bcd60e51b815260206004820152601b60248201527a4d75737420696e707574206e6f6e2d656d70747920737472696e6760281b6044820152606401610e5a565b600061440c826148cf565b6000828152600b6020526040902054600160481b90046001600160401b031680158080611ba857506224ea006144428342615bed565b10949350505050565b6000818152600b60205260409020600a015460ff1615611b015760405162461bcd60e51b815260206004820152601c60248201527b115e1d195c9b985b0819195c195b99195b98da595cc81b1bd8dad95960221b6044820152606401610e5a565b60008030836040516020016144c2929190615d66565b60405160208183030381529060405290508051602082016000f091506001600160a01b0382166145345760405162461bcd60e51b815260206004820152601e60248201527f436f6e7472616374417353746f726167653a205772697465204572726f7200006044820152606401610e5a565b50919050565b6001600160a01b038116611b015760405162461bcd60e51b815260206004820152601b60248201527a4d75737420696e707574206e6f6e2d7a65726f206164647265737360281b6044820152606401610e5a565b601180546001600160a01b038085166001600160a01b031992831617909255601480548484169083161790556010805487841690831617905560128054928616929091169190911790556040517570726f766964657253616c657341646472657373657360501b90600080516020615f0e83398151915290600090a250505050565b601861461c828261586b565b506040516d64656661756c744261736555524960901b90600080516020615f0e83398151915290600090a250565b6000806146568361243a565b9050806001600160a01b0316846001600160a01b0316148061467d575061467d8185613ce9565b80611ba85750836001600160a01b0316614696846114c5565b6001600160a01b031614949350505050565b826001600160a01b03166146bb8261243a565b6001600160a01b03161461471f5760405162461bcd60e51b815260206004820152602560248201527f4552433732313a207472616e736665722066726f6d20696e636f72726563742060448201526437bbb732b960d91b6064820152608401610e5a565b6001600160a01b0382166147815760405162461bcd60e51b8152602060048201526024808201527f4552433732313a207472616e7366657220746f20746865207a65726f206164646044820152637265737360e01b6064820152608401610e5a565b61478c600082614344565b6001600160a01b03831660009081526003602052604081208054600192906147b5908490615bed565b90915550506001600160a01b03821660009081526003602052604081208054600192906147e3908490615ce8565b909155505060008181526002602052604080822080546001600160a01b0319166001600160a01b0386811691821790925591518493918716917fddf252ad1be2c89b69c2b068fc378daa952ba7f163c4a11628f55a4df523b3ef91a4505050565b6060813b6068811080614855575080155b156148a25760405162461bcd60e51b815260206004820152601d60248201527f436f6e7472616374417353746f726167653a2052656164204572726f720000006044820152606401610e5a565b604080516028198301601f19168101909152606719820180825290925080606860208501863c5050919050565b7f0000000000000000000000000000000000000000000000000000000000000000811015801561490957506017546001600160f81b031681105b611b015760405162461bcd60e51b8152602060048201526019602482015278141c9bda9958dd08125108191bd95cc81b9bdd08195e1a5cdd603a1b6044820152606401610e5a565b606060005b828160ff166020811061496b5761496b615924565b1a60f81b6001600160f81b0319161580159061498a575060208160ff16105b156149a1578061499981615e2e565b915050614956565b60405191506040820160405280825282602083015250919050565b6149c7333083611b04565b80614a06575060006149d7612a8e565b6001600160a01b0316148015614a0657506000828152600e60205260409020600201546001600160a01b031633145b612e085760405162461bcd60e51b815260206004820152603860248201527f4f6e6c792041646d696e2041434c20616c6c6f7765642c206f722061727469736044820152771d081a59881bdddb995c881a185cc81c995b9bdd5b98d95960421b6064820152608401610e5a565b600880546001600160a01b0383166001600160a01b031991821681179092556009805460018101825560009182527f6e1540171b6c0c960b71a7020d9f60077f6af931a8bbf590da0223dacf75c7af01805490921690921790556040517072616e646f6d697a65724164647265737360781b91600080516020615f0e83398151915291a250565b33614b03612a8e565b6001600160a01b0316146114315760405162461bcd60e51b815260206004820181905260248201527f4f776e61626c653a2063616c6c6572206973206e6f7420746865206f776e65726044820152606401610e5a565b614b61614afa565b6114316000614d68565b816001600160a01b0316836001600160a01b031603614bc85760405162461bcd60e51b815260206004820152601960248201527822a9219b99189d1030b8383937bb32903a379031b0b63632b960391b6044820152606401610e5a565b6001600160a01b03838116600081815260056020908152604080832094871680845294825291829020805460ff191686151590811790915591519182527f17307eab39ab6107e8899845ad3d59bd9653f200f220920489ca2b5937696c31910160405180910390a3505050565b614c408484846146a8565b614c4c84848484614db0565b6112e65760405162461bcd60e51b8152600401610e5a90615e4d565b606081600003614c8f5750506040805180820190915260018152600360fc1b602082015290565b8160005b8115614cb95780614ca381615950565b9150614cb29050600a836159e6565b9150614c93565b6000816001600160401b03811115614cd357614cd3615092565b6040519080825280601f01601f191660200182016040528015614cfd576020820181803683370190505b5090505b8415611ba857614d12600183615bed565b9150614d1f600a86615e9f565b614d2a906030615ce8565b60f81b818381518110614d3f57614d3f615924565b60200101906001600160f81b031916908160001a905350614d61600a866159e6565b9450614d01565b614d7181613e70565b600a80546001600160a01b0319166001600160a01b0392909216919091179055565b6000908152600260205260409020546001600160a01b0316151590565b60006001600160a01b0384163b15614ea657604051630a85bd0160e11b81526001600160a01b0385169063150b7a0290614df4903390899088908890600401615eb3565b6020604051808303816000875af1925050508015614e2f575060408051601f3d908101601f19168201909252614e2c91810190615ef0565b60015b614e8c573d808015614e5d576040519150601f19603f3d011682016040523d82523d6000602084013e614e62565b606091505b508051600003614e845760405162461bcd60e51b8152600401610e5a90615e4d565b805181602001fd5b6001600160e01b031916630a85bd0160e11b149050611ba8565b506001949350505050565b508054614ebd906157d4565b6000825580601f10614ecd575050565b601f016020900490600052602060002090810190611b0191905b80821115614efb5760008155600101614ee7565b5090565b60008060408385031215614f1257600080fd5b50508035926020909101359150565b6001600160a01b0381168114611b0157600080fd5b600080600060608486031215614f4b57600080fd5b8335614f5681614f21565b9250602084013591506040840135614f6d81614f21565b809150509250925092565b60008060408385031215614f8b57600080fd5b82359150602083013562ffffff81168114614fa557600080fd5b809150509250929050565b6001600160e01b031981168114611b0157600080fd5b600060208284031215614fd857600080fd5b8135614fe381614fb0565b9392505050565b60005b83811015615005578181015183820152602001614fed565b50506000910152565b60008151808452615026816020860160208601614fea565b601f01601f19169290920160200192915050565b602081526000614fe3602083018461500e565b60006020828403121561505f57600080fd5b5035919050565b6000806040838503121561507957600080fd5b823561508481614f21565b946020939093013593505050565b634e487b7160e01b600052604160045260246000fd5b60006001600160401b03808411156150c2576150c2615092565b604051601f8501601f19908116603f011681019082821181831017156150ea576150ea615092565b8160405280935085815286868601111561510357600080fd5b858560208301376000602087830101525050509392505050565b600082601f83011261512e57600080fd5b614fe3838335602085016150a8565b6000806040838503121561515057600080fd5b8235915060208301356001600160401b0381111561516d57600080fd5b6151798582860161511d565b9150509250929050565b80356003811061519257600080fd5b919050565b600080600080608085870312156151ad57600080fd5b843593506020850135925060408501356001600160401b038111156151d157600080fd5b6151dd8782880161511d565b9250506151ec60608601615183565b905092959194509250565b6000806000806080858703121561520d57600080fd5b843561521881614f21565b9350602085013561522881614f21565b9250604085013561523881614f21565b9150606085013561524881614f21565b939692955090935050565b60006020828403121561526557600080fd5b81356001600160401b0381111561527b57600080fd5b611ba88482850161511d565b60008060006060848603121561529c57600080fd5b83356152a781614f21565b925060208401356152b781614f21565b91506040840135614f6d81614fb0565b6000806000606084860312156152dc57600080fd5b83356152e781614f21565b925060208401356152f781614f21565b929592945050506040919091013590565b634e487b7160e01b600052602160045260246000fd5b6003811061533c57634e487b7160e01b600052602160045260246000fd5b9052565b60208152600082516080602084015261535c60a084018261500e565b90506020840151615370604085018261531e565b5060408401516001600160a01b0316606084810191909152840151838203601f190160808501526153a1828261500e565b95945050505050565b6000602082840312156153bc57600080fd5b8135614fe381614f21565b60008060008060008060c087890312156153e057600080fd5b8635955060208701356153f281614f21565b9450604087013561540281614f21565b935060608701359250608087013561541981614f21565b8092505060a087013590509295509295509295565b6000806020838503121561544157600080fd5b82356001600160401b038082111561545857600080fd5b818501915085601f83011261546c57600080fd5b81358181111561547b57600080fd5b86602082850101111561548d57600080fd5b60209290920196919550909350505050565b6000806000606084860312156154b457600080fd5b8335925060208401356001600160401b038111156154d157600080fd5b6154dd8682870161511d565b9250506154ec60408501615183565b90509250925092565b6000806040838503121561550857600080fd5b823591506020830135614fa581614f21565b60a08152600061552d60a083018861500e565b828103602084015261553f818861500e565b90508281036040840152615553818761500e565b90508281036060840152615567818661500e565b9050828103608084015261557b818561500e565b98975050505050505050565b6001600160a01b031991909116815260200190565b8015158114611b0157600080fd5b600080604083850312156155bd57600080fd5b82356155c881614f21565b91506020830135614fa58161559c565b6000806000606084860312156155ed57600080fd5b833592506020840135915060408401356001600160401b0381111561561157600080fd5b61561d8682870161511d565b9150509250925092565b6000806000806080858703121561563d57600080fd5b843561564881614f21565b9350602085013561565881614f21565b92506040850135915060608501356001600160401b0381111561567a57600080fd5b8501601f8101871361568b57600080fd5b61569a878235602084016150a8565b91505092959194509250565b604080825283519082018190526000906020906060840190828701845b828110156156e85781516001600160a01b0316845292840192908401906001016156c3565b5050508381038285015284518082528583019183019060005b8181101561571d57835183529284019291840191600101615701565b5090979650505050505050565b6000806040838503121561573d57600080fd5b82356001600160401b0381111561575357600080fd5b61575f8582860161511d565b9250506020830135614fa581614f21565b6000806040838503121561578357600080fd5b823561578e81614f21565b91506020830135614fa581614f21565b6060815260006157b1606083018661500e565b82810360208401526157c3818661500e565b915050826040830152949350505050565b600181811c908216806157e857607f821691505b60208210810361453457634e487b7160e01b600052602260045260246000fd5b601f8211156115fc57600081815260208120601f850160051c8101602086101561582f5750805b601f850160051c820191505b8181101561584e5782815560010161583b565b505050505050565b600019600383901b1c191660019190911b1790565b81516001600160401b0381111561588457615884615092565b6158988161589284546157d4565b84615808565b602080601f8311600181146158c757600084156158b55750858301515b6158bf8582615856565b86555061584e565b600085815260208120601f198616915b828110156158f6578886015182559484019460019091019084016158d7565b50858210156159145787850151600019600388901b60f8161c191681555b5050505050600190811b01905550565b634e487b7160e01b600052603260045260246000fd5b634e487b7160e01b600052601160045260246000fd5b6000600182016159625761596261593a565b5060010190565b602080825260189082015277417373657420696e646578206f7574206f662072616e676560401b604082015260600190565b6060815260006159ae606083018661500e565b90506159bd602083018561531e565b62ffffff83166040830152949350505050565b634e487b7160e01b600052601260045260246000fd5b6000826159f5576159f56159d0565b500490565b600060208284031215615a0c57600080fd5b8151614fe38161559c565b6020808252602e908201527f4552433732313a2063616c6c6572206973206e6f7420746f6b656e206f776e6560408201526d1c881b9bdc88185c1c1c9bdd995960921b606082015260800190565b6001600160a01b039586168152938516602085015260408401929092529092166060820152608081019190915260a00190565b6001600160401b03831115615aaf57615aaf615092565b615ac383615abd83546157d4565b83615808565b6000601f841160018114615af15760008515615adf5750838201355b615ae98682615856565b845550615b4b565b600083815260209020601f19861690835b82811015615b225786850135825560209485019460019092019101615b02565b5086821015615b3f5760001960f88860031b161c19848701351681555b505060018560011b0183555b5050505050565b60208152816020820152818360408301376000818301604090810191909152601f909201601f19160101919050565b602080825260189082015277115490cdcc8c4e881a5b9d985b1a59081d1bdad95b88125160421b604082015260600190565b62ffffff818116838216019080821115615bcf57615bcf61593a565b5092915050565b80820281158282048414176113c5576113c561593a565b818103818111156113c5576113c561593a565b62ffffff828116828216039080821115615bcf57615bcf61593a565b818103615c27575050565b615c3182546157d4565b6001600160401b03811115615c4857615c48615092565b615c568161589284546157d4565b6000601f821160018114615c845760008315615c725750848201545b615c7c8482615856565b855550615b4b565b600085815260209020601f19841690600086815260209020845b83811015615cbe5782860154825560019586019590910190602001615c9e565b50858310156159145793015460001960f8600387901b161c19169092555050600190811b01905550565b808201808211156113c5576113c561593a565b60008151615d0d818560208601614fea565b9290920192915050565b60008351615d29818460208801614fea565b835190830190615d3d818360208801614fea565b01949350505050565b6001600160f81b03818116838216019080821115615bcf57615bcf61593a565b6a600b5981380380925939f360a81b81526b1808181218000e5800144cc560a21b600b8201526330082bff60e11b60178201526416d8004d8560da1b601b82015263300cabff60e11b6020820152635b60003560e01b6024820152617fff60f01b6028820152600060488201819052600560fa1b6049830152633021abff60e11b604a830152645b600051ff60d81b604e830152615e0b6053830160008152600c0190565b615e21818660601b6001600160601b0319169052565b6153a16014820185615cfb565b600060ff821660ff8103615e4457615e4461593a565b60010192915050565b60208082526032908201527f4552433732313a207472616e7366657220746f206e6f6e20455243373231526560408201527131b2b4bb32b91034b6b83632b6b2b73a32b960711b606082015260800190565b600082615eae57615eae6159d0565b500690565b6001600160a01b0385811682528416602082015260408101839052608060608201819052600090615ee69083018461500e565b9695505050505050565b600060208284031215615f0257600080fd5b8151614fe381614fb056fe8b810f233ce7ee6e962ab4d98bf0277751de1f5589de3dcc812ac2047994d009b96a30340e86d03ce4be42f94ac02d7b27b4a4cdae942beb69026718dfe66afca2646970667358221220aa658837d97a78b117136016cfbedb1866cfc76967db22f9ed6d1227e474797064736f6c634300081100338b810f233ce7ee6e962ab4d98bf0277751de1f5589de3dcc812ac2047994d009",
  "linkReferences": {},
  "deployedLinkReferences": {}
}