{
  "_format": "hh-sol-artifact-1",
  "contractName": "GenArt721FilteredMinterETHAuction",
  "sourceName": "contracts/minter-suite/GenArt721FilteredMinterETHAuction.sol",
  "abi": [
    {
      "inputs": [
        {
          "internalType": "address",
          "name": "_genArt721Address",
          "type": "address"
        },
        {
          "internalType": "address",
          "name": "_minterFilter",
          "type": "address"
        }
      ],
      "stateMutability": "nonpayable",
      "type": "constructor"
    },
    {
      "anonymous": false,
      "inputs": [
        {
          "indexed": false,
          "internalType": "uint256",
          "name": "_minimumAuctionLengthSeconds",
          "type": "uint256"
        }
      ],
      "name": "MinimumAuctionLengthSecondsUpdated",
      "type": "event"
    },
    {
      "anonymous": false,
      "inputs": [
        {
          "indexed": false,
          "internalType": "uint256",
          "name": "_projectId",
          "type": "uint256"
        },
        {
          "indexed": false,
          "internalType": "bool",
          "name": "_purchaseToDisabled",
          "type": "bool"
        }
      ],
      "name": "PurchaseToDisabledUpdated",
      "type": "event"
    },
    {
      "anonymous": false,
      "inputs": [
        {
          "indexed": true,
          "internalType": "uint256",
          "name": "projectId",
          "type": "uint256"
        },
        {
          "indexed": false,
          "internalType": "uint256",
          "name": "_auctionTimestampStart",
          "type": "uint256"
        },
        {
          "indexed": false,
          "internalType": "uint256",
          "name": "_auctionTimestampEnd",
          "type": "uint256"
        },
        {
          "indexed": false,
          "internalType": "uint256",
          "name": "_auctionPriceStart",
          "type": "uint256"
        },
        {
          "indexed": false,
          "internalType": "uint256",
          "name": "_auctionPriceEnd",
          "type": "uint256"
        }
      ],
      "name": "SetAuctionDetails",
      "type": "event"
    },
    {
      "inputs": [],
      "name": "artblocksContract",
      "outputs": [
        {
          "internalType": "contract IGenArt721CoreContract",
          "name": "",
          "type": "address"
        }
      ],
      "stateMutability": "view",
      "type": "function"
    },
    {
      "inputs": [
        {
          "internalType": "uint256",
          "name": "_projectId",
          "type": "uint256"
        }
      ],
      "name": "auctionTimeRemaining",
      "outputs": [
        {
          "internalType": "uint256",
          "name": "",
          "type": "uint256"
        }
      ],
      "stateMutability": "view",
      "type": "function"
    },
    {
      "inputs": [
        {
          "internalType": "uint256",
          "name": "",
          "type": "uint256"
        }
      ],
      "name": "contractMintable",
      "outputs": [
        {
          "internalType": "bool",
          "name": "",
          "type": "bool"
        }
      ],
      "stateMutability": "view",
      "type": "function"
    },
    {
      "inputs": [
        {
          "internalType": "uint256",
          "name": "_projectId",
          "type": "uint256"
        }
      ],
      "name": "getPrice",
      "outputs": [
        {
          "internalType": "uint256",
          "name": "",
          "type": "uint256"
        }
      ],
      "stateMutability": "view",
      "type": "function"
    },
    {
      "inputs": [
        {
          "internalType": "uint256",
          "name": "_projectId",
          "type": "uint256"
        }
      ],
      "name": "isAuctionLive",
      "outputs": [
        {
          "internalType": "bool",
          "name": "",
          "type": "bool"
        }
      ],
      "stateMutability": "view",
      "type": "function"
    },
    {
      "inputs": [],
      "name": "minimumAuctionLengthSeconds",
      "outputs": [
        {
          "internalType": "uint256",
          "name": "",
          "type": "uint256"
        }
      ],
      "stateMutability": "view",
      "type": "function"
    },
    {
      "inputs": [],
      "name": "minterFilter",
      "outputs": [
        {
          "internalType": "contract IMinterFilter",
          "name": "",
          "type": "address"
        }
      ],
      "stateMutability": "view",
      "type": "function"
    },
    {
      "inputs": [],
      "name": "minterType",
      "outputs": [
        {
          "internalType": "string",
          "name": "",
          "type": "string"
        }
      ],
      "stateMutability": "view",
      "type": "function"
    },
    {
      "inputs": [
        {
          "internalType": "uint256",
          "name": "",
          "type": "uint256"
        }
      ],
      "name": "projectAuctionParameters",
      "outputs": [
        {
          "internalType": "uint256",
          "name": "timestampStart",
          "type": "uint256"
        },
        {
          "internalType": "uint256",
          "name": "timestampEnd",
          "type": "uint256"
        },
        {
          "internalType": "uint256",
          "name": "priceStart",
          "type": "uint256"
        },
        {
          "internalType": "uint256",
          "name": "priceEnd",
          "type": "uint256"
        }
      ],
      "stateMutability": "view",
      "type": "function"
    },
    {
      "inputs": [
        {
          "internalType": "uint256",
          "name": "",
          "type": "uint256"
        }
      ],
      "name": "projectMaxHasBeenInvoked",
      "outputs": [
        {
          "internalType": "bool",
          "name": "",
          "type": "bool"
        }
      ],
      "stateMutability": "view",
      "type": "function"
    },
    {
      "inputs": [
        {
          "internalType": "uint256",
          "name": "",
          "type": "uint256"
        }
      ],
      "name": "projectMaxInvocations",
      "outputs": [
        {
          "internalType": "uint256",
          "name": "",
          "type": "uint256"
        }
      ],
      "stateMutability": "view",
      "type": "function"
    },
    {
      "inputs": [
        {
          "internalType": "address",
          "name": "",
          "type": "address"
        },
        {
          "internalType": "uint256",
          "name": "",
          "type": "uint256"
        }
      ],
      "name": "projectMintCounter",
      "outputs": [
        {
          "internalType": "uint256",
          "name": "",
          "type": "uint256"
        }
      ],
      "stateMutability": "view",
      "type": "function"
    },
    {
      "inputs": [
        {
          "internalType": "uint256",
          "name": "",
          "type": "uint256"
        }
      ],
      "name": "projectMintLimit",
      "outputs": [
        {
          "internalType": "uint256",
          "name": "",
          "type": "uint256"
        }
      ],
      "stateMutability": "view",
      "type": "function"
    },
    {
      "inputs": [
        {
          "internalType": "uint256",
          "name": "_projectId",
          "type": "uint256"
        }
      ],
      "name": "purchase",
      "outputs": [
        {
          "internalType": "uint256",
          "name": "tokenId",
          "type": "uint256"
        }
      ],
      "stateMutability": "payable",
      "type": "function"
    },
    {
      "inputs": [
        {
          "internalType": "address",
          "name": "_to",
          "type": "address"
        },
        {
          "internalType": "uint256",
          "name": "_projectId",
          "type": "uint256"
        }
      ],
      "name": "purchaseTo",
      "outputs": [
        {
          "internalType": "uint256",
          "name": "tokenId",
          "type": "uint256"
        }
      ],
      "stateMutability": "payable",
      "type": "function"
    },
    {
      "inputs": [
        {
          "internalType": "uint256",
          "name": "",
          "type": "uint256"
        }
      ],
      "name": "purchaseToDisabled",
      "outputs": [
        {
          "internalType": "bool",
          "name": "",
          "type": "bool"
        }
      ],
      "stateMutability": "view",
      "type": "function"
    },
    {
      "inputs": [
        {
          "internalType": "uint256",
          "name": "_projectId",
          "type": "uint256"
        },
        {
          "internalType": "uint256",
          "name": "_auctionTimestampStart",
          "type": "uint256"
        },
        {
          "internalType": "uint256",
          "name": "_auctionTimestampEnd",
          "type": "uint256"
        },
        {
          "internalType": "uint256",
          "name": "_auctionPriceStart",
          "type": "uint256"
        },
        {
          "internalType": "uint256",
          "name": "_auctionPriceEnd",
          "type": "uint256"
        }
      ],
      "name": "setAuctionDetails",
      "outputs": [],
      "stateMutability": "nonpayable",
      "type": "function"
    },
    {
      "inputs": [
        {
          "internalType": "uint256",
          "name": "_minimumAuctionLengthSeconds",
          "type": "uint256"
        }
      ],
      "name": "setMinimumAuctionLengthSeconds",
      "outputs": [],
      "stateMutability": "nonpayable",
      "type": "function"
    },
    {
      "inputs": [
        {
          "internalType": "uint256",
          "name": "_projectId",
          "type": "uint256"
        }
      ],
      "name": "setProjectMaxInvocations",
      "outputs": [],
      "stateMutability": "nonpayable",
      "type": "function"
    },
    {
      "inputs": [
        {
          "internalType": "uint256",
          "name": "_projectId",
          "type": "uint256"
        },
        {
          "internalType": "uint8",
          "name": "_limit",
          "type": "uint8"
        }
      ],
      "name": "setProjectMintLimit",
      "outputs": [],
      "stateMutability": "nonpayable",
      "type": "function"
    },
    {
      "inputs": [
        {
          "internalType": "uint256",
          "name": "_projectId",
          "type": "uint256"
        }
      ],
      "name": "toggleContractMintable",
      "outputs": [],
      "stateMutability": "nonpayable",
      "type": "function"
    },
    {
      "inputs": [
        {
          "internalType": "uint256",
          "name": "_projectId",
          "type": "uint256"
        }
      ],
      "name": "togglePurchaseToDisabled",
      "outputs": [],
      "stateMutability": "nonpayable",
      "type": "function"
    }
  ],
  "bytecode": "0x6080604052610e106008553480156200001757600080fd5b5060405162001cc438038062001cc48339810160408190526200003a9162000089565b600080546001600160a01b039384166001600160a01b03199182161790915560018054929093169116179055620000c1565b80516001600160a01b03811681146200008457600080fd5b919050565b600080604083850312156200009d57600080fd5b620000a8836200006c565b9150620000b8602084016200006c565b90509250929050565b611bf380620000d16000396000f3fe6080604052600436106101355760003560e01c80639e857419116100ab578063cd379f6e1161006f578063cd379f6e146103ed578063cfff5cf11461040d578063e75722301461043d578063e9d1e8ac1461045d578063efef39a11461047f578063f7bd4b881461049257600080fd5b80639e85741914610347578063acffea0514610367578063b2d30ac714610387578063bee560031461039d578063c9008b43146103cd57600080fd5b80633a4657b4116100fd5780633a4657b41461023457806340d1397e1461027a578063462add461461029a57806356690aaf146102da57806362f7a7ed14610307578063891407c01461033457600080fd5b806308d941881461013a5780630dcd404b14610170578063231c2281146101905780632f077ee6146101b25780632fc37ef114610214575b600080fd5b34801561014657600080fd5b5060015461015a906001600160a01b031681565b6040516101679190611766565b60405180910390f35b34801561017c57600080fd5b5060005461015a906001600160a01b031681565b34801561019c57600080fd5b506101b06101ab36600461177a565b6104b2565b005b3480156101be57600080fd5b506101f46101cd3660046117b0565b60096020526000908152604090208054600182015460028301546003909301549192909184565b604080519485526020850193909352918301526060820152608001610167565b34801561022057600080fd5b506101b061022f3660046117b0565b61056f565b34801561024057600080fd5b5061026c61024f3660046117e1565b600460209081526000928352604080842090915290825290205481565b604051908152602001610167565b34801561028657600080fd5b506101b06102953660046117b0565b610647565b3480156102a657600080fd5b506102ca6102b53660046117b0565b60066020526000908152604090205460ff1681565b6040519015158152602001610167565b3480156102e657600080fd5b5061026c6102f53660046117b0565b60076020526000908152604090205481565b34801561031357600080fd5b5061026c6103223660046117b0565b60056020526000908152604090205481565b61026c6103423660046117e1565b610740565b34801561035357600080fd5b5061026c6103623660046117b0565b610b94565b34801561037357600080fd5b506101b06103823660046117b0565b610c3e565b34801561039357600080fd5b5061026c60085481565b3480156103a957600080fd5b506102ca6103b83660046117b0565b60026020526000908152604090205460ff1681565b3480156103d957600080fd5b506102ca6103e83660046117b0565b610cfa565b3480156103f957600080fd5b506101b061040836600461180d565b610d4a565b34801561041957600080fd5b506102ca6104283660046117b0565b60036020526000908152604090205460ff1681565b34801561044957600080fd5b5061026c6104583660046117b0565b6110a3565b34801561046957600080fd5b50610472611177565b6040516101679190611878565b61026c61048d3660046117b0565b611193565b34801561049e57600080fd5b506101b06104ad3660046117b0565b6111a5565b600054604051633af32abf60e01b81526001600160a01b0390911690633af32abf906104e2903390600401611766565b60206040518083038186803b1580156104fa57600080fd5b505afa15801561050e573d6000803e3d6000fd5b505050506040513d601f19601f8201168201806040525081019061053291906118c0565b6105575760405162461bcd60e51b815260040161054e906118db565b60405180910390fd5b60009182526005602052604090912060ff9091169055565b600054604051633af32abf60e01b81526001600160a01b0390911690633af32abf9061059f903390600401611766565b60206040518083038186803b1580156105b757600080fd5b505afa1580156105cb573d6000803e3d6000fd5b505050506040513d601f19601f820116820180604052508101906105ef91906118c0565b61060b5760405162461bcd60e51b815260040161054e906118db565b60088190556040518181527f03c81e81b0ed0ca5444a9d70c9f3d1c78d79d6a31419f77736e886d092ed1a9e906020015b60405180910390a150565b600054604051633af32abf60e01b81526001600160a01b0390911690633af32abf90610677903390600401611766565b60206040518083038186803b15801561068f57600080fd5b505afa1580156106a3573d6000803e3d6000fd5b505050506040513d601f19601f820116820180604052508101906106c791906118c0565b6106e35760405162461bcd60e51b815260040161054e906118db565b600081815260036020908152604091829020805460ff8082161560ff199092168217909255835185815291161515918101919091527fce8ced1e9d6979c7589d3c8786f4d51a8034faa5ff2cbc5a2271364f787feccb910161063c565b60008181526006602052604081205460ff16156107ad5760405162461bcd60e51b815260206004820152602560248201527f4d6178696d756d206e756d626572206f6620696e766f636174696f6e732072656044820152641858da195960da1b606482015260840161054e565b60008281526002602052604090205460ff16610805573332146108055760405162461bcd60e51b815260206004820152601060248201526f4e6f20436f6e7472616374204275797360801b604482015260640161054e565b60008281526003602052604090205460ff161561086e57336001600160a01b0384161461086e5760405162461bcd60e51b8152602060048201526017602482015276139bc8181c1d5c98da185cd9551bd808105b1b1bddd959604a1b604482015260640161054e565b6040516208aa8960eb1b602082015260230160408051808303601f190181529082905280516020909101206000546320927ec960e01b83526004830185905290916001600160a01b03909116906320927ec99060240160006040518083038186803b1580156108dc57600080fd5b505afa1580156108f0573d6000803e3d6000fd5b505050506040513d6000823e601f3d908101601f19168201604052610918919081019061199e565b60405160200161092891906119db565b604051602081830303815290604052805190602001201461098b5760405162461bcd60e51b815260206004820152601c60248201527f50726f6a6563742063757272656e6379206d7573742062652045544800000000604482015260640161054e565b6000610996836110a3565b9050803410156109e85760405162461bcd60e51b815260206004820181905260248201527f4d7573742073656e64206d696e696d756d2076616c756520746f206d696e7421604482015260640161054e565b60008381526005602052604090205415610a9357600083815260056020908152604080832054338452600483528184208785529092529091205410610a675760405162461bcd60e51b815260206004820152601560248201527414995858da1959081b5a5b9d1a5b99c81b1a5b5a5d605a1b604482015260640161054e565b3360009081526004602090815260408083208684529091528120805491610a8d83611a0d565b91905055505b610a9d8382611304565b600154604051630d4d151360e01b81526001600160a01b0386811660048301526024820186905233604483015290911690630d4d151390606401602060405180830381600087803b158015610af157600080fd5b505af1158015610b05573d6000803e3d6000fd5b505050506040513d601f19601f82011682018060405250810190610b299190611a28565b60008481526007602052604090205490925015801590610b6e5750600083815260076020526040902054610b5f90600190611a41565b610b6c620f424084611a6e565b145b15610b8d576000838152600660205260409020805460ff191660011790555b5092915050565b6000818152600960209081526040808320815160808101835281548152600182015493810193909352600281015491830191909152600301546060820152610bdb83610cfa565b610c275760405162461bcd60e51b815260206004820152601d60248201527f61756374696f6e206973206e6f742063757272656e746c79206c697665000000604482015260640161054e565b428160200151610c379190611a41565b9392505050565b600054604051633af32abf60e01b81526001600160a01b0390911690633af32abf90610c6e903390600401611766565b60206040518083038186803b158015610c8657600080fd5b505afa158015610c9a573d6000803e3d6000fd5b505050506040513d601f19601f82011682018060405250810190610cbe91906118c0565b610cda5760405162461bcd60e51b815260040161054e906118db565b6000908152600260205260409020805460ff19811660ff90911615179055565b600081815260096020908152604080832081516080810183528154815260018201549381018490526002820154928101929092526003015460608201529042108015610c37575051421192915050565b600054604051633af32abf60e01b815286916001600160a01b031690633af32abf90610d7a903390600401611766565b60206040518083038186803b158015610d9257600080fd5b505afa158015610da6573d6000803e3d6000fd5b505050506040513d601f19601f82011682018060405250810190610dca91906118c0565b80610e61575060005460405163a47d29cb60e01b8152600481018390526001600160a01b039091169063a47d29cb9060240160206040518083038186803b158015610e1457600080fd5b505afa158015610e28573d6000803e3d6000fd5b505050506040513d601f19601f82011682018060405250810190610e4c9190611a82565b6001600160a01b0316336001600160a01b0316145b610ead5760405162461bcd60e51b815260206004820152601f60248201527f4f6e6c7920436f72652077686974656c6973746564206f722041727469737400604482015260640161054e565b848411610f135760405162461bcd60e51b815260206004820152602e60248201527f41756374696f6e20656e64206d7573742062652067726561746572207468616e60448201526d08185d58dd1a5bdb881cdd185c9d60921b606482015260840161054e565b600854610f209086611a9f565b841015610f955760405162461bcd60e51b815260206004820152603b60248201527f41756374696f6e206c656e677468206d757374206265206174206c656173742060448201527f6d696e696d756d41756374696f6e4c656e6774685365636f6e64730000000000606482015260840161054e565b81831161100a5760405162461bcd60e51b815260206004820152603a60248201527f41756374696f6e207374617274207072696365206d757374206265206772656160448201527f746572207468616e2061756374696f6e20656e64207072696365000000000000606482015260840161054e565b60408051608080820183528782526020808301888152838501888152606080860189815260008e8152600986528890209651875592516001870155905160028601559051600390940193909355835189815290810188905292830186905290820184905287917f38b3058b75696f9e45bffa9c4b237adcde13d74c7bc1bea63e13c712d0776c74910160405180910390a2505050505050565b6000818152600960209081526040808320815160808101835281548082526001830154948201949094526002820154928101929092526003015460608201529042116110f3576040015192915050565b80602001514210611108576060015192915050565b80516000906111179042611a41565b905060008260000151836020015161112f9190611a41565b90506000836060015184604001516111479190611a41565b9050816111548285611ab7565b61115e9190611ad6565b846040015161116d9190611a41565b9695505050505050565b604051806060016040528060218152602001611b9d6021913981565b600061119f3383610740565b92915050565b600054604051633af32abf60e01b81526001600160a01b0390911690633af32abf906111d5903390600401611766565b60206040518083038186803b1580156111ed57600080fd5b505afa158015611201573d6000803e3d6000fd5b505050506040513d601f19601f8201168201806040525081019061122591906118c0565b6112415760405162461bcd60e51b815260040161054e906118db565b600080546040516346161b1160e11b81526004810184905282916001600160a01b031690638c2c36229060240160006040518083038186803b15801561128657600080fd5b505afa15801561129a573d6000803e3d6000fd5b505050506040513d6000823e601f3d908101601f191682016040526112c29190810190611aea565b505050600089815260076020526040902083905550909550909350505050818110156112ff576000838152600660205260409020805460ff191690555b505050565b34156117625760006113168234611a41565b9050801561134d57604051339082156108fc029083906000818181858888f1935050505015801561134b573d6000803e3d6000fd5b505b60008060009054906101000a90046001600160a01b03166001600160a01b0316634f029c396040518163ffffffff1660e01b815260040160206040518083038186803b15801561139c57600080fd5b505afa1580156113b0573d6000803e3d6000fd5b505050506040513d601f19601f820116820180604052508101906113d49190611a28565b6113df606485611ad6565b6113e99190611ab7565b905080156114af5760008054906101000a90046001600160a01b03166001600160a01b0316633949f9066040518163ffffffff1660e01b815260040160206040518083038186803b15801561143d57600080fd5b505afa158015611451573d6000803e3d6000fd5b505050506040513d601f19601f820116820180604052508101906114759190611a82565b6001600160a01b03166108fc829081150290604051600060405180830381858888f193505050501580156114ad573d6000803e3d6000fd5b505b60006114bb8285611a41565b6000805460405163cc74234b60e01b815260048101899052929350909182916001600160a01b03169063cc74234b9060240160206040518083038186803b15801561150557600080fd5b505afa158015611519573d6000803e3d6000fd5b505050506040513d601f19601f8201168201806040525081019061153d9190611a28565b11156116925760005460405163cc74234b60e01b8152600481018890526001600160a01b039091169063cc74234b9060240160206040518083038186803b15801561158757600080fd5b505afa15801561159b573d6000803e3d6000fd5b505050506040513d601f19601f820116820180604052508101906115bf9190611a28565b6115ca606484611ad6565b6115d49190611ab7565b9050801561169257600054604051636bd8225b60e11b8152600481018890526001600160a01b039091169063d7b044b69060240160206040518083038186803b15801561162057600080fd5b505afa158015611634573d6000803e3d6000fd5b505050506040513d601f19601f820116820180604052508101906116589190611a82565b6001600160a01b03166108fc829081150290604051600060405180830381858888f19350505050158015611690573d6000803e3d6000fd5b505b600061169e8284611a41565b9050801561175c5760005460405163a47d29cb60e01b8152600481018990526001600160a01b039091169063a47d29cb9060240160206040518083038186803b1580156116ea57600080fd5b505afa1580156116fe573d6000803e3d6000fd5b505050506040513d601f19601f820116820180604052508101906117229190611a82565b6001600160a01b03166108fc829081150290604051600060405180830381858888f1935050505015801561175a573d6000803e3d6000fd5b505b50505050505b5050565b6001600160a01b0391909116815260200190565b6000806040838503121561178d57600080fd5b82359150602083013560ff811681146117a557600080fd5b809150509250929050565b6000602082840312156117c257600080fd5b5035919050565b6001600160a01b03811681146117de57600080fd5b50565b600080604083850312156117f457600080fd5b82356117ff816117c9565b946020939093013593505050565b600080600080600060a0868803121561182557600080fd5b505083359560208501359550604085013594606081013594506080013592509050565b60005b8381101561186357818101518382015260200161184b565b83811115611872576000848401525b50505050565b6020815260008251806020840152611897816040850160208701611848565b601f01601f19169190910160400192915050565b805180151581146118bb57600080fd5b919050565b6000602082840312156118d257600080fd5b610c37826118ab565b60208082526015908201527413db9b1e4810dbdc99481dda1a5d195b1a5cdd1959605a1b604082015260600190565b634e487b7160e01b600052604160045260246000fd5b600082601f83011261193157600080fd5b815167ffffffffffffffff8082111561194c5761194c61190a565b604051601f8301601f19908116603f011681019082821181831017156119745761197461190a565b8160405283815286602085880101111561198d57600080fd5b61116d846020830160208901611848565b6000602082840312156119b057600080fd5b815167ffffffffffffffff8111156119c757600080fd5b6119d384828501611920565b949350505050565b600082516119ed818460208701611848565b9190910192915050565b634e487b7160e01b600052601160045260246000fd5b6000600019821415611a2157611a216119f7565b5060010190565b600060208284031215611a3a57600080fd5b5051919050565b600082821015611a5357611a536119f7565b500390565b634e487b7160e01b600052601260045260246000fd5b600082611a7d57611a7d611a58565b500690565b600060208284031215611a9457600080fd5b8151610c37816117c9565b60008219821115611ab257611ab26119f7565b500190565b6000816000190483118215151615611ad157611ad16119f7565b500290565b600082611ae557611ae5611a58565b500490565b60008060008060008060008060006101208a8c031215611b0957600080fd5b8951611b14816117c9565b8099505060208a0151975060408a0151965060608a01519550611b3960808b016118ab565b945060a08a0151611b49816117c9565b60c08b015160e08c0151919550935067ffffffffffffffff811115611b6d57600080fd5b611b798c828d01611920565b9250506101008a0151611b8b816117c9565b80915050929598509295985092959856fe47656e41727437323146696c74657265644d696e74657245544841756374696f6ea26469706673582212209bef1d619d81fd9cfff45a8bb49854429424c09aa927a72a3b482ec7ffd6464564736f6c63430008090033",
  "linkReferences": {},
  "deployedLinkReferences": {}
}