{
  "_format": "hh-sol-artifact-1",
  "contractName": "GenArt721CoreV3",
  "sourceName": "contracts/GenArt721CoreV3.sol",
  "abi": [
    {
      "inputs": [
        {
          "internalType": "string",
          "name": "_tokenName",
          "type": "string"
        },
        {
          "internalType": "string",
          "name": "_tokenSymbol",
          "type": "string"
        },
        {
          "internalType": "address",
          "name": "_randomizerContract",
          "type": "address"
        },
        {
          "internalType": "address",
          "name": "_adminACLContract",
          "type": "address"
        },
        {
          "internalType": "uint256",
          "name": "_startingProjectId",
          "type": "uint256"
        }
      ],
      "stateMutability": "nonpayable",
      "type": "constructor"
    },
    {
      "anonymous": false,
      "inputs": [
        {
          "indexed": true,
          "internalType": "uint256",
          "name": "_projectId",
          "type": "uint256"
        }
      ],
      "name": "AcceptedArtistAddressesAndSplits",
      "type": "event"
    },
    {
      "anonymous": false,
      "inputs": [
        {
          "indexed": true,
          "internalType": "address",
          "name": "owner",
          "type": "address"
        },
        {
          "indexed": true,
          "internalType": "address",
          "name": "approved",
          "type": "address"
        },
        {
          "indexed": true,
          "internalType": "uint256",
          "name": "tokenId",
          "type": "uint256"
        }
      ],
      "name": "Approval",
      "type": "event"
    },
    {
      "anonymous": false,
      "inputs": [
        {
          "indexed": true,
          "internalType": "address",
          "name": "owner",
          "type": "address"
        },
        {
          "indexed": true,
          "internalType": "address",
          "name": "operator",
          "type": "address"
        },
        {
          "indexed": false,
          "internalType": "bool",
          "name": "approved",
          "type": "bool"
        }
      ],
      "name": "ApprovalForAll",
      "type": "event"
    },
    {
      "anonymous": false,
      "inputs": [
        {
          "indexed": true,
          "internalType": "address",
          "name": "_to",
          "type": "address"
        },
        {
          "indexed": true,
          "internalType": "uint256",
          "name": "_tokenId",
          "type": "uint256"
        }
      ],
      "name": "Mint",
      "type": "event"
    },
    {
      "anonymous": false,
      "inputs": [
        {
          "indexed": true,
          "internalType": "address",
          "name": "_currentMinter",
          "type": "address"
        }
      ],
      "name": "MinterUpdated",
      "type": "event"
    },
    {
      "anonymous": false,
      "inputs": [
        {
          "indexed": true,
          "internalType": "address",
          "name": "previousOwner",
          "type": "address"
        },
        {
          "indexed": true,
          "internalType": "address",
          "name": "newOwner",
          "type": "address"
        }
      ],
      "name": "OwnershipTransferred",
      "type": "event"
    },
    {
      "anonymous": false,
      "inputs": [
        {
          "indexed": true,
          "internalType": "bytes32",
          "name": "_field",
          "type": "bytes32"
        }
      ],
      "name": "PlatformUpdated",
      "type": "event"
    },
    {
      "anonymous": false,
      "inputs": [
        {
          "indexed": true,
          "internalType": "uint256",
          "name": "_projectId",
          "type": "uint256"
        },
        {
          "indexed": true,
          "internalType": "bytes32",
          "name": "_update",
          "type": "bytes32"
        }
      ],
      "name": "ProjectUpdated",
      "type": "event"
    },
    {
      "anonymous": false,
      "inputs": [
        {
          "indexed": true,
          "internalType": "uint256",
          "name": "_projectId",
          "type": "uint256"
        },
        {
          "indexed": false,
          "internalType": "address",
          "name": "_artistAddress",
          "type": "address"
        },
        {
          "indexed": false,
          "internalType": "address",
          "name": "_additionalPayeePrimarySales",
          "type": "address"
        },
        {
          "indexed": false,
          "internalType": "uint256",
          "name": "_additionalPayeePrimarySalesPercentage",
          "type": "uint256"
        },
        {
          "indexed": false,
          "internalType": "address",
          "name": "_additionalPayeeSecondarySales",
          "type": "address"
        },
        {
          "indexed": false,
          "internalType": "uint256",
          "name": "_additionalPayeeSecondarySalesPercentage",
          "type": "uint256"
        }
      ],
      "name": "ProposedArtistAddressesAndSplit",
      "type": "event"
    },
    {
      "anonymous": false,
      "inputs": [
        {
          "indexed": true,
          "internalType": "address",
          "name": "from",
          "type": "address"
        },
        {
          "indexed": true,
          "internalType": "address",
          "name": "to",
          "type": "address"
        },
        {
          "indexed": true,
          "internalType": "uint256",
          "name": "tokenId",
          "type": "uint256"
        }
      ],
      "name": "Transfer",
      "type": "event"
    },
    {
      "inputs": [],
      "name": "ART_BLOCKS_ERC721TOKEN_ADDRESS_V0",
      "outputs": [
        {
          "internalType": "address",
          "name": "",
          "type": "address"
        }
      ],
      "stateMutability": "view",
      "type": "function"
    },
    {
      "inputs": [],
      "name": "ART_BLOCKS_ERC721TOKEN_ADDRESS_V1",
      "outputs": [
        {
          "internalType": "address",
          "name": "",
          "type": "address"
        }
      ],
      "stateMutability": "view",
      "type": "function"
    },
    {
      "inputs": [
        {
          "internalType": "string",
          "name": "_projectName",
          "type": "string"
        },
        {
          "internalType": "address payable",
          "name": "_artistAddress",
          "type": "address"
        }
      ],
      "name": "addProject",
      "outputs": [],
      "stateMutability": "nonpayable",
      "type": "function"
    },
    {
      "inputs": [
        {
          "internalType": "uint256",
          "name": "_projectId",
          "type": "uint256"
        },
        {
          "internalType": "string",
          "name": "_script",
          "type": "string"
        }
      ],
      "name": "addProjectScript",
      "outputs": [],
      "stateMutability": "nonpayable",
      "type": "function"
    },
    {
      "inputs": [],
      "name": "admin",
      "outputs": [
        {
          "internalType": "address",
          "name": "",
          "type": "address"
        }
      ],
      "stateMutability": "view",
      "type": "function"
    },
    {
      "inputs": [
        {
          "internalType": "address",
          "name": "_sender",
          "type": "address"
        },
        {
          "internalType": "address",
          "name": "_contract",
          "type": "address"
        },
        {
          "internalType": "bytes4",
          "name": "_selector",
          "type": "bytes4"
        }
      ],
      "name": "adminACLAllowed",
      "outputs": [
        {
          "internalType": "bool",
          "name": "",
          "type": "bool"
        }
      ],
      "stateMutability": "nonpayable",
      "type": "function"
    },
    {
      "inputs": [],
      "name": "adminACLContract",
      "outputs": [
        {
          "internalType": "contract IAdminACLV0",
          "name": "",
          "type": "address"
        }
      ],
      "stateMutability": "view",
      "type": "function"
    },
    {
      "inputs": [
        {
          "internalType": "uint256",
          "name": "_projectId",
          "type": "uint256"
        },
        {
          "internalType": "address payable",
          "name": "_artistAddress",
          "type": "address"
        },
        {
          "internalType": "address payable",
          "name": "_additionalPayeePrimarySales",
          "type": "address"
        },
        {
          "internalType": "uint256",
          "name": "_additionalPayeePrimarySalesPercentage",
          "type": "uint256"
        },
        {
          "internalType": "address payable",
          "name": "_additionalPayeeSecondarySales",
          "type": "address"
        },
        {
          "internalType": "uint256",
          "name": "_additionalPayeeSecondarySalesPercentage",
          "type": "uint256"
        }
      ],
      "name": "adminAcceptArtistAddressesAndSplits",
      "outputs": [],
      "stateMutability": "nonpayable",
      "type": "function"
    },
    {
      "inputs": [
        {
          "internalType": "address",
          "name": "to",
          "type": "address"
        },
        {
          "internalType": "uint256",
          "name": "tokenId",
          "type": "uint256"
        }
      ],
      "name": "approve",
      "outputs": [],
      "stateMutability": "nonpayable",
      "type": "function"
    },
    {
      "inputs": [],
      "name": "artblocksAddress",
      "outputs": [
        {
          "internalType": "address payable",
          "name": "",
          "type": "address"
        }
      ],
      "stateMutability": "view",
      "type": "function"
    },
    {
      "inputs": [],
      "name": "artblocksCurationRegistryAddress",
      "outputs": [
        {
          "internalType": "address",
          "name": "",
          "type": "address"
        }
      ],
      "stateMutability": "view",
      "type": "function"
    },
    {
      "inputs": [],
      "name": "artblocksDependencyRegistryAddress",
      "outputs": [
        {
          "internalType": "address",
          "name": "",
          "type": "address"
        }
      ],
      "stateMutability": "view",
      "type": "function"
    },
    {
      "inputs": [],
      "name": "artblocksPercentage",
      "outputs": [
        {
          "internalType": "uint256",
          "name": "",
          "type": "uint256"
        }
      ],
      "stateMutability": "view",
      "type": "function"
    },
    {
      "inputs": [],
      "name": "artblocksPrimarySalesAddress",
      "outputs": [
        {
          "internalType": "address payable",
          "name": "",
          "type": "address"
        }
      ],
      "stateMutability": "view",
      "type": "function"
    },
    {
      "inputs": [],
      "name": "artblocksPrimarySalesPercentage",
      "outputs": [
        {
          "internalType": "uint256",
          "name": "",
          "type": "uint256"
        }
      ],
      "stateMutability": "view",
      "type": "function"
    },
    {
      "inputs": [],
      "name": "artblocksSecondarySalesAddress",
      "outputs": [
        {
          "internalType": "address payable",
          "name": "",
          "type": "address"
        }
      ],
      "stateMutability": "view",
      "type": "function"
    },
    {
      "inputs": [],
      "name": "artblocksSecondarySalesBPS",
      "outputs": [
        {
          "internalType": "uint256",
          "name": "",
          "type": "uint256"
        }
      ],
      "stateMutability": "view",
      "type": "function"
    },
    {
      "inputs": [
        {
          "internalType": "address",
          "name": "owner",
          "type": "address"
        }
      ],
      "name": "balanceOf",
      "outputs": [
        {
          "internalType": "uint256",
          "name": "",
          "type": "uint256"
        }
      ],
      "stateMutability": "view",
      "type": "function"
    },
    {
      "inputs": [],
      "name": "coreType",
      "outputs": [
        {
          "internalType": "string",
          "name": "",
          "type": "string"
        }
      ],
      "stateMutability": "view",
      "type": "function"
    },
    {
      "inputs": [],
      "name": "coreVersion",
      "outputs": [
        {
          "internalType": "string",
          "name": "",
          "type": "string"
        }
      ],
      "stateMutability": "view",
      "type": "function"
    },
    {
      "inputs": [],
      "name": "defaultBaseURI",
      "outputs": [
        {
          "internalType": "string",
          "name": "",
          "type": "string"
        }
      ],
      "stateMutability": "view",
      "type": "function"
    },
    {
      "inputs": [],
      "name": "forbidNewProjects",
      "outputs": [],
      "stateMutability": "nonpayable",
      "type": "function"
    },
    {
      "inputs": [
        {
          "internalType": "uint256",
          "name": "tokenId",
          "type": "uint256"
        }
      ],
      "name": "getApproved",
      "outputs": [
        {
          "internalType": "address",
          "name": "",
          "type": "address"
        }
      ],
      "stateMutability": "view",
      "type": "function"
    },
    {
      "inputs": [
        {
          "internalType": "uint256",
          "name": "_index",
          "type": "uint256"
        }
      ],
      "name": "getHistoricalRandomizerAt",
      "outputs": [
        {
          "internalType": "address",
          "name": "",
          "type": "address"
        }
      ],
      "stateMutability": "view",
      "type": "function"
    },
    {
      "inputs": [
        {
          "internalType": "uint256",
          "name": "_projectId",
          "type": "uint256"
        },
        {
          "internalType": "uint256",
          "name": "_price",
          "type": "uint256"
        }
      ],
      "name": "getPrimaryRevenueSplits",
      "outputs": [
        {
          "internalType": "uint256",
          "name": "artblocksRevenue_",
          "type": "uint256"
        },
        {
          "internalType": "address payable",
          "name": "artblocksAddress_",
          "type": "address"
        },
        {
          "internalType": "uint256",
          "name": "artistRevenue_",
          "type": "uint256"
        },
        {
          "internalType": "address payable",
          "name": "artistAddress_",
          "type": "address"
        },
        {
          "internalType": "uint256",
          "name": "additionalPayeePrimaryRevenue_",
          "type": "uint256"
        },
        {
          "internalType": "address payable",
          "name": "additionalPayeePrimaryAddress_",
          "type": "address"
        }
      ],
      "stateMutability": "view",
      "type": "function"
    },
    {
      "inputs": [
        {
          "internalType": "uint256",
          "name": "_tokenId",
          "type": "uint256"
        }
      ],
      "name": "getRoyalties",
      "outputs": [
        {
          "internalType": "address payable[]",
          "name": "recipients",
          "type": "address[]"
        },
        {
          "internalType": "uint256[]",
          "name": "bps",
          "type": "uint256[]"
        }
      ],
      "stateMutability": "view",
      "type": "function"
    },
    {
      "inputs": [
        {
          "internalType": "uint256",
          "name": "_tokenId",
          "type": "uint256"
        }
      ],
      "name": "getRoyaltyData",
      "outputs": [
        {
          "internalType": "address",
          "name": "artistAddress",
          "type": "address"
        },
        {
          "internalType": "address",
          "name": "additionalPayee",
          "type": "address"
        },
        {
          "internalType": "uint256",
          "name": "additionalPayeePercentage",
          "type": "uint256"
        },
        {
          "internalType": "uint256",
          "name": "royaltyFeeByID",
          "type": "uint256"
        }
      ],
      "stateMutability": "view",
      "type": "function"
    },
    {
      "inputs": [
        {
          "internalType": "address",
          "name": "owner",
          "type": "address"
        },
        {
          "internalType": "address",
          "name": "operator",
          "type": "address"
        }
      ],
      "name": "isApprovedForAll",
      "outputs": [
        {
          "internalType": "bool",
          "name": "",
          "type": "bool"
        }
      ],
      "stateMutability": "view",
      "type": "function"
    },
    {
      "inputs": [
        {
          "internalType": "address",
          "name": "_minter",
          "type": "address"
        }
      ],
      "name": "isMintWhitelisted",
      "outputs": [
        {
          "internalType": "bool",
          "name": "",
          "type": "bool"
        }
      ],
      "stateMutability": "view",
      "type": "function"
    },
    {
      "inputs": [
        {
          "internalType": "address",
          "name": "_to",
          "type": "address"
        },
        {
          "internalType": "uint256",
          "name": "_projectId",
          "type": "uint256"
        },
        {
          "internalType": "address",
          "name": "_by",
          "type": "address"
        }
      ],
      "name": "mint_Ecf",
      "outputs": [
        {
          "internalType": "uint256",
          "name": "_tokenId",
          "type": "uint256"
        }
      ],
      "stateMutability": "nonpayable",
      "type": "function"
    },
    {
      "inputs": [],
      "name": "minterContract",
      "outputs": [
        {
          "internalType": "address",
          "name": "",
          "type": "address"
        }
      ],
      "stateMutability": "view",
      "type": "function"
    },
    {
      "inputs": [],
      "name": "name",
      "outputs": [
        {
          "internalType": "string",
          "name": "",
          "type": "string"
        }
      ],
      "stateMutability": "view",
      "type": "function"
    },
    {
      "inputs": [],
      "name": "newProjectsForbidden",
      "outputs": [
        {
          "internalType": "bool",
          "name": "",
          "type": "bool"
        }
      ],
      "stateMutability": "view",
      "type": "function"
    },
    {
      "inputs": [],
      "name": "nextProjectId",
      "outputs": [
        {
          "internalType": "uint256",
          "name": "",
          "type": "uint256"
        }
      ],
      "stateMutability": "view",
      "type": "function"
    },
    {
      "inputs": [],
      "name": "numHistoricalRandomizers",
      "outputs": [
        {
          "internalType": "uint256",
          "name": "",
          "type": "uint256"
        }
      ],
      "stateMutability": "view",
      "type": "function"
    },
    {
      "inputs": [],
      "name": "owner",
      "outputs": [
        {
          "internalType": "address",
          "name": "",
          "type": "address"
        }
      ],
      "stateMutability": "view",
      "type": "function"
    },
    {
      "inputs": [
        {
          "internalType": "uint256",
          "name": "tokenId",
          "type": "uint256"
        }
      ],
      "name": "ownerOf",
      "outputs": [
        {
          "internalType": "address",
          "name": "",
          "type": "address"
        }
      ],
      "stateMutability": "view",
      "type": "function"
    },
    {
      "inputs": [
        {
          "internalType": "uint256",
          "name": "_projectId",
          "type": "uint256"
        }
      ],
      "name": "projectArtistPaymentInfo",
      "outputs": [
        {
          "internalType": "address",
          "name": "artistAddress",
          "type": "address"
        },
        {
          "internalType": "address",
          "name": "additionalPayeePrimarySales",
          "type": "address"
        },
        {
          "internalType": "uint256",
          "name": "additionalPayeePrimarySalesPercentage",
          "type": "uint256"
        },
        {
          "internalType": "address",
          "name": "additionalPayeeSecondarySales",
          "type": "address"
        },
        {
          "internalType": "uint256",
          "name": "additionalPayeeSecondarySalesPercentage",
          "type": "uint256"
        },
        {
          "internalType": "uint256",
          "name": "secondaryMarketRoyaltyPercentage",
          "type": "uint256"
        }
      ],
      "stateMutability": "view",
      "type": "function"
    },
    {
      "inputs": [
        {
          "internalType": "uint256",
          "name": "_projectId",
          "type": "uint256"
        }
      ],
      "name": "projectDetails",
      "outputs": [
        {
          "internalType": "string",
          "name": "projectName",
          "type": "string"
        },
        {
          "internalType": "string",
          "name": "artist",
          "type": "string"
        },
        {
          "internalType": "string",
          "name": "description",
          "type": "string"
        },
        {
          "internalType": "string",
          "name": "website",
          "type": "string"
        },
        {
          "internalType": "string",
          "name": "license",
          "type": "string"
        }
      ],
      "stateMutability": "view",
      "type": "function"
    },
    {
      "inputs": [
        {
          "internalType": "uint256",
          "name": "_projectId",
          "type": "uint256"
        }
      ],
      "name": "projectIdToAdditionalPayeePrimarySales",
      "outputs": [
        {
          "internalType": "address payable",
          "name": "",
          "type": "address"
        }
      ],
      "stateMutability": "view",
      "type": "function"
    },
    {
      "inputs": [
        {
          "internalType": "uint256",
          "name": "_projectId",
          "type": "uint256"
        }
      ],
      "name": "projectIdToAdditionalPayeePrimarySalesPercentage",
      "outputs": [
        {
          "internalType": "uint256",
          "name": "",
          "type": "uint256"
        }
      ],
      "stateMutability": "view",
      "type": "function"
    },
    {
      "inputs": [
        {
          "internalType": "uint256",
          "name": "_projectId",
          "type": "uint256"
        }
      ],
      "name": "projectIdToAdditionalPayeeSecondarySales",
      "outputs": [
        {
          "internalType": "address payable",
          "name": "",
          "type": "address"
        }
      ],
      "stateMutability": "view",
      "type": "function"
    },
    {
      "inputs": [
        {
          "internalType": "uint256",
          "name": "_projectId",
          "type": "uint256"
        }
      ],
      "name": "projectIdToAdditionalPayeeSecondarySalesPercentage",
      "outputs": [
        {
          "internalType": "uint256",
          "name": "",
          "type": "uint256"
        }
      ],
      "stateMutability": "view",
      "type": "function"
    },
    {
      "inputs": [
        {
          "internalType": "uint256",
          "name": "_projectId",
          "type": "uint256"
        }
      ],
      "name": "projectIdToArtistAddress",
      "outputs": [
        {
          "internalType": "address payable",
          "name": "",
          "type": "address"
        }
      ],
      "stateMutability": "view",
      "type": "function"
    },
    {
      "inputs": [
        {
          "internalType": "uint256",
          "name": "_projectId",
          "type": "uint256"
        }
      ],
      "name": "projectIdToSecondaryMarketRoyaltyPercentage",
      "outputs": [
        {
          "internalType": "uint256",
          "name": "",
          "type": "uint256"
        }
      ],
      "stateMutability": "view",
      "type": "function"
    },
    {
      "inputs": [
        {
          "internalType": "uint256",
          "name": "_projectId",
          "type": "uint256"
        },
        {
          "internalType": "uint256",
          "name": "_index",
          "type": "uint256"
        }
      ],
      "name": "projectScriptByIndex",
      "outputs": [
        {
          "internalType": "string",
          "name": "",
          "type": "string"
        }
      ],
      "stateMutability": "view",
      "type": "function"
    },
    {
      "inputs": [
        {
          "internalType": "uint256",
          "name": "_projectId",
          "type": "uint256"
        }
      ],
      "name": "projectScriptDetails",
      "outputs": [
        {
          "internalType": "string",
          "name": "scriptTypeAndVersion",
          "type": "string"
        },
        {
          "internalType": "string",
          "name": "aspectRatio",
          "type": "string"
        },
        {
          "internalType": "uint256",
          "name": "scriptCount",
          "type": "uint256"
        }
      ],
      "stateMutability": "view",
      "type": "function"
    },
    {
      "inputs": [
        {
          "internalType": "uint256",
          "name": "_projectId",
          "type": "uint256"
        }
      ],
      "name": "projectStateData",
      "outputs": [
        {
          "internalType": "uint256",
          "name": "invocations",
          "type": "uint256"
        },
        {
          "internalType": "uint256",
          "name": "maxInvocations",
          "type": "uint256"
        },
        {
          "internalType": "bool",
          "name": "active",
          "type": "bool"
        },
        {
          "internalType": "bool",
          "name": "paused",
          "type": "bool"
        },
        {
          "internalType": "uint256",
          "name": "completedTimestamp",
          "type": "uint256"
        },
        {
          "internalType": "bool",
          "name": "locked",
          "type": "bool"
        }
      ],
      "stateMutability": "view",
      "type": "function"
    },
    {
      "inputs": [
        {
          "internalType": "uint256",
          "name": "_projectId",
          "type": "uint256"
        }
      ],
      "name": "projectURIInfo",
      "outputs": [
        {
          "internalType": "string",
          "name": "projectBaseURI",
          "type": "string"
        }
      ],
      "stateMutability": "view",
      "type": "function"
    },
    {
      "inputs": [
        {
          "internalType": "uint256",
          "name": "_projectId",
          "type": "uint256"
        },
        {
          "internalType": "address payable",
          "name": "_artistAddress",
          "type": "address"
        },
        {
          "internalType": "address payable",
          "name": "_additionalPayeePrimarySales",
          "type": "address"
        },
        {
          "internalType": "uint256",
          "name": "_additionalPayeePrimarySalesPercentage",
          "type": "uint256"
        },
        {
          "internalType": "address payable",
          "name": "_additionalPayeeSecondarySales",
          "type": "address"
        },
        {
          "internalType": "uint256",
          "name": "_additionalPayeeSecondarySalesPercentage",
          "type": "uint256"
        }
      ],
      "name": "proposeArtistPaymentAddressesAndSplits",
      "outputs": [],
      "stateMutability": "nonpayable",
      "type": "function"
    },
    {
      "inputs": [
        {
          "internalType": "uint256",
          "name": "",
          "type": "uint256"
        }
      ],
      "name": "proposedArtistAddressesAndSplitsHash",
      "outputs": [
        {
          "internalType": "bytes32",
          "name": "",
          "type": "bytes32"
        }
      ],
      "stateMutability": "view",
      "type": "function"
    },
    {
      "inputs": [],
      "name": "randomizerContract",
      "outputs": [
        {
          "internalType": "contract IRandomizerV2",
          "name": "",
          "type": "address"
        }
      ],
      "stateMutability": "view",
      "type": "function"
    },
    {
      "inputs": [
        {
          "internalType": "uint256",
          "name": "_projectId",
          "type": "uint256"
        }
      ],
      "name": "removeProjectLastScript",
      "outputs": [],
      "stateMutability": "nonpayable",
      "type": "function"
    },
    {
      "inputs": [],
      "name": "renounceOwnership",
      "outputs": [],
      "stateMutability": "nonpayable",
      "type": "function"
    },
    {
      "inputs": [
        {
          "internalType": "address",
          "name": "from",
          "type": "address"
        },
        {
          "internalType": "address",
          "name": "to",
          "type": "address"
        },
        {
          "internalType": "uint256",
          "name": "tokenId",
          "type": "uint256"
        }
      ],
      "name": "safeTransferFrom",
      "outputs": [],
      "stateMutability": "nonpayable",
      "type": "function"
    },
    {
      "inputs": [
        {
          "internalType": "address",
          "name": "from",
          "type": "address"
        },
        {
          "internalType": "address",
          "name": "to",
          "type": "address"
        },
        {
          "internalType": "uint256",
          "name": "tokenId",
          "type": "uint256"
        },
        {
          "internalType": "bytes",
          "name": "data",
          "type": "bytes"
        }
      ],
      "name": "safeTransferFrom",
      "outputs": [],
      "stateMutability": "nonpayable",
      "type": "function"
    },
    {
      "inputs": [
        {
          "internalType": "address",
          "name": "operator",
          "type": "address"
        },
        {
          "internalType": "bool",
          "name": "approved",
          "type": "bool"
        }
      ],
      "name": "setApprovalForAll",
      "outputs": [],
      "stateMutability": "nonpayable",
      "type": "function"
    },
    {
      "inputs": [
        {
          "internalType": "uint256",
          "name": "_tokenId",
          "type": "uint256"
        },
        {
          "internalType": "bytes32",
          "name": "_hashSeed",
          "type": "bytes32"
        }
      ],
      "name": "setTokenHash_8PT",
      "outputs": [],
      "stateMutability": "nonpayable",
      "type": "function"
    },
    {
      "inputs": [],
      "name": "startingProjectId",
      "outputs": [
        {
          "internalType": "uint256",
          "name": "",
          "type": "uint256"
        }
      ],
      "stateMutability": "view",
      "type": "function"
    },
    {
      "inputs": [
        {
          "internalType": "bytes4",
          "name": "interfaceId",
          "type": "bytes4"
        }
      ],
      "name": "supportsInterface",
      "outputs": [
        {
          "internalType": "bool",
          "name": "",
          "type": "bool"
        }
      ],
      "stateMutability": "view",
      "type": "function"
    },
    {
      "inputs": [],
      "name": "symbol",
      "outputs": [
        {
          "internalType": "string",
          "name": "",
          "type": "string"
        }
      ],
      "stateMutability": "view",
      "type": "function"
    },
    {
      "inputs": [
        {
          "internalType": "uint256",
          "name": "_projectId",
          "type": "uint256"
        }
      ],
      "name": "toggleProjectIsActive",
      "outputs": [],
      "stateMutability": "nonpayable",
      "type": "function"
    },
    {
      "inputs": [
        {
          "internalType": "uint256",
          "name": "_projectId",
          "type": "uint256"
        }
      ],
      "name": "toggleProjectIsPaused",
      "outputs": [],
      "stateMutability": "nonpayable",
      "type": "function"
    },
    {
      "inputs": [
        {
          "internalType": "uint256",
          "name": "_tokenId",
          "type": "uint256"
        }
      ],
      "name": "tokenIdToHash",
      "outputs": [
        {
          "internalType": "bytes32",
          "name": "",
          "type": "bytes32"
        }
      ],
      "stateMutability": "view",
      "type": "function"
    },
    {
      "inputs": [
        {
          "internalType": "uint256",
          "name": "_tokenId",
          "type": "uint256"
        }
      ],
      "name": "tokenIdToProjectId",
      "outputs": [
        {
          "internalType": "uint256",
          "name": "_projectId",
          "type": "uint256"
        }
      ],
      "stateMutability": "pure",
      "type": "function"
    },
    {
      "inputs": [
        {
          "internalType": "uint256",
          "name": "_tokenId",
          "type": "uint256"
        }
      ],
      "name": "tokenURI",
      "outputs": [
        {
          "internalType": "string",
          "name": "",
          "type": "string"
        }
      ],
      "stateMutability": "view",
      "type": "function"
    },
    {
      "inputs": [
        {
          "internalType": "address",
          "name": "from",
          "type": "address"
        },
        {
          "internalType": "address",
          "name": "to",
          "type": "address"
        },
        {
          "internalType": "uint256",
          "name": "tokenId",
          "type": "uint256"
        }
      ],
      "name": "transferFrom",
      "outputs": [],
      "stateMutability": "nonpayable",
      "type": "function"
    },
    {
      "inputs": [
        {
          "internalType": "address",
          "name": "newOwner",
          "type": "address"
        }
      ],
      "name": "transferOwnership",
      "outputs": [],
      "stateMutability": "nonpayable",
      "type": "function"
    },
    {
      "inputs": [
        {
          "internalType": "address",
          "name": "_artblocksCurationRegistryAddress",
          "type": "address"
        }
      ],
      "name": "updateArtblocksCurationRegistryAddress",
      "outputs": [],
      "stateMutability": "nonpayable",
      "type": "function"
    },
    {
      "inputs": [
        {
          "internalType": "address",
          "name": "_artblocksDependencyRegistryAddress",
          "type": "address"
        }
      ],
      "name": "updateArtblocksDependencyRegistryAddress",
      "outputs": [],
      "stateMutability": "nonpayable",
      "type": "function"
    },
    {
      "inputs": [
        {
          "internalType": "address payable",
          "name": "_artblocksPrimarySalesAddress",
          "type": "address"
        }
      ],
      "name": "updateArtblocksPrimarySalesAddress",
      "outputs": [],
      "stateMutability": "nonpayable",
      "type": "function"
    },
    {
      "inputs": [
        {
          "internalType": "uint256",
          "name": "artblocksPrimarySalesPercentage_",
          "type": "uint256"
        }
      ],
      "name": "updateArtblocksPrimarySalesPercentage",
      "outputs": [],
      "stateMutability": "nonpayable",
      "type": "function"
    },
    {
      "inputs": [
        {
          "internalType": "address payable",
          "name": "_artblocksSecondarySalesAddress",
          "type": "address"
        }
      ],
      "name": "updateArtblocksSecondarySalesAddress",
      "outputs": [],
      "stateMutability": "nonpayable",
      "type": "function"
    },
    {
      "inputs": [
        {
          "internalType": "uint256",
          "name": "_artblocksSecondarySalesBPS",
          "type": "uint256"
        }
      ],
      "name": "updateArtblocksSecondarySalesBPS",
      "outputs": [],
      "stateMutability": "nonpayable",
      "type": "function"
    },
    {
      "inputs": [
        {
          "internalType": "string",
          "name": "_defaultBaseURI",
          "type": "string"
        }
      ],
      "name": "updateDefaultBaseURI",
      "outputs": [],
      "stateMutability": "nonpayable",
      "type": "function"
    },
    {
      "inputs": [
        {
          "internalType": "address",
          "name": "_address",
          "type": "address"
        }
      ],
      "name": "updateMinterContract",
      "outputs": [],
      "stateMutability": "nonpayable",
      "type": "function"
    },
    {
      "inputs": [
        {
          "internalType": "uint256",
          "name": "_projectId",
          "type": "uint256"
        },
        {
          "internalType": "address payable",
          "name": "_artistAddress",
          "type": "address"
        }
      ],
      "name": "updateProjectArtistAddress",
      "outputs": [],
      "stateMutability": "nonpayable",
      "type": "function"
    },
    {
      "inputs": [
        {
          "internalType": "uint256",
          "name": "_projectId",
          "type": "uint256"
        },
        {
          "internalType": "string",
          "name": "_projectArtistName",
          "type": "string"
        }
      ],
      "name": "updateProjectArtistName",
      "outputs": [],
      "stateMutability": "nonpayable",
      "type": "function"
    },
    {
      "inputs": [
        {
          "internalType": "uint256",
          "name": "_projectId",
          "type": "uint256"
        },
        {
          "internalType": "string",
          "name": "_aspectRatio",
          "type": "string"
        }
      ],
      "name": "updateProjectAspectRatio",
      "outputs": [],
      "stateMutability": "nonpayable",
      "type": "function"
    },
    {
      "inputs": [
        {
          "internalType": "uint256",
          "name": "_projectId",
          "type": "uint256"
        },
        {
          "internalType": "string",
          "name": "_newBaseURI",
          "type": "string"
        }
      ],
      "name": "updateProjectBaseURI",
      "outputs": [],
      "stateMutability": "nonpayable",
      "type": "function"
    },
    {
      "inputs": [
        {
          "internalType": "uint256",
          "name": "_projectId",
          "type": "uint256"
        },
        {
          "internalType": "string",
          "name": "_projectDescription",
          "type": "string"
        }
      ],
      "name": "updateProjectDescription",
      "outputs": [],
      "stateMutability": "nonpayable",
      "type": "function"
    },
    {
      "inputs": [
        {
          "internalType": "uint256",
          "name": "_projectId",
          "type": "uint256"
        },
        {
          "internalType": "string",
          "name": "_projectLicense",
          "type": "string"
        }
      ],
      "name": "updateProjectLicense",
      "outputs": [],
      "stateMutability": "nonpayable",
      "type": "function"
    },
    {
      "inputs": [
        {
          "internalType": "uint256",
          "name": "_projectId",
          "type": "uint256"
        },
        {
          "internalType": "uint24",
          "name": "_maxInvocations",
          "type": "uint24"
        }
      ],
      "name": "updateProjectMaxInvocations",
      "outputs": [],
      "stateMutability": "nonpayable",
      "type": "function"
    },
    {
      "inputs": [
        {
          "internalType": "uint256",
          "name": "_projectId",
          "type": "uint256"
        },
        {
          "internalType": "string",
          "name": "_projectName",
          "type": "string"
        }
      ],
      "name": "updateProjectName",
      "outputs": [],
      "stateMutability": "nonpayable",
      "type": "function"
    },
    {
      "inputs": [
        {
          "internalType": "uint256",
          "name": "_projectId",
          "type": "uint256"
        },
        {
          "internalType": "uint256",
          "name": "_scriptId",
          "type": "uint256"
        },
        {
          "internalType": "string",
          "name": "_script",
          "type": "string"
        }
      ],
      "name": "updateProjectScript",
      "outputs": [],
      "stateMutability": "nonpayable",
      "type": "function"
    },
    {
      "inputs": [
        {
          "internalType": "uint256",
          "name": "_projectId",
          "type": "uint256"
        },
        {
          "internalType": "bytes32",
          "name": "_scriptTypeAndVersion",
          "type": "bytes32"
        }
      ],
      "name": "updateProjectScriptType",
      "outputs": [],
      "stateMutability": "nonpayable",
      "type": "function"
    },
    {
      "inputs": [
        {
          "internalType": "uint256",
          "name": "_projectId",
          "type": "uint256"
        },
        {
          "internalType": "uint256",
          "name": "_secondMarketRoyalty",
          "type": "uint256"
        }
      ],
      "name": "updateProjectSecondaryMarketRoyaltyPercentage",
      "outputs": [],
      "stateMutability": "nonpayable",
      "type": "function"
    },
    {
      "inputs": [
        {
          "internalType": "uint256",
          "name": "_projectId",
          "type": "uint256"
        },
        {
          "internalType": "string",
          "name": "_projectWebsite",
          "type": "string"
        }
      ],
      "name": "updateProjectWebsite",
      "outputs": [],
      "stateMutability": "nonpayable",
      "type": "function"
    },
    {
      "inputs": [
        {
          "internalType": "address",
          "name": "_randomizerAddress",
          "type": "address"
        }
      ],
      "name": "updateRandomizerAddress",
      "outputs": [],
      "stateMutability": "nonpayable",
      "type": "function"
    }
  ],
  "bytecode": "0x60a0604052600f805460ff60a01b1916600560a11b17905560fa6011553480156200002957600080fd5b5060405162005665380380620056658339810160408190526200004c9162000445565b848460006200005c83826200056d565b5060016200006b82826200056d565b50505062000088620000826200016060201b60201c565b62000164565b608081905262000098336200019c565b620000a333620001f4565b620000ae836200024c565b620000b98262000164565b60408051808201909152601b81527f68747470733a2f2f746f6b656e2e617274626c6f636b732e696f2f00000000006020820152620000f890620002d4565b601380547fff00000000000000000000000000000000000000000000000000000000000000166001600160f81b0383161790556040516c1b995e1d141c9bda9958dd1259609a1b906000805160206200564583398151915290600090a2505050505062000639565b3390565b6200017a816200031160201b620037a51760201c565b600b80546001600160a01b0319166001600160a01b0392909216919091179055565b600f80546001600160a01b0319166001600160a01b0383161790556040517f617274626c6f636b735072696d61727953616c65734164647265737300000000906000805160206200564583398151915290600090a250565b601080546001600160a01b0319166001600160a01b0383161790556040517f617274626c6f636b735365636f6e6461727953616c6573416464726573730000906000805160206200564583398151915290600090a250565b600980546001600160a01b0383166001600160a01b03199182168117909255600a805460018101825560009182527fc65a7bb8d6351c1cf70c95a316cc6a92839c986682d98bc35f958f4883f9d2a801805490921690921790556040517072616e646f6d697a65724164647265737360781b916000805160206200564583398151915291a250565b6014620002e282826200056d565b506040516d64656661756c744261736555524960901b906000805160206200564583398151915290600090a250565b600680546001600160a01b038381166001600160a01b0319831681179093556040519116919082907f8be0079c531659141344cd1fd0a4f28419497f9722a3daafe3b4186f6b6457e090600090a35050565b634e487b7160e01b600052604160045260246000fd5b600082601f8301126200038b57600080fd5b81516001600160401b0380821115620003a857620003a862000363565b604051601f8301601f19908116603f01168101908282118183101715620003d357620003d362000363565b81604052838152602092508683858801011115620003f057600080fd5b600091505b83821015620004145785820183015181830184015290820190620003f5565b600093810190920192909252949350505050565b80516001600160a01b03811681146200044057600080fd5b919050565b600080600080600060a086880312156200045e57600080fd5b85516001600160401b03808211156200047657600080fd5b6200048489838a0162000379565b965060208801519150808211156200049b57600080fd5b50620004aa8882890162000379565b945050620004bb6040870162000428565b9250620004cb6060870162000428565b9150608086015190509295509295909350565b600181811c90821680620004f357607f821691505b6020821081036200051457634e487b7160e01b600052602260045260246000fd5b50919050565b601f8211156200056857600081815260208120601f850160051c81016020861015620005435750805b601f850160051c820191505b8181101562000564578281556001016200054f565b5050505b505050565b81516001600160401b0381111562000589576200058962000363565b620005a1816200059a8454620004de565b846200051a565b602080601f831160018114620005d95760008415620005c05750858301515b600019600386901b1c1916600185901b17855562000564565b600085815260208120601f198616915b828110156200060a57888601518255948401946001909101908401620005e9565b5085821015620006295787850151600019600388901b60f8161c191681555b5050505050600190811b01905550565b608051614ff0620006556000396000610cba0152614ff06000f3fe608060405234801561001057600080fd5b506004361061041f5760003560e01c806376ee6fab1161022e578063ad2cdfc411610137578063ad2cdfc414610a3f578063ae45ad9814610a6c578063b1656ba314610a9a578063b168762214610aad578063b7b04fae14610ac0578063b88d4fde14610ad3578063b971136814610ae6578063bb3bafd614610aee578063bba4448a14610b0f578063c34a03b514610b22578063c87b56dd14610b35578063cc90e72514610b48578063d03c390c14610b5b578063db2ff86114610b6e578063ddd0ee0f14610b81578063e935b7b114610b94578063e985e9c514610ba5578063eb9cd5d414610bb8578063ed8abfda14610bda578063f2fde38b14610c04578063f313d73314610c17578063f851a44014610cad578063f893c07b14610cb557600080fd5b806376ee6fab1461082a5780638639415b1461083d5780638c3c9cdd146108885780638da5cb5b1461089b5780638dd91a56146108a357806392f00233146108c757806394535b99146108da57806395d89b41146108ed5780639ab31a2d146108f55780639afc2be514610908578063a0bee56414610923578063a11ec70a14610936578063a22cb46514610949578063a3b2cca61461095c578063a47d29cb1461096f578063a65ff74c1461099b578063a87ac6191461079c578063abcbb7b4146109d9578063ac11fa1c146109e1578063acad012414610a01578063accd17f014610a14578063ad0305ce14610a1d57600080fd5b806328ec8f501161033057806328ec8f501461064f5780632b2741661461067c5780632b65e67d1461068f5780632b6cfc8d146106a25780632d9c0205146106b557806336c7c12c146106c857806337859963146106db57806338c8e468146106ee5780633949f9061461071a5780633e48e8481461072b57806342842e0e1461073e57806348337282146107515780634bbc4ff0146107645780634e1d64af146107775780634f029c391461079c5780635508fd52146107af578063621a1f74146107c35780636352211e146107d657806369d14faf146107e95780636c907b7f146107fc57806370a082311461080f578063715018a61461082257600080fd5b80611e3c146104245780615de5146104395780630132c6971461045f57806301856fd41461047257806301ffc9a71461048557806304143a5c146104a857806306fdde03146104b0578063081812fc146104c5578063095ea7b3146104f05780630c5b1ad4146105035780630d170673146105165780630e79c928146105295780630ea5613f1461053c5780630ebeb0ee1461058657806314fc8f2d146105af57806317df5366146105ca5780631b689c0b146105dd5780631e9bef46146105f05780632302cbda14610603578063230448b11461061657806323b872dd1461062957806325b75d681461063c575b600080fd5b6104376104323660046142dc565b610cdc565b005b61044c610447366004614313565b610ded565b6040519081526020015b60405180910390f35b61043761046d366004614355565b611091565b6104376104803660046142dc565b611215565b6104986104933660046143a3565b61132d565b6040519015158152602001610456565b610437611358565b6104b861141d565b6040516104569190614417565b6104d86104d336600461442a565b6114af565b6040516001600160a01b039091168152602001610456565b6104376104fe366004614443565b6114d6565b61043761051136600461446f565b6115eb565b610437610524366004614537565b611627565b610437610537366004614537565b6116e7565b61054f61054a36600461442a565b6117ae565b60408051968752602087019590955292151593850193909352151560608401526080830191909152151560a082015260c001610456565b6104d861059436600461442a565b6000908152600d60205260409020546001600160a01b031690565b6104d873059edd72cd353df5106d2b9cc5ab83a52287ac3a81565b6008546104d8906001600160a01b031681565b61044c6105eb36600461442a565b611811565b600b546104d8906001600160a01b031681565b61043761061136600461457d565b611820565b6104986106243660046145b1565b611858565b6104376106373660046145f1565b611904565b61043761064a366004614537565b611935565b61044c61065d36600461442a565b6000908152600d6020526040902060010154600160a01b900460ff1690565b61043761068a36600461446f565b6119f8565b61043761069d366004614632565b611a7b565b6104376106b036600461446f565b611b6b565b6104b86106c336600461442a565b611ba3565b6009546104d8906001600160a01b031681565b6104376106e9366004614537565b611c48565b6104d86106fc36600461442a565b6000908152600d60205260409020600101546001600160a01b031690565b600f546001600160a01b03166104d8565b610437610739366004614537565b611cc9565b61043761074c3660046145f1565b611d4a565b61043761075f36600461446f565b611d65565b61043761077236600461442a565b611ddf565b6104b860405180604001604052806006815260200165076332e302e360d41b81525081565b61044c600f54600160a01b900460ff1690565b60135461049890600160f81b900460ff1681565b61044c6107d136600461442a565b611e9e565b6104d86107e436600461442a565b611f04565b6104376107f7366004614699565b611f39565b61043761080a36600461446f565b611fbf565b61044c61081d36600461446f565b611ff7565b61043761207d565b610437610838366004614632565b612091565b61085061084b3660046142dc565b6122f8565b604080519687526001600160a01b039586166020880152860193909352908316606085015260808401521660a082015260c001610456565b6104b86108963660046142dc565b6123af565b6104d8612460565b6108b66108b136600461442a565b612479565b6040516104569594939291906146be565b6012546104d8906001600160a01b031681565b6010546104d8906001600160a01b031681565b6104b861276d565b61043761090336600461442a565b61277c565b6104d873a7d8d9ef8d8ce8992df33d8b8cf4aebabd5bd27081565b61043761093136600461446f565b612807565b61043761094436600461442a565b612888565b610437610957366004614739565b612913565b61043761096a366004614537565b61291e565b6104d861097d36600461442a565b6000908152600d60205260409020600201546001600160a01b031690565b6109ae6109a936600461442a565b612a0a565b604080516001600160a01b039586168152949093166020850152918301526060820152608001610456565b6104b8612a65565b61044c6109ef36600461442a565b600e6020526000908152604090205481565b610437610a0f366004614537565b612af3565b61044c60115481565b610498610a2b36600461446f565b6012546001600160a01b0390811691161490565b61044c610a4d36600461442a565b6000908152600d6020526040902060020154600160a01b900460ff1690565b6104b86040518060400160405280600f81526020016e47656e417274373231436f7265563360881b81525081565b610437610aa8366004614767565b612c07565b6104d8610abb36600461442a565b612d2c565b610437610ace366004614537565b612da4565b610437610ae13660046147b6565b612e6a565b600a5461044c565b610b01610afc36600461442a565b612ea2565b604051610456929190614835565b6007546104d8906001600160a01b031681565b610437610b303660046142dc565b6130e7565b6104b8610b4336600461442a565b6131b5565b610437610b563660046148b9565b6132bf565b610437610b6936600461442a565b613422565b610437610b7c36600461442a565b6134a1565b600f546104d8906001600160a01b031681565b6013546001600160f81b031661044c565b610498610bb33660046148ff565b613628565b610bcb610bc636600461442a565b613656565b6040516104569392919061492d565b61044c610be836600461442a565b6000908152600d6020526040902054600160a01b900460ff1690565b610437610c1236600461446f565b613722565b610c6f610c2536600461442a565b6000908152600d60205260409020600281015481546001909201546001600160a01b03808316948482169460ff600160a01b95869004811695938516948490048116939091041690565b604080516001600160a01b039788168152958716602087015285019390935293166060830152608082019290925260a081019190915260c001610456565b6104d861379b565b61044c7f000000000000000000000000000000000000000000000000000000000000000081565b81610ce6816137f7565b610d0b5760405162461bcd60e51b8152600401610d0290614963565b60405180910390fd5b60008381526002602052604090206009546001600160a01b03163314610d6d5760405162461bcd60e51b815260206004820152601760248201527613db9b1e481c985b991bdb5a5e995c881b585e481cd95d604a1b6044820152606401610d02565b8054600160a01b900460a01b6001600160a01b03191615610dc95760405162461bcd60e51b8152602060048201526016602482015275151bdad95b881a185cda08185b1c9958591e481cd95d60521b6044820152606401610d02565b805460a09390931c600160a01b026001600160a01b03909316929092179091555050565b6012546000906001600160a01b03163314610e4a5760405162461bcd60e51b815260206004820152601e60248201527f4d757374206d696e742066726f6d206d696e74657220636f6e747261637400006044820152606401610d02565b6000838152600c60205260409020805462ffffff808216916001830191630100000090910416808310610ebf5760405162461bcd60e51b815260206004820152601f60248201527f4d757374206e6f7420657863656564206d617820696e766f636174696f6e73006044820152606401610d02565b8354600160881b900460ff1680610ef257506000878152600d60205260409020600201546001600160a01b038781169116145b610f3e5760405162461bcd60e51b815260206004820181905260248201527f50726f6a656374206d75737420657869737420616e64206265206163746976656044820152606401610d02565b8354600160901b900460ff161580610f7257506000878152600d60205260409020600201546001600160a01b038781169116145b610fb65760405162461bcd60e51b8152602060048201526015602482015274283ab931b430b9b2b99030b932903830bab9b2b21760591b6044820152606401610d02565b835462ffffff191662ffffff8381169182178655848116620f42408a0201919083169003610fe757610fe788613814565b610ff1898261386c565b600954604051635b140b8d60e11b8152600481018390526001600160a01b039091169063b628171a90602401600060405180830381600087803b15801561103757600080fd5b505af115801561104b573d6000803e3d6000fd5b50506040518392506001600160a01b038c1691507f0f6798a560793a54c3bcfe86a93cde1e73087d944c0ea20544137d412139688590600090a398975050505050505050565b6000828152600d602052604090206002015482906001600160a01b031633146110cc5760405162461bcd60e51b8152600401610d0290614994565b6000838152600c60205260409020805462ffffff80821691630100000090048116908516106111495760405162461bcd60e51b8152602060048201526024808201527f6d6178496e766f636174696f6e73206d6179206f6e6c79206265206465637265604482015263185cd95960e21b6064820152608401610d02565b808462ffffff1610156111b35760405162461bcd60e51b815260206004820152602c60248201527f4f6e6c79206d617820696e766f636174696f6e73206774652063757272656e7460448201526b20696e766f636174696f6e7360a01b6064820152608401610d02565b815465ffffff0000001916630100000062ffffff8616021782556040516d6d6178496e766f636174696f6e7360901b908690600080516020614f9b83398151915290600090a3808462ffffff160361120e5761120e85613814565b5050505050565b8161121f8161399e565b61123b5760405162461bcd60e51b8152600401610d02906149b9565b6000838152600d6020526040902060020154839062615bf560e21b906001600160a01b03163314806112735750611273333083611858565b61128f5760405162461bcd60e51b8152600401610d02906149e3565b6000858152600c602052604090819020906112ad90869060016139dd565b6112f65760405162461bcd60e51b815260206004820152601a60248201527901b5d5cdd0818dbdb9d185a5b88195e1858dd1b1e481bdb9948160361b6044820152606401610d02565b60078101859055604051697363726970745479706560b01b908790600080516020614f9b83398151915290600090a3505050505050565b60006001600160e01b03198216635d9dd7eb60e11b1480611352575061135282613a50565b92915050565b6301050e9760e21b61136b333083611858565b6113875760405162461bcd60e51b8152600401610d0290614a18565b601354600160f81b900460ff16156113d55760405162461bcd60e51b815260206004820152601160248201527020b63932b0b23c903337b93134b23232b760791b6044820152606401610d02565b601380546001600160f81b0316600160f81b179055604051733732bba83937b532b1ba39a337b93134b23232b760611b90600080516020614f7b83398151915290600090a250565b60606000805461142c90614a48565b80601f016020809104026020016040519081016040528092919081815260200182805461145890614a48565b80156114a55780601f1061147a576101008083540402835291602001916114a5565b820191906000526020600020905b81548152906001019060200180831161148857829003601f168201915b5050505050905090565b60006114ba82613aa0565b506000908152600460205260409020546001600160a01b031690565b60006114e182611f04565b9050806001600160a01b0316836001600160a01b03160361154e5760405162461bcd60e51b815260206004820152602160248201527f4552433732313a20617070726f76616c20746f2063757272656e74206f776e656044820152603960f91b6064820152608401610d02565b336001600160a01b038216148061156a575061156a8133613628565b6115dc5760405162461bcd60e51b815260206004820152603e60248201527f4552433732313a20617070726f76652063616c6c6572206973206e6f7420746f60448201527f6b656e206f776e6572206e6f7220617070726f76656420666f7220616c6c00006064820152608401610d02565b6115e68383613ac5565b505050565b630316c6b560e21b6115fe333083611858565b61161a5760405162461bcd60e51b8152600401610d0290614a18565b61162382613b33565b5050565b816116318161399e565b61164d5760405162461bcd60e51b8152600401610d02906149b9565b6000838152600d60205260409020600201548390630d17067360e01b906001600160a01b03163314806116865750611686333083611858565b6116a25760405162461bcd60e51b8152600401610d02906149e3565b6000858152600c602052604090206001016116bd8582614adf565b50604051636e616d6560e01b908690600080516020614f9b83398151915290600090a35050505050565b816116f18161399e565b61170d5760405162461bcd60e51b8152600401610d02906149b9565b6000838152600d602052604090206002015483906301cf392560e31b906001600160a01b03163314806117465750611746333083611858565b6117625760405162461bcd60e51b8152600401610d02906149e3565b6000858152600c6020526040902060080161177d8582614adf565b506040516a617370656374526174696f60a81b908690600080516020614f9b83398151915290600090a35050505050565b6000818152600c60205260408120805462ffffff808216936301000000830490911692600160881b830460ff90811693600160901b810490911692600160481b9091046001600160401b0316916118048861399e565b1591505091939550919395565b6000611352620f424083614bc4565b63118165ed60e11b611833333083611858565b61184f5760405162461bcd60e51b8152600401610d0290614a18565b61162382613b89565b600080611863612460565b6001600160a01b0316141580156118fc5750600b546040516217798b60e61b81526001600160a01b03868116600483015285811660248301526001600160e01b031985166044830152909116906305de62c0906064016020604051808303816000875af11580156118d8573d6000803e3d6000fd5b505050506040513d601f19601f820116820180604052508101906118fc9190614bd8565b949350505050565b61190e3382613bc3565b61192a5760405162461bcd60e51b8152600401610d0290614bf5565b6115e6838383613c21565b8161193f8161399e565b61195b5760405162461bcd60e51b8152600401610d02906149b9565b6000838152600d602052604090206002015483906304b6ebad60e31b906001600160a01b03163314806119945750611994333083611858565b6119b05760405162461bcd60e51b8152600401610d02906149e3565b6000858152600c602052604090206005016119cb8582614adf565b50604051666c6963656e736560c81b908690600080516020614f9b83398151915290600090a35050505050565b631593a0b360e11b611a0b333083611858565b611a275760405162461bcd60e51b8152600401610d0290614a18565b600880546001600160a01b0319166001600160a01b03841617905560405178646570656e64656e637952656769737472794164647265737360381b90600080516020614f7b83398151915290600090a25050565b6000868152600d602052604090206002015486906001600160a01b03163314611ab65760405162461bcd60e51b8152600401610d0290614994565b60648411158015611ac8575060648211155b611ae45760405162461bcd60e51b8152600401610d0290614c43565b8585858585604051602001611afd959493929190614c68565b60408051601f19818403018152828252805160209182012060008b8152600e9092529190205587907f6ff7d102bb3657a26dcbbcd299d821a066718a7cf76ae7cd98279f18b74da8ac90611b5a9089908990899089908990614c68565b60405180910390a250505050505050565b632b6cfc8d60e01b611b7e333083611858565b611b9a5760405162461bcd60e51b8152600401610d0290614a18565b61162382613dbd565b6000818152600c60205260409020600601805460609190611bc390614a48565b80601f0160208091040260200160405190810160405280929190818152602001828054611bef90614a48565b8015611c3c5780601f10611c1157610100808354040283529160200191611c3c565b820191906000526020600020905b815481529060010190602001808311611c1f57829003601f168201915b50505050509050919050565b6000828152600d602052604090206002015482906001600160a01b03163314611c835760405162461bcd60e51b8152600401610d0290614994565b6000838152600c60205260409020600401611c9e8382614adf565b50604051667765627369746560c81b908490600080516020614f9b83398151915290600090a3505050565b6000828152600d602052604090206002015482906001600160a01b03163314611d045760405162461bcd60e51b8152600401610d0290614994565b6000838152600c60205260409020600601611d1f8382614adf565b50604051666261736555524960c81b908490600080516020614f9b83398151915290600090a3505050565b6115e683838360405180602001604052806000815250612e6a565b632419b94160e11b611d78333083611858565b611d945760405162461bcd60e51b8152600401610d0290614a18565b601280546001600160a01b0319166001600160a01b0384169081179091556040517fad0f299ec81a386c98df0ac27dae11dd020ed1b56963c53a7292e7a3a314539a90600090a25050565b6304bbc4ff60e41b611df2333083611858565b611e0e5760405162461bcd60e51b8152600401610d0290614a18565b6019821115611e4c5760405162461bcd60e51b815260206004820152600a6024820152694d6178206f662032352560b01b6044820152606401610d02565b600f805460ff60a01b1916600160a01b60ff85160217905560405179617274626c6f636b735072696d61727950657263656e7461676560301b90600080516020614f7b83398151915290600090a25050565b600081815260026020526040812054600160a01b900460a01b6001600160a01b031981168203611ed15750600092915050565b604080516001600160a01b0319831660208201520160405160208183030381529060405280519060200120915050919050565b6000818152600260205260408120546001600160a01b0316806113525760405162461bcd60e51b8152600401610d0290614c9b565b6369d14faf60e01b611f4c333083611858565b611f685760405162461bcd60e51b8152600401610d0290614a18565b6000838152600d602052604080822060020180546001600160a01b0319166001600160a01b038616179055516c6172746973744164647265737360981b918591600080516020614f9b8339815191529190a3505050565b636c907b7f60e01b611fd2333083611858565b611fee5760405162461bcd60e51b8152600401610d0290614a18565b61162382613e14565b60006001600160a01b0382166120615760405162461bcd60e51b815260206004820152602960248201527f4552433732313a2061646472657373207a65726f206973206e6f7420612076616044820152683634b21037bbb732b960b91b6064820152608401610d02565b506001600160a01b031660009081526003602052604090205490565b612085613e9b565b61208f6000613efa565b565b856376ee6fab60e01b6120a5333083611858565b806120e4575060006120b5612460565b6001600160a01b03161480156120e457506000828152600d60205260409020600201546001600160a01b031633145b6121515760405162461bcd60e51b815260206004820152603860248201527f4f6e6c792041646d696e2041434c20616c6c6f7765642c206f722061727469736044820152771d081a59881bdddb995c881a185cc81c995b9bdd5b98d95960421b6064820152608401610d02565b868686868660405160200161216a959493929190614c68565b60408051601f19818403018152918152815160209283012060008b8152600e909352912054146121d95760405162461bcd60e51b815260206004820152601a602482015279135d5cdd081b585d18da08185c9d1a5cdd081c1c9bdc1bdcd85b60321b6044820152606401610d02565b6000600d60008a81526020019081526020016000209050878160020160006101000a8154816001600160a01b0302191690836001600160a01b03160217905550868160000160006101000a8154816001600160a01b0302191690836001600160a01b03160217905550858160020160146101000a81548160ff021916908360ff160217905550848160010160006101000a8154816001600160a01b0302191690836001600160a01b03160217905550838160010160146101000a81548160ff021916908360ff1602179055506000801b600e60008b815260200190815260200160002081905550887fc582d05e1da854143bd3271ef4529d79cf5a69fc6057ae320f357acfd291b73860405160405180910390a2505050505050505050565b6000828152600d60205260408120600f54829182918291829182919060649061232b90600160a01b900460ff168a614ccd565b6123359190614bc4565b60028201549097508789039060649061235890600160a01b900460ff1683614ccd565b6123629190614bc4565b600f546001600160a01b031697508082039650935080841461238f5760028201546001600160a01b031694505b83156123a35781546001600160a01b031692505b50509295509295509295565b6000828152600c6020908152604080832084845260090190915290208054606091906123da90614a48565b80601f016020809104026020016040519081016040528092919081815260200182805461240690614a48565b80156124535780601f1061242857610100808354040283529160200191612453565b820191906000526020600020905b81548152906001019060200180831161243657829003601f168201915b5050505050905092915050565b60006124746006546001600160a01b031690565b905090565b60608060608060606000600c600088815260200190815260200160002090508060010180546124a790614a48565b80601f01602080910402602001604051908101604052809291908181526020018280546124d390614a48565b80156125205780601f106124f557610100808354040283529160200191612520565b820191906000526020600020905b81548152906001019060200180831161250357829003601f168201915b5050505050955080600201805461253690614a48565b80601f016020809104026020016040519081016040528092919081815260200182805461256290614a48565b80156125af5780601f10612584576101008083540402835291602001916125af565b820191906000526020600020905b81548152906001019060200180831161259257829003601f168201915b505050505094508060030180546125c590614a48565b80601f01602080910402602001604051908101604052809291908181526020018280546125f190614a48565b801561263e5780601f106126135761010080835404028352916020019161263e565b820191906000526020600020905b81548152906001019060200180831161262157829003601f168201915b5050505050935080600401805461265490614a48565b80601f016020809104026020016040519081016040528092919081815260200182805461268090614a48565b80156126cd5780601f106126a2576101008083540402835291602001916126cd565b820191906000526020600020905b8154815290600101906020018083116126b057829003601f168201915b505050505092508060050180546126e390614a48565b80601f016020809104026020016040519081016040528092919081815260200182805461270f90614a48565b801561275c5780601f106127315761010080835404028352916020019161275c565b820191906000526020600020905b81548152906001019060200180831161273f57829003601f168201915b505050505091505091939590929450565b60606001805461142c90614a48565b639ab31a2d60e01b61278f333083611858565b6127ab5760405162461bcd60e51b8152600401610d0290614a18565b6127108211156127cd5760405162461bcd60e51b8152600401610d0290614c43565b601182905560405174617274626c6f636b735365636f6e6461727942505360581b90600080516020614f7b83398151915290600090a25050565b63282fb95960e21b61281a333083611858565b6128365760405162461bcd60e51b8152600401610d0290614a18565b600780546001600160a01b0319166001600160a01b038416179055604051766375726174696f6e52656769737472794164647265737360481b90600080516020614f7b83398151915290600090a25050565b6000818152600d602052604090206002015481906001600160a01b031633146128c35760405162461bcd60e51b8152600401610d0290614994565b6000828152600c6020526040808220805460ff60901b198116600160901b9182900460ff161590910217905551651c185d5cd95960d21b918491600080516020614f9b8339815191529190a35050565b611623338383613f25565b6129278261399e565b6129425761293d33306351d9665360e11b611858565b612960565b6000828152600d60205260409020600201546001600160a01b031633145b6129c15760405162461bcd60e51b815260206004820152602c60248201527f4f6e6c7920617274697374207768656e20756e6c6f636b65642c206f776e657260448201526b081dda195b881b1bd8dad95960a21b6064820152608401610d02565b6000828152600c602052604090206003016129dc8282614adf565b506040516a3232b9b1b934b83a34b7b760a91b908390600080516020614f9b83398151915290600090a35050565b600080808080612a1d620f424087614bc4565b6000908152600d602052604090206002810154600182015491546001600160a01b0391821699918316985060ff600160a01b9384900481169850929004909116945092505050565b60148054612a7290614a48565b80601f0160208091040260200160405190810160405280929190818152602001828054612a9e90614a48565b8015612aeb5780601f10612ac057610100808354040283529160200191612aeb565b820191906000526020600020905b815481529060010190602001808311612ace57829003601f168201915b505050505081565b81612afd8161399e565b612b195760405162461bcd60e51b8152600401610d02906149b9565b6000838152600d60205260409020600201548390632b2b404960e21b906001600160a01b0316331480612b525750612b52333083611858565b612b6e5760405162461bcd60e51b8152600401610d02906149e3565b6000858152600c602090815260408083208054600160301b900462ffffff16845260098101909252909120612ba38682614adf565b508054612bbd90600160301b900462ffffff166001614cec565b815462ffffff91909116600160301b0262ffffff60301b19909116178155604051651cd8dc9a5c1d60d21b908790600080516020614f9b83398151915290600090a3505050505050565b82612c118161399e565b612c2d5760405162461bcd60e51b8152600401610d02906149b9565b6000848152600d6020526040902060020154849063b1656ba360e01b906001600160a01b0316331480612c665750612c66333083611858565b612c825760405162461bcd60e51b8152600401610d02906149e3565b6000868152600c602052604090208054600160301b900462ffffff168610612ce45760405162461bcd60e51b81526020600482015260156024820152747363726970744964206f7574206f662072616e676560581b6044820152606401610d02565b60008681526009820160205260409020612cfe8682614adf565b50604051651cd8dc9a5c1d60d21b908890600080516020614f9b83398151915290600090a350505050505050565b600a546000908210612d765760405162461bcd60e51b8152602060048201526013602482015272496e646578206f7574206f6620626f756e647360681b6044820152606401610d02565b600a8281548110612d8957612d89614d0f565b6000918252602090912001546001600160a01b031692915050565b81612dae8161399e565b612dca5760405162461bcd60e51b8152600401610d02906149b9565b6000838152600d60205260409020600201548390635bd827d760e11b906001600160a01b0316331480612e035750612e03333083611858565b612e1f5760405162461bcd60e51b8152600401610d02906149e3565b6000858152600c60205260409020600201612e3a8582614adf565b50604051696172746973744e616d6560b01b908690600080516020614f9b83398151915290600090a35050505050565b612e743383613bc3565b612e905760405162461bcd60e51b8152600401610d0290614bf5565b612e9c84848484613fef565b50505050565b60608082612eaf816137f7565b612ecb5760405162461bcd60e51b8152600401610d0290614963565b6040805160038082526080820190925290602082016060803683375050604080516003808252608082019092529295509050602082016060803683370190505091506000612f1c620f424086614bc4565b6000818152600d6020526040812080546001820154939450909260ff600160a01b9283900481169392909104169082612f56836064614d25565b612f609190614ccd565b90506000612f6e8484614ccd565b60115490915060008315612fe45760028701548b516001600160a01b03909116908c9083908110612fa157612fa1614d0f565b6001600160a01b0390921660209283029190910190910152838a82612fc581614d38565b935081518110612fd757612fd7614d0f565b6020026020010181815250505b82156130525760018701548b516001600160a01b03909116908c908390811061300f5761300f614d0f565b6001600160a01b0390921660209283029190910190910152828a8261303381614d38565b93508151811061304557613045614d0f565b6020026020010181815250505b81156130be576010548b516001600160a01b03909116908c908390811061307b5761307b614d0f565b6001600160a01b0390921660209283029190910190910152818a8261309f81614d38565b9350815181106130b1576130b1614d0f565b6020026020010181815250505b80600311156130d95780600303808c51038c52808b51038b52505b505050505050505050915091565b6000828152600d602052604090206002015482906001600160a01b031633146131225760405162461bcd60e51b8152600401610d0290614994565b605f8211156131605760405162461bcd60e51b815260206004820152600a6024820152694d6178206f662039352560b01b6044820152606401610d02565b6000838152600d6020526040808220805460ff60a01b1916600160a01b60ff8716021790555170726f79616c747950657263656e7461676560781b918591600080516020614f9b8339815191529190a3505050565b6060816131c1816137f7565b6131dd5760405162461bcd60e51b8152600401610d0290614963565b6000600c816131ef620f424087614bc4565b8152602001908152602001600020600601805461320b90614a48565b80601f016020809104026020016040519081016040528092919081815260200182805461323790614a48565b80156132845780601f1061325957610100808354040283529160200191613284565b820191906000526020600020905b81548152906001019060200180831161326757829003601f168201915b505050505090508061329585614022565b6040516020016132a6929190614d51565b6040516020818303038152906040529250505b50919050565b63cc90e72560e01b6132d2333083611858565b6132ee5760405162461bcd60e51b8152600401610d0290614a18565b601354600160f81b900460ff16156133415760405162461bcd60e51b81526020600482015260166024820152752732bb90383937b532b1ba39903337b93134b23232b760511b6044820152606401610d02565b6013546001600160f81b03166000818152600d6020908152604080832060020180546001600160a01b0319166001600160a01b038816179055600c909152902060010161338e8582614adf565b506000818152600c60205260409020805465ffffff00000060ff60901b011916613d09601e1b600160901b011781556006016133cb601482614d80565b506133d7816001614e4c565b601380546001600160f81b0319166001600160f81b03929092169190911790556040516618dc99585d195960ca1b908290600080516020614f9b83398151915290600090a350505050565b63340f0e4360e21b613435333083611858565b6134515760405162461bcd60e51b8152600401610d0290614a18565b6000828152600c6020526040808220805460ff60881b198116600160881b9182900460ff1615909102179055516561637469766560d01b918491600080516020614f9b8339815191529190a35050565b806134ab8161399e565b6134c75760405162461bcd60e51b8152600401610d02906149b9565b6000828152600d6020526040902060020154829063db2ff86160e01b906001600160a01b03163314806135005750613500333083611858565b61351c5760405162461bcd60e51b8152600401610d02906149e3565b6000848152600c602052604090208054600160301b900462ffffff166135845760405162461bcd60e51b815260206004820152601e60248201527f746865726520617265206e6f207363726970747320746f2072656d6f766500006044820152606401610d02565b805460098201906000906135a690600190600160301b900462ffffff16614e6c565b62ffffff16815260200190815260200160002060006135c5919061428e565b80546135df90600190600160301b900462ffffff16614e6c565b815462ffffff91909116600160301b0262ffffff60301b19909116178155604051651cd8dc9a5c1d60d21b908690600080516020614f9b83398151915290600090a35050505050565b6001600160a01b03918216600090815260056020908152604080832093909416825291909152205460ff1690565b6000818152600c6020526040812060078101546060928392909161367990614122565b935080600801805461368a90614a48565b80601f01602080910402602001604051908101604052809291908181526020018280546136b690614a48565b80156137035780601f106136d857610100808354040283529160200191613703565b820191906000526020600020905b8154815290600101906020018083116136e657829003601f168201915b5050935496989297505050600160301b90940462ffffff169392505050565b61372a613e9b565b6001600160a01b03811661378f5760405162461bcd60e51b815260206004820152602660248201527f4f776e61626c653a206e6577206f776e657220697320746865207a65726f206160448201526564647265737360d01b6064820152608401610d02565b61379881613efa565b50565b6000612474612460565b600680546001600160a01b038381166001600160a01b0319831681179093556040519116919082907f8be0079c531659141344cd1fd0a4f28419497f9722a3daafe3b4186f6b6457e090600090a35050565b6000908152600260205260409020546001600160a01b0316151590565b6000818152600c6020526040808220805467ffffffffffffffff60481b1916600160481b426001600160401b031602179055516818dbdb5c1b195d195960ba1b918391600080516020614f9b8339815191529190a350565b6001600160a01b0382166138c25760405162461bcd60e51b815260206004820181905260248201527f4552433732313a206d696e7420746f20746865207a65726f20616464726573736044820152606401610d02565b6138cb816137f7565b156139175760405162461bcd60e51b815260206004820152601c60248201527b115490cdcc8c4e881d1bdad95b88185b1c9958591e481b5a5b9d195960221b6044820152606401610d02565b6001600160a01b0382166000908152600360205260408120805460019290613940908490614e88565b909155505060008181526002602052604080822080546001600160a01b0319166001600160a01b03861690811790915590518392907fddf252ad1be2c89b69c2b068fc378daa952ba7f163c4a11628f55a4df523b3ef908290a45050565b6000818152600c6020526040812054600160481b90046001600160401b0316801580806118fc57506224ea006139d48342614d25565b10949350505050565b600080805b60208160ff161015613a3c576000868260ff1660208110613a0557613a05614d0f565b1a90508015801590613a1a575060808160ff16105b15613a33578560ff168160ff1603613a33578260010192505b506001016139e2565b8360ff168260ff1614925050509392505050565b60006001600160e01b031982166380ac58cd60e01b1480613a8157506001600160e01b03198216635b5e139f60e01b145b8061135257506301ffc9a760e01b6001600160e01b0319831614611352565b613aa9816137f7565b6137985760405162461bcd60e51b8152600401610d0290614c9b565b600081815260046020526040902080546001600160a01b0319166001600160a01b0384169081179091558190613afa82611f04565b6001600160a01b03167f8c5be1e5ebec7d5bd14f71427d1e84f3dd0314c0f7b2291e5b200ac8c7c3b92560405160405180910390a45050565b600f80546001600160a01b0319166001600160a01b0383161790556040517b617274626c6f636b735072696d61727953616c65734164647265737360201b90600080516020614f7b83398151915290600090a250565b6014613b958282614adf565b506040516d64656661756c744261736555524960901b90600080516020614f7b83398151915290600090a250565b600080613bcf83611f04565b9050806001600160a01b0316846001600160a01b03161480613bf65750613bf68185613628565b806118fc5750836001600160a01b0316613c0f846114af565b6001600160a01b031614949350505050565b826001600160a01b0316613c3482611f04565b6001600160a01b031614613c985760405162461bcd60e51b815260206004820152602560248201527f4552433732313a207472616e736665722066726f6d20696e636f72726563742060448201526437bbb732b960d91b6064820152608401610d02565b6001600160a01b038216613cfa5760405162461bcd60e51b8152602060048201526024808201527f4552433732313a207472616e7366657220746f20746865207a65726f206164646044820152637265737360e01b6064820152608401610d02565b613d05600082613ac5565b6001600160a01b0383166000908152600360205260408120805460019290613d2e908490614d25565b90915550506001600160a01b0382166000908152600360205260408120805460019290613d5c908490614e88565b909155505060008181526002602052604080822080546001600160a01b0319166001600160a01b0386811691821790925591518493918716917fddf252ad1be2c89b69c2b068fc378daa952ba7f163c4a11628f55a4df523b3ef91a4505050565b601080546001600160a01b0319166001600160a01b0383161790556040517f617274626c6f636b735365636f6e6461727953616c657341646472657373000090600080516020614f7b83398151915290600090a250565b600980546001600160a01b0383166001600160a01b03199182168117909255600a805460018101825560009182527fc65a7bb8d6351c1cf70c95a316cc6a92839c986682d98bc35f958f4883f9d2a801805490921690921790556040517072616e646f6d697a65724164647265737360781b91600080516020614f7b83398151915291a250565b33613ea4612460565b6001600160a01b03161461208f5760405162461bcd60e51b815260206004820181905260248201527f4f776e61626c653a2063616c6c6572206973206e6f7420746865206f776e65726044820152606401610d02565b613f03816137a5565b600b80546001600160a01b0319166001600160a01b0392909216919091179055565b816001600160a01b0316836001600160a01b031603613f825760405162461bcd60e51b815260206004820152601960248201527822a9219b99189d1030b8383937bb32903a379031b0b63632b960391b6044820152606401610d02565b6001600160a01b03838116600081815260056020908152604080832094871680845294825291829020805460ff191686151590811790915591519182527f17307eab39ab6107e8899845ad3d59bd9653f200f220920489ca2b5937696c31910160405180910390a3505050565b613ffa848484613c21565b6140068484848461418d565b612e9c5760405162461bcd60e51b8152600401610d0290614e9b565b6060816000036140495750506040805180820190915260018152600360fc1b602082015290565b8160005b8115614073578061405d81614d38565b915061406c9050600a83614bc4565b915061404d565b6000816001600160401b0381111561408d5761408d61448c565b6040519080825280601f01601f1916602001820160405280156140b7576020820181803683370190505b5090505b84156118fc576140cc600183614d25565b91506140d9600a86614eed565b6140e4906030614e88565b60f81b8183815181106140f9576140f9614d0f565b60200101906001600160f81b031916908160001a90535061411b600a86614bc4565b94506140bb565b606060005b828160ff166020811061413c5761413c614d0f565b1a60f81b6001600160f81b0319161580159061415b575060208160ff16105b15614172578061416a81614f01565b915050614127565b60405191506040820160405280825282602083015250919050565b60006001600160a01b0384163b1561428357604051630a85bd0160e11b81526001600160a01b0385169063150b7a02906141d1903390899088908890600401614f20565b6020604051808303816000875af192505050801561420c575060408051601f3d908101601f1916820190925261420991810190614f5d565b60015b614269573d80801561423a576040519150601f19603f3d011682016040523d82523d6000602084013e61423f565b606091505b5080516000036142615760405162461bcd60e51b8152600401610d0290614e9b565b805181602001fd5b6001600160e01b031916630a85bd0160e11b1490506118fc565b506001949350505050565b50805461429a90614a48565b6000825580601f106142aa575050565b601f01602090049060005260206000209081019061379891905b808211156142d857600081556001016142c4565b5090565b600080604083850312156142ef57600080fd5b50508035926020909101359150565b6001600160a01b038116811461379857600080fd5b60008060006060848603121561432857600080fd5b8335614333816142fe565b925060208401359150604084013561434a816142fe565b809150509250925092565b6000806040838503121561436857600080fd5b82359150602083013562ffffff8116811461438257600080fd5b809150509250929050565b6001600160e01b03198116811461379857600080fd5b6000602082840312156143b557600080fd5b81356143c08161438d565b9392505050565b60005b838110156143e25781810151838201526020016143ca565b50506000910152565b600081518084526144038160208601602086016143c7565b601f01601f19169290920160200192915050565b6020815260006143c060208301846143eb565b60006020828403121561443c57600080fd5b5035919050565b6000806040838503121561445657600080fd5b8235614461816142fe565b946020939093013593505050565b60006020828403121561448157600080fd5b81356143c0816142fe565b634e487b7160e01b600052604160045260246000fd5b60006001600160401b03808411156144bc576144bc61448c565b604051601f8501601f19908116603f011681019082821181831017156144e4576144e461448c565b816040528093508581528686860111156144fd57600080fd5b858560208301376000602087830101525050509392505050565b600082601f83011261452857600080fd5b6143c0838335602085016144a2565b6000806040838503121561454a57600080fd5b8235915060208301356001600160401b0381111561456757600080fd5b61457385828601614517565b9150509250929050565b60006020828403121561458f57600080fd5b81356001600160401b038111156145a557600080fd5b6118fc84828501614517565b6000806000606084860312156145c657600080fd5b83356145d1816142fe565b925060208401356145e1816142fe565b9150604084013561434a8161438d565b60008060006060848603121561460657600080fd5b8335614611816142fe565b92506020840135614621816142fe565b929592945050506040919091013590565b60008060008060008060c0878903121561464b57600080fd5b86359550602087013561465d816142fe565b9450604087013561466d816142fe565b9350606087013592506080870135614684816142fe565b8092505060a087013590509295509295509295565b600080604083850312156146ac57600080fd5b823591506020830135614382816142fe565b60a0815260006146d160a08301886143eb565b82810360208401526146e381886143eb565b905082810360408401526146f781876143eb565b9050828103606084015261470b81866143eb565b9050828103608084015261471f81856143eb565b98975050505050505050565b801515811461379857600080fd5b6000806040838503121561474c57600080fd5b8235614757816142fe565b915060208301356143828161472b565b60008060006060848603121561477c57600080fd5b833592506020840135915060408401356001600160401b038111156147a057600080fd5b6147ac86828701614517565b9150509250925092565b600080600080608085870312156147cc57600080fd5b84356147d7816142fe565b935060208501356147e7816142fe565b92506040850135915060608501356001600160401b0381111561480957600080fd5b8501601f8101871361481a57600080fd5b614829878235602084016144a2565b91505092959194509250565b604080825283519082018190526000906020906060840190828701845b828110156148775781516001600160a01b031684529284019290840190600101614852565b5050508381038285015284518082528583019183019060005b818110156148ac57835183529284019291840191600101614890565b5090979650505050505050565b600080604083850312156148cc57600080fd5b82356001600160401b038111156148e257600080fd5b6148ee85828601614517565b9250506020830135614382816142fe565b6000806040838503121561491257600080fd5b823561491d816142fe565b91506020830135614382816142fe565b60608152600061494060608301866143eb565b828103602084015261495281866143eb565b915050826040830152949350505050565b602080825260179082015276151bdad95b88125108191bd95cc81b9bdd08195e1a5cdd604a1b604082015260600190565b6020808252600b908201526a13db9b1e48185c9d1a5cdd60aa1b604082015260600190565b60208082526010908201526f13db9b1e481a59881d5b9b1bd8dad95960821b604082015260600190565b6020808252818101527f4f6e6c7920617274697374206f722041646d696e2041434c20616c6c6f776564604082015260600190565b60208082526016908201527513db9b1e4810591b5a5b881050d308185b1b1bddd95960521b604082015260600190565b600181811c90821680614a5c57607f821691505b6020821081036132b957634e487b7160e01b600052602260045260246000fd5b601f8211156115e657600081815260208120601f850160051c81016020861015614aa35750805b601f850160051c820191505b81811015614ac257828155600101614aaf565b505050505050565b600019600383901b1c191660019190911b1790565b81516001600160401b03811115614af857614af861448c565b614b0c81614b068454614a48565b84614a7c565b602080601f831160018114614b3b5760008415614b295750858301515b614b338582614aca565b865550614ac2565b600085815260208120601f198616915b82811015614b6a57888601518255948401946001909101908401614b4b565b5085821015614b885787850151600019600388901b60f8161c191681555b5050505050600190811b01905550565b634e487b7160e01b600052601260045260246000fd5b634e487b7160e01b600052601160045260246000fd5b600082614bd357614bd3614b98565b500490565b600060208284031215614bea57600080fd5b81516143c08161472b565b6020808252602e908201527f4552433732313a2063616c6c6572206973206e6f7420746f6b656e206f776e6560408201526d1c881b9bdc88185c1c1c9bdd995960921b606082015260800190565b6020808252600b908201526a4d6178206f66203130302560a81b604082015260600190565b6001600160a01b039586168152938516602085015260408401929092529092166060820152608081019190915260a00190565b602080825260189082015277115490cdcc8c4e881a5b9d985b1a59081d1bdad95b88125160421b604082015260600190565b6000816000190483118215151615614ce757614ce7614bae565b500290565b62ffffff818116838216019080821115614d0857614d08614bae565b5092915050565b634e487b7160e01b600052603260045260246000fd5b8181038181111561135257611352614bae565b600060018201614d4a57614d4a614bae565b5060010190565b60008351614d638184602088016143c7565b835190830190614d778183602088016143c7565b01949350505050565b818103614d8b575050565b614d958254614a48565b6001600160401b03811115614dac57614dac61448c565b614dba81614b068454614a48565b6000601f821160018114614de85760008315614dd65750848201545b614de08482614aca565b85555061120e565b600085815260209020601f19841690600086815260209020845b83811015614e225782860154825560019586019590910190602001614e02565b5085831015614b885793015460001960f8600387901b161c19169092555050600190811b01905550565b6001600160f81b03818116838216019080821115614d0857614d08614bae565b62ffffff828116828216039080821115614d0857614d08614bae565b8082018082111561135257611352614bae565b60208082526032908201527f4552433732313a207472616e7366657220746f206e6f6e20455243373231526560408201527131b2b4bb32b91034b6b83632b6b2b73a32b960711b606082015260800190565b600082614efc57614efc614b98565b500690565b600060ff821660ff8103614f1757614f17614bae565b60010192915050565b6001600160a01b0385811682528416602082015260408101839052608060608201819052600090614f53908301846143eb565b9695505050505050565b600060208284031215614f6f57600080fd5b81516143c08161438d56fe8b810f233ce7ee6e962ab4d98bf0277751de1f5589de3dcc812ac2047994d009b96a30340e86d03ce4be42f94ac02d7b27b4a4cdae942beb69026718dfe66afca26469706673582212205a86d7e32820469a64b00687de952323bd3ec57c19339c5025c1f6db6921b53264736f6c634300081000338b810f233ce7ee6e962ab4d98bf0277751de1f5589de3dcc812ac2047994d009",
  "linkReferences": {},
  "deployedLinkReferences": {}
}