{
  "_format": "hh-sol-artifact-1",
  "contractName": "GenArt721FilteredMinter",
  "sourceName": "contracts/minter-suite/GenArt721FilteredMinter.sol",
  "abi": [
    {
      "inputs": [
        {
          "internalType": "address",
          "name": "_genArt721Address",
          "type": "address"
        },
        {
          "internalType": "address",
          "name": "_minterFilter",
          "type": "address"
        }
      ],
      "stateMutability": "nonpayable",
      "type": "constructor"
    },
    {
      "anonymous": false,
      "inputs": [
        {
          "indexed": true,
          "internalType": "uint256",
          "name": "_projectId",
          "type": "uint256"
        },
        {
          "indexed": false,
          "internalType": "bool",
          "name": "_purchaseToDisabled",
          "type": "bool"
        }
      ],
      "name": "PurchaseToDisabledUpdated",
      "type": "event"
    },
    {
      "inputs": [],
      "name": "artblocksContract",
      "outputs": [
        {
          "internalType": "contract IGenArt721CoreContract",
          "name": "",
          "type": "address"
        }
      ],
      "stateMutability": "view",
      "type": "function"
    },
    {
      "inputs": [
        {
          "internalType": "uint256",
          "name": "_projectId",
          "type": "uint256"
        }
      ],
      "name": "checkYourAllowanceOfProjectERC20",
      "outputs": [
        {
          "internalType": "uint256",
          "name": "remaining",
          "type": "uint256"
        }
      ],
      "stateMutability": "view",
      "type": "function"
    },
    {
      "inputs": [
        {
          "internalType": "uint256",
          "name": "",
          "type": "uint256"
        }
      ],
      "name": "contractMintable",
      "outputs": [
        {
          "internalType": "bool",
          "name": "",
          "type": "bool"
        }
      ],
      "stateMutability": "view",
      "type": "function"
    },
    {
      "inputs": [
        {
          "internalType": "uint256",
          "name": "_projectId",
          "type": "uint256"
        }
      ],
      "name": "getYourBalanceOfProjectERC20",
      "outputs": [
        {
          "internalType": "uint256",
          "name": "balance",
          "type": "uint256"
        }
      ],
      "stateMutability": "view",
      "type": "function"
    },
    {
      "inputs": [],
      "name": "minterFilter",
      "outputs": [
        {
          "internalType": "contract IMinterFilter",
          "name": "",
          "type": "address"
        }
      ],
      "stateMutability": "view",
      "type": "function"
    },
    {
      "inputs": [],
      "name": "minterType",
      "outputs": [
        {
          "internalType": "string",
          "name": "",
          "type": "string"
        }
      ],
      "stateMutability": "view",
      "type": "function"
    },
    {
      "inputs": [
        {
          "internalType": "uint256",
          "name": "",
          "type": "uint256"
        }
      ],
      "name": "projectMaxHasBeenInvoked",
      "outputs": [
        {
          "internalType": "bool",
          "name": "",
          "type": "bool"
        }
      ],
      "stateMutability": "view",
      "type": "function"
    },
    {
      "inputs": [
        {
          "internalType": "uint256",
          "name": "",
          "type": "uint256"
        }
      ],
      "name": "projectMaxInvocations",
      "outputs": [
        {
          "internalType": "uint256",
          "name": "",
          "type": "uint256"
        }
      ],
      "stateMutability": "view",
      "type": "function"
    },
    {
      "inputs": [
        {
          "internalType": "address",
          "name": "",
          "type": "address"
        },
        {
          "internalType": "uint256",
          "name": "",
          "type": "uint256"
        }
      ],
      "name": "projectMintCounter",
      "outputs": [
        {
          "internalType": "uint256",
          "name": "",
          "type": "uint256"
        }
      ],
      "stateMutability": "view",
      "type": "function"
    },
    {
      "inputs": [
        {
          "internalType": "uint256",
          "name": "",
          "type": "uint256"
        }
      ],
      "name": "projectMintLimit",
      "outputs": [
        {
          "internalType": "uint256",
          "name": "",
          "type": "uint256"
        }
      ],
      "stateMutability": "view",
      "type": "function"
    },
    {
      "inputs": [
        {
          "internalType": "uint256",
          "name": "_projectId",
          "type": "uint256"
        }
      ],
      "name": "purchase",
      "outputs": [
        {
          "internalType": "uint256",
          "name": "tokenId",
          "type": "uint256"
        }
      ],
      "stateMutability": "payable",
      "type": "function"
    },
    {
      "inputs": [
        {
          "internalType": "address",
          "name": "_to",
          "type": "address"
        },
        {
          "internalType": "uint256",
          "name": "_projectId",
          "type": "uint256"
        }
      ],
      "name": "purchaseTo",
      "outputs": [
        {
          "internalType": "uint256",
          "name": "tokenId",
          "type": "uint256"
        }
      ],
      "stateMutability": "payable",
      "type": "function"
    },
    {
      "inputs": [
        {
          "internalType": "uint256",
          "name": "",
          "type": "uint256"
        }
      ],
      "name": "purchaseToDisabled",
      "outputs": [
        {
          "internalType": "bool",
          "name": "",
          "type": "bool"
        }
      ],
      "stateMutability": "view",
      "type": "function"
    },
    {
      "inputs": [
        {
          "internalType": "uint256",
          "name": "_projectId",
          "type": "uint256"
        }
      ],
      "name": "setProjectMaxInvocations",
      "outputs": [],
      "stateMutability": "nonpayable",
      "type": "function"
    },
    {
      "inputs": [
        {
          "internalType": "uint256",
          "name": "_projectId",
          "type": "uint256"
        },
        {
          "internalType": "uint8",
          "name": "_limit",
          "type": "uint8"
        }
      ],
      "name": "setProjectMintLimit",
      "outputs": [],
      "stateMutability": "nonpayable",
      "type": "function"
    },
    {
      "inputs": [
        {
          "internalType": "uint256",
          "name": "_projectId",
          "type": "uint256"
        }
      ],
      "name": "toggleContractMintable",
      "outputs": [],
      "stateMutability": "nonpayable",
      "type": "function"
    },
    {
      "inputs": [
        {
          "internalType": "uint256",
          "name": "_projectId",
          "type": "uint256"
        }
      ],
      "name": "togglePurchaseToDisabled",
      "outputs": [],
      "stateMutability": "nonpayable",
      "type": "function"
    }
  ],
  "bytecode": "0x60806040523480156200001157600080fd5b506040516200228a3803806200228a833981016040819052620000349162000083565b600080546001600160a01b039384166001600160a01b03199182161790915560018054929093169116179055620000bb565b80516001600160a01b03811681146200007e57600080fd5b919050565b600080604083850312156200009757600080fd5b620000a28362000066565b9150620000b26020840162000066565b90509250929050565b6121bf80620000cb6000396000f3fe6080604052600436106100de5760003560e01c8063891407c011610085578063891407c01461025b578063a98096001461026e578063acffea051461028e578063bee56003146102ae578063cfff5cf1146102de578063e9d1e8ac1461030e578063efef39a11461035e578063f463210314610371578063f7bd4b881461039157600080fd5b806308d94188146100e35780630dcd404b14610119578063231c2281146101395780633a4657b41461015b57806340d1397e146101a1578063462add46146101c157806356690aaf1461020157806362f7a7ed1461022e575b600080fd5b3480156100ef57600080fd5b50600154610103906001600160a01b031681565b6040516101109190611d74565b60405180910390f35b34801561012557600080fd5b50600054610103906001600160a01b031681565b34801561014557600080fd5b50610159610154366004611d88565b6103b1565b005b34801561016757600080fd5b50610193610176366004611dd3565b600460209081526000928352604080842090915290825290205481565b604051908152602001610110565b3480156101ad57600080fd5b506101596101bc366004611dff565b61046e565b3480156101cd57600080fd5b506101f16101dc366004611dff565b60066020526000908152604090205460ff1681565b6040519015158152602001610110565b34801561020d57600080fd5b5061019361021c366004611dff565b60076020526000908152604090205481565b34801561023a57600080fd5b50610193610249366004611dff565b60056020526000908152604090205481565b610193610269366004611dd3565b610567565b34801561027a57600080fd5b50610193610289366004611dff565b610dea565b34801561029a57600080fd5b506101596102a9366004611dff565b610ee2565b3480156102ba57600080fd5b506101f16102c9366004611dff565b60026020526000908152604090205460ff1681565b3480156102ea57600080fd5b506101f16102f9366004611dff565b60036020526000908152604090205460ff1681565b34801561031a57600080fd5b506103516040518060400160405280601781526020017623b2b720b93a1b9918a334b63a32b932b226b4b73a32b960491b81525081565b6040516101109190611e48565b61019361036c366004611dff565b610f9e565b34801561037d57600080fd5b5061019361038c366004611dff565b610faa565b34801561039d57600080fd5b506101596103ac366004611dff565b61105b565b600054604051633af32abf60e01b81526001600160a01b0390911690633af32abf906103e1903390600401611d74565b60206040518083038186803b1580156103f957600080fd5b505afa15801561040d573d6000803e3d6000fd5b505050506040513d601f19601f820116820180604052508101906104319190611e90565b6104565760405162461bcd60e51b815260040161044d90611eb2565b60405180910390fd5b60009182526005602052604090912060ff9091169055565b600054604051633af32abf60e01b81526001600160a01b0390911690633af32abf9061049e903390600401611d74565b60206040518083038186803b1580156104b657600080fd5b505afa1580156104ca573d6000803e3d6000fd5b505050506040513d601f19601f820116820180604052508101906104ee9190611e90565b61050a5760405162461bcd60e51b815260040161044d90611eb2565b600081815260036020908152604091829020805460ff8082161560ff199092168217909255925192161515825282917fce8ced1e9d6979c7589d3c8786f4d51a8034faa5ff2cbc5a2271364f787feccb910160405180910390a250565b60008181526006602052604081205460ff16156105d45760405162461bcd60e51b815260206004820152602560248201527f4d6178696d756d206e756d626572206f6620696e766f636174696f6e732072656044820152641858da195960da1b606482015260840161044d565b60008281526002602052604090205460ff1661062c5733321461062c5760405162461bcd60e51b815260206004820152601060248201526f4e6f20436f6e7472616374204275797360801b604482015260640161044d565b60008281526003602052604090205460ff161561069557336001600160a01b038416146106955760405162461bcd60e51b8152602060048201526017602482015276139bc8181c1d5c98da185cd9551bd808105b1b1bddd959604a1b604482015260640161044d565b60008281526005602052604090205415610740576000828152600560209081526040808320543384526004835281842086855290925290912054106107145760405162461bcd60e51b815260206004820152601560248201527414995858da1959081b5a5b9d1a5b99c81b1a5b5a5d605a1b604482015260640161044d565b336000908152600460209081526040808320858452909152812080549161073a83611ef7565b91905055505b6040516208aa8960eb1b602082015260230160408051808303601f190181529082905280516020909101206000546320927ec960e01b83526004830185905290916001600160a01b03909116906320927ec99060240160006040518083038186803b1580156107ae57600080fd5b505afa1580156107c2573d6000803e3d6000fd5b505050506040513d6000823e601f3d908101601f191682016040526107ea9190810190611fb0565b6040516020016107fa9190611fed565b6040516020818303038152906040528051906020012014610c205734156108895760405162461bcd60e51b815260206004820152603f60248201527f746869732070726f6a6563742061636365707473206120646966666572656e7460448201527f2063757272656e637920616e642063616e6e6f74206163636570742045544800606482015260840161044d565b600054604051633dc303c160e21b8152600481018490526001600160a01b039091169063f70c0f049060240160206040518083038186803b1580156108cd57600080fd5b505afa1580156108e1573d6000803e3d6000fd5b505050506040513d601f19601f820116820180604052508101906109059190612009565b60005460405163498dd0c160e01b8152600481018590526001600160a01b039091169063498dd0c19060240160206040518083038186803b15801561094957600080fd5b505afa15801561095d573d6000803e3d6000fd5b505050506040513d601f19601f820116820180604052508101906109819190612022565b604051636eb1769f60e11b81523360048201523060248201526001600160a01b03919091169063dd62ed3e9060440160206040518083038186803b1580156109c857600080fd5b505afa1580156109dc573d6000803e3d6000fd5b505050506040513d601f19601f82011682018060405250810190610a009190612009565b1015610a595760405162461bcd60e51b815260206004820152602260248201527f496e73756666696369656e742046756e647320417070726f76656420666f72206044820152610a8b60f31b606482015260840161044d565b600054604051633dc303c160e21b8152600481018490526001600160a01b039091169063f70c0f049060240160206040518083038186803b158015610a9d57600080fd5b505afa158015610ab1573d6000803e3d6000fd5b505050506040513d601f19601f82011682018060405250810190610ad59190612009565b60005460405163498dd0c160e01b8152600481018590526001600160a01b039091169063498dd0c19060240160206040518083038186803b158015610b1957600080fd5b505afa158015610b2d573d6000803e3d6000fd5b505050506040513d601f19601f82011682018060405250810190610b519190612022565b6001600160a01b03166370a08231336040518263ffffffff1660e01b8152600401610b7c9190611d74565b60206040518083038186803b158015610b9457600080fd5b505afa158015610ba8573d6000803e3d6000fd5b505050506040513d601f19601f82011682018060405250810190610bcc9190612009565b1015610c125760405162461bcd60e51b815260206004820152601560248201527424b739bab33334b1b4b2b73a103130b630b731b29760591b604482015260640161044d565b610c1b826111ba565b610cf4565b600054604051633dc303c160e21b8152600481018490526001600160a01b039091169063f70c0f049060240160206040518083038186803b158015610c6457600080fd5b505afa158015610c78573d6000803e3d6000fd5b505050506040513d601f19601f82011682018060405250810190610c9c9190612009565b341015610ceb5760405162461bcd60e51b815260206004820181905260248201527f4d7573742073656e64206d696e696d756d2076616c756520746f206d696e7421604482015260640161044d565b610cf482611894565b600154604051630d4d151360e01b81526001600160a01b0385811660048301526024820185905233604483015290911690630d4d151390606401602060405180830381600087803b158015610d4857600080fd5b505af1158015610d5c573d6000803e3d6000fd5b505050506040513d601f19601f82011682018060405250810190610d809190612009565b60008381526007602052604090205490915015801590610dc55750600082815260076020526040902054610db69060019061203f565b610dc3620f42408361206c565b145b15610de4576000828152600660205260409020805460ff191660011790555b92915050565b6000805460405163498dd0c160e01b8152600481018490526001600160a01b039091169063498dd0c19060240160206040518083038186803b158015610e2f57600080fd5b505afa158015610e43573d6000803e3d6000fd5b505050506040513d601f19601f82011682018060405250810190610e679190612022565b6001600160a01b03166370a08231336040518263ffffffff1660e01b8152600401610e929190611d74565b60206040518083038186803b158015610eaa57600080fd5b505afa158015610ebe573d6000803e3d6000fd5b505050506040513d601f19601f82011682018060405250810190610de49190612009565b600054604051633af32abf60e01b81526001600160a01b0390911690633af32abf90610f12903390600401611d74565b60206040518083038186803b158015610f2a57600080fd5b505afa158015610f3e573d6000803e3d6000fd5b505050506040513d601f19601f82011682018060405250810190610f629190611e90565b610f7e5760405162461bcd60e51b815260040161044d90611eb2565b6000908152600260205260409020805460ff19811660ff90911615179055565b6000610de43383610567565b6000805460405163498dd0c160e01b8152600481018490526001600160a01b039091169063498dd0c19060240160206040518083038186803b158015610fef57600080fd5b505afa158015611003573d6000803e3d6000fd5b505050506040513d601f19601f820116820180604052508101906110279190612022565b604051636eb1769f60e11b81523360048201523060248201526001600160a01b03919091169063dd62ed3e90604401610e92565b600054604051633af32abf60e01b81526001600160a01b0390911690633af32abf9061108b903390600401611d74565b60206040518083038186803b1580156110a357600080fd5b505afa1580156110b7573d6000803e3d6000fd5b505050506040513d601f19601f820116820180604052508101906110db9190611e90565b6110f75760405162461bcd60e51b815260040161044d90611eb2565b600080546040516346161b1160e11b81526004810184905282916001600160a01b031690638c2c36229060240160006040518083038186803b15801561113c57600080fd5b505afa158015611150573d6000803e3d6000fd5b505050506040513d6000823e601f3d908101601f191682016040526111789190810190612080565b505050600089815260076020526040902083905550909550909350505050818110156111b5576000838152600660205260409020805460ff191690555b505050565b60008054604051633dc303c160e21b8152600481018490526001600160a01b039091169063f70c0f049060240160206040518083038186803b1580156111ff57600080fd5b505afa158015611213573d6000803e3d6000fd5b505050506040513d601f19601f820116820180604052508101906112379190612009565b905060008060009054906101000a90046001600160a01b03166001600160a01b0316634f029c396040518163ffffffff1660e01b815260040160206040518083038186803b15801561128857600080fd5b505afa15801561129c573d6000803e3d6000fd5b505050506040513d601f19601f820116820180604052508101906112c09190612009565b6112cb606484612132565b6112d59190612146565b9050801561145f5760005460405163498dd0c160e01b8152600481018590526001600160a01b039091169063498dd0c19060240160206040518083038186803b15801561132157600080fd5b505afa158015611335573d6000803e3d6000fd5b505050506040513d601f19601f820116820180604052508101906113599190612022565b6001600160a01b03166323b872dd3360008054906101000a90046001600160a01b03166001600160a01b0316633949f9066040518163ffffffff1660e01b815260040160206040518083038186803b1580156113b457600080fd5b505afa1580156113c8573d6000803e3d6000fd5b505050506040513d601f19601f820116820180604052508101906113ec9190612022565b846040518463ffffffff1660e01b815260040161140b93929190612165565b602060405180830381600087803b15801561142557600080fd5b505af1158015611439573d6000803e3d6000fd5b505050506040513d601f19601f8201168201806040525081019061145d9190611e90565b505b600061146b828461203f565b6000805460405163cc74234b60e01b815260048101889052929350909182916001600160a01b03169063cc74234b9060240160206040518083038186803b1580156114b557600080fd5b505afa1580156114c9573d6000803e3d6000fd5b505050506040513d601f19601f820116820180604052508101906114ed9190612009565b11156117025760005460405163cc74234b60e01b8152600481018790526001600160a01b039091169063cc74234b9060240160206040518083038186803b15801561153757600080fd5b505afa15801561154b573d6000803e3d6000fd5b505050506040513d601f19601f8201168201806040525081019061156f9190612009565b61157a606484612132565b6115849190612146565b905080156117025760005460405163498dd0c160e01b8152600481018790526001600160a01b039091169063498dd0c19060240160206040518083038186803b1580156115d057600080fd5b505afa1580156115e4573d6000803e3d6000fd5b505050506040513d601f19601f820116820180604052508101906116089190612022565b600054604051636bd8225b60e11b8152600481018890526001600160a01b03928316926323b872dd92339291169063d7b044b69060240160206040518083038186803b15801561165757600080fd5b505afa15801561166b573d6000803e3d6000fd5b505050506040513d601f19601f8201168201806040525081019061168f9190612022565b846040518463ffffffff1660e01b81526004016116ae93929190612165565b602060405180830381600087803b1580156116c857600080fd5b505af11580156116dc573d6000803e3d6000fd5b505050506040513d601f19601f820116820180604052508101906117009190611e90565b505b600061170e828461203f565b9050801561188c5760005460405163498dd0c160e01b8152600481018890526001600160a01b039091169063498dd0c19060240160206040518083038186803b15801561175a57600080fd5b505afa15801561176e573d6000803e3d6000fd5b505050506040513d601f19601f820116820180604052508101906117929190612022565b60005460405163a47d29cb60e01b8152600481018990526001600160a01b03928316926323b872dd92339291169063a47d29cb9060240160206040518083038186803b1580156117e157600080fd5b505afa1580156117f5573d6000803e3d6000fd5b505050506040513d601f19601f820116820180604052508101906118199190612022565b846040518463ffffffff1660e01b815260040161183893929190612165565b602060405180830381600087803b15801561185257600080fd5b505af1158015611866573d6000803e3d6000fd5b505050506040513d601f19601f8201168201806040525081019061188a9190611e90565b505b505050505050565b3415611d715760008054604051633dc303c160e21b8152600481018490526001600160a01b039091169063f70c0f049060240160206040518083038186803b1580156118df57600080fd5b505afa1580156118f3573d6000803e3d6000fd5b505050506040513d601f19601f820116820180604052508101906119179190612009565b90506000611925823461203f565b9050801561195c57604051339082156108fc029083906000818181858888f1935050505015801561195a573d6000803e3d6000fd5b505b60008060009054906101000a90046001600160a01b03166001600160a01b0316634f029c396040518163ffffffff1660e01b815260040160206040518083038186803b1580156119ab57600080fd5b505afa1580156119bf573d6000803e3d6000fd5b505050506040513d601f19601f820116820180604052508101906119e39190612009565b6119ee606485612132565b6119f89190612146565b90508015611abe5760008054906101000a90046001600160a01b03166001600160a01b0316633949f9066040518163ffffffff1660e01b815260040160206040518083038186803b158015611a4c57600080fd5b505afa158015611a60573d6000803e3d6000fd5b505050506040513d601f19601f82011682018060405250810190611a849190612022565b6001600160a01b03166108fc829081150290604051600060405180830381858888f19350505050158015611abc573d6000803e3d6000fd5b505b6000611aca828561203f565b6000805460405163cc74234b60e01b815260048101899052929350909182916001600160a01b03169063cc74234b9060240160206040518083038186803b158015611b1457600080fd5b505afa158015611b28573d6000803e3d6000fd5b505050506040513d601f19601f82011682018060405250810190611b4c9190612009565b1115611ca15760005460405163cc74234b60e01b8152600481018890526001600160a01b039091169063cc74234b9060240160206040518083038186803b158015611b9657600080fd5b505afa158015611baa573d6000803e3d6000fd5b505050506040513d601f19601f82011682018060405250810190611bce9190612009565b611bd9606484612132565b611be39190612146565b90508015611ca157600054604051636bd8225b60e11b8152600481018890526001600160a01b039091169063d7b044b69060240160206040518083038186803b158015611c2f57600080fd5b505afa158015611c43573d6000803e3d6000fd5b505050506040513d601f19601f82011682018060405250810190611c679190612022565b6001600160a01b03166108fc829081150290604051600060405180830381858888f19350505050158015611c9f573d6000803e3d6000fd5b505b6000611cad828461203f565b9050801561188a5760005460405163a47d29cb60e01b8152600481018990526001600160a01b039091169063a47d29cb9060240160206040518083038186803b158015611cf957600080fd5b505afa158015611d0d573d6000803e3d6000fd5b505050506040513d601f19601f82011682018060405250810190611d319190612022565b6001600160a01b03166108fc829081150290604051600060405180830381858888f19350505050158015611d69573d6000803e3d6000fd5b505050505050505b50565b6001600160a01b0391909116815260200190565b60008060408385031215611d9b57600080fd5b82359150602083013560ff81168114611db357600080fd5b809150509250929050565b6001600160a01b0381168114611d7157600080fd5b60008060408385031215611de657600080fd5b8235611df181611dbe565b946020939093013593505050565b600060208284031215611e1157600080fd5b5035919050565b60005b83811015611e33578181015183820152602001611e1b565b83811115611e42576000848401525b50505050565b6020815260008251806020840152611e67816040850160208701611e18565b601f01601f19169190910160400192915050565b80518015158114611e8b57600080fd5b919050565b600060208284031215611ea257600080fd5b611eab82611e7b565b9392505050565b60208082526015908201527413db9b1e4810dbdc99481dda1a5d195b1a5cdd1959605a1b604082015260600190565b634e487b7160e01b600052601160045260246000fd5b6000600019821415611f0b57611f0b611ee1565b5060010190565b634e487b7160e01b600052604160045260246000fd5b600082601f830112611f3957600080fd5b815167ffffffffffffffff80821115611f5457611f54611f12565b604051601f8301601f19908116603f01168101908282118183101715611f7c57611f7c611f12565b81604052838152866020858801011115611f9557600080fd5b611fa6846020830160208901611e18565b9695505050505050565b600060208284031215611fc257600080fd5b815167ffffffffffffffff811115611fd957600080fd5b611fe584828501611f28565b949350505050565b60008251611fff818460208701611e18565b9190910192915050565b60006020828403121561201b57600080fd5b5051919050565b60006020828403121561203457600080fd5b8151611eab81611dbe565b60008282101561205157612051611ee1565b500390565b634e487b7160e01b600052601260045260246000fd5b60008261207b5761207b612056565b500690565b60008060008060008060008060006101208a8c03121561209f57600080fd5b89516120aa81611dbe565b8099505060208a0151975060408a0151965060608a015195506120cf60808b01611e7b565b945060a08a01516120df81611dbe565b60c08b015160e08c0151919550935067ffffffffffffffff81111561210357600080fd5b61210f8c828d01611f28565b9250506101008a015161212181611dbe565b809150509295985092959850929598565b60008261214157612141612056565b500490565b600081600019048311821515161561216057612160611ee1565b500290565b6001600160a01b03938416815291909216602082015260408101919091526060019056fea26469706673582212206a10b83071591b02cfb53281739ae965374bb6813ab19da59e12fa2d824c30b264736f6c63430008090033",
  "linkReferences": {},
  "deployedLinkReferences": {}
}