{
  "_format": "hh-sol-artifact-1",
  "contractName": "GenArt721FilteredMinterETH",
  "sourceName": "contracts/minter-suite/GenArt721FilteredMinterETH.sol",
  "abi": [
    {
      "inputs": [
        {
          "internalType": "address",
          "name": "_genArt721Address",
          "type": "address"
        },
        {
          "internalType": "address",
          "name": "_minterFilter",
          "type": "address"
        }
      ],
      "stateMutability": "nonpayable",
      "type": "constructor"
    },
    {
      "anonymous": false,
      "inputs": [
        {
          "indexed": true,
          "internalType": "uint256",
          "name": "_projectId",
          "type": "uint256"
        },
        {
          "indexed": true,
          "internalType": "uint256",
          "name": "_pricePerTokenInWei",
          "type": "uint256"
        }
      ],
      "name": "PricePerTokenInWeiUpdated",
      "type": "event"
    },
    {
      "anonymous": false,
      "inputs": [
        {
          "indexed": true,
          "internalType": "uint256",
          "name": "_projectId",
          "type": "uint256"
        },
        {
          "indexed": true,
          "internalType": "string",
          "name": "_currencySymbol",
          "type": "string"
        },
        {
          "indexed": true,
          "internalType": "address",
          "name": "_currencyAddress",
          "type": "address"
        }
      ],
      "name": "ProjectCurrencyInfoUpdated",
      "type": "event"
    },
    {
      "anonymous": false,
      "inputs": [
        {
          "indexed": true,
          "internalType": "uint256",
          "name": "_projectId",
          "type": "uint256"
        },
        {
          "indexed": false,
          "internalType": "bool",
          "name": "_purchaseToDisabled",
          "type": "bool"
        }
      ],
      "name": "PurchaseToDisabledUpdated",
      "type": "event"
    },
    {
      "inputs": [],
      "name": "artblocksContract",
      "outputs": [
        {
          "internalType": "contract IGenArt721CoreContract",
          "name": "",
          "type": "address"
        }
      ],
      "stateMutability": "view",
      "type": "function"
    },
    {
      "inputs": [
        {
          "internalType": "uint256",
          "name": "",
          "type": "uint256"
        }
      ],
      "name": "contractMintable",
      "outputs": [
        {
          "internalType": "bool",
          "name": "",
          "type": "bool"
        }
      ],
      "stateMutability": "view",
      "type": "function"
    },
    {
      "inputs": [
        {
          "internalType": "uint256",
          "name": "_projectId",
          "type": "uint256"
        }
      ],
      "name": "getPriceInfo",
      "outputs": [
        {
          "internalType": "bool",
          "name": "isConfigured",
          "type": "bool"
        },
        {
          "internalType": "uint256",
          "name": "tokenPriceInWei",
          "type": "uint256"
        },
        {
          "internalType": "string",
          "name": "currencySymbol",
          "type": "string"
        },
        {
          "internalType": "address",
          "name": "currencyAddress",
          "type": "address"
        }
      ],
      "stateMutability": "view",
      "type": "function"
    },
    {
      "inputs": [],
      "name": "minterFilter",
      "outputs": [
        {
          "internalType": "contract IMinterFilter",
          "name": "",
          "type": "address"
        }
      ],
      "stateMutability": "view",
      "type": "function"
    },
    {
      "inputs": [],
      "name": "minterType",
      "outputs": [
        {
          "internalType": "string",
          "name": "",
          "type": "string"
        }
      ],
      "stateMutability": "view",
      "type": "function"
    },
    {
      "inputs": [
        {
          "internalType": "uint256",
          "name": "",
          "type": "uint256"
        }
      ],
      "name": "projectMaxHasBeenInvoked",
      "outputs": [
        {
          "internalType": "bool",
          "name": "",
          "type": "bool"
        }
      ],
      "stateMutability": "view",
      "type": "function"
    },
    {
      "inputs": [
        {
          "internalType": "uint256",
          "name": "",
          "type": "uint256"
        }
      ],
      "name": "projectMaxInvocations",
      "outputs": [
        {
          "internalType": "uint256",
          "name": "",
          "type": "uint256"
        }
      ],
      "stateMutability": "view",
      "type": "function"
    },
    {
      "inputs": [
        {
          "internalType": "address",
          "name": "",
          "type": "address"
        },
        {
          "internalType": "uint256",
          "name": "",
          "type": "uint256"
        }
      ],
      "name": "projectMintCounter",
      "outputs": [
        {
          "internalType": "uint256",
          "name": "",
          "type": "uint256"
        }
      ],
      "stateMutability": "view",
      "type": "function"
    },
    {
      "inputs": [
        {
          "internalType": "uint256",
          "name": "",
          "type": "uint256"
        }
      ],
      "name": "projectMintLimit",
      "outputs": [
        {
          "internalType": "uint256",
          "name": "",
          "type": "uint256"
        }
      ],
      "stateMutability": "view",
      "type": "function"
    },
    {
      "inputs": [
        {
          "internalType": "uint256",
          "name": "_projectId",
          "type": "uint256"
        }
      ],
      "name": "purchase",
      "outputs": [
        {
          "internalType": "uint256",
          "name": "tokenId",
          "type": "uint256"
        }
      ],
      "stateMutability": "payable",
      "type": "function"
    },
    {
      "inputs": [
        {
          "internalType": "address",
          "name": "_to",
          "type": "address"
        },
        {
          "internalType": "uint256",
          "name": "_projectId",
          "type": "uint256"
        }
      ],
      "name": "purchaseTo",
      "outputs": [
        {
          "internalType": "uint256",
          "name": "tokenId",
          "type": "uint256"
        }
      ],
      "stateMutability": "payable",
      "type": "function"
    },
    {
      "inputs": [
        {
          "internalType": "uint256",
          "name": "",
          "type": "uint256"
        }
      ],
      "name": "purchaseToDisabled",
      "outputs": [
        {
          "internalType": "bool",
          "name": "",
          "type": "bool"
        }
      ],
      "stateMutability": "view",
      "type": "function"
    },
    {
      "inputs": [
        {
          "internalType": "uint256",
          "name": "_projectId",
          "type": "uint256"
        }
      ],
      "name": "setProjectMaxInvocations",
      "outputs": [],
      "stateMutability": "nonpayable",
      "type": "function"
    },
    {
      "inputs": [
        {
          "internalType": "uint256",
          "name": "_projectId",
          "type": "uint256"
        },
        {
          "internalType": "uint8",
          "name": "_limit",
          "type": "uint8"
        }
      ],
      "name": "setProjectMintLimit",
      "outputs": [],
      "stateMutability": "nonpayable",
      "type": "function"
    },
    {
      "inputs": [
        {
          "internalType": "uint256",
          "name": "_projectId",
          "type": "uint256"
        }
      ],
      "name": "toggleContractMintable",
      "outputs": [],
      "stateMutability": "nonpayable",
      "type": "function"
    },
    {
      "inputs": [
        {
          "internalType": "uint256",
          "name": "_projectId",
          "type": "uint256"
        }
      ],
      "name": "togglePurchaseToDisabled",
      "outputs": [],
      "stateMutability": "nonpayable",
      "type": "function"
    },
    {
      "inputs": [
        {
          "internalType": "uint256",
          "name": "_projectId",
          "type": "uint256"
        },
        {
          "internalType": "uint256",
          "name": "_pricePerTokenInWei",
          "type": "uint256"
        }
      ],
      "name": "updatePricePerTokenInWei",
      "outputs": [],
      "stateMutability": "nonpayable",
      "type": "function"
    }
  ],
  "bytecode": "0x60806040523480156200001157600080fd5b50604051620016ea380380620016ea833981016040819052620000349162000156565b600080546001600160a01b03199081166001600160a01b0385811691821784556001805490931690851690811790925560408051630dcd404b60e01b815290519193630dcd404b926004808401936020939083900390910190829087803b1580156200009f57600080fd5b505af1158015620000b4573d6000803e3d6000fd5b505050506040513d601f19601f82011682018060405250810190620000da919062000195565b6001600160a01b031614620001355760405162461bcd60e51b815260206004820152601860248201527f496c6c6567616c20636f6e74726163742070616972696e670000000000000000604482015260640160405180910390fd5b5050620001bc565b6001600160a01b03811681146200015357600080fd5b50565b600080604083850312156200016a57600080fd5b825162000177816200013d565b60208401519092506200018a816200013d565b809150509250929050565b600060208284031215620001a857600080fd5b8151620001b5816200013d565b9392505050565b61151e80620001cc6000396000f3fe6080604052600436106100de5760003560e01c80636cb9b7ff116100855780636cb9b7ff1461025b578063774159c61461027b578063891407c0146102e4578063acffea05146102f7578063bee5600314610317578063cfff5cf114610347578063e9d1e8ac14610377578063efef39a1146103cd578063f7bd4b88146103e057600080fd5b806308d94188146100e35780630dcd404b14610119578063231c2281146101395780633a4657b41461015b57806340d1397e146101a1578063462add46146101c157806356690aaf1461020157806362f7a7ed1461022e575b600080fd5b3480156100ef57600080fd5b50600154610103906001600160a01b031681565b60405161011091906110f7565b60405180910390f35b34801561012557600080fd5b50600054610103906001600160a01b031681565b34801561014557600080fd5b5061015961015436600461110b565b610400565b005b34801561016757600080fd5b50610193610176366004611156565b600460209081526000928352604080842090915290825290205481565b604051908152602001610110565b3480156101ad57600080fd5b506101596101bc366004611182565b6104bd565b3480156101cd57600080fd5b506101f16101dc366004611182565b60066020526000908152604090205460ff1681565b6040519015158152602001610110565b34801561020d57600080fd5b5061019361021c366004611182565b60076020526000908152604090205481565b34801561023a57600080fd5b50610193610249366004611182565b60056020526000908152604090205481565b34801561026757600080fd5b5061015961027636600461119b565b6105b6565b34801561028757600080fd5b506102d4610296366004611182565b60009081526009602090815260408083205460088352818420548251808401909352600383526208aa8960eb1b9383019390935260ff169391929091565b6040516101109493929190611219565b6101936102f2366004611156565b6106d5565b34801561030357600080fd5b50610159610312366004611182565b610a60565b34801561032357600080fd5b506101f1610332366004611182565b60026020526000908152604090205460ff1681565b34801561035357600080fd5b506101f1610362366004611182565b60036020526000908152604090205460ff1681565b34801561038357600080fd5b506103c06040518060400160405280601a81526020017f47656e41727437323146696c74657265644d696e74657245544800000000000081525081565b6040516101109190611253565b6101936103db366004611182565b610b1c565b3480156103ec57600080fd5b506101596103fb366004611182565b610b28565b600054604051633af32abf60e01b81526001600160a01b0390911690633af32abf906104309033906004016110f7565b60206040518083038186803b15801561044857600080fd5b505afa15801561045c573d6000803e3d6000fd5b505050506040513d601f19601f820116820180604052508101906104809190611282565b6104a55760405162461bcd60e51b815260040161049c9061129d565b60405180910390fd5b60009182526005602052604090912060ff9091169055565b600054604051633af32abf60e01b81526001600160a01b0390911690633af32abf906104ed9033906004016110f7565b60206040518083038186803b15801561050557600080fd5b505afa158015610519573d6000803e3d6000fd5b505050506040513d601f19601f8201168201806040525081019061053d9190611282565b6105595760405162461bcd60e51b815260040161049c9061129d565b600081815260036020908152604091829020805460ff8082161560ff199092168217909255925192161515825282917fce8ced1e9d6979c7589d3c8786f4d51a8034faa5ff2cbc5a2271364f787feccb910160405180910390a250565b60005460405163a47d29cb60e01b81526004810184905283916001600160a01b03169063a47d29cb9060240160206040518083038186803b1580156105fa57600080fd5b505afa15801561060e573d6000803e3d6000fd5b505050506040513d601f19601f8201168201806040525081019061063291906112cc565b6001600160a01b0316336001600160a01b0316146106805760405162461bcd60e51b815260206004820152600b60248201526a13db9b1e48105c9d1a5cdd60aa1b604482015260640161049c565b60008381526008602090815260408083208590556009909152808220805460ff1916600117905551839185917f26118a27aca826f829f3bfe21b140b4455c00b434849bd0da50d1e1a9720fb5c9190a3505050565b60008181526006602052604081205460ff16156107425760405162461bcd60e51b815260206004820152602560248201527f4d6178696d756d206e756d626572206f6620696e766f636174696f6e732072656044820152641858da195960da1b606482015260840161049c565b60008281526009602052604090205460ff166107975760405162461bcd60e51b8152602060048201526014602482015273141c9a58d9481b9bdd0818dbdb999a59dd5c995960621b604482015260640161049c565b60008281526002602052604090205460ff166107ef573332146107ef5760405162461bcd60e51b815260206004820152601060248201526f4e6f20436f6e7472616374204275797360801b604482015260640161049c565b60008281526003602052604090205460ff161561085857336001600160a01b038416146108585760405162461bcd60e51b8152602060048201526017602482015276139bc8181c1d5c98da185cd9551bd808105b1b1bddd959604a1b604482015260640161049c565b60008281526005602052604090205415610903576000828152600560209081526040808320543384526004835281842086855290925290912054106108d75760405162461bcd60e51b815260206004820152601560248201527414995858da1959081b5a5b9d1a5b99c81b1a5b5a5d605a1b604482015260640161049c565b33600090815260046020908152604080832085845290915281208054916108fd836112ff565b91905055505b6000828152600860205260409020543410156109615760405162461bcd60e51b815260206004820181905260248201527f4d7573742073656e64206d696e696d756d2076616c756520746f206d696e7421604482015260640161049c565b61096a82610c87565b600154604051630d4d151360e01b81526001600160a01b0385811660048301526024820185905233604483015290911690630d4d151390606401602060405180830381600087803b1580156109be57600080fd5b505af11580156109d2573d6000803e3d6000fd5b505050506040513d601f19601f820116820180604052508101906109f6919061131a565b60008381526007602052604090205490915015801590610a3b5750600082815260076020526040902054610a2c90600190611333565b610a39620f424083611360565b145b15610a5a576000828152600660205260409020805460ff191660011790555b92915050565b600054604051633af32abf60e01b81526001600160a01b0390911690633af32abf90610a909033906004016110f7565b60206040518083038186803b158015610aa857600080fd5b505afa158015610abc573d6000803e3d6000fd5b505050506040513d601f19601f82011682018060405250810190610ae09190611282565b610afc5760405162461bcd60e51b815260040161049c9061129d565b6000908152600260205260409020805460ff19811660ff90911615179055565b6000610a5a33836106d5565b600054604051633af32abf60e01b81526001600160a01b0390911690633af32abf90610b589033906004016110f7565b60206040518083038186803b158015610b7057600080fd5b505afa158015610b84573d6000803e3d6000fd5b505050506040513d601f19601f82011682018060405250810190610ba89190611282565b610bc45760405162461bcd60e51b815260040161049c9061129d565b600080546040516346161b1160e11b81526004810184905282916001600160a01b031690638c2c36229060240160006040518083038186803b158015610c0957600080fd5b505afa158015610c1d573d6000803e3d6000fd5b505050506040513d6000823e601f3d908101601f19168201604052610c459190810190611395565b50505060008981526007602052604090208390555090955090935050505081811015610c82576000838152600660205260409020805460ff191690555b505050565b34156110f45760008181526008602052604081205490610ca78234611333565b90508015610cde57604051339082156108fc029083906000818181858888f19350505050158015610cdc573d6000803e3d6000fd5b505b60008060009054906101000a90046001600160a01b03166001600160a01b0316634f029c396040518163ffffffff1660e01b815260040160206040518083038186803b158015610d2d57600080fd5b505afa158015610d41573d6000803e3d6000fd5b505050506040513d601f19601f82011682018060405250810190610d65919061131a565b610d706064856114b5565b610d7a91906114c9565b90508015610e405760008054906101000a90046001600160a01b03166001600160a01b0316633949f9066040518163ffffffff1660e01b815260040160206040518083038186803b158015610dce57600080fd5b505afa158015610de2573d6000803e3d6000fd5b505050506040513d601f19601f82011682018060405250810190610e0691906112cc565b6001600160a01b03166108fc829081150290604051600060405180830381858888f19350505050158015610e3e573d6000803e3d6000fd5b505b6000610e4c8285611333565b6000805460405163cc74234b60e01b815260048101899052929350909182916001600160a01b03169063cc74234b9060240160206040518083038186803b158015610e9657600080fd5b505afa158015610eaa573d6000803e3d6000fd5b505050506040513d601f19601f82011682018060405250810190610ece919061131a565b11156110235760005460405163cc74234b60e01b8152600481018890526001600160a01b039091169063cc74234b9060240160206040518083038186803b158015610f1857600080fd5b505afa158015610f2c573d6000803e3d6000fd5b505050506040513d601f19601f82011682018060405250810190610f50919061131a565b610f5b6064846114b5565b610f6591906114c9565b9050801561102357600054604051636bd8225b60e11b8152600481018890526001600160a01b039091169063d7b044b69060240160206040518083038186803b158015610fb157600080fd5b505afa158015610fc5573d6000803e3d6000fd5b505050506040513d601f19601f82011682018060405250810190610fe991906112cc565b6001600160a01b03166108fc829081150290604051600060405180830381858888f19350505050158015611021573d6000803e3d6000fd5b505b600061102f8284611333565b905080156110ed5760005460405163a47d29cb60e01b8152600481018990526001600160a01b039091169063a47d29cb9060240160206040518083038186803b15801561107b57600080fd5b505afa15801561108f573d6000803e3d6000fd5b505050506040513d601f19601f820116820180604052508101906110b391906112cc565b6001600160a01b03166108fc829081150290604051600060405180830381858888f193505050501580156110eb573d6000803e3d6000fd5b505b5050505050505b50565b6001600160a01b0391909116815260200190565b6000806040838503121561111e57600080fd5b82359150602083013560ff8116811461113657600080fd5b809150509250929050565b6001600160a01b03811681146110f457600080fd5b6000806040838503121561116957600080fd5b823561117481611141565b946020939093013593505050565b60006020828403121561119457600080fd5b5035919050565b600080604083850312156111ae57600080fd5b50508035926020909101359150565b60005b838110156111d85781810151838201526020016111c0565b838111156111e7576000848401525b50505050565b600081518084526112058160208601602086016111bd565b601f01601f19169290920160200192915050565b841515815283602082015260806040820152600061123a60808301856111ed565b905060018060a01b038316606083015295945050505050565b60208152600061126660208301846111ed565b9392505050565b8051801515811461127d57600080fd5b919050565b60006020828403121561129457600080fd5b6112668261126d565b60208082526015908201527413db9b1e4810dbdc99481dda1a5d195b1a5cdd1959605a1b604082015260600190565b6000602082840312156112de57600080fd5b815161126681611141565b634e487b7160e01b600052601160045260246000fd5b6000600019821415611313576113136112e9565b5060010190565b60006020828403121561132c57600080fd5b5051919050565b600082821015611345576113456112e9565b500390565b634e487b7160e01b600052601260045260246000fd5b60008261136f5761136f61134a565b500690565b805161127d81611141565b634e487b7160e01b600052604160045260246000fd5b60008060008060008060008060006101208a8c0312156113b457600080fd5b89516113bf81611141565b8099505060208a0151975060408a0151965060608a015195506113e460808b0161126d565b945060a08a01516113f481611141565b60c08b015160e08c0151919550935067ffffffffffffffff8082111561141957600080fd5b818c0191508c601f83011261142d57600080fd5b81518181111561143f5761143f61137f565b604051601f8201601f19908116603f011681019083821181831017156114675761146761137f565b816040528281528f602084870101111561148057600080fd5b6114918360208301602088016111bd565b80965050505050506114a66101008b01611374565b90509295985092959850929598565b6000826114c4576114c461134a565b500490565b60008160001904831182151516156114e3576114e36112e9565b50029056fea2646970667358221220ed4f9ec3f5d1c1d674413fa59c892a2c10f7c1d5e4ae1252f76f322a8514298964736f6c63430008090033",
  "linkReferences": {},
  "deployedLinkReferences": {}
}