{
  "_format": "hh-sol-artifact-1",
  "contractName": "GenArt721FilteredMinter",
  "sourceName": "contracts/minter-suite/GenArt721FilteredMinter.sol",
  "abi": [
    {
      "inputs": [
        {
          "internalType": "address",
          "name": "_genArt721Address",
          "type": "address"
        },
        {
          "internalType": "address",
          "name": "_minterFilter",
          "type": "address"
        }
      ],
      "stateMutability": "nonpayable",
      "type": "constructor"
    },
    {
      "anonymous": false,
      "inputs": [
        {
          "indexed": true,
          "internalType": "uint256",
          "name": "_projectId",
          "type": "uint256"
        },
        {
          "indexed": true,
          "internalType": "uint256",
          "name": "_pricePerTokenInWei",
          "type": "uint256"
        }
      ],
      "name": "PricePerTokenInWeiUpdated",
      "type": "event"
    },
    {
      "anonymous": false,
      "inputs": [
        {
          "indexed": true,
          "internalType": "uint256",
          "name": "_projectId",
          "type": "uint256"
        },
        {
          "indexed": true,
          "internalType": "string",
          "name": "_currencySymbol",
          "type": "string"
        },
        {
          "indexed": true,
          "internalType": "address",
          "name": "_currencyAddress",
          "type": "address"
        }
      ],
      "name": "ProjectCurrencyInfoUpdated",
      "type": "event"
    },
    {
      "anonymous": false,
      "inputs": [
        {
          "indexed": true,
          "internalType": "uint256",
          "name": "_projectId",
          "type": "uint256"
        },
        {
          "indexed": false,
          "internalType": "bool",
          "name": "_purchaseToDisabled",
          "type": "bool"
        }
      ],
      "name": "PurchaseToDisabledUpdated",
      "type": "event"
    },
    {
      "inputs": [],
      "name": "artblocksContract",
      "outputs": [
        {
          "internalType": "contract IGenArt721CoreContract",
          "name": "",
          "type": "address"
        }
      ],
      "stateMutability": "view",
      "type": "function"
    },
    {
      "inputs": [
        {
          "internalType": "uint256",
          "name": "_projectId",
          "type": "uint256"
        }
      ],
      "name": "checkYourAllowanceOfProjectERC20",
      "outputs": [
        {
          "internalType": "uint256",
          "name": "remaining",
          "type": "uint256"
        }
      ],
      "stateMutability": "view",
      "type": "function"
    },
    {
      "inputs": [
        {
          "internalType": "uint256",
          "name": "",
          "type": "uint256"
        }
      ],
      "name": "contractMintable",
      "outputs": [
        {
          "internalType": "bool",
          "name": "",
          "type": "bool"
        }
      ],
      "stateMutability": "view",
      "type": "function"
    },
    {
      "inputs": [
        {
          "internalType": "uint256",
          "name": "_projectId",
          "type": "uint256"
        }
      ],
      "name": "getPriceInfo",
      "outputs": [
        {
          "internalType": "bool",
          "name": "isConfigured",
          "type": "bool"
        },
        {
          "internalType": "uint256",
          "name": "tokenPriceInWei",
          "type": "uint256"
        },
        {
          "internalType": "string",
          "name": "currencySymbol",
          "type": "string"
        },
        {
          "internalType": "address",
          "name": "currencyAddress",
          "type": "address"
        }
      ],
      "stateMutability": "view",
      "type": "function"
    },
    {
      "inputs": [
        {
          "internalType": "uint256",
          "name": "_projectId",
          "type": "uint256"
        }
      ],
      "name": "getYourBalanceOfProjectERC20",
      "outputs": [
        {
          "internalType": "uint256",
          "name": "balance",
          "type": "uint256"
        }
      ],
      "stateMutability": "view",
      "type": "function"
    },
    {
      "inputs": [],
      "name": "minterFilter",
      "outputs": [
        {
          "internalType": "contract IMinterFilter",
          "name": "",
          "type": "address"
        }
      ],
      "stateMutability": "view",
      "type": "function"
    },
    {
      "inputs": [],
      "name": "minterType",
      "outputs": [
        {
          "internalType": "string",
          "name": "",
          "type": "string"
        }
      ],
      "stateMutability": "view",
      "type": "function"
    },
    {
      "inputs": [
        {
          "internalType": "uint256",
          "name": "",
          "type": "uint256"
        }
      ],
      "name": "projectMaxHasBeenInvoked",
      "outputs": [
        {
          "internalType": "bool",
          "name": "",
          "type": "bool"
        }
      ],
      "stateMutability": "view",
      "type": "function"
    },
    {
      "inputs": [
        {
          "internalType": "uint256",
          "name": "",
          "type": "uint256"
        }
      ],
      "name": "projectMaxInvocations",
      "outputs": [
        {
          "internalType": "uint256",
          "name": "",
          "type": "uint256"
        }
      ],
      "stateMutability": "view",
      "type": "function"
    },
    {
      "inputs": [
        {
          "internalType": "address",
          "name": "",
          "type": "address"
        },
        {
          "internalType": "uint256",
          "name": "",
          "type": "uint256"
        }
      ],
      "name": "projectMintCounter",
      "outputs": [
        {
          "internalType": "uint256",
          "name": "",
          "type": "uint256"
        }
      ],
      "stateMutability": "view",
      "type": "function"
    },
    {
      "inputs": [
        {
          "internalType": "uint256",
          "name": "",
          "type": "uint256"
        }
      ],
      "name": "projectMintLimit",
      "outputs": [
        {
          "internalType": "uint256",
          "name": "",
          "type": "uint256"
        }
      ],
      "stateMutability": "view",
      "type": "function"
    },
    {
      "inputs": [
        {
          "internalType": "uint256",
          "name": "_projectId",
          "type": "uint256"
        }
      ],
      "name": "purchase",
      "outputs": [
        {
          "internalType": "uint256",
          "name": "tokenId",
          "type": "uint256"
        }
      ],
      "stateMutability": "payable",
      "type": "function"
    },
    {
      "inputs": [
        {
          "internalType": "address",
          "name": "_to",
          "type": "address"
        },
        {
          "internalType": "uint256",
          "name": "_projectId",
          "type": "uint256"
        }
      ],
      "name": "purchaseTo",
      "outputs": [
        {
          "internalType": "uint256",
          "name": "tokenId",
          "type": "uint256"
        }
      ],
      "stateMutability": "payable",
      "type": "function"
    },
    {
      "inputs": [
        {
          "internalType": "uint256",
          "name": "",
          "type": "uint256"
        }
      ],
      "name": "purchaseToDisabled",
      "outputs": [
        {
          "internalType": "bool",
          "name": "",
          "type": "bool"
        }
      ],
      "stateMutability": "view",
      "type": "function"
    },
    {
      "inputs": [
        {
          "internalType": "uint256",
          "name": "_projectId",
          "type": "uint256"
        }
      ],
      "name": "setProjectMaxInvocations",
      "outputs": [],
      "stateMutability": "nonpayable",
      "type": "function"
    },
    {
      "inputs": [
        {
          "internalType": "uint256",
          "name": "_projectId",
          "type": "uint256"
        },
        {
          "internalType": "uint8",
          "name": "_limit",
          "type": "uint8"
        }
      ],
      "name": "setProjectMintLimit",
      "outputs": [],
      "stateMutability": "nonpayable",
      "type": "function"
    },
    {
      "inputs": [
        {
          "internalType": "uint256",
          "name": "_projectId",
          "type": "uint256"
        }
      ],
      "name": "toggleContractMintable",
      "outputs": [],
      "stateMutability": "nonpayable",
      "type": "function"
    },
    {
      "inputs": [
        {
          "internalType": "uint256",
          "name": "_projectId",
          "type": "uint256"
        }
      ],
      "name": "togglePurchaseToDisabled",
      "outputs": [],
      "stateMutability": "nonpayable",
      "type": "function"
    },
    {
      "inputs": [
        {
          "internalType": "uint256",
          "name": "_projectId",
          "type": "uint256"
        },
        {
          "internalType": "uint256",
          "name": "_pricePerTokenInWei",
          "type": "uint256"
        }
      ],
      "name": "updatePricePerTokenInWei",
      "outputs": [],
      "stateMutability": "nonpayable",
      "type": "function"
    },
    {
      "inputs": [
        {
          "internalType": "uint256",
          "name": "_projectId",
          "type": "uint256"
        },
        {
          "internalType": "string",
          "name": "_currencySymbol",
          "type": "string"
        },
        {
          "internalType": "address",
          "name": "_currencyAddress",
          "type": "address"
        }
      ],
      "name": "updateProjectCurrencyInfo",
      "outputs": [],
      "stateMutability": "nonpayable",
      "type": "function"
    }
  ],
  "bytecode": "0x60806040523480156200001157600080fd5b506040516200244938038062002449833981016040819052620000349162000156565b600080546001600160a01b03199081166001600160a01b0385811691821784556001805490931690851690811790925560408051630dcd404b60e01b815290519193630dcd404b926004808401936020939083900390910190829087803b1580156200009f57600080fd5b505af1158015620000b4573d6000803e3d6000fd5b505050506040513d601f19601f82011682018060405250810190620000da919062000195565b6001600160a01b031614620001355760405162461bcd60e51b815260206004820152601860248201527f496c6c6567616c20636f6e74726163742070616972696e670000000000000000604482015260640160405180910390fd5b5050620001bc565b6001600160a01b03811681146200015357600080fd5b50565b600080604083850312156200016a57600080fd5b825162000177816200013d565b60208401519092506200018a816200013d565b809150509250929050565b600060208284031215620001a857600080fd5b8151620001b5816200013d565b9392505050565b61227d80620001cc6000396000f3fe60806040526004361061011f5760003560e01c8063891407c0116100a0578063d195b36511610064578063d195b3651461039f578063e9d1e8ac146103bf578063efef39a11461040f578063f463210314610422578063f7bd4b881461044257600080fd5b8063891407c0146102ec578063a9809600146102ff578063acffea051461031f578063bee560031461033f578063cfff5cf11461036f57600080fd5b8063462add46116100e7578063462add461461020257806356690aaf1461024257806362f7a7ed1461026f5780636cb9b7ff1461029c578063774159c6146102bc57600080fd5b806308d94188146101245780630dcd404b1461015a578063231c22811461017a5780633a4657b41461019c57806340d1397e146101e2575b600080fd5b34801561013057600080fd5b50600154610144906001600160a01b031681565b6040516101519190611cf6565b60405180910390f35b34801561016657600080fd5b50600054610144906001600160a01b031681565b34801561018657600080fd5b5061019a610195366004611d0a565b610462565b005b3480156101a857600080fd5b506101d46101b7366004611d55565b600460209081526000928352604080842090915290825290205481565b604051908152602001610151565b3480156101ee57600080fd5b5061019a6101fd366004611d81565b61051f565b34801561020e57600080fd5b5061023261021d366004611d81565b60066020526000908152604090205460ff1681565b6040519015158152602001610151565b34801561024e57600080fd5b506101d461025d366004611d81565b60076020526000908152604090205481565b34801561027b57600080fd5b506101d461028a366004611d81565b60056020526000908152604090205481565b3480156102a857600080fd5b5061019a6102b7366004611d9a565b610618565b3480156102c857600080fd5b506102dc6102d7366004611d81565b610719565b6040516101519493929190611e18565b6101d46102fa366004611d55565b610816565b34801561030b57600080fd5b506101d461031a366004611d81565b610e10565b34801561032b57600080fd5b5061019a61033a366004611d81565b610e9c565b34801561034b57600080fd5b5061023261035a366004611d81565b60026020526000908152604090205460ff1681565b34801561037b57600080fd5b5061023261038a366004611d81565b60036020526000908152604090205460ff1681565b3480156103ab57600080fd5b5061019a6103ba366004611ec1565b610f58565b3480156103cb57600080fd5b506104026040518060400160405280601781526020017623b2b720b93a1b9918a334b63a32b932b226b4b73a32b960491b81525081565b6040516101519190611f5f565b6101d461041d366004611d81565b61113b565b34801561042e57600080fd5b506101d461043d366004611d81565b611147565b34801561044e57600080fd5b5061019a61045d366004611d81565b611189565b600054604051633af32abf60e01b81526001600160a01b0390911690633af32abf90610492903390600401611cf6565b60206040518083038186803b1580156104aa57600080fd5b505afa1580156104be573d6000803e3d6000fd5b505050506040513d601f19601f820116820180604052508101906104e29190611f8e565b6105075760405162461bcd60e51b81526004016104fe90611fa9565b60405180910390fd5b60009182526005602052604090912060ff9091169055565b600054604051633af32abf60e01b81526001600160a01b0390911690633af32abf9061054f903390600401611cf6565b60206040518083038186803b15801561056757600080fd5b505afa15801561057b573d6000803e3d6000fd5b505050506040513d601f19601f8201168201806040525081019061059f9190611f8e565b6105bb5760405162461bcd60e51b81526004016104fe90611fa9565b600081815260036020908152604091829020805460ff8082161560ff199092168217909255925192161515825282917fce8ced1e9d6979c7589d3c8786f4d51a8034faa5ff2cbc5a2271364f787feccb910160405180910390a250565b60005460405163a47d29cb60e01b81526004810184905283916001600160a01b03169063a47d29cb9060240160206040518083038186803b15801561065c57600080fd5b505afa158015610670573d6000803e3d6000fd5b505050506040513d601f19601f820116820180604052508101906106949190611fd8565b6001600160a01b0316336001600160a01b0316146106c45760405162461bcd60e51b81526004016104fe90611ff5565b60008381526008602090815260408083208590556009909152808220805460ff1916600117905551839185917f26118a27aca826f829f3bfe21b140b4455c00b434849bd0da50d1e1a9720fb5c9190a3505050565b6000818152600960209081526040808320546008835281842054600b90935292205460ff909216916060906001600160a01b031680610775576040518060400160405280600381526020016208aa8960eb1b815250915061080f565b6000858152600a60205260409020805461078e9061201a565b80601f01602080910402602001604051908101604052809291908181526020018280546107ba9061201a565b80156108075780601f106107dc57610100808354040283529160200191610807565b820191906000526020600020905b8154815290600101906020018083116107ea57829003601f168201915b505050505091505b9193509193565b60008181526006602052604081205460ff16156108835760405162461bcd60e51b815260206004820152602560248201527f4d6178696d756d206e756d626572206f6620696e766f636174696f6e732072656044820152641858da195960da1b60648201526084016104fe565b60008281526009602052604090205460ff166108d85760405162461bcd60e51b8152602060048201526014602482015273141c9a58d9481b9bdd0818dbdb999a59dd5c995960621b60448201526064016104fe565b60008281526002602052604090205460ff16610930573332146109305760405162461bcd60e51b815260206004820152601060248201526f4e6f20436f6e7472616374204275797360801b60448201526064016104fe565b60008281526003602052604090205460ff161561099957336001600160a01b038416146109995760405162461bcd60e51b8152602060048201526017602482015276139bc8181c1d5c98da185cd9551bd808105b1b1bddd959604a1b60448201526064016104fe565b60008281526005602052604090205415610a4457600082815260056020908152604080832054338452600483528184208685529092529091205410610a185760405162461bcd60e51b815260206004820152601560248201527414995858da1959081b5a5b9d1a5b99c81b1a5b5a5d605a1b60448201526064016104fe565b3360009081526004602090815260408083208584529091528120805491610a3e8361206b565b91905055505b6000828152600b60205260409020546001600160a01b031615610cb3573415610ad55760405162461bcd60e51b815260206004820152603f60248201527f746869732070726f6a6563742061636365707473206120646966666572656e7460448201527f2063757272656e637920616e642063616e6e6f7420616363657074204554480060648201526084016104fe565b600082815260086020908152604080832054600b90925291829020549151636eb1769f60e11b815233600482015230602482015290916001600160a01b03169063dd62ed3e9060440160206040518083038186803b158015610b3657600080fd5b505afa158015610b4a573d6000803e3d6000fd5b505050506040513d601f19601f82011682018060405250810190610b6e9190612086565b1015610bc75760405162461bcd60e51b815260206004820152602260248201527f496e73756666696369656e742046756e647320417070726f76656420666f72206044820152610a8b60f31b60648201526084016104fe565b600082815260086020908152604080832054600b909252918290205491516370a0823160e01b815290916001600160a01b0316906370a0823190610c0f903390600401611cf6565b60206040518083038186803b158015610c2757600080fd5b505afa158015610c3b573d6000803e3d6000fd5b505050506040513d601f19601f82011682018060405250810190610c5f9190612086565b1015610ca55760405162461bcd60e51b815260206004820152601560248201527424b739bab33334b1b4b2b73a103130b630b731b29760591b60448201526064016104fe565b610cae826112e8565b610d1a565b600082815260086020526040902054341015610d115760405162461bcd60e51b815260206004820181905260248201527f4d7573742073656e64206d696e696d756d2076616c756520746f206d696e742160448201526064016104fe565b610d1a826117ee565b600154604051630d4d151360e01b81526001600160a01b0385811660048301526024820185905233604483015290911690630d4d151390606401602060405180830381600087803b158015610d6e57600080fd5b505af1158015610d82573d6000803e3d6000fd5b505050506040513d601f19601f82011682018060405250810190610da69190612086565b60008381526007602052604090205490915015801590610deb5750600082815260076020526040902054610ddc9060019061209f565b610de9620f4240836120cc565b145b15610e0a576000828152600660205260409020805460ff191660011790555b92915050565b6000818152600b60205260408082205490516370a0823160e01b81526001600160a01b03909116906370a0823190610e4c903390600401611cf6565b60206040518083038186803b158015610e6457600080fd5b505afa158015610e78573d6000803e3d6000fd5b505050506040513d601f19601f82011682018060405250810190610e0a9190612086565b600054604051633af32abf60e01b81526001600160a01b0390911690633af32abf90610ecc903390600401611cf6565b60206040518083038186803b158015610ee457600080fd5b505afa158015610ef8573d6000803e3d6000fd5b505050506040513d601f19601f82011682018060405250810190610f1c9190611f8e565b610f385760405162461bcd60e51b81526004016104fe90611fa9565b6000908152600260205260409020805460ff19811660ff90911615179055565b60005460405163a47d29cb60e01b81526004810185905284916001600160a01b03169063a47d29cb9060240160206040518083038186803b158015610f9c57600080fd5b505afa158015610fb0573d6000803e3d6000fd5b505050506040513d601f19601f82011682018060405250810190610fd49190611fd8565b6001600160a01b0316336001600160a01b0316146110045760405162461bcd60e51b81526004016104fe90611ff5565b6040516208aa8960eb1b60208201526001600160a01b0383161590602301604051602081830303815290604052805190602001208460405160200161104991906120e0565b60405160208183030381529060405280519060200120141515146110aa5760405162461bcd60e51b8152602060048201526018602482015277455448206973206f6e6c79206e756c6c206164647265737360401b60448201526064016104fe565b6000848152600a6020908152604090912084516110c992860190611c5d565b506000848152600b60205260409081902080546001600160a01b0319166001600160a01b03851690811790915590516111039085906120e0565b6040519081900381209086907f45db4ba77cdcb65bc1296f936b16fa61081a51fd8dd464ff4b014f47083c72ed90600090a450505050565b6000610e0a3383610816565b6000818152600b6020526040808220549051636eb1769f60e11b81523360048201523060248201526001600160a01b039091169063dd62ed3e90604401610e4c565b600054604051633af32abf60e01b81526001600160a01b0390911690633af32abf906111b9903390600401611cf6565b60206040518083038186803b1580156111d157600080fd5b505afa1580156111e5573d6000803e3d6000fd5b505050506040513d601f19601f820116820180604052508101906112099190611f8e565b6112255760405162461bcd60e51b81526004016104fe90611fa9565b600080546040516346161b1160e11b81526004810184905282916001600160a01b031690638c2c36229060240160006040518083038186803b15801561126a57600080fd5b505afa15801561127e573d6000803e3d6000fd5b505050506040513d6000823e601f3d908101601f191682016040526112a69190810190612107565b505050600089815260076020526040902083905550909550909350505050818110156112e3576000838152600660205260409020805460ff191690555b505050565b60008181526008602090815260408083205483548251634f029c3960e01b815292519194936001600160a01b0390911692634f029c399260048083019392829003018186803b15801561133a57600080fd5b505afa15801561134e573d6000803e3d6000fd5b505050506040513d601f19601f820116820180604052508101906113729190612086565b61137d6064846121f0565b6113879190612204565b90508015611495576000838152600b602090815260408083205492548151631ca4fc8360e11b815291516001600160a01b03948516946323b872dd9433949190931692633949f90692600480840193829003018186803b1580156113ea57600080fd5b505afa1580156113fe573d6000803e3d6000fd5b505050506040513d601f19601f820116820180604052508101906114229190611fd8565b846040518463ffffffff1660e01b815260040161144193929190612223565b602060405180830381600087803b15801561145b57600080fd5b505af115801561146f573d6000803e3d6000fd5b505050506040513d601f19601f820116820180604052508101906114939190611f8e565b505b60006114a1828461209f565b6000805460405163cc74234b60e01b815260048101889052929350909182916001600160a01b03169063cc74234b9060240160206040518083038186803b1580156114eb57600080fd5b505afa1580156114ff573d6000803e3d6000fd5b505050506040513d601f19601f820116820180604052508101906115239190612086565b11156116ca5760005460405163cc74234b60e01b8152600481018790526001600160a01b039091169063cc74234b9060240160206040518083038186803b15801561156d57600080fd5b505afa158015611581573d6000803e3d6000fd5b505050506040513d601f19601f820116820180604052508101906115a59190612086565b6115b06064846121f0565b6115ba9190612204565b905080156116ca576000858152600b60205260408082205491549051636bd8225b60e11b8152600481018890526001600160a01b03928316926323b872dd92339291169063d7b044b69060240160206040518083038186803b15801561161f57600080fd5b505afa158015611633573d6000803e3d6000fd5b505050506040513d601f19601f820116820180604052508101906116579190611fd8565b846040518463ffffffff1660e01b815260040161167693929190612223565b602060405180830381600087803b15801561169057600080fd5b505af11580156116a4573d6000803e3d6000fd5b505050506040513d601f19601f820116820180604052508101906116c89190611f8e565b505b60006116d6828461209f565b905080156117e6576000868152600b6020526040808220549154905163a47d29cb60e01b8152600481018990526001600160a01b03928316926323b872dd92339291169063a47d29cb9060240160206040518083038186803b15801561173b57600080fd5b505afa15801561174f573d6000803e3d6000fd5b505050506040513d601f19601f820116820180604052508101906117739190611fd8565b846040518463ffffffff1660e01b815260040161179293929190612223565b602060405180830381600087803b1580156117ac57600080fd5b505af11580156117c0573d6000803e3d6000fd5b505050506040513d601f19601f820116820180604052508101906117e49190611f8e565b505b505050505050565b3415611c5a576000818152600860205260408120549061180e823461209f565b9050801561184557604051339082156108fc029083906000818181858888f19350505050158015611843573d6000803e3d6000fd5b505b60008060009054906101000a90046001600160a01b03166001600160a01b0316634f029c396040518163ffffffff1660e01b815260040160206040518083038186803b15801561189457600080fd5b505afa1580156118a8573d6000803e3d6000fd5b505050506040513d601f19601f820116820180604052508101906118cc9190612086565b6118d76064856121f0565b6118e19190612204565b905080156119a75760008054906101000a90046001600160a01b03166001600160a01b0316633949f9066040518163ffffffff1660e01b815260040160206040518083038186803b15801561193557600080fd5b505afa158015611949573d6000803e3d6000fd5b505050506040513d601f19601f8201168201806040525081019061196d9190611fd8565b6001600160a01b03166108fc829081150290604051600060405180830381858888f193505050501580156119a5573d6000803e3d6000fd5b505b60006119b3828561209f565b6000805460405163cc74234b60e01b815260048101899052929350909182916001600160a01b03169063cc74234b9060240160206040518083038186803b1580156119fd57600080fd5b505afa158015611a11573d6000803e3d6000fd5b505050506040513d601f19601f82011682018060405250810190611a359190612086565b1115611b8a5760005460405163cc74234b60e01b8152600481018890526001600160a01b039091169063cc74234b9060240160206040518083038186803b158015611a7f57600080fd5b505afa158015611a93573d6000803e3d6000fd5b505050506040513d601f19601f82011682018060405250810190611ab79190612086565b611ac26064846121f0565b611acc9190612204565b90508015611b8a57600054604051636bd8225b60e11b8152600481018890526001600160a01b039091169063d7b044b69060240160206040518083038186803b158015611b1857600080fd5b505afa158015611b2c573d6000803e3d6000fd5b505050506040513d601f19601f82011682018060405250810190611b509190611fd8565b6001600160a01b03166108fc829081150290604051600060405180830381858888f19350505050158015611b88573d6000803e3d6000fd5b505b6000611b96828461209f565b905080156117e45760005460405163a47d29cb60e01b8152600481018990526001600160a01b039091169063a47d29cb9060240160206040518083038186803b158015611be257600080fd5b505afa158015611bf6573d6000803e3d6000fd5b505050506040513d601f19601f82011682018060405250810190611c1a9190611fd8565b6001600160a01b03166108fc829081150290604051600060405180830381858888f19350505050158015611c52573d6000803e3d6000fd5b505050505050505b50565b828054611c699061201a565b90600052602060002090601f016020900481019282611c8b5760008555611cd1565b82601f10611ca457805160ff1916838001178555611cd1565b82800160010185558215611cd1579182015b82811115611cd1578251825591602001919060010190611cb6565b50611cdd929150611ce1565b5090565b5b80821115611cdd5760008155600101611ce2565b6001600160a01b0391909116815260200190565b60008060408385031215611d1d57600080fd5b82359150602083013560ff81168114611d3557600080fd5b809150509250929050565b6001600160a01b0381168114611c5a57600080fd5b60008060408385031215611d6857600080fd5b8235611d7381611d40565b946020939093013593505050565b600060208284031215611d9357600080fd5b5035919050565b60008060408385031215611dad57600080fd5b50508035926020909101359150565b60005b83811015611dd7578181015183820152602001611dbf565b83811115611de6576000848401525b50505050565b60008151808452611e04816020860160208601611dbc565b601f01601f19169290920160200192915050565b8415158152836020820152608060408201526000611e396080830185611dec565b905060018060a01b038316606083015295945050505050565b634e487b7160e01b600052604160045260246000fd5b604051601f8201601f1916810167ffffffffffffffff81118282101715611e9157611e91611e52565b604052919050565b600067ffffffffffffffff821115611eb357611eb3611e52565b50601f01601f191660200190565b600080600060608486031215611ed657600080fd5b83359250602084013567ffffffffffffffff811115611ef457600080fd5b8401601f81018613611f0557600080fd5b8035611f18611f1382611e99565b611e68565b818152876020838501011115611f2d57600080fd5b816020840160208301376000602083830101528094505050506040840135611f5481611d40565b809150509250925092565b602081526000611f726020830184611dec565b9392505050565b80518015158114611f8957600080fd5b919050565b600060208284031215611fa057600080fd5b611f7282611f79565b60208082526015908201527413db9b1e4810dbdc99481dda1a5d195b1a5cdd1959605a1b604082015260600190565b600060208284031215611fea57600080fd5b8151611f7281611d40565b6020808252600b908201526a13db9b1e48105c9d1a5cdd60aa1b604082015260600190565b600181811c9082168061202e57607f821691505b6020821081141561204f57634e487b7160e01b600052602260045260246000fd5b50919050565b634e487b7160e01b600052601160045260246000fd5b600060001982141561207f5761207f612055565b5060010190565b60006020828403121561209857600080fd5b5051919050565b6000828210156120b1576120b1612055565b500390565b634e487b7160e01b600052601260045260246000fd5b6000826120db576120db6120b6565b500690565b600082516120f2818460208701611dbc565b9190910192915050565b8051611f8981611d40565b60008060008060008060008060006101208a8c03121561212657600080fd5b895161213181611d40565b8099505060208a0151975060408a0151965060608a0151955061215660808b01611f79565b945060a08a015161216681611d40565b60c08b015160e08c0151919550935067ffffffffffffffff81111561218a57600080fd5b8a01601f81018c1361219b57600080fd5b80516121a9611f1382611e99565b8181528d60208385010111156121be57600080fd5b6121cf826020830160208601611dbc565b93506121e19150506101008b016120fc565b90509295985092959850929598565b6000826121ff576121ff6120b6565b500490565b600081600019048311821515161561221e5761221e612055565b500290565b6001600160a01b03938416815291909216602082015260408101919091526060019056fea2646970667358221220f4562839b62431069ff05a19780d0867c1e7e078eed5edd269b8d13010ee538464736f6c63430008090033",
  "linkReferences": {},
  "deployedLinkReferences": {}
}