{
  "_format": "hh-sol-artifact-1",
  "contractName": "GenArt721CoreV3",
  "sourceName": "contracts/GenArt721CoreV3.sol",
  "abi": [
    {
      "inputs": [
        {
          "internalType": "string",
          "name": "_tokenName",
          "type": "string"
        },
        {
          "internalType": "string",
          "name": "_tokenSymbol",
          "type": "string"
        },
        {
          "internalType": "address",
          "name": "_randomizerContract",
          "type": "address"
        },
        {
          "internalType": "address",
          "name": "_adminACLContract",
          "type": "address"
        },
        {
          "internalType": "uint248",
          "name": "_startingProjectId",
          "type": "uint248"
        }
      ],
      "stateMutability": "nonpayable",
      "type": "constructor"
    },
    {
      "anonymous": false,
      "inputs": [
        {
          "indexed": true,
          "internalType": "uint256",
          "name": "_projectId",
          "type": "uint256"
        }
      ],
      "name": "AcceptedArtistAddressesAndSplits",
      "type": "event"
    },
    {
      "anonymous": false,
      "inputs": [
        {
          "indexed": true,
          "internalType": "address",
          "name": "owner",
          "type": "address"
        },
        {
          "indexed": true,
          "internalType": "address",
          "name": "approved",
          "type": "address"
        },
        {
          "indexed": true,
          "internalType": "uint256",
          "name": "tokenId",
          "type": "uint256"
        }
      ],
      "name": "Approval",
      "type": "event"
    },
    {
      "anonymous": false,
      "inputs": [
        {
          "indexed": true,
          "internalType": "address",
          "name": "owner",
          "type": "address"
        },
        {
          "indexed": true,
          "internalType": "address",
          "name": "operator",
          "type": "address"
        },
        {
          "indexed": false,
          "internalType": "bool",
          "name": "approved",
          "type": "bool"
        }
      ],
      "name": "ApprovalForAll",
      "type": "event"
    },
    {
      "anonymous": false,
      "inputs": [
        {
          "indexed": true,
          "internalType": "address",
          "name": "_to",
          "type": "address"
        },
        {
          "indexed": true,
          "internalType": "uint256",
          "name": "_tokenId",
          "type": "uint256"
        }
      ],
      "name": "Mint",
      "type": "event"
    },
    {
      "anonymous": false,
      "inputs": [
        {
          "indexed": true,
          "internalType": "address",
          "name": "_currentMinter",
          "type": "address"
        }
      ],
      "name": "MinterUpdated",
      "type": "event"
    },
    {
      "anonymous": false,
      "inputs": [
        {
          "indexed": true,
          "internalType": "address",
          "name": "previousOwner",
          "type": "address"
        },
        {
          "indexed": true,
          "internalType": "address",
          "name": "newOwner",
          "type": "address"
        }
      ],
      "name": "OwnershipTransferred",
      "type": "event"
    },
    {
      "anonymous": false,
      "inputs": [
        {
          "indexed": true,
          "internalType": "bytes32",
          "name": "_field",
          "type": "bytes32"
        }
      ],
      "name": "PlatformUpdated",
      "type": "event"
    },
    {
      "anonymous": false,
      "inputs": [
        {
          "indexed": true,
          "internalType": "uint256",
          "name": "_projectId",
          "type": "uint256"
        },
        {
          "indexed": true,
          "internalType": "bytes32",
          "name": "_update",
          "type": "bytes32"
        }
      ],
      "name": "ProjectUpdated",
      "type": "event"
    },
    {
      "anonymous": false,
      "inputs": [
        {
          "indexed": true,
          "internalType": "uint256",
          "name": "_projectId",
          "type": "uint256"
        },
        {
          "indexed": false,
          "internalType": "address",
          "name": "_artistAddress",
          "type": "address"
        },
        {
          "indexed": false,
          "internalType": "address",
          "name": "_additionalPayeePrimarySales",
          "type": "address"
        },
        {
          "indexed": false,
          "internalType": "uint256",
          "name": "_additionalPayeePrimarySalesPercentage",
          "type": "uint256"
        },
        {
          "indexed": false,
          "internalType": "address",
          "name": "_additionalPayeeSecondarySales",
          "type": "address"
        },
        {
          "indexed": false,
          "internalType": "uint256",
          "name": "_additionalPayeeSecondarySalesPercentage",
          "type": "uint256"
        }
      ],
      "name": "ProposedArtistAddressesAndSplits",
      "type": "event"
    },
    {
      "anonymous": false,
      "inputs": [
        {
          "indexed": true,
          "internalType": "address",
          "name": "from",
          "type": "address"
        },
        {
          "indexed": true,
          "internalType": "address",
          "name": "to",
          "type": "address"
        },
        {
          "indexed": true,
          "internalType": "uint256",
          "name": "tokenId",
          "type": "uint256"
        }
      ],
      "name": "Transfer",
      "type": "event"
    },
    {
      "inputs": [],
      "name": "ART_BLOCKS_ERC721TOKEN_ADDRESS_V0",
      "outputs": [
        {
          "internalType": "address",
          "name": "",
          "type": "address"
        }
      ],
      "stateMutability": "view",
      "type": "function"
    },
    {
      "inputs": [],
      "name": "ART_BLOCKS_ERC721TOKEN_ADDRESS_V1",
      "outputs": [
        {
          "internalType": "address",
          "name": "",
          "type": "address"
        }
      ],
      "stateMutability": "view",
      "type": "function"
    },
    {
      "inputs": [
        {
          "internalType": "string",
          "name": "_projectName",
          "type": "string"
        },
        {
          "internalType": "address payable",
          "name": "_artistAddress",
          "type": "address"
        }
      ],
      "name": "addProject",
      "outputs": [],
      "stateMutability": "nonpayable",
      "type": "function"
    },
    {
      "inputs": [
        {
          "internalType": "uint256",
          "name": "_projectId",
          "type": "uint256"
        },
        {
          "internalType": "string",
          "name": "_script",
          "type": "string"
        }
      ],
      "name": "addProjectScript",
      "outputs": [],
      "stateMutability": "nonpayable",
      "type": "function"
    },
    {
      "inputs": [],
      "name": "admin",
      "outputs": [
        {
          "internalType": "address",
          "name": "",
          "type": "address"
        }
      ],
      "stateMutability": "view",
      "type": "function"
    },
    {
      "inputs": [
        {
          "internalType": "address",
          "name": "_sender",
          "type": "address"
        },
        {
          "internalType": "address",
          "name": "_contract",
          "type": "address"
        },
        {
          "internalType": "bytes4",
          "name": "_selector",
          "type": "bytes4"
        }
      ],
      "name": "adminACLAllowed",
      "outputs": [
        {
          "internalType": "bool",
          "name": "",
          "type": "bool"
        }
      ],
      "stateMutability": "nonpayable",
      "type": "function"
    },
    {
      "inputs": [],
      "name": "adminACLContract",
      "outputs": [
        {
          "internalType": "contract IAdminACLV0",
          "name": "",
          "type": "address"
        }
      ],
      "stateMutability": "view",
      "type": "function"
    },
    {
      "inputs": [
        {
          "internalType": "uint256",
          "name": "_projectId",
          "type": "uint256"
        },
        {
          "internalType": "address payable",
          "name": "_artistAddress",
          "type": "address"
        },
        {
          "internalType": "address payable",
          "name": "_additionalPayeePrimarySales",
          "type": "address"
        },
        {
          "internalType": "uint256",
          "name": "_additionalPayeePrimarySalesPercentage",
          "type": "uint256"
        },
        {
          "internalType": "address payable",
          "name": "_additionalPayeeSecondarySales",
          "type": "address"
        },
        {
          "internalType": "uint256",
          "name": "_additionalPayeeSecondarySalesPercentage",
          "type": "uint256"
        }
      ],
      "name": "adminAcceptArtistAddressesAndSplits",
      "outputs": [],
      "stateMutability": "nonpayable",
      "type": "function"
    },
    {
      "inputs": [
        {
          "internalType": "address",
          "name": "to",
          "type": "address"
        },
        {
          "internalType": "uint256",
          "name": "tokenId",
          "type": "uint256"
        }
      ],
      "name": "approve",
      "outputs": [],
      "stateMutability": "nonpayable",
      "type": "function"
    },
    {
      "inputs": [],
      "name": "artblocksAddress",
      "outputs": [
        {
          "internalType": "address payable",
          "name": "",
          "type": "address"
        }
      ],
      "stateMutability": "view",
      "type": "function"
    },
    {
      "inputs": [],
      "name": "artblocksCurationRegistryAddress",
      "outputs": [
        {
          "internalType": "address",
          "name": "",
          "type": "address"
        }
      ],
      "stateMutability": "view",
      "type": "function"
    },
    {
      "inputs": [],
      "name": "artblocksDependencyRegistryAddress",
      "outputs": [
        {
          "internalType": "address",
          "name": "",
          "type": "address"
        }
      ],
      "stateMutability": "view",
      "type": "function"
    },
    {
      "inputs": [],
      "name": "artblocksPercentage",
      "outputs": [
        {
          "internalType": "uint256",
          "name": "",
          "type": "uint256"
        }
      ],
      "stateMutability": "view",
      "type": "function"
    },
    {
      "inputs": [],
      "name": "artblocksPrimarySalesAddress",
      "outputs": [
        {
          "internalType": "address payable",
          "name": "",
          "type": "address"
        }
      ],
      "stateMutability": "view",
      "type": "function"
    },
    {
      "inputs": [],
      "name": "artblocksPrimarySalesPercentage",
      "outputs": [
        {
          "internalType": "uint256",
          "name": "",
          "type": "uint256"
        }
      ],
      "stateMutability": "view",
      "type": "function"
    },
    {
      "inputs": [],
      "name": "artblocksSecondarySalesAddress",
      "outputs": [
        {
          "internalType": "address payable",
          "name": "",
          "type": "address"
        }
      ],
      "stateMutability": "view",
      "type": "function"
    },
    {
      "inputs": [],
      "name": "artblocksSecondarySalesBPS",
      "outputs": [
        {
          "internalType": "uint256",
          "name": "",
          "type": "uint256"
        }
      ],
      "stateMutability": "view",
      "type": "function"
    },
    {
      "inputs": [
        {
          "internalType": "address",
          "name": "owner",
          "type": "address"
        }
      ],
      "name": "balanceOf",
      "outputs": [
        {
          "internalType": "uint256",
          "name": "",
          "type": "uint256"
        }
      ],
      "stateMutability": "view",
      "type": "function"
    },
    {
      "inputs": [],
      "name": "coreType",
      "outputs": [
        {
          "internalType": "string",
          "name": "",
          "type": "string"
        }
      ],
      "stateMutability": "view",
      "type": "function"
    },
    {
      "inputs": [],
      "name": "coreVersion",
      "outputs": [
        {
          "internalType": "string",
          "name": "",
          "type": "string"
        }
      ],
      "stateMutability": "view",
      "type": "function"
    },
    {
      "inputs": [],
      "name": "defaultBaseURI",
      "outputs": [
        {
          "internalType": "string",
          "name": "",
          "type": "string"
        }
      ],
      "stateMutability": "view",
      "type": "function"
    },
    {
      "inputs": [],
      "name": "forbidNewProjects",
      "outputs": [],
      "stateMutability": "nonpayable",
      "type": "function"
    },
    {
      "inputs": [
        {
          "internalType": "uint256",
          "name": "tokenId",
          "type": "uint256"
        }
      ],
      "name": "getApproved",
      "outputs": [
        {
          "internalType": "address",
          "name": "",
          "type": "address"
        }
      ],
      "stateMutability": "view",
      "type": "function"
    },
    {
      "inputs": [
        {
          "internalType": "uint256",
          "name": "_index",
          "type": "uint256"
        }
      ],
      "name": "getHistoricalRandomizerAt",
      "outputs": [
        {
          "internalType": "address",
          "name": "",
          "type": "address"
        }
      ],
      "stateMutability": "view",
      "type": "function"
    },
    {
      "inputs": [
        {
          "internalType": "uint256",
          "name": "_projectId",
          "type": "uint256"
        },
        {
          "internalType": "uint256",
          "name": "_price",
          "type": "uint256"
        }
      ],
      "name": "getPrimaryRevenueSplits",
      "outputs": [
        {
          "internalType": "uint256",
          "name": "artblocksRevenue_",
          "type": "uint256"
        },
        {
          "internalType": "address payable",
          "name": "artblocksAddress_",
          "type": "address"
        },
        {
          "internalType": "uint256",
          "name": "artistRevenue_",
          "type": "uint256"
        },
        {
          "internalType": "address payable",
          "name": "artistAddress_",
          "type": "address"
        },
        {
          "internalType": "uint256",
          "name": "additionalPayeePrimaryRevenue_",
          "type": "uint256"
        },
        {
          "internalType": "address payable",
          "name": "additionalPayeePrimaryAddress_",
          "type": "address"
        }
      ],
      "stateMutability": "view",
      "type": "function"
    },
    {
      "inputs": [
        {
          "internalType": "uint256",
          "name": "_tokenId",
          "type": "uint256"
        }
      ],
      "name": "getRoyalties",
      "outputs": [
        {
          "internalType": "address payable[]",
          "name": "recipients",
          "type": "address[]"
        },
        {
          "internalType": "uint256[]",
          "name": "bps",
          "type": "uint256[]"
        }
      ],
      "stateMutability": "view",
      "type": "function"
    },
    {
      "inputs": [
        {
          "internalType": "uint256",
          "name": "_tokenId",
          "type": "uint256"
        }
      ],
      "name": "getRoyaltyData",
      "outputs": [
        {
          "internalType": "address",
          "name": "artistAddress",
          "type": "address"
        },
        {
          "internalType": "address",
          "name": "additionalPayee",
          "type": "address"
        },
        {
          "internalType": "uint256",
          "name": "additionalPayeePercentage",
          "type": "uint256"
        },
        {
          "internalType": "uint256",
          "name": "royaltyFeeByID",
          "type": "uint256"
        }
      ],
      "stateMutability": "view",
      "type": "function"
    },
    {
      "inputs": [
        {
          "internalType": "address",
          "name": "owner",
          "type": "address"
        },
        {
          "internalType": "address",
          "name": "operator",
          "type": "address"
        }
      ],
      "name": "isApprovedForAll",
      "outputs": [
        {
          "internalType": "bool",
          "name": "",
          "type": "bool"
        }
      ],
      "stateMutability": "view",
      "type": "function"
    },
    {
      "inputs": [
        {
          "internalType": "address",
          "name": "_minter",
          "type": "address"
        }
      ],
      "name": "isMintWhitelisted",
      "outputs": [
        {
          "internalType": "bool",
          "name": "",
          "type": "bool"
        }
      ],
      "stateMutability": "view",
      "type": "function"
    },
    {
      "inputs": [
        {
          "internalType": "address",
          "name": "_to",
          "type": "address"
        },
        {
          "internalType": "uint256",
          "name": "_projectId",
          "type": "uint256"
        },
        {
          "internalType": "address",
          "name": "_by",
          "type": "address"
        }
      ],
      "name": "mint_Ecf",
      "outputs": [
        {
          "internalType": "uint256",
          "name": "_tokenId",
          "type": "uint256"
        }
      ],
      "stateMutability": "nonpayable",
      "type": "function"
    },
    {
      "inputs": [],
      "name": "minterContract",
      "outputs": [
        {
          "internalType": "address",
          "name": "",
          "type": "address"
        }
      ],
      "stateMutability": "view",
      "type": "function"
    },
    {
      "inputs": [],
      "name": "name",
      "outputs": [
        {
          "internalType": "string",
          "name": "",
          "type": "string"
        }
      ],
      "stateMutability": "view",
      "type": "function"
    },
    {
      "inputs": [],
      "name": "newProjectsForbidden",
      "outputs": [
        {
          "internalType": "bool",
          "name": "",
          "type": "bool"
        }
      ],
      "stateMutability": "view",
      "type": "function"
    },
    {
      "inputs": [],
      "name": "nextProjectId",
      "outputs": [
        {
          "internalType": "uint256",
          "name": "",
          "type": "uint256"
        }
      ],
      "stateMutability": "view",
      "type": "function"
    },
    {
      "inputs": [],
      "name": "numHistoricalRandomizers",
      "outputs": [
        {
          "internalType": "uint256",
          "name": "",
          "type": "uint256"
        }
      ],
      "stateMutability": "view",
      "type": "function"
    },
    {
      "inputs": [],
      "name": "owner",
      "outputs": [
        {
          "internalType": "address",
          "name": "",
          "type": "address"
        }
      ],
      "stateMutability": "view",
      "type": "function"
    },
    {
      "inputs": [
        {
          "internalType": "uint256",
          "name": "tokenId",
          "type": "uint256"
        }
      ],
      "name": "ownerOf",
      "outputs": [
        {
          "internalType": "address",
          "name": "",
          "type": "address"
        }
      ],
      "stateMutability": "view",
      "type": "function"
    },
    {
      "inputs": [
        {
          "internalType": "uint256",
          "name": "_projectId",
          "type": "uint256"
        }
      ],
      "name": "projectArtistPaymentInfo",
      "outputs": [
        {
          "internalType": "address",
          "name": "artistAddress",
          "type": "address"
        },
        {
          "internalType": "address",
          "name": "additionalPayeePrimarySales",
          "type": "address"
        },
        {
          "internalType": "uint256",
          "name": "additionalPayeePrimarySalesPercentage",
          "type": "uint256"
        },
        {
          "internalType": "address",
          "name": "additionalPayeeSecondarySales",
          "type": "address"
        },
        {
          "internalType": "uint256",
          "name": "additionalPayeeSecondarySalesPercentage",
          "type": "uint256"
        },
        {
          "internalType": "uint256",
          "name": "secondaryMarketRoyaltyPercentage",
          "type": "uint256"
        }
      ],
      "stateMutability": "view",
      "type": "function"
    },
    {
      "inputs": [
        {
          "internalType": "uint256",
          "name": "_projectId",
          "type": "uint256"
        }
      ],
      "name": "projectDetails",
      "outputs": [
        {
          "internalType": "string",
          "name": "projectName",
          "type": "string"
        },
        {
          "internalType": "string",
          "name": "artist",
          "type": "string"
        },
        {
          "internalType": "string",
          "name": "description",
          "type": "string"
        },
        {
          "internalType": "string",
          "name": "website",
          "type": "string"
        },
        {
          "internalType": "string",
          "name": "license",
          "type": "string"
        }
      ],
      "stateMutability": "view",
      "type": "function"
    },
    {
      "inputs": [
        {
          "internalType": "uint256",
          "name": "_projectId",
          "type": "uint256"
        }
      ],
      "name": "projectIdToAdditionalPayeePrimarySales",
      "outputs": [
        {
          "internalType": "address payable",
          "name": "",
          "type": "address"
        }
      ],
      "stateMutability": "view",
      "type": "function"
    },
    {
      "inputs": [
        {
          "internalType": "uint256",
          "name": "_projectId",
          "type": "uint256"
        }
      ],
      "name": "projectIdToAdditionalPayeePrimarySalesPercentage",
      "outputs": [
        {
          "internalType": "uint256",
          "name": "",
          "type": "uint256"
        }
      ],
      "stateMutability": "view",
      "type": "function"
    },
    {
      "inputs": [
        {
          "internalType": "uint256",
          "name": "_projectId",
          "type": "uint256"
        }
      ],
      "name": "projectIdToAdditionalPayeeSecondarySales",
      "outputs": [
        {
          "internalType": "address payable",
          "name": "",
          "type": "address"
        }
      ],
      "stateMutability": "view",
      "type": "function"
    },
    {
      "inputs": [
        {
          "internalType": "uint256",
          "name": "_projectId",
          "type": "uint256"
        }
      ],
      "name": "projectIdToAdditionalPayeeSecondarySalesPercentage",
      "outputs": [
        {
          "internalType": "uint256",
          "name": "",
          "type": "uint256"
        }
      ],
      "stateMutability": "view",
      "type": "function"
    },
    {
      "inputs": [
        {
          "internalType": "uint256",
          "name": "_projectId",
          "type": "uint256"
        }
      ],
      "name": "projectIdToArtistAddress",
      "outputs": [
        {
          "internalType": "address payable",
          "name": "",
          "type": "address"
        }
      ],
      "stateMutability": "view",
      "type": "function"
    },
    {
      "inputs": [
        {
          "internalType": "uint256",
          "name": "_projectId",
          "type": "uint256"
        }
      ],
      "name": "projectIdToSecondaryMarketRoyaltyPercentage",
      "outputs": [
        {
          "internalType": "uint256",
          "name": "",
          "type": "uint256"
        }
      ],
      "stateMutability": "view",
      "type": "function"
    },
    {
      "inputs": [
        {
          "internalType": "uint256",
          "name": "_projectId",
          "type": "uint256"
        },
        {
          "internalType": "uint256",
          "name": "_index",
          "type": "uint256"
        }
      ],
      "name": "projectScriptByIndex",
      "outputs": [
        {
          "internalType": "string",
          "name": "",
          "type": "string"
        }
      ],
      "stateMutability": "view",
      "type": "function"
    },
    {
      "inputs": [
        {
          "internalType": "uint256",
          "name": "_projectId",
          "type": "uint256"
        }
      ],
      "name": "projectScriptDetails",
      "outputs": [
        {
          "internalType": "string",
          "name": "scriptTypeAndVersion",
          "type": "string"
        },
        {
          "internalType": "string",
          "name": "aspectRatio",
          "type": "string"
        },
        {
          "internalType": "uint256",
          "name": "scriptCount",
          "type": "uint256"
        }
      ],
      "stateMutability": "view",
      "type": "function"
    },
    {
      "inputs": [
        {
          "internalType": "uint256",
          "name": "_projectId",
          "type": "uint256"
        }
      ],
      "name": "projectStateData",
      "outputs": [
        {
          "internalType": "uint256",
          "name": "invocations",
          "type": "uint256"
        },
        {
          "internalType": "uint256",
          "name": "maxInvocations",
          "type": "uint256"
        },
        {
          "internalType": "bool",
          "name": "active",
          "type": "bool"
        },
        {
          "internalType": "bool",
          "name": "paused",
          "type": "bool"
        },
        {
          "internalType": "uint256",
          "name": "completedTimestamp",
          "type": "uint256"
        },
        {
          "internalType": "bool",
          "name": "locked",
          "type": "bool"
        }
      ],
      "stateMutability": "view",
      "type": "function"
    },
    {
      "inputs": [
        {
          "internalType": "uint256",
          "name": "_projectId",
          "type": "uint256"
        }
      ],
      "name": "projectURIInfo",
      "outputs": [
        {
          "internalType": "string",
          "name": "projectBaseURI",
          "type": "string"
        }
      ],
      "stateMutability": "view",
      "type": "function"
    },
    {
      "inputs": [
        {
          "internalType": "uint256",
          "name": "_projectId",
          "type": "uint256"
        },
        {
          "internalType": "address payable",
          "name": "_artistAddress",
          "type": "address"
        },
        {
          "internalType": "address payable",
          "name": "_additionalPayeePrimarySales",
          "type": "address"
        },
        {
          "internalType": "uint256",
          "name": "_additionalPayeePrimarySalesPercentage",
          "type": "uint256"
        },
        {
          "internalType": "address payable",
          "name": "_additionalPayeeSecondarySales",
          "type": "address"
        },
        {
          "internalType": "uint256",
          "name": "_additionalPayeeSecondarySalesPercentage",
          "type": "uint256"
        }
      ],
      "name": "proposeArtistPaymentAddressesAndSplits",
      "outputs": [],
      "stateMutability": "nonpayable",
      "type": "function"
    },
    {
      "inputs": [
        {
          "internalType": "uint256",
          "name": "",
          "type": "uint256"
        }
      ],
      "name": "proposedArtistAddressesAndSplitsHash",
      "outputs": [
        {
          "internalType": "bytes32",
          "name": "",
          "type": "bytes32"
        }
      ],
      "stateMutability": "view",
      "type": "function"
    },
    {
      "inputs": [],
      "name": "randomizerContract",
      "outputs": [
        {
          "internalType": "contract IRandomizerV2",
          "name": "",
          "type": "address"
        }
      ],
      "stateMutability": "view",
      "type": "function"
    },
    {
      "inputs": [
        {
          "internalType": "uint256",
          "name": "_projectId",
          "type": "uint256"
        }
      ],
      "name": "removeProjectLastScript",
      "outputs": [],
      "stateMutability": "nonpayable",
      "type": "function"
    },
    {
      "inputs": [],
      "name": "renounceOwnership",
      "outputs": [],
      "stateMutability": "nonpayable",
      "type": "function"
    },
    {
      "inputs": [
        {
          "internalType": "address",
          "name": "from",
          "type": "address"
        },
        {
          "internalType": "address",
          "name": "to",
          "type": "address"
        },
        {
          "internalType": "uint256",
          "name": "tokenId",
          "type": "uint256"
        }
      ],
      "name": "safeTransferFrom",
      "outputs": [],
      "stateMutability": "nonpayable",
      "type": "function"
    },
    {
      "inputs": [
        {
          "internalType": "address",
          "name": "from",
          "type": "address"
        },
        {
          "internalType": "address",
          "name": "to",
          "type": "address"
        },
        {
          "internalType": "uint256",
          "name": "tokenId",
          "type": "uint256"
        },
        {
          "internalType": "bytes",
          "name": "data",
          "type": "bytes"
        }
      ],
      "name": "safeTransferFrom",
      "outputs": [],
      "stateMutability": "nonpayable",
      "type": "function"
    },
    {
      "inputs": [
        {
          "internalType": "address",
          "name": "operator",
          "type": "address"
        },
        {
          "internalType": "bool",
          "name": "approved",
          "type": "bool"
        }
      ],
      "name": "setApprovalForAll",
      "outputs": [],
      "stateMutability": "nonpayable",
      "type": "function"
    },
    {
      "inputs": [
        {
          "internalType": "uint256",
          "name": "_tokenId",
          "type": "uint256"
        },
        {
          "internalType": "bytes32",
          "name": "_hashSeed",
          "type": "bytes32"
        }
      ],
      "name": "setTokenHash_8PT",
      "outputs": [],
      "stateMutability": "nonpayable",
      "type": "function"
    },
    {
      "inputs": [],
      "name": "startingProjectId",
      "outputs": [
        {
          "internalType": "uint256",
          "name": "",
          "type": "uint256"
        }
      ],
      "stateMutability": "view",
      "type": "function"
    },
    {
      "inputs": [
        {
          "internalType": "bytes4",
          "name": "interfaceId",
          "type": "bytes4"
        }
      ],
      "name": "supportsInterface",
      "outputs": [
        {
          "internalType": "bool",
          "name": "",
          "type": "bool"
        }
      ],
      "stateMutability": "view",
      "type": "function"
    },
    {
      "inputs": [],
      "name": "symbol",
      "outputs": [
        {
          "internalType": "string",
          "name": "",
          "type": "string"
        }
      ],
      "stateMutability": "view",
      "type": "function"
    },
    {
      "inputs": [
        {
          "internalType": "uint256",
          "name": "_projectId",
          "type": "uint256"
        }
      ],
      "name": "toggleProjectIsActive",
      "outputs": [],
      "stateMutability": "nonpayable",
      "type": "function"
    },
    {
      "inputs": [
        {
          "internalType": "uint256",
          "name": "_projectId",
          "type": "uint256"
        }
      ],
      "name": "toggleProjectIsPaused",
      "outputs": [],
      "stateMutability": "nonpayable",
      "type": "function"
    },
    {
      "inputs": [
        {
          "internalType": "uint256",
          "name": "_tokenId",
          "type": "uint256"
        }
      ],
      "name": "tokenIdToHash",
      "outputs": [
        {
          "internalType": "bytes32",
          "name": "",
          "type": "bytes32"
        }
      ],
      "stateMutability": "view",
      "type": "function"
    },
    {
      "inputs": [
        {
          "internalType": "uint256",
          "name": "_tokenId",
          "type": "uint256"
        }
      ],
      "name": "tokenIdToProjectId",
      "outputs": [
        {
          "internalType": "uint256",
          "name": "_projectId",
          "type": "uint256"
        }
      ],
      "stateMutability": "pure",
      "type": "function"
    },
    {
      "inputs": [
        {
          "internalType": "uint256",
          "name": "_tokenId",
          "type": "uint256"
        }
      ],
      "name": "tokenURI",
      "outputs": [
        {
          "internalType": "string",
          "name": "",
          "type": "string"
        }
      ],
      "stateMutability": "view",
      "type": "function"
    },
    {
      "inputs": [
        {
          "internalType": "address",
          "name": "from",
          "type": "address"
        },
        {
          "internalType": "address",
          "name": "to",
          "type": "address"
        },
        {
          "internalType": "uint256",
          "name": "tokenId",
          "type": "uint256"
        }
      ],
      "name": "transferFrom",
      "outputs": [],
      "stateMutability": "nonpayable",
      "type": "function"
    },
    {
      "inputs": [
        {
          "internalType": "address",
          "name": "newOwner",
          "type": "address"
        }
      ],
      "name": "transferOwnership",
      "outputs": [],
      "stateMutability": "nonpayable",
      "type": "function"
    },
    {
      "inputs": [
        {
          "internalType": "address",
          "name": "_artblocksCurationRegistryAddress",
          "type": "address"
        }
      ],
      "name": "updateArtblocksCurationRegistryAddress",
      "outputs": [],
      "stateMutability": "nonpayable",
      "type": "function"
    },
    {
      "inputs": [
        {
          "internalType": "address",
          "name": "_artblocksDependencyRegistryAddress",
          "type": "address"
        }
      ],
      "name": "updateArtblocksDependencyRegistryAddress",
      "outputs": [],
      "stateMutability": "nonpayable",
      "type": "function"
    },
    {
      "inputs": [
        {
          "internalType": "address payable",
          "name": "_artblocksPrimarySalesAddress",
          "type": "address"
        }
      ],
      "name": "updateArtblocksPrimarySalesAddress",
      "outputs": [],
      "stateMutability": "nonpayable",
      "type": "function"
    },
    {
      "inputs": [
        {
          "internalType": "uint256",
          "name": "artblocksPrimarySalesPercentage_",
          "type": "uint256"
        }
      ],
      "name": "updateArtblocksPrimarySalesPercentage",
      "outputs": [],
      "stateMutability": "nonpayable",
      "type": "function"
    },
    {
      "inputs": [
        {
          "internalType": "address payable",
          "name": "_artblocksSecondarySalesAddress",
          "type": "address"
        }
      ],
      "name": "updateArtblocksSecondarySalesAddress",
      "outputs": [],
      "stateMutability": "nonpayable",
      "type": "function"
    },
    {
      "inputs": [
        {
          "internalType": "uint256",
          "name": "_artblocksSecondarySalesBPS",
          "type": "uint256"
        }
      ],
      "name": "updateArtblocksSecondarySalesBPS",
      "outputs": [],
      "stateMutability": "nonpayable",
      "type": "function"
    },
    {
      "inputs": [
        {
          "internalType": "string",
          "name": "_defaultBaseURI",
          "type": "string"
        }
      ],
      "name": "updateDefaultBaseURI",
      "outputs": [],
      "stateMutability": "nonpayable",
      "type": "function"
    },
    {
      "inputs": [
        {
          "internalType": "address",
          "name": "_address",
          "type": "address"
        }
      ],
      "name": "updateMinterContract",
      "outputs": [],
      "stateMutability": "nonpayable",
      "type": "function"
    },
    {
      "inputs": [
        {
          "internalType": "uint256",
          "name": "_projectId",
          "type": "uint256"
        },
        {
          "internalType": "address payable",
          "name": "_artistAddress",
          "type": "address"
        }
      ],
      "name": "updateProjectArtistAddress",
      "outputs": [],
      "stateMutability": "nonpayable",
      "type": "function"
    },
    {
      "inputs": [
        {
          "internalType": "uint256",
          "name": "_projectId",
          "type": "uint256"
        },
        {
          "internalType": "string",
          "name": "_projectArtistName",
          "type": "string"
        }
      ],
      "name": "updateProjectArtistName",
      "outputs": [],
      "stateMutability": "nonpayable",
      "type": "function"
    },
    {
      "inputs": [
        {
          "internalType": "uint256",
          "name": "_projectId",
          "type": "uint256"
        },
        {
          "internalType": "string",
          "name": "_aspectRatio",
          "type": "string"
        }
      ],
      "name": "updateProjectAspectRatio",
      "outputs": [],
      "stateMutability": "nonpayable",
      "type": "function"
    },
    {
      "inputs": [
        {
          "internalType": "uint256",
          "name": "_projectId",
          "type": "uint256"
        },
        {
          "internalType": "string",
          "name": "_newBaseURI",
          "type": "string"
        }
      ],
      "name": "updateProjectBaseURI",
      "outputs": [],
      "stateMutability": "nonpayable",
      "type": "function"
    },
    {
      "inputs": [
        {
          "internalType": "uint256",
          "name": "_projectId",
          "type": "uint256"
        },
        {
          "internalType": "string",
          "name": "_projectDescription",
          "type": "string"
        }
      ],
      "name": "updateProjectDescription",
      "outputs": [],
      "stateMutability": "nonpayable",
      "type": "function"
    },
    {
      "inputs": [
        {
          "internalType": "uint256",
          "name": "_projectId",
          "type": "uint256"
        },
        {
          "internalType": "string",
          "name": "_projectLicense",
          "type": "string"
        }
      ],
      "name": "updateProjectLicense",
      "outputs": [],
      "stateMutability": "nonpayable",
      "type": "function"
    },
    {
      "inputs": [
        {
          "internalType": "uint256",
          "name": "_projectId",
          "type": "uint256"
        },
        {
          "internalType": "uint24",
          "name": "_maxInvocations",
          "type": "uint24"
        }
      ],
      "name": "updateProjectMaxInvocations",
      "outputs": [],
      "stateMutability": "nonpayable",
      "type": "function"
    },
    {
      "inputs": [
        {
          "internalType": "uint256",
          "name": "_projectId",
          "type": "uint256"
        },
        {
          "internalType": "string",
          "name": "_projectName",
          "type": "string"
        }
      ],
      "name": "updateProjectName",
      "outputs": [],
      "stateMutability": "nonpayable",
      "type": "function"
    },
    {
      "inputs": [
        {
          "internalType": "uint256",
          "name": "_projectId",
          "type": "uint256"
        },
        {
          "internalType": "uint256",
          "name": "_scriptId",
          "type": "uint256"
        },
        {
          "internalType": "string",
          "name": "_script",
          "type": "string"
        }
      ],
      "name": "updateProjectScript",
      "outputs": [],
      "stateMutability": "nonpayable",
      "type": "function"
    },
    {
      "inputs": [
        {
          "internalType": "uint256",
          "name": "_projectId",
          "type": "uint256"
        },
        {
          "internalType": "bytes32",
          "name": "_scriptTypeAndVersion",
          "type": "bytes32"
        }
      ],
      "name": "updateProjectScriptType",
      "outputs": [],
      "stateMutability": "nonpayable",
      "type": "function"
    },
    {
      "inputs": [
        {
          "internalType": "uint256",
          "name": "_projectId",
          "type": "uint256"
        },
        {
          "internalType": "uint256",
          "name": "_secondMarketRoyalty",
          "type": "uint256"
        }
      ],
      "name": "updateProjectSecondaryMarketRoyaltyPercentage",
      "outputs": [],
      "stateMutability": "nonpayable",
      "type": "function"
    },
    {
      "inputs": [
        {
          "internalType": "uint256",
          "name": "_projectId",
          "type": "uint256"
        },
        {
          "internalType": "string",
          "name": "_projectWebsite",
          "type": "string"
        }
      ],
      "name": "updateProjectWebsite",
      "outputs": [],
      "stateMutability": "nonpayable",
      "type": "function"
    },
    {
      "inputs": [
        {
          "internalType": "address",
          "name": "_randomizerAddress",
          "type": "address"
        }
      ],
      "name": "updateRandomizerAddress",
      "outputs": [],
      "stateMutability": "nonpayable",
      "type": "function"
    }
  ],
  "bytecode": "0x60a0604052600f805460ff60a01b1916600560a11b17905560fa6011553480156200002957600080fd5b5060405162005ef738038062005ef78339810160408190526200004c91620004aa565b848460006200005c8382620005eb565b5060016200006b8282620005eb565b5050506200008862000082620001c560201b60201c565b620001c9565b826001600160a01b038116620000e45760405162461bcd60e51b815260206004820152601b60248201527f4d75737420696e707574206e6f6e2d7a65726f20616464726573730000000000604482015260640160405180910390fd5b6001600160f81b038216608052620000fc3362000201565b620001073362000259565b6200011284620002b1565b6200011d83620001c9565b60408051808201909152601b81527f68747470733a2f2f746f6b656e2e617274626c6f636b732e696f2f000000000060208201526200015c9062000339565b601380547fff00000000000000000000000000000000000000000000000000000000000000166001600160f81b0384161790556040516c1b995e1d141c9bda9958dd1259609a1b9060008051602062005ed783398151915290600090a2505050505050620006b7565b3390565b620001df816200037660201b62003e011760201c565b600b80546001600160a01b0319166001600160a01b0392909216919091179055565b600f80546001600160a01b0319166001600160a01b0383161790556040517f617274626c6f636b735072696d61727953616c657341646472657373000000009060008051602062005ed783398151915290600090a250565b601080546001600160a01b0319166001600160a01b0383161790556040517f617274626c6f636b735365636f6e6461727953616c65734164647265737300009060008051602062005ed783398151915290600090a250565b600980546001600160a01b0383166001600160a01b03199182168117909255600a805460018101825560009182527fc65a7bb8d6351c1cf70c95a316cc6a92839c986682d98bc35f958f4883f9d2a801805490921690921790556040517072616e646f6d697a65724164647265737360781b9160008051602062005ed783398151915291a250565b6014620003478282620005eb565b506040516d64656661756c744261736555524960901b9060008051602062005ed783398151915290600090a250565b600680546001600160a01b038381166001600160a01b0319831681179093556040519116919082907f8be0079c531659141344cd1fd0a4f28419497f9722a3daafe3b4186f6b6457e090600090a35050565b634e487b7160e01b600052604160045260246000fd5b600082601f830112620003f057600080fd5b81516001600160401b03808211156200040d576200040d620003c8565b604051601f8301601f19908116603f01168101908282118183101715620004385762000438620003c8565b816040528381526020925086838588010111156200045557600080fd5b600091505b838210156200047957858201830151818301840152908201906200045a565b600093810190920192909252949350505050565b80516001600160a01b0381168114620004a557600080fd5b919050565b600080600080600060a08688031215620004c357600080fd5b85516001600160401b0380821115620004db57600080fd5b620004e989838a01620003de565b965060208801519150808211156200050057600080fd5b506200050f88828901620003de565b94505062000520604087016200048d565b925062000530606087016200048d565b60808701519092506001600160f81b03811681146200054e57600080fd5b809150509295509295909350565b600181811c908216806200057157607f821691505b6020821081036200059257634e487b7160e01b600052602260045260246000fd5b50919050565b601f821115620005e657600081815260208120601f850160051c81016020861015620005c15750805b601f850160051c820191505b81811015620005e257828155600101620005cd565b5050505b505050565b81516001600160401b03811115620006075762000607620003c8565b6200061f816200061884546200055c565b8462000598565b602080601f8311600181146200065757600084156200063e5750858301515b600019600386901b1c1916600185901b178555620005e2565b600085815260208120601f198616915b82811015620006885788860151825594840194600190910190840162000667565b5085821015620006a75787850151600019600388901b60f8161c191681555b5050505050600190811b01905550565b6080516157e1620006f660003960008181610cba01528181611ce8015281816122e80152818161252e01528181613a6c0152613fff01526157e16000f3fe608060405234801561001057600080fd5b506004361061041f5760003560e01c806376ee6fab1161022e578063ad2cdfc411610137578063ad2cdfc414610a3f578063ae45ad9814610a6c578063b1656ba314610a9a578063b168762214610aad578063b7b04fae14610ac0578063b88d4fde14610ad3578063b971136814610ae6578063bb3bafd614610aee578063bba4448a14610b0f578063c34a03b514610b22578063c87b56dd14610b35578063cc90e72514610b48578063d03c390c14610b5b578063db2ff86114610b6e578063ddd0ee0f14610b81578063e935b7b114610b94578063e985e9c514610ba5578063eb9cd5d414610bb8578063ed8abfda14610bda578063f2fde38b14610c04578063f313d73314610c17578063f851a44014610cad578063f893c07b14610cb557600080fd5b806376ee6fab1461082a5780638639415b1461083d5780638c3c9cdd146108885780638da5cb5b1461089b5780638dd91a56146108a357806392f00233146108c757806394535b99146108da57806395d89b41146108ed5780639ab31a2d146108f55780639afc2be514610908578063a0bee56414610923578063a11ec70a14610936578063a22cb46514610949578063a3b2cca61461095c578063a47d29cb1461096f578063a65ff74c1461099b578063a87ac6191461079c578063abcbb7b4146109d9578063ac11fa1c146109e1578063acad012414610a01578063accd17f014610a14578063ad0305ce14610a1d57600080fd5b806328ec8f501161033057806328ec8f501461064f5780632b2741661461067c5780632b65e67d1461068f5780632b6cfc8d146106a25780632d9c0205146106b557806336c7c12c146106c857806337859963146106db57806338c8e468146106ee5780633949f9061461071a5780633e48e8481461072b57806342842e0e1461073e57806348337282146107515780634bbc4ff0146107645780634e1d64af146107775780634f029c391461079c5780635508fd52146107af578063621a1f74146107c35780636352211e146107d657806369d14faf146107e95780636c907b7f146107fc57806370a082311461080f578063715018a61461082257600080fd5b80611e3c146104245780615de5146104395780630132c6971461045f57806301856fd41461047257806301ffc9a71461048557806304143a5c146104a857806306fdde03146104b0578063081812fc146104c5578063095ea7b3146104f05780630c5b1ad4146105035780630d170673146105165780630e79c928146105295780630ea5613f1461053c5780630ebeb0ee1461058657806314fc8f2d146105af57806317df5366146105ca5780631b689c0b146105dd5780631e9bef46146105f05780632302cbda14610603578063230448b11461061657806323b872dd1461062957806325b75d681461063c575b600080fd5b6104376104323660046149fd565b610cdc565b005b61044c610447366004614a34565b610e2e565b6040519081526020015b60405180910390f35b61043761046d366004614a76565b6110d2565b6104376104803660046149fd565b611256565b610498610493366004614ac4565b61136e565b6040519015158152602001610456565b610437611399565b6104b8611421565b6040516104569190614b38565b6104d86104d3366004614b4b565b6114b3565b6040516001600160a01b039091168152602001610456565b6104376104fe366004614b64565b6114da565b610437610511366004614b90565b6115ef565b610437610524366004614c58565b61164e565b610437610537366004614c58565b611731565b61054f61054a366004614b4b565b6119ab565b60408051968752602087019590955292151593850193909352151560608401526080830191909152151560a082015260c001610456565b6104d8610594366004614b4b565b6000908152600d60205260409020546001600160a01b031690565b6104d873059edd72cd353df5106d2b9cc5ab83a52287ac3a81565b6008546104d8906001600160a01b031681565b61044c6105eb366004614b4b565b611a0e565b600b546104d8906001600160a01b031681565b610437610611366004614c9e565b611a1d565b610498610624366004614cd2565b611a77565b610437610637366004614d12565b611b23565b61043761064a366004614c58565b611b54565b61044c61065d366004614b4b565b6000908152600d6020526040902060010154600160a01b900460ff1690565b61043761068a366004614b90565b611c3a565b61043761069d366004614d53565b611ce5565b6104376106b0366004614b90565b611e73565b6104b86106c3366004614b4b565b611ed2565b6009546104d8906001600160a01b031681565b6104376106e9366004614c58565b611f77565b6104d86106fc366004614b4b565b6000908152600d60205260409020600101546001600160a01b031690565b600f546001600160a01b03166104d8565b610437610739366004614c58565b611ff8565b61043761074c366004614d12565b61209c565b61043761075f366004614b90565b6120b7565b610437610772366004614b4b565b612159565b6104b860405180604001604052806006815260200165076332e302e360d41b81525081565b61044c600f54600160a01b900460ff1690565b60135461049890600160f81b900460ff1681565b61044c6107d1366004614b4b565b61224a565b6104d86107e4366004614b4b565b6122b0565b6104376107f7366004614dba565b6122e5565b61043761080a366004614b90565b61242c565b61044c61081d366004614b90565b61248b565b610437612511565b610437610838366004614d53565b61252b565b61085061084b3660046149fd565b6127c1565b604080519687526001600160a01b039586166020880152860193909352908316606085015260808401521660a082015260c001610456565b6104b86108963660046149fd565b612878565b6104d8612929565b6108b66108b1366004614b4b565b612942565b604051610456959493929190614ddf565b6012546104d8906001600160a01b031681565b6010546104d8906001600160a01b031681565b6104b8612c36565b610437610903366004614b4b565b612c45565b6104d873a7d8d9ef8d8ce8992df33d8b8cf4aebabd5bd27081565b610437610931366004614b90565b612d16565b610437610944366004614b4b565b612dbf565b610437610957366004614e5a565b612e4a565b61043761096a366004614c58565b612e59565b6104d861097d366004614b4b565b6000908152600d60205260409020600201546001600160a01b031690565b6109ae6109a9366004614b4b565b612f45565b604080516001600160a01b039586168152949093166020850152918301526060820152608001610456565b6104b8612f9e565b61044c6109ef366004614b4b565b600e6020526000908152604090205481565b610437610a0f366004614c58565b61302c565b61044c60115481565b610498610a2b366004614b90565b6012546001600160a01b0390811691161490565b61044c610a4d366004614b4b565b6000908152600d6020526040902060020154600160a01b900460ff1690565b6104b86040518060400160405280600f81526020016e47656e417274373231436f7265563360881b81525081565b610437610aa8366004614e88565b613163565b6104d8610abb366004614b4b565b6132ab565b610437610ace366004614c58565b613323565b610437610ae1366004614ed7565b61340c565b600a5461044c565b610b01610afc366004614b4b565b613444565b604051610456929190614f56565b6007546104d8906001600160a01b031681565b610437610b303660046149fd565b613685565b6104b8610b43366004614b4b565b613785565b610437610b56366004614fda565b61388c565b610437610b69366004614b4b565b613a3a565b610437610b7c366004614b4b565b613b11565b600f546104d8906001600160a01b031681565b6013546001600160f81b031661044c565b610498610bb3366004615020565b613c87565b610bcb610bc6366004614b4b565b613cb5565b6040516104569392919061504e565b61044c610be8366004614b4b565b6000908152600d6020526040902054600160a01b900460ff1690565b610437610c12366004614b90565b613d81565b610c6f610c25366004614b4b565b6000908152600d60205260409020600281015481546001909201546001600160a01b03808316948482169460ff600160a01b95869004811695938516948490048116939091041690565b604080516001600160a01b039788168152958716602087015285019390935293166060830152608082019290925260a081019190915260c001610456565b6104d8613df7565b61044c7f000000000000000000000000000000000000000000000000000000000000000081565b81610ce681613e53565b610d0b5760405162461bcd60e51b8152600401610d0290615084565b60405180910390fd5b60008381526002602052604090206009546001600160a01b03163314610d6d5760405162461bcd60e51b815260206004820152601760248201527613db9b1e481c985b991bdb5a5e995c881b585e481cd95d604a1b6044820152606401610d02565b8054600160a01b900460a01b6001600160a01b03191615610dc95760405162461bcd60e51b8152602060048201526016602482015275151bdad95b881a185cda08185b1c9958591e481cd95d60521b6044820152606401610d02565b82610e0a5760405162461bcd60e51b8152602060048201526011602482015270139bc81e995c9bc81a185cda081cd95959607a1b6044820152606401610d02565b805460a09390931c600160a01b026001600160a01b03909316929092179091555050565b6012546000906001600160a01b03163314610e8b5760405162461bcd60e51b815260206004820152601e60248201527f4d757374206d696e742066726f6d206d696e74657220636f6e747261637400006044820152606401610d02565b6000838152600c60205260409020805462ffffff808216916001830191630100000090910416808310610f005760405162461bcd60e51b815260206004820152601f60248201527f4d757374206e6f7420657863656564206d617820696e766f636174696f6e73006044820152606401610d02565b8354600160881b900460ff1680610f3357506000878152600d60205260409020600201546001600160a01b038781169116145b610f7f5760405162461bcd60e51b815260206004820181905260248201527f50726f6a656374206d75737420657869737420616e64206265206163746976656044820152606401610d02565b8354600160901b900460ff161580610fb357506000878152600d60205260409020600201546001600160a01b038781169116145b610ff75760405162461bcd60e51b8152602060048201526015602482015274283ab931b430b9b2b99030b932903830bab9b2b21760591b6044820152606401610d02565b835462ffffff191662ffffff8381169182178655848116620f42408a02019190831690036110285761102888613e70565b6110328982613ec8565b600954604051635b140b8d60e11b8152600481018390526001600160a01b039091169063b628171a90602401600060405180830381600087803b15801561107857600080fd5b505af115801561108c573d6000803e3d6000fd5b50506040518392506001600160a01b038c1691507f0f6798a560793a54c3bcfe86a93cde1e73087d944c0ea20544137d412139688590600090a398975050505050505050565b6000828152600d602052604090206002015482906001600160a01b0316331461110d5760405162461bcd60e51b8152600401610d02906150b5565b6000838152600c60205260409020805462ffffff808216916301000000900481169085161061118a5760405162461bcd60e51b8152602060048201526024808201527f6d6178496e766f636174696f6e73206d6179206f6e6c79206265206465637265604482015263185cd95960e21b6064820152608401610d02565b808462ffffff1610156111f45760405162461bcd60e51b815260206004820152602c60248201527f4f6e6c79206d617820696e766f636174696f6e73206774652063757272656e7460448201526b20696e766f636174696f6e7360a01b6064820152608401610d02565b815465ffffff0000001916630100000062ffffff8616021782556040516d6d6178496e766f636174696f6e7360901b90869060008051602061578c83398151915290600090a3808462ffffff160361124f5761124f85613e70565b5050505050565b8161126081613ffa565b61127c5760405162461bcd60e51b8152600401610d02906150da565b6000838152600d6020526040902060020154839062615bf560e21b906001600160a01b03163314806112b457506112b4333083611a77565b6112d05760405162461bcd60e51b8152600401610d0290615104565b6000858152600c602052604090819020906112ee9086906001614094565b6113375760405162461bcd60e51b815260206004820152601a60248201527901b5d5cdd0818dbdb9d185a5b88195e1858dd1b1e481bdb9948160361b6044820152606401610d02565b60078101859055604051697363726970745479706560b01b90879060008051602061578c83398151915290600090a3505050505050565b60006001600160e01b03198216635d9dd7eb60e11b1480611393575061139382614107565b92915050565b6301050e9760e21b6113ac333083611a77565b6113c85760405162461bcd60e51b8152600401610d0290615139565b601354600160f81b900460ff16156114165760405162461bcd60e51b815260206004820152601160248201527020b63932b0b23c903337b93134b23232b760791b6044820152606401610d02565b61141e614157565b50565b60606000805461143090615169565b80601f016020809104026020016040519081016040528092919081815260200182805461145c90615169565b80156114a95780601f1061147e576101008083540402835291602001916114a9565b820191906000526020600020905b81548152906001019060200180831161148c57829003601f168201915b5050505050905090565b60006114be826141af565b506000908152600460205260409020546001600160a01b031690565b60006114e5826122b0565b9050806001600160a01b0316836001600160a01b0316036115525760405162461bcd60e51b815260206004820152602160248201527f4552433732313a20617070726f76616c20746f2063757272656e74206f776e656044820152603960f91b6064820152608401610d02565b336001600160a01b038216148061156e575061156e8133613c87565b6115e05760405162461bcd60e51b815260206004820152603e60248201527f4552433732313a20617070726f76652063616c6c6572206973206e6f7420746f60448201527f6b656e206f776e6572206e6f7220617070726f76656420666f7220616c6c00006064820152608401610d02565b6115ea83836141d4565b505050565b630316c6b560e21b611602333083611a77565b61161e5760405162461bcd60e51b8152600401610d0290615139565b816001600160a01b0381166116455760405162461bcd60e51b8152600401610d029061519d565b6115ea83614242565b8161165881613ffa565b6116745760405162461bcd60e51b8152600401610d02906150da565b6000838152600d60205260409020600201548390630d17067360e01b906001600160a01b03163314806116ad57506116ad333083611a77565b6116c95760405162461bcd60e51b8152600401610d0290615104565b8380516000036116eb5760405162461bcd60e51b8152600401610d02906151d2565b6000868152600c60205260409020600101611706868261526a565b50604051636e616d6560e01b90879060008051602061578c83398151915290600090a3505050505050565b8161173b81613ffa565b6117575760405162461bcd60e51b8152600401610d02906150da565b6000838152600d602052604090206002015483906301cf392560e31b906001600160a01b03163314806117905750611790333083611a77565b6117ac5760405162461bcd60e51b8152600401610d0290615104565b8380516000036117ce5760405162461bcd60e51b8152600401610d02906151d2565b84518590600b8111156118225760405162461bcd60e51b815260206004820152601c60248201527b41737065637420726174696f20666f726d617420746f6f206c6f6e6760201b6044820152606401610d02565b60008060005b8381101561190e57600085828151811061184457611844615323565b01602001516001600160f81b0319169050600360fc1b81108015906118775750603960f81b6001600160f81b0319821611155b156118865760019250506118fc565b6001600160f81b03198116601760f91b036118aa57836118aa5760019350506118fc565b60405162461bcd60e51b815260206004820152602160248201527f496d70726f7065726c7920666f726d61747465642061737065637420726174696044820152606f60f81b6064820152608401610d02565b806119068161534f565b915050611828565b508061195a5760405162461bcd60e51b815260206004820152601b60248201527a41737065637420726174696f20686173206e6f206e756d6265727360281b6044820152606401610d02565b60008a8152600c602052604090206008016119758a8261526a565b506040516a617370656374526174696f60a81b908b9060008051602061578c83398151915290600090a350505050505050505050565b6000818152600c60205260408120805462ffffff808216936301000000830490911692600160881b830460ff90811693600160901b810490911692600160481b9091046001600160401b031691611a0188613ffa565b1591505091939550919395565b6000611393620f42408361537e565b63118165ed60e11b611a30333083611a77565b611a4c5760405162461bcd60e51b8152600401610d0290615139565b818051600003611a6e5760405162461bcd60e51b8152600401610d02906151d2565b6115ea83614298565b600080611a82612929565b6001600160a01b031614158015611b1b5750600b546040516217798b60e61b81526001600160a01b03868116600483015285811660248301526001600160e01b031985166044830152909116906305de62c0906064016020604051808303816000875af1158015611af7573d6000803e3d6000fd5b505050506040513d601f19601f82011682018060405250810190611b1b9190615392565b949350505050565b611b2d33826142d2565b611b495760405162461bcd60e51b8152600401610d02906153af565b6115ea838383614330565b81611b5e81613ffa565b611b7a5760405162461bcd60e51b8152600401610d02906150da565b6000838152600d602052604090206002015483906304b6ebad60e31b906001600160a01b0316331480611bb35750611bb3333083611a77565b611bcf5760405162461bcd60e51b8152600401610d0290615104565b838051600003611bf15760405162461bcd60e51b8152600401610d02906151d2565b6000868152600c60205260409020600501611c0c868261526a565b50604051666c6963656e736560c81b90879060008051602061578c83398151915290600090a3505050505050565b631593a0b360e11b611c4d333083611a77565b611c695760405162461bcd60e51b8152600401610d0290615139565b816001600160a01b038116611c905760405162461bcd60e51b8152600401610d029061519d565b600880546001600160a01b0319166001600160a01b03851617905560405178646570656e64656e637952656769737472794164647265737360381b9060008051602061576c83398151915290600090a2505050565b857f00000000000000000000000000000000000000000000000000000000000000008110158015611d2057506013546001600160f81b031681105b611d3c5760405162461bcd60e51b8152600401610d02906153fd565b6000878152600d602052604090206002015487906001600160a01b03163314611d775760405162461bcd60e51b8152600401610d02906150b5565b866001600160a01b038116611d9e5760405162461bcd60e51b8152600401610d029061519d565b60648611158015611db0575060648411155b611dea5760405162461bcd60e51b815260206004820152600b60248201526a4d6178206f66203130302560a81b6044820152606401610d02565b8787878787604051602001611e03959493929190615430565b60408051601f19818403018152828252805160209182012060008d8152600e9092529190205589907f6ff7d102bb3657a26dcbbcd299d821a066718a7cf76ae7cd98279f18b74da8ac90611e60908b908b908b908b908b90615430565b60405180910390a2505050505050505050565b632b6cfc8d60e01b611e86333083611a77565b611ea25760405162461bcd60e51b8152600401610d0290615139565b816001600160a01b038116611ec95760405162461bcd60e51b8152600401610d029061519d565b6115ea836144cc565b6000818152600c60205260409020600601805460609190611ef290615169565b80601f0160208091040260200160405190810160405280929190818152602001828054611f1e90615169565b8015611f6b5780601f10611f4057610100808354040283529160200191611f6b565b820191906000526020600020905b815481529060010190602001808311611f4e57829003601f168201915b50505050509050919050565b6000828152600d602052604090206002015482906001600160a01b03163314611fb25760405162461bcd60e51b8152600401610d02906150b5565b6000838152600c60205260409020600401611fcd838261526a565b50604051667765627369746560c81b90849060008051602061578c83398151915290600090a3505050565b6000828152600d602052604090206002015482906001600160a01b031633146120335760405162461bcd60e51b8152600401610d02906150b5565b8180516000036120555760405162461bcd60e51b8152600401610d02906151d2565b6000848152600c60205260409020600601612070848261526a565b50604051666261736555524960c81b90859060008051602061578c83398151915290600090a350505050565b6115ea8383836040518060200160405280600081525061340c565b632419b94160e11b6120ca333083611a77565b6120e65760405162461bcd60e51b8152600401610d0290615139565b816001600160a01b03811661210d5760405162461bcd60e51b8152600401610d029061519d565b601280546001600160a01b0319166001600160a01b0385169081179091556040517fad0f299ec81a386c98df0ac27dae11dd020ed1b56963c53a7292e7a3a314539a90600090a2505050565b6304bbc4ff60e41b61216c333083611a77565b6121885760405162461bcd60e51b8152600401610d0290615139565b60198211156121f85760405162461bcd60e51b815260206004820152603660248201527f4d6178206f66204152545f424c4f434b535f4d41585f5052494d4152595f5341604482015275131154d7d4115490d153951051d1481c195c98d95b9d60521b6064820152608401610d02565b600f805460ff60a01b1916600160a01b60ff85160217905560405179617274626c6f636b735072696d61727950657263656e7461676560301b9060008051602061576c83398151915290600090a25050565b600081815260026020526040812054600160a01b900460a01b6001600160a01b03198116820361227d5750600092915050565b604080516001600160a01b0319831660208201520160405160208183030381529060405280519060200120915050919050565b6000818152600260205260408120546001600160a01b0316806113935760405162461bcd60e51b8152600401610d0290615463565b817f0000000000000000000000000000000000000000000000000000000000000000811015801561232057506013546001600160f81b031681105b61233c5760405162461bcd60e51b8152600401610d02906153fd565b826369d14faf60e01b612350333083611a77565b8061238f57506000612360612929565b6001600160a01b031614801561238f57506000828152600d60205260409020600201546001600160a01b031633145b6123ab5760405162461bcd60e51b8152600401610d0290615495565b836001600160a01b0381166123d25760405162461bcd60e51b8152600401610d029061519d565b6000868152600d602052604080822060020180546001600160a01b0319166001600160a01b038916179055516c6172746973744164647265737360981b91889160008051602061578c8339815191529190a3505050505050565b636c907b7f60e01b61243f333083611a77565b61245b5760405162461bcd60e51b8152600401610d0290615139565b816001600160a01b0381166124825760405162461bcd60e51b8152600401610d029061519d565b6115ea83614523565b60006001600160a01b0382166124f55760405162461bcd60e51b815260206004820152602960248201527f4552433732313a2061646472657373207a65726f206973206e6f7420612076616044820152683634b21037bbb732b960b91b6064820152608401610d02565b506001600160a01b031660009081526003602052604090205490565b6125196145aa565b612521614157565b612529614609565b565b857f0000000000000000000000000000000000000000000000000000000000000000811015801561256657506013546001600160f81b031681105b6125825760405162461bcd60e51b8152600401610d02906153fd565b866376ee6fab60e01b612596333083611a77565b806125d5575060006125a6612929565b6001600160a01b03161480156125d557506000828152600d60205260409020600201546001600160a01b031633145b6125f15760405162461bcd60e51b8152600401610d0290615495565b876001600160a01b0381166126185760405162461bcd60e51b8152600401610d029061519d565b8888888888604051602001612631959493929190615430565b60408051601f19818403018152918152815160209283012060008d8152600e909352912054146126a05760405162461bcd60e51b815260206004820152601a602482015279135d5cdd081b585d18da08185c9d1a5cdd081c1c9bdc1bdcd85b60321b6044820152606401610d02565b6000600d60008c81526020019081526020016000209050898160020160006101000a8154816001600160a01b0302191690836001600160a01b03160217905550888160000160006101000a8154816001600160a01b0302191690836001600160a01b03160217905550878160020160146101000a81548160ff021916908360ff160217905550868160010160006101000a8154816001600160a01b0302191690836001600160a01b03160217905550858160010160146101000a81548160ff021916908360ff1602179055506000801b600e60008d8152602001908152602001600020819055508a7fc582d05e1da854143bd3271ef4529d79cf5a69fc6057ae320f357acfd291b73860405160405180910390a25050505050505050505050565b6000828152600d60205260408120600f5482918291829182918291906064906127f490600160a01b900460ff168a6154ed565b6127fe919061537e565b60028201549097508789039060649061282190600160a01b900460ff16836154ed565b61282b919061537e565b600f546001600160a01b03169750808203965093508084146128585760028201546001600160a01b031694505b831561286c5781546001600160a01b031692505b50509295509295509295565b6000828152600c6020908152604080832084845260090190915290208054606091906128a390615169565b80601f01602080910402602001604051908101604052809291908181526020018280546128cf90615169565b801561291c5780601f106128f15761010080835404028352916020019161291c565b820191906000526020600020905b8154815290600101906020018083116128ff57829003601f168201915b5050505050905092915050565b600061293d6006546001600160a01b031690565b905090565b60608060608060606000600c6000888152602001908152602001600020905080600101805461297090615169565b80601f016020809104026020016040519081016040528092919081815260200182805461299c90615169565b80156129e95780601f106129be576101008083540402835291602001916129e9565b820191906000526020600020905b8154815290600101906020018083116129cc57829003601f168201915b505050505095508060020180546129ff90615169565b80601f0160208091040260200160405190810160405280929190818152602001828054612a2b90615169565b8015612a785780601f10612a4d57610100808354040283529160200191612a78565b820191906000526020600020905b815481529060010190602001808311612a5b57829003601f168201915b50505050509450806003018054612a8e90615169565b80601f0160208091040260200160405190810160405280929190818152602001828054612aba90615169565b8015612b075780601f10612adc57610100808354040283529160200191612b07565b820191906000526020600020905b815481529060010190602001808311612aea57829003601f168201915b50505050509350806004018054612b1d90615169565b80601f0160208091040260200160405190810160405280929190818152602001828054612b4990615169565b8015612b965780601f10612b6b57610100808354040283529160200191612b96565b820191906000526020600020905b815481529060010190602001808311612b7957829003601f168201915b50505050509250806005018054612bac90615169565b80601f0160208091040260200160405190810160405280929190818152602001828054612bd890615169565b8015612c255780601f10612bfa57610100808354040283529160200191612c25565b820191906000526020600020905b815481529060010190602001808311612c0857829003601f168201915b505050505091505091939590929450565b60606001805461143090615169565b639ab31a2d60e01b612c58333083611a77565b612c745760405162461bcd60e51b8152600401610d0290615139565b612710821115612cdc5760405162461bcd60e51b815260206004820152602d60248201527f4d6178206f66204152545f424c4f434b535f4d41585f5345434f4e444152595f60448201526c53414c45535f4250532042505360981b6064820152608401610d02565b601182905560405174617274626c6f636b735365636f6e6461727942505360581b9060008051602061576c83398151915290600090a25050565b63282fb95960e21b612d29333083611a77565b612d455760405162461bcd60e51b8152600401610d0290615139565b816001600160a01b038116612d6c5760405162461bcd60e51b8152600401610d029061519d565b600780546001600160a01b0319166001600160a01b038516179055604051766375726174696f6e52656769737472794164647265737360481b9060008051602061576c83398151915290600090a2505050565b6000818152600d602052604090206002015481906001600160a01b03163314612dfa5760405162461bcd60e51b8152600401610d02906150b5565b6000828152600c6020526040808220805460ff60901b198116600160901b9182900460ff161590910217905551651c185d5cd95960d21b91849160008051602061578c8339815191529190a35050565b612e5533838361461b565b5050565b612e6282613ffa565b612e7d57612e7833306351d9665360e11b611a77565b612e9b565b6000828152600d60205260409020600201546001600160a01b031633145b612efc5760405162461bcd60e51b815260206004820152602c60248201527f4f6e6c7920617274697374207768656e20756e6c6f636b65642c206f776e657260448201526b081dda195b881b1bd8dad95960a21b6064820152608401610d02565b6000828152600c60205260409020600301612f17828261526a565b506040516a3232b9b1b934b83a34b7b760a91b90839060008051602061578c83398151915290600090a35050565b6000806000806000612f5686611a0e565b6000908152600d602052604090206002810154600182015491546001600160a01b0391821699918316985060ff600160a01b9384900481169850929004909116945092505050565b60148054612fab90615169565b80601f0160208091040260200160405190810160405280929190818152602001828054612fd790615169565b80156130245780601f10612ff957610100808354040283529160200191613024565b820191906000526020600020905b81548152906001019060200180831161300757829003601f168201915b505050505081565b8161303681613ffa565b6130525760405162461bcd60e51b8152600401610d02906150da565b6000838152600d60205260409020600201548390632b2b404960e21b906001600160a01b031633148061308b575061308b333083611a77565b6130a75760405162461bcd60e51b8152600401610d0290615104565b8380516000036130c95760405162461bcd60e51b8152600401610d02906151d2565b6000868152600c602090815260408083208054600160301b900462ffffff168452600981019092529091206130fe878261526a565b50805461311890600160301b900462ffffff16600161550c565b815462ffffff91909116600160301b0262ffffff60301b19909116178155604051651cd8dc9a5c1d60d21b90889060008051602061578c83398151915290600090a350505050505050565b8261316d81613ffa565b6131895760405162461bcd60e51b8152600401610d02906150da565b6000848152600d6020526040902060020154849063b1656ba360e01b906001600160a01b03163314806131c257506131c2333083611a77565b6131de5760405162461bcd60e51b8152600401610d0290615104565b8380516000036132005760405162461bcd60e51b8152600401610d02906151d2565b6000878152600c602052604090208054600160301b900462ffffff1687106132625760405162461bcd60e51b81526020600482015260156024820152747363726970744964206f7574206f662072616e676560581b6044820152606401610d02565b6000878152600982016020526040902061327c878261526a565b50604051651cd8dc9a5c1d60d21b90899060008051602061578c83398151915290600090a35050505050505050565b600a5460009082106132f55760405162461bcd60e51b8152602060048201526013602482015272496e646578206f7574206f6620626f756e647360681b6044820152606401610d02565b600a828154811061330857613308615323565b6000918252602090912001546001600160a01b031692915050565b8161332d81613ffa565b6133495760405162461bcd60e51b8152600401610d02906150da565b6000838152600d60205260409020600201548390635bd827d760e11b906001600160a01b03163314806133825750613382333083611a77565b61339e5760405162461bcd60e51b8152600401610d0290615104565b8380516000036133c05760405162461bcd60e51b8152600401610d02906151d2565b6000868152600c602052604090206002016133db868261526a565b50604051696172746973744e616d6560b01b90879060008051602061578c83398151915290600090a3505050505050565b61341633836142d2565b6134325760405162461bcd60e51b8152600401610d02906153af565b61343e848484846146e5565b50505050565b6060808261345181613e53565b61346d5760405162461bcd60e51b8152600401610d0290615084565b60408051600380825260808201909252906020820160608036833750506040805160038082526080820190925292955090506020820160608036833701905050915060006134ba85611a0e565b6000818152600d6020526040812080546001820154939450909260ff600160a01b92839004811693929091041690826134f483606461552f565b6134fe91906154ed565b9050600061350c84846154ed565b601154909150600083156135825760028701548b516001600160a01b03909116908c908390811061353f5761353f615323565b6001600160a01b0390921660209283029190910190910152838a826135638161534f565b93508151811061357557613575615323565b6020026020010181815250505b82156135f05760018701548b516001600160a01b03909116908c90839081106135ad576135ad615323565b6001600160a01b0390921660209283029190910190910152828a826135d18161534f565b9350815181106135e3576135e3615323565b6020026020010181815250505b811561365c576010548b516001600160a01b03909116908c908390811061361957613619615323565b6001600160a01b0390921660209283029190910190910152818a8261363d8161534f565b93508151811061364f5761364f615323565b6020026020010181815250505b80600311156136775780600303808c51038c52808b51038b52505b505050505050505050915091565b6000828152600d602052604090206002015482906001600160a01b031633146136c05760405162461bcd60e51b8152600401610d02906150b5565b605f8211156137305760405162461bcd60e51b815260206004820152603660248201527f4d6178206f66204152544953545f4d41585f5345434f4e444152595f524f594160448201527513151657d4115490d153951051d1481c195c98d95b9d60521b6064820152608401610d02565b6000838152600d6020526040808220805460ff60a01b1916600160a01b60ff8716021790555170726f79616c747950657263656e7461676560781b91859160008051602061578c8339815191529190a3505050565b60608161379181613e53565b6137ad5760405162461bcd60e51b8152600401610d0290615084565b6000600c60006137bc86611a0e565b815260200190815260200160002060060180546137d890615169565b80601f016020809104026020016040519081016040528092919081815260200182805461380490615169565b80156138515780601f1061382657610100808354040283529160200191613851565b820191906000526020600020905b81548152906001019060200180831161383457829003601f168201915b505050505090508061386285614718565b604051602001613873929190615542565b6040516020818303038152906040529250505b50919050565b63cc90e72560e01b61389f333083611a77565b6138bb5760405162461bcd60e51b8152600401610d0290615139565b8280516000036138dd5760405162461bcd60e51b8152600401610d02906151d2565b826001600160a01b0381166139045760405162461bcd60e51b8152600401610d029061519d565b601354600160f81b900460ff16156139575760405162461bcd60e51b81526020600482015260166024820152752732bb90383937b532b1ba39903337b93134b23232b760511b6044820152606401610d02565b6013546001600160f81b03166000818152600d6020908152604080832060020180546001600160a01b0319166001600160a01b038a16179055600c90915290206001016139a4878261526a565b506000818152600c60205260409020805465ffffff00000060ff60901b011916613d09601e1b600160901b011781556006016139e1601482615571565b506139ed81600161563d565b601380546001600160f81b0319166001600160f81b03929092169190911790556040516618dc99585d195960ca1b90829060008051602061578c83398151915290600090a3505050505050565b63340f0e4360e21b613a4d333083611a77565b613a695760405162461bcd60e51b8152600401610d0290615139565b817f00000000000000000000000000000000000000000000000000000000000000008110158015613aa457506013546001600160f81b031681105b613ac05760405162461bcd60e51b8152600401610d02906153fd565b6000838152600c6020526040808220805460ff60881b198116600160881b9182900460ff1615909102179055516561637469766560d01b91859160008051602061578c8339815191529190a3505050565b80613b1b81613ffa565b613b375760405162461bcd60e51b8152600401610d02906150da565b6000828152600d6020526040902060020154829063db2ff86160e01b906001600160a01b0316331480613b705750613b70333083611a77565b613b8c5760405162461bcd60e51b8152600401610d0290615104565b6000848152600c602052604090208054600160301b900462ffffff16613bf45760405162461bcd60e51b815260206004820152601e60248201527f746865726520617265206e6f207363726970747320746f2072656d6f766500006044820152606401610d02565b80546009820190600090613c1690600190600160301b900462ffffff1661565d565b62ffffff1681526020019081526020016000206000613c3591906149af565b805460001962ffffff600160301b808404821692909201160262ffffff60301b19909116178155604051651cd8dc9a5c1d60d21b90869060008051602061578c83398151915290600090a35050505050565b6001600160a01b03918216600090815260056020908152604080832093909416825291909152205460ff1690565b6000818152600c60205260408120600781015460609283929091613cd890614818565b9350806008018054613ce990615169565b80601f0160208091040260200160405190810160405280929190818152602001828054613d1590615169565b8015613d625780601f10613d3757610100808354040283529160200191613d62565b820191906000526020600020905b815481529060010190602001808311613d4557829003601f168201915b5050935496989297505050600160301b90940462ffffff169392505050565b613d896145aa565b6001600160a01b038116613dee5760405162461bcd60e51b815260206004820152602660248201527f4f776e61626c653a206e6577206f776e657220697320746865207a65726f206160448201526564647265737360d01b6064820152608401610d02565b61141e81614883565b600061293d612929565b600680546001600160a01b038381166001600160a01b0319831681179093556040519116919082907f8be0079c531659141344cd1fd0a4f28419497f9722a3daafe3b4186f6b6457e090600090a35050565b6000908152600260205260409020546001600160a01b0316151590565b6000818152600c6020526040808220805467ffffffffffffffff60481b1916600160481b426001600160401b031602179055516818dbdb5c1b195d195960ba1b91839160008051602061578c8339815191529190a350565b6001600160a01b038216613f1e5760405162461bcd60e51b815260206004820181905260248201527f4552433732313a206d696e7420746f20746865207a65726f20616464726573736044820152606401610d02565b613f2781613e53565b15613f735760405162461bcd60e51b815260206004820152601c60248201527b115490cdcc8c4e881d1bdad95b88185b1c9958591e481b5a5b9d195960221b6044820152606401610d02565b6001600160a01b0382166000908152600360205260408120805460019290613f9c908490615679565b909155505060008181526002602052604080822080546001600160a01b0319166001600160a01b03861690811790915590518392907fddf252ad1be2c89b69c2b068fc378daa952ba7f163c4a11628f55a4df523b3ef908290a45050565b6000817f0000000000000000000000000000000000000000000000000000000000000000811015801561403757506013546001600160f81b031681105b6140535760405162461bcd60e51b8152600401610d02906153fd565b6000838152600c6020526040902054600160481b90046001600160401b03168015808061408b57506224ea00614089834261552f565b105b95945050505050565b600080805b60208160ff1610156140f3576000868260ff16602081106140bc576140bc615323565b1a905080158015906140d1575060808160ff16105b156140ea578560ff168160ff16036140ea578260010192505b50600101614099565b8360ff168260ff1614925050509392505050565b60006001600160e01b031982166380ac58cd60e01b148061413857506001600160e01b03198216635b5e139f60e01b145b8061139357506301ffc9a760e01b6001600160e01b0319831614611393565b601354600160f81b900460ff1661252957601380546001600160f81b0316600160f81b179055604051733732bba83937b532b1ba39a337b93134b23232b760611b9060008051602061576c83398151915290600090a2565b6141b881613e53565b61141e5760405162461bcd60e51b8152600401610d0290615463565b600081815260046020526040902080546001600160a01b0319166001600160a01b0384169081179091558190614209826122b0565b6001600160a01b03167f8c5be1e5ebec7d5bd14f71427d1e84f3dd0314c0f7b2291e5b200ac8c7c3b92560405160405180910390a45050565b600f80546001600160a01b0319166001600160a01b0383161790556040517b617274626c6f636b735072696d61727953616c65734164647265737360201b9060008051602061576c83398151915290600090a250565b60146142a4828261526a565b506040516d64656661756c744261736555524960901b9060008051602061576c83398151915290600090a250565b6000806142de836122b0565b9050806001600160a01b0316846001600160a01b0316148061430557506143058185613c87565b80611b1b5750836001600160a01b031661431e846114b3565b6001600160a01b031614949350505050565b826001600160a01b0316614343826122b0565b6001600160a01b0316146143a75760405162461bcd60e51b815260206004820152602560248201527f4552433732313a207472616e736665722066726f6d20696e636f72726563742060448201526437bbb732b960d91b6064820152608401610d02565b6001600160a01b0382166144095760405162461bcd60e51b8152602060048201526024808201527f4552433732313a207472616e7366657220746f20746865207a65726f206164646044820152637265737360e01b6064820152608401610d02565b6144146000826141d4565b6001600160a01b038316600090815260036020526040812080546001929061443d90849061552f565b90915550506001600160a01b038216600090815260036020526040812080546001929061446b908490615679565b909155505060008181526002602052604080822080546001600160a01b0319166001600160a01b0386811691821790925591518493918716917fddf252ad1be2c89b69c2b068fc378daa952ba7f163c4a11628f55a4df523b3ef91a4505050565b601080546001600160a01b0319166001600160a01b0383161790556040517f617274626c6f636b735365636f6e6461727953616c65734164647265737300009060008051602061576c83398151915290600090a250565b600980546001600160a01b0383166001600160a01b03199182168117909255600a805460018101825560009182527fc65a7bb8d6351c1cf70c95a316cc6a92839c986682d98bc35f958f4883f9d2a801805490921690921790556040517072616e646f6d697a65724164647265737360781b9160008051602061576c83398151915291a250565b336145b3612929565b6001600160a01b0316146125295760405162461bcd60e51b815260206004820181905260248201527f4f776e61626c653a2063616c6c6572206973206e6f7420746865206f776e65726044820152606401610d02565b6146116145aa565b6125296000614883565b816001600160a01b0316836001600160a01b0316036146785760405162461bcd60e51b815260206004820152601960248201527822a9219b99189d1030b8383937bb32903a379031b0b63632b960391b6044820152606401610d02565b6001600160a01b03838116600081815260056020908152604080832094871680845294825291829020805460ff191686151590811790915591519182527f17307eab39ab6107e8899845ad3d59bd9653f200f220920489ca2b5937696c31910160405180910390a3505050565b6146f0848484614330565b6146fc848484846148ae565b61343e5760405162461bcd60e51b8152600401610d029061568c565b60608160000361473f5750506040805180820190915260018152600360fc1b602082015290565b8160005b811561476957806147538161534f565b91506147629050600a8361537e565b9150614743565b6000816001600160401b0381111561478357614783614bad565b6040519080825280601f01601f1916602001820160405280156147ad576020820181803683370190505b5090505b8415611b1b576147c260018361552f565b91506147cf600a866156de565b6147da906030615679565b60f81b8183815181106147ef576147ef615323565b60200101906001600160f81b031916908160001a905350614811600a8661537e565b94506147b1565b606060005b828160ff166020811061483257614832615323565b1a60f81b6001600160f81b03191615801590614851575060208160ff16105b156148685780614860816156f2565b91505061481d565b60405191506040820160405280825282602083015250919050565b61488c81613e01565b600b80546001600160a01b0319166001600160a01b0392909216919091179055565b60006001600160a01b0384163b156149a457604051630a85bd0160e11b81526001600160a01b0385169063150b7a02906148f2903390899088908890600401615711565b6020604051808303816000875af192505050801561492d575060408051601f3d908101601f1916820190925261492a9181019061574e565b60015b61498a573d80801561495b576040519150601f19603f3d011682016040523d82523d6000602084013e614960565b606091505b5080516000036149825760405162461bcd60e51b8152600401610d029061568c565b805181602001fd5b6001600160e01b031916630a85bd0160e11b149050611b1b565b506001949350505050565b5080546149bb90615169565b6000825580601f106149cb575050565b601f01602090049060005260206000209081019061141e91905b808211156149f957600081556001016149e5565b5090565b60008060408385031215614a1057600080fd5b50508035926020909101359150565b6001600160a01b038116811461141e57600080fd5b600080600060608486031215614a4957600080fd5b8335614a5481614a1f565b9250602084013591506040840135614a6b81614a1f565b809150509250925092565b60008060408385031215614a8957600080fd5b82359150602083013562ffffff81168114614aa357600080fd5b809150509250929050565b6001600160e01b03198116811461141e57600080fd5b600060208284031215614ad657600080fd5b8135614ae181614aae565b9392505050565b60005b83811015614b03578181015183820152602001614aeb565b50506000910152565b60008151808452614b24816020860160208601614ae8565b601f01601f19169290920160200192915050565b602081526000614ae16020830184614b0c565b600060208284031215614b5d57600080fd5b5035919050565b60008060408385031215614b7757600080fd5b8235614b8281614a1f565b946020939093013593505050565b600060208284031215614ba257600080fd5b8135614ae181614a1f565b634e487b7160e01b600052604160045260246000fd5b60006001600160401b0380841115614bdd57614bdd614bad565b604051601f8501601f19908116603f01168101908282118183101715614c0557614c05614bad565b81604052809350858152868686011115614c1e57600080fd5b858560208301376000602087830101525050509392505050565b600082601f830112614c4957600080fd5b614ae183833560208501614bc3565b60008060408385031215614c6b57600080fd5b8235915060208301356001600160401b03811115614c8857600080fd5b614c9485828601614c38565b9150509250929050565b600060208284031215614cb057600080fd5b81356001600160401b03811115614cc657600080fd5b611b1b84828501614c38565b600080600060608486031215614ce757600080fd5b8335614cf281614a1f565b92506020840135614d0281614a1f565b91506040840135614a6b81614aae565b600080600060608486031215614d2757600080fd5b8335614d3281614a1f565b92506020840135614d4281614a1f565b929592945050506040919091013590565b60008060008060008060c08789031215614d6c57600080fd5b863595506020870135614d7e81614a1f565b94506040870135614d8e81614a1f565b9350606087013592506080870135614da581614a1f565b8092505060a087013590509295509295509295565b60008060408385031215614dcd57600080fd5b823591506020830135614aa381614a1f565b60a081526000614df260a0830188614b0c565b8281036020840152614e048188614b0c565b90508281036040840152614e188187614b0c565b90508281036060840152614e2c8186614b0c565b90508281036080840152614e408185614b0c565b98975050505050505050565b801515811461141e57600080fd5b60008060408385031215614e6d57600080fd5b8235614e7881614a1f565b91506020830135614aa381614e4c565b600080600060608486031215614e9d57600080fd5b833592506020840135915060408401356001600160401b03811115614ec157600080fd5b614ecd86828701614c38565b9150509250925092565b60008060008060808587031215614eed57600080fd5b8435614ef881614a1f565b93506020850135614f0881614a1f565b92506040850135915060608501356001600160401b03811115614f2a57600080fd5b8501601f81018713614f3b57600080fd5b614f4a87823560208401614bc3565b91505092959194509250565b604080825283519082018190526000906020906060840190828701845b82811015614f985781516001600160a01b031684529284019290840190600101614f73565b5050508381038285015284518082528583019183019060005b81811015614fcd57835183529284019291840191600101614fb1565b5090979650505050505050565b60008060408385031215614fed57600080fd5b82356001600160401b0381111561500357600080fd5b61500f85828601614c38565b9250506020830135614aa381614a1f565b6000806040838503121561503357600080fd5b823561503e81614a1f565b91506020830135614aa381614a1f565b6060815260006150616060830186614b0c565b82810360208401526150738186614b0c565b915050826040830152949350505050565b602080825260179082015276151bdad95b88125108191bd95cc81b9bdd08195e1a5cdd604a1b604082015260600190565b6020808252600b908201526a13db9b1e48185c9d1a5cdd60aa1b604082015260600190565b60208082526010908201526f13db9b1e481a59881d5b9b1bd8dad95960821b604082015260600190565b6020808252818101527f4f6e6c7920617274697374206f722041646d696e2041434c20616c6c6f776564604082015260600190565b60208082526016908201527513db9b1e4810591b5a5b881050d308185b1b1bddd95960521b604082015260600190565b600181811c9082168061517d57607f821691505b60208210810361388657634e487b7160e01b600052602260045260246000fd5b6020808252601b908201527a4d75737420696e707574206e6f6e2d7a65726f206164647265737360281b604082015260600190565b6020808252601b908201527a4d75737420696e707574206e6f6e2d656d70747920737472696e6760281b604082015260600190565b601f8211156115ea57600081815260208120601f850160051c8101602086101561522e5750805b601f850160051c820191505b8181101561524d5782815560010161523a565b505050505050565b600019600383901b1c191660019190911b1790565b81516001600160401b0381111561528357615283614bad565b615297816152918454615169565b84615207565b602080601f8311600181146152c657600084156152b45750858301515b6152be8582615255565b86555061524d565b600085815260208120601f198616915b828110156152f5578886015182559484019460019091019084016152d6565b50858210156153135787850151600019600388901b60f8161c191681555b5050505050600190811b01905550565b634e487b7160e01b600052603260045260246000fd5b634e487b7160e01b600052601160045260246000fd5b60006001820161536157615361615339565b5060010190565b634e487b7160e01b600052601260045260246000fd5b60008261538d5761538d615368565b500490565b6000602082840312156153a457600080fd5b8151614ae181614e4c565b6020808252602e908201527f4552433732313a2063616c6c6572206973206e6f7420746f6b656e206f776e6560408201526d1c881b9bdc88185c1c1c9bdd995960921b606082015260800190565b602080825260199082015278141c9bda9958dd08125108191bd95cc81b9bdd08195e1a5cdd603a1b604082015260600190565b6001600160a01b039586168152938516602085015260408401929092529092166060820152608081019190915260a00190565b602080825260189082015277115490cdcc8c4e881a5b9d985b1a59081d1bdad95b88125160421b604082015260600190565b60208082526038908201527f4f6e6c792041646d696e2041434c20616c6c6f7765642c206f722061727469736040820152771d081a59881bdddb995c881a185cc81c995b9bdd5b98d95960421b606082015260800190565b600081600019048311821515161561550757615507615339565b500290565b62ffffff81811683821601908082111561552857615528615339565b5092915050565b8181038181111561139357611393615339565b60008351615554818460208801614ae8565b835190830190615568818360208801614ae8565b01949350505050565b81810361557c575050565b6155868254615169565b6001600160401b0381111561559d5761559d614bad565b6155ab816152918454615169565b6000601f8211600181146155d957600083156155c75750848201545b6155d18482615255565b85555061124f565b600085815260209020601f19841690600086815260209020845b8381101561561357828601548255600195860195909101906020016155f3565b50858310156153135793015460001960f8600387901b161c19169092555050600190811b01905550565b6001600160f81b0381811683821601908082111561552857615528615339565b62ffffff82811682821603908082111561552857615528615339565b8082018082111561139357611393615339565b60208082526032908201527f4552433732313a207472616e7366657220746f206e6f6e20455243373231526560408201527131b2b4bb32b91034b6b83632b6b2b73a32b960711b606082015260800190565b6000826156ed576156ed615368565b500690565b600060ff821660ff810361570857615708615339565b60010192915050565b6001600160a01b038581168252841660208201526040810183905260806060820181905260009061574490830184614b0c565b9695505050505050565b60006020828403121561576057600080fd5b8151614ae181614aae56fe8b810f233ce7ee6e962ab4d98bf0277751de1f5589de3dcc812ac2047994d009b96a30340e86d03ce4be42f94ac02d7b27b4a4cdae942beb69026718dfe66afca264697066735822122068ae4c7db2b818cc43ddab4c0e9292ae6ad095f4f0d53c23f03ce462fa6d7df564736f6c634300081000338b810f233ce7ee6e962ab4d98bf0277751de1f5589de3dcc812ac2047994d009",
  "linkReferences": {},
  "deployedLinkReferences": {}
}