{
  "_format": "hh-sol-artifact-1",
  "contractName": "GenArt721FilteredMinter",
  "sourceName": "contracts/minter-suite/GenArt721FilteredMinter.sol",
  "abi": [
    {
      "inputs": [
        {
          "internalType": "address",
          "name": "_genArt721Address",
          "type": "address"
        },
        {
          "internalType": "address",
          "name": "_minterFilter",
          "type": "address"
        }
      ],
      "stateMutability": "nonpayable",
      "type": "constructor"
    },
    {
      "anonymous": false,
      "inputs": [
        {
          "indexed": false,
          "internalType": "uint256",
          "name": "_projectId",
          "type": "uint256"
        },
        {
          "indexed": false,
          "internalType": "bool",
          "name": "_purchaseToDisabled",
          "type": "bool"
        }
      ],
      "name": "PurchaseToDisabledUpdated",
      "type": "event"
    },
    {
      "inputs": [],
      "name": "artblocksContract",
      "outputs": [
        {
          "internalType": "contract IGenArt721CoreContract",
          "name": "",
          "type": "address"
        }
      ],
      "stateMutability": "view",
      "type": "function"
    },
    {
      "inputs": [
        {
          "internalType": "uint256",
          "name": "_projectId",
          "type": "uint256"
        }
      ],
      "name": "checkYourAllowanceOfProjectERC20",
      "outputs": [
        {
          "internalType": "uint256",
          "name": "remaining",
          "type": "uint256"
        }
      ],
      "stateMutability": "view",
      "type": "function"
    },
    {
      "inputs": [
        {
          "internalType": "uint256",
          "name": "",
          "type": "uint256"
        }
      ],
      "name": "contractMintable",
      "outputs": [
        {
          "internalType": "bool",
          "name": "",
          "type": "bool"
        }
      ],
      "stateMutability": "view",
      "type": "function"
    },
    {
      "inputs": [
        {
          "internalType": "uint256",
          "name": "_projectId",
          "type": "uint256"
        }
      ],
      "name": "getYourBalanceOfProjectERC20",
      "outputs": [
        {
          "internalType": "uint256",
          "name": "balance",
          "type": "uint256"
        }
      ],
      "stateMutability": "view",
      "type": "function"
    },
    {
      "inputs": [],
      "name": "minterFilter",
      "outputs": [
        {
          "internalType": "contract IMinterFilter",
          "name": "",
          "type": "address"
        }
      ],
      "stateMutability": "view",
      "type": "function"
    },
    {
      "inputs": [],
      "name": "minterType",
      "outputs": [
        {
          "internalType": "string",
          "name": "",
          "type": "string"
        }
      ],
      "stateMutability": "view",
      "type": "function"
    },
    {
      "inputs": [
        {
          "internalType": "uint256",
          "name": "",
          "type": "uint256"
        }
      ],
      "name": "projectMaxHasBeenInvoked",
      "outputs": [
        {
          "internalType": "bool",
          "name": "",
          "type": "bool"
        }
      ],
      "stateMutability": "view",
      "type": "function"
    },
    {
      "inputs": [
        {
          "internalType": "uint256",
          "name": "",
          "type": "uint256"
        }
      ],
      "name": "projectMaxInvocations",
      "outputs": [
        {
          "internalType": "uint256",
          "name": "",
          "type": "uint256"
        }
      ],
      "stateMutability": "view",
      "type": "function"
    },
    {
      "inputs": [
        {
          "internalType": "address",
          "name": "",
          "type": "address"
        },
        {
          "internalType": "uint256",
          "name": "",
          "type": "uint256"
        }
      ],
      "name": "projectMintCounter",
      "outputs": [
        {
          "internalType": "uint256",
          "name": "",
          "type": "uint256"
        }
      ],
      "stateMutability": "view",
      "type": "function"
    },
    {
      "inputs": [
        {
          "internalType": "uint256",
          "name": "",
          "type": "uint256"
        }
      ],
      "name": "projectMintLimit",
      "outputs": [
        {
          "internalType": "uint256",
          "name": "",
          "type": "uint256"
        }
      ],
      "stateMutability": "view",
      "type": "function"
    },
    {
      "inputs": [
        {
          "internalType": "uint256",
          "name": "_projectId",
          "type": "uint256"
        }
      ],
      "name": "purchase",
      "outputs": [
        {
          "internalType": "uint256",
          "name": "tokenId",
          "type": "uint256"
        }
      ],
      "stateMutability": "payable",
      "type": "function"
    },
    {
      "inputs": [
        {
          "internalType": "address",
          "name": "_to",
          "type": "address"
        },
        {
          "internalType": "uint256",
          "name": "_projectId",
          "type": "uint256"
        }
      ],
      "name": "purchaseTo",
      "outputs": [
        {
          "internalType": "uint256",
          "name": "tokenId",
          "type": "uint256"
        }
      ],
      "stateMutability": "payable",
      "type": "function"
    },
    {
      "inputs": [
        {
          "internalType": "uint256",
          "name": "",
          "type": "uint256"
        }
      ],
      "name": "purchaseToDisabled",
      "outputs": [
        {
          "internalType": "bool",
          "name": "",
          "type": "bool"
        }
      ],
      "stateMutability": "view",
      "type": "function"
    },
    {
      "inputs": [
        {
          "internalType": "uint256",
          "name": "_projectId",
          "type": "uint256"
        }
      ],
      "name": "setProjectMaxInvocations",
      "outputs": [],
      "stateMutability": "nonpayable",
      "type": "function"
    },
    {
      "inputs": [
        {
          "internalType": "uint256",
          "name": "_projectId",
          "type": "uint256"
        },
        {
          "internalType": "uint8",
          "name": "_limit",
          "type": "uint8"
        }
      ],
      "name": "setProjectMintLimit",
      "outputs": [],
      "stateMutability": "nonpayable",
      "type": "function"
    },
    {
      "inputs": [
        {
          "internalType": "uint256",
          "name": "_projectId",
          "type": "uint256"
        }
      ],
      "name": "toggleContractMintable",
      "outputs": [],
      "stateMutability": "nonpayable",
      "type": "function"
    },
    {
      "inputs": [
        {
          "internalType": "uint256",
          "name": "_projectId",
          "type": "uint256"
        }
      ],
      "name": "togglePurchaseToDisabled",
      "outputs": [],
      "stateMutability": "nonpayable",
      "type": "function"
    }
  ],
  "bytecode": "0x60806040523480156200001157600080fd5b506040516200229038038062002290833981016040819052620000349162000083565b600080546001600160a01b039384166001600160a01b03199182161790915560018054929093169116179055620000bb565b80516001600160a01b03811681146200007e57600080fd5b919050565b600080604083850312156200009757600080fd5b620000a28362000066565b9150620000b26020840162000066565b90509250929050565b6121c580620000cb6000396000f3fe6080604052600436106100de5760003560e01c8063891407c011610085578063891407c01461025b578063a98096001461026e578063acffea051461028e578063bee56003146102ae578063cfff5cf1146102de578063e9d1e8ac1461030e578063efef39a11461035e578063f463210314610371578063f7bd4b881461039157600080fd5b806308d94188146100e35780630dcd404b14610119578063231c2281146101395780633a4657b41461015b57806340d1397e146101a1578063462add46146101c157806356690aaf1461020157806362f7a7ed1461022e575b600080fd5b3480156100ef57600080fd5b50600154610103906001600160a01b031681565b6040516101109190611d7a565b60405180910390f35b34801561012557600080fd5b50600054610103906001600160a01b031681565b34801561014557600080fd5b50610159610154366004611d8e565b6103b1565b005b34801561016757600080fd5b50610193610176366004611dd9565b600460209081526000928352604080842090915290825290205481565b604051908152602001610110565b3480156101ad57600080fd5b506101596101bc366004611e05565b61046e565b3480156101cd57600080fd5b506101f16101dc366004611e05565b60066020526000908152604090205460ff1681565b6040519015158152602001610110565b34801561020d57600080fd5b5061019361021c366004611e05565b60076020526000908152604090205481565b34801561023a57600080fd5b50610193610249366004611e05565b60056020526000908152604090205481565b610193610269366004611dd9565b61056d565b34801561027a57600080fd5b50610193610289366004611e05565b610df0565b34801561029a57600080fd5b506101596102a9366004611e05565b610ee8565b3480156102ba57600080fd5b506101f16102c9366004611e05565b60026020526000908152604090205460ff1681565b3480156102ea57600080fd5b506101f16102f9366004611e05565b60036020526000908152604090205460ff1681565b34801561031a57600080fd5b506103516040518060400160405280601781526020017623b2b720b93a1b9918a334b63a32b932b226b4b73a32b960491b81525081565b6040516101109190611e4e565b61019361036c366004611e05565b610fa4565b34801561037d57600080fd5b5061019361038c366004611e05565b610fb0565b34801561039d57600080fd5b506101596103ac366004611e05565b611061565b600054604051633af32abf60e01b81526001600160a01b0390911690633af32abf906103e1903390600401611d7a565b60206040518083038186803b1580156103f957600080fd5b505afa15801561040d573d6000803e3d6000fd5b505050506040513d601f19601f820116820180604052508101906104319190611e96565b6104565760405162461bcd60e51b815260040161044d90611eb8565b60405180910390fd5b60009182526005602052604090912060ff9091169055565b600054604051633af32abf60e01b81526001600160a01b0390911690633af32abf9061049e903390600401611d7a565b60206040518083038186803b1580156104b657600080fd5b505afa1580156104ca573d6000803e3d6000fd5b505050506040513d601f19601f820116820180604052508101906104ee9190611e96565b61050a5760405162461bcd60e51b815260040161044d90611eb8565b600081815260036020908152604091829020805460ff8082161560ff199092168217909255835185815291161515918101919091527fce8ced1e9d6979c7589d3c8786f4d51a8034faa5ff2cbc5a2271364f787feccb910160405180910390a150565b60008181526006602052604081205460ff16156105da5760405162461bcd60e51b815260206004820152602560248201527f4d6178696d756d206e756d626572206f6620696e766f636174696f6e732072656044820152641858da195960da1b606482015260840161044d565b60008281526002602052604090205460ff16610632573332146106325760405162461bcd60e51b815260206004820152601060248201526f4e6f20436f6e7472616374204275797360801b604482015260640161044d565b60008281526003602052604090205460ff161561069b57336001600160a01b0384161461069b5760405162461bcd60e51b8152602060048201526017602482015276139bc8181c1d5c98da185cd9551bd808105b1b1bddd959604a1b604482015260640161044d565b600082815260056020526040902054156107465760008281526005602090815260408083205433845260048352818420868552909252909120541061071a5760405162461bcd60e51b815260206004820152601560248201527414995858da1959081b5a5b9d1a5b99c81b1a5b5a5d605a1b604482015260640161044d565b336000908152600460209081526040808320858452909152812080549161074083611efd565b91905055505b6040516208aa8960eb1b602082015260230160408051808303601f190181529082905280516020909101206000546320927ec960e01b83526004830185905290916001600160a01b03909116906320927ec99060240160006040518083038186803b1580156107b457600080fd5b505afa1580156107c8573d6000803e3d6000fd5b505050506040513d6000823e601f3d908101601f191682016040526107f09190810190611fb6565b6040516020016108009190611ff3565b6040516020818303038152906040528051906020012014610c2657341561088f5760405162461bcd60e51b815260206004820152603f60248201527f746869732070726f6a6563742061636365707473206120646966666572656e7460448201527f2063757272656e637920616e642063616e6e6f74206163636570742045544800606482015260840161044d565b600054604051633dc303c160e21b8152600481018490526001600160a01b039091169063f70c0f049060240160206040518083038186803b1580156108d357600080fd5b505afa1580156108e7573d6000803e3d6000fd5b505050506040513d601f19601f8201168201806040525081019061090b919061200f565b60005460405163498dd0c160e01b8152600481018590526001600160a01b039091169063498dd0c19060240160206040518083038186803b15801561094f57600080fd5b505afa158015610963573d6000803e3d6000fd5b505050506040513d601f19601f820116820180604052508101906109879190612028565b604051636eb1769f60e11b81523360048201523060248201526001600160a01b03919091169063dd62ed3e9060440160206040518083038186803b1580156109ce57600080fd5b505afa1580156109e2573d6000803e3d6000fd5b505050506040513d601f19601f82011682018060405250810190610a06919061200f565b1015610a5f5760405162461bcd60e51b815260206004820152602260248201527f496e73756666696369656e742046756e647320417070726f76656420666f72206044820152610a8b60f31b606482015260840161044d565b600054604051633dc303c160e21b8152600481018490526001600160a01b039091169063f70c0f049060240160206040518083038186803b158015610aa357600080fd5b505afa158015610ab7573d6000803e3d6000fd5b505050506040513d601f19601f82011682018060405250810190610adb919061200f565b60005460405163498dd0c160e01b8152600481018590526001600160a01b039091169063498dd0c19060240160206040518083038186803b158015610b1f57600080fd5b505afa158015610b33573d6000803e3d6000fd5b505050506040513d601f19601f82011682018060405250810190610b579190612028565b6001600160a01b03166370a08231336040518263ffffffff1660e01b8152600401610b829190611d7a565b60206040518083038186803b158015610b9a57600080fd5b505afa158015610bae573d6000803e3d6000fd5b505050506040513d601f19601f82011682018060405250810190610bd2919061200f565b1015610c185760405162461bcd60e51b815260206004820152601560248201527424b739bab33334b1b4b2b73a103130b630b731b29760591b604482015260640161044d565b610c21826111c0565b610cfa565b600054604051633dc303c160e21b8152600481018490526001600160a01b039091169063f70c0f049060240160206040518083038186803b158015610c6a57600080fd5b505afa158015610c7e573d6000803e3d6000fd5b505050506040513d601f19601f82011682018060405250810190610ca2919061200f565b341015610cf15760405162461bcd60e51b815260206004820181905260248201527f4d7573742073656e64206d696e696d756d2076616c756520746f206d696e7421604482015260640161044d565b610cfa8261189a565b600154604051630d4d151360e01b81526001600160a01b0385811660048301526024820185905233604483015290911690630d4d151390606401602060405180830381600087803b158015610d4e57600080fd5b505af1158015610d62573d6000803e3d6000fd5b505050506040513d601f19601f82011682018060405250810190610d86919061200f565b60008381526007602052604090205490915015801590610dcb5750600082815260076020526040902054610dbc90600190612045565b610dc9620f424083612072565b145b15610dea576000828152600660205260409020805460ff191660011790555b92915050565b6000805460405163498dd0c160e01b8152600481018490526001600160a01b039091169063498dd0c19060240160206040518083038186803b158015610e3557600080fd5b505afa158015610e49573d6000803e3d6000fd5b505050506040513d601f19601f82011682018060405250810190610e6d9190612028565b6001600160a01b03166370a08231336040518263ffffffff1660e01b8152600401610e989190611d7a565b60206040518083038186803b158015610eb057600080fd5b505afa158015610ec4573d6000803e3d6000fd5b505050506040513d601f19601f82011682018060405250810190610dea919061200f565b600054604051633af32abf60e01b81526001600160a01b0390911690633af32abf90610f18903390600401611d7a565b60206040518083038186803b158015610f3057600080fd5b505afa158015610f44573d6000803e3d6000fd5b505050506040513d601f19601f82011682018060405250810190610f689190611e96565b610f845760405162461bcd60e51b815260040161044d90611eb8565b6000908152600260205260409020805460ff19811660ff90911615179055565b6000610dea338361056d565b6000805460405163498dd0c160e01b8152600481018490526001600160a01b039091169063498dd0c19060240160206040518083038186803b158015610ff557600080fd5b505afa158015611009573d6000803e3d6000fd5b505050506040513d601f19601f8201168201806040525081019061102d9190612028565b604051636eb1769f60e11b81523360048201523060248201526001600160a01b03919091169063dd62ed3e90604401610e98565b600054604051633af32abf60e01b81526001600160a01b0390911690633af32abf90611091903390600401611d7a565b60206040518083038186803b1580156110a957600080fd5b505afa1580156110bd573d6000803e3d6000fd5b505050506040513d601f19601f820116820180604052508101906110e19190611e96565b6110fd5760405162461bcd60e51b815260040161044d90611eb8565b600080546040516346161b1160e11b81526004810184905282916001600160a01b031690638c2c36229060240160006040518083038186803b15801561114257600080fd5b505afa158015611156573d6000803e3d6000fd5b505050506040513d6000823e601f3d908101601f1916820160405261117e9190810190612086565b505050600089815260076020526040902083905550909550909350505050818110156111bb576000838152600660205260409020805460ff191690555b505050565b60008054604051633dc303c160e21b8152600481018490526001600160a01b039091169063f70c0f049060240160206040518083038186803b15801561120557600080fd5b505afa158015611219573d6000803e3d6000fd5b505050506040513d601f19601f8201168201806040525081019061123d919061200f565b905060008060009054906101000a90046001600160a01b03166001600160a01b0316634f029c396040518163ffffffff1660e01b815260040160206040518083038186803b15801561128e57600080fd5b505afa1580156112a2573d6000803e3d6000fd5b505050506040513d601f19601f820116820180604052508101906112c6919061200f565b6112d1606484612138565b6112db919061214c565b905080156114655760005460405163498dd0c160e01b8152600481018590526001600160a01b039091169063498dd0c19060240160206040518083038186803b15801561132757600080fd5b505afa15801561133b573d6000803e3d6000fd5b505050506040513d601f19601f8201168201806040525081019061135f9190612028565b6001600160a01b03166323b872dd3360008054906101000a90046001600160a01b03166001600160a01b0316633949f9066040518163ffffffff1660e01b815260040160206040518083038186803b1580156113ba57600080fd5b505afa1580156113ce573d6000803e3d6000fd5b505050506040513d601f19601f820116820180604052508101906113f29190612028565b846040518463ffffffff1660e01b81526004016114119392919061216b565b602060405180830381600087803b15801561142b57600080fd5b505af115801561143f573d6000803e3d6000fd5b505050506040513d601f19601f820116820180604052508101906114639190611e96565b505b60006114718284612045565b6000805460405163cc74234b60e01b815260048101889052929350909182916001600160a01b03169063cc74234b9060240160206040518083038186803b1580156114bb57600080fd5b505afa1580156114cf573d6000803e3d6000fd5b505050506040513d601f19601f820116820180604052508101906114f3919061200f565b11156117085760005460405163cc74234b60e01b8152600481018790526001600160a01b039091169063cc74234b9060240160206040518083038186803b15801561153d57600080fd5b505afa158015611551573d6000803e3d6000fd5b505050506040513d601f19601f82011682018060405250810190611575919061200f565b611580606484612138565b61158a919061214c565b905080156117085760005460405163498dd0c160e01b8152600481018790526001600160a01b039091169063498dd0c19060240160206040518083038186803b1580156115d657600080fd5b505afa1580156115ea573d6000803e3d6000fd5b505050506040513d601f19601f8201168201806040525081019061160e9190612028565b600054604051636bd8225b60e11b8152600481018890526001600160a01b03928316926323b872dd92339291169063d7b044b69060240160206040518083038186803b15801561165d57600080fd5b505afa158015611671573d6000803e3d6000fd5b505050506040513d601f19601f820116820180604052508101906116959190612028565b846040518463ffffffff1660e01b81526004016116b49392919061216b565b602060405180830381600087803b1580156116ce57600080fd5b505af11580156116e2573d6000803e3d6000fd5b505050506040513d601f19601f820116820180604052508101906117069190611e96565b505b60006117148284612045565b905080156118925760005460405163498dd0c160e01b8152600481018890526001600160a01b039091169063498dd0c19060240160206040518083038186803b15801561176057600080fd5b505afa158015611774573d6000803e3d6000fd5b505050506040513d601f19601f820116820180604052508101906117989190612028565b60005460405163a47d29cb60e01b8152600481018990526001600160a01b03928316926323b872dd92339291169063a47d29cb9060240160206040518083038186803b1580156117e757600080fd5b505afa1580156117fb573d6000803e3d6000fd5b505050506040513d601f19601f8201168201806040525081019061181f9190612028565b846040518463ffffffff1660e01b815260040161183e9392919061216b565b602060405180830381600087803b15801561185857600080fd5b505af115801561186c573d6000803e3d6000fd5b505050506040513d601f19601f820116820180604052508101906118909190611e96565b505b505050505050565b3415611d775760008054604051633dc303c160e21b8152600481018490526001600160a01b039091169063f70c0f049060240160206040518083038186803b1580156118e557600080fd5b505afa1580156118f9573d6000803e3d6000fd5b505050506040513d601f19601f8201168201806040525081019061191d919061200f565b9050600061192b8234612045565b9050801561196257604051339082156108fc029083906000818181858888f19350505050158015611960573d6000803e3d6000fd5b505b60008060009054906101000a90046001600160a01b03166001600160a01b0316634f029c396040518163ffffffff1660e01b815260040160206040518083038186803b1580156119b157600080fd5b505afa1580156119c5573d6000803e3d6000fd5b505050506040513d601f19601f820116820180604052508101906119e9919061200f565b6119f4606485612138565b6119fe919061214c565b90508015611ac45760008054906101000a90046001600160a01b03166001600160a01b0316633949f9066040518163ffffffff1660e01b815260040160206040518083038186803b158015611a5257600080fd5b505afa158015611a66573d6000803e3d6000fd5b505050506040513d601f19601f82011682018060405250810190611a8a9190612028565b6001600160a01b03166108fc829081150290604051600060405180830381858888f19350505050158015611ac2573d6000803e3d6000fd5b505b6000611ad08285612045565b6000805460405163cc74234b60e01b815260048101899052929350909182916001600160a01b03169063cc74234b9060240160206040518083038186803b158015611b1a57600080fd5b505afa158015611b2e573d6000803e3d6000fd5b505050506040513d601f19601f82011682018060405250810190611b52919061200f565b1115611ca75760005460405163cc74234b60e01b8152600481018890526001600160a01b039091169063cc74234b9060240160206040518083038186803b158015611b9c57600080fd5b505afa158015611bb0573d6000803e3d6000fd5b505050506040513d601f19601f82011682018060405250810190611bd4919061200f565b611bdf606484612138565b611be9919061214c565b90508015611ca757600054604051636bd8225b60e11b8152600481018890526001600160a01b039091169063d7b044b69060240160206040518083038186803b158015611c3557600080fd5b505afa158015611c49573d6000803e3d6000fd5b505050506040513d601f19601f82011682018060405250810190611c6d9190612028565b6001600160a01b03166108fc829081150290604051600060405180830381858888f19350505050158015611ca5573d6000803e3d6000fd5b505b6000611cb38284612045565b905080156118905760005460405163a47d29cb60e01b8152600481018990526001600160a01b039091169063a47d29cb9060240160206040518083038186803b158015611cff57600080fd5b505afa158015611d13573d6000803e3d6000fd5b505050506040513d601f19601f82011682018060405250810190611d379190612028565b6001600160a01b03166108fc829081150290604051600060405180830381858888f19350505050158015611d6f573d6000803e3d6000fd5b505050505050505b50565b6001600160a01b0391909116815260200190565b60008060408385031215611da157600080fd5b82359150602083013560ff81168114611db957600080fd5b809150509250929050565b6001600160a01b0381168114611d7757600080fd5b60008060408385031215611dec57600080fd5b8235611df781611dc4565b946020939093013593505050565b600060208284031215611e1757600080fd5b5035919050565b60005b83811015611e39578181015183820152602001611e21565b83811115611e48576000848401525b50505050565b6020815260008251806020840152611e6d816040850160208701611e1e565b601f01601f19169190910160400192915050565b80518015158114611e9157600080fd5b919050565b600060208284031215611ea857600080fd5b611eb182611e81565b9392505050565b60208082526015908201527413db9b1e4810dbdc99481dda1a5d195b1a5cdd1959605a1b604082015260600190565b634e487b7160e01b600052601160045260246000fd5b6000600019821415611f1157611f11611ee7565b5060010190565b634e487b7160e01b600052604160045260246000fd5b600082601f830112611f3f57600080fd5b815167ffffffffffffffff80821115611f5a57611f5a611f18565b604051601f8301601f19908116603f01168101908282118183101715611f8257611f82611f18565b81604052838152866020858801011115611f9b57600080fd5b611fac846020830160208901611e1e565b9695505050505050565b600060208284031215611fc857600080fd5b815167ffffffffffffffff811115611fdf57600080fd5b611feb84828501611f2e565b949350505050565b60008251612005818460208701611e1e565b9190910192915050565b60006020828403121561202157600080fd5b5051919050565b60006020828403121561203a57600080fd5b8151611eb181611dc4565b60008282101561205757612057611ee7565b500390565b634e487b7160e01b600052601260045260246000fd5b6000826120815761208161205c565b500690565b60008060008060008060008060006101208a8c0312156120a557600080fd5b89516120b081611dc4565b8099505060208a0151975060408a0151965060608a015195506120d560808b01611e81565b945060a08a01516120e581611dc4565b60c08b015160e08c0151919550935067ffffffffffffffff81111561210957600080fd5b6121158c828d01611f2e565b9250506101008a015161212781611dc4565b809150509295985092959850929598565b6000826121475761214761205c565b500490565b600081600019048311821515161561216657612166611ee7565b500290565b6001600160a01b03938416815291909216602082015260408101919091526060019056fea26469706673582212200958336654af357e2e83086d4e6a0474b4a4f3c16bfe1744c865277c01384e4d64736f6c63430008090033",
  "linkReferences": {},
  "deployedLinkReferences": {}
}