{
  "_format": "hh-sol-artifact-1",
  "contractName": "GenArt721FilteredMinterETHAuction",
  "sourceName": "contracts/minter-suite/GenArt721FilteredMinterETHAuction.sol",
  "abi": [
    {
      "inputs": [
        {
          "internalType": "address",
          "name": "_genArt721Address",
          "type": "address"
        },
        {
          "internalType": "address",
          "name": "_minterFilter",
          "type": "address"
        }
      ],
      "stateMutability": "nonpayable",
      "type": "constructor"
    },
    {
      "anonymous": false,
      "inputs": [
        {
          "indexed": false,
          "internalType": "uint256",
          "name": "_minimumAuctionLengthSeconds",
          "type": "uint256"
        }
      ],
      "name": "MinimumAuctionLengthSecondsUpdated",
      "type": "event"
    },
    {
      "anonymous": false,
      "inputs": [
        {
          "indexed": true,
          "internalType": "uint256",
          "name": "_projectId",
          "type": "uint256"
        },
        {
          "indexed": false,
          "internalType": "bool",
          "name": "_purchaseToDisabled",
          "type": "bool"
        }
      ],
      "name": "PurchaseToDisabledUpdated",
      "type": "event"
    },
    {
      "anonymous": false,
      "inputs": [
        {
          "indexed": true,
          "internalType": "uint256",
          "name": "projectId",
          "type": "uint256"
        },
        {
          "indexed": false,
          "internalType": "uint256",
          "name": "_auctionTimestampStart",
          "type": "uint256"
        },
        {
          "indexed": false,
          "internalType": "uint256",
          "name": "_auctionTimestampEnd",
          "type": "uint256"
        },
        {
          "indexed": false,
          "internalType": "uint256",
          "name": "_auctionPriceStart",
          "type": "uint256"
        }
      ],
      "name": "SetAuctionDetails",
      "type": "event"
    },
    {
      "inputs": [],
      "name": "artblocksContract",
      "outputs": [
        {
          "internalType": "contract IGenArt721CoreContract",
          "name": "",
          "type": "address"
        }
      ],
      "stateMutability": "view",
      "type": "function"
    },
    {
      "inputs": [
        {
          "internalType": "uint256",
          "name": "_projectId",
          "type": "uint256"
        }
      ],
      "name": "auctionTimeRemaining",
      "outputs": [
        {
          "internalType": "uint256",
          "name": "",
          "type": "uint256"
        }
      ],
      "stateMutability": "view",
      "type": "function"
    },
    {
      "inputs": [
        {
          "internalType": "uint256",
          "name": "",
          "type": "uint256"
        }
      ],
      "name": "contractMintable",
      "outputs": [
        {
          "internalType": "bool",
          "name": "",
          "type": "bool"
        }
      ],
      "stateMutability": "view",
      "type": "function"
    },
    {
      "inputs": [
        {
          "internalType": "uint256",
          "name": "_projectId",
          "type": "uint256"
        }
      ],
      "name": "getPrice",
      "outputs": [
        {
          "internalType": "uint256",
          "name": "",
          "type": "uint256"
        }
      ],
      "stateMutability": "view",
      "type": "function"
    },
    {
      "inputs": [
        {
          "internalType": "uint256",
          "name": "_projectId",
          "type": "uint256"
        }
      ],
      "name": "isAuctionLive",
      "outputs": [
        {
          "internalType": "bool",
          "name": "",
          "type": "bool"
        }
      ],
      "stateMutability": "view",
      "type": "function"
    },
    {
      "inputs": [],
      "name": "minimumAuctionLengthSeconds",
      "outputs": [
        {
          "internalType": "uint256",
          "name": "",
          "type": "uint256"
        }
      ],
      "stateMutability": "view",
      "type": "function"
    },
    {
      "inputs": [],
      "name": "minterFilter",
      "outputs": [
        {
          "internalType": "contract IMinterFilter",
          "name": "",
          "type": "address"
        }
      ],
      "stateMutability": "view",
      "type": "function"
    },
    {
      "inputs": [],
      "name": "minterType",
      "outputs": [
        {
          "internalType": "string",
          "name": "",
          "type": "string"
        }
      ],
      "stateMutability": "view",
      "type": "function"
    },
    {
      "inputs": [
        {
          "internalType": "uint256",
          "name": "",
          "type": "uint256"
        }
      ],
      "name": "projectAuctionParameters",
      "outputs": [
        {
          "internalType": "uint256",
          "name": "timestampStart",
          "type": "uint256"
        },
        {
          "internalType": "uint256",
          "name": "timestampEnd",
          "type": "uint256"
        },
        {
          "internalType": "uint256",
          "name": "priceStart",
          "type": "uint256"
        }
      ],
      "stateMutability": "view",
      "type": "function"
    },
    {
      "inputs": [
        {
          "internalType": "uint256",
          "name": "",
          "type": "uint256"
        }
      ],
      "name": "projectMaxHasBeenInvoked",
      "outputs": [
        {
          "internalType": "bool",
          "name": "",
          "type": "bool"
        }
      ],
      "stateMutability": "view",
      "type": "function"
    },
    {
      "inputs": [
        {
          "internalType": "uint256",
          "name": "",
          "type": "uint256"
        }
      ],
      "name": "projectMaxInvocations",
      "outputs": [
        {
          "internalType": "uint256",
          "name": "",
          "type": "uint256"
        }
      ],
      "stateMutability": "view",
      "type": "function"
    },
    {
      "inputs": [
        {
          "internalType": "address",
          "name": "",
          "type": "address"
        },
        {
          "internalType": "uint256",
          "name": "",
          "type": "uint256"
        }
      ],
      "name": "projectMintCounter",
      "outputs": [
        {
          "internalType": "uint256",
          "name": "",
          "type": "uint256"
        }
      ],
      "stateMutability": "view",
      "type": "function"
    },
    {
      "inputs": [
        {
          "internalType": "uint256",
          "name": "",
          "type": "uint256"
        }
      ],
      "name": "projectMintLimit",
      "outputs": [
        {
          "internalType": "uint256",
          "name": "",
          "type": "uint256"
        }
      ],
      "stateMutability": "view",
      "type": "function"
    },
    {
      "inputs": [
        {
          "internalType": "uint256",
          "name": "_projectId",
          "type": "uint256"
        }
      ],
      "name": "purchase",
      "outputs": [
        {
          "internalType": "uint256",
          "name": "tokenId",
          "type": "uint256"
        }
      ],
      "stateMutability": "payable",
      "type": "function"
    },
    {
      "inputs": [
        {
          "internalType": "address",
          "name": "_to",
          "type": "address"
        },
        {
          "internalType": "uint256",
          "name": "_projectId",
          "type": "uint256"
        }
      ],
      "name": "purchaseTo",
      "outputs": [
        {
          "internalType": "uint256",
          "name": "tokenId",
          "type": "uint256"
        }
      ],
      "stateMutability": "payable",
      "type": "function"
    },
    {
      "inputs": [
        {
          "internalType": "uint256",
          "name": "",
          "type": "uint256"
        }
      ],
      "name": "purchaseToDisabled",
      "outputs": [
        {
          "internalType": "bool",
          "name": "",
          "type": "bool"
        }
      ],
      "stateMutability": "view",
      "type": "function"
    },
    {
      "inputs": [
        {
          "internalType": "uint256",
          "name": "_projectId",
          "type": "uint256"
        },
        {
          "internalType": "uint256",
          "name": "_auctionTimestampStart",
          "type": "uint256"
        },
        {
          "internalType": "uint256",
          "name": "_auctionTimestampEnd",
          "type": "uint256"
        },
        {
          "internalType": "uint256",
          "name": "_auctionPriceStart",
          "type": "uint256"
        }
      ],
      "name": "setAuctionDetails",
      "outputs": [],
      "stateMutability": "nonpayable",
      "type": "function"
    },
    {
      "inputs": [
        {
          "internalType": "uint256",
          "name": "_minimumAuctionLengthSeconds",
          "type": "uint256"
        }
      ],
      "name": "setMinimumAuctionLengthSeconds",
      "outputs": [],
      "stateMutability": "nonpayable",
      "type": "function"
    },
    {
      "inputs": [
        {
          "internalType": "uint256",
          "name": "_projectId",
          "type": "uint256"
        }
      ],
      "name": "setProjectMaxInvocations",
      "outputs": [],
      "stateMutability": "nonpayable",
      "type": "function"
    },
    {
      "inputs": [
        {
          "internalType": "uint256",
          "name": "_projectId",
          "type": "uint256"
        },
        {
          "internalType": "uint8",
          "name": "_limit",
          "type": "uint8"
        }
      ],
      "name": "setProjectMintLimit",
      "outputs": [],
      "stateMutability": "nonpayable",
      "type": "function"
    },
    {
      "inputs": [
        {
          "internalType": "uint256",
          "name": "_projectId",
          "type": "uint256"
        }
      ],
      "name": "toggleContractMintable",
      "outputs": [],
      "stateMutability": "nonpayable",
      "type": "function"
    },
    {
      "inputs": [
        {
          "internalType": "uint256",
          "name": "_projectId",
          "type": "uint256"
        }
      ],
      "name": "togglePurchaseToDisabled",
      "outputs": [],
      "stateMutability": "nonpayable",
      "type": "function"
    }
  ],
  "bytecode": "0x6080604052610e106008553480156200001757600080fd5b5060405162001de138038062001de18339810160408190526200003a9162000089565b600080546001600160a01b039384166001600160a01b03199182161790915560018054929093169116179055620000c1565b80516001600160a01b03811681146200008457600080fd5b919050565b600080604083850312156200009d57600080fd5b620000a8836200006c565b9150620000b8602084016200006c565b90509250929050565b611d1080620000d16000396000f3fe6080604052600436106101355760003560e01c8063891407c0116100ab578063c9008b431161006f578063c9008b43146103e2578063cfff5cf114610402578063e757223014610432578063e9d1e8ac14610452578063efef39a114610474578063f7bd4b881461048757600080fd5b8063891407c0146103495780639e8574191461035c578063acffea051461037c578063b2d30ac71461039c578063bee56003146103b257600080fd5b80633a4657b4116100fd5780633a4657b41461022957806340d1397e1461026f578063462add461461028f5780634bdece78146102cf57806356690aaf146102ef57806362f7a7ed1461031c57600080fd5b806308d941881461013a5780630dcd404b14610170578063231c2281146101905780632f077ee6146101b25780632fc37ef114610209575b600080fd5b34801561014657600080fd5b5060015461015a906001600160a01b031681565b604051610167919061188c565b60405180910390f35b34801561017c57600080fd5b5060005461015a906001600160a01b031681565b34801561019c57600080fd5b506101b06101ab3660046118a0565b6104a7565b005b3480156101be57600080fd5b506101ee6101cd3660046118d6565b60096020526000908152604090208054600182015460029092015490919083565b60408051938452602084019290925290820152606001610167565b34801561021557600080fd5b506101b06102243660046118d6565b610564565b34801561023557600080fd5b50610261610244366004611907565b600460209081526000928352604080842090915290825290205481565b604051908152602001610167565b34801561027b57600080fd5b506101b061028a3660046118d6565b61063b565b34801561029b57600080fd5b506102bf6102aa3660046118d6565b60066020526000908152604090205460ff1681565b6040519015158152602001610167565b3480156102db57600080fd5b506101b06102ea366004611933565b610734565b3480156102fb57600080fd5b5061026161030a3660046118d6565b60076020526000908152604090205481565b34801561032857600080fd5b506102616103373660046118d6565b60056020526000908152604090205481565b610261610357366004611907565b610af1565b34801561036857600080fd5b506102616103773660046118d6565b610f45565b34801561038857600080fd5b506101b06103973660046118d6565b610fe2565b3480156103a857600080fd5b5061026160085481565b3480156103be57600080fd5b506102bf6103cd3660046118d6565b60026020526000908152604090205460ff1681565b3480156103ee57600080fd5b506102bf6103fd3660046118d6565b61109e565b34801561040e57600080fd5b506102bf61041d3660046118d6565b60036020526000908152604090205460ff1681565b34801561043e57600080fd5b5061026161044d3660046118d6565b6110e6565b34801561045e57600080fd5b5061046761129d565b6040516101679190611995565b6102616104823660046118d6565b6112b9565b34801561049357600080fd5b506101b06104a23660046118d6565b6112cb565b600054604051633af32abf60e01b81526001600160a01b0390911690633af32abf906104d790339060040161188c565b60206040518083038186803b1580156104ef57600080fd5b505afa158015610503573d6000803e3d6000fd5b505050506040513d601f19601f8201168201806040525081019061052791906119dd565b61054c5760405162461bcd60e51b8152600401610543906119f8565b60405180910390fd5b60009182526005602052604090912060ff9091169055565b600054604051633af32abf60e01b81526001600160a01b0390911690633af32abf9061059490339060040161188c565b60206040518083038186803b1580156105ac57600080fd5b505afa1580156105c0573d6000803e3d6000fd5b505050506040513d601f19601f820116820180604052508101906105e491906119dd565b6106005760405162461bcd60e51b8152600401610543906119f8565b60088190556040518181527f03c81e81b0ed0ca5444a9d70c9f3d1c78d79d6a31419f77736e886d092ed1a9e9060200160405180910390a150565b600054604051633af32abf60e01b81526001600160a01b0390911690633af32abf9061066b90339060040161188c565b60206040518083038186803b15801561068357600080fd5b505afa158015610697573d6000803e3d6000fd5b505050506040513d601f19601f820116820180604052508101906106bb91906119dd565b6106d75760405162461bcd60e51b8152600401610543906119f8565b600081815260036020908152604091829020805460ff8082161560ff199092168217909255925192161515825282917fce8ced1e9d6979c7589d3c8786f4d51a8034faa5ff2cbc5a2271364f787feccb910160405180910390a250565b600054604051633af32abf60e01b815285916001600160a01b031690633af32abf9061076490339060040161188c565b60206040518083038186803b15801561077c57600080fd5b505afa158015610790573d6000803e3d6000fd5b505050506040513d601f19601f820116820180604052508101906107b491906119dd565b8061084b575060005460405163a47d29cb60e01b8152600481018390526001600160a01b039091169063a47d29cb9060240160206040518083038186803b1580156107fe57600080fd5b505afa158015610812573d6000803e3d6000fd5b505050506040513d601f19601f820116820180604052508101906108369190611a27565b6001600160a01b0316336001600160a01b0316145b6108975760405162461bcd60e51b815260206004820152601f60248201527f4f6e6c7920436f72652077686974656c6973746564206f7220417274697374006044820152606401610543565b8383116108fd5760405162461bcd60e51b815260206004820152602e60248201527f41756374696f6e20656e64206d7573742062652067726561746572207468616e60448201526d08185d58dd1a5bdb881cdd185c9d60921b6064820152608401610543565b60085461090a9085611a5a565b83101561097f5760405162461bcd60e51b815260206004820152603b60248201527f41756374696f6e206c656e677468206d757374206265206174206c656173742060448201527f6d696e696d756d41756374696f6e4c656e6774685365636f6e647300000000006064820152608401610543565b600054604051633dc303c160e21b8152600481018790526001600160a01b039091169063f70c0f049060240160206040518083038186803b1580156109c357600080fd5b505afa1580156109d7573d6000803e3d6000fd5b505050506040513d601f19601f820116820180604052508101906109fb9190611a72565b8211610a6f5760405162461bcd60e51b815260206004820152603a60248201527f41756374696f6e207374617274207072696365206d757374206265206772656160448201527f746572207468616e2061756374696f6e20656e642070726963650000000000006064820152608401610543565b6040805160608082018352868252602080830187815283850187815260008b815260098452869020945185559051600185015551600290930192909255825187815291820186905291810184905286917f2d62cb0c5c106d89e76de5509f6ec6c81c1d8dbcf37da0de9c531cc1bc2be0f4910160405180910390a25050505050565b60008181526006602052604081205460ff1615610b5e5760405162461bcd60e51b815260206004820152602560248201527f4d6178696d756d206e756d626572206f6620696e766f636174696f6e732072656044820152641858da195960da1b6064820152608401610543565b60008281526002602052604090205460ff16610bb657333214610bb65760405162461bcd60e51b815260206004820152601060248201526f4e6f20436f6e7472616374204275797360801b6044820152606401610543565b60008281526003602052604090205460ff1615610c1f57336001600160a01b03841614610c1f5760405162461bcd60e51b8152602060048201526017602482015276139bc8181c1d5c98da185cd9551bd808105b1b1bddd959604a1b6044820152606401610543565b6040516208aa8960eb1b602082015260230160408051808303601f190181529082905280516020909101206000546320927ec960e01b83526004830185905290916001600160a01b03909116906320927ec99060240160006040518083038186803b158015610c8d57600080fd5b505afa158015610ca1573d6000803e3d6000fd5b505050506040513d6000823e601f3d908101601f19168201604052610cc99190810190611b1f565b604051602001610cd99190611b5c565b6040516020818303038152906040528051906020012014610d3c5760405162461bcd60e51b815260206004820152601c60248201527f50726f6a6563742063757272656e6379206d75737420626520455448000000006044820152606401610543565b6000610d47836110e6565b905080341015610d995760405162461bcd60e51b815260206004820181905260248201527f4d7573742073656e64206d696e696d756d2076616c756520746f206d696e74216044820152606401610543565b60008381526005602052604090205415610e4457600083815260056020908152604080832054338452600483528184208785529092529091205410610e185760405162461bcd60e51b815260206004820152601560248201527414995858da1959081b5a5b9d1a5b99c81b1a5b5a5d605a1b6044820152606401610543565b3360009081526004602090815260408083208684529091528120805491610e3e83611b78565b91905055505b610e4e838261142a565b600154604051630d4d151360e01b81526001600160a01b0386811660048301526024820186905233604483015290911690630d4d151390606401602060405180830381600087803b158015610ea257600080fd5b505af1158015610eb6573d6000803e3d6000fd5b505050506040513d601f19601f82011682018060405250810190610eda9190611a72565b60008481526007602052604090205490925015801590610f1f5750600083815260076020526040902054610f1090600190611b93565b610f1d620f424084611bc0565b145b15610f3e576000838152600660205260409020805460ff191660011790555b5092915050565b60008181526009602090815260408083208151606081018352815481526001820154938101939093526002015490820152610f7f8361109e565b610fcb5760405162461bcd60e51b815260206004820152601d60248201527f61756374696f6e206973206e6f742063757272656e746c79206c6976650000006044820152606401610543565b428160200151610fdb9190611b93565b9392505050565b600054604051633af32abf60e01b81526001600160a01b0390911690633af32abf9061101290339060040161188c565b60206040518083038186803b15801561102a57600080fd5b505afa15801561103e573d6000803e3d6000fd5b505050506040513d601f19601f8201168201806040525081019061106291906119dd565b61107e5760405162461bcd60e51b8152600401610543906119f8565b6000908152600260205260409020805460ff19811660ff90911615179055565b60008181526009602090815260408083208151606081018352815481526001820154938101849052600290910154918101919091529042108015610fdb575051421192915050565b6000818152600960209081526040808320815160608101835281548082526001830154948201949094526002909101549181019190915290421161112e576040015192915050565b806020015142106111b557600054604051633dc303c160e21b8152600481018590526001600160a01b039091169063f70c0f049060240160206040518083038186803b15801561117d57600080fd5b505afa158015611191573d6000803e3d6000fd5b505050506040513d601f19601f82011682018060405250810190610fdb9190611a72565b80516000906111c49042611b93565b90506000826000015183602001516111dc9190611b93565b60008054604051633dc303c160e21b81526004810189905292935090916001600160a01b039091169063f70c0f049060240160206040518083038186803b15801561122657600080fd5b505afa15801561123a573d6000803e3d6000fd5b505050506040513d601f19601f8201168201806040525081019061125e9190611a72565b846040015161126d9190611b93565b90508161127a8285611bd4565b6112849190611bf3565b84604001516112939190611b93565b9695505050505050565b604051806060016040528060218152602001611cba6021913981565b60006112c53383610af1565b92915050565b600054604051633af32abf60e01b81526001600160a01b0390911690633af32abf906112fb90339060040161188c565b60206040518083038186803b15801561131357600080fd5b505afa158015611327573d6000803e3d6000fd5b505050506040513d601f19601f8201168201806040525081019061134b91906119dd565b6113675760405162461bcd60e51b8152600401610543906119f8565b600080546040516346161b1160e11b81526004810184905282916001600160a01b031690638c2c36229060240160006040518083038186803b1580156113ac57600080fd5b505afa1580156113c0573d6000803e3d6000fd5b505050506040513d6000823e601f3d908101601f191682016040526113e89190810190611c07565b50505060008981526007602052604090208390555090955090935050505081811015611425576000838152600660205260409020805460ff191690555b505050565b341561188857600061143c8234611b93565b9050801561147357604051339082156108fc029083906000818181858888f19350505050158015611471573d6000803e3d6000fd5b505b60008060009054906101000a90046001600160a01b03166001600160a01b0316634f029c396040518163ffffffff1660e01b815260040160206040518083038186803b1580156114c257600080fd5b505afa1580156114d6573d6000803e3d6000fd5b505050506040513d601f19601f820116820180604052508101906114fa9190611a72565b611505606485611bf3565b61150f9190611bd4565b905080156115d55760008054906101000a90046001600160a01b03166001600160a01b0316633949f9066040518163ffffffff1660e01b815260040160206040518083038186803b15801561156357600080fd5b505afa158015611577573d6000803e3d6000fd5b505050506040513d601f19601f8201168201806040525081019061159b9190611a27565b6001600160a01b03166108fc829081150290604051600060405180830381858888f193505050501580156115d3573d6000803e3d6000fd5b505b60006115e18285611b93565b6000805460405163cc74234b60e01b815260048101899052929350909182916001600160a01b03169063cc74234b9060240160206040518083038186803b15801561162b57600080fd5b505afa15801561163f573d6000803e3d6000fd5b505050506040513d601f19601f820116820180604052508101906116639190611a72565b11156117b85760005460405163cc74234b60e01b8152600481018890526001600160a01b039091169063cc74234b9060240160206040518083038186803b1580156116ad57600080fd5b505afa1580156116c1573d6000803e3d6000fd5b505050506040513d601f19601f820116820180604052508101906116e59190611a72565b6116f0606484611bf3565b6116fa9190611bd4565b905080156117b857600054604051636bd8225b60e11b8152600481018890526001600160a01b039091169063d7b044b69060240160206040518083038186803b15801561174657600080fd5b505afa15801561175a573d6000803e3d6000fd5b505050506040513d601f19601f8201168201806040525081019061177e9190611a27565b6001600160a01b03166108fc829081150290604051600060405180830381858888f193505050501580156117b6573d6000803e3d6000fd5b505b60006117c48284611b93565b905080156118825760005460405163a47d29cb60e01b8152600481018990526001600160a01b039091169063a47d29cb9060240160206040518083038186803b15801561181057600080fd5b505afa158015611824573d6000803e3d6000fd5b505050506040513d601f19601f820116820180604052508101906118489190611a27565b6001600160a01b03166108fc829081150290604051600060405180830381858888f19350505050158015611880573d6000803e3d6000fd5b505b50505050505b5050565b6001600160a01b0391909116815260200190565b600080604083850312156118b357600080fd5b82359150602083013560ff811681146118cb57600080fd5b809150509250929050565b6000602082840312156118e857600080fd5b5035919050565b6001600160a01b038116811461190457600080fd5b50565b6000806040838503121561191a57600080fd5b8235611925816118ef565b946020939093013593505050565b6000806000806080858703121561194957600080fd5b5050823594602084013594506040840135936060013592509050565b60005b83811015611980578181015183820152602001611968565b8381111561198f576000848401525b50505050565b60208152600082518060208401526119b4816040850160208701611965565b601f01601f19169190910160400192915050565b805180151581146119d857600080fd5b919050565b6000602082840312156119ef57600080fd5b610fdb826119c8565b60208082526015908201527413db9b1e4810dbdc99481dda1a5d195b1a5cdd1959605a1b604082015260600190565b600060208284031215611a3957600080fd5b8151610fdb816118ef565b634e487b7160e01b600052601160045260246000fd5b60008219821115611a6d57611a6d611a44565b500190565b600060208284031215611a8457600080fd5b5051919050565b634e487b7160e01b600052604160045260246000fd5b600082601f830112611ab257600080fd5b815167ffffffffffffffff80821115611acd57611acd611a8b565b604051601f8301601f19908116603f01168101908282118183101715611af557611af5611a8b565b81604052838152866020858801011115611b0e57600080fd5b611293846020830160208901611965565b600060208284031215611b3157600080fd5b815167ffffffffffffffff811115611b4857600080fd5b611b5484828501611aa1565b949350505050565b60008251611b6e818460208701611965565b9190910192915050565b6000600019821415611b8c57611b8c611a44565b5060010190565b600082821015611ba557611ba5611a44565b500390565b634e487b7160e01b600052601260045260246000fd5b600082611bcf57611bcf611baa565b500690565b6000816000190483118215151615611bee57611bee611a44565b500290565b600082611c0257611c02611baa565b500490565b60008060008060008060008060006101208a8c031215611c2657600080fd5b8951611c31816118ef565b8099505060208a0151975060408a0151965060608a01519550611c5660808b016119c8565b945060a08a0151611c66816118ef565b60c08b015160e08c0151919550935067ffffffffffffffff811115611c8a57600080fd5b611c968c828d01611aa1565b9250506101008a0151611ca8816118ef565b80915050929598509295985092959856fe47656e41727437323146696c74657265644d696e74657245544841756374696f6ea26469706673582212202d5e7283294bac77e267663ce213d16f844286b41f27f91e0abfd97cf6da642364736f6c63430008090033",
  "linkReferences": {},
  "deployedLinkReferences": {}
}