{
  "_format": "hh-sol-artifact-1",
  "contractName": "MinterFilterV1",
  "sourceName": "contracts/minter-suite/MinterFilter/MinterFilterV1.sol",
  "abi": [
    {
      "inputs": [
        {
          "internalType": "address",
          "name": "_genArt721Address",
          "type": "address"
        }
      ],
      "stateMutability": "nonpayable",
      "type": "constructor"
    },
    {
      "anonymous": false,
      "inputs": [
        {
          "indexed": true,
          "internalType": "address",
          "name": "_minterAddress",
          "type": "address"
        },
        {
          "indexed": false,
          "internalType": "string",
          "name": "_minterType",
          "type": "string"
        }
      ],
      "name": "MinterApproved",
      "type": "event"
    },
    {
      "anonymous": false,
      "inputs": [
        {
          "indexed": true,
          "internalType": "address",
          "name": "_minterAddress",
          "type": "address"
        }
      ],
      "name": "MinterRevoked",
      "type": "event"
    },
    {
      "anonymous": false,
      "inputs": [
        {
          "indexed": true,
          "internalType": "uint256",
          "name": "_projectId",
          "type": "uint256"
        },
        {
          "indexed": true,
          "internalType": "address",
          "name": "_minterAddress",
          "type": "address"
        },
        {
          "indexed": false,
          "internalType": "string",
          "name": "_minterType",
          "type": "string"
        }
      ],
      "name": "ProjectMinterRegistered",
      "type": "event"
    },
    {
      "anonymous": false,
      "inputs": [
        {
          "indexed": true,
          "internalType": "uint256",
          "name": "_projectId",
          "type": "uint256"
        }
      ],
      "name": "ProjectMinterRemoved",
      "type": "event"
    },
    {
      "inputs": [
        {
          "internalType": "address",
          "name": "_minterAddress",
          "type": "address"
        }
      ],
      "name": "addApprovedMinter",
      "outputs": [],
      "stateMutability": "nonpayable",
      "type": "function"
    },
    {
      "inputs": [],
      "name": "genArt721CoreAddress",
      "outputs": [
        {
          "internalType": "address",
          "name": "",
          "type": "address"
        }
      ],
      "stateMutability": "view",
      "type": "function"
    },
    {
      "inputs": [
        {
          "internalType": "uint256",
          "name": "_projectId",
          "type": "uint256"
        }
      ],
      "name": "getMinterForProject",
      "outputs": [
        {
          "internalType": "address",
          "name": "",
          "type": "address"
        }
      ],
      "stateMutability": "view",
      "type": "function"
    },
    {
      "inputs": [],
      "name": "getNumProjectsWithMinters",
      "outputs": [
        {
          "internalType": "uint256",
          "name": "",
          "type": "uint256"
        }
      ],
      "stateMutability": "view",
      "type": "function"
    },
    {
      "inputs": [
        {
          "internalType": "uint256",
          "name": "_index",
          "type": "uint256"
        }
      ],
      "name": "getProjectAndMinterInfoAt",
      "outputs": [
        {
          "internalType": "uint256",
          "name": "projectId",
          "type": "uint256"
        },
        {
          "internalType": "address",
          "name": "minterAddress",
          "type": "address"
        },
        {
          "internalType": "string",
          "name": "minterType",
          "type": "string"
        }
      ],
      "stateMutability": "view",
      "type": "function"
    },
    {
      "inputs": [
        {
          "internalType": "address",
          "name": "",
          "type": "address"
        }
      ],
      "name": "isApprovedMinter",
      "outputs": [
        {
          "internalType": "bool",
          "name": "",
          "type": "bool"
        }
      ],
      "stateMutability": "view",
      "type": "function"
    },
    {
      "inputs": [
        {
          "internalType": "address",
          "name": "_to",
          "type": "address"
        },
        {
          "internalType": "uint256",
          "name": "_projectId",
          "type": "uint256"
        },
        {
          "internalType": "address",
          "name": "sender",
          "type": "address"
        }
      ],
      "name": "mint",
      "outputs": [
        {
          "internalType": "uint256",
          "name": "_tokenId",
          "type": "uint256"
        }
      ],
      "stateMutability": "nonpayable",
      "type": "function"
    },
    {
      "inputs": [
        {
          "internalType": "address",
          "name": "",
          "type": "address"
        }
      ],
      "name": "numProjectsUsingMinter",
      "outputs": [
        {
          "internalType": "uint256",
          "name": "",
          "type": "uint256"
        }
      ],
      "stateMutability": "view",
      "type": "function"
    },
    {
      "inputs": [
        {
          "internalType": "uint256",
          "name": "_projectId",
          "type": "uint256"
        }
      ],
      "name": "projectHasMinter",
      "outputs": [
        {
          "internalType": "bool",
          "name": "",
          "type": "bool"
        }
      ],
      "stateMutability": "view",
      "type": "function"
    },
    {
      "inputs": [
        {
          "internalType": "address",
          "name": "_minterAddress",
          "type": "address"
        }
      ],
      "name": "removeApprovedMinter",
      "outputs": [],
      "stateMutability": "nonpayable",
      "type": "function"
    },
    {
      "inputs": [
        {
          "internalType": "uint256",
          "name": "_projectId",
          "type": "uint256"
        }
      ],
      "name": "removeMinterForProject",
      "outputs": [],
      "stateMutability": "nonpayable",
      "type": "function"
    },
    {
      "inputs": [
        {
          "internalType": "uint256[]",
          "name": "_projectIds",
          "type": "uint256[]"
        }
      ],
      "name": "removeMintersForProjects",
      "outputs": [],
      "stateMutability": "nonpayable",
      "type": "function"
    },
    {
      "inputs": [
        {
          "internalType": "uint256",
          "name": "_projectId",
          "type": "uint256"
        },
        {
          "internalType": "address",
          "name": "_minterAddress",
          "type": "address"
        }
      ],
      "name": "setMinterForProject",
      "outputs": [],
      "stateMutability": "nonpayable",
      "type": "function"
    }
  ],
  "bytecode": "0x60c060405234801561001057600080fd5b5060405161142638038061142683398101604081905261002f91610045565b6001600160a01b0316608081905260a052610075565b60006020828403121561005757600080fd5b81516001600160a01b038116811461006e57600080fd5b9392505050565b60805160a0516113706100b6600039600081816102b4015281816103de015281816106cc015281816108040152610b360152600061013a01526113706000f3fe608060405234801561001057600080fd5b50600436106100af5760003560e01c80630d4d1513146100b457806326df17b5146100da5780633a3d146f146100fa578063718284221461012d57806392a10f8314610135578063a409177e14610174578063b34c5c8414610189578063bcc0fdf11461019c578063bee4d106146101af578063c47d50f5146101c2578063e7300db9146101d5578063faf0d745146101f7578063ff2505f01461020a575b600080fd5b6100c76100c2366004610f76565b61021d565b6040519081526020015b60405180910390f35b6100c76100e8366004610fb8565b60036020526000908152604090205481565b61011d610108366004610fb8565b60046020526000908152604090205460ff1681565b60405190151581526020016100d1565b6100c7610339565b61015c7f000000000000000000000000000000000000000000000000000000000000000081565b6040516001600160a01b0390911681526020016100d1565b610187610182366004610fd5565b61034a565b005b610187610197366004611049565b6103bd565b61015c6101aa366004611049565b6104ad565b6101876101bd366004610fb8565b610508565b61011d6101d0366004611049565b610602565b6101e86101e3366004611049565b610617565b6040516100d1939291906110be565b6101876102053660046110e8565b6106ab565b610187610218366004610fb8565b610a12565b60006102298184610ae8565b6001600160a01b0316336001600160a01b0316146102855760405162461bcd60e51b815260206004820152601460248201527327b7363c9030b9b9b4b3b732b21036b4b73a32b960611b60448201526064015b60405180910390fd5b604051615de560e01b81526001600160a01b0385811660048301526024820185905283811660448301526000917f000000000000000000000000000000000000000000000000000000000000000090911690615de590606401602060405180830381600087803b1580156102f857600080fd5b505af115801561030c573d6000803e3d6000fd5b505050506040513d601f19601f820116820180604052508101906103309190611118565b95945050505050565b60006103456000610afd565b905090565b6352048bbf60e11b61035b81610b08565b6103775760405162461bcd60e51b815260040161027c90611131565b8160005b818110156103b6576103a485858381811061039857610398611165565b90506020020135610bba565b806103ae81611191565b91505061037b565b5050505050565b60405163a47d29cb60e01b8152600481018290528190632cd3172160e21b907f00000000000000000000000000000000000000000000000000000000000000006001600160a01b03169063a47d29cb9060240160206040518083038186803b15801561042857600080fd5b505afa15801561043c573d6000803e3d6000fd5b505050506040513d601f19601f8201168201806040525081019061046091906111ac565b6001600160a01b0316336001600160a01b03161480610483575061048381610b08565b61049f5760405162461bcd60e51b815260040161027c906111c9565b6104a883610bba565b505050565b600080806104bb8185610c2f565b91509150816105015760405162461bcd60e51b8152602060048201526012602482015271139bc81b5a5b9d195c88185cdcda59db995960721b604482015260640161027c565b9392505050565b635f72688360e11b61051981610b08565b6105355760405162461bcd60e51b815260040161027c90611131565b6001600160a01b0382166000818152600460208190526040808320805460ff191660011790558051633a747a2b60e21b815290517f1ac09d1079d96f19b763467642c3c3b4e36b56222414f4a4a50f26c7011147bb93859363e9d1e8ac93808201939190829003018186803b1580156105ad57600080fd5b505afa1580156105c1573d6000803e3d6000fd5b505050506040513d6000823e601f3d908101601f191682016040526105e99190810190611215565b6040516105f691906112c1565b60405180910390a25050565b60008061060f8184610c2f565b509392505050565b60008060606106268285610c4d565b8093508194505050816001600160a01b031663e9d1e8ac6040518163ffffffff1660e01b815260040160006040518083038186803b15801561066757600080fd5b505afa15801561067b573d6000803e3d6000fd5b505050506040513d6000823e601f3d908101601f191682016040526106a39190810190611215565b929491935050565b60405163a47d29cb60e01b815260048101839052829063faf0d74560e01b907f00000000000000000000000000000000000000000000000000000000000000006001600160a01b03169063a47d29cb9060240160206040518083038186803b15801561071657600080fd5b505afa15801561072a573d6000803e3d6000fd5b505050506040513d601f19601f8201168201806040525081019061074e91906111ac565b6001600160a01b0316336001600160a01b03161480610771575061077181610b08565b61078d5760405162461bcd60e51b815260040161027c906111c9565b6001600160a01b038316600090815260046020526040902054839060ff166108015760405162461bcd60e51b815260206004820152602160248201527f4f6e6c7920617070726f766564206d696e746572732061726520616c6c6f77656044820152601960fa1b606482015260840161027c565b847f00000000000000000000000000000000000000000000000000000000000000006001600160a01b031663e935b7b16040518163ffffffff1660e01b815260040160206040518083038186803b15801561085b57600080fd5b505afa15801561086f573d6000803e3d6000fd5b505050506040513d601f19601f820116820180604052508101906108939190611118565b81106108da5760405162461bcd60e51b81526020600482015260166024820152754f6e6c79206578697374696e672070726f6a6563747360501b604482015260640161027c565b6000806108e78189610c2f565b91509150811561091b576001600160a01b0381166000908152600360205260408120805491610915836112d4565b91905055505b6001600160a01b038716600090815260036020526040812080549161093f83611191565b90915550610951905060008989610c5c565b50866001600160a01b0316887f21fd9bfc68d8bc4b740ebf996aa9c255d1e6bb474f81dc2ad577d5d3c5a5e1e0896001600160a01b031663e9d1e8ac6040518163ffffffff1660e01b815260040160006040518083038186803b1580156109b757600080fd5b505afa1580156109cb573d6000803e3d6000fd5b505050506040513d6000823e601f3d908101601f191682016040526109f39190810190611215565b604051610a0091906112c1565b60405180910390a35050505050505050565b6001620dafa160e41b0319610a2681610b08565b610a425760405162461bcd60e51b815260040161027c90611131565b6001600160a01b03821660009081526003602052604090205415610a9e5760405162461bcd60e51b81526020600482015260136024820152724f6e6c7920756e75736564206d696e7465727360681b604482015260640161027c565b6001600160a01b038216600081815260046020526040808220805460ff19169055517f44f4322f8daa225d5f4877ad0f7d3dfba248a774396f3ca99405ed40a044fe819190a25050565b6000610af48383610c7a565b90505b92915050565b6000610af782610cea565b60405163230448b160e01b81523360048201523060248201526001600160e01b0319821660448201526000907f00000000000000000000000000000000000000000000000000000000000000006001600160a01b03169063230448b190606401602060405180830381600087803b158015610b8257600080fd5b505af1158015610b96573d6000803e3d6000fd5b505050506040513d601f19601f82011682018060405250810190610af791906112eb565b60036000610bc88184610ae8565b6001600160a01b0316815260208101919091526040016000908120805491610bef836112d4565b90915550610c009050600082610cf5565b5060405181907f15267d34078ead35bc0303f6cdd08f99b837bdfcd7fab97fca4c58f3d85d760590600090a250565b6000808080610c3e8686610d01565b909450925050505b9250929050565b6000808080610c3e8686610d3b565b6000610c7284846001600160a01b038516610d66565b949350505050565b600081815260028301602052604081205480151580610c9e5750610c9e8484610d83565b610af45760405162461bcd60e51b815260206004820152601e60248201527f456e756d657261626c654d61703a206e6f6e6578697374656e74206b65790000604482015260640161027c565b6000610af782610d8f565b6000610af48383610d99565b6000818152600283016020526040812054819080610d3057610d238585610d83565b925060009150610c469050565b600192509050610c46565b60008080610d498585610db6565b600081815260029690960160205260409095205494959350505050565b60008281526002840160205260408120829055610c728484610dc2565b6000610af48383610dce565b6000610af7825490565b60008181526002830160205260408120819055610af48383610de6565b6000610af48383610df2565b6000610af48383610e1c565b60008181526001830160205260408120541515610af4565b6000610af48383610e6b565b6000826000018281548110610e0957610e09611165565b9060005260206000200154905092915050565b6000818152600183016020526040812054610e6357508154600181810184556000848152602080822090930184905584548482528286019093526040902091909155610af7565b506000610af7565b60008181526001830160205260408120548015610f54576000610e8f60018361130d565b8554909150600090610ea39060019061130d565b9050818114610f08576000866000018281548110610ec357610ec3611165565b9060005260206000200154905080876000018481548110610ee657610ee6611165565b6000918252602080832090910192909255918252600188019052604090208390555b8554869080610f1957610f19611324565b600190038181906000526020600020016000905590558560010160008681526020019081526020016000206000905560019350505050610af7565b6000915050610af7565b6001600160a01b0381168114610f7357600080fd5b50565b600080600060608486031215610f8b57600080fd5b8335610f9681610f5e565b9250602084013591506040840135610fad81610f5e565b809150509250925092565b600060208284031215610fca57600080fd5b8135610af481610f5e565b60008060208385031215610fe857600080fd5b82356001600160401b0380821115610fff57600080fd5b818501915085601f83011261101357600080fd5b81358181111561102257600080fd5b8660208260051b850101111561103757600080fd5b60209290920196919550909350505050565b60006020828403121561105b57600080fd5b5035919050565b60005b8381101561107d578181015183820152602001611065565b8381111561108c576000848401525b50505050565b600081518084526110aa816020860160208601611062565b601f01601f19169290920160200192915050565b8381526001600160a01b038316602082015260606040820181905260009061033090830184611092565b600080604083850312156110fb57600080fd5b82359150602083013561110d81610f5e565b809150509250929050565b60006020828403121561112a57600080fd5b5051919050565b6020808252601a908201527913db9b1e4810dbdc994810591b5a5b9050d308185b1b1bddd95960321b604082015260600190565b634e487b7160e01b600052603260045260246000fd5b634e487b7160e01b600052601160045260246000fd5b60006000198214156111a5576111a561117b565b5060010190565b6000602082840312156111be57600080fd5b8151610af481610f5e565b6020808252601c908201527b13db9b1e4810dbdc994810591b5a5b9050d3081bdc88105c9d1a5cdd60221b604082015260600190565b634e487b7160e01b600052604160045260246000fd5b60006020828403121561122757600080fd5b81516001600160401b038082111561123e57600080fd5b818401915084601f83011261125257600080fd5b815181811115611264576112646111ff565b604051601f8201601f19908116603f0116810190838211818310171561128c5761128c6111ff565b816040528281528760208487010111156112a557600080fd5b6112b6836020830160208801611062565b979650505050505050565b602081526000610af46020830184611092565b6000816112e3576112e361117b565b506000190190565b6000602082840312156112fd57600080fd5b81518015158114610af457600080fd5b60008282101561131f5761131f61117b565b500390565b634e487b7160e01b600052603160045260246000fdfea2646970667358221220a9cd39377cccaac3e785962a23e736ba49202ba4341a25092585757faa39845e64736f6c63430008090033",
  "linkReferences": {},
  "deployedLinkReferences": {}
}