{
  "_format": "hh-sol-artifact-1",
  "contractName": "MinterFilter",
  "sourceName": "contracts/minter-suite/MinterFilter.sol",
  "abi": [
    {
      "inputs": [
        {
          "internalType": "address",
          "name": "_genArt721Address",
          "type": "address"
        }
      ],
      "stateMutability": "nonpayable",
      "type": "constructor"
    },
    {
      "anonymous": false,
      "inputs": [
        {
          "indexed": true,
          "internalType": "address",
          "name": "_coreContractAddress",
          "type": "address"
        }
      ],
      "name": "IsCanonicalMinterFilter",
      "type": "event"
    },
    {
      "anonymous": false,
      "inputs": [
        {
          "indexed": true,
          "internalType": "address",
          "name": "_minterAddress",
          "type": "address"
        },
        {
          "indexed": true,
          "internalType": "string",
          "name": "_minterType",
          "type": "string"
        }
      ],
      "name": "MinterApproved",
      "type": "event"
    },
    {
      "anonymous": false,
      "inputs": [
        {
          "indexed": true,
          "internalType": "address",
          "name": "_minterAddress",
          "type": "address"
        }
      ],
      "name": "MinterRevoked",
      "type": "event"
    },
    {
      "anonymous": false,
      "inputs": [
        {
          "indexed": true,
          "internalType": "uint256",
          "name": "_projectId",
          "type": "uint256"
        },
        {
          "indexed": true,
          "internalType": "address",
          "name": "_minterAddress",
          "type": "address"
        },
        {
          "indexed": true,
          "internalType": "string",
          "name": "_minterType",
          "type": "string"
        }
      ],
      "name": "ProjectMinterRegistered",
      "type": "event"
    },
    {
      "anonymous": false,
      "inputs": [
        {
          "indexed": true,
          "internalType": "uint256",
          "name": "_projectId",
          "type": "uint256"
        }
      ],
      "name": "ProjectMinterRemoved",
      "type": "event"
    },
    {
      "inputs": [
        {
          "internalType": "address",
          "name": "_minterAddress",
          "type": "address"
        }
      ],
      "name": "addApprovedMinter",
      "outputs": [],
      "stateMutability": "nonpayable",
      "type": "function"
    },
    {
      "inputs": [],
      "name": "alertAsCanonicalMinterFilter",
      "outputs": [],
      "stateMutability": "nonpayable",
      "type": "function"
    },
    {
      "inputs": [],
      "name": "artblocksContract",
      "outputs": [
        {
          "internalType": "contract IGenArt721CoreContract",
          "name": "",
          "type": "address"
        }
      ],
      "stateMutability": "view",
      "type": "function"
    },
    {
      "inputs": [
        {
          "internalType": "uint256",
          "name": "_projectId",
          "type": "uint256"
        }
      ],
      "name": "getMinterForProject",
      "outputs": [
        {
          "internalType": "address",
          "name": "",
          "type": "address"
        }
      ],
      "stateMutability": "view",
      "type": "function"
    },
    {
      "inputs": [],
      "name": "getNumProjectsWithMinters",
      "outputs": [
        {
          "internalType": "uint256",
          "name": "",
          "type": "uint256"
        }
      ],
      "stateMutability": "view",
      "type": "function"
    },
    {
      "inputs": [
        {
          "internalType": "uint256",
          "name": "_index",
          "type": "uint256"
        }
      ],
      "name": "getProjectAndMinterInfoAt",
      "outputs": [
        {
          "internalType": "uint256",
          "name": "projectId",
          "type": "uint256"
        },
        {
          "internalType": "address",
          "name": "minterAddress",
          "type": "address"
        },
        {
          "internalType": "string",
          "name": "minterType",
          "type": "string"
        }
      ],
      "stateMutability": "view",
      "type": "function"
    },
    {
      "inputs": [
        {
          "internalType": "address",
          "name": "",
          "type": "address"
        }
      ],
      "name": "isApprovedMinter",
      "outputs": [
        {
          "internalType": "bool",
          "name": "",
          "type": "bool"
        }
      ],
      "stateMutability": "view",
      "type": "function"
    },
    {
      "inputs": [
        {
          "internalType": "address",
          "name": "_to",
          "type": "address"
        },
        {
          "internalType": "uint256",
          "name": "_projectId",
          "type": "uint256"
        },
        {
          "internalType": "address",
          "name": "sender",
          "type": "address"
        }
      ],
      "name": "mint",
      "outputs": [
        {
          "internalType": "uint256",
          "name": "_tokenId",
          "type": "uint256"
        }
      ],
      "stateMutability": "nonpayable",
      "type": "function"
    },
    {
      "inputs": [
        {
          "internalType": "address",
          "name": "",
          "type": "address"
        }
      ],
      "name": "numProjectsUsingMinter",
      "outputs": [
        {
          "internalType": "uint256",
          "name": "",
          "type": "uint256"
        }
      ],
      "stateMutability": "view",
      "type": "function"
    },
    {
      "inputs": [
        {
          "internalType": "uint256",
          "name": "_projectId",
          "type": "uint256"
        }
      ],
      "name": "projectHasMinter",
      "outputs": [
        {
          "internalType": "bool",
          "name": "",
          "type": "bool"
        }
      ],
      "stateMutability": "view",
      "type": "function"
    },
    {
      "inputs": [
        {
          "internalType": "address",
          "name": "_minterAddress",
          "type": "address"
        }
      ],
      "name": "removeApprovedMinter",
      "outputs": [],
      "stateMutability": "nonpayable",
      "type": "function"
    },
    {
      "inputs": [
        {
          "internalType": "uint256",
          "name": "_projectId",
          "type": "uint256"
        }
      ],
      "name": "removeMinterForProject",
      "outputs": [],
      "stateMutability": "nonpayable",
      "type": "function"
    },
    {
      "inputs": [
        {
          "internalType": "uint256[]",
          "name": "_projectIds",
          "type": "uint256[]"
        }
      ],
      "name": "removeMintersForProjects",
      "outputs": [],
      "stateMutability": "nonpayable",
      "type": "function"
    },
    {
      "inputs": [
        {
          "internalType": "uint256",
          "name": "_projectId",
          "type": "uint256"
        },
        {
          "internalType": "address",
          "name": "_minterAddress",
          "type": "address"
        }
      ],
      "name": "setMinterForProject",
      "outputs": [],
      "stateMutability": "nonpayable",
      "type": "function"
    }
  ],
  "bytecode": "0x608060405234801561001057600080fd5b506040516116cb3803806116cb83398101604081905261002f91610054565b600080546001600160a01b0319166001600160a01b0392909216919091179055610084565b60006020828403121561006657600080fd5b81516001600160a01b038116811461007d57600080fd5b9392505050565b611638806100936000396000f3fe608060405234801561001057600080fd5b50600436106100ca5760003560e01c8063b34c5c841161007c578063b34c5c841461018d578063bcc0fdf1146101a0578063bee4d106146101b3578063c47d50f5146101c6578063e7300db9146101d9578063faf0d745146101fb578063ff2505f01461020e57600080fd5b80630d4d1513146100cf5780630dcd404b146100f557806326df17b5146101155780633a3d146f14610135578063718284221461016857806393cb6ef014610170578063a409177e1461017a575b600080fd5b6100e26100dd366004611234565b610221565b6040519081526020015b60405180910390f35b600054610108906001600160a01b031681565b6040516100ec9190611276565b6100e261012336600461128a565b60046020526000908152604090205481565b61015861014336600461128a565b60056020526000908152604090205460ff1681565b60405190151581526020016100ec565b6100e2610322565b610178610333565b005b6101786101883660046112a7565b6104cb565b61017861019b36600461131c565b6105ac565b6101086101ae36600461131c565b6106ec565b6101786101c136600461128a565b610748565b6101586101d436600461131c565b6108c0565b6101ec6101e736600461131c565b6108d6565b6040516100ec93929190611361565b6101786102093660046113aa565b61096b565b61017861021c36600461128a565b610d16565b600061022e600184610e57565b6001600160a01b0316336001600160a01b03161461028a5760405162461bcd60e51b815260206004820152601460248201527327b7363c9030b9b9b4b3b732b21036b4b73a32b960611b60448201526064015b60405180910390fd5b60008054604051630d4d151360e01b81526001600160a01b03878116600483015260248201879052858116604483015290911690630d4d151390606401602060405180830381600087803b1580156102e157600080fd5b505af11580156102f5573d6000803e3d6000fd5b505050506040513d601f19601f8201168201806040525081019061031991906113da565b95945050505050565b600061032e6001610e6c565b905090565b600054604051633af32abf60e01b81526001600160a01b0390911690633af32abf90610363903390600401611276565b60206040518083038186803b15801561037b57600080fd5b505afa15801561038f573d6000803e3d6000fd5b505050506040513d601f19601f820116820180604052508101906103b391906113f3565b6103cf5760405162461bcd60e51b815260040161028190611415565b60005460405163568182e760e11b81526001600160a01b039091169063ad0305ce906103ff903090600401611276565b60206040518083038186803b15801561041757600080fd5b505afa15801561042b573d6000803e3d6000fd5b505050506040513d601f19601f8201168201806040525081019061044f91906113f3565b6104935760405162461bcd60e51b815260206004820152601560248201527413db9b1e481b5a5b9d08185b1b1bdddb1a5cdd1959605a1b6044820152606401610281565b600080546040516001600160a01b03909116917f93962c490513b829a454280256dc873e04e932b196e23a5d5099b88a2a1cab0191a2565b600054604051633af32abf60e01b81526001600160a01b0390911690633af32abf906104fb903390600401611276565b60206040518083038186803b15801561051357600080fd5b505afa158015610527573d6000803e3d6000fd5b505050506040513d601f19601f8201168201806040525081019061054b91906113f3565b6105675760405162461bcd60e51b815260040161028190611415565b8060005b818110156105a65761059484848381811061058857610588611444565b90506020020135610e77565b8061059e81611470565b91505061056b565b50505050565b600054604051633af32abf60e01b815282916001600160a01b031690633af32abf906105dc903390600401611276565b60206040518083038186803b1580156105f457600080fd5b505afa158015610608573d6000803e3d6000fd5b505050506040513d601f19601f8201168201806040525081019061062c91906113f3565b806106c3575060005460405163a47d29cb60e01b8152600481018390526001600160a01b039091169063a47d29cb9060240160206040518083038186803b15801561067657600080fd5b505afa15801561068a573d6000803e3d6000fd5b505050506040513d601f19601f820116820180604052508101906106ae919061148b565b6001600160a01b0316336001600160a01b0316145b6106df5760405162461bcd60e51b8152600401610281906114a8565b6106e882610e77565b5050565b600080806106fb600185610eed565b91509150816107415760405162461bcd60e51b8152602060048201526012602482015271139bc81b5a5b9d195c88185cdcda59db995960721b6044820152606401610281565b9392505050565b600054604051633af32abf60e01b81526001600160a01b0390911690633af32abf90610778903390600401611276565b60206040518083038186803b15801561079057600080fd5b505afa1580156107a4573d6000803e3d6000fd5b505050506040513d601f19601f820116820180604052508101906107c891906113f3565b6107e45760405162461bcd60e51b815260040161028190611415565b6001600160a01b038116600081815260056020526040808220805460ff191660011790558051633a747a2b60e21b8152905163e9d1e8ac92600480840193919291829003018186803b15801561083957600080fd5b505afa15801561084d573d6000803e3d6000fd5b505050506040513d6000823e601f3d908101601f1916820160405261087591908101906114f5565b60405161088291906115a2565b604051908190038120906001600160a01b038316907f1ac09d1079d96f19b763467642c3c3b4e36b56222414f4a4a50f26c7011147bb90600090a350565b6000806108ce600184610eed565b509392505050565b60008060606108e6600185610f0b565b8093508194505050816001600160a01b031663e9d1e8ac6040518163ffffffff1660e01b815260040160006040518083038186803b15801561092757600080fd5b505afa15801561093b573d6000803e3d6000fd5b505050506040513d6000823e601f3d908101601f1916820160405261096391908101906114f5565b929491935050565b600054604051633af32abf60e01b815283916001600160a01b031690633af32abf9061099b903390600401611276565b60206040518083038186803b1580156109b357600080fd5b505afa1580156109c7573d6000803e3d6000fd5b505050506040513d601f19601f820116820180604052508101906109eb91906113f3565b80610a82575060005460405163a47d29cb60e01b8152600481018390526001600160a01b039091169063a47d29cb9060240160206040518083038186803b158015610a3557600080fd5b505afa158015610a49573d6000803e3d6000fd5b505050506040513d601f19601f82011682018060405250810190610a6d919061148b565b6001600160a01b0316336001600160a01b0316145b610a9e5760405162461bcd60e51b8152600401610281906114a8565b6001600160a01b038216600090815260056020526040902054829060ff16610b125760405162461bcd60e51b815260206004820152602160248201527f4f6e6c7920617070726f766564206d696e746572732061726520616c6c6f77656044820152601960fa1b6064820152608401610281565b6000546040805163e935b7b160e01b8152905186926001600160a01b03169163e935b7b1916004808301926020929190829003018186803b158015610b5657600080fd5b505afa158015610b6a573d6000803e3d6000fd5b505050506040513d601f19601f82011682018060405250810190610b8e91906113da565b8110610bd55760405162461bcd60e51b81526020600482015260166024820152754f6e6c79206578697374696e672070726f6a6563747360501b6044820152606401610281565b600080610be3600188610eed565b915091508115610c17576001600160a01b0381166000908152600460205260408120805491610c11836115be565b91905055505b6001600160a01b0386166000908152600460205260408120805491610c3b83611470565b90915550610c4d905060018888610f1a565b50856001600160a01b031663e9d1e8ac6040518163ffffffff1660e01b815260040160006040518083038186803b158015610c8757600080fd5b505afa158015610c9b573d6000803e3d6000fd5b505050506040513d6000823e601f3d908101601f19168201604052610cc391908101906114f5565b604051610cd091906115a2565b604051908190038120906001600160a01b0388169089907f21fd9bfc68d8bc4b740ebf996aa9c255d1e6bb474f81dc2ad577d5d3c5a5e1e090600090a450505050505050565b600054604051633af32abf60e01b81526001600160a01b0390911690633af32abf90610d46903390600401611276565b60206040518083038186803b158015610d5e57600080fd5b505afa158015610d72573d6000803e3d6000fd5b505050506040513d601f19601f82011682018060405250810190610d9691906113f3565b610db25760405162461bcd60e51b815260040161028190611415565b6001600160a01b03811660009081526004602052604090205415610e0e5760405162461bcd60e51b81526020600482015260136024820152724f6e6c7920756e75736564206d696e7465727360681b6044820152606401610281565b6001600160a01b038116600081815260056020526040808220805460ff19169055517f44f4322f8daa225d5f4877ad0f7d3dfba248a774396f3ca99405ed40a044fe819190a250565b6000610e638383610f38565b90505b92915050565b6000610e6682610fa8565b60046000610e86600184610e57565b6001600160a01b0316815260208101919091526040016000908120805491610ead836115be565b90915550610ebe9050600182610fb3565b5060405181907f15267d34078ead35bc0303f6cdd08f99b837bdfcd7fab97fca4c58f3d85d760590600090a250565b6000808080610efc8686610fbf565b909450925050505b9250929050565b6000808080610efc8686610ff9565b6000610f3084846001600160a01b038516611024565b949350505050565b600081815260028301602052604081205480151580610f5c5750610f5c8484611041565b610e635760405162461bcd60e51b815260206004820152601e60248201527f456e756d657261626c654d61703a206e6f6e6578697374656e74206b657900006044820152606401610281565b6000610e668261104d565b6000610e638383611057565b6000818152600283016020526040812054819080610fee57610fe18585611041565b925060009150610f049050565b600192509050610f04565b600080806110078585611074565b600081815260029690960160205260409095205494959350505050565b60008281526002840160205260408120829055610f308484611080565b6000610e63838361108c565b6000610e66825490565b60008181526002830160205260408120819055610e6383836110a4565b6000610e6383836110b0565b6000610e6383836110da565b60008181526001830160205260408120541515610e63565b6000610e638383611129565b60008260000182815481106110c7576110c7611444565b9060005260206000200154905092915050565b600081815260018301602052604081205461112157508154600181810184556000848152602080822090930184905584548482528286019093526040902091909155610e66565b506000610e66565b6000818152600183016020526040812054801561121257600061114d6001836115d5565b8554909150600090611161906001906115d5565b90508181146111c657600086600001828154811061118157611181611444565b90600052602060002001549050808760000184815481106111a4576111a4611444565b6000918252602080832090910192909255918252600188019052604090208390555b85548690806111d7576111d76115ec565b600190038181906000526020600020016000905590558560010160008681526020019081526020016000206000905560019350505050610e66565b6000915050610e66565b6001600160a01b038116811461123157600080fd5b50565b60008060006060848603121561124957600080fd5b83356112548161121c565b925060208401359150604084013561126b8161121c565b809150509250925092565b6001600160a01b0391909116815260200190565b60006020828403121561129c57600080fd5b8135610e638161121c565b600080602083850312156112ba57600080fd5b823567ffffffffffffffff808211156112d257600080fd5b818501915085601f8301126112e657600080fd5b8135818111156112f557600080fd5b8660208260051b850101111561130a57600080fd5b60209290920196919550909350505050565b60006020828403121561132e57600080fd5b5035919050565b60005b83811015611350578181015183820152602001611338565b838111156105a65750506000910152565b83815260018060a01b03831660208201526060604082015260008251806060840152611394816080850160208701611335565b601f01601f191691909101608001949350505050565b600080604083850312156113bd57600080fd5b8235915060208301356113cf8161121c565b809150509250929050565b6000602082840312156113ec57600080fd5b5051919050565b60006020828403121561140557600080fd5b81518015158114610e6357600080fd5b60208082526015908201527413db9b1e4810dbdc99481dda1a5d195b1a5cdd1959605a1b604082015260600190565b634e487b7160e01b600052603260045260246000fd5b634e487b7160e01b600052601160045260246000fd5b60006000198214156114845761148461145a565b5060010190565b60006020828403121561149d57600080fd5b8151610e638161121c565b6020808252601f908201527f4f6e6c7920436f72652077686974656c6973746564206f722041727469737400604082015260600190565b634e487b7160e01b600052604160045260246000fd5b60006020828403121561150757600080fd5b815167ffffffffffffffff8082111561151f57600080fd5b818401915084601f83011261153357600080fd5b815181811115611545576115456114df565b604051601f8201601f19908116603f0116810190838211818310171561156d5761156d6114df565b8160405282815287602084870101111561158657600080fd5b611597836020830160208801611335565b979650505050505050565b600082516115b4818460208701611335565b9190910192915050565b6000816115cd576115cd61145a565b506000190190565b6000828210156115e7576115e761145a565b500390565b634e487b7160e01b600052603160045260246000fdfea264697066735822122015ece6081141456a83bd2e06659dfb4794bfc36f1f855e3d2eb624f1c4ea077664736f6c63430008090033",
  "linkReferences": {},
  "deployedLinkReferences": {}
}