{
  "_format": "hh-sol-artifact-1",
  "contractName": "MinterSetPriceERC20V2",
  "sourceName": "contracts/minter-suite/Minters/MinterSetPriceERC20/MinterSetPriceERC20V2.sol",
  "abi": [
    {
      "inputs": [
        {
          "internalType": "address",
          "name": "_genArt721Address",
          "type": "address"
        },
        {
          "internalType": "address",
          "name": "_minterFilter",
          "type": "address"
        }
      ],
      "stateMutability": "nonpayable",
      "type": "constructor"
    },
    {
      "anonymous": false,
      "inputs": [
        {
          "indexed": true,
          "internalType": "uint256",
          "name": "_projectId",
          "type": "uint256"
        },
        {
          "indexed": true,
          "internalType": "uint256",
          "name": "_pricePerTokenInWei",
          "type": "uint256"
        }
      ],
      "name": "PricePerTokenInWeiUpdated",
      "type": "event"
    },
    {
      "anonymous": false,
      "inputs": [
        {
          "indexed": true,
          "internalType": "uint256",
          "name": "_projectId",
          "type": "uint256"
        },
        {
          "indexed": true,
          "internalType": "address",
          "name": "_currencyAddress",
          "type": "address"
        },
        {
          "indexed": false,
          "internalType": "string",
          "name": "_currencySymbol",
          "type": "string"
        }
      ],
      "name": "ProjectCurrencyInfoUpdated",
      "type": "event"
    },
    {
      "anonymous": false,
      "inputs": [
        {
          "indexed": true,
          "internalType": "uint256",
          "name": "_projectId",
          "type": "uint256"
        },
        {
          "indexed": false,
          "internalType": "bool",
          "name": "_purchaseToDisabled",
          "type": "bool"
        }
      ],
      "name": "PurchaseToDisabledUpdated",
      "type": "event"
    },
    {
      "inputs": [
        {
          "internalType": "uint256",
          "name": "_projectId",
          "type": "uint256"
        }
      ],
      "name": "checkYourAllowanceOfProjectERC20",
      "outputs": [
        {
          "internalType": "uint256",
          "name": "remaining",
          "type": "uint256"
        }
      ],
      "stateMutability": "view",
      "type": "function"
    },
    {
      "inputs": [],
      "name": "genArt721CoreAddress",
      "outputs": [
        {
          "internalType": "address",
          "name": "",
          "type": "address"
        }
      ],
      "stateMutability": "view",
      "type": "function"
    },
    {
      "inputs": [
        {
          "internalType": "uint256",
          "name": "_projectId",
          "type": "uint256"
        }
      ],
      "name": "getPriceInfo",
      "outputs": [
        {
          "internalType": "bool",
          "name": "isConfigured",
          "type": "bool"
        },
        {
          "internalType": "uint256",
          "name": "tokenPriceInWei",
          "type": "uint256"
        },
        {
          "internalType": "string",
          "name": "currencySymbol",
          "type": "string"
        },
        {
          "internalType": "address",
          "name": "currencyAddress",
          "type": "address"
        }
      ],
      "stateMutability": "view",
      "type": "function"
    },
    {
      "inputs": [
        {
          "internalType": "uint256",
          "name": "_projectId",
          "type": "uint256"
        }
      ],
      "name": "getYourBalanceOfProjectERC20",
      "outputs": [
        {
          "internalType": "uint256",
          "name": "balance",
          "type": "uint256"
        }
      ],
      "stateMutability": "view",
      "type": "function"
    },
    {
      "inputs": [],
      "name": "minterFilterAddress",
      "outputs": [
        {
          "internalType": "address",
          "name": "",
          "type": "address"
        }
      ],
      "stateMutability": "view",
      "type": "function"
    },
    {
      "inputs": [],
      "name": "minterType",
      "outputs": [
        {
          "internalType": "string",
          "name": "",
          "type": "string"
        }
      ],
      "stateMutability": "view",
      "type": "function"
    },
    {
      "inputs": [
        {
          "internalType": "uint256",
          "name": "",
          "type": "uint256"
        }
      ],
      "name": "projectConfig",
      "outputs": [
        {
          "internalType": "bool",
          "name": "maxHasBeenInvoked",
          "type": "bool"
        },
        {
          "internalType": "bool",
          "name": "priceIsConfigured",
          "type": "bool"
        },
        {
          "internalType": "uint24",
          "name": "maxInvocations",
          "type": "uint24"
        },
        {
          "internalType": "address",
          "name": "currencyAddress",
          "type": "address"
        },
        {
          "internalType": "uint256",
          "name": "pricePerTokenInWei",
          "type": "uint256"
        },
        {
          "internalType": "string",
          "name": "currencySymbol",
          "type": "string"
        }
      ],
      "stateMutability": "view",
      "type": "function"
    },
    {
      "inputs": [
        {
          "internalType": "uint256",
          "name": "_projectId",
          "type": "uint256"
        }
      ],
      "name": "projectMaxHasBeenInvoked",
      "outputs": [
        {
          "internalType": "bool",
          "name": "",
          "type": "bool"
        }
      ],
      "stateMutability": "view",
      "type": "function"
    },
    {
      "inputs": [
        {
          "internalType": "uint256",
          "name": "_projectId",
          "type": "uint256"
        }
      ],
      "name": "projectMaxInvocations",
      "outputs": [
        {
          "internalType": "uint256",
          "name": "",
          "type": "uint256"
        }
      ],
      "stateMutability": "view",
      "type": "function"
    },
    {
      "inputs": [
        {
          "internalType": "uint256",
          "name": "_projectId",
          "type": "uint256"
        }
      ],
      "name": "purchase",
      "outputs": [
        {
          "internalType": "uint256",
          "name": "tokenId",
          "type": "uint256"
        }
      ],
      "stateMutability": "payable",
      "type": "function"
    },
    {
      "inputs": [
        {
          "internalType": "address",
          "name": "_to",
          "type": "address"
        },
        {
          "internalType": "uint256",
          "name": "_projectId",
          "type": "uint256"
        }
      ],
      "name": "purchaseTo",
      "outputs": [
        {
          "internalType": "uint256",
          "name": "tokenId",
          "type": "uint256"
        }
      ],
      "stateMutability": "payable",
      "type": "function"
    },
    {
      "inputs": [
        {
          "internalType": "address",
          "name": "_to",
          "type": "address"
        },
        {
          "internalType": "uint256",
          "name": "_projectId",
          "type": "uint256"
        }
      ],
      "name": "purchaseTo_do6",
      "outputs": [
        {
          "internalType": "uint256",
          "name": "tokenId",
          "type": "uint256"
        }
      ],
      "stateMutability": "payable",
      "type": "function"
    },
    {
      "inputs": [
        {
          "internalType": "uint256",
          "name": "_projectId",
          "type": "uint256"
        }
      ],
      "name": "purchase_H4M",
      "outputs": [
        {
          "internalType": "uint256",
          "name": "tokenId",
          "type": "uint256"
        }
      ],
      "stateMutability": "payable",
      "type": "function"
    },
    {
      "inputs": [
        {
          "internalType": "uint256",
          "name": "_projectId",
          "type": "uint256"
        }
      ],
      "name": "setProjectMaxInvocations",
      "outputs": [],
      "stateMutability": "nonpayable",
      "type": "function"
    },
    {
      "inputs": [
        {
          "internalType": "uint256",
          "name": "_projectId",
          "type": "uint256"
        }
      ],
      "name": "togglePurchaseToDisabled",
      "outputs": [],
      "stateMutability": "view",
      "type": "function"
    },
    {
      "inputs": [
        {
          "internalType": "uint256",
          "name": "_projectId",
          "type": "uint256"
        },
        {
          "internalType": "uint256",
          "name": "_pricePerTokenInWei",
          "type": "uint256"
        }
      ],
      "name": "updatePricePerTokenInWei",
      "outputs": [],
      "stateMutability": "nonpayable",
      "type": "function"
    },
    {
      "inputs": [
        {
          "internalType": "uint256",
          "name": "_projectId",
          "type": "uint256"
        },
        {
          "internalType": "string",
          "name": "_currencySymbol",
          "type": "string"
        },
        {
          "internalType": "address",
          "name": "_currencyAddress",
          "type": "address"
        }
      ],
      "name": "updateProjectCurrencyInfo",
      "outputs": [],
      "stateMutability": "nonpayable",
      "type": "function"
    }
  ],
  "bytecode": "0x6101006040523480156200001257600080fd5b5060405162001cf438038062001cf4833981016040819052620000359162000157565b600160009081556001600160a01b03808416608081905260a081905290831660c081905260e0819052604080516392a10f8360e01b81529051929391926392a10f8392600480840193602093929083900390910190829087803b1580156200009c57600080fd5b505af1158015620000b1573d6000803e3d6000fd5b505050506040513d601f19601f82011682018060405250810190620000d791906200018f565b6001600160a01b031614620001325760405162461bcd60e51b815260206004820152601860248201527f496c6c6567616c20636f6e74726163742070616972696e670000000000000000604482015260640160405180910390fd5b5050620001b4565b80516001600160a01b03811681146200015257600080fd5b919050565b600080604083850312156200016b57600080fd5b62000176836200013a565b915062000186602084016200013a565b90509250929050565b600060208284031215620001a257600080fd5b620001ad826200013a565b9392505050565b60805160a05160c05160e051611ae36200021160003960006104c0015260006102ca01526000818161083b0152818161094401528181610cd701528181610f2901528181610feb01526112f8015260006102170152611ae36000f3fe6080604052600436106100ca5760003560e01c80619987146100cf578061b460146100f557806340d1397e14610108578063462add461461012a57806356690aaf1461016a5780636cb9b7ff146101a2578063774159c6146101c2578063891407c0146101f257806392a10f8314610205578063a980960014610246578063c71b1b7114610266578063d195b36514610298578063dd85582f146102b8578063e9d1e8ac146102ec578063efef39a1146100f5578063f46321031461033a578063f7bd4b881461035a575b600080fd5b6100e26100dd36600461165a565b61037a565b6040519081526020015b60405180910390f35b6100e2610103366004611686565b610811565b34801561011457600080fd5b50610128610123366004611686565b610823565b005b34801561013657600080fd5b5061015a610145366004611686565b60009081526001602052604090205460ff1690565b60405190151581526020016100ec565b34801561017657600080fd5b506100e2610185366004611686565b60009081526001602052604090205462010000900462ffffff1690565b3480156101ae57600080fd5b506101286101bd36600461169f565b61092c565b3480156101ce57600080fd5b506101e26101dd366004611686565b610a49565b6040516100ec949392919061171d565b6100e261020036600461165a565b610b3f565b34801561021157600080fd5b506102397f000000000000000000000000000000000000000000000000000000000000000081565b6040516100ec9190611757565b34801561025257600080fd5b506100e2610261366004611686565b610b52565b34801561027257600080fd5b50610286610281366004611686565b610be4565b6040516100ec9695949392919061176b565b3480156102a457600080fd5b506101286102b33660046117cf565b610cbf565b3480156102c457600080fd5b506102397f000000000000000000000000000000000000000000000000000000000000000081565b3480156102f857600080fd5b5061032d6040518060400160405280601581526020017426b4b73a32b929b2ba283934b1b2a2a92199182b1960591b81525081565b6040516100ec919061189a565b34801561034657600080fd5b506100e2610355366004611686565b610ecc565b34801561036657600080fd5b50610128610375366004611686565b610f10565b6000600260005414156103d45760405162461bcd60e51b815260206004820152601f60248201527f5265656e7472616e637947756172643a207265656e7472616e742063616c6c0060448201526064015b60405180910390fd5b60026000908155828152600160205260409020805460ff16156104475760405162461bcd60e51b815260206004820152602560248201527f4d6178696d756d206e756d626572206f6620696e766f636174696f6e732072656044820152641858da195960da1b60648201526084016103cb565b8054610100900460ff166104945760405162461bcd60e51b8152602060048201526014602482015273141c9a58d9481b9bdd0818dbdb999a59dd5c995960621b60448201526064016103cb565b604051630d4d151360e01b81526001600160a01b038581166004830152602482018590523360448301527f00000000000000000000000000000000000000000000000000000000000000001690630d4d151390606401602060405180830381600087803b15801561050457600080fd5b505af1158015610518573d6000803e3d6000fd5b505050506040513d601f19601f8201168201806040525081019061053c91906118ad565b815490925060001962ffffff6201000090920482160116620f42408306141561056b57805460ff191660011781555b60018101548154600160281b90046001600160a01b031680156107a95734156105fc5760405162461bcd60e51b815260206004820152603f60248201527f746869732070726f6a6563742061636365707473206120646966666572656e7460448201527f2063757272656e637920616e642063616e6e6f7420616363657074204554480060648201526084016103cb565b604051636eb1769f60e11b815282906001600160a01b0383169063dd62ed3e9061062c90339030906004016118c6565b60206040518083038186803b15801561064457600080fd5b505afa158015610658573d6000803e3d6000fd5b505050506040513d601f19601f8201168201806040525081019061067c91906118ad565b10156106d55760405162461bcd60e51b815260206004820152602260248201527f496e73756666696369656e742046756e647320417070726f76656420666f72206044820152610a8b60f31b60648201526084016103cb565b6040516370a0823160e01b815282906001600160a01b038316906370a0823190610703903390600401611757565b60206040518083038186803b15801561071b57600080fd5b505afa15801561072f573d6000803e3d6000fd5b505050506040513d601f19601f8201168201806040525081019061075391906118ad565b10156107995760405162461bcd60e51b815260206004820152601560248201527424b739bab33334b1b4b2b73a103130b630b731b29760591b60448201526064016103cb565b6107a4858383610fe0565b610803565b813410156107f95760405162461bcd60e51b815260206004820181905260248201527f4d7573742073656e64206d696e696d756d2076616c756520746f206d696e742160448201526064016103cb565b610803858361124a565b505050600160005592915050565b600061081d338361037a565b92915050565b60405163a47d29cb60e01b81526004810182905281907f00000000000000000000000000000000000000000000000000000000000000006001600160a01b03169063a47d29cb9060240160206040518083038186803b15801561088557600080fd5b505afa158015610899573d6000803e3d6000fd5b505050506040513d601f19601f820116820180604052508101906108bd91906118e0565b6001600160a01b0316336001600160a01b0316146108ed5760405162461bcd60e51b81526004016103cb906118fd565b60405162461bcd60e51b81526020600482015260146024820152731058dd1a5bdb881b9bdd081cdd5c1c1bdc9d195960621b60448201526064016103cb565b60405163a47d29cb60e01b81526004810183905282907f00000000000000000000000000000000000000000000000000000000000000006001600160a01b03169063a47d29cb9060240160206040518083038186803b15801561098e57600080fd5b505afa1580156109a2573d6000803e3d6000fd5b505050506040513d601f19601f820116820180604052508101906109c691906118e0565b6001600160a01b0316336001600160a01b0316146109f65760405162461bcd60e51b81526004016103cb906118fd565b6000838152600160208190526040808320918201859055815461ff0019166101001790915551839185917f26118a27aca826f829f3bfe21b140b4455c00b434849bd0da50d1e1a9720fb5c9190a3505050565b6000818152600160208190526040909120805491810154610100830460ff16929091606091600160281b90046001600160a01b03169081610aa7576040518060400160405280600381526020016208aa8960eb1b8152509250610b37565b806002018054610ab690611922565b80601f0160208091040260200160405190810160405280929190818152602001828054610ae290611922565b8015610b2f5780601f10610b0457610100808354040283529160200191610b2f565b820191906000526020600020905b815481529060010190602001808311610b1257829003601f168201915b505050505092505b509193509193565b6000610b4b838361037a565b9392505050565b6000818152600160205260408082205490516370a0823160e01b8152600160281b9091046001600160a01b0316906370a0823190610b94903390600401611757565b60206040518083038186803b158015610bac57600080fd5b505afa158015610bc0573d6000803e3d6000fd5b505050506040513d601f19601f8201168201806040525081019061081d91906118ad565b600160208190526000918252604090912080549181015460028201805460ff8086169561010081049091169462010000820462ffffff1694600160281b9092046001600160a01b0316939192909190610c3c90611922565b80601f0160208091040260200160405190810160405280929190818152602001828054610c6890611922565b8015610cb55780601f10610c8a57610100808354040283529160200191610cb5565b820191906000526020600020905b815481529060010190602001808311610c9857829003601f168201915b5050505050905086565b60405163a47d29cb60e01b81526004810184905283907f00000000000000000000000000000000000000000000000000000000000000006001600160a01b03169063a47d29cb9060240160206040518083038186803b158015610d2157600080fd5b505afa158015610d35573d6000803e3d6000fd5b505050506040513d601f19601f82011682018060405250810190610d5991906118e0565b6001600160a01b0316336001600160a01b031614610d895760405162461bcd60e51b81526004016103cb906118fd565b6040516208aa8960eb1b60208201526001600160a01b03831615906023016040516020818303038152906040528051906020012084604051602001610dce919061195d565b6040516020818303038152906040528051906020012014151514610e2f5760405162461bcd60e51b8152602060048201526018602482015277455448206973206f6e6c79206e756c6c206164647265737360401b60448201526064016103cb565b60008481526001602090815260409091208451610e5492600290920191860190611599565b50600084815260016020526040908190208054600160281b600160c81b031916600160281b6001600160a01b03861690810291909117909155905185907fe6c8c6160f844a27204e2b7fb4b7fb9f10e5d322fa850096bef29dc1d0f445c190610ebe90879061189a565b60405180910390a350505050565b600081815260016020526040808220549051636eb1769f60e11b8152600160281b9091046001600160a01b03169063dd62ed3e90610b9490339030906004016118c6565b604051630ea5613f60e01b8152600481018290526000907f00000000000000000000000000000000000000000000000000000000000000006001600160a01b031690630ea5613f9060240160a06040518083038186803b158015610f7357600080fd5b505afa158015610f87573d6000803e3d6000fd5b505050506040513d601f19601f82011682018060405250810190610fab9190611989565b505050600093845260016020526040909320805462ffffff909416620100000264ffffff000019909416939093179092555050565b6000806000806000807f00000000000000000000000000000000000000000000000000000000000000006001600160a01b0316638639415b8a8a6040518363ffffffff1660e01b8152600401611040929190918252602082015260400190565b60c06040518083038186803b15801561105857600080fd5b505afa15801561106c573d6000803e3d6000fd5b505050506040513d601f19601f8201168201806040525081019061109091906119e0565b949a5092985090965094509250905086861561112a576040516323b872dd60e01b81526001600160a01b038216906323b872dd906110d69033908a908c90600401611a49565b602060405180830381600087803b1580156110f057600080fd5b505af1158015611104573d6000803e3d6000fd5b505050506040513d601f19601f820116820180604052508101906111289190611a6d565b505b84156111b4576040516323b872dd60e01b81526001600160a01b038216906323b872dd9061116090339088908a90600401611a49565b602060405180830381600087803b15801561117a57600080fd5b505af115801561118e573d6000803e3d6000fd5b505050506040513d601f19601f820116820180604052508101906111b29190611a6d565b505b821561123e576040516323b872dd60e01b81526001600160a01b038216906323b872dd906111ea90339086908890600401611a49565b602060405180830381600087803b15801561120457600080fd5b505af1158015611218573d6000803e3d6000fd5b505050506040513d601f19601f8201168201806040525081019061123c9190611a6d565b505b50505050505050505050565b34156115955760008061125d8334611a88565b905080156112ed5760405133908290600081818185875af1925050503d80600081146112a5576040519150601f19603f3d011682016040523d82523d6000602084013e6112aa565b606091505b505080925050816112ed5760405162461bcd60e51b815260206004820152600d60248201526c1499599d5b990819985a5b1959609a1b60448201526064016103cb565b6000806000806000807f00000000000000000000000000000000000000000000000000000000000000006001600160a01b0316638639415b8b8b6040518363ffffffff1660e01b815260040161134d929190918252602082015260400190565b60c06040518083038186803b15801561136557600080fd5b505afa158015611379573d6000803e3d6000fd5b505050506040513d601f19601f8201168201806040525081019061139d91906119e0565b955095509550955095509550600086111561144f576040516001600160a01b038616908790600081818185875af1925050503d80600081146113fb576040519150601f19603f3d011682016040523d82523d6000602084013e611400565b606091505b5050809850508761144f5760405162461bcd60e51b8152602060048201526019602482015278105c9d08109b1bd8dadcc81c185e5b595b9d0819985a5b1959603a1b60448201526064016103cb565b83156114ee576040516001600160a01b038416908590600081818185875af1925050503d806000811461149e576040519150601f19603f3d011682016040523d82523d6000602084013e6114a3565b606091505b505080985050876114ee5760405162461bcd60e51b8152602060048201526015602482015274105c9d1a5cdd081c185e5b595b9d0819985a5b1959605a1b60448201526064016103cb565b811561123e576040516001600160a01b038216908390600081818185875af1925050503d806000811461153d576040519150601f19603f3d011682016040523d82523d6000602084013e611542565b606091505b5050809850508761123e5760405162461bcd60e51b815260206004820152601f60248201527f4164646974696f6e616c205061796565207061796d656e74206661696c65640060448201526064016103cb565b5050565b8280546115a590611922565b90600052602060002090601f0160209004810192826115c7576000855561160d565b82601f106115e057805160ff191683800117855561160d565b8280016001018555821561160d579182015b8281111561160d5782518255916020019190600101906115f2565b5061161992915061161d565b5090565b5b80821115611619576000815560010161161e565b6001600160a01b038116811461164757600080fd5b50565b803561165581611632565b919050565b6000806040838503121561166d57600080fd5b823561167881611632565b946020939093013593505050565b60006020828403121561169857600080fd5b5035919050565b600080604083850312156116b257600080fd5b50508035926020909101359150565b60005b838110156116dc5781810151838201526020016116c4565b838111156116eb576000848401525b50505050565b600081518084526117098160208601602086016116c1565b601f01601f19169290920160200192915050565b841515815283602082015260806040820152600061173e60808301856116f1565b905060018060a01b038316606083015295945050505050565b6001600160a01b0391909116815260200190565b8615158152851515602082015262ffffff8516604082015260018060a01b038416606082015282608082015260c060a082015260006117ad60c08301846116f1565b98975050505050505050565b634e487b7160e01b600052604160045260246000fd5b6000806000606084860312156117e457600080fd5b83359250602084013567ffffffffffffffff8082111561180357600080fd5b818601915086601f83011261181757600080fd5b813581811115611829576118296117b9565b604051601f8201601f19908116603f01168101908382118183101715611851576118516117b9565b8160405282815289602084870101111561186a57600080fd5b8260208601602083013760006020848301015280965050505050506118916040850161164a565b90509250925092565b602081526000610b4b60208301846116f1565b6000602082840312156118bf57600080fd5b5051919050565b6001600160a01b0392831681529116602082015260400190565b6000602082840312156118f257600080fd5b8151610b4b81611632565b6020808252600b908201526a13db9b1e48105c9d1a5cdd60aa1b604082015260600190565b600181811c9082168061193657607f821691505b6020821081141561195757634e487b7160e01b600052602260045260246000fd5b50919050565b6000825161196f8184602087016116c1565b9190910192915050565b8051801515811461165557600080fd5b600080600080600060a086880312156119a157600080fd5b85519450602086015193506119b860408701611979565b92506119c660608701611979565b91506119d460808701611979565b90509295509295909350565b60008060008060008060c087890312156119f957600080fd5b865195506020870151611a0b81611632565b604088015160608901519196509450611a2381611632565b608088015160a08901519194509250611a3b81611632565b809150509295509295509295565b6001600160a01b039384168152919092166020820152604081019190915260600190565b600060208284031215611a7f57600080fd5b610b4b82611979565b600082821015611aa857634e487b7160e01b600052601160045260246000fd5b50039056fea2646970667358221220080d3500a6fa9ac06dd1d5d7264df8a77995145f6eeb1476e45629d6b724a70164736f6c63430008090033",
  "linkReferences": {},
  "deployedLinkReferences": {}
}