{
  "_format": "hh-sol-artifact-1",
  "contractName": "MinterDAExpSettlementV0",
  "sourceName": "contracts/minter-suite/Minters/MinterDAExpSettlement/MinterDAExpSettlementV0.sol",
  "abi": [
    {
      "inputs": [
        {
          "internalType": "address",
          "name": "_genArt721Address",
          "type": "address"
        },
        {
          "internalType": "address",
          "name": "_minterFilter",
          "type": "address"
        }
      ],
      "stateMutability": "nonpayable",
      "type": "constructor"
    },
    {
      "anonymous": false,
      "inputs": [
        {
          "indexed": true,
          "internalType": "uint256",
          "name": "_projectId",
          "type": "uint256"
        }
      ],
      "name": "ArtistAndAdminRevenuesWithdrawn",
      "type": "event"
    },
    {
      "anonymous": false,
      "inputs": [
        {
          "indexed": false,
          "internalType": "uint256",
          "name": "_minimumPriceDecayHalfLifeSeconds",
          "type": "uint256"
        },
        {
          "indexed": false,
          "internalType": "uint256",
          "name": "_maximumPriceDecayHalfLifeSeconds",
          "type": "uint256"
        }
      ],
      "name": "AuctionHalfLifeRangeSecondsUpdated",
      "type": "event"
    },
    {
      "anonymous": false,
      "inputs": [
        {
          "indexed": true,
          "internalType": "uint256",
          "name": "_projectId",
          "type": "uint256"
        },
        {
          "indexed": false,
          "internalType": "bytes32",
          "name": "_key",
          "type": "bytes32"
        }
      ],
      "name": "ConfigKeyRemoved",
      "type": "event"
    },
    {
      "anonymous": false,
      "inputs": [
        {
          "indexed": true,
          "internalType": "uint256",
          "name": "_projectId",
          "type": "uint256"
        },
        {
          "indexed": false,
          "internalType": "bytes32",
          "name": "_key",
          "type": "bytes32"
        },
        {
          "indexed": false,
          "internalType": "uint256",
          "name": "_value",
          "type": "uint256"
        }
      ],
      "name": "ConfigValueAddedToSet",
      "type": "event"
    },
    {
      "anonymous": false,
      "inputs": [
        {
          "indexed": true,
          "internalType": "uint256",
          "name": "_projectId",
          "type": "uint256"
        },
        {
          "indexed": false,
          "internalType": "bytes32",
          "name": "_key",
          "type": "bytes32"
        },
        {
          "indexed": false,
          "internalType": "address",
          "name": "_value",
          "type": "address"
        }
      ],
      "name": "ConfigValueAddedToSet",
      "type": "event"
    },
    {
      "anonymous": false,
      "inputs": [
        {
          "indexed": true,
          "internalType": "uint256",
          "name": "_projectId",
          "type": "uint256"
        },
        {
          "indexed": false,
          "internalType": "bytes32",
          "name": "_key",
          "type": "bytes32"
        },
        {
          "indexed": false,
          "internalType": "bytes32",
          "name": "_value",
          "type": "bytes32"
        }
      ],
      "name": "ConfigValueAddedToSet",
      "type": "event"
    },
    {
      "anonymous": false,
      "inputs": [
        {
          "indexed": true,
          "internalType": "uint256",
          "name": "_projectId",
          "type": "uint256"
        },
        {
          "indexed": false,
          "internalType": "bytes32",
          "name": "_key",
          "type": "bytes32"
        },
        {
          "indexed": false,
          "internalType": "uint256",
          "name": "_value",
          "type": "uint256"
        }
      ],
      "name": "ConfigValueRemovedFromSet",
      "type": "event"
    },
    {
      "anonymous": false,
      "inputs": [
        {
          "indexed": true,
          "internalType": "uint256",
          "name": "_projectId",
          "type": "uint256"
        },
        {
          "indexed": false,
          "internalType": "bytes32",
          "name": "_key",
          "type": "bytes32"
        },
        {
          "indexed": false,
          "internalType": "address",
          "name": "_value",
          "type": "address"
        }
      ],
      "name": "ConfigValueRemovedFromSet",
      "type": "event"
    },
    {
      "anonymous": false,
      "inputs": [
        {
          "indexed": true,
          "internalType": "uint256",
          "name": "_projectId",
          "type": "uint256"
        },
        {
          "indexed": false,
          "internalType": "bytes32",
          "name": "_key",
          "type": "bytes32"
        },
        {
          "indexed": false,
          "internalType": "bytes32",
          "name": "_value",
          "type": "bytes32"
        }
      ],
      "name": "ConfigValueRemovedFromSet",
      "type": "event"
    },
    {
      "anonymous": false,
      "inputs": [
        {
          "indexed": true,
          "internalType": "uint256",
          "name": "_projectId",
          "type": "uint256"
        },
        {
          "indexed": false,
          "internalType": "bytes32",
          "name": "_key",
          "type": "bytes32"
        },
        {
          "indexed": false,
          "internalType": "bool",
          "name": "_value",
          "type": "bool"
        }
      ],
      "name": "ConfigValueSet",
      "type": "event"
    },
    {
      "anonymous": false,
      "inputs": [
        {
          "indexed": true,
          "internalType": "uint256",
          "name": "_projectId",
          "type": "uint256"
        },
        {
          "indexed": false,
          "internalType": "bytes32",
          "name": "_key",
          "type": "bytes32"
        },
        {
          "indexed": false,
          "internalType": "uint256",
          "name": "_value",
          "type": "uint256"
        }
      ],
      "name": "ConfigValueSet",
      "type": "event"
    },
    {
      "anonymous": false,
      "inputs": [
        {
          "indexed": true,
          "internalType": "uint256",
          "name": "_projectId",
          "type": "uint256"
        },
        {
          "indexed": false,
          "internalType": "bytes32",
          "name": "_key",
          "type": "bytes32"
        },
        {
          "indexed": false,
          "internalType": "address",
          "name": "_value",
          "type": "address"
        }
      ],
      "name": "ConfigValueSet",
      "type": "event"
    },
    {
      "anonymous": false,
      "inputs": [
        {
          "indexed": true,
          "internalType": "uint256",
          "name": "_projectId",
          "type": "uint256"
        },
        {
          "indexed": false,
          "internalType": "bytes32",
          "name": "_key",
          "type": "bytes32"
        },
        {
          "indexed": false,
          "internalType": "bytes32",
          "name": "_value",
          "type": "bytes32"
        }
      ],
      "name": "ConfigValueSet",
      "type": "event"
    },
    {
      "anonymous": false,
      "inputs": [
        {
          "indexed": true,
          "internalType": "uint256",
          "name": "_projectId",
          "type": "uint256"
        },
        {
          "indexed": true,
          "internalType": "uint256",
          "name": "_pricePerTokenInWei",
          "type": "uint256"
        }
      ],
      "name": "PricePerTokenInWeiUpdated",
      "type": "event"
    },
    {
      "anonymous": false,
      "inputs": [
        {
          "indexed": true,
          "internalType": "uint256",
          "name": "_projectId",
          "type": "uint256"
        },
        {
          "indexed": true,
          "internalType": "address",
          "name": "_currencyAddress",
          "type": "address"
        },
        {
          "indexed": false,
          "internalType": "string",
          "name": "_currencySymbol",
          "type": "string"
        }
      ],
      "name": "ProjectCurrencyInfoUpdated",
      "type": "event"
    },
    {
      "anonymous": false,
      "inputs": [
        {
          "indexed": true,
          "internalType": "uint256",
          "name": "_projectId",
          "type": "uint256"
        },
        {
          "indexed": false,
          "internalType": "bool",
          "name": "_purchaseToDisabled",
          "type": "bool"
        }
      ],
      "name": "PurchaseToDisabledUpdated",
      "type": "event"
    },
    {
      "anonymous": false,
      "inputs": [
        {
          "indexed": true,
          "internalType": "address",
          "name": "_purchaser",
          "type": "address"
        },
        {
          "indexed": true,
          "internalType": "uint256",
          "name": "_projectId",
          "type": "uint256"
        },
        {
          "indexed": false,
          "internalType": "uint256",
          "name": "_netPosted",
          "type": "uint256"
        },
        {
          "indexed": false,
          "internalType": "uint256",
          "name": "_numPurchased",
          "type": "uint256"
        }
      ],
      "name": "ReceiptUpdated",
      "type": "event"
    },
    {
      "anonymous": false,
      "inputs": [
        {
          "indexed": true,
          "internalType": "uint256",
          "name": "projectId",
          "type": "uint256"
        },
        {
          "indexed": false,
          "internalType": "uint256",
          "name": "numPurchases",
          "type": "uint256"
        },
        {
          "indexed": false,
          "internalType": "uint256",
          "name": "latestPurchasePrice",
          "type": "uint256"
        }
      ],
      "name": "ResetAuctionDetails",
      "type": "event"
    },
    {
      "anonymous": false,
      "inputs": [
        {
          "indexed": true,
          "internalType": "uint256",
          "name": "_projectId",
          "type": "uint256"
        },
        {
          "indexed": false,
          "internalType": "uint256",
          "name": "_selloutPrice",
          "type": "uint256"
        }
      ],
      "name": "SelloutPriceUpdated",
      "type": "event"
    },
    {
      "anonymous": false,
      "inputs": [
        {
          "indexed": true,
          "internalType": "uint256",
          "name": "projectId",
          "type": "uint256"
        },
        {
          "indexed": false,
          "internalType": "uint256",
          "name": "_auctionTimestampStart",
          "type": "uint256"
        },
        {
          "indexed": false,
          "internalType": "uint256",
          "name": "_priceDecayHalfLifeSeconds",
          "type": "uint256"
        },
        {
          "indexed": false,
          "internalType": "uint256",
          "name": "_startPrice",
          "type": "uint256"
        },
        {
          "indexed": false,
          "internalType": "uint256",
          "name": "_basePrice",
          "type": "uint256"
        }
      ],
      "name": "SetAuctionDetails",
      "type": "event"
    },
    {
      "inputs": [
        {
          "internalType": "uint256",
          "name": "_projectId",
          "type": "uint256"
        },
        {
          "internalType": "uint256",
          "name": "_newSelloutPrice",
          "type": "uint256"
        }
      ],
      "name": "adminEmergencyReduceSelloutPrice",
      "outputs": [],
      "stateMutability": "nonpayable",
      "type": "function"
    },
    {
      "inputs": [],
      "name": "genArt721CoreAddress",
      "outputs": [
        {
          "internalType": "address",
          "name": "",
          "type": "address"
        }
      ],
      "stateMutability": "view",
      "type": "function"
    },
    {
      "inputs": [
        {
          "internalType": "uint256",
          "name": "_projectId",
          "type": "uint256"
        }
      ],
      "name": "getNumSettleableInvocations",
      "outputs": [
        {
          "internalType": "uint256",
          "name": "numSettleableInvocations",
          "type": "uint256"
        }
      ],
      "stateMutability": "view",
      "type": "function"
    },
    {
      "inputs": [
        {
          "internalType": "uint256",
          "name": "_projectId",
          "type": "uint256"
        }
      ],
      "name": "getPriceInfo",
      "outputs": [
        {
          "internalType": "bool",
          "name": "isConfigured",
          "type": "bool"
        },
        {
          "internalType": "uint256",
          "name": "tokenPriceInWei",
          "type": "uint256"
        },
        {
          "internalType": "string",
          "name": "currencySymbol",
          "type": "string"
        },
        {
          "internalType": "address",
          "name": "currencyAddress",
          "type": "address"
        }
      ],
      "stateMutability": "view",
      "type": "function"
    },
    {
      "inputs": [
        {
          "internalType": "uint256",
          "name": "_projectId",
          "type": "uint256"
        }
      ],
      "name": "getProjectLatestPurchasePrice",
      "outputs": [
        {
          "internalType": "uint256",
          "name": "latestPurchasePrice",
          "type": "uint256"
        }
      ],
      "stateMutability": "view",
      "type": "function"
    },
    {
      "inputs": [],
      "name": "maximumPriceDecayHalfLifeSeconds",
      "outputs": [
        {
          "internalType": "uint256",
          "name": "",
          "type": "uint256"
        }
      ],
      "stateMutability": "view",
      "type": "function"
    },
    {
      "inputs": [],
      "name": "minimumPriceDecayHalfLifeSeconds",
      "outputs": [
        {
          "internalType": "uint256",
          "name": "",
          "type": "uint256"
        }
      ],
      "stateMutability": "view",
      "type": "function"
    },
    {
      "inputs": [],
      "name": "minterFilterAddress",
      "outputs": [
        {
          "internalType": "address",
          "name": "",
          "type": "address"
        }
      ],
      "stateMutability": "view",
      "type": "function"
    },
    {
      "inputs": [],
      "name": "minterType",
      "outputs": [
        {
          "internalType": "string",
          "name": "",
          "type": "string"
        }
      ],
      "stateMutability": "view",
      "type": "function"
    },
    {
      "inputs": [
        {
          "internalType": "uint256",
          "name": "_projectId",
          "type": "uint256"
        }
      ],
      "name": "projectAuctionParameters",
      "outputs": [
        {
          "internalType": "uint256",
          "name": "timestampStart",
          "type": "uint256"
        },
        {
          "internalType": "uint256",
          "name": "priceDecayHalfLifeSeconds",
          "type": "uint256"
        },
        {
          "internalType": "uint256",
          "name": "startPrice",
          "type": "uint256"
        },
        {
          "internalType": "uint256",
          "name": "basePrice",
          "type": "uint256"
        }
      ],
      "stateMutability": "view",
      "type": "function"
    },
    {
      "inputs": [
        {
          "internalType": "uint256",
          "name": "",
          "type": "uint256"
        }
      ],
      "name": "projectConfig",
      "outputs": [
        {
          "internalType": "bool",
          "name": "maxHasBeenInvoked",
          "type": "bool"
        },
        {
          "internalType": "bool",
          "name": "auctionRevenuesCollected",
          "type": "bool"
        },
        {
          "internalType": "uint24",
          "name": "numSettleableInvocations",
          "type": "uint24"
        },
        {
          "internalType": "uint64",
          "name": "timestampStart",
          "type": "uint64"
        },
        {
          "internalType": "uint64",
          "name": "priceDecayHalfLifeSeconds",
          "type": "uint64"
        },
        {
          "internalType": "uint256",
          "name": "startPrice",
          "type": "uint256"
        },
        {
          "internalType": "uint256",
          "name": "basePrice",
          "type": "uint256"
        },
        {
          "internalType": "uint256",
          "name": "latestPurchasePrice",
          "type": "uint256"
        }
      ],
      "stateMutability": "view",
      "type": "function"
    },
    {
      "inputs": [
        {
          "internalType": "uint256",
          "name": "_projectId",
          "type": "uint256"
        }
      ],
      "name": "projectMaxHasBeenInvoked",
      "outputs": [
        {
          "internalType": "bool",
          "name": "",
          "type": "bool"
        }
      ],
      "stateMutability": "view",
      "type": "function"
    },
    {
      "inputs": [
        {
          "internalType": "uint256",
          "name": "_projectId",
          "type": "uint256"
        }
      ],
      "name": "purchase",
      "outputs": [
        {
          "internalType": "uint256",
          "name": "tokenId",
          "type": "uint256"
        }
      ],
      "stateMutability": "payable",
      "type": "function"
    },
    {
      "inputs": [
        {
          "internalType": "address",
          "name": "_to",
          "type": "address"
        },
        {
          "internalType": "uint256",
          "name": "_projectId",
          "type": "uint256"
        }
      ],
      "name": "purchaseTo",
      "outputs": [
        {
          "internalType": "uint256",
          "name": "tokenId",
          "type": "uint256"
        }
      ],
      "stateMutability": "payable",
      "type": "function"
    },
    {
      "inputs": [
        {
          "internalType": "address",
          "name": "_to",
          "type": "address"
        },
        {
          "internalType": "uint256",
          "name": "_projectId",
          "type": "uint256"
        }
      ],
      "name": "purchaseTo_do6",
      "outputs": [
        {
          "internalType": "uint256",
          "name": "tokenId",
          "type": "uint256"
        }
      ],
      "stateMutability": "payable",
      "type": "function"
    },
    {
      "inputs": [
        {
          "internalType": "uint256",
          "name": "_projectId",
          "type": "uint256"
        }
      ],
      "name": "purchase_H4M",
      "outputs": [
        {
          "internalType": "uint256",
          "name": "tokenId",
          "type": "uint256"
        }
      ],
      "stateMutability": "payable",
      "type": "function"
    },
    {
      "inputs": [
        {
          "internalType": "uint256",
          "name": "_projectId",
          "type": "uint256"
        }
      ],
      "name": "reclaimProjectExcessSettlementFunds",
      "outputs": [],
      "stateMutability": "nonpayable",
      "type": "function"
    },
    {
      "inputs": [
        {
          "internalType": "address payable",
          "name": "_to",
          "type": "address"
        },
        {
          "internalType": "uint256",
          "name": "_projectId",
          "type": "uint256"
        }
      ],
      "name": "reclaimProjectExcessSettlementFundsTo",
      "outputs": [],
      "stateMutability": "nonpayable",
      "type": "function"
    },
    {
      "inputs": [
        {
          "internalType": "uint256[]",
          "name": "_projectIds",
          "type": "uint256[]"
        }
      ],
      "name": "reclaimProjectsExcessSettlementFunds",
      "outputs": [],
      "stateMutability": "nonpayable",
      "type": "function"
    },
    {
      "inputs": [
        {
          "internalType": "address payable",
          "name": "_to",
          "type": "address"
        },
        {
          "internalType": "uint256[]",
          "name": "_projectIds",
          "type": "uint256[]"
        }
      ],
      "name": "reclaimProjectsExcessSettlementFundsTo",
      "outputs": [],
      "stateMutability": "nonpayable",
      "type": "function"
    },
    {
      "inputs": [
        {
          "internalType": "uint256",
          "name": "_projectId",
          "type": "uint256"
        }
      ],
      "name": "resetAuctionDetails",
      "outputs": [],
      "stateMutability": "nonpayable",
      "type": "function"
    },
    {
      "inputs": [
        {
          "internalType": "uint256",
          "name": "_minimumPriceDecayHalfLifeSeconds",
          "type": "uint256"
        },
        {
          "internalType": "uint256",
          "name": "_maximumPriceDecayHalfLifeSeconds",
          "type": "uint256"
        }
      ],
      "name": "setAllowablePriceDecayHalfLifeRangeSeconds",
      "outputs": [],
      "stateMutability": "nonpayable",
      "type": "function"
    },
    {
      "inputs": [
        {
          "internalType": "uint256",
          "name": "_projectId",
          "type": "uint256"
        },
        {
          "internalType": "uint256",
          "name": "_auctionTimestampStart",
          "type": "uint256"
        },
        {
          "internalType": "uint256",
          "name": "_priceDecayHalfLifeSeconds",
          "type": "uint256"
        },
        {
          "internalType": "uint256",
          "name": "_startPrice",
          "type": "uint256"
        },
        {
          "internalType": "uint256",
          "name": "_basePrice",
          "type": "uint256"
        }
      ],
      "name": "setAuctionDetails",
      "outputs": [],
      "stateMutability": "nonpayable",
      "type": "function"
    },
    {
      "inputs": [
        {
          "internalType": "uint256",
          "name": "",
          "type": "uint256"
        }
      ],
      "name": "setProjectMaxInvocations",
      "outputs": [],
      "stateMutability": "pure",
      "type": "function"
    },
    {
      "inputs": [
        {
          "internalType": "uint256",
          "name": "_projectId",
          "type": "uint256"
        }
      ],
      "name": "togglePurchaseToDisabled",
      "outputs": [],
      "stateMutability": "view",
      "type": "function"
    },
    {
      "inputs": [
        {
          "internalType": "uint256",
          "name": "_projectId",
          "type": "uint256"
        }
      ],
      "name": "withdrawArtistAndAdminRevenues",
      "outputs": [],
      "stateMutability": "nonpayable",
      "type": "function"
    }
  ],
  "bytecode": "0x61010060405261012c600255610e106003553480156200001e57600080fd5b50604051620028f8380380620028f8833981016040819052620000419162000153565b600160009081556001600160a01b03808416608081905260a081905290831660c081905260e0819052604080516392a10f8360e01b81529051929391926392a10f83926004808401936020939290839003909101908290875af1158015620000ad573d6000803e3d6000fd5b505050506040513d601f19601f82011682018060405250810190620000d391906200018b565b6001600160a01b0316146200012e5760405162461bcd60e51b815260206004820152601860248201527f496c6c6567616c20636f6e74726163742070616972696e670000000000000000604482015260640160405180910390fd5b5050620001b0565b80516001600160a01b03811681146200014e57600080fd5b919050565b600080604083850312156200016757600080fd5b620001728362000136565b9150620001826020840162000136565b90509250929050565b6000602082840312156200019e57600080fd5b620001a98262000136565b9392505050565b60805160a05160c05160e0516126d66200022260003960006107a1015260006105330152600081816108320152818161099601528181610b3e01528181610dbb01528181611128015281816112ec01528181611390015281816115ad0152611d3b0152600061036601526126d66000f3fe60806040526004361061012d5760003560e01c8061998714610132578061b460146101585780631e9f2e921461016b57806324411f801461019b5780632aedc28e146101d35780632f077ee6146101f557806340d1397e1461025b578063462add461461027b5780634d413902146102bb57806358d58106146102db5780635bc1470f146102fb578063774159c614610311578063891407c01461034157806392a10f83146103545780639cea5709146103a0578063c0ad212e146103c0578063c3df9d6f146103e0578063c71b1b7114610400578063c7a4f53d146104cb578063cd379f6e146104eb578063cf6681ea1461050b578063dd85582f14610521578063e9d1e8ac14610555578063eb2f4f8e146105a5578063efef39a114610158578063f7bd4b88146105c5575b600080fd5b610145610140366004612055565b6105e5565b6040519081526020015b60405180910390f35b610145610166366004612081565b610964565b34801561017757600080fd5b50610145610186366004612081565b60009081526001602052604090206003015490565b3480156101a757600080fd5b506101456101b6366004612081565b60009081526001602052604090205462010000900462ffffff1690565b3480156101df57600080fd5b506101f36101ee366004612081565b610976565b005b34801561020157600080fd5b5061024b610210366004612081565b60009081526001602081905260409091208054918101546002909101546001600160401b03600160281b8404811694600160681b9094041692565b60405161014f949392919061209a565b34801561026757600080fd5b506101f3610276366004612081565b610b26565b34801561028757600080fd5b506102ab610296366004612081565b60009081526001602052604090205460ff1690565b604051901515815260200161014f565b3480156102c757600080fd5b506101f36102d6366004612055565b610c20565b3480156102e757600080fd5b506101f36102f63660046120b5565b610d9b565b34801561030757600080fd5b5061014560035481565b34801561031d57600080fd5b5061033161032c366004612081565b611026565b60405161014f949392919061211d565b61014561034f366004612055565b6110b4565b34801561036057600080fd5b506103887f000000000000000000000000000000000000000000000000000000000000000081565b6040516001600160a01b03909116815260200161014f565b3480156103ac57600080fd5b506101f36103bb366004612157565b6110c7565b3480156103cc57600080fd5b506101f36103db3660046120b5565b611108565b3480156103ec57600080fd5b506101f36103fb366004612081565b6112be565b34801561040c57600080fd5b5061047a61041b366004612081565b6001602081905260009182526040909120805491810154600282015460039092015460ff8085169461010081049091169362ffffff62010000830416936001600160401b03600160281b8404811694600160681b909404169290919088565b604080519815158952961515602089015262ffffff909516958701959095526001600160401b0392831660608701529116608085015260a084015260c083019190915260e08201526101000161014f565b3480156104d757600080fd5b506101f36104e6366004612081565b6112cb565b3480156104f757600080fd5b506101f36105063660046121cb565b611595565b34801561051757600080fd5b5061014560025481565b34801561052d57600080fd5b506103887f000000000000000000000000000000000000000000000000000000000000000081565b34801561056157600080fd5b506105986040518060400160405280601781526020017604d696e7465724441457870536574746c656d656e74563604c1b81525081565b60405161014f9190612206565b3480156105b157600080fd5b506101f36105c036600461222f565b6119a6565b3480156105d157600080fd5b506101f36105e0366004612081565b611b62565b60006002600054036106125760405162461bcd60e51b815260040161060990612301565b60405180910390fd5b60026000908155828152600160205260409020805460ff16156106855760405162461bcd60e51b815260206004820152602560248201527f4d6178696d756d206e756d626572206f6620696e766f636174696f6e732072656044820152641858da195960da1b6064820152608401610609565b600061069084611bde565b3360009081526004602090815260408083208884529091528120805492935091349183916106bf90849061234e565b90915550506001810180549060006106d683612361565b91905055508181600101546106eb919061237a565b8154101561073b5760405162461bcd60e51b815260206004820152601f60248201527f4d7573742073656e64206d696e696d756d2076616c756520746f206d696e74006044820152606401610609565b6001810154815460408051928352602083019190915286913391600080516020612681833981519152910160405180910390a360038301829055604051630d4d151360e01b81526001600160a01b038781166004830152602482018790523360448301527f00000000000000000000000000000000000000000000000000000000000000001690630d4d1513906064016020604051808303816000875af11580156107ea573d6000803e3d6000fd5b505050506040513d601f19601f8201168201806040525081019061080e9190612391565b604051630ea5613f60e01b8152600481018790529094506000906001600160a01b037f00000000000000000000000000000000000000000000000000000000000000001690630ea5613f9060240160c060405180830381865afa158015610879573d6000803e3d6000fd5b505050506040513d601f19601f8201168201806040525081019061089d91906123bf565b509294505060001984019250620f42409150879050060361090057835460ff1916600117845560405186907f6e257f2b2266f72d4bd28a2e64b0cfc245c9a1c28ec2dc591f8052f77f969c95906108f79086815260200190565b60405180910390a25b8354610100900460ff161561091e576109198684611d28565b610955565b835462010000900462ffffff1684600261093783612434565b91906101000a81548162ffffff021916908362ffffff160217905550505b50505050600160005592915050565b600061097033836105e5565b92915050565b60405163230448b160e01b8152631576e14760e11b906001600160a01b037f0000000000000000000000000000000000000000000000000000000000000000169063230448b1906109cf90339030908690600401612456565b6020604051808303816000875af11580156109ee573d6000803e3d6000fd5b505050506040513d601f19601f82011682018060405250810190610a129190612483565b610a2e5760405162461bcd60e51b81526004016106099061249e565b6000828152600160208190526040822090810154909103610a8e5760405162461bcd60e51b815260206004820152601a602482015279105d58dd1a5bdb881b5d5cdd0818994818dbdb999a59dd5c995960321b6044820152606401610609565b8054610100900460ff1615610ab55760405162461bcd60e51b8152600401610609906124d2565b8054600160281b600160a81b03191680825560006001830181905560028301556003820154604080516201000090930462ffffff168352602083019190915284917f28cd2e5a54afa08469ca157e482b97c3de9efbc4c48cea254864df050677145a910160405180910390a2505050565b60405163a47d29cb60e01b81526004810182905281907f00000000000000000000000000000000000000000000000000000000000000006001600160a01b03169063a47d29cb90602401602060405180830381865afa158015610b8d573d6000803e3d6000fd5b505050506040513d601f19601f82011682018060405250810190610bb19190612509565b6001600160a01b0316336001600160a01b031614610be15760405162461bcd60e51b815260040161060990612526565b60405162461bcd60e51b81526020600482015260146024820152731058dd1a5bdb881b9bdd081cdd5c1c1bdc9d195960621b6044820152606401610609565b600260005403610c425760405162461bcd60e51b815260040161060990612301565b60026000908155818152600160209081526040808320338452600483528184208585529092529091206001600160a01b038416610c915760405162461bcd60e51b81526004016106099061254b565b6000816001015411610cb55760405162461bcd60e51b815260040161060990612582565b60038201546001820154600090610ccd90839061237a565b90506000818460000154610ce191906125c3565b8285556001850154604080519182526020820185905291925087913391600080516020612681833981519152910160405180910390a36000876001600160a01b03168260405160006040518083038185875af1925050503d8060008114610d64576040519150601f19603f3d011682016040523d82523d6000602084013e610d69565b606091505b50508091505080610d8c5760405162461bcd60e51b8152600401610609906125d6565b50506001600055505050505050565b60405163230448b160e01b8152632c6ac08360e11b906001600160a01b037f0000000000000000000000000000000000000000000000000000000000000000169063230448b190610df490339030908690600401612456565b6020604051808303816000875af1158015610e13573d6000803e3d6000fd5b505050506040513d601f19601f82011682018060405250810190610e379190612483565b610e535760405162461bcd60e51b81526004016106099061249e565b6000838152600160205260409020805460ff16610ead5760405162461bcd60e51b815260206004820152601860248201527741756374696f6e206d75737420626520636f6d706c65746560401b6044820152606401610609565b80600301548310610f005760405162461bcd60e51b815260206004820152601d60248201527f4d6179206f6e6c79207265647563652073656c6c6f75742070726963650000006044820152606401610609565b8060020154831015610f735760405162461bcd60e51b815260206004820152603660248201527f4d6179206f6e6c79207265647563652073656c6c6f757420707269636520746f604482015275103130b9b290383934b1b29037b91033b932b0ba32b960511b6064820152608401610609565b60008311610fbd5760405162461bcd60e51b815260206004820152601760248201527604f6e6c792073656c6c6f757420707269636573203e203604c1b6044820152606401610609565b8054610100900460ff1615610fe45760405162461bcd60e51b8152600401610609906124d2565b6003810183905560405183815284907f6e257f2b2266f72d4bd28a2e64b0cfc245c9a1c28ec2dc591f8052f77f969c959060200160405180910390a250505050565b600081815260016020819052604082209081015481549015159291606091839190600160281b90046001600160401b03164211611069578060010154935061108a565b806001015460000361107e576000935061108a565b61108786611bde565b93505b6040518060400160405280600381526020016208aa8960eb1b815250925060009150509193509193565b60006110c083836105e5565b9392505050565b611104338383808060200260200160405190810160405280939291908181526020018383602002808284376000920191909152506119a692505050565b5050565b60405163230448b160e01b8152636056909760e11b906001600160a01b037f0000000000000000000000000000000000000000000000000000000000000000169063230448b19061116190339030908690600401612456565b6020604051808303816000875af1158015611180573d6000803e3d6000fd5b505050506040513d601f19601f820116820180604052508101906111a49190612483565b6111c05760405162461bcd60e51b81526004016106099061249e565b8282116112265760405162461bcd60e51b815260206004820152602e60248201527f4d6178696d756d2068616c66206c696665206d7573742062652067726561746560448201526d72207468616e206d696e696d756d60901b6064820152608401610609565b600083116112765760405162461bcd60e51b815260206004820152601d60248201527f48616c66206c696665206f66207a65726f206e6f7420616c6c6f7765640000006044820152606401610609565b6002839055600382905560408051848152602081018490527f1d5d9c9b660aace5432c6c7412456d0ad1b5ff4c6ea156a8c551ba93555ed73f910160405180910390a1505050565b6112c83382610c20565b50565b60405163a47d29cb60e01b815260048101829052819063c7a4f53d60e01b907f00000000000000000000000000000000000000000000000000000000000000006001600160a01b03169063a47d29cb90602401602060405180830381865afa15801561133b573d6000803e3d6000fd5b505050506040513d601f19601f8201168201806040525081019061135f9190612509565b6001600160a01b0316336001600160a01b0316148061140c575060405163230448b160e01b81526001600160a01b037f0000000000000000000000000000000000000000000000000000000000000000169063230448b1906113c990339030908690600401612456565b6020604051808303816000875af11580156113e8573d6000803e3d6000fd5b505050506040513d601f19601f8201168201806040525081019061140c9190612483565b6114535760405162461bcd60e51b815260206004820152601860248201527713db9b1e48105c9d1a5cdd081bdc8810591b5a5b881050d360421b6044820152606401610609565b60008381526001602052604090208054610100900460ff16156114b55760405162461bcd60e51b815260206004820152601a60248201527914995d995b9d595cc8185b1c9958591e4818dbdb1b1958dd195960321b6044820152606401610609565b60006114c085611bde565b90508160020154811461152357815460ff1661151e5760405162461bcd60e51b815260206004820152601f60248201527f4163746976652061756374696f6e206e6f742079657420736f6c64206f7574006044820152606401610609565b61152e565b600282015460038301555b815461ff0019166101001780835560009061155690839062ffffff620100009091041661237a565b90506115628682611d28565b60405186907f110a44b77609d30f9b80fa9add8c3e18ba02555b3546acf2b0318a3d3229c5a790600090a2505050505050565b60405163a47d29cb60e01b81526004810186905285907f00000000000000000000000000000000000000000000000000000000000000006001600160a01b03169063a47d29cb90602401602060405180830381865afa1580156115fc573d6000803e3d6000fd5b505050506040513d601f19601f820116820180604052508101906116209190612509565b6001600160a01b0316336001600160a01b0316146116505760405162461bcd60e51b815260040161060990612526565b60008681526001602052604090208054600160281b90046001600160401b0316158061168c57508054600160281b90046001600160401b031642105b6116d75760405162461bcd60e51b815260206004820152601c60248201527b27379036b7b234b334b1b0ba34b7b7399036b4b216b0bab1ba34b7b760211b6044820152606401610609565b85421061171d5760405162461bcd60e51b81526020600482015260146024820152734f6e6c79206675747572652061756374696f6e7360601b6044820152606401610609565b82841161178f5760405162461bcd60e51b815260206004820152603a60248201527f41756374696f6e207374617274207072696365206d7573742062652067726561604482015279746572207468616e2061756374696f6e20656e6420707269636560301b6064820152608401610609565b600083116117dd5760405162461bcd60e51b815260206004820152601b60248201527a42617365207072696365206d757374206265206e6f6e2d7a65726f60281b6044820152606401610609565b600381015415806117f2575080600301548411155b61185b5760405162461bcd60e51b815260206004820152603460248201527f41756374696f6e207374617274207072696365206d757374206265203c3d206c604482015273617465737420707572636861736520707269636560601b6064820152608401610609565b600254851015801561186f57506003548511155b6118ef5760405162461bcd60e51b8152602060048201526044602482018190527f50726963652064656361792068616c66206c696665206d7573742066616c6c20908201527f6265747765656e206d696e20616e64206d617820616c6c6f7761626c652076616064820152636c75657360e01b608482015260a401610609565b6118f886611fd4565b81546001600160401b0391909116600160281b0267ffffffffffffffff60281b1990911617815561192885611fd4565b81546001600160401b0391909116600160681b0267ffffffffffffffff60681b19909116178155600181018490556002810183905560405187907f38b3058b75696f9e45bffa9c4b237adcde13d74c7bc1bea63e13c712d0776c749061199590899089908990899061209a565b60405180910390a250505050505050565b6002600054036119c85760405162461bcd60e51b815260040161060990612301565b60026000556001600160a01b0382166119f35760405162461bcd60e51b81526004016106099061254b565b8051600090815b81811015611ae0576000848281518110611a1657611a16612601565b602090810291909101810151600081815260018084526040808320338452600486528184208585529095529091209081015491935090611a685760405162461bcd60e51b815260040161060990612582565b60038201546001820154600090611a8090839061237a565b8354909150611a909082906125c3565b611a9a908961234e565b8184556001840154604080519182526020820184905291995086913391600080516020612681833981519152910160405180910390a385600101955050505050506119fa565b506000846001600160a01b03168360405160006040518083038185875af1925050503d8060008114611b2e576040519150601f19603f3d011682016040523d82523d6000602084013e611b33565b606091505b50508091505080611b565760405162461bcd60e51b8152600401610609906125d6565b50506001600055505050565b60405162461bcd60e51b8152602060048201526044602482018190527f73657450726f6a6563744d6178496e766f636174696f6e73206e6f7420696d70908201527f6c656d656e746564202d207570646174656420647572696e67206576657279206064820152631b5a5b9d60e21b608482015260a401610609565b6000818152600160205260408120805460ff1615611c00576003015492915050565b805460028201546001600160401b03600160281b8304811692600160681b90041690428310611c6b5760405162461bcd60e51b8152602060048201526017602482015276105d58dd1a5bdb881b9bdd081e595d081cdd185c9d1959604a1b6044820152606401610609565b60008211611cb65760405162461bcd60e51b81526020600482015260186024820152774f6e6c7920636f6e666967757265642061756374696f6e7360401b6044820152606401610609565b600184015442849003838181611cce57611cce61241e565b0482901c9150600284858381611ce657611ce661241e565b06840281611cf657611cf661241e565b0481611d0457611d0461241e565b048203915082821015611d1d5750909695505050505050565b509695505050505050565b80156111045760008060008060008060007f00000000000000000000000000000000000000000000000000000000000000006001600160a01b0316638639415b8a8a6040518363ffffffff1660e01b8152600401611d90929190918252602082015260400190565b60c060405180830381865afa158015611dad573d6000803e3d6000fd5b505050506040513d601f19601f82011682018060405250810190611dd19190612617565b9550955095509550955095506000861115611e83576040516001600160a01b038616908790600081818185875af1925050503d8060008114611e2f576040519150601f19603f3d011682016040523d82523d6000602084013e611e34565b606091505b50508097505086611e835760405162461bcd60e51b8152602060048201526019602482015278105c9d08109b1bd8dadcc81c185e5b595b9d0819985a5b1959603a1b6044820152606401610609565b8315611f22576040516001600160a01b038416908590600081818185875af1925050503d8060008114611ed2576040519150601f19603f3d011682016040523d82523d6000602084013e611ed7565b606091505b50508097505086611f225760405162461bcd60e51b8152602060048201526015602482015274105c9d1a5cdd081c185e5b595b9d0819985a5b1959605a1b6044820152606401610609565b8115611fc9576040516001600160a01b038216908390600081818185875af1925050503d8060008114611f71576040519150601f19603f3d011682016040523d82523d6000602084013e611f76565b606091505b50508097505086611fc95760405162461bcd60e51b815260206004820152601f60248201527f4164646974696f6e616c205061796565207061796d656e74206661696c6564006044820152606401610609565b505050505050505050565b60006001600160401b0382111561203c5760405162461bcd60e51b815260206004820152602660248201527f53616665436173743a2076616c756520646f65736e27742066697420696e203660448201526534206269747360d01b6064820152608401610609565b5090565b6001600160a01b03811681146112c857600080fd5b6000806040838503121561206857600080fd5b823561207381612040565b946020939093013593505050565b60006020828403121561209357600080fd5b5035919050565b93845260208401929092526040830152606082015260800190565b600080604083850312156120c857600080fd5b50508035926020909101359150565b6000815180845260005b818110156120fd576020818501810151868301820152016120e1565b506000602082860101526020601f19601f83011685010191505092915050565b841515815283602082015260806040820152600061213e60808301856120d7565b905060018060a01b038316606083015295945050505050565b6000806020838503121561216a57600080fd5b82356001600160401b038082111561218157600080fd5b818501915085601f83011261219557600080fd5b8135818111156121a457600080fd5b8660208260051b85010111156121b957600080fd5b60209290920196919550909350505050565b600080600080600060a086880312156121e357600080fd5b505083359560208501359550604085013594606081013594506080013592509050565b6020815260006110c060208301846120d7565b634e487b7160e01b600052604160045260246000fd5b6000806040838503121561224257600080fd5b823561224d81612040565b91506020838101356001600160401b038082111561226a57600080fd5b818601915086601f83011261227e57600080fd5b81358181111561229057612290612219565b8060051b604051601f19603f830116810181811085821117156122b5576122b5612219565b6040529182528482019250838101850191898311156122d357600080fd5b938501935b828510156122f1578435845293850193928501926122d8565b8096505050505050509250929050565b6020808252601f908201527f5265656e7472616e637947756172643a207265656e7472616e742063616c6c00604082015260600190565b634e487b7160e01b600052601160045260246000fd5b8082018082111561097057610970612338565b60006001820161237357612373612338565b5060010190565b808202811582820484141761097057610970612338565b6000602082840312156123a357600080fd5b5051919050565b805180151581146123ba57600080fd5b919050565b60008060008060008060c087890312156123d857600080fd5b86519550602087015194506123ef604088016123aa565b93506123fd606088016123aa565b92506080870151915061241260a088016123aa565b90509295509295509295565b634e487b7160e01b600052601260045260246000fd5b600062ffffff80831681810361244c5761244c612338565b6001019392505050565b6001600160a01b0393841681529190921660208201526001600160e01b0319909116604082015260600190565b60006020828403121561249557600080fd5b6110c0826123aa565b6020808252601a908201527913db9b1e4810dbdc994810591b5a5b9050d308185b1b1bddd95960321b604082015260600190565b6020808252601e908201527f4f6e6c79206265666f726520726576656e75657320636f6c6c65637465640000604082015260600190565b60006020828403121561251b57600080fd5b81516110c081612040565b6020808252600b908201526a13db9b1e48105c9d1a5cdd60aa1b604082015260600190565b6020808252601f908201527f4e6f20636c61696d696e6720746f20746865207a65726f206164647265737300604082015260600190565b60208082526021908201527f4e6f20707572636861736573206d6164652062792074686973206164647265736040820152607360f81b606082015260800190565b8181038181111561097057610970612338565b602080825260119082015270149958db185a5b5a5b99c819985a5b1959607a1b604082015260600190565b634e487b7160e01b600052603260045260246000fd5b60008060008060008060c0878903121561263057600080fd5b86519550602087015161264281612040565b60408801516060890151919650945061265a81612040565b608088015160a0890151919450925061267281612040565b80915050929550929550929556fe88bc1bf6777e1eaef8a0583c526f6963c9183af9ee82015f9a28f55b9115ea71a2646970667358221220064548ada606a2a707b3fb0d3c0e98745ee28f8a5ee3032e585ea91130831dd664736f6c63430008110033",
  "linkReferences": {},
  "deployedLinkReferences": {}
}