{
  "_format": "hh-sol-artifact-1",
  "contractName": "MinterFilterV0",
  "sourceName": "contracts/minter-suite/MinterFilterV0.sol",
  "abi": [
    {
      "inputs": [
        {
          "internalType": "address",
          "name": "_genArt721Address",
          "type": "address"
        }
      ],
      "stateMutability": "nonpayable",
      "type": "constructor"
    },
    {
      "anonymous": false,
      "inputs": [
        {
          "indexed": true,
          "internalType": "address",
          "name": "_coreContractAddress",
          "type": "address"
        }
      ],
      "name": "IsCanonicalMinterFilter",
      "type": "event"
    },
    {
      "anonymous": false,
      "inputs": [
        {
          "indexed": true,
          "internalType": "address",
          "name": "_minterAddress",
          "type": "address"
        },
        {
          "indexed": true,
          "internalType": "string",
          "name": "_minterType",
          "type": "string"
        }
      ],
      "name": "MinterApproved",
      "type": "event"
    },
    {
      "anonymous": false,
      "inputs": [
        {
          "indexed": true,
          "internalType": "address",
          "name": "_minterAddress",
          "type": "address"
        }
      ],
      "name": "MinterRevoked",
      "type": "event"
    },
    {
      "anonymous": false,
      "inputs": [
        {
          "indexed": true,
          "internalType": "uint256",
          "name": "_projectId",
          "type": "uint256"
        },
        {
          "indexed": true,
          "internalType": "address",
          "name": "_minterAddress",
          "type": "address"
        },
        {
          "indexed": true,
          "internalType": "string",
          "name": "_minterType",
          "type": "string"
        }
      ],
      "name": "ProjectMinterRegistered",
      "type": "event"
    },
    {
      "anonymous": false,
      "inputs": [
        {
          "indexed": true,
          "internalType": "uint256",
          "name": "_projectId",
          "type": "uint256"
        }
      ],
      "name": "ProjectMinterRemoved",
      "type": "event"
    },
    {
      "inputs": [
        {
          "internalType": "address",
          "name": "_minterAddress",
          "type": "address"
        }
      ],
      "name": "addApprovedMinter",
      "outputs": [],
      "stateMutability": "nonpayable",
      "type": "function"
    },
    {
      "inputs": [],
      "name": "alertAsCanonicalMinterFilter",
      "outputs": [],
      "stateMutability": "nonpayable",
      "type": "function"
    },
    {
      "inputs": [],
      "name": "genArt721CoreAddress",
      "outputs": [
        {
          "internalType": "address",
          "name": "",
          "type": "address"
        }
      ],
      "stateMutability": "view",
      "type": "function"
    },
    {
      "inputs": [
        {
          "internalType": "uint256",
          "name": "_projectId",
          "type": "uint256"
        }
      ],
      "name": "getMinterForProject",
      "outputs": [
        {
          "internalType": "address",
          "name": "",
          "type": "address"
        }
      ],
      "stateMutability": "view",
      "type": "function"
    },
    {
      "inputs": [],
      "name": "getNumProjectsWithMinters",
      "outputs": [
        {
          "internalType": "uint256",
          "name": "",
          "type": "uint256"
        }
      ],
      "stateMutability": "view",
      "type": "function"
    },
    {
      "inputs": [
        {
          "internalType": "uint256",
          "name": "_index",
          "type": "uint256"
        }
      ],
      "name": "getProjectAndMinterInfoAt",
      "outputs": [
        {
          "internalType": "uint256",
          "name": "projectId",
          "type": "uint256"
        },
        {
          "internalType": "address",
          "name": "minterAddress",
          "type": "address"
        },
        {
          "internalType": "string",
          "name": "minterType",
          "type": "string"
        }
      ],
      "stateMutability": "view",
      "type": "function"
    },
    {
      "inputs": [
        {
          "internalType": "address",
          "name": "",
          "type": "address"
        }
      ],
      "name": "isApprovedMinter",
      "outputs": [
        {
          "internalType": "bool",
          "name": "",
          "type": "bool"
        }
      ],
      "stateMutability": "view",
      "type": "function"
    },
    {
      "inputs": [
        {
          "internalType": "address",
          "name": "_to",
          "type": "address"
        },
        {
          "internalType": "uint256",
          "name": "_projectId",
          "type": "uint256"
        },
        {
          "internalType": "address",
          "name": "sender",
          "type": "address"
        }
      ],
      "name": "mint",
      "outputs": [
        {
          "internalType": "uint256",
          "name": "_tokenId",
          "type": "uint256"
        }
      ],
      "stateMutability": "nonpayable",
      "type": "function"
    },
    {
      "inputs": [
        {
          "internalType": "address",
          "name": "",
          "type": "address"
        }
      ],
      "name": "numProjectsUsingMinter",
      "outputs": [
        {
          "internalType": "uint256",
          "name": "",
          "type": "uint256"
        }
      ],
      "stateMutability": "view",
      "type": "function"
    },
    {
      "inputs": [
        {
          "internalType": "uint256",
          "name": "_projectId",
          "type": "uint256"
        }
      ],
      "name": "projectHasMinter",
      "outputs": [
        {
          "internalType": "bool",
          "name": "",
          "type": "bool"
        }
      ],
      "stateMutability": "view",
      "type": "function"
    },
    {
      "inputs": [
        {
          "internalType": "address",
          "name": "_minterAddress",
          "type": "address"
        }
      ],
      "name": "removeApprovedMinter",
      "outputs": [],
      "stateMutability": "nonpayable",
      "type": "function"
    },
    {
      "inputs": [
        {
          "internalType": "uint256",
          "name": "_projectId",
          "type": "uint256"
        }
      ],
      "name": "removeMinterForProject",
      "outputs": [],
      "stateMutability": "nonpayable",
      "type": "function"
    },
    {
      "inputs": [
        {
          "internalType": "uint256[]",
          "name": "_projectIds",
          "type": "uint256[]"
        }
      ],
      "name": "removeMintersForProjects",
      "outputs": [],
      "stateMutability": "nonpayable",
      "type": "function"
    },
    {
      "inputs": [
        {
          "internalType": "uint256",
          "name": "_projectId",
          "type": "uint256"
        },
        {
          "internalType": "address",
          "name": "_minterAddress",
          "type": "address"
        }
      ],
      "name": "setMinterForProject",
      "outputs": [],
      "stateMutability": "nonpayable",
      "type": "function"
    }
  ],
  "bytecode": "0x60c060405234801561001057600080fd5b5060405161188038038061188083398101604081905261002f91610045565b6001600160a01b0316608081905260a052610075565b60006020828403121561005757600080fd5b81516001600160a01b038116811461006e57600080fd5b9392505050565b60805160a0516117996100e7600039600081816102ce0152818161037d015281816104350152818161056b0152818161066a0152818161070b0152818161083d01528181610a7b01528181610b1c01528181610c460152610e73015260008181610155015261050b01526117996000f3fe608060405234801561001057600080fd5b50600436106100ca5760003560e01c8063b34c5c841161007c578063b34c5c84146101a1578063bcc0fdf1146101b4578063bee4d106146101c7578063c47d50f5146101da578063e7300db9146101ed578063faf0d7451461020f578063ff2505f01461022257600080fd5b80630d4d1513146100cf57806326df17b5146100f55780633a3d146f14610115578063718284221461014857806392a10f831461015057806393cb6ef014610184578063a409177e1461018e575b600080fd5b6100e26100dd366004611395565b610235565b6040519081526020015b60405180910390f35b6100e26101033660046113d7565b60036020526000908152604090205481565b6101386101233660046113d7565b60046020526000908152604090205460ff1681565b60405190151581526020016100ec565b6100e2610355565b6101777f000000000000000000000000000000000000000000000000000000000000000081565b6040516100ec91906113f4565b61018c610366565b005b61018c61019c366004611408565b610554565b61018c6101af36600461147d565b610651565b6101776101c236600461147d565b6107cb565b61018c6101d53660046113d7565b610826565b6101386101e836600461147d565b6109b9565b6102006101fb36600461147d565b6109ce565b6040516100ec939291906114c2565b61018c61021d36600461150b565b610a62565b61018c6102303660046113d7565b610e5c565b60006102418184610fb9565b6001600160a01b0316336001600160a01b03161461029d5760405162461bcd60e51b815260206004820152601460248201527327b7363c9030b9b9b4b3b732b21036b4b73a32b960611b60448201526064015b60405180910390fd5b604051630d4d151360e01b81526001600160a01b0385811660048301526024820185905283811660448301526000917f000000000000000000000000000000000000000000000000000000000000000090911690630d4d151390606401602060405180830381600087803b15801561031457600080fd5b505af1158015610328573d6000803e3d6000fd5b505050506040513d601f19601f8201168201806040525081019061034c919061153b565b95945050505050565b60006103616000610fce565b905090565b604051633af32abf60e01b81526001600160a01b037f00000000000000000000000000000000000000000000000000000000000000001690633af32abf906103b29033906004016113f4565b60206040518083038186803b1580156103ca57600080fd5b505afa1580156103de573d6000803e3d6000fd5b505050506040513d601f19601f820116820180604052508101906104029190611554565b61041e5760405162461bcd60e51b815260040161029490611576565b60405163568182e760e11b81526001600160a01b037f0000000000000000000000000000000000000000000000000000000000000000169063ad0305ce9061046a9030906004016113f4565b60206040518083038186803b15801561048257600080fd5b505afa158015610496573d6000803e3d6000fd5b505050506040513d601f19601f820116820180604052508101906104ba9190611554565b6104fe5760405162461bcd60e51b815260206004820152601560248201527413db9b1e481b5a5b9d08185b1b1bdddb1a5cdd1959605a1b6044820152606401610294565b6040516001600160a01b037f000000000000000000000000000000000000000000000000000000000000000016907f93962c490513b829a454280256dc873e04e932b196e23a5d5099b88a2a1cab0190600090a2565b604051633af32abf60e01b81526001600160a01b037f00000000000000000000000000000000000000000000000000000000000000001690633af32abf906105a09033906004016113f4565b60206040518083038186803b1580156105b857600080fd5b505afa1580156105cc573d6000803e3d6000fd5b505050506040513d601f19601f820116820180604052508101906105f09190611554565b61060c5760405162461bcd60e51b815260040161029490611576565b8060005b8181101561064b5761063984848381811061062d5761062d6115a5565b90506020020135610fd9565b80610643816115d1565b915050610610565b50505050565b604051633af32abf60e01b815281906001600160a01b037f00000000000000000000000000000000000000000000000000000000000000001690633af32abf9061069f9033906004016113f4565b60206040518083038186803b1580156106b757600080fd5b505afa1580156106cb573d6000803e3d6000fd5b505050506040513d601f19601f820116820180604052508101906106ef9190611554565b806107a2575060405163a47d29cb60e01b8152600481018290527f00000000000000000000000000000000000000000000000000000000000000006001600160a01b03169063a47d29cb9060240160206040518083038186803b15801561075557600080fd5b505afa158015610769573d6000803e3d6000fd5b505050506040513d601f19601f8201168201806040525081019061078d91906115ec565b6001600160a01b0316336001600160a01b0316145b6107be5760405162461bcd60e51b815260040161029490611609565b6107c782610fd9565b5050565b600080806107d9818561104e565b915091508161081f5760405162461bcd60e51b8152602060048201526012602482015271139bc81b5a5b9d195c88185cdcda59db995960721b6044820152606401610294565b9392505050565b604051633af32abf60e01b81526001600160a01b037f00000000000000000000000000000000000000000000000000000000000000001690633af32abf906108729033906004016113f4565b60206040518083038186803b15801561088a57600080fd5b505afa15801561089e573d6000803e3d6000fd5b505050506040513d601f19601f820116820180604052508101906108c29190611554565b6108de5760405162461bcd60e51b815260040161029490611576565b6001600160a01b0381166000818152600460208190526040808320805460ff191660011790558051633a747a2b60e21b8152905163e9d1e8ac93828401939092829003018186803b15801561093257600080fd5b505afa158015610946573d6000803e3d6000fd5b505050506040513d6000823e601f3d908101601f1916820160405261096e9190810190611656565b60405161097b9190611703565b604051908190038120906001600160a01b038316907f1ac09d1079d96f19b763467642c3c3b4e36b56222414f4a4a50f26c7011147bb90600090a350565b6000806109c6818461104e565b509392505050565b60008060606109dd828561106c565b8093508194505050816001600160a01b031663e9d1e8ac6040518163ffffffff1660e01b815260040160006040518083038186803b158015610a1e57600080fd5b505afa158015610a32573d6000803e3d6000fd5b505050506040513d6000823e601f3d908101601f19168201604052610a5a9190810190611656565b929491935050565b604051633af32abf60e01b815282906001600160a01b037f00000000000000000000000000000000000000000000000000000000000000001690633af32abf90610ab09033906004016113f4565b60206040518083038186803b158015610ac857600080fd5b505afa158015610adc573d6000803e3d6000fd5b505050506040513d601f19601f82011682018060405250810190610b009190611554565b80610bb3575060405163a47d29cb60e01b8152600481018290527f00000000000000000000000000000000000000000000000000000000000000006001600160a01b03169063a47d29cb9060240160206040518083038186803b158015610b6657600080fd5b505afa158015610b7a573d6000803e3d6000fd5b505050506040513d601f19601f82011682018060405250810190610b9e91906115ec565b6001600160a01b0316336001600160a01b0316145b610bcf5760405162461bcd60e51b815260040161029490611609565b6001600160a01b038216600090815260046020526040902054829060ff16610c435760405162461bcd60e51b815260206004820152602160248201527f4f6e6c7920617070726f766564206d696e746572732061726520616c6c6f77656044820152601960fa1b6064820152608401610294565b837f00000000000000000000000000000000000000000000000000000000000000006001600160a01b031663e935b7b16040518163ffffffff1660e01b815260040160206040518083038186803b158015610c9d57600080fd5b505afa158015610cb1573d6000803e3d6000fd5b505050506040513d601f19601f82011682018060405250810190610cd5919061153b565b8110610d1c5760405162461bcd60e51b81526020600482015260166024820152754f6e6c79206578697374696e672070726f6a6563747360501b6044820152606401610294565b600080610d29818861104e565b915091508115610d5d576001600160a01b0381166000908152600360205260408120805491610d578361171f565b91905055505b6001600160a01b0386166000908152600360205260408120805491610d81836115d1565b90915550610d9390506000888861107b565b50856001600160a01b031663e9d1e8ac6040518163ffffffff1660e01b815260040160006040518083038186803b158015610dcd57600080fd5b505afa158015610de1573d6000803e3d6000fd5b505050506040513d6000823e601f3d908101601f19168201604052610e099190810190611656565b604051610e169190611703565b604051908190038120906001600160a01b0388169089907f21fd9bfc68d8bc4b740ebf996aa9c255d1e6bb474f81dc2ad577d5d3c5a5e1e090600090a450505050505050565b604051633af32abf60e01b81526001600160a01b037f00000000000000000000000000000000000000000000000000000000000000001690633af32abf90610ea89033906004016113f4565b60206040518083038186803b158015610ec057600080fd5b505afa158015610ed4573d6000803e3d6000fd5b505050506040513d601f19601f82011682018060405250810190610ef89190611554565b610f145760405162461bcd60e51b815260040161029490611576565b6001600160a01b03811660009081526003602052604090205415610f705760405162461bcd60e51b81526020600482015260136024820152724f6e6c7920756e75736564206d696e7465727360681b6044820152606401610294565b6001600160a01b038116600081815260046020526040808220805460ff19169055517f44f4322f8daa225d5f4877ad0f7d3dfba248a774396f3ca99405ed40a044fe819190a250565b6000610fc58383611099565b90505b92915050565b6000610fc882611109565b60036000610fe78184610fb9565b6001600160a01b031681526020810191909152604001600090812080549161100e8361171f565b9091555061101f9050600082611114565b5060405181907f15267d34078ead35bc0303f6cdd08f99b837bdfcd7fab97fca4c58f3d85d760590600090a250565b600080808061105d8686611120565b909450925050505b9250929050565b600080808061105d868661115a565b600061109184846001600160a01b038516611185565b949350505050565b6000818152600283016020526040812054801515806110bd57506110bd84846111a2565b610fc55760405162461bcd60e51b815260206004820152601e60248201527f456e756d657261626c654d61703a206e6f6e6578697374656e74206b657900006044820152606401610294565b6000610fc8826111ae565b6000610fc583836111b8565b600081815260028301602052604081205481908061114f5761114285856111a2565b9250600091506110659050565b600192509050611065565b6000808061116885856111d5565b600081815260029690960160205260409095205494959350505050565b6000828152600284016020526040812082905561109184846111e1565b6000610fc583836111ed565b6000610fc8825490565b60008181526002830160205260408120819055610fc58383611205565b6000610fc58383611211565b6000610fc5838361123b565b60008181526001830160205260408120541515610fc5565b6000610fc5838361128a565b6000826000018281548110611228576112286115a5565b9060005260206000200154905092915050565b600081815260018301602052604081205461128257508154600181810184556000848152602080822090930184905584548482528286019093526040902091909155610fc8565b506000610fc8565b600081815260018301602052604081205480156113735760006112ae600183611736565b85549091506000906112c290600190611736565b90508181146113275760008660000182815481106112e2576112e26115a5565b9060005260206000200154905080876000018481548110611305576113056115a5565b6000918252602080832090910192909255918252600188019052604090208390555b85548690806113385761133861174d565b600190038181906000526020600020016000905590558560010160008681526020019081526020016000206000905560019350505050610fc8565b6000915050610fc8565b6001600160a01b038116811461139257600080fd5b50565b6000806000606084860312156113aa57600080fd5b83356113b58161137d565b92506020840135915060408401356113cc8161137d565b809150509250925092565b6000602082840312156113e957600080fd5b8135610fc58161137d565b6001600160a01b0391909116815260200190565b6000806020838503121561141b57600080fd5b823567ffffffffffffffff8082111561143357600080fd5b818501915085601f83011261144757600080fd5b81358181111561145657600080fd5b8660208260051b850101111561146b57600080fd5b60209290920196919550909350505050565b60006020828403121561148f57600080fd5b5035919050565b60005b838110156114b1578181015183820152602001611499565b8381111561064b5750506000910152565b83815260018060a01b038316602082015260606040820152600082518060608401526114f5816080850160208701611496565b601f01601f191691909101608001949350505050565b6000806040838503121561151e57600080fd5b8235915060208301356115308161137d565b809150509250929050565b60006020828403121561154d57600080fd5b5051919050565b60006020828403121561156657600080fd5b81518015158114610fc557600080fd5b60208082526015908201527413db9b1e4810dbdc99481dda1a5d195b1a5cdd1959605a1b604082015260600190565b634e487b7160e01b600052603260045260246000fd5b634e487b7160e01b600052601160045260246000fd5b60006000198214156115e5576115e56115bb565b5060010190565b6000602082840312156115fe57600080fd5b8151610fc58161137d565b6020808252601f908201527f4f6e6c7920436f72652077686974656c6973746564206f722041727469737400604082015260600190565b634e487b7160e01b600052604160045260246000fd5b60006020828403121561166857600080fd5b815167ffffffffffffffff8082111561168057600080fd5b818401915084601f83011261169457600080fd5b8151818111156116a6576116a6611640565b604051601f8201601f19908116603f011681019083821181831017156116ce576116ce611640565b816040528281528760208487010111156116e757600080fd5b6116f8836020830160208801611496565b979650505050505050565b60008251611715818460208701611496565b9190910192915050565b60008161172e5761172e6115bb565b506000190190565b600082821015611748576117486115bb565b500390565b634e487b7160e01b600052603160045260246000fdfea2646970667358221220567b9646c15a47b4a5b1bad03b2e1385bcd9f0fce03bc7a72c7eb44d1d4d867664736f6c63430008090033",
  "linkReferences": {},
  "deployedLinkReferences": {}
}