{
  "_format": "hh-sol-artifact-1",
  "contractName": "MinterMerkleV1",
  "sourceName": "contracts/minter-suite/Minters/MinterMerkle/MinterMerkleV1.sol",
  "abi": [
    {
      "inputs": [
        {
          "internalType": "address",
          "name": "_genArt721Address",
          "type": "address"
        },
        {
          "internalType": "address",
          "name": "_minterFilter",
          "type": "address"
        }
      ],
      "stateMutability": "nonpayable",
      "type": "constructor"
    },
    {
      "anonymous": false,
      "inputs": [
        {
          "indexed": true,
          "internalType": "uint256",
          "name": "_projectId",
          "type": "uint256"
        },
        {
          "indexed": false,
          "internalType": "bytes32",
          "name": "_key",
          "type": "bytes32"
        }
      ],
      "name": "ConfigKeyRemoved",
      "type": "event"
    },
    {
      "anonymous": false,
      "inputs": [
        {
          "indexed": true,
          "internalType": "uint256",
          "name": "_projectId",
          "type": "uint256"
        },
        {
          "indexed": false,
          "internalType": "bytes32",
          "name": "_key",
          "type": "bytes32"
        },
        {
          "indexed": false,
          "internalType": "uint256",
          "name": "_value",
          "type": "uint256"
        }
      ],
      "name": "ConfigValueAddedToSet",
      "type": "event"
    },
    {
      "anonymous": false,
      "inputs": [
        {
          "indexed": true,
          "internalType": "uint256",
          "name": "_projectId",
          "type": "uint256"
        },
        {
          "indexed": false,
          "internalType": "bytes32",
          "name": "_key",
          "type": "bytes32"
        },
        {
          "indexed": false,
          "internalType": "address",
          "name": "_value",
          "type": "address"
        }
      ],
      "name": "ConfigValueAddedToSet",
      "type": "event"
    },
    {
      "anonymous": false,
      "inputs": [
        {
          "indexed": true,
          "internalType": "uint256",
          "name": "_projectId",
          "type": "uint256"
        },
        {
          "indexed": false,
          "internalType": "bytes32",
          "name": "_key",
          "type": "bytes32"
        },
        {
          "indexed": false,
          "internalType": "bytes32",
          "name": "_value",
          "type": "bytes32"
        }
      ],
      "name": "ConfigValueAddedToSet",
      "type": "event"
    },
    {
      "anonymous": false,
      "inputs": [
        {
          "indexed": true,
          "internalType": "uint256",
          "name": "_projectId",
          "type": "uint256"
        },
        {
          "indexed": false,
          "internalType": "bytes32",
          "name": "_key",
          "type": "bytes32"
        },
        {
          "indexed": false,
          "internalType": "uint256",
          "name": "_value",
          "type": "uint256"
        }
      ],
      "name": "ConfigValueRemovedFromSet",
      "type": "event"
    },
    {
      "anonymous": false,
      "inputs": [
        {
          "indexed": true,
          "internalType": "uint256",
          "name": "_projectId",
          "type": "uint256"
        },
        {
          "indexed": false,
          "internalType": "bytes32",
          "name": "_key",
          "type": "bytes32"
        },
        {
          "indexed": false,
          "internalType": "address",
          "name": "_value",
          "type": "address"
        }
      ],
      "name": "ConfigValueRemovedFromSet",
      "type": "event"
    },
    {
      "anonymous": false,
      "inputs": [
        {
          "indexed": true,
          "internalType": "uint256",
          "name": "_projectId",
          "type": "uint256"
        },
        {
          "indexed": false,
          "internalType": "bytes32",
          "name": "_key",
          "type": "bytes32"
        },
        {
          "indexed": false,
          "internalType": "bytes32",
          "name": "_value",
          "type": "bytes32"
        }
      ],
      "name": "ConfigValueRemovedFromSet",
      "type": "event"
    },
    {
      "anonymous": false,
      "inputs": [
        {
          "indexed": true,
          "internalType": "uint256",
          "name": "_projectId",
          "type": "uint256"
        },
        {
          "indexed": false,
          "internalType": "bytes32",
          "name": "_key",
          "type": "bytes32"
        },
        {
          "indexed": false,
          "internalType": "bool",
          "name": "_value",
          "type": "bool"
        }
      ],
      "name": "ConfigValueSet",
      "type": "event"
    },
    {
      "anonymous": false,
      "inputs": [
        {
          "indexed": true,
          "internalType": "uint256",
          "name": "_projectId",
          "type": "uint256"
        },
        {
          "indexed": false,
          "internalType": "bytes32",
          "name": "_key",
          "type": "bytes32"
        },
        {
          "indexed": false,
          "internalType": "uint256",
          "name": "_value",
          "type": "uint256"
        }
      ],
      "name": "ConfigValueSet",
      "type": "event"
    },
    {
      "anonymous": false,
      "inputs": [
        {
          "indexed": true,
          "internalType": "uint256",
          "name": "_projectId",
          "type": "uint256"
        },
        {
          "indexed": false,
          "internalType": "bytes32",
          "name": "_key",
          "type": "bytes32"
        },
        {
          "indexed": false,
          "internalType": "address",
          "name": "_value",
          "type": "address"
        }
      ],
      "name": "ConfigValueSet",
      "type": "event"
    },
    {
      "anonymous": false,
      "inputs": [
        {
          "indexed": true,
          "internalType": "uint256",
          "name": "_projectId",
          "type": "uint256"
        },
        {
          "indexed": false,
          "internalType": "bytes32",
          "name": "_key",
          "type": "bytes32"
        },
        {
          "indexed": false,
          "internalType": "bytes32",
          "name": "_value",
          "type": "bytes32"
        }
      ],
      "name": "ConfigValueSet",
      "type": "event"
    },
    {
      "anonymous": false,
      "inputs": [
        {
          "indexed": true,
          "internalType": "uint256",
          "name": "_projectId",
          "type": "uint256"
        },
        {
          "indexed": true,
          "internalType": "uint256",
          "name": "_pricePerTokenInWei",
          "type": "uint256"
        }
      ],
      "name": "PricePerTokenInWeiUpdated",
      "type": "event"
    },
    {
      "anonymous": false,
      "inputs": [
        {
          "indexed": true,
          "internalType": "uint256",
          "name": "_projectId",
          "type": "uint256"
        },
        {
          "indexed": true,
          "internalType": "address",
          "name": "_currencyAddress",
          "type": "address"
        },
        {
          "indexed": false,
          "internalType": "string",
          "name": "_currencySymbol",
          "type": "string"
        }
      ],
      "name": "ProjectCurrencyInfoUpdated",
      "type": "event"
    },
    {
      "anonymous": false,
      "inputs": [
        {
          "indexed": true,
          "internalType": "uint256",
          "name": "_projectId",
          "type": "uint256"
        },
        {
          "indexed": false,
          "internalType": "bool",
          "name": "_purchaseToDisabled",
          "type": "bool"
        }
      ],
      "name": "PurchaseToDisabledUpdated",
      "type": "event"
    },
    {
      "inputs": [],
      "name": "genArt721CoreAddress",
      "outputs": [
        {
          "internalType": "address",
          "name": "",
          "type": "address"
        }
      ],
      "stateMutability": "view",
      "type": "function"
    },
    {
      "inputs": [
        {
          "internalType": "uint256",
          "name": "_projectId",
          "type": "uint256"
        }
      ],
      "name": "getPriceInfo",
      "outputs": [
        {
          "internalType": "bool",
          "name": "isConfigured",
          "type": "bool"
        },
        {
          "internalType": "uint256",
          "name": "tokenPriceInWei",
          "type": "uint256"
        },
        {
          "internalType": "string",
          "name": "currencySymbol",
          "type": "string"
        },
        {
          "internalType": "address",
          "name": "currencyAddress",
          "type": "address"
        }
      ],
      "stateMutability": "view",
      "type": "function"
    },
    {
      "inputs": [
        {
          "internalType": "address",
          "name": "_address",
          "type": "address"
        }
      ],
      "name": "hashAddress",
      "outputs": [
        {
          "internalType": "bytes32",
          "name": "",
          "type": "bytes32"
        }
      ],
      "stateMutability": "pure",
      "type": "function"
    },
    {
      "inputs": [],
      "name": "minterFilterAddress",
      "outputs": [
        {
          "internalType": "address",
          "name": "",
          "type": "address"
        }
      ],
      "stateMutability": "view",
      "type": "function"
    },
    {
      "inputs": [],
      "name": "minterType",
      "outputs": [
        {
          "internalType": "string",
          "name": "",
          "type": "string"
        }
      ],
      "stateMutability": "view",
      "type": "function"
    },
    {
      "inputs": [
        {
          "internalType": "bytes32[]",
          "name": "_proof",
          "type": "bytes32[]"
        },
        {
          "internalType": "address",
          "name": "_address",
          "type": "address"
        }
      ],
      "name": "processProofForAddress",
      "outputs": [
        {
          "internalType": "bytes32",
          "name": "",
          "type": "bytes32"
        }
      ],
      "stateMutability": "pure",
      "type": "function"
    },
    {
      "inputs": [
        {
          "internalType": "uint256",
          "name": "",
          "type": "uint256"
        }
      ],
      "name": "projectConfig",
      "outputs": [
        {
          "internalType": "bool",
          "name": "maxHasBeenInvoked",
          "type": "bool"
        },
        {
          "internalType": "bool",
          "name": "priceIsConfigured",
          "type": "bool"
        },
        {
          "internalType": "bool",
          "name": "mintLimiterDisabled",
          "type": "bool"
        },
        {
          "internalType": "uint24",
          "name": "maxInvocations",
          "type": "uint24"
        },
        {
          "internalType": "uint256",
          "name": "pricePerTokenInWei",
          "type": "uint256"
        }
      ],
      "stateMutability": "view",
      "type": "function"
    },
    {
      "inputs": [
        {
          "internalType": "uint256",
          "name": "_projectId",
          "type": "uint256"
        }
      ],
      "name": "projectMaxHasBeenInvoked",
      "outputs": [
        {
          "internalType": "bool",
          "name": "",
          "type": "bool"
        }
      ],
      "stateMutability": "view",
      "type": "function"
    },
    {
      "inputs": [
        {
          "internalType": "uint256",
          "name": "_projectId",
          "type": "uint256"
        }
      ],
      "name": "projectMaxInvocations",
      "outputs": [
        {
          "internalType": "uint256",
          "name": "",
          "type": "uint256"
        }
      ],
      "stateMutability": "view",
      "type": "function"
    },
    {
      "inputs": [
        {
          "internalType": "uint256",
          "name": "",
          "type": "uint256"
        }
      ],
      "name": "projectMerkleRoot",
      "outputs": [
        {
          "internalType": "bytes32",
          "name": "",
          "type": "bytes32"
        }
      ],
      "stateMutability": "view",
      "type": "function"
    },
    {
      "inputs": [
        {
          "internalType": "uint256",
          "name": "_projectId",
          "type": "uint256"
        }
      ],
      "name": "projectMintLimiterDisabled",
      "outputs": [
        {
          "internalType": "bool",
          "name": "",
          "type": "bool"
        }
      ],
      "stateMutability": "view",
      "type": "function"
    },
    {
      "inputs": [
        {
          "internalType": "uint256",
          "name": "",
          "type": "uint256"
        },
        {
          "internalType": "address",
          "name": "",
          "type": "address"
        }
      ],
      "name": "projectMintedBy",
      "outputs": [
        {
          "internalType": "bool",
          "name": "",
          "type": "bool"
        }
      ],
      "stateMutability": "view",
      "type": "function"
    },
    {
      "inputs": [
        {
          "internalType": "uint256",
          "name": "_projectId",
          "type": "uint256"
        },
        {
          "internalType": "bytes32[]",
          "name": "_proof",
          "type": "bytes32[]"
        }
      ],
      "name": "purchase",
      "outputs": [
        {
          "internalType": "uint256",
          "name": "tokenId",
          "type": "uint256"
        }
      ],
      "stateMutability": "payable",
      "type": "function"
    },
    {
      "inputs": [
        {
          "internalType": "uint256",
          "name": "",
          "type": "uint256"
        }
      ],
      "name": "purchase",
      "outputs": [
        {
          "internalType": "uint256",
          "name": "",
          "type": "uint256"
        }
      ],
      "stateMutability": "payable",
      "type": "function"
    },
    {
      "inputs": [
        {
          "internalType": "address",
          "name": "_to",
          "type": "address"
        },
        {
          "internalType": "uint256",
          "name": "_projectId",
          "type": "uint256"
        },
        {
          "internalType": "bytes32[]",
          "name": "_proof",
          "type": "bytes32[]"
        }
      ],
      "name": "purchaseTo",
      "outputs": [
        {
          "internalType": "uint256",
          "name": "tokenId",
          "type": "uint256"
        }
      ],
      "stateMutability": "payable",
      "type": "function"
    },
    {
      "inputs": [
        {
          "internalType": "address",
          "name": "",
          "type": "address"
        },
        {
          "internalType": "uint256",
          "name": "",
          "type": "uint256"
        }
      ],
      "name": "purchaseTo",
      "outputs": [
        {
          "internalType": "uint256",
          "name": "",
          "type": "uint256"
        }
      ],
      "stateMutability": "payable",
      "type": "function"
    },
    {
      "inputs": [
        {
          "internalType": "address",
          "name": "_to",
          "type": "address"
        },
        {
          "internalType": "uint256",
          "name": "_projectId",
          "type": "uint256"
        },
        {
          "internalType": "bytes32[]",
          "name": "_proof",
          "type": "bytes32[]"
        }
      ],
      "name": "purchaseTo_K1L",
      "outputs": [
        {
          "internalType": "uint256",
          "name": "tokenId",
          "type": "uint256"
        }
      ],
      "stateMutability": "payable",
      "type": "function"
    },
    {
      "inputs": [
        {
          "internalType": "uint256",
          "name": "_projectId",
          "type": "uint256"
        },
        {
          "internalType": "bytes32[]",
          "name": "_proof",
          "type": "bytes32[]"
        }
      ],
      "name": "purchase_gD5",
      "outputs": [
        {
          "internalType": "uint256",
          "name": "tokenId",
          "type": "uint256"
        }
      ],
      "stateMutability": "payable",
      "type": "function"
    },
    {
      "inputs": [
        {
          "internalType": "uint256",
          "name": "_projectId",
          "type": "uint256"
        }
      ],
      "name": "setProjectMaxInvocations",
      "outputs": [],
      "stateMutability": "nonpayable",
      "type": "function"
    },
    {
      "inputs": [
        {
          "internalType": "uint256",
          "name": "_projectId",
          "type": "uint256"
        }
      ],
      "name": "toggleProjectMintLimiter",
      "outputs": [],
      "stateMutability": "nonpayable",
      "type": "function"
    },
    {
      "inputs": [
        {
          "internalType": "uint256",
          "name": "_projectId",
          "type": "uint256"
        }
      ],
      "name": "togglePurchaseToDisabled",
      "outputs": [],
      "stateMutability": "view",
      "type": "function"
    },
    {
      "inputs": [
        {
          "internalType": "uint256",
          "name": "_projectId",
          "type": "uint256"
        },
        {
          "internalType": "bytes32",
          "name": "_root",
          "type": "bytes32"
        }
      ],
      "name": "updateMerkleRoot",
      "outputs": [],
      "stateMutability": "nonpayable",
      "type": "function"
    },
    {
      "inputs": [
        {
          "internalType": "uint256",
          "name": "_projectId",
          "type": "uint256"
        },
        {
          "internalType": "uint256",
          "name": "_pricePerTokenInWei",
          "type": "uint256"
        }
      ],
      "name": "updatePricePerTokenInWei",
      "outputs": [],
      "stateMutability": "nonpayable",
      "type": "function"
    },
    {
      "inputs": [
        {
          "internalType": "uint256",
          "name": "_projectId",
          "type": "uint256"
        },
        {
          "internalType": "bytes32[]",
          "name": "_proof",
          "type": "bytes32[]"
        },
        {
          "internalType": "address",
          "name": "_address",
          "type": "address"
        }
      ],
      "name": "verifyAddress",
      "outputs": [
        {
          "internalType": "bool",
          "name": "",
          "type": "bool"
        }
      ],
      "stateMutability": "view",
      "type": "function"
    }
  ],
  "bytecode": "0x6101006040523480156200001257600080fd5b50604051620019d6380380620019d6833981016040819052620000359162000157565b600160009081556001600160a01b03808416608081905260a081905290831660c081905260e0819052604080516392a10f8360e01b81529051929391926392a10f8392600480840193602093929083900390910190829087803b1580156200009c57600080fd5b505af1158015620000b1573d6000803e3d6000fd5b505050506040513d601f19601f82011682018060405250810190620000d791906200018f565b6001600160a01b031614620001325760405162461bcd60e51b815260206004820152601860248201527f496c6c6567616c20636f6e74726163742070616972696e670000000000000000604482015260640160405180910390fd5b5050620001b4565b80516001600160a01b03811681146200015257600080fd5b919050565b600080604083850312156200016b57600080fd5b62000176836200013a565b915062000186602084016200013a565b90509250929050565b600060208284031215620001a257600080fd5b620001ad826200013a565b9392505050565b60805160a05160c05160e0516117c56200021160003960006107ff015260006104740152600081816108dc01528181610a9b01528181610ba401528181610d2d01528181610e4f0152610fb60152600061033201526117c56000f3fe6080604052600436106101175760003560e01c80615aa11461011c5780617b4214610142578063108121c1146101555780631ec2e52314610177578063202c5805146101975780633aa5fe59146101aa57806340d1397e146101ca578063462add46146101ea57806356690aaf1461022a5780636cb9b7ff146102635780636ede4ade14610283578063774159c6146102a3578063891407c01461030d57806392a10f8314610320578063c71b1b711461036c578063ce44f0c9146103fa578063d684ec6714610435578063da7e7c501461011c578063dd85582f14610462578063e70bb0c414610496578063e9d1e8ac146104cc578063efef39a114610513578063f1e3311514610521578063f7bd4b8814610541575b600080fd5b61012f61012a366004611341565b610561565b6040519081526020015b60405180910390f35b61012f6101503660046113a4565b610577565b34801561016157600080fd5b506101756101703660046113ff565b6108c4565b005b34801561018357600080fd5b5061012f610192366004611418565b610a1b565b61012f6101a53660046113a4565b610a32565b3480156101b657600080fd5b5061012f6101c536600461146e565b610a49565b3480156101d657600080fd5b506101756101e53660046113ff565b610a83565b3480156101f657600080fd5b5061021a6102053660046113ff565b60009081526001602052604090205460ff1690565b6040519015158152602001610139565b34801561023657600080fd5b5061012f6102453660046113ff565b6000908152600160205260409020546301000000900462ffffff1690565b34801561026f57600080fd5b5061017561027e36600461148b565b610b8c565b34801561028f57600080fd5b5061021a61029e3660046114ad565b610ca9565b3480156102af57600080fd5b506102fd6102be3660046113ff565b600090815260016020818152604080842080549301548151808301909252600382526208aa8960eb1b9282019290925261010090920460ff1693909290565b6040516101399493929190611558565b61012f61031b366004611592565b610cce565b34801561032c57600080fd5b506103547f000000000000000000000000000000000000000000000000000000000000000081565b6040516001600160a01b039091168152602001610139565b34801561037857600080fd5b506103c66103873660046113ff565b6001602081905260009182526040909120805491015460ff80831692610100810482169262010000820490921691630100000090910462ffffff169085565b60408051951515865293151560208601529115159284019290925262ffffff9091166060830152608082015260a001610139565b34801561040657600080fd5b5061021a6104153660046115be565b600360209081526000928352604080842090915290825290205460ff1681565b34801561044157600080fd5b5061012f6104503660046113ff565b60026020526000908152604090205481565b34801561046e57600080fd5b506103547f000000000000000000000000000000000000000000000000000000000000000081565b3480156104a257600080fd5b5061021a6104b13660046113ff565b60009081526001602052604090205462010000900460ff1690565b3480156104d857600080fd5b506105066040518060400160405280600e81526020016d4d696e7465724d65726b6c65563160901b81525081565b60405161013991906115ee565b61012f61031b3660046113ff565b34801561052d57600080fd5b5061017561053c36600461148b565b610d15565b34801561054d57600080fd5b5061017561055c3660046113ff565b610e36565b600061056f33858585610577565b949350505050565b6000600260005414156105d15760405162461bcd60e51b815260206004820152601f60248201527f5265656e7472616e637947756172643a207265656e7472616e742063616c6c0060448201526064015b60405180910390fd5b60026000908155848152600160205260409020805460ff16156106445760405162461bcd60e51b815260206004820152602560248201527f4d6178696d756d206e756d626572206f6620696e766f636174696f6e732072656044820152641858da195960da1b60648201526084016105c8565b6001810154348111156106995760405162461bcd60e51b815260206004820181905260248201527f4d7573742073656e64206d696e696d756d2076616c756520746f206d696e742160448201526064016105c8565b8154610100900460ff166106e65760405162461bcd60e51b8152602060048201526014602482015273141c9a58d9481b9bdd0818dbdb999a59dd5c995960621b60448201526064016105c8565b6106f286868633610ca9565b6107355760405162461bcd60e51b815260206004820152601460248201527324b73b30b634b21026b2b935b63290383937b7b360611b60448201526064016105c8565b600086815260036020908152604080832033845290915290205460ff16156107ae57815462010000900460ff166107a95760405162461bcd60e51b81526020600482015260186024820152774c696d69742031206d696e7420706572206164647265737360401b60448201526064016105c8565b6107d3565b60008681526003602090815260408083203384529091529020805460ff191660011790555b604051630d4d151360e01b81526001600160a01b038881166004830152602482018890523360448301527f00000000000000000000000000000000000000000000000000000000000000001690630d4d151390606401602060405180830381600087803b15801561084357600080fd5b505af1158015610857573d6000803e3d6000fd5b505050506040513d601f19601f8201168201806040525081019061087b9190611601565b825490935060001962ffffff630100000090920482160116620f4240840614156108ab57815460ff191660011782555b6108b58682610f08565b50506001600055949350505050565b60405163a47d29cb60e01b81526004810182905281907f00000000000000000000000000000000000000000000000000000000000000006001600160a01b03169063a47d29cb9060240160206040518083038186803b15801561092657600080fd5b505afa15801561093a573d6000803e3d6000fd5b505050506040513d601f19601f8201168201806040525081019061095e919061161a565b6001600160a01b0316336001600160a01b03161461098e5760405162461bcd60e51b81526004016105c890611637565b600082815260016020908152604091829020805460ff62010000808304821615810262ff000019909316929092178084558551721b5a5b9d131a5b5a5d195c911a5cd8589b1959606a1b8152929004161515928101929092529184917fc594e23b9382359e253cdaba84b0aefe5ad09ccfd5706891673743b37229c2d291015b60405180910390a2505050565b600061056f610a2983610a49565b85908590611260565b6000610a4085858585610577565b95945050505050565b6040516001600160601b0319606083901b166020820152600090603401604051602081830303815290604052805190602001209050919050565b60405163a47d29cb60e01b81526004810182905281907f00000000000000000000000000000000000000000000000000000000000000006001600160a01b03169063a47d29cb9060240160206040518083038186803b158015610ae557600080fd5b505afa158015610af9573d6000803e3d6000fd5b505050506040513d601f19601f82011682018060405250810190610b1d919061161a565b6001600160a01b0316336001600160a01b031614610b4d5760405162461bcd60e51b81526004016105c890611637565b60405162461bcd60e51b81526020600482015260146024820152731058dd1a5bdb881b9bdd081cdd5c1c1bdc9d195960621b60448201526064016105c8565b60405163a47d29cb60e01b81526004810183905282907f00000000000000000000000000000000000000000000000000000000000000006001600160a01b03169063a47d29cb9060240160206040518083038186803b158015610bee57600080fd5b505afa158015610c02573d6000803e3d6000fd5b505050506040513d601f19601f82011682018060405250810190610c26919061161a565b6001600160a01b0316336001600160a01b031614610c565760405162461bcd60e51b81526004016105c890611637565b6000838152600160208190526040808320918201859055815461ff0019166101001790915551839185917f26118a27aca826f829f3bfe21b140b4455c00b434849bd0da50d1e1a9720fb5c9190a3505050565b600084815260026020526040812054610a4090610cc584610a49565b869186916112ac565b60405162461bcd60e51b815260206004820152601960248201527826bab9ba10383937bb34b2329026b2b935b63290383937b7b360391b60448201526000906064016105c8565b60405163a47d29cb60e01b81526004810183905282907f00000000000000000000000000000000000000000000000000000000000000006001600160a01b03169063a47d29cb9060240160206040518083038186803b158015610d7757600080fd5b505afa158015610d8b573d6000803e3d6000fd5b505050506040513d601f19601f82011682018060405250810190610daf919061161a565b6001600160a01b0316336001600160a01b031614610ddf5760405162461bcd60e51b81526004016105c890611637565b6000838152600260209081526040918290208490558151691b595c9adb19549bdbdd60b21b815290810184905284917f729c0261c7e3c976b9a392f2bb08064d7a03c82f9f1473ab0ee284c985df08159101610a0e565b604051630ea5613f60e01b8152600481018290526000907f00000000000000000000000000000000000000000000000000000000000000006001600160a01b031690630ea5613f9060240160a06040518083038186803b158015610e9957600080fd5b505afa158015610ead573d6000803e3d6000fd5b505050506040513d601f19601f82011682018060405250810190610ed19190611671565b505050600093845260016020526040909320805462ffffff90941663010000000265ffffff00000019909416939093179092555050565b341561125c57600080610f1b83346116de565b90508015610fab5760405133908290600081818185875af1925050503d8060008114610f63576040519150601f19603f3d011682016040523d82523d6000602084013e610f68565b606091505b50508092505081610fab5760405162461bcd60e51b815260206004820152600d60248201526c1499599d5b990819985a5b1959609a1b60448201526064016105c8565b6000806000806000807f00000000000000000000000000000000000000000000000000000000000000006001600160a01b0316638639415b8b8b6040518363ffffffff1660e01b815260040161100b929190918252602082015260400190565b60c06040518083038186803b15801561102357600080fd5b505afa158015611037573d6000803e3d6000fd5b505050506040513d601f19601f8201168201806040525081019061105b91906116f5565b955095509550955095509550600086111561110d576040516001600160a01b038616908790600081818185875af1925050503d80600081146110b9576040519150601f19603f3d011682016040523d82523d6000602084013e6110be565b606091505b5050809850508761110d5760405162461bcd60e51b8152602060048201526019602482015278105c9d08109b1bd8dadcc81c185e5b595b9d0819985a5b1959603a1b60448201526064016105c8565b83156111ac576040516001600160a01b038416908590600081818185875af1925050503d806000811461115c576040519150601f19603f3d011682016040523d82523d6000602084013e611161565b606091505b505080985050876111ac5760405162461bcd60e51b8152602060048201526015602482015274105c9d1a5cdd081c185e5b595b9d0819985a5b1959605a1b60448201526064016105c8565b8115611253576040516001600160a01b038216908390600081818185875af1925050503d80600081146111fb576040519150601f19603f3d011682016040523d82523d6000602084013e611200565b606091505b505080985050876112535760405162461bcd60e51b815260206004820152601f60248201527f4164646974696f6e616c205061796565207061796d656e74206661696c65640060448201526064016105c8565b50505050505050505b5050565b600081815b848110156112a35761128f828787848181106112835761128361175e565b905060200201356112c4565b91508061129b81611774565b915050611265565b50949350505050565b6000826112ba868685611260565b1495945050505050565b60008183106112e05760008281526020849052604090206112ef565b60008381526020839052604090205b9392505050565b60008083601f84011261130857600080fd5b5081356001600160401b0381111561131f57600080fd5b6020830191508360208260051b850101111561133a57600080fd5b9250929050565b60008060006040848603121561135657600080fd5b8335925060208401356001600160401b0381111561137357600080fd5b61137f868287016112f6565b9497909650939450505050565b6001600160a01b03811681146113a157600080fd5b50565b600080600080606085870312156113ba57600080fd5b84356113c58161138c565b93506020850135925060408501356001600160401b038111156113e757600080fd5b6113f3878288016112f6565b95989497509550505050565b60006020828403121561141157600080fd5b5035919050565b60008060006040848603121561142d57600080fd5b83356001600160401b0381111561144357600080fd5b61144f868287016112f6565b90945092505060208401356114638161138c565b809150509250925092565b60006020828403121561148057600080fd5b81356112ef8161138c565b6000806040838503121561149e57600080fd5b50508035926020909101359150565b600080600080606085870312156114c357600080fd5b8435935060208501356001600160401b038111156114e057600080fd5b6114ec878288016112f6565b90945092505060408501356115008161138c565b939692955090935050565b6000815180845260005b8181101561153157602081850181015186830182015201611515565b81811115611543576000602083870101525b50601f01601f19169290920160200192915050565b8415158152836020820152608060408201526000611579608083018561150b565b905060018060a01b038316606083015295945050505050565b600080604083850312156115a557600080fd5b82356115b08161138c565b946020939093013593505050565b600080604083850312156115d157600080fd5b8235915060208301356115e38161138c565b809150509250929050565b6020815260006112ef602083018461150b565b60006020828403121561161357600080fd5b5051919050565b60006020828403121561162c57600080fd5b81516112ef8161138c565b6020808252600b908201526a13db9b1e48105c9d1a5cdd60aa1b604082015260600190565b8051801515811461166c57600080fd5b919050565b600080600080600060a0868803121561168957600080fd5b85519450602086015193506116a06040870161165c565b92506116ae6060870161165c565b91506116bc6080870161165c565b90509295509295909350565b634e487b7160e01b600052601160045260246000fd5b6000828210156116f0576116f06116c8565b500390565b60008060008060008060c0878903121561170e57600080fd5b8651955060208701516117208161138c565b6040880151606089015191965094506117388161138c565b608088015160a089015191945092506117508161138c565b809150509295509295509295565b634e487b7160e01b600052603260045260246000fd5b6000600019821415611788576117886116c8565b506001019056fea2646970667358221220c756484bc76b5e95cd81b5a72d5608cabf23d7b7b133b198fc31905f47316d3e64736f6c63430008090033",
  "linkReferences": {},
  "deployedLinkReferences": {}
}