{
  "_format": "hh-sol-artifact-1",
  "contractName": "MinterSetPriceERC20V1",
  "sourceName": "contracts/minter-suite/MinterSetPriceERC20V1.sol",
  "abi": [
    {
      "inputs": [
        {
          "internalType": "address",
          "name": "_genArt721Address",
          "type": "address"
        },
        {
          "internalType": "address",
          "name": "_minterFilter",
          "type": "address"
        }
      ],
      "stateMutability": "nonpayable",
      "type": "constructor"
    },
    {
      "anonymous": false,
      "inputs": [
        {
          "indexed": true,
          "internalType": "uint256",
          "name": "_projectId",
          "type": "uint256"
        },
        {
          "indexed": true,
          "internalType": "uint256",
          "name": "_pricePerTokenInWei",
          "type": "uint256"
        }
      ],
      "name": "PricePerTokenInWeiUpdated",
      "type": "event"
    },
    {
      "anonymous": false,
      "inputs": [
        {
          "indexed": true,
          "internalType": "uint256",
          "name": "_projectId",
          "type": "uint256"
        },
        {
          "indexed": true,
          "internalType": "address",
          "name": "_currencyAddress",
          "type": "address"
        },
        {
          "indexed": false,
          "internalType": "string",
          "name": "_currencySymbol",
          "type": "string"
        }
      ],
      "name": "ProjectCurrencyInfoUpdated",
      "type": "event"
    },
    {
      "anonymous": false,
      "inputs": [
        {
          "indexed": true,
          "internalType": "uint256",
          "name": "_projectId",
          "type": "uint256"
        },
        {
          "indexed": false,
          "internalType": "bool",
          "name": "_purchaseToDisabled",
          "type": "bool"
        }
      ],
      "name": "PurchaseToDisabledUpdated",
      "type": "event"
    },
    {
      "inputs": [
        {
          "internalType": "uint256",
          "name": "_projectId",
          "type": "uint256"
        }
      ],
      "name": "checkYourAllowanceOfProjectERC20",
      "outputs": [
        {
          "internalType": "uint256",
          "name": "remaining",
          "type": "uint256"
        }
      ],
      "stateMutability": "view",
      "type": "function"
    },
    {
      "inputs": [],
      "name": "genArt721CoreAddress",
      "outputs": [
        {
          "internalType": "address",
          "name": "",
          "type": "address"
        }
      ],
      "stateMutability": "view",
      "type": "function"
    },
    {
      "inputs": [
        {
          "internalType": "uint256",
          "name": "_projectId",
          "type": "uint256"
        }
      ],
      "name": "getPriceInfo",
      "outputs": [
        {
          "internalType": "bool",
          "name": "isConfigured",
          "type": "bool"
        },
        {
          "internalType": "uint256",
          "name": "tokenPriceInWei",
          "type": "uint256"
        },
        {
          "internalType": "string",
          "name": "currencySymbol",
          "type": "string"
        },
        {
          "internalType": "address",
          "name": "currencyAddress",
          "type": "address"
        }
      ],
      "stateMutability": "view",
      "type": "function"
    },
    {
      "inputs": [
        {
          "internalType": "uint256",
          "name": "_projectId",
          "type": "uint256"
        }
      ],
      "name": "getYourBalanceOfProjectERC20",
      "outputs": [
        {
          "internalType": "uint256",
          "name": "balance",
          "type": "uint256"
        }
      ],
      "stateMutability": "view",
      "type": "function"
    },
    {
      "inputs": [],
      "name": "minterFilterAddress",
      "outputs": [
        {
          "internalType": "address",
          "name": "",
          "type": "address"
        }
      ],
      "stateMutability": "view",
      "type": "function"
    },
    {
      "inputs": [],
      "name": "minterType",
      "outputs": [
        {
          "internalType": "string",
          "name": "",
          "type": "string"
        }
      ],
      "stateMutability": "view",
      "type": "function"
    },
    {
      "inputs": [
        {
          "internalType": "uint256",
          "name": "",
          "type": "uint256"
        }
      ],
      "name": "projectMaxHasBeenInvoked",
      "outputs": [
        {
          "internalType": "bool",
          "name": "",
          "type": "bool"
        }
      ],
      "stateMutability": "view",
      "type": "function"
    },
    {
      "inputs": [
        {
          "internalType": "uint256",
          "name": "",
          "type": "uint256"
        }
      ],
      "name": "projectMaxInvocations",
      "outputs": [
        {
          "internalType": "uint256",
          "name": "",
          "type": "uint256"
        }
      ],
      "stateMutability": "view",
      "type": "function"
    },
    {
      "inputs": [
        {
          "internalType": "uint256",
          "name": "_projectId",
          "type": "uint256"
        }
      ],
      "name": "purchase",
      "outputs": [
        {
          "internalType": "uint256",
          "name": "tokenId",
          "type": "uint256"
        }
      ],
      "stateMutability": "payable",
      "type": "function"
    },
    {
      "inputs": [
        {
          "internalType": "address",
          "name": "_to",
          "type": "address"
        },
        {
          "internalType": "uint256",
          "name": "_projectId",
          "type": "uint256"
        }
      ],
      "name": "purchaseTo",
      "outputs": [
        {
          "internalType": "uint256",
          "name": "tokenId",
          "type": "uint256"
        }
      ],
      "stateMutability": "payable",
      "type": "function"
    },
    {
      "inputs": [
        {
          "internalType": "uint256",
          "name": "_projectId",
          "type": "uint256"
        }
      ],
      "name": "setProjectMaxInvocations",
      "outputs": [],
      "stateMutability": "nonpayable",
      "type": "function"
    },
    {
      "inputs": [
        {
          "internalType": "uint256",
          "name": "_projectId",
          "type": "uint256"
        }
      ],
      "name": "togglePurchaseToDisabled",
      "outputs": [],
      "stateMutability": "view",
      "type": "function"
    },
    {
      "inputs": [
        {
          "internalType": "uint256",
          "name": "_projectId",
          "type": "uint256"
        },
        {
          "internalType": "uint256",
          "name": "_pricePerTokenInWei",
          "type": "uint256"
        }
      ],
      "name": "updatePricePerTokenInWei",
      "outputs": [],
      "stateMutability": "nonpayable",
      "type": "function"
    },
    {
      "inputs": [
        {
          "internalType": "uint256",
          "name": "_projectId",
          "type": "uint256"
        },
        {
          "internalType": "string",
          "name": "_currencySymbol",
          "type": "string"
        },
        {
          "internalType": "address",
          "name": "_currencyAddress",
          "type": "address"
        }
      ],
      "name": "updateProjectCurrencyInfo",
      "outputs": [],
      "stateMutability": "nonpayable",
      "type": "function"
    }
  ],
  "bytecode": "0x6101006040523480156200001257600080fd5b506040516200244138038062002441833981016040819052620000359162000157565b600160009081556001600160a01b03808416608081905260a081905290831660c081905260e0819052604080516392a10f8360e01b81529051929391926392a10f8392600480840193602093929083900390910190829087803b1580156200009c57600080fd5b505af1158015620000b1573d6000803e3d6000fd5b505050506040513d601f19601f82011682018060405250810190620000d791906200018f565b6001600160a01b031614620001325760405162461bcd60e51b815260206004820152601860248201527f496c6c6567616c20636f6e74726163742070616972696e670000000000000000604482015260640160405180910390fd5b5050620001b4565b80516001600160a01b03811681146200015257600080fd5b919050565b600080604083850312156200016b57600080fd5b62000176836200013a565b915062000186602084016200013a565b90509250929050565b600060208284031215620001a257600080fd5b620001ad826200013a565b9392505050565b60805160a05160c05160e0516121e36200025e60003960006107930152600061025a0152600081816103350152818161044701528181610c0101528181610e4901528181610f3501528181611012015281816110f4015281816111f5015281816112b001528181611388015281816114c3015281816116700152818161171f0152818161185f0152818161191a015281816119d10152611b1e015260006101d901526121e36000f3fe6080604052600436106100bd5760003560e01c8063a98096001161006f578063a980960014610208578063d195b36514610228578063dd85582f14610248578063e9d1e8ac1461027c578063efef39a1146102ca578063f4632103146102dd578063f7bd4b88146102fd57600080fd5b806340d1397e146100c2578063462add46146100e457806356690aaf146101295780636cb9b7ff14610164578063774159c614610184578063891407c0146101b457806392a10f83146101c7575b600080fd5b3480156100ce57600080fd5b506100e26100dd366004611cdc565b61031d565b005b3480156100f057600080fd5b506101146100ff366004611cdc565b60016020526000908152604090205460ff1681565b60405190151581526020015b60405180910390f35b34801561013557600080fd5b50610156610144366004611cdc565b60026020526000908152604090205481565b604051908152602001610120565b34801561017057600080fd5b506100e261017f366004611cf5565b61042f565b34801561019057600080fd5b506101a461019f366004611cdc565b61054e565b6040516101209493929190611d73565b6101566101c2366004611dc2565b61064b565b3480156101d357600080fd5b506101fb7f000000000000000000000000000000000000000000000000000000000000000081565b6040516101209190611dee565b34801561021457600080fd5b50610156610223366004611cdc565b610b57565b34801561023457600080fd5b506100e2610243366004611e71565b610be9565b34801561025457600080fd5b506101fb7f000000000000000000000000000000000000000000000000000000000000000081565b34801561028857600080fd5b506102bd604051806040016040528060158152602001744d696e74657253657450726963654552433230563160581b81525081565b6040516101209190611f0f565b6101566102d8366004611cdc565b610de4565b3480156102e957600080fd5b506101566102f8366004611cdc565b610df0565b34801561030957600080fd5b506100e2610318366004611cdc565b610e32565b60405163a47d29cb60e01b81526004810182905281907f00000000000000000000000000000000000000000000000000000000000000006001600160a01b03169063a47d29cb9060240160206040518083038186803b15801561037f57600080fd5b505afa158015610393573d6000803e3d6000fd5b505050506040513d601f19601f820116820180604052508101906103b79190611f29565b6001600160a01b0316336001600160a01b0316146103f05760405162461bcd60e51b81526004016103e790611f46565b60405180910390fd5b60405162461bcd60e51b81526020600482015260146024820152731058dd1a5bdb881b9bdd081cdd5c1c1bdc9d195960621b60448201526064016103e7565b60405163a47d29cb60e01b81526004810183905282907f00000000000000000000000000000000000000000000000000000000000000006001600160a01b03169063a47d29cb9060240160206040518083038186803b15801561049157600080fd5b505afa1580156104a5573d6000803e3d6000fd5b505050506040513d601f19601f820116820180604052508101906104c99190611f29565b6001600160a01b0316336001600160a01b0316146104f95760405162461bcd60e51b81526004016103e790611f46565b60008381526003602090815260408083208590556004909152808220805460ff1916600117905551839185917f26118a27aca826f829f3bfe21b140b4455c00b434849bd0da50d1e1a9720fb5c9190a3505050565b6000818152600460209081526040808320546003835281842054600690935292205460ff909216916060906001600160a01b0316806105aa576040518060400160405280600381526020016208aa8960eb1b8152509150610644565b600085815260056020526040902080546105c390611f6b565b80601f01602080910402602001604051908101604052809291908181526020018280546105ef90611f6b565b801561063c5780601f106106115761010080835404028352916020019161063c565b820191906000526020600020905b81548152906001019060200180831161061f57829003601f168201915b505050505091505b9193509193565b6000600260005414156106a05760405162461bcd60e51b815260206004820152601f60248201527f5265656e7472616e637947756172643a207265656e7472616e742063616c6c0060448201526064016103e7565b600260009081558281526001602052604090205460ff16156107125760405162461bcd60e51b815260206004820152602560248201527f4d6178696d756d206e756d626572206f6620696e766f636174696f6e732072656044820152641858da195960da1b60648201526084016103e7565b60008281526004602052604090205460ff166107675760405162461bcd60e51b8152602060048201526014602482015273141c9a58d9481b9bdd0818dbdb999a59dd5c995960621b60448201526064016103e7565b604051630d4d151360e01b81526001600160a01b038481166004830152602482018490523360448301527f00000000000000000000000000000000000000000000000000000000000000001690630d4d151390606401602060405180830381600087803b1580156107d757600080fd5b505af11580156107eb573d6000803e3d6000fd5b505050506040513d601f19601f8201168201806040525081019061080f9190611fa6565b60008381526002602052604090205490915015801590610854575060008281526002602052604090205461084590600190611fd5565b610852620f424083612002565b145b15610876576000828152600160208190526040909120805460ff191690911790555b6000828152600660205260409020546001600160a01b031615610ae55734156109075760405162461bcd60e51b815260206004820152603f60248201527f746869732070726f6a6563742061636365707473206120646966666572656e7460448201527f2063757272656e637920616e642063616e6e6f7420616363657074204554480060648201526084016103e7565b600082815260036020908152604080832054600690925291829020549151636eb1769f60e11b815233600482015230602482015290916001600160a01b03169063dd62ed3e9060440160206040518083038186803b15801561096857600080fd5b505afa15801561097c573d6000803e3d6000fd5b505050506040513d601f19601f820116820180604052508101906109a09190611fa6565b10156109f95760405162461bcd60e51b815260206004820152602260248201527f496e73756666696369656e742046756e647320417070726f76656420666f72206044820152610a8b60f31b60648201526084016103e7565b6000828152600360209081526040808320546006909252918290205491516370a0823160e01b815290916001600160a01b0316906370a0823190610a41903390600401611dee565b60206040518083038186803b158015610a5957600080fd5b505afa158015610a6d573d6000803e3d6000fd5b505050506040513d601f19601f82011682018060405250810190610a919190611fa6565b1015610ad75760405162461bcd60e51b815260206004820152601560248201527424b739bab33334b1b4b2b73a103130b630b731b29760591b60448201526064016103e7565b610ae082610ff4565b610b4c565b600082815260036020526040902054341015610b435760405162461bcd60e51b815260206004820181905260248201527f4d7573742073656e64206d696e696d756d2076616c756520746f206d696e742160448201526064016103e7565b610b4c826115b8565b600160005592915050565b6000818152600660205260408082205490516370a0823160e01b81526001600160a01b03909116906370a0823190610b93903390600401611dee565b60206040518083038186803b158015610bab57600080fd5b505afa158015610bbf573d6000803e3d6000fd5b505050506040513d601f19601f82011682018060405250810190610be39190611fa6565b92915050565b60405163a47d29cb60e01b81526004810184905283907f00000000000000000000000000000000000000000000000000000000000000006001600160a01b03169063a47d29cb9060240160206040518083038186803b158015610c4b57600080fd5b505afa158015610c5f573d6000803e3d6000fd5b505050506040513d601f19601f82011682018060405250810190610c839190611f29565b6001600160a01b0316336001600160a01b031614610cb35760405162461bcd60e51b81526004016103e790611f46565b6040516208aa8960eb1b60208201526001600160a01b03831615906023016040516020818303038152906040528051906020012084604051602001610cf89190612016565b6040516020818303038152906040528051906020012014151514610d595760405162461bcd60e51b8152602060048201526018602482015277455448206973206f6e6c79206e756c6c206164647265737360401b60448201526064016103e7565b60008481526005602090815260409091208451610d7892860190611c43565b506000848152600660205260409081902080546001600160a01b0319166001600160a01b038516908117909155905185907fe6c8c6160f844a27204e2b7fb4b7fb9f10e5d322fa850096bef29dc1d0f445c190610dd6908790611f0f565b60405180910390a350505050565b6000610be3338361064b565b600081815260066020526040808220549051636eb1769f60e11b81523360048201523060248201526001600160a01b039091169063dd62ed3e90604401610b93565b604051633af32abf60e01b81526001600160a01b037f00000000000000000000000000000000000000000000000000000000000000001690633af32abf90610e7e903390600401611dee565b60206040518083038186803b158015610e9657600080fd5b505afa158015610eaa573d6000803e3d6000fd5b505050506040513d601f19601f82011682018060405250810190610ece9190612047565b610f125760405162461bcd60e51b815260206004820152601560248201527413db9b1e4810dbdc99481dda1a5d195b1a5cdd1959605a1b60448201526064016103e7565b6040516346161b1160e11b81526004810182905260009081906001600160a01b037f00000000000000000000000000000000000000000000000000000000000000001690638c2c36229060240160006040518083038186803b158015610f7757600080fd5b505afa158015610f8b573d6000803e3d6000fd5b505050506040513d6000823e601f3d908101601f19168201604052610fb3919081019061206d565b505050600089815260026020526040902083905550919550935050505080821015610fef576000838152600160205260409020805460ff191690555b505050565b600060036000838152602001908152602001600020549050600060647f00000000000000000000000000000000000000000000000000000000000000006001600160a01b0316634f029c396040518163ffffffff1660e01b815260040160206040518083038186803b15801561106957600080fd5b505afa15801561107d573d6000803e3d6000fd5b505050506040513d601f19601f820116820180604052508101906110a19190611fa6565b6110ab9084612156565b6110b59190612175565b905080156111e257600083815260066020908152604091829020548251631ca4fc8360e11b815292516001600160a01b03918216936323b872dd9333937f00000000000000000000000000000000000000000000000000000000000000001692633949f906926004808201939291829003018186803b15801561113757600080fd5b505afa15801561114b573d6000803e3d6000fd5b505050506040513d601f19601f8201168201806040525081019061116f9190611f29565b846040518463ffffffff1660e01b815260040161118e93929190612189565b602060405180830381600087803b1580156111a857600080fd5b505af11580156111bc573d6000803e3d6000fd5b505050506040513d601f19601f820116820180604052508101906111e09190612047565b505b60006111ee8284611fd5565b90506000807f00000000000000000000000000000000000000000000000000000000000000006001600160a01b031663cc74234b876040518263ffffffff1660e01b815260040161124191815260200190565b60206040518083038186803b15801561125957600080fd5b505afa15801561126d573d6000803e3d6000fd5b505050506040513d601f19601f820116820180604052508101906112919190611fa6565b11156114755760405163cc74234b60e01b8152600481018690526064907f00000000000000000000000000000000000000000000000000000000000000006001600160a01b03169063cc74234b9060240160206040518083038186803b1580156112fa57600080fd5b505afa15801561130e573d6000803e3d6000fd5b505050506040513d601f19601f820116820180604052508101906113329190611fa6565b61133c9084612156565b6113469190612175565b905080156114755760008581526006602052604090819020549051636bd8225b60e11b8152600481018790526001600160a01b03918216916323b872dd9133917f0000000000000000000000000000000000000000000000000000000000000000169063d7b044b69060240160206040518083038186803b1580156113ca57600080fd5b505afa1580156113de573d6000803e3d6000fd5b505050506040513d601f19601f820116820180604052508101906114029190611f29565b846040518463ffffffff1660e01b815260040161142193929190612189565b602060405180830381600087803b15801561143b57600080fd5b505af115801561144f573d6000803e3d6000fd5b505050506040513d601f19601f820116820180604052508101906114739190612047565b505b60006114818284611fd5565b905080156115b0576000868152600660205260409081902054905163a47d29cb60e01b8152600481018890526001600160a01b03918216916323b872dd9133917f0000000000000000000000000000000000000000000000000000000000000000169063a47d29cb9060240160206040518083038186803b15801561150557600080fd5b505afa158015611519573d6000803e3d6000fd5b505050506040513d601f19601f8201168201806040525081019061153d9190611f29565b846040518463ffffffff1660e01b815260040161155c93929190612189565b602060405180830381600087803b15801561157657600080fd5b505af115801561158a573d6000803e3d6000fd5b505050506040513d601f19601f820116820180604052508101906115ae9190612047565b505b505050505050565b3415611c4057600081815260036020526040812054906115d88234611fd5565b9050801561166a57604051600090339083908381818185875af1925050503d8060008114611622576040519150601f19603f3d011682016040523d82523d6000602084013e611627565b606091505b50509050806116685760405162461bcd60e51b815260206004820152600d60248201526c1499599d5b990819985a5b1959609a1b60448201526064016103e7565b505b600060647f00000000000000000000000000000000000000000000000000000000000000006001600160a01b0316634f029c396040518163ffffffff1660e01b815260040160206040518083038186803b1580156116c757600080fd5b505afa1580156116db573d6000803e3d6000fd5b505050506040513d601f19601f820116820180604052508101906116ff9190611fa6565b6117099085612156565b6117139190612175565b9050801561184c5760007f00000000000000000000000000000000000000000000000000000000000000006001600160a01b0316633949f9066040518163ffffffff1660e01b815260040160206040518083038186803b15801561177657600080fd5b505afa15801561178a573d6000803e3d6000fd5b505050506040513d601f19601f820116820180604052508101906117ae9190611f29565b6001600160a01b03168260405160006040518083038185875af1925050503d80600081146117f8576040519150601f19603f3d011682016040523d82523d6000602084013e6117fd565b606091505b505090508061184a5760405162461bcd60e51b8152602060048201526019602482015278119bdd5b99185d1a5bdb881c185e5b595b9d0819985a5b1959603a1b60448201526064016103e7565b505b60006118588285611fd5565b90506000807f00000000000000000000000000000000000000000000000000000000000000006001600160a01b031663cc74234b886040518263ffffffff1660e01b81526004016118ab91815260200190565b60206040518083038186803b1580156118c357600080fd5b505afa1580156118d7573d6000803e3d6000fd5b505050506040513d601f19601f820116820180604052508101906118fb9190611fa6565b1115611af15760405163cc74234b60e01b8152600481018790526064907f00000000000000000000000000000000000000000000000000000000000000006001600160a01b03169063cc74234b9060240160206040518083038186803b15801561196457600080fd5b505afa158015611978573d6000803e3d6000fd5b505050506040513d601f19601f8201168201806040525081019061199c9190611fa6565b6119a69084612156565b6119b09190612175565b90508015611af157604051636bd8225b60e11b8152600481018790526000907f00000000000000000000000000000000000000000000000000000000000000006001600160a01b03169063d7b044b69060240160206040518083038186803b158015611a1b57600080fd5b505afa158015611a2f573d6000803e3d6000fd5b505050506040513d601f19601f82011682018060405250810190611a539190611f29565b6001600160a01b03168260405160006040518083038185875af1925050503d8060008114611a9d576040519150601f19603f3d011682016040523d82523d6000602084013e611aa2565b606091505b5050905080611aef5760405162461bcd60e51b81526020600482015260196024820152781059191a5d1a5bdb985b081c185e5b595b9d0819985a5b1959603a1b60448201526064016103e7565b505b6000611afd8284611fd5565b905080156115ae5760405163a47d29cb60e01b8152600481018890526000907f00000000000000000000000000000000000000000000000000000000000000006001600160a01b03169063a47d29cb9060240160206040518083038186803b158015611b6857600080fd5b505afa158015611b7c573d6000803e3d6000fd5b505050506040513d601f19601f82011682018060405250810190611ba09190611f29565b6001600160a01b03168260405160006040518083038185875af1925050503d8060008114611bea576040519150601f19603f3d011682016040523d82523d6000602084013e611bef565b606091505b5050905080611c385760405162461bcd60e51b8152602060048201526015602482015274105c9d1a5cdd081c185e5b595b9d0819985a5b1959605a1b60448201526064016103e7565b505050505050505b50565b828054611c4f90611f6b565b90600052602060002090601f016020900481019282611c715760008555611cb7565b82601f10611c8a57805160ff1916838001178555611cb7565b82800160010185558215611cb7579182015b82811115611cb7578251825591602001919060010190611c9c565b50611cc3929150611cc7565b5090565b5b80821115611cc35760008155600101611cc8565b600060208284031215611cee57600080fd5b5035919050565b60008060408385031215611d0857600080fd5b50508035926020909101359150565b60005b83811015611d32578181015183820152602001611d1a565b83811115611d41576000848401525b50505050565b60008151808452611d5f816020860160208601611d17565b601f01601f19169290920160200192915050565b8415158152836020820152608060408201526000611d946080830185611d47565b905060018060a01b038316606083015295945050505050565b6001600160a01b0381168114611c4057600080fd5b60008060408385031215611dd557600080fd5b8235611de081611dad565b946020939093013593505050565b6001600160a01b0391909116815260200190565b634e487b7160e01b600052604160045260246000fd5b604051601f8201601f1916810167ffffffffffffffff81118282101715611e4157611e41611e02565b604052919050565b600067ffffffffffffffff821115611e6357611e63611e02565b50601f01601f191660200190565b600080600060608486031215611e8657600080fd5b83359250602084013567ffffffffffffffff811115611ea457600080fd5b8401601f81018613611eb557600080fd5b8035611ec8611ec382611e49565b611e18565b818152876020838501011115611edd57600080fd5b816020840160208301376000602083830101528094505050506040840135611f0481611dad565b809150509250925092565b602081526000611f226020830184611d47565b9392505050565b600060208284031215611f3b57600080fd5b8151611f2281611dad565b6020808252600b908201526a13db9b1e48105c9d1a5cdd60aa1b604082015260600190565b600181811c90821680611f7f57607f821691505b60208210811415611fa057634e487b7160e01b600052602260045260246000fd5b50919050565b600060208284031215611fb857600080fd5b5051919050565b634e487b7160e01b600052601160045260246000fd5b600082821015611fe757611fe7611fbf565b500390565b634e487b7160e01b600052601260045260246000fd5b60008261201157612011611fec565b500690565b60008251612028818460208701611d17565b9190910192915050565b8051801515811461204257600080fd5b919050565b60006020828403121561205957600080fd5b611f2282612032565b805161204281611dad565b60008060008060008060008060006101208a8c03121561208c57600080fd5b895161209781611dad565b8099505060208a0151975060408a0151965060608a015195506120bc60808b01612032565b945060a08a01516120cc81611dad565b60c08b015160e08c0151919550935067ffffffffffffffff8111156120f057600080fd5b8a01601f81018c1361210157600080fd5b805161210f611ec382611e49565b8181528d602083850101111561212457600080fd5b612135826020830160208601611d17565b93506121479150506101008b01612062565b90509295985092959850929598565b600081600019048311821515161561217057612170611fbf565b500290565b60008261218457612184611fec565b500490565b6001600160a01b03938416815291909216602082015260408101919091526060019056fea2646970667358221220129ac0657310cab119ab9728c05feaf9f62e5ba564c91baf39e0c380002a3b3264736f6c63430008090033",
  "linkReferences": {},
  "deployedLinkReferences": {}
}