{
  "_format": "hh-sol-artifact-1",
  "contractName": "MinterSetPriceV0",
  "sourceName": "contracts/minter-suite/MinterSetPriceV0.sol",
  "abi": [
    {
      "inputs": [
        {
          "internalType": "address",
          "name": "_genArt721Address",
          "type": "address"
        },
        {
          "internalType": "address",
          "name": "_minterFilter",
          "type": "address"
        }
      ],
      "stateMutability": "nonpayable",
      "type": "constructor"
    },
    {
      "anonymous": false,
      "inputs": [
        {
          "indexed": true,
          "internalType": "uint256",
          "name": "_projectId",
          "type": "uint256"
        },
        {
          "indexed": true,
          "internalType": "uint256",
          "name": "_pricePerTokenInWei",
          "type": "uint256"
        }
      ],
      "name": "PricePerTokenInWeiUpdated",
      "type": "event"
    },
    {
      "anonymous": false,
      "inputs": [
        {
          "indexed": true,
          "internalType": "uint256",
          "name": "_projectId",
          "type": "uint256"
        },
        {
          "indexed": true,
          "internalType": "string",
          "name": "_currencySymbol",
          "type": "string"
        },
        {
          "indexed": true,
          "internalType": "address",
          "name": "_currencyAddress",
          "type": "address"
        }
      ],
      "name": "ProjectCurrencyInfoUpdated",
      "type": "event"
    },
    {
      "anonymous": false,
      "inputs": [
        {
          "indexed": true,
          "internalType": "uint256",
          "name": "_projectId",
          "type": "uint256"
        },
        {
          "indexed": false,
          "internalType": "bool",
          "name": "_purchaseToDisabled",
          "type": "bool"
        }
      ],
      "name": "PurchaseToDisabledUpdated",
      "type": "event"
    },
    {
      "inputs": [
        {
          "internalType": "uint256",
          "name": "",
          "type": "uint256"
        }
      ],
      "name": "contractMintable",
      "outputs": [
        {
          "internalType": "bool",
          "name": "",
          "type": "bool"
        }
      ],
      "stateMutability": "view",
      "type": "function"
    },
    {
      "inputs": [],
      "name": "genArtCoreContract",
      "outputs": [
        {
          "internalType": "contract IGenArt721CoreContractV1",
          "name": "",
          "type": "address"
        }
      ],
      "stateMutability": "view",
      "type": "function"
    },
    {
      "inputs": [
        {
          "internalType": "uint256",
          "name": "_projectId",
          "type": "uint256"
        }
      ],
      "name": "getPriceInfo",
      "outputs": [
        {
          "internalType": "bool",
          "name": "isConfigured",
          "type": "bool"
        },
        {
          "internalType": "uint256",
          "name": "tokenPriceInWei",
          "type": "uint256"
        },
        {
          "internalType": "string",
          "name": "currencySymbol",
          "type": "string"
        },
        {
          "internalType": "address",
          "name": "currencyAddress",
          "type": "address"
        }
      ],
      "stateMutability": "view",
      "type": "function"
    },
    {
      "inputs": [],
      "name": "minterFilter",
      "outputs": [
        {
          "internalType": "contract IMinterFilterV0",
          "name": "",
          "type": "address"
        }
      ],
      "stateMutability": "view",
      "type": "function"
    },
    {
      "inputs": [],
      "name": "minterType",
      "outputs": [
        {
          "internalType": "string",
          "name": "",
          "type": "string"
        }
      ],
      "stateMutability": "view",
      "type": "function"
    },
    {
      "inputs": [
        {
          "internalType": "uint256",
          "name": "",
          "type": "uint256"
        }
      ],
      "name": "projectMaxHasBeenInvoked",
      "outputs": [
        {
          "internalType": "bool",
          "name": "",
          "type": "bool"
        }
      ],
      "stateMutability": "view",
      "type": "function"
    },
    {
      "inputs": [
        {
          "internalType": "uint256",
          "name": "",
          "type": "uint256"
        }
      ],
      "name": "projectMaxInvocations",
      "outputs": [
        {
          "internalType": "uint256",
          "name": "",
          "type": "uint256"
        }
      ],
      "stateMutability": "view",
      "type": "function"
    },
    {
      "inputs": [
        {
          "internalType": "address",
          "name": "",
          "type": "address"
        },
        {
          "internalType": "uint256",
          "name": "",
          "type": "uint256"
        }
      ],
      "name": "projectMintCounter",
      "outputs": [
        {
          "internalType": "uint256",
          "name": "",
          "type": "uint256"
        }
      ],
      "stateMutability": "view",
      "type": "function"
    },
    {
      "inputs": [
        {
          "internalType": "uint256",
          "name": "",
          "type": "uint256"
        }
      ],
      "name": "projectMintLimit",
      "outputs": [
        {
          "internalType": "uint256",
          "name": "",
          "type": "uint256"
        }
      ],
      "stateMutability": "view",
      "type": "function"
    },
    {
      "inputs": [
        {
          "internalType": "uint256",
          "name": "_projectId",
          "type": "uint256"
        }
      ],
      "name": "purchase",
      "outputs": [
        {
          "internalType": "uint256",
          "name": "tokenId",
          "type": "uint256"
        }
      ],
      "stateMutability": "payable",
      "type": "function"
    },
    {
      "inputs": [
        {
          "internalType": "address",
          "name": "_to",
          "type": "address"
        },
        {
          "internalType": "uint256",
          "name": "_projectId",
          "type": "uint256"
        }
      ],
      "name": "purchaseTo",
      "outputs": [
        {
          "internalType": "uint256",
          "name": "tokenId",
          "type": "uint256"
        }
      ],
      "stateMutability": "payable",
      "type": "function"
    },
    {
      "inputs": [
        {
          "internalType": "uint256",
          "name": "",
          "type": "uint256"
        }
      ],
      "name": "purchaseToDisabled",
      "outputs": [
        {
          "internalType": "bool",
          "name": "",
          "type": "bool"
        }
      ],
      "stateMutability": "view",
      "type": "function"
    },
    {
      "inputs": [
        {
          "internalType": "uint256",
          "name": "_projectId",
          "type": "uint256"
        }
      ],
      "name": "setProjectMaxInvocations",
      "outputs": [],
      "stateMutability": "nonpayable",
      "type": "function"
    },
    {
      "inputs": [
        {
          "internalType": "uint256",
          "name": "_projectId",
          "type": "uint256"
        },
        {
          "internalType": "uint8",
          "name": "_limit",
          "type": "uint8"
        }
      ],
      "name": "setProjectMintLimit",
      "outputs": [],
      "stateMutability": "nonpayable",
      "type": "function"
    },
    {
      "inputs": [
        {
          "internalType": "uint256",
          "name": "_projectId",
          "type": "uint256"
        }
      ],
      "name": "toggleContractMintable",
      "outputs": [],
      "stateMutability": "nonpayable",
      "type": "function"
    },
    {
      "inputs": [
        {
          "internalType": "uint256",
          "name": "_projectId",
          "type": "uint256"
        }
      ],
      "name": "togglePurchaseToDisabled",
      "outputs": [],
      "stateMutability": "nonpayable",
      "type": "function"
    },
    {
      "inputs": [
        {
          "internalType": "uint256",
          "name": "_projectId",
          "type": "uint256"
        },
        {
          "internalType": "uint256",
          "name": "_pricePerTokenInWei",
          "type": "uint256"
        }
      ],
      "name": "updatePricePerTokenInWei",
      "outputs": [],
      "stateMutability": "nonpayable",
      "type": "function"
    }
  ],
  "bytecode": "0x60c06040523480156200001157600080fd5b5060405162001aa938038062001aa983398101604081905262000034916200014c565b600160009081556001600160a01b03808416608081905290831660a0819052604080516392a10f8360e01b81529051929391926392a10f8392600480840193602093929083900390910190829087803b1580156200009157600080fd5b505af1158015620000a6573d6000803e3d6000fd5b505050506040513d601f19601f82011682018060405250810190620000cc919062000184565b6001600160a01b031614620001275760405162461bcd60e51b815260206004820152601860248201527f496c6c6567616c20636f6e74726163742070616972696e670000000000000000604482015260640160405180910390fd5b5050620001a9565b80516001600160a01b03811681146200014757600080fd5b919050565b600080604083850312156200016057600080fd5b6200016b836200012f565b91506200017b602084016200012f565b90509250929050565b6000602082840312156200019757600080fd5b620001a2826200012f565b9392505050565b60805160a051611880620002296000396000818160f50152610a580152600081816102ea015281816104320152818161050b0152818161062101528181610b6301528181610c4d01528181610d1101528181610e8601528181610f36015281816110760152818161112e015281816111e6015261133301526118806000f3fe6080604052600436106100de5760003560e01c8063774159c611610085578063774159c61461026f5780637f38902b146102d8578063891407c01461030c578063acffea051461031f578063bee560031461033f578063cfff5cf11461036f578063e9d1e8ac1461039f578063efef39a1146103e8578063f7bd4b88146103fb57600080fd5b806308d94188146100e3578063231c22811461012d5780633a4657b41461014f57806340d1397e14610195578063462add46146101b557806356690aaf146101f557806362f7a7ed146102225780636cb9b7ff1461024f575b600080fd5b3480156100ef57600080fd5b506101177f000000000000000000000000000000000000000000000000000000000000000081565b6040516101249190611459565b60405180910390f35b34801561013957600080fd5b5061014d61014836600461146d565b61041b565b005b34801561015b57600080fd5b5061018761016a3660046114b8565b600360209081526000928352604080842090915290825290205481565b604051908152602001610124565b3480156101a157600080fd5b5061014d6101b03660046114e4565b6104f4565b3480156101c157600080fd5b506101e56101d03660046114e4565b60056020526000908152604090205460ff1681565b6040519015158152602001610124565b34801561020157600080fd5b506101876102103660046114e4565b60066020526000908152604090205481565b34801561022e57600080fd5b5061018761023d3660046114e4565b60046020526000908152604090205481565b34801561025b57600080fd5b5061014d61026a3660046114fd565b610609565b34801561027b57600080fd5b506102c861028a3660046114e4565b60009081526008602090815260408083205460078352818420548251808401909352600383526208aa8960eb1b9383019390935260ff169391929091565b604051610124949392919061157b565b3480156102e457600080fd5b506101177f000000000000000000000000000000000000000000000000000000000000000081565b61018761031a3660046114b8565b610746565b34801561032b57600080fd5b5061014d61033a3660046114e4565b610b4c565b34801561034b57600080fd5b506101e561035a3660046114e4565b60016020526000908152604090205460ff1681565b34801561037b57600080fd5b506101e561038a3660046114e4565b60026020526000908152604090205460ff1681565b3480156103ab57600080fd5b506103db6040518060400160405280601081526020016f04d696e746572536574507269636556360841b81525081565b60405161012491906115b5565b6101876103f63660046114e4565b610c24565b34801561040757600080fd5b5061014d6104163660046114e4565b610c36565b604051633af32abf60e01b81526001600160a01b037f00000000000000000000000000000000000000000000000000000000000000001690633af32abf90610467903390600401611459565b60206040518083038186803b15801561047f57600080fd5b505afa158015610493573d6000803e3d6000fd5b505050506040513d601f19601f820116820180604052508101906104b791906115e4565b6104dc5760405162461bcd60e51b81526004016104d3906115ff565b60405180910390fd5b60009182526004602052604090912060ff9091169055565b604051633af32abf60e01b81526001600160a01b037f00000000000000000000000000000000000000000000000000000000000000001690633af32abf90610540903390600401611459565b60206040518083038186803b15801561055857600080fd5b505afa15801561056c573d6000803e3d6000fd5b505050506040513d601f19601f8201168201806040525081019061059091906115e4565b6105ac5760405162461bcd60e51b81526004016104d3906115ff565b600081815260026020908152604091829020805460ff8082161560ff199092168217909255925192161515825282917fce8ced1e9d6979c7589d3c8786f4d51a8034faa5ff2cbc5a2271364f787feccb910160405180910390a250565b60405163a47d29cb60e01b81526004810183905282907f00000000000000000000000000000000000000000000000000000000000000006001600160a01b03169063a47d29cb9060240160206040518083038186803b15801561066b57600080fd5b505afa15801561067f573d6000803e3d6000fd5b505050506040513d601f19601f820116820180604052508101906106a3919061162e565b6001600160a01b0316336001600160a01b0316146106f15760405162461bcd60e51b815260206004820152600b60248201526a13db9b1e48105c9d1a5cdd60aa1b60448201526064016104d3565b60008381526007602090815260408083208590556008909152808220805460ff1916600117905551839185917f26118a27aca826f829f3bfe21b140b4455c00b434849bd0da50d1e1a9720fb5c9190a3505050565b60006002600054141561079b5760405162461bcd60e51b815260206004820152601f60248201527f5265656e7472616e637947756172643a207265656e7472616e742063616c6c0060448201526064016104d3565b600260009081558281526005602052604090205460ff161561080d5760405162461bcd60e51b815260206004820152602560248201527f4d6178696d756d206e756d626572206f6620696e766f636174696f6e732072656044820152641858da195960da1b60648201526084016104d3565b60008281526008602052604090205460ff166108625760405162461bcd60e51b8152602060048201526014602482015273141c9a58d9481b9bdd0818dbdb999a59dd5c995960621b60448201526064016104d3565b60008281526001602052604090205460ff166108ba573332146108ba5760405162461bcd60e51b815260206004820152601060248201526f4e6f20436f6e7472616374204275797360801b60448201526064016104d3565b60008281526002602052604090205460ff161561092357336001600160a01b038416146109235760405162461bcd60e51b8152602060048201526017602482015276139bc8181c1d5c98da185cd9551bd808105b1b1bddd959604a1b60448201526064016104d3565b6000828152600760205260409020543410156109815760405162461bcd60e51b815260206004820181905260248201527f4d7573742073656e64206d696e696d756d2076616c756520746f206d696e742160448201526064016104d3565b60008281526004602052604090205415610a2c57600082815260046020908152604080832054338452600383528184208685529092529091205410610a005760405162461bcd60e51b815260206004820152601560248201527414995858da1959081b5a5b9d1a5b99c81b1a5b5a5d605a1b60448201526064016104d3565b3360009081526003602090815260408083208584529091528120805491610a2683611661565b91905055505b604051630d4d151360e01b81526001600160a01b038481166004830152602482018490523360448301527f00000000000000000000000000000000000000000000000000000000000000001690630d4d151390606401602060405180830381600087803b158015610a9c57600080fd5b505af1158015610ab0573d6000803e3d6000fd5b505050506040513d601f19601f82011682018060405250810190610ad4919061167c565b60008381526006602052604090205490915015801590610b195750600082815260066020526040902054610b0a90600190611695565b610b17620f4240836116c2565b145b15610b38576000828152600560205260409020805460ff191660011790555b610b4182610dd0565b600160005592915050565b604051633af32abf60e01b81526001600160a01b037f00000000000000000000000000000000000000000000000000000000000000001690633af32abf90610b98903390600401611459565b60206040518083038186803b158015610bb057600080fd5b505afa158015610bc4573d6000803e3d6000fd5b505050506040513d601f19601f82011682018060405250810190610be891906115e4565b610c045760405162461bcd60e51b81526004016104d3906115ff565b6000908152600160205260409020805460ff19811660ff90911615179055565b6000610c303383610746565b92915050565b604051633af32abf60e01b81526001600160a01b037f00000000000000000000000000000000000000000000000000000000000000001690633af32abf90610c82903390600401611459565b60206040518083038186803b158015610c9a57600080fd5b505afa158015610cae573d6000803e3d6000fd5b505050506040513d601f19601f82011682018060405250810190610cd291906115e4565b610cee5760405162461bcd60e51b81526004016104d3906115ff565b6040516346161b1160e11b81526004810182905260009081906001600160a01b037f00000000000000000000000000000000000000000000000000000000000000001690638c2c36229060240160006040518083038186803b158015610d5357600080fd5b505afa158015610d67573d6000803e3d6000fd5b505050506040513d6000823e601f3d908101601f19168201604052610d8f91908101906116f7565b505050600089815260066020526040902083905550919550935050505080821015610dcb576000838152600560205260409020805460ff191690555b505050565b34156114565760008181526007602052604081205490610df08234611695565b90508015610e8257604051600090339083908381818185875af1925050503d8060008114610e3a576040519150601f19603f3d011682016040523d82523d6000602084013e610e3f565b606091505b5050905080610e805760405162461bcd60e51b815260206004820152600d60248201526c1499599d5b990819985a5b1959609a1b60448201526064016104d3565b505b60007f00000000000000000000000000000000000000000000000000000000000000006001600160a01b0316634f029c396040518163ffffffff1660e01b815260040160206040518083038186803b158015610edd57600080fd5b505afa158015610ef1573d6000803e3d6000fd5b505050506040513d601f19601f82011682018060405250810190610f15919061167c565b610f20606485611817565b610f2a919061182b565b905080156110635760007f00000000000000000000000000000000000000000000000000000000000000006001600160a01b0316633949f9066040518163ffffffff1660e01b815260040160206040518083038186803b158015610f8d57600080fd5b505afa158015610fa1573d6000803e3d6000fd5b505050506040513d601f19601f82011682018060405250810190610fc5919061162e565b6001600160a01b03168260405160006040518083038185875af1925050503d806000811461100f576040519150601f19603f3d011682016040523d82523d6000602084013e611014565b606091505b50509050806110615760405162461bcd60e51b8152602060048201526019602482015278119bdd5b99185d1a5bdb881c185e5b595b9d0819985a5b1959603a1b60448201526064016104d3565b505b600061106f8285611695565b90506000807f00000000000000000000000000000000000000000000000000000000000000006001600160a01b031663cc74234b886040518263ffffffff1660e01b81526004016110c291815260200190565b60206040518083038186803b1580156110da57600080fd5b505afa1580156110ee573d6000803e3d6000fd5b505050506040513d601f19601f82011682018060405250810190611112919061167c565b11156113065760405163cc74234b60e01b8152600481018790527f00000000000000000000000000000000000000000000000000000000000000006001600160a01b03169063cc74234b9060240160206040518083038186803b15801561117857600080fd5b505afa15801561118c573d6000803e3d6000fd5b505050506040513d601f19601f820116820180604052508101906111b0919061167c565b6111bb606484611817565b6111c5919061182b565b9050801561130657604051636bd8225b60e11b8152600481018790526000907f00000000000000000000000000000000000000000000000000000000000000006001600160a01b03169063d7b044b69060240160206040518083038186803b15801561123057600080fd5b505afa158015611244573d6000803e3d6000fd5b505050506040513d601f19601f82011682018060405250810190611268919061162e565b6001600160a01b03168260405160006040518083038185875af1925050503d80600081146112b2576040519150601f19603f3d011682016040523d82523d6000602084013e6112b7565b606091505b50509050806113045760405162461bcd60e51b81526020600482015260196024820152781059191a5d1a5bdb985b081c185e5b595b9d0819985a5b1959603a1b60448201526064016104d3565b505b60006113128284611695565b9050801561144f5760405163a47d29cb60e01b8152600481018890526000907f00000000000000000000000000000000000000000000000000000000000000006001600160a01b03169063a47d29cb9060240160206040518083038186803b15801561137d57600080fd5b505afa158015611391573d6000803e3d6000fd5b505050506040513d601f19601f820116820180604052508101906113b5919061162e565b6001600160a01b03168260405160006040518083038185875af1925050503d80600081146113ff576040519150601f19603f3d011682016040523d82523d6000602084013e611404565b606091505b505090508061144d5760405162461bcd60e51b8152602060048201526015602482015274105c9d1a5cdd081c185e5b595b9d0819985a5b1959605a1b60448201526064016104d3565b505b5050505050505b50565b6001600160a01b0391909116815260200190565b6000806040838503121561148057600080fd5b82359150602083013560ff8116811461149857600080fd5b809150509250929050565b6001600160a01b038116811461145657600080fd5b600080604083850312156114cb57600080fd5b82356114d6816114a3565b946020939093013593505050565b6000602082840312156114f657600080fd5b5035919050565b6000806040838503121561151057600080fd5b50508035926020909101359150565b60005b8381101561153a578181015183820152602001611522565b83811115611549576000848401525b50505050565b6000815180845261156781602086016020860161151f565b601f01601f19169290920160200192915050565b841515815283602082015260806040820152600061159c608083018561154f565b905060018060a01b038316606083015295945050505050565b6020815260006115c8602083018461154f565b9392505050565b805180151581146115df57600080fd5b919050565b6000602082840312156115f657600080fd5b6115c8826115cf565b60208082526015908201527413db9b1e4810dbdc99481dda1a5d195b1a5cdd1959605a1b604082015260600190565b60006020828403121561164057600080fd5b81516115c8816114a3565b634e487b7160e01b600052601160045260246000fd5b60006000198214156116755761167561164b565b5060010190565b60006020828403121561168e57600080fd5b5051919050565b6000828210156116a7576116a761164b565b500390565b634e487b7160e01b600052601260045260246000fd5b6000826116d1576116d16116ac565b500690565b80516115df816114a3565b634e487b7160e01b600052604160045260246000fd5b60008060008060008060008060006101208a8c03121561171657600080fd5b8951611721816114a3565b8099505060208a0151975060408a0151965060608a0151955061174660808b016115cf565b945060a08a0151611756816114a3565b60c08b015160e08c0151919550935067ffffffffffffffff8082111561177b57600080fd5b818c0191508c601f83011261178f57600080fd5b8151818111156117a1576117a16116e1565b604051601f8201601f19908116603f011681019083821181831017156117c9576117c96116e1565b816040528281528f60208487010111156117e257600080fd5b6117f383602083016020880161151f565b80965050505050506118086101008b016116d6565b90509295985092959850929598565b600082611826576118266116ac565b500490565b60008160001904831182151516156118455761184561164b565b50029056fea2646970667358221220465b17d11aef237c2a04fb095babb67ebbfbdb6659ed370965617e79d89fd6f864736f6c63430008090033",
  "linkReferences": {},
  "deployedLinkReferences": {}
}