{
  "_format": "hh-sol-artifact-1",
  "contractName": "MinterSetPriceV0",
  "sourceName": "contracts/minter-suite/MinterSetPriceV0.sol",
  "abi": [
    {
      "inputs": [
        {
          "internalType": "address",
          "name": "_genArt721Address",
          "type": "address"
        },
        {
          "internalType": "address",
          "name": "_minterFilter",
          "type": "address"
        }
      ],
      "stateMutability": "nonpayable",
      "type": "constructor"
    },
    {
      "anonymous": false,
      "inputs": [
        {
          "indexed": true,
          "internalType": "uint256",
          "name": "_projectId",
          "type": "uint256"
        },
        {
          "indexed": true,
          "internalType": "uint256",
          "name": "_pricePerTokenInWei",
          "type": "uint256"
        }
      ],
      "name": "PricePerTokenInWeiUpdated",
      "type": "event"
    },
    {
      "anonymous": false,
      "inputs": [
        {
          "indexed": true,
          "internalType": "uint256",
          "name": "_projectId",
          "type": "uint256"
        },
        {
          "indexed": true,
          "internalType": "address",
          "name": "_currencyAddress",
          "type": "address"
        },
        {
          "indexed": false,
          "internalType": "string",
          "name": "_currencySymbol",
          "type": "string"
        }
      ],
      "name": "ProjectCurrencyInfoUpdated",
      "type": "event"
    },
    {
      "anonymous": false,
      "inputs": [
        {
          "indexed": true,
          "internalType": "uint256",
          "name": "_projectId",
          "type": "uint256"
        },
        {
          "indexed": false,
          "internalType": "bool",
          "name": "_purchaseToDisabled",
          "type": "bool"
        }
      ],
      "name": "PurchaseToDisabledUpdated",
      "type": "event"
    },
    {
      "inputs": [
        {
          "internalType": "uint256",
          "name": "",
          "type": "uint256"
        }
      ],
      "name": "contractMintable",
      "outputs": [
        {
          "internalType": "bool",
          "name": "",
          "type": "bool"
        }
      ],
      "stateMutability": "view",
      "type": "function"
    },
    {
      "inputs": [],
      "name": "genArt721CoreAddress",
      "outputs": [
        {
          "internalType": "address",
          "name": "",
          "type": "address"
        }
      ],
      "stateMutability": "view",
      "type": "function"
    },
    {
      "inputs": [
        {
          "internalType": "uint256",
          "name": "_projectId",
          "type": "uint256"
        }
      ],
      "name": "getPriceInfo",
      "outputs": [
        {
          "internalType": "bool",
          "name": "isConfigured",
          "type": "bool"
        },
        {
          "internalType": "uint256",
          "name": "tokenPriceInWei",
          "type": "uint256"
        },
        {
          "internalType": "string",
          "name": "currencySymbol",
          "type": "string"
        },
        {
          "internalType": "address",
          "name": "currencyAddress",
          "type": "address"
        }
      ],
      "stateMutability": "view",
      "type": "function"
    },
    {
      "inputs": [],
      "name": "minterFilterAddress",
      "outputs": [
        {
          "internalType": "address",
          "name": "",
          "type": "address"
        }
      ],
      "stateMutability": "view",
      "type": "function"
    },
    {
      "inputs": [],
      "name": "minterType",
      "outputs": [
        {
          "internalType": "string",
          "name": "",
          "type": "string"
        }
      ],
      "stateMutability": "view",
      "type": "function"
    },
    {
      "inputs": [
        {
          "internalType": "uint256",
          "name": "",
          "type": "uint256"
        }
      ],
      "name": "projectMaxHasBeenInvoked",
      "outputs": [
        {
          "internalType": "bool",
          "name": "",
          "type": "bool"
        }
      ],
      "stateMutability": "view",
      "type": "function"
    },
    {
      "inputs": [
        {
          "internalType": "uint256",
          "name": "",
          "type": "uint256"
        }
      ],
      "name": "projectMaxInvocations",
      "outputs": [
        {
          "internalType": "uint256",
          "name": "",
          "type": "uint256"
        }
      ],
      "stateMutability": "view",
      "type": "function"
    },
    {
      "inputs": [
        {
          "internalType": "address",
          "name": "",
          "type": "address"
        },
        {
          "internalType": "uint256",
          "name": "",
          "type": "uint256"
        }
      ],
      "name": "projectMintCounter",
      "outputs": [
        {
          "internalType": "uint256",
          "name": "",
          "type": "uint256"
        }
      ],
      "stateMutability": "view",
      "type": "function"
    },
    {
      "inputs": [
        {
          "internalType": "uint256",
          "name": "",
          "type": "uint256"
        }
      ],
      "name": "projectMintLimit",
      "outputs": [
        {
          "internalType": "uint256",
          "name": "",
          "type": "uint256"
        }
      ],
      "stateMutability": "view",
      "type": "function"
    },
    {
      "inputs": [
        {
          "internalType": "uint256",
          "name": "_projectId",
          "type": "uint256"
        }
      ],
      "name": "purchase",
      "outputs": [
        {
          "internalType": "uint256",
          "name": "tokenId",
          "type": "uint256"
        }
      ],
      "stateMutability": "payable",
      "type": "function"
    },
    {
      "inputs": [
        {
          "internalType": "address",
          "name": "_to",
          "type": "address"
        },
        {
          "internalType": "uint256",
          "name": "_projectId",
          "type": "uint256"
        }
      ],
      "name": "purchaseTo",
      "outputs": [
        {
          "internalType": "uint256",
          "name": "tokenId",
          "type": "uint256"
        }
      ],
      "stateMutability": "payable",
      "type": "function"
    },
    {
      "inputs": [
        {
          "internalType": "uint256",
          "name": "",
          "type": "uint256"
        }
      ],
      "name": "purchaseToDisabled",
      "outputs": [
        {
          "internalType": "bool",
          "name": "",
          "type": "bool"
        }
      ],
      "stateMutability": "view",
      "type": "function"
    },
    {
      "inputs": [
        {
          "internalType": "uint256",
          "name": "_projectId",
          "type": "uint256"
        }
      ],
      "name": "setProjectMaxInvocations",
      "outputs": [],
      "stateMutability": "nonpayable",
      "type": "function"
    },
    {
      "inputs": [
        {
          "internalType": "uint256",
          "name": "_projectId",
          "type": "uint256"
        },
        {
          "internalType": "uint8",
          "name": "_limit",
          "type": "uint8"
        }
      ],
      "name": "setProjectMintLimit",
      "outputs": [],
      "stateMutability": "nonpayable",
      "type": "function"
    },
    {
      "inputs": [
        {
          "internalType": "uint256",
          "name": "_projectId",
          "type": "uint256"
        }
      ],
      "name": "toggleContractMintable",
      "outputs": [],
      "stateMutability": "nonpayable",
      "type": "function"
    },
    {
      "inputs": [
        {
          "internalType": "uint256",
          "name": "_projectId",
          "type": "uint256"
        }
      ],
      "name": "togglePurchaseToDisabled",
      "outputs": [],
      "stateMutability": "nonpayable",
      "type": "function"
    },
    {
      "inputs": [
        {
          "internalType": "uint256",
          "name": "_projectId",
          "type": "uint256"
        },
        {
          "internalType": "uint256",
          "name": "_pricePerTokenInWei",
          "type": "uint256"
        }
      ],
      "name": "updatePricePerTokenInWei",
      "outputs": [],
      "stateMutability": "nonpayable",
      "type": "function"
    }
  ],
  "bytecode": "0x6101006040523480156200001257600080fd5b5060405162001aba38038062001aba833981016040819052620000359162000157565b600160009081556001600160a01b03808416608081905260a081905290831660c081905260e0819052604080516392a10f8360e01b81529051929391926392a10f8392600480840193602093929083900390910190829087803b1580156200009c57600080fd5b505af1158015620000b1573d6000803e3d6000fd5b505050506040513d601f19601f82011682018060405250810190620000d791906200018f565b6001600160a01b031614620001325760405162461bcd60e51b815260206004820152601860248201527f496c6c6567616c20636f6e74726163742070616972696e670000000000000000604482015260640160405180910390fd5b5050620001b4565b80516001600160a01b03811681146200015257600080fd5b919050565b600080604083850312156200016b57600080fd5b62000176836200013a565b915062000186602084016200013a565b90509250929050565b600060208284031215620001a257600080fd5b620001ad826200013a565b9392505050565b60805160a05160c05160e05161187f6200023b6000396000610a540152600061037901526000818161042e015281816105070152818161061d01528181610b5f01528181610c4901528181610d0d01528181610e8401528181610f33015281816110730152818161112e015281816111e50152611332015260006102b8015261187f6000f3fe6080604052600436106100de5760003560e01c8063891407c011610085578063891407c01461029357806392a10f83146102a6578063acffea05146102e7578063bee5600314610307578063cfff5cf114610337578063dd85582f14610367578063e9d1e8ac1461039b578063efef39a1146103e4578063f7bd4b88146103f757600080fd5b8063231c2281146100e35780633a4657b41461010557806340d1397e14610150578063462add461461017057806356690aaf146101b057806362f7a7ed146101dd5780636cb9b7ff1461020a578063774159c61461022a575b600080fd5b3480156100ef57600080fd5b506101036100fe366004611458565b610417565b005b34801561011157600080fd5b5061013d6101203660046114a3565b600360209081526000928352604080842090915290825290205481565b6040519081526020015b60405180910390f35b34801561015c57600080fd5b5061010361016b3660046114cf565b6104f0565b34801561017c57600080fd5b506101a061018b3660046114cf565b60056020526000908152604090205460ff1681565b6040519015158152602001610147565b3480156101bc57600080fd5b5061013d6101cb3660046114cf565b60066020526000908152604090205481565b3480156101e957600080fd5b5061013d6101f83660046114cf565b60046020526000908152604090205481565b34801561021657600080fd5b506101036102253660046114e8565b610605565b34801561023657600080fd5b506102836102453660046114cf565b60009081526008602090815260408083205460078352818420548251808401909352600383526208aa8960eb1b9383019390935260ff169391929091565b6040516101479493929190611566565b61013d6102a13660046114a3565b610742565b3480156102b257600080fd5b506102da7f000000000000000000000000000000000000000000000000000000000000000081565b60405161014791906115a0565b3480156102f357600080fd5b506101036103023660046114cf565b610b48565b34801561031357600080fd5b506101a06103223660046114cf565b60016020526000908152604090205460ff1681565b34801561034357600080fd5b506101a06103523660046114cf565b60026020526000908152604090205460ff1681565b34801561037357600080fd5b506102da7f000000000000000000000000000000000000000000000000000000000000000081565b3480156103a757600080fd5b506103d76040518060400160405280601081526020016f04d696e746572536574507269636556360841b81525081565b60405161014791906115b4565b61013d6103f23660046114cf565b610c20565b34801561040357600080fd5b506101036104123660046114cf565b610c32565b604051633af32abf60e01b81526001600160a01b037f00000000000000000000000000000000000000000000000000000000000000001690633af32abf906104639033906004016115a0565b60206040518083038186803b15801561047b57600080fd5b505afa15801561048f573d6000803e3d6000fd5b505050506040513d601f19601f820116820180604052508101906104b391906115e3565b6104d85760405162461bcd60e51b81526004016104cf906115fe565b60405180910390fd5b60009182526004602052604090912060ff9091169055565b604051633af32abf60e01b81526001600160a01b037f00000000000000000000000000000000000000000000000000000000000000001690633af32abf9061053c9033906004016115a0565b60206040518083038186803b15801561055457600080fd5b505afa158015610568573d6000803e3d6000fd5b505050506040513d601f19601f8201168201806040525081019061058c91906115e3565b6105a85760405162461bcd60e51b81526004016104cf906115fe565b600081815260026020908152604091829020805460ff8082161560ff199092168217909255925192161515825282917fce8ced1e9d6979c7589d3c8786f4d51a8034faa5ff2cbc5a2271364f787feccb910160405180910390a250565b60405163a47d29cb60e01b81526004810183905282907f00000000000000000000000000000000000000000000000000000000000000006001600160a01b03169063a47d29cb9060240160206040518083038186803b15801561066757600080fd5b505afa15801561067b573d6000803e3d6000fd5b505050506040513d601f19601f8201168201806040525081019061069f919061162d565b6001600160a01b0316336001600160a01b0316146106ed5760405162461bcd60e51b815260206004820152600b60248201526a13db9b1e48105c9d1a5cdd60aa1b60448201526064016104cf565b60008381526007602090815260408083208590556008909152808220805460ff1916600117905551839185917f26118a27aca826f829f3bfe21b140b4455c00b434849bd0da50d1e1a9720fb5c9190a3505050565b6000600260005414156107975760405162461bcd60e51b815260206004820152601f60248201527f5265656e7472616e637947756172643a207265656e7472616e742063616c6c0060448201526064016104cf565b600260009081558281526005602052604090205460ff16156108095760405162461bcd60e51b815260206004820152602560248201527f4d6178696d756d206e756d626572206f6620696e766f636174696f6e732072656044820152641858da195960da1b60648201526084016104cf565b60008281526008602052604090205460ff1661085e5760405162461bcd60e51b8152602060048201526014602482015273141c9a58d9481b9bdd0818dbdb999a59dd5c995960621b60448201526064016104cf565b60008281526001602052604090205460ff166108b6573332146108b65760405162461bcd60e51b815260206004820152601060248201526f4e6f20436f6e7472616374204275797360801b60448201526064016104cf565b60008281526002602052604090205460ff161561091f57336001600160a01b0384161461091f5760405162461bcd60e51b8152602060048201526017602482015276139bc8181c1d5c98da185cd9551bd808105b1b1bddd959604a1b60448201526064016104cf565b60008281526007602052604090205434101561097d5760405162461bcd60e51b815260206004820181905260248201527f4d7573742073656e64206d696e696d756d2076616c756520746f206d696e742160448201526064016104cf565b60008281526004602052604090205415610a28576000828152600460209081526040808320543384526003835281842086855290925290912054106109fc5760405162461bcd60e51b815260206004820152601560248201527414995858da1959081b5a5b9d1a5b99c81b1a5b5a5d605a1b60448201526064016104cf565b3360009081526003602090815260408083208584529091528120805491610a2283611660565b91905055505b604051630d4d151360e01b81526001600160a01b038481166004830152602482018490523360448301527f00000000000000000000000000000000000000000000000000000000000000001690630d4d151390606401602060405180830381600087803b158015610a9857600080fd5b505af1158015610aac573d6000803e3d6000fd5b505050506040513d601f19601f82011682018060405250810190610ad0919061167b565b60008381526006602052604090205490915015801590610b155750600082815260066020526040902054610b0690600190611694565b610b13620f4240836116c1565b145b15610b34576000828152600560205260409020805460ff191660011790555b610b3d82610dcc565b600160005592915050565b604051633af32abf60e01b81526001600160a01b037f00000000000000000000000000000000000000000000000000000000000000001690633af32abf90610b949033906004016115a0565b60206040518083038186803b158015610bac57600080fd5b505afa158015610bc0573d6000803e3d6000fd5b505050506040513d601f19601f82011682018060405250810190610be491906115e3565b610c005760405162461bcd60e51b81526004016104cf906115fe565b6000908152600160205260409020805460ff19811660ff90911615179055565b6000610c2c3383610742565b92915050565b604051633af32abf60e01b81526001600160a01b037f00000000000000000000000000000000000000000000000000000000000000001690633af32abf90610c7e9033906004016115a0565b60206040518083038186803b158015610c9657600080fd5b505afa158015610caa573d6000803e3d6000fd5b505050506040513d601f19601f82011682018060405250810190610cce91906115e3565b610cea5760405162461bcd60e51b81526004016104cf906115fe565b6040516346161b1160e11b81526004810182905260009081906001600160a01b037f00000000000000000000000000000000000000000000000000000000000000001690638c2c36229060240160006040518083038186803b158015610d4f57600080fd5b505afa158015610d63573d6000803e3d6000fd5b505050506040513d6000823e601f3d908101601f19168201604052610d8b91908101906116f6565b505050600089815260066020526040902083905550919550935050505080821015610dc7576000838152600560205260409020805460ff191690555b505050565b34156114555760008181526007602052604081205490610dec8234611694565b90508015610e7e57604051600090339083908381818185875af1925050503d8060008114610e36576040519150601f19603f3d011682016040523d82523d6000602084013e610e3b565b606091505b5050905080610e7c5760405162461bcd60e51b815260206004820152600d60248201526c1499599d5b990819985a5b1959609a1b60448201526064016104cf565b505b600060647f00000000000000000000000000000000000000000000000000000000000000006001600160a01b0316634f029c396040518163ffffffff1660e01b815260040160206040518083038186803b158015610edb57600080fd5b505afa158015610eef573d6000803e3d6000fd5b505050506040513d601f19601f82011682018060405250810190610f13919061167b565b610f1d9085611816565b610f279190611835565b905080156110605760007f00000000000000000000000000000000000000000000000000000000000000006001600160a01b0316633949f9066040518163ffffffff1660e01b815260040160206040518083038186803b158015610f8a57600080fd5b505afa158015610f9e573d6000803e3d6000fd5b505050506040513d601f19601f82011682018060405250810190610fc2919061162d565b6001600160a01b03168260405160006040518083038185875af1925050503d806000811461100c576040519150601f19603f3d011682016040523d82523d6000602084013e611011565b606091505b505090508061105e5760405162461bcd60e51b8152602060048201526019602482015278119bdd5b99185d1a5bdb881c185e5b595b9d0819985a5b1959603a1b60448201526064016104cf565b505b600061106c8285611694565b90506000807f00000000000000000000000000000000000000000000000000000000000000006001600160a01b031663cc74234b886040518263ffffffff1660e01b81526004016110bf91815260200190565b60206040518083038186803b1580156110d757600080fd5b505afa1580156110eb573d6000803e3d6000fd5b505050506040513d601f19601f8201168201806040525081019061110f919061167b565b11156113055760405163cc74234b60e01b8152600481018790526064907f00000000000000000000000000000000000000000000000000000000000000006001600160a01b03169063cc74234b9060240160206040518083038186803b15801561117857600080fd5b505afa15801561118c573d6000803e3d6000fd5b505050506040513d601f19601f820116820180604052508101906111b0919061167b565b6111ba9084611816565b6111c49190611835565b9050801561130557604051636bd8225b60e11b8152600481018790526000907f00000000000000000000000000000000000000000000000000000000000000006001600160a01b03169063d7b044b69060240160206040518083038186803b15801561122f57600080fd5b505afa158015611243573d6000803e3d6000fd5b505050506040513d601f19601f82011682018060405250810190611267919061162d565b6001600160a01b03168260405160006040518083038185875af1925050503d80600081146112b1576040519150601f19603f3d011682016040523d82523d6000602084013e6112b6565b606091505b50509050806113035760405162461bcd60e51b81526020600482015260196024820152781059191a5d1a5bdb985b081c185e5b595b9d0819985a5b1959603a1b60448201526064016104cf565b505b60006113118284611694565b9050801561144e5760405163a47d29cb60e01b8152600481018890526000907f00000000000000000000000000000000000000000000000000000000000000006001600160a01b03169063a47d29cb9060240160206040518083038186803b15801561137c57600080fd5b505afa158015611390573d6000803e3d6000fd5b505050506040513d601f19601f820116820180604052508101906113b4919061162d565b6001600160a01b03168260405160006040518083038185875af1925050503d80600081146113fe576040519150601f19603f3d011682016040523d82523d6000602084013e611403565b606091505b505090508061144c5760405162461bcd60e51b8152602060048201526015602482015274105c9d1a5cdd081c185e5b595b9d0819985a5b1959605a1b60448201526064016104cf565b505b5050505050505b50565b6000806040838503121561146b57600080fd5b82359150602083013560ff8116811461148357600080fd5b809150509250929050565b6001600160a01b038116811461145557600080fd5b600080604083850312156114b657600080fd5b82356114c18161148e565b946020939093013593505050565b6000602082840312156114e157600080fd5b5035919050565b600080604083850312156114fb57600080fd5b50508035926020909101359150565b60005b8381101561152557818101518382015260200161150d565b83811115611534576000848401525b50505050565b6000815180845261155281602086016020860161150a565b601f01601f19169290920160200192915050565b8415158152836020820152608060408201526000611587608083018561153a565b905060018060a01b038316606083015295945050505050565b6001600160a01b0391909116815260200190565b6020815260006115c7602083018461153a565b9392505050565b805180151581146115de57600080fd5b919050565b6000602082840312156115f557600080fd5b6115c7826115ce565b60208082526015908201527413db9b1e4810dbdc99481dda1a5d195b1a5cdd1959605a1b604082015260600190565b60006020828403121561163f57600080fd5b81516115c78161148e565b634e487b7160e01b600052601160045260246000fd5b60006000198214156116745761167461164a565b5060010190565b60006020828403121561168d57600080fd5b5051919050565b6000828210156116a6576116a661164a565b500390565b634e487b7160e01b600052601260045260246000fd5b6000826116d0576116d06116ab565b500690565b80516115de8161148e565b634e487b7160e01b600052604160045260246000fd5b60008060008060008060008060006101208a8c03121561171557600080fd5b89516117208161148e565b8099505060208a0151975060408a0151965060608a0151955061174560808b016115ce565b945060a08a01516117558161148e565b60c08b015160e08c0151919550935067ffffffffffffffff8082111561177a57600080fd5b818c0191508c601f83011261178e57600080fd5b8151818111156117a0576117a06116e0565b604051601f8201601f19908116603f011681019083821181831017156117c8576117c86116e0565b816040528281528f60208487010111156117e157600080fd5b6117f283602083016020880161150a565b80965050505050506118076101008b016116d5565b90509295985092959850929598565b60008160001904831182151516156118305761183061164a565b500290565b600082611844576118446116ab565b50049056fea264697066735822122018d6ad23c5bd5a82f971eb189364aaefb524b83207aed3d64fe3bbe701165bb264736f6c63430008090033",
  "linkReferences": {},
  "deployedLinkReferences": {}
}