{
  "_format": "hh-sol-artifact-1",
  "contractName": "MinterDALinV0",
  "sourceName": "contracts/minter-suite/MinterDALinV0.sol",
  "abi": [
    {
      "inputs": [
        {
          "internalType": "address",
          "name": "_genArt721Address",
          "type": "address"
        },
        {
          "internalType": "address",
          "name": "_minterFilter",
          "type": "address"
        }
      ],
      "stateMutability": "nonpayable",
      "type": "constructor"
    },
    {
      "anonymous": false,
      "inputs": [
        {
          "indexed": false,
          "internalType": "uint256",
          "name": "_minimumAuctionLengthSeconds",
          "type": "uint256"
        }
      ],
      "name": "MinimumAuctionLengthSecondsUpdated",
      "type": "event"
    },
    {
      "anonymous": false,
      "inputs": [
        {
          "indexed": true,
          "internalType": "uint256",
          "name": "_projectId",
          "type": "uint256"
        },
        {
          "indexed": true,
          "internalType": "uint256",
          "name": "_pricePerTokenInWei",
          "type": "uint256"
        }
      ],
      "name": "PricePerTokenInWeiUpdated",
      "type": "event"
    },
    {
      "anonymous": false,
      "inputs": [
        {
          "indexed": true,
          "internalType": "uint256",
          "name": "_projectId",
          "type": "uint256"
        },
        {
          "indexed": true,
          "internalType": "string",
          "name": "_currencySymbol",
          "type": "string"
        },
        {
          "indexed": true,
          "internalType": "address",
          "name": "_currencyAddress",
          "type": "address"
        }
      ],
      "name": "ProjectCurrencyInfoUpdated",
      "type": "event"
    },
    {
      "anonymous": false,
      "inputs": [
        {
          "indexed": true,
          "internalType": "uint256",
          "name": "_projectId",
          "type": "uint256"
        },
        {
          "indexed": false,
          "internalType": "bool",
          "name": "_purchaseToDisabled",
          "type": "bool"
        }
      ],
      "name": "PurchaseToDisabledUpdated",
      "type": "event"
    },
    {
      "anonymous": false,
      "inputs": [
        {
          "indexed": true,
          "internalType": "uint256",
          "name": "projectId",
          "type": "uint256"
        }
      ],
      "name": "ResetAuctionDetails",
      "type": "event"
    },
    {
      "anonymous": false,
      "inputs": [
        {
          "indexed": true,
          "internalType": "uint256",
          "name": "projectId",
          "type": "uint256"
        },
        {
          "indexed": false,
          "internalType": "uint256",
          "name": "_auctionTimestampStart",
          "type": "uint256"
        },
        {
          "indexed": false,
          "internalType": "uint256",
          "name": "_auctionTimestampEnd",
          "type": "uint256"
        },
        {
          "indexed": false,
          "internalType": "uint256",
          "name": "_startPrice",
          "type": "uint256"
        },
        {
          "indexed": false,
          "internalType": "uint256",
          "name": "_basePrice",
          "type": "uint256"
        }
      ],
      "name": "SetAuctionDetails",
      "type": "event"
    },
    {
      "inputs": [
        {
          "internalType": "uint256",
          "name": "",
          "type": "uint256"
        }
      ],
      "name": "contractMintable",
      "outputs": [
        {
          "internalType": "bool",
          "name": "",
          "type": "bool"
        }
      ],
      "stateMutability": "view",
      "type": "function"
    },
    {
      "inputs": [],
      "name": "genArtCoreContract",
      "outputs": [
        {
          "internalType": "contract IGenArt721CoreContractV1",
          "name": "",
          "type": "address"
        }
      ],
      "stateMutability": "view",
      "type": "function"
    },
    {
      "inputs": [
        {
          "internalType": "uint256",
          "name": "_projectId",
          "type": "uint256"
        }
      ],
      "name": "getPriceInfo",
      "outputs": [
        {
          "internalType": "bool",
          "name": "isConfigured",
          "type": "bool"
        },
        {
          "internalType": "uint256",
          "name": "tokenPriceInWei",
          "type": "uint256"
        },
        {
          "internalType": "string",
          "name": "currencySymbol",
          "type": "string"
        },
        {
          "internalType": "address",
          "name": "currencyAddress",
          "type": "address"
        }
      ],
      "stateMutability": "view",
      "type": "function"
    },
    {
      "inputs": [],
      "name": "minimumAuctionLengthSeconds",
      "outputs": [
        {
          "internalType": "uint256",
          "name": "",
          "type": "uint256"
        }
      ],
      "stateMutability": "view",
      "type": "function"
    },
    {
      "inputs": [],
      "name": "minterFilter",
      "outputs": [
        {
          "internalType": "contract IMinterFilterV0",
          "name": "",
          "type": "address"
        }
      ],
      "stateMutability": "view",
      "type": "function"
    },
    {
      "inputs": [],
      "name": "minterType",
      "outputs": [
        {
          "internalType": "string",
          "name": "",
          "type": "string"
        }
      ],
      "stateMutability": "view",
      "type": "function"
    },
    {
      "inputs": [
        {
          "internalType": "uint256",
          "name": "",
          "type": "uint256"
        }
      ],
      "name": "projectAuctionParameters",
      "outputs": [
        {
          "internalType": "uint256",
          "name": "timestampStart",
          "type": "uint256"
        },
        {
          "internalType": "uint256",
          "name": "timestampEnd",
          "type": "uint256"
        },
        {
          "internalType": "uint256",
          "name": "startPrice",
          "type": "uint256"
        },
        {
          "internalType": "uint256",
          "name": "basePrice",
          "type": "uint256"
        }
      ],
      "stateMutability": "view",
      "type": "function"
    },
    {
      "inputs": [
        {
          "internalType": "uint256",
          "name": "",
          "type": "uint256"
        }
      ],
      "name": "projectMaxHasBeenInvoked",
      "outputs": [
        {
          "internalType": "bool",
          "name": "",
          "type": "bool"
        }
      ],
      "stateMutability": "view",
      "type": "function"
    },
    {
      "inputs": [
        {
          "internalType": "uint256",
          "name": "",
          "type": "uint256"
        }
      ],
      "name": "projectMaxInvocations",
      "outputs": [
        {
          "internalType": "uint256",
          "name": "",
          "type": "uint256"
        }
      ],
      "stateMutability": "view",
      "type": "function"
    },
    {
      "inputs": [
        {
          "internalType": "address",
          "name": "",
          "type": "address"
        },
        {
          "internalType": "uint256",
          "name": "",
          "type": "uint256"
        }
      ],
      "name": "projectMintCounter",
      "outputs": [
        {
          "internalType": "uint256",
          "name": "",
          "type": "uint256"
        }
      ],
      "stateMutability": "view",
      "type": "function"
    },
    {
      "inputs": [
        {
          "internalType": "uint256",
          "name": "",
          "type": "uint256"
        }
      ],
      "name": "projectMintLimit",
      "outputs": [
        {
          "internalType": "uint256",
          "name": "",
          "type": "uint256"
        }
      ],
      "stateMutability": "view",
      "type": "function"
    },
    {
      "inputs": [
        {
          "internalType": "uint256",
          "name": "_projectId",
          "type": "uint256"
        }
      ],
      "name": "purchase",
      "outputs": [
        {
          "internalType": "uint256",
          "name": "tokenId",
          "type": "uint256"
        }
      ],
      "stateMutability": "payable",
      "type": "function"
    },
    {
      "inputs": [
        {
          "internalType": "address",
          "name": "_to",
          "type": "address"
        },
        {
          "internalType": "uint256",
          "name": "_projectId",
          "type": "uint256"
        }
      ],
      "name": "purchaseTo",
      "outputs": [
        {
          "internalType": "uint256",
          "name": "tokenId",
          "type": "uint256"
        }
      ],
      "stateMutability": "payable",
      "type": "function"
    },
    {
      "inputs": [
        {
          "internalType": "uint256",
          "name": "",
          "type": "uint256"
        }
      ],
      "name": "purchaseToDisabled",
      "outputs": [
        {
          "internalType": "bool",
          "name": "",
          "type": "bool"
        }
      ],
      "stateMutability": "view",
      "type": "function"
    },
    {
      "inputs": [
        {
          "internalType": "uint256",
          "name": "_projectId",
          "type": "uint256"
        }
      ],
      "name": "resetAuctionDetails",
      "outputs": [],
      "stateMutability": "nonpayable",
      "type": "function"
    },
    {
      "inputs": [
        {
          "internalType": "uint256",
          "name": "_projectId",
          "type": "uint256"
        },
        {
          "internalType": "uint256",
          "name": "_auctionTimestampStart",
          "type": "uint256"
        },
        {
          "internalType": "uint256",
          "name": "_auctionTimestampEnd",
          "type": "uint256"
        },
        {
          "internalType": "uint256",
          "name": "_startPrice",
          "type": "uint256"
        },
        {
          "internalType": "uint256",
          "name": "_basePrice",
          "type": "uint256"
        }
      ],
      "name": "setAuctionDetails",
      "outputs": [],
      "stateMutability": "nonpayable",
      "type": "function"
    },
    {
      "inputs": [
        {
          "internalType": "uint256",
          "name": "_minimumAuctionLengthSeconds",
          "type": "uint256"
        }
      ],
      "name": "setMinimumAuctionLengthSeconds",
      "outputs": [],
      "stateMutability": "nonpayable",
      "type": "function"
    },
    {
      "inputs": [
        {
          "internalType": "uint256",
          "name": "_projectId",
          "type": "uint256"
        }
      ],
      "name": "setProjectMaxInvocations",
      "outputs": [],
      "stateMutability": "nonpayable",
      "type": "function"
    },
    {
      "inputs": [
        {
          "internalType": "uint256",
          "name": "_projectId",
          "type": "uint256"
        },
        {
          "internalType": "uint8",
          "name": "_limit",
          "type": "uint8"
        }
      ],
      "name": "setProjectMintLimit",
      "outputs": [],
      "stateMutability": "nonpayable",
      "type": "function"
    },
    {
      "inputs": [
        {
          "internalType": "uint256",
          "name": "_projectId",
          "type": "uint256"
        }
      ],
      "name": "toggleContractMintable",
      "outputs": [],
      "stateMutability": "nonpayable",
      "type": "function"
    },
    {
      "inputs": [
        {
          "internalType": "uint256",
          "name": "_projectId",
          "type": "uint256"
        }
      ],
      "name": "togglePurchaseToDisabled",
      "outputs": [],
      "stateMutability": "nonpayable",
      "type": "function"
    }
  ],
  "bytecode": "0x60c0604052610e106007553480156200001757600080fd5b506040516200228f3803806200228f8339810160408190526200003a9162000152565b600160009081556001600160a01b03808416608081905290831660a0819052604080516392a10f8360e01b81529051929391926392a10f8392600480840193602093929083900390910190829087803b1580156200009757600080fd5b505af1158015620000ac573d6000803e3d6000fd5b505050506040513d601f19601f82011682018060405250810190620000d291906200018a565b6001600160a01b0316146200012d5760405162461bcd60e51b815260206004820152601860248201527f496c6c6567616c20636f6e74726163742070616972696e670000000000000000604482015260640160405180910390fd5b5050620001af565b80516001600160a01b03811681146200014d57600080fd5b919050565b600080604083850312156200016657600080fd5b620001718362000135565b9150620001816020840162000135565b90509250929050565b6000602082840312156200019d57600080fd5b620001a88262000135565b9392505050565b60805160a05161204a62000245600039600081816101410152610c2d01526000818161037f015281816104fa015281816105d3015281816106da015281816107cd01528181610d3a01528181610e1401528181610eb5015281816112960152818161135a0152818161161c015281816116cc0152818161180c015281816118c40152818161197c0152611ac9015261204a6000f3fe60806040526004361061012a5760003560e01c8063774159c6116100ab578063bee560031161006f578063bee56003146103ea578063cd379f6e1461041a578063cfff5cf11461043a578063e9d1e8ac1461046a578063efef39a1146104b0578063f7bd4b88146104c357600080fd5b8063774159c61461033d5780637f38902b1461036d578063891407c0146103a1578063acffea05146103b4578063b2d30ac7146103d457600080fd5b80633a4657b4116100f25780633a4657b41461023d57806340d1397e14610283578063462add46146102a357806356690aaf146102e357806362f7a7ed1461031057600080fd5b806308d941881461012f578063231c2281146101795780632aedc28e1461019b5780632f077ee6146101bb5780632fc37ef11461021d575b600080fd5b34801561013b57600080fd5b506101637f000000000000000000000000000000000000000000000000000000000000000081565b6040516101709190611bef565b60405180910390f35b34801561018557600080fd5b50610199610194366004611c03565b6104e3565b005b3480156101a757600080fd5b506101996101b6366004611c39565b6105bc565b3480156101c757600080fd5b506101fd6101d6366004611c39565b60086020526000908152604090208054600182015460028301546003909301549192909184565b604080519485526020850193909352918301526060820152608001610170565b34801561022957600080fd5b50610199610238366004611c39565b6106c3565b34801561024957600080fd5b50610275610258366004611c6a565b600360209081526000928352604080842090915290825290205481565b604051908152602001610170565b34801561028f57600080fd5b5061019961029e366004611c39565b6107b6565b3480156102af57600080fd5b506102d36102be366004611c39565b60056020526000908152604090205460ff1681565b6040519015158152602001610170565b3480156102ef57600080fd5b506102756102fe366004611c39565b60066020526000908152604090205481565b34801561031c57600080fd5b5061027561032b366004611c39565b60046020526000908152604090205481565b34801561034957600080fd5b5061035d610358366004611c39565b6108cb565b6040516101709493929190611cf2565b34801561037957600080fd5b506101637f000000000000000000000000000000000000000000000000000000000000000081565b6102756103af366004611c6a565b610971565b3480156103c057600080fd5b506101996103cf366004611c39565b610d23565b3480156103e057600080fd5b5061027560075481565b3480156103f657600080fd5b506102d3610405366004611c39565b60016020526000908152604090205460ff1681565b34801561042657600080fd5b50610199610435366004611d2c565b610dfb565b34801561044657600080fd5b506102d3610455366004611c39565b60026020526000908152604090205460ff1681565b34801561047657600080fd5b506104a36040518060400160405280600d81526020016c04d696e74657244414c696e563609c1b81525081565b6040516101709190611d67565b6102756104be366004611c39565b61126d565b3480156104cf57600080fd5b506101996104de366004611c39565b61127f565b604051633af32abf60e01b81526001600160a01b037f00000000000000000000000000000000000000000000000000000000000000001690633af32abf9061052f903390600401611bef565b60206040518083038186803b15801561054757600080fd5b505afa15801561055b573d6000803e3d6000fd5b505050506040513d601f19601f8201168201806040525081019061057f9190611d96565b6105a45760405162461bcd60e51b815260040161059b90611db1565b60405180910390fd5b60009182526004602052604090912060ff9091169055565b604051633af32abf60e01b81526001600160a01b037f00000000000000000000000000000000000000000000000000000000000000001690633af32abf90610608903390600401611bef565b60206040518083038186803b15801561062057600080fd5b505afa158015610634573d6000803e3d6000fd5b505050506040513d601f19601f820116820180604052508101906106589190611d96565b6106745760405162461bcd60e51b815260040161059b90611db1565b60008181526008602052604080822082815560018101839055600281018390556003018290555182917f2de6b284414d2e6b72bcc8d8d4de934e3f6410660a8f677c5c978f17f9cc2a9291a250565b604051633af32abf60e01b81526001600160a01b037f00000000000000000000000000000000000000000000000000000000000000001690633af32abf9061070f903390600401611bef565b60206040518083038186803b15801561072757600080fd5b505afa15801561073b573d6000803e3d6000fd5b505050506040513d601f19601f8201168201806040525081019061075f9190611d96565b61077b5760405162461bcd60e51b815260040161059b90611db1565b60078190556040518181527f03c81e81b0ed0ca5444a9d70c9f3d1c78d79d6a31419f77736e886d092ed1a9e9060200160405180910390a150565b604051633af32abf60e01b81526001600160a01b037f00000000000000000000000000000000000000000000000000000000000000001690633af32abf90610802903390600401611bef565b60206040518083038186803b15801561081a57600080fd5b505afa15801561082e573d6000803e3d6000fd5b505050506040513d601f19601f820116820180604052508101906108529190611d96565b61086e5760405162461bcd60e51b815260040161059b90611db1565b600081815260026020908152604091829020805460ff8082161560ff199092168217909255925192161515825282917fce8ced1e9d6979c7589d3c8786f4d51a8034faa5ff2cbc5a2271364f787feccb910160405180910390a250565b6000818152600860209081526040808320815160808101835281548082526001830154948201949094526002820154928101839052600390910154606082810191909152911515939283919042116109295780604001519350610947565b602081015161093b5760009350610947565b61094486611419565b93505b6040518060400160405280600381526020016208aa8960eb1b815250925060009150509193509193565b6000600260005414156109c65760405162461bcd60e51b815260206004820152601f60248201527f5265656e7472616e637947756172643a207265656e7472616e742063616c6c00604482015260640161059b565b600260009081558281526005602052604090205460ff1615610a385760405162461bcd60e51b815260206004820152602560248201527f4d6178696d756d206e756d626572206f6620696e766f636174696f6e732072656044820152641858da195960da1b606482015260840161059b565b60008281526001602052604090205460ff16610a9057333214610a905760405162461bcd60e51b815260206004820152601060248201526f4e6f20436f6e7472616374204275797360801b604482015260640161059b565b60008281526002602052604090205460ff1615610af957336001600160a01b03841614610af95760405162461bcd60e51b8152602060048201526017602482015276139bc8181c1d5c98da185cd9551bd808105b1b1bddd959604a1b604482015260640161059b565b6000610b0483611419565b905080341015610b565760405162461bcd60e51b815260206004820181905260248201527f4d7573742073656e64206d696e696d756d2076616c756520746f206d696e7421604482015260640161059b565b60008381526004602052604090205415610c0157600083815260046020908152604080832054338452600383528184208785529092529091205410610bd55760405162461bcd60e51b815260206004820152601560248201527414995858da1959081b5a5b9d1a5b99c81b1a5b5a5d605a1b604482015260640161059b565b3360009081526003602090815260408083208684529091528120805491610bfb83611df6565b91905055505b604051630d4d151360e01b81526001600160a01b038581166004830152602482018590523360448301527f00000000000000000000000000000000000000000000000000000000000000001690630d4d151390606401602060405180830381600087803b158015610c7157600080fd5b505af1158015610c85573d6000803e3d6000fd5b505050506040513d601f19601f82011682018060405250810190610ca99190611e11565b60008481526006602052604090205490925015801590610cee5750600083815260066020526040902054610cdf90600190611e2a565b610cec620f424084611e57565b145b15610d0d576000838152600560205260409020805460ff191660011790555b610d178382611574565b50600160005592915050565b604051633af32abf60e01b81526001600160a01b037f00000000000000000000000000000000000000000000000000000000000000001690633af32abf90610d6f903390600401611bef565b60206040518083038186803b158015610d8757600080fd5b505afa158015610d9b573d6000803e3d6000fd5b505050506040513d601f19601f82011682018060405250810190610dbf9190611d96565b610ddb5760405162461bcd60e51b815260040161059b90611db1565b6000908152600160205260409020805460ff19811660ff90911615179055565b604051633af32abf60e01b815285906001600160a01b037f00000000000000000000000000000000000000000000000000000000000000001690633af32abf90610e49903390600401611bef565b60206040518083038186803b158015610e6157600080fd5b505afa158015610e75573d6000803e3d6000fd5b505050506040513d601f19601f82011682018060405250810190610e999190611d96565b80610f4c575060405163a47d29cb60e01b8152600481018290527f00000000000000000000000000000000000000000000000000000000000000006001600160a01b03169063a47d29cb9060240160206040518083038186803b158015610eff57600080fd5b505afa158015610f13573d6000803e3d6000fd5b505050506040513d601f19601f82011682018060405250810190610f379190611e6b565b6001600160a01b0316336001600160a01b0316145b610f985760405162461bcd60e51b815260206004820152601f60248201527f4f6e6c7920436f72652077686974656c6973746564206f722041727469737400604482015260640161059b565b600086815260086020908152604091829020825160808101845281548082526001830154938201939093526002820154938101939093526003015460608301521580610fe45750805142105b6110305760405162461bcd60e51b815260206004820152601c60248201527f4e6f206d6f64696669636174696f6e73206d69642d61756374696f6e00000000604482015260640161059b565b8542106110765760405162461bcd60e51b81526020600482015260146024820152734f6e6c79206675747572652061756374696f6e7360601b604482015260640161059b565b8585116110dc5760405162461bcd60e51b815260206004820152602e60248201527f41756374696f6e20656e64206d7573742062652067726561746572207468616e60448201526d08185d58dd1a5bdb881cdd185c9d60921b606482015260840161059b565b6007546110e99087611e88565b85101561115e5760405162461bcd60e51b815260206004820152603b60248201527f41756374696f6e206c656e677468206d757374206265206174206c656173742060448201527f6d696e696d756d41756374696f6e4c656e6774685365636f6e64730000000000606482015260840161059b565b8284116111d35760405162461bcd60e51b815260206004820152603a60248201527f41756374696f6e207374617274207072696365206d757374206265206772656160448201527f746572207468616e2061756374696f6e20656e64207072696365000000000000606482015260840161059b565b6040805160808082018352888252602080830189815283850189815260608086018a815260008f815260088652889020965187559251600187015590516002860155905160039094019390935583518a815290810189905292830187905290820185905288917f38b3058b75696f9e45bffa9c4b237adcde13d74c7bc1bea63e13c712d0776c74910160405180910390a250505050505050565b60006112793383610971565b92915050565b604051633af32abf60e01b81526001600160a01b037f00000000000000000000000000000000000000000000000000000000000000001690633af32abf906112cb903390600401611bef565b60206040518083038186803b1580156112e357600080fd5b505afa1580156112f7573d6000803e3d6000fd5b505050506040513d601f19601f8201168201806040525081019061131b9190611d96565b6113375760405162461bcd60e51b815260040161059b90611db1565b6040516346161b1160e11b81526004810182905260009081906001600160a01b037f00000000000000000000000000000000000000000000000000000000000000001690638c2c36229060240160006040518083038186803b15801561139c57600080fd5b505afa1580156113b0573d6000803e3d6000fd5b505050506040513d6000823e601f3d908101601f191682016040526113d89190810190611ec1565b505050600089815260066020526040902083905550919550935050505080821015611414576000838152600560205260409020805460ff191690555b505050565b6000818152600860209081526040808320815160808101835281548082526001830154948201949094526002820154928101929092526003015460608201529042116114a15760405162461bcd60e51b8152602060048201526017602482015276105d58dd1a5bdb881b9bdd081e595d081cdd185c9d1959604a1b604482015260640161059b565b806020015142106115055760008160200151116114fb5760405162461bcd60e51b81526020600482015260186024820152774f6e6c7920636f6e666967757265642061756374696f6e7360401b604482015260640161059b565b6060015192915050565b80516000906115149042611e2a565b905060008260000151836020015161152c9190611e2a565b90506000836060015184604001516115449190611e2a565b9050816115518285611fe1565b61155b9190612000565b846040015161156a9190611e2a565b9695505050505050565b3415611beb5760006115868234611e2a565b9050801561161857604051600090339083908381818185875af1925050503d80600081146115d0576040519150601f19603f3d011682016040523d82523d6000602084013e6115d5565b606091505b50509050806116165760405162461bcd60e51b815260206004820152600d60248201526c1499599d5b990819985a5b1959609a1b604482015260640161059b565b505b60007f00000000000000000000000000000000000000000000000000000000000000006001600160a01b0316634f029c396040518163ffffffff1660e01b815260040160206040518083038186803b15801561167357600080fd5b505afa158015611687573d6000803e3d6000fd5b505050506040513d601f19601f820116820180604052508101906116ab9190611e11565b6116b6606485612000565b6116c09190611fe1565b905080156117f95760007f00000000000000000000000000000000000000000000000000000000000000006001600160a01b0316633949f9066040518163ffffffff1660e01b815260040160206040518083038186803b15801561172357600080fd5b505afa158015611737573d6000803e3d6000fd5b505050506040513d601f19601f8201168201806040525081019061175b9190611e6b565b6001600160a01b03168260405160006040518083038185875af1925050503d80600081146117a5576040519150601f19603f3d011682016040523d82523d6000602084013e6117aa565b606091505b50509050806117f75760405162461bcd60e51b8152602060048201526019602482015278119bdd5b99185d1a5bdb881c185e5b595b9d0819985a5b1959603a1b604482015260640161059b565b505b60006118058285611e2a565b90506000807f00000000000000000000000000000000000000000000000000000000000000006001600160a01b031663cc74234b886040518263ffffffff1660e01b815260040161185891815260200190565b60206040518083038186803b15801561187057600080fd5b505afa158015611884573d6000803e3d6000fd5b505050506040513d601f19601f820116820180604052508101906118a89190611e11565b1115611a9c5760405163cc74234b60e01b8152600481018790527f00000000000000000000000000000000000000000000000000000000000000006001600160a01b03169063cc74234b9060240160206040518083038186803b15801561190e57600080fd5b505afa158015611922573d6000803e3d6000fd5b505050506040513d601f19601f820116820180604052508101906119469190611e11565b611951606484612000565b61195b9190611fe1565b90508015611a9c57604051636bd8225b60e11b8152600481018790526000907f00000000000000000000000000000000000000000000000000000000000000006001600160a01b03169063d7b044b69060240160206040518083038186803b1580156119c657600080fd5b505afa1580156119da573d6000803e3d6000fd5b505050506040513d601f19601f820116820180604052508101906119fe9190611e6b565b6001600160a01b03168260405160006040518083038185875af1925050503d8060008114611a48576040519150601f19603f3d011682016040523d82523d6000602084013e611a4d565b606091505b5050905080611a9a5760405162461bcd60e51b81526020600482015260196024820152781059191a5d1a5bdb985b081c185e5b595b9d0819985a5b1959603a1b604482015260640161059b565b505b6000611aa88284611e2a565b90508015611be55760405163a47d29cb60e01b8152600481018890526000907f00000000000000000000000000000000000000000000000000000000000000006001600160a01b03169063a47d29cb9060240160206040518083038186803b158015611b1357600080fd5b505afa158015611b27573d6000803e3d6000fd5b505050506040513d601f19601f82011682018060405250810190611b4b9190611e6b565b6001600160a01b03168260405160006040518083038185875af1925050503d8060008114611b95576040519150601f19603f3d011682016040523d82523d6000602084013e611b9a565b606091505b5050905080611be35760405162461bcd60e51b8152602060048201526015602482015274105c9d1a5cdd081c185e5b595b9d0819985a5b1959605a1b604482015260640161059b565b505b50505050505b5050565b6001600160a01b0391909116815260200190565b60008060408385031215611c1657600080fd5b82359150602083013560ff81168114611c2e57600080fd5b809150509250929050565b600060208284031215611c4b57600080fd5b5035919050565b6001600160a01b0381168114611c6757600080fd5b50565b60008060408385031215611c7d57600080fd5b8235611c8881611c52565b946020939093013593505050565b60005b83811015611cb1578181015183820152602001611c99565b83811115611cc0576000848401525b50505050565b60008151808452611cde816020860160208601611c96565b601f01601f19169290920160200192915050565b8415158152836020820152608060408201526000611d136080830185611cc6565b905060018060a01b038316606083015295945050505050565b600080600080600060a08688031215611d4457600080fd5b505083359560208501359550604085013594606081013594506080013592509050565b602081526000611d7a6020830184611cc6565b9392505050565b80518015158114611d9157600080fd5b919050565b600060208284031215611da857600080fd5b611d7a82611d81565b60208082526015908201527413db9b1e4810dbdc99481dda1a5d195b1a5cdd1959605a1b604082015260600190565b634e487b7160e01b600052601160045260246000fd5b6000600019821415611e0a57611e0a611de0565b5060010190565b600060208284031215611e2357600080fd5b5051919050565b600082821015611e3c57611e3c611de0565b500390565b634e487b7160e01b600052601260045260246000fd5b600082611e6657611e66611e41565b500690565b600060208284031215611e7d57600080fd5b8151611d7a81611c52565b60008219821115611e9b57611e9b611de0565b500190565b8051611d9181611c52565b634e487b7160e01b600052604160045260246000fd5b60008060008060008060008060006101208a8c031215611ee057600080fd5b8951611eeb81611c52565b8099505060208a0151975060408a0151965060608a01519550611f1060808b01611d81565b945060a08a0151611f2081611c52565b60c08b015160e08c0151919550935067ffffffffffffffff80821115611f4557600080fd5b818c0191508c601f830112611f5957600080fd5b815181811115611f6b57611f6b611eab565b604051601f8201601f19908116603f01168101908382118183101715611f9357611f93611eab565b816040528281528f6020848701011115611fac57600080fd5b611fbd836020830160208801611c96565b8096505050505050611fd26101008b01611ea0565b90509295985092959850929598565b6000816000190483118215151615611ffb57611ffb611de0565b500290565b60008261200f5761200f611e41565b50049056fea26469706673582212201074ec8caa091a65eec434e9a12287f01179d030c26df80ba1ca552df27a0d0c64736f6c63430008090033",
  "linkReferences": {},
  "deployedLinkReferences": {}
}