{
  "_format": "hh-sol-artifact-1",
  "contractName": "MinterDAExpV1",
  "sourceName": "contracts/minter-suite/MinterDAExpV1.sol",
  "abi": [
    {
      "inputs": [
        {
          "internalType": "address",
          "name": "_genArt721Address",
          "type": "address"
        },
        {
          "internalType": "address",
          "name": "_minterFilter",
          "type": "address"
        }
      ],
      "stateMutability": "nonpayable",
      "type": "constructor"
    },
    {
      "anonymous": false,
      "inputs": [
        {
          "indexed": false,
          "internalType": "uint256",
          "name": "_minimumPriceDecayHalfLifeSeconds",
          "type": "uint256"
        },
        {
          "indexed": false,
          "internalType": "uint256",
          "name": "_maximumPriceDecayHalfLifeSeconds",
          "type": "uint256"
        }
      ],
      "name": "AuctionHalfLifeRangeSecondsUpdated",
      "type": "event"
    },
    {
      "anonymous": false,
      "inputs": [
        {
          "indexed": true,
          "internalType": "uint256",
          "name": "_projectId",
          "type": "uint256"
        },
        {
          "indexed": true,
          "internalType": "uint256",
          "name": "_pricePerTokenInWei",
          "type": "uint256"
        }
      ],
      "name": "PricePerTokenInWeiUpdated",
      "type": "event"
    },
    {
      "anonymous": false,
      "inputs": [
        {
          "indexed": true,
          "internalType": "uint256",
          "name": "_projectId",
          "type": "uint256"
        },
        {
          "indexed": true,
          "internalType": "address",
          "name": "_currencyAddress",
          "type": "address"
        },
        {
          "indexed": false,
          "internalType": "string",
          "name": "_currencySymbol",
          "type": "string"
        }
      ],
      "name": "ProjectCurrencyInfoUpdated",
      "type": "event"
    },
    {
      "anonymous": false,
      "inputs": [
        {
          "indexed": true,
          "internalType": "uint256",
          "name": "_projectId",
          "type": "uint256"
        },
        {
          "indexed": false,
          "internalType": "bool",
          "name": "_purchaseToDisabled",
          "type": "bool"
        }
      ],
      "name": "PurchaseToDisabledUpdated",
      "type": "event"
    },
    {
      "anonymous": false,
      "inputs": [
        {
          "indexed": true,
          "internalType": "uint256",
          "name": "projectId",
          "type": "uint256"
        }
      ],
      "name": "ResetAuctionDetails",
      "type": "event"
    },
    {
      "anonymous": false,
      "inputs": [
        {
          "indexed": true,
          "internalType": "uint256",
          "name": "projectId",
          "type": "uint256"
        },
        {
          "indexed": false,
          "internalType": "uint256",
          "name": "_auctionTimestampStart",
          "type": "uint256"
        },
        {
          "indexed": false,
          "internalType": "uint256",
          "name": "_priceDecayHalfLifeSeconds",
          "type": "uint256"
        },
        {
          "indexed": false,
          "internalType": "uint256",
          "name": "_startPrice",
          "type": "uint256"
        },
        {
          "indexed": false,
          "internalType": "uint256",
          "name": "_basePrice",
          "type": "uint256"
        }
      ],
      "name": "SetAuctionDetails",
      "type": "event"
    },
    {
      "inputs": [],
      "name": "genArt721CoreAddress",
      "outputs": [
        {
          "internalType": "address",
          "name": "",
          "type": "address"
        }
      ],
      "stateMutability": "view",
      "type": "function"
    },
    {
      "inputs": [
        {
          "internalType": "uint256",
          "name": "_projectId",
          "type": "uint256"
        }
      ],
      "name": "getPriceInfo",
      "outputs": [
        {
          "internalType": "bool",
          "name": "isConfigured",
          "type": "bool"
        },
        {
          "internalType": "uint256",
          "name": "tokenPriceInWei",
          "type": "uint256"
        },
        {
          "internalType": "string",
          "name": "currencySymbol",
          "type": "string"
        },
        {
          "internalType": "address",
          "name": "currencyAddress",
          "type": "address"
        }
      ],
      "stateMutability": "view",
      "type": "function"
    },
    {
      "inputs": [],
      "name": "maximumPriceDecayHalfLifeSeconds",
      "outputs": [
        {
          "internalType": "uint256",
          "name": "",
          "type": "uint256"
        }
      ],
      "stateMutability": "view",
      "type": "function"
    },
    {
      "inputs": [],
      "name": "minimumPriceDecayHalfLifeSeconds",
      "outputs": [
        {
          "internalType": "uint256",
          "name": "",
          "type": "uint256"
        }
      ],
      "stateMutability": "view",
      "type": "function"
    },
    {
      "inputs": [],
      "name": "minterFilterAddress",
      "outputs": [
        {
          "internalType": "address",
          "name": "",
          "type": "address"
        }
      ],
      "stateMutability": "view",
      "type": "function"
    },
    {
      "inputs": [],
      "name": "minterType",
      "outputs": [
        {
          "internalType": "string",
          "name": "",
          "type": "string"
        }
      ],
      "stateMutability": "view",
      "type": "function"
    },
    {
      "inputs": [
        {
          "internalType": "uint256",
          "name": "",
          "type": "uint256"
        }
      ],
      "name": "projectAuctionParameters",
      "outputs": [
        {
          "internalType": "uint256",
          "name": "timestampStart",
          "type": "uint256"
        },
        {
          "internalType": "uint256",
          "name": "priceDecayHalfLifeSeconds",
          "type": "uint256"
        },
        {
          "internalType": "uint256",
          "name": "startPrice",
          "type": "uint256"
        },
        {
          "internalType": "uint256",
          "name": "basePrice",
          "type": "uint256"
        }
      ],
      "stateMutability": "view",
      "type": "function"
    },
    {
      "inputs": [
        {
          "internalType": "uint256",
          "name": "",
          "type": "uint256"
        }
      ],
      "name": "projectMaxHasBeenInvoked",
      "outputs": [
        {
          "internalType": "bool",
          "name": "",
          "type": "bool"
        }
      ],
      "stateMutability": "view",
      "type": "function"
    },
    {
      "inputs": [
        {
          "internalType": "uint256",
          "name": "",
          "type": "uint256"
        }
      ],
      "name": "projectMaxInvocations",
      "outputs": [
        {
          "internalType": "uint256",
          "name": "",
          "type": "uint256"
        }
      ],
      "stateMutability": "view",
      "type": "function"
    },
    {
      "inputs": [
        {
          "internalType": "address",
          "name": "",
          "type": "address"
        },
        {
          "internalType": "uint256",
          "name": "",
          "type": "uint256"
        }
      ],
      "name": "projectMintCounter",
      "outputs": [
        {
          "internalType": "uint256",
          "name": "",
          "type": "uint256"
        }
      ],
      "stateMutability": "view",
      "type": "function"
    },
    {
      "inputs": [
        {
          "internalType": "uint256",
          "name": "",
          "type": "uint256"
        }
      ],
      "name": "projectMintLimit",
      "outputs": [
        {
          "internalType": "uint256",
          "name": "",
          "type": "uint256"
        }
      ],
      "stateMutability": "view",
      "type": "function"
    },
    {
      "inputs": [
        {
          "internalType": "uint256",
          "name": "_projectId",
          "type": "uint256"
        }
      ],
      "name": "purchase",
      "outputs": [
        {
          "internalType": "uint256",
          "name": "tokenId",
          "type": "uint256"
        }
      ],
      "stateMutability": "payable",
      "type": "function"
    },
    {
      "inputs": [
        {
          "internalType": "address",
          "name": "_to",
          "type": "address"
        },
        {
          "internalType": "uint256",
          "name": "_projectId",
          "type": "uint256"
        }
      ],
      "name": "purchaseTo",
      "outputs": [
        {
          "internalType": "uint256",
          "name": "tokenId",
          "type": "uint256"
        }
      ],
      "stateMutability": "payable",
      "type": "function"
    },
    {
      "inputs": [
        {
          "internalType": "uint256",
          "name": "_projectId",
          "type": "uint256"
        }
      ],
      "name": "resetAuctionDetails",
      "outputs": [],
      "stateMutability": "nonpayable",
      "type": "function"
    },
    {
      "inputs": [
        {
          "internalType": "uint256",
          "name": "_minimumPriceDecayHalfLifeSeconds",
          "type": "uint256"
        },
        {
          "internalType": "uint256",
          "name": "_maximumPriceDecayHalfLifeSeconds",
          "type": "uint256"
        }
      ],
      "name": "setAllowablePriceDecayHalfLifeRangeSeconds",
      "outputs": [],
      "stateMutability": "nonpayable",
      "type": "function"
    },
    {
      "inputs": [
        {
          "internalType": "uint256",
          "name": "_projectId",
          "type": "uint256"
        },
        {
          "internalType": "uint256",
          "name": "_auctionTimestampStart",
          "type": "uint256"
        },
        {
          "internalType": "uint256",
          "name": "_priceDecayHalfLifeSeconds",
          "type": "uint256"
        },
        {
          "internalType": "uint256",
          "name": "_startPrice",
          "type": "uint256"
        },
        {
          "internalType": "uint256",
          "name": "_basePrice",
          "type": "uint256"
        }
      ],
      "name": "setAuctionDetails",
      "outputs": [],
      "stateMutability": "nonpayable",
      "type": "function"
    },
    {
      "inputs": [
        {
          "internalType": "uint256",
          "name": "_projectId",
          "type": "uint256"
        }
      ],
      "name": "setProjectMaxInvocations",
      "outputs": [],
      "stateMutability": "nonpayable",
      "type": "function"
    },
    {
      "inputs": [
        {
          "internalType": "uint256",
          "name": "_projectId",
          "type": "uint256"
        },
        {
          "internalType": "uint8",
          "name": "_limit",
          "type": "uint8"
        }
      ],
      "name": "setProjectMintLimit",
      "outputs": [],
      "stateMutability": "nonpayable",
      "type": "function"
    },
    {
      "inputs": [
        {
          "internalType": "uint256",
          "name": "_projectId",
          "type": "uint256"
        }
      ],
      "name": "togglePurchaseToDisabled",
      "outputs": [],
      "stateMutability": "view",
      "type": "function"
    }
  ],
  "bytecode": "0x61010060405261012c600555610e106006553480156200001e57600080fd5b506040516200202e3803806200202e833981016040819052620000419162000163565b600160009081556001600160a01b03808416608081905260a081905290831660c081905260e0819052604080516392a10f8360e01b81529051929391926392a10f8392600480840193602093929083900390910190829087803b158015620000a857600080fd5b505af1158015620000bd573d6000803e3d6000fd5b505050506040513d601f19601f82011682018060405250810190620000e391906200019b565b6001600160a01b0316146200013e5760405162461bcd60e51b815260206004820152601860248201527f496c6c6567616c20636f6e74726163742070616972696e670000000000000000604482015260640160405180910390fd5b5050620001c0565b80516001600160a01b03811681146200015e57600080fd5b919050565b600080604083850312156200017757600080fd5b620001828362000146565b9150620001926020840162000146565b90509250929050565b600060208284031215620001ae57600080fd5b620001b98262000146565b9392505050565b60805160a05160c05160e051611de06200024e60003960006109d9015260006103b40152600081816104660152818161053f0152818161064701528181610ae601528181610c9c01528181610ff8015281816110bc0152818161138201528181611431015281816115710152818161162c015281816116e301526118300152600061031d0152611de06000f3fe6080604052600436106101045760003560e01c8063774159c6116100a0578063cf6681ea11610064578063cf6681ea1461038c578063dd85582f146103a2578063e9d1e8ac146103d6578063efef39a11461041c578063f7bd4b881461042f57600080fd5b8063774159c6146102c8578063891407c0146102f857806392a10f831461030b578063c0ad212e1461034c578063cd379f6e1461036c57600080fd5b8063231c2281146101095780632aedc28e1461012b5780632f077ee61461014b5780633a4657b4146101b257806340d1397e146101f8578063462add461461021857806356690aaf146102585780635bc1470f1461028557806362f7a7ed1461029b575b600080fd5b34801561011557600080fd5b50610129610124366004611956565b61044f565b005b34801561013757600080fd5b5061012961014636600461198c565b610528565b34801561015757600080fd5b5061018d61016636600461198c565b60076020526000908152604090208054600182015460028301546003909301549192909184565b6040805194855260208501939093529183015260608201526080015b60405180910390f35b3480156101be57600080fd5b506101ea6101cd3660046119bd565b600160209081526000928352604080842090915290825290205481565b6040519081526020016101a9565b34801561020457600080fd5b5061012961021336600461198c565b61062f565b34801561022457600080fd5b5061024861023336600461198c565b60036020526000908152604090205460ff1681565b60405190151581526020016101a9565b34801561026457600080fd5b506101ea61027336600461198c565b60046020526000908152604090205481565b34801561029157600080fd5b506101ea60065481565b3480156102a757600080fd5b506101ea6102b636600461198c565b60026020526000908152604090205481565b3480156102d457600080fd5b506102e86102e336600461198c565b610738565b6040516101a99493929190611a45565b6101ea6103063660046119bd565b6107de565b34801561031757600080fd5b5061033f7f000000000000000000000000000000000000000000000000000000000000000081565b6040516101a99190611a7f565b34801561035857600080fd5b50610129610367366004611a93565b610acf565b34801561037857600080fd5b50610129610387366004611ab5565b610c84565b34801561039857600080fd5b506101ea60055481565b3480156103ae57600080fd5b5061033f7f000000000000000000000000000000000000000000000000000000000000000081565b3480156103e257600080fd5b5061040f6040518060400160405280600d81526020016c4d696e7465724441457870563160981b81525081565b6040516101a99190611af0565b6101ea61042a36600461198c565b610fcf565b34801561043b57600080fd5b5061012961044a36600461198c565b610fe1565b604051633af32abf60e01b81526001600160a01b037f00000000000000000000000000000000000000000000000000000000000000001690633af32abf9061049b903390600401611a7f565b60206040518083038186803b1580156104b357600080fd5b505afa1580156104c7573d6000803e3d6000fd5b505050506040513d601f19601f820116820180604052508101906104eb9190611b1f565b6105105760405162461bcd60e51b815260040161050790611b3a565b60405180910390fd5b60009182526002602052604090912060ff9091169055565b604051633af32abf60e01b81526001600160a01b037f00000000000000000000000000000000000000000000000000000000000000001690633af32abf90610574903390600401611a7f565b60206040518083038186803b15801561058c57600080fd5b505afa1580156105a0573d6000803e3d6000fd5b505050506040513d601f19601f820116820180604052508101906105c49190611b1f565b6105e05760405162461bcd60e51b815260040161050790611b3a565b60008181526007602052604080822082815560018101839055600281018390556003018290555182917f2de6b284414d2e6b72bcc8d8d4de934e3f6410660a8f677c5c978f17f9cc2a9291a250565b60405163a47d29cb60e01b81526004810182905281907f00000000000000000000000000000000000000000000000000000000000000006001600160a01b03169063a47d29cb9060240160206040518083038186803b15801561069157600080fd5b505afa1580156106a5573d6000803e3d6000fd5b505050506040513d601f19601f820116820180604052508101906106c99190611b69565b6001600160a01b0316336001600160a01b0316146106f95760405162461bcd60e51b815260040161050790611b86565b60405162461bcd60e51b81526020600482015260146024820152731058dd1a5bdb881b9bdd081cdd5c1c1bdc9d195960621b6044820152606401610507565b60008181526007602090815260408083208151608081018352815480825260018301549482019490945260028201549281018390526003909101546060828101919091529115159392839190421161079657806040015193506107b4565b60408101516107a857600093506107b4565b6107b18661117b565b93505b6040518060400160405280600381526020016208aa8960eb1b815250925060009150509193509193565b6000600260005414156108335760405162461bcd60e51b815260206004820152601f60248201527f5265656e7472616e637947756172643a207265656e7472616e742063616c6c006044820152606401610507565b600260009081558281526003602052604090205460ff16156108a55760405162461bcd60e51b815260206004820152602560248201527f4d6178696d756d206e756d626572206f6620696e766f636174696f6e732072656044820152641858da195960da1b6064820152608401610507565b60006108b08361117b565b9050803410156109025760405162461bcd60e51b815260206004820181905260248201527f4d7573742073656e64206d696e696d756d2076616c756520746f206d696e74216044820152606401610507565b600083815260026020526040902054156109ad576000838152600260209081526040808320543384526001835281842087855290925290912054106109815760405162461bcd60e51b815260206004820152601560248201527414995858da1959081b5a5b9d1a5b99c81b1a5b5a5d605a1b6044820152606401610507565b33600090815260016020908152604080832086845290915281208054916109a783611bc1565b91905055505b604051630d4d151360e01b81526001600160a01b038581166004830152602482018590523360448301527f00000000000000000000000000000000000000000000000000000000000000001690630d4d151390606401602060405180830381600087803b158015610a1d57600080fd5b505af1158015610a31573d6000803e3d6000fd5b505050506040513d601f19601f82011682018060405250810190610a559190611bdc565b60008481526004602052604090205490925015801590610a9a5750600083815260046020526040902054610a8b90600190611bf5565b610a98620f424084611c22565b145b15610ab9576000838152600360205260409020805460ff191660011790555b610ac383826112d8565b50600160005592915050565b604051633af32abf60e01b81526001600160a01b037f00000000000000000000000000000000000000000000000000000000000000001690633af32abf90610b1b903390600401611a7f565b60206040518083038186803b158015610b3357600080fd5b505afa158015610b47573d6000803e3d6000fd5b505050506040513d601f19601f82011682018060405250810190610b6b9190611b1f565b610b875760405162461bcd60e51b815260040161050790611b3a565b818111610bed5760405162461bcd60e51b815260206004820152602e60248201527f4d6178696d756d2068616c66206c696665206d7573742062652067726561746560448201526d72207468616e206d696e696d756d60901b6064820152608401610507565b60008211610c3d5760405162461bcd60e51b815260206004820152601d60248201527f48616c66206c696665206f66207a65726f206e6f7420616c6c6f7765640000006044820152606401610507565b6005829055600681905560408051838152602081018390527f1d5d9c9b660aace5432c6c7412456d0ad1b5ff4c6ea156a8c551ba93555ed73f910160405180910390a15050565b60405163a47d29cb60e01b81526004810186905285907f00000000000000000000000000000000000000000000000000000000000000006001600160a01b03169063a47d29cb9060240160206040518083038186803b158015610ce657600080fd5b505afa158015610cfa573d6000803e3d6000fd5b505050506040513d601f19601f82011682018060405250810190610d1e9190611b69565b6001600160a01b0316336001600160a01b031614610d4e5760405162461bcd60e51b815260040161050790611b86565b600086815260076020908152604091829020825160808101845281548082526001830154938201939093526002820154938101939093526003015460608301521580610d9a5750805142105b610de65760405162461bcd60e51b815260206004820152601c60248201527f4e6f206d6f64696669636174696f6e73206d69642d61756374696f6e000000006044820152606401610507565b854210610e2c5760405162461bcd60e51b81526020600482015260146024820152734f6e6c79206675747572652061756374696f6e7360601b6044820152606401610507565b828411610ea15760405162461bcd60e51b815260206004820152603a60248201527f41756374696f6e207374617274207072696365206d757374206265206772656160448201527f746572207468616e2061756374696f6e20656e642070726963650000000000006064820152608401610507565b6005548510158015610eb557506006548511155b610f355760405162461bcd60e51b8152602060048201526044602482018190527f50726963652064656361792068616c66206c696665206d7573742066616c6c20908201527f6265747765656e206d696e20616e64206d617820616c6c6f7761626c652076616064820152636c75657360e01b608482015260a401610507565b6040805160808082018352888252602080830189815283850189815260608086018a815260008f815260078652889020965187559251600187015590516002860155905160039094019390935583518a815290810189905292830187905290820185905288917f38b3058b75696f9e45bffa9c4b237adcde13d74c7bc1bea63e13c712d0776c74910160405180910390a250505050505050565b6000610fdb33836107de565b92915050565b604051633af32abf60e01b81526001600160a01b037f00000000000000000000000000000000000000000000000000000000000000001690633af32abf9061102d903390600401611a7f565b60206040518083038186803b15801561104557600080fd5b505afa158015611059573d6000803e3d6000fd5b505050506040513d601f19601f8201168201806040525081019061107d9190611b1f565b6110995760405162461bcd60e51b815260040161050790611b3a565b6040516346161b1160e11b81526004810182905260009081906001600160a01b037f00000000000000000000000000000000000000000000000000000000000000001690638c2c36229060240160006040518083038186803b1580156110fe57600080fd5b505afa158015611112573d6000803e3d6000fd5b505050506040513d6000823e601f3d908101601f1916820160405261113a9190810190611c57565b505050600089815260046020526040902083905550919550935050505080821015611176576000838152600360205260409020805460ff191690555b505050565b6000818152600760209081526040808320815160808101835281548082526001830154948201949094526002820154928101929092526003015460608201529042116112035760405162461bcd60e51b8152602060048201526017602482015276105d58dd1a5bdb881b9bdd081e595d081cdd185c9d1959604a1b6044820152606401610507565b60008160200151116112525760405162461bcd60e51b81526020600482015260186024820152774f6e6c7920636f6e666967757265642061756374696f6e7360401b6044820152606401610507565b604081015181516000906112669042611bf5565b90508260200151816112789190611d77565b602084015192901c9160029061128e8184611c22565b6112989085611d8b565b6112a29190611d77565b6112ac9190611d77565b6112b69083611bf5565b915082606001518210156112d05750506060015192915050565b509392505050565b34156119525760006112ea8234611bf5565b9050801561137c57604051600090339083908381818185875af1925050503d8060008114611334576040519150601f19603f3d011682016040523d82523d6000602084013e611339565b606091505b505090508061137a5760405162461bcd60e51b815260206004820152600d60248201526c1499599d5b990819985a5b1959609a1b6044820152606401610507565b505b600060647f00000000000000000000000000000000000000000000000000000000000000006001600160a01b0316634f029c396040518163ffffffff1660e01b815260040160206040518083038186803b1580156113d957600080fd5b505afa1580156113ed573d6000803e3d6000fd5b505050506040513d601f19601f820116820180604052508101906114119190611bdc565b61141b9085611d8b565b6114259190611d77565b9050801561155e5760007f00000000000000000000000000000000000000000000000000000000000000006001600160a01b0316633949f9066040518163ffffffff1660e01b815260040160206040518083038186803b15801561148857600080fd5b505afa15801561149c573d6000803e3d6000fd5b505050506040513d601f19601f820116820180604052508101906114c09190611b69565b6001600160a01b03168260405160006040518083038185875af1925050503d806000811461150a576040519150601f19603f3d011682016040523d82523d6000602084013e61150f565b606091505b505090508061155c5760405162461bcd60e51b8152602060048201526019602482015278119bdd5b99185d1a5bdb881c185e5b595b9d0819985a5b1959603a1b6044820152606401610507565b505b600061156a8285611bf5565b90506000807f00000000000000000000000000000000000000000000000000000000000000006001600160a01b031663cc74234b886040518263ffffffff1660e01b81526004016115bd91815260200190565b60206040518083038186803b1580156115d557600080fd5b505afa1580156115e9573d6000803e3d6000fd5b505050506040513d601f19601f8201168201806040525081019061160d9190611bdc565b11156118035760405163cc74234b60e01b8152600481018790526064907f00000000000000000000000000000000000000000000000000000000000000006001600160a01b03169063cc74234b9060240160206040518083038186803b15801561167657600080fd5b505afa15801561168a573d6000803e3d6000fd5b505050506040513d601f19601f820116820180604052508101906116ae9190611bdc565b6116b89084611d8b565b6116c29190611d77565b9050801561180357604051636bd8225b60e11b8152600481018790526000907f00000000000000000000000000000000000000000000000000000000000000006001600160a01b03169063d7b044b69060240160206040518083038186803b15801561172d57600080fd5b505afa158015611741573d6000803e3d6000fd5b505050506040513d601f19601f820116820180604052508101906117659190611b69565b6001600160a01b03168260405160006040518083038185875af1925050503d80600081146117af576040519150601f19603f3d011682016040523d82523d6000602084013e6117b4565b606091505b50509050806118015760405162461bcd60e51b81526020600482015260196024820152781059191a5d1a5bdb985b081c185e5b595b9d0819985a5b1959603a1b6044820152606401610507565b505b600061180f8284611bf5565b9050801561194c5760405163a47d29cb60e01b8152600481018890526000907f00000000000000000000000000000000000000000000000000000000000000006001600160a01b03169063a47d29cb9060240160206040518083038186803b15801561187a57600080fd5b505afa15801561188e573d6000803e3d6000fd5b505050506040513d601f19601f820116820180604052508101906118b29190611b69565b6001600160a01b03168260405160006040518083038185875af1925050503d80600081146118fc576040519150601f19603f3d011682016040523d82523d6000602084013e611901565b606091505b505090508061194a5760405162461bcd60e51b8152602060048201526015602482015274105c9d1a5cdd081c185e5b595b9d0819985a5b1959605a1b6044820152606401610507565b505b50505050505b5050565b6000806040838503121561196957600080fd5b82359150602083013560ff8116811461198157600080fd5b809150509250929050565b60006020828403121561199e57600080fd5b5035919050565b6001600160a01b03811681146119ba57600080fd5b50565b600080604083850312156119d057600080fd5b82356119db816119a5565b946020939093013593505050565b60005b83811015611a045781810151838201526020016119ec565b83811115611a13576000848401525b50505050565b60008151808452611a318160208601602086016119e9565b601f01601f19169290920160200192915050565b8415158152836020820152608060408201526000611a666080830185611a19565b905060018060a01b038316606083015295945050505050565b6001600160a01b0391909116815260200190565b60008060408385031215611aa657600080fd5b50508035926020909101359150565b600080600080600060a08688031215611acd57600080fd5b505083359560208501359550604085013594606081013594506080013592509050565b602081526000611b036020830184611a19565b9392505050565b80518015158114611b1a57600080fd5b919050565b600060208284031215611b3157600080fd5b611b0382611b0a565b60208082526015908201527413db9b1e4810dbdc99481dda1a5d195b1a5cdd1959605a1b604082015260600190565b600060208284031215611b7b57600080fd5b8151611b03816119a5565b6020808252600b908201526a13db9b1e48105c9d1a5cdd60aa1b604082015260600190565b634e487b7160e01b600052601160045260246000fd5b6000600019821415611bd557611bd5611bab565b5060010190565b600060208284031215611bee57600080fd5b5051919050565b600082821015611c0757611c07611bab565b500390565b634e487b7160e01b600052601260045260246000fd5b600082611c3157611c31611c0c565b500690565b8051611b1a816119a5565b634e487b7160e01b600052604160045260246000fd5b60008060008060008060008060006101208a8c031215611c7657600080fd5b8951611c81816119a5565b8099505060208a0151975060408a0151965060608a01519550611ca660808b01611b0a565b945060a08a0151611cb6816119a5565b60c08b015160e08c0151919550935067ffffffffffffffff80821115611cdb57600080fd5b818c0191508c601f830112611cef57600080fd5b815181811115611d0157611d01611c41565b604051601f8201601f19908116603f01168101908382118183101715611d2957611d29611c41565b816040528281528f6020848701011115611d4257600080fd5b611d538360208301602088016119e9565b8096505050505050611d686101008b01611c36565b90509295985092959850929598565b600082611d8657611d86611c0c565b500490565b6000816000190483118215151615611da557611da5611bab565b50029056fea2646970667358221220adad8973d74d3f2df875099a33ae8b303961949d01b4ebd7d5677dd189683f8a64736f6c63430008090033",
  "linkReferences": {},
  "deployedLinkReferences": {}
}