{
  "_format": "hh-sol-artifact-1",
  "contractName": "MinterDAExpV2",
  "sourceName": "contracts/minter-suite/Minters/MinterDAExp/MinterDAExpV2.sol",
  "abi": [
    {
      "inputs": [
        {
          "internalType": "address",
          "name": "_genArt721Address",
          "type": "address"
        },
        {
          "internalType": "address",
          "name": "_minterFilter",
          "type": "address"
        }
      ],
      "stateMutability": "nonpayable",
      "type": "constructor"
    },
    {
      "anonymous": false,
      "inputs": [
        {
          "indexed": false,
          "internalType": "uint256",
          "name": "_minimumPriceDecayHalfLifeSeconds",
          "type": "uint256"
        },
        {
          "indexed": false,
          "internalType": "uint256",
          "name": "_maximumPriceDecayHalfLifeSeconds",
          "type": "uint256"
        }
      ],
      "name": "AuctionHalfLifeRangeSecondsUpdated",
      "type": "event"
    },
    {
      "anonymous": false,
      "inputs": [
        {
          "indexed": true,
          "internalType": "uint256",
          "name": "_projectId",
          "type": "uint256"
        },
        {
          "indexed": true,
          "internalType": "uint256",
          "name": "_pricePerTokenInWei",
          "type": "uint256"
        }
      ],
      "name": "PricePerTokenInWeiUpdated",
      "type": "event"
    },
    {
      "anonymous": false,
      "inputs": [
        {
          "indexed": true,
          "internalType": "uint256",
          "name": "_projectId",
          "type": "uint256"
        },
        {
          "indexed": true,
          "internalType": "address",
          "name": "_currencyAddress",
          "type": "address"
        },
        {
          "indexed": false,
          "internalType": "string",
          "name": "_currencySymbol",
          "type": "string"
        }
      ],
      "name": "ProjectCurrencyInfoUpdated",
      "type": "event"
    },
    {
      "anonymous": false,
      "inputs": [
        {
          "indexed": true,
          "internalType": "uint256",
          "name": "_projectId",
          "type": "uint256"
        },
        {
          "indexed": false,
          "internalType": "bool",
          "name": "_purchaseToDisabled",
          "type": "bool"
        }
      ],
      "name": "PurchaseToDisabledUpdated",
      "type": "event"
    },
    {
      "anonymous": false,
      "inputs": [
        {
          "indexed": true,
          "internalType": "uint256",
          "name": "projectId",
          "type": "uint256"
        }
      ],
      "name": "ResetAuctionDetails",
      "type": "event"
    },
    {
      "anonymous": false,
      "inputs": [
        {
          "indexed": true,
          "internalType": "uint256",
          "name": "projectId",
          "type": "uint256"
        },
        {
          "indexed": false,
          "internalType": "uint256",
          "name": "_auctionTimestampStart",
          "type": "uint256"
        },
        {
          "indexed": false,
          "internalType": "uint256",
          "name": "_priceDecayHalfLifeSeconds",
          "type": "uint256"
        },
        {
          "indexed": false,
          "internalType": "uint256",
          "name": "_startPrice",
          "type": "uint256"
        },
        {
          "indexed": false,
          "internalType": "uint256",
          "name": "_basePrice",
          "type": "uint256"
        }
      ],
      "name": "SetAuctionDetails",
      "type": "event"
    },
    {
      "inputs": [],
      "name": "genArt721CoreAddress",
      "outputs": [
        {
          "internalType": "address",
          "name": "",
          "type": "address"
        }
      ],
      "stateMutability": "view",
      "type": "function"
    },
    {
      "inputs": [
        {
          "internalType": "uint256",
          "name": "_projectId",
          "type": "uint256"
        }
      ],
      "name": "getPriceInfo",
      "outputs": [
        {
          "internalType": "bool",
          "name": "isConfigured",
          "type": "bool"
        },
        {
          "internalType": "uint256",
          "name": "tokenPriceInWei",
          "type": "uint256"
        },
        {
          "internalType": "string",
          "name": "currencySymbol",
          "type": "string"
        },
        {
          "internalType": "address",
          "name": "currencyAddress",
          "type": "address"
        }
      ],
      "stateMutability": "view",
      "type": "function"
    },
    {
      "inputs": [],
      "name": "maximumPriceDecayHalfLifeSeconds",
      "outputs": [
        {
          "internalType": "uint256",
          "name": "",
          "type": "uint256"
        }
      ],
      "stateMutability": "view",
      "type": "function"
    },
    {
      "inputs": [],
      "name": "minimumPriceDecayHalfLifeSeconds",
      "outputs": [
        {
          "internalType": "uint256",
          "name": "",
          "type": "uint256"
        }
      ],
      "stateMutability": "view",
      "type": "function"
    },
    {
      "inputs": [],
      "name": "minterFilterAddress",
      "outputs": [
        {
          "internalType": "address",
          "name": "",
          "type": "address"
        }
      ],
      "stateMutability": "view",
      "type": "function"
    },
    {
      "inputs": [],
      "name": "minterType",
      "outputs": [
        {
          "internalType": "string",
          "name": "",
          "type": "string"
        }
      ],
      "stateMutability": "view",
      "type": "function"
    },
    {
      "inputs": [
        {
          "internalType": "uint256",
          "name": "_projectId",
          "type": "uint256"
        }
      ],
      "name": "projectAuctionParameters",
      "outputs": [
        {
          "internalType": "uint256",
          "name": "timestampStart",
          "type": "uint256"
        },
        {
          "internalType": "uint256",
          "name": "priceDecayHalfLifeSeconds",
          "type": "uint256"
        },
        {
          "internalType": "uint256",
          "name": "startPrice",
          "type": "uint256"
        },
        {
          "internalType": "uint256",
          "name": "basePrice",
          "type": "uint256"
        }
      ],
      "stateMutability": "view",
      "type": "function"
    },
    {
      "inputs": [
        {
          "internalType": "uint256",
          "name": "",
          "type": "uint256"
        }
      ],
      "name": "projectConfig",
      "outputs": [
        {
          "internalType": "bool",
          "name": "maxHasBeenInvoked",
          "type": "bool"
        },
        {
          "internalType": "uint24",
          "name": "maxInvocations",
          "type": "uint24"
        },
        {
          "internalType": "uint64",
          "name": "timestampStart",
          "type": "uint64"
        },
        {
          "internalType": "uint64",
          "name": "priceDecayHalfLifeSeconds",
          "type": "uint64"
        },
        {
          "internalType": "uint256",
          "name": "startPrice",
          "type": "uint256"
        },
        {
          "internalType": "uint256",
          "name": "basePrice",
          "type": "uint256"
        }
      ],
      "stateMutability": "view",
      "type": "function"
    },
    {
      "inputs": [
        {
          "internalType": "uint256",
          "name": "_projectId",
          "type": "uint256"
        }
      ],
      "name": "projectMaxHasBeenInvoked",
      "outputs": [
        {
          "internalType": "bool",
          "name": "",
          "type": "bool"
        }
      ],
      "stateMutability": "view",
      "type": "function"
    },
    {
      "inputs": [
        {
          "internalType": "uint256",
          "name": "_projectId",
          "type": "uint256"
        }
      ],
      "name": "projectMaxInvocations",
      "outputs": [
        {
          "internalType": "uint256",
          "name": "",
          "type": "uint256"
        }
      ],
      "stateMutability": "view",
      "type": "function"
    },
    {
      "inputs": [
        {
          "internalType": "uint256",
          "name": "_projectId",
          "type": "uint256"
        }
      ],
      "name": "purchase",
      "outputs": [
        {
          "internalType": "uint256",
          "name": "tokenId",
          "type": "uint256"
        }
      ],
      "stateMutability": "payable",
      "type": "function"
    },
    {
      "inputs": [
        {
          "internalType": "address",
          "name": "_to",
          "type": "address"
        },
        {
          "internalType": "uint256",
          "name": "_projectId",
          "type": "uint256"
        }
      ],
      "name": "purchaseTo",
      "outputs": [
        {
          "internalType": "uint256",
          "name": "tokenId",
          "type": "uint256"
        }
      ],
      "stateMutability": "payable",
      "type": "function"
    },
    {
      "inputs": [
        {
          "internalType": "address",
          "name": "_to",
          "type": "address"
        },
        {
          "internalType": "uint256",
          "name": "_projectId",
          "type": "uint256"
        }
      ],
      "name": "purchaseTo_do6",
      "outputs": [
        {
          "internalType": "uint256",
          "name": "tokenId",
          "type": "uint256"
        }
      ],
      "stateMutability": "payable",
      "type": "function"
    },
    {
      "inputs": [
        {
          "internalType": "uint256",
          "name": "_projectId",
          "type": "uint256"
        }
      ],
      "name": "purchase_H4M",
      "outputs": [
        {
          "internalType": "uint256",
          "name": "tokenId",
          "type": "uint256"
        }
      ],
      "stateMutability": "payable",
      "type": "function"
    },
    {
      "inputs": [
        {
          "internalType": "uint256",
          "name": "_projectId",
          "type": "uint256"
        }
      ],
      "name": "resetAuctionDetails",
      "outputs": [],
      "stateMutability": "nonpayable",
      "type": "function"
    },
    {
      "inputs": [
        {
          "internalType": "uint256",
          "name": "_minimumPriceDecayHalfLifeSeconds",
          "type": "uint256"
        },
        {
          "internalType": "uint256",
          "name": "_maximumPriceDecayHalfLifeSeconds",
          "type": "uint256"
        }
      ],
      "name": "setAllowablePriceDecayHalfLifeRangeSeconds",
      "outputs": [],
      "stateMutability": "nonpayable",
      "type": "function"
    },
    {
      "inputs": [
        {
          "internalType": "uint256",
          "name": "_projectId",
          "type": "uint256"
        },
        {
          "internalType": "uint256",
          "name": "_auctionTimestampStart",
          "type": "uint256"
        },
        {
          "internalType": "uint256",
          "name": "_priceDecayHalfLifeSeconds",
          "type": "uint256"
        },
        {
          "internalType": "uint256",
          "name": "_startPrice",
          "type": "uint256"
        },
        {
          "internalType": "uint256",
          "name": "_basePrice",
          "type": "uint256"
        }
      ],
      "name": "setAuctionDetails",
      "outputs": [],
      "stateMutability": "nonpayable",
      "type": "function"
    },
    {
      "inputs": [
        {
          "internalType": "uint256",
          "name": "_projectId",
          "type": "uint256"
        }
      ],
      "name": "setProjectMaxInvocations",
      "outputs": [],
      "stateMutability": "nonpayable",
      "type": "function"
    },
    {
      "inputs": [
        {
          "internalType": "uint256",
          "name": "_projectId",
          "type": "uint256"
        }
      ],
      "name": "togglePurchaseToDisabled",
      "outputs": [],
      "stateMutability": "view",
      "type": "function"
    }
  ],
  "bytecode": "0x61010060405261012c600255610e106003553480156200001e57600080fd5b506040516200196e3803806200196e833981016040819052620000419162000163565b600160009081556001600160a01b03808416608081905260a081905290831660c081905260e0819052604080516392a10f8360e01b81529051929391926392a10f8392600480840193602093929083900390910190829087803b158015620000a857600080fd5b505af1158015620000bd573d6000803e3d6000fd5b505050506040513d601f19601f82011682018060405250810190620000e391906200019b565b6001600160a01b0316146200013e5760405162461bcd60e51b815260206004820152601860248201527f496c6c6567616c20636f6e74726163742070616972696e670000000000000000604482015260640160405180910390fd5b5050620001c0565b80516001600160a01b03811681146200015e57600080fd5b919050565b600080604083850312156200017757600080fd5b620001828362000146565b9150620001926020840162000146565b90509250929050565b600060208284031215620001ae57600080fd5b620001b98262000146565b9392505050565b60805160a05160c05160e0516117516200021d60003960006105cf015260006103f10152600081816106c2015281816107de0152818161098d01528181610b4a01528181610e82015261111b015260006102a801526117516000f3fe6080604052600436106100e05760003560e01c80619987146100e5578061b4601461010b5780632aedc28e1461011e5780632f077ee61461014057806340d1397e146101a6578063462add46146101c657806356690aaf146102065780635bc1470f1461023d578063774159c614610253578063891407c01461028357806392a10f8314610296578063c0ad212e146102e2578063c71b1b7114610302578063cd379f6e146103a9578063cf6681ea146103c9578063dd85582f146103df578063e9d1e8ac14610413578063efef39a11461010b578063f7bd4b8814610459575b600080fd5b6100f86100f33660046113dd565b610479565b6040519081526020015b60405180910390f35b6100f8610119366004611409565b610690565b34801561012a57600080fd5b5061013e610139366004611409565b6106a2565b005b34801561014c57600080fd5b5061019661015b366004611409565b60009081526001602081905260409091208054918101546002909101546001600160401b03600160201b8404811694600160601b9094041692565b6040516101029493929190611422565b3480156101b257600080fd5b5061013e6101c1366004611409565b6107c6565b3480156101d257600080fd5b506101f66101e1366004611409565b60009081526001602052604090205460ff1690565b6040519015158152602001610102565b34801561021257600080fd5b506100f8610221366004611409565b600090815260016020526040902054610100900462ffffff1690565b34801561024957600080fd5b506100f860035481565b34801561025f57600080fd5b5061027361026e366004611409565b6108cf565b604051610102949392919061148a565b6100f86102913660046113dd565b61095a565b3480156102a257600080fd5b506102ca7f000000000000000000000000000000000000000000000000000000000000000081565b6040516001600160a01b039091168152602001610102565b3480156102ee57600080fd5b5061013e6102fd3660046114c4565b61096d565b34801561030e57600080fd5b5061036961031d366004611409565b600160208190526000918252604090912080549181015460029091015460ff83169262ffffff610100820416926001600160401b03600160201b8304811693600160601b909304169186565b60408051961515875262ffffff90951660208701526001600160401b039384169486019490945291166060840152608083015260a082015260c001610102565b3480156103b557600080fd5b5061013e6103c43660046114e6565b610b32565b3480156103d557600080fd5b506100f860025481565b3480156103eb57600080fd5b506102ca7f000000000000000000000000000000000000000000000000000000000000000081565b34801561041f57600080fd5b5061044c6040518060400160405280600d81526020016c26b4b73a32b92220a2bc382b1960991b81525081565b6040516101029190611521565b34801561046557600080fd5b5061013e610474366004611409565b610e69565b6000600260005414156104d35760405162461bcd60e51b815260206004820152601f60248201527f5265656e7472616e637947756172643a207265656e7472616e742063616c6c0060448201526064015b60405180910390fd5b60026000908155828152600160205260409020805460ff16156105465760405162461bcd60e51b815260206004820152602560248201527f4d6178696d756d206e756d626572206f6620696e766f636174696f6e732072656044820152641858da195960da1b60648201526084016104ca565b600061055184610f37565b9050803410156105a35760405162461bcd60e51b815260206004820181905260248201527f4d7573742073656e64206d696e696d756d2076616c756520746f206d696e742160448201526064016104ca565b604051630d4d151360e01b81526001600160a01b038681166004830152602482018690523360448301527f00000000000000000000000000000000000000000000000000000000000000001690630d4d151390606401602060405180830381600087803b15801561061357600080fd5b505af1158015610627573d6000803e3d6000fd5b505050506040513d601f19601f8201168201806040525081019061064b9190611534565b825490935060001962ffffff61010090920482160116620f42408406141561067957815460ff191660011782555b610683848261106d565b5050600160005592915050565b600061069c3383610479565b92915050565b60405163230448b160e01b8152631576e14760e11b906001600160a01b037f0000000000000000000000000000000000000000000000000000000000000000169063230448b1906106fb90339030908690600401611563565b602060405180830381600087803b15801561071557600080fd5b505af1158015610729573d6000803e3d6000fd5b505050506040513d601f19601f8201168201806040525081019061074d91906115a5565b6107695760405162461bcd60e51b81526004016104ca906115c0565b60008281526001602081905260408083208054600160201b600160a01b03191681559182018390556002820183905551909184917f2de6b284414d2e6b72bcc8d8d4de934e3f6410660a8f677c5c978f17f9cc2a929190a2505050565b60405163a47d29cb60e01b81526004810182905281907f00000000000000000000000000000000000000000000000000000000000000006001600160a01b03169063a47d29cb9060240160206040518083038186803b15801561082857600080fd5b505afa15801561083c573d6000803e3d6000fd5b505050506040513d601f19601f8201168201806040525081019061086091906115f4565b6001600160a01b0316336001600160a01b0316146108905760405162461bcd60e51b81526004016104ca90611611565b60405162461bcd60e51b81526020600482015260146024820152731058dd1a5bdb881b9bdd081cdd5c1c1bdc9d195960621b60448201526064016104ca565b600081815260016020819052604082209081015481549015159291606091839190600160201b90046001600160401b031642116109125780600101549350610930565b60018101546109245760009350610930565b61092d86610f37565b93505b6040518060400160405280600381526020016208aa8960eb1b815250925060009150509193509193565b60006109668383610479565b9392505050565b60405163230448b160e01b8152636056909760e11b906001600160a01b037f0000000000000000000000000000000000000000000000000000000000000000169063230448b1906109c690339030908690600401611563565b602060405180830381600087803b1580156109e057600080fd5b505af11580156109f4573d6000803e3d6000fd5b505050506040513d601f19601f82011682018060405250810190610a1891906115a5565b610a345760405162461bcd60e51b81526004016104ca906115c0565b828211610a9a5760405162461bcd60e51b815260206004820152602e60248201527f4d6178696d756d2068616c66206c696665206d7573742062652067726561746560448201526d72207468616e206d696e696d756d60901b60648201526084016104ca565b60008311610aea5760405162461bcd60e51b815260206004820152601d60248201527f48616c66206c696665206f66207a65726f206e6f7420616c6c6f77656400000060448201526064016104ca565b6002839055600382905560408051848152602081018490527f1d5d9c9b660aace5432c6c7412456d0ad1b5ff4c6ea156a8c551ba93555ed73f910160405180910390a1505050565b60405163a47d29cb60e01b81526004810186905285907f00000000000000000000000000000000000000000000000000000000000000006001600160a01b03169063a47d29cb9060240160206040518083038186803b158015610b9457600080fd5b505afa158015610ba8573d6000803e3d6000fd5b505050506040513d601f19601f82011682018060405250810190610bcc91906115f4565b6001600160a01b0316336001600160a01b031614610bfc5760405162461bcd60e51b81526004016104ca90611611565b60008681526001602052604090208054600160201b90046001600160401b03161580610c3857508054600160201b90046001600160401b031642105b610c835760405162461bcd60e51b815260206004820152601c60248201527b27379036b7b234b334b1b0ba34b7b7399036b4b216b0bab1ba34b7b760211b60448201526064016104ca565b854210610cc95760405162461bcd60e51b81526020600482015260146024820152734f6e6c79206675747572652061756374696f6e7360601b60448201526064016104ca565b828411610d3b5760405162461bcd60e51b815260206004820152603a60248201527f41756374696f6e207374617274207072696365206d7573742062652067726561604482015279746572207468616e2061756374696f6e20656e6420707269636560301b60648201526084016104ca565b6002548510158015610d4f57506003548511155b610dcf5760405162461bcd60e51b8152602060048201526044602482018190527f50726963652064656361792068616c66206c696665206d7573742066616c6c20908201527f6265747765656e206d696e20616e64206d617820616c6c6f7761626c652076616064820152636c75657360e01b608482015260a4016104ca565b80546001600160401b03868116600160601b0267ffffffffffffffff60601b19918916600160201b0291909116600160201b600160a01b031990921691909117178155600181018490556002810183905560405187907f38b3058b75696f9e45bffa9c4b237adcde13d74c7bc1bea63e13c712d0776c7490610e58908990899089908990611422565b60405180910390a250505050505050565b604051630ea5613f60e01b8152600481018290526000907f00000000000000000000000000000000000000000000000000000000000000006001600160a01b031690630ea5613f9060240160a06040518083038186803b158015610ecc57600080fd5b505afa158015610ee0573d6000803e3d6000fd5b505050506040513d601f19601f82011682018060405250810190610f049190611636565b505050600093845260016020526040909320805462ffffff9094166101000263ffffff0019909416939093179092555050565b6000818152600160205260408120805460028201546001600160401b03600160201b8304811692600160601b90041690428310610fb05760405162461bcd60e51b8152602060048201526017602482015276105d58dd1a5bdb881b9bdd081e595d081cdd185c9d1959604a1b60448201526064016104ca565b60008211610ffb5760405162461bcd60e51b81526020600482015260186024820152774f6e6c7920636f6e666967757265642061756374696f6e7360401b60448201526064016104ca565b6001840154428490038381816110135761101361154d565b0482901c915060028485838161102b5761102b61154d565b0684028161103b5761103b61154d565b04816110495761104961154d565b0482039150828210156110625750909695505050505050565b509695505050505050565b34156113c157600080611080833461168d565b905080156111105760405133908290600081818185875af1925050503d80600081146110c8576040519150601f19603f3d011682016040523d82523d6000602084013e6110cd565b606091505b505080925050816111105760405162461bcd60e51b815260206004820152600d60248201526c1499599d5b990819985a5b1959609a1b60448201526064016104ca565b6000806000806000807f00000000000000000000000000000000000000000000000000000000000000006001600160a01b0316638639415b8b8b6040518363ffffffff1660e01b8152600401611170929190918252602082015260400190565b60c06040518083038186803b15801561118857600080fd5b505afa15801561119c573d6000803e3d6000fd5b505050506040513d601f19601f820116820180604052508101906111c091906116b2565b9550955095509550955095506000861115611272576040516001600160a01b038616908790600081818185875af1925050503d806000811461121e576040519150601f19603f3d011682016040523d82523d6000602084013e611223565b606091505b505080985050876112725760405162461bcd60e51b8152602060048201526019602482015278105c9d08109b1bd8dadcc81c185e5b595b9d0819985a5b1959603a1b60448201526064016104ca565b8315611311576040516001600160a01b038416908590600081818185875af1925050503d80600081146112c1576040519150601f19603f3d011682016040523d82523d6000602084013e6112c6565b606091505b505080985050876113115760405162461bcd60e51b8152602060048201526015602482015274105c9d1a5cdd081c185e5b595b9d0819985a5b1959605a1b60448201526064016104ca565b81156113b8576040516001600160a01b038216908390600081818185875af1925050503d8060008114611360576040519150601f19603f3d011682016040523d82523d6000602084013e611365565b606091505b505080985050876113b85760405162461bcd60e51b815260206004820152601f60248201527f4164646974696f6e616c205061796565207061796d656e74206661696c65640060448201526064016104ca565b50505050505050505b5050565b6001600160a01b03811681146113da57600080fd5b50565b600080604083850312156113f057600080fd5b82356113fb816113c5565b946020939093013593505050565b60006020828403121561141b57600080fd5b5035919050565b93845260208401929092526040830152606082015260800190565b6000815180845260005b8181101561146357602081850181015186830182015201611447565b81811115611475576000602083870101525b50601f01601f19169290920160200192915050565b84151581528360208201526080604082015260006114ab608083018561143d565b905060018060a01b038316606083015295945050505050565b600080604083850312156114d757600080fd5b50508035926020909101359150565b600080600080600060a086880312156114fe57600080fd5b505083359560208501359550604085013594606081013594506080013592509050565b602081526000610966602083018461143d565b60006020828403121561154657600080fd5b5051919050565b634e487b7160e01b600052601260045260246000fd5b6001600160a01b0393841681529190921660208201526001600160e01b0319909116604082015260600190565b805180151581146115a057600080fd5b919050565b6000602082840312156115b757600080fd5b61096682611590565b6020808252601a908201527913db9b1e4810dbdc994810591b5a5b9050d308185b1b1bddd95960321b604082015260600190565b60006020828403121561160657600080fd5b8151610966816113c5565b6020808252600b908201526a13db9b1e48105c9d1a5cdd60aa1b604082015260600190565b600080600080600060a0868803121561164e57600080fd5b855194506020860151935061166560408701611590565b925061167360608701611590565b915061168160808701611590565b90509295509295909350565b6000828210156116ad57634e487b7160e01b600052601160045260246000fd5b500390565b60008060008060008060c087890312156116cb57600080fd5b8651955060208701516116dd816113c5565b6040880151606089015191965094506116f5816113c5565b608088015160a0890151919450925061170d816113c5565b80915050929550929550929556fea264697066735822122062c7e5931200702506dad28723edb4337ddb1931100db32fbb1cb4343858cc8364736f6c63430008090033",
  "linkReferences": {},
  "deployedLinkReferences": {}
}