{
  "_format": "hh-sol-artifact-1",
  "contractName": "MinterDALinV1",
  "sourceName": "contracts/minter-suite/MinterDALinV1.sol",
  "abi": [
    {
      "inputs": [
        {
          "internalType": "address",
          "name": "_genArt721Address",
          "type": "address"
        },
        {
          "internalType": "address",
          "name": "_minterFilter",
          "type": "address"
        }
      ],
      "stateMutability": "nonpayable",
      "type": "constructor"
    },
    {
      "anonymous": false,
      "inputs": [
        {
          "indexed": false,
          "internalType": "uint256",
          "name": "_minimumAuctionLengthSeconds",
          "type": "uint256"
        }
      ],
      "name": "MinimumAuctionLengthSecondsUpdated",
      "type": "event"
    },
    {
      "anonymous": false,
      "inputs": [
        {
          "indexed": true,
          "internalType": "uint256",
          "name": "_projectId",
          "type": "uint256"
        },
        {
          "indexed": true,
          "internalType": "uint256",
          "name": "_pricePerTokenInWei",
          "type": "uint256"
        }
      ],
      "name": "PricePerTokenInWeiUpdated",
      "type": "event"
    },
    {
      "anonymous": false,
      "inputs": [
        {
          "indexed": true,
          "internalType": "uint256",
          "name": "_projectId",
          "type": "uint256"
        },
        {
          "indexed": true,
          "internalType": "address",
          "name": "_currencyAddress",
          "type": "address"
        },
        {
          "indexed": false,
          "internalType": "string",
          "name": "_currencySymbol",
          "type": "string"
        }
      ],
      "name": "ProjectCurrencyInfoUpdated",
      "type": "event"
    },
    {
      "anonymous": false,
      "inputs": [
        {
          "indexed": true,
          "internalType": "uint256",
          "name": "_projectId",
          "type": "uint256"
        },
        {
          "indexed": false,
          "internalType": "bool",
          "name": "_purchaseToDisabled",
          "type": "bool"
        }
      ],
      "name": "PurchaseToDisabledUpdated",
      "type": "event"
    },
    {
      "anonymous": false,
      "inputs": [
        {
          "indexed": true,
          "internalType": "uint256",
          "name": "projectId",
          "type": "uint256"
        }
      ],
      "name": "ResetAuctionDetails",
      "type": "event"
    },
    {
      "anonymous": false,
      "inputs": [
        {
          "indexed": true,
          "internalType": "uint256",
          "name": "projectId",
          "type": "uint256"
        },
        {
          "indexed": false,
          "internalType": "uint256",
          "name": "_auctionTimestampStart",
          "type": "uint256"
        },
        {
          "indexed": false,
          "internalType": "uint256",
          "name": "_auctionTimestampEnd",
          "type": "uint256"
        },
        {
          "indexed": false,
          "internalType": "uint256",
          "name": "_startPrice",
          "type": "uint256"
        },
        {
          "indexed": false,
          "internalType": "uint256",
          "name": "_basePrice",
          "type": "uint256"
        }
      ],
      "name": "SetAuctionDetails",
      "type": "event"
    },
    {
      "inputs": [],
      "name": "genArt721CoreAddress",
      "outputs": [
        {
          "internalType": "address",
          "name": "",
          "type": "address"
        }
      ],
      "stateMutability": "view",
      "type": "function"
    },
    {
      "inputs": [
        {
          "internalType": "uint256",
          "name": "_projectId",
          "type": "uint256"
        }
      ],
      "name": "getPriceInfo",
      "outputs": [
        {
          "internalType": "bool",
          "name": "isConfigured",
          "type": "bool"
        },
        {
          "internalType": "uint256",
          "name": "tokenPriceInWei",
          "type": "uint256"
        },
        {
          "internalType": "string",
          "name": "currencySymbol",
          "type": "string"
        },
        {
          "internalType": "address",
          "name": "currencyAddress",
          "type": "address"
        }
      ],
      "stateMutability": "view",
      "type": "function"
    },
    {
      "inputs": [],
      "name": "minimumAuctionLengthSeconds",
      "outputs": [
        {
          "internalType": "uint256",
          "name": "",
          "type": "uint256"
        }
      ],
      "stateMutability": "view",
      "type": "function"
    },
    {
      "inputs": [],
      "name": "minterFilterAddress",
      "outputs": [
        {
          "internalType": "address",
          "name": "",
          "type": "address"
        }
      ],
      "stateMutability": "view",
      "type": "function"
    },
    {
      "inputs": [],
      "name": "minterType",
      "outputs": [
        {
          "internalType": "string",
          "name": "",
          "type": "string"
        }
      ],
      "stateMutability": "view",
      "type": "function"
    },
    {
      "inputs": [
        {
          "internalType": "uint256",
          "name": "",
          "type": "uint256"
        }
      ],
      "name": "projectAuctionParameters",
      "outputs": [
        {
          "internalType": "uint256",
          "name": "timestampStart",
          "type": "uint256"
        },
        {
          "internalType": "uint256",
          "name": "timestampEnd",
          "type": "uint256"
        },
        {
          "internalType": "uint256",
          "name": "startPrice",
          "type": "uint256"
        },
        {
          "internalType": "uint256",
          "name": "basePrice",
          "type": "uint256"
        }
      ],
      "stateMutability": "view",
      "type": "function"
    },
    {
      "inputs": [
        {
          "internalType": "uint256",
          "name": "",
          "type": "uint256"
        }
      ],
      "name": "projectMaxHasBeenInvoked",
      "outputs": [
        {
          "internalType": "bool",
          "name": "",
          "type": "bool"
        }
      ],
      "stateMutability": "view",
      "type": "function"
    },
    {
      "inputs": [
        {
          "internalType": "uint256",
          "name": "",
          "type": "uint256"
        }
      ],
      "name": "projectMaxInvocations",
      "outputs": [
        {
          "internalType": "uint256",
          "name": "",
          "type": "uint256"
        }
      ],
      "stateMutability": "view",
      "type": "function"
    },
    {
      "inputs": [
        {
          "internalType": "uint256",
          "name": "_projectId",
          "type": "uint256"
        }
      ],
      "name": "purchase",
      "outputs": [
        {
          "internalType": "uint256",
          "name": "tokenId",
          "type": "uint256"
        }
      ],
      "stateMutability": "payable",
      "type": "function"
    },
    {
      "inputs": [
        {
          "internalType": "address",
          "name": "_to",
          "type": "address"
        },
        {
          "internalType": "uint256",
          "name": "_projectId",
          "type": "uint256"
        }
      ],
      "name": "purchaseTo",
      "outputs": [
        {
          "internalType": "uint256",
          "name": "tokenId",
          "type": "uint256"
        }
      ],
      "stateMutability": "payable",
      "type": "function"
    },
    {
      "inputs": [
        {
          "internalType": "uint256",
          "name": "_projectId",
          "type": "uint256"
        }
      ],
      "name": "resetAuctionDetails",
      "outputs": [],
      "stateMutability": "nonpayable",
      "type": "function"
    },
    {
      "inputs": [
        {
          "internalType": "uint256",
          "name": "_projectId",
          "type": "uint256"
        },
        {
          "internalType": "uint256",
          "name": "_auctionTimestampStart",
          "type": "uint256"
        },
        {
          "internalType": "uint256",
          "name": "_auctionTimestampEnd",
          "type": "uint256"
        },
        {
          "internalType": "uint256",
          "name": "_startPrice",
          "type": "uint256"
        },
        {
          "internalType": "uint256",
          "name": "_basePrice",
          "type": "uint256"
        }
      ],
      "name": "setAuctionDetails",
      "outputs": [],
      "stateMutability": "nonpayable",
      "type": "function"
    },
    {
      "inputs": [
        {
          "internalType": "uint256",
          "name": "_minimumAuctionLengthSeconds",
          "type": "uint256"
        }
      ],
      "name": "setMinimumAuctionLengthSeconds",
      "outputs": [],
      "stateMutability": "nonpayable",
      "type": "function"
    },
    {
      "inputs": [
        {
          "internalType": "uint256",
          "name": "_projectId",
          "type": "uint256"
        }
      ],
      "name": "setProjectMaxInvocations",
      "outputs": [],
      "stateMutability": "nonpayable",
      "type": "function"
    },
    {
      "inputs": [
        {
          "internalType": "uint256",
          "name": "_projectId",
          "type": "uint256"
        }
      ],
      "name": "togglePurchaseToDisabled",
      "outputs": [],
      "stateMutability": "view",
      "type": "function"
    }
  ],
  "bytecode": "0x610100604052610e106003553480156200001857600080fd5b5060405162001d0738038062001d078339810160408190526200003b916200015d565b600160009081556001600160a01b03808416608081905260a081905290831660c081905260e0819052604080516392a10f8360e01b81529051929391926392a10f8392600480840193602093929083900390910190829087803b158015620000a257600080fd5b505af1158015620000b7573d6000803e3d6000fd5b505050506040513d601f19601f82011682018060405250810190620000dd919062000195565b6001600160a01b031614620001385760405162461bcd60e51b815260206004820152601860248201527f496c6c6567616c20636f6e74726163742070616972696e670000000000000000604482015260640160405180910390fd5b5050620001ba565b80516001600160a01b03811681146200015857600080fd5b919050565b600080604083850312156200017157600080fd5b6200017c8362000140565b91506200018c6020840162000140565b90509250929050565b600060208284031215620001a857600080fd5b620001b38262000140565b9392505050565b60805160a05160c05160e051611ac662000241600039600061087a015260006102dd01526000818161038f0152818161049f015281816105930152818161098b01528181610d3b01528181610dff015281816110c301528181611172015281816112b20152818161136d015281816114240152611571015260006102660152611ac66000f3fe6080604052600436106100c85760003560e01c8063891407c01161007a578063891407c01461024157806392a10f8314610254578063b2d30ac714610295578063cd379f6e146102ab578063dd85582f146102cb578063e9d1e8ac146102ff578063efef39a114610345578063f7bd4b881461035857600080fd5b80632aedc28e146100cd5780632f077ee6146100ef5780632fc37ef11461015657806340d1397e14610176578063462add461461019657806356690aaf146101d6578063774159c614610211575b600080fd5b3480156100d957600080fd5b506100ed6100e8366004611697565b610378565b005b3480156100fb57600080fd5b5061013161010a366004611697565b60046020526000908152604090208054600182015460028301546003909301549192909184565b6040805194855260208501939093529183015260608201526080015b60405180910390f35b34801561016257600080fd5b506100ed610171366004611697565b610488565b34801561018257600080fd5b506100ed610191366004611697565b61057b565b3480156101a257600080fd5b506101c66101b1366004611697565b60016020526000908152604090205460ff1681565b604051901515815260200161014d565b3480156101e257600080fd5b506102036101f1366004611697565b60026020526000908152604090205481565b60405190815260200161014d565b34801561021d57600080fd5b5061023161022c366004611697565b610684565b60405161014d949392919061170c565b61020361024f36600461175e565b61072a565b34801561026057600080fd5b506102887f000000000000000000000000000000000000000000000000000000000000000081565b60405161014d919061178a565b3480156102a157600080fd5b5061020360035481565b3480156102b757600080fd5b506100ed6102c636600461179e565b610973565b3480156102d757600080fd5b506102887f000000000000000000000000000000000000000000000000000000000000000081565b34801561030b57600080fd5b506103386040518060400160405280600d81526020016c4d696e74657244414c696e563160981b81525081565b60405161014d91906117d9565b610203610353366004611697565b610d12565b34801561036457600080fd5b506100ed610373366004611697565b610d24565b604051633af32abf60e01b81526001600160a01b037f00000000000000000000000000000000000000000000000000000000000000001690633af32abf906103c490339060040161178a565b60206040518083038186803b1580156103dc57600080fd5b505afa1580156103f0573d6000803e3d6000fd5b505050506040513d601f19601f820116820180604052508101906104149190611808565b6104395760405162461bcd60e51b815260040161043090611823565b60405180910390fd5b60008181526004602052604080822082815560018101839055600281018390556003018290555182917f2de6b284414d2e6b72bcc8d8d4de934e3f6410660a8f677c5c978f17f9cc2a9291a250565b604051633af32abf60e01b81526001600160a01b037f00000000000000000000000000000000000000000000000000000000000000001690633af32abf906104d490339060040161178a565b60206040518083038186803b1580156104ec57600080fd5b505afa158015610500573d6000803e3d6000fd5b505050506040513d601f19601f820116820180604052508101906105249190611808565b6105405760405162461bcd60e51b815260040161043090611823565b60038190556040518181527f03c81e81b0ed0ca5444a9d70c9f3d1c78d79d6a31419f77736e886d092ed1a9e9060200160405180910390a150565b60405163a47d29cb60e01b81526004810182905281907f00000000000000000000000000000000000000000000000000000000000000006001600160a01b03169063a47d29cb9060240160206040518083038186803b1580156105dd57600080fd5b505afa1580156105f1573d6000803e3d6000fd5b505050506040513d601f19601f820116820180604052508101906106159190611852565b6001600160a01b0316336001600160a01b0316146106455760405162461bcd60e51b81526004016104309061186f565b60405162461bcd60e51b81526020600482015260146024820152731058dd1a5bdb881b9bdd081cdd5c1c1bdc9d195960621b6044820152606401610430565b6000818152600460209081526040808320815160808101835281548082526001830154948201949094526002820154928101839052600390910154606082810191909152911515939283919042116106e25780604001519350610700565b60208101516106f45760009350610700565b6106fd86610ebe565b93505b6040518060400160405280600381526020016208aa8960eb1b815250925060009150509193509193565b60006002600054141561077f5760405162461bcd60e51b815260206004820152601f60248201527f5265656e7472616e637947756172643a207265656e7472616e742063616c6c006044820152606401610430565b600260009081558281526001602052604090205460ff16156107f15760405162461bcd60e51b815260206004820152602560248201527f4d6178696d756d206e756d626572206f6620696e766f636174696f6e732072656044820152641858da195960da1b6064820152608401610430565b60006107fc83610ebe565b90508034101561084e5760405162461bcd60e51b815260206004820181905260248201527f4d7573742073656e64206d696e696d756d2076616c756520746f206d696e74216044820152606401610430565b604051630d4d151360e01b81526001600160a01b038581166004830152602482018590523360448301527f00000000000000000000000000000000000000000000000000000000000000001690630d4d151390606401602060405180830381600087803b1580156108be57600080fd5b505af11580156108d2573d6000803e3d6000fd5b505050506040513d601f19601f820116820180604052508101906108f69190611894565b6000848152600260205260409020549092501580159061093b575060008381526002602052604090205461092c906001906118c3565b610939620f4240846118f0565b145b1561095d576000838152600160208190526040909120805460ff191690911790555b6109678382611019565b50600160005592915050565b60405163a47d29cb60e01b81526004810186905285907f00000000000000000000000000000000000000000000000000000000000000006001600160a01b03169063a47d29cb9060240160206040518083038186803b1580156109d557600080fd5b505afa1580156109e9573d6000803e3d6000fd5b505050506040513d601f19601f82011682018060405250810190610a0d9190611852565b6001600160a01b0316336001600160a01b031614610a3d5760405162461bcd60e51b81526004016104309061186f565b600086815260046020908152604091829020825160808101845281548082526001830154938201939093526002820154938101939093526003015460608301521580610a895750805142105b610ad55760405162461bcd60e51b815260206004820152601c60248201527f4e6f206d6f64696669636174696f6e73206d69642d61756374696f6e000000006044820152606401610430565b854210610b1b5760405162461bcd60e51b81526020600482015260146024820152734f6e6c79206675747572652061756374696f6e7360601b6044820152606401610430565b858511610b815760405162461bcd60e51b815260206004820152602e60248201527f41756374696f6e20656e64206d7573742062652067726561746572207468616e60448201526d08185d58dd1a5bdb881cdd185c9d60921b6064820152608401610430565b600354610b8e9087611904565b851015610c035760405162461bcd60e51b815260206004820152603b60248201527f41756374696f6e206c656e677468206d757374206265206174206c656173742060448201527f6d696e696d756d41756374696f6e4c656e6774685365636f6e647300000000006064820152608401610430565b828411610c785760405162461bcd60e51b815260206004820152603a60248201527f41756374696f6e207374617274207072696365206d757374206265206772656160448201527f746572207468616e2061756374696f6e20656e642070726963650000000000006064820152608401610430565b6040805160808082018352888252602080830189815283850189815260608086018a815260008f815260048652889020965187559251600187015590516002860155905160039094019390935583518a815290810189905292830187905290820185905288917f38b3058b75696f9e45bffa9c4b237adcde13d74c7bc1bea63e13c712d0776c74910160405180910390a250505050505050565b6000610d1e338361072a565b92915050565b604051633af32abf60e01b81526001600160a01b037f00000000000000000000000000000000000000000000000000000000000000001690633af32abf90610d7090339060040161178a565b60206040518083038186803b158015610d8857600080fd5b505afa158015610d9c573d6000803e3d6000fd5b505050506040513d601f19601f82011682018060405250810190610dc09190611808565b610ddc5760405162461bcd60e51b815260040161043090611823565b6040516346161b1160e11b81526004810182905260009081906001600160a01b037f00000000000000000000000000000000000000000000000000000000000000001690638c2c36229060240160006040518083038186803b158015610e4157600080fd5b505afa158015610e55573d6000803e3d6000fd5b505050506040513d6000823e601f3d908101601f19168201604052610e7d919081019061193d565b505050600089815260026020526040902083905550919550935050505080821015610eb9576000838152600160205260409020805460ff191690555b505050565b600081815260046020908152604080832081516080810183528154808252600183015494820194909452600282015492810192909252600301546060820152904211610f465760405162461bcd60e51b8152602060048201526017602482015276105d58dd1a5bdb881b9bdd081e595d081cdd185c9d1959604a1b6044820152606401610430565b80602001514210610faa576000816020015111610fa05760405162461bcd60e51b81526020600482015260186024820152774f6e6c7920636f6e666967757265642061756374696f6e7360401b6044820152606401610430565b6060015192915050565b8051600090610fb990426118c3565b9050600082600001518360200151610fd191906118c3565b9050600083606001518460400151610fe991906118c3565b905081610ff68285611a5d565b6110009190611a7c565b846040015161100f91906118c3565b9695505050505050565b341561169357600061102b82346118c3565b905080156110bd57604051600090339083908381818185875af1925050503d8060008114611075576040519150601f19603f3d011682016040523d82523d6000602084013e61107a565b606091505b50509050806110bb5760405162461bcd60e51b815260206004820152600d60248201526c1499599d5b990819985a5b1959609a1b6044820152606401610430565b505b600060647f00000000000000000000000000000000000000000000000000000000000000006001600160a01b0316634f029c396040518163ffffffff1660e01b815260040160206040518083038186803b15801561111a57600080fd5b505afa15801561112e573d6000803e3d6000fd5b505050506040513d601f19601f820116820180604052508101906111529190611894565b61115c9085611a5d565b6111669190611a7c565b9050801561129f5760007f00000000000000000000000000000000000000000000000000000000000000006001600160a01b0316633949f9066040518163ffffffff1660e01b815260040160206040518083038186803b1580156111c957600080fd5b505afa1580156111dd573d6000803e3d6000fd5b505050506040513d601f19601f820116820180604052508101906112019190611852565b6001600160a01b03168260405160006040518083038185875af1925050503d806000811461124b576040519150601f19603f3d011682016040523d82523d6000602084013e611250565b606091505b505090508061129d5760405162461bcd60e51b8152602060048201526019602482015278119bdd5b99185d1a5bdb881c185e5b595b9d0819985a5b1959603a1b6044820152606401610430565b505b60006112ab82856118c3565b90506000807f00000000000000000000000000000000000000000000000000000000000000006001600160a01b031663cc74234b886040518263ffffffff1660e01b81526004016112fe91815260200190565b60206040518083038186803b15801561131657600080fd5b505afa15801561132a573d6000803e3d6000fd5b505050506040513d601f19601f8201168201806040525081019061134e9190611894565b11156115445760405163cc74234b60e01b8152600481018790526064907f00000000000000000000000000000000000000000000000000000000000000006001600160a01b03169063cc74234b9060240160206040518083038186803b1580156113b757600080fd5b505afa1580156113cb573d6000803e3d6000fd5b505050506040513d601f19601f820116820180604052508101906113ef9190611894565b6113f99084611a5d565b6114039190611a7c565b9050801561154457604051636bd8225b60e11b8152600481018790526000907f00000000000000000000000000000000000000000000000000000000000000006001600160a01b03169063d7b044b69060240160206040518083038186803b15801561146e57600080fd5b505afa158015611482573d6000803e3d6000fd5b505050506040513d601f19601f820116820180604052508101906114a69190611852565b6001600160a01b03168260405160006040518083038185875af1925050503d80600081146114f0576040519150601f19603f3d011682016040523d82523d6000602084013e6114f5565b606091505b50509050806115425760405162461bcd60e51b81526020600482015260196024820152781059191a5d1a5bdb985b081c185e5b595b9d0819985a5b1959603a1b6044820152606401610430565b505b600061155082846118c3565b9050801561168d5760405163a47d29cb60e01b8152600481018890526000907f00000000000000000000000000000000000000000000000000000000000000006001600160a01b03169063a47d29cb9060240160206040518083038186803b1580156115bb57600080fd5b505afa1580156115cf573d6000803e3d6000fd5b505050506040513d601f19601f820116820180604052508101906115f39190611852565b6001600160a01b03168260405160006040518083038185875af1925050503d806000811461163d576040519150601f19603f3d011682016040523d82523d6000602084013e611642565b606091505b505090508061168b5760405162461bcd60e51b8152602060048201526015602482015274105c9d1a5cdd081c185e5b595b9d0819985a5b1959605a1b6044820152606401610430565b505b50505050505b5050565b6000602082840312156116a957600080fd5b5035919050565b60005b838110156116cb5781810151838201526020016116b3565b838111156116da576000848401525b50505050565b600081518084526116f88160208601602086016116b0565b601f01601f19169290920160200192915050565b841515815283602082015260806040820152600061172d60808301856116e0565b905060018060a01b038316606083015295945050505050565b6001600160a01b038116811461175b57600080fd5b50565b6000806040838503121561177157600080fd5b823561177c81611746565b946020939093013593505050565b6001600160a01b0391909116815260200190565b600080600080600060a086880312156117b657600080fd5b505083359560208501359550604085013594606081013594506080013592509050565b6020815260006117ec60208301846116e0565b9392505050565b8051801515811461180357600080fd5b919050565b60006020828403121561181a57600080fd5b6117ec826117f3565b60208082526015908201527413db9b1e4810dbdc99481dda1a5d195b1a5cdd1959605a1b604082015260600190565b60006020828403121561186457600080fd5b81516117ec81611746565b6020808252600b908201526a13db9b1e48105c9d1a5cdd60aa1b604082015260600190565b6000602082840312156118a657600080fd5b5051919050565b634e487b7160e01b600052601160045260246000fd5b6000828210156118d5576118d56118ad565b500390565b634e487b7160e01b600052601260045260246000fd5b6000826118ff576118ff6118da565b500690565b60008219821115611917576119176118ad565b500190565b805161180381611746565b634e487b7160e01b600052604160045260246000fd5b60008060008060008060008060006101208a8c03121561195c57600080fd5b895161196781611746565b8099505060208a0151975060408a0151965060608a0151955061198c60808b016117f3565b945060a08a015161199c81611746565b60c08b015160e08c0151919550935067ffffffffffffffff808211156119c157600080fd5b818c0191508c601f8301126119d557600080fd5b8151818111156119e7576119e7611927565b604051601f8201601f19908116603f01168101908382118183101715611a0f57611a0f611927565b816040528281528f6020848701011115611a2857600080fd5b611a398360208301602088016116b0565b8096505050505050611a4e6101008b0161191c565b90509295985092959850929598565b6000816000190483118215151615611a7757611a776118ad565b500290565b600082611a8b57611a8b6118da565b50049056fea264697066735822122083daf82b50cdbe0c9444aeebb945d5734d3827aa6d1ac8cb54a91c93a3d7a28a64736f6c63430008090033",
  "linkReferences": {},
  "deployedLinkReferences": {}
}