{
  "_format": "hh-sol-artifact-1",
  "contractName": "MinterMerkleV0",
  "sourceName": "contracts/minter-suite/Minters/MinterMerkle/MinterMerkleV0.sol",
  "abi": [
    {
      "inputs": [
        {
          "internalType": "address",
          "name": "_genArt721Address",
          "type": "address"
        },
        {
          "internalType": "address",
          "name": "_minterFilter",
          "type": "address"
        }
      ],
      "stateMutability": "nonpayable",
      "type": "constructor"
    },
    {
      "anonymous": false,
      "inputs": [
        {
          "indexed": true,
          "internalType": "uint256",
          "name": "_projectId",
          "type": "uint256"
        },
        {
          "indexed": false,
          "internalType": "bytes32",
          "name": "_key",
          "type": "bytes32"
        }
      ],
      "name": "ConfigKeyRemoved",
      "type": "event"
    },
    {
      "anonymous": false,
      "inputs": [
        {
          "indexed": true,
          "internalType": "uint256",
          "name": "_projectId",
          "type": "uint256"
        },
        {
          "indexed": false,
          "internalType": "bytes32",
          "name": "_key",
          "type": "bytes32"
        },
        {
          "indexed": false,
          "internalType": "uint256",
          "name": "_value",
          "type": "uint256"
        }
      ],
      "name": "ConfigValueAddedToSet",
      "type": "event"
    },
    {
      "anonymous": false,
      "inputs": [
        {
          "indexed": true,
          "internalType": "uint256",
          "name": "_projectId",
          "type": "uint256"
        },
        {
          "indexed": false,
          "internalType": "bytes32",
          "name": "_key",
          "type": "bytes32"
        },
        {
          "indexed": false,
          "internalType": "address",
          "name": "_value",
          "type": "address"
        }
      ],
      "name": "ConfigValueAddedToSet",
      "type": "event"
    },
    {
      "anonymous": false,
      "inputs": [
        {
          "indexed": true,
          "internalType": "uint256",
          "name": "_projectId",
          "type": "uint256"
        },
        {
          "indexed": false,
          "internalType": "bytes32",
          "name": "_key",
          "type": "bytes32"
        },
        {
          "indexed": false,
          "internalType": "bytes32",
          "name": "_value",
          "type": "bytes32"
        }
      ],
      "name": "ConfigValueAddedToSet",
      "type": "event"
    },
    {
      "anonymous": false,
      "inputs": [
        {
          "indexed": true,
          "internalType": "uint256",
          "name": "_projectId",
          "type": "uint256"
        },
        {
          "indexed": false,
          "internalType": "bytes32",
          "name": "_key",
          "type": "bytes32"
        },
        {
          "indexed": false,
          "internalType": "uint256",
          "name": "_value",
          "type": "uint256"
        }
      ],
      "name": "ConfigValueRemovedFromSet",
      "type": "event"
    },
    {
      "anonymous": false,
      "inputs": [
        {
          "indexed": true,
          "internalType": "uint256",
          "name": "_projectId",
          "type": "uint256"
        },
        {
          "indexed": false,
          "internalType": "bytes32",
          "name": "_key",
          "type": "bytes32"
        },
        {
          "indexed": false,
          "internalType": "address",
          "name": "_value",
          "type": "address"
        }
      ],
      "name": "ConfigValueRemovedFromSet",
      "type": "event"
    },
    {
      "anonymous": false,
      "inputs": [
        {
          "indexed": true,
          "internalType": "uint256",
          "name": "_projectId",
          "type": "uint256"
        },
        {
          "indexed": false,
          "internalType": "bytes32",
          "name": "_key",
          "type": "bytes32"
        },
        {
          "indexed": false,
          "internalType": "bytes32",
          "name": "_value",
          "type": "bytes32"
        }
      ],
      "name": "ConfigValueRemovedFromSet",
      "type": "event"
    },
    {
      "anonymous": false,
      "inputs": [
        {
          "indexed": true,
          "internalType": "uint256",
          "name": "_projectId",
          "type": "uint256"
        },
        {
          "indexed": false,
          "internalType": "bytes32",
          "name": "_key",
          "type": "bytes32"
        },
        {
          "indexed": false,
          "internalType": "bool",
          "name": "_value",
          "type": "bool"
        }
      ],
      "name": "ConfigValueSet",
      "type": "event"
    },
    {
      "anonymous": false,
      "inputs": [
        {
          "indexed": true,
          "internalType": "uint256",
          "name": "_projectId",
          "type": "uint256"
        },
        {
          "indexed": false,
          "internalType": "bytes32",
          "name": "_key",
          "type": "bytes32"
        },
        {
          "indexed": false,
          "internalType": "uint256",
          "name": "_value",
          "type": "uint256"
        }
      ],
      "name": "ConfigValueSet",
      "type": "event"
    },
    {
      "anonymous": false,
      "inputs": [
        {
          "indexed": true,
          "internalType": "uint256",
          "name": "_projectId",
          "type": "uint256"
        },
        {
          "indexed": false,
          "internalType": "bytes32",
          "name": "_key",
          "type": "bytes32"
        },
        {
          "indexed": false,
          "internalType": "address",
          "name": "_value",
          "type": "address"
        }
      ],
      "name": "ConfigValueSet",
      "type": "event"
    },
    {
      "anonymous": false,
      "inputs": [
        {
          "indexed": true,
          "internalType": "uint256",
          "name": "_projectId",
          "type": "uint256"
        },
        {
          "indexed": false,
          "internalType": "bytes32",
          "name": "_key",
          "type": "bytes32"
        },
        {
          "indexed": false,
          "internalType": "bytes32",
          "name": "_value",
          "type": "bytes32"
        }
      ],
      "name": "ConfigValueSet",
      "type": "event"
    },
    {
      "anonymous": false,
      "inputs": [
        {
          "indexed": true,
          "internalType": "uint256",
          "name": "_projectId",
          "type": "uint256"
        },
        {
          "indexed": true,
          "internalType": "uint256",
          "name": "_pricePerTokenInWei",
          "type": "uint256"
        }
      ],
      "name": "PricePerTokenInWeiUpdated",
      "type": "event"
    },
    {
      "anonymous": false,
      "inputs": [
        {
          "indexed": true,
          "internalType": "uint256",
          "name": "_projectId",
          "type": "uint256"
        },
        {
          "indexed": true,
          "internalType": "address",
          "name": "_currencyAddress",
          "type": "address"
        },
        {
          "indexed": false,
          "internalType": "string",
          "name": "_currencySymbol",
          "type": "string"
        }
      ],
      "name": "ProjectCurrencyInfoUpdated",
      "type": "event"
    },
    {
      "anonymous": false,
      "inputs": [
        {
          "indexed": true,
          "internalType": "uint256",
          "name": "_projectId",
          "type": "uint256"
        },
        {
          "indexed": false,
          "internalType": "bool",
          "name": "_purchaseToDisabled",
          "type": "bool"
        }
      ],
      "name": "PurchaseToDisabledUpdated",
      "type": "event"
    },
    {
      "inputs": [],
      "name": "DEFAULT_MAX_INVOCATIONS_PER_ADDRESS",
      "outputs": [
        {
          "internalType": "uint256",
          "name": "",
          "type": "uint256"
        }
      ],
      "stateMutability": "view",
      "type": "function"
    },
    {
      "inputs": [],
      "name": "genArt721CoreAddress",
      "outputs": [
        {
          "internalType": "address",
          "name": "",
          "type": "address"
        }
      ],
      "stateMutability": "view",
      "type": "function"
    },
    {
      "inputs": [
        {
          "internalType": "uint256",
          "name": "_projectId",
          "type": "uint256"
        }
      ],
      "name": "getPriceInfo",
      "outputs": [
        {
          "internalType": "bool",
          "name": "isConfigured",
          "type": "bool"
        },
        {
          "internalType": "uint256",
          "name": "tokenPriceInWei",
          "type": "uint256"
        },
        {
          "internalType": "string",
          "name": "currencySymbol",
          "type": "string"
        },
        {
          "internalType": "address",
          "name": "currencyAddress",
          "type": "address"
        }
      ],
      "stateMutability": "view",
      "type": "function"
    },
    {
      "inputs": [
        {
          "internalType": "address",
          "name": "_address",
          "type": "address"
        }
      ],
      "name": "hashAddress",
      "outputs": [
        {
          "internalType": "bytes32",
          "name": "",
          "type": "bytes32"
        }
      ],
      "stateMutability": "pure",
      "type": "function"
    },
    {
      "inputs": [],
      "name": "minterFilterAddress",
      "outputs": [
        {
          "internalType": "address",
          "name": "",
          "type": "address"
        }
      ],
      "stateMutability": "view",
      "type": "function"
    },
    {
      "inputs": [],
      "name": "minterType",
      "outputs": [
        {
          "internalType": "string",
          "name": "",
          "type": "string"
        }
      ],
      "stateMutability": "view",
      "type": "function"
    },
    {
      "inputs": [
        {
          "internalType": "bytes32[]",
          "name": "_proof",
          "type": "bytes32[]"
        },
        {
          "internalType": "address",
          "name": "_address",
          "type": "address"
        }
      ],
      "name": "processProofForAddress",
      "outputs": [
        {
          "internalType": "bytes32",
          "name": "",
          "type": "bytes32"
        }
      ],
      "stateMutability": "pure",
      "type": "function"
    },
    {
      "inputs": [
        {
          "internalType": "uint256",
          "name": "",
          "type": "uint256"
        }
      ],
      "name": "projectMaxHasBeenInvoked",
      "outputs": [
        {
          "internalType": "bool",
          "name": "",
          "type": "bool"
        }
      ],
      "stateMutability": "view",
      "type": "function"
    },
    {
      "inputs": [
        {
          "internalType": "uint256",
          "name": "",
          "type": "uint256"
        }
      ],
      "name": "projectMaxInvocations",
      "outputs": [
        {
          "internalType": "uint256",
          "name": "",
          "type": "uint256"
        }
      ],
      "stateMutability": "view",
      "type": "function"
    },
    {
      "inputs": [
        {
          "internalType": "uint256",
          "name": "_projectId",
          "type": "uint256"
        }
      ],
      "name": "projectMaxInvocationsPerAddress",
      "outputs": [
        {
          "internalType": "uint256",
          "name": "",
          "type": "uint256"
        }
      ],
      "stateMutability": "view",
      "type": "function"
    },
    {
      "inputs": [
        {
          "internalType": "uint256",
          "name": "",
          "type": "uint256"
        }
      ],
      "name": "projectMaxInvocationsPerAddressOverride",
      "outputs": [
        {
          "internalType": "uint256",
          "name": "",
          "type": "uint256"
        }
      ],
      "stateMutability": "view",
      "type": "function"
    },
    {
      "inputs": [
        {
          "internalType": "uint256",
          "name": "",
          "type": "uint256"
        }
      ],
      "name": "projectMerkleRoot",
      "outputs": [
        {
          "internalType": "bytes32",
          "name": "",
          "type": "bytes32"
        }
      ],
      "stateMutability": "view",
      "type": "function"
    },
    {
      "inputs": [
        {
          "internalType": "uint256",
          "name": "_projectId",
          "type": "uint256"
        },
        {
          "internalType": "address",
          "name": "_address",
          "type": "address"
        }
      ],
      "name": "projectRemainingInvocationsForAddress",
      "outputs": [
        {
          "internalType": "bool",
          "name": "projectLimitsMintInvocationsPerAddress",
          "type": "bool"
        },
        {
          "internalType": "uint256",
          "name": "mintInvocationsRemaining",
          "type": "uint256"
        }
      ],
      "stateMutability": "view",
      "type": "function"
    },
    {
      "inputs": [
        {
          "internalType": "uint256",
          "name": "",
          "type": "uint256"
        }
      ],
      "name": "projectUseMaxInvocationsPerAddressOverride",
      "outputs": [
        {
          "internalType": "bool",
          "name": "",
          "type": "bool"
        }
      ],
      "stateMutability": "view",
      "type": "function"
    },
    {
      "inputs": [
        {
          "internalType": "uint256",
          "name": "",
          "type": "uint256"
        },
        {
          "internalType": "address",
          "name": "",
          "type": "address"
        }
      ],
      "name": "projectUserMintInvocations",
      "outputs": [
        {
          "internalType": "uint256",
          "name": "",
          "type": "uint256"
        }
      ],
      "stateMutability": "view",
      "type": "function"
    },
    {
      "inputs": [
        {
          "internalType": "uint256",
          "name": "_projectId",
          "type": "uint256"
        },
        {
          "internalType": "bytes32[]",
          "name": "_proof",
          "type": "bytes32[]"
        }
      ],
      "name": "purchase",
      "outputs": [
        {
          "internalType": "uint256",
          "name": "tokenId",
          "type": "uint256"
        }
      ],
      "stateMutability": "payable",
      "type": "function"
    },
    {
      "inputs": [
        {
          "internalType": "uint256",
          "name": "",
          "type": "uint256"
        }
      ],
      "name": "purchase",
      "outputs": [
        {
          "internalType": "uint256",
          "name": "",
          "type": "uint256"
        }
      ],
      "stateMutability": "payable",
      "type": "function"
    },
    {
      "inputs": [
        {
          "internalType": "address",
          "name": "_to",
          "type": "address"
        },
        {
          "internalType": "uint256",
          "name": "_projectId",
          "type": "uint256"
        },
        {
          "internalType": "bytes32[]",
          "name": "_proof",
          "type": "bytes32[]"
        }
      ],
      "name": "purchaseTo",
      "outputs": [
        {
          "internalType": "uint256",
          "name": "tokenId",
          "type": "uint256"
        }
      ],
      "stateMutability": "payable",
      "type": "function"
    },
    {
      "inputs": [
        {
          "internalType": "address",
          "name": "",
          "type": "address"
        },
        {
          "internalType": "uint256",
          "name": "",
          "type": "uint256"
        }
      ],
      "name": "purchaseTo",
      "outputs": [
        {
          "internalType": "uint256",
          "name": "",
          "type": "uint256"
        }
      ],
      "stateMutability": "payable",
      "type": "function"
    },
    {
      "inputs": [
        {
          "internalType": "uint256",
          "name": "_projectId",
          "type": "uint256"
        },
        {
          "internalType": "uint24",
          "name": "_maxInvocationsPerAddress",
          "type": "uint24"
        }
      ],
      "name": "setProjectInvocationsPerAddress",
      "outputs": [],
      "stateMutability": "nonpayable",
      "type": "function"
    },
    {
      "inputs": [
        {
          "internalType": "uint256",
          "name": "_projectId",
          "type": "uint256"
        }
      ],
      "name": "setProjectMaxInvocations",
      "outputs": [],
      "stateMutability": "nonpayable",
      "type": "function"
    },
    {
      "inputs": [
        {
          "internalType": "uint256",
          "name": "_projectId",
          "type": "uint256"
        }
      ],
      "name": "togglePurchaseToDisabled",
      "outputs": [],
      "stateMutability": "view",
      "type": "function"
    },
    {
      "inputs": [
        {
          "internalType": "uint256",
          "name": "_projectId",
          "type": "uint256"
        },
        {
          "internalType": "bytes32",
          "name": "_root",
          "type": "bytes32"
        }
      ],
      "name": "updateMerkleRoot",
      "outputs": [],
      "stateMutability": "nonpayable",
      "type": "function"
    },
    {
      "inputs": [
        {
          "internalType": "uint256",
          "name": "_projectId",
          "type": "uint256"
        },
        {
          "internalType": "uint256",
          "name": "_pricePerTokenInWei",
          "type": "uint256"
        }
      ],
      "name": "updatePricePerTokenInWei",
      "outputs": [],
      "stateMutability": "nonpayable",
      "type": "function"
    },
    {
      "inputs": [
        {
          "internalType": "uint256",
          "name": "_projectId",
          "type": "uint256"
        },
        {
          "internalType": "bytes32[]",
          "name": "_proof",
          "type": "bytes32[]"
        },
        {
          "internalType": "address",
          "name": "_address",
          "type": "address"
        }
      ],
      "name": "verifyAddress",
      "outputs": [
        {
          "internalType": "bool",
          "name": "",
          "type": "bool"
        }
      ],
      "stateMutability": "view",
      "type": "function"
    }
  ],
  "bytecode": "0x6101006040523480156200001257600080fd5b50604051620020ee380380620020ee833981016040819052620000359162000157565b600160009081556001600160a01b03808416608081905260a081905290831660c081905260e0819052604080516392a10f8360e01b81529051929391926392a10f8392600480840193602093929083900390910190829087803b1580156200009c57600080fd5b505af1158015620000b1573d6000803e3d6000fd5b505050506040513d601f19601f82011682018060405250810190620000d791906200018f565b6001600160a01b031614620001325760405162461bcd60e51b815260206004820152601860248201527f496c6c6567616c20636f6e74726163742070616972696e670000000000000000604482015260640160405180910390fd5b5050620001b4565b80516001600160a01b03811681146200015257600080fd5b919050565b600080604083850312156200016b57600080fd5b62000176836200013a565b915062000186602084016200013a565b90509250929050565b600060208284031215620001a257600080fd5b620001ad826200013a565b9392505050565b60805160a05160c05160e051611eb36200023b6000396000610875015260006104900152600081816109c001528181610b2201528181610cb601528181610e7201528181610fd7015281816110c301528181611286015281816113350152818161147501528181611530015281816115e70152611734015260006103720152611eb36000f3fe6080604052600436106101265760003560e01c806315bed1591461012b5780631ec2e5231461015e578063202c58051461017e57806338922dac146101915780633aa5fe59146101be57806340d1397e146101de578063462add461461020057806356690aaf146102405780636b453e701461026d5780636cb9b7ff146102a45780636ede4ade146102c4578063774159c6146102e4578063891407c01461034d57806392a10f83146103605780639775f86f146103a1578063aea7d3b9146103b6578063b78713fe146103ee578063cc3352bf1461041e578063d684ec671461043e578063da7e7c501461046b578063dd85582f1461047e578063e9d1e8ac146104b2578063efef39a1146104f9578063f1e3311514610507578063f7bd4b8814610527575b600080fd5b34801561013757600080fd5b5061014b6101463660046118a4565b610547565b6040519081526020015b60405180910390f35b34801561016a57600080fd5b5061014b61017936600461191d565b61057e565b61014b61018c366004611973565b61059d565b34801561019d57600080fd5b5061014b6101ac3660046118a4565b60036020526000908152604090205481565b3480156101ca57600080fd5b5061014b6101d93660046119ce565b61096e565b3480156101ea57600080fd5b506101fe6101f93660046118a4565b6109a8565b005b34801561020c57600080fd5b5061023061021b3660046118a4565b60046020526000908152604090205460ff1681565b6040519015158152602001610155565b34801561024c57600080fd5b5061014b61025b3660046118a4565b60056020526000908152604090205481565b34801561027957600080fd5b5061028d6102883660046119eb565b610ab1565b604080519215158352602083019190915201610155565b3480156102b057600080fd5b506101fe6102bf366004611a1b565b610b0a565b3480156102d057600080fd5b506102306102df366004611a3d565b610c29565b3480156102f057600080fd5b5061033d6102ff3660046118a4565b60009081526007602090815260408083205460068352818420548251808401909352600383526208aa8960eb1b9383019390935260ff169391929091565b6040516101559493929190611af7565b61014b61035b366004611b31565b610c57565b34801561036c57600080fd5b506103947f000000000000000000000000000000000000000000000000000000000000000081565b6040516101559190611b5d565b3480156103ad57600080fd5b5061014b600181565b3480156103c257600080fd5b5061014b6103d13660046119eb565b600860209081526000928352604080842090915290825290205481565b3480156103fa57600080fd5b506102306104093660046118a4565b60026020526000908152604090205460ff1681565b34801561042a57600080fd5b506101fe610439366004611b71565b610c9e565b34801561044a57600080fd5b5061014b6104593660046118a4565b60016020526000908152604090205481565b61014b610479366004611b9e565b610e4c565b34801561048a57600080fd5b506103947f000000000000000000000000000000000000000000000000000000000000000081565b3480156104be57600080fd5b506104ec6040518060400160405280600e81526020016d04d696e7465724d65726b6c6556360941b81525081565b6040516101559190611be9565b61014b61035b3660046118a4565b34801561051357600080fd5b506101fe610522366004611a1b565b610e5a565b34801561053357600080fd5b506101fe6105423660046118a4565b610fc0565b60008181526002602052604081205460ff1615610571575060009081526003602052604090205490565b506001919050565b919050565b600061059561058c8361096e565b85908590611182565b949350505050565b6000600260005414156105f75760405162461bcd60e51b815260206004820152601f60248201527f5265656e7472616e637947756172643a207265656e7472616e742063616c6c0060448201526064015b60405180910390fd5b600260009081558481526004602052604090205460ff16156106695760405162461bcd60e51b815260206004820152602560248201527f4d6178696d756d206e756d626572206f6620696e766f636174696f6e732072656044820152641858da195960da1b60648201526084016105ee565b6000848152600660205260409020543410156106c75760405162461bcd60e51b815260206004820181905260248201527f4d7573742073656e64206d696e696d756d2076616c756520746f206d696e742160448201526064016105ee565b60008481526007602052604090205460ff1661071c5760405162461bcd60e51b8152602060048201526014602482015273141c9a58d9481b9bdd0818dbdb999a59dd5c995960621b60448201526064016105ee565b61072884848433610c29565b61076b5760405162461bcd60e51b815260206004820152601460248201527324b73b30b634b21026b2b935b63290383937b7b360611b60448201526064016105ee565b60008481526002602052604081205460ff16610788576001610798565b6000858152600360205260409020545b60008681526008602090815260408083203384529091529020549091508111806107c0575080155b6108265760405162461bcd60e51b815260206004820152603160248201527f4d6178696d756d206e756d626572206f6620696e766f636174696f6e732070656044820152701c881859191c995cdcc81c995858da1959607a1b60648201526084016105ee565b600085815260086020908152604080832033808552925291829020805460010190559051630d4d151360e01b81526001600160a01b0388811660048301526024820188905260448201929092527f000000000000000000000000000000000000000000000000000000000000000090911690630d4d151390606401602060405180830381600087803b1580156108bb57600080fd5b505af11580156108cf573d6000803e3d6000fd5b505050506040513d601f19601f820116820180604052508101906108f39190611bfc565b60008681526005602052604090205490925015801590610938575060008581526005602052604090205461092990600190611c2b565b610936620f424084611c58565b145b15610957576000858152600460205260409020805460ff191660011790555b610960856111ce565b506001600055949350505050565b6040516001600160601b0319606083901b166020820152600090603401604051602081830303815290604052805190602001209050919050565b60405163a47d29cb60e01b81526004810182905281907f00000000000000000000000000000000000000000000000000000000000000006001600160a01b03169063a47d29cb9060240160206040518083038186803b158015610a0a57600080fd5b505afa158015610a1e573d6000803e3d6000fd5b505050506040513d601f19601f82011682018060405250810190610a429190611c6c565b6001600160a01b0316336001600160a01b031614610a725760405162461bcd60e51b81526004016105ee90611c89565b60405162461bcd60e51b81526020600482015260146024820152731058dd1a5bdb881b9bdd081cdd5c1c1bdc9d195960621b60448201526064016105ee565b6000806000610abf85610547565b905080610acb57610b02565b60008581526008602090815260408083206001600160a01b03881684529091529020546001935080821115610b005780820392505b505b509250929050565b60405163a47d29cb60e01b81526004810183905282907f00000000000000000000000000000000000000000000000000000000000000006001600160a01b03169063a47d29cb9060240160206040518083038186803b158015610b6c57600080fd5b505afa158015610b80573d6000803e3d6000fd5b505050506040513d601f19601f82011682018060405250810190610ba49190611c6c565b6001600160a01b0316336001600160a01b031614610bd45760405162461bcd60e51b81526004016105ee90611c89565b60008381526006602090815260408083208590556007909152808220805460ff1916600117905551839185917f26118a27aca826f829f3bfe21b140b4455c00b434849bd0da50d1e1a9720fb5c9190a3505050565b600084815260016020526040812054610c4e90610c458461096e565b8691869161185a565b95945050505050565b60405162461bcd60e51b815260206004820152601960248201527826bab9ba10383937bb34b2329026b2b935b63290383937b7b360391b60448201526000906064016105ee565b60405163a47d29cb60e01b81526004810183905282907f00000000000000000000000000000000000000000000000000000000000000006001600160a01b03169063a47d29cb9060240160206040518083038186803b158015610d0057600080fd5b505afa158015610d14573d6000803e3d6000fd5b505050506040513d601f19601f82011682018060405250810190610d389190611c6c565b6001600160a01b0316336001600160a01b031614610d685760405162461bcd60e51b81526004016105ee90611c89565b6000838152600260209081526040808320805460ff19166001908117909155600383529281902062ffffff861690558051797573654d61784d696e7473506572416464724f7665727269646560301b81529182019290925284917fc594e23b9382359e253cdaba84b0aefe5ad09ccfd5706891673743b37229c2d2910160405180910390a260408051766d61784d696e7473506572416464724f7665727269646560481b815262ffffff8416602082015284917f8a5820ca7148caeda3176e8d60a3bb413b4bcca45922ac2178b1ee191fe320eb91015b60405180910390a2505050565b60006105953385858561059d565b60405163a47d29cb60e01b81526004810183905282907f00000000000000000000000000000000000000000000000000000000000000006001600160a01b03169063a47d29cb9060240160206040518083038186803b158015610ebc57600080fd5b505afa158015610ed0573d6000803e3d6000fd5b505050506040513d601f19601f82011682018060405250810190610ef49190611c6c565b6001600160a01b0316336001600160a01b031614610f245760405162461bcd60e51b81526004016105ee90611c89565b81610f695760405162461bcd60e51b8152602060048201526015602482015274149bdbdd081b5d5cdd081899481c1c9bdd9a591959605a1b60448201526064016105ee565b6000838152600160209081526040918290208490558151691b595c9adb19549bdbdd60b21b815290810184905284917f729c0261c7e3c976b9a392f2bb08064d7a03c82f9f1473ab0ee284c985df08159101610e3f565b604051633af32abf60e01b81526001600160a01b037f00000000000000000000000000000000000000000000000000000000000000001690633af32abf9061100c903390600401611b5d565b60206040518083038186803b15801561102457600080fd5b505afa158015611038573d6000803e3d6000fd5b505050506040513d601f19601f8201168201806040525081019061105c9190611cbe565b6110a05760405162461bcd60e51b815260206004820152601560248201527413db9b1e4810dbdc99481dda1a5d195b1a5cdd1959605a1b60448201526064016105ee565b6040516346161b1160e11b81526004810182905260009081906001600160a01b037f00000000000000000000000000000000000000000000000000000000000000001690638c2c36229060240160006040518083038186803b15801561110557600080fd5b505afa158015611119573d6000803e3d6000fd5b505050506040513d6000823e601f3d908101601f191682016040526111419190810190611cfa565b50505060008981526005602052604090208390555091955093505050508082101561117d576000838152600460205260409020805460ff191690555b505050565b600081815b848110156111c5576111b1828787848181106111a5576111a5611e19565b90506020020135611872565b9150806111bd81611e2f565b915050611187565b50949350505050565b341561185757600081815260066020526040812054906111ee8234611c2b565b9050801561128057604051600090339083908381818185875af1925050503d8060008114611238576040519150601f19603f3d011682016040523d82523d6000602084013e61123d565b606091505b505090508061127e5760405162461bcd60e51b815260206004820152600d60248201526c1499599d5b990819985a5b1959609a1b60448201526064016105ee565b505b600060647f00000000000000000000000000000000000000000000000000000000000000006001600160a01b0316634f029c396040518163ffffffff1660e01b815260040160206040518083038186803b1580156112dd57600080fd5b505afa1580156112f1573d6000803e3d6000fd5b505050506040513d601f19601f820116820180604052508101906113159190611bfc565b61131f9085611e4a565b6113299190611e69565b905080156114625760007f00000000000000000000000000000000000000000000000000000000000000006001600160a01b0316633949f9066040518163ffffffff1660e01b815260040160206040518083038186803b15801561138c57600080fd5b505afa1580156113a0573d6000803e3d6000fd5b505050506040513d601f19601f820116820180604052508101906113c49190611c6c565b6001600160a01b03168260405160006040518083038185875af1925050503d806000811461140e576040519150601f19603f3d011682016040523d82523d6000602084013e611413565b606091505b50509050806114605760405162461bcd60e51b8152602060048201526019602482015278119bdd5b99185d1a5bdb881c185e5b595b9d0819985a5b1959603a1b60448201526064016105ee565b505b600061146e8285611c2b565b90506000807f00000000000000000000000000000000000000000000000000000000000000006001600160a01b031663cc74234b886040518263ffffffff1660e01b81526004016114c191815260200190565b60206040518083038186803b1580156114d957600080fd5b505afa1580156114ed573d6000803e3d6000fd5b505050506040513d601f19601f820116820180604052508101906115119190611bfc565b11156117075760405163cc74234b60e01b8152600481018790526064907f00000000000000000000000000000000000000000000000000000000000000006001600160a01b03169063cc74234b9060240160206040518083038186803b15801561157a57600080fd5b505afa15801561158e573d6000803e3d6000fd5b505050506040513d601f19601f820116820180604052508101906115b29190611bfc565b6115bc9084611e4a565b6115c69190611e69565b9050801561170757604051636bd8225b60e11b8152600481018790526000907f00000000000000000000000000000000000000000000000000000000000000006001600160a01b03169063d7b044b69060240160206040518083038186803b15801561163157600080fd5b505afa158015611645573d6000803e3d6000fd5b505050506040513d601f19601f820116820180604052508101906116699190611c6c565b6001600160a01b03168260405160006040518083038185875af1925050503d80600081146116b3576040519150601f19603f3d011682016040523d82523d6000602084013e6116b8565b606091505b50509050806117055760405162461bcd60e51b81526020600482015260196024820152781059191a5d1a5bdb985b081c185e5b595b9d0819985a5b1959603a1b60448201526064016105ee565b505b60006117138284611c2b565b905080156118505760405163a47d29cb60e01b8152600481018890526000907f00000000000000000000000000000000000000000000000000000000000000006001600160a01b03169063a47d29cb9060240160206040518083038186803b15801561177e57600080fd5b505afa158015611792573d6000803e3d6000fd5b505050506040513d601f19601f820116820180604052508101906117b69190611c6c565b6001600160a01b03168260405160006040518083038185875af1925050503d8060008114611800576040519150601f19603f3d011682016040523d82523d6000602084013e611805565b606091505b505090508061184e5760405162461bcd60e51b8152602060048201526015602482015274105c9d1a5cdd081c185e5b595b9d0819985a5b1959605a1b60448201526064016105ee565b505b5050505050505b50565b600082611868868685611182565b1495945050505050565b600081831061188e57600082815260208490526040902061189d565b60008381526020839052604090205b9392505050565b6000602082840312156118b657600080fd5b5035919050565b60008083601f8401126118cf57600080fd5b5081356001600160401b038111156118e657600080fd5b6020830191508360208260051b850101111561190157600080fd5b9250929050565b6001600160a01b038116811461185757600080fd5b60008060006040848603121561193257600080fd5b83356001600160401b0381111561194857600080fd5b611954868287016118bd565b909450925050602084013561196881611908565b809150509250925092565b6000806000806060858703121561198957600080fd5b843561199481611908565b93506020850135925060408501356001600160401b038111156119b657600080fd5b6119c2878288016118bd565b95989497509550505050565b6000602082840312156119e057600080fd5b813561189d81611908565b600080604083850312156119fe57600080fd5b823591506020830135611a1081611908565b809150509250929050565b60008060408385031215611a2e57600080fd5b50508035926020909101359150565b60008060008060608587031215611a5357600080fd5b8435935060208501356001600160401b03811115611a7057600080fd5b611a7c878288016118bd565b9094509250506040850135611a9081611908565b939692955090935050565b60005b83811015611ab6578181015183820152602001611a9e565b83811115611ac5576000848401525b50505050565b60008151808452611ae3816020860160208601611a9b565b601f01601f19169290920160200192915050565b8415158152836020820152608060408201526000611b186080830185611acb565b905060018060a01b038316606083015295945050505050565b60008060408385031215611b4457600080fd5b8235611b4f81611908565b946020939093013593505050565b6001600160a01b0391909116815260200190565b60008060408385031215611b8457600080fd5b82359150602083013562ffffff81168114611a1057600080fd5b600080600060408486031215611bb357600080fd5b8335925060208401356001600160401b03811115611bd057600080fd5b611bdc868287016118bd565b9497909650939450505050565b60208152600061189d6020830184611acb565b600060208284031215611c0e57600080fd5b5051919050565b634e487b7160e01b600052601160045260246000fd5b600082821015611c3d57611c3d611c15565b500390565b634e487b7160e01b600052601260045260246000fd5b600082611c6757611c67611c42565b500690565b600060208284031215611c7e57600080fd5b815161189d81611908565b6020808252600b908201526a13db9b1e48105c9d1a5cdd60aa1b604082015260600190565b8051801515811461057957600080fd5b600060208284031215611cd057600080fd5b61189d82611cae565b805161057981611908565b634e487b7160e01b600052604160045260246000fd5b60008060008060008060008060006101208a8c031215611d1957600080fd5b8951611d2481611908565b8099505060208a0151975060408a0151965060608a01519550611d4960808b01611cae565b945060a08a0151611d5981611908565b60c08b015160e08c015191955093506001600160401b0380821115611d7d57600080fd5b818c0191508c601f830112611d9157600080fd5b815181811115611da357611da3611ce4565b604051601f8201601f19908116603f01168101908382118183101715611dcb57611dcb611ce4565b816040528281528f6020848701011115611de457600080fd5b611df5836020830160208801611a9b565b8096505050505050611e0a6101008b01611cd9565b90509295985092959850929598565b634e487b7160e01b600052603260045260246000fd5b6000600019821415611e4357611e43611c15565b5060010190565b6000816000190483118215151615611e6457611e64611c15565b500290565b600082611e7857611e78611c42565b50049056fea264697066735822122042badb636023f18e7a4ae32d0fccf760f92f290cae98ded8d997edbc99424a0264736f6c63430008090033",
  "linkReferences": {},
  "deployedLinkReferences": {}
}