{
  "_format": "hh-sol-artifact-1",
  "contractName": "MinterSetPriceERC20V1",
  "sourceName": "contracts/minter-suite/MinterSetPriceERC20V1.sol",
  "abi": [
    {
      "inputs": [
        {
          "internalType": "address",
          "name": "_genArt721Address",
          "type": "address"
        },
        {
          "internalType": "address",
          "name": "_minterFilter",
          "type": "address"
        }
      ],
      "stateMutability": "nonpayable",
      "type": "constructor"
    },
    {
      "anonymous": false,
      "inputs": [
        {
          "indexed": true,
          "internalType": "uint256",
          "name": "_projectId",
          "type": "uint256"
        },
        {
          "indexed": true,
          "internalType": "uint256",
          "name": "_pricePerTokenInWei",
          "type": "uint256"
        }
      ],
      "name": "PricePerTokenInWeiUpdated",
      "type": "event"
    },
    {
      "anonymous": false,
      "inputs": [
        {
          "indexed": true,
          "internalType": "uint256",
          "name": "_projectId",
          "type": "uint256"
        },
        {
          "indexed": true,
          "internalType": "address",
          "name": "_currencyAddress",
          "type": "address"
        },
        {
          "indexed": false,
          "internalType": "string",
          "name": "_currencySymbol",
          "type": "string"
        }
      ],
      "name": "ProjectCurrencyInfoUpdated",
      "type": "event"
    },
    {
      "anonymous": false,
      "inputs": [
        {
          "indexed": true,
          "internalType": "uint256",
          "name": "_projectId",
          "type": "uint256"
        },
        {
          "indexed": false,
          "internalType": "bool",
          "name": "_purchaseToDisabled",
          "type": "bool"
        }
      ],
      "name": "PurchaseToDisabledUpdated",
      "type": "event"
    },
    {
      "inputs": [
        {
          "internalType": "uint256",
          "name": "_projectId",
          "type": "uint256"
        }
      ],
      "name": "checkYourAllowanceOfProjectERC20",
      "outputs": [
        {
          "internalType": "uint256",
          "name": "remaining",
          "type": "uint256"
        }
      ],
      "stateMutability": "view",
      "type": "function"
    },
    {
      "inputs": [],
      "name": "genArt721CoreAddress",
      "outputs": [
        {
          "internalType": "address",
          "name": "",
          "type": "address"
        }
      ],
      "stateMutability": "view",
      "type": "function"
    },
    {
      "inputs": [
        {
          "internalType": "uint256",
          "name": "_projectId",
          "type": "uint256"
        }
      ],
      "name": "getPriceInfo",
      "outputs": [
        {
          "internalType": "bool",
          "name": "isConfigured",
          "type": "bool"
        },
        {
          "internalType": "uint256",
          "name": "tokenPriceInWei",
          "type": "uint256"
        },
        {
          "internalType": "string",
          "name": "currencySymbol",
          "type": "string"
        },
        {
          "internalType": "address",
          "name": "currencyAddress",
          "type": "address"
        }
      ],
      "stateMutability": "view",
      "type": "function"
    },
    {
      "inputs": [
        {
          "internalType": "uint256",
          "name": "_projectId",
          "type": "uint256"
        }
      ],
      "name": "getYourBalanceOfProjectERC20",
      "outputs": [
        {
          "internalType": "uint256",
          "name": "balance",
          "type": "uint256"
        }
      ],
      "stateMutability": "view",
      "type": "function"
    },
    {
      "inputs": [],
      "name": "minterFilterAddress",
      "outputs": [
        {
          "internalType": "address",
          "name": "",
          "type": "address"
        }
      ],
      "stateMutability": "view",
      "type": "function"
    },
    {
      "inputs": [],
      "name": "minterType",
      "outputs": [
        {
          "internalType": "string",
          "name": "",
          "type": "string"
        }
      ],
      "stateMutability": "view",
      "type": "function"
    },
    {
      "inputs": [
        {
          "internalType": "uint256",
          "name": "",
          "type": "uint256"
        }
      ],
      "name": "projectMaxHasBeenInvoked",
      "outputs": [
        {
          "internalType": "bool",
          "name": "",
          "type": "bool"
        }
      ],
      "stateMutability": "view",
      "type": "function"
    },
    {
      "inputs": [
        {
          "internalType": "uint256",
          "name": "",
          "type": "uint256"
        }
      ],
      "name": "projectMaxInvocations",
      "outputs": [
        {
          "internalType": "uint256",
          "name": "",
          "type": "uint256"
        }
      ],
      "stateMutability": "view",
      "type": "function"
    },
    {
      "inputs": [
        {
          "internalType": "address",
          "name": "",
          "type": "address"
        },
        {
          "internalType": "uint256",
          "name": "",
          "type": "uint256"
        }
      ],
      "name": "projectMintCounter",
      "outputs": [
        {
          "internalType": "uint256",
          "name": "",
          "type": "uint256"
        }
      ],
      "stateMutability": "view",
      "type": "function"
    },
    {
      "inputs": [
        {
          "internalType": "uint256",
          "name": "",
          "type": "uint256"
        }
      ],
      "name": "projectMintLimit",
      "outputs": [
        {
          "internalType": "uint256",
          "name": "",
          "type": "uint256"
        }
      ],
      "stateMutability": "view",
      "type": "function"
    },
    {
      "inputs": [
        {
          "internalType": "uint256",
          "name": "_projectId",
          "type": "uint256"
        }
      ],
      "name": "purchase",
      "outputs": [
        {
          "internalType": "uint256",
          "name": "tokenId",
          "type": "uint256"
        }
      ],
      "stateMutability": "payable",
      "type": "function"
    },
    {
      "inputs": [
        {
          "internalType": "address",
          "name": "_to",
          "type": "address"
        },
        {
          "internalType": "uint256",
          "name": "_projectId",
          "type": "uint256"
        }
      ],
      "name": "purchaseTo",
      "outputs": [
        {
          "internalType": "uint256",
          "name": "tokenId",
          "type": "uint256"
        }
      ],
      "stateMutability": "payable",
      "type": "function"
    },
    {
      "inputs": [
        {
          "internalType": "uint256",
          "name": "_projectId",
          "type": "uint256"
        }
      ],
      "name": "setProjectMaxInvocations",
      "outputs": [],
      "stateMutability": "nonpayable",
      "type": "function"
    },
    {
      "inputs": [
        {
          "internalType": "uint256",
          "name": "_projectId",
          "type": "uint256"
        },
        {
          "internalType": "uint8",
          "name": "_limit",
          "type": "uint8"
        }
      ],
      "name": "setProjectMintLimit",
      "outputs": [],
      "stateMutability": "nonpayable",
      "type": "function"
    },
    {
      "inputs": [
        {
          "internalType": "uint256",
          "name": "_projectId",
          "type": "uint256"
        }
      ],
      "name": "togglePurchaseToDisabled",
      "outputs": [],
      "stateMutability": "view",
      "type": "function"
    },
    {
      "inputs": [
        {
          "internalType": "uint256",
          "name": "_projectId",
          "type": "uint256"
        },
        {
          "internalType": "uint256",
          "name": "_pricePerTokenInWei",
          "type": "uint256"
        }
      ],
      "name": "updatePricePerTokenInWei",
      "outputs": [],
      "stateMutability": "nonpayable",
      "type": "function"
    },
    {
      "inputs": [
        {
          "internalType": "uint256",
          "name": "_projectId",
          "type": "uint256"
        },
        {
          "internalType": "string",
          "name": "_currencySymbol",
          "type": "string"
        },
        {
          "internalType": "address",
          "name": "_currencyAddress",
          "type": "address"
        }
      ],
      "name": "updateProjectCurrencyInfo",
      "outputs": [],
      "stateMutability": "nonpayable",
      "type": "function"
    }
  ],
  "bytecode": "0x6101006040523480156200001257600080fd5b50604051620026be380380620026be833981016040819052620000359162000157565b600160009081556001600160a01b03808416608081905260a081905290831660c081905260e0819052604080516392a10f8360e01b81529051929391926392a10f8392600480840193602093929083900390910190829087803b1580156200009c57600080fd5b505af1158015620000b1573d6000803e3d6000fd5b505050506040513d601f19601f82011682018060405250810190620000d791906200018f565b6001600160a01b031614620001325760405162461bcd60e51b815260206004820152601860248201527f496c6c6567616c20636f6e74726163742070616972696e670000000000000000604482015260640160405180910390fd5b5050620001b4565b80516001600160a01b03811681146200015257600080fd5b919050565b600080604083850312156200016b57600080fd5b62000176836200013a565b915062000186602084016200013a565b90509250929050565b600060208284031215620001a257600080fd5b620001ad826200013a565b9392505050565b60805160a05160c05160e0516124596200026560003960006109b4015260006103000152600081816103da015281816104b4015281816105bd01528181610e1f015281816110670152818161112b01528181611208015281816112ea015281816113eb015281816114a60152818161157e015281816116b9015281816118660152818161191501528181611a5501528181611b1001528181611bc70152611d140152600061027f01526124596000f3fe6080604052600436106100de5760003560e01c8063891407c011610085578063891407c01461025a57806392a10f831461026d578063a9809600146102ae578063d195b365146102ce578063dd85582f146102ee578063e9d1e8ac14610322578063efef39a114610370578063f463210314610383578063f7bd4b88146103a357600080fd5b8063231c2281146100e35780633a4657b41461010557806340d1397e14610150578063462add461461017057806356690aaf146101b057806362f7a7ed146101dd5780636cb9b7ff1461020a578063774159c61461022a575b600080fd5b3480156100ef57600080fd5b506101036100fe366004611ed2565b6103c3565b005b34801561011157600080fd5b5061013d610120366004611f1d565b600160209081526000928352604080842090915290825290205481565b6040519081526020015b60405180910390f35b34801561015c57600080fd5b5061010361016b366004611f49565b61049c565b34801561017c57600080fd5b506101a061018b366004611f49565b60036020526000908152604090205460ff1681565b6040519015158152602001610147565b3480156101bc57600080fd5b5061013d6101cb366004611f49565b60046020526000908152604090205481565b3480156101e957600080fd5b5061013d6101f8366004611f49565b60026020526000908152604090205481565b34801561021657600080fd5b50610103610225366004611f62565b6105a5565b34801561023657600080fd5b5061024a610245366004611f49565b6106c4565b6040516101479493929190611fe0565b61013d610268366004611f1d565b6107c1565b34801561027957600080fd5b506102a17f000000000000000000000000000000000000000000000000000000000000000081565b604051610147919061201a565b3480156102ba57600080fd5b5061013d6102c9366004611f49565b610d75565b3480156102da57600080fd5b506101036102e936600461209d565b610e07565b3480156102fa57600080fd5b506102a17f000000000000000000000000000000000000000000000000000000000000000081565b34801561032e57600080fd5b50610363604051806040016040528060158152602001744d696e74657253657450726963654552433230563160581b81525081565b604051610147919061213b565b61013d61037e366004611f49565b611002565b34801561038f57600080fd5b5061013d61039e366004611f49565b61100e565b3480156103af57600080fd5b506101036103be366004611f49565b611050565b604051633af32abf60e01b81526001600160a01b037f00000000000000000000000000000000000000000000000000000000000000001690633af32abf9061040f90339060040161201a565b60206040518083038186803b15801561042757600080fd5b505afa15801561043b573d6000803e3d6000fd5b505050506040513d601f19601f8201168201806040525081019061045f919061216a565b6104845760405162461bcd60e51b815260040161047b90612185565b60405180910390fd5b60009182526002602052604090912060ff9091169055565b60405163a47d29cb60e01b81526004810182905281907f00000000000000000000000000000000000000000000000000000000000000006001600160a01b03169063a47d29cb9060240160206040518083038186803b1580156104fe57600080fd5b505afa158015610512573d6000803e3d6000fd5b505050506040513d601f19601f8201168201806040525081019061053691906121b4565b6001600160a01b0316336001600160a01b0316146105665760405162461bcd60e51b815260040161047b906121d1565b60405162461bcd60e51b81526020600482015260146024820152731058dd1a5bdb881b9bdd081cdd5c1c1bdc9d195960621b604482015260640161047b565b60405163a47d29cb60e01b81526004810183905282907f00000000000000000000000000000000000000000000000000000000000000006001600160a01b03169063a47d29cb9060240160206040518083038186803b15801561060757600080fd5b505afa15801561061b573d6000803e3d6000fd5b505050506040513d601f19601f8201168201806040525081019061063f91906121b4565b6001600160a01b0316336001600160a01b03161461066f5760405162461bcd60e51b815260040161047b906121d1565b60008381526005602090815260408083208590556006909152808220805460ff1916600117905551839185917f26118a27aca826f829f3bfe21b140b4455c00b434849bd0da50d1e1a9720fb5c9190a3505050565b6000818152600660209081526040808320546005835281842054600890935292205460ff909216916060906001600160a01b031680610720576040518060400160405280600381526020016208aa8960eb1b81525091506107ba565b60008581526007602052604090208054610739906121f6565b80601f0160208091040260200160405190810160405280929190818152602001828054610765906121f6565b80156107b25780601f10610787576101008083540402835291602001916107b2565b820191906000526020600020905b81548152906001019060200180831161079557829003601f168201915b505050505091505b9193509193565b6000600260005414156108165760405162461bcd60e51b815260206004820152601f60248201527f5265656e7472616e637947756172643a207265656e7472616e742063616c6c00604482015260640161047b565b600260009081558281526003602052604090205460ff16156108885760405162461bcd60e51b815260206004820152602560248201527f4d6178696d756d206e756d626572206f6620696e766f636174696f6e732072656044820152641858da195960da1b606482015260840161047b565b60008281526006602052604090205460ff166108dd5760405162461bcd60e51b8152602060048201526014602482015273141c9a58d9481b9bdd0818dbdb999a59dd5c995960621b604482015260640161047b565b600082815260026020526040902054156109885760008281526002602090815260408083205433845260018352818420868552909252909120541061095c5760405162461bcd60e51b815260206004820152601560248201527414995858da1959081b5a5b9d1a5b99c81b1a5b5a5d605a1b604482015260640161047b565b336000908152600160209081526040808320858452909152812080549161098283612247565b91905055505b604051630d4d151360e01b81526001600160a01b038481166004830152602482018490523360448301527f00000000000000000000000000000000000000000000000000000000000000001690630d4d151390606401602060405180830381600087803b1580156109f857600080fd5b505af1158015610a0c573d6000803e3d6000fd5b505050506040513d601f19601f82011682018060405250810190610a309190612262565b60008381526004602052604090205490915015801590610a755750600082815260046020526040902054610a669060019061227b565b610a73620f4240836122a8565b145b15610a94576000828152600360205260409020805460ff191660011790555b6000828152600860205260409020546001600160a01b031615610d03573415610b255760405162461bcd60e51b815260206004820152603f60248201527f746869732070726f6a6563742061636365707473206120646966666572656e7460448201527f2063757272656e637920616e642063616e6e6f74206163636570742045544800606482015260840161047b565b600082815260056020908152604080832054600890925291829020549151636eb1769f60e11b815233600482015230602482015290916001600160a01b03169063dd62ed3e9060440160206040518083038186803b158015610b8657600080fd5b505afa158015610b9a573d6000803e3d6000fd5b505050506040513d601f19601f82011682018060405250810190610bbe9190612262565b1015610c175760405162461bcd60e51b815260206004820152602260248201527f496e73756666696369656e742046756e647320417070726f76656420666f72206044820152610a8b60f31b606482015260840161047b565b6000828152600560209081526040808320546008909252918290205491516370a0823160e01b815290916001600160a01b0316906370a0823190610c5f90339060040161201a565b60206040518083038186803b158015610c7757600080fd5b505afa158015610c8b573d6000803e3d6000fd5b505050506040513d601f19601f82011682018060405250810190610caf9190612262565b1015610cf55760405162461bcd60e51b815260206004820152601560248201527424b739bab33334b1b4b2b73a103130b630b731b29760591b604482015260640161047b565b610cfe826111ea565b610d6a565b600082815260056020526040902054341015610d615760405162461bcd60e51b815260206004820181905260248201527f4d7573742073656e64206d696e696d756d2076616c756520746f206d696e7421604482015260640161047b565b610d6a826117ae565b600160005592915050565b6000818152600860205260408082205490516370a0823160e01b81526001600160a01b03909116906370a0823190610db190339060040161201a565b60206040518083038186803b158015610dc957600080fd5b505afa158015610ddd573d6000803e3d6000fd5b505050506040513d601f19601f82011682018060405250810190610e019190612262565b92915050565b60405163a47d29cb60e01b81526004810184905283907f00000000000000000000000000000000000000000000000000000000000000006001600160a01b03169063a47d29cb9060240160206040518083038186803b158015610e6957600080fd5b505afa158015610e7d573d6000803e3d6000fd5b505050506040513d601f19601f82011682018060405250810190610ea191906121b4565b6001600160a01b0316336001600160a01b031614610ed15760405162461bcd60e51b815260040161047b906121d1565b6040516208aa8960eb1b60208201526001600160a01b03831615906023016040516020818303038152906040528051906020012084604051602001610f1691906122bc565b6040516020818303038152906040528051906020012014151514610f775760405162461bcd60e51b8152602060048201526018602482015277455448206973206f6e6c79206e756c6c206164647265737360401b604482015260640161047b565b60008481526007602090815260409091208451610f9692860190611e39565b506000848152600860205260409081902080546001600160a01b0319166001600160a01b038516908117909155905185907fe6c8c6160f844a27204e2b7fb4b7fb9f10e5d322fa850096bef29dc1d0f445c190610ff490879061213b565b60405180910390a350505050565b6000610e0133836107c1565b600081815260086020526040808220549051636eb1769f60e11b81523360048201523060248201526001600160a01b039091169063dd62ed3e90604401610db1565b604051633af32abf60e01b81526001600160a01b037f00000000000000000000000000000000000000000000000000000000000000001690633af32abf9061109c90339060040161201a565b60206040518083038186803b1580156110b457600080fd5b505afa1580156110c8573d6000803e3d6000fd5b505050506040513d601f19601f820116820180604052508101906110ec919061216a565b6111085760405162461bcd60e51b815260040161047b90612185565b6040516346161b1160e11b81526004810182905260009081906001600160a01b037f00000000000000000000000000000000000000000000000000000000000000001690638c2c36229060240160006040518083038186803b15801561116d57600080fd5b505afa158015611181573d6000803e3d6000fd5b505050506040513d6000823e601f3d908101601f191682016040526111a991908101906122e3565b5050506000898152600460205260409020839055509195509350505050808210156111e5576000838152600360205260409020805460ff191690555b505050565b600060056000838152602001908152602001600020549050600060647f00000000000000000000000000000000000000000000000000000000000000006001600160a01b0316634f029c396040518163ffffffff1660e01b815260040160206040518083038186803b15801561125f57600080fd5b505afa158015611273573d6000803e3d6000fd5b505050506040513d601f19601f820116820180604052508101906112979190612262565b6112a190846123cc565b6112ab91906123eb565b905080156113d857600083815260086020908152604091829020548251631ca4fc8360e11b815292516001600160a01b03918216936323b872dd9333937f00000000000000000000000000000000000000000000000000000000000000001692633949f906926004808201939291829003018186803b15801561132d57600080fd5b505afa158015611341573d6000803e3d6000fd5b505050506040513d601f19601f8201168201806040525081019061136591906121b4565b846040518463ffffffff1660e01b8152600401611384939291906123ff565b602060405180830381600087803b15801561139e57600080fd5b505af11580156113b2573d6000803e3d6000fd5b505050506040513d601f19601f820116820180604052508101906113d6919061216a565b505b60006113e4828461227b565b90506000807f00000000000000000000000000000000000000000000000000000000000000006001600160a01b031663cc74234b876040518263ffffffff1660e01b815260040161143791815260200190565b60206040518083038186803b15801561144f57600080fd5b505afa158015611463573d6000803e3d6000fd5b505050506040513d601f19601f820116820180604052508101906114879190612262565b111561166b5760405163cc74234b60e01b8152600481018690526064907f00000000000000000000000000000000000000000000000000000000000000006001600160a01b03169063cc74234b9060240160206040518083038186803b1580156114f057600080fd5b505afa158015611504573d6000803e3d6000fd5b505050506040513d601f19601f820116820180604052508101906115289190612262565b61153290846123cc565b61153c91906123eb565b9050801561166b5760008581526008602052604090819020549051636bd8225b60e11b8152600481018790526001600160a01b03918216916323b872dd9133917f0000000000000000000000000000000000000000000000000000000000000000169063d7b044b69060240160206040518083038186803b1580156115c057600080fd5b505afa1580156115d4573d6000803e3d6000fd5b505050506040513d601f19601f820116820180604052508101906115f891906121b4565b846040518463ffffffff1660e01b8152600401611617939291906123ff565b602060405180830381600087803b15801561163157600080fd5b505af1158015611645573d6000803e3d6000fd5b505050506040513d601f19601f82011682018060405250810190611669919061216a565b505b6000611677828461227b565b905080156117a6576000868152600860205260409081902054905163a47d29cb60e01b8152600481018890526001600160a01b03918216916323b872dd9133917f0000000000000000000000000000000000000000000000000000000000000000169063a47d29cb9060240160206040518083038186803b1580156116fb57600080fd5b505afa15801561170f573d6000803e3d6000fd5b505050506040513d601f19601f8201168201806040525081019061173391906121b4565b846040518463ffffffff1660e01b8152600401611752939291906123ff565b602060405180830381600087803b15801561176c57600080fd5b505af1158015611780573d6000803e3d6000fd5b505050506040513d601f19601f820116820180604052508101906117a4919061216a565b505b505050505050565b3415611e3657600081815260056020526040812054906117ce823461227b565b9050801561186057604051600090339083908381818185875af1925050503d8060008114611818576040519150601f19603f3d011682016040523d82523d6000602084013e61181d565b606091505b505090508061185e5760405162461bcd60e51b815260206004820152600d60248201526c1499599d5b990819985a5b1959609a1b604482015260640161047b565b505b600060647f00000000000000000000000000000000000000000000000000000000000000006001600160a01b0316634f029c396040518163ffffffff1660e01b815260040160206040518083038186803b1580156118bd57600080fd5b505afa1580156118d1573d6000803e3d6000fd5b505050506040513d601f19601f820116820180604052508101906118f59190612262565b6118ff90856123cc565b61190991906123eb565b90508015611a425760007f00000000000000000000000000000000000000000000000000000000000000006001600160a01b0316633949f9066040518163ffffffff1660e01b815260040160206040518083038186803b15801561196c57600080fd5b505afa158015611980573d6000803e3d6000fd5b505050506040513d601f19601f820116820180604052508101906119a491906121b4565b6001600160a01b03168260405160006040518083038185875af1925050503d80600081146119ee576040519150601f19603f3d011682016040523d82523d6000602084013e6119f3565b606091505b5050905080611a405760405162461bcd60e51b8152602060048201526019602482015278119bdd5b99185d1a5bdb881c185e5b595b9d0819985a5b1959603a1b604482015260640161047b565b505b6000611a4e828561227b565b90506000807f00000000000000000000000000000000000000000000000000000000000000006001600160a01b031663cc74234b886040518263ffffffff1660e01b8152600401611aa191815260200190565b60206040518083038186803b158015611ab957600080fd5b505afa158015611acd573d6000803e3d6000fd5b505050506040513d601f19601f82011682018060405250810190611af19190612262565b1115611ce75760405163cc74234b60e01b8152600481018790526064907f00000000000000000000000000000000000000000000000000000000000000006001600160a01b03169063cc74234b9060240160206040518083038186803b158015611b5a57600080fd5b505afa158015611b6e573d6000803e3d6000fd5b505050506040513d601f19601f82011682018060405250810190611b929190612262565b611b9c90846123cc565b611ba691906123eb565b90508015611ce757604051636bd8225b60e11b8152600481018790526000907f00000000000000000000000000000000000000000000000000000000000000006001600160a01b03169063d7b044b69060240160206040518083038186803b158015611c1157600080fd5b505afa158015611c25573d6000803e3d6000fd5b505050506040513d601f19601f82011682018060405250810190611c4991906121b4565b6001600160a01b03168260405160006040518083038185875af1925050503d8060008114611c93576040519150601f19603f3d011682016040523d82523d6000602084013e611c98565b606091505b5050905080611ce55760405162461bcd60e51b81526020600482015260196024820152781059191a5d1a5bdb985b081c185e5b595b9d0819985a5b1959603a1b604482015260640161047b565b505b6000611cf3828461227b565b905080156117a45760405163a47d29cb60e01b8152600481018890526000907f00000000000000000000000000000000000000000000000000000000000000006001600160a01b03169063a47d29cb9060240160206040518083038186803b158015611d5e57600080fd5b505afa158015611d72573d6000803e3d6000fd5b505050506040513d601f19601f82011682018060405250810190611d9691906121b4565b6001600160a01b03168260405160006040518083038185875af1925050503d8060008114611de0576040519150601f19603f3d011682016040523d82523d6000602084013e611de5565b606091505b5050905080611e2e5760405162461bcd60e51b8152602060048201526015602482015274105c9d1a5cdd081c185e5b595b9d0819985a5b1959605a1b604482015260640161047b565b505050505050505b50565b828054611e45906121f6565b90600052602060002090601f016020900481019282611e675760008555611ead565b82601f10611e8057805160ff1916838001178555611ead565b82800160010185558215611ead579182015b82811115611ead578251825591602001919060010190611e92565b50611eb9929150611ebd565b5090565b5b80821115611eb95760008155600101611ebe565b60008060408385031215611ee557600080fd5b82359150602083013560ff81168114611efd57600080fd5b809150509250929050565b6001600160a01b0381168114611e3657600080fd5b60008060408385031215611f3057600080fd5b8235611f3b81611f08565b946020939093013593505050565b600060208284031215611f5b57600080fd5b5035919050565b60008060408385031215611f7557600080fd5b50508035926020909101359150565b60005b83811015611f9f578181015183820152602001611f87565b83811115611fae576000848401525b50505050565b60008151808452611fcc816020860160208601611f84565b601f01601f19169290920160200192915050565b84151581528360208201526080604082015260006120016080830185611fb4565b905060018060a01b038316606083015295945050505050565b6001600160a01b0391909116815260200190565b634e487b7160e01b600052604160045260246000fd5b604051601f8201601f1916810167ffffffffffffffff8111828210171561206d5761206d61202e565b604052919050565b600067ffffffffffffffff82111561208f5761208f61202e565b50601f01601f191660200190565b6000806000606084860312156120b257600080fd5b83359250602084013567ffffffffffffffff8111156120d057600080fd5b8401601f810186136120e157600080fd5b80356120f46120ef82612075565b612044565b81815287602083850101111561210957600080fd5b81602084016020830137600060208383010152809450505050604084013561213081611f08565b809150509250925092565b60208152600061214e6020830184611fb4565b9392505050565b8051801515811461216557600080fd5b919050565b60006020828403121561217c57600080fd5b61214e82612155565b60208082526015908201527413db9b1e4810dbdc99481dda1a5d195b1a5cdd1959605a1b604082015260600190565b6000602082840312156121c657600080fd5b815161214e81611f08565b6020808252600b908201526a13db9b1e48105c9d1a5cdd60aa1b604082015260600190565b600181811c9082168061220a57607f821691505b6020821081141561222b57634e487b7160e01b600052602260045260246000fd5b50919050565b634e487b7160e01b600052601160045260246000fd5b600060001982141561225b5761225b612231565b5060010190565b60006020828403121561227457600080fd5b5051919050565b60008282101561228d5761228d612231565b500390565b634e487b7160e01b600052601260045260246000fd5b6000826122b7576122b7612292565b500690565b600082516122ce818460208701611f84565b9190910192915050565b805161216581611f08565b60008060008060008060008060006101208a8c03121561230257600080fd5b895161230d81611f08565b8099505060208a0151975060408a0151965060608a0151955061233260808b01612155565b945060a08a015161234281611f08565b60c08b015160e08c0151919550935067ffffffffffffffff81111561236657600080fd5b8a01601f81018c1361237757600080fd5b80516123856120ef82612075565b8181528d602083850101111561239a57600080fd5b6123ab826020830160208601611f84565b93506123bd9150506101008b016122d8565b90509295985092959850929598565b60008160001904831182151516156123e6576123e6612231565b500290565b6000826123fa576123fa612292565b500490565b6001600160a01b03938416815291909216602082015260408101919091526060019056fea2646970667358221220a18eea0607e4722417a4297d1b112f2d0acf0d7ecbf64b68136b5c8fd37acbeb64736f6c63430008090033",
  "linkReferences": {},
  "deployedLinkReferences": {}
}