{
  "_format": "hh-sol-artifact-1",
  "contractName": "MinterDALinV2",
  "sourceName": "contracts/minter-suite/Minters/MinterDALin/MinterDALinV2.sol",
  "abi": [
    {
      "inputs": [
        {
          "internalType": "address",
          "name": "_genArt721Address",
          "type": "address"
        },
        {
          "internalType": "address",
          "name": "_minterFilter",
          "type": "address"
        }
      ],
      "stateMutability": "nonpayable",
      "type": "constructor"
    },
    {
      "anonymous": false,
      "inputs": [
        {
          "indexed": false,
          "internalType": "uint256",
          "name": "_minimumAuctionLengthSeconds",
          "type": "uint256"
        }
      ],
      "name": "MinimumAuctionLengthSecondsUpdated",
      "type": "event"
    },
    {
      "anonymous": false,
      "inputs": [
        {
          "indexed": true,
          "internalType": "uint256",
          "name": "_projectId",
          "type": "uint256"
        },
        {
          "indexed": true,
          "internalType": "uint256",
          "name": "_pricePerTokenInWei",
          "type": "uint256"
        }
      ],
      "name": "PricePerTokenInWeiUpdated",
      "type": "event"
    },
    {
      "anonymous": false,
      "inputs": [
        {
          "indexed": true,
          "internalType": "uint256",
          "name": "_projectId",
          "type": "uint256"
        },
        {
          "indexed": true,
          "internalType": "address",
          "name": "_currencyAddress",
          "type": "address"
        },
        {
          "indexed": false,
          "internalType": "string",
          "name": "_currencySymbol",
          "type": "string"
        }
      ],
      "name": "ProjectCurrencyInfoUpdated",
      "type": "event"
    },
    {
      "anonymous": false,
      "inputs": [
        {
          "indexed": true,
          "internalType": "uint256",
          "name": "_projectId",
          "type": "uint256"
        },
        {
          "indexed": false,
          "internalType": "bool",
          "name": "_purchaseToDisabled",
          "type": "bool"
        }
      ],
      "name": "PurchaseToDisabledUpdated",
      "type": "event"
    },
    {
      "anonymous": false,
      "inputs": [
        {
          "indexed": true,
          "internalType": "uint256",
          "name": "projectId",
          "type": "uint256"
        }
      ],
      "name": "ResetAuctionDetails",
      "type": "event"
    },
    {
      "anonymous": false,
      "inputs": [
        {
          "indexed": true,
          "internalType": "uint256",
          "name": "projectId",
          "type": "uint256"
        },
        {
          "indexed": false,
          "internalType": "uint256",
          "name": "_auctionTimestampStart",
          "type": "uint256"
        },
        {
          "indexed": false,
          "internalType": "uint256",
          "name": "_auctionTimestampEnd",
          "type": "uint256"
        },
        {
          "indexed": false,
          "internalType": "uint256",
          "name": "_startPrice",
          "type": "uint256"
        },
        {
          "indexed": false,
          "internalType": "uint256",
          "name": "_basePrice",
          "type": "uint256"
        }
      ],
      "name": "SetAuctionDetails",
      "type": "event"
    },
    {
      "inputs": [],
      "name": "genArt721CoreAddress",
      "outputs": [
        {
          "internalType": "address",
          "name": "",
          "type": "address"
        }
      ],
      "stateMutability": "view",
      "type": "function"
    },
    {
      "inputs": [
        {
          "internalType": "uint256",
          "name": "_projectId",
          "type": "uint256"
        }
      ],
      "name": "getPriceInfo",
      "outputs": [
        {
          "internalType": "bool",
          "name": "isConfigured",
          "type": "bool"
        },
        {
          "internalType": "uint256",
          "name": "tokenPriceInWei",
          "type": "uint256"
        },
        {
          "internalType": "string",
          "name": "currencySymbol",
          "type": "string"
        },
        {
          "internalType": "address",
          "name": "currencyAddress",
          "type": "address"
        }
      ],
      "stateMutability": "view",
      "type": "function"
    },
    {
      "inputs": [],
      "name": "minimumAuctionLengthSeconds",
      "outputs": [
        {
          "internalType": "uint256",
          "name": "",
          "type": "uint256"
        }
      ],
      "stateMutability": "view",
      "type": "function"
    },
    {
      "inputs": [],
      "name": "minterFilterAddress",
      "outputs": [
        {
          "internalType": "address",
          "name": "",
          "type": "address"
        }
      ],
      "stateMutability": "view",
      "type": "function"
    },
    {
      "inputs": [],
      "name": "minterType",
      "outputs": [
        {
          "internalType": "string",
          "name": "",
          "type": "string"
        }
      ],
      "stateMutability": "view",
      "type": "function"
    },
    {
      "inputs": [
        {
          "internalType": "uint256",
          "name": "_projectId",
          "type": "uint256"
        }
      ],
      "name": "projectAuctionParameters",
      "outputs": [
        {
          "internalType": "uint256",
          "name": "timestampStart",
          "type": "uint256"
        },
        {
          "internalType": "uint256",
          "name": "timestampEnd",
          "type": "uint256"
        },
        {
          "internalType": "uint256",
          "name": "startPrice",
          "type": "uint256"
        },
        {
          "internalType": "uint256",
          "name": "basePrice",
          "type": "uint256"
        }
      ],
      "stateMutability": "view",
      "type": "function"
    },
    {
      "inputs": [
        {
          "internalType": "uint256",
          "name": "",
          "type": "uint256"
        }
      ],
      "name": "projectConfig",
      "outputs": [
        {
          "internalType": "bool",
          "name": "maxHasBeenInvoked",
          "type": "bool"
        },
        {
          "internalType": "uint24",
          "name": "maxInvocations",
          "type": "uint24"
        },
        {
          "internalType": "uint64",
          "name": "timestampStart",
          "type": "uint64"
        },
        {
          "internalType": "uint64",
          "name": "timestampEnd",
          "type": "uint64"
        },
        {
          "internalType": "uint256",
          "name": "startPrice",
          "type": "uint256"
        },
        {
          "internalType": "uint256",
          "name": "basePrice",
          "type": "uint256"
        }
      ],
      "stateMutability": "view",
      "type": "function"
    },
    {
      "inputs": [
        {
          "internalType": "uint256",
          "name": "_projectId",
          "type": "uint256"
        }
      ],
      "name": "projectMaxHasBeenInvoked",
      "outputs": [
        {
          "internalType": "bool",
          "name": "",
          "type": "bool"
        }
      ],
      "stateMutability": "view",
      "type": "function"
    },
    {
      "inputs": [
        {
          "internalType": "uint256",
          "name": "_projectId",
          "type": "uint256"
        }
      ],
      "name": "projectMaxInvocations",
      "outputs": [
        {
          "internalType": "uint256",
          "name": "",
          "type": "uint256"
        }
      ],
      "stateMutability": "view",
      "type": "function"
    },
    {
      "inputs": [
        {
          "internalType": "uint256",
          "name": "_projectId",
          "type": "uint256"
        }
      ],
      "name": "purchase",
      "outputs": [
        {
          "internalType": "uint256",
          "name": "tokenId",
          "type": "uint256"
        }
      ],
      "stateMutability": "payable",
      "type": "function"
    },
    {
      "inputs": [
        {
          "internalType": "address",
          "name": "_to",
          "type": "address"
        },
        {
          "internalType": "uint256",
          "name": "_projectId",
          "type": "uint256"
        }
      ],
      "name": "purchaseTo",
      "outputs": [
        {
          "internalType": "uint256",
          "name": "tokenId",
          "type": "uint256"
        }
      ],
      "stateMutability": "payable",
      "type": "function"
    },
    {
      "inputs": [
        {
          "internalType": "address",
          "name": "_to",
          "type": "address"
        },
        {
          "internalType": "uint256",
          "name": "_projectId",
          "type": "uint256"
        }
      ],
      "name": "purchaseTo_do6",
      "outputs": [
        {
          "internalType": "uint256",
          "name": "tokenId",
          "type": "uint256"
        }
      ],
      "stateMutability": "payable",
      "type": "function"
    },
    {
      "inputs": [
        {
          "internalType": "uint256",
          "name": "_projectId",
          "type": "uint256"
        }
      ],
      "name": "purchase_H4M",
      "outputs": [
        {
          "internalType": "uint256",
          "name": "tokenId",
          "type": "uint256"
        }
      ],
      "stateMutability": "payable",
      "type": "function"
    },
    {
      "inputs": [
        {
          "internalType": "uint256",
          "name": "_projectId",
          "type": "uint256"
        }
      ],
      "name": "resetAuctionDetails",
      "outputs": [],
      "stateMutability": "nonpayable",
      "type": "function"
    },
    {
      "inputs": [
        {
          "internalType": "uint256",
          "name": "_projectId",
          "type": "uint256"
        },
        {
          "internalType": "uint256",
          "name": "_auctionTimestampStart",
          "type": "uint256"
        },
        {
          "internalType": "uint256",
          "name": "_auctionTimestampEnd",
          "type": "uint256"
        },
        {
          "internalType": "uint256",
          "name": "_startPrice",
          "type": "uint256"
        },
        {
          "internalType": "uint256",
          "name": "_basePrice",
          "type": "uint256"
        }
      ],
      "name": "setAuctionDetails",
      "outputs": [],
      "stateMutability": "nonpayable",
      "type": "function"
    },
    {
      "inputs": [
        {
          "internalType": "uint256",
          "name": "_minimumAuctionLengthSeconds",
          "type": "uint256"
        }
      ],
      "name": "setMinimumAuctionLengthSeconds",
      "outputs": [],
      "stateMutability": "nonpayable",
      "type": "function"
    },
    {
      "inputs": [
        {
          "internalType": "uint256",
          "name": "_projectId",
          "type": "uint256"
        }
      ],
      "name": "setProjectMaxInvocations",
      "outputs": [],
      "stateMutability": "nonpayable",
      "type": "function"
    },
    {
      "inputs": [
        {
          "internalType": "uint256",
          "name": "_projectId",
          "type": "uint256"
        }
      ],
      "name": "togglePurchaseToDisabled",
      "outputs": [],
      "stateMutability": "view",
      "type": "function"
    }
  ],
  "bytecode": "0x610100604052610e106002553480156200001857600080fd5b50604051620018ef380380620018ef8339810160408190526200003b916200014d565b600160009081556001600160a01b03808416608081905260a081905290831660c081905260e0819052604080516392a10f8360e01b81529051929391926392a10f83926004808401936020939290839003909101908290875af1158015620000a7573d6000803e3d6000fd5b505050506040513d601f19601f82011682018060405250810190620000cd919062000185565b6001600160a01b031614620001285760405162461bcd60e51b815260206004820152601860248201527f496c6c6567616c20636f6e74726163742070616972696e670000000000000000604482015260640160405180910390fd5b5050620001aa565b80516001600160a01b03811681146200014857600080fd5b919050565b600080604083850312156200016157600080fd5b6200016c8362000130565b91506200017c6020840162000130565b90509250929050565b6000602082840312156200019857600080fd5b620001a38262000130565b9392505050565b60805160a05160c05160e0516116e86200020760003960006105ad015260006103d0015260008181610690015281816107a50152818161089101528181610a3901528181610dd1015261103c015260006102a701526116e86000f3fe6080604052600436106100d55760003560e01c80619987146100da578061b460146101005780632aedc28e146101135780632f077ee6146101355780632fc37ef11461019b57806340d1397e146101bb578063462add46146101db57806356690aaf1461021b578063774159c614610252578063891407c01461028257806392a10f8314610295578063b2d30ac7146102e1578063c71b1b71146102f7578063cd379f6e1461039e578063dd85582f146103be578063e9d1e8ac146103f2578063efef39a114610100578063f7bd4b8814610438575b600080fd5b6100ed6100e836600461135b565b610458565b6040519081526020015b60405180910390f35b6100ed61010e366004611387565b61065e565b34801561011f57600080fd5b5061013361012e366004611387565b610670565b005b34801561014157600080fd5b5061018b610150366004611387565b60009081526001602081905260409091208054918101546002909101546001600160401b03600160201b8404811694600160601b9094041692565b6040516100f794939291906113a0565b3480156101a757600080fd5b506101336101b6366004611387565b610785565b3480156101c757600080fd5b506101336101d6366004611387565b610879565b3480156101e757600080fd5b5061020b6101f6366004611387565b60009081526001602052604090205460ff1690565b60405190151581526020016100f7565b34801561022757600080fd5b506100ed610236366004611387565b600090815260016020526040902054610100900462ffffff1690565b34801561025e57600080fd5b5061027261026d366004611387565b610973565b6040516100f79493929190611401565b6100ed61029036600461135b565b610a0e565b3480156102a157600080fd5b506102c97f000000000000000000000000000000000000000000000000000000000000000081565b6040516001600160a01b0390911681526020016100f7565b3480156102ed57600080fd5b506100ed60025481565b34801561030357600080fd5b5061035e610312366004611387565b600160208190526000918252604090912080549181015460029091015460ff83169262ffffff610100820416926001600160401b03600160201b8304811693600160601b909304169186565b60408051961515875262ffffff90951660208701526001600160401b039384169486019490945291166060840152608083015260a082015260c0016100f7565b3480156103aa57600080fd5b506101336103b936600461143b565b610a21565b3480156103ca57600080fd5b506102c97f000000000000000000000000000000000000000000000000000000000000000081565b3480156103fe57600080fd5b5061042b6040518060400160405280600d81526020016c26b4b73a32b92220a634b72b1960991b81525081565b6040516100f79190611476565b34801561044457600080fd5b50610133610453366004611387565b610db8565b60006002600054036104b15760405162461bcd60e51b815260206004820152601f60248201527f5265656e7472616e637947756172643a207265656e7472616e742063616c6c0060448201526064015b60405180910390fd5b60026000908155828152600160205260409020805460ff16156105245760405162461bcd60e51b815260206004820152602560248201527f4d6178696d756d206e756d626572206f6620696e766f636174696f6e732072656044820152641858da195960da1b60648201526084016104a8565b600061052f84610e78565b9050803410156105815760405162461bcd60e51b815260206004820181905260248201527f4d7573742073656e64206d696e696d756d2076616c756520746f206d696e742160448201526064016104a8565b604051630d4d151360e01b81526001600160a01b038681166004830152602482018690523360448301527f00000000000000000000000000000000000000000000000000000000000000001690630d4d1513906064016020604051808303816000875af11580156105f6573d6000803e3d6000fd5b505050506040513d601f19601f8201168201806040525081019061061a9190611489565b825490935060001962ffffff61010090920482160116620f424084060361064757815460ff191660011782555b6106518482610f8e565b5050600160005592915050565b600061066a3383610458565b92915050565b60405163230448b160e01b8152631576e14760e11b906001600160a01b037f0000000000000000000000000000000000000000000000000000000000000000169063230448b1906106c9903390309086906004016114a2565b6020604051808303816000875af11580156106e8573d6000803e3d6000fd5b505050506040513d601f19601f8201168201806040525081019061070c91906114e4565b6107285760405162461bcd60e51b81526004016104a8906114ff565b60008281526001602081905260408083208054600160201b600160a01b03191681559182018390556002820183905551909184917f2de6b284414d2e6b72bcc8d8d4de934e3f6410660a8f677c5c978f17f9cc2a929190a2505050565b60405163230448b160e01b8152632fc37ef160e01b906001600160a01b037f0000000000000000000000000000000000000000000000000000000000000000169063230448b1906107de903390309086906004016114a2565b6020604051808303816000875af11580156107fd573d6000803e3d6000fd5b505050506040513d601f19601f8201168201806040525081019061082191906114e4565b61083d5760405162461bcd60e51b81526004016104a8906114ff565b60028290556040518281527f03c81e81b0ed0ca5444a9d70c9f3d1c78d79d6a31419f77736e886d092ed1a9e9060200160405180910390a15050565b60405163a47d29cb60e01b81526004810182905281907f00000000000000000000000000000000000000000000000000000000000000006001600160a01b03169063a47d29cb90602401602060405180830381865afa1580156108e0573d6000803e3d6000fd5b505050506040513d601f19601f820116820180604052508101906109049190611533565b6001600160a01b0316336001600160a01b0316146109345760405162461bcd60e51b81526004016104a890611550565b60405162461bcd60e51b81526020600482015260146024820152731058dd1a5bdb881b9bdd081cdd5c1c1bdc9d195960621b60448201526064016104a8565b600081815260016020819052604082209081015481549015159291606091839190600160201b90046001600160401b031642116109b657806001015493506109e4565b8054600160601b90046001600160401b03166000036109d857600093506109e4565b6109e186610e78565b93505b6040518060400160405280600381526020016208aa8960eb1b815250925060009150509193509193565b6000610a1a8383610458565b9392505050565b60405163a47d29cb60e01b81526004810186905285907f00000000000000000000000000000000000000000000000000000000000000006001600160a01b03169063a47d29cb90602401602060405180830381865afa158015610a88573d6000803e3d6000fd5b505050506040513d601f19601f82011682018060405250810190610aac9190611533565b6001600160a01b0316336001600160a01b031614610adc5760405162461bcd60e51b81526004016104a890611550565b60008681526001602052604090208054600160201b90046001600160401b03161580610b1857508054600160201b90046001600160401b031642105b610b635760405162461bcd60e51b815260206004820152601c60248201527b27379036b7b234b334b1b0ba34b7b7399036b4b216b0bab1ba34b7b760211b60448201526064016104a8565b854210610ba95760405162461bcd60e51b81526020600482015260146024820152734f6e6c79206675747572652061756374696f6e7360601b60448201526064016104a8565b858511610c0f5760405162461bcd60e51b815260206004820152602e60248201527f41756374696f6e20656e64206d7573742062652067726561746572207468616e60448201526d08185d58dd1a5bdb881cdd185c9d60921b60648201526084016104a8565b600254610c1c908761158b565b851015610c8f5760405162461bcd60e51b815260206004820152603b60248201527f41756374696f6e206c656e677468206d757374206265206174206c656173742060448201527a6d696e696d756d41756374696f6e4c656e6774685365636f6e647360281b60648201526084016104a8565b828411610d015760405162461bcd60e51b815260206004820152603a60248201527f41756374696f6e207374617274207072696365206d7573742062652067726561604482015279746572207468616e2061756374696f6e20656e6420707269636560301b60648201526084016104a8565b610d0a866112d7565b81546001600160401b0391909116600160201b0267ffffffffffffffff60201b19909116178155610d3a856112d7565b81546001600160401b0391909116600160601b0267ffffffffffffffff60601b19909116178155600181018490556002810183905560405187907f38b3058b75696f9e45bffa9c4b237adcde13d74c7bc1bea63e13c712d0776c7490610da79089908990899089906113a0565b60405180910390a250505050505050565b604051630ea5613f60e01b8152600481018290526000907f00000000000000000000000000000000000000000000000000000000000000006001600160a01b031690630ea5613f9060240160c060405180830381865afa158015610e20573d6000803e3d6000fd5b505050506040513d601f19601f82011682018060405250810190610e44919061159e565b50505060009485525060016020526040909320805462ffffff9094166101000263ffffff0019909416939093179092555050565b60008181526001602081905260408220805491810154600282015491926001600160401b03600160201b8204811693600160601b909204169190428410610efb5760405162461bcd60e51b8152602060048201526017602482015276105d58dd1a5bdb881b9bdd081e595d081cdd185c9d1959604a1b60448201526064016104a8565b824210610f575760008311610f4d5760405162461bcd60e51b81526020600482015260186024820152774f6e6c7920636f6e666967757265642061756374696f6e7360401b60448201526064016104a8565b9695505050505050565b4284900384840382840381610f6c82856115fd565b610f769190611614565b610f809086611636565b9a9950505050505050505050565b34156112d357600080610fa18334611636565b905080156110315760405133908290600081818185875af1925050503d8060008114610fe9576040519150601f19603f3d011682016040523d82523d6000602084013e610fee565b606091505b505080925050816110315760405162461bcd60e51b815260206004820152600d60248201526c1499599d5b990819985a5b1959609a1b60448201526064016104a8565b6000806000806000807f00000000000000000000000000000000000000000000000000000000000000006001600160a01b0316638639415b8b8b6040518363ffffffff1660e01b8152600401611091929190918252602082015260400190565b60c060405180830381865afa1580156110ae573d6000803e3d6000fd5b505050506040513d601f19601f820116820180604052508101906110d29190611649565b9550955095509550955095506000861115611184576040516001600160a01b038616908790600081818185875af1925050503d8060008114611130576040519150601f19603f3d011682016040523d82523d6000602084013e611135565b606091505b505080985050876111845760405162461bcd60e51b8152602060048201526019602482015278105c9d08109b1bd8dadcc81c185e5b595b9d0819985a5b1959603a1b60448201526064016104a8565b8315611223576040516001600160a01b038416908590600081818185875af1925050503d80600081146111d3576040519150601f19603f3d011682016040523d82523d6000602084013e6111d8565b606091505b505080985050876112235760405162461bcd60e51b8152602060048201526015602482015274105c9d1a5cdd081c185e5b595b9d0819985a5b1959605a1b60448201526064016104a8565b81156112ca576040516001600160a01b038216908390600081818185875af1925050503d8060008114611272576040519150601f19603f3d011682016040523d82523d6000602084013e611277565b606091505b505080985050876112ca5760405162461bcd60e51b815260206004820152601f60248201527f4164646974696f6e616c205061796565207061796d656e74206661696c65640060448201526064016104a8565b50505050505050505b5050565b60006001600160401b0382111561133f5760405162461bcd60e51b815260206004820152602660248201527f53616665436173743a2076616c756520646f65736e27742066697420696e203660448201526534206269747360d01b60648201526084016104a8565b5090565b6001600160a01b038116811461135857600080fd5b50565b6000806040838503121561136e57600080fd5b823561137981611343565b946020939093013593505050565b60006020828403121561139957600080fd5b5035919050565b93845260208401929092526040830152606082015260800190565b6000815180845260005b818110156113e1576020818501810151868301820152016113c5565b506000602082860101526020601f19601f83011685010191505092915050565b841515815283602082015260806040820152600061142260808301856113bb565b905060018060a01b038316606083015295945050505050565b600080600080600060a0868803121561145357600080fd5b505083359560208501359550604085013594606081013594506080013592509050565b602081526000610a1a60208301846113bb565b60006020828403121561149b57600080fd5b5051919050565b6001600160a01b0393841681529190921660208201526001600160e01b0319909116604082015260600190565b805180151581146114df57600080fd5b919050565b6000602082840312156114f657600080fd5b610a1a826114cf565b6020808252601a908201527913db9b1e4810dbdc994810591b5a5b9050d308185b1b1bddd95960321b604082015260600190565b60006020828403121561154557600080fd5b8151610a1a81611343565b6020808252600b908201526a13db9b1e48105c9d1a5cdd60aa1b604082015260600190565b634e487b7160e01b600052601160045260246000fd5b8082018082111561066a5761066a611575565b60008060008060008060c087890312156115b757600080fd5b86519550602087015194506115ce604088016114cf565b93506115dc606088016114cf565b9250608087015191506115f160a088016114cf565b90509295509295509295565b808202811582820484141761066a5761066a611575565b60008261163157634e487b7160e01b600052601260045260246000fd5b500490565b8181038181111561066a5761066a611575565b60008060008060008060c0878903121561166257600080fd5b86519550602087015161167481611343565b60408801516060890151919650945061168c81611343565b608088015160a089015191945092506116a481611343565b80915050929550929550929556fea2646970667358221220405d8fd7c0b2a6ca6daac24defaa2d16cf8cf3b764f952fa6bfe1afd5f5dd07164736f6c63430008110033",
  "linkReferences": {},
  "deployedLinkReferences": {}
}