{
  "_format": "hh-sol-artifact-1",
  "contractName": "MinterMerkleV1",
  "sourceName": "contracts/minter-suite/Minters/MinterMerkle/MinterMerkleV1.sol",
  "abi": [
    {
      "inputs": [
        {
          "internalType": "address",
          "name": "_genArt721Address",
          "type": "address"
        },
        {
          "internalType": "address",
          "name": "_minterFilter",
          "type": "address"
        }
      ],
      "stateMutability": "nonpayable",
      "type": "constructor"
    },
    {
      "anonymous": false,
      "inputs": [
        {
          "indexed": true,
          "internalType": "uint256",
          "name": "_projectId",
          "type": "uint256"
        },
        {
          "indexed": false,
          "internalType": "bytes32",
          "name": "_key",
          "type": "bytes32"
        }
      ],
      "name": "ConfigKeyRemoved",
      "type": "event"
    },
    {
      "anonymous": false,
      "inputs": [
        {
          "indexed": true,
          "internalType": "uint256",
          "name": "_projectId",
          "type": "uint256"
        },
        {
          "indexed": false,
          "internalType": "bytes32",
          "name": "_key",
          "type": "bytes32"
        },
        {
          "indexed": false,
          "internalType": "uint256",
          "name": "_value",
          "type": "uint256"
        }
      ],
      "name": "ConfigValueAddedToSet",
      "type": "event"
    },
    {
      "anonymous": false,
      "inputs": [
        {
          "indexed": true,
          "internalType": "uint256",
          "name": "_projectId",
          "type": "uint256"
        },
        {
          "indexed": false,
          "internalType": "bytes32",
          "name": "_key",
          "type": "bytes32"
        },
        {
          "indexed": false,
          "internalType": "address",
          "name": "_value",
          "type": "address"
        }
      ],
      "name": "ConfigValueAddedToSet",
      "type": "event"
    },
    {
      "anonymous": false,
      "inputs": [
        {
          "indexed": true,
          "internalType": "uint256",
          "name": "_projectId",
          "type": "uint256"
        },
        {
          "indexed": false,
          "internalType": "bytes32",
          "name": "_key",
          "type": "bytes32"
        },
        {
          "indexed": false,
          "internalType": "bytes32",
          "name": "_value",
          "type": "bytes32"
        }
      ],
      "name": "ConfigValueAddedToSet",
      "type": "event"
    },
    {
      "anonymous": false,
      "inputs": [
        {
          "indexed": true,
          "internalType": "uint256",
          "name": "_projectId",
          "type": "uint256"
        },
        {
          "indexed": false,
          "internalType": "bytes32",
          "name": "_key",
          "type": "bytes32"
        },
        {
          "indexed": false,
          "internalType": "uint256",
          "name": "_value",
          "type": "uint256"
        }
      ],
      "name": "ConfigValueRemovedFromSet",
      "type": "event"
    },
    {
      "anonymous": false,
      "inputs": [
        {
          "indexed": true,
          "internalType": "uint256",
          "name": "_projectId",
          "type": "uint256"
        },
        {
          "indexed": false,
          "internalType": "bytes32",
          "name": "_key",
          "type": "bytes32"
        },
        {
          "indexed": false,
          "internalType": "address",
          "name": "_value",
          "type": "address"
        }
      ],
      "name": "ConfigValueRemovedFromSet",
      "type": "event"
    },
    {
      "anonymous": false,
      "inputs": [
        {
          "indexed": true,
          "internalType": "uint256",
          "name": "_projectId",
          "type": "uint256"
        },
        {
          "indexed": false,
          "internalType": "bytes32",
          "name": "_key",
          "type": "bytes32"
        },
        {
          "indexed": false,
          "internalType": "bytes32",
          "name": "_value",
          "type": "bytes32"
        }
      ],
      "name": "ConfigValueRemovedFromSet",
      "type": "event"
    },
    {
      "anonymous": false,
      "inputs": [
        {
          "indexed": true,
          "internalType": "uint256",
          "name": "_projectId",
          "type": "uint256"
        },
        {
          "indexed": false,
          "internalType": "bytes32",
          "name": "_key",
          "type": "bytes32"
        },
        {
          "indexed": false,
          "internalType": "bool",
          "name": "_value",
          "type": "bool"
        }
      ],
      "name": "ConfigValueSet",
      "type": "event"
    },
    {
      "anonymous": false,
      "inputs": [
        {
          "indexed": true,
          "internalType": "uint256",
          "name": "_projectId",
          "type": "uint256"
        },
        {
          "indexed": false,
          "internalType": "bytes32",
          "name": "_key",
          "type": "bytes32"
        },
        {
          "indexed": false,
          "internalType": "uint256",
          "name": "_value",
          "type": "uint256"
        }
      ],
      "name": "ConfigValueSet",
      "type": "event"
    },
    {
      "anonymous": false,
      "inputs": [
        {
          "indexed": true,
          "internalType": "uint256",
          "name": "_projectId",
          "type": "uint256"
        },
        {
          "indexed": false,
          "internalType": "bytes32",
          "name": "_key",
          "type": "bytes32"
        },
        {
          "indexed": false,
          "internalType": "address",
          "name": "_value",
          "type": "address"
        }
      ],
      "name": "ConfigValueSet",
      "type": "event"
    },
    {
      "anonymous": false,
      "inputs": [
        {
          "indexed": true,
          "internalType": "uint256",
          "name": "_projectId",
          "type": "uint256"
        },
        {
          "indexed": false,
          "internalType": "bytes32",
          "name": "_key",
          "type": "bytes32"
        },
        {
          "indexed": false,
          "internalType": "bytes32",
          "name": "_value",
          "type": "bytes32"
        }
      ],
      "name": "ConfigValueSet",
      "type": "event"
    },
    {
      "anonymous": false,
      "inputs": [
        {
          "indexed": true,
          "internalType": "uint256",
          "name": "_projectId",
          "type": "uint256"
        },
        {
          "indexed": true,
          "internalType": "uint256",
          "name": "_pricePerTokenInWei",
          "type": "uint256"
        }
      ],
      "name": "PricePerTokenInWeiUpdated",
      "type": "event"
    },
    {
      "anonymous": false,
      "inputs": [
        {
          "indexed": true,
          "internalType": "uint256",
          "name": "_projectId",
          "type": "uint256"
        },
        {
          "indexed": true,
          "internalType": "address",
          "name": "_currencyAddress",
          "type": "address"
        },
        {
          "indexed": false,
          "internalType": "string",
          "name": "_currencySymbol",
          "type": "string"
        }
      ],
      "name": "ProjectCurrencyInfoUpdated",
      "type": "event"
    },
    {
      "anonymous": false,
      "inputs": [
        {
          "indexed": true,
          "internalType": "uint256",
          "name": "_projectId",
          "type": "uint256"
        },
        {
          "indexed": false,
          "internalType": "bool",
          "name": "_purchaseToDisabled",
          "type": "bool"
        }
      ],
      "name": "PurchaseToDisabledUpdated",
      "type": "event"
    },
    {
      "inputs": [],
      "name": "DEFAULT_MAX_INVOCATIONS_PER_ADDRESS",
      "outputs": [
        {
          "internalType": "uint256",
          "name": "",
          "type": "uint256"
        }
      ],
      "stateMutability": "view",
      "type": "function"
    },
    {
      "inputs": [],
      "name": "genArt721CoreAddress",
      "outputs": [
        {
          "internalType": "address",
          "name": "",
          "type": "address"
        }
      ],
      "stateMutability": "view",
      "type": "function"
    },
    {
      "inputs": [
        {
          "internalType": "uint256",
          "name": "_projectId",
          "type": "uint256"
        }
      ],
      "name": "getPriceInfo",
      "outputs": [
        {
          "internalType": "bool",
          "name": "isConfigured",
          "type": "bool"
        },
        {
          "internalType": "uint256",
          "name": "tokenPriceInWei",
          "type": "uint256"
        },
        {
          "internalType": "string",
          "name": "currencySymbol",
          "type": "string"
        },
        {
          "internalType": "address",
          "name": "currencyAddress",
          "type": "address"
        }
      ],
      "stateMutability": "view",
      "type": "function"
    },
    {
      "inputs": [
        {
          "internalType": "address",
          "name": "_address",
          "type": "address"
        }
      ],
      "name": "hashAddress",
      "outputs": [
        {
          "internalType": "bytes32",
          "name": "",
          "type": "bytes32"
        }
      ],
      "stateMutability": "pure",
      "type": "function"
    },
    {
      "inputs": [],
      "name": "minterFilterAddress",
      "outputs": [
        {
          "internalType": "address",
          "name": "",
          "type": "address"
        }
      ],
      "stateMutability": "view",
      "type": "function"
    },
    {
      "inputs": [],
      "name": "minterType",
      "outputs": [
        {
          "internalType": "string",
          "name": "",
          "type": "string"
        }
      ],
      "stateMutability": "view",
      "type": "function"
    },
    {
      "inputs": [
        {
          "internalType": "bytes32[]",
          "name": "_proof",
          "type": "bytes32[]"
        },
        {
          "internalType": "address",
          "name": "_address",
          "type": "address"
        }
      ],
      "name": "processProofForAddress",
      "outputs": [
        {
          "internalType": "bytes32",
          "name": "",
          "type": "bytes32"
        }
      ],
      "stateMutability": "pure",
      "type": "function"
    },
    {
      "inputs": [
        {
          "internalType": "uint256",
          "name": "",
          "type": "uint256"
        }
      ],
      "name": "projectConfig",
      "outputs": [
        {
          "internalType": "bool",
          "name": "maxHasBeenInvoked",
          "type": "bool"
        },
        {
          "internalType": "bool",
          "name": "priceIsConfigured",
          "type": "bool"
        },
        {
          "internalType": "bool",
          "name": "useMaxInvocationsPerAddressOverride",
          "type": "bool"
        },
        {
          "internalType": "uint24",
          "name": "maxInvocationsPerAddressOverride",
          "type": "uint24"
        },
        {
          "internalType": "uint24",
          "name": "maxInvocations",
          "type": "uint24"
        },
        {
          "internalType": "uint256",
          "name": "pricePerTokenInWei",
          "type": "uint256"
        }
      ],
      "stateMutability": "view",
      "type": "function"
    },
    {
      "inputs": [
        {
          "internalType": "uint256",
          "name": "_projectId",
          "type": "uint256"
        }
      ],
      "name": "projectMaxHasBeenInvoked",
      "outputs": [
        {
          "internalType": "bool",
          "name": "",
          "type": "bool"
        }
      ],
      "stateMutability": "view",
      "type": "function"
    },
    {
      "inputs": [
        {
          "internalType": "uint256",
          "name": "_projectId",
          "type": "uint256"
        }
      ],
      "name": "projectMaxInvocations",
      "outputs": [
        {
          "internalType": "uint256",
          "name": "",
          "type": "uint256"
        }
      ],
      "stateMutability": "view",
      "type": "function"
    },
    {
      "inputs": [
        {
          "internalType": "uint256",
          "name": "_projectId",
          "type": "uint256"
        }
      ],
      "name": "projectMaxInvocationsPerAddress",
      "outputs": [
        {
          "internalType": "uint256",
          "name": "",
          "type": "uint256"
        }
      ],
      "stateMutability": "view",
      "type": "function"
    },
    {
      "inputs": [
        {
          "internalType": "uint256",
          "name": "",
          "type": "uint256"
        }
      ],
      "name": "projectMerkleRoot",
      "outputs": [
        {
          "internalType": "bytes32",
          "name": "",
          "type": "bytes32"
        }
      ],
      "stateMutability": "view",
      "type": "function"
    },
    {
      "inputs": [
        {
          "internalType": "uint256",
          "name": "_projectId",
          "type": "uint256"
        },
        {
          "internalType": "address",
          "name": "_address",
          "type": "address"
        }
      ],
      "name": "projectRemainingInvocationsForAddress",
      "outputs": [
        {
          "internalType": "bool",
          "name": "projectLimitsMintInvocationsPerAddress",
          "type": "bool"
        },
        {
          "internalType": "uint256",
          "name": "mintInvocationsRemaining",
          "type": "uint256"
        }
      ],
      "stateMutability": "view",
      "type": "function"
    },
    {
      "inputs": [
        {
          "internalType": "uint256",
          "name": "",
          "type": "uint256"
        },
        {
          "internalType": "address",
          "name": "",
          "type": "address"
        }
      ],
      "name": "projectUserMintInvocations",
      "outputs": [
        {
          "internalType": "uint256",
          "name": "",
          "type": "uint256"
        }
      ],
      "stateMutability": "view",
      "type": "function"
    },
    {
      "inputs": [
        {
          "internalType": "uint256",
          "name": "_projectId",
          "type": "uint256"
        },
        {
          "internalType": "bytes32[]",
          "name": "_proof",
          "type": "bytes32[]"
        }
      ],
      "name": "purchase",
      "outputs": [
        {
          "internalType": "uint256",
          "name": "tokenId",
          "type": "uint256"
        }
      ],
      "stateMutability": "payable",
      "type": "function"
    },
    {
      "inputs": [
        {
          "internalType": "uint256",
          "name": "",
          "type": "uint256"
        }
      ],
      "name": "purchase",
      "outputs": [
        {
          "internalType": "uint256",
          "name": "",
          "type": "uint256"
        }
      ],
      "stateMutability": "payable",
      "type": "function"
    },
    {
      "inputs": [
        {
          "internalType": "address",
          "name": "_to",
          "type": "address"
        },
        {
          "internalType": "uint256",
          "name": "_projectId",
          "type": "uint256"
        },
        {
          "internalType": "bytes32[]",
          "name": "_proof",
          "type": "bytes32[]"
        }
      ],
      "name": "purchaseTo",
      "outputs": [
        {
          "internalType": "uint256",
          "name": "tokenId",
          "type": "uint256"
        }
      ],
      "stateMutability": "payable",
      "type": "function"
    },
    {
      "inputs": [
        {
          "internalType": "address",
          "name": "",
          "type": "address"
        },
        {
          "internalType": "uint256",
          "name": "",
          "type": "uint256"
        }
      ],
      "name": "purchaseTo",
      "outputs": [
        {
          "internalType": "uint256",
          "name": "",
          "type": "uint256"
        }
      ],
      "stateMutability": "payable",
      "type": "function"
    },
    {
      "inputs": [
        {
          "internalType": "address",
          "name": "_to",
          "type": "address"
        },
        {
          "internalType": "uint256",
          "name": "_projectId",
          "type": "uint256"
        },
        {
          "internalType": "bytes32[]",
          "name": "_proof",
          "type": "bytes32[]"
        }
      ],
      "name": "purchaseTo_K1L",
      "outputs": [
        {
          "internalType": "uint256",
          "name": "tokenId",
          "type": "uint256"
        }
      ],
      "stateMutability": "payable",
      "type": "function"
    },
    {
      "inputs": [
        {
          "internalType": "uint256",
          "name": "_projectId",
          "type": "uint256"
        },
        {
          "internalType": "bytes32[]",
          "name": "_proof",
          "type": "bytes32[]"
        }
      ],
      "name": "purchase_gD5",
      "outputs": [
        {
          "internalType": "uint256",
          "name": "tokenId",
          "type": "uint256"
        }
      ],
      "stateMutability": "payable",
      "type": "function"
    },
    {
      "inputs": [
        {
          "internalType": "uint256",
          "name": "_projectId",
          "type": "uint256"
        },
        {
          "internalType": "uint24",
          "name": "_maxInvocationsPerAddress",
          "type": "uint24"
        }
      ],
      "name": "setProjectInvocationsPerAddress",
      "outputs": [],
      "stateMutability": "nonpayable",
      "type": "function"
    },
    {
      "inputs": [
        {
          "internalType": "uint256",
          "name": "_projectId",
          "type": "uint256"
        }
      ],
      "name": "setProjectMaxInvocations",
      "outputs": [],
      "stateMutability": "nonpayable",
      "type": "function"
    },
    {
      "inputs": [
        {
          "internalType": "uint256",
          "name": "_projectId",
          "type": "uint256"
        }
      ],
      "name": "togglePurchaseToDisabled",
      "outputs": [],
      "stateMutability": "view",
      "type": "function"
    },
    {
      "inputs": [
        {
          "internalType": "uint256",
          "name": "_projectId",
          "type": "uint256"
        },
        {
          "internalType": "bytes32",
          "name": "_root",
          "type": "bytes32"
        }
      ],
      "name": "updateMerkleRoot",
      "outputs": [],
      "stateMutability": "nonpayable",
      "type": "function"
    },
    {
      "inputs": [
        {
          "internalType": "uint256",
          "name": "_projectId",
          "type": "uint256"
        },
        {
          "internalType": "uint256",
          "name": "_pricePerTokenInWei",
          "type": "uint256"
        }
      ],
      "name": "updatePricePerTokenInWei",
      "outputs": [],
      "stateMutability": "nonpayable",
      "type": "function"
    },
    {
      "inputs": [
        {
          "internalType": "uint256",
          "name": "_projectId",
          "type": "uint256"
        },
        {
          "internalType": "bytes32[]",
          "name": "_proof",
          "type": "bytes32[]"
        },
        {
          "internalType": "address",
          "name": "_address",
          "type": "address"
        }
      ],
      "name": "verifyAddress",
      "outputs": [
        {
          "internalType": "bool",
          "name": "",
          "type": "bool"
        }
      ],
      "stateMutability": "view",
      "type": "function"
    }
  ],
  "bytecode": "0x6101006040523480156200001257600080fd5b5060405162001b6538038062001b65833981016040819052620000359162000147565b600160009081556001600160a01b03808416608081905260a081905290831660c081905260e0819052604080516392a10f8360e01b81529051929391926392a10f83926004808401936020939290839003909101908290875af1158015620000a1573d6000803e3d6000fd5b505050506040513d601f19601f82011682018060405250810190620000c791906200017f565b6001600160a01b031614620001225760405162461bcd60e51b815260206004820152601860248201527f496c6c6567616c20636f6e74726163742070616972696e670000000000000000604482015260640160405180910390fd5b5050620001a4565b80516001600160a01b03811681146200014257600080fd5b919050565b600080604083850312156200015b57600080fd5b62000166836200012a565b915062000176602084016200012a565b90509250929050565b6000602082840312156200019257600080fd5b6200019d826200012a565b9392505050565b60805160a05160c05160e05161196462000201600039600061089301526000610504015260008181610a0501528181610b5401528181610cce01528181610e7a01528181610fda01526111330152600061037f01526119646000f3fe60806040526004361061012d5760003560e01c80615aa1146101325780617b421461015857806315bed1591461016b5780631ec2e5231461018b578063202c5805146101ab5780633aa5fe59146101be57806340d1397e146101de578063462add461461020057806356690aaf146102405780636b453e70146102795780636cb9b7ff146102b05780636ede4ade146102d0578063774159c6146102f0578063891407c01461035a57806392a10f831461036d5780639775f86f146103b9578063aea7d3b9146103ce578063c71b1b7114610406578063cc3352bf146104a5578063d684ec67146104c5578063da7e7c5014610132578063dd85582f146104f2578063e9d1e8ac14610526578063efef39a11461056d578063f1e331151461057b578063f7bd4b881461059b575b600080fd5b6101456101403660046114b1565b6105bb565b6040519081526020015b60405180910390f35b610145610166366004611514565b6105d1565b34801561017757600080fd5b5061014561018636600461156f565b61094b565b34801561019757600080fd5b506101456101a6366004611588565b610985565b6101456101b9366004611514565b61099c565b3480156101ca57600080fd5b506101456101d93660046115de565b6109b3565b3480156101ea57600080fd5b506101fe6101f936600461156f565b6109ed565b005b34801561020c57600080fd5b5061023061021b36600461156f565b60009081526001602052604090205460ff1690565b604051901515815260200161014f565b34801561024c57600080fd5b5061014561025b36600461156f565b600090815260016020526040902054600160301b900462ffffff1690565b34801561028557600080fd5b50610299610294366004611602565b610ae7565b60408051921515835260208301919091520161014f565b3480156102bc57600080fd5b506101fe6102cb366004611632565b610b3c565b3480156102dc57600080fd5b506102306102eb366004611654565b610c4a565b3480156102fc57600080fd5b5061034a61030b36600461156f565b600090815260016020818152604080842080549301548151808301909252600382526208aa8960eb1b9282019290925261010090920460ff1693909290565b60405161014f94939291906116f8565b610145610368366004611732565b610c6f565b34801561037957600080fd5b506103a17f000000000000000000000000000000000000000000000000000000000000000081565b6040516001600160a01b03909116815260200161014f565b3480156103c557600080fd5b50610145600181565b3480156103da57600080fd5b506101456103e9366004611602565b600360209081526000928352604080842090915290825290205481565b34801561041257600080fd5b5061046961042136600461156f565b6001602081905260009182526040909120805491015460ff8083169261010081048216926201000082049092169162ffffff63010000008304811692600160301b9004169086565b60408051961515875294151560208701529215159385019390935262ffffff9081166060850152909116608083015260a082015260c00161014f565b3480156104b157600080fd5b506101fe6104c036600461175e565b610cb6565b3480156104d157600080fd5b506101456104e036600461156f565b60026020526000908152604090205481565b3480156104fe57600080fd5b506103a17f000000000000000000000000000000000000000000000000000000000000000081565b34801561053257600080fd5b506105606040518060400160405280600e81526020016d4d696e7465724d65726b6c65563160901b81525081565b60405161014f919061178b565b61014561036836600461156f565b34801561058757600080fd5b506101fe610596366004611632565b610e62565b3480156105a757600080fd5b506101fe6105b636600461156f565b610fc1565b60006105c9338585856105d1565b949350505050565b600060026000540361062a5760405162461bcd60e51b815260206004820152601f60248201527f5265656e7472616e637947756172643a207265656e7472616e742063616c6c0060448201526064015b60405180910390fd5b60026000908155848152600160205260409020805460ff161561069d5760405162461bcd60e51b815260206004820152602560248201527f4d6178696d756d206e756d626572206f6620696e766f636174696f6e732072656044820152641858da195960da1b6064820152608401610621565b6001810154348111156106f25760405162461bcd60e51b815260206004820181905260248201527f4d7573742073656e64206d696e696d756d2076616c756520746f206d696e74216044820152606401610621565b8154610100900460ff1661073f5760405162461bcd60e51b8152602060048201526014602482015273141c9a58d9481b9bdd0818dbdb999a59dd5c995960621b6044820152606401610621565b61074b86868633610c4a565b61078e5760405162461bcd60e51b815260206004820152601460248201527324b73b30b634b21026b2b935b63290383937b7b360611b6044820152606401610621565b815460009062010000900460ff166107a75760016107b6565b82546301000000900462ffffff165b60008881526003602090815260408083203384529091529020549091508111806107de575080155b6108445760405162461bcd60e51b815260206004820152603160248201527f4d6178696d756d206e756d626572206f6620696e766f636174696f6e732070656044820152701c881859191c995cdcc81c995858da1959607a1b6064820152608401610621565b600087815260036020908152604080832033808552925291829020805460010190559051630d4d151360e01b81526001600160a01b038a81166004830152602482018a905260448201929092527f000000000000000000000000000000000000000000000000000000000000000090911690630d4d1513906064016020604051808303816000875af11580156108de573d6000803e3d6000fd5b505050506040513d601f19601f82011682018060405250810190610902919061179e565b835490945060001962ffffff600160301b90920482160116620f424085060361093157825460ff191660011783555b61093b8783611085565b5050506001600055949350505050565b6000818152600160205260408120805462010000900460ff161561097c57546301000000900462ffffff1692915050565b50600192915050565b60006105c9610993836109b3565b859085906113ce565b60006109aa858585856105d1565b95945050505050565b6040516001600160601b0319606083901b166020820152600090603401604051602081830303815290604052805190602001209050919050565b60405163a47d29cb60e01b81526004810182905281907f00000000000000000000000000000000000000000000000000000000000000006001600160a01b03169063a47d29cb90602401602060405180830381865afa158015610a54573d6000803e3d6000fd5b505050506040513d601f19601f82011682018060405250810190610a7891906117b7565b6001600160a01b0316336001600160a01b031614610aa85760405162461bcd60e51b8152600401610621906117d4565b60405162461bcd60e51b81526020600482015260146024820152731058dd1a5bdb881b9bdd081cdd5c1c1bdc9d195960621b6044820152606401610621565b6000806000610af58561094b565b90508015610b345760008581526003602090815260408083206001600160a01b03881684529091529020546001935080821115610b325780820392505b505b509250929050565b60405163a47d29cb60e01b81526004810183905282907f00000000000000000000000000000000000000000000000000000000000000006001600160a01b03169063a47d29cb90602401602060405180830381865afa158015610ba3573d6000803e3d6000fd5b505050506040513d601f19601f82011682018060405250810190610bc791906117b7565b6001600160a01b0316336001600160a01b031614610bf75760405162461bcd60e51b8152600401610621906117d4565b6000838152600160208190526040808320918201859055815461ff0019166101001790915551839185917f26118a27aca826f829f3bfe21b140b4455c00b434849bd0da50d1e1a9720fb5c9190a3505050565b6000848152600260205260408120546109aa90610c66846109b3565b8691869161141a565b60405162461bcd60e51b815260206004820152601960248201527826bab9ba10383937bb34b2329026b2b935b63290383937b7b360391b6044820152600090606401610621565b60405163a47d29cb60e01b81526004810183905282907f00000000000000000000000000000000000000000000000000000000000000006001600160a01b03169063a47d29cb90602401602060405180830381865afa158015610d1d573d6000803e3d6000fd5b505050506040513d601f19601f82011682018060405250810190610d4191906117b7565b6001600160a01b0316336001600160a01b031614610d715760405162461bcd60e51b8152600401610621906117d4565b600083815260016020819052604091829020805462ffffff861663010000000265ffffffff0000199091161762010000178155915185917fc594e23b9382359e253cdaba84b0aefe5ad09ccfd5706891673743b37229c2d291610dfb91797573654d61784d696e7473506572416464724f7665727269646560301b82521515602082015260400190565b60405180910390a260408051766d61784d696e7473506572416464724f7665727269646560481b815262ffffff8516602082015285917f8a5820ca7148caeda3176e8d60a3bb413b4bcca45922ac2178b1ee191fe320eb910160405180910390a250505050565b60405163a47d29cb60e01b81526004810183905282907f00000000000000000000000000000000000000000000000000000000000000006001600160a01b03169063a47d29cb90602401602060405180830381865afa158015610ec9573d6000803e3d6000fd5b505050506040513d601f19601f82011682018060405250810190610eed91906117b7565b6001600160a01b0316336001600160a01b031614610f1d5760405162461bcd60e51b8152600401610621906117d4565b81610f625760405162461bcd60e51b8152602060048201526015602482015274149bdbdd081b5d5cdd081899481c1c9bdd9a591959605a1b6044820152606401610621565b6000838152600260209081526040918290208490558151691b595c9adb19549bdbdd60b21b815290810184905284917f729c0261c7e3c976b9a392f2bb08064d7a03c82f9f1473ab0ee284c985df0815910160405180910390a2505050565b604051630ea5613f60e01b8152600481018290526000907f00000000000000000000000000000000000000000000000000000000000000006001600160a01b031690630ea5613f9060240160c060405180830381865afa158015611029573d6000803e3d6000fd5b505050506040513d601f19601f8201168201806040525081019061104d919061180e565b50505060009485525060016020526040909320805462ffffff909416600160301b0262ffffff60301b19909416939093179092555050565b34156113ca576000806110988334611883565b905080156111285760405133908290600081818185875af1925050503d80600081146110e0576040519150601f19603f3d011682016040523d82523d6000602084013e6110e5565b606091505b505080925050816111285760405162461bcd60e51b815260206004820152600d60248201526c1499599d5b990819985a5b1959609a1b6044820152606401610621565b6000806000806000807f00000000000000000000000000000000000000000000000000000000000000006001600160a01b0316638639415b8b8b6040518363ffffffff1660e01b8152600401611188929190918252602082015260400190565b60c060405180830381865afa1580156111a5573d6000803e3d6000fd5b505050506040513d601f19601f820116820180604052508101906111c99190611896565b955095509550955095509550600086111561127b576040516001600160a01b038616908790600081818185875af1925050503d8060008114611227576040519150601f19603f3d011682016040523d82523d6000602084013e61122c565b606091505b5050809850508761127b5760405162461bcd60e51b8152602060048201526019602482015278105c9d08109b1bd8dadcc81c185e5b595b9d0819985a5b1959603a1b6044820152606401610621565b831561131a576040516001600160a01b038416908590600081818185875af1925050503d80600081146112ca576040519150601f19603f3d011682016040523d82523d6000602084013e6112cf565b606091505b5050809850508761131a5760405162461bcd60e51b8152602060048201526015602482015274105c9d1a5cdd081c185e5b595b9d0819985a5b1959605a1b6044820152606401610621565b81156113c1576040516001600160a01b038216908390600081818185875af1925050503d8060008114611369576040519150601f19603f3d011682016040523d82523d6000602084013e61136e565b606091505b505080985050876113c15760405162461bcd60e51b815260206004820152601f60248201527f4164646974696f6e616c205061796565207061796d656e74206661696c6564006044820152606401610621565b50505050505050505b5050565b600081815b84811015611411576113fd828787848181106113f1576113f16118ff565b90506020020135611432565b91508061140981611915565b9150506113d3565b50949350505050565b6000826114288686856113ce565b1495945050505050565b600081831061144e57600082815260208490526040902061145d565b60008381526020839052604090205b90505b92915050565b60008083601f84011261147857600080fd5b5081356001600160401b0381111561148f57600080fd5b6020830191508360208260051b85010111156114aa57600080fd5b9250929050565b6000806000604084860312156114c657600080fd5b8335925060208401356001600160401b038111156114e357600080fd5b6114ef86828701611466565b9497909650939450505050565b6001600160a01b038116811461151157600080fd5b50565b6000806000806060858703121561152a57600080fd5b8435611535816114fc565b93506020850135925060408501356001600160401b0381111561155757600080fd5b61156387828801611466565b95989497509550505050565b60006020828403121561158157600080fd5b5035919050565b60008060006040848603121561159d57600080fd5b83356001600160401b038111156115b357600080fd5b6115bf86828701611466565b90945092505060208401356115d3816114fc565b809150509250925092565b6000602082840312156115f057600080fd5b81356115fb816114fc565b9392505050565b6000806040838503121561161557600080fd5b823591506020830135611627816114fc565b809150509250929050565b6000806040838503121561164557600080fd5b50508035926020909101359150565b6000806000806060858703121561166a57600080fd5b8435935060208501356001600160401b0381111561168757600080fd5b61169387828801611466565b90945092505060408501356116a7816114fc565b939692955090935050565b6000815180845260005b818110156116d8576020818501810151868301820152016116bc565b506000602082860101526020601f19601f83011685010191505092915050565b841515815283602082015260806040820152600061171960808301856116b2565b905060018060a01b038316606083015295945050505050565b6000806040838503121561174557600080fd5b8235611750816114fc565b946020939093013593505050565b6000806040838503121561177157600080fd5b82359150602083013562ffffff8116811461162757600080fd5b60208152600061145d60208301846116b2565b6000602082840312156117b057600080fd5b5051919050565b6000602082840312156117c957600080fd5b81516115fb816114fc565b6020808252600b908201526a13db9b1e48105c9d1a5cdd60aa1b604082015260600190565b8051801515811461180957600080fd5b919050565b60008060008060008060c0878903121561182757600080fd5b865195506020870151945061183e604088016117f9565b935061184c606088016117f9565b92506080870151915061186160a088016117f9565b90509295509295509295565b634e487b7160e01b600052601160045260246000fd5b818103818111156114605761146061186d565b60008060008060008060c087890312156118af57600080fd5b8651955060208701516118c1816114fc565b6040880151606089015191965094506118d9816114fc565b608088015160a089015191945092506118f1816114fc565b809150509295509295509295565b634e487b7160e01b600052603260045260246000fd5b6000600182016119275761192761186d565b506001019056fea264697066735822122021861893aae321d41e42ffd07deba308b3342c1825addf0476a1d92eaf7bae2b64736f6c63430008100033",
  "linkReferences": {},
  "deployedLinkReferences": {}
}