{
  "_format": "hh-sol-artifact-1",
  "contractName": "MinterSetPriceV2",
  "sourceName": "contracts/minter-suite/Minters/MinterSetPrice/MinterSetPriceV2.sol",
  "abi": [
    {
      "inputs": [
        {
          "internalType": "address",
          "name": "_genArt721Address",
          "type": "address"
        },
        {
          "internalType": "address",
          "name": "_minterFilter",
          "type": "address"
        }
      ],
      "stateMutability": "nonpayable",
      "type": "constructor"
    },
    {
      "anonymous": false,
      "inputs": [
        {
          "indexed": true,
          "internalType": "uint256",
          "name": "_projectId",
          "type": "uint256"
        },
        {
          "indexed": true,
          "internalType": "uint256",
          "name": "_pricePerTokenInWei",
          "type": "uint256"
        }
      ],
      "name": "PricePerTokenInWeiUpdated",
      "type": "event"
    },
    {
      "anonymous": false,
      "inputs": [
        {
          "indexed": true,
          "internalType": "uint256",
          "name": "_projectId",
          "type": "uint256"
        },
        {
          "indexed": true,
          "internalType": "address",
          "name": "_currencyAddress",
          "type": "address"
        },
        {
          "indexed": false,
          "internalType": "string",
          "name": "_currencySymbol",
          "type": "string"
        }
      ],
      "name": "ProjectCurrencyInfoUpdated",
      "type": "event"
    },
    {
      "anonymous": false,
      "inputs": [
        {
          "indexed": true,
          "internalType": "uint256",
          "name": "_projectId",
          "type": "uint256"
        },
        {
          "indexed": false,
          "internalType": "bool",
          "name": "_purchaseToDisabled",
          "type": "bool"
        }
      ],
      "name": "PurchaseToDisabledUpdated",
      "type": "event"
    },
    {
      "inputs": [],
      "name": "genArt721CoreAddress",
      "outputs": [
        {
          "internalType": "address",
          "name": "",
          "type": "address"
        }
      ],
      "stateMutability": "view",
      "type": "function"
    },
    {
      "inputs": [
        {
          "internalType": "uint256",
          "name": "_projectId",
          "type": "uint256"
        }
      ],
      "name": "getPriceInfo",
      "outputs": [
        {
          "internalType": "bool",
          "name": "isConfigured",
          "type": "bool"
        },
        {
          "internalType": "uint256",
          "name": "tokenPriceInWei",
          "type": "uint256"
        },
        {
          "internalType": "string",
          "name": "currencySymbol",
          "type": "string"
        },
        {
          "internalType": "address",
          "name": "currencyAddress",
          "type": "address"
        }
      ],
      "stateMutability": "view",
      "type": "function"
    },
    {
      "inputs": [],
      "name": "minterFilterAddress",
      "outputs": [
        {
          "internalType": "address",
          "name": "",
          "type": "address"
        }
      ],
      "stateMutability": "view",
      "type": "function"
    },
    {
      "inputs": [],
      "name": "minterType",
      "outputs": [
        {
          "internalType": "string",
          "name": "",
          "type": "string"
        }
      ],
      "stateMutability": "view",
      "type": "function"
    },
    {
      "inputs": [
        {
          "internalType": "uint256",
          "name": "",
          "type": "uint256"
        }
      ],
      "name": "projectConfig",
      "outputs": [
        {
          "internalType": "bool",
          "name": "maxHasBeenInvoked",
          "type": "bool"
        },
        {
          "internalType": "bool",
          "name": "priceIsConfigured",
          "type": "bool"
        },
        {
          "internalType": "uint24",
          "name": "maxInvocations",
          "type": "uint24"
        },
        {
          "internalType": "uint256",
          "name": "pricePerTokenInWei",
          "type": "uint256"
        }
      ],
      "stateMutability": "view",
      "type": "function"
    },
    {
      "inputs": [
        {
          "internalType": "uint256",
          "name": "_projectId",
          "type": "uint256"
        }
      ],
      "name": "projectMaxHasBeenInvoked",
      "outputs": [
        {
          "internalType": "bool",
          "name": "",
          "type": "bool"
        }
      ],
      "stateMutability": "view",
      "type": "function"
    },
    {
      "inputs": [
        {
          "internalType": "uint256",
          "name": "_projectId",
          "type": "uint256"
        }
      ],
      "name": "projectMaxInvocations",
      "outputs": [
        {
          "internalType": "uint256",
          "name": "",
          "type": "uint256"
        }
      ],
      "stateMutability": "view",
      "type": "function"
    },
    {
      "inputs": [
        {
          "internalType": "uint256",
          "name": "_projectId",
          "type": "uint256"
        }
      ],
      "name": "purchase",
      "outputs": [
        {
          "internalType": "uint256",
          "name": "tokenId",
          "type": "uint256"
        }
      ],
      "stateMutability": "payable",
      "type": "function"
    },
    {
      "inputs": [
        {
          "internalType": "address",
          "name": "_to",
          "type": "address"
        },
        {
          "internalType": "uint256",
          "name": "_projectId",
          "type": "uint256"
        }
      ],
      "name": "purchaseTo",
      "outputs": [
        {
          "internalType": "uint256",
          "name": "tokenId",
          "type": "uint256"
        }
      ],
      "stateMutability": "payable",
      "type": "function"
    },
    {
      "inputs": [
        {
          "internalType": "address",
          "name": "_to",
          "type": "address"
        },
        {
          "internalType": "uint256",
          "name": "_projectId",
          "type": "uint256"
        }
      ],
      "name": "purchaseTo_do6",
      "outputs": [
        {
          "internalType": "uint256",
          "name": "tokenId",
          "type": "uint256"
        }
      ],
      "stateMutability": "payable",
      "type": "function"
    },
    {
      "inputs": [
        {
          "internalType": "uint256",
          "name": "_projectId",
          "type": "uint256"
        }
      ],
      "name": "purchase_H4M",
      "outputs": [
        {
          "internalType": "uint256",
          "name": "tokenId",
          "type": "uint256"
        }
      ],
      "stateMutability": "payable",
      "type": "function"
    },
    {
      "inputs": [
        {
          "internalType": "uint256",
          "name": "_projectId",
          "type": "uint256"
        }
      ],
      "name": "setProjectMaxInvocations",
      "outputs": [],
      "stateMutability": "nonpayable",
      "type": "function"
    },
    {
      "inputs": [
        {
          "internalType": "uint256",
          "name": "_projectId",
          "type": "uint256"
        }
      ],
      "name": "togglePurchaseToDisabled",
      "outputs": [],
      "stateMutability": "view",
      "type": "function"
    },
    {
      "inputs": [
        {
          "internalType": "uint256",
          "name": "_projectId",
          "type": "uint256"
        },
        {
          "internalType": "uint256",
          "name": "_pricePerTokenInWei",
          "type": "uint256"
        }
      ],
      "name": "updatePricePerTokenInWei",
      "outputs": [],
      "stateMutability": "nonpayable",
      "type": "function"
    }
  ],
  "bytecode": "0x6101006040523480156200001257600080fd5b50604051620010fc380380620010fc833981016040819052620000359162000157565b600160009081556001600160a01b03808416608081905260a081905290831660c081905260e0819052604080516392a10f8360e01b81529051929391926392a10f8392600480840193602093929083900390910190829087803b1580156200009c57600080fd5b505af1158015620000b1573d6000803e3d6000fd5b505050506040513d601f19601f82011682018060405250810190620000d791906200018f565b6001600160a01b031614620001325760405162461bcd60e51b815260206004820152601860248201527f496c6c6567616c20636f6e74726163742070616972696e670000000000000000604482015260640160405180910390fd5b5050620001b4565b80516001600160a01b03811681146200015257600080fd5b919050565b600080604083850312156200016b57600080fd5b62000176836200013a565b915062000186602084016200013a565b90509250929050565b600060208284031215620001a257600080fd5b620001ad826200013a565b9392505050565b60805160a05160c05160e051610ef962000203600039600061051f015260006102f901526000818161060b015281816107140152818161084601526109ab015260006102300152610ef96000f3fe6080604052600436106100a95760003560e01c80619987146100ae578061b460146100d457806340d1397e146100e7578063462add461461010957806356690aaf146101495780636cb9b7ff14610181578063774159c6146101a1578063891407c01461020b57806392a10f831461021e578063c71b1b711461026a578063dd85582f146102e7578063e9d1e8ac1461031b578063efef39a1146100d4578063f7bd4b8814610364575b600080fd5b6100c16100bc366004610c6d565b610384565b6040519081526020015b60405180910390f35b6100c16100e2366004610c99565b6105e1565b3480156100f357600080fd5b50610107610102366004610c99565b6105f3565b005b34801561011557600080fd5b50610139610124366004610c99565b60009081526001602052604090205460ff1690565b60405190151581526020016100cb565b34801561015557600080fd5b506100c1610164366004610c99565b60009081526001602052604090205462010000900462ffffff1690565b34801561018d57600080fd5b5061010761019c366004610cb2565b6106fc565b3480156101ad57600080fd5b506101fb6101bc366004610c99565b600090815260016020818152604080842080549301548151808301909252600382526208aa8960eb1b9282019290925261010090920460ff1693909290565b6040516100cb9493929190610d21565b6100c1610219366004610c6d565b61081a565b34801561022a57600080fd5b506102527f000000000000000000000000000000000000000000000000000000000000000081565b6040516001600160a01b0390911681526020016100cb565b34801561027657600080fd5b506102ba610285366004610c99565b6001602081905260009182526040909120805491015460ff808316926101008104909116916201000090910462ffffff169084565b6040516100cb94939291909315158452911515602084015262ffffff166040830152606082015260800190565b3480156102f357600080fd5b506102527f000000000000000000000000000000000000000000000000000000000000000081565b34801561032757600080fd5b506103576040518060400160405280601081526020016f26b4b73a32b929b2ba283934b1b2ab1960811b81525081565b6040516100cb9190610d5b565b34801561037057600080fd5b5061010761037f366004610c99565b61082d565b6000600260005414156103de5760405162461bcd60e51b815260206004820152601f60248201527f5265656e7472616e637947756172643a207265656e7472616e742063616c6c0060448201526064015b60405180910390fd5b60026000908155828152600160205260409020805460ff16156104515760405162461bcd60e51b815260206004820152602560248201527f4d6178696d756d206e756d626572206f6620696e766f636174696f6e732072656044820152641858da195960da1b60648201526084016103d5565b8054610100900460ff1661049e5760405162461bcd60e51b8152602060048201526014602482015273141c9a58d9481b9bdd0818dbdb999a59dd5c995960621b60448201526064016103d5565b6001810154348111156104f35760405162461bcd60e51b815260206004820181905260248201527f4d7573742073656e64206d696e696d756d2076616c756520746f206d696e742160448201526064016103d5565b604051630d4d151360e01b81526001600160a01b038681166004830152602482018690523360448301527f00000000000000000000000000000000000000000000000000000000000000001690630d4d151390606401602060405180830381600087803b15801561056357600080fd5b505af1158015610577573d6000803e3d6000fd5b505050506040513d601f19601f8201168201806040525081019061059b9190610d6e565b825490935060001962ffffff6201000090920482160116620f4240840614156105ca57815460ff191660011782555b6105d484826108fd565b5050600160005592915050565b60006105ed3383610384565b92915050565b60405163a47d29cb60e01b81526004810182905281907f00000000000000000000000000000000000000000000000000000000000000006001600160a01b03169063a47d29cb9060240160206040518083038186803b15801561065557600080fd5b505afa158015610669573d6000803e3d6000fd5b505050506040513d601f19601f8201168201806040525081019061068d9190610d87565b6001600160a01b0316336001600160a01b0316146106bd5760405162461bcd60e51b81526004016103d590610da4565b60405162461bcd60e51b81526020600482015260146024820152731058dd1a5bdb881b9bdd081cdd5c1c1bdc9d195960621b60448201526064016103d5565b60405163a47d29cb60e01b81526004810183905282907f00000000000000000000000000000000000000000000000000000000000000006001600160a01b03169063a47d29cb9060240160206040518083038186803b15801561075e57600080fd5b505afa158015610772573d6000803e3d6000fd5b505050506040513d601f19601f820116820180604052508101906107969190610d87565b6001600160a01b0316336001600160a01b0316146107c65760405162461bcd60e51b81526004016103d590610da4565b6000838152600160208190526040808320918201859055815461ff001916610100178255519091849186917f26118a27aca826f829f3bfe21b140b4455c00b434849bd0da50d1e1a9720fb5c91a350505050565b60006108268383610384565b9392505050565b604051630ea5613f60e01b8152600481018290526000907f00000000000000000000000000000000000000000000000000000000000000006001600160a01b031690630ea5613f9060240160a06040518083038186803b15801561089057600080fd5b505afa1580156108a4573d6000803e3d6000fd5b505050506040513d601f19601f820116820180604052508101906108c89190610dde565b505050600093845260016020526040909320805462ffffff909416620100000264ffffff000019909416939093179092555050565b3415610c51576000806109108334610e35565b905080156109a05760405133908290600081818185875af1925050503d8060008114610958576040519150601f19603f3d011682016040523d82523d6000602084013e61095d565b606091505b505080925050816109a05760405162461bcd60e51b815260206004820152600d60248201526c1499599d5b990819985a5b1959609a1b60448201526064016103d5565b6000806000806000807f00000000000000000000000000000000000000000000000000000000000000006001600160a01b0316638639415b8b8b6040518363ffffffff1660e01b8152600401610a00929190918252602082015260400190565b60c06040518083038186803b158015610a1857600080fd5b505afa158015610a2c573d6000803e3d6000fd5b505050506040513d601f19601f82011682018060405250810190610a509190610e5a565b9550955095509550955095506000861115610b02576040516001600160a01b038616908790600081818185875af1925050503d8060008114610aae576040519150601f19603f3d011682016040523d82523d6000602084013e610ab3565b606091505b50508098505087610b025760405162461bcd60e51b8152602060048201526019602482015278105c9d08109b1bd8dadcc81c185e5b595b9d0819985a5b1959603a1b60448201526064016103d5565b8315610ba1576040516001600160a01b038416908590600081818185875af1925050503d8060008114610b51576040519150601f19603f3d011682016040523d82523d6000602084013e610b56565b606091505b50508098505087610ba15760405162461bcd60e51b8152602060048201526015602482015274105c9d1a5cdd081c185e5b595b9d0819985a5b1959605a1b60448201526064016103d5565b8115610c48576040516001600160a01b038216908390600081818185875af1925050503d8060008114610bf0576040519150601f19603f3d011682016040523d82523d6000602084013e610bf5565b606091505b50508098505087610c485760405162461bcd60e51b815260206004820152601f60248201527f4164646974696f6e616c205061796565207061796d656e74206661696c65640060448201526064016103d5565b50505050505050505b5050565b6001600160a01b0381168114610c6a57600080fd5b50565b60008060408385031215610c8057600080fd5b8235610c8b81610c55565b946020939093013593505050565b600060208284031215610cab57600080fd5b5035919050565b60008060408385031215610cc557600080fd5b50508035926020909101359150565b6000815180845260005b81811015610cfa57602081850181015186830182015201610cde565b81811115610d0c576000602083870101525b50601f01601f19169290920160200192915050565b8415158152836020820152608060408201526000610d426080830185610cd4565b905060018060a01b038316606083015295945050505050565b6020815260006108266020830184610cd4565b600060208284031215610d8057600080fd5b5051919050565b600060208284031215610d9957600080fd5b815161082681610c55565b6020808252600b908201526a13db9b1e48105c9d1a5cdd60aa1b604082015260600190565b80518015158114610dd957600080fd5b919050565b600080600080600060a08688031215610df657600080fd5b8551945060208601519350610e0d60408701610dc9565b9250610e1b60608701610dc9565b9150610e2960808701610dc9565b90509295509295909350565b600082821015610e5557634e487b7160e01b600052601160045260246000fd5b500390565b60008060008060008060c08789031215610e7357600080fd5b865195506020870151610e8581610c55565b604088015160608901519196509450610e9d81610c55565b608088015160a08901519194509250610eb581610c55565b80915050929550929550929556fea264697066735822122075da7fd7ca3d08665a2ec83b7bb87ea7d4e63b318167844aed297e8619080ac864736f6c63430008090033",
  "linkReferences": {},
  "deployedLinkReferences": {}
}