{
  "_format": "hh-sol-artifact-1",
  "contractName": "MinterDALinV2",
  "sourceName": "contracts/minter-suite/Minters/MinterDALin/MinterDALinV2.sol",
  "abi": [
    {
      "inputs": [
        {
          "internalType": "address",
          "name": "_genArt721Address",
          "type": "address"
        },
        {
          "internalType": "address",
          "name": "_minterFilter",
          "type": "address"
        }
      ],
      "stateMutability": "nonpayable",
      "type": "constructor"
    },
    {
      "anonymous": false,
      "inputs": [
        {
          "indexed": false,
          "internalType": "uint256",
          "name": "_minimumAuctionLengthSeconds",
          "type": "uint256"
        }
      ],
      "name": "MinimumAuctionLengthSecondsUpdated",
      "type": "event"
    },
    {
      "anonymous": false,
      "inputs": [
        {
          "indexed": true,
          "internalType": "uint256",
          "name": "_projectId",
          "type": "uint256"
        },
        {
          "indexed": true,
          "internalType": "uint256",
          "name": "_pricePerTokenInWei",
          "type": "uint256"
        }
      ],
      "name": "PricePerTokenInWeiUpdated",
      "type": "event"
    },
    {
      "anonymous": false,
      "inputs": [
        {
          "indexed": true,
          "internalType": "uint256",
          "name": "_projectId",
          "type": "uint256"
        },
        {
          "indexed": true,
          "internalType": "address",
          "name": "_currencyAddress",
          "type": "address"
        },
        {
          "indexed": false,
          "internalType": "string",
          "name": "_currencySymbol",
          "type": "string"
        }
      ],
      "name": "ProjectCurrencyInfoUpdated",
      "type": "event"
    },
    {
      "anonymous": false,
      "inputs": [
        {
          "indexed": true,
          "internalType": "uint256",
          "name": "_projectId",
          "type": "uint256"
        },
        {
          "indexed": false,
          "internalType": "bool",
          "name": "_purchaseToDisabled",
          "type": "bool"
        }
      ],
      "name": "PurchaseToDisabledUpdated",
      "type": "event"
    },
    {
      "anonymous": false,
      "inputs": [
        {
          "indexed": true,
          "internalType": "uint256",
          "name": "projectId",
          "type": "uint256"
        }
      ],
      "name": "ResetAuctionDetails",
      "type": "event"
    },
    {
      "anonymous": false,
      "inputs": [
        {
          "indexed": true,
          "internalType": "uint256",
          "name": "projectId",
          "type": "uint256"
        },
        {
          "indexed": false,
          "internalType": "uint256",
          "name": "_auctionTimestampStart",
          "type": "uint256"
        },
        {
          "indexed": false,
          "internalType": "uint256",
          "name": "_auctionTimestampEnd",
          "type": "uint256"
        },
        {
          "indexed": false,
          "internalType": "uint256",
          "name": "_startPrice",
          "type": "uint256"
        },
        {
          "indexed": false,
          "internalType": "uint256",
          "name": "_basePrice",
          "type": "uint256"
        }
      ],
      "name": "SetAuctionDetails",
      "type": "event"
    },
    {
      "inputs": [],
      "name": "genArt721CoreAddress",
      "outputs": [
        {
          "internalType": "address",
          "name": "",
          "type": "address"
        }
      ],
      "stateMutability": "view",
      "type": "function"
    },
    {
      "inputs": [
        {
          "internalType": "uint256",
          "name": "_projectId",
          "type": "uint256"
        }
      ],
      "name": "getPriceInfo",
      "outputs": [
        {
          "internalType": "bool",
          "name": "isConfigured",
          "type": "bool"
        },
        {
          "internalType": "uint256",
          "name": "tokenPriceInWei",
          "type": "uint256"
        },
        {
          "internalType": "string",
          "name": "currencySymbol",
          "type": "string"
        },
        {
          "internalType": "address",
          "name": "currencyAddress",
          "type": "address"
        }
      ],
      "stateMutability": "view",
      "type": "function"
    },
    {
      "inputs": [],
      "name": "minimumAuctionLengthSeconds",
      "outputs": [
        {
          "internalType": "uint256",
          "name": "",
          "type": "uint256"
        }
      ],
      "stateMutability": "view",
      "type": "function"
    },
    {
      "inputs": [],
      "name": "minterFilterAddress",
      "outputs": [
        {
          "internalType": "address",
          "name": "",
          "type": "address"
        }
      ],
      "stateMutability": "view",
      "type": "function"
    },
    {
      "inputs": [],
      "name": "minterType",
      "outputs": [
        {
          "internalType": "string",
          "name": "",
          "type": "string"
        }
      ],
      "stateMutability": "view",
      "type": "function"
    },
    {
      "inputs": [
        {
          "internalType": "uint256",
          "name": "_projectId",
          "type": "uint256"
        }
      ],
      "name": "projectAuctionParameters",
      "outputs": [
        {
          "internalType": "uint256",
          "name": "timestampStart",
          "type": "uint256"
        },
        {
          "internalType": "uint256",
          "name": "timestampEnd",
          "type": "uint256"
        },
        {
          "internalType": "uint256",
          "name": "startPrice",
          "type": "uint256"
        },
        {
          "internalType": "uint256",
          "name": "basePrice",
          "type": "uint256"
        }
      ],
      "stateMutability": "view",
      "type": "function"
    },
    {
      "inputs": [
        {
          "internalType": "uint256",
          "name": "",
          "type": "uint256"
        }
      ],
      "name": "projectConfig",
      "outputs": [
        {
          "internalType": "bool",
          "name": "maxHasBeenInvoked",
          "type": "bool"
        },
        {
          "internalType": "uint24",
          "name": "maxInvocations",
          "type": "uint24"
        },
        {
          "internalType": "uint64",
          "name": "timestampStart",
          "type": "uint64"
        },
        {
          "internalType": "uint64",
          "name": "timestampEnd",
          "type": "uint64"
        },
        {
          "internalType": "uint256",
          "name": "startPrice",
          "type": "uint256"
        },
        {
          "internalType": "uint256",
          "name": "basePrice",
          "type": "uint256"
        }
      ],
      "stateMutability": "view",
      "type": "function"
    },
    {
      "inputs": [
        {
          "internalType": "uint256",
          "name": "_projectId",
          "type": "uint256"
        }
      ],
      "name": "projectMaxHasBeenInvoked",
      "outputs": [
        {
          "internalType": "bool",
          "name": "",
          "type": "bool"
        }
      ],
      "stateMutability": "view",
      "type": "function"
    },
    {
      "inputs": [
        {
          "internalType": "uint256",
          "name": "_projectId",
          "type": "uint256"
        }
      ],
      "name": "projectMaxInvocations",
      "outputs": [
        {
          "internalType": "uint256",
          "name": "",
          "type": "uint256"
        }
      ],
      "stateMutability": "view",
      "type": "function"
    },
    {
      "inputs": [
        {
          "internalType": "uint256",
          "name": "_projectId",
          "type": "uint256"
        }
      ],
      "name": "purchase",
      "outputs": [
        {
          "internalType": "uint256",
          "name": "tokenId",
          "type": "uint256"
        }
      ],
      "stateMutability": "payable",
      "type": "function"
    },
    {
      "inputs": [
        {
          "internalType": "address",
          "name": "_to",
          "type": "address"
        },
        {
          "internalType": "uint256",
          "name": "_projectId",
          "type": "uint256"
        }
      ],
      "name": "purchaseTo",
      "outputs": [
        {
          "internalType": "uint256",
          "name": "tokenId",
          "type": "uint256"
        }
      ],
      "stateMutability": "payable",
      "type": "function"
    },
    {
      "inputs": [
        {
          "internalType": "address",
          "name": "_to",
          "type": "address"
        },
        {
          "internalType": "uint256",
          "name": "_projectId",
          "type": "uint256"
        }
      ],
      "name": "purchaseTo_do6",
      "outputs": [
        {
          "internalType": "uint256",
          "name": "tokenId",
          "type": "uint256"
        }
      ],
      "stateMutability": "payable",
      "type": "function"
    },
    {
      "inputs": [
        {
          "internalType": "uint256",
          "name": "_projectId",
          "type": "uint256"
        }
      ],
      "name": "purchase_H4M",
      "outputs": [
        {
          "internalType": "uint256",
          "name": "tokenId",
          "type": "uint256"
        }
      ],
      "stateMutability": "payable",
      "type": "function"
    },
    {
      "inputs": [
        {
          "internalType": "uint256",
          "name": "_projectId",
          "type": "uint256"
        }
      ],
      "name": "resetAuctionDetails",
      "outputs": [],
      "stateMutability": "nonpayable",
      "type": "function"
    },
    {
      "inputs": [
        {
          "internalType": "uint256",
          "name": "_projectId",
          "type": "uint256"
        },
        {
          "internalType": "uint256",
          "name": "_auctionTimestampStart",
          "type": "uint256"
        },
        {
          "internalType": "uint256",
          "name": "_auctionTimestampEnd",
          "type": "uint256"
        },
        {
          "internalType": "uint256",
          "name": "_startPrice",
          "type": "uint256"
        },
        {
          "internalType": "uint256",
          "name": "_basePrice",
          "type": "uint256"
        }
      ],
      "name": "setAuctionDetails",
      "outputs": [],
      "stateMutability": "nonpayable",
      "type": "function"
    },
    {
      "inputs": [
        {
          "internalType": "uint256",
          "name": "_minimumAuctionLengthSeconds",
          "type": "uint256"
        }
      ],
      "name": "setMinimumAuctionLengthSeconds",
      "outputs": [],
      "stateMutability": "nonpayable",
      "type": "function"
    },
    {
      "inputs": [
        {
          "internalType": "uint256",
          "name": "_projectId",
          "type": "uint256"
        }
      ],
      "name": "setProjectMaxInvocations",
      "outputs": [],
      "stateMutability": "nonpayable",
      "type": "function"
    },
    {
      "inputs": [
        {
          "internalType": "uint256",
          "name": "_projectId",
          "type": "uint256"
        }
      ],
      "name": "togglePurchaseToDisabled",
      "outputs": [],
      "stateMutability": "view",
      "type": "function"
    }
  ],
  "bytecode": "0x610100604052610e106002553480156200001857600080fd5b50604051620018ed380380620018ed8339810160408190526200003b916200015d565b600160009081556001600160a01b03808416608081905260a081905290831660c081905260e0819052604080516392a10f8360e01b81529051929391926392a10f8392600480840193602093929083900390910190829087803b158015620000a257600080fd5b505af1158015620000b7573d6000803e3d6000fd5b505050506040513d601f19601f82011682018060405250810190620000dd919062000195565b6001600160a01b031614620001385760405162461bcd60e51b815260206004820152601860248201527f496c6c6567616c20636f6e74726163742070616972696e670000000000000000604482015260640160405180910390fd5b5050620001ba565b80516001600160a01b03811681146200015857600080fd5b919050565b600080604083850312156200017157600080fd5b6200017c8362000140565b91506200018c6020840162000140565b90509250929050565b600060208284031215620001a857600080fd5b620001b38262000140565b9392505050565b60805160a05160c05160e0516116d66200021760003960006105ae015260006103d00152600081816106a1015281816107c5015281816108c001528181610a7401528181610dfe0152611077015260006102a701526116d66000f3fe6080604052600436106100d55760003560e01c80619987146100da578061b460146101005780632aedc28e146101135780632f077ee6146101355780632fc37ef11461019b57806340d1397e146101bb578063462add46146101db57806356690aaf1461021b578063774159c614610252578063891407c01461028257806392a10f8314610295578063b2d30ac7146102e1578063c71b1b71146102f7578063cd379f6e1461039e578063dd85582f146103be578063e9d1e8ac146103f2578063efef39a114610100578063f7bd4b8814610438575b600080fd5b6100ed6100e8366004611339565b610458565b6040519081526020015b60405180910390f35b6100ed61010e366004611365565b61066f565b34801561011f57600080fd5b5061013361012e366004611365565b610681565b005b34801561014157600080fd5b5061018b610150366004611365565b60009081526001602081905260409091208054918101546002909101546001600160401b03600160201b8404811694600160601b9094041692565b6040516100f7949392919061137e565b3480156101a757600080fd5b506101336101b6366004611365565b6107a5565b3480156101c757600080fd5b506101336101d6366004611365565b6108a8565b3480156101e757600080fd5b5061020b6101f6366004611365565b60009081526001602052604090205460ff1690565b60405190151581526020016100f7565b34801561022757600080fd5b506100ed610236366004611365565b600090815260016020526040902054610100900462ffffff1690565b34801561025e57600080fd5b5061027261026d366004611365565b6109b1565b6040516100f794939291906113e6565b6100ed610290366004611339565b610a49565b3480156102a157600080fd5b506102c97f000000000000000000000000000000000000000000000000000000000000000081565b6040516001600160a01b0390911681526020016100f7565b3480156102ed57600080fd5b506100ed60025481565b34801561030357600080fd5b5061035e610312366004611365565b600160208190526000918252604090912080549181015460029091015460ff83169262ffffff610100820416926001600160401b03600160201b8304811693600160601b909304169186565b60408051961515875262ffffff90951660208701526001600160401b039384169486019490945291166060840152608083015260a082015260c0016100f7565b3480156103aa57600080fd5b506101336103b9366004611420565b610a5c565b3480156103ca57600080fd5b506102c97f000000000000000000000000000000000000000000000000000000000000000081565b3480156103fe57600080fd5b5061042b6040518060400160405280600d81526020016c26b4b73a32b92220a634b72b1960991b81525081565b6040516100f7919061145b565b34801561044457600080fd5b50610133610453366004611365565b610de5565b6000600260005414156104b25760405162461bcd60e51b815260206004820152601f60248201527f5265656e7472616e637947756172643a207265656e7472616e742063616c6c0060448201526064015b60405180910390fd5b60026000908155828152600160205260409020805460ff16156105255760405162461bcd60e51b815260206004820152602560248201527f4d6178696d756d206e756d626572206f6620696e766f636174696f6e732072656044820152641858da195960da1b60648201526084016104a9565b600061053084610eb3565b9050803410156105825760405162461bcd60e51b815260206004820181905260248201527f4d7573742073656e64206d696e696d756d2076616c756520746f206d696e742160448201526064016104a9565b604051630d4d151360e01b81526001600160a01b038681166004830152602482018690523360448301527f00000000000000000000000000000000000000000000000000000000000000001690630d4d151390606401602060405180830381600087803b1580156105f257600080fd5b505af1158015610606573d6000803e3d6000fd5b505050506040513d601f19601f8201168201806040525081019061062a919061146e565b825490935060001962ffffff61010090920482160116620f42408406141561065857815460ff191660011782555b6106628482610fc9565b5050600160005592915050565b600061067b3383610458565b92915050565b60405163230448b160e01b8152631576e14760e11b906001600160a01b037f0000000000000000000000000000000000000000000000000000000000000000169063230448b1906106da90339030908690600401611487565b602060405180830381600087803b1580156106f457600080fd5b505af1158015610708573d6000803e3d6000fd5b505050506040513d601f19601f8201168201806040525081019061072c91906114c9565b6107485760405162461bcd60e51b81526004016104a9906114e4565b60008281526001602081905260408083208054600160201b600160a01b03191681559182018390556002820183905551909184917f2de6b284414d2e6b72bcc8d8d4de934e3f6410660a8f677c5c978f17f9cc2a929190a2505050565b60405163230448b160e01b8152632fc37ef160e01b906001600160a01b037f0000000000000000000000000000000000000000000000000000000000000000169063230448b1906107fe90339030908690600401611487565b602060405180830381600087803b15801561081857600080fd5b505af115801561082c573d6000803e3d6000fd5b505050506040513d601f19601f8201168201806040525081019061085091906114c9565b61086c5760405162461bcd60e51b81526004016104a9906114e4565b60028290556040518281527f03c81e81b0ed0ca5444a9d70c9f3d1c78d79d6a31419f77736e886d092ed1a9e9060200160405180910390a15050565b60405163a47d29cb60e01b81526004810182905281907f00000000000000000000000000000000000000000000000000000000000000006001600160a01b03169063a47d29cb9060240160206040518083038186803b15801561090a57600080fd5b505afa15801561091e573d6000803e3d6000fd5b505050506040513d601f19601f820116820180604052508101906109429190611518565b6001600160a01b0316336001600160a01b0316146109725760405162461bcd60e51b81526004016104a990611535565b60405162461bcd60e51b81526020600482015260146024820152731058dd1a5bdb881b9bdd081cdd5c1c1bdc9d195960621b60448201526064016104a9565b600081815260016020819052604082209081015481549015159291606091839190600160201b90046001600160401b031642116109f45780600101549350610a1f565b8054600160601b90046001600160401b0316610a135760009350610a1f565b610a1c86610eb3565b93505b6040518060400160405280600381526020016208aa8960eb1b815250925060009150509193509193565b6000610a558383610458565b9392505050565b60405163a47d29cb60e01b81526004810186905285907f00000000000000000000000000000000000000000000000000000000000000006001600160a01b03169063a47d29cb9060240160206040518083038186803b158015610abe57600080fd5b505afa158015610ad2573d6000803e3d6000fd5b505050506040513d601f19601f82011682018060405250810190610af69190611518565b6001600160a01b0316336001600160a01b031614610b265760405162461bcd60e51b81526004016104a990611535565b60008681526001602052604090208054600160201b90046001600160401b03161580610b6257508054600160201b90046001600160401b031642105b610bad5760405162461bcd60e51b815260206004820152601c60248201527b27379036b7b234b334b1b0ba34b7b7399036b4b216b0bab1ba34b7b760211b60448201526064016104a9565b854210610bf35760405162461bcd60e51b81526020600482015260146024820152734f6e6c79206675747572652061756374696f6e7360601b60448201526064016104a9565b858511610c595760405162461bcd60e51b815260206004820152602e60248201527f41756374696f6e20656e64206d7573742062652067726561746572207468616e60448201526d08185d58dd1a5bdb881cdd185c9d60921b60648201526084016104a9565b600254610c669087611570565b851015610cd95760405162461bcd60e51b815260206004820152603b60248201527f41756374696f6e206c656e677468206d757374206265206174206c656173742060448201527a6d696e696d756d41756374696f6e4c656e6774685365636f6e647360281b60648201526084016104a9565b828411610d4b5760405162461bcd60e51b815260206004820152603a60248201527f41756374696f6e207374617274207072696365206d7573742062652067726561604482015279746572207468616e2061756374696f6e20656e6420707269636560301b60648201526084016104a9565b80546001600160401b03868116600160601b0267ffffffffffffffff60601b19918916600160201b0291909116600160201b600160a01b031990921691909117178155600181018490556002810183905560405187907f38b3058b75696f9e45bffa9c4b237adcde13d74c7bc1bea63e13c712d0776c7490610dd490899089908990899061137e565b60405180910390a250505050505050565b604051630ea5613f60e01b8152600481018290526000907f00000000000000000000000000000000000000000000000000000000000000006001600160a01b031690630ea5613f9060240160a06040518083038186803b158015610e4857600080fd5b505afa158015610e5c573d6000803e3d6000fd5b505050506040513d601f19601f82011682018060405250810190610e809190611588565b505050600093845260016020526040909320805462ffffff9094166101000263ffffff0019909416939093179092555050565b60008181526001602081905260408220805491810154600282015491926001600160401b03600160201b8204811693600160601b909204169190428410610f365760405162461bcd60e51b8152602060048201526017602482015276105d58dd1a5bdb881b9bdd081e595d081cdd185c9d1959604a1b60448201526064016104a9565b824210610f925760008311610f885760405162461bcd60e51b81526020600482015260186024820152774f6e6c7920636f6e666967757265642061756374696f6e7360401b60448201526064016104a9565b9695505050505050565b4284900384840382840381610fa782856115df565b610fb191906115fe565b610fbb9086611620565b9a9950505050505050505050565b341561131d57600080610fdc8334611620565b9050801561106c5760405133908290600081818185875af1925050503d8060008114611024576040519150601f19603f3d011682016040523d82523d6000602084013e611029565b606091505b5050809250508161106c5760405162461bcd60e51b815260206004820152600d60248201526c1499599d5b990819985a5b1959609a1b60448201526064016104a9565b6000806000806000807f00000000000000000000000000000000000000000000000000000000000000006001600160a01b0316638639415b8b8b6040518363ffffffff1660e01b81526004016110cc929190918252602082015260400190565b60c06040518083038186803b1580156110e457600080fd5b505afa1580156110f8573d6000803e3d6000fd5b505050506040513d601f19601f8201168201806040525081019061111c9190611637565b95509550955095509550955060008611156111ce576040516001600160a01b038616908790600081818185875af1925050503d806000811461117a576040519150601f19603f3d011682016040523d82523d6000602084013e61117f565b606091505b505080985050876111ce5760405162461bcd60e51b8152602060048201526019602482015278105c9d08109b1bd8dadcc81c185e5b595b9d0819985a5b1959603a1b60448201526064016104a9565b831561126d576040516001600160a01b038416908590600081818185875af1925050503d806000811461121d576040519150601f19603f3d011682016040523d82523d6000602084013e611222565b606091505b5050809850508761126d5760405162461bcd60e51b8152602060048201526015602482015274105c9d1a5cdd081c185e5b595b9d0819985a5b1959605a1b60448201526064016104a9565b8115611314576040516001600160a01b038216908390600081818185875af1925050503d80600081146112bc576040519150601f19603f3d011682016040523d82523d6000602084013e6112c1565b606091505b505080985050876113145760405162461bcd60e51b815260206004820152601f60248201527f4164646974696f6e616c205061796565207061796d656e74206661696c65640060448201526064016104a9565b50505050505050505b5050565b6001600160a01b038116811461133657600080fd5b50565b6000806040838503121561134c57600080fd5b823561135781611321565b946020939093013593505050565b60006020828403121561137757600080fd5b5035919050565b93845260208401929092526040830152606082015260800190565b6000815180845260005b818110156113bf576020818501810151868301820152016113a3565b818111156113d1576000602083870101525b50601f01601f19169290920160200192915050565b84151581528360208201526080604082015260006114076080830185611399565b905060018060a01b038316606083015295945050505050565b600080600080600060a0868803121561143857600080fd5b505083359560208501359550604085013594606081013594506080013592509050565b602081526000610a556020830184611399565b60006020828403121561148057600080fd5b5051919050565b6001600160a01b0393841681529190921660208201526001600160e01b0319909116604082015260600190565b805180151581146114c457600080fd5b919050565b6000602082840312156114db57600080fd5b610a55826114b4565b6020808252601a908201527913db9b1e4810dbdc994810591b5a5b9050d308185b1b1bddd95960321b604082015260600190565b60006020828403121561152a57600080fd5b8151610a5581611321565b6020808252600b908201526a13db9b1e48105c9d1a5cdd60aa1b604082015260600190565b634e487b7160e01b600052601160045260246000fd5b600082198211156115835761158361155a565b500190565b600080600080600060a086880312156115a057600080fd5b85519450602086015193506115b7604087016114b4565b92506115c5606087016114b4565b91506115d3608087016114b4565b90509295509295909350565b60008160001904831182151516156115f9576115f961155a565b500290565b60008261161b57634e487b7160e01b600052601260045260246000fd5b500490565b6000828210156116325761163261155a565b500390565b60008060008060008060c0878903121561165057600080fd5b86519550602087015161166281611321565b60408801516060890151919650945061167a81611321565b608088015160a0890151919450925061169281611321565b80915050929550929550929556fea264697066735822122004c35213909b0659bc5390a0ce5be5014ad68803d2144f6cd36d81c780c7e71664736f6c63430008090033",
  "linkReferences": {},
  "deployedLinkReferences": {}
}