{
  "_format": "hh-sol-artifact-1",
  "contractName": "MinterSetPriceERC20V0",
  "sourceName": "contracts/minter-suite/MinterSetPriceERC20V0.sol",
  "abi": [
    {
      "inputs": [
        {
          "internalType": "address",
          "name": "_genArt721Address",
          "type": "address"
        },
        {
          "internalType": "address",
          "name": "_minterFilter",
          "type": "address"
        }
      ],
      "stateMutability": "nonpayable",
      "type": "constructor"
    },
    {
      "anonymous": false,
      "inputs": [
        {
          "indexed": true,
          "internalType": "uint256",
          "name": "_projectId",
          "type": "uint256"
        },
        {
          "indexed": true,
          "internalType": "uint256",
          "name": "_pricePerTokenInWei",
          "type": "uint256"
        }
      ],
      "name": "PricePerTokenInWeiUpdated",
      "type": "event"
    },
    {
      "anonymous": false,
      "inputs": [
        {
          "indexed": true,
          "internalType": "uint256",
          "name": "_projectId",
          "type": "uint256"
        },
        {
          "indexed": true,
          "internalType": "address",
          "name": "_currencyAddress",
          "type": "address"
        },
        {
          "indexed": false,
          "internalType": "string",
          "name": "_currencySymbol",
          "type": "string"
        }
      ],
      "name": "ProjectCurrencyInfoUpdated",
      "type": "event"
    },
    {
      "anonymous": false,
      "inputs": [
        {
          "indexed": true,
          "internalType": "uint256",
          "name": "_projectId",
          "type": "uint256"
        },
        {
          "indexed": false,
          "internalType": "bool",
          "name": "_purchaseToDisabled",
          "type": "bool"
        }
      ],
      "name": "PurchaseToDisabledUpdated",
      "type": "event"
    },
    {
      "inputs": [
        {
          "internalType": "uint256",
          "name": "_projectId",
          "type": "uint256"
        }
      ],
      "name": "checkYourAllowanceOfProjectERC20",
      "outputs": [
        {
          "internalType": "uint256",
          "name": "remaining",
          "type": "uint256"
        }
      ],
      "stateMutability": "view",
      "type": "function"
    },
    {
      "inputs": [
        {
          "internalType": "uint256",
          "name": "",
          "type": "uint256"
        }
      ],
      "name": "contractMintable",
      "outputs": [
        {
          "internalType": "bool",
          "name": "",
          "type": "bool"
        }
      ],
      "stateMutability": "view",
      "type": "function"
    },
    {
      "inputs": [],
      "name": "genArt721CoreAddress",
      "outputs": [
        {
          "internalType": "address",
          "name": "",
          "type": "address"
        }
      ],
      "stateMutability": "view",
      "type": "function"
    },
    {
      "inputs": [
        {
          "internalType": "uint256",
          "name": "_projectId",
          "type": "uint256"
        }
      ],
      "name": "getPriceInfo",
      "outputs": [
        {
          "internalType": "bool",
          "name": "isConfigured",
          "type": "bool"
        },
        {
          "internalType": "uint256",
          "name": "tokenPriceInWei",
          "type": "uint256"
        },
        {
          "internalType": "string",
          "name": "currencySymbol",
          "type": "string"
        },
        {
          "internalType": "address",
          "name": "currencyAddress",
          "type": "address"
        }
      ],
      "stateMutability": "view",
      "type": "function"
    },
    {
      "inputs": [
        {
          "internalType": "uint256",
          "name": "_projectId",
          "type": "uint256"
        }
      ],
      "name": "getYourBalanceOfProjectERC20",
      "outputs": [
        {
          "internalType": "uint256",
          "name": "balance",
          "type": "uint256"
        }
      ],
      "stateMutability": "view",
      "type": "function"
    },
    {
      "inputs": [],
      "name": "minterFilterAddress",
      "outputs": [
        {
          "internalType": "address",
          "name": "",
          "type": "address"
        }
      ],
      "stateMutability": "view",
      "type": "function"
    },
    {
      "inputs": [],
      "name": "minterType",
      "outputs": [
        {
          "internalType": "string",
          "name": "",
          "type": "string"
        }
      ],
      "stateMutability": "view",
      "type": "function"
    },
    {
      "inputs": [
        {
          "internalType": "uint256",
          "name": "",
          "type": "uint256"
        }
      ],
      "name": "projectMaxHasBeenInvoked",
      "outputs": [
        {
          "internalType": "bool",
          "name": "",
          "type": "bool"
        }
      ],
      "stateMutability": "view",
      "type": "function"
    },
    {
      "inputs": [
        {
          "internalType": "uint256",
          "name": "",
          "type": "uint256"
        }
      ],
      "name": "projectMaxInvocations",
      "outputs": [
        {
          "internalType": "uint256",
          "name": "",
          "type": "uint256"
        }
      ],
      "stateMutability": "view",
      "type": "function"
    },
    {
      "inputs": [
        {
          "internalType": "address",
          "name": "",
          "type": "address"
        },
        {
          "internalType": "uint256",
          "name": "",
          "type": "uint256"
        }
      ],
      "name": "projectMintCounter",
      "outputs": [
        {
          "internalType": "uint256",
          "name": "",
          "type": "uint256"
        }
      ],
      "stateMutability": "view",
      "type": "function"
    },
    {
      "inputs": [
        {
          "internalType": "uint256",
          "name": "",
          "type": "uint256"
        }
      ],
      "name": "projectMintLimit",
      "outputs": [
        {
          "internalType": "uint256",
          "name": "",
          "type": "uint256"
        }
      ],
      "stateMutability": "view",
      "type": "function"
    },
    {
      "inputs": [
        {
          "internalType": "uint256",
          "name": "_projectId",
          "type": "uint256"
        }
      ],
      "name": "purchase",
      "outputs": [
        {
          "internalType": "uint256",
          "name": "tokenId",
          "type": "uint256"
        }
      ],
      "stateMutability": "payable",
      "type": "function"
    },
    {
      "inputs": [
        {
          "internalType": "address",
          "name": "_to",
          "type": "address"
        },
        {
          "internalType": "uint256",
          "name": "_projectId",
          "type": "uint256"
        }
      ],
      "name": "purchaseTo",
      "outputs": [
        {
          "internalType": "uint256",
          "name": "tokenId",
          "type": "uint256"
        }
      ],
      "stateMutability": "payable",
      "type": "function"
    },
    {
      "inputs": [
        {
          "internalType": "uint256",
          "name": "",
          "type": "uint256"
        }
      ],
      "name": "purchaseToDisabled",
      "outputs": [
        {
          "internalType": "bool",
          "name": "",
          "type": "bool"
        }
      ],
      "stateMutability": "view",
      "type": "function"
    },
    {
      "inputs": [
        {
          "internalType": "uint256",
          "name": "_projectId",
          "type": "uint256"
        }
      ],
      "name": "setProjectMaxInvocations",
      "outputs": [],
      "stateMutability": "nonpayable",
      "type": "function"
    },
    {
      "inputs": [
        {
          "internalType": "uint256",
          "name": "_projectId",
          "type": "uint256"
        },
        {
          "internalType": "uint8",
          "name": "_limit",
          "type": "uint8"
        }
      ],
      "name": "setProjectMintLimit",
      "outputs": [],
      "stateMutability": "nonpayable",
      "type": "function"
    },
    {
      "inputs": [
        {
          "internalType": "uint256",
          "name": "_projectId",
          "type": "uint256"
        }
      ],
      "name": "toggleContractMintable",
      "outputs": [],
      "stateMutability": "nonpayable",
      "type": "function"
    },
    {
      "inputs": [
        {
          "internalType": "uint256",
          "name": "_projectId",
          "type": "uint256"
        }
      ],
      "name": "togglePurchaseToDisabled",
      "outputs": [],
      "stateMutability": "nonpayable",
      "type": "function"
    },
    {
      "inputs": [
        {
          "internalType": "uint256",
          "name": "_projectId",
          "type": "uint256"
        },
        {
          "internalType": "uint256",
          "name": "_pricePerTokenInWei",
          "type": "uint256"
        }
      ],
      "name": "updatePricePerTokenInWei",
      "outputs": [],
      "stateMutability": "nonpayable",
      "type": "function"
    },
    {
      "inputs": [
        {
          "internalType": "uint256",
          "name": "_projectId",
          "type": "uint256"
        },
        {
          "internalType": "string",
          "name": "_currencySymbol",
          "type": "string"
        },
        {
          "internalType": "address",
          "name": "_currencyAddress",
          "type": "address"
        }
      ],
      "name": "updateProjectCurrencyInfo",
      "outputs": [],
      "stateMutability": "nonpayable",
      "type": "function"
    }
  ],
  "bytecode": "0x6101006040523480156200001257600080fd5b506040516200292b3803806200292b833981016040819052620000359162000157565b600160009081556001600160a01b03808416608081905260a081905290831660c081905260e0819052604080516392a10f8360e01b81529051929391926392a10f8392600480840193602093929083900390910190829087803b1580156200009c57600080fd5b505af1158015620000b1573d6000803e3d6000fd5b505050506040513d601f19601f82011682018060405250810190620000d791906200018f565b6001600160a01b031614620001325760405162461bcd60e51b815260206004820152601860248201527f496c6c6567616c20636f6e74726163742070616972696e670000000000000000604482015260640160405180910390fd5b5050620001b4565b80516001600160a01b03811681146200015257600080fd5b919050565b600080604083850312156200016b57600080fd5b62000176836200013a565b915062000186602084016200013a565b90509250929050565b600060208284031215620001a257600080fd5b620001ad826200013a565b9392505050565b60805160a05160c05160e0516126bf6200026c6000396000610b42015260006103c101526000818161049b015281816105740152818161068a01528181610fac01528181611085015281816112cd015281816113910152818161146e01528181611550015281816116510152818161170c015281816117e40152818161191f01528181611acc01528181611b7b01528181611cbb01528181611d7601528181611e2d0152611f7a015260006102c001526126bf6000f3fe60806040526004361061011f5760003560e01c8063a9809600116100a0578063dd85582f11610064578063dd85582f146103af578063e9d1e8ac146103e3578063efef39a114610431578063f463210314610444578063f7bd4b881461046457600080fd5b8063a9809600146102ef578063acffea051461030f578063bee560031461032f578063cfff5cf11461035f578063d195b3651461038f57600080fd5b806362f7a7ed116100e757806362f7a7ed1461021e5780636cb9b7ff1461024b578063774159c61461026b578063891407c01461029b57806392a10f83146102ae57600080fd5b8063231c2281146101245780633a4657b41461014657806340d1397e14610191578063462add46146101b157806356690aaf146101f1575b600080fd5b34801561013057600080fd5b5061014461013f366004612138565b610484565b005b34801561015257600080fd5b5061017e610161366004612183565b600360209081526000928352604080842090915290825290205481565b6040519081526020015b60405180910390f35b34801561019d57600080fd5b506101446101ac3660046121af565b61055d565b3480156101bd57600080fd5b506101e16101cc3660046121af565b60056020526000908152604090205460ff1681565b6040519015158152602001610188565b3480156101fd57600080fd5b5061017e61020c3660046121af565b60066020526000908152604090205481565b34801561022a57600080fd5b5061017e6102393660046121af565b60046020526000908152604090205481565b34801561025757600080fd5b506101446102663660046121c8565b610672565b34801561027757600080fd5b5061028b6102863660046121af565b610791565b6040516101889493929190612246565b61017e6102a9366004612183565b61088e565b3480156102ba57600080fd5b506102e27f000000000000000000000000000000000000000000000000000000000000000081565b6040516101889190612280565b3480156102fb57600080fd5b5061017e61030a3660046121af565b610f03565b34801561031b57600080fd5b5061014461032a3660046121af565b610f95565b34801561033b57600080fd5b506101e161034a3660046121af565b60016020526000908152604090205460ff1681565b34801561036b57600080fd5b506101e161037a3660046121af565b60026020526000908152604090205460ff1681565b34801561039b57600080fd5b506101446103aa366004612303565b61106d565b3480156103bb57600080fd5b506102e27f000000000000000000000000000000000000000000000000000000000000000081565b3480156103ef57600080fd5b506104246040518060400160405280601581526020017404d696e74657253657450726963654552433230563605c1b81525081565b60405161018891906123a1565b61017e61043f3660046121af565b611268565b34801561045057600080fd5b5061017e61045f3660046121af565b611274565b34801561047057600080fd5b5061014461047f3660046121af565b6112b6565b604051633af32abf60e01b81526001600160a01b037f00000000000000000000000000000000000000000000000000000000000000001690633af32abf906104d0903390600401612280565b60206040518083038186803b1580156104e857600080fd5b505afa1580156104fc573d6000803e3d6000fd5b505050506040513d601f19601f8201168201806040525081019061052091906123d0565b6105455760405162461bcd60e51b815260040161053c906123eb565b60405180910390fd5b60009182526004602052604090912060ff9091169055565b604051633af32abf60e01b81526001600160a01b037f00000000000000000000000000000000000000000000000000000000000000001690633af32abf906105a9903390600401612280565b60206040518083038186803b1580156105c157600080fd5b505afa1580156105d5573d6000803e3d6000fd5b505050506040513d601f19601f820116820180604052508101906105f991906123d0565b6106155760405162461bcd60e51b815260040161053c906123eb565b600081815260026020908152604091829020805460ff8082161560ff199092168217909255925192161515825282917fce8ced1e9d6979c7589d3c8786f4d51a8034faa5ff2cbc5a2271364f787feccb910160405180910390a250565b60405163a47d29cb60e01b81526004810183905282907f00000000000000000000000000000000000000000000000000000000000000006001600160a01b03169063a47d29cb9060240160206040518083038186803b1580156106d457600080fd5b505afa1580156106e8573d6000803e3d6000fd5b505050506040513d601f19601f8201168201806040525081019061070c919061241a565b6001600160a01b0316336001600160a01b03161461073c5760405162461bcd60e51b815260040161053c90612437565b60008381526007602090815260408083208590556008909152808220805460ff1916600117905551839185917f26118a27aca826f829f3bfe21b140b4455c00b434849bd0da50d1e1a9720fb5c9190a3505050565b6000818152600860209081526040808320546007835281842054600a90935292205460ff909216916060906001600160a01b0316806107ed576040518060400160405280600381526020016208aa8960eb1b8152509150610887565b600085815260096020526040902080546108069061245c565b80601f01602080910402602001604051908101604052809291908181526020018280546108329061245c565b801561087f5780601f106108545761010080835404028352916020019161087f565b820191906000526020600020905b81548152906001019060200180831161086257829003601f168201915b505050505091505b9193509193565b6000600260005414156108e35760405162461bcd60e51b815260206004820152601f60248201527f5265656e7472616e637947756172643a207265656e7472616e742063616c6c00604482015260640161053c565b600260009081558281526005602052604090205460ff16156109555760405162461bcd60e51b815260206004820152602560248201527f4d6178696d756d206e756d626572206f6620696e766f636174696f6e732072656044820152641858da195960da1b606482015260840161053c565b60008281526008602052604090205460ff166109aa5760405162461bcd60e51b8152602060048201526014602482015273141c9a58d9481b9bdd0818dbdb999a59dd5c995960621b604482015260640161053c565b60008281526001602052604090205460ff16610a0257333214610a025760405162461bcd60e51b815260206004820152601060248201526f4e6f20436f6e7472616374204275797360801b604482015260640161053c565b60008281526002602052604090205460ff1615610a6b57336001600160a01b03841614610a6b5760405162461bcd60e51b8152602060048201526017602482015276139bc8181c1d5c98da185cd9551bd808105b1b1bddd959604a1b604482015260640161053c565b60008281526004602052604090205415610b1657600082815260046020908152604080832054338452600383528184208685529092529091205410610aea5760405162461bcd60e51b815260206004820152601560248201527414995858da1959081b5a5b9d1a5b99c81b1a5b5a5d605a1b604482015260640161053c565b3360009081526003602090815260408083208584529091528120805491610b10836124ad565b91905055505b604051630d4d151360e01b81526001600160a01b038481166004830152602482018490523360448301527f00000000000000000000000000000000000000000000000000000000000000001690630d4d151390606401602060405180830381600087803b158015610b8657600080fd5b505af1158015610b9a573d6000803e3d6000fd5b505050506040513d601f19601f82011682018060405250810190610bbe91906124c8565b60008381526006602052604090205490915015801590610c035750600082815260066020526040902054610bf4906001906124e1565b610c01620f42408361250e565b145b15610c22576000828152600560205260409020805460ff191660011790555b6000828152600a60205260409020546001600160a01b031615610e91573415610cb35760405162461bcd60e51b815260206004820152603f60248201527f746869732070726f6a6563742061636365707473206120646966666572656e7460448201527f2063757272656e637920616e642063616e6e6f74206163636570742045544800606482015260840161053c565b600082815260076020908152604080832054600a90925291829020549151636eb1769f60e11b815233600482015230602482015290916001600160a01b03169063dd62ed3e9060440160206040518083038186803b158015610d1457600080fd5b505afa158015610d28573d6000803e3d6000fd5b505050506040513d601f19601f82011682018060405250810190610d4c91906124c8565b1015610da55760405162461bcd60e51b815260206004820152602260248201527f496e73756666696369656e742046756e647320417070726f76656420666f72206044820152610a8b60f31b606482015260840161053c565b600082815260076020908152604080832054600a909252918290205491516370a0823160e01b815290916001600160a01b0316906370a0823190610ded903390600401612280565b60206040518083038186803b158015610e0557600080fd5b505afa158015610e19573d6000803e3d6000fd5b505050506040513d601f19601f82011682018060405250810190610e3d91906124c8565b1015610e835760405162461bcd60e51b815260206004820152601560248201527424b739bab33334b1b4b2b73a103130b630b731b29760591b604482015260640161053c565b610e8c82611450565b610ef8565b600082815260076020526040902054341015610eef5760405162461bcd60e51b815260206004820181905260248201527f4d7573742073656e64206d696e696d756d2076616c756520746f206d696e7421604482015260640161053c565b610ef882611a14565b600160005592915050565b6000818152600a60205260408082205490516370a0823160e01b81526001600160a01b03909116906370a0823190610f3f903390600401612280565b60206040518083038186803b158015610f5757600080fd5b505afa158015610f6b573d6000803e3d6000fd5b505050506040513d601f19601f82011682018060405250810190610f8f91906124c8565b92915050565b604051633af32abf60e01b81526001600160a01b037f00000000000000000000000000000000000000000000000000000000000000001690633af32abf90610fe1903390600401612280565b60206040518083038186803b158015610ff957600080fd5b505afa15801561100d573d6000803e3d6000fd5b505050506040513d601f19601f8201168201806040525081019061103191906123d0565b61104d5760405162461bcd60e51b815260040161053c906123eb565b6000908152600160205260409020805460ff19811660ff90911615179055565b60405163a47d29cb60e01b81526004810184905283907f00000000000000000000000000000000000000000000000000000000000000006001600160a01b03169063a47d29cb9060240160206040518083038186803b1580156110cf57600080fd5b505afa1580156110e3573d6000803e3d6000fd5b505050506040513d601f19601f82011682018060405250810190611107919061241a565b6001600160a01b0316336001600160a01b0316146111375760405162461bcd60e51b815260040161053c90612437565b6040516208aa8960eb1b60208201526001600160a01b0383161590602301604051602081830303815290604052805190602001208460405160200161117c9190612522565b60405160208183030381529060405280519060200120141515146111dd5760405162461bcd60e51b8152602060048201526018602482015277455448206973206f6e6c79206e756c6c206164647265737360401b604482015260640161053c565b600084815260096020908152604090912084516111fc9286019061209f565b506000848152600a60205260409081902080546001600160a01b0319166001600160a01b038516908117909155905185907fe6c8c6160f844a27204e2b7fb4b7fb9f10e5d322fa850096bef29dc1d0f445c19061125a9087906123a1565b60405180910390a350505050565b6000610f8f338361088e565b6000818152600a6020526040808220549051636eb1769f60e11b81523360048201523060248201526001600160a01b039091169063dd62ed3e90604401610f3f565b604051633af32abf60e01b81526001600160a01b037f00000000000000000000000000000000000000000000000000000000000000001690633af32abf90611302903390600401612280565b60206040518083038186803b15801561131a57600080fd5b505afa15801561132e573d6000803e3d6000fd5b505050506040513d601f19601f8201168201806040525081019061135291906123d0565b61136e5760405162461bcd60e51b815260040161053c906123eb565b6040516346161b1160e11b81526004810182905260009081906001600160a01b037f00000000000000000000000000000000000000000000000000000000000000001690638c2c36229060240160006040518083038186803b1580156113d357600080fd5b505afa1580156113e7573d6000803e3d6000fd5b505050506040513d6000823e601f3d908101601f1916820160405261140f9190810190612549565b50505060008981526006602052604090208390555091955093505050508082101561144b576000838152600560205260409020805460ff191690555b505050565b600060076000838152602001908152602001600020549050600060647f00000000000000000000000000000000000000000000000000000000000000006001600160a01b0316634f029c396040518163ffffffff1660e01b815260040160206040518083038186803b1580156114c557600080fd5b505afa1580156114d9573d6000803e3d6000fd5b505050506040513d601f19601f820116820180604052508101906114fd91906124c8565b6115079084612632565b6115119190612651565b9050801561163e576000838152600a6020908152604091829020548251631ca4fc8360e11b815292516001600160a01b03918216936323b872dd9333937f00000000000000000000000000000000000000000000000000000000000000001692633949f906926004808201939291829003018186803b15801561159357600080fd5b505afa1580156115a7573d6000803e3d6000fd5b505050506040513d601f19601f820116820180604052508101906115cb919061241a565b846040518463ffffffff1660e01b81526004016115ea93929190612665565b602060405180830381600087803b15801561160457600080fd5b505af1158015611618573d6000803e3d6000fd5b505050506040513d601f19601f8201168201806040525081019061163c91906123d0565b505b600061164a82846124e1565b90506000807f00000000000000000000000000000000000000000000000000000000000000006001600160a01b031663cc74234b876040518263ffffffff1660e01b815260040161169d91815260200190565b60206040518083038186803b1580156116b557600080fd5b505afa1580156116c9573d6000803e3d6000fd5b505050506040513d601f19601f820116820180604052508101906116ed91906124c8565b11156118d15760405163cc74234b60e01b8152600481018690526064907f00000000000000000000000000000000000000000000000000000000000000006001600160a01b03169063cc74234b9060240160206040518083038186803b15801561175657600080fd5b505afa15801561176a573d6000803e3d6000fd5b505050506040513d601f19601f8201168201806040525081019061178e91906124c8565b6117989084612632565b6117a29190612651565b905080156118d1576000858152600a602052604090819020549051636bd8225b60e11b8152600481018790526001600160a01b03918216916323b872dd9133917f0000000000000000000000000000000000000000000000000000000000000000169063d7b044b69060240160206040518083038186803b15801561182657600080fd5b505afa15801561183a573d6000803e3d6000fd5b505050506040513d601f19601f8201168201806040525081019061185e919061241a565b846040518463ffffffff1660e01b815260040161187d93929190612665565b602060405180830381600087803b15801561189757600080fd5b505af11580156118ab573d6000803e3d6000fd5b505050506040513d601f19601f820116820180604052508101906118cf91906123d0565b505b60006118dd82846124e1565b90508015611a0c576000868152600a60205260409081902054905163a47d29cb60e01b8152600481018890526001600160a01b03918216916323b872dd9133917f0000000000000000000000000000000000000000000000000000000000000000169063a47d29cb9060240160206040518083038186803b15801561196157600080fd5b505afa158015611975573d6000803e3d6000fd5b505050506040513d601f19601f82011682018060405250810190611999919061241a565b846040518463ffffffff1660e01b81526004016119b893929190612665565b602060405180830381600087803b1580156119d257600080fd5b505af11580156119e6573d6000803e3d6000fd5b505050506040513d601f19601f82011682018060405250810190611a0a91906123d0565b505b505050505050565b341561209c5760008181526007602052604081205490611a3482346124e1565b90508015611ac657604051600090339083908381818185875af1925050503d8060008114611a7e576040519150601f19603f3d011682016040523d82523d6000602084013e611a83565b606091505b5050905080611ac45760405162461bcd60e51b815260206004820152600d60248201526c1499599d5b990819985a5b1959609a1b604482015260640161053c565b505b600060647f00000000000000000000000000000000000000000000000000000000000000006001600160a01b0316634f029c396040518163ffffffff1660e01b815260040160206040518083038186803b158015611b2357600080fd5b505afa158015611b37573d6000803e3d6000fd5b505050506040513d601f19601f82011682018060405250810190611b5b91906124c8565b611b659085612632565b611b6f9190612651565b90508015611ca85760007f00000000000000000000000000000000000000000000000000000000000000006001600160a01b0316633949f9066040518163ffffffff1660e01b815260040160206040518083038186803b158015611bd257600080fd5b505afa158015611be6573d6000803e3d6000fd5b505050506040513d601f19601f82011682018060405250810190611c0a919061241a565b6001600160a01b03168260405160006040518083038185875af1925050503d8060008114611c54576040519150601f19603f3d011682016040523d82523d6000602084013e611c59565b606091505b5050905080611ca65760405162461bcd60e51b8152602060048201526019602482015278119bdd5b99185d1a5bdb881c185e5b595b9d0819985a5b1959603a1b604482015260640161053c565b505b6000611cb482856124e1565b90506000807f00000000000000000000000000000000000000000000000000000000000000006001600160a01b031663cc74234b886040518263ffffffff1660e01b8152600401611d0791815260200190565b60206040518083038186803b158015611d1f57600080fd5b505afa158015611d33573d6000803e3d6000fd5b505050506040513d601f19601f82011682018060405250810190611d5791906124c8565b1115611f4d5760405163cc74234b60e01b8152600481018790526064907f00000000000000000000000000000000000000000000000000000000000000006001600160a01b03169063cc74234b9060240160206040518083038186803b158015611dc057600080fd5b505afa158015611dd4573d6000803e3d6000fd5b505050506040513d601f19601f82011682018060405250810190611df891906124c8565b611e029084612632565b611e0c9190612651565b90508015611f4d57604051636bd8225b60e11b8152600481018790526000907f00000000000000000000000000000000000000000000000000000000000000006001600160a01b03169063d7b044b69060240160206040518083038186803b158015611e7757600080fd5b505afa158015611e8b573d6000803e3d6000fd5b505050506040513d601f19601f82011682018060405250810190611eaf919061241a565b6001600160a01b03168260405160006040518083038185875af1925050503d8060008114611ef9576040519150601f19603f3d011682016040523d82523d6000602084013e611efe565b606091505b5050905080611f4b5760405162461bcd60e51b81526020600482015260196024820152781059191a5d1a5bdb985b081c185e5b595b9d0819985a5b1959603a1b604482015260640161053c565b505b6000611f5982846124e1565b90508015611a0a5760405163a47d29cb60e01b8152600481018890526000907f00000000000000000000000000000000000000000000000000000000000000006001600160a01b03169063a47d29cb9060240160206040518083038186803b158015611fc457600080fd5b505afa158015611fd8573d6000803e3d6000fd5b505050506040513d601f19601f82011682018060405250810190611ffc919061241a565b6001600160a01b03168260405160006040518083038185875af1925050503d8060008114612046576040519150601f19603f3d011682016040523d82523d6000602084013e61204b565b606091505b50509050806120945760405162461bcd60e51b8152602060048201526015602482015274105c9d1a5cdd081c185e5b595b9d0819985a5b1959605a1b604482015260640161053c565b505050505050505b50565b8280546120ab9061245c565b90600052602060002090601f0160209004810192826120cd5760008555612113565b82601f106120e657805160ff1916838001178555612113565b82800160010185558215612113579182015b828111156121135782518255916020019190600101906120f8565b5061211f929150612123565b5090565b5b8082111561211f5760008155600101612124565b6000806040838503121561214b57600080fd5b82359150602083013560ff8116811461216357600080fd5b809150509250929050565b6001600160a01b038116811461209c57600080fd5b6000806040838503121561219657600080fd5b82356121a18161216e565b946020939093013593505050565b6000602082840312156121c157600080fd5b5035919050565b600080604083850312156121db57600080fd5b50508035926020909101359150565b60005b838110156122055781810151838201526020016121ed565b83811115612214576000848401525b50505050565b600081518084526122328160208601602086016121ea565b601f01601f19169290920160200192915050565b8415158152836020820152608060408201526000612267608083018561221a565b905060018060a01b038316606083015295945050505050565b6001600160a01b0391909116815260200190565b634e487b7160e01b600052604160045260246000fd5b604051601f8201601f1916810167ffffffffffffffff811182821017156122d3576122d3612294565b604052919050565b600067ffffffffffffffff8211156122f5576122f5612294565b50601f01601f191660200190565b60008060006060848603121561231857600080fd5b83359250602084013567ffffffffffffffff81111561233657600080fd5b8401601f8101861361234757600080fd5b803561235a612355826122db565b6122aa565b81815287602083850101111561236f57600080fd5b8160208401602083013760006020838301015280945050505060408401356123968161216e565b809150509250925092565b6020815260006123b4602083018461221a565b9392505050565b805180151581146123cb57600080fd5b919050565b6000602082840312156123e257600080fd5b6123b4826123bb565b60208082526015908201527413db9b1e4810dbdc99481dda1a5d195b1a5cdd1959605a1b604082015260600190565b60006020828403121561242c57600080fd5b81516123b48161216e565b6020808252600b908201526a13db9b1e48105c9d1a5cdd60aa1b604082015260600190565b600181811c9082168061247057607f821691505b6020821081141561249157634e487b7160e01b600052602260045260246000fd5b50919050565b634e487b7160e01b600052601160045260246000fd5b60006000198214156124c1576124c1612497565b5060010190565b6000602082840312156124da57600080fd5b5051919050565b6000828210156124f3576124f3612497565b500390565b634e487b7160e01b600052601260045260246000fd5b60008261251d5761251d6124f8565b500690565b600082516125348184602087016121ea565b9190910192915050565b80516123cb8161216e565b60008060008060008060008060006101208a8c03121561256857600080fd5b89516125738161216e565b8099505060208a0151975060408a0151965060608a0151955061259860808b016123bb565b945060a08a01516125a88161216e565b60c08b015160e08c0151919550935067ffffffffffffffff8111156125cc57600080fd5b8a01601f81018c136125dd57600080fd5b80516125eb612355826122db565b8181528d602083850101111561260057600080fd5b6126118260208301602086016121ea565b93506126239150506101008b0161253e565b90509295985092959850929598565b600081600019048311821515161561264c5761264c612497565b500290565b600082612660576126606124f8565b500490565b6001600160a01b03938416815291909216602082015260408101919091526060019056fea2646970667358221220bc441186040798fec22b60db81eabf52446d0ae7014553398e7e5c1525c4bb3c64736f6c63430008090033",
  "linkReferences": {},
  "deployedLinkReferences": {}
}