{
  "_format": "hh-sol-artifact-1",
  "contractName": "MinterDALinV1",
  "sourceName": "contracts/minter-suite/MinterDALinV1.sol",
  "abi": [
    {
      "inputs": [
        {
          "internalType": "address",
          "name": "_genArt721Address",
          "type": "address"
        },
        {
          "internalType": "address",
          "name": "_minterFilter",
          "type": "address"
        }
      ],
      "stateMutability": "nonpayable",
      "type": "constructor"
    },
    {
      "anonymous": false,
      "inputs": [
        {
          "indexed": false,
          "internalType": "uint256",
          "name": "_minimumAuctionLengthSeconds",
          "type": "uint256"
        }
      ],
      "name": "MinimumAuctionLengthSecondsUpdated",
      "type": "event"
    },
    {
      "anonymous": false,
      "inputs": [
        {
          "indexed": true,
          "internalType": "uint256",
          "name": "_projectId",
          "type": "uint256"
        },
        {
          "indexed": true,
          "internalType": "uint256",
          "name": "_pricePerTokenInWei",
          "type": "uint256"
        }
      ],
      "name": "PricePerTokenInWeiUpdated",
      "type": "event"
    },
    {
      "anonymous": false,
      "inputs": [
        {
          "indexed": true,
          "internalType": "uint256",
          "name": "_projectId",
          "type": "uint256"
        },
        {
          "indexed": true,
          "internalType": "address",
          "name": "_currencyAddress",
          "type": "address"
        },
        {
          "indexed": false,
          "internalType": "string",
          "name": "_currencySymbol",
          "type": "string"
        }
      ],
      "name": "ProjectCurrencyInfoUpdated",
      "type": "event"
    },
    {
      "anonymous": false,
      "inputs": [
        {
          "indexed": true,
          "internalType": "uint256",
          "name": "_projectId",
          "type": "uint256"
        },
        {
          "indexed": false,
          "internalType": "bool",
          "name": "_purchaseToDisabled",
          "type": "bool"
        }
      ],
      "name": "PurchaseToDisabledUpdated",
      "type": "event"
    },
    {
      "anonymous": false,
      "inputs": [
        {
          "indexed": true,
          "internalType": "uint256",
          "name": "projectId",
          "type": "uint256"
        }
      ],
      "name": "ResetAuctionDetails",
      "type": "event"
    },
    {
      "anonymous": false,
      "inputs": [
        {
          "indexed": true,
          "internalType": "uint256",
          "name": "projectId",
          "type": "uint256"
        },
        {
          "indexed": false,
          "internalType": "uint256",
          "name": "_auctionTimestampStart",
          "type": "uint256"
        },
        {
          "indexed": false,
          "internalType": "uint256",
          "name": "_auctionTimestampEnd",
          "type": "uint256"
        },
        {
          "indexed": false,
          "internalType": "uint256",
          "name": "_startPrice",
          "type": "uint256"
        },
        {
          "indexed": false,
          "internalType": "uint256",
          "name": "_basePrice",
          "type": "uint256"
        }
      ],
      "name": "SetAuctionDetails",
      "type": "event"
    },
    {
      "inputs": [],
      "name": "genArt721CoreAddress",
      "outputs": [
        {
          "internalType": "address",
          "name": "",
          "type": "address"
        }
      ],
      "stateMutability": "view",
      "type": "function"
    },
    {
      "inputs": [
        {
          "internalType": "uint256",
          "name": "_projectId",
          "type": "uint256"
        }
      ],
      "name": "getPriceInfo",
      "outputs": [
        {
          "internalType": "bool",
          "name": "isConfigured",
          "type": "bool"
        },
        {
          "internalType": "uint256",
          "name": "tokenPriceInWei",
          "type": "uint256"
        },
        {
          "internalType": "string",
          "name": "currencySymbol",
          "type": "string"
        },
        {
          "internalType": "address",
          "name": "currencyAddress",
          "type": "address"
        }
      ],
      "stateMutability": "view",
      "type": "function"
    },
    {
      "inputs": [],
      "name": "minimumAuctionLengthSeconds",
      "outputs": [
        {
          "internalType": "uint256",
          "name": "",
          "type": "uint256"
        }
      ],
      "stateMutability": "view",
      "type": "function"
    },
    {
      "inputs": [],
      "name": "minterFilterAddress",
      "outputs": [
        {
          "internalType": "address",
          "name": "",
          "type": "address"
        }
      ],
      "stateMutability": "view",
      "type": "function"
    },
    {
      "inputs": [],
      "name": "minterType",
      "outputs": [
        {
          "internalType": "string",
          "name": "",
          "type": "string"
        }
      ],
      "stateMutability": "view",
      "type": "function"
    },
    {
      "inputs": [
        {
          "internalType": "uint256",
          "name": "",
          "type": "uint256"
        }
      ],
      "name": "projectAuctionParameters",
      "outputs": [
        {
          "internalType": "uint256",
          "name": "timestampStart",
          "type": "uint256"
        },
        {
          "internalType": "uint256",
          "name": "timestampEnd",
          "type": "uint256"
        },
        {
          "internalType": "uint256",
          "name": "startPrice",
          "type": "uint256"
        },
        {
          "internalType": "uint256",
          "name": "basePrice",
          "type": "uint256"
        }
      ],
      "stateMutability": "view",
      "type": "function"
    },
    {
      "inputs": [
        {
          "internalType": "uint256",
          "name": "",
          "type": "uint256"
        }
      ],
      "name": "projectMaxHasBeenInvoked",
      "outputs": [
        {
          "internalType": "bool",
          "name": "",
          "type": "bool"
        }
      ],
      "stateMutability": "view",
      "type": "function"
    },
    {
      "inputs": [
        {
          "internalType": "uint256",
          "name": "",
          "type": "uint256"
        }
      ],
      "name": "projectMaxInvocations",
      "outputs": [
        {
          "internalType": "uint256",
          "name": "",
          "type": "uint256"
        }
      ],
      "stateMutability": "view",
      "type": "function"
    },
    {
      "inputs": [
        {
          "internalType": "address",
          "name": "",
          "type": "address"
        },
        {
          "internalType": "uint256",
          "name": "",
          "type": "uint256"
        }
      ],
      "name": "projectMintCounter",
      "outputs": [
        {
          "internalType": "uint256",
          "name": "",
          "type": "uint256"
        }
      ],
      "stateMutability": "view",
      "type": "function"
    },
    {
      "inputs": [
        {
          "internalType": "uint256",
          "name": "",
          "type": "uint256"
        }
      ],
      "name": "projectMintLimit",
      "outputs": [
        {
          "internalType": "uint256",
          "name": "",
          "type": "uint256"
        }
      ],
      "stateMutability": "view",
      "type": "function"
    },
    {
      "inputs": [
        {
          "internalType": "uint256",
          "name": "_projectId",
          "type": "uint256"
        }
      ],
      "name": "purchase",
      "outputs": [
        {
          "internalType": "uint256",
          "name": "tokenId",
          "type": "uint256"
        }
      ],
      "stateMutability": "payable",
      "type": "function"
    },
    {
      "inputs": [
        {
          "internalType": "address",
          "name": "_to",
          "type": "address"
        },
        {
          "internalType": "uint256",
          "name": "_projectId",
          "type": "uint256"
        }
      ],
      "name": "purchaseTo",
      "outputs": [
        {
          "internalType": "uint256",
          "name": "tokenId",
          "type": "uint256"
        }
      ],
      "stateMutability": "payable",
      "type": "function"
    },
    {
      "inputs": [
        {
          "internalType": "uint256",
          "name": "_projectId",
          "type": "uint256"
        }
      ],
      "name": "resetAuctionDetails",
      "outputs": [],
      "stateMutability": "nonpayable",
      "type": "function"
    },
    {
      "inputs": [
        {
          "internalType": "uint256",
          "name": "_projectId",
          "type": "uint256"
        },
        {
          "internalType": "uint256",
          "name": "_auctionTimestampStart",
          "type": "uint256"
        },
        {
          "internalType": "uint256",
          "name": "_auctionTimestampEnd",
          "type": "uint256"
        },
        {
          "internalType": "uint256",
          "name": "_startPrice",
          "type": "uint256"
        },
        {
          "internalType": "uint256",
          "name": "_basePrice",
          "type": "uint256"
        }
      ],
      "name": "setAuctionDetails",
      "outputs": [],
      "stateMutability": "nonpayable",
      "type": "function"
    },
    {
      "inputs": [
        {
          "internalType": "uint256",
          "name": "_minimumAuctionLengthSeconds",
          "type": "uint256"
        }
      ],
      "name": "setMinimumAuctionLengthSeconds",
      "outputs": [],
      "stateMutability": "nonpayable",
      "type": "function"
    },
    {
      "inputs": [
        {
          "internalType": "uint256",
          "name": "_projectId",
          "type": "uint256"
        }
      ],
      "name": "setProjectMaxInvocations",
      "outputs": [],
      "stateMutability": "nonpayable",
      "type": "function"
    },
    {
      "inputs": [
        {
          "internalType": "uint256",
          "name": "_projectId",
          "type": "uint256"
        },
        {
          "internalType": "uint8",
          "name": "_limit",
          "type": "uint8"
        }
      ],
      "name": "setProjectMintLimit",
      "outputs": [],
      "stateMutability": "nonpayable",
      "type": "function"
    },
    {
      "inputs": [
        {
          "internalType": "uint256",
          "name": "_projectId",
          "type": "uint256"
        }
      ],
      "name": "togglePurchaseToDisabled",
      "outputs": [],
      "stateMutability": "view",
      "type": "function"
    }
  ],
  "bytecode": "0x610100604052610e106005553480156200001857600080fd5b5060405162001f7d38038062001f7d8339810160408190526200003b916200015d565b600160009081556001600160a01b03808416608081905260a081905290831660c081905260e0819052604080516392a10f8360e01b81529051929391926392a10f8392600480840193602093929083900390910190829087803b158015620000a257600080fd5b505af1158015620000b7573d6000803e3d6000fd5b505050506040513d601f19601f82011682018060405250810190620000dd919062000195565b6001600160a01b031614620001385760405162461bcd60e51b815260206004820152601860248201527f496c6c6567616c20636f6e74726163742070616972696e670000000000000000604482015260640160405180910390fd5b5050620001ba565b80516001600160a01b03811681146200015857600080fd5b919050565b600080604083850312156200017157600080fd5b6200017c8362000140565b91506200018c6020840162000140565b90509250929050565b600060208284031215620001a857600080fd5b620001b38262000140565b9392505050565b60805160a05160c05160e051611d35620002486000396000610a9b015260006103830152600081816104350152818161050e015281816106150152818161070901528181610ba901528181610f590152818161101d015281816112e101528181611390015281816114d00152818161158b01528181611642015261178f0152600061030c0152611d356000f3fe6080604052600436106100e95760003560e01c8063774159c611610085578063774159c6146102b7578063891407c0146102e757806392a10f83146102fa578063b2d30ac71461033b578063cd379f6e14610351578063dd85582f14610371578063e9d1e8ac146103a5578063efef39a1146103eb578063f7bd4b88146103fe57600080fd5b8063231c2281146100ee5780632aedc28e146101105780632f077ee6146101305780632fc37ef1146101975780633a4657b4146101b757806340d1397e146101fd578063462add461461021d57806356690aaf1461025d57806362f7a7ed1461028a575b600080fd5b3480156100fa57600080fd5b5061010e6101093660046118b5565b61041e565b005b34801561011c57600080fd5b5061010e61012b3660046118eb565b6104f7565b34801561013c57600080fd5b5061017261014b3660046118eb565b60066020526000908152604090208054600182015460028301546003909301549192909184565b6040805194855260208501939093529183015260608201526080015b60405180910390f35b3480156101a357600080fd5b5061010e6101b23660046118eb565b6105fe565b3480156101c357600080fd5b506101ef6101d236600461191c565b600160209081526000928352604080842090915290825290205481565b60405190815260200161018e565b34801561020957600080fd5b5061010e6102183660046118eb565b6106f1565b34801561022957600080fd5b5061024d6102383660046118eb565b60036020526000908152604090205460ff1681565b604051901515815260200161018e565b34801561026957600080fd5b506101ef6102783660046118eb565b60046020526000908152604090205481565b34801561029657600080fd5b506101ef6102a53660046118eb565b60026020526000908152604090205481565b3480156102c357600080fd5b506102d76102d23660046118eb565b6107fa565b60405161018e94939291906119a4565b6101ef6102f536600461191c565b6108a0565b34801561030657600080fd5b5061032e7f000000000000000000000000000000000000000000000000000000000000000081565b60405161018e91906119de565b34801561034757600080fd5b506101ef60055481565b34801561035d57600080fd5b5061010e61036c3660046119f2565b610b91565b34801561037d57600080fd5b5061032e7f000000000000000000000000000000000000000000000000000000000000000081565b3480156103b157600080fd5b506103de6040518060400160405280600d81526020016c4d696e74657244414c696e563160981b81525081565b60405161018e9190611a2d565b6101ef6103f93660046118eb565b610f30565b34801561040a57600080fd5b5061010e6104193660046118eb565b610f42565b604051633af32abf60e01b81526001600160a01b037f00000000000000000000000000000000000000000000000000000000000000001690633af32abf9061046a9033906004016119de565b60206040518083038186803b15801561048257600080fd5b505afa158015610496573d6000803e3d6000fd5b505050506040513d601f19601f820116820180604052508101906104ba9190611a5c565b6104df5760405162461bcd60e51b81526004016104d690611a77565b60405180910390fd5b60009182526002602052604090912060ff9091169055565b604051633af32abf60e01b81526001600160a01b037f00000000000000000000000000000000000000000000000000000000000000001690633af32abf906105439033906004016119de565b60206040518083038186803b15801561055b57600080fd5b505afa15801561056f573d6000803e3d6000fd5b505050506040513d601f19601f820116820180604052508101906105939190611a5c565b6105af5760405162461bcd60e51b81526004016104d690611a77565b60008181526006602052604080822082815560018101839055600281018390556003018290555182917f2de6b284414d2e6b72bcc8d8d4de934e3f6410660a8f677c5c978f17f9cc2a9291a250565b604051633af32abf60e01b81526001600160a01b037f00000000000000000000000000000000000000000000000000000000000000001690633af32abf9061064a9033906004016119de565b60206040518083038186803b15801561066257600080fd5b505afa158015610676573d6000803e3d6000fd5b505050506040513d601f19601f8201168201806040525081019061069a9190611a5c565b6106b65760405162461bcd60e51b81526004016104d690611a77565b60058190556040518181527f03c81e81b0ed0ca5444a9d70c9f3d1c78d79d6a31419f77736e886d092ed1a9e9060200160405180910390a150565b60405163a47d29cb60e01b81526004810182905281907f00000000000000000000000000000000000000000000000000000000000000006001600160a01b03169063a47d29cb9060240160206040518083038186803b15801561075357600080fd5b505afa158015610767573d6000803e3d6000fd5b505050506040513d601f19601f8201168201806040525081019061078b9190611aa6565b6001600160a01b0316336001600160a01b0316146107bb5760405162461bcd60e51b81526004016104d690611ac3565b60405162461bcd60e51b81526020600482015260146024820152731058dd1a5bdb881b9bdd081cdd5c1c1bdc9d195960621b60448201526064016104d6565b6000818152600660209081526040808320815160808101835281548082526001830154948201949094526002820154928101839052600390910154606082810191909152911515939283919042116108585780604001519350610876565b602081015161086a5760009350610876565b610873866110dc565b93505b6040518060400160405280600381526020016208aa8960eb1b815250925060009150509193509193565b6000600260005414156108f55760405162461bcd60e51b815260206004820152601f60248201527f5265656e7472616e637947756172643a207265656e7472616e742063616c6c0060448201526064016104d6565b600260009081558281526003602052604090205460ff16156109675760405162461bcd60e51b815260206004820152602560248201527f4d6178696d756d206e756d626572206f6620696e766f636174696f6e732072656044820152641858da195960da1b60648201526084016104d6565b6000610972836110dc565b9050803410156109c45760405162461bcd60e51b815260206004820181905260248201527f4d7573742073656e64206d696e696d756d2076616c756520746f206d696e742160448201526064016104d6565b60008381526002602052604090205415610a6f57600083815260026020908152604080832054338452600183528184208785529092529091205410610a435760405162461bcd60e51b815260206004820152601560248201527414995858da1959081b5a5b9d1a5b99c81b1a5b5a5d605a1b60448201526064016104d6565b3360009081526001602090815260408083208684529091528120805491610a6983611afe565b91905055505b604051630d4d151360e01b81526001600160a01b038581166004830152602482018590523360448301527f00000000000000000000000000000000000000000000000000000000000000001690630d4d151390606401602060405180830381600087803b158015610adf57600080fd5b505af1158015610af3573d6000803e3d6000fd5b505050506040513d601f19601f82011682018060405250810190610b179190611b19565b60008481526004602052604090205490925015801590610b5c5750600083815260046020526040902054610b4d90600190611b32565b610b5a620f424084611b5f565b145b15610b7b576000838152600360205260409020805460ff191660011790555b610b858382611237565b50600160005592915050565b60405163a47d29cb60e01b81526004810186905285907f00000000000000000000000000000000000000000000000000000000000000006001600160a01b03169063a47d29cb9060240160206040518083038186803b158015610bf357600080fd5b505afa158015610c07573d6000803e3d6000fd5b505050506040513d601f19601f82011682018060405250810190610c2b9190611aa6565b6001600160a01b0316336001600160a01b031614610c5b5760405162461bcd60e51b81526004016104d690611ac3565b600086815260066020908152604091829020825160808101845281548082526001830154938201939093526002820154938101939093526003015460608301521580610ca75750805142105b610cf35760405162461bcd60e51b815260206004820152601c60248201527f4e6f206d6f64696669636174696f6e73206d69642d61756374696f6e0000000060448201526064016104d6565b854210610d395760405162461bcd60e51b81526020600482015260146024820152734f6e6c79206675747572652061756374696f6e7360601b60448201526064016104d6565b858511610d9f5760405162461bcd60e51b815260206004820152602e60248201527f41756374696f6e20656e64206d7573742062652067726561746572207468616e60448201526d08185d58dd1a5bdb881cdd185c9d60921b60648201526084016104d6565b600554610dac9087611b73565b851015610e215760405162461bcd60e51b815260206004820152603b60248201527f41756374696f6e206c656e677468206d757374206265206174206c656173742060448201527f6d696e696d756d41756374696f6e4c656e6774685365636f6e6473000000000060648201526084016104d6565b828411610e965760405162461bcd60e51b815260206004820152603a60248201527f41756374696f6e207374617274207072696365206d757374206265206772656160448201527f746572207468616e2061756374696f6e20656e6420707269636500000000000060648201526084016104d6565b6040805160808082018352888252602080830189815283850189815260608086018a815260008f815260068652889020965187559251600187015590516002860155905160039094019390935583518a815290810189905292830187905290820185905288917f38b3058b75696f9e45bffa9c4b237adcde13d74c7bc1bea63e13c712d0776c74910160405180910390a250505050505050565b6000610f3c33836108a0565b92915050565b604051633af32abf60e01b81526001600160a01b037f00000000000000000000000000000000000000000000000000000000000000001690633af32abf90610f8e9033906004016119de565b60206040518083038186803b158015610fa657600080fd5b505afa158015610fba573d6000803e3d6000fd5b505050506040513d601f19601f82011682018060405250810190610fde9190611a5c565b610ffa5760405162461bcd60e51b81526004016104d690611a77565b6040516346161b1160e11b81526004810182905260009081906001600160a01b037f00000000000000000000000000000000000000000000000000000000000000001690638c2c36229060240160006040518083038186803b15801561105f57600080fd5b505afa158015611073573d6000803e3d6000fd5b505050506040513d6000823e601f3d908101601f1916820160405261109b9190810190611bac565b5050506000898152600460205260409020839055509195509350505050808210156110d7576000838152600360205260409020805460ff191690555b505050565b6000818152600660209081526040808320815160808101835281548082526001830154948201949094526002820154928101929092526003015460608201529042116111645760405162461bcd60e51b8152602060048201526017602482015276105d58dd1a5bdb881b9bdd081e595d081cdd185c9d1959604a1b60448201526064016104d6565b806020015142106111c85760008160200151116111be5760405162461bcd60e51b81526020600482015260186024820152774f6e6c7920636f6e666967757265642061756374696f6e7360401b60448201526064016104d6565b6060015192915050565b80516000906111d79042611b32565b90506000826000015183602001516111ef9190611b32565b90506000836060015184604001516112079190611b32565b9050816112148285611ccc565b61121e9190611ceb565b846040015161122d9190611b32565b9695505050505050565b34156118b15760006112498234611b32565b905080156112db57604051600090339083908381818185875af1925050503d8060008114611293576040519150601f19603f3d011682016040523d82523d6000602084013e611298565b606091505b50509050806112d95760405162461bcd60e51b815260206004820152600d60248201526c1499599d5b990819985a5b1959609a1b60448201526064016104d6565b505b600060647f00000000000000000000000000000000000000000000000000000000000000006001600160a01b0316634f029c396040518163ffffffff1660e01b815260040160206040518083038186803b15801561133857600080fd5b505afa15801561134c573d6000803e3d6000fd5b505050506040513d601f19601f820116820180604052508101906113709190611b19565b61137a9085611ccc565b6113849190611ceb565b905080156114bd5760007f00000000000000000000000000000000000000000000000000000000000000006001600160a01b0316633949f9066040518163ffffffff1660e01b815260040160206040518083038186803b1580156113e757600080fd5b505afa1580156113fb573d6000803e3d6000fd5b505050506040513d601f19601f8201168201806040525081019061141f9190611aa6565b6001600160a01b03168260405160006040518083038185875af1925050503d8060008114611469576040519150601f19603f3d011682016040523d82523d6000602084013e61146e565b606091505b50509050806114bb5760405162461bcd60e51b8152602060048201526019602482015278119bdd5b99185d1a5bdb881c185e5b595b9d0819985a5b1959603a1b60448201526064016104d6565b505b60006114c98285611b32565b90506000807f00000000000000000000000000000000000000000000000000000000000000006001600160a01b031663cc74234b886040518263ffffffff1660e01b815260040161151c91815260200190565b60206040518083038186803b15801561153457600080fd5b505afa158015611548573d6000803e3d6000fd5b505050506040513d601f19601f8201168201806040525081019061156c9190611b19565b11156117625760405163cc74234b60e01b8152600481018790526064907f00000000000000000000000000000000000000000000000000000000000000006001600160a01b03169063cc74234b9060240160206040518083038186803b1580156115d557600080fd5b505afa1580156115e9573d6000803e3d6000fd5b505050506040513d601f19601f8201168201806040525081019061160d9190611b19565b6116179084611ccc565b6116219190611ceb565b9050801561176257604051636bd8225b60e11b8152600481018790526000907f00000000000000000000000000000000000000000000000000000000000000006001600160a01b03169063d7b044b69060240160206040518083038186803b15801561168c57600080fd5b505afa1580156116a0573d6000803e3d6000fd5b505050506040513d601f19601f820116820180604052508101906116c49190611aa6565b6001600160a01b03168260405160006040518083038185875af1925050503d806000811461170e576040519150601f19603f3d011682016040523d82523d6000602084013e611713565b606091505b50509050806117605760405162461bcd60e51b81526020600482015260196024820152781059191a5d1a5bdb985b081c185e5b595b9d0819985a5b1959603a1b60448201526064016104d6565b505b600061176e8284611b32565b905080156118ab5760405163a47d29cb60e01b8152600481018890526000907f00000000000000000000000000000000000000000000000000000000000000006001600160a01b03169063a47d29cb9060240160206040518083038186803b1580156117d957600080fd5b505afa1580156117ed573d6000803e3d6000fd5b505050506040513d601f19601f820116820180604052508101906118119190611aa6565b6001600160a01b03168260405160006040518083038185875af1925050503d806000811461185b576040519150601f19603f3d011682016040523d82523d6000602084013e611860565b606091505b50509050806118a95760405162461bcd60e51b8152602060048201526015602482015274105c9d1a5cdd081c185e5b595b9d0819985a5b1959605a1b60448201526064016104d6565b505b50505050505b5050565b600080604083850312156118c857600080fd5b82359150602083013560ff811681146118e057600080fd5b809150509250929050565b6000602082840312156118fd57600080fd5b5035919050565b6001600160a01b038116811461191957600080fd5b50565b6000806040838503121561192f57600080fd5b823561193a81611904565b946020939093013593505050565b60005b8381101561196357818101518382015260200161194b565b83811115611972576000848401525b50505050565b60008151808452611990816020860160208601611948565b601f01601f19169290920160200192915050565b84151581528360208201526080604082015260006119c56080830185611978565b905060018060a01b038316606083015295945050505050565b6001600160a01b0391909116815260200190565b600080600080600060a08688031215611a0a57600080fd5b505083359560208501359550604085013594606081013594506080013592509050565b602081526000611a406020830184611978565b9392505050565b80518015158114611a5757600080fd5b919050565b600060208284031215611a6e57600080fd5b611a4082611a47565b60208082526015908201527413db9b1e4810dbdc99481dda1a5d195b1a5cdd1959605a1b604082015260600190565b600060208284031215611ab857600080fd5b8151611a4081611904565b6020808252600b908201526a13db9b1e48105c9d1a5cdd60aa1b604082015260600190565b634e487b7160e01b600052601160045260246000fd5b6000600019821415611b1257611b12611ae8565b5060010190565b600060208284031215611b2b57600080fd5b5051919050565b600082821015611b4457611b44611ae8565b500390565b634e487b7160e01b600052601260045260246000fd5b600082611b6e57611b6e611b49565b500690565b60008219821115611b8657611b86611ae8565b500190565b8051611a5781611904565b634e487b7160e01b600052604160045260246000fd5b60008060008060008060008060006101208a8c031215611bcb57600080fd5b8951611bd681611904565b8099505060208a0151975060408a0151965060608a01519550611bfb60808b01611a47565b945060a08a0151611c0b81611904565b60c08b015160e08c0151919550935067ffffffffffffffff80821115611c3057600080fd5b818c0191508c601f830112611c4457600080fd5b815181811115611c5657611c56611b96565b604051601f8201601f19908116603f01168101908382118183101715611c7e57611c7e611b96565b816040528281528f6020848701011115611c9757600080fd5b611ca8836020830160208801611948565b8096505050505050611cbd6101008b01611b8b565b90509295985092959850929598565b6000816000190483118215151615611ce657611ce6611ae8565b500290565b600082611cfa57611cfa611b49565b50049056fea26469706673582212209d0aea2f3feb34d828a4d93928b763a35ac9e39fdc623dddbf6da8082e7fc3c864736f6c63430008090033",
  "linkReferences": {},
  "deployedLinkReferences": {}
}