{
  "_format": "hh-sol-artifact-1",
  "contractName": "MinterMerkleV2",
  "sourceName": "contracts/minter-suite/Minters/MinterMerkle/MinterMerkleV2.sol",
  "abi": [
    {
      "inputs": [
        {
          "internalType": "address",
          "name": "_genArt721Address",
          "type": "address"
        },
        {
          "internalType": "address",
          "name": "_minterFilter",
          "type": "address"
        }
      ],
      "stateMutability": "nonpayable",
      "type": "constructor"
    },
    {
      "anonymous": false,
      "inputs": [
        {
          "indexed": true,
          "internalType": "uint256",
          "name": "_projectId",
          "type": "uint256"
        },
        {
          "indexed": false,
          "internalType": "bytes32",
          "name": "_key",
          "type": "bytes32"
        }
      ],
      "name": "ConfigKeyRemoved",
      "type": "event"
    },
    {
      "anonymous": false,
      "inputs": [
        {
          "indexed": true,
          "internalType": "uint256",
          "name": "_projectId",
          "type": "uint256"
        },
        {
          "indexed": false,
          "internalType": "bytes32",
          "name": "_key",
          "type": "bytes32"
        },
        {
          "indexed": false,
          "internalType": "uint256",
          "name": "_value",
          "type": "uint256"
        }
      ],
      "name": "ConfigValueAddedToSet",
      "type": "event"
    },
    {
      "anonymous": false,
      "inputs": [
        {
          "indexed": true,
          "internalType": "uint256",
          "name": "_projectId",
          "type": "uint256"
        },
        {
          "indexed": false,
          "internalType": "bytes32",
          "name": "_key",
          "type": "bytes32"
        },
        {
          "indexed": false,
          "internalType": "address",
          "name": "_value",
          "type": "address"
        }
      ],
      "name": "ConfigValueAddedToSet",
      "type": "event"
    },
    {
      "anonymous": false,
      "inputs": [
        {
          "indexed": true,
          "internalType": "uint256",
          "name": "_projectId",
          "type": "uint256"
        },
        {
          "indexed": false,
          "internalType": "bytes32",
          "name": "_key",
          "type": "bytes32"
        },
        {
          "indexed": false,
          "internalType": "bytes32",
          "name": "_value",
          "type": "bytes32"
        }
      ],
      "name": "ConfigValueAddedToSet",
      "type": "event"
    },
    {
      "anonymous": false,
      "inputs": [
        {
          "indexed": true,
          "internalType": "uint256",
          "name": "_projectId",
          "type": "uint256"
        },
        {
          "indexed": false,
          "internalType": "bytes32",
          "name": "_key",
          "type": "bytes32"
        },
        {
          "indexed": false,
          "internalType": "uint256",
          "name": "_value",
          "type": "uint256"
        }
      ],
      "name": "ConfigValueRemovedFromSet",
      "type": "event"
    },
    {
      "anonymous": false,
      "inputs": [
        {
          "indexed": true,
          "internalType": "uint256",
          "name": "_projectId",
          "type": "uint256"
        },
        {
          "indexed": false,
          "internalType": "bytes32",
          "name": "_key",
          "type": "bytes32"
        },
        {
          "indexed": false,
          "internalType": "address",
          "name": "_value",
          "type": "address"
        }
      ],
      "name": "ConfigValueRemovedFromSet",
      "type": "event"
    },
    {
      "anonymous": false,
      "inputs": [
        {
          "indexed": true,
          "internalType": "uint256",
          "name": "_projectId",
          "type": "uint256"
        },
        {
          "indexed": false,
          "internalType": "bytes32",
          "name": "_key",
          "type": "bytes32"
        },
        {
          "indexed": false,
          "internalType": "bytes32",
          "name": "_value",
          "type": "bytes32"
        }
      ],
      "name": "ConfigValueRemovedFromSet",
      "type": "event"
    },
    {
      "anonymous": false,
      "inputs": [
        {
          "indexed": true,
          "internalType": "uint256",
          "name": "_projectId",
          "type": "uint256"
        },
        {
          "indexed": false,
          "internalType": "bytes32",
          "name": "_key",
          "type": "bytes32"
        },
        {
          "indexed": false,
          "internalType": "bool",
          "name": "_value",
          "type": "bool"
        }
      ],
      "name": "ConfigValueSet",
      "type": "event"
    },
    {
      "anonymous": false,
      "inputs": [
        {
          "indexed": true,
          "internalType": "uint256",
          "name": "_projectId",
          "type": "uint256"
        },
        {
          "indexed": false,
          "internalType": "bytes32",
          "name": "_key",
          "type": "bytes32"
        },
        {
          "indexed": false,
          "internalType": "uint256",
          "name": "_value",
          "type": "uint256"
        }
      ],
      "name": "ConfigValueSet",
      "type": "event"
    },
    {
      "anonymous": false,
      "inputs": [
        {
          "indexed": true,
          "internalType": "uint256",
          "name": "_projectId",
          "type": "uint256"
        },
        {
          "indexed": false,
          "internalType": "bytes32",
          "name": "_key",
          "type": "bytes32"
        },
        {
          "indexed": false,
          "internalType": "address",
          "name": "_value",
          "type": "address"
        }
      ],
      "name": "ConfigValueSet",
      "type": "event"
    },
    {
      "anonymous": false,
      "inputs": [
        {
          "indexed": true,
          "internalType": "uint256",
          "name": "_projectId",
          "type": "uint256"
        },
        {
          "indexed": false,
          "internalType": "bytes32",
          "name": "_key",
          "type": "bytes32"
        },
        {
          "indexed": false,
          "internalType": "bytes32",
          "name": "_value",
          "type": "bytes32"
        }
      ],
      "name": "ConfigValueSet",
      "type": "event"
    },
    {
      "anonymous": false,
      "inputs": [
        {
          "indexed": false,
          "internalType": "uint256",
          "name": "defaultMaxInvocationsPerAddress",
          "type": "uint256"
        }
      ],
      "name": "DefaultMaxInvocationsPerAddress",
      "type": "event"
    },
    {
      "anonymous": false,
      "inputs": [
        {
          "indexed": true,
          "internalType": "uint256",
          "name": "_projectId",
          "type": "uint256"
        },
        {
          "indexed": true,
          "internalType": "uint256",
          "name": "_pricePerTokenInWei",
          "type": "uint256"
        }
      ],
      "name": "PricePerTokenInWeiUpdated",
      "type": "event"
    },
    {
      "anonymous": false,
      "inputs": [
        {
          "indexed": true,
          "internalType": "uint256",
          "name": "_projectId",
          "type": "uint256"
        },
        {
          "indexed": true,
          "internalType": "address",
          "name": "_currencyAddress",
          "type": "address"
        },
        {
          "indexed": false,
          "internalType": "string",
          "name": "_currencySymbol",
          "type": "string"
        }
      ],
      "name": "ProjectCurrencyInfoUpdated",
      "type": "event"
    },
    {
      "anonymous": false,
      "inputs": [
        {
          "indexed": true,
          "internalType": "uint256",
          "name": "_projectId",
          "type": "uint256"
        },
        {
          "indexed": false,
          "internalType": "bool",
          "name": "_purchaseToDisabled",
          "type": "bool"
        }
      ],
      "name": "PurchaseToDisabledUpdated",
      "type": "event"
    },
    {
      "inputs": [],
      "name": "DEFAULT_MAX_INVOCATIONS_PER_ADDRESS",
      "outputs": [
        {
          "internalType": "uint256",
          "name": "",
          "type": "uint256"
        }
      ],
      "stateMutability": "view",
      "type": "function"
    },
    {
      "inputs": [],
      "name": "DELEGATION_REGISTRY_ADDRESS",
      "outputs": [
        {
          "internalType": "address",
          "name": "",
          "type": "address"
        }
      ],
      "stateMutability": "view",
      "type": "function"
    },
    {
      "inputs": [],
      "name": "genArt721CoreAddress",
      "outputs": [
        {
          "internalType": "address",
          "name": "",
          "type": "address"
        }
      ],
      "stateMutability": "view",
      "type": "function"
    },
    {
      "inputs": [
        {
          "internalType": "uint256",
          "name": "_projectId",
          "type": "uint256"
        }
      ],
      "name": "getPriceInfo",
      "outputs": [
        {
          "internalType": "bool",
          "name": "isConfigured",
          "type": "bool"
        },
        {
          "internalType": "uint256",
          "name": "tokenPriceInWei",
          "type": "uint256"
        },
        {
          "internalType": "string",
          "name": "currencySymbol",
          "type": "string"
        },
        {
          "internalType": "address",
          "name": "currencyAddress",
          "type": "address"
        }
      ],
      "stateMutability": "view",
      "type": "function"
    },
    {
      "inputs": [
        {
          "internalType": "address",
          "name": "_address",
          "type": "address"
        }
      ],
      "name": "hashAddress",
      "outputs": [
        {
          "internalType": "bytes32",
          "name": "",
          "type": "bytes32"
        }
      ],
      "stateMutability": "pure",
      "type": "function"
    },
    {
      "inputs": [],
      "name": "minterFilterAddress",
      "outputs": [
        {
          "internalType": "address",
          "name": "",
          "type": "address"
        }
      ],
      "stateMutability": "view",
      "type": "function"
    },
    {
      "inputs": [],
      "name": "minterType",
      "outputs": [
        {
          "internalType": "string",
          "name": "",
          "type": "string"
        }
      ],
      "stateMutability": "view",
      "type": "function"
    },
    {
      "inputs": [
        {
          "internalType": "bytes32[]",
          "name": "_proof",
          "type": "bytes32[]"
        },
        {
          "internalType": "address",
          "name": "_address",
          "type": "address"
        }
      ],
      "name": "processProofForAddress",
      "outputs": [
        {
          "internalType": "bytes32",
          "name": "",
          "type": "bytes32"
        }
      ],
      "stateMutability": "pure",
      "type": "function"
    },
    {
      "inputs": [
        {
          "internalType": "uint256",
          "name": "",
          "type": "uint256"
        }
      ],
      "name": "projectConfig",
      "outputs": [
        {
          "internalType": "bool",
          "name": "maxHasBeenInvoked",
          "type": "bool"
        },
        {
          "internalType": "bool",
          "name": "priceIsConfigured",
          "type": "bool"
        },
        {
          "internalType": "bool",
          "name": "useMaxInvocationsPerAddressOverride",
          "type": "bool"
        },
        {
          "internalType": "uint24",
          "name": "maxInvocationsPerAddressOverride",
          "type": "uint24"
        },
        {
          "internalType": "uint24",
          "name": "maxInvocations",
          "type": "uint24"
        },
        {
          "internalType": "uint256",
          "name": "pricePerTokenInWei",
          "type": "uint256"
        }
      ],
      "stateMutability": "view",
      "type": "function"
    },
    {
      "inputs": [
        {
          "internalType": "uint256",
          "name": "_projectId",
          "type": "uint256"
        }
      ],
      "name": "projectMaxHasBeenInvoked",
      "outputs": [
        {
          "internalType": "bool",
          "name": "",
          "type": "bool"
        }
      ],
      "stateMutability": "view",
      "type": "function"
    },
    {
      "inputs": [
        {
          "internalType": "uint256",
          "name": "_projectId",
          "type": "uint256"
        }
      ],
      "name": "projectMaxInvocations",
      "outputs": [
        {
          "internalType": "uint256",
          "name": "",
          "type": "uint256"
        }
      ],
      "stateMutability": "view",
      "type": "function"
    },
    {
      "inputs": [
        {
          "internalType": "uint256",
          "name": "_projectId",
          "type": "uint256"
        }
      ],
      "name": "projectMaxInvocationsPerAddress",
      "outputs": [
        {
          "internalType": "uint256",
          "name": "",
          "type": "uint256"
        }
      ],
      "stateMutability": "view",
      "type": "function"
    },
    {
      "inputs": [
        {
          "internalType": "uint256",
          "name": "",
          "type": "uint256"
        }
      ],
      "name": "projectMerkleRoot",
      "outputs": [
        {
          "internalType": "bytes32",
          "name": "",
          "type": "bytes32"
        }
      ],
      "stateMutability": "view",
      "type": "function"
    },
    {
      "inputs": [
        {
          "internalType": "uint256",
          "name": "_projectId",
          "type": "uint256"
        },
        {
          "internalType": "address",
          "name": "_address",
          "type": "address"
        }
      ],
      "name": "projectRemainingInvocationsForAddress",
      "outputs": [
        {
          "internalType": "bool",
          "name": "projectLimitsMintInvocationsPerAddress",
          "type": "bool"
        },
        {
          "internalType": "uint256",
          "name": "mintInvocationsRemaining",
          "type": "uint256"
        }
      ],
      "stateMutability": "view",
      "type": "function"
    },
    {
      "inputs": [
        {
          "internalType": "uint256",
          "name": "",
          "type": "uint256"
        },
        {
          "internalType": "address",
          "name": "",
          "type": "address"
        }
      ],
      "name": "projectUserMintInvocations",
      "outputs": [
        {
          "internalType": "uint256",
          "name": "",
          "type": "uint256"
        }
      ],
      "stateMutability": "view",
      "type": "function"
    },
    {
      "inputs": [
        {
          "internalType": "uint256",
          "name": "_projectId",
          "type": "uint256"
        },
        {
          "internalType": "bytes32[]",
          "name": "_proof",
          "type": "bytes32[]"
        }
      ],
      "name": "purchase",
      "outputs": [
        {
          "internalType": "uint256",
          "name": "tokenId",
          "type": "uint256"
        }
      ],
      "stateMutability": "payable",
      "type": "function"
    },
    {
      "inputs": [
        {
          "internalType": "uint256",
          "name": "",
          "type": "uint256"
        }
      ],
      "name": "purchase",
      "outputs": [
        {
          "internalType": "uint256",
          "name": "",
          "type": "uint256"
        }
      ],
      "stateMutability": "payable",
      "type": "function"
    },
    {
      "inputs": [
        {
          "internalType": "address",
          "name": "_to",
          "type": "address"
        },
        {
          "internalType": "uint256",
          "name": "_projectId",
          "type": "uint256"
        },
        {
          "internalType": "bytes32[]",
          "name": "_proof",
          "type": "bytes32[]"
        }
      ],
      "name": "purchaseTo",
      "outputs": [
        {
          "internalType": "uint256",
          "name": "tokenId",
          "type": "uint256"
        }
      ],
      "stateMutability": "payable",
      "type": "function"
    },
    {
      "inputs": [
        {
          "internalType": "address",
          "name": "",
          "type": "address"
        },
        {
          "internalType": "uint256",
          "name": "",
          "type": "uint256"
        }
      ],
      "name": "purchaseTo",
      "outputs": [
        {
          "internalType": "uint256",
          "name": "",
          "type": "uint256"
        }
      ],
      "stateMutability": "payable",
      "type": "function"
    },
    {
      "inputs": [
        {
          "internalType": "address",
          "name": "_to",
          "type": "address"
        },
        {
          "internalType": "uint256",
          "name": "_projectId",
          "type": "uint256"
        },
        {
          "internalType": "bytes32[]",
          "name": "_proof",
          "type": "bytes32[]"
        },
        {
          "internalType": "address",
          "name": "_vault",
          "type": "address"
        }
      ],
      "name": "purchaseTo",
      "outputs": [
        {
          "internalType": "uint256",
          "name": "tokenId",
          "type": "uint256"
        }
      ],
      "stateMutability": "payable",
      "type": "function"
    },
    {
      "inputs": [
        {
          "internalType": "address",
          "name": "_to",
          "type": "address"
        },
        {
          "internalType": "uint256",
          "name": "_projectId",
          "type": "uint256"
        },
        {
          "internalType": "bytes32[]",
          "name": "_proof",
          "type": "bytes32[]"
        },
        {
          "internalType": "address",
          "name": "_vault",
          "type": "address"
        }
      ],
      "name": "purchaseTo_kem",
      "outputs": [
        {
          "internalType": "uint256",
          "name": "tokenId",
          "type": "uint256"
        }
      ],
      "stateMutability": "payable",
      "type": "function"
    },
    {
      "inputs": [
        {
          "internalType": "uint256",
          "name": "_projectId",
          "type": "uint256"
        },
        {
          "internalType": "bytes32[]",
          "name": "_proof",
          "type": "bytes32[]"
        }
      ],
      "name": "purchase_gD5",
      "outputs": [
        {
          "internalType": "uint256",
          "name": "tokenId",
          "type": "uint256"
        }
      ],
      "stateMutability": "payable",
      "type": "function"
    },
    {
      "inputs": [
        {
          "internalType": "uint256",
          "name": "_projectId",
          "type": "uint256"
        },
        {
          "internalType": "uint24",
          "name": "_maxInvocationsPerAddress",
          "type": "uint24"
        }
      ],
      "name": "setProjectInvocationsPerAddress",
      "outputs": [],
      "stateMutability": "nonpayable",
      "type": "function"
    },
    {
      "inputs": [
        {
          "internalType": "uint256",
          "name": "_projectId",
          "type": "uint256"
        }
      ],
      "name": "setProjectMaxInvocations",
      "outputs": [],
      "stateMutability": "nonpayable",
      "type": "function"
    },
    {
      "inputs": [
        {
          "internalType": "uint256",
          "name": "_projectId",
          "type": "uint256"
        }
      ],
      "name": "togglePurchaseToDisabled",
      "outputs": [],
      "stateMutability": "view",
      "type": "function"
    },
    {
      "inputs": [
        {
          "internalType": "uint256",
          "name": "_projectId",
          "type": "uint256"
        },
        {
          "internalType": "bytes32",
          "name": "_root",
          "type": "bytes32"
        }
      ],
      "name": "updateMerkleRoot",
      "outputs": [],
      "stateMutability": "nonpayable",
      "type": "function"
    },
    {
      "inputs": [
        {
          "internalType": "uint256",
          "name": "_projectId",
          "type": "uint256"
        },
        {
          "internalType": "uint256",
          "name": "_pricePerTokenInWei",
          "type": "uint256"
        }
      ],
      "name": "updatePricePerTokenInWei",
      "outputs": [],
      "stateMutability": "nonpayable",
      "type": "function"
    },
    {
      "inputs": [
        {
          "internalType": "uint256",
          "name": "_projectId",
          "type": "uint256"
        },
        {
          "internalType": "bytes32[]",
          "name": "_proof",
          "type": "bytes32[]"
        },
        {
          "internalType": "address",
          "name": "_address",
          "type": "address"
        }
      ],
      "name": "verifyAddress",
      "outputs": [
        {
          "internalType": "bool",
          "name": "",
          "type": "bool"
        }
      ],
      "stateMutability": "view",
      "type": "function"
    }
  ],
  "bytecode": "0x6101206040523480156200001257600080fd5b5060405162001df138038062001df183398101604081905262000035916200018e565b600160009081556001600160a01b0380841660a081905260c08190526d76a84fef008cdabe6409d2fe638b60805290831660e0819052610100819052604080516392a10f8360e01b81529051929391926392a10f83926004808401936020939290839003909101908290875af1158015620000b4573d6000803e3d6000fd5b505050506040513d601f19601f82011682018060405250810190620000da9190620001c6565b6001600160a01b031614620001355760405162461bcd60e51b815260206004820152601860248201527f496c6c6567616c20636f6e74726163742070616972696e670000000000000000604482015260640160405180910390fd5b604051600181527fb004e34bc1718c504fde68324f2eba80b0329056f240eaaa6803c286c4b9e7ed9060200160405180910390a15050620001eb565b80516001600160a01b03811681146200018957600080fd5b919050565b60008060408385031215620001a257600080fd5b620001ad8362000171565b9150620001bd6020840162000171565b90509250929050565b600060208284031215620001d957600080fd5b620001e48262000171565b9392505050565b60805160a05160c05160e05161010051611b976200025a6000396000610a050152600061055f015260008181610b9101528181610ce001528181610e730152818161101f0152818161117f01526112d80152600081816103a501526107b9015260006107e40152611b976000f3fe6080604052600436106101535760003560e01c806392a10f83116100bc57806392a10f83146103935780639775f86f146103df578063aea7d3b9146103f4578063b2543d021461042c578063c15127c01461044e578063c71b1b7114610461578063cc3352bf14610500578063d684ec6714610520578063da7e7c501461017e578063dd85582f1461054d578063e9d1e8ac14610581578063efef39a1146105c8578063f1e33115146105d6578063f7bd4b88146105f657600080fd5b806157b6146101585780615aa11461017e57806315bed159146101915780631ec2e523146101b1578063202c5805146101d15780633aa5fe59146101e457806340d1397e14610204578063462add461461022657806356690aaf146102665780636b453e701461029f5780636cb9b7ff146102d65780636ede4ade146102f6578063774159c614610316578063891407c014610380575b600080fd5b61016b61016636600461166e565b610616565b6040519081526020015b60405180910390f35b61016b61018c3660046116e1565b610abd565b34801561019d57600080fd5b5061016b6101ac36600461172c565b610ad5565b3480156101bd57600080fd5b5061016b6101cc366004611745565b610b0f565b61016b6101df36600461179b565b610b26565b3480156101f057600080fd5b5061016b6101ff3660046117f6565b610b3f565b34801561021057600080fd5b5061022461021f36600461172c565b610b79565b005b34801561023257600080fd5b5061025661024136600461172c565b60009081526001602052604090205460ff1690565b6040519015158152602001610175565b34801561027257600080fd5b5061016b61028136600461172c565b600090815260016020526040902054600160301b900462ffffff1690565b3480156102ab57600080fd5b506102bf6102ba36600461181a565b610c73565b604080519215158352602083019190915201610175565b3480156102e257600080fd5b506102246102f136600461184a565b610cc8565b34801561030257600080fd5b5061025661031136600461186c565b610dd6565b34801561032257600080fd5b5061037061033136600461172c565b600090815260016020818152604080842080549301548151808301909252600382526208aa8960eb1b9282019290925261010090920460ff1693909290565b6040516101759493929190611910565b61016b61038e36600461194a565b610dfb565b34801561039f57600080fd5b506103c77f000000000000000000000000000000000000000000000000000000000000000081565b6040516001600160a01b039091168152602001610175565b3480156103eb57600080fd5b5061016b600181565b34801561040057600080fd5b5061016b61040f36600461181a565b600360209081526000928352604080842090915290825290205481565b34801561043857600080fd5b506103c76d76a84fef008cdabe6409d2fe638b81565b61016b61045c36600461166e565b610e42565b34801561046d57600080fd5b506104c461047c36600461172c565b6001602081905260009182526040909120805491015460ff8083169261010081048216926201000082049092169162ffffff63010000008304811692600160301b9004169086565b60408051961515875294151560208701529215159385019390935262ffffff9081166060850152909116608083015260a082015260c001610175565b34801561050c57600080fd5b5061022461051b366004611976565b610e5b565b34801561052c57600080fd5b5061016b61053b36600461172c565b60026020526000908152604090205481565b34801561055957600080fd5b506103c77f000000000000000000000000000000000000000000000000000000000000000081565b34801561058d57600080fd5b506105bb6040518060400160405280600e81526020016d26b4b73a32b926b2b935b632ab1960911b81525081565b60405161017591906119a3565b61016b61038e36600461172c565b3480156105e257600080fd5b506102246105f136600461184a565b611007565b34801561060257600080fd5b5061022461061136600461172c565b611166565b600060026000540361066f5760405162461bcd60e51b815260206004820152601f60248201527f5265656e7472616e637947756172643a207265656e7472616e742063616c6c0060448201526064015b60405180910390fd5b60026000908155858152600160205260409020805460ff16156106e25760405162461bcd60e51b815260206004820152602560248201527f4d6178696d756d206e756d626572206f6620696e766f636174696f6e732072656044820152641858da195960da1b6064820152608401610666565b6001810154348111156107375760405162461bcd60e51b815260206004820181905260248201527f4d7573742073656e64206d696e696d756d2076616c756520746f206d696e74216044820152606401610666565b8154610100900460ff166107845760405162461bcd60e51b8152602060048201526014602482015273141c9a58d9481b9bdd0818dbdb999a59dd5c995960621b6044820152606401610666565b336001600160a01b038516156108a55760405163090c9a2d60e41b81523360048201526001600160a01b0382811660248301527f0000000000000000000000000000000000000000000000000000000000000000811660448301526000917f0000000000000000000000000000000000000000000000000000000000000000909116906390c9a2d090606401602060405180830381865afa15801561082d573d6000803e3d6000fd5b505050506040513d601f19601f8201168201806040525081019061085191906119cb565b9050806108a05760405162461bcd60e51b815260206004820152601e60248201527f496e76616c69642064656c65676174652d7661756c742070616972696e6700006044820152606401610666565b859150505b6108b188888884610dd6565b6108f45760405162461bcd60e51b815260206004820152601460248201527324b73b30b634b21026b2b935b63290383937b7b360611b6044820152606401610666565b825460009062010000900460ff1661090d57600161091c565b83546301000000900462ffffff165b60008a81526003602090815260408083206001600160a01b038716845290915290205490915081118061094d575080155b6109b35760405162461bcd60e51b815260206004820152603160248201527f4d6178696d756d206e756d626572206f6620696e766f636174696f6e732070656044820152701c881859191c995cdcc81c995858da1959607a1b6064820152608401610666565b60008981526003602090815260408083206001600160a01b0386811680865291909352928190208054600101905551630d4d151360e01b81528c82166004820152602481018c905260448101929092527f00000000000000000000000000000000000000000000000000000000000000001690630d4d1513906064016020604051808303816000875af1158015610a4e573d6000803e3d6000fd5b505050506040513d601f19601f82011682018060405250810190610a7291906119e6565b845490955060001962ffffff600160301b90920482160116620f4240860603610aa157835460ff191660011784555b610aab898461122a565b50505050600160005595945050505050565b6000610acd338585856000610616565b949350505050565b6000818152600160205260408120805462010000900460ff1615610b0657546301000000900462ffffff1692915050565b50600192915050565b6000610acd610b1d83610b3f565b85908590611573565b6000610b36858585856000610616565b95945050505050565b6040516001600160601b0319606083901b166020820152600090603401604051602081830303815290604052805190602001209050919050565b60405163a47d29cb60e01b81526004810182905281907f00000000000000000000000000000000000000000000000000000000000000006001600160a01b03169063a47d29cb90602401602060405180830381865afa158015610be0573d6000803e3d6000fd5b505050506040513d601f19601f82011682018060405250810190610c0491906119ff565b6001600160a01b0316336001600160a01b031614610c345760405162461bcd60e51b815260040161066690611a1c565b60405162461bcd60e51b81526020600482015260146024820152731058dd1a5bdb881b9bdd081cdd5c1c1bdc9d195960621b6044820152606401610666565b6000806000610c8185610ad5565b90508015610cc05760008581526003602090815260408083206001600160a01b03881684529091529020546001935080821115610cbe5780820392505b505b509250929050565b60405163a47d29cb60e01b81526004810183905282907f00000000000000000000000000000000000000000000000000000000000000006001600160a01b03169063a47d29cb90602401602060405180830381865afa158015610d2f573d6000803e3d6000fd5b505050506040513d601f19601f82011682018060405250810190610d5391906119ff565b6001600160a01b0316336001600160a01b031614610d835760405162461bcd60e51b815260040161066690611a1c565b6000838152600160208190526040808320918201859055815461ff0019166101001790915551839185917f26118a27aca826f829f3bfe21b140b4455c00b434849bd0da50d1e1a9720fb5c9190a3505050565b600084815260026020526040812054610b3690610df284610b3f565b869186916115bf565b60405162461bcd60e51b815260206004820152601960248201527826bab9ba10383937bb34b2329026b2b935b63290383937b7b360391b6044820152600090606401610666565b6000610e518686868686610616565b9695505050505050565b60405163a47d29cb60e01b81526004810183905282907f00000000000000000000000000000000000000000000000000000000000000006001600160a01b03169063a47d29cb90602401602060405180830381865afa158015610ec2573d6000803e3d6000fd5b505050506040513d601f19601f82011682018060405250810190610ee691906119ff565b6001600160a01b0316336001600160a01b031614610f165760405162461bcd60e51b815260040161066690611a1c565b600083815260016020819052604091829020805462ffffff861663010000000265ffffffff0000199091161762010000178155915185917fc594e23b9382359e253cdaba84b0aefe5ad09ccfd5706891673743b37229c2d291610fa091797573654d61784d696e7473506572416464724f7665727269646560301b82521515602082015260400190565b60405180910390a260408051766d61784d696e7473506572416464724f7665727269646560481b815262ffffff8516602082015285917f8a5820ca7148caeda3176e8d60a3bb413b4bcca45922ac2178b1ee191fe320eb910160405180910390a250505050565b60405163a47d29cb60e01b81526004810183905282907f00000000000000000000000000000000000000000000000000000000000000006001600160a01b03169063a47d29cb90602401602060405180830381865afa15801561106e573d6000803e3d6000fd5b505050506040513d601f19601f8201168201806040525081019061109291906119ff565b6001600160a01b0316336001600160a01b0316146110c25760405162461bcd60e51b815260040161066690611a1c565b816111075760405162461bcd60e51b8152602060048201526015602482015274149bdbdd081b5d5cdd081899481c1c9bdd9a591959605a1b6044820152606401610666565b6000838152600260209081526040918290208490558151691b595c9adb19549bdbdd60b21b815290810184905284917f729c0261c7e3c976b9a392f2bb08064d7a03c82f9f1473ab0ee284c985df0815910160405180910390a2505050565b604051630ea5613f60e01b8152600481018290526000907f00000000000000000000000000000000000000000000000000000000000000006001600160a01b031690630ea5613f9060240160c060405180830381865afa1580156111ce573d6000803e3d6000fd5b505050506040513d601f19601f820116820180604052508101906111f29190611a41565b50505060009485525060016020526040909320805462ffffff909416600160301b0262ffffff60301b19909416939093179092555050565b341561156f5760008061123d8334611ab6565b905080156112cd5760405133908290600081818185875af1925050503d8060008114611285576040519150601f19603f3d011682016040523d82523d6000602084013e61128a565b606091505b505080925050816112cd5760405162461bcd60e51b815260206004820152600d60248201526c1499599d5b990819985a5b1959609a1b6044820152606401610666565b6000806000806000807f00000000000000000000000000000000000000000000000000000000000000006001600160a01b0316638639415b8b8b6040518363ffffffff1660e01b815260040161132d929190918252602082015260400190565b60c060405180830381865afa15801561134a573d6000803e3d6000fd5b505050506040513d601f19601f8201168201806040525081019061136e9190611ac9565b9550955095509550955095506000861115611420576040516001600160a01b038616908790600081818185875af1925050503d80600081146113cc576040519150601f19603f3d011682016040523d82523d6000602084013e6113d1565b606091505b505080985050876114205760405162461bcd60e51b8152602060048201526019602482015278105c9d08109b1bd8dadcc81c185e5b595b9d0819985a5b1959603a1b6044820152606401610666565b83156114bf576040516001600160a01b038416908590600081818185875af1925050503d806000811461146f576040519150601f19603f3d011682016040523d82523d6000602084013e611474565b606091505b505080985050876114bf5760405162461bcd60e51b8152602060048201526015602482015274105c9d1a5cdd081c185e5b595b9d0819985a5b1959605a1b6044820152606401610666565b8115611566576040516001600160a01b038216908390600081818185875af1925050503d806000811461150e576040519150601f19603f3d011682016040523d82523d6000602084013e611513565b606091505b505080985050876115665760405162461bcd60e51b815260206004820152601f60248201527f4164646974696f6e616c205061796565207061796d656e74206661696c6564006044820152606401610666565b50505050505050505b5050565b600081815b848110156115b6576115a28287878481811061159657611596611b32565b905060200201356115d7565b9150806115ae81611b48565b915050611578565b50949350505050565b6000826115cd868685611573565b1495945050505050565b60008183106115f3576000828152602084905260409020611602565b60008381526020839052604090205b90505b92915050565b6001600160a01b038116811461162057600080fd5b50565b60008083601f84011261163557600080fd5b5081356001600160401b0381111561164c57600080fd5b6020830191508360208260051b850101111561166757600080fd5b9250929050565b60008060008060006080868803121561168657600080fd5b85356116918161160b565b94506020860135935060408601356001600160401b038111156116b357600080fd5b6116bf88828901611623565b90945092505060608601356116d38161160b565b809150509295509295909350565b6000806000604084860312156116f657600080fd5b8335925060208401356001600160401b0381111561171357600080fd5b61171f86828701611623565b9497909650939450505050565b60006020828403121561173e57600080fd5b5035919050565b60008060006040848603121561175a57600080fd5b83356001600160401b0381111561177057600080fd5b61177c86828701611623565b90945092505060208401356117908161160b565b809150509250925092565b600080600080606085870312156117b157600080fd5b84356117bc8161160b565b93506020850135925060408501356001600160401b038111156117de57600080fd5b6117ea87828801611623565b95989497509550505050565b60006020828403121561180857600080fd5b81356118138161160b565b9392505050565b6000806040838503121561182d57600080fd5b82359150602083013561183f8161160b565b809150509250929050565b6000806040838503121561185d57600080fd5b50508035926020909101359150565b6000806000806060858703121561188257600080fd5b8435935060208501356001600160401b0381111561189f57600080fd5b6118ab87828801611623565b90945092505060408501356118bf8161160b565b939692955090935050565b6000815180845260005b818110156118f0576020818501810151868301820152016118d4565b506000602082860101526020601f19601f83011685010191505092915050565b841515815283602082015260806040820152600061193160808301856118ca565b905060018060a01b038316606083015295945050505050565b6000806040838503121561195d57600080fd5b82356119688161160b565b946020939093013593505050565b6000806040838503121561198957600080fd5b82359150602083013562ffffff8116811461183f57600080fd5b60208152600061160260208301846118ca565b805180151581146119c657600080fd5b919050565b6000602082840312156119dd57600080fd5b611602826119b6565b6000602082840312156119f857600080fd5b5051919050565b600060208284031215611a1157600080fd5b81516118138161160b565b6020808252600b908201526a13db9b1e48105c9d1a5cdd60aa1b604082015260600190565b60008060008060008060c08789031215611a5a57600080fd5b8651955060208701519450611a71604088016119b6565b9350611a7f606088016119b6565b925060808701519150611a9460a088016119b6565b90509295509295509295565b634e487b7160e01b600052601160045260246000fd5b8181038181111561160557611605611aa0565b60008060008060008060c08789031215611ae257600080fd5b865195506020870151611af48161160b565b604088015160608901519196509450611b0c8161160b565b608088015160a08901519194509250611b248161160b565b809150509295509295509295565b634e487b7160e01b600052603260045260246000fd5b600060018201611b5a57611b5a611aa0565b506001019056fea2646970667358221220f1b9ca317edd60494eb68f5a9d4a886f46392b577fba389cc98821fc5b9b006c64736f6c63430008110033",
  "linkReferences": {},
  "deployedLinkReferences": {}
}