{
  "_format": "hh-sol-artifact-1",
  "contractName": "MinterDAExpRefundV0",
  "sourceName": "contracts/minter-suite/Minters/MinterDAExpRefund/MinterDAExpRefundV0.sol",
  "abi": [
    {
      "inputs": [
        {
          "internalType": "address",
          "name": "_genArt721Address",
          "type": "address"
        },
        {
          "internalType": "address",
          "name": "_minterFilter",
          "type": "address"
        }
      ],
      "stateMutability": "nonpayable",
      "type": "constructor"
    },
    {
      "anonymous": false,
      "inputs": [
        {
          "indexed": true,
          "internalType": "uint256",
          "name": "_projectId",
          "type": "uint256"
        }
      ],
      "name": "ArtistAndAdminRevenuesWithdrawn",
      "type": "event"
    },
    {
      "anonymous": false,
      "inputs": [
        {
          "indexed": false,
          "internalType": "uint256",
          "name": "_minimumPriceDecayHalfLifeSeconds",
          "type": "uint256"
        },
        {
          "indexed": false,
          "internalType": "uint256",
          "name": "_maximumPriceDecayHalfLifeSeconds",
          "type": "uint256"
        }
      ],
      "name": "AuctionHalfLifeRangeSecondsUpdated",
      "type": "event"
    },
    {
      "anonymous": false,
      "inputs": [
        {
          "indexed": true,
          "internalType": "uint256",
          "name": "_projectId",
          "type": "uint256"
        },
        {
          "indexed": false,
          "internalType": "bytes32",
          "name": "_key",
          "type": "bytes32"
        }
      ],
      "name": "ConfigKeyRemoved",
      "type": "event"
    },
    {
      "anonymous": false,
      "inputs": [
        {
          "indexed": true,
          "internalType": "uint256",
          "name": "_projectId",
          "type": "uint256"
        },
        {
          "indexed": false,
          "internalType": "bytes32",
          "name": "_key",
          "type": "bytes32"
        },
        {
          "indexed": false,
          "internalType": "uint256",
          "name": "_value",
          "type": "uint256"
        }
      ],
      "name": "ConfigValueAddedToSet",
      "type": "event"
    },
    {
      "anonymous": false,
      "inputs": [
        {
          "indexed": true,
          "internalType": "uint256",
          "name": "_projectId",
          "type": "uint256"
        },
        {
          "indexed": false,
          "internalType": "bytes32",
          "name": "_key",
          "type": "bytes32"
        },
        {
          "indexed": false,
          "internalType": "address",
          "name": "_value",
          "type": "address"
        }
      ],
      "name": "ConfigValueAddedToSet",
      "type": "event"
    },
    {
      "anonymous": false,
      "inputs": [
        {
          "indexed": true,
          "internalType": "uint256",
          "name": "_projectId",
          "type": "uint256"
        },
        {
          "indexed": false,
          "internalType": "bytes32",
          "name": "_key",
          "type": "bytes32"
        },
        {
          "indexed": false,
          "internalType": "bytes32",
          "name": "_value",
          "type": "bytes32"
        }
      ],
      "name": "ConfigValueAddedToSet",
      "type": "event"
    },
    {
      "anonymous": false,
      "inputs": [
        {
          "indexed": true,
          "internalType": "uint256",
          "name": "_projectId",
          "type": "uint256"
        },
        {
          "indexed": false,
          "internalType": "bytes32",
          "name": "_key",
          "type": "bytes32"
        },
        {
          "indexed": false,
          "internalType": "uint256",
          "name": "_value",
          "type": "uint256"
        }
      ],
      "name": "ConfigValueRemovedFromSet",
      "type": "event"
    },
    {
      "anonymous": false,
      "inputs": [
        {
          "indexed": true,
          "internalType": "uint256",
          "name": "_projectId",
          "type": "uint256"
        },
        {
          "indexed": false,
          "internalType": "bytes32",
          "name": "_key",
          "type": "bytes32"
        },
        {
          "indexed": false,
          "internalType": "address",
          "name": "_value",
          "type": "address"
        }
      ],
      "name": "ConfigValueRemovedFromSet",
      "type": "event"
    },
    {
      "anonymous": false,
      "inputs": [
        {
          "indexed": true,
          "internalType": "uint256",
          "name": "_projectId",
          "type": "uint256"
        },
        {
          "indexed": false,
          "internalType": "bytes32",
          "name": "_key",
          "type": "bytes32"
        },
        {
          "indexed": false,
          "internalType": "bytes32",
          "name": "_value",
          "type": "bytes32"
        }
      ],
      "name": "ConfigValueRemovedFromSet",
      "type": "event"
    },
    {
      "anonymous": false,
      "inputs": [
        {
          "indexed": true,
          "internalType": "uint256",
          "name": "_projectId",
          "type": "uint256"
        },
        {
          "indexed": false,
          "internalType": "bytes32",
          "name": "_key",
          "type": "bytes32"
        },
        {
          "indexed": false,
          "internalType": "bool",
          "name": "_value",
          "type": "bool"
        }
      ],
      "name": "ConfigValueSet",
      "type": "event"
    },
    {
      "anonymous": false,
      "inputs": [
        {
          "indexed": true,
          "internalType": "uint256",
          "name": "_projectId",
          "type": "uint256"
        },
        {
          "indexed": false,
          "internalType": "bytes32",
          "name": "_key",
          "type": "bytes32"
        },
        {
          "indexed": false,
          "internalType": "uint256",
          "name": "_value",
          "type": "uint256"
        }
      ],
      "name": "ConfigValueSet",
      "type": "event"
    },
    {
      "anonymous": false,
      "inputs": [
        {
          "indexed": true,
          "internalType": "uint256",
          "name": "_projectId",
          "type": "uint256"
        },
        {
          "indexed": false,
          "internalType": "bytes32",
          "name": "_key",
          "type": "bytes32"
        },
        {
          "indexed": false,
          "internalType": "address",
          "name": "_value",
          "type": "address"
        }
      ],
      "name": "ConfigValueSet",
      "type": "event"
    },
    {
      "anonymous": false,
      "inputs": [
        {
          "indexed": true,
          "internalType": "uint256",
          "name": "_projectId",
          "type": "uint256"
        },
        {
          "indexed": false,
          "internalType": "bytes32",
          "name": "_key",
          "type": "bytes32"
        },
        {
          "indexed": false,
          "internalType": "bytes32",
          "name": "_value",
          "type": "bytes32"
        }
      ],
      "name": "ConfigValueSet",
      "type": "event"
    },
    {
      "anonymous": false,
      "inputs": [
        {
          "indexed": true,
          "internalType": "uint256",
          "name": "_projectId",
          "type": "uint256"
        },
        {
          "indexed": true,
          "internalType": "uint256",
          "name": "_pricePerTokenInWei",
          "type": "uint256"
        }
      ],
      "name": "PricePerTokenInWeiUpdated",
      "type": "event"
    },
    {
      "anonymous": false,
      "inputs": [
        {
          "indexed": true,
          "internalType": "uint256",
          "name": "_projectId",
          "type": "uint256"
        },
        {
          "indexed": true,
          "internalType": "address",
          "name": "_currencyAddress",
          "type": "address"
        },
        {
          "indexed": false,
          "internalType": "string",
          "name": "_currencySymbol",
          "type": "string"
        }
      ],
      "name": "ProjectCurrencyInfoUpdated",
      "type": "event"
    },
    {
      "anonymous": false,
      "inputs": [
        {
          "indexed": true,
          "internalType": "uint256",
          "name": "_projectId",
          "type": "uint256"
        },
        {
          "indexed": false,
          "internalType": "bool",
          "name": "_purchaseToDisabled",
          "type": "bool"
        }
      ],
      "name": "PurchaseToDisabledUpdated",
      "type": "event"
    },
    {
      "anonymous": false,
      "inputs": [
        {
          "indexed": true,
          "internalType": "address",
          "name": "_purchaser",
          "type": "address"
        },
        {
          "indexed": true,
          "internalType": "uint256",
          "name": "_projectId",
          "type": "uint256"
        },
        {
          "indexed": false,
          "internalType": "uint256",
          "name": "_netPaid",
          "type": "uint256"
        },
        {
          "indexed": false,
          "internalType": "uint256",
          "name": "_numPurchased",
          "type": "uint256"
        }
      ],
      "name": "ReceiptUpdated",
      "type": "event"
    },
    {
      "anonymous": false,
      "inputs": [
        {
          "indexed": true,
          "internalType": "uint256",
          "name": "projectId",
          "type": "uint256"
        },
        {
          "indexed": false,
          "internalType": "uint256",
          "name": "numPurchases",
          "type": "uint256"
        },
        {
          "indexed": false,
          "internalType": "uint256",
          "name": "latestPurchasePrice",
          "type": "uint256"
        }
      ],
      "name": "ResetAuctionDetails",
      "type": "event"
    },
    {
      "anonymous": false,
      "inputs": [
        {
          "indexed": true,
          "internalType": "uint256",
          "name": "_projectId",
          "type": "uint256"
        },
        {
          "indexed": false,
          "internalType": "uint256",
          "name": "_selloutPrice",
          "type": "uint256"
        }
      ],
      "name": "SelloutPriceUpdated",
      "type": "event"
    },
    {
      "anonymous": false,
      "inputs": [
        {
          "indexed": true,
          "internalType": "uint256",
          "name": "projectId",
          "type": "uint256"
        },
        {
          "indexed": false,
          "internalType": "uint256",
          "name": "_auctionTimestampStart",
          "type": "uint256"
        },
        {
          "indexed": false,
          "internalType": "uint256",
          "name": "_priceDecayHalfLifeSeconds",
          "type": "uint256"
        },
        {
          "indexed": false,
          "internalType": "uint256",
          "name": "_startPrice",
          "type": "uint256"
        },
        {
          "indexed": false,
          "internalType": "uint256",
          "name": "_basePrice",
          "type": "uint256"
        }
      ],
      "name": "SetAuctionDetails",
      "type": "event"
    },
    {
      "inputs": [
        {
          "internalType": "uint256",
          "name": "_projectId",
          "type": "uint256"
        },
        {
          "internalType": "uint256",
          "name": "_newSelloutPrice",
          "type": "uint256"
        }
      ],
      "name": "adminEmergencyReduceSelloutPrice",
      "outputs": [],
      "stateMutability": "nonpayable",
      "type": "function"
    },
    {
      "inputs": [
        {
          "internalType": "uint256",
          "name": "_projectId",
          "type": "uint256"
        }
      ],
      "name": "claimRefund",
      "outputs": [],
      "stateMutability": "nonpayable",
      "type": "function"
    },
    {
      "inputs": [
        {
          "internalType": "address payable",
          "name": "_to",
          "type": "address"
        },
        {
          "internalType": "uint256",
          "name": "_projectId",
          "type": "uint256"
        }
      ],
      "name": "claimRefundTo",
      "outputs": [],
      "stateMutability": "nonpayable",
      "type": "function"
    },
    {
      "inputs": [
        {
          "internalType": "uint256[]",
          "name": "_projectIds",
          "type": "uint256[]"
        }
      ],
      "name": "claimRefunds",
      "outputs": [],
      "stateMutability": "nonpayable",
      "type": "function"
    },
    {
      "inputs": [
        {
          "internalType": "address payable",
          "name": "_to",
          "type": "address"
        },
        {
          "internalType": "uint256[]",
          "name": "_projectIds",
          "type": "uint256[]"
        }
      ],
      "name": "claimRefundsTo",
      "outputs": [],
      "stateMutability": "nonpayable",
      "type": "function"
    },
    {
      "inputs": [],
      "name": "genArt721CoreAddress",
      "outputs": [
        {
          "internalType": "address",
          "name": "",
          "type": "address"
        }
      ],
      "stateMutability": "view",
      "type": "function"
    },
    {
      "inputs": [
        {
          "internalType": "uint256",
          "name": "_projectId",
          "type": "uint256"
        }
      ],
      "name": "getPriceInfo",
      "outputs": [
        {
          "internalType": "bool",
          "name": "isConfigured",
          "type": "bool"
        },
        {
          "internalType": "uint256",
          "name": "tokenPriceInWei",
          "type": "uint256"
        },
        {
          "internalType": "string",
          "name": "currencySymbol",
          "type": "string"
        },
        {
          "internalType": "address",
          "name": "currencyAddress",
          "type": "address"
        }
      ],
      "stateMutability": "view",
      "type": "function"
    },
    {
      "inputs": [],
      "name": "maximumPriceDecayHalfLifeSeconds",
      "outputs": [
        {
          "internalType": "uint256",
          "name": "",
          "type": "uint256"
        }
      ],
      "stateMutability": "view",
      "type": "function"
    },
    {
      "inputs": [],
      "name": "minimumPriceDecayHalfLifeSeconds",
      "outputs": [
        {
          "internalType": "uint256",
          "name": "",
          "type": "uint256"
        }
      ],
      "stateMutability": "view",
      "type": "function"
    },
    {
      "inputs": [],
      "name": "minterFilterAddress",
      "outputs": [
        {
          "internalType": "address",
          "name": "",
          "type": "address"
        }
      ],
      "stateMutability": "view",
      "type": "function"
    },
    {
      "inputs": [],
      "name": "minterType",
      "outputs": [
        {
          "internalType": "string",
          "name": "",
          "type": "string"
        }
      ],
      "stateMutability": "view",
      "type": "function"
    },
    {
      "inputs": [
        {
          "internalType": "uint256",
          "name": "_projectId",
          "type": "uint256"
        }
      ],
      "name": "projectAuctionParameters",
      "outputs": [
        {
          "internalType": "uint256",
          "name": "timestampStart",
          "type": "uint256"
        },
        {
          "internalType": "uint256",
          "name": "priceDecayHalfLifeSeconds",
          "type": "uint256"
        },
        {
          "internalType": "uint256",
          "name": "startPrice",
          "type": "uint256"
        },
        {
          "internalType": "uint256",
          "name": "basePrice",
          "type": "uint256"
        }
      ],
      "stateMutability": "view",
      "type": "function"
    },
    {
      "inputs": [
        {
          "internalType": "uint256",
          "name": "",
          "type": "uint256"
        }
      ],
      "name": "projectConfig",
      "outputs": [
        {
          "internalType": "bool",
          "name": "maxHasBeenInvoked",
          "type": "bool"
        },
        {
          "internalType": "bool",
          "name": "auctionRevenuesCollected",
          "type": "bool"
        },
        {
          "internalType": "uint24",
          "name": "numRefundableInvocations",
          "type": "uint24"
        },
        {
          "internalType": "uint64",
          "name": "timestampStart",
          "type": "uint64"
        },
        {
          "internalType": "uint64",
          "name": "priceDecayHalfLifeSeconds",
          "type": "uint64"
        },
        {
          "internalType": "uint256",
          "name": "startPrice",
          "type": "uint256"
        },
        {
          "internalType": "uint256",
          "name": "basePrice",
          "type": "uint256"
        },
        {
          "internalType": "uint256",
          "name": "latestPurchasePrice",
          "type": "uint256"
        }
      ],
      "stateMutability": "view",
      "type": "function"
    },
    {
      "inputs": [
        {
          "internalType": "uint256",
          "name": "_projectId",
          "type": "uint256"
        }
      ],
      "name": "projectMaxHasBeenInvoked",
      "outputs": [
        {
          "internalType": "bool",
          "name": "",
          "type": "bool"
        }
      ],
      "stateMutability": "view",
      "type": "function"
    },
    {
      "inputs": [
        {
          "internalType": "uint256",
          "name": "_projectId",
          "type": "uint256"
        }
      ],
      "name": "purchase",
      "outputs": [
        {
          "internalType": "uint256",
          "name": "tokenId",
          "type": "uint256"
        }
      ],
      "stateMutability": "payable",
      "type": "function"
    },
    {
      "inputs": [
        {
          "internalType": "address",
          "name": "_to",
          "type": "address"
        },
        {
          "internalType": "uint256",
          "name": "_projectId",
          "type": "uint256"
        }
      ],
      "name": "purchaseTo",
      "outputs": [
        {
          "internalType": "uint256",
          "name": "tokenId",
          "type": "uint256"
        }
      ],
      "stateMutability": "payable",
      "type": "function"
    },
    {
      "inputs": [
        {
          "internalType": "address",
          "name": "_to",
          "type": "address"
        },
        {
          "internalType": "uint256",
          "name": "_projectId",
          "type": "uint256"
        }
      ],
      "name": "purchaseTo_do6",
      "outputs": [
        {
          "internalType": "uint256",
          "name": "tokenId",
          "type": "uint256"
        }
      ],
      "stateMutability": "payable",
      "type": "function"
    },
    {
      "inputs": [
        {
          "internalType": "uint256",
          "name": "_projectId",
          "type": "uint256"
        }
      ],
      "name": "purchase_H4M",
      "outputs": [
        {
          "internalType": "uint256",
          "name": "tokenId",
          "type": "uint256"
        }
      ],
      "stateMutability": "payable",
      "type": "function"
    },
    {
      "inputs": [
        {
          "internalType": "uint256",
          "name": "_projectId",
          "type": "uint256"
        }
      ],
      "name": "resetAuctionDetails",
      "outputs": [],
      "stateMutability": "nonpayable",
      "type": "function"
    },
    {
      "inputs": [
        {
          "internalType": "uint256",
          "name": "_minimumPriceDecayHalfLifeSeconds",
          "type": "uint256"
        },
        {
          "internalType": "uint256",
          "name": "_maximumPriceDecayHalfLifeSeconds",
          "type": "uint256"
        }
      ],
      "name": "setAllowablePriceDecayHalfLifeRangeSeconds",
      "outputs": [],
      "stateMutability": "nonpayable",
      "type": "function"
    },
    {
      "inputs": [
        {
          "internalType": "uint256",
          "name": "_projectId",
          "type": "uint256"
        },
        {
          "internalType": "uint256",
          "name": "_auctionTimestampStart",
          "type": "uint256"
        },
        {
          "internalType": "uint256",
          "name": "_priceDecayHalfLifeSeconds",
          "type": "uint256"
        },
        {
          "internalType": "uint256",
          "name": "_startPrice",
          "type": "uint256"
        },
        {
          "internalType": "uint256",
          "name": "_basePrice",
          "type": "uint256"
        }
      ],
      "name": "setAuctionDetails",
      "outputs": [],
      "stateMutability": "nonpayable",
      "type": "function"
    },
    {
      "inputs": [
        {
          "internalType": "uint256",
          "name": "",
          "type": "uint256"
        }
      ],
      "name": "setProjectMaxInvocations",
      "outputs": [],
      "stateMutability": "pure",
      "type": "function"
    },
    {
      "inputs": [
        {
          "internalType": "uint256",
          "name": "_projectId",
          "type": "uint256"
        }
      ],
      "name": "togglePurchaseToDisabled",
      "outputs": [],
      "stateMutability": "view",
      "type": "function"
    },
    {
      "inputs": [
        {
          "internalType": "uint256",
          "name": "_projectId",
          "type": "uint256"
        }
      ],
      "name": "withdrawArtistAndAdminRevenues",
      "outputs": [],
      "stateMutability": "nonpayable",
      "type": "function"
    }
  ],
  "bytecode": "0x61010060405261012c600255610e106003553480156200001e57600080fd5b506040516200287238038062002872833981016040819052620000419162000153565b600160009081556001600160a01b03808416608081905260a081905290831660c081905260e0819052604080516392a10f8360e01b81529051929391926392a10f83926004808401936020939290839003909101908290875af1158015620000ad573d6000803e3d6000fd5b505050506040513d601f19601f82011682018060405250810190620000d391906200018b565b6001600160a01b0316146200012e5760405162461bcd60e51b815260206004820152601860248201527f496c6c6567616c20636f6e74726163742070616972696e670000000000000000604482015260640160405180910390fd5b5050620001b0565b80516001600160a01b03811681146200014e57600080fd5b919050565b600080604083850312156200016757600080fd5b620001728362000136565b9150620001826020840162000136565b90509250929050565b6000602082840312156200019e57600080fd5b620001a98262000136565b9392505050565b60805160a05160c05160e05161265062000222600039600061071f015260006104b50152600081816107b00152818161091401528181610abc01528181610bbe0152818161122e015281816113e501528181611489015281816116a60152611cb9015260006102e801526126506000f3fe6080604052600436106101175760003560e01c806199871461011c578061b460146101425780632aedc28e146101555780632f077ee61461017757806340d1397e146101dd578063462add46146101fd57806358d581061461023d5780635b7baf641461025d5780635bc1470f1461027d578063774159c614610293578063891407c0146102c357806392a10f83146102d657806393307a1f14610322578063a5d0812214610342578063c0ad212e14610362578063c71b1b7114610382578063c7a4f53d1461044d578063cd379f6e1461046d578063cf6681ea1461048d578063dd85582f146104a3578063e1798739146104d7578063e9d1e8ac146104f7578063efef39a114610142578063f7bd4b8814610543575b600080fd5b61012f61012a366004611fd3565b610563565b6040519081526020015b60405180910390f35b61012f610150366004611fff565b6108e2565b34801561016157600080fd5b50610175610170366004611fff565b6108f4565b005b34801561018357600080fd5b506101cd610192366004611fff565b60009081526001602081905260409091208054918101546002909101546001600160401b03600160281b8404811694600160681b9094041692565b6040516101399493929190612018565b3480156101e957600080fd5b506101756101f8366004611fff565b610aa4565b34801561020957600080fd5b5061022d610218366004611fff565b60009081526001602052604090205460ff1690565b6040519015158152602001610139565b34801561024957600080fd5b50610175610258366004612033565b610b9e565b34801561026957600080fd5b50610175610278366004611fff565b610e29565b34801561028957600080fd5b5061012f60035481565b34801561029f57600080fd5b506102b36102ae366004611fff565b610e36565b604051610139949392919061209b565b61012f6102d1366004611fd3565b610ec4565b3480156102e257600080fd5b5061030a7f000000000000000000000000000000000000000000000000000000000000000081565b6040516001600160a01b039091168152602001610139565b34801561032e57600080fd5b5061017561033d3660046120eb565b610ed7565b34801561034e57600080fd5b5061017561035d366004611fd3565b611093565b34801561036e57600080fd5b5061017561037d366004612033565b61120e565b34801561038e57600080fd5b506103fc61039d366004611fff565b6001602081905260009182526040909120805491810154600282015460039092015460ff8085169461010081049091169362ffffff62010000830416936001600160401b03600160281b8404811694600160681b909404169290919088565b604080519815158952961515602089015262ffffff909516958701959095526001600160401b0392831660608701529116608085015260a084015260c083019190915260e082015261010001610139565b34801561045957600080fd5b50610175610468366004611fff565b6113c4565b34801561047957600080fd5b506101756104883660046121bd565b61168e565b34801561049957600080fd5b5061012f60025481565b3480156104af57600080fd5b5061030a7f000000000000000000000000000000000000000000000000000000000000000081565b3480156104e357600080fd5b506101756104f23660046121f8565b611a9f565b34801561050357600080fd5b506105366040518060400160405280601381526020017204d696e7465724441457870526566756e64563606c1b81525081565b604051610139919061226c565b34801561054f57600080fd5b5061017561055e366004611fff565b611ae0565b60006002600054036105905760405162461bcd60e51b81526004016105879061227f565b60405180910390fd5b60026000908155828152600160205260409020805460ff16156106035760405162461bcd60e51b815260206004820152602560248201527f4d6178696d756d206e756d626572206f6620696e766f636174696f6e732072656044820152641858da195960da1b6064820152608401610587565b600061060e84611b5c565b33600090815260046020908152604080832088845290915281208054929350913491839161063d9084906122cc565b9091555050600181018054906000610654836122df565b919050555081816001015461066991906122f8565b815410156106b95760405162461bcd60e51b815260206004820152601f60248201527f4d7573742073656e64206d696e696d756d2076616c756520746f206d696e74006044820152606401610587565b60018101548154604080519283526020830191909152869133916000805160206125fb833981519152910160405180910390a360038301829055604051630d4d151360e01b81526001600160a01b038781166004830152602482018790523360448301527f00000000000000000000000000000000000000000000000000000000000000001690630d4d1513906064016020604051808303816000875af1158015610768573d6000803e3d6000fd5b505050506040513d601f19601f8201168201806040525081019061078c919061230f565b604051630ea5613f60e01b8152600481018790529094506000906001600160a01b037f00000000000000000000000000000000000000000000000000000000000000001690630ea5613f9060240160c060405180830381865afa1580156107f7573d6000803e3d6000fd5b505050506040513d601f19601f8201168201806040525081019061081b919061233d565b509294505060001984019250620f42409150879050060361087e57835460ff1916600117845560405186907f6e257f2b2266f72d4bd28a2e64b0cfc245c9a1c28ec2dc591f8052f77f969c95906108759086815260200190565b60405180910390a25b8354610100900460ff161561089c576108978684611ca6565b6108d3565b835462010000900462ffffff168460026108b5836123b2565b91906101000a81548162ffffff021916908362ffffff160217905550505b50505050600160005592915050565b60006108ee3383610563565b92915050565b60405163230448b160e01b8152631576e14760e11b906001600160a01b037f0000000000000000000000000000000000000000000000000000000000000000169063230448b19061094d903390309086906004016123d4565b6020604051808303816000875af115801561096c573d6000803e3d6000fd5b505050506040513d601f19601f820116820180604052508101906109909190612401565b6109ac5760405162461bcd60e51b81526004016105879061241c565b6000828152600160208190526040822090810154909103610a0c5760405162461bcd60e51b815260206004820152601a602482015279105d58dd1a5bdb881b5d5cdd0818994818dbdb999a59dd5c995960321b6044820152606401610587565b8054610100900460ff1615610a335760405162461bcd60e51b815260040161058790612450565b8054600160281b600160a81b03191680825560006001830181905560028301556003820154604080516201000090930462ffffff168352602083019190915284917f28cd2e5a54afa08469ca157e482b97c3de9efbc4c48cea254864df050677145a910160405180910390a2505050565b60405163a47d29cb60e01b81526004810182905281907f00000000000000000000000000000000000000000000000000000000000000006001600160a01b03169063a47d29cb90602401602060405180830381865afa158015610b0b573d6000803e3d6000fd5b505050506040513d601f19601f82011682018060405250810190610b2f9190612487565b6001600160a01b0316336001600160a01b031614610b5f5760405162461bcd60e51b8152600401610587906124a4565b60405162461bcd60e51b81526020600482015260146024820152731058dd1a5bdb881b9bdd081cdd5c1c1bdc9d195960621b6044820152606401610587565b60405163230448b160e01b8152632c6ac08360e11b906001600160a01b037f0000000000000000000000000000000000000000000000000000000000000000169063230448b190610bf7903390309086906004016123d4565b6020604051808303816000875af1158015610c16573d6000803e3d6000fd5b505050506040513d601f19601f82011682018060405250810190610c3a9190612401565b610c565760405162461bcd60e51b81526004016105879061241c565b6000838152600160205260409020805460ff16610cb05760405162461bcd60e51b815260206004820152601860248201527741756374696f6e206d75737420626520636f6d706c65746560401b6044820152606401610587565b80600301548310610d035760405162461bcd60e51b815260206004820152601d60248201527f4d6179206f6e6c79207265647563652073656c6c6f75742070726963650000006044820152606401610587565b8060020154831015610d765760405162461bcd60e51b815260206004820152603660248201527f4d6179206f6e6c79207265647563652073656c6c6f757420707269636520746f604482015275103130b9b290383934b1b29037b91033b932b0ba32b960511b6064820152608401610587565b60008311610dc05760405162461bcd60e51b815260206004820152601760248201527604f6e6c792073656c6c6f757420707269636573203e203604c1b6044820152606401610587565b8054610100900460ff1615610de75760405162461bcd60e51b815260040161058790612450565b6003810183905560405183815284907f6e257f2b2266f72d4bd28a2e64b0cfc245c9a1c28ec2dc591f8052f77f969c959060200160405180910390a250505050565b610e333382611093565b50565b600081815260016020819052604082209081015481549015159291606091839190600160281b90046001600160401b03164211610e795780600101549350610e9a565b8060010154600003610e8e5760009350610e9a565b610e9786611b5c565b93505b6040518060400160405280600381526020016208aa8960eb1b815250925060009150509193509193565b6000610ed08383610563565b9392505050565b600260005403610ef95760405162461bcd60e51b81526004016105879061227f565b60026000556001600160a01b038216610f245760405162461bcd60e51b8152600401610587906124c9565b8051600090815b81811015611011576000848281518110610f4757610f47612500565b602090810291909101810151600081815260018084526040808320338452600486528184208585529095529091209081015491935090610f995760405162461bcd60e51b815260040161058790612516565b60038201546001820154600090610fb19083906122f8565b8354909150610fc1908290612557565b610fcb90896122cc565b81845560018401546040805191825260208201849052919950869133916000805160206125fb833981519152910160405180910390a38560010195505050505050610f2b565b506000846001600160a01b03168360405160006040518083038185875af1925050503d806000811461105f576040519150601f19603f3d011682016040523d82523d6000602084013e611064565b606091505b505080915050806110875760405162461bcd60e51b81526004016105879061256a565b50506001600055505050565b6002600054036110b55760405162461bcd60e51b81526004016105879061227f565b60026000908155818152600160209081526040808320338452600483528184208585529092529091206001600160a01b0384166111045760405162461bcd60e51b8152600401610587906124c9565b60008160010154116111285760405162461bcd60e51b815260040161058790612516565b600382015460018201546000906111409083906122f8565b905060008184600001546111549190612557565b82855560018501546040805191825260208201859052919250879133916000805160206125fb833981519152910160405180910390a36000876001600160a01b03168260405160006040518083038185875af1925050503d80600081146111d7576040519150601f19603f3d011682016040523d82523d6000602084013e6111dc565b606091505b505080915050806111ff5760405162461bcd60e51b81526004016105879061256a565b50506001600055505050505050565b60405163230448b160e01b8152636056909760e11b906001600160a01b037f0000000000000000000000000000000000000000000000000000000000000000169063230448b190611267903390309086906004016123d4565b6020604051808303816000875af1158015611286573d6000803e3d6000fd5b505050506040513d601f19601f820116820180604052508101906112aa9190612401565b6112c65760405162461bcd60e51b81526004016105879061241c565b82821161132c5760405162461bcd60e51b815260206004820152602e60248201527f4d6178696d756d2068616c66206c696665206d7573742062652067726561746560448201526d72207468616e206d696e696d756d60901b6064820152608401610587565b6000831161137c5760405162461bcd60e51b815260206004820152601d60248201527f48616c66206c696665206f66207a65726f206e6f7420616c6c6f7765640000006044820152606401610587565b6002839055600382905560408051848152602081018490527f1d5d9c9b660aace5432c6c7412456d0ad1b5ff4c6ea156a8c551ba93555ed73f910160405180910390a1505050565b60405163a47d29cb60e01b815260048101829052819063c7a4f53d60e01b907f00000000000000000000000000000000000000000000000000000000000000006001600160a01b03169063a47d29cb90602401602060405180830381865afa158015611434573d6000803e3d6000fd5b505050506040513d601f19601f820116820180604052508101906114589190612487565b6001600160a01b0316336001600160a01b03161480611505575060405163230448b160e01b81526001600160a01b037f0000000000000000000000000000000000000000000000000000000000000000169063230448b1906114c2903390309086906004016123d4565b6020604051808303816000875af11580156114e1573d6000803e3d6000fd5b505050506040513d601f19601f820116820180604052508101906115059190612401565b61154c5760405162461bcd60e51b815260206004820152601860248201527713db9b1e48105c9d1a5cdd081bdc8810591b5a5b881050d360421b6044820152606401610587565b60008381526001602052604090208054610100900460ff16156115ae5760405162461bcd60e51b815260206004820152601a60248201527914995d995b9d595cc8185b1c9958591e4818dbdb1b1958dd195960321b6044820152606401610587565b60006115b985611b5c565b90508160020154811461161c57815460ff166116175760405162461bcd60e51b815260206004820152601f60248201527f4163746976652061756374696f6e206e6f742079657420736f6c64206f7574006044820152606401610587565b611627565b600282015460038301555b815461ff0019166101001780835560009061164f90839062ffffff62010000909104166122f8565b905061165b8682611ca6565b60405186907f110a44b77609d30f9b80fa9add8c3e18ba02555b3546acf2b0318a3d3229c5a790600090a2505050505050565b60405163a47d29cb60e01b81526004810186905285907f00000000000000000000000000000000000000000000000000000000000000006001600160a01b03169063a47d29cb90602401602060405180830381865afa1580156116f5573d6000803e3d6000fd5b505050506040513d601f19601f820116820180604052508101906117199190612487565b6001600160a01b0316336001600160a01b0316146117495760405162461bcd60e51b8152600401610587906124a4565b60008681526001602052604090208054600160281b90046001600160401b0316158061178557508054600160281b90046001600160401b031642105b6117d05760405162461bcd60e51b815260206004820152601c60248201527b27379036b7b234b334b1b0ba34b7b7399036b4b216b0bab1ba34b7b760211b6044820152606401610587565b8542106118165760405162461bcd60e51b81526020600482015260146024820152734f6e6c79206675747572652061756374696f6e7360601b6044820152606401610587565b8284116118885760405162461bcd60e51b815260206004820152603a60248201527f41756374696f6e207374617274207072696365206d7573742062652067726561604482015279746572207468616e2061756374696f6e20656e6420707269636560301b6064820152608401610587565b600083116118d65760405162461bcd60e51b815260206004820152601b60248201527a42617365207072696365206d757374206265206e6f6e2d7a65726f60281b6044820152606401610587565b600381015415806118eb575080600301548411155b6119545760405162461bcd60e51b815260206004820152603460248201527f41756374696f6e207374617274207072696365206d757374206265203c3d206c604482015273617465737420707572636861736520707269636560601b6064820152608401610587565b600254851015801561196857506003548511155b6119e85760405162461bcd60e51b8152602060048201526044602482018190527f50726963652064656361792068616c66206c696665206d7573742066616c6c20908201527f6265747765656e206d696e20616e64206d617820616c6c6f7761626c652076616064820152636c75657360e01b608482015260a401610587565b6119f186611f52565b81546001600160401b0391909116600160281b0267ffffffffffffffff60281b19909116178155611a2185611f52565b81546001600160401b0391909116600160681b0267ffffffffffffffff60681b19909116178155600181018490556002810183905560405187907f38b3058b75696f9e45bffa9c4b237adcde13d74c7bc1bea63e13c712d0776c7490611a8e908990899089908990612018565b60405180910390a250505050505050565b611adc33838380806020026020016040519081016040528093929190818152602001838360200280828437600092019190915250610ed792505050565b5050565b60405162461bcd60e51b8152602060048201526044602482018190527f73657450726f6a6563744d6178496e766f636174696f6e73206e6f7420696d70908201527f6c656d656e746564202d207570646174656420647572696e67206576657279206064820152631b5a5b9d60e21b608482015260a401610587565b6000818152600160205260408120805460ff1615611b7e576003015492915050565b805460028201546001600160401b03600160281b8304811692600160681b90041690428310611be95760405162461bcd60e51b8152602060048201526017602482015276105d58dd1a5bdb881b9bdd081e595d081cdd185c9d1959604a1b6044820152606401610587565b60008211611c345760405162461bcd60e51b81526020600482015260186024820152774f6e6c7920636f6e666967757265642061756374696f6e7360401b6044820152606401610587565b600184015442849003838181611c4c57611c4c61239c565b0482901c9150600284858381611c6457611c6461239c565b06840281611c7457611c7461239c565b0481611c8257611c8261239c565b048203915082821015611c9b5750909695505050505050565b509695505050505050565b8015611adc5760008060008060008060007f00000000000000000000000000000000000000000000000000000000000000006001600160a01b0316638639415b8a8a6040518363ffffffff1660e01b8152600401611d0e929190918252602082015260400190565b60c060405180830381865afa158015611d2b573d6000803e3d6000fd5b505050506040513d601f19601f82011682018060405250810190611d4f9190612591565b9550955095509550955095506000861115611e01576040516001600160a01b038616908790600081818185875af1925050503d8060008114611dad576040519150601f19603f3d011682016040523d82523d6000602084013e611db2565b606091505b50508097505086611e015760405162461bcd60e51b8152602060048201526019602482015278105c9d08109b1bd8dadcc81c185e5b595b9d0819985a5b1959603a1b6044820152606401610587565b8315611ea0576040516001600160a01b038416908590600081818185875af1925050503d8060008114611e50576040519150601f19603f3d011682016040523d82523d6000602084013e611e55565b606091505b50508097505086611ea05760405162461bcd60e51b8152602060048201526015602482015274105c9d1a5cdd081c185e5b595b9d0819985a5b1959605a1b6044820152606401610587565b8115611f47576040516001600160a01b038216908390600081818185875af1925050503d8060008114611eef576040519150601f19603f3d011682016040523d82523d6000602084013e611ef4565b606091505b50508097505086611f475760405162461bcd60e51b815260206004820152601f60248201527f4164646974696f6e616c205061796565207061796d656e74206661696c6564006044820152606401610587565b505050505050505050565b60006001600160401b03821115611fba5760405162461bcd60e51b815260206004820152602660248201527f53616665436173743a2076616c756520646f65736e27742066697420696e203660448201526534206269747360d01b6064820152608401610587565b5090565b6001600160a01b0381168114610e3357600080fd5b60008060408385031215611fe657600080fd5b8235611ff181611fbe565b946020939093013593505050565b60006020828403121561201157600080fd5b5035919050565b93845260208401929092526040830152606082015260800190565b6000806040838503121561204657600080fd5b50508035926020909101359150565b6000815180845260005b8181101561207b5760208185018101518683018201520161205f565b506000602082860101526020601f19601f83011685010191505092915050565b84151581528360208201526080604082015260006120bc6080830185612055565b905060018060a01b038316606083015295945050505050565b634e487b7160e01b600052604160045260246000fd5b600080604083850312156120fe57600080fd5b823561210981611fbe565b91506020838101356001600160401b038082111561212657600080fd5b818601915086601f83011261213a57600080fd5b81358181111561214c5761214c6120d5565b8060051b604051601f19603f83011681018181108582111715612171576121716120d5565b60405291825284820192508381018501918983111561218f57600080fd5b938501935b828510156121ad57843584529385019392850192612194565b8096505050505050509250929050565b600080600080600060a086880312156121d557600080fd5b505083359560208501359550604085013594606081013594506080013592509050565b6000806020838503121561220b57600080fd5b82356001600160401b038082111561222257600080fd5b818501915085601f83011261223657600080fd5b81358181111561224557600080fd5b8660208260051b850101111561225a57600080fd5b60209290920196919550909350505050565b602081526000610ed06020830184612055565b6020808252601f908201527f5265656e7472616e637947756172643a207265656e7472616e742063616c6c00604082015260600190565b634e487b7160e01b600052601160045260246000fd5b808201808211156108ee576108ee6122b6565b6000600182016122f1576122f16122b6565b5060010190565b80820281158282048414176108ee576108ee6122b6565b60006020828403121561232157600080fd5b5051919050565b8051801515811461233857600080fd5b919050565b60008060008060008060c0878903121561235657600080fd5b865195506020870151945061236d60408801612328565b935061237b60608801612328565b92506080870151915061239060a08801612328565b90509295509295509295565b634e487b7160e01b600052601260045260246000fd5b600062ffffff8083168181036123ca576123ca6122b6565b6001019392505050565b6001600160a01b0393841681529190921660208201526001600160e01b0319909116604082015260600190565b60006020828403121561241357600080fd5b610ed082612328565b6020808252601a908201527913db9b1e4810dbdc994810591b5a5b9050d308185b1b1bddd95960321b604082015260600190565b6020808252601e908201527f4f6e6c79206265666f726520726576656e75657320636f6c6c65637465640000604082015260600190565b60006020828403121561249957600080fd5b8151610ed081611fbe565b6020808252600b908201526a13db9b1e48105c9d1a5cdd60aa1b604082015260600190565b6020808252601d908201527f4e6f20726566756e6420746f20746865207a65726f2061646472657373000000604082015260600190565b634e487b7160e01b600052603260045260246000fd5b60208082526021908201527f4e6f20707572636861736573206d6164652062792074686973206164647265736040820152607360f81b606082015260800190565b818103818111156108ee576108ee6122b6565b6020808252600d908201526c1499599d5b990819985a5b1959609a1b604082015260600190565b60008060008060008060c087890312156125aa57600080fd5b8651955060208701516125bc81611fbe565b6040880151606089015191965094506125d481611fbe565b608088015160a089015191945092506125ec81611fbe565b80915050929550929550929556fe88bc1bf6777e1eaef8a0583c526f6963c9183af9ee82015f9a28f55b9115ea71a2646970667358221220ce3f7628d0684103a9d73457caf3879937965c7fe4bcb031242645218d743ddc64736f6c63430008110033",
  "linkReferences": {},
  "deployedLinkReferences": {}
}