{
  "_format": "hh-sol-artifact-1",
  "contractName": "MinterFilter",
  "sourceName": "contracts/minter-suite/MinterFilter.sol",
  "abi": [
    {
      "inputs": [
        {
          "internalType": "address",
          "name": "_genArt721Address",
          "type": "address"
        }
      ],
      "stateMutability": "nonpayable",
      "type": "constructor"
    },
    {
      "anonymous": false,
      "inputs": [
        {
          "indexed": true,
          "internalType": "address",
          "name": "_minterAddress",
          "type": "address"
        },
        {
          "indexed": true,
          "internalType": "string",
          "name": "_minterType",
          "type": "string"
        }
      ],
      "name": "MinterApproved",
      "type": "event"
    },
    {
      "anonymous": false,
      "inputs": [
        {
          "indexed": true,
          "internalType": "address",
          "name": "_minterAddress",
          "type": "address"
        }
      ],
      "name": "MinterRevoked",
      "type": "event"
    },
    {
      "anonymous": false,
      "inputs": [
        {
          "indexed": true,
          "internalType": "uint256",
          "name": "_projectId",
          "type": "uint256"
        },
        {
          "indexed": true,
          "internalType": "address",
          "name": "_minterAddress",
          "type": "address"
        },
        {
          "indexed": true,
          "internalType": "string",
          "name": "_minterType",
          "type": "string"
        }
      ],
      "name": "ProjectMinterRegistered",
      "type": "event"
    },
    {
      "anonymous": false,
      "inputs": [
        {
          "indexed": true,
          "internalType": "uint256",
          "name": "_projectId",
          "type": "uint256"
        }
      ],
      "name": "ProjectMinterRemoved",
      "type": "event"
    },
    {
      "inputs": [
        {
          "internalType": "address",
          "name": "_minterAddress",
          "type": "address"
        }
      ],
      "name": "addApprovedMinter",
      "outputs": [],
      "stateMutability": "nonpayable",
      "type": "function"
    },
    {
      "inputs": [],
      "name": "artblocksContract",
      "outputs": [
        {
          "internalType": "contract IGenArt721CoreContract",
          "name": "",
          "type": "address"
        }
      ],
      "stateMutability": "view",
      "type": "function"
    },
    {
      "inputs": [
        {
          "internalType": "uint256",
          "name": "_projectId",
          "type": "uint256"
        }
      ],
      "name": "getMinterForProject",
      "outputs": [
        {
          "internalType": "address",
          "name": "",
          "type": "address"
        }
      ],
      "stateMutability": "view",
      "type": "function"
    },
    {
      "inputs": [],
      "name": "getNumProjectsWithMinters",
      "outputs": [
        {
          "internalType": "uint256",
          "name": "",
          "type": "uint256"
        }
      ],
      "stateMutability": "view",
      "type": "function"
    },
    {
      "inputs": [
        {
          "internalType": "uint256",
          "name": "_index",
          "type": "uint256"
        }
      ],
      "name": "getProjectAndMinterInfoAt",
      "outputs": [
        {
          "internalType": "uint256",
          "name": "projectId",
          "type": "uint256"
        },
        {
          "internalType": "address",
          "name": "minterAddress",
          "type": "address"
        },
        {
          "internalType": "string",
          "name": "minterType",
          "type": "string"
        }
      ],
      "stateMutability": "view",
      "type": "function"
    },
    {
      "inputs": [
        {
          "internalType": "address",
          "name": "",
          "type": "address"
        }
      ],
      "name": "isApprovedMinter",
      "outputs": [
        {
          "internalType": "bool",
          "name": "",
          "type": "bool"
        }
      ],
      "stateMutability": "view",
      "type": "function"
    },
    {
      "inputs": [
        {
          "internalType": "address",
          "name": "_to",
          "type": "address"
        },
        {
          "internalType": "uint256",
          "name": "_projectId",
          "type": "uint256"
        },
        {
          "internalType": "address",
          "name": "sender",
          "type": "address"
        }
      ],
      "name": "mint",
      "outputs": [
        {
          "internalType": "uint256",
          "name": "_tokenId",
          "type": "uint256"
        }
      ],
      "stateMutability": "nonpayable",
      "type": "function"
    },
    {
      "inputs": [
        {
          "internalType": "address",
          "name": "",
          "type": "address"
        }
      ],
      "name": "numProjectsUsingMinter",
      "outputs": [
        {
          "internalType": "uint256",
          "name": "",
          "type": "uint256"
        }
      ],
      "stateMutability": "view",
      "type": "function"
    },
    {
      "inputs": [
        {
          "internalType": "uint256",
          "name": "_projectId",
          "type": "uint256"
        }
      ],
      "name": "projectHasMinter",
      "outputs": [
        {
          "internalType": "bool",
          "name": "",
          "type": "bool"
        }
      ],
      "stateMutability": "view",
      "type": "function"
    },
    {
      "inputs": [
        {
          "internalType": "address",
          "name": "_minterAddress",
          "type": "address"
        }
      ],
      "name": "removeApprovedMinter",
      "outputs": [],
      "stateMutability": "nonpayable",
      "type": "function"
    },
    {
      "inputs": [
        {
          "internalType": "uint256",
          "name": "_projectId",
          "type": "uint256"
        }
      ],
      "name": "removeMinterForProject",
      "outputs": [],
      "stateMutability": "nonpayable",
      "type": "function"
    },
    {
      "inputs": [
        {
          "internalType": "uint256[]",
          "name": "_projectIds",
          "type": "uint256[]"
        }
      ],
      "name": "removeMintersForProjects",
      "outputs": [],
      "stateMutability": "nonpayable",
      "type": "function"
    },
    {
      "inputs": [
        {
          "internalType": "uint256",
          "name": "_projectId",
          "type": "uint256"
        },
        {
          "internalType": "address",
          "name": "_minterAddress",
          "type": "address"
        }
      ],
      "name": "setMinterForProject",
      "outputs": [],
      "stateMutability": "nonpayable",
      "type": "function"
    }
  ],
  "bytecode": "0x608060405234801561001057600080fd5b5060405161152038038061152083398101604081905261002f91610054565b600080546001600160a01b0319166001600160a01b0392909216919091179055610084565b60006020828403121561006657600080fd5b81516001600160a01b038116811461007d57600080fd5b9392505050565b61148d806100936000396000f3fe608060405234801561001057600080fd5b50600436106100bf5760003560e01c8063b34c5c841161007c578063b34c5c841461017a578063bcc0fdf11461018d578063bee4d106146101a0578063c47d50f5146101b3578063e7300db9146101c6578063faf0d745146101e8578063ff2505f0146101fb57600080fd5b80630d4d1513146100c45780630dcd404b146100ea57806326df17b51461010a5780633a3d146f1461012a578063718284221461015d578063a409177e14610165575b600080fd5b6100d76100d2366004611089565b61020e565b6040519081526020015b60405180910390f35b6000546100fd906001600160a01b031681565b6040516100e191906110cb565b6100d76101183660046110df565b60046020526000908152604090205481565b61014d6101383660046110df565b60056020526000908152604090205460ff1681565b60405190151581526020016100e1565b6100d761030f565b6101786101733660046110fc565b610320565b005b610178610188366004611171565b610401565b6100fd61019b366004611171565b610541565b6101786101ae3660046110df565b61059d565b61014d6101c1366004611171565b610715565b6101d96101d4366004611171565b61072b565b6040516100e1939291906111b6565b6101786101f63660046111ff565b6107c0565b6101786102093660046110df565b610b6b565b600061021b600184610cac565b6001600160a01b0316336001600160a01b0316146102775760405162461bcd60e51b815260206004820152601460248201527327b7363c9030b9b9b4b3b732b21036b4b73a32b960611b60448201526064015b60405180910390fd5b60008054604051630d4d151360e01b81526001600160a01b03878116600483015260248201879052858116604483015290911690630d4d151390606401602060405180830381600087803b1580156102ce57600080fd5b505af11580156102e2573d6000803e3d6000fd5b505050506040513d601f19601f82011682018060405250810190610306919061122f565b95945050505050565b600061031b6001610cc1565b905090565b600054604051633af32abf60e01b81526001600160a01b0390911690633af32abf906103509033906004016110cb565b60206040518083038186803b15801561036857600080fd5b505afa15801561037c573d6000803e3d6000fd5b505050506040513d601f19601f820116820180604052508101906103a09190611248565b6103bc5760405162461bcd60e51b815260040161026e9061126a565b8060005b818110156103fb576103e98484838181106103dd576103dd611299565b90506020020135610ccc565b806103f3816112c5565b9150506103c0565b50505050565b600054604051633af32abf60e01b815282916001600160a01b031690633af32abf906104319033906004016110cb565b60206040518083038186803b15801561044957600080fd5b505afa15801561045d573d6000803e3d6000fd5b505050506040513d601f19601f820116820180604052508101906104819190611248565b80610518575060005460405163a47d29cb60e01b8152600481018390526001600160a01b039091169063a47d29cb9060240160206040518083038186803b1580156104cb57600080fd5b505afa1580156104df573d6000803e3d6000fd5b505050506040513d601f19601f8201168201806040525081019061050391906112e0565b6001600160a01b0316336001600160a01b0316145b6105345760405162461bcd60e51b815260040161026e906112fd565b61053d82610ccc565b5050565b60008080610550600185610d42565b91509150816105965760405162461bcd60e51b8152602060048201526012602482015271139bc81b5a5b9d195c88185cdcda59db995960721b604482015260640161026e565b9392505050565b600054604051633af32abf60e01b81526001600160a01b0390911690633af32abf906105cd9033906004016110cb565b60206040518083038186803b1580156105e557600080fd5b505afa1580156105f9573d6000803e3d6000fd5b505050506040513d601f19601f8201168201806040525081019061061d9190611248565b6106395760405162461bcd60e51b815260040161026e9061126a565b6001600160a01b038116600081815260056020526040808220805460ff191660011790558051633a747a2b60e21b8152905163e9d1e8ac92600480840193919291829003018186803b15801561068e57600080fd5b505afa1580156106a2573d6000803e3d6000fd5b505050506040513d6000823e601f3d908101601f191682016040526106ca919081019061134a565b6040516106d791906113f7565b604051908190038120906001600160a01b038316907f1ac09d1079d96f19b763467642c3c3b4e36b56222414f4a4a50f26c7011147bb90600090a350565b600080610723600184610d42565b509392505050565b600080606061073b600185610d60565b8093508194505050816001600160a01b031663e9d1e8ac6040518163ffffffff1660e01b815260040160006040518083038186803b15801561077c57600080fd5b505afa158015610790573d6000803e3d6000fd5b505050506040513d6000823e601f3d908101601f191682016040526107b8919081019061134a565b929491935050565b600054604051633af32abf60e01b815283916001600160a01b031690633af32abf906107f09033906004016110cb565b60206040518083038186803b15801561080857600080fd5b505afa15801561081c573d6000803e3d6000fd5b505050506040513d601f19601f820116820180604052508101906108409190611248565b806108d7575060005460405163a47d29cb60e01b8152600481018390526001600160a01b039091169063a47d29cb9060240160206040518083038186803b15801561088a57600080fd5b505afa15801561089e573d6000803e3d6000fd5b505050506040513d601f19601f820116820180604052508101906108c291906112e0565b6001600160a01b0316336001600160a01b0316145b6108f35760405162461bcd60e51b815260040161026e906112fd565b6001600160a01b038216600090815260056020526040902054829060ff166109675760405162461bcd60e51b815260206004820152602160248201527f4f6e6c7920617070726f766564206d696e746572732061726520616c6c6f77656044820152601960fa1b606482015260840161026e565b6000546040805163e935b7b160e01b8152905186926001600160a01b03169163e935b7b1916004808301926020929190829003018186803b1580156109ab57600080fd5b505afa1580156109bf573d6000803e3d6000fd5b505050506040513d601f19601f820116820180604052508101906109e3919061122f565b8110610a2a5760405162461bcd60e51b81526020600482015260166024820152754f6e6c79206578697374696e672070726f6a6563747360501b604482015260640161026e565b600080610a38600188610d42565b915091508115610a6c576001600160a01b0381166000908152600460205260408120805491610a6683611413565b91905055505b6001600160a01b0386166000908152600460205260408120805491610a90836112c5565b90915550610aa2905060018888610d6f565b50856001600160a01b031663e9d1e8ac6040518163ffffffff1660e01b815260040160006040518083038186803b158015610adc57600080fd5b505afa158015610af0573d6000803e3d6000fd5b505050506040513d6000823e601f3d908101601f19168201604052610b18919081019061134a565b604051610b2591906113f7565b604051908190038120906001600160a01b0388169089907f21fd9bfc68d8bc4b740ebf996aa9c255d1e6bb474f81dc2ad577d5d3c5a5e1e090600090a450505050505050565b600054604051633af32abf60e01b81526001600160a01b0390911690633af32abf90610b9b9033906004016110cb565b60206040518083038186803b158015610bb357600080fd5b505afa158015610bc7573d6000803e3d6000fd5b505050506040513d601f19601f82011682018060405250810190610beb9190611248565b610c075760405162461bcd60e51b815260040161026e9061126a565b6001600160a01b03811660009081526004602052604090205415610c635760405162461bcd60e51b81526020600482015260136024820152724f6e6c7920756e75736564206d696e7465727360681b604482015260640161026e565b6001600160a01b038116600081815260056020526040808220805460ff19169055517f44f4322f8daa225d5f4877ad0f7d3dfba248a774396f3ca99405ed40a044fe819190a250565b6000610cb88383610d8d565b90505b92915050565b6000610cbb82610dfd565b60046000610cdb600184610cac565b6001600160a01b0316815260208101919091526040016000908120805491610d0283611413565b90915550610d139050600182610e08565b5060405181907f15267d34078ead35bc0303f6cdd08f99b837bdfcd7fab97fca4c58f3d85d760590600090a250565b6000808080610d518686610e14565b909450925050505b9250929050565b6000808080610d518686610e4e565b6000610d8584846001600160a01b038516610e79565b949350505050565b600081815260028301602052604081205480151580610db15750610db18484610e96565b610cb85760405162461bcd60e51b815260206004820152601e60248201527f456e756d657261626c654d61703a206e6f6e6578697374656e74206b65790000604482015260640161026e565b6000610cbb82610ea2565b6000610cb88383610eac565b6000818152600283016020526040812054819080610e4357610e368585610e96565b925060009150610d599050565b600192509050610d59565b60008080610e5c8585610ec9565b600081815260029690960160205260409095205494959350505050565b60008281526002840160205260408120829055610d858484610ed5565b6000610cb88383610ee1565b6000610cbb825490565b60008181526002830160205260408120819055610cb88383610ef9565b6000610cb88383610f05565b6000610cb88383610f2f565b60008181526001830160205260408120541515610cb8565b6000610cb88383610f7e565b6000826000018281548110610f1c57610f1c611299565b9060005260206000200154905092915050565b6000818152600183016020526040812054610f7657508154600181810184556000848152602080822090930184905584548482528286019093526040902091909155610cbb565b506000610cbb565b60008181526001830160205260408120548015611067576000610fa260018361142a565b8554909150600090610fb69060019061142a565b905081811461101b576000866000018281548110610fd657610fd6611299565b9060005260206000200154905080876000018481548110610ff957610ff9611299565b6000918252602080832090910192909255918252600188019052604090208390555b855486908061102c5761102c611441565b600190038181906000526020600020016000905590558560010160008681526020019081526020016000206000905560019350505050610cbb565b6000915050610cbb565b6001600160a01b038116811461108657600080fd5b50565b60008060006060848603121561109e57600080fd5b83356110a981611071565b92506020840135915060408401356110c081611071565b809150509250925092565b6001600160a01b0391909116815260200190565b6000602082840312156110f157600080fd5b8135610cb881611071565b6000806020838503121561110f57600080fd5b823567ffffffffffffffff8082111561112757600080fd5b818501915085601f83011261113b57600080fd5b81358181111561114a57600080fd5b8660208260051b850101111561115f57600080fd5b60209290920196919550909350505050565b60006020828403121561118357600080fd5b5035919050565b60005b838110156111a557818101518382015260200161118d565b838111156103fb5750506000910152565b83815260018060a01b038316602082015260606040820152600082518060608401526111e981608085016020870161118a565b601f01601f191691909101608001949350505050565b6000806040838503121561121257600080fd5b82359150602083013561122481611071565b809150509250929050565b60006020828403121561124157600080fd5b5051919050565b60006020828403121561125a57600080fd5b81518015158114610cb857600080fd5b60208082526015908201527413db9b1e4810dbdc99481dda1a5d195b1a5cdd1959605a1b604082015260600190565b634e487b7160e01b600052603260045260246000fd5b634e487b7160e01b600052601160045260246000fd5b60006000198214156112d9576112d96112af565b5060010190565b6000602082840312156112f257600080fd5b8151610cb881611071565b6020808252601f908201527f4f6e6c7920436f72652077686974656c6973746564206f722041727469737400604082015260600190565b634e487b7160e01b600052604160045260246000fd5b60006020828403121561135c57600080fd5b815167ffffffffffffffff8082111561137457600080fd5b818401915084601f83011261138857600080fd5b81518181111561139a5761139a611334565b604051601f8201601f19908116603f011681019083821181831017156113c2576113c2611334565b816040528281528760208487010111156113db57600080fd5b6113ec83602083016020880161118a565b979650505050505050565b6000825161140981846020870161118a565b9190910192915050565b600081611422576114226112af565b506000190190565b60008282101561143c5761143c6112af565b500390565b634e487b7160e01b600052603160045260246000fdfea26469706673582212200fd4a25b2748d0925dad9a66003aaae6504dfb958d91b380872ca0b4167bd76764736f6c63430008090033",
  "linkReferences": {},
  "deployedLinkReferences": {}
}