{
  "_format": "hh-sol-artifact-1",
  "contractName": "MinterMerkleV0",
  "sourceName": "contracts/minter-suite/Minters/MinterMerkle/MinterMerkleV0.sol",
  "abi": [
    {
      "inputs": [
        {
          "internalType": "address",
          "name": "_genArt721Address",
          "type": "address"
        },
        {
          "internalType": "address",
          "name": "_minterFilter",
          "type": "address"
        }
      ],
      "stateMutability": "nonpayable",
      "type": "constructor"
    },
    {
      "anonymous": false,
      "inputs": [
        {
          "indexed": true,
          "internalType": "uint256",
          "name": "_projectId",
          "type": "uint256"
        },
        {
          "indexed": false,
          "internalType": "bytes32",
          "name": "_key",
          "type": "bytes32"
        }
      ],
      "name": "ConfigKeyRemoved",
      "type": "event"
    },
    {
      "anonymous": false,
      "inputs": [
        {
          "indexed": true,
          "internalType": "uint256",
          "name": "_projectId",
          "type": "uint256"
        },
        {
          "indexed": false,
          "internalType": "bytes32",
          "name": "_key",
          "type": "bytes32"
        },
        {
          "indexed": false,
          "internalType": "uint256",
          "name": "_value",
          "type": "uint256"
        }
      ],
      "name": "ConfigValueAddedToSet",
      "type": "event"
    },
    {
      "anonymous": false,
      "inputs": [
        {
          "indexed": true,
          "internalType": "uint256",
          "name": "_projectId",
          "type": "uint256"
        },
        {
          "indexed": false,
          "internalType": "bytes32",
          "name": "_key",
          "type": "bytes32"
        },
        {
          "indexed": false,
          "internalType": "address",
          "name": "_value",
          "type": "address"
        }
      ],
      "name": "ConfigValueAddedToSet",
      "type": "event"
    },
    {
      "anonymous": false,
      "inputs": [
        {
          "indexed": true,
          "internalType": "uint256",
          "name": "_projectId",
          "type": "uint256"
        },
        {
          "indexed": false,
          "internalType": "bytes32",
          "name": "_key",
          "type": "bytes32"
        },
        {
          "indexed": false,
          "internalType": "bytes32",
          "name": "_value",
          "type": "bytes32"
        }
      ],
      "name": "ConfigValueAddedToSet",
      "type": "event"
    },
    {
      "anonymous": false,
      "inputs": [
        {
          "indexed": true,
          "internalType": "uint256",
          "name": "_projectId",
          "type": "uint256"
        },
        {
          "indexed": false,
          "internalType": "bytes32",
          "name": "_key",
          "type": "bytes32"
        },
        {
          "indexed": false,
          "internalType": "uint256",
          "name": "_value",
          "type": "uint256"
        }
      ],
      "name": "ConfigValueRemovedFromSet",
      "type": "event"
    },
    {
      "anonymous": false,
      "inputs": [
        {
          "indexed": true,
          "internalType": "uint256",
          "name": "_projectId",
          "type": "uint256"
        },
        {
          "indexed": false,
          "internalType": "bytes32",
          "name": "_key",
          "type": "bytes32"
        },
        {
          "indexed": false,
          "internalType": "address",
          "name": "_value",
          "type": "address"
        }
      ],
      "name": "ConfigValueRemovedFromSet",
      "type": "event"
    },
    {
      "anonymous": false,
      "inputs": [
        {
          "indexed": true,
          "internalType": "uint256",
          "name": "_projectId",
          "type": "uint256"
        },
        {
          "indexed": false,
          "internalType": "bytes32",
          "name": "_key",
          "type": "bytes32"
        },
        {
          "indexed": false,
          "internalType": "bytes32",
          "name": "_value",
          "type": "bytes32"
        }
      ],
      "name": "ConfigValueRemovedFromSet",
      "type": "event"
    },
    {
      "anonymous": false,
      "inputs": [
        {
          "indexed": true,
          "internalType": "uint256",
          "name": "_projectId",
          "type": "uint256"
        },
        {
          "indexed": false,
          "internalType": "bytes32",
          "name": "_key",
          "type": "bytes32"
        },
        {
          "indexed": false,
          "internalType": "bool",
          "name": "_value",
          "type": "bool"
        }
      ],
      "name": "ConfigValueSet",
      "type": "event"
    },
    {
      "anonymous": false,
      "inputs": [
        {
          "indexed": true,
          "internalType": "uint256",
          "name": "_projectId",
          "type": "uint256"
        },
        {
          "indexed": false,
          "internalType": "bytes32",
          "name": "_key",
          "type": "bytes32"
        },
        {
          "indexed": false,
          "internalType": "uint256",
          "name": "_value",
          "type": "uint256"
        }
      ],
      "name": "ConfigValueSet",
      "type": "event"
    },
    {
      "anonymous": false,
      "inputs": [
        {
          "indexed": true,
          "internalType": "uint256",
          "name": "_projectId",
          "type": "uint256"
        },
        {
          "indexed": false,
          "internalType": "bytes32",
          "name": "_key",
          "type": "bytes32"
        },
        {
          "indexed": false,
          "internalType": "address",
          "name": "_value",
          "type": "address"
        }
      ],
      "name": "ConfigValueSet",
      "type": "event"
    },
    {
      "anonymous": false,
      "inputs": [
        {
          "indexed": true,
          "internalType": "uint256",
          "name": "_projectId",
          "type": "uint256"
        },
        {
          "indexed": false,
          "internalType": "bytes32",
          "name": "_key",
          "type": "bytes32"
        },
        {
          "indexed": false,
          "internalType": "bytes32",
          "name": "_value",
          "type": "bytes32"
        }
      ],
      "name": "ConfigValueSet",
      "type": "event"
    },
    {
      "anonymous": false,
      "inputs": [
        {
          "indexed": true,
          "internalType": "uint256",
          "name": "_projectId",
          "type": "uint256"
        },
        {
          "indexed": true,
          "internalType": "uint256",
          "name": "_pricePerTokenInWei",
          "type": "uint256"
        }
      ],
      "name": "PricePerTokenInWeiUpdated",
      "type": "event"
    },
    {
      "anonymous": false,
      "inputs": [
        {
          "indexed": true,
          "internalType": "uint256",
          "name": "_projectId",
          "type": "uint256"
        },
        {
          "indexed": true,
          "internalType": "address",
          "name": "_currencyAddress",
          "type": "address"
        },
        {
          "indexed": false,
          "internalType": "string",
          "name": "_currencySymbol",
          "type": "string"
        }
      ],
      "name": "ProjectCurrencyInfoUpdated",
      "type": "event"
    },
    {
      "anonymous": false,
      "inputs": [
        {
          "indexed": true,
          "internalType": "uint256",
          "name": "_projectId",
          "type": "uint256"
        },
        {
          "indexed": false,
          "internalType": "bool",
          "name": "_purchaseToDisabled",
          "type": "bool"
        }
      ],
      "name": "PurchaseToDisabledUpdated",
      "type": "event"
    },
    {
      "inputs": [],
      "name": "DEFAULT_MAX_INVOCATIONS_PER_ADDRESS",
      "outputs": [
        {
          "internalType": "uint256",
          "name": "",
          "type": "uint256"
        }
      ],
      "stateMutability": "view",
      "type": "function"
    },
    {
      "inputs": [],
      "name": "genArt721CoreAddress",
      "outputs": [
        {
          "internalType": "address",
          "name": "",
          "type": "address"
        }
      ],
      "stateMutability": "view",
      "type": "function"
    },
    {
      "inputs": [
        {
          "internalType": "uint256",
          "name": "_projectId",
          "type": "uint256"
        }
      ],
      "name": "getPriceInfo",
      "outputs": [
        {
          "internalType": "bool",
          "name": "isConfigured",
          "type": "bool"
        },
        {
          "internalType": "uint256",
          "name": "tokenPriceInWei",
          "type": "uint256"
        },
        {
          "internalType": "string",
          "name": "currencySymbol",
          "type": "string"
        },
        {
          "internalType": "address",
          "name": "currencyAddress",
          "type": "address"
        }
      ],
      "stateMutability": "view",
      "type": "function"
    },
    {
      "inputs": [
        {
          "internalType": "address",
          "name": "_address",
          "type": "address"
        }
      ],
      "name": "hashAddress",
      "outputs": [
        {
          "internalType": "bytes32",
          "name": "",
          "type": "bytes32"
        }
      ],
      "stateMutability": "pure",
      "type": "function"
    },
    {
      "inputs": [],
      "name": "minterFilterAddress",
      "outputs": [
        {
          "internalType": "address",
          "name": "",
          "type": "address"
        }
      ],
      "stateMutability": "view",
      "type": "function"
    },
    {
      "inputs": [],
      "name": "minterType",
      "outputs": [
        {
          "internalType": "string",
          "name": "",
          "type": "string"
        }
      ],
      "stateMutability": "view",
      "type": "function"
    },
    {
      "inputs": [
        {
          "internalType": "bytes32[]",
          "name": "_proof",
          "type": "bytes32[]"
        },
        {
          "internalType": "address",
          "name": "_address",
          "type": "address"
        }
      ],
      "name": "processProofForAddress",
      "outputs": [
        {
          "internalType": "bytes32",
          "name": "",
          "type": "bytes32"
        }
      ],
      "stateMutability": "pure",
      "type": "function"
    },
    {
      "inputs": [
        {
          "internalType": "uint256",
          "name": "",
          "type": "uint256"
        }
      ],
      "name": "projectMaxHasBeenInvoked",
      "outputs": [
        {
          "internalType": "bool",
          "name": "",
          "type": "bool"
        }
      ],
      "stateMutability": "view",
      "type": "function"
    },
    {
      "inputs": [
        {
          "internalType": "uint256",
          "name": "",
          "type": "uint256"
        }
      ],
      "name": "projectMaxInvocations",
      "outputs": [
        {
          "internalType": "uint256",
          "name": "",
          "type": "uint256"
        }
      ],
      "stateMutability": "view",
      "type": "function"
    },
    {
      "inputs": [
        {
          "internalType": "uint256",
          "name": "_projectId",
          "type": "uint256"
        }
      ],
      "name": "projectMaxInvocationsPerAddress",
      "outputs": [
        {
          "internalType": "uint256",
          "name": "",
          "type": "uint256"
        }
      ],
      "stateMutability": "view",
      "type": "function"
    },
    {
      "inputs": [
        {
          "internalType": "uint256",
          "name": "",
          "type": "uint256"
        }
      ],
      "name": "projectMaxInvocationsPerAddressOverride",
      "outputs": [
        {
          "internalType": "uint256",
          "name": "",
          "type": "uint256"
        }
      ],
      "stateMutability": "view",
      "type": "function"
    },
    {
      "inputs": [
        {
          "internalType": "uint256",
          "name": "",
          "type": "uint256"
        }
      ],
      "name": "projectMerkleRoot",
      "outputs": [
        {
          "internalType": "bytes32",
          "name": "",
          "type": "bytes32"
        }
      ],
      "stateMutability": "view",
      "type": "function"
    },
    {
      "inputs": [
        {
          "internalType": "uint256",
          "name": "",
          "type": "uint256"
        }
      ],
      "name": "projectUseMaxInvocationsPerAddressOverride",
      "outputs": [
        {
          "internalType": "bool",
          "name": "",
          "type": "bool"
        }
      ],
      "stateMutability": "view",
      "type": "function"
    },
    {
      "inputs": [
        {
          "internalType": "uint256",
          "name": "",
          "type": "uint256"
        },
        {
          "internalType": "address",
          "name": "",
          "type": "address"
        }
      ],
      "name": "projectUserInvocations",
      "outputs": [
        {
          "internalType": "uint256",
          "name": "",
          "type": "uint256"
        }
      ],
      "stateMutability": "view",
      "type": "function"
    },
    {
      "inputs": [
        {
          "internalType": "uint256",
          "name": "_projectId",
          "type": "uint256"
        },
        {
          "internalType": "bytes32[]",
          "name": "_proof",
          "type": "bytes32[]"
        }
      ],
      "name": "purchase",
      "outputs": [
        {
          "internalType": "uint256",
          "name": "tokenId",
          "type": "uint256"
        }
      ],
      "stateMutability": "payable",
      "type": "function"
    },
    {
      "inputs": [
        {
          "internalType": "uint256",
          "name": "",
          "type": "uint256"
        }
      ],
      "name": "purchase",
      "outputs": [
        {
          "internalType": "uint256",
          "name": "",
          "type": "uint256"
        }
      ],
      "stateMutability": "payable",
      "type": "function"
    },
    {
      "inputs": [
        {
          "internalType": "address",
          "name": "_to",
          "type": "address"
        },
        {
          "internalType": "uint256",
          "name": "_projectId",
          "type": "uint256"
        },
        {
          "internalType": "bytes32[]",
          "name": "_proof",
          "type": "bytes32[]"
        }
      ],
      "name": "purchaseTo",
      "outputs": [
        {
          "internalType": "uint256",
          "name": "tokenId",
          "type": "uint256"
        }
      ],
      "stateMutability": "payable",
      "type": "function"
    },
    {
      "inputs": [
        {
          "internalType": "address",
          "name": "",
          "type": "address"
        },
        {
          "internalType": "uint256",
          "name": "",
          "type": "uint256"
        }
      ],
      "name": "purchaseTo",
      "outputs": [
        {
          "internalType": "uint256",
          "name": "",
          "type": "uint256"
        }
      ],
      "stateMutability": "payable",
      "type": "function"
    },
    {
      "inputs": [
        {
          "internalType": "uint256",
          "name": "_projectId",
          "type": "uint256"
        },
        {
          "internalType": "uint24",
          "name": "_maxInvocationsPerAddress",
          "type": "uint24"
        }
      ],
      "name": "setProjectInvocationsPerAddress",
      "outputs": [],
      "stateMutability": "nonpayable",
      "type": "function"
    },
    {
      "inputs": [
        {
          "internalType": "uint256",
          "name": "_projectId",
          "type": "uint256"
        }
      ],
      "name": "setProjectMaxInvocations",
      "outputs": [],
      "stateMutability": "nonpayable",
      "type": "function"
    },
    {
      "inputs": [
        {
          "internalType": "uint256",
          "name": "_projectId",
          "type": "uint256"
        }
      ],
      "name": "togglePurchaseToDisabled",
      "outputs": [],
      "stateMutability": "view",
      "type": "function"
    },
    {
      "inputs": [
        {
          "internalType": "uint256",
          "name": "_projectId",
          "type": "uint256"
        },
        {
          "internalType": "bytes32",
          "name": "_root",
          "type": "bytes32"
        }
      ],
      "name": "updateMerkleRoot",
      "outputs": [],
      "stateMutability": "nonpayable",
      "type": "function"
    },
    {
      "inputs": [
        {
          "internalType": "uint256",
          "name": "_projectId",
          "type": "uint256"
        },
        {
          "internalType": "uint256",
          "name": "_pricePerTokenInWei",
          "type": "uint256"
        }
      ],
      "name": "updatePricePerTokenInWei",
      "outputs": [],
      "stateMutability": "nonpayable",
      "type": "function"
    },
    {
      "inputs": [
        {
          "internalType": "uint256",
          "name": "_projectId",
          "type": "uint256"
        },
        {
          "internalType": "bytes32[]",
          "name": "_proof",
          "type": "bytes32[]"
        },
        {
          "internalType": "address",
          "name": "_address",
          "type": "address"
        }
      ],
      "name": "verifyAddress",
      "outputs": [
        {
          "internalType": "bool",
          "name": "",
          "type": "bool"
        }
      ],
      "stateMutability": "view",
      "type": "function"
    }
  ],
  "bytecode": "0x6101006040523480156200001257600080fd5b506040516200203e3803806200203e833981016040819052620000359162000157565b600160009081556001600160a01b03808416608081905260a081905290831660c081905260e0819052604080516392a10f8360e01b81529051929391926392a10f8392600480840193602093929083900390910190829087803b1580156200009c57600080fd5b505af1158015620000b1573d6000803e3d6000fd5b505050506040513d601f19601f82011682018060405250810190620000d791906200018f565b6001600160a01b031614620001325760405162461bcd60e51b815260206004820152601860248201527f496c6c6567616c20636f6e74726163742070616972696e670000000000000000604482015260640160405180910390fd5b5050620001b4565b80516001600160a01b03811681146200015257600080fd5b919050565b600080604083850312156200016b57600080fd5b62000176836200013a565b915062000186602084016200013a565b90509250929050565b600060208284031215620001a257600080fd5b620001ad826200013a565b9392505050565b60805160a05160c05160e051611e036200023b60003960006108200152600061044e01526000818161096901528181610a7201528181610c0601528181610dc201528181610f2701528181611013015281816111d601528181611285015281816113c501528181611480015281816115370152611684015260006103680152611e036000f3fe60806040526004361061011b5760003560e01c806315bed159146101205780631ec2e52314610153578063202c5805146101735780632fe636231461018657806338922dac146101be5780633aa5fe59146101eb57806340d1397e1461020b578063462add461461022d57806356690aaf1461026d5780636cb9b7ff1461029a5780636ede4ade146102ba578063774159c6146102da578063891407c01461034357806392a10f83146103565780639775f86f14610397578063b78713fe146103ac578063cc3352bf146103dc578063d684ec67146103fc578063da7e7c5014610429578063dd85582f1461043c578063e9d1e8ac14610470578063efef39a1146104b7578063f1e33115146104c5578063f7bd4b88146104e5575b600080fd5b34801561012c57600080fd5b5061014061013b3660046117f4565b610505565b6040519081526020015b60405180910390f35b34801561015f57600080fd5b5061014061016e36600461186d565b61053c565b6101406101813660046118c3565b61055b565b34801561019257600080fd5b506101406101a136600461191e565b600860209081526000928352604080842090915290825290205481565b3480156101ca57600080fd5b506101406101d93660046117f4565b60036020526000908152604090205481565b3480156101f757600080fd5b5061014061020636600461194e565b610917565b34801561021757600080fd5b5061022b6102263660046117f4565b610951565b005b34801561023957600080fd5b5061025d6102483660046117f4565b60046020526000908152604090205460ff1681565b604051901515815260200161014a565b34801561027957600080fd5b506101406102883660046117f4565b60056020526000908152604090205481565b3480156102a657600080fd5b5061022b6102b536600461196b565b610a5a565b3480156102c657600080fd5b5061025d6102d536600461198d565b610b79565b3480156102e657600080fd5b506103336102f53660046117f4565b60009081526007602090815260408083205460068352818420548251808401909352600383526208aa8960eb1b9383019390935260ff169391929091565b60405161014a9493929190611a47565b610140610351366004611a81565b610ba7565b34801561036257600080fd5b5061038a7f000000000000000000000000000000000000000000000000000000000000000081565b60405161014a9190611aad565b3480156103a357600080fd5b50610140600181565b3480156103b857600080fd5b5061025d6103c73660046117f4565b60026020526000908152604090205460ff1681565b3480156103e857600080fd5b5061022b6103f7366004611ac1565b610bee565b34801561040857600080fd5b506101406104173660046117f4565b60016020526000908152604090205481565b610140610437366004611aee565b610d9c565b34801561044857600080fd5b5061038a7f000000000000000000000000000000000000000000000000000000000000000081565b34801561047c57600080fd5b506104aa6040518060400160405280600e81526020016d04d696e7465724d65726b6c6556360941b81525081565b60405161014a9190611b39565b6101406103513660046117f4565b3480156104d157600080fd5b5061022b6104e036600461196b565b610daa565b3480156104f157600080fd5b5061022b6105003660046117f4565b610f10565b60008181526002602052604081205460ff161561052f575060009081526003602052604090205490565b506001919050565b919050565b600061055361054a83610917565b859085906110d2565b949350505050565b6000600260005414156105b55760405162461bcd60e51b815260206004820152601f60248201527f5265656e7472616e637947756172643a207265656e7472616e742063616c6c0060448201526064015b60405180910390fd5b600260009081558481526004602052604090205460ff16156106275760405162461bcd60e51b815260206004820152602560248201527f4d6178696d756d206e756d626572206f6620696e766f636174696f6e732072656044820152641858da195960da1b60648201526084016105ac565b6000848152600660205260409020543410156106855760405162461bcd60e51b815260206004820181905260248201527f4d7573742073656e64206d696e696d756d2076616c756520746f206d696e742160448201526064016105ac565b60008481526007602052604090205460ff166106da5760405162461bcd60e51b8152602060048201526014602482015273141c9a58d9481b9bdd0818dbdb999a59dd5c995960621b60448201526064016105ac565b6106e684848433610b79565b6107295760405162461bcd60e51b815260206004820152601460248201527324b73b30b634b21026b2b935b63290383937b7b360611b60448201526064016105ac565b60008481526002602052604081205460ff16610746576001610756565b6000858152600360205260409020545b60008681526008602090815260408083203384529091528120805492935083929161078083611b62565b91905055108061078e575080155b6107f45760405162461bcd60e51b815260206004820152603160248201527f4d6178696d756d206e756d626572206f6620696e766f636174696f6e732070656044820152701c881859191c995cdcc81c995858da1959607a1b60648201526084016105ac565b604051630d4d151360e01b81526001600160a01b038781166004830152602482018790523360448301527f00000000000000000000000000000000000000000000000000000000000000001690630d4d151390606401602060405180830381600087803b15801561086457600080fd5b505af1158015610878573d6000803e3d6000fd5b505050506040513d601f19601f8201168201806040525081019061089c9190611b7d565b600086815260056020526040902054909250158015906108e157506000858152600560205260409020546108d290600190611b96565b6108df620f424084611bc3565b145b15610900576000858152600460205260409020805460ff191660011790555b6109098561111e565b506001600055949350505050565b6040516001600160601b0319606083901b166020820152600090603401604051602081830303815290604052805190602001209050919050565b60405163a47d29cb60e01b81526004810182905281907f00000000000000000000000000000000000000000000000000000000000000006001600160a01b03169063a47d29cb9060240160206040518083038186803b1580156109b357600080fd5b505afa1580156109c7573d6000803e3d6000fd5b505050506040513d601f19601f820116820180604052508101906109eb9190611bd7565b6001600160a01b0316336001600160a01b031614610a1b5760405162461bcd60e51b81526004016105ac90611bf4565b60405162461bcd60e51b81526020600482015260146024820152731058dd1a5bdb881b9bdd081cdd5c1c1bdc9d195960621b60448201526064016105ac565b60405163a47d29cb60e01b81526004810183905282907f00000000000000000000000000000000000000000000000000000000000000006001600160a01b03169063a47d29cb9060240160206040518083038186803b158015610abc57600080fd5b505afa158015610ad0573d6000803e3d6000fd5b505050506040513d601f19601f82011682018060405250810190610af49190611bd7565b6001600160a01b0316336001600160a01b031614610b245760405162461bcd60e51b81526004016105ac90611bf4565b60008381526006602090815260408083208590556007909152808220805460ff1916600117905551839185917f26118a27aca826f829f3bfe21b140b4455c00b434849bd0da50d1e1a9720fb5c9190a3505050565b600084815260016020526040812054610b9e90610b9584610917565b869186916117aa565b95945050505050565b60405162461bcd60e51b815260206004820152601960248201527826bab9ba10383937bb34b2329026b2b935b63290383937b7b360391b60448201526000906064016105ac565b60405163a47d29cb60e01b81526004810183905282907f00000000000000000000000000000000000000000000000000000000000000006001600160a01b03169063a47d29cb9060240160206040518083038186803b158015610c5057600080fd5b505afa158015610c64573d6000803e3d6000fd5b505050506040513d601f19601f82011682018060405250810190610c889190611bd7565b6001600160a01b0316336001600160a01b031614610cb85760405162461bcd60e51b81526004016105ac90611bf4565b6000838152600260209081526040808320805460ff19166001908117909155600383529281902062ffffff861690558051797573654d61784d696e7473506572416464724f7665727269646560301b81529182019290925284917fc594e23b9382359e253cdaba84b0aefe5ad09ccfd5706891673743b37229c2d2910160405180910390a260408051766d61784d696e7473506572416464724f7665727269646560481b815262ffffff8416602082015284917f8a5820ca7148caeda3176e8d60a3bb413b4bcca45922ac2178b1ee191fe320eb91015b60405180910390a2505050565b60006105533385858561055b565b60405163a47d29cb60e01b81526004810183905282907f00000000000000000000000000000000000000000000000000000000000000006001600160a01b03169063a47d29cb9060240160206040518083038186803b158015610e0c57600080fd5b505afa158015610e20573d6000803e3d6000fd5b505050506040513d601f19601f82011682018060405250810190610e449190611bd7565b6001600160a01b0316336001600160a01b031614610e745760405162461bcd60e51b81526004016105ac90611bf4565b81610eb95760405162461bcd60e51b8152602060048201526015602482015274149bdbdd081b5d5cdd081899481c1c9bdd9a591959605a1b60448201526064016105ac565b6000838152600160209081526040918290208490558151691b595c9adb19549bdbdd60b21b815290810184905284917f729c0261c7e3c976b9a392f2bb08064d7a03c82f9f1473ab0ee284c985df08159101610d8f565b604051633af32abf60e01b81526001600160a01b037f00000000000000000000000000000000000000000000000000000000000000001690633af32abf90610f5c903390600401611aad565b60206040518083038186803b158015610f7457600080fd5b505afa158015610f88573d6000803e3d6000fd5b505050506040513d601f19601f82011682018060405250810190610fac9190611c29565b610ff05760405162461bcd60e51b815260206004820152601560248201527413db9b1e4810dbdc99481dda1a5d195b1a5cdd1959605a1b60448201526064016105ac565b6040516346161b1160e11b81526004810182905260009081906001600160a01b037f00000000000000000000000000000000000000000000000000000000000000001690638c2c36229060240160006040518083038186803b15801561105557600080fd5b505afa158015611069573d6000803e3d6000fd5b505050506040513d6000823e601f3d908101601f191682016040526110919190810190611c65565b5050506000898152600560205260409020839055509195509350505050808210156110cd576000838152600460205260409020805460ff191690555b505050565b600081815b8481101561111557611101828787848181106110f5576110f5611d84565b905060200201356117c2565b91508061110d81611b62565b9150506110d7565b50949350505050565b34156117a7576000818152600660205260408120549061113e8234611b96565b905080156111d057604051600090339083908381818185875af1925050503d8060008114611188576040519150601f19603f3d011682016040523d82523d6000602084013e61118d565b606091505b50509050806111ce5760405162461bcd60e51b815260206004820152600d60248201526c1499599d5b990819985a5b1959609a1b60448201526064016105ac565b505b600060647f00000000000000000000000000000000000000000000000000000000000000006001600160a01b0316634f029c396040518163ffffffff1660e01b815260040160206040518083038186803b15801561122d57600080fd5b505afa158015611241573d6000803e3d6000fd5b505050506040513d601f19601f820116820180604052508101906112659190611b7d565b61126f9085611d9a565b6112799190611db9565b905080156113b25760007f00000000000000000000000000000000000000000000000000000000000000006001600160a01b0316633949f9066040518163ffffffff1660e01b815260040160206040518083038186803b1580156112dc57600080fd5b505afa1580156112f0573d6000803e3d6000fd5b505050506040513d601f19601f820116820180604052508101906113149190611bd7565b6001600160a01b03168260405160006040518083038185875af1925050503d806000811461135e576040519150601f19603f3d011682016040523d82523d6000602084013e611363565b606091505b50509050806113b05760405162461bcd60e51b8152602060048201526019602482015278119bdd5b99185d1a5bdb881c185e5b595b9d0819985a5b1959603a1b60448201526064016105ac565b505b60006113be8285611b96565b90506000807f00000000000000000000000000000000000000000000000000000000000000006001600160a01b031663cc74234b886040518263ffffffff1660e01b815260040161141191815260200190565b60206040518083038186803b15801561142957600080fd5b505afa15801561143d573d6000803e3d6000fd5b505050506040513d601f19601f820116820180604052508101906114619190611b7d565b11156116575760405163cc74234b60e01b8152600481018790526064907f00000000000000000000000000000000000000000000000000000000000000006001600160a01b03169063cc74234b9060240160206040518083038186803b1580156114ca57600080fd5b505afa1580156114de573d6000803e3d6000fd5b505050506040513d601f19601f820116820180604052508101906115029190611b7d565b61150c9084611d9a565b6115169190611db9565b9050801561165757604051636bd8225b60e11b8152600481018790526000907f00000000000000000000000000000000000000000000000000000000000000006001600160a01b03169063d7b044b69060240160206040518083038186803b15801561158157600080fd5b505afa158015611595573d6000803e3d6000fd5b505050506040513d601f19601f820116820180604052508101906115b99190611bd7565b6001600160a01b03168260405160006040518083038185875af1925050503d8060008114611603576040519150601f19603f3d011682016040523d82523d6000602084013e611608565b606091505b50509050806116555760405162461bcd60e51b81526020600482015260196024820152781059191a5d1a5bdb985b081c185e5b595b9d0819985a5b1959603a1b60448201526064016105ac565b505b60006116638284611b96565b905080156117a05760405163a47d29cb60e01b8152600481018890526000907f00000000000000000000000000000000000000000000000000000000000000006001600160a01b03169063a47d29cb9060240160206040518083038186803b1580156116ce57600080fd5b505afa1580156116e2573d6000803e3d6000fd5b505050506040513d601f19601f820116820180604052508101906117069190611bd7565b6001600160a01b03168260405160006040518083038185875af1925050503d8060008114611750576040519150601f19603f3d011682016040523d82523d6000602084013e611755565b606091505b505090508061179e5760405162461bcd60e51b8152602060048201526015602482015274105c9d1a5cdd081c185e5b595b9d0819985a5b1959605a1b60448201526064016105ac565b505b5050505050505b50565b6000826117b88686856110d2565b1495945050505050565b60008183106117de5760008281526020849052604090206117ed565b60008381526020839052604090205b9392505050565b60006020828403121561180657600080fd5b5035919050565b60008083601f84011261181f57600080fd5b5081356001600160401b0381111561183657600080fd5b6020830191508360208260051b850101111561185157600080fd5b9250929050565b6001600160a01b03811681146117a757600080fd5b60008060006040848603121561188257600080fd5b83356001600160401b0381111561189857600080fd5b6118a48682870161180d565b90945092505060208401356118b881611858565b809150509250925092565b600080600080606085870312156118d957600080fd5b84356118e481611858565b93506020850135925060408501356001600160401b0381111561190657600080fd5b6119128782880161180d565b95989497509550505050565b6000806040838503121561193157600080fd5b82359150602083013561194381611858565b809150509250929050565b60006020828403121561196057600080fd5b81356117ed81611858565b6000806040838503121561197e57600080fd5b50508035926020909101359150565b600080600080606085870312156119a357600080fd5b8435935060208501356001600160401b038111156119c057600080fd5b6119cc8782880161180d565b90945092505060408501356119e081611858565b939692955090935050565b60005b83811015611a065781810151838201526020016119ee565b83811115611a15576000848401525b50505050565b60008151808452611a338160208601602086016119eb565b601f01601f19169290920160200192915050565b8415158152836020820152608060408201526000611a686080830185611a1b565b905060018060a01b038316606083015295945050505050565b60008060408385031215611a9457600080fd5b8235611a9f81611858565b946020939093013593505050565b6001600160a01b0391909116815260200190565b60008060408385031215611ad457600080fd5b82359150602083013562ffffff8116811461194357600080fd5b600080600060408486031215611b0357600080fd5b8335925060208401356001600160401b03811115611b2057600080fd5b611b2c8682870161180d565b9497909650939450505050565b6020815260006117ed6020830184611a1b565b634e487b7160e01b600052601160045260246000fd5b6000600019821415611b7657611b76611b4c565b5060010190565b600060208284031215611b8f57600080fd5b5051919050565b600082821015611ba857611ba8611b4c565b500390565b634e487b7160e01b600052601260045260246000fd5b600082611bd257611bd2611bad565b500690565b600060208284031215611be957600080fd5b81516117ed81611858565b6020808252600b908201526a13db9b1e48105c9d1a5cdd60aa1b604082015260600190565b8051801515811461053757600080fd5b600060208284031215611c3b57600080fd5b6117ed82611c19565b805161053781611858565b634e487b7160e01b600052604160045260246000fd5b60008060008060008060008060006101208a8c031215611c8457600080fd5b8951611c8f81611858565b8099505060208a0151975060408a0151965060608a01519550611cb460808b01611c19565b945060a08a0151611cc481611858565b60c08b015160e08c015191955093506001600160401b0380821115611ce857600080fd5b818c0191508c601f830112611cfc57600080fd5b815181811115611d0e57611d0e611c4f565b604051601f8201601f19908116603f01168101908382118183101715611d3657611d36611c4f565b816040528281528f6020848701011115611d4f57600080fd5b611d608360208301602088016119eb565b8096505050505050611d756101008b01611c44565b90509295985092959850929598565b634e487b7160e01b600052603260045260246000fd5b6000816000190483118215151615611db457611db4611b4c565b500290565b600082611dc857611dc8611bad565b50049056fea264697066735822122014e83bd42dea5781833c7289262a0b7d342efe211f08245c5a804ca52b3ff8d364736f6c63430008090033",
  "linkReferences": {},
  "deployedLinkReferences": {}
}