{
  "_format": "hh-sol-artifact-1",
  "contractName": "MinterDAExpRefundV0",
  "sourceName": "contracts/minter-suite/Minters/MinterDAExpRefund/MinterDAExpRefundV0.sol",
  "abi": [
    {
      "inputs": [
        {
          "internalType": "address",
          "name": "_genArt721Address",
          "type": "address"
        },
        {
          "internalType": "address",
          "name": "_minterFilter",
          "type": "address"
        }
      ],
      "stateMutability": "nonpayable",
      "type": "constructor"
    },
    {
      "anonymous": false,
      "inputs": [
        {
          "indexed": true,
          "internalType": "uint256",
          "name": "_projectId",
          "type": "uint256"
        }
      ],
      "name": "ArtistAndAdminRevenuesWithdrawn",
      "type": "event"
    },
    {
      "anonymous": false,
      "inputs": [
        {
          "indexed": false,
          "internalType": "uint256",
          "name": "_minimumPriceDecayHalfLifeSeconds",
          "type": "uint256"
        },
        {
          "indexed": false,
          "internalType": "uint256",
          "name": "_maximumPriceDecayHalfLifeSeconds",
          "type": "uint256"
        }
      ],
      "name": "AuctionHalfLifeRangeSecondsUpdated",
      "type": "event"
    },
    {
      "anonymous": false,
      "inputs": [
        {
          "indexed": true,
          "internalType": "uint256",
          "name": "_projectId",
          "type": "uint256"
        },
        {
          "indexed": false,
          "internalType": "bytes32",
          "name": "_key",
          "type": "bytes32"
        }
      ],
      "name": "ConfigKeyRemoved",
      "type": "event"
    },
    {
      "anonymous": false,
      "inputs": [
        {
          "indexed": true,
          "internalType": "uint256",
          "name": "_projectId",
          "type": "uint256"
        },
        {
          "indexed": false,
          "internalType": "bytes32",
          "name": "_key",
          "type": "bytes32"
        },
        {
          "indexed": false,
          "internalType": "uint256",
          "name": "_value",
          "type": "uint256"
        }
      ],
      "name": "ConfigValueAddedToSet",
      "type": "event"
    },
    {
      "anonymous": false,
      "inputs": [
        {
          "indexed": true,
          "internalType": "uint256",
          "name": "_projectId",
          "type": "uint256"
        },
        {
          "indexed": false,
          "internalType": "bytes32",
          "name": "_key",
          "type": "bytes32"
        },
        {
          "indexed": false,
          "internalType": "address",
          "name": "_value",
          "type": "address"
        }
      ],
      "name": "ConfigValueAddedToSet",
      "type": "event"
    },
    {
      "anonymous": false,
      "inputs": [
        {
          "indexed": true,
          "internalType": "uint256",
          "name": "_projectId",
          "type": "uint256"
        },
        {
          "indexed": false,
          "internalType": "bytes32",
          "name": "_key",
          "type": "bytes32"
        },
        {
          "indexed": false,
          "internalType": "bytes32",
          "name": "_value",
          "type": "bytes32"
        }
      ],
      "name": "ConfigValueAddedToSet",
      "type": "event"
    },
    {
      "anonymous": false,
      "inputs": [
        {
          "indexed": true,
          "internalType": "uint256",
          "name": "_projectId",
          "type": "uint256"
        },
        {
          "indexed": false,
          "internalType": "bytes32",
          "name": "_key",
          "type": "bytes32"
        },
        {
          "indexed": false,
          "internalType": "uint256",
          "name": "_value",
          "type": "uint256"
        }
      ],
      "name": "ConfigValueRemovedFromSet",
      "type": "event"
    },
    {
      "anonymous": false,
      "inputs": [
        {
          "indexed": true,
          "internalType": "uint256",
          "name": "_projectId",
          "type": "uint256"
        },
        {
          "indexed": false,
          "internalType": "bytes32",
          "name": "_key",
          "type": "bytes32"
        },
        {
          "indexed": false,
          "internalType": "address",
          "name": "_value",
          "type": "address"
        }
      ],
      "name": "ConfigValueRemovedFromSet",
      "type": "event"
    },
    {
      "anonymous": false,
      "inputs": [
        {
          "indexed": true,
          "internalType": "uint256",
          "name": "_projectId",
          "type": "uint256"
        },
        {
          "indexed": false,
          "internalType": "bytes32",
          "name": "_key",
          "type": "bytes32"
        },
        {
          "indexed": false,
          "internalType": "bytes32",
          "name": "_value",
          "type": "bytes32"
        }
      ],
      "name": "ConfigValueRemovedFromSet",
      "type": "event"
    },
    {
      "anonymous": false,
      "inputs": [
        {
          "indexed": true,
          "internalType": "uint256",
          "name": "_projectId",
          "type": "uint256"
        },
        {
          "indexed": false,
          "internalType": "bytes32",
          "name": "_key",
          "type": "bytes32"
        },
        {
          "indexed": false,
          "internalType": "bool",
          "name": "_value",
          "type": "bool"
        }
      ],
      "name": "ConfigValueSet",
      "type": "event"
    },
    {
      "anonymous": false,
      "inputs": [
        {
          "indexed": true,
          "internalType": "uint256",
          "name": "_projectId",
          "type": "uint256"
        },
        {
          "indexed": false,
          "internalType": "bytes32",
          "name": "_key",
          "type": "bytes32"
        },
        {
          "indexed": false,
          "internalType": "uint256",
          "name": "_value",
          "type": "uint256"
        }
      ],
      "name": "ConfigValueSet",
      "type": "event"
    },
    {
      "anonymous": false,
      "inputs": [
        {
          "indexed": true,
          "internalType": "uint256",
          "name": "_projectId",
          "type": "uint256"
        },
        {
          "indexed": false,
          "internalType": "bytes32",
          "name": "_key",
          "type": "bytes32"
        },
        {
          "indexed": false,
          "internalType": "address",
          "name": "_value",
          "type": "address"
        }
      ],
      "name": "ConfigValueSet",
      "type": "event"
    },
    {
      "anonymous": false,
      "inputs": [
        {
          "indexed": true,
          "internalType": "uint256",
          "name": "_projectId",
          "type": "uint256"
        },
        {
          "indexed": false,
          "internalType": "bytes32",
          "name": "_key",
          "type": "bytes32"
        },
        {
          "indexed": false,
          "internalType": "bytes32",
          "name": "_value",
          "type": "bytes32"
        }
      ],
      "name": "ConfigValueSet",
      "type": "event"
    },
    {
      "anonymous": false,
      "inputs": [
        {
          "indexed": true,
          "internalType": "uint256",
          "name": "_projectId",
          "type": "uint256"
        },
        {
          "indexed": true,
          "internalType": "uint256",
          "name": "_pricePerTokenInWei",
          "type": "uint256"
        }
      ],
      "name": "PricePerTokenInWeiUpdated",
      "type": "event"
    },
    {
      "anonymous": false,
      "inputs": [
        {
          "indexed": true,
          "internalType": "uint256",
          "name": "_projectId",
          "type": "uint256"
        },
        {
          "indexed": true,
          "internalType": "address",
          "name": "_currencyAddress",
          "type": "address"
        },
        {
          "indexed": false,
          "internalType": "string",
          "name": "_currencySymbol",
          "type": "string"
        }
      ],
      "name": "ProjectCurrencyInfoUpdated",
      "type": "event"
    },
    {
      "anonymous": false,
      "inputs": [
        {
          "indexed": true,
          "internalType": "uint256",
          "name": "_projectId",
          "type": "uint256"
        },
        {
          "indexed": false,
          "internalType": "bool",
          "name": "_purchaseToDisabled",
          "type": "bool"
        }
      ],
      "name": "PurchaseToDisabledUpdated",
      "type": "event"
    },
    {
      "anonymous": false,
      "inputs": [
        {
          "indexed": true,
          "internalType": "address",
          "name": "_purchaser",
          "type": "address"
        },
        {
          "indexed": true,
          "internalType": "uint256",
          "name": "_projectId",
          "type": "uint256"
        },
        {
          "indexed": false,
          "internalType": "uint256",
          "name": "_netPaid",
          "type": "uint256"
        },
        {
          "indexed": false,
          "internalType": "uint256",
          "name": "_numPurchased",
          "type": "uint256"
        }
      ],
      "name": "ReceiptUpdated",
      "type": "event"
    },
    {
      "anonymous": false,
      "inputs": [
        {
          "indexed": true,
          "internalType": "uint256",
          "name": "projectId",
          "type": "uint256"
        },
        {
          "indexed": false,
          "internalType": "uint256",
          "name": "numPurchases",
          "type": "uint256"
        },
        {
          "indexed": false,
          "internalType": "uint256",
          "name": "latestPurchasePrice",
          "type": "uint256"
        }
      ],
      "name": "ResetAuctionDetails",
      "type": "event"
    },
    {
      "anonymous": false,
      "inputs": [
        {
          "indexed": true,
          "internalType": "uint256",
          "name": "_projectId",
          "type": "uint256"
        },
        {
          "indexed": false,
          "internalType": "uint256",
          "name": "_selloutPrice",
          "type": "uint256"
        }
      ],
      "name": "SelloutPriceUpdated",
      "type": "event"
    },
    {
      "anonymous": false,
      "inputs": [
        {
          "indexed": true,
          "internalType": "uint256",
          "name": "projectId",
          "type": "uint256"
        },
        {
          "indexed": false,
          "internalType": "uint256",
          "name": "_auctionTimestampStart",
          "type": "uint256"
        },
        {
          "indexed": false,
          "internalType": "uint256",
          "name": "_priceDecayHalfLifeSeconds",
          "type": "uint256"
        },
        {
          "indexed": false,
          "internalType": "uint256",
          "name": "_startPrice",
          "type": "uint256"
        },
        {
          "indexed": false,
          "internalType": "uint256",
          "name": "_basePrice",
          "type": "uint256"
        }
      ],
      "name": "SetAuctionDetails",
      "type": "event"
    },
    {
      "inputs": [
        {
          "internalType": "uint256",
          "name": "_projectId",
          "type": "uint256"
        },
        {
          "internalType": "uint256",
          "name": "_newSelloutPrice",
          "type": "uint256"
        }
      ],
      "name": "adminEmergencyReduceSelloutPrice",
      "outputs": [],
      "stateMutability": "nonpayable",
      "type": "function"
    },
    {
      "inputs": [
        {
          "internalType": "uint256",
          "name": "_projectId",
          "type": "uint256"
        }
      ],
      "name": "claimRefund",
      "outputs": [],
      "stateMutability": "nonpayable",
      "type": "function"
    },
    {
      "inputs": [
        {
          "internalType": "address payable",
          "name": "_to",
          "type": "address"
        },
        {
          "internalType": "uint256",
          "name": "_projectId",
          "type": "uint256"
        }
      ],
      "name": "claimRefundTo",
      "outputs": [],
      "stateMutability": "nonpayable",
      "type": "function"
    },
    {
      "inputs": [
        {
          "internalType": "uint256[]",
          "name": "_projectIds",
          "type": "uint256[]"
        }
      ],
      "name": "claimRefunds",
      "outputs": [],
      "stateMutability": "nonpayable",
      "type": "function"
    },
    {
      "inputs": [
        {
          "internalType": "address payable",
          "name": "_to",
          "type": "address"
        },
        {
          "internalType": "uint256[]",
          "name": "_projectIds",
          "type": "uint256[]"
        }
      ],
      "name": "claimRefundsTo",
      "outputs": [],
      "stateMutability": "nonpayable",
      "type": "function"
    },
    {
      "inputs": [],
      "name": "genArt721CoreAddress",
      "outputs": [
        {
          "internalType": "address",
          "name": "",
          "type": "address"
        }
      ],
      "stateMutability": "view",
      "type": "function"
    },
    {
      "inputs": [
        {
          "internalType": "uint256",
          "name": "_projectId",
          "type": "uint256"
        }
      ],
      "name": "getNumRefundableInvocations",
      "outputs": [
        {
          "internalType": "uint256",
          "name": "numRefundableInvocations",
          "type": "uint256"
        }
      ],
      "stateMutability": "view",
      "type": "function"
    },
    {
      "inputs": [
        {
          "internalType": "uint256",
          "name": "_projectId",
          "type": "uint256"
        }
      ],
      "name": "getPriceInfo",
      "outputs": [
        {
          "internalType": "bool",
          "name": "isConfigured",
          "type": "bool"
        },
        {
          "internalType": "uint256",
          "name": "tokenPriceInWei",
          "type": "uint256"
        },
        {
          "internalType": "string",
          "name": "currencySymbol",
          "type": "string"
        },
        {
          "internalType": "address",
          "name": "currencyAddress",
          "type": "address"
        }
      ],
      "stateMutability": "view",
      "type": "function"
    },
    {
      "inputs": [
        {
          "internalType": "uint256",
          "name": "_projectId",
          "type": "uint256"
        }
      ],
      "name": "getProjectLatestPurchasePrice",
      "outputs": [
        {
          "internalType": "uint256",
          "name": "latestPurchasePrice",
          "type": "uint256"
        }
      ],
      "stateMutability": "view",
      "type": "function"
    },
    {
      "inputs": [],
      "name": "maximumPriceDecayHalfLifeSeconds",
      "outputs": [
        {
          "internalType": "uint256",
          "name": "",
          "type": "uint256"
        }
      ],
      "stateMutability": "view",
      "type": "function"
    },
    {
      "inputs": [],
      "name": "minimumPriceDecayHalfLifeSeconds",
      "outputs": [
        {
          "internalType": "uint256",
          "name": "",
          "type": "uint256"
        }
      ],
      "stateMutability": "view",
      "type": "function"
    },
    {
      "inputs": [],
      "name": "minterFilterAddress",
      "outputs": [
        {
          "internalType": "address",
          "name": "",
          "type": "address"
        }
      ],
      "stateMutability": "view",
      "type": "function"
    },
    {
      "inputs": [],
      "name": "minterType",
      "outputs": [
        {
          "internalType": "string",
          "name": "",
          "type": "string"
        }
      ],
      "stateMutability": "view",
      "type": "function"
    },
    {
      "inputs": [
        {
          "internalType": "uint256",
          "name": "_projectId",
          "type": "uint256"
        }
      ],
      "name": "projectAuctionParameters",
      "outputs": [
        {
          "internalType": "uint256",
          "name": "timestampStart",
          "type": "uint256"
        },
        {
          "internalType": "uint256",
          "name": "priceDecayHalfLifeSeconds",
          "type": "uint256"
        },
        {
          "internalType": "uint256",
          "name": "startPrice",
          "type": "uint256"
        },
        {
          "internalType": "uint256",
          "name": "basePrice",
          "type": "uint256"
        }
      ],
      "stateMutability": "view",
      "type": "function"
    },
    {
      "inputs": [
        {
          "internalType": "uint256",
          "name": "",
          "type": "uint256"
        }
      ],
      "name": "projectConfig",
      "outputs": [
        {
          "internalType": "bool",
          "name": "maxHasBeenInvoked",
          "type": "bool"
        },
        {
          "internalType": "bool",
          "name": "auctionRevenuesCollected",
          "type": "bool"
        },
        {
          "internalType": "uint24",
          "name": "numRefundableInvocations",
          "type": "uint24"
        },
        {
          "internalType": "uint64",
          "name": "timestampStart",
          "type": "uint64"
        },
        {
          "internalType": "uint64",
          "name": "priceDecayHalfLifeSeconds",
          "type": "uint64"
        },
        {
          "internalType": "uint256",
          "name": "startPrice",
          "type": "uint256"
        },
        {
          "internalType": "uint256",
          "name": "basePrice",
          "type": "uint256"
        },
        {
          "internalType": "uint256",
          "name": "latestPurchasePrice",
          "type": "uint256"
        }
      ],
      "stateMutability": "view",
      "type": "function"
    },
    {
      "inputs": [
        {
          "internalType": "uint256",
          "name": "_projectId",
          "type": "uint256"
        }
      ],
      "name": "projectMaxHasBeenInvoked",
      "outputs": [
        {
          "internalType": "bool",
          "name": "",
          "type": "bool"
        }
      ],
      "stateMutability": "view",
      "type": "function"
    },
    {
      "inputs": [
        {
          "internalType": "uint256",
          "name": "_projectId",
          "type": "uint256"
        }
      ],
      "name": "purchase",
      "outputs": [
        {
          "internalType": "uint256",
          "name": "tokenId",
          "type": "uint256"
        }
      ],
      "stateMutability": "payable",
      "type": "function"
    },
    {
      "inputs": [
        {
          "internalType": "address",
          "name": "_to",
          "type": "address"
        },
        {
          "internalType": "uint256",
          "name": "_projectId",
          "type": "uint256"
        }
      ],
      "name": "purchaseTo",
      "outputs": [
        {
          "internalType": "uint256",
          "name": "tokenId",
          "type": "uint256"
        }
      ],
      "stateMutability": "payable",
      "type": "function"
    },
    {
      "inputs": [
        {
          "internalType": "address",
          "name": "_to",
          "type": "address"
        },
        {
          "internalType": "uint256",
          "name": "_projectId",
          "type": "uint256"
        }
      ],
      "name": "purchaseTo_do6",
      "outputs": [
        {
          "internalType": "uint256",
          "name": "tokenId",
          "type": "uint256"
        }
      ],
      "stateMutability": "payable",
      "type": "function"
    },
    {
      "inputs": [
        {
          "internalType": "uint256",
          "name": "_projectId",
          "type": "uint256"
        }
      ],
      "name": "purchase_H4M",
      "outputs": [
        {
          "internalType": "uint256",
          "name": "tokenId",
          "type": "uint256"
        }
      ],
      "stateMutability": "payable",
      "type": "function"
    },
    {
      "inputs": [
        {
          "internalType": "uint256",
          "name": "_projectId",
          "type": "uint256"
        }
      ],
      "name": "resetAuctionDetails",
      "outputs": [],
      "stateMutability": "nonpayable",
      "type": "function"
    },
    {
      "inputs": [
        {
          "internalType": "uint256",
          "name": "_minimumPriceDecayHalfLifeSeconds",
          "type": "uint256"
        },
        {
          "internalType": "uint256",
          "name": "_maximumPriceDecayHalfLifeSeconds",
          "type": "uint256"
        }
      ],
      "name": "setAllowablePriceDecayHalfLifeRangeSeconds",
      "outputs": [],
      "stateMutability": "nonpayable",
      "type": "function"
    },
    {
      "inputs": [
        {
          "internalType": "uint256",
          "name": "_projectId",
          "type": "uint256"
        },
        {
          "internalType": "uint256",
          "name": "_auctionTimestampStart",
          "type": "uint256"
        },
        {
          "internalType": "uint256",
          "name": "_priceDecayHalfLifeSeconds",
          "type": "uint256"
        },
        {
          "internalType": "uint256",
          "name": "_startPrice",
          "type": "uint256"
        },
        {
          "internalType": "uint256",
          "name": "_basePrice",
          "type": "uint256"
        }
      ],
      "name": "setAuctionDetails",
      "outputs": [],
      "stateMutability": "nonpayable",
      "type": "function"
    },
    {
      "inputs": [
        {
          "internalType": "uint256",
          "name": "",
          "type": "uint256"
        }
      ],
      "name": "setProjectMaxInvocations",
      "outputs": [],
      "stateMutability": "pure",
      "type": "function"
    },
    {
      "inputs": [
        {
          "internalType": "uint256",
          "name": "_projectId",
          "type": "uint256"
        }
      ],
      "name": "togglePurchaseToDisabled",
      "outputs": [],
      "stateMutability": "view",
      "type": "function"
    },
    {
      "inputs": [
        {
          "internalType": "uint256",
          "name": "_projectId",
          "type": "uint256"
        }
      ],
      "name": "withdrawArtistAndAdminRevenues",
      "outputs": [],
      "stateMutability": "nonpayable",
      "type": "function"
    }
  ],
  "bytecode": "0x61010060405261012c600255610e106003553480156200001e57600080fd5b50604051620028f0380380620028f0833981016040819052620000419162000153565b600160009081556001600160a01b03808416608081905260a081905290831660c081905260e0819052604080516392a10f8360e01b81529051929391926392a10f83926004808401936020939290839003909101908290875af1158015620000ad573d6000803e3d6000fd5b505050506040513d601f19601f82011682018060405250810190620000d391906200018b565b6001600160a01b0316146200012e5760405162461bcd60e51b815260206004820152601860248201527f496c6c6567616c20636f6e74726163742070616972696e670000000000000000604482015260640160405180910390fd5b5050620001b0565b80516001600160a01b03811681146200014e57600080fd5b919050565b600080604083850312156200016757600080fd5b620001728362000136565b9150620001826020840162000136565b90509250929050565b6000602082840312156200019e57600080fd5b620001a98262000136565b9392505050565b60805160a05160c05160e0516126ce62000222600039600061079d015260006104fb01526000818161082e0152818161099201528181610b3a01528181610c3c015281816112ac0152818161146301528181611507015281816117240152611d370152600061032e01526126ce6000f3fe60806040526004361061012d5760003560e01c8061998714610132578061b460146101585780631e9f2e921461016b5780632aedc28e1461019b5780632f077ee6146101bd57806340d1397e14610223578063462add461461024357806358d58106146102835780635b7baf64146102a35780635bc1470f146102c3578063774159c6146102d9578063891407c01461030957806392a10f831461031c57806393307a1f14610368578063a5d0812214610388578063c0ad212e146103a8578063c71b1b71146103c8578063c7a4f53d14610493578063cd379f6e146104b3578063cf6681ea146104d3578063dd85582f146104e9578063e17987391461051d578063e9d1e8ac1461053d578063ec31815914610589578063efef39a114610158578063f7bd4b88146105c1575b600080fd5b610145610140366004612051565b6105e1565b6040519081526020015b60405180910390f35b61014561016636600461207d565b610960565b34801561017757600080fd5b5061014561018636600461207d565b60009081526001602052604090206003015490565b3480156101a757600080fd5b506101bb6101b636600461207d565b610972565b005b3480156101c957600080fd5b506102136101d836600461207d565b60009081526001602081905260409091208054918101546002909101546001600160401b03600160281b8404811694600160681b9094041692565b60405161014f9493929190612096565b34801561022f57600080fd5b506101bb61023e36600461207d565b610b22565b34801561024f57600080fd5b5061027361025e36600461207d565b60009081526001602052604090205460ff1690565b604051901515815260200161014f565b34801561028f57600080fd5b506101bb61029e3660046120b1565b610c1c565b3480156102af57600080fd5b506101bb6102be36600461207d565b610ea7565b3480156102cf57600080fd5b5061014560035481565b3480156102e557600080fd5b506102f96102f436600461207d565b610eb4565b60405161014f9493929190612119565b610145610317366004612051565b610f42565b34801561032857600080fd5b506103507f000000000000000000000000000000000000000000000000000000000000000081565b6040516001600160a01b03909116815260200161014f565b34801561037457600080fd5b506101bb610383366004612169565b610f55565b34801561039457600080fd5b506101bb6103a3366004612051565b611111565b3480156103b457600080fd5b506101bb6103c33660046120b1565b61128c565b3480156103d457600080fd5b506104426103e336600461207d565b6001602081905260009182526040909120805491810154600282015460039092015460ff8085169461010081049091169362ffffff62010000830416936001600160401b03600160281b8404811694600160681b909404169290919088565b604080519815158952961515602089015262ffffff909516958701959095526001600160401b0392831660608701529116608085015260a084015260c083019190915260e08201526101000161014f565b34801561049f57600080fd5b506101bb6104ae36600461207d565b611442565b3480156104bf57600080fd5b506101bb6104ce36600461223b565b61170c565b3480156104df57600080fd5b5061014560025481565b3480156104f557600080fd5b506103507f000000000000000000000000000000000000000000000000000000000000000081565b34801561052957600080fd5b506101bb610538366004612276565b611b1d565b34801561054957600080fd5b5061057c6040518060400160405280601381526020017204d696e7465724441457870526566756e64563606c1b81525081565b60405161014f91906122ea565b34801561059557600080fd5b506101456105a436600461207d565b60009081526001602052604090205462010000900462ffffff1690565b3480156105cd57600080fd5b506101bb6105dc36600461207d565b611b5e565b600060026000540361060e5760405162461bcd60e51b8152600401610605906122fd565b60405180910390fd5b60026000908155828152600160205260409020805460ff16156106815760405162461bcd60e51b815260206004820152602560248201527f4d6178696d756d206e756d626572206f6620696e766f636174696f6e732072656044820152641858da195960da1b6064820152608401610605565b600061068c84611bda565b3360009081526004602090815260408083208884529091528120805492935091349183916106bb90849061234a565b90915550506001810180549060006106d28361235d565b91905055508181600101546106e79190612376565b815410156107375760405162461bcd60e51b815260206004820152601f60248201527f4d7573742073656e64206d696e696d756d2076616c756520746f206d696e74006044820152606401610605565b6001810154815460408051928352602083019190915286913391600080516020612679833981519152910160405180910390a360038301829055604051630d4d151360e01b81526001600160a01b038781166004830152602482018790523360448301527f00000000000000000000000000000000000000000000000000000000000000001690630d4d1513906064016020604051808303816000875af11580156107e6573d6000803e3d6000fd5b505050506040513d601f19601f8201168201806040525081019061080a919061238d565b604051630ea5613f60e01b8152600481018790529094506000906001600160a01b037f00000000000000000000000000000000000000000000000000000000000000001690630ea5613f9060240160c060405180830381865afa158015610875573d6000803e3d6000fd5b505050506040513d601f19601f8201168201806040525081019061089991906123bb565b509294505060001984019250620f4240915087905006036108fc57835460ff1916600117845560405186907f6e257f2b2266f72d4bd28a2e64b0cfc245c9a1c28ec2dc591f8052f77f969c95906108f39086815260200190565b60405180910390a25b8354610100900460ff161561091a576109158684611d24565b610951565b835462010000900462ffffff1684600261093383612430565b91906101000a81548162ffffff021916908362ffffff160217905550505b50505050600160005592915050565b600061096c33836105e1565b92915050565b60405163230448b160e01b8152631576e14760e11b906001600160a01b037f0000000000000000000000000000000000000000000000000000000000000000169063230448b1906109cb90339030908690600401612452565b6020604051808303816000875af11580156109ea573d6000803e3d6000fd5b505050506040513d601f19601f82011682018060405250810190610a0e919061247f565b610a2a5760405162461bcd60e51b81526004016106059061249a565b6000828152600160208190526040822090810154909103610a8a5760405162461bcd60e51b815260206004820152601a602482015279105d58dd1a5bdb881b5d5cdd0818994818dbdb999a59dd5c995960321b6044820152606401610605565b8054610100900460ff1615610ab15760405162461bcd60e51b8152600401610605906124ce565b8054600160281b600160a81b03191680825560006001830181905560028301556003820154604080516201000090930462ffffff168352602083019190915284917f28cd2e5a54afa08469ca157e482b97c3de9efbc4c48cea254864df050677145a910160405180910390a2505050565b60405163a47d29cb60e01b81526004810182905281907f00000000000000000000000000000000000000000000000000000000000000006001600160a01b03169063a47d29cb90602401602060405180830381865afa158015610b89573d6000803e3d6000fd5b505050506040513d601f19601f82011682018060405250810190610bad9190612505565b6001600160a01b0316336001600160a01b031614610bdd5760405162461bcd60e51b815260040161060590612522565b60405162461bcd60e51b81526020600482015260146024820152731058dd1a5bdb881b9bdd081cdd5c1c1bdc9d195960621b6044820152606401610605565b60405163230448b160e01b8152632c6ac08360e11b906001600160a01b037f0000000000000000000000000000000000000000000000000000000000000000169063230448b190610c7590339030908690600401612452565b6020604051808303816000875af1158015610c94573d6000803e3d6000fd5b505050506040513d601f19601f82011682018060405250810190610cb8919061247f565b610cd45760405162461bcd60e51b81526004016106059061249a565b6000838152600160205260409020805460ff16610d2e5760405162461bcd60e51b815260206004820152601860248201527741756374696f6e206d75737420626520636f6d706c65746560401b6044820152606401610605565b80600301548310610d815760405162461bcd60e51b815260206004820152601d60248201527f4d6179206f6e6c79207265647563652073656c6c6f75742070726963650000006044820152606401610605565b8060020154831015610df45760405162461bcd60e51b815260206004820152603660248201527f4d6179206f6e6c79207265647563652073656c6c6f757420707269636520746f604482015275103130b9b290383934b1b29037b91033b932b0ba32b960511b6064820152608401610605565b60008311610e3e5760405162461bcd60e51b815260206004820152601760248201527604f6e6c792073656c6c6f757420707269636573203e203604c1b6044820152606401610605565b8054610100900460ff1615610e655760405162461bcd60e51b8152600401610605906124ce565b6003810183905560405183815284907f6e257f2b2266f72d4bd28a2e64b0cfc245c9a1c28ec2dc591f8052f77f969c959060200160405180910390a250505050565b610eb13382611111565b50565b600081815260016020819052604082209081015481549015159291606091839190600160281b90046001600160401b03164211610ef75780600101549350610f18565b8060010154600003610f0c5760009350610f18565b610f1586611bda565b93505b6040518060400160405280600381526020016208aa8960eb1b815250925060009150509193509193565b6000610f4e83836105e1565b9392505050565b600260005403610f775760405162461bcd60e51b8152600401610605906122fd565b60026000556001600160a01b038216610fa25760405162461bcd60e51b815260040161060590612547565b8051600090815b8181101561108f576000848281518110610fc557610fc561257e565b6020908102919091018101516000818152600180845260408083203384526004865281842085855290955290912090810154919350906110175760405162461bcd60e51b815260040161060590612594565b6003820154600182015460009061102f908390612376565b835490915061103f9082906125d5565b611049908961234a565b8184556001840154604080519182526020820184905291995086913391600080516020612679833981519152910160405180910390a38560010195505050505050610fa9565b506000846001600160a01b03168360405160006040518083038185875af1925050503d80600081146110dd576040519150601f19603f3d011682016040523d82523d6000602084013e6110e2565b606091505b505080915050806111055760405162461bcd60e51b8152600401610605906125e8565b50506001600055505050565b6002600054036111335760405162461bcd60e51b8152600401610605906122fd565b60026000908155818152600160209081526040808320338452600483528184208585529092529091206001600160a01b0384166111825760405162461bcd60e51b815260040161060590612547565b60008160010154116111a65760405162461bcd60e51b815260040161060590612594565b600382015460018201546000906111be908390612376565b905060008184600001546111d291906125d5565b8285556001850154604080519182526020820185905291925087913391600080516020612679833981519152910160405180910390a36000876001600160a01b03168260405160006040518083038185875af1925050503d8060008114611255576040519150601f19603f3d011682016040523d82523d6000602084013e61125a565b606091505b5050809150508061127d5760405162461bcd60e51b8152600401610605906125e8565b50506001600055505050505050565b60405163230448b160e01b8152636056909760e11b906001600160a01b037f0000000000000000000000000000000000000000000000000000000000000000169063230448b1906112e590339030908690600401612452565b6020604051808303816000875af1158015611304573d6000803e3d6000fd5b505050506040513d601f19601f82011682018060405250810190611328919061247f565b6113445760405162461bcd60e51b81526004016106059061249a565b8282116113aa5760405162461bcd60e51b815260206004820152602e60248201527f4d6178696d756d2068616c66206c696665206d7573742062652067726561746560448201526d72207468616e206d696e696d756d60901b6064820152608401610605565b600083116113fa5760405162461bcd60e51b815260206004820152601d60248201527f48616c66206c696665206f66207a65726f206e6f7420616c6c6f7765640000006044820152606401610605565b6002839055600382905560408051848152602081018490527f1d5d9c9b660aace5432c6c7412456d0ad1b5ff4c6ea156a8c551ba93555ed73f910160405180910390a1505050565b60405163a47d29cb60e01b815260048101829052819063c7a4f53d60e01b907f00000000000000000000000000000000000000000000000000000000000000006001600160a01b03169063a47d29cb90602401602060405180830381865afa1580156114b2573d6000803e3d6000fd5b505050506040513d601f19601f820116820180604052508101906114d69190612505565b6001600160a01b0316336001600160a01b03161480611583575060405163230448b160e01b81526001600160a01b037f0000000000000000000000000000000000000000000000000000000000000000169063230448b19061154090339030908690600401612452565b6020604051808303816000875af115801561155f573d6000803e3d6000fd5b505050506040513d601f19601f82011682018060405250810190611583919061247f565b6115ca5760405162461bcd60e51b815260206004820152601860248201527713db9b1e48105c9d1a5cdd081bdc8810591b5a5b881050d360421b6044820152606401610605565b60008381526001602052604090208054610100900460ff161561162c5760405162461bcd60e51b815260206004820152601a60248201527914995d995b9d595cc8185b1c9958591e4818dbdb1b1958dd195960321b6044820152606401610605565b600061163785611bda565b90508160020154811461169a57815460ff166116955760405162461bcd60e51b815260206004820152601f60248201527f4163746976652061756374696f6e206e6f742079657420736f6c64206f7574006044820152606401610605565b6116a5565b600282015460038301555b815461ff001916610100178083556000906116cd90839062ffffff6201000090910416612376565b90506116d98682611d24565b60405186907f110a44b77609d30f9b80fa9add8c3e18ba02555b3546acf2b0318a3d3229c5a790600090a2505050505050565b60405163a47d29cb60e01b81526004810186905285907f00000000000000000000000000000000000000000000000000000000000000006001600160a01b03169063a47d29cb90602401602060405180830381865afa158015611773573d6000803e3d6000fd5b505050506040513d601f19601f820116820180604052508101906117979190612505565b6001600160a01b0316336001600160a01b0316146117c75760405162461bcd60e51b815260040161060590612522565b60008681526001602052604090208054600160281b90046001600160401b0316158061180357508054600160281b90046001600160401b031642105b61184e5760405162461bcd60e51b815260206004820152601c60248201527b27379036b7b234b334b1b0ba34b7b7399036b4b216b0bab1ba34b7b760211b6044820152606401610605565b8542106118945760405162461bcd60e51b81526020600482015260146024820152734f6e6c79206675747572652061756374696f6e7360601b6044820152606401610605565b8284116119065760405162461bcd60e51b815260206004820152603a60248201527f41756374696f6e207374617274207072696365206d7573742062652067726561604482015279746572207468616e2061756374696f6e20656e6420707269636560301b6064820152608401610605565b600083116119545760405162461bcd60e51b815260206004820152601b60248201527a42617365207072696365206d757374206265206e6f6e2d7a65726f60281b6044820152606401610605565b60038101541580611969575080600301548411155b6119d25760405162461bcd60e51b815260206004820152603460248201527f41756374696f6e207374617274207072696365206d757374206265203c3d206c604482015273617465737420707572636861736520707269636560601b6064820152608401610605565b60025485101580156119e657506003548511155b611a665760405162461bcd60e51b8152602060048201526044602482018190527f50726963652064656361792068616c66206c696665206d7573742066616c6c20908201527f6265747765656e206d696e20616e64206d617820616c6c6f7761626c652076616064820152636c75657360e01b608482015260a401610605565b611a6f86611fd0565b81546001600160401b0391909116600160281b0267ffffffffffffffff60281b19909116178155611a9f85611fd0565b81546001600160401b0391909116600160681b0267ffffffffffffffff60681b19909116178155600181018490556002810183905560405187907f38b3058b75696f9e45bffa9c4b237adcde13d74c7bc1bea63e13c712d0776c7490611b0c908990899089908990612096565b60405180910390a250505050505050565b611b5a33838380806020026020016040519081016040528093929190818152602001838360200280828437600092019190915250610f5592505050565b5050565b60405162461bcd60e51b8152602060048201526044602482018190527f73657450726f6a6563744d6178496e766f636174696f6e73206e6f7420696d70908201527f6c656d656e746564202d207570646174656420647572696e67206576657279206064820152631b5a5b9d60e21b608482015260a401610605565b6000818152600160205260408120805460ff1615611bfc576003015492915050565b805460028201546001600160401b03600160281b8304811692600160681b90041690428310611c675760405162461bcd60e51b8152602060048201526017602482015276105d58dd1a5bdb881b9bdd081e595d081cdd185c9d1959604a1b6044820152606401610605565b60008211611cb25760405162461bcd60e51b81526020600482015260186024820152774f6e6c7920636f6e666967757265642061756374696f6e7360401b6044820152606401610605565b600184015442849003838181611cca57611cca61241a565b0482901c9150600284858381611ce257611ce261241a565b06840281611cf257611cf261241a565b0481611d0057611d0061241a565b048203915082821015611d195750909695505050505050565b509695505050505050565b8015611b5a5760008060008060008060007f00000000000000000000000000000000000000000000000000000000000000006001600160a01b0316638639415b8a8a6040518363ffffffff1660e01b8152600401611d8c929190918252602082015260400190565b60c060405180830381865afa158015611da9573d6000803e3d6000fd5b505050506040513d601f19601f82011682018060405250810190611dcd919061260f565b9550955095509550955095506000861115611e7f576040516001600160a01b038616908790600081818185875af1925050503d8060008114611e2b576040519150601f19603f3d011682016040523d82523d6000602084013e611e30565b606091505b50508097505086611e7f5760405162461bcd60e51b8152602060048201526019602482015278105c9d08109b1bd8dadcc81c185e5b595b9d0819985a5b1959603a1b6044820152606401610605565b8315611f1e576040516001600160a01b038416908590600081818185875af1925050503d8060008114611ece576040519150601f19603f3d011682016040523d82523d6000602084013e611ed3565b606091505b50508097505086611f1e5760405162461bcd60e51b8152602060048201526015602482015274105c9d1a5cdd081c185e5b595b9d0819985a5b1959605a1b6044820152606401610605565b8115611fc5576040516001600160a01b038216908390600081818185875af1925050503d8060008114611f6d576040519150601f19603f3d011682016040523d82523d6000602084013e611f72565b606091505b50508097505086611fc55760405162461bcd60e51b815260206004820152601f60248201527f4164646974696f6e616c205061796565207061796d656e74206661696c6564006044820152606401610605565b505050505050505050565b60006001600160401b038211156120385760405162461bcd60e51b815260206004820152602660248201527f53616665436173743a2076616c756520646f65736e27742066697420696e203660448201526534206269747360d01b6064820152608401610605565b5090565b6001600160a01b0381168114610eb157600080fd5b6000806040838503121561206457600080fd5b823561206f8161203c565b946020939093013593505050565b60006020828403121561208f57600080fd5b5035919050565b93845260208401929092526040830152606082015260800190565b600080604083850312156120c457600080fd5b50508035926020909101359150565b6000815180845260005b818110156120f9576020818501810151868301820152016120dd565b506000602082860101526020601f19601f83011685010191505092915050565b841515815283602082015260806040820152600061213a60808301856120d3565b905060018060a01b038316606083015295945050505050565b634e487b7160e01b600052604160045260246000fd5b6000806040838503121561217c57600080fd5b82356121878161203c565b91506020838101356001600160401b03808211156121a457600080fd5b818601915086601f8301126121b857600080fd5b8135818111156121ca576121ca612153565b8060051b604051601f19603f830116810181811085821117156121ef576121ef612153565b60405291825284820192508381018501918983111561220d57600080fd5b938501935b8285101561222b57843584529385019392850192612212565b8096505050505050509250929050565b600080600080600060a0868803121561225357600080fd5b505083359560208501359550604085013594606081013594506080013592509050565b6000806020838503121561228957600080fd5b82356001600160401b03808211156122a057600080fd5b818501915085601f8301126122b457600080fd5b8135818111156122c357600080fd5b8660208260051b85010111156122d857600080fd5b60209290920196919550909350505050565b602081526000610f4e60208301846120d3565b6020808252601f908201527f5265656e7472616e637947756172643a207265656e7472616e742063616c6c00604082015260600190565b634e487b7160e01b600052601160045260246000fd5b8082018082111561096c5761096c612334565b60006001820161236f5761236f612334565b5060010190565b808202811582820484141761096c5761096c612334565b60006020828403121561239f57600080fd5b5051919050565b805180151581146123b657600080fd5b919050565b60008060008060008060c087890312156123d457600080fd5b86519550602087015194506123eb604088016123a6565b93506123f9606088016123a6565b92506080870151915061240e60a088016123a6565b90509295509295509295565b634e487b7160e01b600052601260045260246000fd5b600062ffffff80831681810361244857612448612334565b6001019392505050565b6001600160a01b0393841681529190921660208201526001600160e01b0319909116604082015260600190565b60006020828403121561249157600080fd5b610f4e826123a6565b6020808252601a908201527913db9b1e4810dbdc994810591b5a5b9050d308185b1b1bddd95960321b604082015260600190565b6020808252601e908201527f4f6e6c79206265666f726520726576656e75657320636f6c6c65637465640000604082015260600190565b60006020828403121561251757600080fd5b8151610f4e8161203c565b6020808252600b908201526a13db9b1e48105c9d1a5cdd60aa1b604082015260600190565b6020808252601d908201527f4e6f20726566756e6420746f20746865207a65726f2061646472657373000000604082015260600190565b634e487b7160e01b600052603260045260246000fd5b60208082526021908201527f4e6f20707572636861736573206d6164652062792074686973206164647265736040820152607360f81b606082015260800190565b8181038181111561096c5761096c612334565b6020808252600d908201526c1499599d5b990819985a5b1959609a1b604082015260600190565b60008060008060008060c0878903121561262857600080fd5b86519550602087015161263a8161203c565b6040880151606089015191965094506126528161203c565b608088015160a0890151919450925061266a8161203c565b80915050929550929550929556fe88bc1bf6777e1eaef8a0583c526f6963c9183af9ee82015f9a28f55b9115ea71a264697066735822122098a6a0bb3ed954fd048ed0ef03fde856da5bc401ae43e76a7657e34a0e79370c64736f6c63430008110033",
  "linkReferences": {},
  "deployedLinkReferences": {}
}