{
  "_format": "hh-sol-artifact-1",
  "contractName": "MinterHolderV2",
  "sourceName": "contracts/minter-suite/Minters/MinterHolder/MinterHolderV2.sol",
  "abi": [
    {
      "inputs": [
        {
          "internalType": "address",
          "name": "_genArt721Address",
          "type": "address"
        },
        {
          "internalType": "address",
          "name": "_minterFilter",
          "type": "address"
        },
        {
          "internalType": "address",
          "name": "_delegationRegistryAddress",
          "type": "address"
        }
      ],
      "stateMutability": "nonpayable",
      "type": "constructor"
    },
    {
      "anonymous": false,
      "inputs": [
        {
          "indexed": true,
          "internalType": "uint256",
          "name": "_projectId",
          "type": "uint256"
        },
        {
          "indexed": false,
          "internalType": "address[]",
          "name": "_ownedNFTAddresses",
          "type": "address[]"
        },
        {
          "indexed": false,
          "internalType": "uint256[]",
          "name": "_ownedNFTProjectIds",
          "type": "uint256[]"
        }
      ],
      "name": "AllowedHoldersOfProjects",
      "type": "event"
    },
    {
      "anonymous": false,
      "inputs": [
        {
          "indexed": false,
          "internalType": "address",
          "name": "delegationRegistryAddress",
          "type": "address"
        }
      ],
      "name": "DelegationRegistryUpdated",
      "type": "event"
    },
    {
      "anonymous": false,
      "inputs": [
        {
          "indexed": true,
          "internalType": "uint256",
          "name": "_projectId",
          "type": "uint256"
        },
        {
          "indexed": true,
          "internalType": "uint256",
          "name": "_pricePerTokenInWei",
          "type": "uint256"
        }
      ],
      "name": "PricePerTokenInWeiUpdated",
      "type": "event"
    },
    {
      "anonymous": false,
      "inputs": [
        {
          "indexed": true,
          "internalType": "uint256",
          "name": "_projectId",
          "type": "uint256"
        },
        {
          "indexed": true,
          "internalType": "address",
          "name": "_currencyAddress",
          "type": "address"
        },
        {
          "indexed": false,
          "internalType": "string",
          "name": "_currencySymbol",
          "type": "string"
        }
      ],
      "name": "ProjectCurrencyInfoUpdated",
      "type": "event"
    },
    {
      "anonymous": false,
      "inputs": [
        {
          "indexed": true,
          "internalType": "uint256",
          "name": "_projectId",
          "type": "uint256"
        },
        {
          "indexed": false,
          "internalType": "bool",
          "name": "_purchaseToDisabled",
          "type": "bool"
        }
      ],
      "name": "PurchaseToDisabledUpdated",
      "type": "event"
    },
    {
      "anonymous": false,
      "inputs": [
        {
          "indexed": true,
          "internalType": "address",
          "name": "_NFTAddress",
          "type": "address"
        }
      ],
      "name": "RegisteredNFTAddress",
      "type": "event"
    },
    {
      "anonymous": false,
      "inputs": [
        {
          "indexed": true,
          "internalType": "uint256",
          "name": "_projectId",
          "type": "uint256"
        },
        {
          "indexed": false,
          "internalType": "address[]",
          "name": "_ownedNFTAddresses",
          "type": "address[]"
        },
        {
          "indexed": false,
          "internalType": "uint256[]",
          "name": "_ownedNFTProjectIds",
          "type": "uint256[]"
        }
      ],
      "name": "RemovedHoldersOfProjects",
      "type": "event"
    },
    {
      "anonymous": false,
      "inputs": [
        {
          "indexed": true,
          "internalType": "address",
          "name": "_NFTAddress",
          "type": "address"
        }
      ],
      "name": "UnregisteredNFTAddress",
      "type": "event"
    },
    {
      "inputs": [
        {
          "internalType": "uint256",
          "name": "_projectId",
          "type": "uint256"
        },
        {
          "internalType": "address[]",
          "name": "_ownedNFTAddresses",
          "type": "address[]"
        },
        {
          "internalType": "uint256[]",
          "name": "_ownedNFTProjectIds",
          "type": "uint256[]"
        }
      ],
      "name": "allowHoldersOfProjects",
      "outputs": [],
      "stateMutability": "nonpayable",
      "type": "function"
    },
    {
      "inputs": [
        {
          "internalType": "uint256",
          "name": "_projectId",
          "type": "uint256"
        },
        {
          "internalType": "address[]",
          "name": "_ownedNFTAddressesAdd",
          "type": "address[]"
        },
        {
          "internalType": "uint256[]",
          "name": "_ownedNFTProjectIdsAdd",
          "type": "uint256[]"
        },
        {
          "internalType": "address[]",
          "name": "_ownedNFTAddressesRemove",
          "type": "address[]"
        },
        {
          "internalType": "uint256[]",
          "name": "_ownedNFTProjectIdsRemove",
          "type": "uint256[]"
        }
      ],
      "name": "allowRemoveHoldersOfProjects",
      "outputs": [],
      "stateMutability": "nonpayable",
      "type": "function"
    },
    {
      "inputs": [
        {
          "internalType": "uint256",
          "name": "",
          "type": "uint256"
        },
        {
          "internalType": "address",
          "name": "",
          "type": "address"
        },
        {
          "internalType": "uint256",
          "name": "",
          "type": "uint256"
        }
      ],
      "name": "allowedProjectHolders",
      "outputs": [
        {
          "internalType": "bool",
          "name": "",
          "type": "bool"
        }
      ],
      "stateMutability": "view",
      "type": "function"
    },
    {
      "inputs": [],
      "name": "delegationRegistryAddress",
      "outputs": [
        {
          "internalType": "address",
          "name": "",
          "type": "address"
        }
      ],
      "stateMutability": "view",
      "type": "function"
    },
    {
      "inputs": [],
      "name": "genArt721CoreAddress",
      "outputs": [
        {
          "internalType": "address",
          "name": "",
          "type": "address"
        }
      ],
      "stateMutability": "view",
      "type": "function"
    },
    {
      "inputs": [],
      "name": "getNumRegisteredNFTAddresses",
      "outputs": [
        {
          "internalType": "uint256",
          "name": "",
          "type": "uint256"
        }
      ],
      "stateMutability": "view",
      "type": "function"
    },
    {
      "inputs": [
        {
          "internalType": "uint256",
          "name": "_projectId",
          "type": "uint256"
        }
      ],
      "name": "getPriceInfo",
      "outputs": [
        {
          "internalType": "bool",
          "name": "isConfigured",
          "type": "bool"
        },
        {
          "internalType": "uint256",
          "name": "tokenPriceInWei",
          "type": "uint256"
        },
        {
          "internalType": "string",
          "name": "currencySymbol",
          "type": "string"
        },
        {
          "internalType": "address",
          "name": "currencyAddress",
          "type": "address"
        }
      ],
      "stateMutability": "view",
      "type": "function"
    },
    {
      "inputs": [
        {
          "internalType": "uint256",
          "name": "_index",
          "type": "uint256"
        }
      ],
      "name": "getRegisteredNFTAddressAt",
      "outputs": [
        {
          "internalType": "address",
          "name": "NFTAddress",
          "type": "address"
        }
      ],
      "stateMutability": "view",
      "type": "function"
    },
    {
      "inputs": [
        {
          "internalType": "uint256",
          "name": "_projectId",
          "type": "uint256"
        },
        {
          "internalType": "address",
          "name": "_ownedNFTAddress",
          "type": "address"
        },
        {
          "internalType": "uint256",
          "name": "_ownedNFTTokenId",
          "type": "uint256"
        }
      ],
      "name": "isAllowlistedNFT",
      "outputs": [
        {
          "internalType": "bool",
          "name": "",
          "type": "bool"
        }
      ],
      "stateMutability": "view",
      "type": "function"
    },
    {
      "inputs": [],
      "name": "minterFilterAddress",
      "outputs": [
        {
          "internalType": "address",
          "name": "",
          "type": "address"
        }
      ],
      "stateMutability": "view",
      "type": "function"
    },
    {
      "inputs": [],
      "name": "minterType",
      "outputs": [
        {
          "internalType": "string",
          "name": "",
          "type": "string"
        }
      ],
      "stateMutability": "view",
      "type": "function"
    },
    {
      "inputs": [
        {
          "internalType": "uint256",
          "name": "",
          "type": "uint256"
        }
      ],
      "name": "projectConfig",
      "outputs": [
        {
          "internalType": "bool",
          "name": "maxHasBeenInvoked",
          "type": "bool"
        },
        {
          "internalType": "bool",
          "name": "priceIsConfigured",
          "type": "bool"
        },
        {
          "internalType": "uint24",
          "name": "maxInvocations",
          "type": "uint24"
        },
        {
          "internalType": "uint256",
          "name": "pricePerTokenInWei",
          "type": "uint256"
        }
      ],
      "stateMutability": "view",
      "type": "function"
    },
    {
      "inputs": [
        {
          "internalType": "uint256",
          "name": "_projectId",
          "type": "uint256"
        }
      ],
      "name": "projectMaxHasBeenInvoked",
      "outputs": [
        {
          "internalType": "bool",
          "name": "",
          "type": "bool"
        }
      ],
      "stateMutability": "view",
      "type": "function"
    },
    {
      "inputs": [
        {
          "internalType": "uint256",
          "name": "_projectId",
          "type": "uint256"
        }
      ],
      "name": "projectMaxInvocations",
      "outputs": [
        {
          "internalType": "uint256",
          "name": "",
          "type": "uint256"
        }
      ],
      "stateMutability": "view",
      "type": "function"
    },
    {
      "inputs": [
        {
          "internalType": "uint256",
          "name": "_projectId",
          "type": "uint256"
        },
        {
          "internalType": "address",
          "name": "_ownedNFTAddress",
          "type": "address"
        },
        {
          "internalType": "uint256",
          "name": "_ownedNFTTokenId",
          "type": "uint256"
        }
      ],
      "name": "purchase",
      "outputs": [
        {
          "internalType": "uint256",
          "name": "tokenId",
          "type": "uint256"
        }
      ],
      "stateMutability": "payable",
      "type": "function"
    },
    {
      "inputs": [
        {
          "internalType": "uint256",
          "name": "",
          "type": "uint256"
        }
      ],
      "name": "purchase",
      "outputs": [
        {
          "internalType": "uint256",
          "name": "",
          "type": "uint256"
        }
      ],
      "stateMutability": "payable",
      "type": "function"
    },
    {
      "inputs": [
        {
          "internalType": "address",
          "name": "_to",
          "type": "address"
        },
        {
          "internalType": "uint256",
          "name": "_projectId",
          "type": "uint256"
        },
        {
          "internalType": "address",
          "name": "_ownedNFTAddress",
          "type": "address"
        },
        {
          "internalType": "uint256",
          "name": "_ownedNFTTokenId",
          "type": "uint256"
        },
        {
          "internalType": "address",
          "name": "_vault",
          "type": "address"
        }
      ],
      "name": "purchaseTo",
      "outputs": [
        {
          "internalType": "uint256",
          "name": "tokenId",
          "type": "uint256"
        }
      ],
      "stateMutability": "payable",
      "type": "function"
    },
    {
      "inputs": [
        {
          "internalType": "address",
          "name": "",
          "type": "address"
        },
        {
          "internalType": "uint256",
          "name": "",
          "type": "uint256"
        }
      ],
      "name": "purchaseTo",
      "outputs": [
        {
          "internalType": "uint256",
          "name": "",
          "type": "uint256"
        }
      ],
      "stateMutability": "payable",
      "type": "function"
    },
    {
      "inputs": [
        {
          "internalType": "address",
          "name": "_to",
          "type": "address"
        },
        {
          "internalType": "uint256",
          "name": "_projectId",
          "type": "uint256"
        },
        {
          "internalType": "address",
          "name": "_ownedNFTAddress",
          "type": "address"
        },
        {
          "internalType": "uint256",
          "name": "_ownedNFTTokenId",
          "type": "uint256"
        }
      ],
      "name": "purchaseTo",
      "outputs": [
        {
          "internalType": "uint256",
          "name": "tokenId",
          "type": "uint256"
        }
      ],
      "stateMutability": "payable",
      "type": "function"
    },
    {
      "inputs": [
        {
          "internalType": "address",
          "name": "_to",
          "type": "address"
        },
        {
          "internalType": "uint256",
          "name": "_projectId",
          "type": "uint256"
        },
        {
          "internalType": "address",
          "name": "_ownedNFTAddress",
          "type": "address"
        },
        {
          "internalType": "uint256",
          "name": "_ownedNFTTokenId",
          "type": "uint256"
        },
        {
          "internalType": "address",
          "name": "_vault",
          "type": "address"
        }
      ],
      "name": "purchaseTo_dlc",
      "outputs": [
        {
          "internalType": "uint256",
          "name": "tokenId",
          "type": "uint256"
        }
      ],
      "stateMutability": "payable",
      "type": "function"
    },
    {
      "inputs": [
        {
          "internalType": "uint256",
          "name": "_projectId",
          "type": "uint256"
        },
        {
          "internalType": "address",
          "name": "_ownedNFTAddress",
          "type": "address"
        },
        {
          "internalType": "uint256",
          "name": "_ownedNFTTokenId",
          "type": "uint256"
        }
      ],
      "name": "purchase_nnf",
      "outputs": [
        {
          "internalType": "uint256",
          "name": "tokenId",
          "type": "uint256"
        }
      ],
      "stateMutability": "payable",
      "type": "function"
    },
    {
      "inputs": [
        {
          "internalType": "address",
          "name": "_NFTAddress",
          "type": "address"
        }
      ],
      "name": "registerNFTAddress",
      "outputs": [],
      "stateMutability": "nonpayable",
      "type": "function"
    },
    {
      "inputs": [
        {
          "internalType": "uint256",
          "name": "_projectId",
          "type": "uint256"
        },
        {
          "internalType": "address[]",
          "name": "_ownedNFTAddresses",
          "type": "address[]"
        },
        {
          "internalType": "uint256[]",
          "name": "_ownedNFTProjectIds",
          "type": "uint256[]"
        }
      ],
      "name": "removeHoldersOfProjects",
      "outputs": [],
      "stateMutability": "nonpayable",
      "type": "function"
    },
    {
      "inputs": [
        {
          "internalType": "uint256",
          "name": "_projectId",
          "type": "uint256"
        }
      ],
      "name": "setProjectMaxInvocations",
      "outputs": [],
      "stateMutability": "nonpayable",
      "type": "function"
    },
    {
      "inputs": [
        {
          "internalType": "uint256",
          "name": "_projectId",
          "type": "uint256"
        }
      ],
      "name": "togglePurchaseToDisabled",
      "outputs": [],
      "stateMutability": "view",
      "type": "function"
    },
    {
      "inputs": [
        {
          "internalType": "address",
          "name": "_NFTAddress",
          "type": "address"
        }
      ],
      "name": "unregisterNFTAddress",
      "outputs": [],
      "stateMutability": "nonpayable",
      "type": "function"
    },
    {
      "inputs": [
        {
          "internalType": "uint256",
          "name": "_projectId",
          "type": "uint256"
        },
        {
          "internalType": "uint256",
          "name": "_pricePerTokenInWei",
          "type": "uint256"
        }
      ],
      "name": "updatePricePerTokenInWei",
      "outputs": [],
      "stateMutability": "nonpayable",
      "type": "function"
    }
  ],
  "bytecode": "0x6101406040523480156200001257600080fd5b506040516200244d3803806200244d83398101604081905262000035916200018d565b60016000556001600160a01b0383811660c081905260e052811660808190526040519081527f836360d1b094a7de3c3eab3d1185f3a5939467c23d4a12709dbdbf8c8d7e2f3b9060200160405180910390a16001600160a01b0380821660a052828116610100819052610120819052604080516392a10f8360e01b81529051928616926392a10f839160048082019260209290919082900301816000875af1158015620000e6573d6000803e3d6000fd5b505050506040513d601f19601f820116820180604052508101906200010c9190620001d7565b6001600160a01b031614620001675760405162461bcd60e51b815260206004820152601860248201527f496c6c6567616c20636f6e74726163742070616972696e670000000000000000604482015260640160405180910390fd5b505050620001fc565b80516001600160a01b03811681146200018857600080fd5b919050565b600080600060608486031215620001a357600080fd5b620001ae8462000170565b9250620001be6020850162000170565b9150620001ce6040850162000170565b90509250925092565b600060208284031215620001ea57600080fd5b620001f58262000170565b9392505050565b60805160a05160c05160e05161010051610120516121c26200028b60003960006108d201526000610508015260008181610a7801528181610b8501528181610c7f01528181610d6001528181610e5401528181610f620152818161122d0152818161149501526115ec0152600081816103a301526107b1015260006107e30152600061045701526121c26000f3fe6080604052600436106101485760003560e01c8063891407c0116100bc578063891407c01461033d57806390d355b71461035057806392a10f831461039157806399c0bbdc146103dd578063a647300c146103f2578063b00abb6414610412578063bc8ff00114610425578063bf5bf5f814610445578063c71b1b7114610479578063dd85582f146104f6578063e2849bd51461052a578063e9d1e8ac1461054a578063efef39a114610591578063f7bd4b881461059f57600080fd5b806111cd1461014d578061aa52146101735780630ed79c4e1461018657806328c5c4e5146101a857806340d1397e146101bb578063462add46146101db5780634fd1b70e1461021b5780634ff5759d1461023b57806356690aaf1461025b578063650e5d6d146101735780636cb9b7ff14610293578063774159c6146102b35780637994db091461031d575b600080fd5b61016061015b366004611a74565b6105bf565b6040519081526020015b60405180910390f35b610160610181366004611ad3565b610a40565b34801561019257600080fd5b506101a66101a1366004611b0b565b610a58565b005b6101606101b6366004611a74565b610b54565b3480156101c757600080fd5b506101a66101d6366004611b28565b610b6d565b3480156101e757600080fd5b5061020b6101f6366004611b28565b60009081526001602052604090205460ff1690565b604051901515815260200161016a565b34801561022757600080fd5b506101a6610236366004611c79565b610c67565b34801561024757600080fd5b506101a6610256366004611b0b565b610d40565b34801561026757600080fd5b50610160610276366004611b28565b60009081526001602052604090205462010000900462ffffff1690565b34801561029f57600080fd5b506101a66102ae366004611d2f565b610e3c565b3480156102bf57600080fd5b5061030d6102ce366004611b28565b600090815260016020818152604080842080549301548151808301909252600382526208aa8960eb1b9282019290925261010090920460ff1693909290565b60405161016a9493929190611d97565b34801561032957600080fd5b506101a6610338366004611dd1565b610f4a565b61016061034b366004611e3d565b6111be565b34801561035c57600080fd5b5061020b61036b366004611ad3565b600460209081526000938452604080852082529284528284209052825290205460ff1681565b34801561039d57600080fd5b506103c57f000000000000000000000000000000000000000000000000000000000000000081565b6040516001600160a01b03909116815260200161016a565b3480156103e957600080fd5b50610160611204565b3480156103fe57600080fd5b506101a661040d366004611dd1565b611215565b610160610420366004611e69565b61140b565b34801561043157600080fd5b506103c5610440366004611b28565b611424565b34801561045157600080fd5b506103c57f000000000000000000000000000000000000000000000000000000000000000081565b34801561048557600080fd5b506104c9610494366004611b28565b6001602081905260009182526040909120805491015460ff808316926101008104909116916201000090910462ffffff169084565b60405161016a94939291909315158452911515602084015262ffffff166040830152606082015260800190565b34801561050257600080fd5b506103c57f000000000000000000000000000000000000000000000000000000000000000081565b34801561053657600080fd5b5061020b610545366004611ad3565b611437565b34801561055657600080fd5b506105846040518060400160405280600e81526020016d26b4b73a32b92437b63232b92b1960911b81525081565b60405161016a9190611eb1565b61016061034b366004611b28565b3480156105ab57600080fd5b506101a66105ba366004611b28565b61147c565b60006002600054036106185760405162461bcd60e51b815260206004820152601f60248201527f5265656e7472616e637947756172643a207265656e7472616e742063616c6c0060448201526064015b60405180910390fd5b60026000908155858152600160205260409020805460ff161561068b5760405162461bcd60e51b815260206004820152602560248201527f4d6178696d756d206e756d626572206f6620696e766f636174696f6e732072656044820152641858da195960da1b606482015260840161060f565b6001810154348111156106e05760405162461bcd60e51b815260206004820181905260248201527f4d7573742073656e64206d696e696d756d2076616c756520746f206d696e7421604482015260640161060f565b8154610100900460ff1661072d5760405162461bcd60e51b8152602060048201526014602482015273141c9a58d9481b9bdd0818dbdb999a59dd5c995960621b604482015260640161060f565b610738878787611437565b61077c5760405162461bcd60e51b81526020600482015260156024820152744f6e6c7920616c6c6f776c6973746564204e46547360581b604482015260640161060f565b336001600160a01b038516156108a457604051631574d39f60e31b81523360048201526001600160a01b0386811660248301527f000000000000000000000000000000000000000000000000000000000000000081166044830152606482018890526000917f00000000000000000000000000000000000000000000000000000000000000009091169063aba69cf890608401602060405180830381865afa15801561082c573d6000803e3d6000fd5b505050506040513d601f19601f820116820180604052508101906108509190611ed9565b90508061089f5760405162461bcd60e51b815260206004820152601e60248201527f496e76616c69642064656c65676174652d7661756c742070616972696e670000604482015260640161060f565b859150505b604051630d4d151360e01b81526001600160a01b038a81166004830152602482018a905282811660448301527f00000000000000000000000000000000000000000000000000000000000000001690630d4d1513906064016020604051808303816000875af115801561091b573d6000803e3d6000fd5b505050506040513d601f19601f8201168201806040525081019061093f9190611ef4565b835490945060001962ffffff6201000090920482160116620f424085060361096d57825460ff191660011783555b6040516331a9108f60e11b8152600481018790526001600160a01b038083169190891690636352211e90602401602060405180830381865afa1580156109b7573d6000803e3d6000fd5b505050506040513d601f19601f820116820180604052508101906109db9190611f0d565b6001600160a01b031614610a255760405162461bcd60e51b815260206004820152601160248201527013db9b1e481bdddb995c881bd988139195607a1b604482015260640161060f565b610a2f888361153e565b505050600160005595945050505050565b6000610a503385858560006105bf565b949350505050565b60405163230448b160e01b815263076bce2760e11b906001600160a01b037f0000000000000000000000000000000000000000000000000000000000000000169063230448b190610ab190339030908690600401611f2a565b6020604051808303816000875af1158015610ad0573d6000803e3d6000fd5b505050506040513d601f19601f82011682018060405250810190610af49190611ed9565b610b105760405162461bcd60e51b815260040161060f90611f57565b610b1b600283611887565b506040516001600160a01b038316907f7475e948f72f2714b1984b09949d13da2ddbae9f91e31da0faa380c0095b971c90600090a25050565b6000610b6386868686866105bf565b9695505050505050565b60405163a47d29cb60e01b81526004810182905281907f00000000000000000000000000000000000000000000000000000000000000006001600160a01b03169063a47d29cb90602401602060405180830381865afa158015610bd4573d6000803e3d6000fd5b505050506040513d601f19601f82011682018060405250810190610bf89190611f0d565b6001600160a01b0316336001600160a01b031614610c285760405162461bcd60e51b815260040161060f90611f8b565b60405162461bcd60e51b81526020600482015260146024820152731058dd1a5bdb881b9bdd081cdd5c1c1bdc9d195960621b604482015260640161060f565b60405163a47d29cb60e01b81526004810186905285907f00000000000000000000000000000000000000000000000000000000000000006001600160a01b03169063a47d29cb90602401602060405180830381865afa158015610cce573d6000803e3d6000fd5b505050506040513d601f19601f82011682018060405250810190610cf29190611f0d565b6001600160a01b0316336001600160a01b031614610d225760405162461bcd60e51b815260040161060f90611f8b565b610d2d868686610f4a565b610d38868484611215565b505050505050565b60405163230448b160e01b8152634ff5759d60e01b906001600160a01b037f0000000000000000000000000000000000000000000000000000000000000000169063230448b190610d9990339030908690600401611f2a565b6020604051808303816000875af1158015610db8573d6000803e3d6000fd5b505050506040513d601f19601f82011682018060405250810190610ddc9190611ed9565b610df85760405162461bcd60e51b815260040161060f90611f57565b610e036002836118a3565b506040516001600160a01b038316907f16e28d6cac0e892c58cee90af3dc883220abe36e25201d7117c4f3aaabf1c3f090600090a25050565b60405163a47d29cb60e01b81526004810183905282907f00000000000000000000000000000000000000000000000000000000000000006001600160a01b03169063a47d29cb90602401602060405180830381865afa158015610ea3573d6000803e3d6000fd5b505050506040513d601f19601f82011682018060405250810190610ec79190611f0d565b6001600160a01b0316336001600160a01b031614610ef75760405162461bcd60e51b815260040161060f90611f8b565b6000838152600160208190526040808320918201859055815461ff0019166101001790915551839185917f26118a27aca826f829f3bfe21b140b4455c00b434849bd0da50d1e1a9720fb5c9190a3505050565b60405163a47d29cb60e01b81526004810184905283907f00000000000000000000000000000000000000000000000000000000000000006001600160a01b03169063a47d29cb90602401602060405180830381865afa158015610fb1573d6000803e3d6000fd5b505050506040513d601f19601f82011682018060405250810190610fd59190611f0d565b6001600160a01b0316336001600160a01b0316146110055760405162461bcd60e51b815260040161060f90611f8b565b81518351146110565760405162461bcd60e51b815260206004820152601f60248201527f4c656e677468206f662061646420617272617973206d757374206d6174636800604482015260640161060f565b60005b835181101561117d5761108f84828151811061107757611077611fb0565b602002602001015160026118b890919063ffffffff16565b6110db5760405162461bcd60e51b815260206004820152601d60248201527f4f6e6c792052656769737465726564204e465420416464726573736573000000604482015260640161060f565b600085815260046020526040812085516001929087908590811061110157611101611fb0565b60200260200101516001600160a01b03166001600160a01b03168152602001908152602001600020600085848151811061113d5761113d611fb0565b6020026020010151815260200190815260200160002060006101000a81548160ff021916908315150217905550808061117590611fdc565b915050611059565b50837fba2ec6d92cd62364c8e443b484b3e1f72f1ee9e161c1f871de1a60d83c89558b84846040516111b0929190611ff5565b60405180910390a250505050565b60405162461bcd60e51b815260206004820152601860248201527704d75737420636c61696d204e4654206f776e6572736869760441b604482015260009060640161060f565b600061121060026118da565b905090565b60405163a47d29cb60e01b81526004810184905283907f00000000000000000000000000000000000000000000000000000000000000006001600160a01b03169063a47d29cb90602401602060405180830381865afa15801561127c573d6000803e3d6000fd5b505050506040513d601f19601f820116820180604052508101906112a09190611f0d565b6001600160a01b0316336001600160a01b0316146112d05760405162461bcd60e51b815260040161060f90611f8b565b815183511461132c5760405162461bcd60e51b815260206004820152602260248201527f4c656e677468206f662072656d6f766520617272617973206d757374206d61746044820152610c6d60f31b606482015260840161060f565b60005b83518110156113d85760008581526004602052604081208551829087908590811061135c5761135c611fb0565b60200260200101516001600160a01b03166001600160a01b03168152602001908152602001600020600085848151811061139857611398611fb0565b6020026020010151815260200190815260200160002060006101000a81548160ff02191690831515021790555080806113d090611fdc565b91505061132f565b50837f2e3dced83b61aee20d72f4bdc7e6997a0f8616af4067d3aa92afe2b9b0532d1c84846040516111b0929190611ff5565b600061141b8585858560006105bf565b95945050505050565b60006114316002836118e4565b92915050565b600080611447620f424084612079565b60009586526004602090815260408088206001600160a01b039790971688529581528587209187525250505090205460ff1690565b604051630ea5613f60e01b8152600481018290526000907f00000000000000000000000000000000000000000000000000000000000000006001600160a01b031690630ea5613f9060240160c060405180830381865afa1580156114e4573d6000803e3d6000fd5b505050506040513d601f19601f82011682018060405250810190611508919061209b565b50505060009485525060016020526040909320805462ffffff909416620100000264ffffff000019909416939093179092555050565b34156118835760008061155183346120fa565b905080156115e15760405133908290600081818185875af1925050503d8060008114611599576040519150601f19603f3d011682016040523d82523d6000602084013e61159e565b606091505b505080925050816115e15760405162461bcd60e51b815260206004820152600d60248201526c1499599d5b990819985a5b1959609a1b604482015260640161060f565b6000806000806000807f00000000000000000000000000000000000000000000000000000000000000006001600160a01b0316638639415b8b8b6040518363ffffffff1660e01b8152600401611641929190918252602082015260400190565b60c060405180830381865afa15801561165e573d6000803e3d6000fd5b505050506040513d601f19601f82011682018060405250810190611682919061210d565b9550955095509550955095506000861115611734576040516001600160a01b038616908790600081818185875af1925050503d80600081146116e0576040519150601f19603f3d011682016040523d82523d6000602084013e6116e5565b606091505b505080985050876117345760405162461bcd60e51b8152602060048201526019602482015278105c9d08109b1bd8dadcc81c185e5b595b9d0819985a5b1959603a1b604482015260640161060f565b83156117d3576040516001600160a01b038416908590600081818185875af1925050503d8060008114611783576040519150601f19603f3d011682016040523d82523d6000602084013e611788565b606091505b505080985050876117d35760405162461bcd60e51b8152602060048201526015602482015274105c9d1a5cdd081c185e5b595b9d0819985a5b1959605a1b604482015260640161060f565b811561187a576040516001600160a01b038216908390600081818185875af1925050503d8060008114611822576040519150601f19603f3d011682016040523d82523d6000602084013e611827565b606091505b5050809850508761187a5760405162461bcd60e51b815260206004820152601f60248201527f4164646974696f6e616c205061796565207061796d656e74206661696c656400604482015260640161060f565b50505050505050505b5050565b600061189c836001600160a01b0384166118f0565b9392505050565b600061189c836001600160a01b03841661193f565b6001600160a01b0381166000908152600183016020526040812054151561189c565b6000611431825490565b600061189c8383611a32565b600081815260018301602052604081205461193757508154600181810184556000848152602080822090930184905584548482528286019093526040902091909155611431565b506000611431565b60008181526001830160205260408120548015611a285760006119636001836120fa565b8554909150600090611977906001906120fa565b90508181146119dc57600086600001828154811061199757611997611fb0565b90600052602060002001549050808760000184815481106119ba576119ba611fb0565b6000918252602080832090910192909255918252600188019052604090208390555b85548690806119ed576119ed612176565b600190038181906000526020600020016000905590558560010160008681526020019081526020016000206000905560019350505050611431565b6000915050611431565b6000826000018281548110611a4957611a49611fb0565b9060005260206000200154905092915050565b6001600160a01b0381168114611a7157600080fd5b50565b600080600080600060a08688031215611a8c57600080fd5b8535611a9781611a5c565b9450602086013593506040860135611aae81611a5c565b9250606086013591506080860135611ac581611a5c565b809150509295509295909350565b600080600060608486031215611ae857600080fd5b833592506020840135611afa81611a5c565b929592945050506040919091013590565b600060208284031215611b1d57600080fd5b813561189c81611a5c565b600060208284031215611b3a57600080fd5b5035919050565b634e487b7160e01b600052604160045260246000fd5b604051601f8201601f191681016001600160401b0381118282101715611b7f57611b7f611b41565b604052919050565b60006001600160401b03821115611ba057611ba0611b41565b5060051b60200190565b600082601f830112611bbb57600080fd5b81356020611bd0611bcb83611b87565b611b57565b82815260059290921b84018101918181019086841115611bef57600080fd5b8286015b84811015611c13578035611c0681611a5c565b8352918301918301611bf3565b509695505050505050565b600082601f830112611c2f57600080fd5b81356020611c3f611bcb83611b87565b82815260059290921b84018101918181019086841115611c5e57600080fd5b8286015b84811015611c135780358352918301918301611c62565b600080600080600060a08688031215611c9157600080fd5b8535945060208601356001600160401b0380821115611caf57600080fd5b611cbb89838a01611baa565b95506040880135915080821115611cd157600080fd5b611cdd89838a01611c1e565b94506060880135915080821115611cf357600080fd5b611cff89838a01611baa565b93506080880135915080821115611d1557600080fd5b50611d2288828901611c1e565b9150509295509295909350565b60008060408385031215611d4257600080fd5b50508035926020909101359150565b6000815180845260005b81811015611d7757602081850181015186830182015201611d5b565b506000602082860101526020601f19601f83011685010191505092915050565b8415158152836020820152608060408201526000611db86080830185611d51565b905060018060a01b038316606083015295945050505050565b600080600060608486031215611de657600080fd5b8335925060208401356001600160401b0380821115611e0457600080fd5b611e1087838801611baa565b93506040860135915080821115611e2657600080fd5b50611e3386828701611c1e565b9150509250925092565b60008060408385031215611e5057600080fd5b8235611e5b81611a5c565b946020939093013593505050565b60008060008060808587031215611e7f57600080fd5b8435611e8a81611a5c565b9350602085013592506040850135611ea181611a5c565b9396929550929360600135925050565b60208152600061189c6020830184611d51565b80518015158114611ed457600080fd5b919050565b600060208284031215611eeb57600080fd5b61189c82611ec4565b600060208284031215611f0657600080fd5b5051919050565b600060208284031215611f1f57600080fd5b815161189c81611a5c565b6001600160a01b0393841681529190921660208201526001600160e01b0319909116604082015260600190565b6020808252601a908201527913db9b1e4810dbdc994810591b5a5b9050d308185b1b1bddd95960321b604082015260600190565b6020808252600b908201526a13db9b1e48105c9d1a5cdd60aa1b604082015260600190565b634e487b7160e01b600052603260045260246000fd5b634e487b7160e01b600052601160045260246000fd5b600060018201611fee57611fee611fc6565b5060010190565b604080825283519082018190526000906020906060840190828701845b828110156120375781516001600160a01b031684529284019290840190600101612012565b5050508381038285015284518082528583019183019060005b8181101561206c57835183529284019291840191600101612050565b5090979650505050505050565b60008261209657634e487b7160e01b600052601260045260246000fd5b500490565b60008060008060008060c087890312156120b457600080fd5b86519550602087015194506120cb60408801611ec4565b93506120d960608801611ec4565b9250608087015191506120ee60a08801611ec4565b90509295509295509295565b8181038181111561143157611431611fc6565b60008060008060008060c0878903121561212657600080fd5b86519550602087015161213881611a5c565b60408801516060890151919650945061215081611a5c565b608088015160a0890151919450925061216881611a5c565b809150509295509295509295565b634e487b7160e01b600052603160045260246000fdfea26469706673582212207e49dbfac973b50e24712ddc485f160e595fdc857cd346a3508de0f86cf43f6364736f6c63430008110033",
  "linkReferences": {},
  "deployedLinkReferences": {}
}