{
  "_format": "hh-sol-artifact-1",
  "contractName": "MinterHolderV0",
  "sourceName": "contracts/minter-suite/MinterHolderV0.sol",
  "abi": [
    {
      "inputs": [
        {
          "internalType": "address",
          "name": "_genArt721Address",
          "type": "address"
        },
        {
          "internalType": "address",
          "name": "_minterFilter",
          "type": "address"
        }
      ],
      "stateMutability": "nonpayable",
      "type": "constructor"
    },
    {
      "anonymous": false,
      "inputs": [
        {
          "indexed": true,
          "internalType": "uint256",
          "name": "_projectId",
          "type": "uint256"
        },
        {
          "indexed": false,
          "internalType": "address",
          "name": "_ownedNFTAddress",
          "type": "address"
        },
        {
          "indexed": false,
          "internalType": "uint256",
          "name": "_ownedNFTProjectId",
          "type": "uint256"
        }
      ],
      "name": "AllowHoldersOfProject",
      "type": "event"
    },
    {
      "anonymous": false,
      "inputs": [
        {
          "indexed": true,
          "internalType": "uint256",
          "name": "_projectId",
          "type": "uint256"
        },
        {
          "indexed": true,
          "internalType": "uint256",
          "name": "_pricePerTokenInWei",
          "type": "uint256"
        }
      ],
      "name": "PricePerTokenInWeiUpdated",
      "type": "event"
    },
    {
      "anonymous": false,
      "inputs": [
        {
          "indexed": true,
          "internalType": "uint256",
          "name": "_projectId",
          "type": "uint256"
        },
        {
          "indexed": true,
          "internalType": "address",
          "name": "_currencyAddress",
          "type": "address"
        },
        {
          "indexed": false,
          "internalType": "string",
          "name": "_currencySymbol",
          "type": "string"
        }
      ],
      "name": "ProjectCurrencyInfoUpdated",
      "type": "event"
    },
    {
      "anonymous": false,
      "inputs": [
        {
          "indexed": true,
          "internalType": "uint256",
          "name": "_projectId",
          "type": "uint256"
        },
        {
          "indexed": false,
          "internalType": "bool",
          "name": "_purchaseToDisabled",
          "type": "bool"
        }
      ],
      "name": "PurchaseToDisabledUpdated",
      "type": "event"
    },
    {
      "anonymous": false,
      "inputs": [
        {
          "indexed": true,
          "internalType": "address",
          "name": "_NFTAddress",
          "type": "address"
        }
      ],
      "name": "RegisteredNFTAddress",
      "type": "event"
    },
    {
      "anonymous": false,
      "inputs": [
        {
          "indexed": true,
          "internalType": "uint256",
          "name": "_projectId",
          "type": "uint256"
        },
        {
          "indexed": false,
          "internalType": "address",
          "name": "_ownedNFTAddress",
          "type": "address"
        },
        {
          "indexed": false,
          "internalType": "uint256",
          "name": "_ownedNFTProjectId",
          "type": "uint256"
        }
      ],
      "name": "RemovedHoldersOfProject",
      "type": "event"
    },
    {
      "anonymous": false,
      "inputs": [
        {
          "indexed": true,
          "internalType": "address",
          "name": "_NFTAddress",
          "type": "address"
        }
      ],
      "name": "UnregisteredNFTAddress",
      "type": "event"
    },
    {
      "inputs": [
        {
          "internalType": "uint256",
          "name": "_projectId",
          "type": "uint256"
        },
        {
          "internalType": "address",
          "name": "_ownedNFTAddress",
          "type": "address"
        },
        {
          "internalType": "uint256",
          "name": "_ownedNFTProjectId",
          "type": "uint256"
        }
      ],
      "name": "allowHoldersOfProject",
      "outputs": [],
      "stateMutability": "nonpayable",
      "type": "function"
    },
    {
      "inputs": [
        {
          "internalType": "uint256",
          "name": "",
          "type": "uint256"
        },
        {
          "internalType": "address",
          "name": "",
          "type": "address"
        },
        {
          "internalType": "uint256",
          "name": "",
          "type": "uint256"
        }
      ],
      "name": "allowedProjectHolders",
      "outputs": [
        {
          "internalType": "bool",
          "name": "",
          "type": "bool"
        }
      ],
      "stateMutability": "view",
      "type": "function"
    },
    {
      "inputs": [],
      "name": "genArt721CoreAddress",
      "outputs": [
        {
          "internalType": "address",
          "name": "",
          "type": "address"
        }
      ],
      "stateMutability": "view",
      "type": "function"
    },
    {
      "inputs": [],
      "name": "getNumRegisteredNFTAddresses",
      "outputs": [
        {
          "internalType": "uint256",
          "name": "",
          "type": "uint256"
        }
      ],
      "stateMutability": "view",
      "type": "function"
    },
    {
      "inputs": [
        {
          "internalType": "uint256",
          "name": "_projectId",
          "type": "uint256"
        }
      ],
      "name": "getPriceInfo",
      "outputs": [
        {
          "internalType": "bool",
          "name": "isConfigured",
          "type": "bool"
        },
        {
          "internalType": "uint256",
          "name": "tokenPriceInWei",
          "type": "uint256"
        },
        {
          "internalType": "string",
          "name": "currencySymbol",
          "type": "string"
        },
        {
          "internalType": "address",
          "name": "currencyAddress",
          "type": "address"
        }
      ],
      "stateMutability": "view",
      "type": "function"
    },
    {
      "inputs": [
        {
          "internalType": "uint256",
          "name": "_index",
          "type": "uint256"
        }
      ],
      "name": "getRegisteredNFTAddressAt",
      "outputs": [
        {
          "internalType": "address",
          "name": "NFTAddress",
          "type": "address"
        }
      ],
      "stateMutability": "view",
      "type": "function"
    },
    {
      "inputs": [
        {
          "internalType": "uint256",
          "name": "_projectId",
          "type": "uint256"
        },
        {
          "internalType": "address",
          "name": "_ownedNFTAddress",
          "type": "address"
        },
        {
          "internalType": "uint256",
          "name": "_ownedNFTTokenId",
          "type": "uint256"
        }
      ],
      "name": "isAllowlistedNFT",
      "outputs": [
        {
          "internalType": "bool",
          "name": "",
          "type": "bool"
        }
      ],
      "stateMutability": "view",
      "type": "function"
    },
    {
      "inputs": [],
      "name": "minterFilterAddress",
      "outputs": [
        {
          "internalType": "address",
          "name": "",
          "type": "address"
        }
      ],
      "stateMutability": "view",
      "type": "function"
    },
    {
      "inputs": [],
      "name": "minterType",
      "outputs": [
        {
          "internalType": "string",
          "name": "",
          "type": "string"
        }
      ],
      "stateMutability": "view",
      "type": "function"
    },
    {
      "inputs": [
        {
          "internalType": "uint256",
          "name": "",
          "type": "uint256"
        }
      ],
      "name": "projectMaxHasBeenInvoked",
      "outputs": [
        {
          "internalType": "bool",
          "name": "",
          "type": "bool"
        }
      ],
      "stateMutability": "view",
      "type": "function"
    },
    {
      "inputs": [
        {
          "internalType": "uint256",
          "name": "",
          "type": "uint256"
        }
      ],
      "name": "projectMaxInvocations",
      "outputs": [
        {
          "internalType": "uint256",
          "name": "",
          "type": "uint256"
        }
      ],
      "stateMutability": "view",
      "type": "function"
    },
    {
      "inputs": [
        {
          "internalType": "uint256",
          "name": "_projectId",
          "type": "uint256"
        },
        {
          "internalType": "address",
          "name": "_ownedNFTAddress",
          "type": "address"
        },
        {
          "internalType": "uint256",
          "name": "_ownedNFTTokenId",
          "type": "uint256"
        }
      ],
      "name": "purchase",
      "outputs": [
        {
          "internalType": "uint256",
          "name": "tokenId",
          "type": "uint256"
        }
      ],
      "stateMutability": "payable",
      "type": "function"
    },
    {
      "inputs": [
        {
          "internalType": "uint256",
          "name": "",
          "type": "uint256"
        }
      ],
      "name": "purchase",
      "outputs": [
        {
          "internalType": "uint256",
          "name": "",
          "type": "uint256"
        }
      ],
      "stateMutability": "payable",
      "type": "function"
    },
    {
      "inputs": [
        {
          "internalType": "address",
          "name": "",
          "type": "address"
        },
        {
          "internalType": "uint256",
          "name": "",
          "type": "uint256"
        }
      ],
      "name": "purchaseTo",
      "outputs": [
        {
          "internalType": "uint256",
          "name": "",
          "type": "uint256"
        }
      ],
      "stateMutability": "payable",
      "type": "function"
    },
    {
      "inputs": [
        {
          "internalType": "address",
          "name": "_to",
          "type": "address"
        },
        {
          "internalType": "uint256",
          "name": "_projectId",
          "type": "uint256"
        },
        {
          "internalType": "address",
          "name": "_ownedNFTAddress",
          "type": "address"
        },
        {
          "internalType": "uint256",
          "name": "_ownedNFTTokenId",
          "type": "uint256"
        }
      ],
      "name": "purchaseTo",
      "outputs": [
        {
          "internalType": "uint256",
          "name": "tokenId",
          "type": "uint256"
        }
      ],
      "stateMutability": "payable",
      "type": "function"
    },
    {
      "inputs": [
        {
          "internalType": "address",
          "name": "_NFTAddress",
          "type": "address"
        }
      ],
      "name": "registerNFTAddress",
      "outputs": [],
      "stateMutability": "nonpayable",
      "type": "function"
    },
    {
      "inputs": [
        {
          "internalType": "uint256",
          "name": "_projectId",
          "type": "uint256"
        },
        {
          "internalType": "address",
          "name": "_ownedNFTAddress",
          "type": "address"
        },
        {
          "internalType": "uint256",
          "name": "_ownedNFTProjectId",
          "type": "uint256"
        }
      ],
      "name": "removeHoldersOfProject",
      "outputs": [],
      "stateMutability": "nonpayable",
      "type": "function"
    },
    {
      "inputs": [
        {
          "internalType": "uint256",
          "name": "_projectId",
          "type": "uint256"
        }
      ],
      "name": "setProjectMaxInvocations",
      "outputs": [],
      "stateMutability": "nonpayable",
      "type": "function"
    },
    {
      "inputs": [
        {
          "internalType": "uint256",
          "name": "_projectId",
          "type": "uint256"
        }
      ],
      "name": "togglePurchaseToDisabled",
      "outputs": [],
      "stateMutability": "view",
      "type": "function"
    },
    {
      "inputs": [
        {
          "internalType": "address",
          "name": "_NFTAddress",
          "type": "address"
        }
      ],
      "name": "unregisterNFTAddress",
      "outputs": [],
      "stateMutability": "nonpayable",
      "type": "function"
    },
    {
      "inputs": [
        {
          "internalType": "uint256",
          "name": "_projectId",
          "type": "uint256"
        },
        {
          "internalType": "uint256",
          "name": "_pricePerTokenInWei",
          "type": "uint256"
        }
      ],
      "name": "updatePricePerTokenInWei",
      "outputs": [],
      "stateMutability": "nonpayable",
      "type": "function"
    }
  ],
  "bytecode": "0x6101006040523480156200001257600080fd5b50604051620020fb380380620020fb833981016040819052620000359162000157565b600160009081556001600160a01b03808416608081905260a081905290831660c081905260e0819052604080516392a10f8360e01b81529051929391926392a10f8392600480840193602093929083900390910190829087803b1580156200009c57600080fd5b505af1158015620000b1573d6000803e3d6000fd5b505050506040513d601f19601f82011682018060405250810190620000d791906200018f565b6001600160a01b031614620001325760405162461bcd60e51b815260206004820152601860248201527f496c6c6567616c20636f6e74726163742070616972696e670000000000000000604482015260640160405180910390fd5b5050620001b4565b80516001600160a01b03811681146200015257600080fd5b919050565b600080604083850312156200016b57600080fd5b62000176836200013a565b915062000186602084016200013a565b90509250929050565b600060208284031215620001a257600080fd5b620001ad826200013a565b9392505050565b60805160a05160c05160e051611eb2620002496000396000610cb4015260006103dc0152600081816104aa015281816105af015281816106b7015281816107b30152818161096101528181610e9901528181611011015281816110d5015281816112a90152818161135801528181611498015281816115530152818161160a0152611757015260006103330152611eb26000f3fe60806040526004361061012a5760003560e01c806390d355b7116100ab578063dad312b21161006f578063dad312b2146103aa578063dd85582f146103ca578063e2849bd5146103fe578063e9d1e8ac1461041e578063efef39a114610465578063f7bd4b881461047357600080fd5b806390d355b7146102e057806392a10f831461032157806399c0bbdc14610362578063b00abb6414610377578063bc8ff0011461038a57600080fd5b80635a828fd8116100f25780635a828fd814610211578063650e5d6d146102315780636cb9b7ff14610244578063774159c614610264578063891407c0146102cd57600080fd5b80630ed79c4e1461012f57806340d1397e14610151578063462add46146101715780634ff5759d146101b657806356690aaf146101d6575b600080fd5b34801561013b57600080fd5b5061014f61014a366004611a0a565b610493565b005b34801561015d57600080fd5b5061014f61016c366004611a27565b610597565b34801561017d57600080fd5b506101a161018c366004611a27565b60036020526000908152604090205460ff1681565b60405190151581526020015b60405180910390f35b3480156101c257600080fd5b5061014f6101d1366004611a0a565b6106a0565b3480156101e257600080fd5b506102036101f1366004611a27565b60046020526000908152604090205481565b6040519081526020016101ad565b34801561021d57600080fd5b5061014f61022c366004611a40565b61079b565b61020361023f366004611a40565b610933565b34801561025057600080fd5b5061014f61025f366004611a78565b610949565b34801561027057600080fd5b506102bd61027f366004611a27565b60009081526006602090815260408083205460058352818420548251808401909352600383526208aa8960eb1b9383019390935260ff169391929091565b6040516101ad9493929190611af6565b6102036102db366004611b30565b610a68565b3480156102ec57600080fd5b506101a16102fb366004611a40565b600760209081526000938452604080852082529284528284209052825290205460ff1681565b34801561032d57600080fd5b506103557f000000000000000000000000000000000000000000000000000000000000000081565b6040516101ad9190611b5c565b34801561036e57600080fd5b50610203610aae565b610203610385366004611b70565b610abf565b34801561039657600080fd5b506103556103a5366004611a27565b610e6e565b3480156103b657600080fd5b5061014f6103c5366004611a40565b610e81565b3480156103d657600080fd5b506103557f000000000000000000000000000000000000000000000000000000000000000081565b34801561040a57600080fd5b506101a1610419366004611a40565b610fb5565b34801561042a57600080fd5b506104586040518060400160405280600e81526020016d04d696e746572486f6c64657256360941b81525081565b6040516101ad9190611bb8565b6102036102db366004611a27565b34801561047f57600080fd5b5061014f61048e366004611a27565b610ffa565b604051633af32abf60e01b81526001600160a01b037f00000000000000000000000000000000000000000000000000000000000000001690633af32abf906104df903390600401611b5c565b60206040518083038186803b1580156104f757600080fd5b505afa15801561050b573d6000803e3d6000fd5b505050506040513d601f19601f8201168201806040525081019061052f9190611be0565b6105545760405162461bcd60e51b815260040161054b90611bfb565b60405180910390fd5b61055f600182611194565b506040516001600160a01b038216907f7475e948f72f2714b1984b09949d13da2ddbae9f91e31da0faa380c0095b971c90600090a250565b60405163a47d29cb60e01b81526004810182905281907f00000000000000000000000000000000000000000000000000000000000000006001600160a01b03169063a47d29cb9060240160206040518083038186803b1580156105f957600080fd5b505afa15801561060d573d6000803e3d6000fd5b505050506040513d601f19601f820116820180604052508101906106319190611c2a565b6001600160a01b0316336001600160a01b0316146106615760405162461bcd60e51b815260040161054b90611c47565b60405162461bcd60e51b81526020600482015260146024820152731058dd1a5bdb881b9bdd081cdd5c1c1bdc9d195960621b604482015260640161054b565b604051633af32abf60e01b81526001600160a01b037f00000000000000000000000000000000000000000000000000000000000000001690633af32abf906106ec903390600401611b5c565b60206040518083038186803b15801561070457600080fd5b505afa158015610718573d6000803e3d6000fd5b505050506040513d601f19601f8201168201806040525081019061073c9190611be0565b6107585760405162461bcd60e51b815260040161054b90611bfb565b6107636001826111b0565b506040516001600160a01b038216907f16e28d6cac0e892c58cee90af3dc883220abe36e25201d7117c4f3aaabf1c3f090600090a250565b60405163a47d29cb60e01b81526004810184905283907f00000000000000000000000000000000000000000000000000000000000000006001600160a01b03169063a47d29cb9060240160206040518083038186803b1580156107fd57600080fd5b505afa158015610811573d6000803e3d6000fd5b505050506040513d601f19601f820116820180604052508101906108359190611c2a565b6001600160a01b0316336001600160a01b0316146108655760405162461bcd60e51b815260040161054b90611c47565b6108706001846111c5565b6108bc5760405162461bcd60e51b815260206004820152601d60248201527f4f6e6c792052656769737465726564204e465420416464726573736573000000604482015260640161054b565b60008481526007602090815260408083206001600160a01b038716808552908352818420868552835292819020805460ff19166001179055805192835290820184905285917f49dd5e9dc523feed9a39823494b254dbcfdfa94e5b92f41b308298d81a47ea5c91015b60405180910390a250505050565b600061094133858585610abf565b949350505050565b60405163a47d29cb60e01b81526004810183905282907f00000000000000000000000000000000000000000000000000000000000000006001600160a01b03169063a47d29cb9060240160206040518083038186803b1580156109ab57600080fd5b505afa1580156109bf573d6000803e3d6000fd5b505050506040513d601f19601f820116820180604052508101906109e39190611c2a565b6001600160a01b0316336001600160a01b031614610a135760405162461bcd60e51b815260040161054b90611c47565b60008381526005602090815260408083208590556006909152808220805460ff1916600117905551839185917f26118a27aca826f829f3bfe21b140b4455c00b434849bd0da50d1e1a9720fb5c9190a3505050565b60405162461bcd60e51b815260206004820152601860248201527704d75737420636c61696d204e4654206f776e6572736869760441b604482015260009060640161054b565b6000610aba60016111e7565b905090565b600060026000541415610b145760405162461bcd60e51b815260206004820152601f60248201527f5265656e7472616e637947756172643a207265656e7472616e742063616c6c00604482015260640161054b565b600260009081558481526003602052604090205460ff1615610b865760405162461bcd60e51b815260206004820152602560248201527f4d6178696d756d206e756d626572206f6620696e766f636174696f6e732072656044820152641858da195960da1b606482015260840161054b565b600084815260056020526040902054341015610be45760405162461bcd60e51b815260206004820181905260248201527f4d7573742073656e64206d696e696d756d2076616c756520746f206d696e7421604482015260640161054b565b60008481526006602052604090205460ff16610c395760405162461bcd60e51b8152602060048201526014602482015273141c9a58d9481b9bdd0818dbdb999a59dd5c995960621b604482015260640161054b565b610c44848484610fb5565b610c885760405162461bcd60e51b81526020600482015260156024820152744f6e6c7920616c6c6f776c6973746564204e46547360581b604482015260640161054b565b604051630d4d151360e01b81526001600160a01b038681166004830152602482018690523360448301527f00000000000000000000000000000000000000000000000000000000000000001690630d4d151390606401602060405180830381600087803b158015610cf857600080fd5b505af1158015610d0c573d6000803e3d6000fd5b505050506040513d601f19601f82011682018060405250810190610d309190611c6c565b60008581526004602052604090205490915015801590610d755750600084815260046020526040902054610d6690600190611c9b565b610d73620f424083611cc8565b145b15610d94576000848152600360205260409020805460ff191660011790555b6040516331a9108f60e11b81526004810183905233906001600160a01b03851690636352211e9060240160206040518083038186803b158015610dd657600080fd5b505afa158015610dea573d6000803e3d6000fd5b505050506040513d601f19601f82011682018060405250810190610e0e9190611c2a565b6001600160a01b031614610e585760405162461bcd60e51b815260206004820152601160248201527013db9b1e481bdddb995c881bd988139195607a1b604482015260640161054b565b610e61846111f1565b6001600055949350505050565b6000610e7b60018361187d565b92915050565b60405163a47d29cb60e01b81526004810184905283907f00000000000000000000000000000000000000000000000000000000000000006001600160a01b03169063a47d29cb9060240160206040518083038186803b158015610ee357600080fd5b505afa158015610ef7573d6000803e3d6000fd5b505050506040513d601f19601f82011682018060405250810190610f1b9190611c2a565b6001600160a01b0316336001600160a01b031614610f4b5760405162461bcd60e51b815260040161054b90611c47565b60008481526007602090815260408083206001600160a01b038716808552908352818420868552835292819020805460ff19169055805192835290820184905285917fd91ae06afe9ab463dd81383f6cc67c3cbab67aeda5c2bea207ca9c7e327635ec9101610925565b600080610fc5620f424084611ce7565b60009586526007602090815260408088206001600160a01b039790971688529581528587209187525250505090205460ff1690565b604051633af32abf60e01b81526001600160a01b037f00000000000000000000000000000000000000000000000000000000000000001690633af32abf90611046903390600401611b5c565b60206040518083038186803b15801561105e57600080fd5b505afa158015611072573d6000803e3d6000fd5b505050506040513d601f19601f820116820180604052508101906110969190611be0565b6110b25760405162461bcd60e51b815260040161054b90611bfb565b6040516346161b1160e11b81526004810182905260009081906001600160a01b037f00000000000000000000000000000000000000000000000000000000000000001690638c2c36229060240160006040518083038186803b15801561111757600080fd5b505afa15801561112b573d6000803e3d6000fd5b505050506040513d6000823e601f3d908101601f191682016040526111539190810190611d11565b50505060008981526004602052604090208390555091955093505050508082101561118f576000838152600360205260409020805460ff191690555b505050565b60006111a9836001600160a01b038416611889565b9392505050565b60006111a9836001600160a01b0384166118d8565b6001600160a01b038116600090815260018301602052604081205415156111a9565b6000610e7b825490565b341561187a57600081815260056020526040812054906112118234611c9b565b905080156112a357604051600090339083908381818185875af1925050503d806000811461125b576040519150601f19603f3d011682016040523d82523d6000602084013e611260565b606091505b50509050806112a15760405162461bcd60e51b815260206004820152600d60248201526c1499599d5b990819985a5b1959609a1b604482015260640161054b565b505b600060647f00000000000000000000000000000000000000000000000000000000000000006001600160a01b0316634f029c396040518163ffffffff1660e01b815260040160206040518083038186803b15801561130057600080fd5b505afa158015611314573d6000803e3d6000fd5b505050506040513d601f19601f820116820180604052508101906113389190611c6c565b6113429085611e31565b61134c9190611ce7565b905080156114855760007f00000000000000000000000000000000000000000000000000000000000000006001600160a01b0316633949f9066040518163ffffffff1660e01b815260040160206040518083038186803b1580156113af57600080fd5b505afa1580156113c3573d6000803e3d6000fd5b505050506040513d601f19601f820116820180604052508101906113e79190611c2a565b6001600160a01b03168260405160006040518083038185875af1925050503d8060008114611431576040519150601f19603f3d011682016040523d82523d6000602084013e611436565b606091505b50509050806114835760405162461bcd60e51b8152602060048201526019602482015278119bdd5b99185d1a5bdb881c185e5b595b9d0819985a5b1959603a1b604482015260640161054b565b505b60006114918285611c9b565b90506000807f00000000000000000000000000000000000000000000000000000000000000006001600160a01b031663cc74234b886040518263ffffffff1660e01b81526004016114e491815260200190565b60206040518083038186803b1580156114fc57600080fd5b505afa158015611510573d6000803e3d6000fd5b505050506040513d601f19601f820116820180604052508101906115349190611c6c565b111561172a5760405163cc74234b60e01b8152600481018790526064907f00000000000000000000000000000000000000000000000000000000000000006001600160a01b03169063cc74234b9060240160206040518083038186803b15801561159d57600080fd5b505afa1580156115b1573d6000803e3d6000fd5b505050506040513d601f19601f820116820180604052508101906115d59190611c6c565b6115df9084611e31565b6115e99190611ce7565b9050801561172a57604051636bd8225b60e11b8152600481018790526000907f00000000000000000000000000000000000000000000000000000000000000006001600160a01b03169063d7b044b69060240160206040518083038186803b15801561165457600080fd5b505afa158015611668573d6000803e3d6000fd5b505050506040513d601f19601f8201168201806040525081019061168c9190611c2a565b6001600160a01b03168260405160006040518083038185875af1925050503d80600081146116d6576040519150601f19603f3d011682016040523d82523d6000602084013e6116db565b606091505b50509050806117285760405162461bcd60e51b81526020600482015260196024820152781059191a5d1a5bdb985b081c185e5b595b9d0819985a5b1959603a1b604482015260640161054b565b505b60006117368284611c9b565b905080156118735760405163a47d29cb60e01b8152600481018890526000907f00000000000000000000000000000000000000000000000000000000000000006001600160a01b03169063a47d29cb9060240160206040518083038186803b1580156117a157600080fd5b505afa1580156117b5573d6000803e3d6000fd5b505050506040513d601f19601f820116820180604052508101906117d99190611c2a565b6001600160a01b03168260405160006040518083038185875af1925050503d8060008114611823576040519150601f19603f3d011682016040523d82523d6000602084013e611828565b606091505b50509050806118715760405162461bcd60e51b8152602060048201526015602482015274105c9d1a5cdd081c185e5b595b9d0819985a5b1959605a1b604482015260640161054b565b505b5050505050505b50565b60006111a983836119cb565b60008181526001830160205260408120546118d057508154600181810184556000848152602080822090930184905584548482528286019093526040902091909155610e7b565b506000610e7b565b600081815260018301602052604081205480156119c15760006118fc600183611c9b565b855490915060009061191090600190611c9b565b905081811461197557600086600001828154811061193057611930611e50565b906000526020600020015490508087600001848154811061195357611953611e50565b6000918252602080832090910192909255918252600188019052604090208390555b855486908061198657611986611e66565b600190038181906000526020600020016000905590558560010160008681526020019081526020016000206000905560019350505050610e7b565b6000915050610e7b565b60008260000182815481106119e2576119e2611e50565b9060005260206000200154905092915050565b6001600160a01b038116811461187a57600080fd5b600060208284031215611a1c57600080fd5b81356111a9816119f5565b600060208284031215611a3957600080fd5b5035919050565b600080600060608486031215611a5557600080fd5b833592506020840135611a67816119f5565b929592945050506040919091013590565b60008060408385031215611a8b57600080fd5b50508035926020909101359150565b60005b83811015611ab5578181015183820152602001611a9d565b83811115611ac4576000848401525b50505050565b60008151808452611ae2816020860160208601611a9a565b601f01601f19169290920160200192915050565b8415158152836020820152608060408201526000611b176080830185611aca565b905060018060a01b038316606083015295945050505050565b60008060408385031215611b4357600080fd5b8235611b4e816119f5565b946020939093013593505050565b6001600160a01b0391909116815260200190565b60008060008060808587031215611b8657600080fd5b8435611b91816119f5565b9350602085013592506040850135611ba8816119f5565b9396929550929360600135925050565b6020815260006111a96020830184611aca565b80518015158114611bdb57600080fd5b919050565b600060208284031215611bf257600080fd5b6111a982611bcb565b60208082526015908201527413db9b1e4810dbdc99481dda1a5d195b1a5cdd1959605a1b604082015260600190565b600060208284031215611c3c57600080fd5b81516111a9816119f5565b6020808252600b908201526a13db9b1e48105c9d1a5cdd60aa1b604082015260600190565b600060208284031215611c7e57600080fd5b5051919050565b634e487b7160e01b600052601160045260246000fd5b600082821015611cad57611cad611c85565b500390565b634e487b7160e01b600052601260045260246000fd5b600082611cd757611cd7611cb2565b500690565b8051611bdb816119f5565b600082611cf657611cf6611cb2565b500490565b634e487b7160e01b600052604160045260246000fd5b60008060008060008060008060006101208a8c031215611d3057600080fd5b8951611d3b816119f5565b8099505060208a0151975060408a0151965060608a01519550611d6060808b01611bcb565b945060a08a0151611d70816119f5565b60c08b015160e08c0151919550935067ffffffffffffffff80821115611d9557600080fd5b818c0191508c601f830112611da957600080fd5b815181811115611dbb57611dbb611cfb565b604051601f8201601f19908116603f01168101908382118183101715611de357611de3611cfb565b816040528281528f6020848701011115611dfc57600080fd5b611e0d836020830160208801611a9a565b8096505050505050611e226101008b01611cdc565b90509295985092959850929598565b6000816000190483118215151615611e4b57611e4b611c85565b500290565b634e487b7160e01b600052603260045260246000fd5b634e487b7160e01b600052603160045260246000fdfea26469706673582212209a099a2e011aea91c310d884e2e423fc5fc127bf038c50dd770e446e0ee10fff64736f6c63430008090033",
  "linkReferences": {},
  "deployedLinkReferences": {}
}