{
  "_format": "hh-sol-artifact-1",
  "contractName": "MinterFilterV1",
  "sourceName": "contracts/minter-suite/MinterFilter/MinterFilterV1.sol",
  "abi": [
    {
      "inputs": [
        {
          "internalType": "address",
          "name": "_genArt721Address",
          "type": "address"
        }
      ],
      "stateMutability": "nonpayable",
      "type": "constructor"
    },
    {
      "anonymous": false,
      "inputs": [],
      "name": "Deployed",
      "type": "event"
    },
    {
      "anonymous": false,
      "inputs": [
        {
          "indexed": true,
          "internalType": "address",
          "name": "_minterAddress",
          "type": "address"
        },
        {
          "indexed": false,
          "internalType": "string",
          "name": "_minterType",
          "type": "string"
        }
      ],
      "name": "MinterApproved",
      "type": "event"
    },
    {
      "anonymous": false,
      "inputs": [
        {
          "indexed": true,
          "internalType": "address",
          "name": "_minterAddress",
          "type": "address"
        }
      ],
      "name": "MinterRevoked",
      "type": "event"
    },
    {
      "anonymous": false,
      "inputs": [
        {
          "indexed": true,
          "internalType": "uint256",
          "name": "_projectId",
          "type": "uint256"
        },
        {
          "indexed": true,
          "internalType": "address",
          "name": "_minterAddress",
          "type": "address"
        },
        {
          "indexed": false,
          "internalType": "string",
          "name": "_minterType",
          "type": "string"
        }
      ],
      "name": "ProjectMinterRegistered",
      "type": "event"
    },
    {
      "anonymous": false,
      "inputs": [
        {
          "indexed": true,
          "internalType": "uint256",
          "name": "_projectId",
          "type": "uint256"
        }
      ],
      "name": "ProjectMinterRemoved",
      "type": "event"
    },
    {
      "inputs": [
        {
          "internalType": "address",
          "name": "_minterAddress",
          "type": "address"
        }
      ],
      "name": "addApprovedMinter",
      "outputs": [],
      "stateMutability": "nonpayable",
      "type": "function"
    },
    {
      "inputs": [],
      "name": "genArt721CoreAddress",
      "outputs": [
        {
          "internalType": "address",
          "name": "",
          "type": "address"
        }
      ],
      "stateMutability": "view",
      "type": "function"
    },
    {
      "inputs": [
        {
          "internalType": "uint256",
          "name": "_projectId",
          "type": "uint256"
        }
      ],
      "name": "getMinterForProject",
      "outputs": [
        {
          "internalType": "address",
          "name": "",
          "type": "address"
        }
      ],
      "stateMutability": "view",
      "type": "function"
    },
    {
      "inputs": [],
      "name": "getNumProjectsWithMinters",
      "outputs": [
        {
          "internalType": "uint256",
          "name": "",
          "type": "uint256"
        }
      ],
      "stateMutability": "view",
      "type": "function"
    },
    {
      "inputs": [
        {
          "internalType": "uint256",
          "name": "_index",
          "type": "uint256"
        }
      ],
      "name": "getProjectAndMinterInfoAt",
      "outputs": [
        {
          "internalType": "uint256",
          "name": "projectId",
          "type": "uint256"
        },
        {
          "internalType": "address",
          "name": "minterAddress",
          "type": "address"
        },
        {
          "internalType": "string",
          "name": "minterType",
          "type": "string"
        }
      ],
      "stateMutability": "view",
      "type": "function"
    },
    {
      "inputs": [
        {
          "internalType": "address",
          "name": "",
          "type": "address"
        }
      ],
      "name": "isApprovedMinter",
      "outputs": [
        {
          "internalType": "bool",
          "name": "",
          "type": "bool"
        }
      ],
      "stateMutability": "view",
      "type": "function"
    },
    {
      "inputs": [
        {
          "internalType": "address",
          "name": "_to",
          "type": "address"
        },
        {
          "internalType": "uint256",
          "name": "_projectId",
          "type": "uint256"
        },
        {
          "internalType": "address",
          "name": "sender",
          "type": "address"
        }
      ],
      "name": "mint",
      "outputs": [
        {
          "internalType": "uint256",
          "name": "_tokenId",
          "type": "uint256"
        }
      ],
      "stateMutability": "nonpayable",
      "type": "function"
    },
    {
      "inputs": [],
      "name": "minterFilterType",
      "outputs": [
        {
          "internalType": "string",
          "name": "",
          "type": "string"
        }
      ],
      "stateMutability": "pure",
      "type": "function"
    },
    {
      "inputs": [],
      "name": "minterFilterVersion",
      "outputs": [
        {
          "internalType": "string",
          "name": "",
          "type": "string"
        }
      ],
      "stateMutability": "pure",
      "type": "function"
    },
    {
      "inputs": [
        {
          "internalType": "address",
          "name": "",
          "type": "address"
        }
      ],
      "name": "numProjectsUsingMinter",
      "outputs": [
        {
          "internalType": "uint256",
          "name": "",
          "type": "uint256"
        }
      ],
      "stateMutability": "view",
      "type": "function"
    },
    {
      "inputs": [
        {
          "internalType": "uint256",
          "name": "_projectId",
          "type": "uint256"
        }
      ],
      "name": "projectHasMinter",
      "outputs": [
        {
          "internalType": "bool",
          "name": "",
          "type": "bool"
        }
      ],
      "stateMutability": "view",
      "type": "function"
    },
    {
      "inputs": [
        {
          "internalType": "address",
          "name": "_minterAddress",
          "type": "address"
        }
      ],
      "name": "removeApprovedMinter",
      "outputs": [],
      "stateMutability": "nonpayable",
      "type": "function"
    },
    {
      "inputs": [
        {
          "internalType": "uint256",
          "name": "_projectId",
          "type": "uint256"
        }
      ],
      "name": "removeMinterForProject",
      "outputs": [],
      "stateMutability": "nonpayable",
      "type": "function"
    },
    {
      "inputs": [
        {
          "internalType": "uint256[]",
          "name": "_projectIds",
          "type": "uint256[]"
        }
      ],
      "name": "removeMintersForProjects",
      "outputs": [],
      "stateMutability": "nonpayable",
      "type": "function"
    },
    {
      "inputs": [
        {
          "internalType": "uint256",
          "name": "_projectId",
          "type": "uint256"
        },
        {
          "internalType": "address",
          "name": "_minterAddress",
          "type": "address"
        }
      ],
      "name": "setMinterForProject",
      "outputs": [],
      "stateMutability": "nonpayable",
      "type": "function"
    }
  ],
  "bytecode": "0x60c060405234801561001057600080fd5b5060405161171938038061171983398101604081905261002f916100cc565b806001600160a01b03811661008a5760405162461bcd60e51b815260206004820152601b60248201527f4d75737420696e707574206e6f6e2d7a65726f20616464726573730000000000604482015260640160405180910390fd5b6001600160a01b038216608081905260a0526040517f3fad920548ed9f22deb8333b4cc1e4f9bc36666a1c2aa30ad59a0a3bb9dcbb9290600090a150506100fc565b6000602082840312156100de57600080fd5b81516001600160a01b03811681146100f557600080fd5b9392505050565b60805160a0516115ce61014b600039600081816102e701528181610432015281816104f7015281816107360152818161088f015281816109b80152610d6e0152600061016d01526115ce6000f3fe608060405234801561001057600080fd5b50600436106100c55760003560e01c80630d4d1513146100ca57806320f2ccb7146100f057806326df17b5146101055780633a3d146f146101255780637136b93e14610158578063718284221461016057806392a10f8314610168578063a409177e146101a7578063b34c5c84146101bc578063bcc0fdf1146101cf578063bee4d106146101e2578063c47d50f5146101f5578063e7300db914610208578063faf0d7451461022a578063ff2505f01461023d575b600080fd5b6100dd6100d8366004611197565b610250565b6040519081526020015b60405180910390f35b6100f861035d565b6040516100e79190611229565b6100dd61011336600461123c565b60036020526000908152604090205481565b61014861013336600461123c565b60046020526000908152604090205460ff1681565b60405190151581526020016100e7565b6100f861037e565b6100dd610392565b61018f7f000000000000000000000000000000000000000000000000000000000000000081565b6040516001600160a01b0390911681526020016100e7565b6101ba6101b5366004611259565b61039e565b005b6101ba6101ca3660046112cd565b610411565b61018f6101dd3660046112cd565b6104f2565b6101ba6101f036600461123c565b6105f0565b6101486102033660046112cd565b610731565b61021b6102163660046112cd565b6107e9565b6040516100e7939291906112e6565b6101ba610238366004611310565b61086e565b6101ba61024b36600461123c565b610b7f565b600061025c8184610cb5565b6001600160a01b0316336001600160a01b0316146102b85760405162461bcd60e51b815260206004820152601460248201527327b7363c9030b9b9b4b3b732b21036b4b73a32b960611b60448201526064015b60405180910390fd5b604051615de560e01b81526001600160a01b0385811660048301526024820185905283811660448301526000917f000000000000000000000000000000000000000000000000000000000000000090911690615de5906064016020604051808303816000875af1158015610330573d6000803e3d6000fd5b505050506040513d601f19601f820116820180604052508101906103549190611340565b95945050505050565b60606103796d4d696e74657246696c746572563160901b610cca565b905090565b60606103796576312e302e3160d01b610cca565b60006103796000610d35565b6352048bbf60e11b6103af81610d40565b6103cb5760405162461bcd60e51b81526004016102af90611359565b8160005b8181101561040a576103f88585838181106103ec576103ec61138d565b90506020020135610de3565b80610402816113b9565b9150506103cf565b5050505050565b60405163a47d29cb60e01b8152600481018290528190632cd3172160e21b907f00000000000000000000000000000000000000000000000000000000000000006001600160a01b03169063a47d29cb90602401602060405180830381865afa158015610481573d6000803e3d6000fd5b505050506040513d601f19601f820116820180604052508101906104a591906113d2565b6001600160a01b0316336001600160a01b031614806104c857506104c881610d40565b6104e45760405162461bcd60e51b81526004016102af906113ef565b6104ed83610de3565b505050565b6000817f00000000000000000000000000000000000000000000000000000000000000006001600160a01b031663e935b7b16040518163ffffffff1660e01b8152600401602060405180830381865afa158015610553573d6000803e3d6000fd5b505050506040513d601f19601f820116820180604052508101906105779190611340565b81106105955760405162461bcd60e51b81526004016102af90611425565b6000806105a28186610e58565b91509150816105e85760405162461bcd60e51b8152602060048201526012602482015271139bc81b5a5b9d195c88185cdcda59db995960721b60448201526064016102af565b949350505050565b635f72688360e11b61060181610d40565b61061d5760405162461bcd60e51b81526004016102af90611359565b816001600160a01b0381166106725760405162461bcd60e51b815260206004820152601b60248201527a4d75737420696e707574206e6f6e2d7a65726f206164647265737360281b60448201526064016102af565b6001600160a01b0383166000818152600460208190526040808320805460ff191660011790558051633a747a2b60e21b815290517f1ac09d1079d96f19b763467642c3c3b4e36b56222414f4a4a50f26c7011147bb93859363e9d1e8ac938082019391908290030181865afa1580156106ef573d6000803e3d6000fd5b505050506040513d6000823e601f3d908101601f19168201604052610717919081019061146b565b6040516107249190611229565b60405180910390a2505050565b6000817f00000000000000000000000000000000000000000000000000000000000000006001600160a01b031663e935b7b16040518163ffffffff1660e01b8152600401602060405180830381865afa158015610792573d6000803e3d6000fd5b505050506040513d601f19601f820116820180604052508101906107b69190611340565b81106107d45760405162461bcd60e51b81526004016102af90611425565b60006107e08185610e58565b50949350505050565b60008060606107f88285610e76565b8093508194505050816001600160a01b031663e9d1e8ac6040518163ffffffff1660e01b8152600401600060405180830381865afa15801561083e573d6000803e3d6000fd5b505050506040513d6000823e601f3d908101601f19168201604052610866919081019061146b565b929491935050565b60405163a47d29cb60e01b815260048101839052829063faf0d74560e01b907f00000000000000000000000000000000000000000000000000000000000000006001600160a01b03169063a47d29cb90602401602060405180830381865afa1580156108de573d6000803e3d6000fd5b505050506040513d601f19601f8201168201806040525081019061090291906113d2565b6001600160a01b0316336001600160a01b03161480610925575061092581610d40565b6109415760405162461bcd60e51b81526004016102af906113ef565b6001600160a01b038316600090815260046020526040902054839060ff166109b55760405162461bcd60e51b815260206004820152602160248201527f4f6e6c7920617070726f766564206d696e746572732061726520616c6c6f77656044820152601960fa1b60648201526084016102af565b847f00000000000000000000000000000000000000000000000000000000000000006001600160a01b031663e935b7b16040518163ffffffff1660e01b8152600401602060405180830381865afa158015610a14573d6000803e3d6000fd5b505050506040513d601f19601f82011682018060405250810190610a389190611340565b8110610a565760405162461bcd60e51b81526004016102af90611425565b600080610a638189610e58565b915091508115610a97576001600160a01b0381166000908152600360205260408120805491610a9183611517565b91905055505b6001600160a01b0387166000908152600360205260408120805491610abb836113b9565b90915550610acd905060008989610e85565b50866001600160a01b0316887f21fd9bfc68d8bc4b740ebf996aa9c255d1e6bb474f81dc2ad577d5d3c5a5e1e0896001600160a01b031663e9d1e8ac6040518163ffffffff1660e01b8152600401600060405180830381865afa158015610b38573d6000803e3d6000fd5b505050506040513d6000823e601f3d908101601f19168201604052610b60919081019061146b565b604051610b6d9190611229565b60405180910390a35050505050505050565b6001620dafa160e41b0319610b9381610d40565b610baf5760405162461bcd60e51b81526004016102af90611359565b6001600160a01b03821660009081526004602052604090205460ff16610c0f5760405162461bcd60e51b81526020600482015260156024820152744f6e6c7920617070726f766564206d696e7465727360581b60448201526064016102af565b6001600160a01b03821660009081526003602052604090205415610c6b5760405162461bcd60e51b81526020600482015260136024820152724f6e6c7920756e75736564206d696e7465727360681b60448201526064016102af565b6001600160a01b038216600081815260046020526040808220805460ff19169055517f44f4322f8daa225d5f4877ad0f7d3dfba248a774396f3ca99405ed40a044fe819190a25050565b6000610cc18383610e9b565b90505b92915050565b606060005b828160ff1660208110610ce457610ce461138d565b1a60f81b6001600160f81b03191615801590610d03575060208160ff16105b15610d1a5780610d128161152e565b915050610ccf565b60405191506040820160405280825282602083015250919050565b6000610cc482610f0b565b60405163230448b160e01b81523360048201523060248201526001600160e01b0319821660448201526000907f00000000000000000000000000000000000000000000000000000000000000006001600160a01b03169063230448b1906064016020604051808303816000875af1158015610dbf573d6000803e3d6000fd5b505050506040513d601f19601f82011682018060405250810190610cc4919061154d565b60036000610df18184610cb5565b6001600160a01b0316815260208101919091526040016000908120805491610e1883611517565b90915550610e299050600082610f16565b5060405181907f15267d34078ead35bc0303f6cdd08f99b837bdfcd7fab97fca4c58f3d85d760590600090a250565b6000808080610e678686610f22565b909450925050505b9250929050565b6000808080610e678686610f5c565b60006105e884846001600160a01b038516610f87565b600081815260028301602052604081205480151580610ebf5750610ebf8484610fa4565b610cc15760405162461bcd60e51b815260206004820152601e60248201527f456e756d657261626c654d61703a206e6f6e6578697374656e74206b6579000060448201526064016102af565b6000610cc482610fb0565b6000610cc18383610fba565b6000818152600283016020526040812054819080610f5157610f448585610fa4565b925060009150610e6f9050565b600192509050610e6f565b60008080610f6a8585610fd7565b600081815260029690960160205260409095205494959350505050565b600082815260028401602052604081208290556105e88484610fe3565b6000610cc18383610fef565b6000610cc4825490565b60008181526002830160205260408120819055610cc18383611007565b6000610cc18383611013565b6000610cc1838361103d565b60008181526001830160205260408120541515610cc1565b6000610cc1838361108c565b600082600001828154811061102a5761102a61138d565b9060005260206000200154905092915050565b600081815260018301602052604081205461108457508154600181810184556000848152602080822090930184905584548482528286019093526040902091909155610cc4565b506000610cc4565b600081815260018301602052604081205480156111755760006110b060018361156f565b85549091506000906110c49060019061156f565b90508181146111295760008660000182815481106110e4576110e461138d565b90600052602060002001549050808760000184815481106111075761110761138d565b6000918252602080832090910192909255918252600188019052604090208390555b855486908061113a5761113a611582565b600190038181906000526020600020016000905590558560010160008681526020019081526020016000206000905560019350505050610cc4565b6000915050610cc4565b6001600160a01b038116811461119457600080fd5b50565b6000806000606084860312156111ac57600080fd5b83356111b78161117f565b92506020840135915060408401356111ce8161117f565b809150509250925092565b60005b838110156111f45781810151838201526020016111dc565b50506000910152565b600081518084526112158160208601602086016111d9565b601f01601f19169290920160200192915050565b602081526000610cc160208301846111fd565b60006020828403121561124e57600080fd5b8135610cc18161117f565b6000806020838503121561126c57600080fd5b82356001600160401b038082111561128357600080fd5b818501915085601f83011261129757600080fd5b8135818111156112a657600080fd5b8660208260051b85010111156112bb57600080fd5b60209290920196919550909350505050565b6000602082840312156112df57600080fd5b5035919050565b8381526001600160a01b0383166020820152606060408201819052600090610354908301846111fd565b6000806040838503121561132357600080fd5b8235915060208301356113358161117f565b809150509250929050565b60006020828403121561135257600080fd5b5051919050565b6020808252601a908201527913db9b1e4810dbdc994810591b5a5b9050d308185b1b1bddd95960321b604082015260600190565b634e487b7160e01b600052603260045260246000fd5b634e487b7160e01b600052601160045260246000fd5b6000600182016113cb576113cb6113a3565b5060010190565b6000602082840312156113e457600080fd5b8151610cc18161117f565b6020808252601c908201527b13db9b1e4810dbdc994810591b5a5b9050d3081bdc88105c9d1a5cdd60221b604082015260600190565b6020808252601690820152754f6e6c79206578697374696e672070726f6a6563747360501b604082015260600190565b634e487b7160e01b600052604160045260246000fd5b60006020828403121561147d57600080fd5b81516001600160401b038082111561149457600080fd5b818401915084601f8301126114a857600080fd5b8151818111156114ba576114ba611455565b604051601f8201601f19908116603f011681019083821181831017156114e2576114e2611455565b816040528281528760208487010111156114fb57600080fd5b61150c8360208301602088016111d9565b979650505050505050565b600081611526576115266113a3565b506000190190565b600060ff821660ff8103611544576115446113a3565b60010192915050565b60006020828403121561155f57600080fd5b81518015158114610cc157600080fd5b81810381811115610cc457610cc46113a3565b634e487b7160e01b600052603160045260246000fdfea26469706673582212202fca79936aaa42306e90feb442daeffd7454e14a3f7217e903598895d7effeb664736f6c63430008110033",
  "linkReferences": {},
  "deployedLinkReferences": {}
}