{
  "_format": "hh-sol-artifact-1",
  "contractName": "MinterMerkleV1",
  "sourceName": "contracts/minter-suite/Minters/MinterMerkle/MinterMerkleV1.sol",
  "abi": [
    {
      "inputs": [
        {
          "internalType": "address",
          "name": "_genArt721Address",
          "type": "address"
        },
        {
          "internalType": "address",
          "name": "_minterFilter",
          "type": "address"
        }
      ],
      "stateMutability": "nonpayable",
      "type": "constructor"
    },
    {
      "anonymous": false,
      "inputs": [
        {
          "indexed": true,
          "internalType": "uint256",
          "name": "_projectId",
          "type": "uint256"
        },
        {
          "indexed": false,
          "internalType": "bytes32",
          "name": "_key",
          "type": "bytes32"
        }
      ],
      "name": "ConfigKeyRemoved",
      "type": "event"
    },
    {
      "anonymous": false,
      "inputs": [
        {
          "indexed": true,
          "internalType": "uint256",
          "name": "_projectId",
          "type": "uint256"
        },
        {
          "indexed": false,
          "internalType": "bytes32",
          "name": "_key",
          "type": "bytes32"
        },
        {
          "indexed": false,
          "internalType": "uint256",
          "name": "_value",
          "type": "uint256"
        }
      ],
      "name": "ConfigValueAddedToSet",
      "type": "event"
    },
    {
      "anonymous": false,
      "inputs": [
        {
          "indexed": true,
          "internalType": "uint256",
          "name": "_projectId",
          "type": "uint256"
        },
        {
          "indexed": false,
          "internalType": "bytes32",
          "name": "_key",
          "type": "bytes32"
        },
        {
          "indexed": false,
          "internalType": "address",
          "name": "_value",
          "type": "address"
        }
      ],
      "name": "ConfigValueAddedToSet",
      "type": "event"
    },
    {
      "anonymous": false,
      "inputs": [
        {
          "indexed": true,
          "internalType": "uint256",
          "name": "_projectId",
          "type": "uint256"
        },
        {
          "indexed": false,
          "internalType": "bytes32",
          "name": "_key",
          "type": "bytes32"
        },
        {
          "indexed": false,
          "internalType": "bytes32",
          "name": "_value",
          "type": "bytes32"
        }
      ],
      "name": "ConfigValueAddedToSet",
      "type": "event"
    },
    {
      "anonymous": false,
      "inputs": [
        {
          "indexed": true,
          "internalType": "uint256",
          "name": "_projectId",
          "type": "uint256"
        },
        {
          "indexed": false,
          "internalType": "bytes32",
          "name": "_key",
          "type": "bytes32"
        },
        {
          "indexed": false,
          "internalType": "uint256",
          "name": "_value",
          "type": "uint256"
        }
      ],
      "name": "ConfigValueRemovedFromSet",
      "type": "event"
    },
    {
      "anonymous": false,
      "inputs": [
        {
          "indexed": true,
          "internalType": "uint256",
          "name": "_projectId",
          "type": "uint256"
        },
        {
          "indexed": false,
          "internalType": "bytes32",
          "name": "_key",
          "type": "bytes32"
        },
        {
          "indexed": false,
          "internalType": "address",
          "name": "_value",
          "type": "address"
        }
      ],
      "name": "ConfigValueRemovedFromSet",
      "type": "event"
    },
    {
      "anonymous": false,
      "inputs": [
        {
          "indexed": true,
          "internalType": "uint256",
          "name": "_projectId",
          "type": "uint256"
        },
        {
          "indexed": false,
          "internalType": "bytes32",
          "name": "_key",
          "type": "bytes32"
        },
        {
          "indexed": false,
          "internalType": "bytes32",
          "name": "_value",
          "type": "bytes32"
        }
      ],
      "name": "ConfigValueRemovedFromSet",
      "type": "event"
    },
    {
      "anonymous": false,
      "inputs": [
        {
          "indexed": true,
          "internalType": "uint256",
          "name": "_projectId",
          "type": "uint256"
        },
        {
          "indexed": false,
          "internalType": "bytes32",
          "name": "_key",
          "type": "bytes32"
        },
        {
          "indexed": false,
          "internalType": "bool",
          "name": "_value",
          "type": "bool"
        }
      ],
      "name": "ConfigValueSet",
      "type": "event"
    },
    {
      "anonymous": false,
      "inputs": [
        {
          "indexed": true,
          "internalType": "uint256",
          "name": "_projectId",
          "type": "uint256"
        },
        {
          "indexed": false,
          "internalType": "bytes32",
          "name": "_key",
          "type": "bytes32"
        },
        {
          "indexed": false,
          "internalType": "uint256",
          "name": "_value",
          "type": "uint256"
        }
      ],
      "name": "ConfigValueSet",
      "type": "event"
    },
    {
      "anonymous": false,
      "inputs": [
        {
          "indexed": true,
          "internalType": "uint256",
          "name": "_projectId",
          "type": "uint256"
        },
        {
          "indexed": false,
          "internalType": "bytes32",
          "name": "_key",
          "type": "bytes32"
        },
        {
          "indexed": false,
          "internalType": "address",
          "name": "_value",
          "type": "address"
        }
      ],
      "name": "ConfigValueSet",
      "type": "event"
    },
    {
      "anonymous": false,
      "inputs": [
        {
          "indexed": true,
          "internalType": "uint256",
          "name": "_projectId",
          "type": "uint256"
        },
        {
          "indexed": false,
          "internalType": "bytes32",
          "name": "_key",
          "type": "bytes32"
        },
        {
          "indexed": false,
          "internalType": "bytes32",
          "name": "_value",
          "type": "bytes32"
        }
      ],
      "name": "ConfigValueSet",
      "type": "event"
    },
    {
      "anonymous": false,
      "inputs": [
        {
          "indexed": true,
          "internalType": "uint256",
          "name": "_projectId",
          "type": "uint256"
        },
        {
          "indexed": true,
          "internalType": "uint256",
          "name": "_pricePerTokenInWei",
          "type": "uint256"
        }
      ],
      "name": "PricePerTokenInWeiUpdated",
      "type": "event"
    },
    {
      "anonymous": false,
      "inputs": [
        {
          "indexed": true,
          "internalType": "uint256",
          "name": "_projectId",
          "type": "uint256"
        },
        {
          "indexed": true,
          "internalType": "address",
          "name": "_currencyAddress",
          "type": "address"
        },
        {
          "indexed": false,
          "internalType": "string",
          "name": "_currencySymbol",
          "type": "string"
        }
      ],
      "name": "ProjectCurrencyInfoUpdated",
      "type": "event"
    },
    {
      "anonymous": false,
      "inputs": [
        {
          "indexed": true,
          "internalType": "uint256",
          "name": "_projectId",
          "type": "uint256"
        },
        {
          "indexed": false,
          "internalType": "bool",
          "name": "_purchaseToDisabled",
          "type": "bool"
        }
      ],
      "name": "PurchaseToDisabledUpdated",
      "type": "event"
    },
    {
      "inputs": [],
      "name": "DEFAULT_MAX_INVOCATIONS_PER_ADDRESS",
      "outputs": [
        {
          "internalType": "uint256",
          "name": "",
          "type": "uint256"
        }
      ],
      "stateMutability": "view",
      "type": "function"
    },
    {
      "inputs": [],
      "name": "genArt721CoreAddress",
      "outputs": [
        {
          "internalType": "address",
          "name": "",
          "type": "address"
        }
      ],
      "stateMutability": "view",
      "type": "function"
    },
    {
      "inputs": [
        {
          "internalType": "uint256",
          "name": "_projectId",
          "type": "uint256"
        }
      ],
      "name": "getPriceInfo",
      "outputs": [
        {
          "internalType": "bool",
          "name": "isConfigured",
          "type": "bool"
        },
        {
          "internalType": "uint256",
          "name": "tokenPriceInWei",
          "type": "uint256"
        },
        {
          "internalType": "string",
          "name": "currencySymbol",
          "type": "string"
        },
        {
          "internalType": "address",
          "name": "currencyAddress",
          "type": "address"
        }
      ],
      "stateMutability": "view",
      "type": "function"
    },
    {
      "inputs": [
        {
          "internalType": "address",
          "name": "_address",
          "type": "address"
        }
      ],
      "name": "hashAddress",
      "outputs": [
        {
          "internalType": "bytes32",
          "name": "",
          "type": "bytes32"
        }
      ],
      "stateMutability": "pure",
      "type": "function"
    },
    {
      "inputs": [],
      "name": "minterFilterAddress",
      "outputs": [
        {
          "internalType": "address",
          "name": "",
          "type": "address"
        }
      ],
      "stateMutability": "view",
      "type": "function"
    },
    {
      "inputs": [],
      "name": "minterType",
      "outputs": [
        {
          "internalType": "string",
          "name": "",
          "type": "string"
        }
      ],
      "stateMutability": "view",
      "type": "function"
    },
    {
      "inputs": [
        {
          "internalType": "bytes32[]",
          "name": "_proof",
          "type": "bytes32[]"
        },
        {
          "internalType": "address",
          "name": "_address",
          "type": "address"
        }
      ],
      "name": "processProofForAddress",
      "outputs": [
        {
          "internalType": "bytes32",
          "name": "",
          "type": "bytes32"
        }
      ],
      "stateMutability": "pure",
      "type": "function"
    },
    {
      "inputs": [
        {
          "internalType": "uint256",
          "name": "",
          "type": "uint256"
        }
      ],
      "name": "projectConfig",
      "outputs": [
        {
          "internalType": "bool",
          "name": "maxHasBeenInvoked",
          "type": "bool"
        },
        {
          "internalType": "bool",
          "name": "priceIsConfigured",
          "type": "bool"
        },
        {
          "internalType": "bool",
          "name": "useMaxInvocationsPerAddressOverride",
          "type": "bool"
        },
        {
          "internalType": "uint24",
          "name": "maxInvocationsPerAddressOverride",
          "type": "uint24"
        },
        {
          "internalType": "uint24",
          "name": "maxInvocations",
          "type": "uint24"
        },
        {
          "internalType": "uint256",
          "name": "pricePerTokenInWei",
          "type": "uint256"
        }
      ],
      "stateMutability": "view",
      "type": "function"
    },
    {
      "inputs": [
        {
          "internalType": "uint256",
          "name": "_projectId",
          "type": "uint256"
        }
      ],
      "name": "projectMaxHasBeenInvoked",
      "outputs": [
        {
          "internalType": "bool",
          "name": "",
          "type": "bool"
        }
      ],
      "stateMutability": "view",
      "type": "function"
    },
    {
      "inputs": [
        {
          "internalType": "uint256",
          "name": "_projectId",
          "type": "uint256"
        }
      ],
      "name": "projectMaxInvocations",
      "outputs": [
        {
          "internalType": "uint256",
          "name": "",
          "type": "uint256"
        }
      ],
      "stateMutability": "view",
      "type": "function"
    },
    {
      "inputs": [
        {
          "internalType": "uint256",
          "name": "_projectId",
          "type": "uint256"
        }
      ],
      "name": "projectMaxInvocationsPerAddress",
      "outputs": [
        {
          "internalType": "uint256",
          "name": "",
          "type": "uint256"
        }
      ],
      "stateMutability": "view",
      "type": "function"
    },
    {
      "inputs": [
        {
          "internalType": "uint256",
          "name": "",
          "type": "uint256"
        }
      ],
      "name": "projectMerkleRoot",
      "outputs": [
        {
          "internalType": "bytes32",
          "name": "",
          "type": "bytes32"
        }
      ],
      "stateMutability": "view",
      "type": "function"
    },
    {
      "inputs": [
        {
          "internalType": "uint256",
          "name": "",
          "type": "uint256"
        },
        {
          "internalType": "address",
          "name": "",
          "type": "address"
        }
      ],
      "name": "projectUserInvocations",
      "outputs": [
        {
          "internalType": "uint256",
          "name": "",
          "type": "uint256"
        }
      ],
      "stateMutability": "view",
      "type": "function"
    },
    {
      "inputs": [
        {
          "internalType": "uint256",
          "name": "_projectId",
          "type": "uint256"
        },
        {
          "internalType": "bytes32[]",
          "name": "_proof",
          "type": "bytes32[]"
        }
      ],
      "name": "purchase",
      "outputs": [
        {
          "internalType": "uint256",
          "name": "tokenId",
          "type": "uint256"
        }
      ],
      "stateMutability": "payable",
      "type": "function"
    },
    {
      "inputs": [
        {
          "internalType": "uint256",
          "name": "",
          "type": "uint256"
        }
      ],
      "name": "purchase",
      "outputs": [
        {
          "internalType": "uint256",
          "name": "",
          "type": "uint256"
        }
      ],
      "stateMutability": "payable",
      "type": "function"
    },
    {
      "inputs": [
        {
          "internalType": "address",
          "name": "_to",
          "type": "address"
        },
        {
          "internalType": "uint256",
          "name": "_projectId",
          "type": "uint256"
        },
        {
          "internalType": "bytes32[]",
          "name": "_proof",
          "type": "bytes32[]"
        }
      ],
      "name": "purchaseTo",
      "outputs": [
        {
          "internalType": "uint256",
          "name": "tokenId",
          "type": "uint256"
        }
      ],
      "stateMutability": "payable",
      "type": "function"
    },
    {
      "inputs": [
        {
          "internalType": "address",
          "name": "",
          "type": "address"
        },
        {
          "internalType": "uint256",
          "name": "",
          "type": "uint256"
        }
      ],
      "name": "purchaseTo",
      "outputs": [
        {
          "internalType": "uint256",
          "name": "",
          "type": "uint256"
        }
      ],
      "stateMutability": "payable",
      "type": "function"
    },
    {
      "inputs": [
        {
          "internalType": "address",
          "name": "_to",
          "type": "address"
        },
        {
          "internalType": "uint256",
          "name": "_projectId",
          "type": "uint256"
        },
        {
          "internalType": "bytes32[]",
          "name": "_proof",
          "type": "bytes32[]"
        }
      ],
      "name": "purchaseTo_K1L",
      "outputs": [
        {
          "internalType": "uint256",
          "name": "tokenId",
          "type": "uint256"
        }
      ],
      "stateMutability": "payable",
      "type": "function"
    },
    {
      "inputs": [
        {
          "internalType": "uint256",
          "name": "_projectId",
          "type": "uint256"
        },
        {
          "internalType": "bytes32[]",
          "name": "_proof",
          "type": "bytes32[]"
        }
      ],
      "name": "purchase_gD5",
      "outputs": [
        {
          "internalType": "uint256",
          "name": "tokenId",
          "type": "uint256"
        }
      ],
      "stateMutability": "payable",
      "type": "function"
    },
    {
      "inputs": [
        {
          "internalType": "uint256",
          "name": "_projectId",
          "type": "uint256"
        },
        {
          "internalType": "uint24",
          "name": "_maxInvocationsPerAddress",
          "type": "uint24"
        }
      ],
      "name": "setProjectInvocationsPerAddress",
      "outputs": [],
      "stateMutability": "nonpayable",
      "type": "function"
    },
    {
      "inputs": [
        {
          "internalType": "uint256",
          "name": "_projectId",
          "type": "uint256"
        }
      ],
      "name": "setProjectMaxInvocations",
      "outputs": [],
      "stateMutability": "nonpayable",
      "type": "function"
    },
    {
      "inputs": [
        {
          "internalType": "uint256",
          "name": "_projectId",
          "type": "uint256"
        }
      ],
      "name": "togglePurchaseToDisabled",
      "outputs": [],
      "stateMutability": "view",
      "type": "function"
    },
    {
      "inputs": [
        {
          "internalType": "uint256",
          "name": "_projectId",
          "type": "uint256"
        },
        {
          "internalType": "bytes32",
          "name": "_root",
          "type": "bytes32"
        }
      ],
      "name": "updateMerkleRoot",
      "outputs": [],
      "stateMutability": "nonpayable",
      "type": "function"
    },
    {
      "inputs": [
        {
          "internalType": "uint256",
          "name": "_projectId",
          "type": "uint256"
        },
        {
          "internalType": "uint256",
          "name": "_pricePerTokenInWei",
          "type": "uint256"
        }
      ],
      "name": "updatePricePerTokenInWei",
      "outputs": [],
      "stateMutability": "nonpayable",
      "type": "function"
    },
    {
      "inputs": [
        {
          "internalType": "uint256",
          "name": "_projectId",
          "type": "uint256"
        },
        {
          "internalType": "bytes32[]",
          "name": "_proof",
          "type": "bytes32[]"
        },
        {
          "internalType": "address",
          "name": "_address",
          "type": "address"
        }
      ],
      "name": "verifyAddress",
      "outputs": [
        {
          "internalType": "bool",
          "name": "",
          "type": "bool"
        }
      ],
      "stateMutability": "view",
      "type": "function"
    }
  ],
  "bytecode": "0x6101006040523480156200001257600080fd5b5060405162001b3838038062001b38833981016040819052620000359162000157565b600160009081556001600160a01b03808416608081905260a081905290831660c081905260e0819052604080516392a10f8360e01b81529051929391926392a10f8392600480840193602093929083900390910190829087803b1580156200009c57600080fd5b505af1158015620000b1573d6000803e3d6000fd5b505050506040513d601f19601f82011682018060405250810190620000d791906200018f565b6001600160a01b031614620001325760405162461bcd60e51b815260206004820152601860248201527f496c6c6567616c20636f6e74726163742070616972696e670000000000000000604482015260640160405180910390fd5b5050620001b4565b80516001600160a01b03811681146200015257600080fd5b919050565b600080604083850312156200016b57600080fd5b62000176836200013a565b915062000186602084016200013a565b90509250929050565b600060208284031215620001a257600080fd5b620001ad826200013a565b9392505050565b60805160a05160c05160e05161192762000211600039600061083f015260006104c20152600081816109bf01528181610ac801528181610c5101528181610e0c01528181610f7b01526110e30152600061037501526119276000f3fe6080604052600436106101225760003560e01c80615aa1146101275780617b421461014d57806315bed159146101605780631ec2e52314610180578063202c5805146101a05780632fe63623146101b35780633aa5fe59146101eb57806340d1397e1461020b578063462add461461022d57806356690aaf1461026d5780636cb9b7ff146102a65780636ede4ade146102c6578063774159c6146102e6578063891407c01461035057806392a10f83146103635780639775f86f146103af578063c71b1b71146103c4578063cc3352bf14610463578063d684ec6714610483578063da7e7c5014610127578063dd85582f146104b0578063e9d1e8ac146104e4578063efef39a11461052b578063f1e3311514610539578063f7bd4b8814610559575b600080fd5b61013a61013536600461146e565b610579565b6040519081526020015b60405180910390f35b61013a61015b3660046114d1565b61058f565b34801561016c57600080fd5b5061013a61017b36600461152c565b610905565b34801561018c57600080fd5b5061013a61019b366004611545565b61093f565b61013a6101ae3660046114d1565b610956565b3480156101bf57600080fd5b5061013a6101ce36600461159b565b600360209081526000928352604080842090915290825290205481565b3480156101f757600080fd5b5061013a6102063660046115cb565b61096d565b34801561021757600080fd5b5061022b61022636600461152c565b6109a7565b005b34801561023957600080fd5b5061025d61024836600461152c565b60009081526001602052604090205460ff1690565b6040519015158152602001610144565b34801561027957600080fd5b5061013a61028836600461152c565b600090815260016020526040902054600160301b900462ffffff1690565b3480156102b257600080fd5b5061022b6102c13660046115e8565b610ab0565b3480156102d257600080fd5b5061025d6102e136600461160a565b610bcd565b3480156102f257600080fd5b5061034061030136600461152c565b600090815260016020818152604080842080549301548151808301909252600382526208aa8960eb1b9282019290925261010090920460ff1693909290565b60405161014494939291906116b5565b61013a61035e3660046116ef565b610bf2565b34801561036f57600080fd5b506103977f000000000000000000000000000000000000000000000000000000000000000081565b6040516001600160a01b039091168152602001610144565b3480156103bb57600080fd5b5061013a600181565b3480156103d057600080fd5b506104276103df36600461152c565b6001602081905260009182526040909120805491015460ff8083169261010081048216926201000082049092169162ffffff63010000008304811692600160301b9004169086565b60408051961515875294151560208701529215159385019390935262ffffff9081166060850152909116608083015260a082015260c001610144565b34801561046f57600080fd5b5061022b61047e36600461171b565b610c39565b34801561048f57600080fd5b5061013a61049e36600461152c565b60026020526000908152604090205481565b3480156104bc57600080fd5b506103977f000000000000000000000000000000000000000000000000000000000000000081565b3480156104f057600080fd5b5061051e6040518060400160405280600e81526020016d4d696e7465724d65726b6c65563160901b81525081565b6040516101449190611748565b61013a61035e36600461152c565b34801561054557600080fd5b5061022b6105543660046115e8565b610df4565b34801561056557600080fd5b5061022b61057436600461152c565b610f62565b60006105873385858561058f565b949350505050565b6000600260005414156105e95760405162461bcd60e51b815260206004820152601f60248201527f5265656e7472616e637947756172643a207265656e7472616e742063616c6c0060448201526064015b60405180910390fd5b60026000908155848152600160205260409020805460ff161561065c5760405162461bcd60e51b815260206004820152602560248201527f4d6178696d756d206e756d626572206f6620696e766f636174696f6e732072656044820152641858da195960da1b60648201526084016105e0565b6001810154348111156106b15760405162461bcd60e51b815260206004820181905260248201527f4d7573742073656e64206d696e696d756d2076616c756520746f206d696e742160448201526064016105e0565b8154610100900460ff166106fe5760405162461bcd60e51b8152602060048201526014602482015273141c9a58d9481b9bdd0818dbdb999a59dd5c995960621b60448201526064016105e0565b61070a86868633610bcd565b61074d5760405162461bcd60e51b815260206004820152601460248201527324b73b30b634b21026b2b935b63290383937b7b360611b60448201526064016105e0565b815460009062010000900460ff16610766576001610775565b82546301000000900462ffffff165b60008881526003602090815260408083203384529091528120805492935083929161079f83611771565b9190505510806107ad575080155b6108135760405162461bcd60e51b815260206004820152603160248201527f4d6178696d756d206e756d626572206f6620696e766f636174696f6e732070656044820152701c881859191c995cdcc81c995858da1959607a1b60648201526084016105e0565b604051630d4d151360e01b81526001600160a01b038981166004830152602482018990523360448301527f00000000000000000000000000000000000000000000000000000000000000001690630d4d151390606401602060405180830381600087803b15801561088357600080fd5b505af1158015610897573d6000803e3d6000fd5b505050506040513d601f19601f820116820180604052508101906108bb919061178c565b835490945060001962ffffff600160301b90920482160116620f4240850614156108eb57825460ff191660011783555b6108f58783611035565b5050506001600055949350505050565b6000818152600160205260408120805462010000900460ff161561093657546301000000900462ffffff1692915050565b50600192915050565b600061058761094d8361096d565b8590859061138d565b60006109648585858561058f565b95945050505050565b6040516001600160601b0319606083901b166020820152600090603401604051602081830303815290604052805190602001209050919050565b60405163a47d29cb60e01b81526004810182905281907f00000000000000000000000000000000000000000000000000000000000000006001600160a01b03169063a47d29cb9060240160206040518083038186803b158015610a0957600080fd5b505afa158015610a1d573d6000803e3d6000fd5b505050506040513d601f19601f82011682018060405250810190610a4191906117a5565b6001600160a01b0316336001600160a01b031614610a715760405162461bcd60e51b81526004016105e0906117c2565b60405162461bcd60e51b81526020600482015260146024820152731058dd1a5bdb881b9bdd081cdd5c1c1bdc9d195960621b60448201526064016105e0565b60405163a47d29cb60e01b81526004810183905282907f00000000000000000000000000000000000000000000000000000000000000006001600160a01b03169063a47d29cb9060240160206040518083038186803b158015610b1257600080fd5b505afa158015610b26573d6000803e3d6000fd5b505050506040513d601f19601f82011682018060405250810190610b4a91906117a5565b6001600160a01b0316336001600160a01b031614610b7a5760405162461bcd60e51b81526004016105e0906117c2565b6000838152600160208190526040808320918201859055815461ff0019166101001790915551839185917f26118a27aca826f829f3bfe21b140b4455c00b434849bd0da50d1e1a9720fb5c9190a3505050565b60008481526002602052604081205461096490610be98461096d565b869186916113d9565b60405162461bcd60e51b815260206004820152601960248201527826bab9ba10383937bb34b2329026b2b935b63290383937b7b360391b60448201526000906064016105e0565b60405163a47d29cb60e01b81526004810183905282907f00000000000000000000000000000000000000000000000000000000000000006001600160a01b03169063a47d29cb9060240160206040518083038186803b158015610c9b57600080fd5b505afa158015610caf573d6000803e3d6000fd5b505050506040513d601f19601f82011682018060405250810190610cd391906117a5565b6001600160a01b0316336001600160a01b031614610d035760405162461bcd60e51b81526004016105e0906117c2565b600083815260016020819052604091829020805462ffffff861663010000000265ffffffff0000199091161762010000178155915185917fc594e23b9382359e253cdaba84b0aefe5ad09ccfd5706891673743b37229c2d291610d8d91797573654d61784d696e7473506572416464724f7665727269646560301b82521515602082015260400190565b60405180910390a260408051766d61784d696e7473506572416464724f7665727269646560481b815262ffffff8516602082015285917f8a5820ca7148caeda3176e8d60a3bb413b4bcca45922ac2178b1ee191fe320eb910160405180910390a250505050565b60405163a47d29cb60e01b81526004810183905282907f00000000000000000000000000000000000000000000000000000000000000006001600160a01b03169063a47d29cb9060240160206040518083038186803b158015610e5657600080fd5b505afa158015610e6a573d6000803e3d6000fd5b505050506040513d601f19601f82011682018060405250810190610e8e91906117a5565b6001600160a01b0316336001600160a01b031614610ebe5760405162461bcd60e51b81526004016105e0906117c2565b81610f035760405162461bcd60e51b8152602060048201526015602482015274149bdbdd081b5d5cdd081899481c1c9bdd9a591959605a1b60448201526064016105e0565b6000838152600260209081526040918290208490558151691b595c9adb19549bdbdd60b21b815290810184905284917f729c0261c7e3c976b9a392f2bb08064d7a03c82f9f1473ab0ee284c985df0815910160405180910390a2505050565b604051630ea5613f60e01b8152600481018290526000907f00000000000000000000000000000000000000000000000000000000000000006001600160a01b031690630ea5613f9060240160c06040518083038186803b158015610fc557600080fd5b505afa158015610fd9573d6000803e3d6000fd5b505050506040513d601f19601f82011682018060405250810190610ffd91906117fc565b50505060009485525060016020526040909320805462ffffff909416600160301b0262ffffff60301b19909416939093179092555050565b341561138957600080611048833461185b565b905080156110d85760405133908290600081818185875af1925050503d8060008114611090576040519150601f19603f3d011682016040523d82523d6000602084013e611095565b606091505b505080925050816110d85760405162461bcd60e51b815260206004820152600d60248201526c1499599d5b990819985a5b1959609a1b60448201526064016105e0565b6000806000806000807f00000000000000000000000000000000000000000000000000000000000000006001600160a01b0316638639415b8b8b6040518363ffffffff1660e01b8152600401611138929190918252602082015260400190565b60c06040518083038186803b15801561115057600080fd5b505afa158015611164573d6000803e3d6000fd5b505050506040513d601f19601f820116820180604052508101906111889190611872565b955095509550955095509550600086111561123a576040516001600160a01b038616908790600081818185875af1925050503d80600081146111e6576040519150601f19603f3d011682016040523d82523d6000602084013e6111eb565b606091505b5050809850508761123a5760405162461bcd60e51b8152602060048201526019602482015278105c9d08109b1bd8dadcc81c185e5b595b9d0819985a5b1959603a1b60448201526064016105e0565b83156112d9576040516001600160a01b038416908590600081818185875af1925050503d8060008114611289576040519150601f19603f3d011682016040523d82523d6000602084013e61128e565b606091505b505080985050876112d95760405162461bcd60e51b8152602060048201526015602482015274105c9d1a5cdd081c185e5b595b9d0819985a5b1959605a1b60448201526064016105e0565b8115611380576040516001600160a01b038216908390600081818185875af1925050503d8060008114611328576040519150601f19603f3d011682016040523d82523d6000602084013e61132d565b606091505b505080985050876113805760405162461bcd60e51b815260206004820152601f60248201527f4164646974696f6e616c205061796565207061796d656e74206661696c65640060448201526064016105e0565b50505050505050505b5050565b600081815b848110156113d0576113bc828787848181106113b0576113b06118db565b905060200201356113f1565b9150806113c881611771565b915050611392565b50949350505050565b6000826113e786868561138d565b1495945050505050565b600081831061140d57600082815260208490526040902061141c565b60008381526020839052604090205b9392505050565b60008083601f84011261143557600080fd5b5081356001600160401b0381111561144c57600080fd5b6020830191508360208260051b850101111561146757600080fd5b9250929050565b60008060006040848603121561148357600080fd5b8335925060208401356001600160401b038111156114a057600080fd5b6114ac86828701611423565b9497909650939450505050565b6001600160a01b03811681146114ce57600080fd5b50565b600080600080606085870312156114e757600080fd5b84356114f2816114b9565b93506020850135925060408501356001600160401b0381111561151457600080fd5b61152087828801611423565b95989497509550505050565b60006020828403121561153e57600080fd5b5035919050565b60008060006040848603121561155a57600080fd5b83356001600160401b0381111561157057600080fd5b61157c86828701611423565b9094509250506020840135611590816114b9565b809150509250925092565b600080604083850312156115ae57600080fd5b8235915060208301356115c0816114b9565b809150509250929050565b6000602082840312156115dd57600080fd5b813561141c816114b9565b600080604083850312156115fb57600080fd5b50508035926020909101359150565b6000806000806060858703121561162057600080fd5b8435935060208501356001600160401b0381111561163d57600080fd5b61164987828801611423565b909450925050604085013561165d816114b9565b939692955090935050565b6000815180845260005b8181101561168e57602081850181015186830182015201611672565b818111156116a0576000602083870101525b50601f01601f19169290920160200192915050565b84151581528360208201526080604082015260006116d66080830185611668565b905060018060a01b038316606083015295945050505050565b6000806040838503121561170257600080fd5b823561170d816114b9565b946020939093013593505050565b6000806040838503121561172e57600080fd5b82359150602083013562ffffff811681146115c057600080fd5b60208152600061141c6020830184611668565b634e487b7160e01b600052601160045260246000fd5b60006000198214156117855761178561175b565b5060010190565b60006020828403121561179e57600080fd5b5051919050565b6000602082840312156117b757600080fd5b815161141c816114b9565b6020808252600b908201526a13db9b1e48105c9d1a5cdd60aa1b604082015260600190565b805180151581146117f757600080fd5b919050565b60008060008060008060c0878903121561181557600080fd5b865195506020870151945061182c604088016117e7565b935061183a606088016117e7565b92506080870151915061184f60a088016117e7565b90509295509295509295565b60008282101561186d5761186d61175b565b500390565b60008060008060008060c0878903121561188b57600080fd5b86519550602087015161189d816114b9565b6040880151606089015191965094506118b5816114b9565b608088015160a089015191945092506118cd816114b9565b809150509295509295509295565b634e487b7160e01b600052603260045260246000fdfea2646970667358221220d90d48c6a702b1653bd93115ff40598200ede612f5581a43def728fe4c84b59b64736f6c63430008090033",
  "linkReferences": {},
  "deployedLinkReferences": {}
}