{
  "_format": "hh-sol-artifact-1",
  "contractName": "MinterHolderV1",
  "sourceName": "contracts/minter-suite/Minters/MinterHolder/MinterHolderV1.sol",
  "abi": [
    {
      "inputs": [
        {
          "internalType": "address",
          "name": "_genArt721Address",
          "type": "address"
        },
        {
          "internalType": "address",
          "name": "_minterFilter",
          "type": "address"
        }
      ],
      "stateMutability": "nonpayable",
      "type": "constructor"
    },
    {
      "anonymous": false,
      "inputs": [
        {
          "indexed": true,
          "internalType": "uint256",
          "name": "_projectId",
          "type": "uint256"
        },
        {
          "indexed": false,
          "internalType": "address[]",
          "name": "_ownedNFTAddresses",
          "type": "address[]"
        },
        {
          "indexed": false,
          "internalType": "uint256[]",
          "name": "_ownedNFTProjectIds",
          "type": "uint256[]"
        }
      ],
      "name": "AllowedHoldersOfProjects",
      "type": "event"
    },
    {
      "anonymous": false,
      "inputs": [
        {
          "indexed": true,
          "internalType": "uint256",
          "name": "_projectId",
          "type": "uint256"
        },
        {
          "indexed": true,
          "internalType": "uint256",
          "name": "_pricePerTokenInWei",
          "type": "uint256"
        }
      ],
      "name": "PricePerTokenInWeiUpdated",
      "type": "event"
    },
    {
      "anonymous": false,
      "inputs": [
        {
          "indexed": true,
          "internalType": "uint256",
          "name": "_projectId",
          "type": "uint256"
        },
        {
          "indexed": true,
          "internalType": "address",
          "name": "_currencyAddress",
          "type": "address"
        },
        {
          "indexed": false,
          "internalType": "string",
          "name": "_currencySymbol",
          "type": "string"
        }
      ],
      "name": "ProjectCurrencyInfoUpdated",
      "type": "event"
    },
    {
      "anonymous": false,
      "inputs": [
        {
          "indexed": true,
          "internalType": "uint256",
          "name": "_projectId",
          "type": "uint256"
        },
        {
          "indexed": false,
          "internalType": "bool",
          "name": "_purchaseToDisabled",
          "type": "bool"
        }
      ],
      "name": "PurchaseToDisabledUpdated",
      "type": "event"
    },
    {
      "anonymous": false,
      "inputs": [
        {
          "indexed": true,
          "internalType": "address",
          "name": "_NFTAddress",
          "type": "address"
        }
      ],
      "name": "RegisteredNFTAddress",
      "type": "event"
    },
    {
      "anonymous": false,
      "inputs": [
        {
          "indexed": true,
          "internalType": "uint256",
          "name": "_projectId",
          "type": "uint256"
        },
        {
          "indexed": false,
          "internalType": "address[]",
          "name": "_ownedNFTAddresses",
          "type": "address[]"
        },
        {
          "indexed": false,
          "internalType": "uint256[]",
          "name": "_ownedNFTProjectIds",
          "type": "uint256[]"
        }
      ],
      "name": "RemovedHoldersOfProjects",
      "type": "event"
    },
    {
      "anonymous": false,
      "inputs": [
        {
          "indexed": true,
          "internalType": "address",
          "name": "_NFTAddress",
          "type": "address"
        }
      ],
      "name": "UnregisteredNFTAddress",
      "type": "event"
    },
    {
      "inputs": [
        {
          "internalType": "uint256",
          "name": "_projectId",
          "type": "uint256"
        },
        {
          "internalType": "address[]",
          "name": "_ownedNFTAddresses",
          "type": "address[]"
        },
        {
          "internalType": "uint256[]",
          "name": "_ownedNFTProjectIds",
          "type": "uint256[]"
        }
      ],
      "name": "allowHoldersOfProjects",
      "outputs": [],
      "stateMutability": "nonpayable",
      "type": "function"
    },
    {
      "inputs": [
        {
          "internalType": "uint256",
          "name": "_projectId",
          "type": "uint256"
        },
        {
          "internalType": "address[]",
          "name": "_ownedNFTAddressesAdd",
          "type": "address[]"
        },
        {
          "internalType": "uint256[]",
          "name": "_ownedNFTProjectIdsAdd",
          "type": "uint256[]"
        },
        {
          "internalType": "address[]",
          "name": "_ownedNFTAddressesRemove",
          "type": "address[]"
        },
        {
          "internalType": "uint256[]",
          "name": "_ownedNFTProjectIdsRemove",
          "type": "uint256[]"
        }
      ],
      "name": "allowRemoveHoldersOfProjects",
      "outputs": [],
      "stateMutability": "nonpayable",
      "type": "function"
    },
    {
      "inputs": [
        {
          "internalType": "uint256",
          "name": "",
          "type": "uint256"
        },
        {
          "internalType": "address",
          "name": "",
          "type": "address"
        },
        {
          "internalType": "uint256",
          "name": "",
          "type": "uint256"
        }
      ],
      "name": "allowedProjectHolders",
      "outputs": [
        {
          "internalType": "bool",
          "name": "",
          "type": "bool"
        }
      ],
      "stateMutability": "view",
      "type": "function"
    },
    {
      "inputs": [],
      "name": "genArt721CoreAddress",
      "outputs": [
        {
          "internalType": "address",
          "name": "",
          "type": "address"
        }
      ],
      "stateMutability": "view",
      "type": "function"
    },
    {
      "inputs": [],
      "name": "getNumRegisteredNFTAddresses",
      "outputs": [
        {
          "internalType": "uint256",
          "name": "",
          "type": "uint256"
        }
      ],
      "stateMutability": "view",
      "type": "function"
    },
    {
      "inputs": [
        {
          "internalType": "uint256",
          "name": "_projectId",
          "type": "uint256"
        }
      ],
      "name": "getPriceInfo",
      "outputs": [
        {
          "internalType": "bool",
          "name": "isConfigured",
          "type": "bool"
        },
        {
          "internalType": "uint256",
          "name": "tokenPriceInWei",
          "type": "uint256"
        },
        {
          "internalType": "string",
          "name": "currencySymbol",
          "type": "string"
        },
        {
          "internalType": "address",
          "name": "currencyAddress",
          "type": "address"
        }
      ],
      "stateMutability": "view",
      "type": "function"
    },
    {
      "inputs": [
        {
          "internalType": "uint256",
          "name": "_index",
          "type": "uint256"
        }
      ],
      "name": "getRegisteredNFTAddressAt",
      "outputs": [
        {
          "internalType": "address",
          "name": "NFTAddress",
          "type": "address"
        }
      ],
      "stateMutability": "view",
      "type": "function"
    },
    {
      "inputs": [
        {
          "internalType": "uint256",
          "name": "_projectId",
          "type": "uint256"
        },
        {
          "internalType": "address",
          "name": "_ownedNFTAddress",
          "type": "address"
        },
        {
          "internalType": "uint256",
          "name": "_ownedNFTTokenId",
          "type": "uint256"
        }
      ],
      "name": "isAllowlistedNFT",
      "outputs": [
        {
          "internalType": "bool",
          "name": "",
          "type": "bool"
        }
      ],
      "stateMutability": "view",
      "type": "function"
    },
    {
      "inputs": [],
      "name": "minterFilterAddress",
      "outputs": [
        {
          "internalType": "address",
          "name": "",
          "type": "address"
        }
      ],
      "stateMutability": "view",
      "type": "function"
    },
    {
      "inputs": [],
      "name": "minterType",
      "outputs": [
        {
          "internalType": "string",
          "name": "",
          "type": "string"
        }
      ],
      "stateMutability": "view",
      "type": "function"
    },
    {
      "inputs": [
        {
          "internalType": "uint256",
          "name": "",
          "type": "uint256"
        }
      ],
      "name": "projectConfig",
      "outputs": [
        {
          "internalType": "bool",
          "name": "maxHasBeenInvoked",
          "type": "bool"
        },
        {
          "internalType": "bool",
          "name": "priceIsConfigured",
          "type": "bool"
        },
        {
          "internalType": "uint24",
          "name": "maxInvocations",
          "type": "uint24"
        },
        {
          "internalType": "uint256",
          "name": "pricePerTokenInWei",
          "type": "uint256"
        }
      ],
      "stateMutability": "view",
      "type": "function"
    },
    {
      "inputs": [
        {
          "internalType": "uint256",
          "name": "_projectId",
          "type": "uint256"
        }
      ],
      "name": "projectMaxHasBeenInvoked",
      "outputs": [
        {
          "internalType": "bool",
          "name": "",
          "type": "bool"
        }
      ],
      "stateMutability": "view",
      "type": "function"
    },
    {
      "inputs": [
        {
          "internalType": "uint256",
          "name": "_projectId",
          "type": "uint256"
        }
      ],
      "name": "projectMaxInvocations",
      "outputs": [
        {
          "internalType": "uint256",
          "name": "",
          "type": "uint256"
        }
      ],
      "stateMutability": "view",
      "type": "function"
    },
    {
      "inputs": [
        {
          "internalType": "uint256",
          "name": "_projectId",
          "type": "uint256"
        },
        {
          "internalType": "address",
          "name": "_ownedNFTAddress",
          "type": "address"
        },
        {
          "internalType": "uint256",
          "name": "_ownedNFTTokenId",
          "type": "uint256"
        }
      ],
      "name": "purchase",
      "outputs": [
        {
          "internalType": "uint256",
          "name": "tokenId",
          "type": "uint256"
        }
      ],
      "stateMutability": "payable",
      "type": "function"
    },
    {
      "inputs": [
        {
          "internalType": "uint256",
          "name": "",
          "type": "uint256"
        }
      ],
      "name": "purchase",
      "outputs": [
        {
          "internalType": "uint256",
          "name": "",
          "type": "uint256"
        }
      ],
      "stateMutability": "payable",
      "type": "function"
    },
    {
      "inputs": [
        {
          "internalType": "address",
          "name": "",
          "type": "address"
        },
        {
          "internalType": "uint256",
          "name": "",
          "type": "uint256"
        }
      ],
      "name": "purchaseTo",
      "outputs": [
        {
          "internalType": "uint256",
          "name": "",
          "type": "uint256"
        }
      ],
      "stateMutability": "payable",
      "type": "function"
    },
    {
      "inputs": [
        {
          "internalType": "address",
          "name": "_to",
          "type": "address"
        },
        {
          "internalType": "uint256",
          "name": "_projectId",
          "type": "uint256"
        },
        {
          "internalType": "address",
          "name": "_ownedNFTAddress",
          "type": "address"
        },
        {
          "internalType": "uint256",
          "name": "_ownedNFTTokenId",
          "type": "uint256"
        }
      ],
      "name": "purchaseTo",
      "outputs": [
        {
          "internalType": "uint256",
          "name": "tokenId",
          "type": "uint256"
        }
      ],
      "stateMutability": "payable",
      "type": "function"
    },
    {
      "inputs": [
        {
          "internalType": "address",
          "name": "_to",
          "type": "address"
        },
        {
          "internalType": "uint256",
          "name": "_projectId",
          "type": "uint256"
        },
        {
          "internalType": "address",
          "name": "_ownedNFTAddress",
          "type": "address"
        },
        {
          "internalType": "uint256",
          "name": "_ownedNFTTokenId",
          "type": "uint256"
        }
      ],
      "name": "purchaseTo_L69",
      "outputs": [
        {
          "internalType": "uint256",
          "name": "tokenId",
          "type": "uint256"
        }
      ],
      "stateMutability": "payable",
      "type": "function"
    },
    {
      "inputs": [
        {
          "internalType": "uint256",
          "name": "_projectId",
          "type": "uint256"
        },
        {
          "internalType": "address",
          "name": "_ownedNFTAddress",
          "type": "address"
        },
        {
          "internalType": "uint256",
          "name": "_ownedNFTTokenId",
          "type": "uint256"
        }
      ],
      "name": "purchase_nnf",
      "outputs": [
        {
          "internalType": "uint256",
          "name": "tokenId",
          "type": "uint256"
        }
      ],
      "stateMutability": "payable",
      "type": "function"
    },
    {
      "inputs": [
        {
          "internalType": "address",
          "name": "_NFTAddress",
          "type": "address"
        }
      ],
      "name": "registerNFTAddress",
      "outputs": [],
      "stateMutability": "nonpayable",
      "type": "function"
    },
    {
      "inputs": [
        {
          "internalType": "uint256",
          "name": "_projectId",
          "type": "uint256"
        },
        {
          "internalType": "address[]",
          "name": "_ownedNFTAddresses",
          "type": "address[]"
        },
        {
          "internalType": "uint256[]",
          "name": "_ownedNFTProjectIds",
          "type": "uint256[]"
        }
      ],
      "name": "removeHoldersOfProjects",
      "outputs": [],
      "stateMutability": "nonpayable",
      "type": "function"
    },
    {
      "inputs": [
        {
          "internalType": "uint256",
          "name": "_projectId",
          "type": "uint256"
        }
      ],
      "name": "setProjectMaxInvocations",
      "outputs": [],
      "stateMutability": "nonpayable",
      "type": "function"
    },
    {
      "inputs": [
        {
          "internalType": "uint256",
          "name": "_projectId",
          "type": "uint256"
        }
      ],
      "name": "togglePurchaseToDisabled",
      "outputs": [],
      "stateMutability": "view",
      "type": "function"
    },
    {
      "inputs": [
        {
          "internalType": "address",
          "name": "_NFTAddress",
          "type": "address"
        }
      ],
      "name": "unregisterNFTAddress",
      "outputs": [],
      "stateMutability": "nonpayable",
      "type": "function"
    },
    {
      "inputs": [
        {
          "internalType": "uint256",
          "name": "_projectId",
          "type": "uint256"
        },
        {
          "internalType": "uint256",
          "name": "_pricePerTokenInWei",
          "type": "uint256"
        }
      ],
      "name": "updatePricePerTokenInWei",
      "outputs": [],
      "stateMutability": "nonpayable",
      "type": "function"
    }
  ],
  "bytecode": "0x6101006040523480156200001257600080fd5b506040516200227b3803806200227b833981016040819052620000359162000157565b600160009081556001600160a01b03808416608081905260a081905290831660c081905260e0819052604080516392a10f8360e01b81529051929391926392a10f8392600480840193602093929083900390910190829087803b1580156200009c57600080fd5b505af1158015620000b1573d6000803e3d6000fd5b505050506040513d601f19601f82011682018060405250810190620000d791906200018f565b6001600160a01b031614620001325760405162461bcd60e51b815260206004820152601860248201527f496c6c6567616c20636f6e74726163742070616972696e670000000000000000604482015260640160405180910390fd5b5050620001b4565b80516001600160a01b03811681146200015257600080fd5b919050565b600080604083850312156200016b57600080fd5b62000176836200013a565b915062000186602084016200013a565b90509250929050565b600060208284031215620001a257600080fd5b620001ad826200013a565b9392505050565b60805160a05160c05160e0516120556200022660003960006107520152600061049b0152600081816108fa015281816109fd01528181610b0601528181610bf601528181610cf901528181610e16015281816110f00152818161136501526114ca0152600061036a01526120556000f3fe6080604052600436106101225760003560e01c8061aa5214610127578061fe5d1461014d5780630ed79c4e1461016057806340d1397e14610182578063462add46146101a25780634fd1b70e146101e25780634ff5759d1461020257806356690aaf14610222578063650e5d6d146101275780636cb9b7ff1461025a578063774159c61461027a5780637994db09146102e4578063891407c01461030457806390d355b71461031757806392a10f831461035857806399c0bbdc146103a4578063a647300c146103b9578063b00abb64146103d9578063bc8ff001146103ec578063c71b1b711461040c578063dd85582f14610489578063e2849bd5146104bd578063e9d1e8ac146104dd578063efef39a114610524578063f7bd4b8814610532575b600080fd5b61013a610135366004611961565b610552565b6040519081526020015b60405180910390f35b61013a61015b366004611999565b610568565b34801561016c57600080fd5b5061018061017b3660046119e1565b6108da565b005b34801561018e57600080fd5b5061018061019d3660046119fe565b6109e5565b3480156101ae57600080fd5b506101d26101bd3660046119fe565b60009081526001602052604090205460ff1690565b6040519015158152602001610144565b3480156101ee57600080fd5b506101806101fd366004611b4f565b610aee565b34801561020e57600080fd5b5061018061021d3660046119e1565b610bd6565b34801561022e57600080fd5b5061013a61023d3660046119fe565b60009081526001602052604090205462010000900462ffffff1690565b34801561026657600080fd5b50610180610275366004611c05565b610ce1565b34801561028657600080fd5b506102d46102953660046119fe565b600090815260016020818152604080842080549301548151808301909252600382526208aa8960eb1b9282019290925261010090920460ff1693909290565b6040516101449493929190611c74565b3480156102f057600080fd5b506101806102ff366004611cae565b610dfe565b61013a610312366004611d1a565b611081565b34801561032357600080fd5b506101d2610332366004611961565b600460209081526000938452604080852082529284528284209052825290205460ff1681565b34801561036457600080fd5b5061038c7f000000000000000000000000000000000000000000000000000000000000000081565b6040516001600160a01b039091168152602001610144565b3480156103b057600080fd5b5061013a6110c7565b3480156103c557600080fd5b506101806103d4366004611cae565b6110d8565b61013a6103e7366004611999565b6112dd565b3480156103f857600080fd5b5061038c6104073660046119fe565b6112f4565b34801561041857600080fd5b5061045c6104273660046119fe565b6001602081905260009182526040909120805491015460ff808316926101008104909116916201000090910462ffffff169084565b60405161014494939291909315158452911515602084015262ffffff166040830152606082015260800190565b34801561049557600080fd5b5061038c7f000000000000000000000000000000000000000000000000000000000000000081565b3480156104c957600080fd5b506101d26104d8366004611961565b611307565b3480156104e957600080fd5b506105176040518060400160405280600e81526020016d4d696e746572486f6c646572563160901b81525081565b6040516101449190611d46565b61013a6103123660046119fe565b34801561053e57600080fd5b5061018061054d3660046119fe565b61134c565b600061056033858585610568565b949350505050565b6000600260005414156105c25760405162461bcd60e51b815260206004820152601f60248201527f5265656e7472616e637947756172643a207265656e7472616e742063616c6c0060448201526064015b60405180910390fd5b60026000908155848152600160205260409020805460ff16156106355760405162461bcd60e51b815260206004820152602560248201527f4d6178696d756d206e756d626572206f6620696e766f636174696f6e732072656044820152641858da195960da1b60648201526084016105b9565b60018101543481111561068a5760405162461bcd60e51b815260206004820181905260248201527f4d7573742073656e64206d696e696d756d2076616c756520746f206d696e742160448201526064016105b9565b8154610100900460ff166106d75760405162461bcd60e51b8152602060048201526014602482015273141c9a58d9481b9bdd0818dbdb999a59dd5c995960621b60448201526064016105b9565b6106e2868686611307565b6107265760405162461bcd60e51b81526020600482015260156024820152744f6e6c7920616c6c6f776c6973746564204e46547360581b60448201526064016105b9565b604051630d4d151360e01b81526001600160a01b038881166004830152602482018890523360448301527f00000000000000000000000000000000000000000000000000000000000000001690630d4d151390606401602060405180830381600087803b15801561079657600080fd5b505af11580156107aa573d6000803e3d6000fd5b505050506040513d601f19601f820116820180604052508101906107ce9190611d59565b825490935060001962ffffff6201000090920482160116620f4240840614156107fd57815460ff191660011782555b6040516331a9108f60e11b81526004810185905233906001600160a01b03871690636352211e9060240160206040518083038186803b15801561083f57600080fd5b505afa158015610853573d6000803e3d6000fd5b505050506040513d601f19601f820116820180604052508101906108779190611d72565b6001600160a01b0316146108c15760405162461bcd60e51b815260206004820152601160248201527013db9b1e481bdddb995c881bd988139195607a1b60448201526064016105b9565b6108cb868261141c565b50506001600055949350505050565b60405163230448b160e01b815263076bce2760e11b906001600160a01b037f0000000000000000000000000000000000000000000000000000000000000000169063230448b19061093390339030908690600401611d8f565b602060405180830381600087803b15801561094d57600080fd5b505af1158015610961573d6000803e3d6000fd5b505050506040513d601f19601f820116820180604052508101906109859190611dd1565b6109a15760405162461bcd60e51b81526004016105b990611dec565b6109ac600283611774565b506040516001600160a01b038316907f7475e948f72f2714b1984b09949d13da2ddbae9f91e31da0faa380c0095b971c90600090a25050565b60405163a47d29cb60e01b81526004810182905281907f00000000000000000000000000000000000000000000000000000000000000006001600160a01b03169063a47d29cb9060240160206040518083038186803b158015610a4757600080fd5b505afa158015610a5b573d6000803e3d6000fd5b505050506040513d601f19601f82011682018060405250810190610a7f9190611d72565b6001600160a01b0316336001600160a01b031614610aaf5760405162461bcd60e51b81526004016105b990611e20565b60405162461bcd60e51b81526020600482015260146024820152731058dd1a5bdb881b9bdd081cdd5c1c1bdc9d195960621b60448201526064016105b9565b60405163a47d29cb60e01b81526004810186905285907f00000000000000000000000000000000000000000000000000000000000000006001600160a01b03169063a47d29cb9060240160206040518083038186803b158015610b5057600080fd5b505afa158015610b64573d6000803e3d6000fd5b505050506040513d601f19601f82011682018060405250810190610b889190611d72565b6001600160a01b0316336001600160a01b031614610bb85760405162461bcd60e51b81526004016105b990611e20565b610bc3868686610dfe565b610bce8684846110d8565b505050505050565b60405163230448b160e01b8152634ff5759d60e01b906001600160a01b037f0000000000000000000000000000000000000000000000000000000000000000169063230448b190610c2f90339030908690600401611d8f565b602060405180830381600087803b158015610c4957600080fd5b505af1158015610c5d573d6000803e3d6000fd5b505050506040513d601f19601f82011682018060405250810190610c819190611dd1565b610c9d5760405162461bcd60e51b81526004016105b990611dec565b610ca8600283611790565b506040516001600160a01b038316907f16e28d6cac0e892c58cee90af3dc883220abe36e25201d7117c4f3aaabf1c3f090600090a25050565b60405163a47d29cb60e01b81526004810183905282907f00000000000000000000000000000000000000000000000000000000000000006001600160a01b03169063a47d29cb9060240160206040518083038186803b158015610d4357600080fd5b505afa158015610d57573d6000803e3d6000fd5b505050506040513d601f19601f82011682018060405250810190610d7b9190611d72565b6001600160a01b0316336001600160a01b031614610dab5760405162461bcd60e51b81526004016105b990611e20565b6000838152600160208190526040808320918201859055815461ff0019166101001790915551839185917f26118a27aca826f829f3bfe21b140b4455c00b434849bd0da50d1e1a9720fb5c9190a3505050565b60405163a47d29cb60e01b81526004810184905283907f00000000000000000000000000000000000000000000000000000000000000006001600160a01b03169063a47d29cb9060240160206040518083038186803b158015610e6057600080fd5b505afa158015610e74573d6000803e3d6000fd5b505050506040513d601f19601f82011682018060405250810190610e989190611d72565b6001600160a01b0316336001600160a01b031614610ec85760405162461bcd60e51b81526004016105b990611e20565b8151835114610f195760405162461bcd60e51b815260206004820152601f60248201527f4c656e677468206f662061646420617272617973206d757374206d617463680060448201526064016105b9565b60005b835181101561104057610f52848281518110610f3a57610f3a611e45565b602002602001015160026117a590919063ffffffff16565b610f9e5760405162461bcd60e51b815260206004820152601d60248201527f4f6e6c792052656769737465726564204e46542041646472657373657300000060448201526064016105b9565b6000858152600460205260408120855160019290879085908110610fc457610fc4611e45565b60200260200101516001600160a01b03166001600160a01b03168152602001908152602001600020600085848151811061100057611000611e45565b6020026020010151815260200190815260200160002060006101000a81548160ff021916908315150217905550808061103890611e71565b915050610f1c565b50837fba2ec6d92cd62364c8e443b484b3e1f72f1ee9e161c1f871de1a60d83c89558b8484604051611073929190611e8c565b60405180910390a250505050565b60405162461bcd60e51b815260206004820152601860248201527704d75737420636c61696d204e4654206f776e6572736869760441b60448201526000906064016105b9565b60006110d360026117c7565b905090565b60405163a47d29cb60e01b81526004810184905283907f00000000000000000000000000000000000000000000000000000000000000006001600160a01b03169063a47d29cb9060240160206040518083038186803b15801561113a57600080fd5b505afa15801561114e573d6000803e3d6000fd5b505050506040513d601f19601f820116820180604052508101906111729190611d72565b6001600160a01b0316336001600160a01b0316146111a25760405162461bcd60e51b81526004016105b990611e20565b81518351146111fe5760405162461bcd60e51b815260206004820152602260248201527f4c656e677468206f662072656d6f766520617272617973206d757374206d61746044820152610c6d60f31b60648201526084016105b9565b60005b83518110156112aa5760008581526004602052604081208551829087908590811061122e5761122e611e45565b60200260200101516001600160a01b03166001600160a01b03168152602001908152602001600020600085848151811061126a5761126a611e45565b6020026020010151815260200190815260200160002060006101000a81548160ff02191690831515021790555080806112a290611e71565b915050611201565b50837f2e3dced83b61aee20d72f4bdc7e6997a0f8616af4067d3aa92afe2b9b0532d1c8484604051611073929190611e8c565b60006112eb85858585610568565b95945050505050565b60006113016002836117d1565b92915050565b600080611317620f424084611f10565b60009586526004602090815260408088206001600160a01b039790971688529581528587209187525250505090205460ff1690565b604051630ea5613f60e01b8152600481018290526000907f00000000000000000000000000000000000000000000000000000000000000006001600160a01b031690630ea5613f9060240160a06040518083038186803b1580156113af57600080fd5b505afa1580156113c3573d6000803e3d6000fd5b505050506040513d601f19601f820116820180604052508101906113e79190611f32565b505050600093845260016020526040909320805462ffffff909416620100000264ffffff000019909416939093179092555050565b34156117705760008061142f8334611f89565b905080156114bf5760405133908290600081818185875af1925050503d8060008114611477576040519150601f19603f3d011682016040523d82523d6000602084013e61147c565b606091505b505080925050816114bf5760405162461bcd60e51b815260206004820152600d60248201526c1499599d5b990819985a5b1959609a1b60448201526064016105b9565b6000806000806000807f00000000000000000000000000000000000000000000000000000000000000006001600160a01b0316638639415b8b8b6040518363ffffffff1660e01b815260040161151f929190918252602082015260400190565b60c06040518083038186803b15801561153757600080fd5b505afa15801561154b573d6000803e3d6000fd5b505050506040513d601f19601f8201168201806040525081019061156f9190611fa0565b9550955095509550955095506000861115611621576040516001600160a01b038616908790600081818185875af1925050503d80600081146115cd576040519150601f19603f3d011682016040523d82523d6000602084013e6115d2565b606091505b505080985050876116215760405162461bcd60e51b8152602060048201526019602482015278105c9d08109b1bd8dadcc81c185e5b595b9d0819985a5b1959603a1b60448201526064016105b9565b83156116c0576040516001600160a01b038416908590600081818185875af1925050503d8060008114611670576040519150601f19603f3d011682016040523d82523d6000602084013e611675565b606091505b505080985050876116c05760405162461bcd60e51b8152602060048201526015602482015274105c9d1a5cdd081c185e5b595b9d0819985a5b1959605a1b60448201526064016105b9565b8115611767576040516001600160a01b038216908390600081818185875af1925050503d806000811461170f576040519150601f19603f3d011682016040523d82523d6000602084013e611714565b606091505b505080985050876117675760405162461bcd60e51b815260206004820152601f60248201527f4164646974696f6e616c205061796565207061796d656e74206661696c65640060448201526064016105b9565b50505050505050505b5050565b6000611789836001600160a01b0384166117dd565b9392505050565b6000611789836001600160a01b03841661182c565b6001600160a01b03811660009081526001830160205260408120541515611789565b6000611301825490565b6000611789838361191f565b600081815260018301602052604081205461182457508154600181810184556000848152602080822090930184905584548482528286019093526040902091909155611301565b506000611301565b60008181526001830160205260408120548015611915576000611850600183611f89565b855490915060009061186490600190611f89565b90508181146118c957600086600001828154811061188457611884611e45565b90600052602060002001549050808760000184815481106118a7576118a7611e45565b6000918252602080832090910192909255918252600188019052604090208390555b85548690806118da576118da612009565b600190038181906000526020600020016000905590558560010160008681526020019081526020016000206000905560019350505050611301565b6000915050611301565b600082600001828154811061193657611936611e45565b9060005260206000200154905092915050565b6001600160a01b038116811461195e57600080fd5b50565b60008060006060848603121561197657600080fd5b83359250602084013561198881611949565b929592945050506040919091013590565b600080600080608085870312156119af57600080fd5b84356119ba81611949565b93506020850135925060408501356119d181611949565b9396929550929360600135925050565b6000602082840312156119f357600080fd5b813561178981611949565b600060208284031215611a1057600080fd5b5035919050565b634e487b7160e01b600052604160045260246000fd5b604051601f8201601f191681016001600160401b0381118282101715611a5557611a55611a17565b604052919050565b60006001600160401b03821115611a7657611a76611a17565b5060051b60200190565b600082601f830112611a9157600080fd5b81356020611aa6611aa183611a5d565b611a2d565b82815260059290921b84018101918181019086841115611ac557600080fd5b8286015b84811015611ae9578035611adc81611949565b8352918301918301611ac9565b509695505050505050565b600082601f830112611b0557600080fd5b81356020611b15611aa183611a5d565b82815260059290921b84018101918181019086841115611b3457600080fd5b8286015b84811015611ae95780358352918301918301611b38565b600080600080600060a08688031215611b6757600080fd5b8535945060208601356001600160401b0380821115611b8557600080fd5b611b9189838a01611a80565b95506040880135915080821115611ba757600080fd5b611bb389838a01611af4565b94506060880135915080821115611bc957600080fd5b611bd589838a01611a80565b93506080880135915080821115611beb57600080fd5b50611bf888828901611af4565b9150509295509295909350565b60008060408385031215611c1857600080fd5b50508035926020909101359150565b6000815180845260005b81811015611c4d57602081850181015186830182015201611c31565b81811115611c5f576000602083870101525b50601f01601f19169290920160200192915050565b8415158152836020820152608060408201526000611c956080830185611c27565b905060018060a01b038316606083015295945050505050565b600080600060608486031215611cc357600080fd5b8335925060208401356001600160401b0380821115611ce157600080fd5b611ced87838801611a80565b93506040860135915080821115611d0357600080fd5b50611d1086828701611af4565b9150509250925092565b60008060408385031215611d2d57600080fd5b8235611d3881611949565b946020939093013593505050565b6020815260006117896020830184611c27565b600060208284031215611d6b57600080fd5b5051919050565b600060208284031215611d8457600080fd5b815161178981611949565b6001600160a01b0393841681529190921660208201526001600160e01b0319909116604082015260600190565b80518015158114611dcc57600080fd5b919050565b600060208284031215611de357600080fd5b61178982611dbc565b6020808252601a908201527913db9b1e4810dbdc994810591b5a5b9050d308185b1b1bddd95960321b604082015260600190565b6020808252600b908201526a13db9b1e48105c9d1a5cdd60aa1b604082015260600190565b634e487b7160e01b600052603260045260246000fd5b634e487b7160e01b600052601160045260246000fd5b6000600019821415611e8557611e85611e5b565b5060010190565b604080825283519082018190526000906020906060840190828701845b82811015611ece5781516001600160a01b031684529284019290840190600101611ea9565b5050508381038285015284518082528583019183019060005b81811015611f0357835183529284019291840191600101611ee7565b5090979650505050505050565b600082611f2d57634e487b7160e01b600052601260045260246000fd5b500490565b600080600080600060a08688031215611f4a57600080fd5b8551945060208601519350611f6160408701611dbc565b9250611f6f60608701611dbc565b9150611f7d60808701611dbc565b90509295509295909350565b600082821015611f9b57611f9b611e5b565b500390565b60008060008060008060c08789031215611fb957600080fd5b865195506020870151611fcb81611949565b604088015160608901519196509450611fe381611949565b608088015160a08901519194509250611ffb81611949565b809150509295509295509295565b634e487b7160e01b600052603160045260246000fdfea264697066735822122075f7ed44d082a3f25713e9b6a70f1521be9c8a3a12273917b8831f7655231e2364736f6c63430008090033",
  "linkReferences": {},
  "deployedLinkReferences": {}
}