{
  "_format": "hh-sol-artifact-1",
  "contractName": "MinterSetPriceV1",
  "sourceName": "contracts/minter-suite/MinterSetPriceV1.sol",
  "abi": [
    {
      "inputs": [
        {
          "internalType": "address",
          "name": "_genArt721Address",
          "type": "address"
        },
        {
          "internalType": "address",
          "name": "_minterFilter",
          "type": "address"
        }
      ],
      "stateMutability": "nonpayable",
      "type": "constructor"
    },
    {
      "anonymous": false,
      "inputs": [
        {
          "indexed": true,
          "internalType": "uint256",
          "name": "_projectId",
          "type": "uint256"
        },
        {
          "indexed": true,
          "internalType": "uint256",
          "name": "_pricePerTokenInWei",
          "type": "uint256"
        }
      ],
      "name": "PricePerTokenInWeiUpdated",
      "type": "event"
    },
    {
      "anonymous": false,
      "inputs": [
        {
          "indexed": true,
          "internalType": "uint256",
          "name": "_projectId",
          "type": "uint256"
        },
        {
          "indexed": true,
          "internalType": "address",
          "name": "_currencyAddress",
          "type": "address"
        },
        {
          "indexed": false,
          "internalType": "string",
          "name": "_currencySymbol",
          "type": "string"
        }
      ],
      "name": "ProjectCurrencyInfoUpdated",
      "type": "event"
    },
    {
      "anonymous": false,
      "inputs": [
        {
          "indexed": true,
          "internalType": "uint256",
          "name": "_projectId",
          "type": "uint256"
        },
        {
          "indexed": false,
          "internalType": "bool",
          "name": "_purchaseToDisabled",
          "type": "bool"
        }
      ],
      "name": "PurchaseToDisabledUpdated",
      "type": "event"
    },
    {
      "inputs": [],
      "name": "genArt721CoreAddress",
      "outputs": [
        {
          "internalType": "address",
          "name": "",
          "type": "address"
        }
      ],
      "stateMutability": "view",
      "type": "function"
    },
    {
      "inputs": [
        {
          "internalType": "uint256",
          "name": "_projectId",
          "type": "uint256"
        }
      ],
      "name": "getPriceInfo",
      "outputs": [
        {
          "internalType": "bool",
          "name": "isConfigured",
          "type": "bool"
        },
        {
          "internalType": "uint256",
          "name": "tokenPriceInWei",
          "type": "uint256"
        },
        {
          "internalType": "string",
          "name": "currencySymbol",
          "type": "string"
        },
        {
          "internalType": "address",
          "name": "currencyAddress",
          "type": "address"
        }
      ],
      "stateMutability": "view",
      "type": "function"
    },
    {
      "inputs": [],
      "name": "minterFilterAddress",
      "outputs": [
        {
          "internalType": "address",
          "name": "",
          "type": "address"
        }
      ],
      "stateMutability": "view",
      "type": "function"
    },
    {
      "inputs": [],
      "name": "minterType",
      "outputs": [
        {
          "internalType": "string",
          "name": "",
          "type": "string"
        }
      ],
      "stateMutability": "view",
      "type": "function"
    },
    {
      "inputs": [
        {
          "internalType": "uint256",
          "name": "",
          "type": "uint256"
        }
      ],
      "name": "projectMaxHasBeenInvoked",
      "outputs": [
        {
          "internalType": "bool",
          "name": "",
          "type": "bool"
        }
      ],
      "stateMutability": "view",
      "type": "function"
    },
    {
      "inputs": [
        {
          "internalType": "uint256",
          "name": "",
          "type": "uint256"
        }
      ],
      "name": "projectMaxInvocations",
      "outputs": [
        {
          "internalType": "uint256",
          "name": "",
          "type": "uint256"
        }
      ],
      "stateMutability": "view",
      "type": "function"
    },
    {
      "inputs": [
        {
          "internalType": "address",
          "name": "",
          "type": "address"
        },
        {
          "internalType": "uint256",
          "name": "",
          "type": "uint256"
        }
      ],
      "name": "projectMintCounter",
      "outputs": [
        {
          "internalType": "uint256",
          "name": "",
          "type": "uint256"
        }
      ],
      "stateMutability": "view",
      "type": "function"
    },
    {
      "inputs": [
        {
          "internalType": "uint256",
          "name": "",
          "type": "uint256"
        }
      ],
      "name": "projectMintLimit",
      "outputs": [
        {
          "internalType": "uint256",
          "name": "",
          "type": "uint256"
        }
      ],
      "stateMutability": "view",
      "type": "function"
    },
    {
      "inputs": [
        {
          "internalType": "uint256",
          "name": "_projectId",
          "type": "uint256"
        }
      ],
      "name": "purchase",
      "outputs": [
        {
          "internalType": "uint256",
          "name": "tokenId",
          "type": "uint256"
        }
      ],
      "stateMutability": "payable",
      "type": "function"
    },
    {
      "inputs": [
        {
          "internalType": "address",
          "name": "_to",
          "type": "address"
        },
        {
          "internalType": "uint256",
          "name": "_projectId",
          "type": "uint256"
        }
      ],
      "name": "purchaseTo",
      "outputs": [
        {
          "internalType": "uint256",
          "name": "tokenId",
          "type": "uint256"
        }
      ],
      "stateMutability": "payable",
      "type": "function"
    },
    {
      "inputs": [
        {
          "internalType": "uint256",
          "name": "_projectId",
          "type": "uint256"
        }
      ],
      "name": "setProjectMaxInvocations",
      "outputs": [],
      "stateMutability": "nonpayable",
      "type": "function"
    },
    {
      "inputs": [
        {
          "internalType": "uint256",
          "name": "_projectId",
          "type": "uint256"
        },
        {
          "internalType": "uint8",
          "name": "_limit",
          "type": "uint8"
        }
      ],
      "name": "setProjectMintLimit",
      "outputs": [],
      "stateMutability": "nonpayable",
      "type": "function"
    },
    {
      "inputs": [
        {
          "internalType": "uint256",
          "name": "_projectId",
          "type": "uint256"
        }
      ],
      "name": "togglePurchaseToDisabled",
      "outputs": [],
      "stateMutability": "view",
      "type": "function"
    },
    {
      "inputs": [
        {
          "internalType": "uint256",
          "name": "_projectId",
          "type": "uint256"
        },
        {
          "internalType": "uint256",
          "name": "_pricePerTokenInWei",
          "type": "uint256"
        }
      ],
      "name": "updatePricePerTokenInWei",
      "outputs": [],
      "stateMutability": "nonpayable",
      "type": "function"
    }
  ],
  "bytecode": "0x6101006040523480156200001257600080fd5b506040516200187438038062001874833981016040819052620000359162000157565b600160009081556001600160a01b03808416608081905260a081905290831660c081905260e0819052604080516392a10f8360e01b81529051929391926392a10f8392600480840193602093929083900390910190829087803b1580156200009c57600080fd5b505af1158015620000b1573d6000803e3d6000fd5b505050506040513d601f19601f82011682018060405250810190620000d791906200018f565b6001600160a01b031614620001325760405162461bcd60e51b815260206004820152601860248201527f496c6c6567616c20636f6e74726163742070616972696e670000000000000000604482015260640160405180910390fd5b5050620001b4565b80516001600160a01b03811681146200015257600080fd5b919050565b600080604083850312156200016b57600080fd5b62000176836200013a565b915062000186602084016200013a565b90509250929050565b600060208284031215620001a257600080fd5b620001ad826200013a565b9392505050565b60805160a05160c05160e0516116406200023460003960006108c8015260006102d801526000818161038d0152818161046701528181610570015281816109e501528181610aa901528181610c2001528181610ccf01528181610e0f01528181610eca01528181610f8101526110ce0152600061029701526116406000f3fe6080604052600436106100bd5760003560e01c8063774159c61161006f578063774159c614610209578063891407c01461027257806392a10f8314610285578063dd85582f146102c6578063e9d1e8ac146102fa578063efef39a114610343578063f7bd4b881461035657600080fd5b8063231c2281146100c25780633a4657b4146100e457806340d1397e1461012f578063462add461461014f57806356690aaf1461018f57806362f7a7ed146101bc5780636cb9b7ff146101e9575b600080fd5b3480156100ce57600080fd5b506100e26100dd3660046111f4565b610376565b005b3480156100f057600080fd5b5061011c6100ff36600461123f565b600160209081526000928352604080842090915290825290205481565b6040519081526020015b60405180910390f35b34801561013b57600080fd5b506100e261014a36600461126b565b61044f565b34801561015b57600080fd5b5061017f61016a36600461126b565b60036020526000908152604090205460ff1681565b6040519015158152602001610126565b34801561019b57600080fd5b5061011c6101aa36600461126b565b60046020526000908152604090205481565b3480156101c857600080fd5b5061011c6101d736600461126b565b60026020526000908152604090205481565b3480156101f557600080fd5b506100e2610204366004611284565b610558565b34801561021557600080fd5b5061026261022436600461126b565b60009081526006602090815260408083205460058352818420548251808401909352600383526208aa8960eb1b9383019390935260ff169391929091565b6040516101269493929190611302565b61011c61028036600461123f565b610677565b34801561029157600080fd5b506102b97f000000000000000000000000000000000000000000000000000000000000000081565b604051610126919061133c565b3480156102d257600080fd5b506102b97f000000000000000000000000000000000000000000000000000000000000000081565b34801561030657600080fd5b506103366040518060400160405280601081526020016f4d696e7465725365745072696365563160801b81525081565b6040516101269190611350565b61011c61035136600461126b565b6109bc565b34801561036257600080fd5b506100e261037136600461126b565b6109ce565b604051633af32abf60e01b81526001600160a01b037f00000000000000000000000000000000000000000000000000000000000000001690633af32abf906103c290339060040161133c565b60206040518083038186803b1580156103da57600080fd5b505afa1580156103ee573d6000803e3d6000fd5b505050506040513d601f19601f82011682018060405250810190610412919061137f565b6104375760405162461bcd60e51b815260040161042e9061139a565b60405180910390fd5b60009182526002602052604090912060ff9091169055565b60405163a47d29cb60e01b81526004810182905281907f00000000000000000000000000000000000000000000000000000000000000006001600160a01b03169063a47d29cb9060240160206040518083038186803b1580156104b157600080fd5b505afa1580156104c5573d6000803e3d6000fd5b505050506040513d601f19601f820116820180604052508101906104e991906113c9565b6001600160a01b0316336001600160a01b0316146105195760405162461bcd60e51b815260040161042e906113e6565b60405162461bcd60e51b81526020600482015260146024820152731058dd1a5bdb881b9bdd081cdd5c1c1bdc9d195960621b604482015260640161042e565b60405163a47d29cb60e01b81526004810183905282907f00000000000000000000000000000000000000000000000000000000000000006001600160a01b03169063a47d29cb9060240160206040518083038186803b1580156105ba57600080fd5b505afa1580156105ce573d6000803e3d6000fd5b505050506040513d601f19601f820116820180604052508101906105f291906113c9565b6001600160a01b0316336001600160a01b0316146106225760405162461bcd60e51b815260040161042e906113e6565b60008381526005602090815260408083208590556006909152808220805460ff1916600117905551839185917f26118a27aca826f829f3bfe21b140b4455c00b434849bd0da50d1e1a9720fb5c9190a3505050565b6000600260005414156106cc5760405162461bcd60e51b815260206004820152601f60248201527f5265656e7472616e637947756172643a207265656e7472616e742063616c6c00604482015260640161042e565b600260009081558281526003602052604090205460ff161561073e5760405162461bcd60e51b815260206004820152602560248201527f4d6178696d756d206e756d626572206f6620696e766f636174696f6e732072656044820152641858da195960da1b606482015260840161042e565b60008281526006602052604090205460ff166107935760405162461bcd60e51b8152602060048201526014602482015273141c9a58d9481b9bdd0818dbdb999a59dd5c995960621b604482015260640161042e565b6000828152600560205260409020543410156107f15760405162461bcd60e51b815260206004820181905260248201527f4d7573742073656e64206d696e696d756d2076616c756520746f206d696e7421604482015260640161042e565b6000828152600260205260409020541561089c576000828152600260209081526040808320543384526001835281842086855290925290912054106108705760405162461bcd60e51b815260206004820152601560248201527414995858da1959081b5a5b9d1a5b99c81b1a5b5a5d605a1b604482015260640161042e565b336000908152600160209081526040808320858452909152812080549161089683611421565b91905055505b604051630d4d151360e01b81526001600160a01b038481166004830152602482018490523360448301527f00000000000000000000000000000000000000000000000000000000000000001690630d4d151390606401602060405180830381600087803b15801561090c57600080fd5b505af1158015610920573d6000803e3d6000fd5b505050506040513d601f19601f82011682018060405250810190610944919061143c565b60008381526004602052604090205490915015801590610989575060008281526004602052604090205461097a90600190611455565b610987620f424083611482565b145b156109a8576000828152600360205260409020805460ff191660011790555b6109b182610b68565b600160005592915050565b60006109c83383610677565b92915050565b604051633af32abf60e01b81526001600160a01b037f00000000000000000000000000000000000000000000000000000000000000001690633af32abf90610a1a90339060040161133c565b60206040518083038186803b158015610a3257600080fd5b505afa158015610a46573d6000803e3d6000fd5b505050506040513d601f19601f82011682018060405250810190610a6a919061137f565b610a865760405162461bcd60e51b815260040161042e9061139a565b6040516346161b1160e11b81526004810182905260009081906001600160a01b037f00000000000000000000000000000000000000000000000000000000000000001690638c2c36229060240160006040518083038186803b158015610aeb57600080fd5b505afa158015610aff573d6000803e3d6000fd5b505050506040513d6000823e601f3d908101601f19168201604052610b2791908101906114b7565b505050600089815260046020526040902083905550919550935050505080821015610b63576000838152600360205260409020805460ff191690555b505050565b34156111f15760008181526005602052604081205490610b888234611455565b90508015610c1a57604051600090339083908381818185875af1925050503d8060008114610bd2576040519150601f19603f3d011682016040523d82523d6000602084013e610bd7565b606091505b5050905080610c185760405162461bcd60e51b815260206004820152600d60248201526c1499599d5b990819985a5b1959609a1b604482015260640161042e565b505b600060647f00000000000000000000000000000000000000000000000000000000000000006001600160a01b0316634f029c396040518163ffffffff1660e01b815260040160206040518083038186803b158015610c7757600080fd5b505afa158015610c8b573d6000803e3d6000fd5b505050506040513d601f19601f82011682018060405250810190610caf919061143c565b610cb990856115d7565b610cc391906115f6565b90508015610dfc5760007f00000000000000000000000000000000000000000000000000000000000000006001600160a01b0316633949f9066040518163ffffffff1660e01b815260040160206040518083038186803b158015610d2657600080fd5b505afa158015610d3a573d6000803e3d6000fd5b505050506040513d601f19601f82011682018060405250810190610d5e91906113c9565b6001600160a01b03168260405160006040518083038185875af1925050503d8060008114610da8576040519150601f19603f3d011682016040523d82523d6000602084013e610dad565b606091505b5050905080610dfa5760405162461bcd60e51b8152602060048201526019602482015278119bdd5b99185d1a5bdb881c185e5b595b9d0819985a5b1959603a1b604482015260640161042e565b505b6000610e088285611455565b90506000807f00000000000000000000000000000000000000000000000000000000000000006001600160a01b031663cc74234b886040518263ffffffff1660e01b8152600401610e5b91815260200190565b60206040518083038186803b158015610e7357600080fd5b505afa158015610e87573d6000803e3d6000fd5b505050506040513d601f19601f82011682018060405250810190610eab919061143c565b11156110a15760405163cc74234b60e01b8152600481018790526064907f00000000000000000000000000000000000000000000000000000000000000006001600160a01b03169063cc74234b9060240160206040518083038186803b158015610f1457600080fd5b505afa158015610f28573d6000803e3d6000fd5b505050506040513d601f19601f82011682018060405250810190610f4c919061143c565b610f5690846115d7565b610f6091906115f6565b905080156110a157604051636bd8225b60e11b8152600481018790526000907f00000000000000000000000000000000000000000000000000000000000000006001600160a01b03169063d7b044b69060240160206040518083038186803b158015610fcb57600080fd5b505afa158015610fdf573d6000803e3d6000fd5b505050506040513d601f19601f8201168201806040525081019061100391906113c9565b6001600160a01b03168260405160006040518083038185875af1925050503d806000811461104d576040519150601f19603f3d011682016040523d82523d6000602084013e611052565b606091505b505090508061109f5760405162461bcd60e51b81526020600482015260196024820152781059191a5d1a5bdb985b081c185e5b595b9d0819985a5b1959603a1b604482015260640161042e565b505b60006110ad8284611455565b905080156111ea5760405163a47d29cb60e01b8152600481018890526000907f00000000000000000000000000000000000000000000000000000000000000006001600160a01b03169063a47d29cb9060240160206040518083038186803b15801561111857600080fd5b505afa15801561112c573d6000803e3d6000fd5b505050506040513d601f19601f8201168201806040525081019061115091906113c9565b6001600160a01b03168260405160006040518083038185875af1925050503d806000811461119a576040519150601f19603f3d011682016040523d82523d6000602084013e61119f565b606091505b50509050806111e85760405162461bcd60e51b8152602060048201526015602482015274105c9d1a5cdd081c185e5b595b9d0819985a5b1959605a1b604482015260640161042e565b505b5050505050505b50565b6000806040838503121561120757600080fd5b82359150602083013560ff8116811461121f57600080fd5b809150509250929050565b6001600160a01b03811681146111f157600080fd5b6000806040838503121561125257600080fd5b823561125d8161122a565b946020939093013593505050565b60006020828403121561127d57600080fd5b5035919050565b6000806040838503121561129757600080fd5b50508035926020909101359150565b60005b838110156112c15781810151838201526020016112a9565b838111156112d0576000848401525b50505050565b600081518084526112ee8160208601602086016112a6565b601f01601f19169290920160200192915050565b841515815283602082015260806040820152600061132360808301856112d6565b905060018060a01b038316606083015295945050505050565b6001600160a01b0391909116815260200190565b60208152600061136360208301846112d6565b9392505050565b8051801515811461137a57600080fd5b919050565b60006020828403121561139157600080fd5b6113638261136a565b60208082526015908201527413db9b1e4810dbdc99481dda1a5d195b1a5cdd1959605a1b604082015260600190565b6000602082840312156113db57600080fd5b81516113638161122a565b6020808252600b908201526a13db9b1e48105c9d1a5cdd60aa1b604082015260600190565b634e487b7160e01b600052601160045260246000fd5b60006000198214156114355761143561140b565b5060010190565b60006020828403121561144e57600080fd5b5051919050565b6000828210156114675761146761140b565b500390565b634e487b7160e01b600052601260045260246000fd5b6000826114915761149161146c565b500690565b805161137a8161122a565b634e487b7160e01b600052604160045260246000fd5b60008060008060008060008060006101208a8c0312156114d657600080fd5b89516114e18161122a565b8099505060208a0151975060408a0151965060608a0151955061150660808b0161136a565b945060a08a01516115168161122a565b60c08b015160e08c0151919550935067ffffffffffffffff8082111561153b57600080fd5b818c0191508c601f83011261154f57600080fd5b815181811115611561576115616114a1565b604051601f8201601f19908116603f01168101908382118183101715611589576115896114a1565b816040528281528f60208487010111156115a257600080fd5b6115b38360208301602088016112a6565b80965050505050506115c86101008b01611496565b90509295985092959850929598565b60008160001904831182151516156115f1576115f161140b565b500290565b6000826116055761160561146c565b50049056fea264697066735822122022a70a21a5c510460023b392a3b9030f4560991c6b3564d3f2689f9b42517c2364736f6c63430008090033",
  "linkReferences": {},
  "deployedLinkReferences": {}
}