{
  "_format": "hh-sol-artifact-1",
  "contractName": "MinterDALinV0",
  "sourceName": "contracts/minter-suite/MinterDALinV0.sol",
  "abi": [
    {
      "inputs": [
        {
          "internalType": "address",
          "name": "_genArt721Address",
          "type": "address"
        },
        {
          "internalType": "address",
          "name": "_minterFilter",
          "type": "address"
        }
      ],
      "stateMutability": "nonpayable",
      "type": "constructor"
    },
    {
      "anonymous": false,
      "inputs": [
        {
          "indexed": false,
          "internalType": "uint256",
          "name": "_minimumAuctionLengthSeconds",
          "type": "uint256"
        }
      ],
      "name": "MinimumAuctionLengthSecondsUpdated",
      "type": "event"
    },
    {
      "anonymous": false,
      "inputs": [
        {
          "indexed": true,
          "internalType": "uint256",
          "name": "_projectId",
          "type": "uint256"
        },
        {
          "indexed": true,
          "internalType": "uint256",
          "name": "_pricePerTokenInWei",
          "type": "uint256"
        }
      ],
      "name": "PricePerTokenInWeiUpdated",
      "type": "event"
    },
    {
      "anonymous": false,
      "inputs": [
        {
          "indexed": true,
          "internalType": "uint256",
          "name": "_projectId",
          "type": "uint256"
        },
        {
          "indexed": true,
          "internalType": "address",
          "name": "_currencyAddress",
          "type": "address"
        },
        {
          "indexed": false,
          "internalType": "string",
          "name": "_currencySymbol",
          "type": "string"
        }
      ],
      "name": "ProjectCurrencyInfoUpdated",
      "type": "event"
    },
    {
      "anonymous": false,
      "inputs": [
        {
          "indexed": true,
          "internalType": "uint256",
          "name": "_projectId",
          "type": "uint256"
        },
        {
          "indexed": false,
          "internalType": "bool",
          "name": "_purchaseToDisabled",
          "type": "bool"
        }
      ],
      "name": "PurchaseToDisabledUpdated",
      "type": "event"
    },
    {
      "anonymous": false,
      "inputs": [
        {
          "indexed": true,
          "internalType": "uint256",
          "name": "projectId",
          "type": "uint256"
        }
      ],
      "name": "ResetAuctionDetails",
      "type": "event"
    },
    {
      "anonymous": false,
      "inputs": [
        {
          "indexed": true,
          "internalType": "uint256",
          "name": "projectId",
          "type": "uint256"
        },
        {
          "indexed": false,
          "internalType": "uint256",
          "name": "_auctionTimestampStart",
          "type": "uint256"
        },
        {
          "indexed": false,
          "internalType": "uint256",
          "name": "_auctionTimestampEnd",
          "type": "uint256"
        },
        {
          "indexed": false,
          "internalType": "uint256",
          "name": "_startPrice",
          "type": "uint256"
        },
        {
          "indexed": false,
          "internalType": "uint256",
          "name": "_basePrice",
          "type": "uint256"
        }
      ],
      "name": "SetAuctionDetails",
      "type": "event"
    },
    {
      "inputs": [
        {
          "internalType": "uint256",
          "name": "",
          "type": "uint256"
        }
      ],
      "name": "contractMintable",
      "outputs": [
        {
          "internalType": "bool",
          "name": "",
          "type": "bool"
        }
      ],
      "stateMutability": "view",
      "type": "function"
    },
    {
      "inputs": [],
      "name": "genArt721CoreAddress",
      "outputs": [
        {
          "internalType": "address",
          "name": "",
          "type": "address"
        }
      ],
      "stateMutability": "view",
      "type": "function"
    },
    {
      "inputs": [
        {
          "internalType": "uint256",
          "name": "_projectId",
          "type": "uint256"
        }
      ],
      "name": "getPriceInfo",
      "outputs": [
        {
          "internalType": "bool",
          "name": "isConfigured",
          "type": "bool"
        },
        {
          "internalType": "uint256",
          "name": "tokenPriceInWei",
          "type": "uint256"
        },
        {
          "internalType": "string",
          "name": "currencySymbol",
          "type": "string"
        },
        {
          "internalType": "address",
          "name": "currencyAddress",
          "type": "address"
        }
      ],
      "stateMutability": "view",
      "type": "function"
    },
    {
      "inputs": [],
      "name": "minimumAuctionLengthSeconds",
      "outputs": [
        {
          "internalType": "uint256",
          "name": "",
          "type": "uint256"
        }
      ],
      "stateMutability": "view",
      "type": "function"
    },
    {
      "inputs": [],
      "name": "minterFilterAddress",
      "outputs": [
        {
          "internalType": "address",
          "name": "",
          "type": "address"
        }
      ],
      "stateMutability": "view",
      "type": "function"
    },
    {
      "inputs": [],
      "name": "minterType",
      "outputs": [
        {
          "internalType": "string",
          "name": "",
          "type": "string"
        }
      ],
      "stateMutability": "view",
      "type": "function"
    },
    {
      "inputs": [
        {
          "internalType": "uint256",
          "name": "",
          "type": "uint256"
        }
      ],
      "name": "projectAuctionParameters",
      "outputs": [
        {
          "internalType": "uint256",
          "name": "timestampStart",
          "type": "uint256"
        },
        {
          "internalType": "uint256",
          "name": "timestampEnd",
          "type": "uint256"
        },
        {
          "internalType": "uint256",
          "name": "startPrice",
          "type": "uint256"
        },
        {
          "internalType": "uint256",
          "name": "basePrice",
          "type": "uint256"
        }
      ],
      "stateMutability": "view",
      "type": "function"
    },
    {
      "inputs": [
        {
          "internalType": "uint256",
          "name": "",
          "type": "uint256"
        }
      ],
      "name": "projectMaxHasBeenInvoked",
      "outputs": [
        {
          "internalType": "bool",
          "name": "",
          "type": "bool"
        }
      ],
      "stateMutability": "view",
      "type": "function"
    },
    {
      "inputs": [
        {
          "internalType": "uint256",
          "name": "",
          "type": "uint256"
        }
      ],
      "name": "projectMaxInvocations",
      "outputs": [
        {
          "internalType": "uint256",
          "name": "",
          "type": "uint256"
        }
      ],
      "stateMutability": "view",
      "type": "function"
    },
    {
      "inputs": [
        {
          "internalType": "address",
          "name": "",
          "type": "address"
        },
        {
          "internalType": "uint256",
          "name": "",
          "type": "uint256"
        }
      ],
      "name": "projectMintCounter",
      "outputs": [
        {
          "internalType": "uint256",
          "name": "",
          "type": "uint256"
        }
      ],
      "stateMutability": "view",
      "type": "function"
    },
    {
      "inputs": [
        {
          "internalType": "uint256",
          "name": "",
          "type": "uint256"
        }
      ],
      "name": "projectMintLimit",
      "outputs": [
        {
          "internalType": "uint256",
          "name": "",
          "type": "uint256"
        }
      ],
      "stateMutability": "view",
      "type": "function"
    },
    {
      "inputs": [
        {
          "internalType": "uint256",
          "name": "_projectId",
          "type": "uint256"
        }
      ],
      "name": "purchase",
      "outputs": [
        {
          "internalType": "uint256",
          "name": "tokenId",
          "type": "uint256"
        }
      ],
      "stateMutability": "payable",
      "type": "function"
    },
    {
      "inputs": [
        {
          "internalType": "address",
          "name": "_to",
          "type": "address"
        },
        {
          "internalType": "uint256",
          "name": "_projectId",
          "type": "uint256"
        }
      ],
      "name": "purchaseTo",
      "outputs": [
        {
          "internalType": "uint256",
          "name": "tokenId",
          "type": "uint256"
        }
      ],
      "stateMutability": "payable",
      "type": "function"
    },
    {
      "inputs": [
        {
          "internalType": "uint256",
          "name": "",
          "type": "uint256"
        }
      ],
      "name": "purchaseToDisabled",
      "outputs": [
        {
          "internalType": "bool",
          "name": "",
          "type": "bool"
        }
      ],
      "stateMutability": "view",
      "type": "function"
    },
    {
      "inputs": [
        {
          "internalType": "uint256",
          "name": "_projectId",
          "type": "uint256"
        }
      ],
      "name": "resetAuctionDetails",
      "outputs": [],
      "stateMutability": "nonpayable",
      "type": "function"
    },
    {
      "inputs": [
        {
          "internalType": "uint256",
          "name": "_projectId",
          "type": "uint256"
        },
        {
          "internalType": "uint256",
          "name": "_auctionTimestampStart",
          "type": "uint256"
        },
        {
          "internalType": "uint256",
          "name": "_auctionTimestampEnd",
          "type": "uint256"
        },
        {
          "internalType": "uint256",
          "name": "_startPrice",
          "type": "uint256"
        },
        {
          "internalType": "uint256",
          "name": "_basePrice",
          "type": "uint256"
        }
      ],
      "name": "setAuctionDetails",
      "outputs": [],
      "stateMutability": "nonpayable",
      "type": "function"
    },
    {
      "inputs": [
        {
          "internalType": "uint256",
          "name": "_minimumAuctionLengthSeconds",
          "type": "uint256"
        }
      ],
      "name": "setMinimumAuctionLengthSeconds",
      "outputs": [],
      "stateMutability": "nonpayable",
      "type": "function"
    },
    {
      "inputs": [
        {
          "internalType": "uint256",
          "name": "_projectId",
          "type": "uint256"
        }
      ],
      "name": "setProjectMaxInvocations",
      "outputs": [],
      "stateMutability": "nonpayable",
      "type": "function"
    },
    {
      "inputs": [
        {
          "internalType": "uint256",
          "name": "_projectId",
          "type": "uint256"
        },
        {
          "internalType": "uint8",
          "name": "_limit",
          "type": "uint8"
        }
      ],
      "name": "setProjectMintLimit",
      "outputs": [],
      "stateMutability": "nonpayable",
      "type": "function"
    },
    {
      "inputs": [
        {
          "internalType": "uint256",
          "name": "_projectId",
          "type": "uint256"
        }
      ],
      "name": "toggleContractMintable",
      "outputs": [],
      "stateMutability": "nonpayable",
      "type": "function"
    },
    {
      "inputs": [
        {
          "internalType": "uint256",
          "name": "_projectId",
          "type": "uint256"
        }
      ],
      "name": "togglePurchaseToDisabled",
      "outputs": [],
      "stateMutability": "nonpayable",
      "type": "function"
    }
  ],
  "bytecode": "0x610100604052610e106007553480156200001857600080fd5b506040516200229f3803806200229f8339810160408190526200003b916200015d565b600160009081556001600160a01b03808416608081905260a081905290831660c081905260e0819052604080516392a10f8360e01b81529051929391926392a10f8392600480840193602093929083900390910190829087803b158015620000a257600080fd5b505af1158015620000b7573d6000803e3d6000fd5b505050506040513d601f19601f82011682018060405250810190620000dd919062000195565b6001600160a01b031614620001385760405162461bcd60e51b815260206004820152601860248201527f496c6c6567616c20636f6e74726163742070616972696e670000000000000000604482015260640160405180910390fd5b5050620001ba565b80516001600160a01b03811681146200015857600080fd5b919050565b600080604083850312156200017157600080fd5b6200017c8362000140565b91506200018c6020840162000140565b90509250929050565b600060208284031215620001a857600080fd5b620001b38262000140565b9392505050565b60805160a05160c05160e051612049620002566000396000610c29015260006104440152600081816104f6015281816105cf015281816106d6015281816107c901528181610d3601528181610e1001528181610eb101528181611292015281816113560152818161161a015281816116c901528181611809015281816118c40152818161197b0152611ac80152600061034d01526120496000f3fe60806040526004361061012a5760003560e01c8063891407c0116100ab578063cd379f6e1161006f578063cd379f6e146103e2578063cfff5cf114610402578063dd85582f14610432578063e9d1e8ac14610466578063efef39a1146104ac578063f7bd4b88146104bf57600080fd5b8063891407c01461032857806392a10f831461033b578063acffea051461037c578063b2d30ac71461039c578063bee56003146103b257600080fd5b806340d1397e116100f257806340d1397e1461023e578063462add461461025e57806356690aaf1461029e57806362f7a7ed146102cb578063774159c6146102f857600080fd5b8063231c22811461012f5780632aedc28e146101515780632f077ee6146101715780632fc37ef1146101d85780633a4657b4146101f8575b600080fd5b34801561013b57600080fd5b5061014f61014a366004611bee565b6104df565b005b34801561015d57600080fd5b5061014f61016c366004611c24565b6105b8565b34801561017d57600080fd5b506101b361018c366004611c24565b60086020526000908152604090208054600182015460028301546003909301549192909184565b6040805194855260208501939093529183015260608201526080015b60405180910390f35b3480156101e457600080fd5b5061014f6101f3366004611c24565b6106bf565b34801561020457600080fd5b50610230610213366004611c55565b600360209081526000928352604080842090915290825290205481565b6040519081526020016101cf565b34801561024a57600080fd5b5061014f610259366004611c24565b6107b2565b34801561026a57600080fd5b5061028e610279366004611c24565b60056020526000908152604090205460ff1681565b60405190151581526020016101cf565b3480156102aa57600080fd5b506102306102b9366004611c24565b60066020526000908152604090205481565b3480156102d757600080fd5b506102306102e6366004611c24565b60046020526000908152604090205481565b34801561030457600080fd5b50610318610313366004611c24565b6108c7565b6040516101cf9493929190611cdd565b610230610336366004611c55565b61096d565b34801561034757600080fd5b5061036f7f000000000000000000000000000000000000000000000000000000000000000081565b6040516101cf9190611d17565b34801561038857600080fd5b5061014f610397366004611c24565b610d1f565b3480156103a857600080fd5b5061023060075481565b3480156103be57600080fd5b5061028e6103cd366004611c24565b60016020526000908152604090205460ff1681565b3480156103ee57600080fd5b5061014f6103fd366004611d2b565b610df7565b34801561040e57600080fd5b5061028e61041d366004611c24565b60026020526000908152604090205460ff1681565b34801561043e57600080fd5b5061036f7f000000000000000000000000000000000000000000000000000000000000000081565b34801561047257600080fd5b5061049f6040518060400160405280600d81526020016c04d696e74657244414c696e563609c1b81525081565b6040516101cf9190611d66565b6102306104ba366004611c24565b611269565b3480156104cb57600080fd5b5061014f6104da366004611c24565b61127b565b604051633af32abf60e01b81526001600160a01b037f00000000000000000000000000000000000000000000000000000000000000001690633af32abf9061052b903390600401611d17565b60206040518083038186803b15801561054357600080fd5b505afa158015610557573d6000803e3d6000fd5b505050506040513d601f19601f8201168201806040525081019061057b9190611d95565b6105a05760405162461bcd60e51b815260040161059790611db0565b60405180910390fd5b60009182526004602052604090912060ff9091169055565b604051633af32abf60e01b81526001600160a01b037f00000000000000000000000000000000000000000000000000000000000000001690633af32abf90610604903390600401611d17565b60206040518083038186803b15801561061c57600080fd5b505afa158015610630573d6000803e3d6000fd5b505050506040513d601f19601f820116820180604052508101906106549190611d95565b6106705760405162461bcd60e51b815260040161059790611db0565b60008181526008602052604080822082815560018101839055600281018390556003018290555182917f2de6b284414d2e6b72bcc8d8d4de934e3f6410660a8f677c5c978f17f9cc2a9291a250565b604051633af32abf60e01b81526001600160a01b037f00000000000000000000000000000000000000000000000000000000000000001690633af32abf9061070b903390600401611d17565b60206040518083038186803b15801561072357600080fd5b505afa158015610737573d6000803e3d6000fd5b505050506040513d601f19601f8201168201806040525081019061075b9190611d95565b6107775760405162461bcd60e51b815260040161059790611db0565b60078190556040518181527f03c81e81b0ed0ca5444a9d70c9f3d1c78d79d6a31419f77736e886d092ed1a9e9060200160405180910390a150565b604051633af32abf60e01b81526001600160a01b037f00000000000000000000000000000000000000000000000000000000000000001690633af32abf906107fe903390600401611d17565b60206040518083038186803b15801561081657600080fd5b505afa15801561082a573d6000803e3d6000fd5b505050506040513d601f19601f8201168201806040525081019061084e9190611d95565b61086a5760405162461bcd60e51b815260040161059790611db0565b600081815260026020908152604091829020805460ff8082161560ff199092168217909255925192161515825282917fce8ced1e9d6979c7589d3c8786f4d51a8034faa5ff2cbc5a2271364f787feccb910160405180910390a250565b6000818152600860209081526040808320815160808101835281548082526001830154948201949094526002820154928101839052600390910154606082810191909152911515939283919042116109255780604001519350610943565b60208101516109375760009350610943565b61094086611415565b93505b6040518060400160405280600381526020016208aa8960eb1b815250925060009150509193509193565b6000600260005414156109c25760405162461bcd60e51b815260206004820152601f60248201527f5265656e7472616e637947756172643a207265656e7472616e742063616c6c006044820152606401610597565b600260009081558281526005602052604090205460ff1615610a345760405162461bcd60e51b815260206004820152602560248201527f4d6178696d756d206e756d626572206f6620696e766f636174696f6e732072656044820152641858da195960da1b6064820152608401610597565b60008281526001602052604090205460ff16610a8c57333214610a8c5760405162461bcd60e51b815260206004820152601060248201526f4e6f20436f6e7472616374204275797360801b6044820152606401610597565b60008281526002602052604090205460ff1615610af557336001600160a01b03841614610af55760405162461bcd60e51b8152602060048201526017602482015276139bc8181c1d5c98da185cd9551bd808105b1b1bddd959604a1b6044820152606401610597565b6000610b0083611415565b905080341015610b525760405162461bcd60e51b815260206004820181905260248201527f4d7573742073656e64206d696e696d756d2076616c756520746f206d696e74216044820152606401610597565b60008381526004602052604090205415610bfd57600083815260046020908152604080832054338452600383528184208785529092529091205410610bd15760405162461bcd60e51b815260206004820152601560248201527414995858da1959081b5a5b9d1a5b99c81b1a5b5a5d605a1b6044820152606401610597565b3360009081526003602090815260408083208684529091528120805491610bf783611df5565b91905055505b604051630d4d151360e01b81526001600160a01b038581166004830152602482018590523360448301527f00000000000000000000000000000000000000000000000000000000000000001690630d4d151390606401602060405180830381600087803b158015610c6d57600080fd5b505af1158015610c81573d6000803e3d6000fd5b505050506040513d601f19601f82011682018060405250810190610ca59190611e10565b60008481526006602052604090205490925015801590610cea5750600083815260066020526040902054610cdb90600190611e29565b610ce8620f424084611e56565b145b15610d09576000838152600560205260409020805460ff191660011790555b610d138382611570565b50600160005592915050565b604051633af32abf60e01b81526001600160a01b037f00000000000000000000000000000000000000000000000000000000000000001690633af32abf90610d6b903390600401611d17565b60206040518083038186803b158015610d8357600080fd5b505afa158015610d97573d6000803e3d6000fd5b505050506040513d601f19601f82011682018060405250810190610dbb9190611d95565b610dd75760405162461bcd60e51b815260040161059790611db0565b6000908152600160205260409020805460ff19811660ff90911615179055565b604051633af32abf60e01b815285906001600160a01b037f00000000000000000000000000000000000000000000000000000000000000001690633af32abf90610e45903390600401611d17565b60206040518083038186803b158015610e5d57600080fd5b505afa158015610e71573d6000803e3d6000fd5b505050506040513d601f19601f82011682018060405250810190610e959190611d95565b80610f48575060405163a47d29cb60e01b8152600481018290527f00000000000000000000000000000000000000000000000000000000000000006001600160a01b03169063a47d29cb9060240160206040518083038186803b158015610efb57600080fd5b505afa158015610f0f573d6000803e3d6000fd5b505050506040513d601f19601f82011682018060405250810190610f339190611e6a565b6001600160a01b0316336001600160a01b0316145b610f945760405162461bcd60e51b815260206004820152601f60248201527f4f6e6c7920436f72652077686974656c6973746564206f7220417274697374006044820152606401610597565b600086815260086020908152604091829020825160808101845281548082526001830154938201939093526002820154938101939093526003015460608301521580610fe05750805142105b61102c5760405162461bcd60e51b815260206004820152601c60248201527f4e6f206d6f64696669636174696f6e73206d69642d61756374696f6e000000006044820152606401610597565b8542106110725760405162461bcd60e51b81526020600482015260146024820152734f6e6c79206675747572652061756374696f6e7360601b6044820152606401610597565b8585116110d85760405162461bcd60e51b815260206004820152602e60248201527f41756374696f6e20656e64206d7573742062652067726561746572207468616e60448201526d08185d58dd1a5bdb881cdd185c9d60921b6064820152608401610597565b6007546110e59087611e87565b85101561115a5760405162461bcd60e51b815260206004820152603b60248201527f41756374696f6e206c656e677468206d757374206265206174206c656173742060448201527f6d696e696d756d41756374696f6e4c656e6774685365636f6e647300000000006064820152608401610597565b8284116111cf5760405162461bcd60e51b815260206004820152603a60248201527f41756374696f6e207374617274207072696365206d757374206265206772656160448201527f746572207468616e2061756374696f6e20656e642070726963650000000000006064820152608401610597565b6040805160808082018352888252602080830189815283850189815260608086018a815260008f815260088652889020965187559251600187015590516002860155905160039094019390935583518a815290810189905292830187905290820185905288917f38b3058b75696f9e45bffa9c4b237adcde13d74c7bc1bea63e13c712d0776c74910160405180910390a250505050505050565b6000611275338361096d565b92915050565b604051633af32abf60e01b81526001600160a01b037f00000000000000000000000000000000000000000000000000000000000000001690633af32abf906112c7903390600401611d17565b60206040518083038186803b1580156112df57600080fd5b505afa1580156112f3573d6000803e3d6000fd5b505050506040513d601f19601f820116820180604052508101906113179190611d95565b6113335760405162461bcd60e51b815260040161059790611db0565b6040516346161b1160e11b81526004810182905260009081906001600160a01b037f00000000000000000000000000000000000000000000000000000000000000001690638c2c36229060240160006040518083038186803b15801561139857600080fd5b505afa1580156113ac573d6000803e3d6000fd5b505050506040513d6000823e601f3d908101601f191682016040526113d49190810190611ec0565b505050600089815260066020526040902083905550919550935050505080821015611410576000838152600560205260409020805460ff191690555b505050565b60008181526008602090815260408083208151608081018352815480825260018301549482019490945260028201549281019290925260030154606082015290421161149d5760405162461bcd60e51b8152602060048201526017602482015276105d58dd1a5bdb881b9bdd081e595d081cdd185c9d1959604a1b6044820152606401610597565b806020015142106115015760008160200151116114f75760405162461bcd60e51b81526020600482015260186024820152774f6e6c7920636f6e666967757265642061756374696f6e7360401b6044820152606401610597565b6060015192915050565b80516000906115109042611e29565b90506000826000015183602001516115289190611e29565b90506000836060015184604001516115409190611e29565b90508161154d8285611fe0565b6115579190611fff565b84604001516115669190611e29565b9695505050505050565b3415611bea5760006115828234611e29565b9050801561161457604051600090339083908381818185875af1925050503d80600081146115cc576040519150601f19603f3d011682016040523d82523d6000602084013e6115d1565b606091505b50509050806116125760405162461bcd60e51b815260206004820152600d60248201526c1499599d5b990819985a5b1959609a1b6044820152606401610597565b505b600060647f00000000000000000000000000000000000000000000000000000000000000006001600160a01b0316634f029c396040518163ffffffff1660e01b815260040160206040518083038186803b15801561167157600080fd5b505afa158015611685573d6000803e3d6000fd5b505050506040513d601f19601f820116820180604052508101906116a99190611e10565b6116b39085611fe0565b6116bd9190611fff565b905080156117f65760007f00000000000000000000000000000000000000000000000000000000000000006001600160a01b0316633949f9066040518163ffffffff1660e01b815260040160206040518083038186803b15801561172057600080fd5b505afa158015611734573d6000803e3d6000fd5b505050506040513d601f19601f820116820180604052508101906117589190611e6a565b6001600160a01b03168260405160006040518083038185875af1925050503d80600081146117a2576040519150601f19603f3d011682016040523d82523d6000602084013e6117a7565b606091505b50509050806117f45760405162461bcd60e51b8152602060048201526019602482015278119bdd5b99185d1a5bdb881c185e5b595b9d0819985a5b1959603a1b6044820152606401610597565b505b60006118028285611e29565b90506000807f00000000000000000000000000000000000000000000000000000000000000006001600160a01b031663cc74234b886040518263ffffffff1660e01b815260040161185591815260200190565b60206040518083038186803b15801561186d57600080fd5b505afa158015611881573d6000803e3d6000fd5b505050506040513d601f19601f820116820180604052508101906118a59190611e10565b1115611a9b5760405163cc74234b60e01b8152600481018790526064907f00000000000000000000000000000000000000000000000000000000000000006001600160a01b03169063cc74234b9060240160206040518083038186803b15801561190e57600080fd5b505afa158015611922573d6000803e3d6000fd5b505050506040513d601f19601f820116820180604052508101906119469190611e10565b6119509084611fe0565b61195a9190611fff565b90508015611a9b57604051636bd8225b60e11b8152600481018790526000907f00000000000000000000000000000000000000000000000000000000000000006001600160a01b03169063d7b044b69060240160206040518083038186803b1580156119c557600080fd5b505afa1580156119d9573d6000803e3d6000fd5b505050506040513d601f19601f820116820180604052508101906119fd9190611e6a565b6001600160a01b03168260405160006040518083038185875af1925050503d8060008114611a47576040519150601f19603f3d011682016040523d82523d6000602084013e611a4c565b606091505b5050905080611a995760405162461bcd60e51b81526020600482015260196024820152781059191a5d1a5bdb985b081c185e5b595b9d0819985a5b1959603a1b6044820152606401610597565b505b6000611aa78284611e29565b90508015611be45760405163a47d29cb60e01b8152600481018890526000907f00000000000000000000000000000000000000000000000000000000000000006001600160a01b03169063a47d29cb9060240160206040518083038186803b158015611b1257600080fd5b505afa158015611b26573d6000803e3d6000fd5b505050506040513d601f19601f82011682018060405250810190611b4a9190611e6a565b6001600160a01b03168260405160006040518083038185875af1925050503d8060008114611b94576040519150601f19603f3d011682016040523d82523d6000602084013e611b99565b606091505b5050905080611be25760405162461bcd60e51b8152602060048201526015602482015274105c9d1a5cdd081c185e5b595b9d0819985a5b1959605a1b6044820152606401610597565b505b50505050505b5050565b60008060408385031215611c0157600080fd5b82359150602083013560ff81168114611c1957600080fd5b809150509250929050565b600060208284031215611c3657600080fd5b5035919050565b6001600160a01b0381168114611c5257600080fd5b50565b60008060408385031215611c6857600080fd5b8235611c7381611c3d565b946020939093013593505050565b60005b83811015611c9c578181015183820152602001611c84565b83811115611cab576000848401525b50505050565b60008151808452611cc9816020860160208601611c81565b601f01601f19169290920160200192915050565b8415158152836020820152608060408201526000611cfe6080830185611cb1565b905060018060a01b038316606083015295945050505050565b6001600160a01b0391909116815260200190565b600080600080600060a08688031215611d4357600080fd5b505083359560208501359550604085013594606081013594506080013592509050565b602081526000611d796020830184611cb1565b9392505050565b80518015158114611d9057600080fd5b919050565b600060208284031215611da757600080fd5b611d7982611d80565b60208082526015908201527413db9b1e4810dbdc99481dda1a5d195b1a5cdd1959605a1b604082015260600190565b634e487b7160e01b600052601160045260246000fd5b6000600019821415611e0957611e09611ddf565b5060010190565b600060208284031215611e2257600080fd5b5051919050565b600082821015611e3b57611e3b611ddf565b500390565b634e487b7160e01b600052601260045260246000fd5b600082611e6557611e65611e40565b500690565b600060208284031215611e7c57600080fd5b8151611d7981611c3d565b60008219821115611e9a57611e9a611ddf565b500190565b8051611d9081611c3d565b634e487b7160e01b600052604160045260246000fd5b60008060008060008060008060006101208a8c031215611edf57600080fd5b8951611eea81611c3d565b8099505060208a0151975060408a0151965060608a01519550611f0f60808b01611d80565b945060a08a0151611f1f81611c3d565b60c08b015160e08c0151919550935067ffffffffffffffff80821115611f4457600080fd5b818c0191508c601f830112611f5857600080fd5b815181811115611f6a57611f6a611eaa565b604051601f8201601f19908116603f01168101908382118183101715611f9257611f92611eaa565b816040528281528f6020848701011115611fab57600080fd5b611fbc836020830160208801611c81565b8096505050505050611fd16101008b01611e9f565b90509295985092959850929598565b6000816000190483118215151615611ffa57611ffa611ddf565b500290565b60008261200e5761200e611e40565b50049056fea2646970667358221220cc9e409daee1660c3dd37b776b894111b767f1bb6e84749464b3cdd34868dd6f64736f6c63430008090033",
  "linkReferences": {},
  "deployedLinkReferences": {}
}