{
  "_format": "hh-sol-artifact-1",
  "contractName": "MinterSetPriceV1",
  "sourceName": "contracts/minter-suite/MinterSetPriceV1.sol",
  "abi": [
    {
      "inputs": [
        {
          "internalType": "address",
          "name": "_genArt721Address",
          "type": "address"
        },
        {
          "internalType": "address",
          "name": "_minterFilter",
          "type": "address"
        }
      ],
      "stateMutability": "nonpayable",
      "type": "constructor"
    },
    {
      "anonymous": false,
      "inputs": [
        {
          "indexed": true,
          "internalType": "uint256",
          "name": "_projectId",
          "type": "uint256"
        },
        {
          "indexed": true,
          "internalType": "uint256",
          "name": "_pricePerTokenInWei",
          "type": "uint256"
        }
      ],
      "name": "PricePerTokenInWeiUpdated",
      "type": "event"
    },
    {
      "anonymous": false,
      "inputs": [
        {
          "indexed": true,
          "internalType": "uint256",
          "name": "_projectId",
          "type": "uint256"
        },
        {
          "indexed": true,
          "internalType": "address",
          "name": "_currencyAddress",
          "type": "address"
        },
        {
          "indexed": false,
          "internalType": "string",
          "name": "_currencySymbol",
          "type": "string"
        }
      ],
      "name": "ProjectCurrencyInfoUpdated",
      "type": "event"
    },
    {
      "anonymous": false,
      "inputs": [
        {
          "indexed": true,
          "internalType": "uint256",
          "name": "_projectId",
          "type": "uint256"
        },
        {
          "indexed": false,
          "internalType": "bool",
          "name": "_purchaseToDisabled",
          "type": "bool"
        }
      ],
      "name": "PurchaseToDisabledUpdated",
      "type": "event"
    },
    {
      "inputs": [],
      "name": "genArt721CoreAddress",
      "outputs": [
        {
          "internalType": "address",
          "name": "",
          "type": "address"
        }
      ],
      "stateMutability": "view",
      "type": "function"
    },
    {
      "inputs": [
        {
          "internalType": "uint256",
          "name": "_projectId",
          "type": "uint256"
        }
      ],
      "name": "getPriceInfo",
      "outputs": [
        {
          "internalType": "bool",
          "name": "isConfigured",
          "type": "bool"
        },
        {
          "internalType": "uint256",
          "name": "tokenPriceInWei",
          "type": "uint256"
        },
        {
          "internalType": "string",
          "name": "currencySymbol",
          "type": "string"
        },
        {
          "internalType": "address",
          "name": "currencyAddress",
          "type": "address"
        }
      ],
      "stateMutability": "view",
      "type": "function"
    },
    {
      "inputs": [],
      "name": "minterFilterAddress",
      "outputs": [
        {
          "internalType": "address",
          "name": "",
          "type": "address"
        }
      ],
      "stateMutability": "view",
      "type": "function"
    },
    {
      "inputs": [],
      "name": "minterType",
      "outputs": [
        {
          "internalType": "string",
          "name": "",
          "type": "string"
        }
      ],
      "stateMutability": "view",
      "type": "function"
    },
    {
      "inputs": [
        {
          "internalType": "uint256",
          "name": "",
          "type": "uint256"
        }
      ],
      "name": "projectMaxHasBeenInvoked",
      "outputs": [
        {
          "internalType": "bool",
          "name": "",
          "type": "bool"
        }
      ],
      "stateMutability": "view",
      "type": "function"
    },
    {
      "inputs": [
        {
          "internalType": "uint256",
          "name": "",
          "type": "uint256"
        }
      ],
      "name": "projectMaxInvocations",
      "outputs": [
        {
          "internalType": "uint256",
          "name": "",
          "type": "uint256"
        }
      ],
      "stateMutability": "view",
      "type": "function"
    },
    {
      "inputs": [
        {
          "internalType": "uint256",
          "name": "_projectId",
          "type": "uint256"
        }
      ],
      "name": "purchase",
      "outputs": [
        {
          "internalType": "uint256",
          "name": "tokenId",
          "type": "uint256"
        }
      ],
      "stateMutability": "payable",
      "type": "function"
    },
    {
      "inputs": [
        {
          "internalType": "address",
          "name": "_to",
          "type": "address"
        },
        {
          "internalType": "uint256",
          "name": "_projectId",
          "type": "uint256"
        }
      ],
      "name": "purchaseTo",
      "outputs": [
        {
          "internalType": "uint256",
          "name": "tokenId",
          "type": "uint256"
        }
      ],
      "stateMutability": "payable",
      "type": "function"
    },
    {
      "inputs": [
        {
          "internalType": "uint256",
          "name": "_projectId",
          "type": "uint256"
        }
      ],
      "name": "setProjectMaxInvocations",
      "outputs": [],
      "stateMutability": "nonpayable",
      "type": "function"
    },
    {
      "inputs": [
        {
          "internalType": "uint256",
          "name": "_projectId",
          "type": "uint256"
        }
      ],
      "name": "togglePurchaseToDisabled",
      "outputs": [],
      "stateMutability": "view",
      "type": "function"
    },
    {
      "inputs": [
        {
          "internalType": "uint256",
          "name": "_projectId",
          "type": "uint256"
        },
        {
          "internalType": "uint256",
          "name": "_pricePerTokenInWei",
          "type": "uint256"
        }
      ],
      "name": "updatePricePerTokenInWei",
      "outputs": [],
      "stateMutability": "nonpayable",
      "type": "function"
    }
  ],
  "bytecode": "0x6101006040523480156200001257600080fd5b50604051620015e9380380620015e9833981016040819052620000359162000157565b600160009081556001600160a01b03808416608081905260a081905290831660c081905260e0819052604080516392a10f8360e01b81529051929391926392a10f8392600480840193602093929083900390910190829087803b1580156200009c57600080fd5b505af1158015620000b1573d6000803e3d6000fd5b505050506040513d601f19601f82011682018060405250810190620000d791906200018f565b6001600160a01b031614620001325760405162461bcd60e51b815260206004820152601860248201527f496c6c6567616c20636f6e74726163742070616972696e670000000000000000604482015260640160405180910390fd5b5050620001b4565b80516001600160a01b03811681146200015257600080fd5b919050565b600080604083850312156200016b57600080fd5b62000176836200013a565b915062000186602084016200013a565b90509250929050565b600060208284031215620001a257600080fd5b620001ad826200013a565b9392505050565b60805160a05160c05160e0516113bc6200022d60003960006106b20152600061023d0152600081816102f301528181610405015281816107d0015281816108b901528181610a3001528181610adf01528181610c1f01528181610cda01528181610d910152610ede015260006101f101526113bc6000f3fe60806040526004361061009c5760003560e01c8063891407c011610064578063891407c0146101cc57806392a10f83146101df578063dd85582f1461022b578063e9d1e8ac1461025f578063efef39a1146102a8578063f7bd4b88146102bb57600080fd5b806340d1397e146100a1578063462add46146100c357806356690aaf146101085780636cb9b7ff14610143578063774159c614610163575b600080fd5b3480156100ad57600080fd5b506100c16100bc366004611004565b6102db565b005b3480156100cf57600080fd5b506100f36100de366004611004565b60016020526000908152604090205460ff1681565b60405190151581526020015b60405180910390f35b34801561011457600080fd5b50610135610123366004611004565b60026020526000908152604090205481565b6040519081526020016100ff565b34801561014f57600080fd5b506100c161015e36600461101d565b6103ed565b34801561016f57600080fd5b506101bc61017e366004611004565b60009081526004602090815260408083205460038084528285205483518085019094529083526208aa8960eb1b9383019390935260ff169391929091565b6040516100ff949392919061109b565b6101356101da3660046110ea565b61050c565b3480156101eb57600080fd5b506102137f000000000000000000000000000000000000000000000000000000000000000081565b6040516001600160a01b0390911681526020016100ff565b34801561023757600080fd5b506102137f000000000000000000000000000000000000000000000000000000000000000081565b34801561026b57600080fd5b5061029b6040518060400160405280601081526020016f4d696e7465725365745072696365563160801b81525081565b6040516100ff9190611116565b6101356102b6366004611004565b6107a9565b3480156102c757600080fd5b506100c16102d6366004611004565b6107bb565b60405163a47d29cb60e01b81526004810182905281907f00000000000000000000000000000000000000000000000000000000000000006001600160a01b03169063a47d29cb9060240160206040518083038186803b15801561033d57600080fd5b505afa158015610351573d6000803e3d6000fd5b505050506040513d601f19601f820116820180604052508101906103759190611130565b6001600160a01b0316336001600160a01b0316146103ae5760405162461bcd60e51b81526004016103a59061114d565b60405180910390fd5b60405162461bcd60e51b81526020600482015260146024820152731058dd1a5bdb881b9bdd081cdd5c1c1bdc9d195960621b60448201526064016103a5565b60405163a47d29cb60e01b81526004810183905282907f00000000000000000000000000000000000000000000000000000000000000006001600160a01b03169063a47d29cb9060240160206040518083038186803b15801561044f57600080fd5b505afa158015610463573d6000803e3d6000fd5b505050506040513d601f19601f820116820180604052508101906104879190611130565b6001600160a01b0316336001600160a01b0316146104b75760405162461bcd60e51b81526004016103a59061114d565b60008381526003602090815260408083208590556004909152808220805460ff1916600117905551839185917f26118a27aca826f829f3bfe21b140b4455c00b434849bd0da50d1e1a9720fb5c9190a3505050565b6000600260005414156105615760405162461bcd60e51b815260206004820152601f60248201527f5265656e7472616e637947756172643a207265656e7472616e742063616c6c0060448201526064016103a5565b600260009081558281526001602052604090205460ff16156105d35760405162461bcd60e51b815260206004820152602560248201527f4d6178696d756d206e756d626572206f6620696e766f636174696f6e732072656044820152641858da195960da1b60648201526084016103a5565b60008281526004602052604090205460ff166106285760405162461bcd60e51b8152602060048201526014602482015273141c9a58d9481b9bdd0818dbdb999a59dd5c995960621b60448201526064016103a5565b6000828152600360205260409020543410156106865760405162461bcd60e51b815260206004820181905260248201527f4d7573742073656e64206d696e696d756d2076616c756520746f206d696e742160448201526064016103a5565b604051630d4d151360e01b81526001600160a01b038481166004830152602482018490523360448301527f00000000000000000000000000000000000000000000000000000000000000001690630d4d151390606401602060405180830381600087803b1580156106f657600080fd5b505af115801561070a573d6000803e3d6000fd5b505050506040513d601f19601f8201168201806040525081019061072e9190611172565b600083815260026020526040902054909150158015906107735750600082815260026020526040902054610764906001906111a1565b610771620f4240836111ce565b145b15610795576000828152600160208190526040909120805460ff191690911790555b61079e82610978565b600160005592915050565b60006107b5338361050c565b92915050565b604051633af32abf60e01b81523360048201527f00000000000000000000000000000000000000000000000000000000000000006001600160a01b031690633af32abf9060240160206040518083038186803b15801561081a57600080fd5b505afa15801561082e573d6000803e3d6000fd5b505050506040513d601f19601f8201168201806040525081019061085291906111f7565b6108965760405162461bcd60e51b815260206004820152601560248201527413db9b1e4810dbdc99481dda1a5d195b1a5cdd1959605a1b60448201526064016103a5565b6040516346161b1160e11b81526004810182905260009081906001600160a01b037f00000000000000000000000000000000000000000000000000000000000000001690638c2c36229060240160006040518083038186803b1580156108fb57600080fd5b505afa15801561090f573d6000803e3d6000fd5b505050506040513d6000823e601f3d908101601f191682016040526109379190810190611233565b505050600089815260026020526040902083905550919550935050505080821015610973576000838152600160205260409020805460ff191690555b505050565b3415611001576000818152600360205260408120549061099882346111a1565b90508015610a2a57604051600090339083908381818185875af1925050503d80600081146109e2576040519150601f19603f3d011682016040523d82523d6000602084013e6109e7565b606091505b5050905080610a285760405162461bcd60e51b815260206004820152600d60248201526c1499599d5b990819985a5b1959609a1b60448201526064016103a5565b505b600060647f00000000000000000000000000000000000000000000000000000000000000006001600160a01b0316634f029c396040518163ffffffff1660e01b815260040160206040518083038186803b158015610a8757600080fd5b505afa158015610a9b573d6000803e3d6000fd5b505050506040513d601f19601f82011682018060405250810190610abf9190611172565b610ac99085611353565b610ad39190611372565b90508015610c0c5760007f00000000000000000000000000000000000000000000000000000000000000006001600160a01b0316633949f9066040518163ffffffff1660e01b815260040160206040518083038186803b158015610b3657600080fd5b505afa158015610b4a573d6000803e3d6000fd5b505050506040513d601f19601f82011682018060405250810190610b6e9190611130565b6001600160a01b03168260405160006040518083038185875af1925050503d8060008114610bb8576040519150601f19603f3d011682016040523d82523d6000602084013e610bbd565b606091505b5050905080610c0a5760405162461bcd60e51b8152602060048201526019602482015278119bdd5b99185d1a5bdb881c185e5b595b9d0819985a5b1959603a1b60448201526064016103a5565b505b6000610c1882856111a1565b90506000807f00000000000000000000000000000000000000000000000000000000000000006001600160a01b031663cc74234b886040518263ffffffff1660e01b8152600401610c6b91815260200190565b60206040518083038186803b158015610c8357600080fd5b505afa158015610c97573d6000803e3d6000fd5b505050506040513d601f19601f82011682018060405250810190610cbb9190611172565b1115610eb15760405163cc74234b60e01b8152600481018790526064907f00000000000000000000000000000000000000000000000000000000000000006001600160a01b03169063cc74234b9060240160206040518083038186803b158015610d2457600080fd5b505afa158015610d38573d6000803e3d6000fd5b505050506040513d601f19601f82011682018060405250810190610d5c9190611172565b610d669084611353565b610d709190611372565b90508015610eb157604051636bd8225b60e11b8152600481018790526000907f00000000000000000000000000000000000000000000000000000000000000006001600160a01b03169063d7b044b69060240160206040518083038186803b158015610ddb57600080fd5b505afa158015610def573d6000803e3d6000fd5b505050506040513d601f19601f82011682018060405250810190610e139190611130565b6001600160a01b03168260405160006040518083038185875af1925050503d8060008114610e5d576040519150601f19603f3d011682016040523d82523d6000602084013e610e62565b606091505b5050905080610eaf5760405162461bcd60e51b81526020600482015260196024820152781059191a5d1a5bdb985b081c185e5b595b9d0819985a5b1959603a1b60448201526064016103a5565b505b6000610ebd82846111a1565b90508015610ffa5760405163a47d29cb60e01b8152600481018890526000907f00000000000000000000000000000000000000000000000000000000000000006001600160a01b03169063a47d29cb9060240160206040518083038186803b158015610f2857600080fd5b505afa158015610f3c573d6000803e3d6000fd5b505050506040513d601f19601f82011682018060405250810190610f609190611130565b6001600160a01b03168260405160006040518083038185875af1925050503d8060008114610faa576040519150601f19603f3d011682016040523d82523d6000602084013e610faf565b606091505b5050905080610ff85760405162461bcd60e51b8152602060048201526015602482015274105c9d1a5cdd081c185e5b595b9d0819985a5b1959605a1b60448201526064016103a5565b505b5050505050505b50565b60006020828403121561101657600080fd5b5035919050565b6000806040838503121561103057600080fd5b50508035926020909101359150565b60005b8381101561105a578181015183820152602001611042565b83811115611069576000848401525b50505050565b6000815180845261108781602086016020860161103f565b601f01601f19169290920160200192915050565b84151581528360208201526080604082015260006110bc608083018561106f565b905060018060a01b038316606083015295945050505050565b6001600160a01b038116811461100157600080fd5b600080604083850312156110fd57600080fd5b8235611108816110d5565b946020939093013593505050565b602081526000611129602083018461106f565b9392505050565b60006020828403121561114257600080fd5b8151611129816110d5565b6020808252600b908201526a13db9b1e48105c9d1a5cdd60aa1b604082015260600190565b60006020828403121561118457600080fd5b5051919050565b634e487b7160e01b600052601160045260246000fd5b6000828210156111b3576111b361118b565b500390565b634e487b7160e01b600052601260045260246000fd5b6000826111dd576111dd6111b8565b500690565b805180151581146111f257600080fd5b919050565b60006020828403121561120957600080fd5b611129826111e2565b80516111f2816110d5565b634e487b7160e01b600052604160045260246000fd5b60008060008060008060008060006101208a8c03121561125257600080fd5b895161125d816110d5565b8099505060208a0151975060408a0151965060608a0151955061128260808b016111e2565b945060a08a0151611292816110d5565b60c08b015160e08c0151919550935067ffffffffffffffff808211156112b757600080fd5b818c0191508c601f8301126112cb57600080fd5b8151818111156112dd576112dd61121d565b604051601f8201601f19908116603f011681019083821181831017156113055761130561121d565b816040528281528f602084870101111561131e57600080fd5b61132f83602083016020880161103f565b80965050505050506113446101008b01611212565b90509295985092959850929598565b600081600019048311821515161561136d5761136d61118b565b500290565b600082611381576113816111b8565b50049056fea264697066735822122032d47f642a1ebf483585a82f8a7315cc58d6e357877b5f92b761a8a07d23caeb64736f6c63430008090033",
  "linkReferences": {},
  "deployedLinkReferences": {}
}