{
  "_format": "hh-sol-artifact-1",
  "contractName": "MinterMerkleV3",
  "sourceName": "contracts/minter-suite/Minters/MinterMerkle/MinterMerkleV3.sol",
  "abi": [
    {
      "inputs": [
        {
          "internalType": "address",
          "name": "_genArt721Address",
          "type": "address"
        },
        {
          "internalType": "address",
          "name": "_minterFilter",
          "type": "address"
        },
        {
          "internalType": "address",
          "name": "_delegationRegistryAddress",
          "type": "address"
        }
      ],
      "stateMutability": "nonpayable",
      "type": "constructor"
    },
    {
      "anonymous": false,
      "inputs": [
        {
          "indexed": true,
          "internalType": "uint256",
          "name": "_projectId",
          "type": "uint256"
        },
        {
          "indexed": false,
          "internalType": "bytes32",
          "name": "_key",
          "type": "bytes32"
        }
      ],
      "name": "ConfigKeyRemoved",
      "type": "event"
    },
    {
      "anonymous": false,
      "inputs": [
        {
          "indexed": true,
          "internalType": "uint256",
          "name": "_projectId",
          "type": "uint256"
        },
        {
          "indexed": false,
          "internalType": "bytes32",
          "name": "_key",
          "type": "bytes32"
        },
        {
          "indexed": false,
          "internalType": "uint256",
          "name": "_value",
          "type": "uint256"
        }
      ],
      "name": "ConfigValueAddedToSet",
      "type": "event"
    },
    {
      "anonymous": false,
      "inputs": [
        {
          "indexed": true,
          "internalType": "uint256",
          "name": "_projectId",
          "type": "uint256"
        },
        {
          "indexed": false,
          "internalType": "bytes32",
          "name": "_key",
          "type": "bytes32"
        },
        {
          "indexed": false,
          "internalType": "address",
          "name": "_value",
          "type": "address"
        }
      ],
      "name": "ConfigValueAddedToSet",
      "type": "event"
    },
    {
      "anonymous": false,
      "inputs": [
        {
          "indexed": true,
          "internalType": "uint256",
          "name": "_projectId",
          "type": "uint256"
        },
        {
          "indexed": false,
          "internalType": "bytes32",
          "name": "_key",
          "type": "bytes32"
        },
        {
          "indexed": false,
          "internalType": "bytes32",
          "name": "_value",
          "type": "bytes32"
        }
      ],
      "name": "ConfigValueAddedToSet",
      "type": "event"
    },
    {
      "anonymous": false,
      "inputs": [
        {
          "indexed": true,
          "internalType": "uint256",
          "name": "_projectId",
          "type": "uint256"
        },
        {
          "indexed": false,
          "internalType": "bytes32",
          "name": "_key",
          "type": "bytes32"
        },
        {
          "indexed": false,
          "internalType": "uint256",
          "name": "_value",
          "type": "uint256"
        }
      ],
      "name": "ConfigValueRemovedFromSet",
      "type": "event"
    },
    {
      "anonymous": false,
      "inputs": [
        {
          "indexed": true,
          "internalType": "uint256",
          "name": "_projectId",
          "type": "uint256"
        },
        {
          "indexed": false,
          "internalType": "bytes32",
          "name": "_key",
          "type": "bytes32"
        },
        {
          "indexed": false,
          "internalType": "address",
          "name": "_value",
          "type": "address"
        }
      ],
      "name": "ConfigValueRemovedFromSet",
      "type": "event"
    },
    {
      "anonymous": false,
      "inputs": [
        {
          "indexed": true,
          "internalType": "uint256",
          "name": "_projectId",
          "type": "uint256"
        },
        {
          "indexed": false,
          "internalType": "bytes32",
          "name": "_key",
          "type": "bytes32"
        },
        {
          "indexed": false,
          "internalType": "bytes32",
          "name": "_value",
          "type": "bytes32"
        }
      ],
      "name": "ConfigValueRemovedFromSet",
      "type": "event"
    },
    {
      "anonymous": false,
      "inputs": [
        {
          "indexed": true,
          "internalType": "uint256",
          "name": "_projectId",
          "type": "uint256"
        },
        {
          "indexed": false,
          "internalType": "bytes32",
          "name": "_key",
          "type": "bytes32"
        },
        {
          "indexed": false,
          "internalType": "bool",
          "name": "_value",
          "type": "bool"
        }
      ],
      "name": "ConfigValueSet",
      "type": "event"
    },
    {
      "anonymous": false,
      "inputs": [
        {
          "indexed": true,
          "internalType": "uint256",
          "name": "_projectId",
          "type": "uint256"
        },
        {
          "indexed": false,
          "internalType": "bytes32",
          "name": "_key",
          "type": "bytes32"
        },
        {
          "indexed": false,
          "internalType": "uint256",
          "name": "_value",
          "type": "uint256"
        }
      ],
      "name": "ConfigValueSet",
      "type": "event"
    },
    {
      "anonymous": false,
      "inputs": [
        {
          "indexed": true,
          "internalType": "uint256",
          "name": "_projectId",
          "type": "uint256"
        },
        {
          "indexed": false,
          "internalType": "bytes32",
          "name": "_key",
          "type": "bytes32"
        },
        {
          "indexed": false,
          "internalType": "address",
          "name": "_value",
          "type": "address"
        }
      ],
      "name": "ConfigValueSet",
      "type": "event"
    },
    {
      "anonymous": false,
      "inputs": [
        {
          "indexed": true,
          "internalType": "uint256",
          "name": "_projectId",
          "type": "uint256"
        },
        {
          "indexed": false,
          "internalType": "bytes32",
          "name": "_key",
          "type": "bytes32"
        },
        {
          "indexed": false,
          "internalType": "bytes32",
          "name": "_value",
          "type": "bytes32"
        }
      ],
      "name": "ConfigValueSet",
      "type": "event"
    },
    {
      "anonymous": false,
      "inputs": [
        {
          "indexed": false,
          "internalType": "uint256",
          "name": "defaultMaxInvocationsPerAddress",
          "type": "uint256"
        }
      ],
      "name": "DefaultMaxInvocationsPerAddress",
      "type": "event"
    },
    {
      "anonymous": false,
      "inputs": [
        {
          "indexed": false,
          "internalType": "address",
          "name": "delegationRegistryAddress",
          "type": "address"
        }
      ],
      "name": "DelegationRegistryUpdated",
      "type": "event"
    },
    {
      "anonymous": false,
      "inputs": [
        {
          "indexed": true,
          "internalType": "uint256",
          "name": "_projectId",
          "type": "uint256"
        },
        {
          "indexed": true,
          "internalType": "uint256",
          "name": "_pricePerTokenInWei",
          "type": "uint256"
        }
      ],
      "name": "PricePerTokenInWeiUpdated",
      "type": "event"
    },
    {
      "anonymous": false,
      "inputs": [
        {
          "indexed": true,
          "internalType": "uint256",
          "name": "_projectId",
          "type": "uint256"
        },
        {
          "indexed": true,
          "internalType": "address",
          "name": "_currencyAddress",
          "type": "address"
        },
        {
          "indexed": false,
          "internalType": "string",
          "name": "_currencySymbol",
          "type": "string"
        }
      ],
      "name": "ProjectCurrencyInfoUpdated",
      "type": "event"
    },
    {
      "anonymous": false,
      "inputs": [
        {
          "indexed": true,
          "internalType": "uint256",
          "name": "_projectId",
          "type": "uint256"
        },
        {
          "indexed": false,
          "internalType": "bool",
          "name": "_purchaseToDisabled",
          "type": "bool"
        }
      ],
      "name": "PurchaseToDisabledUpdated",
      "type": "event"
    },
    {
      "inputs": [],
      "name": "DEFAULT_MAX_INVOCATIONS_PER_ADDRESS",
      "outputs": [
        {
          "internalType": "uint256",
          "name": "",
          "type": "uint256"
        }
      ],
      "stateMutability": "view",
      "type": "function"
    },
    {
      "inputs": [],
      "name": "delegationRegistryAddress",
      "outputs": [
        {
          "internalType": "address",
          "name": "",
          "type": "address"
        }
      ],
      "stateMutability": "view",
      "type": "function"
    },
    {
      "inputs": [],
      "name": "genArt721CoreAddress",
      "outputs": [
        {
          "internalType": "address",
          "name": "",
          "type": "address"
        }
      ],
      "stateMutability": "view",
      "type": "function"
    },
    {
      "inputs": [
        {
          "internalType": "uint256",
          "name": "_projectId",
          "type": "uint256"
        }
      ],
      "name": "getPriceInfo",
      "outputs": [
        {
          "internalType": "bool",
          "name": "isConfigured",
          "type": "bool"
        },
        {
          "internalType": "uint256",
          "name": "tokenPriceInWei",
          "type": "uint256"
        },
        {
          "internalType": "string",
          "name": "currencySymbol",
          "type": "string"
        },
        {
          "internalType": "address",
          "name": "currencyAddress",
          "type": "address"
        }
      ],
      "stateMutability": "view",
      "type": "function"
    },
    {
      "inputs": [
        {
          "internalType": "address",
          "name": "_address",
          "type": "address"
        }
      ],
      "name": "hashAddress",
      "outputs": [
        {
          "internalType": "bytes32",
          "name": "",
          "type": "bytes32"
        }
      ],
      "stateMutability": "pure",
      "type": "function"
    },
    {
      "inputs": [],
      "name": "minterFilterAddress",
      "outputs": [
        {
          "internalType": "address",
          "name": "",
          "type": "address"
        }
      ],
      "stateMutability": "view",
      "type": "function"
    },
    {
      "inputs": [],
      "name": "minterType",
      "outputs": [
        {
          "internalType": "string",
          "name": "",
          "type": "string"
        }
      ],
      "stateMutability": "view",
      "type": "function"
    },
    {
      "inputs": [
        {
          "internalType": "bytes32[]",
          "name": "_proof",
          "type": "bytes32[]"
        },
        {
          "internalType": "address",
          "name": "_address",
          "type": "address"
        }
      ],
      "name": "processProofForAddress",
      "outputs": [
        {
          "internalType": "bytes32",
          "name": "",
          "type": "bytes32"
        }
      ],
      "stateMutability": "pure",
      "type": "function"
    },
    {
      "inputs": [
        {
          "internalType": "uint256",
          "name": "",
          "type": "uint256"
        }
      ],
      "name": "projectConfig",
      "outputs": [
        {
          "internalType": "bool",
          "name": "maxHasBeenInvoked",
          "type": "bool"
        },
        {
          "internalType": "bool",
          "name": "priceIsConfigured",
          "type": "bool"
        },
        {
          "internalType": "bool",
          "name": "useMaxInvocationsPerAddressOverride",
          "type": "bool"
        },
        {
          "internalType": "uint24",
          "name": "maxInvocationsPerAddressOverride",
          "type": "uint24"
        },
        {
          "internalType": "uint24",
          "name": "maxInvocations",
          "type": "uint24"
        },
        {
          "internalType": "uint256",
          "name": "pricePerTokenInWei",
          "type": "uint256"
        }
      ],
      "stateMutability": "view",
      "type": "function"
    },
    {
      "inputs": [
        {
          "internalType": "uint256",
          "name": "_projectId",
          "type": "uint256"
        }
      ],
      "name": "projectMaxHasBeenInvoked",
      "outputs": [
        {
          "internalType": "bool",
          "name": "",
          "type": "bool"
        }
      ],
      "stateMutability": "view",
      "type": "function"
    },
    {
      "inputs": [
        {
          "internalType": "uint256",
          "name": "_projectId",
          "type": "uint256"
        }
      ],
      "name": "projectMaxInvocations",
      "outputs": [
        {
          "internalType": "uint256",
          "name": "",
          "type": "uint256"
        }
      ],
      "stateMutability": "view",
      "type": "function"
    },
    {
      "inputs": [
        {
          "internalType": "uint256",
          "name": "_projectId",
          "type": "uint256"
        }
      ],
      "name": "projectMaxInvocationsPerAddress",
      "outputs": [
        {
          "internalType": "uint256",
          "name": "",
          "type": "uint256"
        }
      ],
      "stateMutability": "view",
      "type": "function"
    },
    {
      "inputs": [
        {
          "internalType": "uint256",
          "name": "",
          "type": "uint256"
        }
      ],
      "name": "projectMerkleRoot",
      "outputs": [
        {
          "internalType": "bytes32",
          "name": "",
          "type": "bytes32"
        }
      ],
      "stateMutability": "view",
      "type": "function"
    },
    {
      "inputs": [
        {
          "internalType": "uint256",
          "name": "_projectId",
          "type": "uint256"
        },
        {
          "internalType": "address",
          "name": "_address",
          "type": "address"
        }
      ],
      "name": "projectRemainingInvocationsForAddress",
      "outputs": [
        {
          "internalType": "bool",
          "name": "projectLimitsMintInvocationsPerAddress",
          "type": "bool"
        },
        {
          "internalType": "uint256",
          "name": "mintInvocationsRemaining",
          "type": "uint256"
        }
      ],
      "stateMutability": "view",
      "type": "function"
    },
    {
      "inputs": [
        {
          "internalType": "uint256",
          "name": "",
          "type": "uint256"
        },
        {
          "internalType": "address",
          "name": "",
          "type": "address"
        }
      ],
      "name": "projectUserMintInvocations",
      "outputs": [
        {
          "internalType": "uint256",
          "name": "",
          "type": "uint256"
        }
      ],
      "stateMutability": "view",
      "type": "function"
    },
    {
      "inputs": [
        {
          "internalType": "uint256",
          "name": "_projectId",
          "type": "uint256"
        },
        {
          "internalType": "bytes32[]",
          "name": "_proof",
          "type": "bytes32[]"
        }
      ],
      "name": "purchase",
      "outputs": [
        {
          "internalType": "uint256",
          "name": "tokenId",
          "type": "uint256"
        }
      ],
      "stateMutability": "payable",
      "type": "function"
    },
    {
      "inputs": [
        {
          "internalType": "uint256",
          "name": "",
          "type": "uint256"
        }
      ],
      "name": "purchase",
      "outputs": [
        {
          "internalType": "uint256",
          "name": "",
          "type": "uint256"
        }
      ],
      "stateMutability": "payable",
      "type": "function"
    },
    {
      "inputs": [
        {
          "internalType": "address",
          "name": "_to",
          "type": "address"
        },
        {
          "internalType": "uint256",
          "name": "_projectId",
          "type": "uint256"
        },
        {
          "internalType": "bytes32[]",
          "name": "_proof",
          "type": "bytes32[]"
        }
      ],
      "name": "purchaseTo",
      "outputs": [
        {
          "internalType": "uint256",
          "name": "tokenId",
          "type": "uint256"
        }
      ],
      "stateMutability": "payable",
      "type": "function"
    },
    {
      "inputs": [
        {
          "internalType": "address",
          "name": "",
          "type": "address"
        },
        {
          "internalType": "uint256",
          "name": "",
          "type": "uint256"
        }
      ],
      "name": "purchaseTo",
      "outputs": [
        {
          "internalType": "uint256",
          "name": "",
          "type": "uint256"
        }
      ],
      "stateMutability": "payable",
      "type": "function"
    },
    {
      "inputs": [
        {
          "internalType": "address",
          "name": "_to",
          "type": "address"
        },
        {
          "internalType": "uint256",
          "name": "_projectId",
          "type": "uint256"
        },
        {
          "internalType": "bytes32[]",
          "name": "_proof",
          "type": "bytes32[]"
        },
        {
          "internalType": "address",
          "name": "_vault",
          "type": "address"
        }
      ],
      "name": "purchaseTo",
      "outputs": [
        {
          "internalType": "uint256",
          "name": "tokenId",
          "type": "uint256"
        }
      ],
      "stateMutability": "payable",
      "type": "function"
    },
    {
      "inputs": [
        {
          "internalType": "address",
          "name": "_to",
          "type": "address"
        },
        {
          "internalType": "uint256",
          "name": "_projectId",
          "type": "uint256"
        },
        {
          "internalType": "bytes32[]",
          "name": "_proof",
          "type": "bytes32[]"
        },
        {
          "internalType": "address",
          "name": "_vault",
          "type": "address"
        }
      ],
      "name": "purchaseTo_kem",
      "outputs": [
        {
          "internalType": "uint256",
          "name": "tokenId",
          "type": "uint256"
        }
      ],
      "stateMutability": "payable",
      "type": "function"
    },
    {
      "inputs": [
        {
          "internalType": "uint256",
          "name": "_projectId",
          "type": "uint256"
        },
        {
          "internalType": "bytes32[]",
          "name": "_proof",
          "type": "bytes32[]"
        }
      ],
      "name": "purchase_gD5",
      "outputs": [
        {
          "internalType": "uint256",
          "name": "tokenId",
          "type": "uint256"
        }
      ],
      "stateMutability": "payable",
      "type": "function"
    },
    {
      "inputs": [
        {
          "internalType": "uint256",
          "name": "_projectId",
          "type": "uint256"
        },
        {
          "internalType": "uint24",
          "name": "_maxInvocationsPerAddress",
          "type": "uint24"
        }
      ],
      "name": "setProjectInvocationsPerAddress",
      "outputs": [],
      "stateMutability": "nonpayable",
      "type": "function"
    },
    {
      "inputs": [
        {
          "internalType": "uint256",
          "name": "_projectId",
          "type": "uint256"
        }
      ],
      "name": "setProjectMaxInvocations",
      "outputs": [],
      "stateMutability": "nonpayable",
      "type": "function"
    },
    {
      "inputs": [
        {
          "internalType": "uint256",
          "name": "_projectId",
          "type": "uint256"
        }
      ],
      "name": "togglePurchaseToDisabled",
      "outputs": [],
      "stateMutability": "view",
      "type": "function"
    },
    {
      "inputs": [
        {
          "internalType": "uint256",
          "name": "_projectId",
          "type": "uint256"
        },
        {
          "internalType": "bytes32",
          "name": "_root",
          "type": "bytes32"
        }
      ],
      "name": "updateMerkleRoot",
      "outputs": [],
      "stateMutability": "nonpayable",
      "type": "function"
    },
    {
      "inputs": [
        {
          "internalType": "uint256",
          "name": "_projectId",
          "type": "uint256"
        },
        {
          "internalType": "uint256",
          "name": "_pricePerTokenInWei",
          "type": "uint256"
        }
      ],
      "name": "updatePricePerTokenInWei",
      "outputs": [],
      "stateMutability": "nonpayable",
      "type": "function"
    },
    {
      "inputs": [
        {
          "internalType": "uint256",
          "name": "_projectId",
          "type": "uint256"
        },
        {
          "internalType": "bytes32[]",
          "name": "_proof",
          "type": "bytes32[]"
        },
        {
          "internalType": "address",
          "name": "_address",
          "type": "address"
        }
      ],
      "name": "verifyAddress",
      "outputs": [
        {
          "internalType": "bool",
          "name": "",
          "type": "bool"
        }
      ],
      "stateMutability": "view",
      "type": "function"
    }
  ],
  "bytecode": "0x6101406040523480156200001257600080fd5b5060405162001e5338038062001e538339810160408190526200003591620001c1565b60016000556001600160a01b0383811660c081905260e052811660808190526040519081527f836360d1b094a7de3c3eab3d1185f3a5939467c23d4a12709dbdbf8c8d7e2f3b9060200160405180910390a16001600160a01b0380821660a052828116610100819052610120819052604080516392a10f8360e01b81529051928616926392a10f839160048082019260209290919082900301816000875af1158015620000e6573d6000803e3d6000fd5b505050506040513d601f19601f820116820180604052508101906200010c91906200020b565b6001600160a01b031614620001675760405162461bcd60e51b815260206004820152601860248201527f496c6c6567616c20636f6e74726163742070616972696e670000000000000000604482015260640160405180910390fd5b604051600181527fb004e34bc1718c504fde68324f2eba80b0329056f240eaaa6803c286c4b9e7ed9060200160405180910390a150505062000230565b80516001600160a01b0381168114620001bc57600080fd5b919050565b600080600060608486031215620001d757600080fd5b620001e284620001a4565b9250620001f260208501620001a4565b91506200020260408501620001a4565b90509250925092565b6000602082840312156200021e57600080fd5b6200022982620001a4565b9392505050565b60805160a05160c05160e0516101005161012051611ba9620002aa6000396000610a1701526000610571015260008181610ba301528181610cf201528181610e85015281816110310152818161119101526112ea0152600081816103a501526107cb015260006107f60152600061043e0152611ba96000f3fe6080604052600436106101535760003560e01c806392a10f83116100bc57806392a10f83146103935780639775f86f146103df578063aea7d3b9146103f4578063bf5bf5f81461042c578063c15127c014610460578063c71b1b7114610473578063cc3352bf14610512578063d684ec6714610532578063da7e7c501461017e578063dd85582f1461055f578063e9d1e8ac14610593578063efef39a1146105da578063f1e33115146105e8578063f7bd4b881461060857600080fd5b806157b6146101585780615aa11461017e57806315bed159146101915780631ec2e523146101b1578063202c5805146101d15780633aa5fe59146101e457806340d1397e14610204578063462add461461022657806356690aaf146102665780636b453e701461029f5780636cb9b7ff146102d65780636ede4ade146102f6578063774159c614610316578063891407c014610380575b600080fd5b61016b610166366004611680565b610628565b6040519081526020015b60405180910390f35b61016b61018c3660046116f3565b610acf565b34801561019d57600080fd5b5061016b6101ac36600461173e565b610ae7565b3480156101bd57600080fd5b5061016b6101cc366004611757565b610b21565b61016b6101df3660046117ad565b610b38565b3480156101f057600080fd5b5061016b6101ff366004611808565b610b51565b34801561021057600080fd5b5061022461021f36600461173e565b610b8b565b005b34801561023257600080fd5b5061025661024136600461173e565b60009081526001602052604090205460ff1690565b6040519015158152602001610175565b34801561027257600080fd5b5061016b61028136600461173e565b600090815260016020526040902054600160301b900462ffffff1690565b3480156102ab57600080fd5b506102bf6102ba36600461182c565b610c85565b604080519215158352602083019190915201610175565b3480156102e257600080fd5b506102246102f136600461185c565b610cda565b34801561030257600080fd5b5061025661031136600461187e565b610de8565b34801561032257600080fd5b5061037061033136600461173e565b600090815260016020818152604080842080549301548151808301909252600382526208aa8960eb1b9282019290925261010090920460ff1693909290565b6040516101759493929190611922565b61016b61038e36600461195c565b610e0d565b34801561039f57600080fd5b506103c77f000000000000000000000000000000000000000000000000000000000000000081565b6040516001600160a01b039091168152602001610175565b3480156103eb57600080fd5b5061016b600181565b34801561040057600080fd5b5061016b61040f36600461182c565b600360209081526000928352604080842090915290825290205481565b34801561043857600080fd5b506103c77f000000000000000000000000000000000000000000000000000000000000000081565b61016b61046e366004611680565b610e54565b34801561047f57600080fd5b506104d661048e36600461173e565b6001602081905260009182526040909120805491015460ff8083169261010081048216926201000082049092169162ffffff63010000008304811692600160301b9004169086565b60408051961515875294151560208701529215159385019390935262ffffff9081166060850152909116608083015260a082015260c001610175565b34801561051e57600080fd5b5061022461052d366004611988565b610e6d565b34801561053e57600080fd5b5061016b61054d36600461173e565b60026020526000908152604090205481565b34801561056b57600080fd5b506103c77f000000000000000000000000000000000000000000000000000000000000000081565b34801561059f57600080fd5b506105cd6040518060400160405280600e81526020016d26b4b73a32b926b2b935b632ab1960911b81525081565b60405161017591906119b5565b61016b61038e36600461173e565b3480156105f457600080fd5b5061022461060336600461185c565b611019565b34801561061457600080fd5b5061022461062336600461173e565b611178565b60006002600054036106815760405162461bcd60e51b815260206004820152601f60248201527f5265656e7472616e637947756172643a207265656e7472616e742063616c6c0060448201526064015b60405180910390fd5b60026000908155858152600160205260409020805460ff16156106f45760405162461bcd60e51b815260206004820152602560248201527f4d6178696d756d206e756d626572206f6620696e766f636174696f6e732072656044820152641858da195960da1b6064820152608401610678565b6001810154348111156107495760405162461bcd60e51b815260206004820181905260248201527f4d7573742073656e64206d696e696d756d2076616c756520746f206d696e74216044820152606401610678565b8154610100900460ff166107965760405162461bcd60e51b8152602060048201526014602482015273141c9a58d9481b9bdd0818dbdb999a59dd5c995960621b6044820152606401610678565b336001600160a01b038516156108b75760405163090c9a2d60e41b81523360048201526001600160a01b0386811660248301527f0000000000000000000000000000000000000000000000000000000000000000811660448301526000917f0000000000000000000000000000000000000000000000000000000000000000909116906390c9a2d090606401602060405180830381865afa15801561083f573d6000803e3d6000fd5b505050506040513d601f19601f8201168201806040525081019061086391906119dd565b9050806108b25760405162461bcd60e51b815260206004820152601e60248201527f496e76616c69642064656c65676174652d7661756c742070616972696e6700006044820152606401610678565b859150505b6108c388888884610de8565b6109065760405162461bcd60e51b815260206004820152601460248201527324b73b30b634b21026b2b935b63290383937b7b360611b6044820152606401610678565b825460009062010000900460ff1661091f57600161092e565b83546301000000900462ffffff165b60008a81526003602090815260408083206001600160a01b038716845290915290205490915081118061095f575080155b6109c55760405162461bcd60e51b815260206004820152603160248201527f4d6178696d756d206e756d626572206f6620696e766f636174696f6e732070656044820152701c881859191c995cdcc81c995858da1959607a1b6064820152608401610678565b60008981526003602090815260408083206001600160a01b0386811680865291909352928190208054600101905551630d4d151360e01b81528c82166004820152602481018c905260448101929092527f00000000000000000000000000000000000000000000000000000000000000001690630d4d1513906064016020604051808303816000875af1158015610a60573d6000803e3d6000fd5b505050506040513d601f19601f82011682018060405250810190610a8491906119f8565b845490955060001962ffffff600160301b90920482160116620f4240860603610ab357835460ff191660011784555b610abd898461123c565b50505050600160005595945050505050565b6000610adf338585856000610628565b949350505050565b6000818152600160205260408120805462010000900460ff1615610b1857546301000000900462ffffff1692915050565b50600192915050565b6000610adf610b2f83610b51565b85908590611585565b6000610b48858585856000610628565b95945050505050565b6040516001600160601b0319606083901b166020820152600090603401604051602081830303815290604052805190602001209050919050565b60405163a47d29cb60e01b81526004810182905281907f00000000000000000000000000000000000000000000000000000000000000006001600160a01b03169063a47d29cb90602401602060405180830381865afa158015610bf2573d6000803e3d6000fd5b505050506040513d601f19601f82011682018060405250810190610c169190611a11565b6001600160a01b0316336001600160a01b031614610c465760405162461bcd60e51b815260040161067890611a2e565b60405162461bcd60e51b81526020600482015260146024820152731058dd1a5bdb881b9bdd081cdd5c1c1bdc9d195960621b6044820152606401610678565b6000806000610c9385610ae7565b90508015610cd25760008581526003602090815260408083206001600160a01b03881684529091529020546001935080821115610cd05780820392505b505b509250929050565b60405163a47d29cb60e01b81526004810183905282907f00000000000000000000000000000000000000000000000000000000000000006001600160a01b03169063a47d29cb90602401602060405180830381865afa158015610d41573d6000803e3d6000fd5b505050506040513d601f19601f82011682018060405250810190610d659190611a11565b6001600160a01b0316336001600160a01b031614610d955760405162461bcd60e51b815260040161067890611a2e565b6000838152600160208190526040808320918201859055815461ff0019166101001790915551839185917f26118a27aca826f829f3bfe21b140b4455c00b434849bd0da50d1e1a9720fb5c9190a3505050565b600084815260026020526040812054610b4890610e0484610b51565b869186916115d1565b60405162461bcd60e51b815260206004820152601960248201527826bab9ba10383937bb34b2329026b2b935b63290383937b7b360391b6044820152600090606401610678565b6000610e638686868686610628565b9695505050505050565b60405163a47d29cb60e01b81526004810183905282907f00000000000000000000000000000000000000000000000000000000000000006001600160a01b03169063a47d29cb90602401602060405180830381865afa158015610ed4573d6000803e3d6000fd5b505050506040513d601f19601f82011682018060405250810190610ef89190611a11565b6001600160a01b0316336001600160a01b031614610f285760405162461bcd60e51b815260040161067890611a2e565b600083815260016020819052604091829020805462ffffff861663010000000265ffffffff0000199091161762010000178155915185917fc594e23b9382359e253cdaba84b0aefe5ad09ccfd5706891673743b37229c2d291610fb291797573654d61784d696e7473506572416464724f7665727269646560301b82521515602082015260400190565b60405180910390a260408051766d61784d696e7473506572416464724f7665727269646560481b815262ffffff8516602082015285917f8a5820ca7148caeda3176e8d60a3bb413b4bcca45922ac2178b1ee191fe320eb910160405180910390a250505050565b60405163a47d29cb60e01b81526004810183905282907f00000000000000000000000000000000000000000000000000000000000000006001600160a01b03169063a47d29cb90602401602060405180830381865afa158015611080573d6000803e3d6000fd5b505050506040513d601f19601f820116820180604052508101906110a49190611a11565b6001600160a01b0316336001600160a01b0316146110d45760405162461bcd60e51b815260040161067890611a2e565b816111195760405162461bcd60e51b8152602060048201526015602482015274149bdbdd081b5d5cdd081899481c1c9bdd9a591959605a1b6044820152606401610678565b6000838152600260209081526040918290208490558151691b595c9adb19549bdbdd60b21b815290810184905284917f729c0261c7e3c976b9a392f2bb08064d7a03c82f9f1473ab0ee284c985df0815910160405180910390a2505050565b604051630ea5613f60e01b8152600481018290526000907f00000000000000000000000000000000000000000000000000000000000000006001600160a01b031690630ea5613f9060240160c060405180830381865afa1580156111e0573d6000803e3d6000fd5b505050506040513d601f19601f820116820180604052508101906112049190611a53565b50505060009485525060016020526040909320805462ffffff909416600160301b0262ffffff60301b19909416939093179092555050565b34156115815760008061124f8334611ac8565b905080156112df5760405133908290600081818185875af1925050503d8060008114611297576040519150601f19603f3d011682016040523d82523d6000602084013e61129c565b606091505b505080925050816112df5760405162461bcd60e51b815260206004820152600d60248201526c1499599d5b990819985a5b1959609a1b6044820152606401610678565b6000806000806000807f00000000000000000000000000000000000000000000000000000000000000006001600160a01b0316638639415b8b8b6040518363ffffffff1660e01b815260040161133f929190918252602082015260400190565b60c060405180830381865afa15801561135c573d6000803e3d6000fd5b505050506040513d601f19601f820116820180604052508101906113809190611adb565b9550955095509550955095506000861115611432576040516001600160a01b038616908790600081818185875af1925050503d80600081146113de576040519150601f19603f3d011682016040523d82523d6000602084013e6113e3565b606091505b505080985050876114325760405162461bcd60e51b8152602060048201526019602482015278105c9d08109b1bd8dadcc81c185e5b595b9d0819985a5b1959603a1b6044820152606401610678565b83156114d1576040516001600160a01b038416908590600081818185875af1925050503d8060008114611481576040519150601f19603f3d011682016040523d82523d6000602084013e611486565b606091505b505080985050876114d15760405162461bcd60e51b8152602060048201526015602482015274105c9d1a5cdd081c185e5b595b9d0819985a5b1959605a1b6044820152606401610678565b8115611578576040516001600160a01b038216908390600081818185875af1925050503d8060008114611520576040519150601f19603f3d011682016040523d82523d6000602084013e611525565b606091505b505080985050876115785760405162461bcd60e51b815260206004820152601f60248201527f4164646974696f6e616c205061796565207061796d656e74206661696c6564006044820152606401610678565b50505050505050505b5050565b600081815b848110156115c8576115b4828787848181106115a8576115a8611b44565b905060200201356115e9565b9150806115c081611b5a565b91505061158a565b50949350505050565b6000826115df868685611585565b1495945050505050565b6000818310611605576000828152602084905260409020611614565b60008381526020839052604090205b90505b92915050565b6001600160a01b038116811461163257600080fd5b50565b60008083601f84011261164757600080fd5b5081356001600160401b0381111561165e57600080fd5b6020830191508360208260051b850101111561167957600080fd5b9250929050565b60008060008060006080868803121561169857600080fd5b85356116a38161161d565b94506020860135935060408601356001600160401b038111156116c557600080fd5b6116d188828901611635565b90945092505060608601356116e58161161d565b809150509295509295909350565b60008060006040848603121561170857600080fd5b8335925060208401356001600160401b0381111561172557600080fd5b61173186828701611635565b9497909650939450505050565b60006020828403121561175057600080fd5b5035919050565b60008060006040848603121561176c57600080fd5b83356001600160401b0381111561178257600080fd5b61178e86828701611635565b90945092505060208401356117a28161161d565b809150509250925092565b600080600080606085870312156117c357600080fd5b84356117ce8161161d565b93506020850135925060408501356001600160401b038111156117f057600080fd5b6117fc87828801611635565b95989497509550505050565b60006020828403121561181a57600080fd5b81356118258161161d565b9392505050565b6000806040838503121561183f57600080fd5b8235915060208301356118518161161d565b809150509250929050565b6000806040838503121561186f57600080fd5b50508035926020909101359150565b6000806000806060858703121561189457600080fd5b8435935060208501356001600160401b038111156118b157600080fd5b6118bd87828801611635565b90945092505060408501356118d18161161d565b939692955090935050565b6000815180845260005b81811015611902576020818501810151868301820152016118e6565b506000602082860101526020601f19601f83011685010191505092915050565b841515815283602082015260806040820152600061194360808301856118dc565b905060018060a01b038316606083015295945050505050565b6000806040838503121561196f57600080fd5b823561197a8161161d565b946020939093013593505050565b6000806040838503121561199b57600080fd5b82359150602083013562ffffff8116811461185157600080fd5b60208152600061161460208301846118dc565b805180151581146119d857600080fd5b919050565b6000602082840312156119ef57600080fd5b611614826119c8565b600060208284031215611a0a57600080fd5b5051919050565b600060208284031215611a2357600080fd5b81516118258161161d565b6020808252600b908201526a13db9b1e48105c9d1a5cdd60aa1b604082015260600190565b60008060008060008060c08789031215611a6c57600080fd5b8651955060208701519450611a83604088016119c8565b9350611a91606088016119c8565b925060808701519150611aa660a088016119c8565b90509295509295509295565b634e487b7160e01b600052601160045260246000fd5b8181038181111561161757611617611ab2565b60008060008060008060c08789031215611af457600080fd5b865195506020870151611b068161161d565b604088015160608901519196509450611b1e8161161d565b608088015160a08901519194509250611b368161161d565b809150509295509295509295565b634e487b7160e01b600052603260045260246000fd5b600060018201611b6c57611b6c611ab2565b506001019056fea2646970667358221220699f865cc13d70af3887acf2b0353d0177bc495d35830cab4eecf1da87df1ad364736f6c63430008110033",
  "linkReferences": {},
  "deployedLinkReferences": {}
}