{
  "_format": "hh-sol-artifact-1",
  "contractName": "MinterDAExpV1",
  "sourceName": "contracts/minter-suite/MinterDAExpV1.sol",
  "abi": [
    {
      "inputs": [
        {
          "internalType": "address",
          "name": "_genArt721Address",
          "type": "address"
        },
        {
          "internalType": "address",
          "name": "_minterFilter",
          "type": "address"
        }
      ],
      "stateMutability": "nonpayable",
      "type": "constructor"
    },
    {
      "anonymous": false,
      "inputs": [
        {
          "indexed": false,
          "internalType": "uint256",
          "name": "_minimumPriceDecayHalfLifeSeconds",
          "type": "uint256"
        },
        {
          "indexed": false,
          "internalType": "uint256",
          "name": "_maximumPriceDecayHalfLifeSeconds",
          "type": "uint256"
        }
      ],
      "name": "AuctionHalfLifeRangeSecondsUpdated",
      "type": "event"
    },
    {
      "anonymous": false,
      "inputs": [
        {
          "indexed": true,
          "internalType": "uint256",
          "name": "_projectId",
          "type": "uint256"
        },
        {
          "indexed": true,
          "internalType": "uint256",
          "name": "_pricePerTokenInWei",
          "type": "uint256"
        }
      ],
      "name": "PricePerTokenInWeiUpdated",
      "type": "event"
    },
    {
      "anonymous": false,
      "inputs": [
        {
          "indexed": true,
          "internalType": "uint256",
          "name": "_projectId",
          "type": "uint256"
        },
        {
          "indexed": true,
          "internalType": "address",
          "name": "_currencyAddress",
          "type": "address"
        },
        {
          "indexed": false,
          "internalType": "string",
          "name": "_currencySymbol",
          "type": "string"
        }
      ],
      "name": "ProjectCurrencyInfoUpdated",
      "type": "event"
    },
    {
      "anonymous": false,
      "inputs": [
        {
          "indexed": true,
          "internalType": "uint256",
          "name": "_projectId",
          "type": "uint256"
        },
        {
          "indexed": false,
          "internalType": "bool",
          "name": "_purchaseToDisabled",
          "type": "bool"
        }
      ],
      "name": "PurchaseToDisabledUpdated",
      "type": "event"
    },
    {
      "anonymous": false,
      "inputs": [
        {
          "indexed": true,
          "internalType": "uint256",
          "name": "projectId",
          "type": "uint256"
        }
      ],
      "name": "ResetAuctionDetails",
      "type": "event"
    },
    {
      "anonymous": false,
      "inputs": [
        {
          "indexed": true,
          "internalType": "uint256",
          "name": "projectId",
          "type": "uint256"
        },
        {
          "indexed": false,
          "internalType": "uint256",
          "name": "_auctionTimestampStart",
          "type": "uint256"
        },
        {
          "indexed": false,
          "internalType": "uint256",
          "name": "_priceDecayHalfLifeSeconds",
          "type": "uint256"
        },
        {
          "indexed": false,
          "internalType": "uint256",
          "name": "_startPrice",
          "type": "uint256"
        },
        {
          "indexed": false,
          "internalType": "uint256",
          "name": "_basePrice",
          "type": "uint256"
        }
      ],
      "name": "SetAuctionDetails",
      "type": "event"
    },
    {
      "inputs": [],
      "name": "genArt721CoreAddress",
      "outputs": [
        {
          "internalType": "address",
          "name": "",
          "type": "address"
        }
      ],
      "stateMutability": "view",
      "type": "function"
    },
    {
      "inputs": [
        {
          "internalType": "uint256",
          "name": "_projectId",
          "type": "uint256"
        }
      ],
      "name": "getPriceInfo",
      "outputs": [
        {
          "internalType": "bool",
          "name": "isConfigured",
          "type": "bool"
        },
        {
          "internalType": "uint256",
          "name": "tokenPriceInWei",
          "type": "uint256"
        },
        {
          "internalType": "string",
          "name": "currencySymbol",
          "type": "string"
        },
        {
          "internalType": "address",
          "name": "currencyAddress",
          "type": "address"
        }
      ],
      "stateMutability": "view",
      "type": "function"
    },
    {
      "inputs": [],
      "name": "maximumPriceDecayHalfLifeSeconds",
      "outputs": [
        {
          "internalType": "uint256",
          "name": "",
          "type": "uint256"
        }
      ],
      "stateMutability": "view",
      "type": "function"
    },
    {
      "inputs": [],
      "name": "minimumPriceDecayHalfLifeSeconds",
      "outputs": [
        {
          "internalType": "uint256",
          "name": "",
          "type": "uint256"
        }
      ],
      "stateMutability": "view",
      "type": "function"
    },
    {
      "inputs": [],
      "name": "minterFilterAddress",
      "outputs": [
        {
          "internalType": "address",
          "name": "",
          "type": "address"
        }
      ],
      "stateMutability": "view",
      "type": "function"
    },
    {
      "inputs": [],
      "name": "minterType",
      "outputs": [
        {
          "internalType": "string",
          "name": "",
          "type": "string"
        }
      ],
      "stateMutability": "view",
      "type": "function"
    },
    {
      "inputs": [
        {
          "internalType": "uint256",
          "name": "",
          "type": "uint256"
        }
      ],
      "name": "projectAuctionParameters",
      "outputs": [
        {
          "internalType": "uint256",
          "name": "timestampStart",
          "type": "uint256"
        },
        {
          "internalType": "uint256",
          "name": "priceDecayHalfLifeSeconds",
          "type": "uint256"
        },
        {
          "internalType": "uint256",
          "name": "startPrice",
          "type": "uint256"
        },
        {
          "internalType": "uint256",
          "name": "basePrice",
          "type": "uint256"
        }
      ],
      "stateMutability": "view",
      "type": "function"
    },
    {
      "inputs": [
        {
          "internalType": "uint256",
          "name": "",
          "type": "uint256"
        }
      ],
      "name": "projectMaxHasBeenInvoked",
      "outputs": [
        {
          "internalType": "bool",
          "name": "",
          "type": "bool"
        }
      ],
      "stateMutability": "view",
      "type": "function"
    },
    {
      "inputs": [
        {
          "internalType": "uint256",
          "name": "",
          "type": "uint256"
        }
      ],
      "name": "projectMaxInvocations",
      "outputs": [
        {
          "internalType": "uint256",
          "name": "",
          "type": "uint256"
        }
      ],
      "stateMutability": "view",
      "type": "function"
    },
    {
      "inputs": [
        {
          "internalType": "uint256",
          "name": "_projectId",
          "type": "uint256"
        }
      ],
      "name": "purchase",
      "outputs": [
        {
          "internalType": "uint256",
          "name": "tokenId",
          "type": "uint256"
        }
      ],
      "stateMutability": "payable",
      "type": "function"
    },
    {
      "inputs": [
        {
          "internalType": "address",
          "name": "_to",
          "type": "address"
        },
        {
          "internalType": "uint256",
          "name": "_projectId",
          "type": "uint256"
        }
      ],
      "name": "purchaseTo",
      "outputs": [
        {
          "internalType": "uint256",
          "name": "tokenId",
          "type": "uint256"
        }
      ],
      "stateMutability": "payable",
      "type": "function"
    },
    {
      "inputs": [
        {
          "internalType": "uint256",
          "name": "_projectId",
          "type": "uint256"
        }
      ],
      "name": "resetAuctionDetails",
      "outputs": [],
      "stateMutability": "nonpayable",
      "type": "function"
    },
    {
      "inputs": [
        {
          "internalType": "uint256",
          "name": "_minimumPriceDecayHalfLifeSeconds",
          "type": "uint256"
        },
        {
          "internalType": "uint256",
          "name": "_maximumPriceDecayHalfLifeSeconds",
          "type": "uint256"
        }
      ],
      "name": "setAllowablePriceDecayHalfLifeRangeSeconds",
      "outputs": [],
      "stateMutability": "nonpayable",
      "type": "function"
    },
    {
      "inputs": [
        {
          "internalType": "uint256",
          "name": "_projectId",
          "type": "uint256"
        },
        {
          "internalType": "uint256",
          "name": "_auctionTimestampStart",
          "type": "uint256"
        },
        {
          "internalType": "uint256",
          "name": "_priceDecayHalfLifeSeconds",
          "type": "uint256"
        },
        {
          "internalType": "uint256",
          "name": "_startPrice",
          "type": "uint256"
        },
        {
          "internalType": "uint256",
          "name": "_basePrice",
          "type": "uint256"
        }
      ],
      "name": "setAuctionDetails",
      "outputs": [],
      "stateMutability": "nonpayable",
      "type": "function"
    },
    {
      "inputs": [
        {
          "internalType": "uint256",
          "name": "_projectId",
          "type": "uint256"
        }
      ],
      "name": "setProjectMaxInvocations",
      "outputs": [],
      "stateMutability": "nonpayable",
      "type": "function"
    },
    {
      "inputs": [
        {
          "internalType": "uint256",
          "name": "_projectId",
          "type": "uint256"
        }
      ],
      "name": "togglePurchaseToDisabled",
      "outputs": [],
      "stateMutability": "view",
      "type": "function"
    }
  ],
  "bytecode": "0x61010060405261012c600355610e106004553480156200001e57600080fd5b5060405162001da838038062001da8833981016040819052620000419162000163565b600160009081556001600160a01b03808416608081905260a081905290831660c081905260e0819052604080516392a10f8360e01b81529051929391926392a10f8392600480840193602093929083900390910190829087803b158015620000a857600080fd5b505af1158015620000bd573d6000803e3d6000fd5b505050506040513d601f19601f82011682018060405250810190620000e391906200019b565b6001600160a01b0316146200013e5760405162461bcd60e51b815260206004820152601860248201527f496c6c6567616c20636f6e74726163742070616972696e670000000000000000604482015260640160405180910390fd5b5050620001c0565b80516001600160a01b03811681146200015e57600080fd5b919050565b600080604083850312156200017757600080fd5b620001828362000146565b9150620001926020840162000146565b90509250929050565b600060208284031215620001ae57600080fd5b620001b98262000146565b9392505050565b60805160a05160c05160e051611b616200024760003960006107a8015260006102fe0152600081816103b0015281816104c1015281816108b801528181610a6e01528181610dca01528181610e8e015281816111540152818161120301528181611343015281816113fe015281816114b50152611602015260006102670152611b616000f3fe6080604052600436106100d35760003560e01c806392a10f831161007a57806392a10f8314610255578063c0ad212e14610296578063cd379f6e146102b6578063cf6681ea146102d6578063dd85582f146102ec578063e9d1e8ac14610320578063efef39a114610366578063f7bd4b881461037957600080fd5b80632aedc28e146100d85780632f077ee6146100fa57806340d1397e14610161578063462add461461018157806356690aaf146101c15780635bc1470f146101fc578063774159c614610212578063891407c014610242575b600080fd5b3480156100e457600080fd5b506100f86100f3366004611728565b610399565b005b34801561010657600080fd5b5061013c610115366004611728565b60056020526000908152604090208054600182015460028301546003909301549192909184565b6040805194855260208501939093529183015260608201526080015b60405180910390f35b34801561016d57600080fd5b506100f861017c366004611728565b6104a9565b34801561018d57600080fd5b506101b161019c366004611728565b60016020526000908152604090205460ff1681565b6040519015158152602001610158565b3480156101cd57600080fd5b506101ee6101dc366004611728565b60026020526000908152604090205481565b604051908152602001610158565b34801561020857600080fd5b506101ee60045481565b34801561021e57600080fd5b5061023261022d366004611728565b6105b2565b604051610158949392919061179d565b6101ee6102503660046117ef565b610658565b34801561026157600080fd5b506102897f000000000000000000000000000000000000000000000000000000000000000081565b604051610158919061181b565b3480156102a257600080fd5b506100f86102b136600461182f565b6108a1565b3480156102c257600080fd5b506100f86102d1366004611851565b610a56565b3480156102e257600080fd5b506101ee60035481565b3480156102f857600080fd5b506102897f000000000000000000000000000000000000000000000000000000000000000081565b34801561032c57600080fd5b506103596040518060400160405280600d81526020016c4d696e7465724441457870563160981b81525081565b604051610158919061188c565b6101ee610374366004611728565b610da1565b34801561038557600080fd5b506100f8610394366004611728565b610db3565b604051633af32abf60e01b81526001600160a01b037f00000000000000000000000000000000000000000000000000000000000000001690633af32abf906103e590339060040161181b565b60206040518083038186803b1580156103fd57600080fd5b505afa158015610411573d6000803e3d6000fd5b505050506040513d601f19601f8201168201806040525081019061043591906118bb565b61045a5760405162461bcd60e51b8152600401610451906118d6565b60405180910390fd5b60008181526005602052604080822082815560018101839055600281018390556003018290555182917f2de6b284414d2e6b72bcc8d8d4de934e3f6410660a8f677c5c978f17f9cc2a9291a250565b60405163a47d29cb60e01b81526004810182905281907f00000000000000000000000000000000000000000000000000000000000000006001600160a01b03169063a47d29cb9060240160206040518083038186803b15801561050b57600080fd5b505afa15801561051f573d6000803e3d6000fd5b505050506040513d601f19601f820116820180604052508101906105439190611905565b6001600160a01b0316336001600160a01b0316146105735760405162461bcd60e51b815260040161045190611922565b60405162461bcd60e51b81526020600482015260146024820152731058dd1a5bdb881b9bdd081cdd5c1c1bdc9d195960621b6044820152606401610451565b600081815260056020908152604080832081516080810183528154808252600183015494820194909452600282015492810183905260039091015460608281019190915291151593928391904211610610578060400151935061062e565b6040810151610622576000935061062e565b61062b86610f4d565b93505b6040518060400160405280600381526020016208aa8960eb1b815250925060009150509193509193565b6000600260005414156106ad5760405162461bcd60e51b815260206004820152601f60248201527f5265656e7472616e637947756172643a207265656e7472616e742063616c6c006044820152606401610451565b600260009081558281526001602052604090205460ff161561071f5760405162461bcd60e51b815260206004820152602560248201527f4d6178696d756d206e756d626572206f6620696e766f636174696f6e732072656044820152641858da195960da1b6064820152608401610451565b600061072a83610f4d565b90508034101561077c5760405162461bcd60e51b815260206004820181905260248201527f4d7573742073656e64206d696e696d756d2076616c756520746f206d696e74216044820152606401610451565b604051630d4d151360e01b81526001600160a01b038581166004830152602482018590523360448301527f00000000000000000000000000000000000000000000000000000000000000001690630d4d151390606401602060405180830381600087803b1580156107ec57600080fd5b505af1158015610800573d6000803e3d6000fd5b505050506040513d601f19601f820116820180604052508101906108249190611947565b60008481526002602052604090205490925015801590610869575060008381526002602052604090205461085a90600190611976565b610867620f4240846119a3565b145b1561088b576000838152600160208190526040909120805460ff191690911790555b61089583826110aa565b50600160005592915050565b604051633af32abf60e01b81526001600160a01b037f00000000000000000000000000000000000000000000000000000000000000001690633af32abf906108ed90339060040161181b565b60206040518083038186803b15801561090557600080fd5b505afa158015610919573d6000803e3d6000fd5b505050506040513d601f19601f8201168201806040525081019061093d91906118bb565b6109595760405162461bcd60e51b8152600401610451906118d6565b8181116109bf5760405162461bcd60e51b815260206004820152602e60248201527f4d6178696d756d2068616c66206c696665206d7573742062652067726561746560448201526d72207468616e206d696e696d756d60901b6064820152608401610451565b60008211610a0f5760405162461bcd60e51b815260206004820152601d60248201527f48616c66206c696665206f66207a65726f206e6f7420616c6c6f7765640000006044820152606401610451565b6003829055600481905560408051838152602081018390527f1d5d9c9b660aace5432c6c7412456d0ad1b5ff4c6ea156a8c551ba93555ed73f910160405180910390a15050565b60405163a47d29cb60e01b81526004810186905285907f00000000000000000000000000000000000000000000000000000000000000006001600160a01b03169063a47d29cb9060240160206040518083038186803b158015610ab857600080fd5b505afa158015610acc573d6000803e3d6000fd5b505050506040513d601f19601f82011682018060405250810190610af09190611905565b6001600160a01b0316336001600160a01b031614610b205760405162461bcd60e51b815260040161045190611922565b600086815260056020908152604091829020825160808101845281548082526001830154938201939093526002820154938101939093526003015460608301521580610b6c5750805142105b610bb85760405162461bcd60e51b815260206004820152601c60248201527f4e6f206d6f64696669636174696f6e73206d69642d61756374696f6e000000006044820152606401610451565b854210610bfe5760405162461bcd60e51b81526020600482015260146024820152734f6e6c79206675747572652061756374696f6e7360601b6044820152606401610451565b828411610c735760405162461bcd60e51b815260206004820152603a60248201527f41756374696f6e207374617274207072696365206d757374206265206772656160448201527f746572207468616e2061756374696f6e20656e642070726963650000000000006064820152608401610451565b6003548510158015610c8757506004548511155b610d075760405162461bcd60e51b8152602060048201526044602482018190527f50726963652064656361792068616c66206c696665206d7573742066616c6c20908201527f6265747765656e206d696e20616e64206d617820616c6c6f7761626c652076616064820152636c75657360e01b608482015260a401610451565b6040805160808082018352888252602080830189815283850189815260608086018a815260008f815260058652889020965187559251600187015590516002860155905160039094019390935583518a815290810189905292830187905290820185905288917f38b3058b75696f9e45bffa9c4b237adcde13d74c7bc1bea63e13c712d0776c74910160405180910390a250505050505050565b6000610dad3383610658565b92915050565b604051633af32abf60e01b81526001600160a01b037f00000000000000000000000000000000000000000000000000000000000000001690633af32abf90610dff90339060040161181b565b60206040518083038186803b158015610e1757600080fd5b505afa158015610e2b573d6000803e3d6000fd5b505050506040513d601f19601f82011682018060405250810190610e4f91906118bb565b610e6b5760405162461bcd60e51b8152600401610451906118d6565b6040516346161b1160e11b81526004810182905260009081906001600160a01b037f00000000000000000000000000000000000000000000000000000000000000001690638c2c36229060240160006040518083038186803b158015610ed057600080fd5b505afa158015610ee4573d6000803e3d6000fd5b505050506040513d6000823e601f3d908101601f19168201604052610f0c91908101906119d8565b505050600089815260026020526040902083905550919550935050505080821015610f48576000838152600160205260409020805460ff191690555b505050565b600081815260056020908152604080832081516080810183528154808252600183015494820194909452600282015492810192909252600301546060820152904211610fd55760405162461bcd60e51b8152602060048201526017602482015276105d58dd1a5bdb881b9bdd081e595d081cdd185c9d1959604a1b6044820152606401610451565b60008160200151116110245760405162461bcd60e51b81526020600482015260186024820152774f6e6c7920636f6e666967757265642061756374696f6e7360401b6044820152606401610451565b604081015181516000906110389042611976565b905082602001518161104a9190611af8565b602084015192901c9160029061106081846119a3565b61106a9085611b0c565b6110749190611af8565b61107e9190611af8565b6110889083611976565b915082606001518210156110a25750506060015192915050565b509392505050565b34156117245760006110bc8234611976565b9050801561114e57604051600090339083908381818185875af1925050503d8060008114611106576040519150601f19603f3d011682016040523d82523d6000602084013e61110b565b606091505b505090508061114c5760405162461bcd60e51b815260206004820152600d60248201526c1499599d5b990819985a5b1959609a1b6044820152606401610451565b505b600060647f00000000000000000000000000000000000000000000000000000000000000006001600160a01b0316634f029c396040518163ffffffff1660e01b815260040160206040518083038186803b1580156111ab57600080fd5b505afa1580156111bf573d6000803e3d6000fd5b505050506040513d601f19601f820116820180604052508101906111e39190611947565b6111ed9085611b0c565b6111f79190611af8565b905080156113305760007f00000000000000000000000000000000000000000000000000000000000000006001600160a01b0316633949f9066040518163ffffffff1660e01b815260040160206040518083038186803b15801561125a57600080fd5b505afa15801561126e573d6000803e3d6000fd5b505050506040513d601f19601f820116820180604052508101906112929190611905565b6001600160a01b03168260405160006040518083038185875af1925050503d80600081146112dc576040519150601f19603f3d011682016040523d82523d6000602084013e6112e1565b606091505b505090508061132e5760405162461bcd60e51b8152602060048201526019602482015278119bdd5b99185d1a5bdb881c185e5b595b9d0819985a5b1959603a1b6044820152606401610451565b505b600061133c8285611976565b90506000807f00000000000000000000000000000000000000000000000000000000000000006001600160a01b031663cc74234b886040518263ffffffff1660e01b815260040161138f91815260200190565b60206040518083038186803b1580156113a757600080fd5b505afa1580156113bb573d6000803e3d6000fd5b505050506040513d601f19601f820116820180604052508101906113df9190611947565b11156115d55760405163cc74234b60e01b8152600481018790526064907f00000000000000000000000000000000000000000000000000000000000000006001600160a01b03169063cc74234b9060240160206040518083038186803b15801561144857600080fd5b505afa15801561145c573d6000803e3d6000fd5b505050506040513d601f19601f820116820180604052508101906114809190611947565b61148a9084611b0c565b6114949190611af8565b905080156115d557604051636bd8225b60e11b8152600481018790526000907f00000000000000000000000000000000000000000000000000000000000000006001600160a01b03169063d7b044b69060240160206040518083038186803b1580156114ff57600080fd5b505afa158015611513573d6000803e3d6000fd5b505050506040513d601f19601f820116820180604052508101906115379190611905565b6001600160a01b03168260405160006040518083038185875af1925050503d8060008114611581576040519150601f19603f3d011682016040523d82523d6000602084013e611586565b606091505b50509050806115d35760405162461bcd60e51b81526020600482015260196024820152781059191a5d1a5bdb985b081c185e5b595b9d0819985a5b1959603a1b6044820152606401610451565b505b60006115e18284611976565b9050801561171e5760405163a47d29cb60e01b8152600481018890526000907f00000000000000000000000000000000000000000000000000000000000000006001600160a01b03169063a47d29cb9060240160206040518083038186803b15801561164c57600080fd5b505afa158015611660573d6000803e3d6000fd5b505050506040513d601f19601f820116820180604052508101906116849190611905565b6001600160a01b03168260405160006040518083038185875af1925050503d80600081146116ce576040519150601f19603f3d011682016040523d82523d6000602084013e6116d3565b606091505b505090508061171c5760405162461bcd60e51b8152602060048201526015602482015274105c9d1a5cdd081c185e5b595b9d0819985a5b1959605a1b6044820152606401610451565b505b50505050505b5050565b60006020828403121561173a57600080fd5b5035919050565b60005b8381101561175c578181015183820152602001611744565b8381111561176b576000848401525b50505050565b60008151808452611789816020860160208601611741565b601f01601f19169290920160200192915050565b84151581528360208201526080604082015260006117be6080830185611771565b905060018060a01b038316606083015295945050505050565b6001600160a01b03811681146117ec57600080fd5b50565b6000806040838503121561180257600080fd5b823561180d816117d7565b946020939093013593505050565b6001600160a01b0391909116815260200190565b6000806040838503121561184257600080fd5b50508035926020909101359150565b600080600080600060a0868803121561186957600080fd5b505083359560208501359550604085013594606081013594506080013592509050565b60208152600061189f6020830184611771565b9392505050565b805180151581146118b657600080fd5b919050565b6000602082840312156118cd57600080fd5b61189f826118a6565b60208082526015908201527413db9b1e4810dbdc99481dda1a5d195b1a5cdd1959605a1b604082015260600190565b60006020828403121561191757600080fd5b815161189f816117d7565b6020808252600b908201526a13db9b1e48105c9d1a5cdd60aa1b604082015260600190565b60006020828403121561195957600080fd5b5051919050565b634e487b7160e01b600052601160045260246000fd5b60008282101561198857611988611960565b500390565b634e487b7160e01b600052601260045260246000fd5b6000826119b2576119b261198d565b500690565b80516118b6816117d7565b634e487b7160e01b600052604160045260246000fd5b60008060008060008060008060006101208a8c0312156119f757600080fd5b8951611a02816117d7565b8099505060208a0151975060408a0151965060608a01519550611a2760808b016118a6565b945060a08a0151611a37816117d7565b60c08b015160e08c0151919550935067ffffffffffffffff80821115611a5c57600080fd5b818c0191508c601f830112611a7057600080fd5b815181811115611a8257611a826119c2565b604051601f8201601f19908116603f01168101908382118183101715611aaa57611aaa6119c2565b816040528281528f6020848701011115611ac357600080fd5b611ad4836020830160208801611741565b8096505050505050611ae96101008b016119b7565b90509295985092959850929598565b600082611b0757611b0761198d565b500490565b6000816000190483118215151615611b2657611b26611960565b50029056fea26469706673582212205b81cdedaf950b535bccc39368511d45c3d707737e86118f513a9190d26c3f2964736f6c63430008090033",
  "linkReferences": {},
  "deployedLinkReferences": {}
}