{
  "_format": "hh-sol-artifact-1",
  "contractName": "MinterDAExpSettlementV0",
  "sourceName": "contracts/minter-suite/Minters/MinterDAExpSettlement/MinterDAExpSettlementV0.sol",
  "abi": [
    {
      "inputs": [
        {
          "internalType": "address",
          "name": "_genArt721Address",
          "type": "address"
        },
        {
          "internalType": "address",
          "name": "_minterFilter",
          "type": "address"
        }
      ],
      "stateMutability": "nonpayable",
      "type": "constructor"
    },
    {
      "anonymous": false,
      "inputs": [
        {
          "indexed": true,
          "internalType": "uint256",
          "name": "_projectId",
          "type": "uint256"
        }
      ],
      "name": "ArtistAndAdminRevenuesWithdrawn",
      "type": "event"
    },
    {
      "anonymous": false,
      "inputs": [
        {
          "indexed": false,
          "internalType": "uint256",
          "name": "_minimumPriceDecayHalfLifeSeconds",
          "type": "uint256"
        },
        {
          "indexed": false,
          "internalType": "uint256",
          "name": "_maximumPriceDecayHalfLifeSeconds",
          "type": "uint256"
        }
      ],
      "name": "AuctionHalfLifeRangeSecondsUpdated",
      "type": "event"
    },
    {
      "anonymous": false,
      "inputs": [
        {
          "indexed": true,
          "internalType": "uint256",
          "name": "_projectId",
          "type": "uint256"
        },
        {
          "indexed": false,
          "internalType": "bytes32",
          "name": "_key",
          "type": "bytes32"
        }
      ],
      "name": "ConfigKeyRemoved",
      "type": "event"
    },
    {
      "anonymous": false,
      "inputs": [
        {
          "indexed": true,
          "internalType": "uint256",
          "name": "_projectId",
          "type": "uint256"
        },
        {
          "indexed": false,
          "internalType": "bytes32",
          "name": "_key",
          "type": "bytes32"
        },
        {
          "indexed": false,
          "internalType": "uint256",
          "name": "_value",
          "type": "uint256"
        }
      ],
      "name": "ConfigValueAddedToSet",
      "type": "event"
    },
    {
      "anonymous": false,
      "inputs": [
        {
          "indexed": true,
          "internalType": "uint256",
          "name": "_projectId",
          "type": "uint256"
        },
        {
          "indexed": false,
          "internalType": "bytes32",
          "name": "_key",
          "type": "bytes32"
        },
        {
          "indexed": false,
          "internalType": "address",
          "name": "_value",
          "type": "address"
        }
      ],
      "name": "ConfigValueAddedToSet",
      "type": "event"
    },
    {
      "anonymous": false,
      "inputs": [
        {
          "indexed": true,
          "internalType": "uint256",
          "name": "_projectId",
          "type": "uint256"
        },
        {
          "indexed": false,
          "internalType": "bytes32",
          "name": "_key",
          "type": "bytes32"
        },
        {
          "indexed": false,
          "internalType": "bytes32",
          "name": "_value",
          "type": "bytes32"
        }
      ],
      "name": "ConfigValueAddedToSet",
      "type": "event"
    },
    {
      "anonymous": false,
      "inputs": [
        {
          "indexed": true,
          "internalType": "uint256",
          "name": "_projectId",
          "type": "uint256"
        },
        {
          "indexed": false,
          "internalType": "bytes32",
          "name": "_key",
          "type": "bytes32"
        },
        {
          "indexed": false,
          "internalType": "uint256",
          "name": "_value",
          "type": "uint256"
        }
      ],
      "name": "ConfigValueRemovedFromSet",
      "type": "event"
    },
    {
      "anonymous": false,
      "inputs": [
        {
          "indexed": true,
          "internalType": "uint256",
          "name": "_projectId",
          "type": "uint256"
        },
        {
          "indexed": false,
          "internalType": "bytes32",
          "name": "_key",
          "type": "bytes32"
        },
        {
          "indexed": false,
          "internalType": "address",
          "name": "_value",
          "type": "address"
        }
      ],
      "name": "ConfigValueRemovedFromSet",
      "type": "event"
    },
    {
      "anonymous": false,
      "inputs": [
        {
          "indexed": true,
          "internalType": "uint256",
          "name": "_projectId",
          "type": "uint256"
        },
        {
          "indexed": false,
          "internalType": "bytes32",
          "name": "_key",
          "type": "bytes32"
        },
        {
          "indexed": false,
          "internalType": "bytes32",
          "name": "_value",
          "type": "bytes32"
        }
      ],
      "name": "ConfigValueRemovedFromSet",
      "type": "event"
    },
    {
      "anonymous": false,
      "inputs": [
        {
          "indexed": true,
          "internalType": "uint256",
          "name": "_projectId",
          "type": "uint256"
        },
        {
          "indexed": false,
          "internalType": "bytes32",
          "name": "_key",
          "type": "bytes32"
        },
        {
          "indexed": false,
          "internalType": "bool",
          "name": "_value",
          "type": "bool"
        }
      ],
      "name": "ConfigValueSet",
      "type": "event"
    },
    {
      "anonymous": false,
      "inputs": [
        {
          "indexed": true,
          "internalType": "uint256",
          "name": "_projectId",
          "type": "uint256"
        },
        {
          "indexed": false,
          "internalType": "bytes32",
          "name": "_key",
          "type": "bytes32"
        },
        {
          "indexed": false,
          "internalType": "uint256",
          "name": "_value",
          "type": "uint256"
        }
      ],
      "name": "ConfigValueSet",
      "type": "event"
    },
    {
      "anonymous": false,
      "inputs": [
        {
          "indexed": true,
          "internalType": "uint256",
          "name": "_projectId",
          "type": "uint256"
        },
        {
          "indexed": false,
          "internalType": "bytes32",
          "name": "_key",
          "type": "bytes32"
        },
        {
          "indexed": false,
          "internalType": "address",
          "name": "_value",
          "type": "address"
        }
      ],
      "name": "ConfigValueSet",
      "type": "event"
    },
    {
      "anonymous": false,
      "inputs": [
        {
          "indexed": true,
          "internalType": "uint256",
          "name": "_projectId",
          "type": "uint256"
        },
        {
          "indexed": false,
          "internalType": "bytes32",
          "name": "_key",
          "type": "bytes32"
        },
        {
          "indexed": false,
          "internalType": "bytes32",
          "name": "_value",
          "type": "bytes32"
        }
      ],
      "name": "ConfigValueSet",
      "type": "event"
    },
    {
      "anonymous": false,
      "inputs": [
        {
          "indexed": true,
          "internalType": "uint256",
          "name": "_projectId",
          "type": "uint256"
        },
        {
          "indexed": true,
          "internalType": "uint256",
          "name": "_pricePerTokenInWei",
          "type": "uint256"
        }
      ],
      "name": "PricePerTokenInWeiUpdated",
      "type": "event"
    },
    {
      "anonymous": false,
      "inputs": [
        {
          "indexed": true,
          "internalType": "uint256",
          "name": "_projectId",
          "type": "uint256"
        },
        {
          "indexed": true,
          "internalType": "address",
          "name": "_currencyAddress",
          "type": "address"
        },
        {
          "indexed": false,
          "internalType": "string",
          "name": "_currencySymbol",
          "type": "string"
        }
      ],
      "name": "ProjectCurrencyInfoUpdated",
      "type": "event"
    },
    {
      "anonymous": false,
      "inputs": [
        {
          "indexed": true,
          "internalType": "uint256",
          "name": "_projectId",
          "type": "uint256"
        },
        {
          "indexed": false,
          "internalType": "bool",
          "name": "_purchaseToDisabled",
          "type": "bool"
        }
      ],
      "name": "PurchaseToDisabledUpdated",
      "type": "event"
    },
    {
      "anonymous": false,
      "inputs": [
        {
          "indexed": true,
          "internalType": "address",
          "name": "_purchaser",
          "type": "address"
        },
        {
          "indexed": true,
          "internalType": "uint256",
          "name": "_projectId",
          "type": "uint256"
        },
        {
          "indexed": false,
          "internalType": "uint256",
          "name": "_numPurchased",
          "type": "uint256"
        },
        {
          "indexed": false,
          "internalType": "uint256",
          "name": "_netPosted",
          "type": "uint256"
        }
      ],
      "name": "ReceiptUpdated",
      "type": "event"
    },
    {
      "anonymous": false,
      "inputs": [
        {
          "indexed": true,
          "internalType": "uint256",
          "name": "projectId",
          "type": "uint256"
        },
        {
          "indexed": false,
          "internalType": "uint256",
          "name": "numPurchases",
          "type": "uint256"
        },
        {
          "indexed": false,
          "internalType": "uint256",
          "name": "latestPurchasePrice",
          "type": "uint256"
        }
      ],
      "name": "ResetAuctionDetails",
      "type": "event"
    },
    {
      "anonymous": false,
      "inputs": [
        {
          "indexed": true,
          "internalType": "uint256",
          "name": "_projectId",
          "type": "uint256"
        },
        {
          "indexed": false,
          "internalType": "uint256",
          "name": "_selloutPrice",
          "type": "uint256"
        }
      ],
      "name": "SelloutPriceUpdated",
      "type": "event"
    },
    {
      "anonymous": false,
      "inputs": [
        {
          "indexed": true,
          "internalType": "uint256",
          "name": "projectId",
          "type": "uint256"
        },
        {
          "indexed": false,
          "internalType": "uint256",
          "name": "_auctionTimestampStart",
          "type": "uint256"
        },
        {
          "indexed": false,
          "internalType": "uint256",
          "name": "_priceDecayHalfLifeSeconds",
          "type": "uint256"
        },
        {
          "indexed": false,
          "internalType": "uint256",
          "name": "_startPrice",
          "type": "uint256"
        },
        {
          "indexed": false,
          "internalType": "uint256",
          "name": "_basePrice",
          "type": "uint256"
        }
      ],
      "name": "SetAuctionDetails",
      "type": "event"
    },
    {
      "inputs": [
        {
          "internalType": "uint256",
          "name": "_projectId",
          "type": "uint256"
        },
        {
          "internalType": "uint256",
          "name": "_newSelloutPrice",
          "type": "uint256"
        }
      ],
      "name": "adminEmergencyReduceSelloutPrice",
      "outputs": [],
      "stateMutability": "nonpayable",
      "type": "function"
    },
    {
      "inputs": [],
      "name": "genArt721CoreAddress",
      "outputs": [
        {
          "internalType": "address",
          "name": "",
          "type": "address"
        }
      ],
      "stateMutability": "view",
      "type": "function"
    },
    {
      "inputs": [
        {
          "internalType": "uint256",
          "name": "_projectId",
          "type": "uint256"
        }
      ],
      "name": "getNumSettleableInvocations",
      "outputs": [
        {
          "internalType": "uint256",
          "name": "numSettleableInvocations",
          "type": "uint256"
        }
      ],
      "stateMutability": "view",
      "type": "function"
    },
    {
      "inputs": [
        {
          "internalType": "uint256",
          "name": "_projectId",
          "type": "uint256"
        }
      ],
      "name": "getPriceInfo",
      "outputs": [
        {
          "internalType": "bool",
          "name": "isConfigured",
          "type": "bool"
        },
        {
          "internalType": "uint256",
          "name": "tokenPriceInWei",
          "type": "uint256"
        },
        {
          "internalType": "string",
          "name": "currencySymbol",
          "type": "string"
        },
        {
          "internalType": "address",
          "name": "currencyAddress",
          "type": "address"
        }
      ],
      "stateMutability": "view",
      "type": "function"
    },
    {
      "inputs": [
        {
          "internalType": "uint256",
          "name": "_projectId",
          "type": "uint256"
        },
        {
          "internalType": "address",
          "name": "_walletAddress",
          "type": "address"
        }
      ],
      "name": "getProjectExcessSettlementFunds",
      "outputs": [
        {
          "internalType": "uint256",
          "name": "excessSettlementFundsInWei",
          "type": "uint256"
        }
      ],
      "stateMutability": "view",
      "type": "function"
    },
    {
      "inputs": [
        {
          "internalType": "uint256",
          "name": "_projectId",
          "type": "uint256"
        }
      ],
      "name": "getProjectLatestPurchasePrice",
      "outputs": [
        {
          "internalType": "uint256",
          "name": "latestPurchasePrice",
          "type": "uint256"
        }
      ],
      "stateMutability": "view",
      "type": "function"
    },
    {
      "inputs": [],
      "name": "maximumPriceDecayHalfLifeSeconds",
      "outputs": [
        {
          "internalType": "uint256",
          "name": "",
          "type": "uint256"
        }
      ],
      "stateMutability": "view",
      "type": "function"
    },
    {
      "inputs": [],
      "name": "minimumPriceDecayHalfLifeSeconds",
      "outputs": [
        {
          "internalType": "uint256",
          "name": "",
          "type": "uint256"
        }
      ],
      "stateMutability": "view",
      "type": "function"
    },
    {
      "inputs": [],
      "name": "minterFilterAddress",
      "outputs": [
        {
          "internalType": "address",
          "name": "",
          "type": "address"
        }
      ],
      "stateMutability": "view",
      "type": "function"
    },
    {
      "inputs": [],
      "name": "minterType",
      "outputs": [
        {
          "internalType": "string",
          "name": "",
          "type": "string"
        }
      ],
      "stateMutability": "view",
      "type": "function"
    },
    {
      "inputs": [
        {
          "internalType": "uint256",
          "name": "_projectId",
          "type": "uint256"
        }
      ],
      "name": "projectAuctionParameters",
      "outputs": [
        {
          "internalType": "uint256",
          "name": "timestampStart",
          "type": "uint256"
        },
        {
          "internalType": "uint256",
          "name": "priceDecayHalfLifeSeconds",
          "type": "uint256"
        },
        {
          "internalType": "uint256",
          "name": "startPrice",
          "type": "uint256"
        },
        {
          "internalType": "uint256",
          "name": "basePrice",
          "type": "uint256"
        }
      ],
      "stateMutability": "view",
      "type": "function"
    },
    {
      "inputs": [
        {
          "internalType": "uint256",
          "name": "",
          "type": "uint256"
        }
      ],
      "name": "projectConfig",
      "outputs": [
        {
          "internalType": "bool",
          "name": "maxHasBeenInvoked",
          "type": "bool"
        },
        {
          "internalType": "bool",
          "name": "auctionRevenuesCollected",
          "type": "bool"
        },
        {
          "internalType": "uint24",
          "name": "numSettleableInvocations",
          "type": "uint24"
        },
        {
          "internalType": "uint64",
          "name": "timestampStart",
          "type": "uint64"
        },
        {
          "internalType": "uint64",
          "name": "priceDecayHalfLifeSeconds",
          "type": "uint64"
        },
        {
          "internalType": "uint256",
          "name": "startPrice",
          "type": "uint256"
        },
        {
          "internalType": "uint256",
          "name": "basePrice",
          "type": "uint256"
        },
        {
          "internalType": "uint256",
          "name": "latestPurchasePrice",
          "type": "uint256"
        }
      ],
      "stateMutability": "view",
      "type": "function"
    },
    {
      "inputs": [
        {
          "internalType": "uint256",
          "name": "_projectId",
          "type": "uint256"
        }
      ],
      "name": "projectMaxHasBeenInvoked",
      "outputs": [
        {
          "internalType": "bool",
          "name": "",
          "type": "bool"
        }
      ],
      "stateMutability": "view",
      "type": "function"
    },
    {
      "inputs": [
        {
          "internalType": "uint256",
          "name": "_projectId",
          "type": "uint256"
        }
      ],
      "name": "purchase",
      "outputs": [
        {
          "internalType": "uint256",
          "name": "tokenId",
          "type": "uint256"
        }
      ],
      "stateMutability": "payable",
      "type": "function"
    },
    {
      "inputs": [
        {
          "internalType": "address",
          "name": "_to",
          "type": "address"
        },
        {
          "internalType": "uint256",
          "name": "_projectId",
          "type": "uint256"
        }
      ],
      "name": "purchaseTo",
      "outputs": [
        {
          "internalType": "uint256",
          "name": "tokenId",
          "type": "uint256"
        }
      ],
      "stateMutability": "payable",
      "type": "function"
    },
    {
      "inputs": [
        {
          "internalType": "address",
          "name": "_to",
          "type": "address"
        },
        {
          "internalType": "uint256",
          "name": "_projectId",
          "type": "uint256"
        }
      ],
      "name": "purchaseTo_do6",
      "outputs": [
        {
          "internalType": "uint256",
          "name": "tokenId",
          "type": "uint256"
        }
      ],
      "stateMutability": "payable",
      "type": "function"
    },
    {
      "inputs": [
        {
          "internalType": "uint256",
          "name": "_projectId",
          "type": "uint256"
        }
      ],
      "name": "purchase_H4M",
      "outputs": [
        {
          "internalType": "uint256",
          "name": "tokenId",
          "type": "uint256"
        }
      ],
      "stateMutability": "payable",
      "type": "function"
    },
    {
      "inputs": [
        {
          "internalType": "uint256",
          "name": "_projectId",
          "type": "uint256"
        }
      ],
      "name": "reclaimProjectExcessSettlementFunds",
      "outputs": [],
      "stateMutability": "nonpayable",
      "type": "function"
    },
    {
      "inputs": [
        {
          "internalType": "address payable",
          "name": "_to",
          "type": "address"
        },
        {
          "internalType": "uint256",
          "name": "_projectId",
          "type": "uint256"
        }
      ],
      "name": "reclaimProjectExcessSettlementFundsTo",
      "outputs": [],
      "stateMutability": "nonpayable",
      "type": "function"
    },
    {
      "inputs": [
        {
          "internalType": "uint256[]",
          "name": "_projectIds",
          "type": "uint256[]"
        }
      ],
      "name": "reclaimProjectsExcessSettlementFunds",
      "outputs": [],
      "stateMutability": "nonpayable",
      "type": "function"
    },
    {
      "inputs": [
        {
          "internalType": "address payable",
          "name": "_to",
          "type": "address"
        },
        {
          "internalType": "uint256[]",
          "name": "_projectIds",
          "type": "uint256[]"
        }
      ],
      "name": "reclaimProjectsExcessSettlementFundsTo",
      "outputs": [],
      "stateMutability": "nonpayable",
      "type": "function"
    },
    {
      "inputs": [
        {
          "internalType": "uint256",
          "name": "_projectId",
          "type": "uint256"
        }
      ],
      "name": "resetAuctionDetails",
      "outputs": [],
      "stateMutability": "nonpayable",
      "type": "function"
    },
    {
      "inputs": [
        {
          "internalType": "uint256",
          "name": "_minimumPriceDecayHalfLifeSeconds",
          "type": "uint256"
        },
        {
          "internalType": "uint256",
          "name": "_maximumPriceDecayHalfLifeSeconds",
          "type": "uint256"
        }
      ],
      "name": "setAllowablePriceDecayHalfLifeRangeSeconds",
      "outputs": [],
      "stateMutability": "nonpayable",
      "type": "function"
    },
    {
      "inputs": [
        {
          "internalType": "uint256",
          "name": "_projectId",
          "type": "uint256"
        },
        {
          "internalType": "uint256",
          "name": "_auctionTimestampStart",
          "type": "uint256"
        },
        {
          "internalType": "uint256",
          "name": "_priceDecayHalfLifeSeconds",
          "type": "uint256"
        },
        {
          "internalType": "uint256",
          "name": "_startPrice",
          "type": "uint256"
        },
        {
          "internalType": "uint256",
          "name": "_basePrice",
          "type": "uint256"
        }
      ],
      "name": "setAuctionDetails",
      "outputs": [],
      "stateMutability": "nonpayable",
      "type": "function"
    },
    {
      "inputs": [
        {
          "internalType": "uint256",
          "name": "",
          "type": "uint256"
        }
      ],
      "name": "setProjectMaxInvocations",
      "outputs": [],
      "stateMutability": "pure",
      "type": "function"
    },
    {
      "inputs": [
        {
          "internalType": "uint256",
          "name": "_projectId",
          "type": "uint256"
        }
      ],
      "name": "togglePurchaseToDisabled",
      "outputs": [],
      "stateMutability": "view",
      "type": "function"
    },
    {
      "inputs": [
        {
          "internalType": "uint256",
          "name": "_projectId",
          "type": "uint256"
        }
      ],
      "name": "withdrawArtistAndAdminRevenues",
      "outputs": [],
      "stateMutability": "nonpayable",
      "type": "function"
    }
  ],
  "bytecode": "0x61010060405261012c600255610e106003553480156200001e57600080fd5b5060405162002a2d38038062002a2d833981016040819052620000419162000153565b600160009081556001600160a01b03808416608081905260a081905290831660c081905260e0819052604080516392a10f8360e01b81529051929391926392a10f83926004808401936020939290839003909101908290875af1158015620000ad573d6000803e3d6000fd5b505050506040513d601f19601f82011682018060405250810190620000d391906200018b565b6001600160a01b0316146200012e5760405162461bcd60e51b815260206004820152601860248201527f496c6c6567616c20636f6e74726163742070616972696e670000000000000000604482015260640160405180910390fd5b5050620001b0565b80516001600160a01b03811681146200014e57600080fd5b919050565b600080604083850312156200016757600080fd5b620001728362000136565b9150620001826020840162000136565b90509250929050565b6000602082840312156200019e57600080fd5b620001a98262000136565b9392505050565b60805160a05160c05160e05161280b6200022260003960006107dc0152600061056e01526000818161086d015281816109d101528181610c4301528181610ec00152818161122d015281816113f101528181611495015281816116b20152611e40015260006103a1015261280b6000f3fe6080604052600436106101485760003560e01c8063891407c0116100bc578063891407c01461037c57806392a10f831461038f5780639cea5709146103db578063c0ad212e146103fb578063c3df9d6f1461041b578063c71b1b711461043b578063c7a4f53d14610506578063cd379f6e14610526578063cf6681ea14610546578063dd85582f1461055c578063e9d1e8ac14610590578063eb2f4f8e146105e0578063efef39a114610173578063f7bd4b881461060057600080fd5b806199871461014d578061b460146101735780631e9f2e921461018657806324411f80146101b65780632aedc28e146101ee5780632f077ee6146102105780632f4b12eb1461027657806340d1397e14610296578063462add46146102b65780634d413902146102f657806358d58106146103165780635bc1470f14610336578063774159c61461034c575b600080fd5b61016061015b36600461215a565b610620565b6040519081526020015b60405180910390f35b610160610181366004612186565b61099f565b34801561019257600080fd5b506101606101a1366004612186565b60009081526001602052604090206003015490565b3480156101c257600080fd5b506101606101d1366004612186565b60009081526001602052604090205462010000900462ffffff1690565b3480156101fa57600080fd5b5061020e610209366004612186565b6109b1565b005b34801561021c57600080fd5b5061026661022b366004612186565b60009081526001602081905260409091208054918101546002909101546001600160401b03600160281b8404811694600160681b9094041692565b60405161016a949392919061219f565b34801561028257600080fd5b506101606102913660046121ba565b610b61565b3480156102a257600080fd5b5061020e6102b1366004612186565b610c2b565b3480156102c257600080fd5b506102e66102d1366004612186565b60009081526001602052604090205460ff1690565b604051901515815260200161016a565b34801561030257600080fd5b5061020e61031136600461215a565b610d25565b34801561032257600080fd5b5061020e6103313660046121ea565b610ea0565b34801561034257600080fd5b5061016060035481565b34801561035857600080fd5b5061036c610367366004612186565b61112b565b60405161016a9493929190612252565b61016061038a36600461215a565b6111b9565b34801561039b57600080fd5b506103c37f000000000000000000000000000000000000000000000000000000000000000081565b6040516001600160a01b03909116815260200161016a565b3480156103e757600080fd5b5061020e6103f636600461228c565b6111cc565b34801561040757600080fd5b5061020e6104163660046121ea565b61120d565b34801561042757600080fd5b5061020e610436366004612186565b6113c3565b34801561044757600080fd5b506104b5610456366004612186565b6001602081905260009182526040909120805491810154600282015460039092015460ff8085169461010081049091169362ffffff62010000830416936001600160401b03600160281b8404811694600160681b909404169290919088565b604080519815158952961515602089015262ffffff909516958701959095526001600160401b0392831660608701529116608085015260a084015260c083019190915260e08201526101000161016a565b34801561051257600080fd5b5061020e610521366004612186565b6113d0565b34801561053257600080fd5b5061020e610541366004612300565b61169a565b34801561055257600080fd5b5061016060025481565b34801561056857600080fd5b506103c37f000000000000000000000000000000000000000000000000000000000000000081565b34801561059c57600080fd5b506105d36040518060400160405280601781526020017604d696e7465724441457870536574746c656d656e74563604c1b81525081565b60405161016a919061233b565b3480156105ec57600080fd5b5061020e6105fb366004612364565b611aab565b34801561060c57600080fd5b5061020e61061b366004612186565b611c67565b600060026000540361064d5760405162461bcd60e51b815260040161064490612436565b60405180910390fd5b60026000908155828152600160205260409020805460ff16156106c05760405162461bcd60e51b815260206004820152602560248201527f4d6178696d756d206e756d626572206f6620696e766f636174696f6e732072656044820152641858da195960da1b6064820152608401610644565b60006106cb84611ce3565b3360009081526004602090815260408083208884529091528120805492935091349183916106fa908490612483565b909155505060018101805490600061071183612496565b919050555081816001015461072691906124af565b815410156107765760405162461bcd60e51b815260206004820152601f60248201527f4d7573742073656e64206d696e696d756d2076616c756520746f206d696e74006044820152606401610644565b60018101548154604080519283526020830191909152869133916000805160206127b6833981519152910160405180910390a360038301829055604051630d4d151360e01b81526001600160a01b038781166004830152602482018790523360448301527f00000000000000000000000000000000000000000000000000000000000000001690630d4d1513906064016020604051808303816000875af1158015610825573d6000803e3d6000fd5b505050506040513d601f19601f8201168201806040525081019061084991906124c6565b604051630ea5613f60e01b8152600481018790529094506000906001600160a01b037f00000000000000000000000000000000000000000000000000000000000000001690630ea5613f9060240160c060405180830381865afa1580156108b4573d6000803e3d6000fd5b505050506040513d601f19601f820116820180604052508101906108d891906124f4565b509294505060001984019250620f42409150879050060361093b57835460ff1916600117845560405186907f6e257f2b2266f72d4bd28a2e64b0cfc245c9a1c28ec2dc591f8052f77f969c95906109329086815260200190565b60405180910390a25b8354610100900460ff1615610959576109548684611e2d565b610990565b835462010000900462ffffff1684600261097283612569565b91906101000a81548162ffffff021916908362ffffff160217905550505b50505050600160005592915050565b60006109ab3383610620565b92915050565b60405163230448b160e01b8152631576e14760e11b906001600160a01b037f0000000000000000000000000000000000000000000000000000000000000000169063230448b190610a0a9033903090869060040161258b565b6020604051808303816000875af1158015610a29573d6000803e3d6000fd5b505050506040513d601f19601f82011682018060405250810190610a4d91906125b8565b610a695760405162461bcd60e51b8152600401610644906125d3565b6000828152600160208190526040822090810154909103610ac95760405162461bcd60e51b815260206004820152601a602482015279105d58dd1a5bdb881b5d5cdd0818994818dbdb999a59dd5c995960321b6044820152606401610644565b8054610100900460ff1615610af05760405162461bcd60e51b815260040161064490612607565b8054600160281b600160a81b03191680825560006001830181905560028301556003820154604080516201000090930462ffffff168352602083019190915284917f28cd2e5a54afa08469ca157e482b97c3de9efbc4c48cea254864df050677145a910160405180910390a2505050565b60006001600160a01b038216610bab5760405162461bcd60e51b815260206004820152600f60248201526e4e6f207a65726f206164647265737360881b6044820152606401610644565b60008381526001602081815260408084206001600160a01b03871685526004835281852088865290925290922090810154610bf85760405162461bcd60e51b81526004016106449061263e565b60038201546001820154600090610c109083906124af565b8354909150610c2090829061267f565b979650505050505050565b60405163a47d29cb60e01b81526004810182905281907f00000000000000000000000000000000000000000000000000000000000000006001600160a01b03169063a47d29cb90602401602060405180830381865afa158015610c92573d6000803e3d6000fd5b505050506040513d601f19601f82011682018060405250810190610cb69190612692565b6001600160a01b0316336001600160a01b031614610ce65760405162461bcd60e51b8152600401610644906126af565b60405162461bcd60e51b81526020600482015260146024820152731058dd1a5bdb881b9bdd081cdd5c1c1bdc9d195960621b6044820152606401610644565b600260005403610d475760405162461bcd60e51b815260040161064490612436565b60026000908155818152600160209081526040808320338452600483528184208585529092529091206001600160a01b038416610d965760405162461bcd60e51b8152600401610644906126d4565b6000816001015411610dba5760405162461bcd60e51b81526004016106449061263e565b60038201546001820154600090610dd29083906124af565b90506000818460000154610de6919061267f565b82855560018501546040805191825260208201859052919250879133916000805160206127b6833981519152910160405180910390a36000876001600160a01b03168260405160006040518083038185875af1925050503d8060008114610e69576040519150601f19603f3d011682016040523d82523d6000602084013e610e6e565b606091505b50508091505080610e915760405162461bcd60e51b81526004016106449061270b565b50506001600055505050505050565b60405163230448b160e01b8152632c6ac08360e11b906001600160a01b037f0000000000000000000000000000000000000000000000000000000000000000169063230448b190610ef99033903090869060040161258b565b6020604051808303816000875af1158015610f18573d6000803e3d6000fd5b505050506040513d601f19601f82011682018060405250810190610f3c91906125b8565b610f585760405162461bcd60e51b8152600401610644906125d3565b6000838152600160205260409020805460ff16610fb25760405162461bcd60e51b815260206004820152601860248201527741756374696f6e206d75737420626520636f6d706c65746560401b6044820152606401610644565b806003015483106110055760405162461bcd60e51b815260206004820152601d60248201527f4d6179206f6e6c79207265647563652073656c6c6f75742070726963650000006044820152606401610644565b80600201548310156110785760405162461bcd60e51b815260206004820152603660248201527f4d6179206f6e6c79207265647563652073656c6c6f757420707269636520746f604482015275103130b9b290383934b1b29037b91033b932b0ba32b960511b6064820152608401610644565b600083116110c25760405162461bcd60e51b815260206004820152601760248201527604f6e6c792073656c6c6f757420707269636573203e203604c1b6044820152606401610644565b8054610100900460ff16156110e95760405162461bcd60e51b815260040161064490612607565b6003810183905560405183815284907f6e257f2b2266f72d4bd28a2e64b0cfc245c9a1c28ec2dc591f8052f77f969c959060200160405180910390a250505050565b600081815260016020819052604082209081015481549015159291606091839190600160281b90046001600160401b0316421161116e578060010154935061118f565b8060010154600003611183576000935061118f565b61118c86611ce3565b93505b6040518060400160405280600381526020016208aa8960eb1b815250925060009150509193509193565b60006111c58383610620565b9392505050565b61120933838380806020026020016040519081016040528093929190818152602001838360200280828437600092019190915250611aab92505050565b5050565b60405163230448b160e01b8152636056909760e11b906001600160a01b037f0000000000000000000000000000000000000000000000000000000000000000169063230448b1906112669033903090869060040161258b565b6020604051808303816000875af1158015611285573d6000803e3d6000fd5b505050506040513d601f19601f820116820180604052508101906112a991906125b8565b6112c55760405162461bcd60e51b8152600401610644906125d3565b82821161132b5760405162461bcd60e51b815260206004820152602e60248201527f4d6178696d756d2068616c66206c696665206d7573742062652067726561746560448201526d72207468616e206d696e696d756d60901b6064820152608401610644565b6000831161137b5760405162461bcd60e51b815260206004820152601d60248201527f48616c66206c696665206f66207a65726f206e6f7420616c6c6f7765640000006044820152606401610644565b6002839055600382905560408051848152602081018490527f1d5d9c9b660aace5432c6c7412456d0ad1b5ff4c6ea156a8c551ba93555ed73f910160405180910390a1505050565b6113cd3382610d25565b50565b60405163a47d29cb60e01b815260048101829052819063c7a4f53d60e01b907f00000000000000000000000000000000000000000000000000000000000000006001600160a01b03169063a47d29cb90602401602060405180830381865afa158015611440573d6000803e3d6000fd5b505050506040513d601f19601f820116820180604052508101906114649190612692565b6001600160a01b0316336001600160a01b03161480611511575060405163230448b160e01b81526001600160a01b037f0000000000000000000000000000000000000000000000000000000000000000169063230448b1906114ce9033903090869060040161258b565b6020604051808303816000875af11580156114ed573d6000803e3d6000fd5b505050506040513d601f19601f8201168201806040525081019061151191906125b8565b6115585760405162461bcd60e51b815260206004820152601860248201527713db9b1e48105c9d1a5cdd081bdc8810591b5a5b881050d360421b6044820152606401610644565b60008381526001602052604090208054610100900460ff16156115ba5760405162461bcd60e51b815260206004820152601a60248201527914995d995b9d595cc8185b1c9958591e4818dbdb1b1958dd195960321b6044820152606401610644565b60006115c585611ce3565b90508160020154811461162857815460ff166116235760405162461bcd60e51b815260206004820152601f60248201527f4163746976652061756374696f6e206e6f742079657420736f6c64206f7574006044820152606401610644565b611633565b600282015460038301555b815461ff0019166101001780835560009061165b90839062ffffff62010000909104166124af565b90506116678682611e2d565b60405186907f110a44b77609d30f9b80fa9add8c3e18ba02555b3546acf2b0318a3d3229c5a790600090a2505050505050565b60405163a47d29cb60e01b81526004810186905285907f00000000000000000000000000000000000000000000000000000000000000006001600160a01b03169063a47d29cb90602401602060405180830381865afa158015611701573d6000803e3d6000fd5b505050506040513d601f19601f820116820180604052508101906117259190612692565b6001600160a01b0316336001600160a01b0316146117555760405162461bcd60e51b8152600401610644906126af565b60008681526001602052604090208054600160281b90046001600160401b0316158061179157508054600160281b90046001600160401b031642105b6117dc5760405162461bcd60e51b815260206004820152601c60248201527b27379036b7b234b334b1b0ba34b7b7399036b4b216b0bab1ba34b7b760211b6044820152606401610644565b8542106118225760405162461bcd60e51b81526020600482015260146024820152734f6e6c79206675747572652061756374696f6e7360601b6044820152606401610644565b8284116118945760405162461bcd60e51b815260206004820152603a60248201527f41756374696f6e207374617274207072696365206d7573742062652067726561604482015279746572207468616e2061756374696f6e20656e6420707269636560301b6064820152608401610644565b600083116118e25760405162461bcd60e51b815260206004820152601b60248201527a42617365207072696365206d757374206265206e6f6e2d7a65726f60281b6044820152606401610644565b600381015415806118f7575080600301548411155b6119605760405162461bcd60e51b815260206004820152603460248201527f41756374696f6e207374617274207072696365206d757374206265203c3d206c604482015273617465737420707572636861736520707269636560601b6064820152608401610644565b600254851015801561197457506003548511155b6119f45760405162461bcd60e51b8152602060048201526044602482018190527f50726963652064656361792068616c66206c696665206d7573742066616c6c20908201527f6265747765656e206d696e20616e64206d617820616c6c6f7761626c652076616064820152636c75657360e01b608482015260a401610644565b6119fd866120d9565b81546001600160401b0391909116600160281b0267ffffffffffffffff60281b19909116178155611a2d856120d9565b81546001600160401b0391909116600160681b0267ffffffffffffffff60681b19909116178155600181018490556002810183905560405187907f38b3058b75696f9e45bffa9c4b237adcde13d74c7bc1bea63e13c712d0776c7490611a9a90899089908990899061219f565b60405180910390a250505050505050565b600260005403611acd5760405162461bcd60e51b815260040161064490612436565b60026000556001600160a01b038216611af85760405162461bcd60e51b8152600401610644906126d4565b8051600090815b81811015611be5576000848281518110611b1b57611b1b612736565b602090810291909101810151600081815260018084526040808320338452600486528184208585529095529091209081015491935090611b6d5760405162461bcd60e51b81526004016106449061263e565b60038201546001820154600090611b859083906124af565b8354909150611b9590829061267f565b611b9f9089612483565b81845560018401546040805191825260208201849052919950869133916000805160206127b6833981519152910160405180910390a38560010195505050505050611aff565b506000846001600160a01b03168360405160006040518083038185875af1925050503d8060008114611c33576040519150601f19603f3d011682016040523d82523d6000602084013e611c38565b606091505b50508091505080611c5b5760405162461bcd60e51b81526004016106449061270b565b50506001600055505050565b60405162461bcd60e51b8152602060048201526044602482018190527f73657450726f6a6563744d6178496e766f636174696f6e73206e6f7420696d70908201527f6c656d656e746564202d207570646174656420647572696e67206576657279206064820152631b5a5b9d60e21b608482015260a401610644565b6000818152600160205260408120805460ff1615611d05576003015492915050565b805460028201546001600160401b03600160281b8304811692600160681b90041690428310611d705760405162461bcd60e51b8152602060048201526017602482015276105d58dd1a5bdb881b9bdd081e595d081cdd185c9d1959604a1b6044820152606401610644565b60008211611dbb5760405162461bcd60e51b81526020600482015260186024820152774f6e6c7920636f6e666967757265642061756374696f6e7360401b6044820152606401610644565b600184015442849003838181611dd357611dd3612553565b0482901c9150600284858381611deb57611deb612553565b06840281611dfb57611dfb612553565b0481611e0957611e09612553565b048203915082821015611e225750909695505050505050565b509695505050505050565b80156112095760008060008060008060007f00000000000000000000000000000000000000000000000000000000000000006001600160a01b0316638639415b8a8a6040518363ffffffff1660e01b8152600401611e95929190918252602082015260400190565b60c060405180830381865afa158015611eb2573d6000803e3d6000fd5b505050506040513d601f19601f82011682018060405250810190611ed6919061274c565b9550955095509550955095506000861115611f88576040516001600160a01b038616908790600081818185875af1925050503d8060008114611f34576040519150601f19603f3d011682016040523d82523d6000602084013e611f39565b606091505b50508097505086611f885760405162461bcd60e51b8152602060048201526019602482015278105c9d08109b1bd8dadcc81c185e5b595b9d0819985a5b1959603a1b6044820152606401610644565b8315612027576040516001600160a01b038416908590600081818185875af1925050503d8060008114611fd7576040519150601f19603f3d011682016040523d82523d6000602084013e611fdc565b606091505b505080975050866120275760405162461bcd60e51b8152602060048201526015602482015274105c9d1a5cdd081c185e5b595b9d0819985a5b1959605a1b6044820152606401610644565b81156120ce576040516001600160a01b038216908390600081818185875af1925050503d8060008114612076576040519150601f19603f3d011682016040523d82523d6000602084013e61207b565b606091505b505080975050866120ce5760405162461bcd60e51b815260206004820152601f60248201527f4164646974696f6e616c205061796565207061796d656e74206661696c6564006044820152606401610644565b505050505050505050565b60006001600160401b038211156121415760405162461bcd60e51b815260206004820152602660248201527f53616665436173743a2076616c756520646f65736e27742066697420696e203660448201526534206269747360d01b6064820152608401610644565b5090565b6001600160a01b03811681146113cd57600080fd5b6000806040838503121561216d57600080fd5b823561217881612145565b946020939093013593505050565b60006020828403121561219857600080fd5b5035919050565b93845260208401929092526040830152606082015260800190565b600080604083850312156121cd57600080fd5b8235915060208301356121df81612145565b809150509250929050565b600080604083850312156121fd57600080fd5b50508035926020909101359150565b6000815180845260005b8181101561223257602081850181015186830182015201612216565b506000602082860101526020601f19601f83011685010191505092915050565b8415158152836020820152608060408201526000612273608083018561220c565b905060018060a01b038316606083015295945050505050565b6000806020838503121561229f57600080fd5b82356001600160401b03808211156122b657600080fd5b818501915085601f8301126122ca57600080fd5b8135818111156122d957600080fd5b8660208260051b85010111156122ee57600080fd5b60209290920196919550909350505050565b600080600080600060a0868803121561231857600080fd5b505083359560208501359550604085013594606081013594506080013592509050565b6020815260006111c5602083018461220c565b634e487b7160e01b600052604160045260246000fd5b6000806040838503121561237757600080fd5b823561238281612145565b91506020838101356001600160401b038082111561239f57600080fd5b818601915086601f8301126123b357600080fd5b8135818111156123c5576123c561234e565b8060051b604051601f19603f830116810181811085821117156123ea576123ea61234e565b60405291825284820192508381018501918983111561240857600080fd5b938501935b828510156124265784358452938501939285019261240d565b8096505050505050509250929050565b6020808252601f908201527f5265656e7472616e637947756172643a207265656e7472616e742063616c6c00604082015260600190565b634e487b7160e01b600052601160045260246000fd5b808201808211156109ab576109ab61246d565b6000600182016124a8576124a861246d565b5060010190565b80820281158282048414176109ab576109ab61246d565b6000602082840312156124d857600080fd5b5051919050565b805180151581146124ef57600080fd5b919050565b60008060008060008060c0878903121561250d57600080fd5b8651955060208701519450612524604088016124df565b9350612532606088016124df565b92506080870151915061254760a088016124df565b90509295509295509295565b634e487b7160e01b600052601260045260246000fd5b600062ffffff8083168181036125815761258161246d565b6001019392505050565b6001600160a01b0393841681529190921660208201526001600160e01b0319909116604082015260600190565b6000602082840312156125ca57600080fd5b6111c5826124df565b6020808252601a908201527913db9b1e4810dbdc994810591b5a5b9050d308185b1b1bddd95960321b604082015260600190565b6020808252601e908201527f4f6e6c79206265666f726520726576656e75657320636f6c6c65637465640000604082015260600190565b60208082526021908201527f4e6f20707572636861736573206d6164652062792074686973206164647265736040820152607360f81b606082015260800190565b818103818111156109ab576109ab61246d565b6000602082840312156126a457600080fd5b81516111c581612145565b6020808252600b908201526a13db9b1e48105c9d1a5cdd60aa1b604082015260600190565b6020808252601f908201527f4e6f20636c61696d696e6720746f20746865207a65726f206164647265737300604082015260600190565b602080825260119082015270149958db185a5b5a5b99c819985a5b1959607a1b604082015260600190565b634e487b7160e01b600052603260045260246000fd5b60008060008060008060c0878903121561276557600080fd5b86519550602087015161277781612145565b60408801516060890151919650945061278f81612145565b608088015160a089015191945092506127a781612145565b80915050929550929550929556fe88bc1bf6777e1eaef8a0583c526f6963c9183af9ee82015f9a28f55b9115ea71a26469706673582212201788e6afe7cf501c6a5e38562da20772f70990580dff993bfdbf6c158d03c7dc64736f6c63430008110033",
  "linkReferences": {},
  "deployedLinkReferences": {}
}