{
  "_format": "hh-sol-artifact-1",
  "contractName": "MinterSetPriceERC20V0",
  "sourceName": "contracts/minter-suite/MinterSetPriceERC20V0.sol",
  "abi": [
    {
      "inputs": [
        {
          "internalType": "address",
          "name": "_genArt721Address",
          "type": "address"
        },
        {
          "internalType": "address",
          "name": "_minterFilter",
          "type": "address"
        }
      ],
      "stateMutability": "nonpayable",
      "type": "constructor"
    },
    {
      "anonymous": false,
      "inputs": [
        {
          "indexed": true,
          "internalType": "uint256",
          "name": "_projectId",
          "type": "uint256"
        },
        {
          "indexed": true,
          "internalType": "uint256",
          "name": "_pricePerTokenInWei",
          "type": "uint256"
        }
      ],
      "name": "PricePerTokenInWeiUpdated",
      "type": "event"
    },
    {
      "anonymous": false,
      "inputs": [
        {
          "indexed": true,
          "internalType": "uint256",
          "name": "_projectId",
          "type": "uint256"
        },
        {
          "indexed": true,
          "internalType": "string",
          "name": "_currencySymbol",
          "type": "string"
        },
        {
          "indexed": true,
          "internalType": "address",
          "name": "_currencyAddress",
          "type": "address"
        }
      ],
      "name": "ProjectCurrencyInfoUpdated",
      "type": "event"
    },
    {
      "anonymous": false,
      "inputs": [
        {
          "indexed": true,
          "internalType": "uint256",
          "name": "_projectId",
          "type": "uint256"
        },
        {
          "indexed": false,
          "internalType": "bool",
          "name": "_purchaseToDisabled",
          "type": "bool"
        }
      ],
      "name": "PurchaseToDisabledUpdated",
      "type": "event"
    },
    {
      "inputs": [
        {
          "internalType": "uint256",
          "name": "_projectId",
          "type": "uint256"
        }
      ],
      "name": "checkYourAllowanceOfProjectERC20",
      "outputs": [
        {
          "internalType": "uint256",
          "name": "remaining",
          "type": "uint256"
        }
      ],
      "stateMutability": "view",
      "type": "function"
    },
    {
      "inputs": [
        {
          "internalType": "uint256",
          "name": "",
          "type": "uint256"
        }
      ],
      "name": "contractMintable",
      "outputs": [
        {
          "internalType": "bool",
          "name": "",
          "type": "bool"
        }
      ],
      "stateMutability": "view",
      "type": "function"
    },
    {
      "inputs": [],
      "name": "genArtCoreContract",
      "outputs": [
        {
          "internalType": "contract IGenArt721CoreContractV1",
          "name": "",
          "type": "address"
        }
      ],
      "stateMutability": "view",
      "type": "function"
    },
    {
      "inputs": [
        {
          "internalType": "uint256",
          "name": "_projectId",
          "type": "uint256"
        }
      ],
      "name": "getPriceInfo",
      "outputs": [
        {
          "internalType": "bool",
          "name": "isConfigured",
          "type": "bool"
        },
        {
          "internalType": "uint256",
          "name": "tokenPriceInWei",
          "type": "uint256"
        },
        {
          "internalType": "string",
          "name": "currencySymbol",
          "type": "string"
        },
        {
          "internalType": "address",
          "name": "currencyAddress",
          "type": "address"
        }
      ],
      "stateMutability": "view",
      "type": "function"
    },
    {
      "inputs": [
        {
          "internalType": "uint256",
          "name": "_projectId",
          "type": "uint256"
        }
      ],
      "name": "getYourBalanceOfProjectERC20",
      "outputs": [
        {
          "internalType": "uint256",
          "name": "balance",
          "type": "uint256"
        }
      ],
      "stateMutability": "view",
      "type": "function"
    },
    {
      "inputs": [],
      "name": "minterFilter",
      "outputs": [
        {
          "internalType": "contract IMinterFilterV0",
          "name": "",
          "type": "address"
        }
      ],
      "stateMutability": "view",
      "type": "function"
    },
    {
      "inputs": [],
      "name": "minterType",
      "outputs": [
        {
          "internalType": "string",
          "name": "",
          "type": "string"
        }
      ],
      "stateMutability": "view",
      "type": "function"
    },
    {
      "inputs": [
        {
          "internalType": "uint256",
          "name": "",
          "type": "uint256"
        }
      ],
      "name": "projectMaxHasBeenInvoked",
      "outputs": [
        {
          "internalType": "bool",
          "name": "",
          "type": "bool"
        }
      ],
      "stateMutability": "view",
      "type": "function"
    },
    {
      "inputs": [
        {
          "internalType": "uint256",
          "name": "",
          "type": "uint256"
        }
      ],
      "name": "projectMaxInvocations",
      "outputs": [
        {
          "internalType": "uint256",
          "name": "",
          "type": "uint256"
        }
      ],
      "stateMutability": "view",
      "type": "function"
    },
    {
      "inputs": [
        {
          "internalType": "address",
          "name": "",
          "type": "address"
        },
        {
          "internalType": "uint256",
          "name": "",
          "type": "uint256"
        }
      ],
      "name": "projectMintCounter",
      "outputs": [
        {
          "internalType": "uint256",
          "name": "",
          "type": "uint256"
        }
      ],
      "stateMutability": "view",
      "type": "function"
    },
    {
      "inputs": [
        {
          "internalType": "uint256",
          "name": "",
          "type": "uint256"
        }
      ],
      "name": "projectMintLimit",
      "outputs": [
        {
          "internalType": "uint256",
          "name": "",
          "type": "uint256"
        }
      ],
      "stateMutability": "view",
      "type": "function"
    },
    {
      "inputs": [
        {
          "internalType": "uint256",
          "name": "_projectId",
          "type": "uint256"
        }
      ],
      "name": "purchase",
      "outputs": [
        {
          "internalType": "uint256",
          "name": "tokenId",
          "type": "uint256"
        }
      ],
      "stateMutability": "payable",
      "type": "function"
    },
    {
      "inputs": [
        {
          "internalType": "address",
          "name": "_to",
          "type": "address"
        },
        {
          "internalType": "uint256",
          "name": "_projectId",
          "type": "uint256"
        }
      ],
      "name": "purchaseTo",
      "outputs": [
        {
          "internalType": "uint256",
          "name": "tokenId",
          "type": "uint256"
        }
      ],
      "stateMutability": "payable",
      "type": "function"
    },
    {
      "inputs": [
        {
          "internalType": "uint256",
          "name": "",
          "type": "uint256"
        }
      ],
      "name": "purchaseToDisabled",
      "outputs": [
        {
          "internalType": "bool",
          "name": "",
          "type": "bool"
        }
      ],
      "stateMutability": "view",
      "type": "function"
    },
    {
      "inputs": [
        {
          "internalType": "uint256",
          "name": "_projectId",
          "type": "uint256"
        }
      ],
      "name": "setProjectMaxInvocations",
      "outputs": [],
      "stateMutability": "nonpayable",
      "type": "function"
    },
    {
      "inputs": [
        {
          "internalType": "uint256",
          "name": "_projectId",
          "type": "uint256"
        },
        {
          "internalType": "uint8",
          "name": "_limit",
          "type": "uint8"
        }
      ],
      "name": "setProjectMintLimit",
      "outputs": [],
      "stateMutability": "nonpayable",
      "type": "function"
    },
    {
      "inputs": [
        {
          "internalType": "uint256",
          "name": "_projectId",
          "type": "uint256"
        }
      ],
      "name": "toggleContractMintable",
      "outputs": [],
      "stateMutability": "nonpayable",
      "type": "function"
    },
    {
      "inputs": [
        {
          "internalType": "uint256",
          "name": "_projectId",
          "type": "uint256"
        }
      ],
      "name": "togglePurchaseToDisabled",
      "outputs": [],
      "stateMutability": "nonpayable",
      "type": "function"
    },
    {
      "inputs": [
        {
          "internalType": "uint256",
          "name": "_projectId",
          "type": "uint256"
        },
        {
          "internalType": "uint256",
          "name": "_pricePerTokenInWei",
          "type": "uint256"
        }
      ],
      "name": "updatePricePerTokenInWei",
      "outputs": [],
      "stateMutability": "nonpayable",
      "type": "function"
    },
    {
      "inputs": [
        {
          "internalType": "uint256",
          "name": "_projectId",
          "type": "uint256"
        },
        {
          "internalType": "string",
          "name": "_currencySymbol",
          "type": "string"
        },
        {
          "internalType": "address",
          "name": "_currencyAddress",
          "type": "address"
        }
      ],
      "name": "updateProjectCurrencyInfo",
      "outputs": [],
      "stateMutability": "nonpayable",
      "type": "function"
    }
  ],
  "bytecode": "0x60c06040523480156200001157600080fd5b506040516200291e3803806200291e83398101604081905262000034916200014c565b600160009081556001600160a01b03808416608081905290831660a0819052604080516392a10f8360e01b81529051929391926392a10f8392600480840193602093929083900390910190829087803b1580156200009157600080fd5b505af1158015620000a6573d6000803e3d6000fd5b505050506040513d601f19601f82011682018060405250810190620000cc919062000184565b6001600160a01b031614620001275760405162461bcd60e51b815260206004820152601860248201527f496c6c6567616c20636f6e74726163742070616972696e670000000000000000604482015260640160405180910390fd5b5050620001a9565b80516001600160a01b03811681146200014757600080fd5b919050565b600080604083850312156200016057600080fd5b6200016b836200012f565b91506200017b602084016200012f565b90509250929050565b6000602082840312156200019757600080fd5b620001a2826200012f565b9392505050565b60805160a0516126c36200025b600039600081816101360152610b460152600081816102f20152818161049f015281816105780152818161068e01528181610fb001528181611089015281816112d70152818161139b01528181611476015281816115590152818161165a01528181611712015281816117eb0152818161192601528181611ad101528181611b8101528181611cc101528181611d7901528181611e310152611f7e01526126c36000f3fe60806040526004361061011f5760003560e01c8063891407c0116100a0578063d195b36511610064578063d195b365146103c7578063e9d1e8ac146103e7578063efef39a114610435578063f463210314610448578063f7bd4b881461046857600080fd5b8063891407c014610314578063a980960014610327578063acffea0514610347578063bee5600314610367578063cfff5cf11461039757600080fd5b806356690aaf116100e757806356690aaf1461023657806362f7a7ed146102635780636cb9b7ff14610290578063774159c6146102b05780637f38902b146102e057600080fd5b806308d9418814610124578063231c22811461016e5780633a4657b41461019057806340d1397e146101d6578063462add46146101f6575b600080fd5b34801561013057600080fd5b506101587f000000000000000000000000000000000000000000000000000000000000000081565b604051610165919061213c565b60405180910390f35b34801561017a57600080fd5b5061018e610189366004612150565b610488565b005b34801561019c57600080fd5b506101c86101ab36600461219b565b600360209081526000928352604080842090915290825290205481565b604051908152602001610165565b3480156101e257600080fd5b5061018e6101f13660046121c7565b610561565b34801561020257600080fd5b506102266102113660046121c7565b60056020526000908152604090205460ff1681565b6040519015158152602001610165565b34801561024257600080fd5b506101c86102513660046121c7565b60066020526000908152604090205481565b34801561026f57600080fd5b506101c861027e3660046121c7565b60046020526000908152604090205481565b34801561029c57600080fd5b5061018e6102ab3660046121e0565b610676565b3480156102bc57600080fd5b506102d06102cb3660046121c7565b610795565b604051610165949392919061225e565b3480156102ec57600080fd5b506101587f000000000000000000000000000000000000000000000000000000000000000081565b6101c861032236600461219b565b610892565b34801561033357600080fd5b506101c86103423660046121c7565b610f07565b34801561035357600080fd5b5061018e6103623660046121c7565b610f99565b34801561037357600080fd5b506102266103823660046121c7565b60016020526000908152604090205460ff1681565b3480156103a357600080fd5b506102266103b23660046121c7565b60026020526000908152604090205460ff1681565b3480156103d357600080fd5b5061018e6103e2366004612307565b611071565b3480156103f357600080fd5b506104286040518060400160405280601581526020017404d696e74657253657450726963654552433230563605c1b81525081565b60405161016591906123a5565b6101c86104433660046121c7565b611272565b34801561045457600080fd5b506101c86104633660046121c7565b61127e565b34801561047457600080fd5b5061018e6104833660046121c7565b6112c0565b604051633af32abf60e01b81526001600160a01b037f00000000000000000000000000000000000000000000000000000000000000001690633af32abf906104d490339060040161213c565b60206040518083038186803b1580156104ec57600080fd5b505afa158015610500573d6000803e3d6000fd5b505050506040513d601f19601f8201168201806040525081019061052491906123d4565b6105495760405162461bcd60e51b8152600401610540906123ef565b60405180910390fd5b60009182526004602052604090912060ff9091169055565b604051633af32abf60e01b81526001600160a01b037f00000000000000000000000000000000000000000000000000000000000000001690633af32abf906105ad90339060040161213c565b60206040518083038186803b1580156105c557600080fd5b505afa1580156105d9573d6000803e3d6000fd5b505050506040513d601f19601f820116820180604052508101906105fd91906123d4565b6106195760405162461bcd60e51b8152600401610540906123ef565b600081815260026020908152604091829020805460ff8082161560ff199092168217909255925192161515825282917fce8ced1e9d6979c7589d3c8786f4d51a8034faa5ff2cbc5a2271364f787feccb910160405180910390a250565b60405163a47d29cb60e01b81526004810183905282907f00000000000000000000000000000000000000000000000000000000000000006001600160a01b03169063a47d29cb9060240160206040518083038186803b1580156106d857600080fd5b505afa1580156106ec573d6000803e3d6000fd5b505050506040513d601f19601f82011682018060405250810190610710919061241e565b6001600160a01b0316336001600160a01b0316146107405760405162461bcd60e51b81526004016105409061243b565b60008381526007602090815260408083208590556008909152808220805460ff1916600117905551839185917f26118a27aca826f829f3bfe21b140b4455c00b434849bd0da50d1e1a9720fb5c9190a3505050565b6000818152600860209081526040808320546007835281842054600a90935292205460ff909216916060906001600160a01b0316806107f1576040518060400160405280600381526020016208aa8960eb1b815250915061088b565b6000858152600960205260409020805461080a90612460565b80601f016020809104026020016040519081016040528092919081815260200182805461083690612460565b80156108835780601f1061085857610100808354040283529160200191610883565b820191906000526020600020905b81548152906001019060200180831161086657829003601f168201915b505050505091505b9193509193565b6000600260005414156108e75760405162461bcd60e51b815260206004820152601f60248201527f5265656e7472616e637947756172643a207265656e7472616e742063616c6c006044820152606401610540565b600260009081558281526005602052604090205460ff16156109595760405162461bcd60e51b815260206004820152602560248201527f4d6178696d756d206e756d626572206f6620696e766f636174696f6e732072656044820152641858da195960da1b6064820152608401610540565b60008281526008602052604090205460ff166109ae5760405162461bcd60e51b8152602060048201526014602482015273141c9a58d9481b9bdd0818dbdb999a59dd5c995960621b6044820152606401610540565b60008281526001602052604090205460ff16610a0657333214610a065760405162461bcd60e51b815260206004820152601060248201526f4e6f20436f6e7472616374204275797360801b6044820152606401610540565b60008281526002602052604090205460ff1615610a6f57336001600160a01b03841614610a6f5760405162461bcd60e51b8152602060048201526017602482015276139bc8181c1d5c98da185cd9551bd808105b1b1bddd959604a1b6044820152606401610540565b60008281526004602052604090205415610b1a57600082815260046020908152604080832054338452600383528184208685529092529091205410610aee5760405162461bcd60e51b815260206004820152601560248201527414995858da1959081b5a5b9d1a5b99c81b1a5b5a5d605a1b6044820152606401610540565b3360009081526003602090815260408083208584529091528120805491610b14836124b1565b91905055505b604051630d4d151360e01b81526001600160a01b038481166004830152602482018490523360448301527f00000000000000000000000000000000000000000000000000000000000000001690630d4d151390606401602060405180830381600087803b158015610b8a57600080fd5b505af1158015610b9e573d6000803e3d6000fd5b505050506040513d601f19601f82011682018060405250810190610bc291906124cc565b60008381526006602052604090205490915015801590610c075750600082815260066020526040902054610bf8906001906124e5565b610c05620f424083612512565b145b15610c26576000828152600560205260409020805460ff191660011790555b6000828152600a60205260409020546001600160a01b031615610e95573415610cb75760405162461bcd60e51b815260206004820152603f60248201527f746869732070726f6a6563742061636365707473206120646966666572656e7460448201527f2063757272656e637920616e642063616e6e6f742061636365707420455448006064820152608401610540565b600082815260076020908152604080832054600a90925291829020549151636eb1769f60e11b815233600482015230602482015290916001600160a01b03169063dd62ed3e9060440160206040518083038186803b158015610d1857600080fd5b505afa158015610d2c573d6000803e3d6000fd5b505050506040513d601f19601f82011682018060405250810190610d5091906124cc565b1015610da95760405162461bcd60e51b815260206004820152602260248201527f496e73756666696369656e742046756e647320417070726f76656420666f72206044820152610a8b60f31b6064820152608401610540565b600082815260076020908152604080832054600a909252918290205491516370a0823160e01b815290916001600160a01b0316906370a0823190610df190339060040161213c565b60206040518083038186803b158015610e0957600080fd5b505afa158015610e1d573d6000803e3d6000fd5b505050506040513d601f19601f82011682018060405250810190610e4191906124cc565b1015610e875760405162461bcd60e51b815260206004820152601560248201527424b739bab33334b1b4b2b73a103130b630b731b29760591b6044820152606401610540565b610e908261145a565b610efc565b600082815260076020526040902054341015610ef35760405162461bcd60e51b815260206004820181905260248201527f4d7573742073656e64206d696e696d756d2076616c756520746f206d696e74216044820152606401610540565b610efc82611a1b565b600160005592915050565b6000818152600a60205260408082205490516370a0823160e01b81526001600160a01b03909116906370a0823190610f4390339060040161213c565b60206040518083038186803b158015610f5b57600080fd5b505afa158015610f6f573d6000803e3d6000fd5b505050506040513d601f19601f82011682018060405250810190610f9391906124cc565b92915050565b604051633af32abf60e01b81526001600160a01b037f00000000000000000000000000000000000000000000000000000000000000001690633af32abf90610fe590339060040161213c565b60206040518083038186803b158015610ffd57600080fd5b505afa158015611011573d6000803e3d6000fd5b505050506040513d601f19601f8201168201806040525081019061103591906123d4565b6110515760405162461bcd60e51b8152600401610540906123ef565b6000908152600160205260409020805460ff19811660ff90911615179055565b60405163a47d29cb60e01b81526004810184905283907f00000000000000000000000000000000000000000000000000000000000000006001600160a01b03169063a47d29cb9060240160206040518083038186803b1580156110d357600080fd5b505afa1580156110e7573d6000803e3d6000fd5b505050506040513d601f19601f8201168201806040525081019061110b919061241e565b6001600160a01b0316336001600160a01b03161461113b5760405162461bcd60e51b81526004016105409061243b565b6040516208aa8960eb1b60208201526001600160a01b038316159060230160405160208183030381529060405280519060200120846040516020016111809190612526565b60405160208183030381529060405280519060200120141515146111e15760405162461bcd60e51b8152602060048201526018602482015277455448206973206f6e6c79206e756c6c206164647265737360401b6044820152606401610540565b60008481526009602090815260409091208451611200928601906120a3565b506000848152600a60205260409081902080546001600160a01b0319166001600160a01b038516908117909155905161123a908590612526565b6040519081900381209086907f45db4ba77cdcb65bc1296f936b16fa61081a51fd8dd464ff4b014f47083c72ed90600090a450505050565b6000610f933383610892565b6000818152600a6020526040808220549051636eb1769f60e11b81523360048201523060248201526001600160a01b039091169063dd62ed3e90604401610f43565b604051633af32abf60e01b81526001600160a01b037f00000000000000000000000000000000000000000000000000000000000000001690633af32abf9061130c90339060040161213c565b60206040518083038186803b15801561132457600080fd5b505afa158015611338573d6000803e3d6000fd5b505050506040513d601f19601f8201168201806040525081019061135c91906123d4565b6113785760405162461bcd60e51b8152600401610540906123ef565b6040516346161b1160e11b81526004810182905260009081906001600160a01b037f00000000000000000000000000000000000000000000000000000000000000001690638c2c36229060240160006040518083038186803b1580156113dd57600080fd5b505afa1580156113f1573d6000803e3d6000fd5b505050506040513d6000823e601f3d908101601f19168201604052611419919081019061254d565b505050600089815260066020526040902083905550919550935050505080821015611455576000838152600560205260409020805460ff191690555b505050565b60006007600083815260200190815260200160002054905060007f00000000000000000000000000000000000000000000000000000000000000006001600160a01b0316634f029c396040518163ffffffff1660e01b815260040160206040518083038186803b1580156114cd57600080fd5b505afa1580156114e1573d6000803e3d6000fd5b505050506040513d601f19601f8201168201806040525081019061150591906124cc565b611510606484612636565b61151a919061264a565b90508015611647576000838152600a6020908152604091829020548251631ca4fc8360e11b815292516001600160a01b03918216936323b872dd9333937f00000000000000000000000000000000000000000000000000000000000000001692633949f906926004808201939291829003018186803b15801561159c57600080fd5b505afa1580156115b0573d6000803e3d6000fd5b505050506040513d601f19601f820116820180604052508101906115d4919061241e565b846040518463ffffffff1660e01b81526004016115f393929190612669565b602060405180830381600087803b15801561160d57600080fd5b505af1158015611621573d6000803e3d6000fd5b505050506040513d601f19601f8201168201806040525081019061164591906123d4565b505b600061165382846124e5565b90506000807f00000000000000000000000000000000000000000000000000000000000000006001600160a01b031663cc74234b876040518263ffffffff1660e01b81526004016116a691815260200190565b60206040518083038186803b1580156116be57600080fd5b505afa1580156116d2573d6000803e3d6000fd5b505050506040513d601f19601f820116820180604052508101906116f691906124cc565b11156118d85760405163cc74234b60e01b8152600481018690527f00000000000000000000000000000000000000000000000000000000000000006001600160a01b03169063cc74234b9060240160206040518083038186803b15801561175c57600080fd5b505afa158015611770573d6000803e3d6000fd5b505050506040513d601f19601f8201168201806040525081019061179491906124cc565b61179f606484612636565b6117a9919061264a565b905080156118d8576000858152600a602052604090819020549051636bd8225b60e11b8152600481018790526001600160a01b03918216916323b872dd9133917f0000000000000000000000000000000000000000000000000000000000000000169063d7b044b69060240160206040518083038186803b15801561182d57600080fd5b505afa158015611841573d6000803e3d6000fd5b505050506040513d601f19601f82011682018060405250810190611865919061241e565b846040518463ffffffff1660e01b815260040161188493929190612669565b602060405180830381600087803b15801561189e57600080fd5b505af11580156118b2573d6000803e3d6000fd5b505050506040513d601f19601f820116820180604052508101906118d691906123d4565b505b60006118e482846124e5565b90508015611a13576000868152600a60205260409081902054905163a47d29cb60e01b8152600481018890526001600160a01b03918216916323b872dd9133917f0000000000000000000000000000000000000000000000000000000000000000169063a47d29cb9060240160206040518083038186803b15801561196857600080fd5b505afa15801561197c573d6000803e3d6000fd5b505050506040513d601f19601f820116820180604052508101906119a0919061241e565b846040518463ffffffff1660e01b81526004016119bf93929190612669565b602060405180830381600087803b1580156119d957600080fd5b505af11580156119ed573d6000803e3d6000fd5b505050506040513d601f19601f82011682018060405250810190611a1191906123d4565b505b505050505050565b34156120a05760008181526007602052604081205490611a3b82346124e5565b90508015611acd57604051600090339083908381818185875af1925050503d8060008114611a85576040519150601f19603f3d011682016040523d82523d6000602084013e611a8a565b606091505b5050905080611acb5760405162461bcd60e51b815260206004820152600d60248201526c1499599d5b990819985a5b1959609a1b6044820152606401610540565b505b60007f00000000000000000000000000000000000000000000000000000000000000006001600160a01b0316634f029c396040518163ffffffff1660e01b815260040160206040518083038186803b158015611b2857600080fd5b505afa158015611b3c573d6000803e3d6000fd5b505050506040513d601f19601f82011682018060405250810190611b6091906124cc565b611b6b606485612636565b611b75919061264a565b90508015611cae5760007f00000000000000000000000000000000000000000000000000000000000000006001600160a01b0316633949f9066040518163ffffffff1660e01b815260040160206040518083038186803b158015611bd857600080fd5b505afa158015611bec573d6000803e3d6000fd5b505050506040513d601f19601f82011682018060405250810190611c10919061241e565b6001600160a01b03168260405160006040518083038185875af1925050503d8060008114611c5a576040519150601f19603f3d011682016040523d82523d6000602084013e611c5f565b606091505b5050905080611cac5760405162461bcd60e51b8152602060048201526019602482015278119bdd5b99185d1a5bdb881c185e5b595b9d0819985a5b1959603a1b6044820152606401610540565b505b6000611cba82856124e5565b90506000807f00000000000000000000000000000000000000000000000000000000000000006001600160a01b031663cc74234b886040518263ffffffff1660e01b8152600401611d0d91815260200190565b60206040518083038186803b158015611d2557600080fd5b505afa158015611d39573d6000803e3d6000fd5b505050506040513d601f19601f82011682018060405250810190611d5d91906124cc565b1115611f515760405163cc74234b60e01b8152600481018790527f00000000000000000000000000000000000000000000000000000000000000006001600160a01b03169063cc74234b9060240160206040518083038186803b158015611dc357600080fd5b505afa158015611dd7573d6000803e3d6000fd5b505050506040513d601f19601f82011682018060405250810190611dfb91906124cc565b611e06606484612636565b611e10919061264a565b90508015611f5157604051636bd8225b60e11b8152600481018790526000907f00000000000000000000000000000000000000000000000000000000000000006001600160a01b03169063d7b044b69060240160206040518083038186803b158015611e7b57600080fd5b505afa158015611e8f573d6000803e3d6000fd5b505050506040513d601f19601f82011682018060405250810190611eb3919061241e565b6001600160a01b03168260405160006040518083038185875af1925050503d8060008114611efd576040519150601f19603f3d011682016040523d82523d6000602084013e611f02565b606091505b5050905080611f4f5760405162461bcd60e51b81526020600482015260196024820152781059191a5d1a5bdb985b081c185e5b595b9d0819985a5b1959603a1b6044820152606401610540565b505b6000611f5d82846124e5565b90508015611a115760405163a47d29cb60e01b8152600481018890526000907f00000000000000000000000000000000000000000000000000000000000000006001600160a01b03169063a47d29cb9060240160206040518083038186803b158015611fc857600080fd5b505afa158015611fdc573d6000803e3d6000fd5b505050506040513d601f19601f82011682018060405250810190612000919061241e565b6001600160a01b03168260405160006040518083038185875af1925050503d806000811461204a576040519150601f19603f3d011682016040523d82523d6000602084013e61204f565b606091505b50509050806120985760405162461bcd60e51b8152602060048201526015602482015274105c9d1a5cdd081c185e5b595b9d0819985a5b1959605a1b6044820152606401610540565b505050505050505b50565b8280546120af90612460565b90600052602060002090601f0160209004810192826120d15760008555612117565b82601f106120ea57805160ff1916838001178555612117565b82800160010185558215612117579182015b828111156121175782518255916020019190600101906120fc565b50612123929150612127565b5090565b5b808211156121235760008155600101612128565b6001600160a01b0391909116815260200190565b6000806040838503121561216357600080fd5b82359150602083013560ff8116811461217b57600080fd5b809150509250929050565b6001600160a01b03811681146120a057600080fd5b600080604083850312156121ae57600080fd5b82356121b981612186565b946020939093013593505050565b6000602082840312156121d957600080fd5b5035919050565b600080604083850312156121f357600080fd5b50508035926020909101359150565b60005b8381101561221d578181015183820152602001612205565b8381111561222c576000848401525b50505050565b6000815180845261224a816020860160208601612202565b601f01601f19169290920160200192915050565b841515815283602082015260806040820152600061227f6080830185612232565b905060018060a01b038316606083015295945050505050565b634e487b7160e01b600052604160045260246000fd5b604051601f8201601f1916810167ffffffffffffffff811182821017156122d7576122d7612298565b604052919050565b600067ffffffffffffffff8211156122f9576122f9612298565b50601f01601f191660200190565b60008060006060848603121561231c57600080fd5b83359250602084013567ffffffffffffffff81111561233a57600080fd5b8401601f8101861361234b57600080fd5b803561235e612359826122df565b6122ae565b81815287602083850101111561237357600080fd5b81602084016020830137600060208383010152809450505050604084013561239a81612186565b809150509250925092565b6020815260006123b86020830184612232565b9392505050565b805180151581146123cf57600080fd5b919050565b6000602082840312156123e657600080fd5b6123b8826123bf565b60208082526015908201527413db9b1e4810dbdc99481dda1a5d195b1a5cdd1959605a1b604082015260600190565b60006020828403121561243057600080fd5b81516123b881612186565b6020808252600b908201526a13db9b1e48105c9d1a5cdd60aa1b604082015260600190565b600181811c9082168061247457607f821691505b6020821081141561249557634e487b7160e01b600052602260045260246000fd5b50919050565b634e487b7160e01b600052601160045260246000fd5b60006000198214156124c5576124c561249b565b5060010190565b6000602082840312156124de57600080fd5b5051919050565b6000828210156124f7576124f761249b565b500390565b634e487b7160e01b600052601260045260246000fd5b600082612521576125216124fc565b500690565b60008251612538818460208701612202565b9190910192915050565b80516123cf81612186565b60008060008060008060008060006101208a8c03121561256c57600080fd5b895161257781612186565b8099505060208a0151975060408a0151965060608a0151955061259c60808b016123bf565b945060a08a01516125ac81612186565b60c08b015160e08c0151919550935067ffffffffffffffff8111156125d057600080fd5b8a01601f81018c136125e157600080fd5b80516125ef612359826122df565b8181528d602083850101111561260457600080fd5b612615826020830160208601612202565b93506126279150506101008b01612542565b90509295985092959850929598565b600082612645576126456124fc565b500490565b60008160001904831182151516156126645761266461249b565b500290565b6001600160a01b03938416815291909216602082015260408101919091526060019056fea2646970667358221220ee336a7d129331ba16cf41451415da8caceff6b134172599547586609a7796bd64736f6c63430008090033",
  "linkReferences": {},
  "deployedLinkReferences": {}
}