{
  "_format": "hh-sol-artifact-1",
  "contractName": "MinterDALinV0",
  "sourceName": "contracts/minter-suite/MinterDALinV0.sol",
  "abi": [
    {
      "inputs": [
        {
          "internalType": "address",
          "name": "_genArt721Address",
          "type": "address"
        },
        {
          "internalType": "address",
          "name": "_minterFilter",
          "type": "address"
        }
      ],
      "stateMutability": "nonpayable",
      "type": "constructor"
    },
    {
      "anonymous": false,
      "inputs": [
        {
          "indexed": false,
          "internalType": "uint256",
          "name": "_minimumAuctionLengthSeconds",
          "type": "uint256"
        }
      ],
      "name": "MinimumAuctionLengthSecondsUpdated",
      "type": "event"
    },
    {
      "anonymous": false,
      "inputs": [
        {
          "indexed": true,
          "internalType": "uint256",
          "name": "_projectId",
          "type": "uint256"
        },
        {
          "indexed": true,
          "internalType": "uint256",
          "name": "_pricePerTokenInWei",
          "type": "uint256"
        }
      ],
      "name": "PricePerTokenInWeiUpdated",
      "type": "event"
    },
    {
      "anonymous": false,
      "inputs": [
        {
          "indexed": true,
          "internalType": "uint256",
          "name": "_projectId",
          "type": "uint256"
        },
        {
          "indexed": true,
          "internalType": "address",
          "name": "_currencyAddress",
          "type": "address"
        },
        {
          "indexed": false,
          "internalType": "string",
          "name": "_currencySymbol",
          "type": "string"
        }
      ],
      "name": "ProjectCurrencyInfoUpdated",
      "type": "event"
    },
    {
      "anonymous": false,
      "inputs": [
        {
          "indexed": true,
          "internalType": "uint256",
          "name": "_projectId",
          "type": "uint256"
        },
        {
          "indexed": false,
          "internalType": "bool",
          "name": "_purchaseToDisabled",
          "type": "bool"
        }
      ],
      "name": "PurchaseToDisabledUpdated",
      "type": "event"
    },
    {
      "anonymous": false,
      "inputs": [
        {
          "indexed": true,
          "internalType": "uint256",
          "name": "projectId",
          "type": "uint256"
        }
      ],
      "name": "ResetAuctionDetails",
      "type": "event"
    },
    {
      "anonymous": false,
      "inputs": [
        {
          "indexed": true,
          "internalType": "uint256",
          "name": "projectId",
          "type": "uint256"
        },
        {
          "indexed": false,
          "internalType": "uint256",
          "name": "_auctionTimestampStart",
          "type": "uint256"
        },
        {
          "indexed": false,
          "internalType": "uint256",
          "name": "_auctionTimestampEnd",
          "type": "uint256"
        },
        {
          "indexed": false,
          "internalType": "uint256",
          "name": "_startPrice",
          "type": "uint256"
        },
        {
          "indexed": false,
          "internalType": "uint256",
          "name": "_basePrice",
          "type": "uint256"
        }
      ],
      "name": "SetAuctionDetails",
      "type": "event"
    },
    {
      "inputs": [
        {
          "internalType": "uint256",
          "name": "",
          "type": "uint256"
        }
      ],
      "name": "contractMintable",
      "outputs": [
        {
          "internalType": "bool",
          "name": "",
          "type": "bool"
        }
      ],
      "stateMutability": "view",
      "type": "function"
    },
    {
      "inputs": [],
      "name": "genArt721CoreAddress",
      "outputs": [
        {
          "internalType": "address",
          "name": "",
          "type": "address"
        }
      ],
      "stateMutability": "view",
      "type": "function"
    },
    {
      "inputs": [
        {
          "internalType": "uint256",
          "name": "_projectId",
          "type": "uint256"
        }
      ],
      "name": "getPriceInfo",
      "outputs": [
        {
          "internalType": "bool",
          "name": "isConfigured",
          "type": "bool"
        },
        {
          "internalType": "uint256",
          "name": "tokenPriceInWei",
          "type": "uint256"
        },
        {
          "internalType": "string",
          "name": "currencySymbol",
          "type": "string"
        },
        {
          "internalType": "address",
          "name": "currencyAddress",
          "type": "address"
        }
      ],
      "stateMutability": "view",
      "type": "function"
    },
    {
      "inputs": [],
      "name": "minimumAuctionLengthSeconds",
      "outputs": [
        {
          "internalType": "uint256",
          "name": "",
          "type": "uint256"
        }
      ],
      "stateMutability": "view",
      "type": "function"
    },
    {
      "inputs": [],
      "name": "minterFilterAddress",
      "outputs": [
        {
          "internalType": "address",
          "name": "",
          "type": "address"
        }
      ],
      "stateMutability": "view",
      "type": "function"
    },
    {
      "inputs": [],
      "name": "minterType",
      "outputs": [
        {
          "internalType": "string",
          "name": "",
          "type": "string"
        }
      ],
      "stateMutability": "view",
      "type": "function"
    },
    {
      "inputs": [
        {
          "internalType": "uint256",
          "name": "",
          "type": "uint256"
        }
      ],
      "name": "projectAuctionParameters",
      "outputs": [
        {
          "internalType": "uint256",
          "name": "timestampStart",
          "type": "uint256"
        },
        {
          "internalType": "uint256",
          "name": "timestampEnd",
          "type": "uint256"
        },
        {
          "internalType": "uint256",
          "name": "startPrice",
          "type": "uint256"
        },
        {
          "internalType": "uint256",
          "name": "basePrice",
          "type": "uint256"
        }
      ],
      "stateMutability": "view",
      "type": "function"
    },
    {
      "inputs": [
        {
          "internalType": "uint256",
          "name": "",
          "type": "uint256"
        }
      ],
      "name": "projectMaxHasBeenInvoked",
      "outputs": [
        {
          "internalType": "bool",
          "name": "",
          "type": "bool"
        }
      ],
      "stateMutability": "view",
      "type": "function"
    },
    {
      "inputs": [
        {
          "internalType": "uint256",
          "name": "",
          "type": "uint256"
        }
      ],
      "name": "projectMaxInvocations",
      "outputs": [
        {
          "internalType": "uint256",
          "name": "",
          "type": "uint256"
        }
      ],
      "stateMutability": "view",
      "type": "function"
    },
    {
      "inputs": [
        {
          "internalType": "address",
          "name": "",
          "type": "address"
        },
        {
          "internalType": "uint256",
          "name": "",
          "type": "uint256"
        }
      ],
      "name": "projectMintCounter",
      "outputs": [
        {
          "internalType": "uint256",
          "name": "",
          "type": "uint256"
        }
      ],
      "stateMutability": "view",
      "type": "function"
    },
    {
      "inputs": [
        {
          "internalType": "uint256",
          "name": "",
          "type": "uint256"
        }
      ],
      "name": "projectMintLimit",
      "outputs": [
        {
          "internalType": "uint256",
          "name": "",
          "type": "uint256"
        }
      ],
      "stateMutability": "view",
      "type": "function"
    },
    {
      "inputs": [
        {
          "internalType": "uint256",
          "name": "_projectId",
          "type": "uint256"
        }
      ],
      "name": "purchase",
      "outputs": [
        {
          "internalType": "uint256",
          "name": "tokenId",
          "type": "uint256"
        }
      ],
      "stateMutability": "payable",
      "type": "function"
    },
    {
      "inputs": [
        {
          "internalType": "address",
          "name": "_to",
          "type": "address"
        },
        {
          "internalType": "uint256",
          "name": "_projectId",
          "type": "uint256"
        }
      ],
      "name": "purchaseTo",
      "outputs": [
        {
          "internalType": "uint256",
          "name": "tokenId",
          "type": "uint256"
        }
      ],
      "stateMutability": "payable",
      "type": "function"
    },
    {
      "inputs": [
        {
          "internalType": "uint256",
          "name": "",
          "type": "uint256"
        }
      ],
      "name": "purchaseToDisabled",
      "outputs": [
        {
          "internalType": "bool",
          "name": "",
          "type": "bool"
        }
      ],
      "stateMutability": "view",
      "type": "function"
    },
    {
      "inputs": [
        {
          "internalType": "uint256",
          "name": "_projectId",
          "type": "uint256"
        }
      ],
      "name": "resetAuctionDetails",
      "outputs": [],
      "stateMutability": "nonpayable",
      "type": "function"
    },
    {
      "inputs": [
        {
          "internalType": "uint256",
          "name": "_projectId",
          "type": "uint256"
        },
        {
          "internalType": "uint256",
          "name": "_auctionTimestampStart",
          "type": "uint256"
        },
        {
          "internalType": "uint256",
          "name": "_auctionTimestampEnd",
          "type": "uint256"
        },
        {
          "internalType": "uint256",
          "name": "_startPrice",
          "type": "uint256"
        },
        {
          "internalType": "uint256",
          "name": "_basePrice",
          "type": "uint256"
        }
      ],
      "name": "setAuctionDetails",
      "outputs": [],
      "stateMutability": "nonpayable",
      "type": "function"
    },
    {
      "inputs": [
        {
          "internalType": "uint256",
          "name": "_minimumAuctionLengthSeconds",
          "type": "uint256"
        }
      ],
      "name": "setMinimumAuctionLengthSeconds",
      "outputs": [],
      "stateMutability": "nonpayable",
      "type": "function"
    },
    {
      "inputs": [
        {
          "internalType": "uint256",
          "name": "_projectId",
          "type": "uint256"
        }
      ],
      "name": "setProjectMaxInvocations",
      "outputs": [],
      "stateMutability": "nonpayable",
      "type": "function"
    },
    {
      "inputs": [
        {
          "internalType": "uint256",
          "name": "_projectId",
          "type": "uint256"
        },
        {
          "internalType": "uint8",
          "name": "_limit",
          "type": "uint8"
        }
      ],
      "name": "setProjectMintLimit",
      "outputs": [],
      "stateMutability": "nonpayable",
      "type": "function"
    },
    {
      "inputs": [
        {
          "internalType": "uint256",
          "name": "_projectId",
          "type": "uint256"
        }
      ],
      "name": "toggleContractMintable",
      "outputs": [],
      "stateMutability": "nonpayable",
      "type": "function"
    },
    {
      "inputs": [
        {
          "internalType": "uint256",
          "name": "_projectId",
          "type": "uint256"
        }
      ],
      "name": "togglePurchaseToDisabled",
      "outputs": [],
      "stateMutability": "nonpayable",
      "type": "function"
    }
  ],
  "bytecode": "0x610100604052610e106007553480156200001857600080fd5b50604051620021e3380380620021e38339810160408190526200003b916200015d565b600160009081556001600160a01b03808416608081905260a081905290831660c081905260e0819052604080516392a10f8360e01b81529051929391926392a10f8392600480840193602093929083900390910190829087803b158015620000a257600080fd5b505af1158015620000b7573d6000803e3d6000fd5b505050506040513d601f19601f82011682018060405250810190620000dd919062000195565b6001600160a01b031614620001385760405162461bcd60e51b815260206004820152601860248201527f496c6c6567616c20636f6e74726163742070616972696e670000000000000000604482015260640160405180910390fd5b5050620001ba565b80516001600160a01b03811681146200015857600080fd5b919050565b600080604083850312156200017157600080fd5b6200017c8362000140565b91506200018c6020840162000140565b90509250929050565b600060208284031215620001a857600080fd5b620001b38262000140565b9392505050565b60805160a05160c05160e051611f946200024f6000396000610c29015260006104440152600081816104f6015281816105cf015281816106d6015281816107c901528181610d3601528181610e0f015281816111dd015281816112a10152818161156501528181611614015281816117540152818161180f015281816118c60152611a130152600061034d0152611f946000f3fe60806040526004361061012a5760003560e01c8063891407c0116100ab578063cd379f6e1161006f578063cd379f6e146103e2578063cfff5cf114610402578063dd85582f14610432578063e9d1e8ac14610466578063efef39a1146104ac578063f7bd4b88146104bf57600080fd5b8063891407c01461032857806392a10f831461033b578063acffea051461037c578063b2d30ac71461039c578063bee56003146103b257600080fd5b806340d1397e116100f257806340d1397e1461023e578063462add461461025e57806356690aaf1461029e57806362f7a7ed146102cb578063774159c6146102f857600080fd5b8063231c22811461012f5780632aedc28e146101515780632f077ee6146101715780632fc37ef1146101d85780633a4657b4146101f8575b600080fd5b34801561013b57600080fd5b5061014f61014a366004611b39565b6104df565b005b34801561015d57600080fd5b5061014f61016c366004611b6f565b6105b8565b34801561017d57600080fd5b506101b361018c366004611b6f565b60086020526000908152604090208054600182015460028301546003909301549192909184565b6040805194855260208501939093529183015260608201526080015b60405180910390f35b3480156101e457600080fd5b5061014f6101f3366004611b6f565b6106bf565b34801561020457600080fd5b50610230610213366004611ba0565b600360209081526000928352604080842090915290825290205481565b6040519081526020016101cf565b34801561024a57600080fd5b5061014f610259366004611b6f565b6107b2565b34801561026a57600080fd5b5061028e610279366004611b6f565b60056020526000908152604090205460ff1681565b60405190151581526020016101cf565b3480156102aa57600080fd5b506102306102b9366004611b6f565b60066020526000908152604090205481565b3480156102d757600080fd5b506102306102e6366004611b6f565b60046020526000908152604090205481565b34801561030457600080fd5b50610318610313366004611b6f565b6108c7565b6040516101cf9493929190611c28565b610230610336366004611ba0565b61096d565b34801561034757600080fd5b5061036f7f000000000000000000000000000000000000000000000000000000000000000081565b6040516101cf9190611c62565b34801561038857600080fd5b5061014f610397366004611b6f565b610d1f565b3480156103a857600080fd5b5061023060075481565b3480156103be57600080fd5b5061028e6103cd366004611b6f565b60016020526000908152604090205460ff1681565b3480156103ee57600080fd5b5061014f6103fd366004611c76565b610df7565b34801561040e57600080fd5b5061028e61041d366004611b6f565b60026020526000908152604090205460ff1681565b34801561043e57600080fd5b5061036f7f000000000000000000000000000000000000000000000000000000000000000081565b34801561047257600080fd5b5061049f6040518060400160405280600d81526020016c04d696e74657244414c696e563609c1b81525081565b6040516101cf9190611cb1565b6102306104ba366004611b6f565b6111b4565b3480156104cb57600080fd5b5061014f6104da366004611b6f565b6111c6565b604051633af32abf60e01b81526001600160a01b037f00000000000000000000000000000000000000000000000000000000000000001690633af32abf9061052b903390600401611c62565b60206040518083038186803b15801561054357600080fd5b505afa158015610557573d6000803e3d6000fd5b505050506040513d601f19601f8201168201806040525081019061057b9190611ce0565b6105a05760405162461bcd60e51b815260040161059790611cfb565b60405180910390fd5b60009182526004602052604090912060ff9091169055565b604051633af32abf60e01b81526001600160a01b037f00000000000000000000000000000000000000000000000000000000000000001690633af32abf90610604903390600401611c62565b60206040518083038186803b15801561061c57600080fd5b505afa158015610630573d6000803e3d6000fd5b505050506040513d601f19601f820116820180604052508101906106549190611ce0565b6106705760405162461bcd60e51b815260040161059790611cfb565b60008181526008602052604080822082815560018101839055600281018390556003018290555182917f2de6b284414d2e6b72bcc8d8d4de934e3f6410660a8f677c5c978f17f9cc2a9291a250565b604051633af32abf60e01b81526001600160a01b037f00000000000000000000000000000000000000000000000000000000000000001690633af32abf9061070b903390600401611c62565b60206040518083038186803b15801561072357600080fd5b505afa158015610737573d6000803e3d6000fd5b505050506040513d601f19601f8201168201806040525081019061075b9190611ce0565b6107775760405162461bcd60e51b815260040161059790611cfb565b60078190556040518181527f03c81e81b0ed0ca5444a9d70c9f3d1c78d79d6a31419f77736e886d092ed1a9e9060200160405180910390a150565b604051633af32abf60e01b81526001600160a01b037f00000000000000000000000000000000000000000000000000000000000000001690633af32abf906107fe903390600401611c62565b60206040518083038186803b15801561081657600080fd5b505afa15801561082a573d6000803e3d6000fd5b505050506040513d601f19601f8201168201806040525081019061084e9190611ce0565b61086a5760405162461bcd60e51b815260040161059790611cfb565b600081815260026020908152604091829020805460ff8082161560ff199092168217909255925192161515825282917fce8ced1e9d6979c7589d3c8786f4d51a8034faa5ff2cbc5a2271364f787feccb910160405180910390a250565b6000818152600860209081526040808320815160808101835281548082526001830154948201949094526002820154928101839052600390910154606082810191909152911515939283919042116109255780604001519350610943565b60208101516109375760009350610943565b61094086611360565b93505b6040518060400160405280600381526020016208aa8960eb1b815250925060009150509193509193565b6000600260005414156109c25760405162461bcd60e51b815260206004820152601f60248201527f5265656e7472616e637947756172643a207265656e7472616e742063616c6c006044820152606401610597565b600260009081558281526005602052604090205460ff1615610a345760405162461bcd60e51b815260206004820152602560248201527f4d6178696d756d206e756d626572206f6620696e766f636174696f6e732072656044820152641858da195960da1b6064820152608401610597565b60008281526001602052604090205460ff16610a8c57333214610a8c5760405162461bcd60e51b815260206004820152601060248201526f4e6f20436f6e7472616374204275797360801b6044820152606401610597565b60008281526002602052604090205460ff1615610af557336001600160a01b03841614610af55760405162461bcd60e51b8152602060048201526017602482015276139bc8181c1d5c98da185cd9551bd808105b1b1bddd959604a1b6044820152606401610597565b6000610b0083611360565b905080341015610b525760405162461bcd60e51b815260206004820181905260248201527f4d7573742073656e64206d696e696d756d2076616c756520746f206d696e74216044820152606401610597565b60008381526004602052604090205415610bfd57600083815260046020908152604080832054338452600383528184208785529092529091205410610bd15760405162461bcd60e51b815260206004820152601560248201527414995858da1959081b5a5b9d1a5b99c81b1a5b5a5d605a1b6044820152606401610597565b3360009081526003602090815260408083208684529091528120805491610bf783611d40565b91905055505b604051630d4d151360e01b81526001600160a01b038581166004830152602482018590523360448301527f00000000000000000000000000000000000000000000000000000000000000001690630d4d151390606401602060405180830381600087803b158015610c6d57600080fd5b505af1158015610c81573d6000803e3d6000fd5b505050506040513d601f19601f82011682018060405250810190610ca59190611d5b565b60008481526006602052604090205490925015801590610cea5750600083815260066020526040902054610cdb90600190611d74565b610ce8620f424084611da1565b145b15610d09576000838152600560205260409020805460ff191660011790555b610d1383826114bb565b50600160005592915050565b604051633af32abf60e01b81526001600160a01b037f00000000000000000000000000000000000000000000000000000000000000001690633af32abf90610d6b903390600401611c62565b60206040518083038186803b158015610d8357600080fd5b505afa158015610d97573d6000803e3d6000fd5b505050506040513d601f19601f82011682018060405250810190610dbb9190611ce0565b610dd75760405162461bcd60e51b815260040161059790611cfb565b6000908152600160205260409020805460ff19811660ff90911615179055565b60405163a47d29cb60e01b81526004810186905285907f00000000000000000000000000000000000000000000000000000000000000006001600160a01b03169063a47d29cb9060240160206040518083038186803b158015610e5957600080fd5b505afa158015610e6d573d6000803e3d6000fd5b505050506040513d601f19601f82011682018060405250810190610e919190611db5565b6001600160a01b0316336001600160a01b031614610edf5760405162461bcd60e51b815260206004820152600b60248201526a13db9b1e48105c9d1a5cdd60aa1b6044820152606401610597565b600086815260086020908152604091829020825160808101845281548082526001830154938201939093526002820154938101939093526003015460608301521580610f2b5750805142105b610f775760405162461bcd60e51b815260206004820152601c60248201527f4e6f206d6f64696669636174696f6e73206d69642d61756374696f6e000000006044820152606401610597565b854210610fbd5760405162461bcd60e51b81526020600482015260146024820152734f6e6c79206675747572652061756374696f6e7360601b6044820152606401610597565b8585116110235760405162461bcd60e51b815260206004820152602e60248201527f41756374696f6e20656e64206d7573742062652067726561746572207468616e60448201526d08185d58dd1a5bdb881cdd185c9d60921b6064820152608401610597565b6007546110309087611dd2565b8510156110a55760405162461bcd60e51b815260206004820152603b60248201527f41756374696f6e206c656e677468206d757374206265206174206c656173742060448201527f6d696e696d756d41756374696f6e4c656e6774685365636f6e647300000000006064820152608401610597565b82841161111a5760405162461bcd60e51b815260206004820152603a60248201527f41756374696f6e207374617274207072696365206d757374206265206772656160448201527f746572207468616e2061756374696f6e20656e642070726963650000000000006064820152608401610597565b6040805160808082018352888252602080830189815283850189815260608086018a815260008f815260088652889020965187559251600187015590516002860155905160039094019390935583518a815290810189905292830187905290820185905288917f38b3058b75696f9e45bffa9c4b237adcde13d74c7bc1bea63e13c712d0776c74910160405180910390a250505050505050565b60006111c0338361096d565b92915050565b604051633af32abf60e01b81526001600160a01b037f00000000000000000000000000000000000000000000000000000000000000001690633af32abf90611212903390600401611c62565b60206040518083038186803b15801561122a57600080fd5b505afa15801561123e573d6000803e3d6000fd5b505050506040513d601f19601f820116820180604052508101906112629190611ce0565b61127e5760405162461bcd60e51b815260040161059790611cfb565b6040516346161b1160e11b81526004810182905260009081906001600160a01b037f00000000000000000000000000000000000000000000000000000000000000001690638c2c36229060240160006040518083038186803b1580156112e357600080fd5b505afa1580156112f7573d6000803e3d6000fd5b505050506040513d6000823e601f3d908101601f1916820160405261131f9190810190611e0b565b50505060008981526006602052604090208390555091955093505050508082101561135b576000838152600560205260409020805460ff191690555b505050565b6000818152600860209081526040808320815160808101835281548082526001830154948201949094526002820154928101929092526003015460608201529042116113e85760405162461bcd60e51b8152602060048201526017602482015276105d58dd1a5bdb881b9bdd081e595d081cdd185c9d1959604a1b6044820152606401610597565b8060200151421061144c5760008160200151116114425760405162461bcd60e51b81526020600482015260186024820152774f6e6c7920636f6e666967757265642061756374696f6e7360401b6044820152606401610597565b6060015192915050565b805160009061145b9042611d74565b90506000826000015183602001516114739190611d74565b905060008360600151846040015161148b9190611d74565b9050816114988285611f2b565b6114a29190611f4a565b84604001516114b19190611d74565b9695505050505050565b3415611b355760006114cd8234611d74565b9050801561155f57604051600090339083908381818185875af1925050503d8060008114611517576040519150601f19603f3d011682016040523d82523d6000602084013e61151c565b606091505b505090508061155d5760405162461bcd60e51b815260206004820152600d60248201526c1499599d5b990819985a5b1959609a1b6044820152606401610597565b505b600060647f00000000000000000000000000000000000000000000000000000000000000006001600160a01b0316634f029c396040518163ffffffff1660e01b815260040160206040518083038186803b1580156115bc57600080fd5b505afa1580156115d0573d6000803e3d6000fd5b505050506040513d601f19601f820116820180604052508101906115f49190611d5b565b6115fe9085611f2b565b6116089190611f4a565b905080156117415760007f00000000000000000000000000000000000000000000000000000000000000006001600160a01b0316633949f9066040518163ffffffff1660e01b815260040160206040518083038186803b15801561166b57600080fd5b505afa15801561167f573d6000803e3d6000fd5b505050506040513d601f19601f820116820180604052508101906116a39190611db5565b6001600160a01b03168260405160006040518083038185875af1925050503d80600081146116ed576040519150601f19603f3d011682016040523d82523d6000602084013e6116f2565b606091505b505090508061173f5760405162461bcd60e51b8152602060048201526019602482015278119bdd5b99185d1a5bdb881c185e5b595b9d0819985a5b1959603a1b6044820152606401610597565b505b600061174d8285611d74565b90506000807f00000000000000000000000000000000000000000000000000000000000000006001600160a01b031663cc74234b886040518263ffffffff1660e01b81526004016117a091815260200190565b60206040518083038186803b1580156117b857600080fd5b505afa1580156117cc573d6000803e3d6000fd5b505050506040513d601f19601f820116820180604052508101906117f09190611d5b565b11156119e65760405163cc74234b60e01b8152600481018790526064907f00000000000000000000000000000000000000000000000000000000000000006001600160a01b03169063cc74234b9060240160206040518083038186803b15801561185957600080fd5b505afa15801561186d573d6000803e3d6000fd5b505050506040513d601f19601f820116820180604052508101906118919190611d5b565b61189b9084611f2b565b6118a59190611f4a565b905080156119e657604051636bd8225b60e11b8152600481018790526000907f00000000000000000000000000000000000000000000000000000000000000006001600160a01b03169063d7b044b69060240160206040518083038186803b15801561191057600080fd5b505afa158015611924573d6000803e3d6000fd5b505050506040513d601f19601f820116820180604052508101906119489190611db5565b6001600160a01b03168260405160006040518083038185875af1925050503d8060008114611992576040519150601f19603f3d011682016040523d82523d6000602084013e611997565b606091505b50509050806119e45760405162461bcd60e51b81526020600482015260196024820152781059191a5d1a5bdb985b081c185e5b595b9d0819985a5b1959603a1b6044820152606401610597565b505b60006119f28284611d74565b90508015611b2f5760405163a47d29cb60e01b8152600481018890526000907f00000000000000000000000000000000000000000000000000000000000000006001600160a01b03169063a47d29cb9060240160206040518083038186803b158015611a5d57600080fd5b505afa158015611a71573d6000803e3d6000fd5b505050506040513d601f19601f82011682018060405250810190611a959190611db5565b6001600160a01b03168260405160006040518083038185875af1925050503d8060008114611adf576040519150601f19603f3d011682016040523d82523d6000602084013e611ae4565b606091505b5050905080611b2d5760405162461bcd60e51b8152602060048201526015602482015274105c9d1a5cdd081c185e5b595b9d0819985a5b1959605a1b6044820152606401610597565b505b50505050505b5050565b60008060408385031215611b4c57600080fd5b82359150602083013560ff81168114611b6457600080fd5b809150509250929050565b600060208284031215611b8157600080fd5b5035919050565b6001600160a01b0381168114611b9d57600080fd5b50565b60008060408385031215611bb357600080fd5b8235611bbe81611b88565b946020939093013593505050565b60005b83811015611be7578181015183820152602001611bcf565b83811115611bf6576000848401525b50505050565b60008151808452611c14816020860160208601611bcc565b601f01601f19169290920160200192915050565b8415158152836020820152608060408201526000611c496080830185611bfc565b905060018060a01b038316606083015295945050505050565b6001600160a01b0391909116815260200190565b600080600080600060a08688031215611c8e57600080fd5b505083359560208501359550604085013594606081013594506080013592509050565b602081526000611cc46020830184611bfc565b9392505050565b80518015158114611cdb57600080fd5b919050565b600060208284031215611cf257600080fd5b611cc482611ccb565b60208082526015908201527413db9b1e4810dbdc99481dda1a5d195b1a5cdd1959605a1b604082015260600190565b634e487b7160e01b600052601160045260246000fd5b6000600019821415611d5457611d54611d2a565b5060010190565b600060208284031215611d6d57600080fd5b5051919050565b600082821015611d8657611d86611d2a565b500390565b634e487b7160e01b600052601260045260246000fd5b600082611db057611db0611d8b565b500690565b600060208284031215611dc757600080fd5b8151611cc481611b88565b60008219821115611de557611de5611d2a565b500190565b8051611cdb81611b88565b634e487b7160e01b600052604160045260246000fd5b60008060008060008060008060006101208a8c031215611e2a57600080fd5b8951611e3581611b88565b8099505060208a0151975060408a0151965060608a01519550611e5a60808b01611ccb565b945060a08a0151611e6a81611b88565b60c08b015160e08c0151919550935067ffffffffffffffff80821115611e8f57600080fd5b818c0191508c601f830112611ea357600080fd5b815181811115611eb557611eb5611df5565b604051601f8201601f19908116603f01168101908382118183101715611edd57611edd611df5565b816040528281528f6020848701011115611ef657600080fd5b611f07836020830160208801611bcc565b8096505050505050611f1c6101008b01611dea565b90509295985092959850929598565b6000816000190483118215151615611f4557611f45611d2a565b500290565b600082611f5957611f59611d8b565b50049056fea264697066735822122073e2ef4276fe3a89e2e7f5f3d02a7e5ed005629c825c8ed5916ca9c71ed2fc8e64736f6c63430008090033",
  "linkReferences": {},
  "deployedLinkReferences": {}
}