{
  "_format": "hh-sol-artifact-1",
  "contractName": "MinterFilterV0",
  "sourceName": "contracts/minter-suite/MinterFilterV0.sol",
  "abi": [
    {
      "inputs": [
        {
          "internalType": "address",
          "name": "_genArt721Address",
          "type": "address"
        }
      ],
      "stateMutability": "nonpayable",
      "type": "constructor"
    },
    {
      "anonymous": false,
      "inputs": [
        {
          "indexed": true,
          "internalType": "address",
          "name": "_coreContractAddress",
          "type": "address"
        }
      ],
      "name": "IsCanonicalMinterFilter",
      "type": "event"
    },
    {
      "anonymous": false,
      "inputs": [
        {
          "indexed": true,
          "internalType": "address",
          "name": "_minterAddress",
          "type": "address"
        },
        {
          "indexed": false,
          "internalType": "string",
          "name": "_minterType",
          "type": "string"
        }
      ],
      "name": "MinterApproved",
      "type": "event"
    },
    {
      "anonymous": false,
      "inputs": [
        {
          "indexed": true,
          "internalType": "address",
          "name": "_minterAddress",
          "type": "address"
        }
      ],
      "name": "MinterRevoked",
      "type": "event"
    },
    {
      "anonymous": false,
      "inputs": [
        {
          "indexed": true,
          "internalType": "uint256",
          "name": "_projectId",
          "type": "uint256"
        },
        {
          "indexed": true,
          "internalType": "address",
          "name": "_minterAddress",
          "type": "address"
        },
        {
          "indexed": false,
          "internalType": "string",
          "name": "_minterType",
          "type": "string"
        }
      ],
      "name": "ProjectMinterRegistered",
      "type": "event"
    },
    {
      "anonymous": false,
      "inputs": [
        {
          "indexed": true,
          "internalType": "uint256",
          "name": "_projectId",
          "type": "uint256"
        }
      ],
      "name": "ProjectMinterRemoved",
      "type": "event"
    },
    {
      "inputs": [
        {
          "internalType": "address",
          "name": "_minterAddress",
          "type": "address"
        }
      ],
      "name": "addApprovedMinter",
      "outputs": [],
      "stateMutability": "nonpayable",
      "type": "function"
    },
    {
      "inputs": [],
      "name": "alertAsCanonicalMinterFilter",
      "outputs": [],
      "stateMutability": "nonpayable",
      "type": "function"
    },
    {
      "inputs": [],
      "name": "genArt721CoreAddress",
      "outputs": [
        {
          "internalType": "address",
          "name": "",
          "type": "address"
        }
      ],
      "stateMutability": "view",
      "type": "function"
    },
    {
      "inputs": [
        {
          "internalType": "uint256",
          "name": "_projectId",
          "type": "uint256"
        }
      ],
      "name": "getMinterForProject",
      "outputs": [
        {
          "internalType": "address",
          "name": "",
          "type": "address"
        }
      ],
      "stateMutability": "view",
      "type": "function"
    },
    {
      "inputs": [],
      "name": "getNumProjectsWithMinters",
      "outputs": [
        {
          "internalType": "uint256",
          "name": "",
          "type": "uint256"
        }
      ],
      "stateMutability": "view",
      "type": "function"
    },
    {
      "inputs": [
        {
          "internalType": "uint256",
          "name": "_index",
          "type": "uint256"
        }
      ],
      "name": "getProjectAndMinterInfoAt",
      "outputs": [
        {
          "internalType": "uint256",
          "name": "projectId",
          "type": "uint256"
        },
        {
          "internalType": "address",
          "name": "minterAddress",
          "type": "address"
        },
        {
          "internalType": "string",
          "name": "minterType",
          "type": "string"
        }
      ],
      "stateMutability": "view",
      "type": "function"
    },
    {
      "inputs": [
        {
          "internalType": "address",
          "name": "",
          "type": "address"
        }
      ],
      "name": "isApprovedMinter",
      "outputs": [
        {
          "internalType": "bool",
          "name": "",
          "type": "bool"
        }
      ],
      "stateMutability": "view",
      "type": "function"
    },
    {
      "inputs": [
        {
          "internalType": "address",
          "name": "_to",
          "type": "address"
        },
        {
          "internalType": "uint256",
          "name": "_projectId",
          "type": "uint256"
        },
        {
          "internalType": "address",
          "name": "sender",
          "type": "address"
        }
      ],
      "name": "mint",
      "outputs": [
        {
          "internalType": "uint256",
          "name": "_tokenId",
          "type": "uint256"
        }
      ],
      "stateMutability": "nonpayable",
      "type": "function"
    },
    {
      "inputs": [
        {
          "internalType": "address",
          "name": "",
          "type": "address"
        }
      ],
      "name": "numProjectsUsingMinter",
      "outputs": [
        {
          "internalType": "uint256",
          "name": "",
          "type": "uint256"
        }
      ],
      "stateMutability": "view",
      "type": "function"
    },
    {
      "inputs": [
        {
          "internalType": "uint256",
          "name": "_projectId",
          "type": "uint256"
        }
      ],
      "name": "projectHasMinter",
      "outputs": [
        {
          "internalType": "bool",
          "name": "",
          "type": "bool"
        }
      ],
      "stateMutability": "view",
      "type": "function"
    },
    {
      "inputs": [
        {
          "internalType": "address",
          "name": "_minterAddress",
          "type": "address"
        }
      ],
      "name": "removeApprovedMinter",
      "outputs": [],
      "stateMutability": "nonpayable",
      "type": "function"
    },
    {
      "inputs": [
        {
          "internalType": "uint256",
          "name": "_projectId",
          "type": "uint256"
        }
      ],
      "name": "removeMinterForProject",
      "outputs": [],
      "stateMutability": "nonpayable",
      "type": "function"
    },
    {
      "inputs": [
        {
          "internalType": "uint256[]",
          "name": "_projectIds",
          "type": "uint256[]"
        }
      ],
      "name": "removeMintersForProjects",
      "outputs": [],
      "stateMutability": "nonpayable",
      "type": "function"
    },
    {
      "inputs": [
        {
          "internalType": "uint256",
          "name": "_projectId",
          "type": "uint256"
        },
        {
          "internalType": "address",
          "name": "_minterAddress",
          "type": "address"
        }
      ],
      "name": "setMinterForProject",
      "outputs": [],
      "stateMutability": "nonpayable",
      "type": "function"
    }
  ],
  "bytecode": "0x60c060405234801561001057600080fd5b5060405161186c38038061186c83398101604081905261002f91610045565b6001600160a01b0316608081905260a052610075565b60006020828403121561005757600080fd5b81516001600160a01b038116811461006e57600080fd5b9392505050565b60805160a0516117856100e7600039600081816102ce0152818161037d015281816104350152818161056b0152818161066a0152818161070b0152818161083d01528181610a6c01528181610b0d01528181610c370152610e5b015260008181610155015261050b01526117856000f3fe608060405234801561001057600080fd5b50600436106100ca5760003560e01c8063b34c5c841161007c578063b34c5c84146101a1578063bcc0fdf1146101b4578063bee4d106146101c7578063c47d50f5146101da578063e7300db9146101ed578063faf0d7451461020f578063ff2505f01461022257600080fd5b80630d4d1513146100cf57806326df17b5146100f55780633a3d146f14610115578063718284221461014857806392a10f831461015057806393cb6ef014610184578063a409177e1461018e575b600080fd5b6100e26100dd36600461137d565b610235565b6040519081526020015b60405180910390f35b6100e26101033660046113bf565b60036020526000908152604090205481565b6101386101233660046113bf565b60046020526000908152604090205460ff1681565b60405190151581526020016100ec565b6100e2610355565b6101777f000000000000000000000000000000000000000000000000000000000000000081565b6040516100ec91906113dc565b61018c610366565b005b61018c61019c3660046113f0565b610554565b61018c6101af366004611465565b610651565b6101776101c2366004611465565b6107cb565b61018c6101d53660046113bf565b610826565b6101386101e8366004611465565b6109aa565b6102006101fb366004611465565b6109bf565b6040516100ec939291906114d6565b61018c61021d366004611500565b610a53565b61018c6102303660046113bf565b610e44565b60006102418184610fa1565b6001600160a01b0316336001600160a01b03161461029d5760405162461bcd60e51b815260206004820152601460248201527327b7363c9030b9b9b4b3b732b21036b4b73a32b960611b60448201526064015b60405180910390fd5b604051630d4d151360e01b81526001600160a01b0385811660048301526024820185905283811660448301526000917f000000000000000000000000000000000000000000000000000000000000000090911690630d4d151390606401602060405180830381600087803b15801561031457600080fd5b505af1158015610328573d6000803e3d6000fd5b505050506040513d601f19601f8201168201806040525081019061034c9190611530565b95945050505050565b60006103616000610fb6565b905090565b604051633af32abf60e01b81526001600160a01b037f00000000000000000000000000000000000000000000000000000000000000001690633af32abf906103b29033906004016113dc565b60206040518083038186803b1580156103ca57600080fd5b505afa1580156103de573d6000803e3d6000fd5b505050506040513d601f19601f820116820180604052508101906104029190611549565b61041e5760405162461bcd60e51b81526004016102949061156b565b60405163568182e760e11b81526001600160a01b037f0000000000000000000000000000000000000000000000000000000000000000169063ad0305ce9061046a9030906004016113dc565b60206040518083038186803b15801561048257600080fd5b505afa158015610496573d6000803e3d6000fd5b505050506040513d601f19601f820116820180604052508101906104ba9190611549565b6104fe5760405162461bcd60e51b815260206004820152601560248201527413db9b1e481b5a5b9d08185b1b1bdddb1a5cdd1959605a1b6044820152606401610294565b6040516001600160a01b037f000000000000000000000000000000000000000000000000000000000000000016907f93962c490513b829a454280256dc873e04e932b196e23a5d5099b88a2a1cab0190600090a2565b604051633af32abf60e01b81526001600160a01b037f00000000000000000000000000000000000000000000000000000000000000001690633af32abf906105a09033906004016113dc565b60206040518083038186803b1580156105b857600080fd5b505afa1580156105cc573d6000803e3d6000fd5b505050506040513d601f19601f820116820180604052508101906105f09190611549565b61060c5760405162461bcd60e51b81526004016102949061156b565b8060005b8181101561064b5761063984848381811061062d5761062d61159a565b90506020020135610fc1565b80610643816115c6565b915050610610565b50505050565b604051633af32abf60e01b815281906001600160a01b037f00000000000000000000000000000000000000000000000000000000000000001690633af32abf9061069f9033906004016113dc565b60206040518083038186803b1580156106b757600080fd5b505afa1580156106cb573d6000803e3d6000fd5b505050506040513d601f19601f820116820180604052508101906106ef9190611549565b806107a2575060405163a47d29cb60e01b8152600481018290527f00000000000000000000000000000000000000000000000000000000000000006001600160a01b03169063a47d29cb9060240160206040518083038186803b15801561075557600080fd5b505afa158015610769573d6000803e3d6000fd5b505050506040513d601f19601f8201168201806040525081019061078d91906115e1565b6001600160a01b0316336001600160a01b0316145b6107be5760405162461bcd60e51b8152600401610294906115fe565b6107c782610fc1565b5050565b600080806107d98185611036565b915091508161081f5760405162461bcd60e51b8152602060048201526012602482015271139bc81b5a5b9d195c88185cdcda59db995960721b6044820152606401610294565b9392505050565b604051633af32abf60e01b81526001600160a01b037f00000000000000000000000000000000000000000000000000000000000000001690633af32abf906108729033906004016113dc565b60206040518083038186803b15801561088a57600080fd5b505afa15801561089e573d6000803e3d6000fd5b505050506040513d601f19601f820116820180604052508101906108c29190611549565b6108de5760405162461bcd60e51b81526004016102949061156b565b6001600160a01b0381166000818152600460208190526040808320805460ff191660011790558051633a747a2b60e21b815290517f1ac09d1079d96f19b763467642c3c3b4e36b56222414f4a4a50f26c7011147bb93859363e9d1e8ac93808201939190829003018186803b15801561095657600080fd5b505afa15801561096a573d6000803e3d6000fd5b505050506040513d6000823e601f3d908101601f19168201604052610992919081019061164b565b60405161099f91906116f8565b60405180910390a250565b6000806109b78184611036565b509392505050565b60008060606109ce8285611054565b8093508194505050816001600160a01b031663e9d1e8ac6040518163ffffffff1660e01b815260040160006040518083038186803b158015610a0f57600080fd5b505afa158015610a23573d6000803e3d6000fd5b505050506040513d6000823e601f3d908101601f19168201604052610a4b919081019061164b565b929491935050565b604051633af32abf60e01b815282906001600160a01b037f00000000000000000000000000000000000000000000000000000000000000001690633af32abf90610aa19033906004016113dc565b60206040518083038186803b158015610ab957600080fd5b505afa158015610acd573d6000803e3d6000fd5b505050506040513d601f19601f82011682018060405250810190610af19190611549565b80610ba4575060405163a47d29cb60e01b8152600481018290527f00000000000000000000000000000000000000000000000000000000000000006001600160a01b03169063a47d29cb9060240160206040518083038186803b158015610b5757600080fd5b505afa158015610b6b573d6000803e3d6000fd5b505050506040513d601f19601f82011682018060405250810190610b8f91906115e1565b6001600160a01b0316336001600160a01b0316145b610bc05760405162461bcd60e51b8152600401610294906115fe565b6001600160a01b038216600090815260046020526040902054829060ff16610c345760405162461bcd60e51b815260206004820152602160248201527f4f6e6c7920617070726f766564206d696e746572732061726520616c6c6f77656044820152601960fa1b6064820152608401610294565b837f00000000000000000000000000000000000000000000000000000000000000006001600160a01b031663e935b7b16040518163ffffffff1660e01b815260040160206040518083038186803b158015610c8e57600080fd5b505afa158015610ca2573d6000803e3d6000fd5b505050506040513d601f19601f82011682018060405250810190610cc69190611530565b8110610d0d5760405162461bcd60e51b81526020600482015260166024820152754f6e6c79206578697374696e672070726f6a6563747360501b6044820152606401610294565b600080610d1a8188611036565b915091508115610d4e576001600160a01b0381166000908152600360205260408120805491610d488361170b565b91905055505b6001600160a01b0386166000908152600360205260408120805491610d72836115c6565b90915550610d84905060008888611063565b50856001600160a01b0316877f21fd9bfc68d8bc4b740ebf996aa9c255d1e6bb474f81dc2ad577d5d3c5a5e1e0886001600160a01b031663e9d1e8ac6040518163ffffffff1660e01b815260040160006040518083038186803b158015610dea57600080fd5b505afa158015610dfe573d6000803e3d6000fd5b505050506040513d6000823e601f3d908101601f19168201604052610e26919081019061164b565b604051610e3391906116f8565b60405180910390a350505050505050565b604051633af32abf60e01b81526001600160a01b037f00000000000000000000000000000000000000000000000000000000000000001690633af32abf90610e909033906004016113dc565b60206040518083038186803b158015610ea857600080fd5b505afa158015610ebc573d6000803e3d6000fd5b505050506040513d601f19601f82011682018060405250810190610ee09190611549565b610efc5760405162461bcd60e51b81526004016102949061156b565b6001600160a01b03811660009081526003602052604090205415610f585760405162461bcd60e51b81526020600482015260136024820152724f6e6c7920756e75736564206d696e7465727360681b6044820152606401610294565b6001600160a01b038116600081815260046020526040808220805460ff19169055517f44f4322f8daa225d5f4877ad0f7d3dfba248a774396f3ca99405ed40a044fe819190a250565b6000610fad8383611081565b90505b92915050565b6000610fb0826110f1565b60036000610fcf8184610fa1565b6001600160a01b0316815260208101919091526040016000908120805491610ff68361170b565b9091555061100790506000826110fc565b5060405181907f15267d34078ead35bc0303f6cdd08f99b837bdfcd7fab97fca4c58f3d85d760590600090a250565b60008080806110458686611108565b909450925050505b9250929050565b60008080806110458686611142565b600061107984846001600160a01b03851661116d565b949350505050565b6000818152600283016020526040812054801515806110a557506110a5848461118a565b610fad5760405162461bcd60e51b815260206004820152601e60248201527f456e756d657261626c654d61703a206e6f6e6578697374656e74206b657900006044820152606401610294565b6000610fb082611196565b6000610fad83836111a0565b60008181526002830160205260408120548190806111375761112a858561118a565b92506000915061104d9050565b60019250905061104d565b6000808061115085856111bd565b600081815260029690960160205260409095205494959350505050565b6000828152600284016020526040812082905561107984846111c9565b6000610fad83836111d5565b6000610fb0825490565b60008181526002830160205260408120819055610fad83836111ed565b6000610fad83836111f9565b6000610fad8383611223565b60008181526001830160205260408120541515610fad565b6000610fad8383611272565b60008260000182815481106112105761121061159a565b9060005260206000200154905092915050565b600081815260018301602052604081205461126a57508154600181810184556000848152602080822090930184905584548482528286019093526040902091909155610fb0565b506000610fb0565b6000818152600183016020526040812054801561135b576000611296600183611722565b85549091506000906112aa90600190611722565b905081811461130f5760008660000182815481106112ca576112ca61159a565b90600052602060002001549050808760000184815481106112ed576112ed61159a565b6000918252602080832090910192909255918252600188019052604090208390555b855486908061132057611320611739565b600190038181906000526020600020016000905590558560010160008681526020019081526020016000206000905560019350505050610fb0565b6000915050610fb0565b6001600160a01b038116811461137a57600080fd5b50565b60008060006060848603121561139257600080fd5b833561139d81611365565b92506020840135915060408401356113b481611365565b809150509250925092565b6000602082840312156113d157600080fd5b8135610fad81611365565b6001600160a01b0391909116815260200190565b6000806020838503121561140357600080fd5b823567ffffffffffffffff8082111561141b57600080fd5b818501915085601f83011261142f57600080fd5b81358181111561143e57600080fd5b8660208260051b850101111561145357600080fd5b60209290920196919550909350505050565b60006020828403121561147757600080fd5b5035919050565b60005b83811015611499578181015183820152602001611481565b8381111561064b5750506000910152565b600081518084526114c281602086016020860161147e565b601f01601f19169290920160200192915050565b8381526001600160a01b038316602082015260606040820181905260009061034c908301846114aa565b6000806040838503121561151357600080fd5b82359150602083013561152581611365565b809150509250929050565b60006020828403121561154257600080fd5b5051919050565b60006020828403121561155b57600080fd5b81518015158114610fad57600080fd5b60208082526015908201527413db9b1e4810dbdc99481dda1a5d195b1a5cdd1959605a1b604082015260600190565b634e487b7160e01b600052603260045260246000fd5b634e487b7160e01b600052601160045260246000fd5b60006000198214156115da576115da6115b0565b5060010190565b6000602082840312156115f357600080fd5b8151610fad81611365565b6020808252601f908201527f4f6e6c7920436f72652077686974656c6973746564206f722041727469737400604082015260600190565b634e487b7160e01b600052604160045260246000fd5b60006020828403121561165d57600080fd5b815167ffffffffffffffff8082111561167557600080fd5b818401915084601f83011261168957600080fd5b81518181111561169b5761169b611635565b604051601f8201601f19908116603f011681019083821181831017156116c3576116c3611635565b816040528281528760208487010111156116dc57600080fd5b6116ed83602083016020880161147e565b979650505050505050565b602081526000610fad60208301846114aa565b60008161171a5761171a6115b0565b506000190190565b600082821015611734576117346115b0565b500390565b634e487b7160e01b600052603160045260246000fdfea264697066735822122093a51c0445e7a9fb546366c1e7dc4278941d9d9166ad688fd5c3bd74d202a83464736f6c63430008090033",
  "linkReferences": {},
  "deployedLinkReferences": {}
}