{
  "_format": "hh-sol-artifact-1",
  "contractName": "MinterHolderV0",
  "sourceName": "contracts/minter-suite/MinterHolderV0.sol",
  "abi": [
    {
      "inputs": [
        {
          "internalType": "address",
          "name": "_genArt721Address",
          "type": "address"
        },
        {
          "internalType": "address",
          "name": "_minterFilter",
          "type": "address"
        }
      ],
      "stateMutability": "nonpayable",
      "type": "constructor"
    },
    {
      "anonymous": false,
      "inputs": [
        {
          "indexed": true,
          "internalType": "uint256",
          "name": "_projectId",
          "type": "uint256"
        },
        {
          "indexed": false,
          "internalType": "address",
          "name": "_ownedNftAddress",
          "type": "address"
        },
        {
          "indexed": false,
          "internalType": "uint256",
          "name": "_ownedNftProjectId",
          "type": "uint256"
        }
      ],
      "name": "AllowHoldersOfProject",
      "type": "event"
    },
    {
      "anonymous": false,
      "inputs": [
        {
          "indexed": true,
          "internalType": "address",
          "name": "_nftAddress",
          "type": "address"
        }
      ],
      "name": "AllowlistedNftAddress",
      "type": "event"
    },
    {
      "anonymous": false,
      "inputs": [
        {
          "indexed": true,
          "internalType": "uint256",
          "name": "_projectId",
          "type": "uint256"
        },
        {
          "indexed": true,
          "internalType": "uint256",
          "name": "_pricePerTokenInWei",
          "type": "uint256"
        }
      ],
      "name": "PricePerTokenInWeiUpdated",
      "type": "event"
    },
    {
      "anonymous": false,
      "inputs": [
        {
          "indexed": true,
          "internalType": "uint256",
          "name": "_projectId",
          "type": "uint256"
        },
        {
          "indexed": true,
          "internalType": "address",
          "name": "_currencyAddress",
          "type": "address"
        },
        {
          "indexed": false,
          "internalType": "string",
          "name": "_currencySymbol",
          "type": "string"
        }
      ],
      "name": "ProjectCurrencyInfoUpdated",
      "type": "event"
    },
    {
      "anonymous": false,
      "inputs": [
        {
          "indexed": true,
          "internalType": "uint256",
          "name": "_projectId",
          "type": "uint256"
        },
        {
          "indexed": false,
          "internalType": "bool",
          "name": "_purchaseToDisabled",
          "type": "bool"
        }
      ],
      "name": "PurchaseToDisabledUpdated",
      "type": "event"
    },
    {
      "anonymous": false,
      "inputs": [
        {
          "indexed": true,
          "internalType": "uint256",
          "name": "_projectId",
          "type": "uint256"
        },
        {
          "indexed": false,
          "internalType": "address",
          "name": "_ownedNftAddress",
          "type": "address"
        },
        {
          "indexed": false,
          "internalType": "uint256",
          "name": "_ownedNftProjectId",
          "type": "uint256"
        }
      ],
      "name": "RemovedHoldersOfProject",
      "type": "event"
    },
    {
      "anonymous": false,
      "inputs": [
        {
          "indexed": true,
          "internalType": "address",
          "name": "_nftAddress",
          "type": "address"
        }
      ],
      "name": "RemovedNftAddress",
      "type": "event"
    },
    {
      "inputs": [
        {
          "internalType": "uint256",
          "name": "_projectId",
          "type": "uint256"
        },
        {
          "internalType": "address",
          "name": "_ownedNftAddress",
          "type": "address"
        },
        {
          "internalType": "uint256",
          "name": "_ownedNftProjectId",
          "type": "uint256"
        }
      ],
      "name": "allowHoldersOfProject",
      "outputs": [],
      "stateMutability": "nonpayable",
      "type": "function"
    },
    {
      "inputs": [
        {
          "internalType": "uint256",
          "name": "",
          "type": "uint256"
        },
        {
          "internalType": "address",
          "name": "",
          "type": "address"
        },
        {
          "internalType": "uint256",
          "name": "",
          "type": "uint256"
        }
      ],
      "name": "allowedProjectHolders",
      "outputs": [
        {
          "internalType": "bool",
          "name": "",
          "type": "bool"
        }
      ],
      "stateMutability": "view",
      "type": "function"
    },
    {
      "inputs": [
        {
          "internalType": "address",
          "name": "_nftAddress",
          "type": "address"
        }
      ],
      "name": "allowlistNftAddress",
      "outputs": [],
      "stateMutability": "nonpayable",
      "type": "function"
    },
    {
      "inputs": [],
      "name": "genArt721CoreAddress",
      "outputs": [
        {
          "internalType": "address",
          "name": "",
          "type": "address"
        }
      ],
      "stateMutability": "view",
      "type": "function"
    },
    {
      "inputs": [
        {
          "internalType": "uint256",
          "name": "_index",
          "type": "uint256"
        }
      ],
      "name": "getAllowedNftAddressAt",
      "outputs": [
        {
          "internalType": "address",
          "name": "nftAddress",
          "type": "address"
        }
      ],
      "stateMutability": "view",
      "type": "function"
    },
    {
      "inputs": [],
      "name": "getNumAllowedNftAddresses",
      "outputs": [
        {
          "internalType": "uint256",
          "name": "",
          "type": "uint256"
        }
      ],
      "stateMutability": "view",
      "type": "function"
    },
    {
      "inputs": [
        {
          "internalType": "uint256",
          "name": "_projectId",
          "type": "uint256"
        }
      ],
      "name": "getPriceInfo",
      "outputs": [
        {
          "internalType": "bool",
          "name": "isConfigured",
          "type": "bool"
        },
        {
          "internalType": "uint256",
          "name": "tokenPriceInWei",
          "type": "uint256"
        },
        {
          "internalType": "string",
          "name": "currencySymbol",
          "type": "string"
        },
        {
          "internalType": "address",
          "name": "currencyAddress",
          "type": "address"
        }
      ],
      "stateMutability": "view",
      "type": "function"
    },
    {
      "inputs": [
        {
          "internalType": "uint256",
          "name": "_projectId",
          "type": "uint256"
        },
        {
          "internalType": "address",
          "name": "_ownedNftAddress",
          "type": "address"
        },
        {
          "internalType": "uint256",
          "name": "_ownedNftTokenId",
          "type": "uint256"
        }
      ],
      "name": "isAllowlistedNFT",
      "outputs": [
        {
          "internalType": "bool",
          "name": "",
          "type": "bool"
        }
      ],
      "stateMutability": "view",
      "type": "function"
    },
    {
      "inputs": [],
      "name": "minterFilterAddress",
      "outputs": [
        {
          "internalType": "address",
          "name": "",
          "type": "address"
        }
      ],
      "stateMutability": "view",
      "type": "function"
    },
    {
      "inputs": [],
      "name": "minterType",
      "outputs": [
        {
          "internalType": "string",
          "name": "",
          "type": "string"
        }
      ],
      "stateMutability": "view",
      "type": "function"
    },
    {
      "inputs": [
        {
          "internalType": "uint256",
          "name": "",
          "type": "uint256"
        }
      ],
      "name": "projectMaxHasBeenInvoked",
      "outputs": [
        {
          "internalType": "bool",
          "name": "",
          "type": "bool"
        }
      ],
      "stateMutability": "view",
      "type": "function"
    },
    {
      "inputs": [
        {
          "internalType": "uint256",
          "name": "",
          "type": "uint256"
        }
      ],
      "name": "projectMaxInvocations",
      "outputs": [
        {
          "internalType": "uint256",
          "name": "",
          "type": "uint256"
        }
      ],
      "stateMutability": "view",
      "type": "function"
    },
    {
      "inputs": [
        {
          "internalType": "uint256",
          "name": "_projectId",
          "type": "uint256"
        },
        {
          "internalType": "address",
          "name": "_ownedNftAddress",
          "type": "address"
        },
        {
          "internalType": "uint256",
          "name": "_ownedNftTokenId",
          "type": "uint256"
        }
      ],
      "name": "purchase",
      "outputs": [
        {
          "internalType": "uint256",
          "name": "tokenId",
          "type": "uint256"
        }
      ],
      "stateMutability": "payable",
      "type": "function"
    },
    {
      "inputs": [
        {
          "internalType": "uint256",
          "name": "",
          "type": "uint256"
        }
      ],
      "name": "purchase",
      "outputs": [
        {
          "internalType": "uint256",
          "name": "",
          "type": "uint256"
        }
      ],
      "stateMutability": "payable",
      "type": "function"
    },
    {
      "inputs": [
        {
          "internalType": "address",
          "name": "",
          "type": "address"
        },
        {
          "internalType": "uint256",
          "name": "",
          "type": "uint256"
        }
      ],
      "name": "purchaseTo",
      "outputs": [
        {
          "internalType": "uint256",
          "name": "",
          "type": "uint256"
        }
      ],
      "stateMutability": "payable",
      "type": "function"
    },
    {
      "inputs": [
        {
          "internalType": "address",
          "name": "_to",
          "type": "address"
        },
        {
          "internalType": "uint256",
          "name": "_projectId",
          "type": "uint256"
        },
        {
          "internalType": "address",
          "name": "_ownedNftAddress",
          "type": "address"
        },
        {
          "internalType": "uint256",
          "name": "_ownedNftTokenId",
          "type": "uint256"
        }
      ],
      "name": "purchaseTo",
      "outputs": [
        {
          "internalType": "uint256",
          "name": "tokenId",
          "type": "uint256"
        }
      ],
      "stateMutability": "payable",
      "type": "function"
    },
    {
      "inputs": [
        {
          "internalType": "uint256",
          "name": "_projectId",
          "type": "uint256"
        },
        {
          "internalType": "address",
          "name": "_ownedNftAddress",
          "type": "address"
        },
        {
          "internalType": "uint256",
          "name": "_ownedNftProjectId",
          "type": "uint256"
        }
      ],
      "name": "removeHoldersOfProject",
      "outputs": [],
      "stateMutability": "nonpayable",
      "type": "function"
    },
    {
      "inputs": [
        {
          "internalType": "address",
          "name": "_nftAddress",
          "type": "address"
        }
      ],
      "name": "removeNftAddress",
      "outputs": [],
      "stateMutability": "nonpayable",
      "type": "function"
    },
    {
      "inputs": [
        {
          "internalType": "uint256",
          "name": "_projectId",
          "type": "uint256"
        }
      ],
      "name": "setProjectMaxInvocations",
      "outputs": [],
      "stateMutability": "nonpayable",
      "type": "function"
    },
    {
      "inputs": [
        {
          "internalType": "uint256",
          "name": "_projectId",
          "type": "uint256"
        }
      ],
      "name": "togglePurchaseToDisabled",
      "outputs": [],
      "stateMutability": "view",
      "type": "function"
    },
    {
      "inputs": [
        {
          "internalType": "uint256",
          "name": "_projectId",
          "type": "uint256"
        },
        {
          "internalType": "uint256",
          "name": "_pricePerTokenInWei",
          "type": "uint256"
        }
      ],
      "name": "updatePricePerTokenInWei",
      "outputs": [],
      "stateMutability": "nonpayable",
      "type": "function"
    }
  ],
  "bytecode": "0x6101006040523480156200001257600080fd5b50604051620020f7380380620020f7833981016040819052620000359162000157565b600160009081556001600160a01b03808416608081905260a081905290831660c081905260e0819052604080516392a10f8360e01b81529051929391926392a10f8392600480840193602093929083900390910190829087803b1580156200009c57600080fd5b505af1158015620000b1573d6000803e3d6000fd5b505050506040513d601f19601f82011682018060405250810190620000d791906200018f565b6001600160a01b031614620001325760405162461bcd60e51b815260206004820152601860248201527f496c6c6567616c20636f6e74726163742070616972696e670000000000000000604482015260640160405180910390fd5b5050620001b4565b80516001600160a01b03811681146200015257600080fd5b919050565b600080604083850312156200016b57600080fd5b62000176836200013a565b915062000186602084016200013a565b90509250929050565b600060208284031215620001a257600080fd5b620001ad826200013a565b9392505050565b60805160a05160c05160e051611eae620002496000396000610ad1015260006103dc0152600081816104bc015281816105ce0152818161077c01528181610ca201528181610d9d01528181610e9901528181611011015281816110d501528181611287015281816113360152818161147601528181611531015281816115e80152611735015260006103080152611eae6000f3fe60806040526004361061012a5760003560e01c806392a10f83116100ab578063dad312b21161006f578063dad312b2146103aa578063dd85582f146103ca578063e2849bd5146103fe578063e9d1e8ac1461041e578063efef39a114610465578063f7bd4b881461047357600080fd5b806392a10f83146102f6578063ac69397914610337578063b00abb6414610357578063cd262faf1461036a578063d1640e5c1461038a57600080fd5b8063650e5d6d116100f2578063650e5d6d146102065780636cb9b7ff14610219578063774159c614610239578063891407c0146102a257806390d355b7146102b557600080fd5b806320223ed51461012f57806340d1397e14610157578063462add461461017957806356690aaf146101b95780635a828fd8146101e6575b600080fd5b34801561013b57600080fd5b50610144610493565b6040519081526020015b60405180910390f35b34801561016357600080fd5b506101776101723660046119f1565b6104a4565b005b34801561018557600080fd5b506101a96101943660046119f1565b60036020526000908152604090205460ff1681565b604051901515815260200161014e565b3480156101c557600080fd5b506101446101d43660046119f1565b60046020526000908152604090205481565b3480156101f257600080fd5b50610177610201366004611a1f565b6105b6565b610144610214366004611a1f565b61074e565b34801561022557600080fd5b50610177610234366004611a57565b610764565b34801561024557600080fd5b506102926102543660046119f1565b60009081526006602090815260408083205460058352818420548251808401909352600383526208aa8960eb1b9383019390935260ff169391929091565b60405161014e9493929190611ad5565b6101446102b0366004611b0f565b610883565b3480156102c157600080fd5b506101a96102d0366004611a1f565b600760209081526000938452604080852082529284528284209052825290205460ff1681565b34801561030257600080fd5b5061032a7f000000000000000000000000000000000000000000000000000000000000000081565b60405161014e9190611b3b565b34801561034357600080fd5b5061032a6103523660046119f1565b6108c9565b610144610365366004611b4f565b6108dc565b34801561037657600080fd5b50610177610385366004611b97565b610c8b565b34801561039657600080fd5b506101776103a5366004611b97565b610d86565b3480156103b657600080fd5b506101776103c5366004611a1f565b610e81565b3480156103d657600080fd5b5061032a7f000000000000000000000000000000000000000000000000000000000000000081565b34801561040a57600080fd5b506101a9610419366004611a1f565b610fb5565b34801561042a57600080fd5b506104586040518060400160405280600e81526020016d04d696e746572486f6c64657256360941b81525081565b60405161014e9190611bb4565b6101446102b03660046119f1565b34801561047f57600080fd5b5061017761048e3660046119f1565b610ffa565b600061049f6001611194565b905090565b60405163a47d29cb60e01b81526004810182905281907f00000000000000000000000000000000000000000000000000000000000000006001600160a01b03169063a47d29cb9060240160206040518083038186803b15801561050657600080fd5b505afa15801561051a573d6000803e3d6000fd5b505050506040513d601f19601f8201168201806040525081019061053e9190611bc7565b6001600160a01b0316336001600160a01b0316146105775760405162461bcd60e51b815260040161056e90611be4565b60405180910390fd5b60405162461bcd60e51b81526020600482015260146024820152731058dd1a5bdb881b9bdd081cdd5c1c1bdc9d195960621b604482015260640161056e565b60405163a47d29cb60e01b81526004810184905283907f00000000000000000000000000000000000000000000000000000000000000006001600160a01b03169063a47d29cb9060240160206040518083038186803b15801561061857600080fd5b505afa15801561062c573d6000803e3d6000fd5b505050506040513d601f19601f820116820180604052508101906106509190611bc7565b6001600160a01b0316336001600160a01b0316146106805760405162461bcd60e51b815260040161056e90611be4565b61068b60018461119e565b6106d75760405162461bcd60e51b815260206004820152601a60248201527f4f6e6c7920416c6c6f776564204e465420416464726573736573000000000000604482015260640161056e565b60008481526007602090815260408083206001600160a01b038716808552908352818420868552835292819020805460ff19166001179055805192835290820184905285917f49dd5e9dc523feed9a39823494b254dbcfdfa94e5b92f41b308298d81a47ea5c91015b60405180910390a250505050565b600061075c338585856108dc565b949350505050565b60405163a47d29cb60e01b81526004810183905282907f00000000000000000000000000000000000000000000000000000000000000006001600160a01b03169063a47d29cb9060240160206040518083038186803b1580156107c657600080fd5b505afa1580156107da573d6000803e3d6000fd5b505050506040513d601f19601f820116820180604052508101906107fe9190611bc7565b6001600160a01b0316336001600160a01b03161461082e5760405162461bcd60e51b815260040161056e90611be4565b60008381526005602090815260408083208590556006909152808220805460ff1916600117905551839185917f26118a27aca826f829f3bfe21b140b4455c00b434849bd0da50d1e1a9720fb5c9190a3505050565b60405162461bcd60e51b815260206004820152601860248201527704d75737420636c61696d204e4654206f776e6572736869760441b604482015260009060640161056e565b60006108d66001836111c3565b92915050565b6000600260005414156109315760405162461bcd60e51b815260206004820152601f60248201527f5265656e7472616e637947756172643a207265656e7472616e742063616c6c00604482015260640161056e565b600260009081558481526003602052604090205460ff16156109a35760405162461bcd60e51b815260206004820152602560248201527f4d6178696d756d206e756d626572206f6620696e766f636174696f6e732072656044820152641858da195960da1b606482015260840161056e565b600084815260056020526040902054341015610a015760405162461bcd60e51b815260206004820181905260248201527f4d7573742073656e64206d696e696d756d2076616c756520746f206d696e7421604482015260640161056e565b60008481526006602052604090205460ff16610a565760405162461bcd60e51b8152602060048201526014602482015273141c9a58d9481b9bdd0818dbdb999a59dd5c995960621b604482015260640161056e565b610a61848484610fb5565b610aa55760405162461bcd60e51b81526020600482015260156024820152744f6e6c7920616c6c6f776c6973746564204e46547360581b604482015260640161056e565b604051630d4d151360e01b81526001600160a01b038681166004830152602482018690523360448301527f00000000000000000000000000000000000000000000000000000000000000001690630d4d151390606401602060405180830381600087803b158015610b1557600080fd5b505af1158015610b29573d6000803e3d6000fd5b505050506040513d601f19601f82011682018060405250810190610b4d9190611c09565b60008581526004602052604090205490915015801590610b925750600084815260046020526040902054610b8390600190611c38565b610b90620f424083611c65565b145b15610bb1576000848152600360205260409020805460ff191660011790555b6040516331a9108f60e11b81526004810183905233906001600160a01b03851690636352211e9060240160206040518083038186803b158015610bf357600080fd5b505afa158015610c07573d6000803e3d6000fd5b505050506040513d601f19601f82011682018060405250810190610c2b9190611bc7565b6001600160a01b031614610c755760405162461bcd60e51b815260206004820152601160248201527013db9b1e481bdddb995c881bd988139195607a1b604482015260640161056e565b610c7e846111cf565b6001600055949350505050565b604051633af32abf60e01b81526001600160a01b037f00000000000000000000000000000000000000000000000000000000000000001690633af32abf90610cd7903390600401611b3b565b60206040518083038186803b158015610cef57600080fd5b505afa158015610d03573d6000803e3d6000fd5b505050506040513d601f19601f82011682018060405250810190610d279190611c99565b610d435760405162461bcd60e51b815260040161056e90611cb4565b610d4e60018261185b565b506040516001600160a01b038216907f8b2f228d395a71cc232d064ffd401bab2d13c1a3f27ebdc06ae2514d8234a6ad90600090a250565b604051633af32abf60e01b81526001600160a01b037f00000000000000000000000000000000000000000000000000000000000000001690633af32abf90610dd2903390600401611b3b565b60206040518083038186803b158015610dea57600080fd5b505afa158015610dfe573d6000803e3d6000fd5b505050506040513d601f19601f82011682018060405250810190610e229190611c99565b610e3e5760405162461bcd60e51b815260040161056e90611cb4565b610e49600182611870565b506040516001600160a01b038216907f768da1fb6bdc9272db4af6eebf6b733f52a9c322a95e55bbe5bc8690ff18b16c90600090a250565b60405163a47d29cb60e01b81526004810184905283907f00000000000000000000000000000000000000000000000000000000000000006001600160a01b03169063a47d29cb9060240160206040518083038186803b158015610ee357600080fd5b505afa158015610ef7573d6000803e3d6000fd5b505050506040513d601f19601f82011682018060405250810190610f1b9190611bc7565b6001600160a01b0316336001600160a01b031614610f4b5760405162461bcd60e51b815260040161056e90611be4565b60008481526007602090815260408083206001600160a01b038716808552908352818420868552835292819020805460ff19169055805192835290820184905285917fd91ae06afe9ab463dd81383f6cc67c3cbab67aeda5c2bea207ca9c7e327635ec9101610740565b600080610fc5620f424084611ce3565b60009586526007602090815260408088206001600160a01b039790971688529581528587209187525250505090205460ff1690565b604051633af32abf60e01b81526001600160a01b037f00000000000000000000000000000000000000000000000000000000000000001690633af32abf90611046903390600401611b3b565b60206040518083038186803b15801561105e57600080fd5b505afa158015611072573d6000803e3d6000fd5b505050506040513d601f19601f820116820180604052508101906110969190611c99565b6110b25760405162461bcd60e51b815260040161056e90611cb4565b6040516346161b1160e11b81526004810182905260009081906001600160a01b037f00000000000000000000000000000000000000000000000000000000000000001690638c2c36229060240160006040518083038186803b15801561111757600080fd5b505afa15801561112b573d6000803e3d6000fd5b505050506040513d6000823e601f3d908101601f191682016040526111539190810190611d0d565b50505060008981526004602052604090208390555091955093505050508082101561118f576000838152600360205260409020805460ff191690555b505050565b60006108d6825490565b6001600160a01b038116600090815260018301602052604081205415155b9392505050565b60006111bc8383611885565b341561185857600081815260056020526040812054906111ef8234611c38565b9050801561128157604051600090339083908381818185875af1925050503d8060008114611239576040519150601f19603f3d011682016040523d82523d6000602084013e61123e565b606091505b505090508061127f5760405162461bcd60e51b815260206004820152600d60248201526c1499599d5b990819985a5b1959609a1b604482015260640161056e565b505b600060647f00000000000000000000000000000000000000000000000000000000000000006001600160a01b0316634f029c396040518163ffffffff1660e01b815260040160206040518083038186803b1580156112de57600080fd5b505afa1580156112f2573d6000803e3d6000fd5b505050506040513d601f19601f820116820180604052508101906113169190611c09565b6113209085611e2d565b61132a9190611ce3565b905080156114635760007f00000000000000000000000000000000000000000000000000000000000000006001600160a01b0316633949f9066040518163ffffffff1660e01b815260040160206040518083038186803b15801561138d57600080fd5b505afa1580156113a1573d6000803e3d6000fd5b505050506040513d601f19601f820116820180604052508101906113c59190611bc7565b6001600160a01b03168260405160006040518083038185875af1925050503d806000811461140f576040519150601f19603f3d011682016040523d82523d6000602084013e611414565b606091505b50509050806114615760405162461bcd60e51b8152602060048201526019602482015278119bdd5b99185d1a5bdb881c185e5b595b9d0819985a5b1959603a1b604482015260640161056e565b505b600061146f8285611c38565b90506000807f00000000000000000000000000000000000000000000000000000000000000006001600160a01b031663cc74234b886040518263ffffffff1660e01b81526004016114c291815260200190565b60206040518083038186803b1580156114da57600080fd5b505afa1580156114ee573d6000803e3d6000fd5b505050506040513d601f19601f820116820180604052508101906115129190611c09565b11156117085760405163cc74234b60e01b8152600481018790526064907f00000000000000000000000000000000000000000000000000000000000000006001600160a01b03169063cc74234b9060240160206040518083038186803b15801561157b57600080fd5b505afa15801561158f573d6000803e3d6000fd5b505050506040513d601f19601f820116820180604052508101906115b39190611c09565b6115bd9084611e2d565b6115c79190611ce3565b9050801561170857604051636bd8225b60e11b8152600481018790526000907f00000000000000000000000000000000000000000000000000000000000000006001600160a01b03169063d7b044b69060240160206040518083038186803b15801561163257600080fd5b505afa158015611646573d6000803e3d6000fd5b505050506040513d601f19601f8201168201806040525081019061166a9190611bc7565b6001600160a01b03168260405160006040518083038185875af1925050503d80600081146116b4576040519150601f19603f3d011682016040523d82523d6000602084013e6116b9565b606091505b50509050806117065760405162461bcd60e51b81526020600482015260196024820152781059191a5d1a5bdb985b081c185e5b595b9d0819985a5b1959603a1b604482015260640161056e565b505b60006117148284611c38565b905080156118515760405163a47d29cb60e01b8152600481018890526000907f00000000000000000000000000000000000000000000000000000000000000006001600160a01b03169063a47d29cb9060240160206040518083038186803b15801561177f57600080fd5b505afa158015611793573d6000803e3d6000fd5b505050506040513d601f19601f820116820180604052508101906117b79190611bc7565b6001600160a01b03168260405160006040518083038185875af1925050503d8060008114611801576040519150601f19603f3d011682016040523d82523d6000602084013e611806565b606091505b505090508061184f5760405162461bcd60e51b8152602060048201526015602482015274105c9d1a5cdd081c185e5b595b9d0819985a5b1959605a1b604482015260640161056e565b505b5050505050505b50565b60006111bc836001600160a01b0384166118af565b60006111bc836001600160a01b0384166119a2565b600082600001828154811061189c5761189c611e4c565b9060005260206000200154905092915050565b600081815260018301602052604081205480156119985760006118d3600183611c38565b85549091506000906118e790600190611c38565b905081811461194c57600086600001828154811061190757611907611e4c565b906000526020600020015490508087600001848154811061192a5761192a611e4c565b6000918252602080832090910192909255918252600188019052604090208390555b855486908061195d5761195d611e62565b6001900381819060005260206000200160009055905585600101600086815260200190815260200160002060009055600193505050506108d6565b60009150506108d6565b60008181526001830160205260408120546119e9575081546001818101845560008481526020808220909301849055845484825282860190935260409020919091556108d6565b5060006108d6565b600060208284031215611a0357600080fd5b5035919050565b6001600160a01b038116811461185857600080fd5b600080600060608486031215611a3457600080fd5b833592506020840135611a4681611a0a565b929592945050506040919091013590565b60008060408385031215611a6a57600080fd5b50508035926020909101359150565b60005b83811015611a94578181015183820152602001611a7c565b83811115611aa3576000848401525b50505050565b60008151808452611ac1816020860160208601611a79565b601f01601f19169290920160200192915050565b8415158152836020820152608060408201526000611af66080830185611aa9565b905060018060a01b038316606083015295945050505050565b60008060408385031215611b2257600080fd5b8235611b2d81611a0a565b946020939093013593505050565b6001600160a01b0391909116815260200190565b60008060008060808587031215611b6557600080fd5b8435611b7081611a0a565b9350602085013592506040850135611b8781611a0a565b9396929550929360600135925050565b600060208284031215611ba957600080fd5b81356111bc81611a0a565b6020815260006111bc6020830184611aa9565b600060208284031215611bd957600080fd5b81516111bc81611a0a565b6020808252600b908201526a13db9b1e48105c9d1a5cdd60aa1b604082015260600190565b600060208284031215611c1b57600080fd5b5051919050565b634e487b7160e01b600052601160045260246000fd5b600082821015611c4a57611c4a611c22565b500390565b634e487b7160e01b600052601260045260246000fd5b600082611c7457611c74611c4f565b500690565b8051611c8481611a0a565b919050565b80518015158114611c8457600080fd5b600060208284031215611cab57600080fd5b6111bc82611c89565b60208082526015908201527413db9b1e4810dbdc99481dda1a5d195b1a5cdd1959605a1b604082015260600190565b600082611cf257611cf2611c4f565b500490565b634e487b7160e01b600052604160045260246000fd5b60008060008060008060008060006101208a8c031215611d2c57600080fd5b8951611d3781611a0a565b8099505060208a0151975060408a0151965060608a01519550611d5c60808b01611c89565b945060a08a0151611d6c81611a0a565b60c08b015160e08c0151919550935067ffffffffffffffff80821115611d9157600080fd5b818c0191508c601f830112611da557600080fd5b815181811115611db757611db7611cf7565b604051601f8201601f19908116603f01168101908382118183101715611ddf57611ddf611cf7565b816040528281528f6020848701011115611df857600080fd5b611e09836020830160208801611a79565b8096505050505050611e1e6101008b01611c79565b90509295985092959850929598565b6000816000190483118215151615611e4757611e47611c22565b500290565b634e487b7160e01b600052603260045260246000fd5b634e487b7160e01b600052603160045260246000fdfea2646970667358221220cbbab26080a82d5b7dab10eceb1a2ed01aee41251669617c7e10fa60873edc3564736f6c63430008090033",
  "linkReferences": {},
  "deployedLinkReferences": {}
}