{
  "_format": "hh-sol-artifact-1",
  "contractName": "MinterHolderV0",
  "sourceName": "contracts/minter-suite/MinterHolderV0.sol",
  "abi": [
    {
      "inputs": [
        {
          "internalType": "address",
          "name": "_genArt721Address",
          "type": "address"
        },
        {
          "internalType": "address",
          "name": "_minterFilter",
          "type": "address"
        }
      ],
      "stateMutability": "nonpayable",
      "type": "constructor"
    },
    {
      "anonymous": false,
      "inputs": [
        {
          "indexed": true,
          "internalType": "uint256",
          "name": "_projectId",
          "type": "uint256"
        },
        {
          "indexed": false,
          "internalType": "address[]",
          "name": "_ownedNFTAddresses",
          "type": "address[]"
        },
        {
          "indexed": false,
          "internalType": "uint256[]",
          "name": "_ownedNFTProjectIds",
          "type": "uint256[]"
        }
      ],
      "name": "AllowedHoldersOfProjects",
      "type": "event"
    },
    {
      "anonymous": false,
      "inputs": [
        {
          "indexed": true,
          "internalType": "uint256",
          "name": "_projectId",
          "type": "uint256"
        },
        {
          "indexed": true,
          "internalType": "uint256",
          "name": "_pricePerTokenInWei",
          "type": "uint256"
        }
      ],
      "name": "PricePerTokenInWeiUpdated",
      "type": "event"
    },
    {
      "anonymous": false,
      "inputs": [
        {
          "indexed": true,
          "internalType": "uint256",
          "name": "_projectId",
          "type": "uint256"
        },
        {
          "indexed": true,
          "internalType": "address",
          "name": "_currencyAddress",
          "type": "address"
        },
        {
          "indexed": false,
          "internalType": "string",
          "name": "_currencySymbol",
          "type": "string"
        }
      ],
      "name": "ProjectCurrencyInfoUpdated",
      "type": "event"
    },
    {
      "anonymous": false,
      "inputs": [
        {
          "indexed": true,
          "internalType": "uint256",
          "name": "_projectId",
          "type": "uint256"
        },
        {
          "indexed": false,
          "internalType": "bool",
          "name": "_purchaseToDisabled",
          "type": "bool"
        }
      ],
      "name": "PurchaseToDisabledUpdated",
      "type": "event"
    },
    {
      "anonymous": false,
      "inputs": [
        {
          "indexed": true,
          "internalType": "address",
          "name": "_NFTAddress",
          "type": "address"
        }
      ],
      "name": "RegisteredNFTAddress",
      "type": "event"
    },
    {
      "anonymous": false,
      "inputs": [
        {
          "indexed": true,
          "internalType": "uint256",
          "name": "_projectId",
          "type": "uint256"
        },
        {
          "indexed": false,
          "internalType": "address[]",
          "name": "_ownedNFTAddresses",
          "type": "address[]"
        },
        {
          "indexed": false,
          "internalType": "uint256[]",
          "name": "_ownedNFTProjectIds",
          "type": "uint256[]"
        }
      ],
      "name": "RemovedHoldersOfProjects",
      "type": "event"
    },
    {
      "anonymous": false,
      "inputs": [
        {
          "indexed": true,
          "internalType": "address",
          "name": "_NFTAddress",
          "type": "address"
        }
      ],
      "name": "UnregisteredNFTAddress",
      "type": "event"
    },
    {
      "inputs": [
        {
          "internalType": "uint256",
          "name": "_projectId",
          "type": "uint256"
        },
        {
          "internalType": "address[]",
          "name": "_ownedNFTAddresses",
          "type": "address[]"
        },
        {
          "internalType": "uint256[]",
          "name": "_ownedNFTProjectIds",
          "type": "uint256[]"
        }
      ],
      "name": "allowHoldersOfProjects",
      "outputs": [],
      "stateMutability": "nonpayable",
      "type": "function"
    },
    {
      "inputs": [
        {
          "internalType": "uint256",
          "name": "_projectId",
          "type": "uint256"
        },
        {
          "internalType": "address[]",
          "name": "_ownedNFTAddressesAdd",
          "type": "address[]"
        },
        {
          "internalType": "uint256[]",
          "name": "_ownedNFTProjectIdsAdd",
          "type": "uint256[]"
        },
        {
          "internalType": "address[]",
          "name": "_ownedNFTAddressesRemove",
          "type": "address[]"
        },
        {
          "internalType": "uint256[]",
          "name": "_ownedNFTProjectIdsRemove",
          "type": "uint256[]"
        }
      ],
      "name": "allowRemoveHoldersOfProjects",
      "outputs": [],
      "stateMutability": "nonpayable",
      "type": "function"
    },
    {
      "inputs": [
        {
          "internalType": "uint256",
          "name": "",
          "type": "uint256"
        },
        {
          "internalType": "address",
          "name": "",
          "type": "address"
        },
        {
          "internalType": "uint256",
          "name": "",
          "type": "uint256"
        }
      ],
      "name": "allowedProjectHolders",
      "outputs": [
        {
          "internalType": "bool",
          "name": "",
          "type": "bool"
        }
      ],
      "stateMutability": "view",
      "type": "function"
    },
    {
      "inputs": [],
      "name": "genArt721CoreAddress",
      "outputs": [
        {
          "internalType": "address",
          "name": "",
          "type": "address"
        }
      ],
      "stateMutability": "view",
      "type": "function"
    },
    {
      "inputs": [],
      "name": "getNumRegisteredNFTAddresses",
      "outputs": [
        {
          "internalType": "uint256",
          "name": "",
          "type": "uint256"
        }
      ],
      "stateMutability": "view",
      "type": "function"
    },
    {
      "inputs": [
        {
          "internalType": "uint256",
          "name": "_projectId",
          "type": "uint256"
        }
      ],
      "name": "getPriceInfo",
      "outputs": [
        {
          "internalType": "bool",
          "name": "isConfigured",
          "type": "bool"
        },
        {
          "internalType": "uint256",
          "name": "tokenPriceInWei",
          "type": "uint256"
        },
        {
          "internalType": "string",
          "name": "currencySymbol",
          "type": "string"
        },
        {
          "internalType": "address",
          "name": "currencyAddress",
          "type": "address"
        }
      ],
      "stateMutability": "view",
      "type": "function"
    },
    {
      "inputs": [
        {
          "internalType": "uint256",
          "name": "_index",
          "type": "uint256"
        }
      ],
      "name": "getRegisteredNFTAddressAt",
      "outputs": [
        {
          "internalType": "address",
          "name": "NFTAddress",
          "type": "address"
        }
      ],
      "stateMutability": "view",
      "type": "function"
    },
    {
      "inputs": [
        {
          "internalType": "uint256",
          "name": "_projectId",
          "type": "uint256"
        },
        {
          "internalType": "address",
          "name": "_ownedNFTAddress",
          "type": "address"
        },
        {
          "internalType": "uint256",
          "name": "_ownedNFTTokenId",
          "type": "uint256"
        }
      ],
      "name": "isAllowlistedNFT",
      "outputs": [
        {
          "internalType": "bool",
          "name": "",
          "type": "bool"
        }
      ],
      "stateMutability": "view",
      "type": "function"
    },
    {
      "inputs": [],
      "name": "minterFilterAddress",
      "outputs": [
        {
          "internalType": "address",
          "name": "",
          "type": "address"
        }
      ],
      "stateMutability": "view",
      "type": "function"
    },
    {
      "inputs": [],
      "name": "minterType",
      "outputs": [
        {
          "internalType": "string",
          "name": "",
          "type": "string"
        }
      ],
      "stateMutability": "view",
      "type": "function"
    },
    {
      "inputs": [
        {
          "internalType": "uint256",
          "name": "",
          "type": "uint256"
        }
      ],
      "name": "projectMaxHasBeenInvoked",
      "outputs": [
        {
          "internalType": "bool",
          "name": "",
          "type": "bool"
        }
      ],
      "stateMutability": "view",
      "type": "function"
    },
    {
      "inputs": [
        {
          "internalType": "uint256",
          "name": "",
          "type": "uint256"
        }
      ],
      "name": "projectMaxInvocations",
      "outputs": [
        {
          "internalType": "uint256",
          "name": "",
          "type": "uint256"
        }
      ],
      "stateMutability": "view",
      "type": "function"
    },
    {
      "inputs": [
        {
          "internalType": "uint256",
          "name": "_projectId",
          "type": "uint256"
        },
        {
          "internalType": "address",
          "name": "_ownedNFTAddress",
          "type": "address"
        },
        {
          "internalType": "uint256",
          "name": "_ownedNFTTokenId",
          "type": "uint256"
        }
      ],
      "name": "purchase",
      "outputs": [
        {
          "internalType": "uint256",
          "name": "tokenId",
          "type": "uint256"
        }
      ],
      "stateMutability": "payable",
      "type": "function"
    },
    {
      "inputs": [
        {
          "internalType": "uint256",
          "name": "",
          "type": "uint256"
        }
      ],
      "name": "purchase",
      "outputs": [
        {
          "internalType": "uint256",
          "name": "",
          "type": "uint256"
        }
      ],
      "stateMutability": "payable",
      "type": "function"
    },
    {
      "inputs": [
        {
          "internalType": "address",
          "name": "",
          "type": "address"
        },
        {
          "internalType": "uint256",
          "name": "",
          "type": "uint256"
        }
      ],
      "name": "purchaseTo",
      "outputs": [
        {
          "internalType": "uint256",
          "name": "",
          "type": "uint256"
        }
      ],
      "stateMutability": "payable",
      "type": "function"
    },
    {
      "inputs": [
        {
          "internalType": "address",
          "name": "_to",
          "type": "address"
        },
        {
          "internalType": "uint256",
          "name": "_projectId",
          "type": "uint256"
        },
        {
          "internalType": "address",
          "name": "_ownedNFTAddress",
          "type": "address"
        },
        {
          "internalType": "uint256",
          "name": "_ownedNFTTokenId",
          "type": "uint256"
        }
      ],
      "name": "purchaseTo",
      "outputs": [
        {
          "internalType": "uint256",
          "name": "tokenId",
          "type": "uint256"
        }
      ],
      "stateMutability": "payable",
      "type": "function"
    },
    {
      "inputs": [
        {
          "internalType": "address",
          "name": "_NFTAddress",
          "type": "address"
        }
      ],
      "name": "registerNFTAddress",
      "outputs": [],
      "stateMutability": "nonpayable",
      "type": "function"
    },
    {
      "inputs": [
        {
          "internalType": "uint256",
          "name": "_projectId",
          "type": "uint256"
        },
        {
          "internalType": "address[]",
          "name": "_ownedNFTAddresses",
          "type": "address[]"
        },
        {
          "internalType": "uint256[]",
          "name": "_ownedNFTProjectIds",
          "type": "uint256[]"
        }
      ],
      "name": "removeHoldersOfProjects",
      "outputs": [],
      "stateMutability": "nonpayable",
      "type": "function"
    },
    {
      "inputs": [
        {
          "internalType": "uint256",
          "name": "_projectId",
          "type": "uint256"
        }
      ],
      "name": "setProjectMaxInvocations",
      "outputs": [],
      "stateMutability": "nonpayable",
      "type": "function"
    },
    {
      "inputs": [
        {
          "internalType": "uint256",
          "name": "_projectId",
          "type": "uint256"
        }
      ],
      "name": "togglePurchaseToDisabled",
      "outputs": [],
      "stateMutability": "view",
      "type": "function"
    },
    {
      "inputs": [
        {
          "internalType": "address",
          "name": "_NFTAddress",
          "type": "address"
        }
      ],
      "name": "unregisterNFTAddress",
      "outputs": [],
      "stateMutability": "nonpayable",
      "type": "function"
    },
    {
      "inputs": [
        {
          "internalType": "uint256",
          "name": "_projectId",
          "type": "uint256"
        },
        {
          "internalType": "uint256",
          "name": "_pricePerTokenInWei",
          "type": "uint256"
        }
      ],
      "name": "updatePricePerTokenInWei",
      "outputs": [],
      "stateMutability": "nonpayable",
      "type": "function"
    }
  ],
  "bytecode": "0x6101006040523480156200001257600080fd5b506040516200269e3803806200269e833981016040819052620000359162000157565b600160009081556001600160a01b03808416608081905260a081905290831660c081905260e0819052604080516392a10f8360e01b81529051929391926392a10f8392600480840193602093929083900390910190829087803b1580156200009c57600080fd5b505af1158015620000b1573d6000803e3d6000fd5b505050506040513d601f19601f82011682018060405250810190620000d791906200018f565b6001600160a01b031614620001325760405162461bcd60e51b815260206004820152601860248201527f496c6c6567616c20636f6e74726163742070616972696e670000000000000000604482015260640160405180910390fd5b5050620001b4565b80516001600160a01b03811681146200015257600080fd5b919050565b600080604083850312156200016b57600080fd5b62000176836200013a565b915062000186602084016200013a565b90509250929050565b600060208284031215620001a257600080fd5b620001ad826200013a565b9392505050565b60805160a05160c05160e05161244e6200025060003960006110b7015260006104070152600081816104d5015281816105da015281816106e3015281816107ca015281816108dc015281816109fb01528181610cd5015281816112e0015281816113a401528181611578015281816116270152818161176701528181611822015281816118d90152611a260152600061035e015261244e6000f3fe6080604052600436106101355760003560e01c806390d355b7116100ab578063bc8ff0011161006f578063bc8ff001146103d5578063dd85582f146103f5578063e2849bd514610429578063e9d1e8ac14610449578063efef39a114610490578063f7bd4b881461049e57600080fd5b806390d355b71461030b57806392a10f831461034c57806399c0bbdc1461038d578063a647300c146103a2578063b00abb64146103c257600080fd5b806356690aaf116100fd57806356690aaf14610201578063650e5d6d1461023c5780636cb9b7ff1461024f578063774159c61461026f5780637994db09146102d8578063891407c0146102f857600080fd5b80630ed79c4e1461013a57806340d1397e1461015c578063462add461461017c5780634fd1b70e146101c15780634ff5759d146101e1575b600080fd5b34801561014657600080fd5b5061015a610155366004611cd9565b6104be565b005b34801561016857600080fd5b5061015a610177366004611cf6565b6105c2565b34801561018857600080fd5b506101ac610197366004611cf6565b60036020526000908152604090205460ff1681565b60405190151581526020015b60405180910390f35b3480156101cd57600080fd5b5061015a6101dc366004611e49565b6106cb565b3480156101ed57600080fd5b5061015a6101fc366004611cd9565b6107b3565b34801561020d57600080fd5b5061022e61021c366004611cf6565b60046020526000908152604090205481565b6040519081526020016101b8565b61022e61024a366004611f00565b6108ae565b34801561025b57600080fd5b5061015a61026a366004611f38565b6108c4565b34801561027b57600080fd5b506102c861028a366004611cf6565b60009081526006602090815260408083205460058352818420548251808401909352600383526208aa8960eb1b9383019390935260ff169391929091565b6040516101b89493929190611fb6565b3480156102e457600080fd5b5061015a6102f3366004611ff0565b6109e3565b61022e61030636600461205d565b610c66565b34801561031757600080fd5b506101ac610326366004611f00565b600760209081526000938452604080852082529284528284209052825290205460ff1681565b34801561035857600080fd5b506103807f000000000000000000000000000000000000000000000000000000000000000081565b6040516101b89190612089565b34801561039957600080fd5b5061022e610cac565b3480156103ae57600080fd5b5061015a6103bd366004611ff0565b610cbd565b61022e6103d036600461209d565b610ec2565b3480156103e157600080fd5b506103806103f0366004611cf6565b611271565b34801561040157600080fd5b506103807f000000000000000000000000000000000000000000000000000000000000000081565b34801561043557600080fd5b506101ac610444366004611f00565b611284565b34801561045557600080fd5b506104836040518060400160405280600e81526020016d04d696e746572486f6c64657256360941b81525081565b6040516101b891906120e5565b61022e610306366004611cf6565b3480156104aa57600080fd5b5061015a6104b9366004611cf6565b6112c9565b604051633af32abf60e01b81526001600160a01b037f00000000000000000000000000000000000000000000000000000000000000001690633af32abf9061050a903390600401612089565b60206040518083038186803b15801561052257600080fd5b505afa158015610536573d6000803e3d6000fd5b505050506040513d601f19601f8201168201806040525081019061055a919061210d565b61057f5760405162461bcd60e51b815260040161057690612128565b60405180910390fd5b61058a600182611463565b506040516001600160a01b038216907f7475e948f72f2714b1984b09949d13da2ddbae9f91e31da0faa380c0095b971c90600090a250565b60405163a47d29cb60e01b81526004810182905281907f00000000000000000000000000000000000000000000000000000000000000006001600160a01b03169063a47d29cb9060240160206040518083038186803b15801561062457600080fd5b505afa158015610638573d6000803e3d6000fd5b505050506040513d601f19601f8201168201806040525081019061065c9190612157565b6001600160a01b0316336001600160a01b03161461068c5760405162461bcd60e51b815260040161057690612174565b60405162461bcd60e51b81526020600482015260146024820152731058dd1a5bdb881b9bdd081cdd5c1c1bdc9d195960621b6044820152606401610576565b60405163a47d29cb60e01b81526004810186905285907f00000000000000000000000000000000000000000000000000000000000000006001600160a01b03169063a47d29cb9060240160206040518083038186803b15801561072d57600080fd5b505afa158015610741573d6000803e3d6000fd5b505050506040513d601f19601f820116820180604052508101906107659190612157565b6001600160a01b0316336001600160a01b0316146107955760405162461bcd60e51b815260040161057690612174565b6107a08686866109e3565b6107ab868484610cbd565b505050505050565b604051633af32abf60e01b81526001600160a01b037f00000000000000000000000000000000000000000000000000000000000000001690633af32abf906107ff903390600401612089565b60206040518083038186803b15801561081757600080fd5b505afa15801561082b573d6000803e3d6000fd5b505050506040513d601f19601f8201168201806040525081019061084f919061210d565b61086b5760405162461bcd60e51b815260040161057690612128565b61087660018261147f565b506040516001600160a01b038216907f16e28d6cac0e892c58cee90af3dc883220abe36e25201d7117c4f3aaabf1c3f090600090a250565b60006108bc33858585610ec2565b949350505050565b60405163a47d29cb60e01b81526004810183905282907f00000000000000000000000000000000000000000000000000000000000000006001600160a01b03169063a47d29cb9060240160206040518083038186803b15801561092657600080fd5b505afa15801561093a573d6000803e3d6000fd5b505050506040513d601f19601f8201168201806040525081019061095e9190612157565b6001600160a01b0316336001600160a01b03161461098e5760405162461bcd60e51b815260040161057690612174565b60008381526005602090815260408083208590556006909152808220805460ff1916600117905551839185917f26118a27aca826f829f3bfe21b140b4455c00b434849bd0da50d1e1a9720fb5c9190a3505050565b60405163a47d29cb60e01b81526004810184905283907f00000000000000000000000000000000000000000000000000000000000000006001600160a01b03169063a47d29cb9060240160206040518083038186803b158015610a4557600080fd5b505afa158015610a59573d6000803e3d6000fd5b505050506040513d601f19601f82011682018060405250810190610a7d9190612157565b6001600160a01b0316336001600160a01b031614610aad5760405162461bcd60e51b815260040161057690612174565b8151835114610afe5760405162461bcd60e51b815260206004820152601f60248201527f4c656e677468206f662061646420617272617973206d757374206d61746368006044820152606401610576565b60005b8351811015610c2557610b37848281518110610b1f57610b1f612199565b6020026020010151600161149490919063ffffffff16565b610b835760405162461bcd60e51b815260206004820152601d60248201527f4f6e6c792052656769737465726564204e4654204164647265737365730000006044820152606401610576565b6000858152600760205260408120855160019290879085908110610ba957610ba9612199565b60200260200101516001600160a01b03166001600160a01b031681526020019081526020016000206000858481518110610be557610be5612199565b6020026020010151815260200190815260200160002060006101000a81548160ff0219169083151502179055508080610c1d906121c5565b915050610b01565b50837fba2ec6d92cd62364c8e443b484b3e1f72f1ee9e161c1f871de1a60d83c89558b8484604051610c589291906121e0565b60405180910390a250505050565b60405162461bcd60e51b815260206004820152601860248201527704d75737420636c61696d204e4654206f776e6572736869760441b6044820152600090606401610576565b6000610cb860016114b6565b905090565b60405163a47d29cb60e01b81526004810184905283907f00000000000000000000000000000000000000000000000000000000000000006001600160a01b03169063a47d29cb9060240160206040518083038186803b158015610d1f57600080fd5b505afa158015610d33573d6000803e3d6000fd5b505050506040513d601f19601f82011682018060405250810190610d579190612157565b6001600160a01b0316336001600160a01b031614610d875760405162461bcd60e51b815260040161057690612174565b8151835114610de35760405162461bcd60e51b815260206004820152602260248201527f4c656e677468206f662072656d6f766520617272617973206d757374206d61746044820152610c6d60f31b6064820152608401610576565b60005b8351811015610e8f57600085815260076020526040812085518290879085908110610e1357610e13612199565b60200260200101516001600160a01b03166001600160a01b031681526020019081526020016000206000858481518110610e4f57610e4f612199565b6020026020010151815260200190815260200160002060006101000a81548160ff0219169083151502179055508080610e87906121c5565b915050610de6565b50837f2e3dced83b61aee20d72f4bdc7e6997a0f8616af4067d3aa92afe2b9b0532d1c8484604051610c589291906121e0565b600060026000541415610f175760405162461bcd60e51b815260206004820152601f60248201527f5265656e7472616e637947756172643a207265656e7472616e742063616c6c006044820152606401610576565b600260009081558481526003602052604090205460ff1615610f895760405162461bcd60e51b815260206004820152602560248201527f4d6178696d756d206e756d626572206f6620696e766f636174696f6e732072656044820152641858da195960da1b6064820152608401610576565b600084815260056020526040902054341015610fe75760405162461bcd60e51b815260206004820181905260248201527f4d7573742073656e64206d696e696d756d2076616c756520746f206d696e74216044820152606401610576565b60008481526006602052604090205460ff1661103c5760405162461bcd60e51b8152602060048201526014602482015273141c9a58d9481b9bdd0818dbdb999a59dd5c995960621b6044820152606401610576565b611047848484611284565b61108b5760405162461bcd60e51b81526020600482015260156024820152744f6e6c7920616c6c6f776c6973746564204e46547360581b6044820152606401610576565b604051630d4d151360e01b81526001600160a01b038681166004830152602482018690523360448301527f00000000000000000000000000000000000000000000000000000000000000001690630d4d151390606401602060405180830381600087803b1580156110fb57600080fd5b505af115801561110f573d6000803e3d6000fd5b505050506040513d601f19601f820116820180604052508101906111339190612264565b6000858152600460205260409020549091501580159061117857506000848152600460205260409020546111699060019061227d565b611176620f4240836122aa565b145b15611197576000848152600360205260409020805460ff191660011790555b6040516331a9108f60e11b81526004810183905233906001600160a01b03851690636352211e9060240160206040518083038186803b1580156111d957600080fd5b505afa1580156111ed573d6000803e3d6000fd5b505050506040513d601f19601f820116820180604052508101906112119190612157565b6001600160a01b03161461125b5760405162461bcd60e51b815260206004820152601160248201527013db9b1e481bdddb995c881bd988139195607a1b6044820152606401610576565b611264846114c0565b6001600055949350505050565b600061127e600183611b4c565b92915050565b600080611294620f4240846122c9565b60009586526007602090815260408088206001600160a01b039790971688529581528587209187525250505090205460ff1690565b604051633af32abf60e01b81526001600160a01b037f00000000000000000000000000000000000000000000000000000000000000001690633af32abf90611315903390600401612089565b60206040518083038186803b15801561132d57600080fd5b505afa158015611341573d6000803e3d6000fd5b505050506040513d601f19601f82011682018060405250810190611365919061210d565b6113815760405162461bcd60e51b815260040161057690612128565b6040516346161b1160e11b81526004810182905260009081906001600160a01b037f00000000000000000000000000000000000000000000000000000000000000001690638c2c36229060240160006040518083038186803b1580156113e657600080fd5b505afa1580156113fa573d6000803e3d6000fd5b505050506040513d6000823e601f3d908101601f1916820160405261142291908101906122dd565b50505060008981526004602052604090208390555091955093505050508082101561145e576000838152600360205260409020805460ff191690555b505050565b6000611478836001600160a01b038416611b58565b9392505050565b6000611478836001600160a01b038416611ba7565b6001600160a01b03811660009081526001830160205260408120541515611478565b600061127e825490565b3415611b4957600081815260056020526040812054906114e0823461227d565b9050801561157257604051600090339083908381818185875af1925050503d806000811461152a576040519150601f19603f3d011682016040523d82523d6000602084013e61152f565b606091505b50509050806115705760405162461bcd60e51b815260206004820152600d60248201526c1499599d5b990819985a5b1959609a1b6044820152606401610576565b505b600060647f00000000000000000000000000000000000000000000000000000000000000006001600160a01b0316634f029c396040518163ffffffff1660e01b815260040160206040518083038186803b1580156115cf57600080fd5b505afa1580156115e3573d6000803e3d6000fd5b505050506040513d601f19601f820116820180604052508101906116079190612264565b61161190856123e3565b61161b91906122c9565b905080156117545760007f00000000000000000000000000000000000000000000000000000000000000006001600160a01b0316633949f9066040518163ffffffff1660e01b815260040160206040518083038186803b15801561167e57600080fd5b505afa158015611692573d6000803e3d6000fd5b505050506040513d601f19601f820116820180604052508101906116b69190612157565b6001600160a01b03168260405160006040518083038185875af1925050503d8060008114611700576040519150601f19603f3d011682016040523d82523d6000602084013e611705565b606091505b50509050806117525760405162461bcd60e51b8152602060048201526019602482015278119bdd5b99185d1a5bdb881c185e5b595b9d0819985a5b1959603a1b6044820152606401610576565b505b6000611760828561227d565b90506000807f00000000000000000000000000000000000000000000000000000000000000006001600160a01b031663cc74234b886040518263ffffffff1660e01b81526004016117b391815260200190565b60206040518083038186803b1580156117cb57600080fd5b505afa1580156117df573d6000803e3d6000fd5b505050506040513d601f19601f820116820180604052508101906118039190612264565b11156119f95760405163cc74234b60e01b8152600481018790526064907f00000000000000000000000000000000000000000000000000000000000000006001600160a01b03169063cc74234b9060240160206040518083038186803b15801561186c57600080fd5b505afa158015611880573d6000803e3d6000fd5b505050506040513d601f19601f820116820180604052508101906118a49190612264565b6118ae90846123e3565b6118b891906122c9565b905080156119f957604051636bd8225b60e11b8152600481018790526000907f00000000000000000000000000000000000000000000000000000000000000006001600160a01b03169063d7b044b69060240160206040518083038186803b15801561192357600080fd5b505afa158015611937573d6000803e3d6000fd5b505050506040513d601f19601f8201168201806040525081019061195b9190612157565b6001600160a01b03168260405160006040518083038185875af1925050503d80600081146119a5576040519150601f19603f3d011682016040523d82523d6000602084013e6119aa565b606091505b50509050806119f75760405162461bcd60e51b81526020600482015260196024820152781059191a5d1a5bdb985b081c185e5b595b9d0819985a5b1959603a1b6044820152606401610576565b505b6000611a05828461227d565b90508015611b425760405163a47d29cb60e01b8152600481018890526000907f00000000000000000000000000000000000000000000000000000000000000006001600160a01b03169063a47d29cb9060240160206040518083038186803b158015611a7057600080fd5b505afa158015611a84573d6000803e3d6000fd5b505050506040513d601f19601f82011682018060405250810190611aa89190612157565b6001600160a01b03168260405160006040518083038185875af1925050503d8060008114611af2576040519150601f19603f3d011682016040523d82523d6000602084013e611af7565b606091505b5050905080611b405760405162461bcd60e51b8152602060048201526015602482015274105c9d1a5cdd081c185e5b595b9d0819985a5b1959605a1b6044820152606401610576565b505b5050505050505b50565b60006114788383611c9a565b6000818152600183016020526040812054611b9f5750815460018181018455600084815260208082209093018490558454848252828601909352604090209190915561127e565b50600061127e565b60008181526001830160205260408120548015611c90576000611bcb60018361227d565b8554909150600090611bdf9060019061227d565b9050818114611c44576000866000018281548110611bff57611bff612199565b9060005260206000200154905080876000018481548110611c2257611c22612199565b6000918252602080832090910192909255918252600188019052604090208390555b8554869080611c5557611c55612402565b60019003818190600052602060002001600090559055856001016000868152602001908152602001600020600090556001935050505061127e565b600091505061127e565b6000826000018281548110611cb157611cb1612199565b9060005260206000200154905092915050565b6001600160a01b0381168114611b4957600080fd5b600060208284031215611ceb57600080fd5b813561147881611cc4565b600060208284031215611d0857600080fd5b5035919050565b634e487b7160e01b600052604160045260246000fd5b604051601f8201601f1916810167ffffffffffffffff81118282101715611d4e57611d4e611d0f565b604052919050565b600067ffffffffffffffff821115611d7057611d70611d0f565b5060051b60200190565b600082601f830112611d8b57600080fd5b81356020611da0611d9b83611d56565b611d25565b82815260059290921b84018101918181019086841115611dbf57600080fd5b8286015b84811015611de3578035611dd681611cc4565b8352918301918301611dc3565b509695505050505050565b600082601f830112611dff57600080fd5b81356020611e0f611d9b83611d56565b82815260059290921b84018101918181019086841115611e2e57600080fd5b8286015b84811015611de35780358352918301918301611e32565b600080600080600060a08688031215611e6157600080fd5b85359450602086013567ffffffffffffffff80821115611e8057600080fd5b611e8c89838a01611d7a565b95506040880135915080821115611ea257600080fd5b611eae89838a01611dee565b94506060880135915080821115611ec457600080fd5b611ed089838a01611d7a565b93506080880135915080821115611ee657600080fd5b50611ef388828901611dee565b9150509295509295909350565b600080600060608486031215611f1557600080fd5b833592506020840135611f2781611cc4565b929592945050506040919091013590565b60008060408385031215611f4b57600080fd5b50508035926020909101359150565b60005b83811015611f75578181015183820152602001611f5d565b83811115611f84576000848401525b50505050565b60008151808452611fa2816020860160208601611f5a565b601f01601f19169290920160200192915050565b8415158152836020820152608060408201526000611fd76080830185611f8a565b905060018060a01b038316606083015295945050505050565b60008060006060848603121561200557600080fd5b83359250602084013567ffffffffffffffff8082111561202457600080fd5b61203087838801611d7a565b9350604086013591508082111561204657600080fd5b5061205386828701611dee565b9150509250925092565b6000806040838503121561207057600080fd5b823561207b81611cc4565b946020939093013593505050565b6001600160a01b0391909116815260200190565b600080600080608085870312156120b357600080fd5b84356120be81611cc4565b93506020850135925060408501356120d581611cc4565b9396929550929360600135925050565b6020815260006114786020830184611f8a565b8051801515811461210857600080fd5b919050565b60006020828403121561211f57600080fd5b611478826120f8565b60208082526015908201527413db9b1e4810dbdc99481dda1a5d195b1a5cdd1959605a1b604082015260600190565b60006020828403121561216957600080fd5b815161147881611cc4565b6020808252600b908201526a13db9b1e48105c9d1a5cdd60aa1b604082015260600190565b634e487b7160e01b600052603260045260246000fd5b634e487b7160e01b600052601160045260246000fd5b60006000198214156121d9576121d96121af565b5060010190565b604080825283519082018190526000906020906060840190828701845b828110156122225781516001600160a01b0316845292840192908401906001016121fd565b5050508381038285015284518082528583019183019060005b818110156122575783518352928401929184019160010161223b565b5090979650505050505050565b60006020828403121561227657600080fd5b5051919050565b60008282101561228f5761228f6121af565b500390565b634e487b7160e01b600052601260045260246000fd5b6000826122b9576122b9612294565b500690565b805161210881611cc4565b6000826122d8576122d8612294565b500490565b60008060008060008060008060006101208a8c0312156122fc57600080fd5b895161230781611cc4565b8099505060208a0151975060408a0151965060608a0151955061232c60808b016120f8565b945060a08a015161233c81611cc4565b60c08b015160e08c0151919550935067ffffffffffffffff8082111561236157600080fd5b818c0191508c601f83011261237557600080fd5b81518181111561238757612387611d0f565b61239a601f8201601f1916602001611d25565b91508082528d60208285010111156123b157600080fd5b6123c2816020840160208601611f5a565b5092506123d490506101008b016122be565b90509295985092959850929598565b60008160001904831182151516156123fd576123fd6121af565b500290565b634e487b7160e01b600052603160045260246000fdfea2646970667358221220ffda9a0916ba1cbff318d973e10cf0d1df10a86489cc893ffe86cafa7a4f9d8f64736f6c63430008090033",
  "linkReferences": {},
  "deployedLinkReferences": {}
}