{
  "_format": "hh-sol-artifact-1",
  "contractName": "GenArt721CoreV3_Engine_Flex",
  "sourceName": "contracts/engine/V3/GenArt721CoreV3_Engine_Flex.sol",
  "abi": [
    {
      "inputs": [
        {
          "internalType": "string",
          "name": "_tokenName",
          "type": "string"
        },
        {
          "internalType": "string",
          "name": "_tokenSymbol",
          "type": "string"
        },
        {
          "internalType": "address",
          "name": "_renderProviderAddress",
          "type": "address"
        },
        {
          "internalType": "address",
          "name": "_platformProviderAddress",
          "type": "address"
        },
        {
          "internalType": "address",
          "name": "_randomizerContract",
          "type": "address"
        },
        {
          "internalType": "address",
          "name": "_adminACLContract",
          "type": "address"
        },
        {
          "internalType": "uint248",
          "name": "_startingProjectId",
          "type": "uint248"
        },
        {
          "internalType": "bool",
          "name": "_autoApproveArtistSplitProposals",
          "type": "bool"
        },
        {
          "internalType": "address",
          "name": "_splitProviderAddress",
          "type": "address"
        },
        {
          "internalType": "bool",
          "name": "_nullPlatformProvider",
          "type": "bool"
        },
        {
          "internalType": "bool",
          "name": "_allowArtistProjectActivation",
          "type": "bool"
        }
      ],
      "stateMutability": "nonpayable",
      "type": "constructor"
    },
    {
      "inputs": [
        {
          "internalType": "enum IGenArt721CoreContractV3_Base.ErrorCodes",
          "name": "_errorCode",
          "type": "uint8"
        }
      ],
      "name": "GenArt721Error",
      "type": "error"
    },
    {
      "anonymous": false,
      "inputs": [
        {
          "indexed": true,
          "internalType": "uint256",
          "name": "_projectId",
          "type": "uint256"
        }
      ],
      "name": "AcceptedArtistAddressesAndSplits",
      "type": "event"
    },
    {
      "anonymous": false,
      "inputs": [
        {
          "indexed": true,
          "internalType": "address",
          "name": "owner",
          "type": "address"
        },
        {
          "indexed": true,
          "internalType": "address",
          "name": "approved",
          "type": "address"
        },
        {
          "indexed": true,
          "internalType": "uint256",
          "name": "tokenId",
          "type": "uint256"
        }
      ],
      "name": "Approval",
      "type": "event"
    },
    {
      "anonymous": false,
      "inputs": [
        {
          "indexed": true,
          "internalType": "address",
          "name": "owner",
          "type": "address"
        },
        {
          "indexed": true,
          "internalType": "address",
          "name": "operator",
          "type": "address"
        },
        {
          "indexed": false,
          "internalType": "bool",
          "name": "approved",
          "type": "bool"
        }
      ],
      "name": "ApprovalForAll",
      "type": "event"
    },
    {
      "anonymous": false,
      "inputs": [
        {
          "indexed": true,
          "internalType": "uint256",
          "name": "_projectId",
          "type": "uint256"
        },
        {
          "indexed": true,
          "internalType": "uint256",
          "name": "_index",
          "type": "uint256"
        }
      ],
      "name": "ExternalAssetDependencyRemoved",
      "type": "event"
    },
    {
      "anonymous": false,
      "inputs": [
        {
          "indexed": true,
          "internalType": "uint256",
          "name": "_projectId",
          "type": "uint256"
        },
        {
          "indexed": true,
          "internalType": "uint256",
          "name": "_index",
          "type": "uint256"
        },
        {
          "indexed": false,
          "internalType": "string",
          "name": "_cid",
          "type": "string"
        },
        {
          "indexed": false,
          "internalType": "enum IGenArt721CoreContractV3_Engine_Flex.ExternalAssetDependencyType",
          "name": "_dependencyType",
          "type": "uint8"
        },
        {
          "indexed": false,
          "internalType": "uint24",
          "name": "_externalAssetDependencyCount",
          "type": "uint24"
        }
      ],
      "name": "ExternalAssetDependencyUpdated",
      "type": "event"
    },
    {
      "anonymous": false,
      "inputs": [
        {
          "indexed": true,
          "internalType": "enum IGenArt721CoreContractV3_Engine_Flex.ExternalAssetDependencyType",
          "name": "_dependencyType",
          "type": "uint8"
        },
        {
          "indexed": false,
          "internalType": "string",
          "name": "_gatewayAddress",
          "type": "string"
        }
      ],
      "name": "GatewayUpdated",
      "type": "event"
    },
    {
      "anonymous": false,
      "inputs": [
        {
          "indexed": true,
          "internalType": "address",
          "name": "_to",
          "type": "address"
        },
        {
          "indexed": true,
          "internalType": "uint256",
          "name": "_tokenId",
          "type": "uint256"
        }
      ],
      "name": "Mint",
      "type": "event"
    },
    {
      "anonymous": false,
      "inputs": [
        {
          "indexed": true,
          "internalType": "address",
          "name": "_currentMinter",
          "type": "address"
        }
      ],
      "name": "MinterUpdated",
      "type": "event"
    },
    {
      "anonymous": false,
      "inputs": [
        {
          "indexed": true,
          "internalType": "address",
          "name": "previousOwner",
          "type": "address"
        },
        {
          "indexed": true,
          "internalType": "address",
          "name": "newOwner",
          "type": "address"
        }
      ],
      "name": "OwnershipTransferred",
      "type": "event"
    },
    {
      "anonymous": false,
      "inputs": [
        {
          "indexed": true,
          "internalType": "bytes32",
          "name": "_field",
          "type": "bytes32"
        }
      ],
      "name": "PlatformUpdated",
      "type": "event"
    },
    {
      "anonymous": false,
      "inputs": [
        {
          "indexed": true,
          "internalType": "uint256",
          "name": "_projectId",
          "type": "uint256"
        }
      ],
      "name": "ProjectExternalAssetDependenciesLocked",
      "type": "event"
    },
    {
      "anonymous": false,
      "inputs": [
        {
          "indexed": true,
          "internalType": "uint256",
          "name": "projectId",
          "type": "uint256"
        },
        {
          "indexed": true,
          "internalType": "address",
          "name": "royaltySplitter",
          "type": "address"
        }
      ],
      "name": "ProjectRoyaltySplitterUpdated",
      "type": "event"
    },
    {
      "anonymous": false,
      "inputs": [
        {
          "indexed": true,
          "internalType": "uint256",
          "name": "_projectId",
          "type": "uint256"
        },
        {
          "indexed": true,
          "internalType": "bytes32",
          "name": "_update",
          "type": "bytes32"
        }
      ],
      "name": "ProjectUpdated",
      "type": "event"
    },
    {
      "anonymous": false,
      "inputs": [
        {
          "indexed": true,
          "internalType": "uint256",
          "name": "_projectId",
          "type": "uint256"
        },
        {
          "indexed": false,
          "internalType": "address",
          "name": "_artistAddress",
          "type": "address"
        },
        {
          "indexed": false,
          "internalType": "address",
          "name": "_additionalPayeePrimarySales",
          "type": "address"
        },
        {
          "indexed": false,
          "internalType": "uint256",
          "name": "_additionalPayeePrimarySalesPercentage",
          "type": "uint256"
        },
        {
          "indexed": false,
          "internalType": "address",
          "name": "_additionalPayeeSecondarySales",
          "type": "address"
        },
        {
          "indexed": false,
          "internalType": "uint256",
          "name": "_additionalPayeeSecondarySalesPercentage",
          "type": "uint256"
        }
      ],
      "name": "ProposedArtistAddressesAndSplits",
      "type": "event"
    },
    {
      "anonymous": false,
      "inputs": [
        {
          "indexed": true,
          "internalType": "address",
          "name": "from",
          "type": "address"
        },
        {
          "indexed": true,
          "internalType": "address",
          "name": "to",
          "type": "address"
        },
        {
          "indexed": true,
          "internalType": "uint256",
          "name": "tokenId",
          "type": "uint256"
        }
      ],
      "name": "Transfer",
      "type": "event"
    },
    {
      "inputs": [
        {
          "internalType": "uint256",
          "name": "_projectId",
          "type": "uint256"
        }
      ],
      "name": "_projectIdToFinancials",
      "outputs": [
        {
          "internalType": "address payable",
          "name": "additionalPayeePrimarySales",
          "type": "address"
        },
        {
          "internalType": "uint8",
          "name": "secondaryMarketRoyaltyPercentage",
          "type": "uint8"
        },
        {
          "internalType": "address payable",
          "name": "additionalPayeeSecondarySales",
          "type": "address"
        },
        {
          "internalType": "uint8",
          "name": "additionalPayeeSecondarySalesPercentage",
          "type": "uint8"
        },
        {
          "internalType": "address payable",
          "name": "artistAddress",
          "type": "address"
        },
        {
          "internalType": "uint8",
          "name": "additionalPayeePrimarySalesPercentage",
          "type": "uint8"
        },
        {
          "internalType": "address",
          "name": "platformProviderSecondarySalesAddress",
          "type": "address"
        },
        {
          "internalType": "uint16",
          "name": "platformProviderSecondarySalesBPS",
          "type": "uint16"
        },
        {
          "internalType": "address",
          "name": "renderProviderSecondarySalesAddress",
          "type": "address"
        },
        {
          "internalType": "uint16",
          "name": "renderProviderSecondarySalesBPS",
          "type": "uint16"
        },
        {
          "internalType": "address",
          "name": "royaltySplitter",
          "type": "address"
        }
      ],
      "stateMutability": "view",
      "type": "function"
    },
    {
      "inputs": [
        {
          "internalType": "string",
          "name": "_projectName",
          "type": "string"
        },
        {
          "internalType": "address payable",
          "name": "_artistAddress",
          "type": "address"
        }
      ],
      "name": "addProject",
      "outputs": [],
      "stateMutability": "nonpayable",
      "type": "function"
    },
    {
      "inputs": [
        {
          "internalType": "uint256",
          "name": "_projectId",
          "type": "uint256"
        },
        {
          "internalType": "string",
          "name": "_cidOrData",
          "type": "string"
        },
        {
          "internalType": "enum IGenArt721CoreContractV3_Engine_Flex.ExternalAssetDependencyType",
          "name": "_dependencyType",
          "type": "uint8"
        }
      ],
      "name": "addProjectExternalAssetDependency",
      "outputs": [],
      "stateMutability": "nonpayable",
      "type": "function"
    },
    {
      "inputs": [
        {
          "internalType": "uint256",
          "name": "_projectId",
          "type": "uint256"
        },
        {
          "internalType": "string",
          "name": "_script",
          "type": "string"
        }
      ],
      "name": "addProjectScript",
      "outputs": [],
      "stateMutability": "nonpayable",
      "type": "function"
    },
    {
      "inputs": [
        {
          "internalType": "uint256",
          "name": "_projectId",
          "type": "uint256"
        },
        {
          "internalType": "bytes",
          "name": "_compressedScript",
          "type": "bytes"
        }
      ],
      "name": "addProjectScriptCompressed",
      "outputs": [],
      "stateMutability": "nonpayable",
      "type": "function"
    },
    {
      "inputs": [],
      "name": "admin",
      "outputs": [
        {
          "internalType": "address",
          "name": "",
          "type": "address"
        }
      ],
      "stateMutability": "view",
      "type": "function"
    },
    {
      "inputs": [
        {
          "internalType": "address",
          "name": "_sender",
          "type": "address"
        },
        {
          "internalType": "address",
          "name": "_contract",
          "type": "address"
        },
        {
          "internalType": "bytes4",
          "name": "_selector",
          "type": "bytes4"
        }
      ],
      "name": "adminACLAllowed",
      "outputs": [
        {
          "internalType": "bool",
          "name": "",
          "type": "bool"
        }
      ],
      "stateMutability": "nonpayable",
      "type": "function"
    },
    {
      "inputs": [],
      "name": "adminACLContract",
      "outputs": [
        {
          "internalType": "contract IAdminACLV0",
          "name": "",
          "type": "address"
        }
      ],
      "stateMutability": "view",
      "type": "function"
    },
    {
      "inputs": [
        {
          "internalType": "uint256",
          "name": "_projectId",
          "type": "uint256"
        },
        {
          "internalType": "address payable",
          "name": "_artistAddress",
          "type": "address"
        },
        {
          "internalType": "address payable",
          "name": "_additionalPayeePrimarySales",
          "type": "address"
        },
        {
          "internalType": "uint256",
          "name": "_additionalPayeePrimarySalesPercentage",
          "type": "uint256"
        },
        {
          "internalType": "address payable",
          "name": "_additionalPayeeSecondarySales",
          "type": "address"
        },
        {
          "internalType": "uint256",
          "name": "_additionalPayeeSecondarySalesPercentage",
          "type": "uint256"
        }
      ],
      "name": "adminAcceptArtistAddressesAndSplits",
      "outputs": [],
      "stateMutability": "nonpayable",
      "type": "function"
    },
    {
      "inputs": [],
      "name": "allowArtistProjectActivation",
      "outputs": [
        {
          "internalType": "bool",
          "name": "",
          "type": "bool"
        }
      ],
      "stateMutability": "view",
      "type": "function"
    },
    {
      "inputs": [
        {
          "internalType": "address",
          "name": "to",
          "type": "address"
        },
        {
          "internalType": "uint256",
          "name": "tokenId",
          "type": "uint256"
        }
      ],
      "name": "approve",
      "outputs": [],
      "stateMutability": "nonpayable",
      "type": "function"
    },
    {
      "inputs": [],
      "name": "artblocksDependencyRegistryAddress",
      "outputs": [
        {
          "internalType": "address",
          "name": "",
          "type": "address"
        }
      ],
      "stateMutability": "view",
      "type": "function"
    },
    {
      "inputs": [],
      "name": "artblocksOnChainGeneratorAddress",
      "outputs": [
        {
          "internalType": "address",
          "name": "",
          "type": "address"
        }
      ],
      "stateMutability": "view",
      "type": "function"
    },
    {
      "inputs": [],
      "name": "autoApproveArtistSplitProposals",
      "outputs": [
        {
          "internalType": "bool",
          "name": "",
          "type": "bool"
        }
      ],
      "stateMutability": "view",
      "type": "function"
    },
    {
      "inputs": [
        {
          "internalType": "address",
          "name": "owner",
          "type": "address"
        }
      ],
      "name": "balanceOf",
      "outputs": [
        {
          "internalType": "uint256",
          "name": "",
          "type": "uint256"
        }
      ],
      "stateMutability": "view",
      "type": "function"
    },
    {
      "inputs": [],
      "name": "coreType",
      "outputs": [
        {
          "internalType": "string",
          "name": "",
          "type": "string"
        }
      ],
      "stateMutability": "pure",
      "type": "function"
    },
    {
      "inputs": [],
      "name": "coreVersion",
      "outputs": [
        {
          "internalType": "string",
          "name": "",
          "type": "string"
        }
      ],
      "stateMutability": "pure",
      "type": "function"
    },
    {
      "inputs": [],
      "name": "defaultBaseURI",
      "outputs": [
        {
          "internalType": "string",
          "name": "",
          "type": "string"
        }
      ],
      "stateMutability": "view",
      "type": "function"
    },
    {
      "inputs": [],
      "name": "defaultPlatformProviderSecondarySalesAddress",
      "outputs": [
        {
          "internalType": "address payable",
          "name": "",
          "type": "address"
        }
      ],
      "stateMutability": "view",
      "type": "function"
    },
    {
      "inputs": [],
      "name": "defaultPlatformProviderSecondarySalesBPS",
      "outputs": [
        {
          "internalType": "uint256",
          "name": "",
          "type": "uint256"
        }
      ],
      "stateMutability": "view",
      "type": "function"
    },
    {
      "inputs": [],
      "name": "defaultRenderProviderSecondarySalesAddress",
      "outputs": [
        {
          "internalType": "address payable",
          "name": "",
          "type": "address"
        }
      ],
      "stateMutability": "view",
      "type": "function"
    },
    {
      "inputs": [],
      "name": "defaultRenderProviderSecondarySalesBPS",
      "outputs": [
        {
          "internalType": "uint256",
          "name": "",
          "type": "uint256"
        }
      ],
      "stateMutability": "view",
      "type": "function"
    },
    {
      "inputs": [],
      "name": "forbidNewProjects",
      "outputs": [],
      "stateMutability": "nonpayable",
      "type": "function"
    },
    {
      "inputs": [
        {
          "internalType": "uint256",
          "name": "tokenId",
          "type": "uint256"
        }
      ],
      "name": "getApproved",
      "outputs": [
        {
          "internalType": "address",
          "name": "",
          "type": "address"
        }
      ],
      "stateMutability": "view",
      "type": "function"
    },
    {
      "inputs": [
        {
          "internalType": "string",
          "name": "_script",
          "type": "string"
        }
      ],
      "name": "getCompressed",
      "outputs": [
        {
          "internalType": "bytes",
          "name": "",
          "type": "bytes"
        }
      ],
      "stateMutability": "pure",
      "type": "function"
    },
    {
      "inputs": [
        {
          "internalType": "uint256",
          "name": "_index",
          "type": "uint256"
        }
      ],
      "name": "getHistoricalRandomizerAt",
      "outputs": [
        {
          "internalType": "address",
          "name": "",
          "type": "address"
        }
      ],
      "stateMutability": "view",
      "type": "function"
    },
    {
      "inputs": [
        {
          "internalType": "uint256",
          "name": "_projectId",
          "type": "uint256"
        },
        {
          "internalType": "uint256",
          "name": "_price",
          "type": "uint256"
        }
      ],
      "name": "getPrimaryRevenueSplits",
      "outputs": [
        {
          "internalType": "uint256",
          "name": "renderProviderRevenue_",
          "type": "uint256"
        },
        {
          "internalType": "address payable",
          "name": "renderProviderAddress_",
          "type": "address"
        },
        {
          "internalType": "uint256",
          "name": "platformProviderRevenue_",
          "type": "uint256"
        },
        {
          "internalType": "address payable",
          "name": "platformProviderAddress_",
          "type": "address"
        },
        {
          "internalType": "uint256",
          "name": "artistRevenue_",
          "type": "uint256"
        },
        {
          "internalType": "address payable",
          "name": "artistAddress_",
          "type": "address"
        },
        {
          "internalType": "uint256",
          "name": "additionalPayeePrimaryRevenue_",
          "type": "uint256"
        },
        {
          "internalType": "address payable",
          "name": "additionalPayeePrimaryAddress_",
          "type": "address"
        }
      ],
      "stateMutability": "view",
      "type": "function"
    },
    {
      "inputs": [
        {
          "internalType": "address",
          "name": "owner",
          "type": "address"
        },
        {
          "internalType": "address",
          "name": "operator",
          "type": "address"
        }
      ],
      "name": "isApprovedForAll",
      "outputs": [
        {
          "internalType": "bool",
          "name": "",
          "type": "bool"
        }
      ],
      "stateMutability": "view",
      "type": "function"
    },
    {
      "inputs": [
        {
          "internalType": "address",
          "name": "_minter",
          "type": "address"
        }
      ],
      "name": "isMintWhitelisted",
      "outputs": [
        {
          "internalType": "bool",
          "name": "",
          "type": "bool"
        }
      ],
      "stateMutability": "view",
      "type": "function"
    },
    {
      "inputs": [
        {
          "internalType": "uint256",
          "name": "_projectId",
          "type": "uint256"
        }
      ],
      "name": "lockProjectExternalAssetDependencies",
      "outputs": [],
      "stateMutability": "nonpayable",
      "type": "function"
    },
    {
      "inputs": [
        {
          "internalType": "address",
          "name": "_to",
          "type": "address"
        },
        {
          "internalType": "uint256",
          "name": "_projectId",
          "type": "uint256"
        },
        {
          "internalType": "address",
          "name": "_by",
          "type": "address"
        }
      ],
      "name": "mint_Ecf",
      "outputs": [
        {
          "internalType": "uint256",
          "name": "_tokenId",
          "type": "uint256"
        }
      ],
      "stateMutability": "nonpayable",
      "type": "function"
    },
    {
      "inputs": [],
      "name": "minterContract",
      "outputs": [
        {
          "internalType": "address",
          "name": "",
          "type": "address"
        }
      ],
      "stateMutability": "view",
      "type": "function"
    },
    {
      "inputs": [],
      "name": "name",
      "outputs": [
        {
          "internalType": "string",
          "name": "",
          "type": "string"
        }
      ],
      "stateMutability": "view",
      "type": "function"
    },
    {
      "inputs": [],
      "name": "newProjectsForbidden",
      "outputs": [
        {
          "internalType": "bool",
          "name": "",
          "type": "bool"
        }
      ],
      "stateMutability": "view",
      "type": "function"
    },
    {
      "inputs": [],
      "name": "nextCoreContract",
      "outputs": [
        {
          "internalType": "address",
          "name": "",
          "type": "address"
        }
      ],
      "stateMutability": "view",
      "type": "function"
    },
    {
      "inputs": [],
      "name": "nextProjectId",
      "outputs": [
        {
          "internalType": "uint256",
          "name": "",
          "type": "uint256"
        }
      ],
      "stateMutability": "view",
      "type": "function"
    },
    {
      "inputs": [],
      "name": "nullPlatformProvider",
      "outputs": [
        {
          "internalType": "bool",
          "name": "",
          "type": "bool"
        }
      ],
      "stateMutability": "view",
      "type": "function"
    },
    {
      "inputs": [],
      "name": "numHistoricalRandomizers",
      "outputs": [
        {
          "internalType": "uint256",
          "name": "",
          "type": "uint256"
        }
      ],
      "stateMutability": "view",
      "type": "function"
    },
    {
      "inputs": [],
      "name": "owner",
      "outputs": [
        {
          "internalType": "address",
          "name": "",
          "type": "address"
        }
      ],
      "stateMutability": "view",
      "type": "function"
    },
    {
      "inputs": [
        {
          "internalType": "uint256",
          "name": "tokenId",
          "type": "uint256"
        }
      ],
      "name": "ownerOf",
      "outputs": [
        {
          "internalType": "address",
          "name": "",
          "type": "address"
        }
      ],
      "stateMutability": "view",
      "type": "function"
    },
    {
      "inputs": [],
      "name": "platformProviderPrimarySalesAddress",
      "outputs": [
        {
          "internalType": "address payable",
          "name": "",
          "type": "address"
        }
      ],
      "stateMutability": "view",
      "type": "function"
    },
    {
      "inputs": [],
      "name": "platformProviderPrimarySalesPercentage",
      "outputs": [
        {
          "internalType": "uint256",
          "name": "",
          "type": "uint256"
        }
      ],
      "stateMutability": "view",
      "type": "function"
    },
    {
      "inputs": [],
      "name": "preferredArweaveGateway",
      "outputs": [
        {
          "internalType": "string",
          "name": "",
          "type": "string"
        }
      ],
      "stateMutability": "view",
      "type": "function"
    },
    {
      "inputs": [],
      "name": "preferredIPFSGateway",
      "outputs": [
        {
          "internalType": "string",
          "name": "",
          "type": "string"
        }
      ],
      "stateMutability": "view",
      "type": "function"
    },
    {
      "inputs": [
        {
          "internalType": "uint256",
          "name": "_projectId",
          "type": "uint256"
        }
      ],
      "name": "projectDetails",
      "outputs": [
        {
          "internalType": "string",
          "name": "projectName",
          "type": "string"
        },
        {
          "internalType": "string",
          "name": "artist",
          "type": "string"
        },
        {
          "internalType": "string",
          "name": "description",
          "type": "string"
        },
        {
          "internalType": "string",
          "name": "website",
          "type": "string"
        },
        {
          "internalType": "string",
          "name": "license",
          "type": "string"
        }
      ],
      "stateMutability": "view",
      "type": "function"
    },
    {
      "inputs": [
        {
          "internalType": "uint256",
          "name": "_projectId",
          "type": "uint256"
        },
        {
          "internalType": "uint256",
          "name": "_index",
          "type": "uint256"
        }
      ],
      "name": "projectExternalAssetDependencyByIndex",
      "outputs": [
        {
          "components": [
            {
              "internalType": "string",
              "name": "cid",
              "type": "string"
            },
            {
              "internalType": "enum IGenArt721CoreContractV3_Engine_Flex.ExternalAssetDependencyType",
              "name": "dependencyType",
              "type": "uint8"
            },
            {
              "internalType": "address",
              "name": "bytecodeAddress",
              "type": "address"
            },
            {
              "internalType": "string",
              "name": "data",
              "type": "string"
            }
          ],
          "internalType": "struct IGenArt721CoreContractV3_Engine_Flex.ExternalAssetDependencyWithData",
          "name": "",
          "type": "tuple"
        }
      ],
      "stateMutability": "view",
      "type": "function"
    },
    {
      "inputs": [
        {
          "internalType": "uint256",
          "name": "_projectId",
          "type": "uint256"
        }
      ],
      "name": "projectExternalAssetDependencyCount",
      "outputs": [
        {
          "internalType": "uint256",
          "name": "",
          "type": "uint256"
        }
      ],
      "stateMutability": "view",
      "type": "function"
    },
    {
      "inputs": [
        {
          "internalType": "uint256",
          "name": "_projectId",
          "type": "uint256"
        }
      ],
      "name": "projectIdToArtistAddress",
      "outputs": [
        {
          "internalType": "address payable",
          "name": "",
          "type": "address"
        }
      ],
      "stateMutability": "view",
      "type": "function"
    },
    {
      "inputs": [
        {
          "internalType": "uint256",
          "name": "_projectId",
          "type": "uint256"
        }
      ],
      "name": "projectIdToFinancials",
      "outputs": [
        {
          "components": [
            {
              "internalType": "address payable",
              "name": "additionalPayeePrimarySales",
              "type": "address"
            },
            {
              "internalType": "uint8",
              "name": "secondaryMarketRoyaltyPercentage",
              "type": "uint8"
            },
            {
              "internalType": "address payable",
              "name": "additionalPayeeSecondarySales",
              "type": "address"
            },
            {
              "internalType": "uint8",
              "name": "additionalPayeeSecondarySalesPercentage",
              "type": "uint8"
            },
            {
              "internalType": "address payable",
              "name": "artistAddress",
              "type": "address"
            },
            {
              "internalType": "uint8",
              "name": "additionalPayeePrimarySalesPercentage",
              "type": "uint8"
            },
            {
              "internalType": "address",
              "name": "platformProviderSecondarySalesAddress",
              "type": "address"
            },
            {
              "internalType": "uint16",
              "name": "platformProviderSecondarySalesBPS",
              "type": "uint16"
            },
            {
              "internalType": "address",
              "name": "renderProviderSecondarySalesAddress",
              "type": "address"
            },
            {
              "internalType": "uint16",
              "name": "renderProviderSecondarySalesBPS",
              "type": "uint16"
            },
            {
              "internalType": "address",
              "name": "royaltySplitter",
              "type": "address"
            }
          ],
          "internalType": "struct IGenArt721CoreContractV3_ProjectFinance.ProjectFinance",
          "name": "",
          "type": "tuple"
        }
      ],
      "stateMutability": "view",
      "type": "function"
    },
    {
      "inputs": [
        {
          "internalType": "uint256",
          "name": "_projectId",
          "type": "uint256"
        }
      ],
      "name": "projectIdToSecondaryMarketRoyaltyPercentage",
      "outputs": [
        {
          "internalType": "uint256",
          "name": "",
          "type": "uint256"
        }
      ],
      "stateMutability": "view",
      "type": "function"
    },
    {
      "inputs": [
        {
          "internalType": "uint256",
          "name": "_projectId",
          "type": "uint256"
        },
        {
          "internalType": "uint256",
          "name": "_index",
          "type": "uint256"
        }
      ],
      "name": "projectScriptByIndex",
      "outputs": [
        {
          "internalType": "string",
          "name": "",
          "type": "string"
        }
      ],
      "stateMutability": "view",
      "type": "function"
    },
    {
      "inputs": [
        {
          "internalType": "uint256",
          "name": "_projectId",
          "type": "uint256"
        },
        {
          "internalType": "uint256",
          "name": "_index",
          "type": "uint256"
        }
      ],
      "name": "projectScriptBytecodeAddressByIndex",
      "outputs": [
        {
          "internalType": "address",
          "name": "",
          "type": "address"
        }
      ],
      "stateMutability": "view",
      "type": "function"
    },
    {
      "inputs": [
        {
          "internalType": "uint256",
          "name": "_projectId",
          "type": "uint256"
        }
      ],
      "name": "projectScriptDetails",
      "outputs": [
        {
          "internalType": "string",
          "name": "scriptTypeAndVersion",
          "type": "string"
        },
        {
          "internalType": "string",
          "name": "aspectRatio",
          "type": "string"
        },
        {
          "internalType": "uint256",
          "name": "scriptCount",
          "type": "uint256"
        }
      ],
      "stateMutability": "view",
      "type": "function"
    },
    {
      "inputs": [
        {
          "internalType": "uint256",
          "name": "_projectId",
          "type": "uint256"
        }
      ],
      "name": "projectStateData",
      "outputs": [
        {
          "internalType": "uint256",
          "name": "invocations",
          "type": "uint256"
        },
        {
          "internalType": "uint256",
          "name": "maxInvocations",
          "type": "uint256"
        },
        {
          "internalType": "bool",
          "name": "active",
          "type": "bool"
        },
        {
          "internalType": "bool",
          "name": "paused",
          "type": "bool"
        },
        {
          "internalType": "uint256",
          "name": "completedTimestamp",
          "type": "uint256"
        },
        {
          "internalType": "bool",
          "name": "locked",
          "type": "bool"
        }
      ],
      "stateMutability": "view",
      "type": "function"
    },
    {
      "inputs": [
        {
          "internalType": "uint256",
          "name": "_projectId",
          "type": "uint256"
        }
      ],
      "name": "projectURIInfo",
      "outputs": [
        {
          "internalType": "string",
          "name": "projectBaseURI",
          "type": "string"
        }
      ],
      "stateMutability": "view",
      "type": "function"
    },
    {
      "inputs": [
        {
          "internalType": "uint256",
          "name": "_projectId",
          "type": "uint256"
        },
        {
          "internalType": "address payable",
          "name": "_artistAddress",
          "type": "address"
        },
        {
          "internalType": "address payable",
          "name": "_additionalPayeePrimarySales",
          "type": "address"
        },
        {
          "internalType": "uint256",
          "name": "_additionalPayeePrimarySalesPercentage",
          "type": "uint256"
        },
        {
          "internalType": "address payable",
          "name": "_additionalPayeeSecondarySales",
          "type": "address"
        },
        {
          "internalType": "uint256",
          "name": "_additionalPayeeSecondarySalesPercentage",
          "type": "uint256"
        }
      ],
      "name": "proposeArtistPaymentAddressesAndSplits",
      "outputs": [],
      "stateMutability": "nonpayable",
      "type": "function"
    },
    {
      "inputs": [
        {
          "internalType": "uint256",
          "name": "",
          "type": "uint256"
        }
      ],
      "name": "proposedArtistAddressesAndSplitsHash",
      "outputs": [
        {
          "internalType": "bytes32",
          "name": "",
          "type": "bytes32"
        }
      ],
      "stateMutability": "view",
      "type": "function"
    },
    {
      "inputs": [],
      "name": "randomizerContract",
      "outputs": [
        {
          "internalType": "contract IRandomizer_V3CoreBase",
          "name": "",
          "type": "address"
        }
      ],
      "stateMutability": "view",
      "type": "function"
    },
    {
      "inputs": [
        {
          "internalType": "uint256",
          "name": "_projectId",
          "type": "uint256"
        },
        {
          "internalType": "uint256",
          "name": "_index",
          "type": "uint256"
        }
      ],
      "name": "removeProjectExternalAssetDependency",
      "outputs": [],
      "stateMutability": "nonpayable",
      "type": "function"
    },
    {
      "inputs": [
        {
          "internalType": "uint256",
          "name": "_projectId",
          "type": "uint256"
        }
      ],
      "name": "removeProjectLastScript",
      "outputs": [],
      "stateMutability": "nonpayable",
      "type": "function"
    },
    {
      "inputs": [],
      "name": "renderProviderPrimarySalesAddress",
      "outputs": [
        {
          "internalType": "address payable",
          "name": "",
          "type": "address"
        }
      ],
      "stateMutability": "view",
      "type": "function"
    },
    {
      "inputs": [],
      "name": "renderProviderPrimarySalesPercentage",
      "outputs": [
        {
          "internalType": "uint256",
          "name": "",
          "type": "uint256"
        }
      ],
      "stateMutability": "view",
      "type": "function"
    },
    {
      "inputs": [],
      "name": "renounceOwnership",
      "outputs": [],
      "stateMutability": "nonpayable",
      "type": "function"
    },
    {
      "inputs": [
        {
          "internalType": "uint256",
          "name": "_tokenId",
          "type": "uint256"
        },
        {
          "internalType": "uint256",
          "name": "_salePrice",
          "type": "uint256"
        }
      ],
      "name": "royaltyInfo",
      "outputs": [
        {
          "internalType": "address",
          "name": "receiver",
          "type": "address"
        },
        {
          "internalType": "uint256",
          "name": "royaltyAmount",
          "type": "uint256"
        }
      ],
      "stateMutability": "view",
      "type": "function"
    },
    {
      "inputs": [
        {
          "internalType": "address",
          "name": "from",
          "type": "address"
        },
        {
          "internalType": "address",
          "name": "to",
          "type": "address"
        },
        {
          "internalType": "uint256",
          "name": "tokenId",
          "type": "uint256"
        }
      ],
      "name": "safeTransferFrom",
      "outputs": [],
      "stateMutability": "nonpayable",
      "type": "function"
    },
    {
      "inputs": [
        {
          "internalType": "address",
          "name": "from",
          "type": "address"
        },
        {
          "internalType": "address",
          "name": "to",
          "type": "address"
        },
        {
          "internalType": "uint256",
          "name": "tokenId",
          "type": "uint256"
        },
        {
          "internalType": "bytes",
          "name": "data",
          "type": "bytes"
        }
      ],
      "name": "safeTransferFrom",
      "outputs": [],
      "stateMutability": "nonpayable",
      "type": "function"
    },
    {
      "inputs": [
        {
          "internalType": "address",
          "name": "operator",
          "type": "address"
        },
        {
          "internalType": "bool",
          "name": "approved",
          "type": "bool"
        }
      ],
      "name": "setApprovalForAll",
      "outputs": [],
      "stateMutability": "nonpayable",
      "type": "function"
    },
    {
      "inputs": [
        {
          "internalType": "uint256",
          "name": "_tokenId",
          "type": "uint256"
        },
        {
          "internalType": "bytes32",
          "name": "_hashSeed",
          "type": "bytes32"
        }
      ],
      "name": "setTokenHash_8PT",
      "outputs": [],
      "stateMutability": "nonpayable",
      "type": "function"
    },
    {
      "inputs": [],
      "name": "splitProvider",
      "outputs": [
        {
          "internalType": "contract ISplitProviderV0",
          "name": "",
          "type": "address"
        }
      ],
      "stateMutability": "view",
      "type": "function"
    },
    {
      "inputs": [],
      "name": "startingProjectId",
      "outputs": [
        {
          "internalType": "uint256",
          "name": "",
          "type": "uint256"
        }
      ],
      "stateMutability": "view",
      "type": "function"
    },
    {
      "inputs": [
        {
          "internalType": "bytes4",
          "name": "interfaceId",
          "type": "bytes4"
        }
      ],
      "name": "supportsInterface",
      "outputs": [
        {
          "internalType": "bool",
          "name": "",
          "type": "bool"
        }
      ],
      "stateMutability": "view",
      "type": "function"
    },
    {
      "inputs": [],
      "name": "symbol",
      "outputs": [
        {
          "internalType": "string",
          "name": "",
          "type": "string"
        }
      ],
      "stateMutability": "view",
      "type": "function"
    },
    {
      "inputs": [
        {
          "internalType": "uint256",
          "name": "_projectId",
          "type": "uint256"
        }
      ],
      "name": "syncProviderSecondaryForProjectToDefaults",
      "outputs": [],
      "stateMutability": "nonpayable",
      "type": "function"
    },
    {
      "inputs": [
        {
          "internalType": "uint256",
          "name": "_projectId",
          "type": "uint256"
        }
      ],
      "name": "toggleProjectIsActive",
      "outputs": [],
      "stateMutability": "nonpayable",
      "type": "function"
    },
    {
      "inputs": [
        {
          "internalType": "uint256",
          "name": "_projectId",
          "type": "uint256"
        }
      ],
      "name": "toggleProjectIsPaused",
      "outputs": [],
      "stateMutability": "nonpayable",
      "type": "function"
    },
    {
      "inputs": [
        {
          "internalType": "uint256",
          "name": "_tokenId",
          "type": "uint256"
        }
      ],
      "name": "tokenIdToHash",
      "outputs": [
        {
          "internalType": "bytes32",
          "name": "",
          "type": "bytes32"
        }
      ],
      "stateMutability": "view",
      "type": "function"
    },
    {
      "inputs": [
        {
          "internalType": "uint256",
          "name": "_tokenId",
          "type": "uint256"
        }
      ],
      "name": "tokenIdToHashSeed",
      "outputs": [
        {
          "internalType": "bytes12",
          "name": "",
          "type": "bytes12"
        }
      ],
      "stateMutability": "view",
      "type": "function"
    },
    {
      "inputs": [
        {
          "internalType": "uint256",
          "name": "_tokenId",
          "type": "uint256"
        }
      ],
      "name": "tokenIdToProjectId",
      "outputs": [
        {
          "internalType": "uint256",
          "name": "_projectId",
          "type": "uint256"
        }
      ],
      "stateMutability": "pure",
      "type": "function"
    },
    {
      "inputs": [
        {
          "internalType": "uint256",
          "name": "_tokenId",
          "type": "uint256"
        }
      ],
      "name": "tokenURI",
      "outputs": [
        {
          "internalType": "string",
          "name": "",
          "type": "string"
        }
      ],
      "stateMutability": "view",
      "type": "function"
    },
    {
      "inputs": [
        {
          "internalType": "address",
          "name": "from",
          "type": "address"
        },
        {
          "internalType": "address",
          "name": "to",
          "type": "address"
        },
        {
          "internalType": "uint256",
          "name": "tokenId",
          "type": "uint256"
        }
      ],
      "name": "transferFrom",
      "outputs": [],
      "stateMutability": "nonpayable",
      "type": "function"
    },
    {
      "inputs": [
        {
          "internalType": "address",
          "name": "newOwner",
          "type": "address"
        }
      ],
      "name": "transferOwnership",
      "outputs": [],
      "stateMutability": "nonpayable",
      "type": "function"
    },
    {
      "inputs": [
        {
          "internalType": "address",
          "name": "_artblocksDependencyRegistryAddress",
          "type": "address"
        }
      ],
      "name": "updateArtblocksDependencyRegistryAddress",
      "outputs": [],
      "stateMutability": "nonpayable",
      "type": "function"
    },
    {
      "inputs": [
        {
          "internalType": "address",
          "name": "_artblocksOnChainGeneratorAddress",
          "type": "address"
        }
      ],
      "name": "updateArtblocksOnChainGeneratorAddress",
      "outputs": [],
      "stateMutability": "nonpayable",
      "type": "function"
    },
    {
      "inputs": [
        {
          "internalType": "string",
          "name": "_gateway",
          "type": "string"
        }
      ],
      "name": "updateArweaveGateway",
      "outputs": [],
      "stateMutability": "nonpayable",
      "type": "function"
    },
    {
      "inputs": [
        {
          "internalType": "string",
          "name": "_defaultBaseURI",
          "type": "string"
        }
      ],
      "name": "updateDefaultBaseURI",
      "outputs": [],
      "stateMutability": "nonpayable",
      "type": "function"
    },
    {
      "inputs": [
        {
          "internalType": "string",
          "name": "_gateway",
          "type": "string"
        }
      ],
      "name": "updateIPFSGateway",
      "outputs": [],
      "stateMutability": "nonpayable",
      "type": "function"
    },
    {
      "inputs": [
        {
          "internalType": "address",
          "name": "_address",
          "type": "address"
        }
      ],
      "name": "updateMinterContract",
      "outputs": [],
      "stateMutability": "nonpayable",
      "type": "function"
    },
    {
      "inputs": [
        {
          "internalType": "address",
          "name": "_nextCoreContract",
          "type": "address"
        }
      ],
      "name": "updateNextCoreContract",
      "outputs": [],
      "stateMutability": "nonpayable",
      "type": "function"
    },
    {
      "inputs": [
        {
          "internalType": "uint256",
          "name": "_projectId",
          "type": "uint256"
        },
        {
          "internalType": "address payable",
          "name": "_artistAddress",
          "type": "address"
        }
      ],
      "name": "updateProjectArtistAddress",
      "outputs": [],
      "stateMutability": "nonpayable",
      "type": "function"
    },
    {
      "inputs": [
        {
          "internalType": "uint256",
          "name": "_projectId",
          "type": "uint256"
        },
        {
          "internalType": "string",
          "name": "_projectArtistName",
          "type": "string"
        }
      ],
      "name": "updateProjectArtistName",
      "outputs": [],
      "stateMutability": "nonpayable",
      "type": "function"
    },
    {
      "inputs": [
        {
          "internalType": "uint256",
          "name": "_projectId",
          "type": "uint256"
        },
        {
          "internalType": "string",
          "name": "_aspectRatio",
          "type": "string"
        }
      ],
      "name": "updateProjectAspectRatio",
      "outputs": [],
      "stateMutability": "nonpayable",
      "type": "function"
    },
    {
      "inputs": [
        {
          "internalType": "uint256",
          "name": "_projectId",
          "type": "uint256"
        },
        {
          "internalType": "string",
          "name": "_newBaseURI",
          "type": "string"
        }
      ],
      "name": "updateProjectBaseURI",
      "outputs": [],
      "stateMutability": "nonpayable",
      "type": "function"
    },
    {
      "inputs": [
        {
          "internalType": "uint256",
          "name": "_projectId",
          "type": "uint256"
        },
        {
          "internalType": "string",
          "name": "_projectDescription",
          "type": "string"
        }
      ],
      "name": "updateProjectDescription",
      "outputs": [],
      "stateMutability": "nonpayable",
      "type": "function"
    },
    {
      "inputs": [
        {
          "internalType": "uint256",
          "name": "_projectId",
          "type": "uint256"
        },
        {
          "internalType": "uint256",
          "name": "_index",
          "type": "uint256"
        },
        {
          "internalType": "string",
          "name": "_cidOrData",
          "type": "string"
        },
        {
          "internalType": "enum IGenArt721CoreContractV3_Engine_Flex.ExternalAssetDependencyType",
          "name": "_dependencyType",
          "type": "uint8"
        }
      ],
      "name": "updateProjectExternalAssetDependency",
      "outputs": [],
      "stateMutability": "nonpayable",
      "type": "function"
    },
    {
      "inputs": [
        {
          "internalType": "uint256",
          "name": "_projectId",
          "type": "uint256"
        },
        {
          "internalType": "string",
          "name": "_projectLicense",
          "type": "string"
        }
      ],
      "name": "updateProjectLicense",
      "outputs": [],
      "stateMutability": "nonpayable",
      "type": "function"
    },
    {
      "inputs": [
        {
          "internalType": "uint256",
          "name": "_projectId",
          "type": "uint256"
        },
        {
          "internalType": "uint24",
          "name": "_maxInvocations",
          "type": "uint24"
        }
      ],
      "name": "updateProjectMaxInvocations",
      "outputs": [],
      "stateMutability": "nonpayable",
      "type": "function"
    },
    {
      "inputs": [
        {
          "internalType": "uint256",
          "name": "_projectId",
          "type": "uint256"
        },
        {
          "internalType": "string",
          "name": "_projectName",
          "type": "string"
        }
      ],
      "name": "updateProjectName",
      "outputs": [],
      "stateMutability": "nonpayable",
      "type": "function"
    },
    {
      "inputs": [
        {
          "internalType": "uint256",
          "name": "_projectId",
          "type": "uint256"
        },
        {
          "internalType": "uint256",
          "name": "_scriptId",
          "type": "uint256"
        },
        {
          "internalType": "string",
          "name": "_script",
          "type": "string"
        }
      ],
      "name": "updateProjectScript",
      "outputs": [],
      "stateMutability": "nonpayable",
      "type": "function"
    },
    {
      "inputs": [
        {
          "internalType": "uint256",
          "name": "_projectId",
          "type": "uint256"
        },
        {
          "internalType": "uint256",
          "name": "_scriptId",
          "type": "uint256"
        },
        {
          "internalType": "bytes",
          "name": "_compressedScript",
          "type": "bytes"
        }
      ],
      "name": "updateProjectScriptCompressed",
      "outputs": [],
      "stateMutability": "nonpayable",
      "type": "function"
    },
    {
      "inputs": [
        {
          "internalType": "uint256",
          "name": "_projectId",
          "type": "uint256"
        },
        {
          "internalType": "bytes32",
          "name": "_scriptTypeAndVersion",
          "type": "bytes32"
        }
      ],
      "name": "updateProjectScriptType",
      "outputs": [],
      "stateMutability": "nonpayable",
      "type": "function"
    },
    {
      "inputs": [
        {
          "internalType": "uint256",
          "name": "_projectId",
          "type": "uint256"
        },
        {
          "internalType": "uint256",
          "name": "_secondMarketRoyalty",
          "type": "uint256"
        }
      ],
      "name": "updateProjectSecondaryMarketRoyaltyPercentage",
      "outputs": [],
      "stateMutability": "nonpayable",
      "type": "function"
    },
    {
      "inputs": [
        {
          "internalType": "uint256",
          "name": "_projectId",
          "type": "uint256"
        },
        {
          "internalType": "string",
          "name": "_projectWebsite",
          "type": "string"
        }
      ],
      "name": "updateProjectWebsite",
      "outputs": [],
      "stateMutability": "nonpayable",
      "type": "function"
    },
    {
      "inputs": [
        {
          "internalType": "uint256",
          "name": "_defaultRenderProviderSecondarySalesBPS",
          "type": "uint256"
        },
        {
          "internalType": "uint256",
          "name": "_defaultPlatformProviderSecondarySalesBPS",
          "type": "uint256"
        }
      ],
      "name": "updateProviderDefaultSecondarySalesBPS",
      "outputs": [],
      "stateMutability": "nonpayable",
      "type": "function"
    },
    {
      "inputs": [
        {
          "internalType": "uint256",
          "name": "renderProviderPrimarySalesPercentage_",
          "type": "uint256"
        },
        {
          "internalType": "uint256",
          "name": "platformProviderPrimarySalesPercentage_",
          "type": "uint256"
        }
      ],
      "name": "updateProviderPrimarySalesPercentages",
      "outputs": [],
      "stateMutability": "nonpayable",
      "type": "function"
    },
    {
      "inputs": [
        {
          "internalType": "address payable",
          "name": "_renderProviderPrimarySalesAddress",
          "type": "address"
        },
        {
          "internalType": "address payable",
          "name": "_defaultRenderProviderSecondarySalesAddress",
          "type": "address"
        },
        {
          "internalType": "address payable",
          "name": "_platformProviderPrimarySalesAddress",
          "type": "address"
        },
        {
          "internalType": "address payable",
          "name": "_defaultPlatformProviderSecondarySalesAddress",
          "type": "address"
        }
      ],
      "name": "updateProviderSalesAddresses",
      "outputs": [],
      "stateMutability": "nonpayable",
      "type": "function"
    },
    {
      "inputs": [
        {
          "internalType": "address",
          "name": "_randomizerAddress",
          "type": "address"
        }
      ],
      "name": "updateRandomizerAddress",
      "outputs": [],
      "stateMutability": "nonpayable",
      "type": "function"
    },
    {
      "inputs": [
        {
          "internalType": "address",
          "name": "_splitProviderAddress",
          "type": "address"
        }
      ],
      "name": "updateSplitProvider",
      "outputs": [],
      "stateMutability": "nonpayable",
      "type": "function"
    }
  ],
  "bytecode": "0x6101006040526010805460ff60a01b19908116600560a11b90811790925560118054909116909117905560fa6013819055601555601a80546001600160881b0319167014303132333435363738396162636465661790553480156200006357600080fd5b5060405162006a9538038062006a9583398101604081905262000086916200088e565b8a8a600062000096838262000a3a565b506001620000a5828262000a3a565b505050620000c2620000bc620001e060201b60201c565b620001e4565b620000cd8962000211565b8115620000e7576011805460ff60a01b1916905560006015555b620000f28762000211565b620000fd836200024a565b620001088662000211565b83151560a05281151560c05280151560e0526001600160f81b0385166080526200013589808a80620002b9565b62000140876200038c565b6200014b86620001e4565b620001826200015a30620003ef565b6040516020016200016c919062000b06565b60408051601f198184030181529190526200041b565b601780547fff00000000000000000000000000000000000000000000000000000000000000166001600160f81b038716179055600060405160008051602062006a7583398151915290600090a2505050505050505050505062000c2f565b3390565b620001ef8162000432565b600c80546001600160a01b0319166001600160a01b0392909216919091179055565b6001600160a01b0381166200024757600060405163d327ad1b60e01b81526004016200023e919062000b58565b60405180910390fd5b50565b6200025d81631718245360e21b62000484565b6200028057602460405163d327ad1b60e01b81526004016200023e919062000b58565b601980546001600160a01b0319166001600160a01b038316179055600a5b60405160008051602062006a7583398151915290600090a250565b60c051156200030c576001600160a01b038216151580620002e257506001600160a01b03811615155b156200030657602560405163d327ad1b60e01b81526004016200023e919062000b58565b62000322565b620003178262000211565b620003228162000211565b601180546001600160a01b038085166001600160a01b03199283161790925560148054848416908316179055601080548784169083161790556012805492861692909116919091179055600760405160008051602062006a7583398151915290600090a250505050565b600a80546001600160a01b0383166001600160a01b03199182168117909255600b80546001810182556000919091527f0175b7a638427703f0dbe7bb9bbf987a2551717b34e79f33b5b1008d1fa01db9018054909116909117905560036200029e565b601a5460609062000415906001600160a01b03841690600160801b900460ff16620004ac565b92915050565b601862000429828262000a3a565b5060026200029e565b600680546001600160a01b038381166001600160a01b0319831681179093556040519116919082907f8be0079c531659141344cd1fd0a4f28419497f9722a3daafe3b4186f6b6457e090600090a35050565b6000620004918362000657565b8015620004a55750620004a583836200068f565b9392505050565b60606000620004bd83600262000b97565b620004ca90600262000bb1565b6001600160401b03811115620004e457620004e462000785565b6040519080825280601f01601f1916602001820160405280156200050f576020820181803683370190505b509050600360fc1b816000815181106200052d576200052d62000bc7565b60200101906001600160f81b031916908160001a905350600f60fb1b816001815181106200055f576200055f62000bc7565b60200101906001600160f81b031916908160001a90535060006200058584600262000b97565b6200059290600162000bb1565b90505b60018111156200060657601a5460801b600f861660108110620005bc57620005bc62000bc7565b1a60f81b828281518110620005d557620005d562000bc7565b60200101906001600160f81b031916908160001a90535060049490941c93620005fe8162000bdd565b905062000595565b508315620004a55760405162461bcd60e51b815260206004820152601760248201527f686578206c656e67746820696e73756666696369656e7400000000000000000060448201526064016200023e565b60006200066c826301ffc9a760e01b6200068f565b801562000415575062000688826001600160e01b03196200068f565b1592915050565b604080516001600160e01b0319831660248083019190915282518083039091018152604490910182526020810180516001600160e01b03166301ffc9a760e01b179052905160009190829081906001600160a01b0387169061753090620006f890869062000bf7565b6000604051808303818686fa925050503d806000811462000736576040519150601f19603f3d011682016040523d82523d6000602084013e6200073b565b606091505b509150915060208151101562000758576000935050505062000415565b8180156200077b575060008180602001905181019062000779919062000c15565b115b9695505050505050565b634e487b7160e01b600052604160045260246000fd5b60005b83811015620007b85781810151838201526020016200079e565b50506000910152565b600082601f830112620007d357600080fd5b81516001600160401b0380821115620007f057620007f062000785565b604051601f8301601f19908116603f011681019082821181831017156200081b576200081b62000785565b816040528381528660208588010111156200083557600080fd5b6200077b8460208301602089016200079b565b80516001600160a01b03811681146200086057600080fd5b919050565b80516001600160f81b03811681146200086057600080fd5b805180151581146200086057600080fd5b60008060008060008060008060008060006101608c8e031215620008b157600080fd5b8b516001600160401b03811115620008c857600080fd5b620008d68e828f01620007c1565b60208e0151909c5090506001600160401b03811115620008f557600080fd5b620009038e828f01620007c1565b9a50506200091460408d0162000848565b98506200092460608d0162000848565b97506200093460808d0162000848565b96506200094460a08d0162000848565b95506200095460c08d0162000865565b94506200096460e08d016200087d565b9350620009756101008d0162000848565b9250620009866101208d016200087d565b9150620009976101408d016200087d565b90509295989b509295989b9093969950565b600181811c90821680620009be57607f821691505b602082108103620009df57634e487b7160e01b600052602260045260246000fd5b50919050565b601f82111562000a35576000816000526020600020601f850160051c8101602086101562000a105750805b601f850160051c820191505b8181101562000a315782815560010162000a1c565b5050505b505050565b81516001600160401b0381111562000a565762000a5662000785565b62000a6e8162000a678454620009a9565b84620009e5565b602080601f83116001811462000aa6576000841562000a8d5750858301515b600019600386901b1c1916600185901b17855562000a31565b600085815260208120601f198616915b8281101562000ad75788860151825594840194600190910190840162000ab6565b508582101562000af65787850151600019600388901b60f8161c191681555b5050505050600190811b01905550565b7f68747470733a2f2f746f6b656e2e617274626c6f636b732e696f2f000000000081526000825162000b4081601b8501602087016200079b565b602f60f81b601b939091019283015250601c01919050565b602081016026831062000b7b57634e487b7160e01b600052602160045260246000fd5b91905290565b634e487b7160e01b600052601160045260246000fd5b808202811582820484141762000415576200041562000b81565b8082018082111562000415576200041562000b81565b634e487b7160e01b600052603260045260246000fd5b60008162000bef5762000bef62000b81565b506000190190565b6000825162000c0b8184602087016200079b565b9190910192915050565b60006020828403121562000c2857600080fd5b5051919050565b60805160a05160c05160e051615de262000c9360003960008181610e820152613533015260008181610a7601528181611b30015281816131910152613ded015260008181610ef50152611dfa015260008181610fcb01526140e10152615de26000f3fe608060405234801561001057600080fd5b50600436106105155760003560e01c8063801aa941116102b1578063b7b04fae11610173578063db2ff861116100df578063db2ff86114610eca578063e32551e714610edd578063e6032df214610ef0578063e935b7b114610f17578063e985e9c514610f28578063eb9cd5d414610f3b578063ed8abfda14610f5d578063eef719a414610f87578063f23f702114610f90578063f2fde38b14610fa3578063f6cd39e314610fb6578063f851a44014610fbe578063f893c07b14610fc6578063ffd43f6514610fed57600080fd5b8063b7b04fae14610d4c578063b7ba527d14610d5f578063b88d4fde14610d67578063b971136814610d7a578063ba3c234514610d82578063bb20e13514610d95578063bd3d10e714610e31578063c34a03b514610e44578063c87b56dd14610e57578063cc90e72514610e6a578063ce90652014610e7d578063d03c390c14610ea4578063d50f513814610eb757600080fd5b8063a3b2cca61161021d578063a3b2cca614610c24578063a47d29cb14610c37578063abcbb7b414610c63578063ac11fa1c14610c6b578063acad012414610c8b578063acd4c66f14610c9e578063ad0305ce14610cb0578063ad28329014610cd2578063ad576c4514610ce5578063ae45ad9814610cf8578063b1656ba314610d00578063b168762214610d13578063b202b56514610d26578063b75395e014610d3957600080fd5b8063801aa94114610ac65780638639415b14610ad95780638997618f14610b345780638c3c9cdd14610b475780638da5cb5b14610b5a5780638dd91a5614610b6257806392f0023314610b865780639523751714610b9957806395d89b4114610bac5780639a02e4fa14610bb45780639d97f4a014610beb578063a11ec70a14610bfe578063a22cb46514610c1157600080fd5b80632b274166116103fa5780635119d04b116103665780635119d04b146109975780635464c309146109a05780635508fd52146109b357806357a8e574146109c757806358b9a5a9146109da578063621a1f7414610a125780636352211e14610a2557806366e4623714610a3857806369d14faf14610a4b5780636c907b7f14610a5e5780636ddba41114610a7157806370a0823114610a98578063715018a614610aab57806376ee6fab14610ab357600080fd5b80632b274166146108ac5780632b65e67d146108bf5780632d9c0205146108d257806330ef4c5f146108e5578063329dab73146108f757806336c7c12c1461090a578063378599631461091d57806337fbc96514610930578063398a2895146109435780633e48e8481461095657806342842e0e14610969578063483372821461097c5780634e1d64af1461098f57600080fd5b80611e3c1461051a5780615de51461052f5780630132c6971461055557806301856fd41461056857806301ffc9a71461057b57806304143a5c1461059e57806306fdde03146105a6578063081812fc146105bb578063095ea7b3146105db5780630a1df77a146105ee5780630d170673146107195780630e79c9281461072c5780630ea5613f1461073f57806310a9ef181461078957806317df53661461079c5780631ab6014c146107af5780631b689c0b146107c25780631c05cad7146107d55780631e9bef46146107e85780632302cbda146107fb578063230448b11461080e57806323b872dd1461082157806325b75d68146108345780632642c6b61461084757806327df6c1a146108675780632a55205a1461087a575b600080fd5b61052d610528366004614ae8565b611000565b005b61054261053d366004614b1f565b6110c8565b6040519081526020015b60405180910390f35b61052d610563366004614b61565b6112c8565b61052d610576366004614ae8565b61138f565b61058e610589366004614baf565b61140e565b604051901515815260200161054c565b61052d611439565b6105ae611481565b60405161054c9190614c1c565b6105ce6105c9366004614c2f565b611513565b60405161054c9190614c55565b61052d6105e9366004614c69565b61153a565b61070c6105fc366004614c2f565b6040805161016081018252600080825260208201819052918101829052606081018290526080810182905260a0810182905260c0810182905260e0810182905261010081018290526101208101829052610140810191909152506000908152600e602090815260409182902082516101608101845281546001600160a01b03808216835260ff600160a01b9283900481169584019590955260018401548082169684019690965294819004841660608301526002830154808616608084015281900490931660a0820152600382015480851660c083015261ffff90849004811660e08301526004830154808616610100840152939093049092166101208301526005015490911661014082015290565b60405161054c9190614c95565b61052d610727366004614e61565b61164f565b61052d61073a366004614e61565b6116ae565b61075261074d366004614c2f565b611807565b60408051968752602087019590955292151593850193909352151560608401526080830191909152151560a082015260c00161054c565b61052d610797366004614eb4565b61186a565b6008546105ce906001600160a01b031681565b6011546105ce906001600160a01b031681565b6105426107d0366004614c2f565b6118ee565b61052d6107e3366004614f16565b6118fd565b600c546105ce906001600160a01b031681565b61052d610809366004614f67565b61192b565b61058e61081c366004614f9b565b611950565b61052d61082f366004614fdb565b6119fc565b61052d610842366004614e61565b611a2d565b61085a610855366004614ae8565b611a73565b60405161054c9190615046565b61052d610875366004614ae8565b611b1e565b61088d610888366004614ae8565b611bd2565b604080516001600160a01b03909316835260208301919091520161054c565b61052d6108ba3660046150b0565b611c9e565b61052d6108cd3660046150cd565b611cef565b6105ae6108e0366004614c2f565b611f88565b601154600160a01b900460ff16610542565b61052d610905366004615134565b61202d565b600a546105ce906001600160a01b031681565b61052d61092b366004614e61565b6120e6565b6019546105ce906001600160a01b031681565b61052d610951366004614c2f565b612112565b61052d610964366004614e61565b6121cd565b61052d610977366004614fdb565b612202565b61052d61098a3660046150b0565b61221d565b6105ae612280565b61054260155481565b61052d6109ae366004615183565b612299565b60175461058e90600160f81b900460ff1681565b6007546105ce906001600160a01b031681565b6105ce6109e8366004614ae8565b6000918252600d60209081526040808420928452600990920190529020546001600160a01b031690565b610542610a20366004614c2f565b612316565b6105ce610a33366004614c2f565b612378565b61052d610a463660046151f4565b6123ad565b61052d610a59366004615243565b61242e565b61052d610a6c3660046150b0565b61248b565b61058e7f000000000000000000000000000000000000000000000000000000000000000081565b610542610aa63660046150b0565b6124ad565b61052d612533565b61052d610ac13660046150cd565b61254b565b6014546105ce906001600160a01b031681565b610aec610ae7366004614ae8565b6126f1565b604080519889526001600160a01b0397881660208a015288019590955292851660608701526080860191909152831660a085015260c08401521660e08201526101000161054c565b6009546105ce906001600160a01b031681565b6105ae610b55366004614ae8565b6127fa565b6105ce612859565b610b75610b70366004614c2f565b61286d565b60405161054c959493929190615268565b6016546105ce906001600160a01b031681565b61052d610ba73660046150b0565b612b0a565b6105ae612b45565b610bde610bc2366004614c2f565b600090815260026020526040902054600160a01b900460a01b90565b60405161054c91906152d5565b61052d610bf93660046150b0565b612b54565b61052d610c0c366004614c2f565b612b6d565b61052d610c1f3660046152f8565b612bc0565b61052d610c32366004614e61565b612bcb565b6105ce610c45366004614c2f565b6000908152600e60205260409020600201546001600160a01b031690565b6105ae612c8c565b610542610c79366004614c2f565b600f6020526000908152604090205481565b61052d610c99366004614e61565b612d1a565b601054600160a01b900460ff16610542565b61058e610cbe3660046150b0565b6016546001600160a01b0390811691161490565b610542610ce0366004614c2f565b612dcb565b61052d610cf3366004614ae8565b612e42565b6105ae612e92565b61052d610d0e366004615134565b612ebb565b6105ce610d21366004614c2f565b612f25565b61052d610d34366004614e61565b612f7b565b6010546105ce906001600160a01b031681565b61052d610d5a366004614e61565b612fb5565b6105ae613063565b61052d610d75366004615326565b6130d6565b600b54610542565b61052d610d90366004614c2f565b613108565b610e1a610da3366004614c2f565b600e602052600090815260409020805460018201546002830154600384015460048501546005909501546001600160a01b038086169660ff600160a01b97889004811697878416978190048216968085169690829004909216948285169461ffff938390048416948082169493900490921691168b565b60405161054c9b9a99989796959493929190615391565b61052d610e3f366004614ae8565b61317f565b61052d610e52366004614ae8565b61323e565b6105ae610e65366004614c2f565b6132a0565b61052d610e7836600461540e565b613388565b61058e7f000000000000000000000000000000000000000000000000000000000000000081565b61052d610eb2366004614c2f565b613531565b61052d610ec5366004615183565b6135b8565b61052d610ed8366004614c2f565b613601565b6105ae610eeb366004614f67565b6136cc565b61058e7f000000000000000000000000000000000000000000000000000000000000000081565b6017546001600160f81b0316610542565b61058e610f36366004615454565b613753565b610f4e610f49366004614c2f565b613781565b60405161054c93929190615482565b610542610f6b366004614c2f565b6000908152600e6020526040902054600160a01b900460ff1690565b61054260135481565b61052d610f9e3660046150b0565b61384d565b61052d610fb13660046150b0565b61387f565b6105ae6138f5565b6105ce613940565b6105427f000000000000000000000000000000000000000000000000000000000000000081565b6012546105ce906001600160a01b031681565b6110098261394a565b6000828152600260205260409020600a546001600160a01b0316331461104e57600e60405163d327ad1b60e01b815260040161104591906154b8565b60405180910390fd5b8054600160a01b900460a01b6001600160a01b0319161561108557600f60405163d327ad1b60e01b815260040161104591906154b8565b816110a657601060405163d327ad1b60e01b815260040161104591906154b8565b805460a09290921c600160a01b026001600160a01b0390921691909117905550565b6016546000906001600160a01b031633146110f957600a60405163d327ad1b60e01b815260040161104591906154b8565b6000838152600d60205260409020805462ffffff80821691600183019163010000009091041680831061114257600b60405163d327ad1b60e01b815260040161104591906154b8565b8354600160881b900460ff168061117557506000878152600e60205260409020600201546001600160a01b038781169116145b61119557600c60405163d327ad1b60e01b815260040161104591906154b8565b8354600160901b900460ff1680156111ca57506000878152600e60205260409020600201546001600160a01b03878116911614155b156111eb57600d60405163d327ad1b60e01b815260040161104591906154b8565b835462ffffff191662ffffff8381169182178655848116620f42408a020191908316900361121c5761121c88613973565b61122689826139a9565b600a54604051635b140b8d60e11b8152600481018390526001600160a01b039091169063b628171a90602401600060405180830381600087803b15801561126c57600080fd5b505af1158015611280573d6000803e3d6000fd5b50506040518392506001600160a01b038c1691507f0f6798a560793a54c3bcfe86a93cde1e73087d944c0ea20544137d412139688590600090a39450505050505b9392505050565b6112d182613adb565b6000828152600d60205260409020805462ffffff808216916301000000900481169084161061131657601c60405163d327ad1b60e01b815260040161104591906154b8565b808362ffffff16101561133f57601d60405163d327ad1b60e01b815260040161104591906154b8565b815465ffffff0000001916630100000062ffffff851602178255600b6040518590600080516020615d8d83398151915290600090a3808362ffffff16036113895761138984613973565b50505050565b61139882613b18565b6113a88262615bf560e21b613b41565b6000828152600d602052604090819020906113c69083906001613b8f565b6113e657602060405163d327ad1b60e01b815260040161104591906154b8565b60078101829055600d5b6040518490600080516020615d8d83398151915290600090a3505050565b60006001600160e01b0319821663152a902d60e11b1480611433575061143382613c03565b92915050565b6114496301050e9760e21b613c53565b601754600160f81b900460ff161561147757601960405163d327ad1b60e01b815260040161104591906154b8565b61147f613c7e565b565b606060008054611490906154d2565b80601f01602080910402602001604051908101604052809291908181526020018280546114bc906154d2565b80156115095780601f106114de57610100808354040283529160200191611509565b820191906000526020600020905b8154815290600101906020018083116114ec57829003601f168201915b5050505050905090565b600061151e82613cbf565b506000908152600460205260409020546001600160a01b031690565b600061154582612378565b9050806001600160a01b0316836001600160a01b0316036115b25760405162461bcd60e51b815260206004820152602160248201527f4552433732313a20617070726f76616c20746f2063757272656e74206f776e656044820152603960f91b6064820152608401611045565b336001600160a01b03821614806115ce57506115ce8133613753565b6116405760405162461bcd60e51b815260206004820152603e60248201527f4552433732313a20617070726f76652063616c6c6572206973206e6f7420746f60448201527f6b656e206f776e6572206e6f7220617070726f76656420666f7220616c6c00006064820152608401611045565b61164a8383613ce4565b505050565b61165882613b18565b61166982630d17067360e01b613b41565b61167281613d52565b6000828152600d6020526040902060010161168d8282615563565b5060055b6040518390600080516020615d8d83398151915290600090a35050565b6116b782613b18565b6116c8826301cf392560e31b613b41565b6116d181613d52565b80518190600b8111156116fa57602160405163d327ad1b60e01b815260040161104591906154b8565b60008060005b838110156117a657600085828151811061171c5761171c61561c565b01602001516001600160f81b0319169050600360fc1b811080159061174f5750603960f81b6001600160f81b0319821611155b1561175e57600192505061179e565b6001600160f81b03198116601760f91b03611782578361178257600193505061179e565b602360405163d327ad1b60e01b815260040161104591906154b8565b600101611700565b50806117c857602260405163d327ad1b60e01b815260040161104591906154b8565b6000868152600d602052604090206008016117e38682615563565b50600e6040518790600080516020615d8d83398151915290600090a3505050505050565b6000818152600d60205260408120805462ffffff808216936301000000830490911692600160881b830460ff90811693600160901b810490911692600160481b9091046001600160401b03169161185d88613d77565b1591505091939550919395565b61187b846302153de360e31b613b41565b6040516374a4e96960e11b815273__$e6054cf5c39994f65d88881af69e8a80a3$__9063e949d2d2906118b8908790879087908790600401615632565b60006040518083038186803b1580156118d057600080fd5b505af41580156118e4573d6000803e3d6000fd5b5050505050505050565b6000611433620f42408361568c565b61190d631c05cad760e01b613c53565b61191684613dc1565b61191f83613dc1565b61138984848484613deb565b61193b63118165ed60e11b613c53565b61194481613d52565b61194d81613ed1565b50565b60008061195b612859565b6001600160a01b0316141580156119f45750600c546040516217798b60e61b81526001600160a01b03868116600483015285811660248301526001600160e01b031985166044830152909116906305de62c0906064016020604051808303816000875af11580156119d0573d6000803e3d6000fd5b505050506040513d601f19601f820116820180604052508101906119f491906156a0565b949350505050565b611a063382613ee5565b611a225760405162461bcd60e51b8152600401611045906156bd565b61164a838383613f43565b611a3682613b18565b611a47826304b6ebad60e31b613b41565b611a5081613d52565b6000828152600d60205260409020600501611a6b8282615563565b50600a611691565b611a9f604080516080810190915260608152602081016000815260006020820152606060409091015290565b604051631321635b60e11b8152600481018490526024810183905273__$e6054cf5c39994f65d88881af69e8a80a3$__90632642c6b690604401600060405180830381865af4158015611af6573d6000803e3d6000fd5b505050506040513d6000823e601f3d908101601f191682016040526112c1919081019061575b565b611b2e6313efb60d60e11b613c53565b7f00000000000000000000000000000000000000000000000000000000000000008015611b5a57508015155b15611b7b57602560405163d327ad1b60e01b815260040161104591906154b8565b612710611b888284615811565b1115611baa57601360405163d327ad1b60e01b815260040161104591906154b8565b6013829055601581905560095b604051600080516020615d6d83398151915290600090a25050565b600080611bde8461394a565b6000611be9856118ee565b6000818152600e6020526040812060058101546004820154600383015483546001600160a01b039093169850949550919361ffff600160a01b93849004811693918290041691611c3f9160ff9104166064615824565b611c499190615811565b611c539190615811565b9050612710811115611c7b57601360405163d327ad1b60e01b815260040161104591906154b8565b612710611c888288615824565b611c92919061568c565b93505050509250929050565b611cae631593a0b360e11b613c53565b611cb781613dc1565b600880546001600160a01b0319166001600160a01b03831617905560055b604051600080516020615d6d83398151915290600090a250565b611cf8866140df565b611d0186613adb565b611d0a85613dc1565b6000868152600e602052604090206064841180611d275750606482115b15611d4857601460405163d327ad1b60e01b815260040161104591906154b8565b600084118015611d5f57506001600160a01b038516155b15611d8057601560405163d327ad1b60e01b815260040161104591906154b8565b600082118015611d9757506001600160a01b038316155b15611db857601660405163d327ad1b60e01b815260040161104591906154b8565b867f6ff7d102bb3657a26dcbbcd299d821a066718a7cf76ae7cd98279f18b74da8ac8787878787604051611df095949392919061583b565b60405180910390a27f000000000000000000000000000000000000000000000000000000000000000080611e9657600282015482546001600160a01b03918216898316149160009181169089161480611e5057506001600160a01b038816155b60018501549091506000906001600160a01b0388811691161480611e7b57506001600160a01b038716155b9050828015611e875750815b8015611e905750805b93505050505b8015611f40576000888152600f602052604081205560028201805483546001600160a01b038981166001600160a01b03199290921691909117855560ff808916600160a01b9081026001600160a81b0319948516848e161717909455600186018054918816909402921690871617179055611f1088614139565b60405188907fc582d05e1da854143bd3271ef4529d79cf5a69fc6057ae320f357acfd291b73890600090a26118e4565b8686868686604051602001611f5995949392919061583b565b60408051601f19818403018152918152815160209283012060008b8152600f9093529120555050505050505050565b6000818152600d60205260409020600601805460609190611fa8906154d2565b80601f0160208091040260200160405190810160405280929190818152602001828054611fd4906154d2565b80156120215780601f10611ff657610100808354040283529160200191612021565b820191906000526020600020905b81548152906001019060200180831161200457829003601f168201915b50505050509050919050565b61203683613b18565b6120478363329dab7360e01b613b41565b61205081614285565b6000838152600d602052604090208054600160301b900462ffffff16831061208e57601e60405163d327ad1b60e01b815260040161104591906154b8565b612097826142aa565b6000848152600983016020526040902080546001600160a01b0319166001600160a01b0392909216919091179055600c6040518590600080516020615d8d83398151915290600090a350505050565b6120ef82613adb565b6000828152600d6020526040902060040161210a8282615563565b506009611691565b61212263398a289560e01b613c53565b61212b816140df565b6000818152600e602052604090206014546003820180546001600160a01b039283166001600160a01b0319808316821784556015546001600160b01b0319938416909217600160a01b61ffff9384168102919091179094556012546004870180549190961691811682178655601354931617911690910217905560106040518390600080516020615d8d83398151915290600090a36121c982614139565b5050565b6121d682613adb565b6121df81613d52565b6000828152600d602052604090206006016121fa8282615563565b50600f611691565b61164a838383604051806020016040528060008152506130d6565b61222d632419b94160e11b613c53565b61223681613dc1565b601680546001600160a01b0319166001600160a01b0383169081179091556040517fad0f299ec81a386c98df0ac27dae11dd020ed1b56963c53a7292e7a3a314539a90600090a250565b60606122946576332e322e3560d01b61435a565b905090565b6122a9635464c30960e01b613c53565b604051635464c30960e01b815273__$e6054cf5c39994f65d88881af69e8a80a3$__90635464c309906122e2908590859060040161586e565b60006040518083038186803b1580156122fa57600080fd5b505af415801561230e573d6000803e3d6000fd5b505050505050565b600081815260026020526040812054600160a01b900460a01b6001600160a01b0319811682036123495750600092915050565b8060405160200161235a91906152d5565b60405160208183030381529060405280519060200120915050919050565b6000818152600260205260408120546001600160a01b0316806114335760405162461bcd60e51b81526004016110459061589d565b6123be836366e4623760e01b613b41565b604051638f65b1f360e01b815273__$e6054cf5c39994f65d88881af69e8a80a3$__90638f65b1f3906123f9908690869086906004016158cf565b60006040518083038186803b15801561241157600080fd5b505af4158015612425573d6000803e3d6000fd5b50505050505050565b612437826140df565b612448826369d14faf60e01b6143c5565b61245181613dc1565b6000828152600e6020526040902060020180546001600160a01b0319166001600160a01b03831617905561248482614139565b6002611691565b61249b636c907b7f60e01b613c53565b6124a481613dc1565b61194d81614437565b60006001600160a01b0382166125175760405162461bcd60e51b815260206004820152602960248201527f4552433732313a2061646472657373207a65726f206973206e6f7420612076616044820152683634b21037bbb732b960b91b6064820152608401611045565b506001600160a01b031660009081526003602052604090205490565b61253b614499565b612543613c7e565b61147f6144f8565b612554866140df565b612565866376ee6fab60e01b6143c5565b61256e85613dc1565b848484848460405160200161258795949392919061583b565b60408051601f1981840301815291815281516020928301206000898152600f909352912054146125cd57601760405163d327ad1b60e01b815260040161104591906154b8565b6000600e60008881526020019081526020016000209050858160020160006101000a8154816001600160a01b0302191690836001600160a01b03160217905550848160000160006101000a8154816001600160a01b0302191690836001600160a01b03160217905550838160020160146101000a81548160ff021916908360ff160217905550828160010160006101000a8154816001600160a01b0302191690836001600160a01b03160217905550818160010160146101000a81548160ff021916908360ff1602179055506000801b600f6000898152602001908152602001600020819055506126bd87614139565b60405187907fc582d05e1da854143bd3271ef4529d79cf5a69fc6057ae320f357acfd291b73890600090a250505050505050565b6000828152600e602052604081206010548291829182918291829182918291908a9060649061272a90600160a01b900460ff1683615824565b612734919061568c565b99506127408a826158f7565b60115490915060649061275d90600160a01b900460ff168d615824565b612767919061568c565b975061277388826158f7565b600283015490915060649061279290600160a01b900460ff1683615824565b61279c919061568c565b93506127a884826158f7565b6010546011546001600160a01b039182169b50169750955085156127d75760028201546001600160a01b031694505b83156127eb5781546001600160a01b031692505b50509295985092959890939650565b6000828152600d60205260409020805460609190600160301b900462ffffff168310612836575050604080516020810190915260008152611433565b60008381526009820160205260409020546119f4906001600160a01b031661450a565b60006122946006546001600160a01b031690565b60608060608060606000600d6000888152602001908152602001600020905080600101805461289b906154d2565b80601f01602080910402602001604051908101604052809291908181526020018280546128c7906154d2565b80156129145780601f106128e957610100808354040283529160200191612914565b820191906000526020600020905b8154815290600101906020018083116128f757829003601f168201915b5050505050955080600201805461292a906154d2565b80601f0160208091040260200160405190810160405280929190818152602001828054612956906154d2565b80156129a35780601f10612978576101008083540402835291602001916129a3565b820191906000526020600020905b81548152906001019060200180831161298657829003601f168201915b505050506003830154919650506001600160a01b0316806129d5576040518060200160405280600081525094506129e1565b6129de8161450a565b94505b8160040180546129f0906154d2565b80601f0160208091040260200160405190810160405280929190818152602001828054612a1c906154d2565b8015612a695780601f10612a3e57610100808354040283529160200191612a69565b820191906000526020600020905b815481529060010190602001808311612a4c57829003601f168201915b50505050509350816005018054612a7f906154d2565b80601f0160208091040260200160405190810160405280929190818152602001828054612aab906154d2565b8015612af85780601f10612acd57610100808354040283529160200191612af8565b820191906000526020600020905b815481529060010190602001808311612adb57829003601f168201915b50505050509250505091939590929450565b612b1a639523751760e01b613c53565b612b2381613dc1565b600980546001600160a01b0319166001600160a01b0383161790556006611cd5565b606060018054611490906154d2565b612b646304ecbfa560e51b613c53565b61194d81614589565b612b7681613adb565b6000818152600d60205260409020805460ff60901b198116600160901b9182900460ff161590910217905560035b6040518290600080516020615d8d83398151915290600090a350565b6121c93383836145dc565b612bd482613d77565b15612c1b576000828152600e60205260409020600201546001600160a01b03163314612c1657601a60405163d327ad1b60e01b815260040161104591906154b8565b612c4d565b612c2d33306351d9665360e11b611950565b612c4d57601a60405163d327ad1b60e01b815260040161104591906154b8565b612c56816146a6565b6000838152600d6020526040902060030180546001600160a01b0319166001600160a01b03929092169190911790556008611691565b60188054612c99906154d2565b80601f0160208091040260200160405190810160405280929190818152602001828054612cc5906154d2565b8015612d125780601f10612ce757610100808354040283529160200191612d12565b820191906000526020600020905b815481529060010190602001808311612cf557829003601f168201915b505050505081565b612d2382613b18565b612d3482632b2b404960e21b613b41565b612d3d81613d52565b6000828152600d60205260409020612d54826146a6565b8154600160301b9081900462ffffff9081166000908152600985016020526040902080546001600160a01b0319166001600160a01b0394909416939093179092558254612da69291900416600161590a565b815462ffffff91909116600160301b0262ffffff60301b19909116178155600c6113f0565b604051630ad2832960e41b81526004810182905260009073__$e6054cf5c39994f65d88881af69e8a80a3$__9063ad28329090602401602060405180830381865af4158015612e1e573d6000803e3d6000fd5b505050506040513d601f19601f82011682018060405250810190611433919061592d565b612e538263ad576c4560e01b613b41565b60405163ad576c4560e01b8152600481018390526024810182905273__$e6054cf5c39994f65d88881af69e8a80a3$__9063ad576c45906044016122e2565b60606122947a08ecadc82e4e86e646286dee4caac66be8adcced2dccabe8cd8caf602b1b61435a565b612ec483613b18565b612ed58363b1656ba360e01b613b41565b612ede81613d52565b6000838152600d602052604090208054600160301b900462ffffff168310612f1c57601e60405163d327ad1b60e01b815260040161104591906154b8565b612097826146a6565b600b546000908210612f4d57601260405163d327ad1b60e01b815260040161104591906154b8565b600b8281548110612f6057612f6061561c565b6000918252602090912001546001600160a01b031692915050565b612f8482613b18565b612f958263b202b56560e01b613b41565b612f9e81614285565b6000828152600d60205260409020612d54826142aa565b612fbe82613d77565b15613005576000828152600e60205260409020600201546001600160a01b0316331461300057601a60405163d327ad1b60e01b815260040161104591906154b8565b613037565b6130173330635bd827d760e11b611950565b61303757601a60405163d327ad1b60e01b815260040161104591906154b8565b61304081613d52565b6000828152600d6020526040902060020161305b8282615563565b506006611691565b606073__$e6054cf5c39994f65d88881af69e8a80a3$__63b7ba527d6040518163ffffffff1660e01b8152600401600060405180830381865af41580156130ae573d6000803e3d6000fd5b505050506040513d6000823e601f3d908101601f191682016040526122949190810190615946565b6130e03383613ee5565b6130fc5760405162461bcd60e51b8152600401611045906156bd565b611389848484846146de565b6131198163ba3c234560e01b613b41565b60405163ba3c234560e01b81526004810182905273__$e6054cf5c39994f65d88881af69e8a80a3$__9063ba3c23459060240160006040518083038186803b15801561316457600080fd5b505af4158015613178573d6000803e3d6000fd5b5050505050565b61318f63bd3d10e760e01b613c53565b7f000000000000000000000000000000000000000000000000000000000000000080156131bb57508015155b156131dc57602560405163d327ad1b60e01b815260040161104591906154b8565b60646131e88284615811565b111561320a57601160405163d327ad1b60e01b815260040161104591906154b8565b6010805460ff808516600160a01b90810260ff60a01b19938416179093556011805491851690930291161790556008611bb7565b61324782613adb565b605f81111561326c57601b60405163d327ad1b60e01b815260040161104591906154b8565b6000828152600e60205260409020805460ff60a01b1916600160a01b60ff84160217905561329982614139565b6007611691565b60606132ab8261394a565b6000600d60006132ba856118ee565b815260200190815260200160002060060180546132d6906154d2565b80601f0160208091040260200160405190810160405280929190818152602001828054613302906154d2565b801561334f5780601f106133245761010080835404028352916020019161334f565b820191906000526020600020905b81548152906001019060200180831161333257829003601f168201915b505050505090508061336084614711565b60405160200161337192919061597a565b604051602081830303815290604052915050919050565b61339863cc90e72560e01b613c53565b6133a182613d52565b6133aa81613dc1565b601754600160f81b900460ff16156133d857601860405163d327ad1b60e01b815260040161104591906154b8565b6017546001600160f81b03166000818152600e602090815260408083206002810180546001600160a01b0319166001600160a01b038816179055600d9092529091206001016134278582615563565b506000828152600d60205260409020805465ffffff00000060ff60901b011916613d09601e1b600160901b011781556006016134646018826159a9565b50805460ff60a01b1916600560a01b1781556014546003820180546001600160a01b039283166001600160a01b0319808316821784556015546001600160b01b0319938416909217600160a01b61ffff938416810291909117909455601254600487018054919096169181168217865560135493161791169091021790556134ed826001615a75565b601780546001600160f81b0319166001600160f81b039290921691909117905560046040518390600080516020615d8d83398151915290600090a361138982614139565b7f00000000000000000000000000000000000000000000000000000000000000001561356d576135688163340f0e4360e21b613b41565b61357d565b61357d63340f0e4360e21b613c53565b613586816140df565b6000818152600d60205260409020805460ff60881b198116600160881b9182900460ff16159091021790556001612ba4565b6135c8631aa1ea2760e31b613c53565b604051631aa1ea2760e31b815273__$e6054cf5c39994f65d88881af69e8a80a3$__9063d50f5138906122e2908590859060040161586e565b61360a81613b18565b61361b8163db2ff86160e01b613b41565b6000818152600d6020526040812080549091600160301b90910462ffffff16900361365c57601f60405163d327ad1b60e01b815260040161104591906154b8565b8054600982019060009061367e90600190600160301b900462ffffff16615a95565b62ffffff9081168252602082019290925260400160002080546001600160a01b0319169055815462ffffff60301b198116600160301b9182900483166000190190921602178155600c611691565b60606136d782613d52565b60405163e32551e760e01b815273__$a84cab3dc26412b6358fa38e3bc69cb812$__9063e32551e79061370e908590600401614c1c565b600060405180830381865af415801561372b573d6000803e3d6000fd5b505050506040513d6000823e601f3d908101601f191682016040526114339190810190615ab1565b6001600160a01b03918216600090815260056020908152604080832093909416825291909152205460ff1690565b6000818152600d602052604081206007810154606092839290916137a49061435a565b93508060080180546137b5906154d2565b80601f01602080910402602001604051908101604052809291908181526020018280546137e1906154d2565b801561382e5780601f106138035761010080835404028352916020019161382e565b820191906000526020600020905b81548152906001019060200180831161381157829003601f168201915b5050935496989297505050600160301b90940462ffffff169392505050565b61385d63f23f702160e01b613c53565b600780546001600160a01b0319166001600160a01b0383161790556004611cd5565b613887614499565b6001600160a01b0381166138ec5760405162461bcd60e51b815260206004820152602660248201527f4f776e61626c653a206e6577206f776e657220697320746865207a65726f206160448201526564647265737360d01b6064820152608401611045565b61194d81614811565b606073__$e6054cf5c39994f65d88881af69e8a80a3$__63f6cd39e36040518163ffffffff1660e01b8152600401600060405180830381865af41580156130ae573d6000803e3d6000fd5b6000612294612859565b6139538161483c565b61194d57600360405163d327ad1b60e01b815260040161104591906154b8565b6000818152600d60205260408120805467ffffffffffffffff60481b1916600160481b426001600160401b031602179055612ba4565b6001600160a01b0382166139ff5760405162461bcd60e51b815260206004820181905260248201527f4552433732313a206d696e7420746f20746865207a65726f20616464726573736044820152606401611045565b613a088161483c565b15613a545760405162461bcd60e51b815260206004820152601c60248201527b115490cdcc8c4e881d1bdad95b88185b1c9958591e481b5a5b9d195960221b6044820152606401611045565b6001600160a01b0382166000908152600360205260408120805460019290613a7d908490615811565b909155505060008181526002602052604080822080546001600160a01b0319166001600160a01b03861690811790915590518392907fddf252ad1be2c89b69c2b068fc378daa952ba7f163c4a11628f55a4df523b3ef908290a45050565b6000818152600e60205260409020600201546001600160a01b0316331461194d57600760405163d327ad1b60e01b815260040161104591906154b8565b613b2181613d77565b61194d57600560405163d327ad1b60e01b815260040161104591906154b8565b6000828152600e60205260409020600201546001600160a01b0316331480613b6f5750613b6f333083611950565b6121c957600860405163d327ad1b60e01b815260040161104591906154b8565b60008060005b60208160ff161015613bef576000868260ff1660208110613bb857613bb861561c565b1a90508015801590613bcd575060808160ff16105b15613be6578560ff168160ff1603613be6578260010192505b50600101613b95565b8360ff168260ff1614925050509392505050565b60006001600160e01b031982166380ac58cd60e01b1480613c3457506001600160e01b03198216635b5e139f60e01b145b8061143357506301ffc9a760e01b6001600160e01b0319831614611433565b613c5e333083611950565b61194d57600660405163d327ad1b60e01b815260040161104591906154b8565b601754600160f81b900460ff1661147f57601780546001600160f81b0316600160f81b1790556001604051600080516020615d6d83398151915290600090a2565b613cc88161483c565b61194d5760405162461bcd60e51b81526004016110459061589d565b600081815260046020526040902080546001600160a01b0319166001600160a01b0384169081179091558190613d1982612378565b6001600160a01b03167f8c5be1e5ebec7d5bd14f71427d1e84f3dd0314c0f7b2291e5b200ac8c7c3b92560405160405180910390a45050565b805160000361194d57600160405163d327ad1b60e01b815260040161104591906154b8565b6000613d82826140df565b6000828152600d6020526040902054600160481b90046001600160401b0316801580806119f457506224ea00613db883426158f7565b10949350505050565b6001600160a01b03811661194d57600060405163d327ad1b60e01b815260040161104591906154b8565b7f000000000000000000000000000000000000000000000000000000000000000015613e56576001600160a01b038216151580613e3057506001600160a01b03811615155b15613e5157602560405163d327ad1b60e01b815260040161104591906154b8565b613e68565b613e5f82613dc1565b613e6881613dc1565b601180546001600160a01b038085166001600160a01b031992831617909255601480548484169083161790556010805487841690831617905560128054928616929091169190911790556007604051600080516020615d6d83398151915290600090a250505050565b6018613edd8282615563565b506002611cd5565b600080613ef183612378565b9050806001600160a01b0316846001600160a01b03161480613f185750613f188185613753565b806119f45750836001600160a01b0316613f3184611513565b6001600160a01b031614949350505050565b826001600160a01b0316613f5682612378565b6001600160a01b031614613fba5760405162461bcd60e51b815260206004820152602560248201527f4552433732313a207472616e736665722066726f6d20696e636f72726563742060448201526437bbb732b960d91b6064820152608401611045565b6001600160a01b03821661401c5760405162461bcd60e51b8152602060048201526024808201527f4552433732313a207472616e7366657220746f20746865207a65726f206164646044820152637265737360e01b6064820152608401611045565b614027600082613ce4565b6001600160a01b03831660009081526003602052604081208054600192906140509084906158f7565b90915550506001600160a01b038216600090815260036020526040812080546001929061407e908490615811565b909155505060008181526002602052604080822080546001600160a01b0319166001600160a01b0386811691821790925591518493918716917fddf252ad1be2c89b69c2b068fc378daa952ba7f163c4a11628f55a4df523b3ef91a4505050565b7f000000000000000000000000000000000000000000000000000000000000000081108061411857506017546001600160f81b03168110155b1561194d57600460405163d327ad1b60e01b815260040161104591906154b8565b6000818152600e6020908152604080832060195482516101008101845260038301546001600160a01b03818116835261ffff600160a01b92839004811697840197909752600480860154808316858901528390049097166060840152845460ff90839004811660808501526002860154821660a0850152600186015480831660c08601529290920490911660e08301529351631718245360e21b81529295949390911692635c60914c926141ee929101615af9565b6020604051808303816000875af115801561420d573d6000803e3d6000fd5b505050506040513d601f19601f820116820180604052508101906142319190615b81565b6005830180546001600160a01b0319166001600160a01b0383169081179091556040519192509084907f301670c9279b1d4319606681ed95e193d888fddba44d836b9e8d5585d8cc47b590600090a3505050565b805160000361194d57600260405163d327ad1b60e01b815260040161104591906154b8565b6000807f42797465636f646553746f726167655f56322e302e305f5f5f5f5f5f5f5f5f2030846040516020016142e293929190615b9e565b60405160208183030381529060405290508051602082016000f091506001600160a01b0382166143545760405162461bcd60e51b815260206004820152601e60248201527f436f6e7472616374417353746f726167653a205772697465204572726f7200006044820152606401611045565b50919050565b606060005b828160ff16602081106143745761437461561c565b1a60f81b6001600160f81b03191615801590614393575060208160ff16105b156143aa57806143a281615c09565b91505061435f565b60405191506040820160405280825282602083015250919050565b6143d0333083611950565b156143d9575050565b60006143e3612859565b6001600160a01b031614801561441257506000828152600e60205260409020600201546001600160a01b031633145b1561441b575050565b600960405163d327ad1b60e01b815260040161104591906154b8565b600a80546001600160a01b0383166001600160a01b03199182168117909255600b80546001810182556000919091527f0175b7a638427703f0dbe7bb9bbf987a2551717b34e79f33b5b1008d1fa01db901805490911690911790556003611cd5565b336144a2612859565b6001600160a01b03161461147f5760405162461bcd60e51b815260206004820181905260248201527f4f776e61626c653a2063616c6c6572206973206e6f7420746865206f776e65726044820152606401611045565b614500614499565b61147f6000614811565b604051630eacc5e760e31b815260609073__$a84cab3dc26412b6358fa38e3bc69cb812$__906375662f3890614544908590600401614c55565b600060405180830381865af4158015614561573d6000803e3d6000fd5b505050506040513d6000823e601f3d908101601f191682016040526114339190810190615946565b61459a81631718245360e21b614859565b6145ba57602460405163d327ad1b60e01b815260040161104591906154b8565b601980546001600160a01b0319166001600160a01b038316179055600a611cd5565b816001600160a01b0316836001600160a01b0316036146395760405162461bcd60e51b815260206004820152601960248201527822a9219b99189d1030b8383937bb32903a379031b0b63632b960391b6044820152606401611045565b6001600160a01b03838116600081815260056020908152604080832094871680845294825291829020805460ff191686151590811790915591519182527f17307eab39ab6107e8899845ad3d59bd9653f200f220920489ca2b5937696c31910160405180910390a3505050565b6000807f42797465636f646553746f726167655f56322e302e305f5f5f5f5f5f5f5f5f2030846040516020016142e293929190615c28565b6146e9848484613f43565b6146f584848484614875565b6113895760405162461bcd60e51b815260040161104590615c81565b6060816000036147385750506040805180820190915260018152600360fc1b602082015290565b8160005b8115614762578061474c81615cd3565b915061475b9050600a8361568c565b915061473c565b6000816001600160401b0381111561477c5761477c614d76565b6040519080825280601f01601f1916602001820160405280156147a6576020820181803683370190505b5090505b84156119f4576147bb6001836158f7565b91506147c8600a86615cec565b6147d3906030615811565b60f81b8183815181106147e8576147e861561c565b60200101906001600160f81b031916908160001a90535061480a600a8661568c565b94506147aa565b61481a81614976565b600c80546001600160a01b0319166001600160a01b0392909216919091179055565b6000908152600260205260409020546001600160a01b0316151590565b6000614864836149c8565b80156112c157506112c183836149fb565b60006001600160a01b0384163b1561496b57604051630a85bd0160e11b81526001600160a01b0385169063150b7a02906148b9903390899088908890600401615d00565b6020604051808303816000875af19250505080156148f4575060408051601f3d908101601f191682019092526148f191810190615d33565b60015b614951573d808015614922576040519150601f19603f3d011682016040523d82523d6000602084013e614927565b606091505b5080516000036149495760405162461bcd60e51b815260040161104590615c81565b805181602001fd5b6001600160e01b031916630a85bd0160e11b1490506119f4565b506001949350505050565b600680546001600160a01b038381166001600160a01b0319831681179093556040519116919082907f8be0079c531659141344cd1fd0a4f28419497f9722a3daafe3b4186f6b6457e090600090a35050565b60006149db826301ffc9a760e01b6149fb565b801561143357506149f4826001600160e01b03196149fb565b1592915050565b604080516001600160e01b0319831660248083019190915282518083039091018152604490910182526020810180516001600160e01b03166301ffc9a760e01b179052905160009190829081906001600160a01b0387169061753090614a62908690615d50565b6000604051808303818686fa925050503d8060008114614a9e576040519150601f19603f3d011682016040523d82523d6000602084013e614aa3565b606091505b5091509150602081511015614abe5760009350505050611433565b818015614ade5750600081806020019051810190614adc919061592d565b115b9695505050505050565b60008060408385031215614afb57600080fd5b50508035926020909101359150565b6001600160a01b038116811461194d57600080fd5b600080600060608486031215614b3457600080fd5b8335614b3f81614b0a565b9250602084013591506040840135614b5681614b0a565b809150509250925092565b60008060408385031215614b7457600080fd5b82359150602083013562ffffff81168114614b8e57600080fd5b809150509250929050565b6001600160e01b03198116811461194d57600080fd5b600060208284031215614bc157600080fd5b81356112c181614b99565b60005b83811015614be7578181015183820152602001614bcf565b50506000910152565b60008151808452614c08816020860160208601614bcc565b601f01601f19169290920160200192915050565b6020815260006112c16020830184614bf0565b600060208284031215614c4157600080fd5b5035919050565b6001600160a01b03169052565b6001600160a01b0391909116815260200190565b60008060408385031215614c7c57600080fd5b8235614c8781614b0a565b946020939093013593505050565b600061016082019050614ca9828451614c48565b6020830151614cbd602084018260ff169052565b506040830151614cd06040840182614c48565b506060830151614ce5606084018260ff169052565b506080830151614cf86080840182614c48565b5060a0830151614d0d60a084018260ff169052565b5060c0830151614d2060c0840182614c48565b5060e0830151614d3660e084018261ffff169052565b5061010080840151614d4a82850182614c48565b50506101208381015161ffff169083015261014080840151614d6e82850182614c48565b505092915050565b634e487b7160e01b600052604160045260246000fd5b604051608081016001600160401b0381118282101715614dae57614dae614d76565b60405290565b604051601f8201601f191681016001600160401b0381118282101715614ddc57614ddc614d76565b604052919050565b60006001600160401b03821115614dfd57614dfd614d76565b50601f01601f191660200190565b600082601f830112614e1c57600080fd5b8135614e2f614e2a82614de4565b614db4565b818152846020838601011115614e4457600080fd5b816020850160208301376000918101602001919091529392505050565b60008060408385031215614e7457600080fd5b8235915060208301356001600160401b03811115614e9157600080fd5b614e9d85828601614e0b565b9150509250929050565b6003811061194d57600080fd5b60008060008060808587031215614eca57600080fd5b843593506020850135925060408501356001600160401b03811115614eee57600080fd5b614efa87828801614e0b565b9250506060850135614f0b81614ea7565b939692955090935050565b60008060008060808587031215614f2c57600080fd5b8435614f3781614b0a565b93506020850135614f4781614b0a565b92506040850135614f5781614b0a565b91506060850135614f0b81614b0a565b600060208284031215614f7957600080fd5b81356001600160401b03811115614f8f57600080fd5b6119f484828501614e0b565b600080600060608486031215614fb057600080fd5b8335614fbb81614b0a565b92506020840135614fcb81614b0a565b91506040840135614b5681614b99565b600080600060608486031215614ff057600080fd5b8335614ffb81614b0a565b9250602084013561500b81614b0a565b929592945050506040919091013590565b634e487b7160e01b600052602160045260246000fd5b600381106150425761504261501c565b9052565b60208152600082516080602084015261506260a0840182614bf0565b905060208401516150766040850182615032565b5060408401516001600160a01b0316606084810191909152840151838203601f190160808501526150a78282614bf0565b95945050505050565b6000602082840312156150c257600080fd5b81356112c181614b0a565b60008060008060008060c087890312156150e657600080fd5b8635955060208701356150f881614b0a565b9450604087013561510881614b0a565b935060608701359250608087013561511f81614b0a565b8092505060a087013590509295509295509295565b60008060006060848603121561514957600080fd5b833592506020840135915060408401356001600160401b0381111561516d57600080fd5b61517986828701614e0b565b9150509250925092565b6000806020838503121561519657600080fd5b82356001600160401b03808211156151ad57600080fd5b818501915085601f8301126151c157600080fd5b8135818111156151d057600080fd5b8660208285010111156151e257600080fd5b60209290920196919550909350505050565b60008060006060848603121561520957600080fd5b8335925060208401356001600160401b0381111561522657600080fd5b61523286828701614e0b565b9250506040840135614b5681614ea7565b6000806040838503121561525657600080fd5b823591506020830135614b8e81614b0a565b60a08152600061527b60a0830188614bf0565b828103602084015261528d8188614bf0565b905082810360408401526152a18187614bf0565b905082810360608401526152b58186614bf0565b905082810360808401526152c98185614bf0565b98975050505050505050565b6001600160a01b031991909116815260200190565b801515811461194d57600080fd5b6000806040838503121561530b57600080fd5b823561531681614b0a565b91506020830135614b8e816152ea565b6000806000806080858703121561533c57600080fd5b843561534781614b0a565b9350602085013561535781614b0a565b92506040850135915060608501356001600160401b0381111561537957600080fd5b61538587828801614e0b565b91505092959194509250565b6001600160a01b038c8116825260ff8c811660208401528b821660408401528a811660608401528982166080840152881660a083015286811660c083015261ffff86811660e0840152908516610100830152831661012082015261016081016153fe610140830184614c48565b9c9b505050505050505050505050565b6000806040838503121561542157600080fd5b82356001600160401b0381111561543757600080fd5b61544385828601614e0b565b9250506020830135614b8e81614b0a565b6000806040838503121561546757600080fd5b823561547281614b0a565b91506020830135614b8e81614b0a565b6060815260006154956060830186614bf0565b82810360208401526154a78186614bf0565b915050826040830152949350505050565b60208101602683106154cc576154cc61501c565b91905290565b600181811c908216806154e657607f821691505b60208210810361435457634e487b7160e01b600052602260045260246000fd5b601f82111561164a576000816000526020600020601f850160051c8101602086101561552f5750805b601f850160051c820191505b8181101561230e5782815560010161553b565b600019600383901b1c191660019190911b1790565b81516001600160401b0381111561557c5761557c614d76565b6155908161558a84546154d2565b84615506565b602080601f8311600181146155bf57600084156155ad5750858301515b6155b7858261554e565b86555061230e565b600085815260208120601f198616915b828110156155ee578886015182559484019460019091019084016155cf565b508582101561560c5787850151600019600388901b60f8161c191681555b5050505050600190811b01905550565b634e487b7160e01b600052603260045260246000fd5b8481528360208201526080604082015260006156516080830185614bf0565b90506150a76060830184615032565b634e487b7160e01b600052601260045260246000fd5b634e487b7160e01b600052601160045260246000fd5b60008261569b5761569b615660565b500490565b6000602082840312156156b257600080fd5b81516112c1816152ea565b6020808252602e908201527f4552433732313a2063616c6c6572206973206e6f7420746f6b656e206f776e6560408201526d1c881b9bdc88185c1c1c9bdd995960921b606082015260800190565b6000615719614e2a84614de4565b905082815283838301111561572d57600080fd5b6112c1836020830184614bcc565b600082601f83011261574c57600080fd5b6112c18383516020850161570b565b60006020828403121561576d57600080fd5b81516001600160401b038082111561578457600080fd5b908301906080828603121561579857600080fd5b6157a0614d8c565b8251828111156157af57600080fd5b6157bb8782860161573b565b82525060208301516157cc81614ea7565b602082015260408301516157df81614b0a565b60408201526060830151828111156157f657600080fd5b6158028782860161573b565b60608301525095945050505050565b8082018082111561143357611433615676565b808202811582820484141761143357611433615676565b6001600160a01b039586168152938516602085015260408401929092529092166060820152608081019190915260a00190565b60208152816020820152818360408301376000818301604090810191909152601f909201601f19160101919050565b602080825260189082015277115490cdcc8c4e881a5b9d985b1a59081d1bdad95b88125160421b604082015260600190565b8381526060602082015260006158e86060830185614bf0565b90506119f46040830184615032565b8181038181111561143357611433615676565b62ffffff81811683821601908082111561592657615926615676565b5092915050565b60006020828403121561593f57600080fd5b5051919050565b60006020828403121561595857600080fd5b81516001600160401b0381111561596e57600080fd5b6119f48482850161573b565b6000835161598c818460208801614bcc565b8351908301906159a0818360208801614bcc565b01949350505050565b8181036159b4575050565b6159be82546154d2565b6001600160401b038111156159d5576159d5614d76565b6159e38161558a84546154d2565b6000601f821160018114615a1157600083156159ff5750848201545b615a09848261554e565b855550613178565b600085815260209020601f19841690600086815260209020845b83811015615a4b5782860154825560019586019590910190602001615a2b565b508583101561560c5793015460001960f8600387901b161c19169092555050600190811b01905550565b6001600160f81b0381811683821601908082111561592657615926615676565b62ffffff82811682821603908082111561592657615926615676565b600060208284031215615ac357600080fd5b81516001600160401b03811115615ad957600080fd5b8201601f81018413615aea57600080fd5b6119f48482516020840161570b565b60006101008201905060018060a01b03808451168352602084015161ffff808216602086015282604087015116604086015280606087015116606086015250505060ff608084015116608083015260a0830151615b5960a0840182614c48565b5060c0830151615b6c60c0840182614c48565b5060e083015161592660e084018260ff169052565b600060208284031215615b9357600080fd5b81516112c181614b0a565b6a600b5981380380925939f360a81b8152607f60f91b600b820152600c81018490526000602c8201819052606084901b6001600160601b0319166038830152600160f81b604c8301528251615bfa81604d850160208701614bcc565b91909101604d01949350505050565b600060ff821660ff8103615c1f57615c1f615676565b60010192915050565b6a600b5981380380925939f360a81b8152607f60f91b600b820152600c81018490526000602c8201819052606084901b6001600160601b0319166038830152604c82018190528251615bfa81604d850160208701614bcc565b60208082526032908201527f4552433732313a207472616e7366657220746f206e6f6e20455243373231526560408201527131b2b4bb32b91034b6b83632b6b2b73a32b960711b606082015260800190565b600060018201615ce557615ce5615676565b5060010190565b600082615cfb57615cfb615660565b500690565b6001600160a01b0385811682528416602082015260408101839052608060608201819052600090614ade90830184614bf0565b600060208284031215615d4557600080fd5b81516112c181614b99565b60008251615d62818460208701614bcc565b919091019291505056fe8b810f233ce7ee6e962ab4d98bf0277751de1f5589de3dcc812ac2047994d009b96a30340e86d03ce4be42f94ac02d7b27b4a4cdae942beb69026718dfe66afca2646970667358221220e597336167413b640327b166b333a2273ccf571211e5b6898d44690fccad1a6964736f6c634300081600338b810f233ce7ee6e962ab4d98bf0277751de1f5589de3dcc812ac2047994d009",
  "linkReferences": {
    "contracts/libs/v0.8.x/BytecodeStorageV2.sol": {
      "BytecodeStorageReader": [
        {
          "length": 20,
          "start": 17273
        },
        {
          "length": 20,
          "start": 20911
        }
      ]
    },
    "contracts/libs/v0.8.x/V3FlexLib.sol": {
      "V3FlexLib": [
        {
          "length": 20,
          "start": 9501
        },
        {
          "length": 20,
          "start": 10063
        },
        {
          "length": 20,
          "start": 12107
        },
        {
          "length": 20,
          "start": 12384
        },
        {
          "length": 20,
          "start": 14967
        },
        {
          "length": 20,
          "start": 15107
        },
        {
          "length": 20,
          "start": 15610
        },
        {
          "length": 20,
          "start": 15810
        },
        {
          "length": 20,
          "start": 17002
        },
        {
          "length": 20,
          "start": 17804
        }
      ]
    }
  },
  "deployedLinkReferences": {
    "contracts/libs/v0.8.x/BytecodeStorageV2.sol": {
      "BytecodeStorageReader": [
        {
          "length": 20,
          "start": 14054
        },
        {
          "length": 20,
          "start": 17692
        }
      ]
    },
    "contracts/libs/v0.8.x/V3FlexLib.sol": {
      "V3FlexLib": [
        {
          "length": 20,
          "start": 6282
        },
        {
          "length": 20,
          "start": 6844
        },
        {
          "length": 20,
          "start": 8888
        },
        {
          "length": 20,
          "start": 9165
        },
        {
          "length": 20,
          "start": 11748
        },
        {
          "length": 20,
          "start": 11888
        },
        {
          "length": 20,
          "start": 12391
        },
        {
          "length": 20,
          "start": 12591
        },
        {
          "length": 20,
          "start": 13783
        },
        {
          "length": 20,
          "start": 14585
        }
      ]
    }
  }
}