{
  "_format": "hh-sol-artifact-1",
  "contractName": "GenArt721CoreV3_Engine",
  "sourceName": "contracts/engine/V3/GenArt721CoreV3_Engine.sol",
  "abi": [
    {
      "inputs": [
        {
          "internalType": "string",
          "name": "_tokenName",
          "type": "string"
        },
        {
          "internalType": "string",
          "name": "_tokenSymbol",
          "type": "string"
        },
        {
          "internalType": "address",
          "name": "_renderProviderAddress",
          "type": "address"
        },
        {
          "internalType": "address",
          "name": "_platformProviderAddress",
          "type": "address"
        },
        {
          "internalType": "address",
          "name": "_randomizerContract",
          "type": "address"
        },
        {
          "internalType": "address",
          "name": "_adminACLContract",
          "type": "address"
        },
        {
          "internalType": "uint248",
          "name": "_startingProjectId",
          "type": "uint248"
        },
        {
          "internalType": "bool",
          "name": "_autoApproveArtistSplitProposals",
          "type": "bool"
        },
        {
          "internalType": "address",
          "name": "_splitProviderAddress",
          "type": "address"
        },
        {
          "internalType": "bool",
          "name": "_nullPlatformProvider",
          "type": "bool"
        },
        {
          "internalType": "bool",
          "name": "_allowArtistProjectActivation",
          "type": "bool"
        }
      ],
      "stateMutability": "nonpayable",
      "type": "constructor"
    },
    {
      "inputs": [
        {
          "internalType": "enum IGenArt721CoreContractV3_Base.ErrorCodes",
          "name": "_errorCode",
          "type": "uint8"
        }
      ],
      "name": "GenArt721Error",
      "type": "error"
    },
    {
      "anonymous": false,
      "inputs": [
        {
          "indexed": true,
          "internalType": "uint256",
          "name": "_projectId",
          "type": "uint256"
        }
      ],
      "name": "AcceptedArtistAddressesAndSplits",
      "type": "event"
    },
    {
      "anonymous": false,
      "inputs": [
        {
          "indexed": true,
          "internalType": "address",
          "name": "owner",
          "type": "address"
        },
        {
          "indexed": true,
          "internalType": "address",
          "name": "approved",
          "type": "address"
        },
        {
          "indexed": true,
          "internalType": "uint256",
          "name": "tokenId",
          "type": "uint256"
        }
      ],
      "name": "Approval",
      "type": "event"
    },
    {
      "anonymous": false,
      "inputs": [
        {
          "indexed": true,
          "internalType": "address",
          "name": "owner",
          "type": "address"
        },
        {
          "indexed": true,
          "internalType": "address",
          "name": "operator",
          "type": "address"
        },
        {
          "indexed": false,
          "internalType": "bool",
          "name": "approved",
          "type": "bool"
        }
      ],
      "name": "ApprovalForAll",
      "type": "event"
    },
    {
      "anonymous": false,
      "inputs": [
        {
          "indexed": true,
          "internalType": "address",
          "name": "_to",
          "type": "address"
        },
        {
          "indexed": true,
          "internalType": "uint256",
          "name": "_tokenId",
          "type": "uint256"
        }
      ],
      "name": "Mint",
      "type": "event"
    },
    {
      "anonymous": false,
      "inputs": [
        {
          "indexed": true,
          "internalType": "address",
          "name": "_currentMinter",
          "type": "address"
        }
      ],
      "name": "MinterUpdated",
      "type": "event"
    },
    {
      "anonymous": false,
      "inputs": [
        {
          "indexed": true,
          "internalType": "address",
          "name": "previousOwner",
          "type": "address"
        },
        {
          "indexed": true,
          "internalType": "address",
          "name": "newOwner",
          "type": "address"
        }
      ],
      "name": "OwnershipTransferred",
      "type": "event"
    },
    {
      "anonymous": false,
      "inputs": [
        {
          "indexed": true,
          "internalType": "bytes32",
          "name": "_field",
          "type": "bytes32"
        }
      ],
      "name": "PlatformUpdated",
      "type": "event"
    },
    {
      "anonymous": false,
      "inputs": [
        {
          "indexed": true,
          "internalType": "uint256",
          "name": "projectId",
          "type": "uint256"
        },
        {
          "indexed": true,
          "internalType": "address",
          "name": "royaltySplitter",
          "type": "address"
        }
      ],
      "name": "ProjectRoyaltySplitterUpdated",
      "type": "event"
    },
    {
      "anonymous": false,
      "inputs": [
        {
          "indexed": true,
          "internalType": "uint256",
          "name": "_projectId",
          "type": "uint256"
        },
        {
          "indexed": true,
          "internalType": "bytes32",
          "name": "_update",
          "type": "bytes32"
        }
      ],
      "name": "ProjectUpdated",
      "type": "event"
    },
    {
      "anonymous": false,
      "inputs": [
        {
          "indexed": true,
          "internalType": "uint256",
          "name": "_projectId",
          "type": "uint256"
        },
        {
          "indexed": false,
          "internalType": "address",
          "name": "_artistAddress",
          "type": "address"
        },
        {
          "indexed": false,
          "internalType": "address",
          "name": "_additionalPayeePrimarySales",
          "type": "address"
        },
        {
          "indexed": false,
          "internalType": "uint256",
          "name": "_additionalPayeePrimarySalesPercentage",
          "type": "uint256"
        },
        {
          "indexed": false,
          "internalType": "address",
          "name": "_additionalPayeeSecondarySales",
          "type": "address"
        },
        {
          "indexed": false,
          "internalType": "uint256",
          "name": "_additionalPayeeSecondarySalesPercentage",
          "type": "uint256"
        }
      ],
      "name": "ProposedArtistAddressesAndSplits",
      "type": "event"
    },
    {
      "anonymous": false,
      "inputs": [
        {
          "indexed": true,
          "internalType": "address",
          "name": "from",
          "type": "address"
        },
        {
          "indexed": true,
          "internalType": "address",
          "name": "to",
          "type": "address"
        },
        {
          "indexed": true,
          "internalType": "uint256",
          "name": "tokenId",
          "type": "uint256"
        }
      ],
      "name": "Transfer",
      "type": "event"
    },
    {
      "inputs": [
        {
          "internalType": "uint256",
          "name": "_projectId",
          "type": "uint256"
        }
      ],
      "name": "_projectIdToFinancials",
      "outputs": [
        {
          "internalType": "address payable",
          "name": "additionalPayeePrimarySales",
          "type": "address"
        },
        {
          "internalType": "uint8",
          "name": "secondaryMarketRoyaltyPercentage",
          "type": "uint8"
        },
        {
          "internalType": "address payable",
          "name": "additionalPayeeSecondarySales",
          "type": "address"
        },
        {
          "internalType": "uint8",
          "name": "additionalPayeeSecondarySalesPercentage",
          "type": "uint8"
        },
        {
          "internalType": "address payable",
          "name": "artistAddress",
          "type": "address"
        },
        {
          "internalType": "uint8",
          "name": "additionalPayeePrimarySalesPercentage",
          "type": "uint8"
        },
        {
          "internalType": "address",
          "name": "platformProviderSecondarySalesAddress",
          "type": "address"
        },
        {
          "internalType": "uint16",
          "name": "platformProviderSecondarySalesBPS",
          "type": "uint16"
        },
        {
          "internalType": "address",
          "name": "renderProviderSecondarySalesAddress",
          "type": "address"
        },
        {
          "internalType": "uint16",
          "name": "renderProviderSecondarySalesBPS",
          "type": "uint16"
        },
        {
          "internalType": "address",
          "name": "royaltySplitter",
          "type": "address"
        }
      ],
      "stateMutability": "view",
      "type": "function"
    },
    {
      "inputs": [
        {
          "internalType": "string",
          "name": "_projectName",
          "type": "string"
        },
        {
          "internalType": "address payable",
          "name": "_artistAddress",
          "type": "address"
        }
      ],
      "name": "addProject",
      "outputs": [],
      "stateMutability": "nonpayable",
      "type": "function"
    },
    {
      "inputs": [
        {
          "internalType": "uint256",
          "name": "_projectId",
          "type": "uint256"
        },
        {
          "internalType": "string",
          "name": "_script",
          "type": "string"
        }
      ],
      "name": "addProjectScript",
      "outputs": [],
      "stateMutability": "nonpayable",
      "type": "function"
    },
    {
      "inputs": [
        {
          "internalType": "uint256",
          "name": "_projectId",
          "type": "uint256"
        },
        {
          "internalType": "bytes",
          "name": "_compressedScript",
          "type": "bytes"
        }
      ],
      "name": "addProjectScriptCompressed",
      "outputs": [],
      "stateMutability": "nonpayable",
      "type": "function"
    },
    {
      "inputs": [],
      "name": "admin",
      "outputs": [
        {
          "internalType": "address",
          "name": "",
          "type": "address"
        }
      ],
      "stateMutability": "view",
      "type": "function"
    },
    {
      "inputs": [
        {
          "internalType": "address",
          "name": "_sender",
          "type": "address"
        },
        {
          "internalType": "address",
          "name": "_contract",
          "type": "address"
        },
        {
          "internalType": "bytes4",
          "name": "_selector",
          "type": "bytes4"
        }
      ],
      "name": "adminACLAllowed",
      "outputs": [
        {
          "internalType": "bool",
          "name": "",
          "type": "bool"
        }
      ],
      "stateMutability": "nonpayable",
      "type": "function"
    },
    {
      "inputs": [],
      "name": "adminACLContract",
      "outputs": [
        {
          "internalType": "contract IAdminACLV0",
          "name": "",
          "type": "address"
        }
      ],
      "stateMutability": "view",
      "type": "function"
    },
    {
      "inputs": [
        {
          "internalType": "uint256",
          "name": "_projectId",
          "type": "uint256"
        },
        {
          "internalType": "address payable",
          "name": "_artistAddress",
          "type": "address"
        },
        {
          "internalType": "address payable",
          "name": "_additionalPayeePrimarySales",
          "type": "address"
        },
        {
          "internalType": "uint256",
          "name": "_additionalPayeePrimarySalesPercentage",
          "type": "uint256"
        },
        {
          "internalType": "address payable",
          "name": "_additionalPayeeSecondarySales",
          "type": "address"
        },
        {
          "internalType": "uint256",
          "name": "_additionalPayeeSecondarySalesPercentage",
          "type": "uint256"
        }
      ],
      "name": "adminAcceptArtistAddressesAndSplits",
      "outputs": [],
      "stateMutability": "nonpayable",
      "type": "function"
    },
    {
      "inputs": [],
      "name": "allowArtistProjectActivation",
      "outputs": [
        {
          "internalType": "bool",
          "name": "",
          "type": "bool"
        }
      ],
      "stateMutability": "view",
      "type": "function"
    },
    {
      "inputs": [
        {
          "internalType": "address",
          "name": "to",
          "type": "address"
        },
        {
          "internalType": "uint256",
          "name": "tokenId",
          "type": "uint256"
        }
      ],
      "name": "approve",
      "outputs": [],
      "stateMutability": "nonpayable",
      "type": "function"
    },
    {
      "inputs": [],
      "name": "artblocksDependencyRegistryAddress",
      "outputs": [
        {
          "internalType": "address",
          "name": "",
          "type": "address"
        }
      ],
      "stateMutability": "view",
      "type": "function"
    },
    {
      "inputs": [],
      "name": "artblocksOnChainGeneratorAddress",
      "outputs": [
        {
          "internalType": "address",
          "name": "",
          "type": "address"
        }
      ],
      "stateMutability": "view",
      "type": "function"
    },
    {
      "inputs": [],
      "name": "autoApproveArtistSplitProposals",
      "outputs": [
        {
          "internalType": "bool",
          "name": "",
          "type": "bool"
        }
      ],
      "stateMutability": "view",
      "type": "function"
    },
    {
      "inputs": [
        {
          "internalType": "address",
          "name": "owner",
          "type": "address"
        }
      ],
      "name": "balanceOf",
      "outputs": [
        {
          "internalType": "uint256",
          "name": "",
          "type": "uint256"
        }
      ],
      "stateMutability": "view",
      "type": "function"
    },
    {
      "inputs": [],
      "name": "coreType",
      "outputs": [
        {
          "internalType": "string",
          "name": "",
          "type": "string"
        }
      ],
      "stateMutability": "pure",
      "type": "function"
    },
    {
      "inputs": [],
      "name": "coreVersion",
      "outputs": [
        {
          "internalType": "string",
          "name": "",
          "type": "string"
        }
      ],
      "stateMutability": "pure",
      "type": "function"
    },
    {
      "inputs": [],
      "name": "defaultBaseURI",
      "outputs": [
        {
          "internalType": "string",
          "name": "",
          "type": "string"
        }
      ],
      "stateMutability": "view",
      "type": "function"
    },
    {
      "inputs": [],
      "name": "defaultPlatformProviderSecondarySalesAddress",
      "outputs": [
        {
          "internalType": "address payable",
          "name": "",
          "type": "address"
        }
      ],
      "stateMutability": "view",
      "type": "function"
    },
    {
      "inputs": [],
      "name": "defaultPlatformProviderSecondarySalesBPS",
      "outputs": [
        {
          "internalType": "uint256",
          "name": "",
          "type": "uint256"
        }
      ],
      "stateMutability": "view",
      "type": "function"
    },
    {
      "inputs": [],
      "name": "defaultRenderProviderSecondarySalesAddress",
      "outputs": [
        {
          "internalType": "address payable",
          "name": "",
          "type": "address"
        }
      ],
      "stateMutability": "view",
      "type": "function"
    },
    {
      "inputs": [],
      "name": "defaultRenderProviderSecondarySalesBPS",
      "outputs": [
        {
          "internalType": "uint256",
          "name": "",
          "type": "uint256"
        }
      ],
      "stateMutability": "view",
      "type": "function"
    },
    {
      "inputs": [],
      "name": "forbidNewProjects",
      "outputs": [],
      "stateMutability": "nonpayable",
      "type": "function"
    },
    {
      "inputs": [
        {
          "internalType": "uint256",
          "name": "tokenId",
          "type": "uint256"
        }
      ],
      "name": "getApproved",
      "outputs": [
        {
          "internalType": "address",
          "name": "",
          "type": "address"
        }
      ],
      "stateMutability": "view",
      "type": "function"
    },
    {
      "inputs": [
        {
          "internalType": "string",
          "name": "_script",
          "type": "string"
        }
      ],
      "name": "getCompressed",
      "outputs": [
        {
          "internalType": "bytes",
          "name": "",
          "type": "bytes"
        }
      ],
      "stateMutability": "pure",
      "type": "function"
    },
    {
      "inputs": [
        {
          "internalType": "uint256",
          "name": "_index",
          "type": "uint256"
        }
      ],
      "name": "getHistoricalRandomizerAt",
      "outputs": [
        {
          "internalType": "address",
          "name": "",
          "type": "address"
        }
      ],
      "stateMutability": "view",
      "type": "function"
    },
    {
      "inputs": [
        {
          "internalType": "uint256",
          "name": "_projectId",
          "type": "uint256"
        },
        {
          "internalType": "uint256",
          "name": "_price",
          "type": "uint256"
        }
      ],
      "name": "getPrimaryRevenueSplits",
      "outputs": [
        {
          "internalType": "uint256",
          "name": "renderProviderRevenue_",
          "type": "uint256"
        },
        {
          "internalType": "address payable",
          "name": "renderProviderAddress_",
          "type": "address"
        },
        {
          "internalType": "uint256",
          "name": "platformProviderRevenue_",
          "type": "uint256"
        },
        {
          "internalType": "address payable",
          "name": "platformProviderAddress_",
          "type": "address"
        },
        {
          "internalType": "uint256",
          "name": "artistRevenue_",
          "type": "uint256"
        },
        {
          "internalType": "address payable",
          "name": "artistAddress_",
          "type": "address"
        },
        {
          "internalType": "uint256",
          "name": "additionalPayeePrimaryRevenue_",
          "type": "uint256"
        },
        {
          "internalType": "address payable",
          "name": "additionalPayeePrimaryAddress_",
          "type": "address"
        }
      ],
      "stateMutability": "view",
      "type": "function"
    },
    {
      "inputs": [
        {
          "internalType": "address",
          "name": "owner",
          "type": "address"
        },
        {
          "internalType": "address",
          "name": "operator",
          "type": "address"
        }
      ],
      "name": "isApprovedForAll",
      "outputs": [
        {
          "internalType": "bool",
          "name": "",
          "type": "bool"
        }
      ],
      "stateMutability": "view",
      "type": "function"
    },
    {
      "inputs": [
        {
          "internalType": "address",
          "name": "_minter",
          "type": "address"
        }
      ],
      "name": "isMintWhitelisted",
      "outputs": [
        {
          "internalType": "bool",
          "name": "",
          "type": "bool"
        }
      ],
      "stateMutability": "view",
      "type": "function"
    },
    {
      "inputs": [
        {
          "internalType": "address",
          "name": "_to",
          "type": "address"
        },
        {
          "internalType": "uint256",
          "name": "_projectId",
          "type": "uint256"
        },
        {
          "internalType": "address",
          "name": "_by",
          "type": "address"
        }
      ],
      "name": "mint_Ecf",
      "outputs": [
        {
          "internalType": "uint256",
          "name": "_tokenId",
          "type": "uint256"
        }
      ],
      "stateMutability": "nonpayable",
      "type": "function"
    },
    {
      "inputs": [],
      "name": "minterContract",
      "outputs": [
        {
          "internalType": "address",
          "name": "",
          "type": "address"
        }
      ],
      "stateMutability": "view",
      "type": "function"
    },
    {
      "inputs": [],
      "name": "name",
      "outputs": [
        {
          "internalType": "string",
          "name": "",
          "type": "string"
        }
      ],
      "stateMutability": "view",
      "type": "function"
    },
    {
      "inputs": [],
      "name": "newProjectsForbidden",
      "outputs": [
        {
          "internalType": "bool",
          "name": "",
          "type": "bool"
        }
      ],
      "stateMutability": "view",
      "type": "function"
    },
    {
      "inputs": [],
      "name": "nextCoreContract",
      "outputs": [
        {
          "internalType": "address",
          "name": "",
          "type": "address"
        }
      ],
      "stateMutability": "view",
      "type": "function"
    },
    {
      "inputs": [],
      "name": "nextProjectId",
      "outputs": [
        {
          "internalType": "uint256",
          "name": "",
          "type": "uint256"
        }
      ],
      "stateMutability": "view",
      "type": "function"
    },
    {
      "inputs": [],
      "name": "nullPlatformProvider",
      "outputs": [
        {
          "internalType": "bool",
          "name": "",
          "type": "bool"
        }
      ],
      "stateMutability": "view",
      "type": "function"
    },
    {
      "inputs": [],
      "name": "numHistoricalRandomizers",
      "outputs": [
        {
          "internalType": "uint256",
          "name": "",
          "type": "uint256"
        }
      ],
      "stateMutability": "view",
      "type": "function"
    },
    {
      "inputs": [],
      "name": "owner",
      "outputs": [
        {
          "internalType": "address",
          "name": "",
          "type": "address"
        }
      ],
      "stateMutability": "view",
      "type": "function"
    },
    {
      "inputs": [
        {
          "internalType": "uint256",
          "name": "tokenId",
          "type": "uint256"
        }
      ],
      "name": "ownerOf",
      "outputs": [
        {
          "internalType": "address",
          "name": "",
          "type": "address"
        }
      ],
      "stateMutability": "view",
      "type": "function"
    },
    {
      "inputs": [],
      "name": "platformProviderPrimarySalesAddress",
      "outputs": [
        {
          "internalType": "address payable",
          "name": "",
          "type": "address"
        }
      ],
      "stateMutability": "view",
      "type": "function"
    },
    {
      "inputs": [],
      "name": "platformProviderPrimarySalesPercentage",
      "outputs": [
        {
          "internalType": "uint256",
          "name": "",
          "type": "uint256"
        }
      ],
      "stateMutability": "view",
      "type": "function"
    },
    {
      "inputs": [
        {
          "internalType": "uint256",
          "name": "_projectId",
          "type": "uint256"
        }
      ],
      "name": "projectDetails",
      "outputs": [
        {
          "internalType": "string",
          "name": "projectName",
          "type": "string"
        },
        {
          "internalType": "string",
          "name": "artist",
          "type": "string"
        },
        {
          "internalType": "string",
          "name": "description",
          "type": "string"
        },
        {
          "internalType": "string",
          "name": "website",
          "type": "string"
        },
        {
          "internalType": "string",
          "name": "license",
          "type": "string"
        }
      ],
      "stateMutability": "view",
      "type": "function"
    },
    {
      "inputs": [
        {
          "internalType": "uint256",
          "name": "_projectId",
          "type": "uint256"
        }
      ],
      "name": "projectIdToArtistAddress",
      "outputs": [
        {
          "internalType": "address payable",
          "name": "",
          "type": "address"
        }
      ],
      "stateMutability": "view",
      "type": "function"
    },
    {
      "inputs": [
        {
          "internalType": "uint256",
          "name": "_projectId",
          "type": "uint256"
        }
      ],
      "name": "projectIdToFinancials",
      "outputs": [
        {
          "components": [
            {
              "internalType": "address payable",
              "name": "additionalPayeePrimarySales",
              "type": "address"
            },
            {
              "internalType": "uint8",
              "name": "secondaryMarketRoyaltyPercentage",
              "type": "uint8"
            },
            {
              "internalType": "address payable",
              "name": "additionalPayeeSecondarySales",
              "type": "address"
            },
            {
              "internalType": "uint8",
              "name": "additionalPayeeSecondarySalesPercentage",
              "type": "uint8"
            },
            {
              "internalType": "address payable",
              "name": "artistAddress",
              "type": "address"
            },
            {
              "internalType": "uint8",
              "name": "additionalPayeePrimarySalesPercentage",
              "type": "uint8"
            },
            {
              "internalType": "address",
              "name": "platformProviderSecondarySalesAddress",
              "type": "address"
            },
            {
              "internalType": "uint16",
              "name": "platformProviderSecondarySalesBPS",
              "type": "uint16"
            },
            {
              "internalType": "address",
              "name": "renderProviderSecondarySalesAddress",
              "type": "address"
            },
            {
              "internalType": "uint16",
              "name": "renderProviderSecondarySalesBPS",
              "type": "uint16"
            },
            {
              "internalType": "address",
              "name": "royaltySplitter",
              "type": "address"
            }
          ],
          "internalType": "struct IGenArt721CoreContractV3_ProjectFinance.ProjectFinance",
          "name": "",
          "type": "tuple"
        }
      ],
      "stateMutability": "view",
      "type": "function"
    },
    {
      "inputs": [
        {
          "internalType": "uint256",
          "name": "_projectId",
          "type": "uint256"
        }
      ],
      "name": "projectIdToSecondaryMarketRoyaltyPercentage",
      "outputs": [
        {
          "internalType": "uint256",
          "name": "",
          "type": "uint256"
        }
      ],
      "stateMutability": "view",
      "type": "function"
    },
    {
      "inputs": [
        {
          "internalType": "uint256",
          "name": "_projectId",
          "type": "uint256"
        },
        {
          "internalType": "uint256",
          "name": "_index",
          "type": "uint256"
        }
      ],
      "name": "projectScriptByIndex",
      "outputs": [
        {
          "internalType": "string",
          "name": "",
          "type": "string"
        }
      ],
      "stateMutability": "view",
      "type": "function"
    },
    {
      "inputs": [
        {
          "internalType": "uint256",
          "name": "_projectId",
          "type": "uint256"
        },
        {
          "internalType": "uint256",
          "name": "_index",
          "type": "uint256"
        }
      ],
      "name": "projectScriptBytecodeAddressByIndex",
      "outputs": [
        {
          "internalType": "address",
          "name": "",
          "type": "address"
        }
      ],
      "stateMutability": "view",
      "type": "function"
    },
    {
      "inputs": [
        {
          "internalType": "uint256",
          "name": "_projectId",
          "type": "uint256"
        }
      ],
      "name": "projectScriptDetails",
      "outputs": [
        {
          "internalType": "string",
          "name": "scriptTypeAndVersion",
          "type": "string"
        },
        {
          "internalType": "string",
          "name": "aspectRatio",
          "type": "string"
        },
        {
          "internalType": "uint256",
          "name": "scriptCount",
          "type": "uint256"
        }
      ],
      "stateMutability": "view",
      "type": "function"
    },
    {
      "inputs": [
        {
          "internalType": "uint256",
          "name": "_projectId",
          "type": "uint256"
        }
      ],
      "name": "projectStateData",
      "outputs": [
        {
          "internalType": "uint256",
          "name": "invocations",
          "type": "uint256"
        },
        {
          "internalType": "uint256",
          "name": "maxInvocations",
          "type": "uint256"
        },
        {
          "internalType": "bool",
          "name": "active",
          "type": "bool"
        },
        {
          "internalType": "bool",
          "name": "paused",
          "type": "bool"
        },
        {
          "internalType": "uint256",
          "name": "completedTimestamp",
          "type": "uint256"
        },
        {
          "internalType": "bool",
          "name": "locked",
          "type": "bool"
        }
      ],
      "stateMutability": "view",
      "type": "function"
    },
    {
      "inputs": [
        {
          "internalType": "uint256",
          "name": "_projectId",
          "type": "uint256"
        }
      ],
      "name": "projectURIInfo",
      "outputs": [
        {
          "internalType": "string",
          "name": "projectBaseURI",
          "type": "string"
        }
      ],
      "stateMutability": "view",
      "type": "function"
    },
    {
      "inputs": [
        {
          "internalType": "uint256",
          "name": "_projectId",
          "type": "uint256"
        },
        {
          "internalType": "address payable",
          "name": "_artistAddress",
          "type": "address"
        },
        {
          "internalType": "address payable",
          "name": "_additionalPayeePrimarySales",
          "type": "address"
        },
        {
          "internalType": "uint256",
          "name": "_additionalPayeePrimarySalesPercentage",
          "type": "uint256"
        },
        {
          "internalType": "address payable",
          "name": "_additionalPayeeSecondarySales",
          "type": "address"
        },
        {
          "internalType": "uint256",
          "name": "_additionalPayeeSecondarySalesPercentage",
          "type": "uint256"
        }
      ],
      "name": "proposeArtistPaymentAddressesAndSplits",
      "outputs": [],
      "stateMutability": "nonpayable",
      "type": "function"
    },
    {
      "inputs": [
        {
          "internalType": "uint256",
          "name": "",
          "type": "uint256"
        }
      ],
      "name": "proposedArtistAddressesAndSplitsHash",
      "outputs": [
        {
          "internalType": "bytes32",
          "name": "",
          "type": "bytes32"
        }
      ],
      "stateMutability": "view",
      "type": "function"
    },
    {
      "inputs": [],
      "name": "randomizerContract",
      "outputs": [
        {
          "internalType": "contract IRandomizer_V3CoreBase",
          "name": "",
          "type": "address"
        }
      ],
      "stateMutability": "view",
      "type": "function"
    },
    {
      "inputs": [
        {
          "internalType": "uint256",
          "name": "_projectId",
          "type": "uint256"
        }
      ],
      "name": "removeProjectLastScript",
      "outputs": [],
      "stateMutability": "nonpayable",
      "type": "function"
    },
    {
      "inputs": [],
      "name": "renderProviderPrimarySalesAddress",
      "outputs": [
        {
          "internalType": "address payable",
          "name": "",
          "type": "address"
        }
      ],
      "stateMutability": "view",
      "type": "function"
    },
    {
      "inputs": [],
      "name": "renderProviderPrimarySalesPercentage",
      "outputs": [
        {
          "internalType": "uint256",
          "name": "",
          "type": "uint256"
        }
      ],
      "stateMutability": "view",
      "type": "function"
    },
    {
      "inputs": [],
      "name": "renounceOwnership",
      "outputs": [],
      "stateMutability": "nonpayable",
      "type": "function"
    },
    {
      "inputs": [
        {
          "internalType": "uint256",
          "name": "_tokenId",
          "type": "uint256"
        },
        {
          "internalType": "uint256",
          "name": "_salePrice",
          "type": "uint256"
        }
      ],
      "name": "royaltyInfo",
      "outputs": [
        {
          "internalType": "address",
          "name": "receiver",
          "type": "address"
        },
        {
          "internalType": "uint256",
          "name": "royaltyAmount",
          "type": "uint256"
        }
      ],
      "stateMutability": "view",
      "type": "function"
    },
    {
      "inputs": [
        {
          "internalType": "address",
          "name": "from",
          "type": "address"
        },
        {
          "internalType": "address",
          "name": "to",
          "type": "address"
        },
        {
          "internalType": "uint256",
          "name": "tokenId",
          "type": "uint256"
        }
      ],
      "name": "safeTransferFrom",
      "outputs": [],
      "stateMutability": "nonpayable",
      "type": "function"
    },
    {
      "inputs": [
        {
          "internalType": "address",
          "name": "from",
          "type": "address"
        },
        {
          "internalType": "address",
          "name": "to",
          "type": "address"
        },
        {
          "internalType": "uint256",
          "name": "tokenId",
          "type": "uint256"
        },
        {
          "internalType": "bytes",
          "name": "data",
          "type": "bytes"
        }
      ],
      "name": "safeTransferFrom",
      "outputs": [],
      "stateMutability": "nonpayable",
      "type": "function"
    },
    {
      "inputs": [
        {
          "internalType": "address",
          "name": "operator",
          "type": "address"
        },
        {
          "internalType": "bool",
          "name": "approved",
          "type": "bool"
        }
      ],
      "name": "setApprovalForAll",
      "outputs": [],
      "stateMutability": "nonpayable",
      "type": "function"
    },
    {
      "inputs": [
        {
          "internalType": "uint256",
          "name": "_tokenId",
          "type": "uint256"
        },
        {
          "internalType": "bytes32",
          "name": "_hashSeed",
          "type": "bytes32"
        }
      ],
      "name": "setTokenHash_8PT",
      "outputs": [],
      "stateMutability": "nonpayable",
      "type": "function"
    },
    {
      "inputs": [],
      "name": "splitProvider",
      "outputs": [
        {
          "internalType": "contract ISplitProviderV0",
          "name": "",
          "type": "address"
        }
      ],
      "stateMutability": "view",
      "type": "function"
    },
    {
      "inputs": [],
      "name": "startingProjectId",
      "outputs": [
        {
          "internalType": "uint256",
          "name": "",
          "type": "uint256"
        }
      ],
      "stateMutability": "view",
      "type": "function"
    },
    {
      "inputs": [
        {
          "internalType": "bytes4",
          "name": "interfaceId",
          "type": "bytes4"
        }
      ],
      "name": "supportsInterface",
      "outputs": [
        {
          "internalType": "bool",
          "name": "",
          "type": "bool"
        }
      ],
      "stateMutability": "view",
      "type": "function"
    },
    {
      "inputs": [],
      "name": "symbol",
      "outputs": [
        {
          "internalType": "string",
          "name": "",
          "type": "string"
        }
      ],
      "stateMutability": "view",
      "type": "function"
    },
    {
      "inputs": [
        {
          "internalType": "uint256",
          "name": "_projectId",
          "type": "uint256"
        }
      ],
      "name": "syncProviderSecondaryForProjectToDefaults",
      "outputs": [],
      "stateMutability": "nonpayable",
      "type": "function"
    },
    {
      "inputs": [
        {
          "internalType": "uint256",
          "name": "_projectId",
          "type": "uint256"
        }
      ],
      "name": "toggleProjectIsActive",
      "outputs": [],
      "stateMutability": "nonpayable",
      "type": "function"
    },
    {
      "inputs": [
        {
          "internalType": "uint256",
          "name": "_projectId",
          "type": "uint256"
        }
      ],
      "name": "toggleProjectIsPaused",
      "outputs": [],
      "stateMutability": "nonpayable",
      "type": "function"
    },
    {
      "inputs": [
        {
          "internalType": "uint256",
          "name": "_tokenId",
          "type": "uint256"
        }
      ],
      "name": "tokenIdToHash",
      "outputs": [
        {
          "internalType": "bytes32",
          "name": "",
          "type": "bytes32"
        }
      ],
      "stateMutability": "view",
      "type": "function"
    },
    {
      "inputs": [
        {
          "internalType": "uint256",
          "name": "_tokenId",
          "type": "uint256"
        }
      ],
      "name": "tokenIdToHashSeed",
      "outputs": [
        {
          "internalType": "bytes12",
          "name": "",
          "type": "bytes12"
        }
      ],
      "stateMutability": "view",
      "type": "function"
    },
    {
      "inputs": [
        {
          "internalType": "uint256",
          "name": "_tokenId",
          "type": "uint256"
        }
      ],
      "name": "tokenIdToProjectId",
      "outputs": [
        {
          "internalType": "uint256",
          "name": "_projectId",
          "type": "uint256"
        }
      ],
      "stateMutability": "pure",
      "type": "function"
    },
    {
      "inputs": [
        {
          "internalType": "uint256",
          "name": "_tokenId",
          "type": "uint256"
        }
      ],
      "name": "tokenURI",
      "outputs": [
        {
          "internalType": "string",
          "name": "",
          "type": "string"
        }
      ],
      "stateMutability": "view",
      "type": "function"
    },
    {
      "inputs": [
        {
          "internalType": "address",
          "name": "from",
          "type": "address"
        },
        {
          "internalType": "address",
          "name": "to",
          "type": "address"
        },
        {
          "internalType": "uint256",
          "name": "tokenId",
          "type": "uint256"
        }
      ],
      "name": "transferFrom",
      "outputs": [],
      "stateMutability": "nonpayable",
      "type": "function"
    },
    {
      "inputs": [
        {
          "internalType": "address",
          "name": "newOwner",
          "type": "address"
        }
      ],
      "name": "transferOwnership",
      "outputs": [],
      "stateMutability": "nonpayable",
      "type": "function"
    },
    {
      "inputs": [
        {
          "internalType": "address",
          "name": "_artblocksDependencyRegistryAddress",
          "type": "address"
        }
      ],
      "name": "updateArtblocksDependencyRegistryAddress",
      "outputs": [],
      "stateMutability": "nonpayable",
      "type": "function"
    },
    {
      "inputs": [
        {
          "internalType": "address",
          "name": "_artblocksOnChainGeneratorAddress",
          "type": "address"
        }
      ],
      "name": "updateArtblocksOnChainGeneratorAddress",
      "outputs": [],
      "stateMutability": "nonpayable",
      "type": "function"
    },
    {
      "inputs": [
        {
          "internalType": "string",
          "name": "_defaultBaseURI",
          "type": "string"
        }
      ],
      "name": "updateDefaultBaseURI",
      "outputs": [],
      "stateMutability": "nonpayable",
      "type": "function"
    },
    {
      "inputs": [
        {
          "internalType": "address",
          "name": "_address",
          "type": "address"
        }
      ],
      "name": "updateMinterContract",
      "outputs": [],
      "stateMutability": "nonpayable",
      "type": "function"
    },
    {
      "inputs": [
        {
          "internalType": "address",
          "name": "_nextCoreContract",
          "type": "address"
        }
      ],
      "name": "updateNextCoreContract",
      "outputs": [],
      "stateMutability": "nonpayable",
      "type": "function"
    },
    {
      "inputs": [
        {
          "internalType": "uint256",
          "name": "_projectId",
          "type": "uint256"
        },
        {
          "internalType": "address payable",
          "name": "_artistAddress",
          "type": "address"
        }
      ],
      "name": "updateProjectArtistAddress",
      "outputs": [],
      "stateMutability": "nonpayable",
      "type": "function"
    },
    {
      "inputs": [
        {
          "internalType": "uint256",
          "name": "_projectId",
          "type": "uint256"
        },
        {
          "internalType": "string",
          "name": "_projectArtistName",
          "type": "string"
        }
      ],
      "name": "updateProjectArtistName",
      "outputs": [],
      "stateMutability": "nonpayable",
      "type": "function"
    },
    {
      "inputs": [
        {
          "internalType": "uint256",
          "name": "_projectId",
          "type": "uint256"
        },
        {
          "internalType": "string",
          "name": "_aspectRatio",
          "type": "string"
        }
      ],
      "name": "updateProjectAspectRatio",
      "outputs": [],
      "stateMutability": "nonpayable",
      "type": "function"
    },
    {
      "inputs": [
        {
          "internalType": "uint256",
          "name": "_projectId",
          "type": "uint256"
        },
        {
          "internalType": "string",
          "name": "_newBaseURI",
          "type": "string"
        }
      ],
      "name": "updateProjectBaseURI",
      "outputs": [],
      "stateMutability": "nonpayable",
      "type": "function"
    },
    {
      "inputs": [
        {
          "internalType": "uint256",
          "name": "_projectId",
          "type": "uint256"
        },
        {
          "internalType": "string",
          "name": "_projectDescription",
          "type": "string"
        }
      ],
      "name": "updateProjectDescription",
      "outputs": [],
      "stateMutability": "nonpayable",
      "type": "function"
    },
    {
      "inputs": [
        {
          "internalType": "uint256",
          "name": "_projectId",
          "type": "uint256"
        },
        {
          "internalType": "string",
          "name": "_projectLicense",
          "type": "string"
        }
      ],
      "name": "updateProjectLicense",
      "outputs": [],
      "stateMutability": "nonpayable",
      "type": "function"
    },
    {
      "inputs": [
        {
          "internalType": "uint256",
          "name": "_projectId",
          "type": "uint256"
        },
        {
          "internalType": "uint24",
          "name": "_maxInvocations",
          "type": "uint24"
        }
      ],
      "name": "updateProjectMaxInvocations",
      "outputs": [],
      "stateMutability": "nonpayable",
      "type": "function"
    },
    {
      "inputs": [
        {
          "internalType": "uint256",
          "name": "_projectId",
          "type": "uint256"
        },
        {
          "internalType": "string",
          "name": "_projectName",
          "type": "string"
        }
      ],
      "name": "updateProjectName",
      "outputs": [],
      "stateMutability": "nonpayable",
      "type": "function"
    },
    {
      "inputs": [
        {
          "internalType": "uint256",
          "name": "_projectId",
          "type": "uint256"
        },
        {
          "internalType": "uint256",
          "name": "_scriptId",
          "type": "uint256"
        },
        {
          "internalType": "string",
          "name": "_script",
          "type": "string"
        }
      ],
      "name": "updateProjectScript",
      "outputs": [],
      "stateMutability": "nonpayable",
      "type": "function"
    },
    {
      "inputs": [
        {
          "internalType": "uint256",
          "name": "_projectId",
          "type": "uint256"
        },
        {
          "internalType": "uint256",
          "name": "_scriptId",
          "type": "uint256"
        },
        {
          "internalType": "bytes",
          "name": "_compressedScript",
          "type": "bytes"
        }
      ],
      "name": "updateProjectScriptCompressed",
      "outputs": [],
      "stateMutability": "nonpayable",
      "type": "function"
    },
    {
      "inputs": [
        {
          "internalType": "uint256",
          "name": "_projectId",
          "type": "uint256"
        },
        {
          "internalType": "bytes32",
          "name": "_scriptTypeAndVersion",
          "type": "bytes32"
        }
      ],
      "name": "updateProjectScriptType",
      "outputs": [],
      "stateMutability": "nonpayable",
      "type": "function"
    },
    {
      "inputs": [
        {
          "internalType": "uint256",
          "name": "_projectId",
          "type": "uint256"
        },
        {
          "internalType": "uint256",
          "name": "_secondMarketRoyalty",
          "type": "uint256"
        }
      ],
      "name": "updateProjectSecondaryMarketRoyaltyPercentage",
      "outputs": [],
      "stateMutability": "nonpayable",
      "type": "function"
    },
    {
      "inputs": [
        {
          "internalType": "uint256",
          "name": "_projectId",
          "type": "uint256"
        },
        {
          "internalType": "string",
          "name": "_projectWebsite",
          "type": "string"
        }
      ],
      "name": "updateProjectWebsite",
      "outputs": [],
      "stateMutability": "nonpayable",
      "type": "function"
    },
    {
      "inputs": [
        {
          "internalType": "uint256",
          "name": "_defaultRenderProviderSecondarySalesBPS",
          "type": "uint256"
        },
        {
          "internalType": "uint256",
          "name": "_defaultPlatformProviderSecondarySalesBPS",
          "type": "uint256"
        }
      ],
      "name": "updateProviderDefaultSecondarySalesBPS",
      "outputs": [],
      "stateMutability": "nonpayable",
      "type": "function"
    },
    {
      "inputs": [
        {
          "internalType": "uint256",
          "name": "renderProviderPrimarySalesPercentage_",
          "type": "uint256"
        },
        {
          "internalType": "uint256",
          "name": "platformProviderPrimarySalesPercentage_",
          "type": "uint256"
        }
      ],
      "name": "updateProviderPrimarySalesPercentages",
      "outputs": [],
      "stateMutability": "nonpayable",
      "type": "function"
    },
    {
      "inputs": [
        {
          "internalType": "address payable",
          "name": "_renderProviderPrimarySalesAddress",
          "type": "address"
        },
        {
          "internalType": "address payable",
          "name": "_defaultRenderProviderSecondarySalesAddress",
          "type": "address"
        },
        {
          "internalType": "address payable",
          "name": "_platformProviderPrimarySalesAddress",
          "type": "address"
        },
        {
          "internalType": "address payable",
          "name": "_defaultPlatformProviderSecondarySalesAddress",
          "type": "address"
        }
      ],
      "name": "updateProviderSalesAddresses",
      "outputs": [],
      "stateMutability": "nonpayable",
      "type": "function"
    },
    {
      "inputs": [
        {
          "internalType": "address",
          "name": "_randomizerAddress",
          "type": "address"
        }
      ],
      "name": "updateRandomizerAddress",
      "outputs": [],
      "stateMutability": "nonpayable",
      "type": "function"
    },
    {
      "inputs": [
        {
          "internalType": "address",
          "name": "_splitProviderAddress",
          "type": "address"
        }
      ],
      "name": "updateSplitProvider",
      "outputs": [],
      "stateMutability": "nonpayable",
      "type": "function"
    }
  ],
  "bytecode": "0x61010060405260108054600560a11b60ff60a01b19918216811790925560118054909116909117905560fa60138190556015553480156200003f57600080fd5b50604051620061123803806200611283398101604081905262000062916200086a565b8a8a600062000072838262000a16565b50600162000081828262000a16565b5050506200009e62000098620001bc60201b60201c565b620001c0565b620000a989620001ed565b8115620000c3576011805460ff60a01b1916905560006015555b620000ce87620001ed565b620000d98362000226565b620000e486620001ed565b83151560a05281151560c05280151560e0526001600160f81b0385166080526200011189808a8062000295565b6200011c8762000368565b6200012786620001c0565b6200015e6200013630620003cb565b60405160200162000148919062000ae2565b60408051601f19818403018152919052620003e9565b601780547fff00000000000000000000000000000000000000000000000000000000000000166001600160f81b0387161790556000604051600080516020620060f283398151915290600090a2505050505050505050505062000c0b565b3390565b620001cb8162000400565b600c80546001600160a01b0319166001600160a01b0392909216919091179055565b6001600160a01b0381166200022357600060405163d327ad1b60e01b81526004016200021a919062000b34565b60405180910390fd5b50565b6200023981631718245360e21b62000452565b6200025c57602460405163d327ad1b60e01b81526004016200021a919062000b34565b601980546001600160a01b0319166001600160a01b038316179055600a5b604051600080516020620060f283398151915290600090a250565b60c05115620002e8576001600160a01b038216151580620002be57506001600160a01b03811615155b15620002e257602560405163d327ad1b60e01b81526004016200021a919062000b34565b620002fe565b620002f382620001ed565b620002fe81620001ed565b601180546001600160a01b038085166001600160a01b031992831617909255601480548484169083161790556010805487841690831617905560128054928616929091169190911790556007604051600080516020620060f283398151915290600090a250505050565b600a80546001600160a01b0383166001600160a01b03199182168117909255600b80546001810182556000919091527f0175b7a638427703f0dbe7bb9bbf987a2551717b34e79f33b5b1008d1fa01db9018054909116909117905560036200027a565b6060620003e36001600160a01b03831660146200047a565b92915050565b6018620003f7828262000a16565b5060026200027a565b600680546001600160a01b038381166001600160a01b0319831681179093556040519116919082907f8be0079c531659141344cd1fd0a4f28419497f9722a3daafe3b4186f6b6457e090600090a35050565b60006200045f8362000633565b80156200047357506200047383836200066b565b9392505050565b606060006200048b83600262000b73565b6200049890600262000b8d565b6001600160401b03811115620004b257620004b262000761565b6040519080825280601f01601f191660200182016040528015620004dd576020820181803683370190505b509050600360fc1b81600081518110620004fb57620004fb62000ba3565b60200101906001600160f81b031916908160001a905350600f60fb1b816001815181106200052d576200052d62000ba3565b60200101906001600160f81b031916908160001a90535060006200055384600262000b73565b6200056090600162000b8d565b90505b6001811115620005e2576f181899199a1a9b1b9c1cb0b131b232b360811b85600f166010811062000598576200059862000ba3565b1a60f81b828281518110620005b157620005b162000ba3565b60200101906001600160f81b031916908160001a90535060049490941c93620005da8162000bb9565b905062000563565b508315620004735760405162461bcd60e51b815260206004820181905260248201527f537472696e67733a20686578206c656e67746820696e73756666696369656e7460448201526064016200021a565b600062000648826301ffc9a760e01b6200066b565b8015620003e3575062000664826001600160e01b03196200066b565b1592915050565b604080516001600160e01b0319831660248083019190915282518083039091018152604490910182526020810180516001600160e01b03166301ffc9a760e01b179052905160009190829081906001600160a01b0387169061753090620006d490869062000bd3565b6000604051808303818686fa925050503d806000811462000712576040519150601f19603f3d011682016040523d82523d6000602084013e62000717565b606091505b5091509150602081511015620007345760009350505050620003e3565b81801562000757575060008180602001905181019062000755919062000bf1565b115b9695505050505050565b634e487b7160e01b600052604160045260246000fd5b60005b83811015620007945781810151838201526020016200077a565b50506000910152565b600082601f830112620007af57600080fd5b81516001600160401b0380821115620007cc57620007cc62000761565b604051601f8301601f19908116603f01168101908282118183101715620007f757620007f762000761565b816040528381528660208588010111156200081157600080fd5b6200075784602083016020890162000777565b80516001600160a01b03811681146200083c57600080fd5b919050565b80516001600160f81b03811681146200083c57600080fd5b805180151581146200083c57600080fd5b60008060008060008060008060008060006101608c8e0312156200088d57600080fd5b8b516001600160401b03811115620008a457600080fd5b620008b28e828f016200079d565b60208e0151909c5090506001600160401b03811115620008d157600080fd5b620008df8e828f016200079d565b9a5050620008f060408d0162000824565b98506200090060608d0162000824565b97506200091060808d0162000824565b96506200092060a08d0162000824565b95506200093060c08d0162000841565b94506200094060e08d0162000859565b9350620009516101008d0162000824565b9250620009626101208d0162000859565b9150620009736101408d0162000859565b90509295989b509295989b9093969950565b600181811c908216806200099a57607f821691505b602082108103620009bb57634e487b7160e01b600052602260045260246000fd5b50919050565b601f82111562000a11576000816000526020600020601f850160051c81016020861015620009ec5750805b601f850160051c820191505b8181101562000a0d57828155600101620009f8565b5050505b505050565b81516001600160401b0381111562000a325762000a3262000761565b62000a4a8162000a43845462000985565b84620009c1565b602080601f83116001811462000a82576000841562000a695750858301515b600019600386901b1c1916600185901b17855562000a0d565b600085815260208120601f198616915b8281101562000ab35788860151825594840194600190910190840162000a92565b508582101562000ad25787850151600019600388901b60f8161c191681555b5050505050600190811b01905550565b7f68747470733a2f2f746f6b656e2e617274626c6f636b732e696f2f000000000081526000825162000b1c81601b85016020870162000777565b602f60f81b601b939091019283015250601c01919050565b602081016026831062000b5757634e487b7160e01b600052602160045260246000fd5b91905290565b634e487b7160e01b600052601160045260246000fd5b8082028115828204841417620003e357620003e362000b5d565b80820180821115620003e357620003e362000b5d565b634e487b7160e01b600052603260045260246000fd5b60008162000bcb5762000bcb62000b5d565b506000190190565b6000825162000be781846020870162000777565b9190910192915050565b60006020828403121562000c0457600080fd5b5051919050565b60805160a05160c05160e05161548362000c6f60003960008181610d4a0152612ffe01526000818161097f015281816118ae01528181612c5c0152613824015260008181610daa0152611b78015260008181610e780152613b1801526154836000f3fe608060405234801561001057600080fd5b50600436106104775760003560e01c806376ee6fab1161025a578063b202b5651161014d578063b202b56514610c09578063b75395e014610c1c578063b7b04fae14610c2f578063b88d4fde14610c42578063b971136814610c55578063bb20e13514610c5d578063bd3d10e714610cf9578063c34a03b514610d0c578063c87b56dd14610d1f578063cc90e72514610d32578063ce90652014610d45578063d03c390c14610d6c578063db2ff86114610d7f578063e32551e714610d92578063e6032df214610da5578063e935b7b114610dcc578063e985e9c514610ddd578063eb9cd5d414610df0578063ed8abfda14610e12578063eef719a414610e3c578063f23f702114610e45578063f2fde38b14610e58578063f851a44014610e6b578063f893c07b14610e73578063ffd43f6514610e9a57600080fd5b806376ee6fab146109bc578063801aa941146109cf5780638639415b146109e25780638997618f14610a3d5780638c3c9cdd14610a505780638da5cb5b14610a635780638dd91a5614610a6b57806392f0023314610a8f5780639523751714610aa257806395d89b4114610ab55780639a02e4fa14610abd5780639d97f4a014610af4578063a11ec70a14610b07578063a22cb46514610b1a578063a3b2cca614610b2d578063a47d29cb14610b40578063abcbb7b414610b6c578063ac11fa1c14610b74578063acad012414610b94578063acd4c66f14610ba7578063ad0305ce14610bb9578063ae45ad9814610bdb578063b1656ba314610be3578063b168762214610bf657600080fd5b80632b274166116103725780632b274166146107db5780632b65e67d146107ee5780632d9c02051461080157806330ef4c5f14610814578063329dab731461082657806336c7c12c14610839578063378599631461084c57806337fbc9651461085f578063398a2895146108725780633e48e8481461088557806342842e0e1461089857806348337282146108ab5780634e1d64af146108be5780635119d04b146108c65780635508fd52146108cf57806357a8e574146108e357806358b9a5a9146108f6578063621a1f741461092e5780636352211e1461094157806369d14faf146109545780636c907b7f146109675780636ddba4111461097a57806370a08231146109a1578063715018a6146109b457600080fd5b80611e3c1461047c5780615de5146104915780630132c697146104b757806301856fd4146104ca57806301ffc9a7146104dd57806304143a5c1461050057806306fdde0314610508578063081812fc1461051d578063095ea7b31461053d5780630a1df77a146105505780630d1706731461067b5780630e79c9281461068e5780630ea5613f146106a157806317df5366146106eb5780631ab6014c146106fe5780631b689c0b146107115780631c05cad7146107245780631e9bef46146107375780632302cbda1461074a578063230448b11461075d57806323b872dd1461077057806325b75d681461078357806327df6c1a146107965780632a55205a146107a9575b600080fd5b61048f61048a3660046144da565b610ead565b005b6104a461049f366004614511565b610f75565b6040519081526020015b60405180910390f35b61048f6104c5366004614553565b611175565b61048f6104d83660046144da565b61123c565b6104f06104eb3660046145a1565b6112bb565b60405190151581526020016104ae565b61048f6112e6565b61051061132e565b6040516104ae919061460e565b61053061052b366004614621565b6113c0565b6040516104ae9190614647565b61048f61054b36600461465b565b6113e7565b61066e61055e366004614621565b6040805161016081018252600080825260208201819052918101829052606081018290526080810182905260a0810182905260c0810182905260e0810182905261010081018290526101208101829052610140810191909152506000908152600e602090815260409182902082516101608101845281546001600160a01b03808216835260ff600160a01b9283900481169584019590955260018401548082169684019690965294819004841660608301526002830154808616608084015281900490931660a0820152600382015480851660c083015261ffff90849004811660e08301526004830154808616610100840152939093049092166101208301526005015490911661014082015290565b6040516104ae9190614687565b61048f61068936600461482b565b6114fc565b61048f61069c36600461482b565b61155b565b6106b46106af366004614621565b6116b4565b60408051968752602087019590955292151593850193909352151560608401526080830191909152151560a082015260c0016104ae565b600854610530906001600160a01b031681565b601154610530906001600160a01b031681565b6104a461071f366004614621565b611717565b61048f610732366004614871565b611726565b600c54610530906001600160a01b031681565b61048f6107583660046148cd565b611754565b6104f061076b366004614901565b611779565b61048f61077e366004614941565b611825565b61048f61079136600461482b565b611856565b61048f6107a43660046144da565b61189c565b6107bc6107b73660046144da565b611950565b604080516001600160a01b0390931683526020830191909152016104ae565b61048f6107e9366004614982565b611a1c565b61048f6107fc36600461499f565b611a6d565b61051061080f366004614621565b611d07565b601154600160a01b900460ff166104a4565b61048f610834366004614a06565b611dac565b600a54610530906001600160a01b031681565b61048f61085a36600461482b565b611e65565b601954610530906001600160a01b031681565b61048f610880366004614621565b611e91565b61048f61089336600461482b565b611f4c565b61048f6108a6366004614941565b611f81565b61048f6108b9366004614982565b611f9c565b610510611fff565b6104a460155481565b6017546104f090600160f81b900460ff1681565b600754610530906001600160a01b031681565b6105306109043660046144da565b6000918252600d60209081526040808420928452600990920190529020546001600160a01b031690565b6104a461093c366004614621565b612018565b61053061094f366004614621565b61207a565b61048f610962366004614a55565b6120af565b61048f610975366004614982565b61210c565b6104f07f000000000000000000000000000000000000000000000000000000000000000081565b6104a46109af366004614982565b61212e565b61048f6121b4565b61048f6109ca36600461499f565b6121cc565b601454610530906001600160a01b031681565b6109f56109f03660046144da565b612372565b604080519889526001600160a01b0397881660208a015288019590955292851660608701526080860191909152831660a085015260c08401521660e0820152610100016104ae565b600954610530906001600160a01b031681565b610510610a5e3660046144da565b61247b565b6105306124da565b610a7e610a79366004614621565b6124ee565b6040516104ae959493929190614a7a565b601654610530906001600160a01b031681565b61048f610ab0366004614982565b61278b565b6105106127c6565b610ae7610acb366004614621565b600090815260026020526040902054600160a01b900460a01b90565b6040516104ae9190614ae7565b61048f610b02366004614982565b6127d5565b61048f610b15366004614621565b6127ee565b61048f610b28366004614b0a565b612841565b61048f610b3b36600461482b565b61284c565b610530610b4e366004614621565b6000908152600e60205260409020600201546001600160a01b031690565b61051061290d565b6104a4610b82366004614621565b600f6020526000908152604090205481565b61048f610ba236600461482b565b61299b565b601054600160a01b900460ff166104a4565b6104f0610bc7366004614982565b6016546001600160a01b0390811691161490565b610510612a4c565b61048f610bf1366004614a06565b612a70565b610530610c04366004614621565b612ada565b61048f610c1736600461482b565b612b30565b601054610530906001600160a01b031681565b61048f610c3d36600461482b565b612b6a565b61048f610c50366004614b38565b612c18565b600b546104a4565b610ce2610c6b366004614621565b600e602052600090815260409020805460018201546002830154600384015460048501546005909501546001600160a01b038086169660ff600160a01b97889004811697878416978190048216968085169690829004909216948285169461ffff938390048416948082169493900490921691168b565b6040516104ae9b9a99989796959493929190614ba3565b61048f610d073660046144da565b612c4a565b61048f610d1a3660046144da565b612d09565b610510610d2d366004614621565b612d6b565b61048f610d40366004614c20565b612e53565b6104f07f000000000000000000000000000000000000000000000000000000000000000081565b61048f610d7a366004614621565b612ffc565b61048f610d8d366004614621565b613083565b610510610da03660046148cd565b61314e565b6104f07f000000000000000000000000000000000000000000000000000000000000000081565b6017546001600160f81b03166104a4565b6104f0610deb366004614c66565b6131d5565b610e03610dfe366004614621565b613203565b6040516104ae93929190614c94565b6104a4610e20366004614621565b6000908152600e6020526040902054600160a01b900460ff1690565b6104a460135481565b61048f610e53366004614982565b6132cf565b61048f610e66366004614982565b613301565b610530613377565b6104a47f000000000000000000000000000000000000000000000000000000000000000081565b601254610530906001600160a01b031681565b610eb682613381565b6000828152600260205260409020600a546001600160a01b03163314610efb57600e60405163d327ad1b60e01b8152600401610ef29190614cca565b60405180910390fd5b8054600160a01b900460a01b6001600160a01b03191615610f3257600f60405163d327ad1b60e01b8152600401610ef29190614cca565b81610f5357601060405163d327ad1b60e01b8152600401610ef29190614cca565b805460a09290921c600160a01b026001600160a01b0390921691909117905550565b6016546000906001600160a01b03163314610fa657600a60405163d327ad1b60e01b8152600401610ef29190614cca565b6000838152600d60205260409020805462ffffff808216916001830191630100000090910416808310610fef57600b60405163d327ad1b60e01b8152600401610ef29190614cca565b8354600160881b900460ff168061102257506000878152600e60205260409020600201546001600160a01b038781169116145b61104257600c60405163d327ad1b60e01b8152600401610ef29190614cca565b8354600160901b900460ff16801561107757506000878152600e60205260409020600201546001600160a01b03878116911614155b1561109857600d60405163d327ad1b60e01b8152600401610ef29190614cca565b835462ffffff191662ffffff8381169182178655848116620f42408a02019190831690036110c9576110c9886133aa565b6110d389826133e0565b600a54604051635b140b8d60e11b8152600481018390526001600160a01b039091169063b628171a90602401600060405180830381600087803b15801561111957600080fd5b505af115801561112d573d6000803e3d6000fd5b50506040518392506001600160a01b038c1691507f0f6798a560793a54c3bcfe86a93cde1e73087d944c0ea20544137d412139688590600090a39450505050505b9392505050565b61117e82613512565b6000828152600d60205260409020805462ffffff80821691630100000090048116908416106111c357601c60405163d327ad1b60e01b8152600401610ef29190614cca565b808362ffffff1610156111ec57601d60405163d327ad1b60e01b8152600401610ef29190614cca565b815465ffffff0000001916630100000062ffffff851602178255600b604051859060008051602061542e83398151915290600090a3808362ffffff160361123657611236846133aa565b50505050565b6112458261354f565b6112558262615bf560e21b613578565b6000828152600d6020526040908190209061127390839060016135c6565b61129357602060405163d327ad1b60e01b8152600401610ef29190614cca565b60078101829055600d5b604051849060008051602061542e83398151915290600090a3505050565b60006001600160e01b0319821663152a902d60e11b14806112e057506112e08261363a565b92915050565b6112f66301050e9760e21b61368a565b601754600160f81b900460ff161561132457601960405163d327ad1b60e01b8152600401610ef29190614cca565b61132c6136b5565b565b60606000805461133d90614cf2565b80601f016020809104026020016040519081016040528092919081815260200182805461136990614cf2565b80156113b65780601f1061138b576101008083540402835291602001916113b6565b820191906000526020600020905b81548152906001019060200180831161139957829003601f168201915b5050505050905090565b60006113cb826136f6565b506000908152600460205260409020546001600160a01b031690565b60006113f28261207a565b9050806001600160a01b0316836001600160a01b03160361145f5760405162461bcd60e51b815260206004820152602160248201527f4552433732313a20617070726f76616c20746f2063757272656e74206f776e656044820152603960f91b6064820152608401610ef2565b336001600160a01b038216148061147b575061147b81336131d5565b6114ed5760405162461bcd60e51b815260206004820152603e60248201527f4552433732313a20617070726f76652063616c6c6572206973206e6f7420746f60448201527f6b656e206f776e6572206e6f7220617070726f76656420666f7220616c6c00006064820152608401610ef2565b6114f7838361371b565b505050565b6115058261354f565b61151682630d17067360e01b613578565b61151f81613789565b6000828152600d6020526040902060010161153a8282614d8b565b5060055b604051839060008051602061542e83398151915290600090a35050565b6115648261354f565b611575826301cf392560e31b613578565b61157e81613789565b80518190600b8111156115a757602160405163d327ad1b60e01b8152600401610ef29190614cca565b60008060005b838110156116535760008582815181106115c9576115c9614e44565b01602001516001600160f81b0319169050600360fc1b81108015906115fc5750603960f81b6001600160f81b0319821611155b1561160b57600192505061164b565b6001600160f81b03198116601760f91b0361162f578361162f57600193505061164b565b602360405163d327ad1b60e01b8152600401610ef29190614cca565b6001016115ad565b508061167557602260405163d327ad1b60e01b8152600401610ef29190614cca565b6000868152600d602052604090206008016116908682614d8b565b50600e604051879060008051602061542e83398151915290600090a3505050505050565b6000818152600d60205260408120805462ffffff808216936301000000830490911692600160881b830460ff90811693600160901b810490911692600160481b9091046001600160401b03169161170a886137ae565b1591505091939550919395565b60006112e0620f424083614e86565b611736631c05cad760e01b61368a565b61173f846137f8565b611748836137f8565b61123684848484613822565b61176463118165ed60e11b61368a565b61176d81613789565b61177681613908565b50565b6000806117846124da565b6001600160a01b03161415801561181d5750600c546040516217798b60e61b81526001600160a01b03868116600483015285811660248301526001600160e01b031985166044830152909116906305de62c0906064016020604051808303816000875af11580156117f9573d6000803e3d6000fd5b505050506040513d601f19601f8201168201806040525081019061181d9190614e9a565b949350505050565b61182f338261391c565b61184b5760405162461bcd60e51b8152600401610ef290614eb7565b6114f783838361397a565b61185f8261354f565b611870826304b6ebad60e31b613578565b61187981613789565b6000828152600d602052604090206005016118948282614d8b565b50600a61153e565b6118ac6313efb60d60e11b61368a565b7f000000000000000000000000000000000000000000000000000000000000000080156118d857508015155b156118f957602560405163d327ad1b60e01b8152600401610ef29190614cca565b6127106119068284614f05565b111561192857601360405163d327ad1b60e01b8152600401610ef29190614cca565b6013829055601581905560095b60405160008051602061540e83398151915290600090a25050565b60008061195c84613381565b600061196785611717565b6000818152600e6020526040812060058101546004820154600383015483546001600160a01b039093169850949550919361ffff600160a01b938490048116939182900416916119bd9160ff9104166064614f18565b6119c79190614f05565b6119d19190614f05565b90506127108111156119f957601360405163d327ad1b60e01b8152600401610ef29190614cca565b612710611a068288614f18565b611a109190614e86565b93505050509250929050565b611a2c631593a0b360e11b61368a565b611a35816137f8565b600880546001600160a01b0319166001600160a01b03831617905560055b60405160008051602061540e83398151915290600090a250565b611a7686613b16565b611a7f86613512565b611a88856137f8565b6000868152600e602052604090206064841180611aa55750606482115b15611ac657601460405163d327ad1b60e01b8152600401610ef29190614cca565b600084118015611add57506001600160a01b038516155b15611afe57601560405163d327ad1b60e01b8152600401610ef29190614cca565b600082118015611b1557506001600160a01b038316155b15611b3657601660405163d327ad1b60e01b8152600401610ef29190614cca565b867f6ff7d102bb3657a26dcbbcd299d821a066718a7cf76ae7cd98279f18b74da8ac8787878787604051611b6e959493929190614f2f565b60405180910390a27f000000000000000000000000000000000000000000000000000000000000000080611c1457600282015482546001600160a01b03918216898316149160009181169089161480611bce57506001600160a01b038816155b60018501549091506000906001600160a01b0388811691161480611bf957506001600160a01b038716155b9050828015611c055750815b8015611c0e5750805b93505050505b8015611cbe576000888152600f602052604081205560028201805483546001600160a01b038981166001600160a01b03199290921691909117855560ff808916600160a01b9081026001600160a81b0319948516848e161717909455600186018054918816909402921690871617179055611c8e88613b70565b60405188907fc582d05e1da854143bd3271ef4529d79cf5a69fc6057ae320f357acfd291b73890600090a2611cfd565b8686868686604051602001611cd7959493929190614f2f565b60408051601f19818403018152918152815160209283012060008b8152600f9093529120555b5050505050505050565b6000818152600d60205260409020600601805460609190611d2790614cf2565b80601f0160208091040260200160405190810160405280929190818152602001828054611d5390614cf2565b8015611da05780601f10611d7557610100808354040283529160200191611da0565b820191906000526020600020905b815481529060010190602001808311611d8357829003601f168201915b50505050509050919050565b611db58361354f565b611dc68363329dab7360e01b613578565b611dcf81613cbc565b6000838152600d602052604090208054600160301b900462ffffff168310611e0d57601e60405163d327ad1b60e01b8152600401610ef29190614cca565b611e1682613ce1565b6000848152600983016020526040902080546001600160a01b0319166001600160a01b0392909216919091179055600c604051859060008051602061542e83398151915290600090a350505050565b611e6e82613512565b6000828152600d60205260409020600401611e898282614d8b565b50600961153e565b611ea163398a289560e01b61368a565b611eaa81613b16565b6000818152600e602052604090206014546003820180546001600160a01b039283166001600160a01b0319808316821784556015546001600160b01b0319938416909217600160a01b61ffff938416810291909117909455601254600487018054919096169181168217865560135493161791169091021790556010604051839060008051602061542e83398151915290600090a3611f4882613b70565b5050565b611f5582613512565b611f5e81613789565b6000828152600d60205260409020600601611f798282614d8b565b50600f61153e565b6114f783838360405180602001604052806000815250612c18565b611fac632419b94160e11b61368a565b611fb5816137f8565b601680546001600160a01b0319166001600160a01b0383169081179091556040517fad0f299ec81a386c98df0ac27dae11dd020ed1b56963c53a7292e7a3a314539a90600090a250565b6060612013651d8ccb8c8b8d60d21b613d91565b905090565b600081815260026020526040812054600160a01b900460a01b6001600160a01b03198116820361204b5750600092915050565b8060405160200161205c9190614ae7565b60405160208183030381529060405280519060200120915050919050565b6000818152600260205260408120546001600160a01b0316806112e05760405162461bcd60e51b8152600401610ef290614f62565b6120b882613b16565b6120c9826369d14faf60e01b613dfc565b6120d2816137f8565b6000828152600e6020526040902060020180546001600160a01b0319166001600160a01b03831617905561210582613b70565b600261153e565b61211c636c907b7f60e01b61368a565b612125816137f8565b61177681613e6e565b60006001600160a01b0382166121985760405162461bcd60e51b815260206004820152602960248201527f4552433732313a2061646472657373207a65726f206973206e6f7420612076616044820152683634b21037bbb732b960b91b6064820152608401610ef2565b506001600160a01b031660009081526003602052604090205490565b6121bc613ed0565b6121c46136b5565b61132c613f2f565b6121d586613b16565b6121e6866376ee6fab60e01b613dfc565b6121ef856137f8565b8484848484604051602001612208959493929190614f2f565b60408051601f1981840301815291815281516020928301206000898152600f9093529120541461224e57601760405163d327ad1b60e01b8152600401610ef29190614cca565b6000600e60008881526020019081526020016000209050858160020160006101000a8154816001600160a01b0302191690836001600160a01b03160217905550848160000160006101000a8154816001600160a01b0302191690836001600160a01b03160217905550838160020160146101000a81548160ff021916908360ff160217905550828160010160006101000a8154816001600160a01b0302191690836001600160a01b03160217905550818160010160146101000a81548160ff021916908360ff1602179055506000801b600f60008981526020019081526020016000208190555061233e87613b70565b60405187907fc582d05e1da854143bd3271ef4529d79cf5a69fc6057ae320f357acfd291b73890600090a250505050505050565b6000828152600e602052604081206010548291829182918291829182918291908a906064906123ab90600160a01b900460ff1683614f18565b6123b59190614e86565b99506123c18a82614f94565b6011549091506064906123de90600160a01b900460ff168d614f18565b6123e89190614e86565b97506123f48882614f94565b600283015490915060649061241390600160a01b900460ff1683614f18565b61241d9190614e86565b93506124298482614f94565b6010546011546001600160a01b039182169b50169750955085156124585760028201546001600160a01b031694505b831561246c5781546001600160a01b031692505b50509295985092959890939650565b6000828152600d60205260409020805460609190600160301b900462ffffff1683106124b75750506040805160208101909152600081526112e0565b600083815260098201602052604090205461181d906001600160a01b0316613f41565b60006120136006546001600160a01b031690565b60608060608060606000600d6000888152602001908152602001600020905080600101805461251c90614cf2565b80601f016020809104026020016040519081016040528092919081815260200182805461254890614cf2565b80156125955780601f1061256a57610100808354040283529160200191612595565b820191906000526020600020905b81548152906001019060200180831161257857829003601f168201915b505050505095508060020180546125ab90614cf2565b80601f01602080910402602001604051908101604052809291908181526020018280546125d790614cf2565b80156126245780601f106125f957610100808354040283529160200191612624565b820191906000526020600020905b81548152906001019060200180831161260757829003601f168201915b505050506003830154919650506001600160a01b03168061265657604051806020016040528060008152509450612662565b61265f81613f41565b94505b81600401805461267190614cf2565b80601f016020809104026020016040519081016040528092919081815260200182805461269d90614cf2565b80156126ea5780601f106126bf576101008083540402835291602001916126ea565b820191906000526020600020905b8154815290600101906020018083116126cd57829003601f168201915b5050505050935081600501805461270090614cf2565b80601f016020809104026020016040519081016040528092919081815260200182805461272c90614cf2565b80156127795780601f1061274e57610100808354040283529160200191612779565b820191906000526020600020905b81548152906001019060200180831161275c57829003601f168201915b50505050509250505091939590929450565b61279b639523751760e01b61368a565b6127a4816137f8565b600980546001600160a01b0319166001600160a01b0383161790556006611a53565b60606001805461133d90614cf2565b6127e56304ecbfa560e51b61368a565b61177681613f7b565b6127f781613512565b6000818152600d60205260409020805460ff60901b198116600160901b9182900460ff161590910217905560035b604051829060008051602061542e83398151915290600090a350565b611f48338383613fce565b612855826137ae565b1561289c576000828152600e60205260409020600201546001600160a01b0316331461289757601a60405163d327ad1b60e01b8152600401610ef29190614cca565b6128ce565b6128ae33306351d9665360e11b611779565b6128ce57601a60405163d327ad1b60e01b8152600401610ef29190614cca565b6128d781614098565b6000838152600d6020526040902060030180546001600160a01b0319166001600160a01b0392909216919091179055600861153e565b6018805461291a90614cf2565b80601f016020809104026020016040519081016040528092919081815260200182805461294690614cf2565b80156129935780601f1061296857610100808354040283529160200191612993565b820191906000526020600020905b81548152906001019060200180831161297657829003601f168201915b505050505081565b6129a48261354f565b6129b582632b2b404960e21b613578565b6129be81613789565b6000828152600d602052604090206129d582614098565b8154600160301b9081900462ffffff9081166000908152600985016020526040902080546001600160a01b0319166001600160a01b0394909416939093179092558254612a2792919004166001614fa7565b815462ffffff91909116600160301b0262ffffff60301b19909116178155600c61129d565b60606120137547656e417274373231436f726556335f456e67696e6560501b613d91565b612a798361354f565b612a8a8363b1656ba360e01b613578565b612a9381613789565b6000838152600d602052604090208054600160301b900462ffffff168310612ad157601e60405163d327ad1b60e01b8152600401610ef29190614cca565b611e1682614098565b600b546000908210612b0257601260405163d327ad1b60e01b8152600401610ef29190614cca565b600b8281548110612b1557612b15614e44565b6000918252602090912001546001600160a01b031692915050565b612b398261354f565b612b4a8263b202b56560e01b613578565b612b5381613cbc565b6000828152600d602052604090206129d582613ce1565b612b73826137ae565b15612bba576000828152600e60205260409020600201546001600160a01b03163314612bb557601a60405163d327ad1b60e01b8152600401610ef29190614cca565b612bec565b612bcc3330635bd827d760e11b611779565b612bec57601a60405163d327ad1b60e01b8152600401610ef29190614cca565b612bf581613789565b6000828152600d60205260409020600201612c108282614d8b565b50600661153e565b612c22338361391c565b612c3e5760405162461bcd60e51b8152600401610ef290614eb7565b611236848484846140d0565b612c5a63bd3d10e760e01b61368a565b7f00000000000000000000000000000000000000000000000000000000000000008015612c8657508015155b15612ca757602560405163d327ad1b60e01b8152600401610ef29190614cca565b6064612cb38284614f05565b1115612cd557601160405163d327ad1b60e01b8152600401610ef29190614cca565b6010805460ff808516600160a01b90810260ff60a01b19938416179093556011805491851690930291161790556008611935565b612d1282613512565b605f811115612d3757601b60405163d327ad1b60e01b8152600401610ef29190614cca565b6000828152600e60205260409020805460ff60a01b1916600160a01b60ff841602179055612d6482613b70565b600761153e565b6060612d7682613381565b6000600d6000612d8585611717565b81526020019081526020016000206006018054612da190614cf2565b80601f0160208091040260200160405190810160405280929190818152602001828054612dcd90614cf2565b8015612e1a5780601f10612def57610100808354040283529160200191612e1a565b820191906000526020600020905b815481529060010190602001808311612dfd57829003601f168201915b5050505050905080612e2b84614103565b604051602001612e3c929190614fca565b604051602081830303815290604052915050919050565b612e6363cc90e72560e01b61368a565b612e6c82613789565b612e75816137f8565b601754600160f81b900460ff1615612ea357601860405163d327ad1b60e01b8152600401610ef29190614cca565b6017546001600160f81b03166000818152600e602090815260408083206002810180546001600160a01b0319166001600160a01b038816179055600d909252909120600101612ef28582614d8b565b506000828152600d60205260409020805465ffffff00000060ff60901b011916613d09601e1b600160901b01178155600601612f2f601882614ff9565b50805460ff60a01b1916600560a01b1781556014546003820180546001600160a01b039283166001600160a01b0319808316821784556015546001600160b01b0319938416909217600160a01b61ffff93841681029190911790945560125460048701805491909616918116821786556013549316179116909102179055612fb88260016150cd565b601780546001600160f81b0319166001600160f81b03929092169190911790556004604051839060008051602061542e83398151915290600090a361123682613b70565b7f000000000000000000000000000000000000000000000000000000000000000015613038576130338163340f0e4360e21b613578565b613048565b61304863340f0e4360e21b61368a565b61305181613b16565b6000818152600d60205260409020805460ff60881b198116600160881b9182900460ff16159091021790556001612825565b61308c8161354f565b61309d8163db2ff86160e01b613578565b6000818152600d6020526040812080549091600160301b90910462ffffff1690036130de57601f60405163d327ad1b60e01b8152600401610ef29190614cca565b8054600982019060009061310090600190600160301b900462ffffff166150ed565b62ffffff9081168252602082019290925260400160002080546001600160a01b0319169055815462ffffff60301b198116600160301b9182900483166000190190921602178155600c61153e565b606061315982613789565b60405163e32551e760e01b815273__$a84cab3dc26412b6358fa38e3bc69cb812$__9063e32551e79061319090859060040161460e565b600060405180830381865af41580156131ad573d6000803e3d6000fd5b505050506040513d6000823e601f3d908101601f191682016040526112e09190810190615139565b6001600160a01b03918216600090815260056020908152604080832093909416825291909152205460ff1690565b6000818152600d6020526040812060078101546060928392909161322690613d91565b935080600801805461323790614cf2565b80601f016020809104026020016040519081016040528092919081815260200182805461326390614cf2565b80156132b05780601f10613285576101008083540402835291602001916132b0565b820191906000526020600020905b81548152906001019060200180831161329357829003601f168201915b5050935496989297505050600160301b90940462ffffff169392505050565b6132df63f23f702160e01b61368a565b600780546001600160a01b0319166001600160a01b0383161790556004611a53565b613309613ed0565b6001600160a01b03811661336e5760405162461bcd60e51b815260206004820152602660248201527f4f776e61626c653a206e6577206f776e657220697320746865207a65726f206160448201526564647265737360d01b6064820152608401610ef2565b61177681614203565b60006120136124da565b61338a8161422e565b61177657600360405163d327ad1b60e01b8152600401610ef29190614cca565b6000818152600d60205260408120805467ffffffffffffffff60481b1916600160481b426001600160401b031602179055612825565b6001600160a01b0382166134365760405162461bcd60e51b815260206004820181905260248201527f4552433732313a206d696e7420746f20746865207a65726f20616464726573736044820152606401610ef2565b61343f8161422e565b1561348b5760405162461bcd60e51b815260206004820152601c60248201527b115490cdcc8c4e881d1bdad95b88185b1c9958591e481b5a5b9d195960221b6044820152606401610ef2565b6001600160a01b03821660009081526003602052604081208054600192906134b4908490614f05565b909155505060008181526002602052604080822080546001600160a01b0319166001600160a01b03861690811790915590518392907fddf252ad1be2c89b69c2b068fc378daa952ba7f163c4a11628f55a4df523b3ef908290a45050565b6000818152600e60205260409020600201546001600160a01b0316331461177657600760405163d327ad1b60e01b8152600401610ef29190614cca565b613558816137ae565b61177657600560405163d327ad1b60e01b8152600401610ef29190614cca565b6000828152600e60205260409020600201546001600160a01b03163314806135a657506135a6333083611779565b611f4857600860405163d327ad1b60e01b8152600401610ef29190614cca565b60008060005b60208160ff161015613626576000868260ff16602081106135ef576135ef614e44565b1a90508015801590613604575060808160ff16105b1561361d578560ff168160ff160361361d578260010192505b506001016135cc565b8360ff168260ff1614925050509392505050565b60006001600160e01b031982166380ac58cd60e01b148061366b57506001600160e01b03198216635b5e139f60e01b145b806112e057506301ffc9a760e01b6001600160e01b03198316146112e0565b613695333083611779565b61177657600660405163d327ad1b60e01b8152600401610ef29190614cca565b601754600160f81b900460ff1661132c57601780546001600160f81b0316600160f81b179055600160405160008051602061540e83398151915290600090a2565b6136ff8161422e565b6117765760405162461bcd60e51b8152600401610ef290614f62565b600081815260046020526040902080546001600160a01b0319166001600160a01b03841690811790915581906137508261207a565b6001600160a01b03167f8c5be1e5ebec7d5bd14f71427d1e84f3dd0314c0f7b2291e5b200ac8c7c3b92560405160405180910390a45050565b805160000361177657600160405163d327ad1b60e01b8152600401610ef29190614cca565b60006137b982613b16565b6000828152600d6020526040902054600160481b90046001600160401b03168015808061181d57506224ea006137ef8342614f94565b10949350505050565b6001600160a01b03811661177657600060405163d327ad1b60e01b8152600401610ef29190614cca565b7f00000000000000000000000000000000000000000000000000000000000000001561388d576001600160a01b03821615158061386757506001600160a01b03811615155b1561388857602560405163d327ad1b60e01b8152600401610ef29190614cca565b61389f565b613896826137f8565b61389f816137f8565b601180546001600160a01b038085166001600160a01b03199283161790925560148054848416908316179055601080548784169083161790556012805492861692909116919091179055600760405160008051602061540e83398151915290600090a250505050565b60186139148282614d8b565b506002611a53565b6000806139288361207a565b9050806001600160a01b0316846001600160a01b0316148061394f575061394f81856131d5565b8061181d5750836001600160a01b0316613968846113c0565b6001600160a01b031614949350505050565b826001600160a01b031661398d8261207a565b6001600160a01b0316146139f15760405162461bcd60e51b815260206004820152602560248201527f4552433732313a207472616e736665722066726f6d20696e636f72726563742060448201526437bbb732b960d91b6064820152608401610ef2565b6001600160a01b038216613a535760405162461bcd60e51b8152602060048201526024808201527f4552433732313a207472616e7366657220746f20746865207a65726f206164646044820152637265737360e01b6064820152608401610ef2565b613a5e60008261371b565b6001600160a01b0383166000908152600360205260408120805460019290613a87908490614f94565b90915550506001600160a01b0382166000908152600360205260408120805460019290613ab5908490614f05565b909155505060008181526002602052604080822080546001600160a01b0319166001600160a01b0386811691821790925591518493918716917fddf252ad1be2c89b69c2b068fc378daa952ba7f163c4a11628f55a4df523b3ef91a4505050565b7f0000000000000000000000000000000000000000000000000000000000000000811080613b4f57506017546001600160f81b03168110155b1561177657600460405163d327ad1b60e01b8152600401610ef29190614cca565b6000818152600e6020908152604080832060195482516101008101845260038301546001600160a01b03818116835261ffff600160a01b92839004811697840197909752600480860154808316858901528390049097166060840152845460ff90839004811660808501526002860154821660a0850152600186015480831660c08601529290920490911660e08301529351631718245360e21b81529295949390911692635c60914c92613c25929101615181565b6020604051808303816000875af1158015613c44573d6000803e3d6000fd5b505050506040513d601f19601f82011682018060405250810190613c689190615209565b6005830180546001600160a01b0319166001600160a01b0383169081179091556040519192509084907f301670c9279b1d4319606681ed95e193d888fddba44d836b9e8d5585d8cc47b590600090a3505050565b805160000361177657600260405163d327ad1b60e01b8152600401610ef29190614cca565b6000807f42797465636f646553746f726167655f56322e302e305f5f5f5f5f5f5f5f5f203084604051602001613d1993929190615226565b60405160208183030381529060405290508051602082016000f091506001600160a01b038216613d8b5760405162461bcd60e51b815260206004820152601e60248201527f436f6e7472616374417353746f726167653a205772697465204572726f7200006044820152606401610ef2565b50919050565b606060005b828160ff1660208110613dab57613dab614e44565b1a60f81b6001600160f81b03191615801590613dca575060208160ff16105b15613de15780613dd981615291565b915050613d96565b60405191506040820160405280825282602083015250919050565b613e07333083611779565b15613e10575050565b6000613e1a6124da565b6001600160a01b0316148015613e4957506000828152600e60205260409020600201546001600160a01b031633145b15613e52575050565b600960405163d327ad1b60e01b8152600401610ef29190614cca565b600a80546001600160a01b0383166001600160a01b03199182168117909255600b80546001810182556000919091527f0175b7a638427703f0dbe7bb9bbf987a2551717b34e79f33b5b1008d1fa01db901805490911690911790556003611a53565b33613ed96124da565b6001600160a01b03161461132c5760405162461bcd60e51b815260206004820181905260248201527f4f776e61626c653a2063616c6c6572206973206e6f7420746865206f776e65726044820152606401610ef2565b613f37613ed0565b61132c6000614203565b604051630eacc5e760e31b815260609073__$a84cab3dc26412b6358fa38e3bc69cb812$__906375662f3890613190908590600401614647565b613f8c81631718245360e21b61424b565b613fac57602460405163d327ad1b60e01b8152600401610ef29190614cca565b601980546001600160a01b0319166001600160a01b038316179055600a611a53565b816001600160a01b0316836001600160a01b03160361402b5760405162461bcd60e51b815260206004820152601960248201527822a9219b99189d1030b8383937bb32903a379031b0b63632b960391b6044820152606401610ef2565b6001600160a01b03838116600081815260056020908152604080832094871680845294825291829020805460ff191686151590811790915591519182527f17307eab39ab6107e8899845ad3d59bd9653f200f220920489ca2b5937696c31910160405180910390a3505050565b6000807f42797465636f646553746f726167655f56322e302e305f5f5f5f5f5f5f5f5f203084604051602001613d19939291906152b0565b6140db84848461397a565b6140e784848484614267565b6112365760405162461bcd60e51b8152600401610ef290615309565b60608160000361412a5750506040805180820190915260018152600360fc1b602082015290565b8160005b8115614154578061413e8161535b565b915061414d9050600a83614e86565b915061412e565b6000816001600160401b0381111561416e5761416e614768565b6040519080825280601f01601f191660200182016040528015614198576020820181803683370190505b5090505b841561181d576141ad600183614f94565b91506141ba600a86615374565b6141c5906030614f05565b60f81b8183815181106141da576141da614e44565b60200101906001600160f81b031916908160001a9053506141fc600a86614e86565b945061419c565b61420c81614368565b600c80546001600160a01b0319166001600160a01b0392909216919091179055565b6000908152600260205260409020546001600160a01b0316151590565b6000614256836143ba565b801561116e575061116e83836143ed565b60006001600160a01b0384163b1561435d57604051630a85bd0160e11b81526001600160a01b0385169063150b7a02906142ab903390899088908890600401615388565b6020604051808303816000875af19250505080156142e6575060408051601f3d908101601f191682019092526142e3918101906153bb565b60015b614343573d808015614314576040519150601f19603f3d011682016040523d82523d6000602084013e614319565b606091505b50805160000361433b5760405162461bcd60e51b8152600401610ef290615309565b805181602001fd5b6001600160e01b031916630a85bd0160e11b14905061181d565b506001949350505050565b600680546001600160a01b038381166001600160a01b0319831681179093556040519116919082907f8be0079c531659141344cd1fd0a4f28419497f9722a3daafe3b4186f6b6457e090600090a35050565b60006143cd826301ffc9a760e01b6143ed565b80156112e057506143e6826001600160e01b03196143ed565b1592915050565b604080516001600160e01b0319831660248083019190915282518083039091018152604490910182526020810180516001600160e01b03166301ffc9a760e01b179052905160009190829081906001600160a01b03871690617530906144549086906153d8565b6000604051808303818686fa925050503d8060008114614490576040519150601f19603f3d011682016040523d82523d6000602084013e614495565b606091505b50915091506020815110156144b057600093505050506112e0565b8180156144d057506000818060200190518101906144ce91906153f4565b115b9695505050505050565b600080604083850312156144ed57600080fd5b50508035926020909101359150565b6001600160a01b038116811461177657600080fd5b60008060006060848603121561452657600080fd5b8335614531816144fc565b9250602084013591506040840135614548816144fc565b809150509250925092565b6000806040838503121561456657600080fd5b82359150602083013562ffffff8116811461458057600080fd5b809150509250929050565b6001600160e01b03198116811461177657600080fd5b6000602082840312156145b357600080fd5b813561116e8161458b565b60005b838110156145d95781810151838201526020016145c1565b50506000910152565b600081518084526145fa8160208601602086016145be565b601f01601f19169290920160200192915050565b60208152600061116e60208301846145e2565b60006020828403121561463357600080fd5b5035919050565b6001600160a01b03169052565b6001600160a01b0391909116815260200190565b6000806040838503121561466e57600080fd5b8235614679816144fc565b946020939093013593505050565b60006101608201905061469b82845161463a565b60208301516146af602084018260ff169052565b5060408301516146c2604084018261463a565b5060608301516146d7606084018260ff169052565b5060808301516146ea608084018261463a565b5060a08301516146ff60a084018260ff169052565b5060c083015161471260c084018261463a565b5060e083015161472860e084018261ffff169052565b506101008084015161473c8285018261463a565b50506101208381015161ffff1690830152610140808401516147608285018261463a565b505092915050565b634e487b7160e01b600052604160045260246000fd5b604051601f8201601f191681016001600160401b03811182821017156147a6576147a6614768565b604052919050565b60006001600160401b038211156147c7576147c7614768565b50601f01601f191660200190565b600082601f8301126147e657600080fd5b81356147f96147f4826147ae565b61477e565b81815284602083860101111561480e57600080fd5b816020850160208301376000918101602001919091529392505050565b6000806040838503121561483e57600080fd5b8235915060208301356001600160401b0381111561485b57600080fd5b614867858286016147d5565b9150509250929050565b6000806000806080858703121561488757600080fd5b8435614892816144fc565b935060208501356148a2816144fc565b925060408501356148b2816144fc565b915060608501356148c2816144fc565b939692955090935050565b6000602082840312156148df57600080fd5b81356001600160401b038111156148f557600080fd5b61181d848285016147d5565b60008060006060848603121561491657600080fd5b8335614921816144fc565b92506020840135614931816144fc565b915060408401356145488161458b565b60008060006060848603121561495657600080fd5b8335614961816144fc565b92506020840135614971816144fc565b929592945050506040919091013590565b60006020828403121561499457600080fd5b813561116e816144fc565b60008060008060008060c087890312156149b857600080fd5b8635955060208701356149ca816144fc565b945060408701356149da816144fc565b93506060870135925060808701356149f1816144fc565b8092505060a087013590509295509295509295565b600080600060608486031215614a1b57600080fd5b833592506020840135915060408401356001600160401b03811115614a3f57600080fd5b614a4b868287016147d5565b9150509250925092565b60008060408385031215614a6857600080fd5b823591506020830135614580816144fc565b60a081526000614a8d60a08301886145e2565b8281036020840152614a9f81886145e2565b90508281036040840152614ab381876145e2565b90508281036060840152614ac781866145e2565b90508281036080840152614adb81856145e2565b98975050505050505050565b6001600160a01b031991909116815260200190565b801515811461177657600080fd5b60008060408385031215614b1d57600080fd5b8235614b28816144fc565b9150602083013561458081614afc565b60008060008060808587031215614b4e57600080fd5b8435614b59816144fc565b93506020850135614b69816144fc565b92506040850135915060608501356001600160401b03811115614b8b57600080fd5b614b97878288016147d5565b91505092959194509250565b6001600160a01b038c8116825260ff8c811660208401528b821660408401528a811660608401528982166080840152881660a083015286811660c083015261ffff86811660e084015290851661010083015283166101208201526101608101614c1061014083018461463a565b9c9b505050505050505050505050565b60008060408385031215614c3357600080fd5b82356001600160401b03811115614c4957600080fd5b614c55858286016147d5565b9250506020830135614580816144fc565b60008060408385031215614c7957600080fd5b8235614c84816144fc565b91506020830135614580816144fc565b606081526000614ca760608301866145e2565b8281036020840152614cb981866145e2565b915050826040830152949350505050565b6020810160268310614cec57634e487b7160e01b600052602160045260246000fd5b91905290565b600181811c90821680614d0657607f821691505b602082108103613d8b57634e487b7160e01b600052602260045260246000fd5b601f8211156114f7576000816000526020600020601f850160051c81016020861015614d4f5750805b601f850160051c820191505b81811015614d6e57828155600101614d5b565b505050505050565b600019600383901b1c191660019190911b1790565b81516001600160401b03811115614da457614da4614768565b614db881614db28454614cf2565b84614d26565b602080601f831160018114614de75760008415614dd55750858301515b614ddf8582614d76565b865550614d6e565b600085815260208120601f198616915b82811015614e1657888601518255948401946001909101908401614df7565b5085821015614e345787850151600019600388901b60f8161c191681555b5050505050600190811b01905550565b634e487b7160e01b600052603260045260246000fd5b634e487b7160e01b600052601260045260246000fd5b634e487b7160e01b600052601160045260246000fd5b600082614e9557614e95614e5a565b500490565b600060208284031215614eac57600080fd5b815161116e81614afc565b6020808252602e908201527f4552433732313a2063616c6c6572206973206e6f7420746f6b656e206f776e6560408201526d1c881b9bdc88185c1c1c9bdd995960921b606082015260800190565b808201808211156112e0576112e0614e70565b80820281158282048414176112e0576112e0614e70565b6001600160a01b039586168152938516602085015260408401929092529092166060820152608081019190915260a00190565b602080825260189082015277115490cdcc8c4e881a5b9d985b1a59081d1bdad95b88125160421b604082015260600190565b818103818111156112e0576112e0614e70565b62ffffff818116838216019080821115614fc357614fc3614e70565b5092915050565b60008351614fdc8184602088016145be565b835190830190614ff08183602088016145be565b01949350505050565b818103615004575050565b61500e8254614cf2565b6001600160401b0381111561502557615025614768565b61503381614db28454614cf2565b6000601f821160018114615061576000831561504f5750848201545b6150598482614d76565b8555506150c6565b600085815260209020601f19841690600086815260209020845b8381101561509b578286015482556001958601959091019060200161507b565b50858310156150b95781850154600019600388901b60f8161c191681555b50505060018360011b0184555b5050505050565b6001600160f81b03818116838216019080821115614fc357614fc3614e70565b62ffffff828116828216039080821115614fc357614fc3614e70565b60006151176147f4846147ae565b905082815283838301111561512b57600080fd5b61116e8360208301846145be565b60006020828403121561514b57600080fd5b81516001600160401b0381111561516157600080fd5b8201601f8101841361517257600080fd5b61181d84825160208401615109565b60006101008201905060018060a01b03808451168352602084015161ffff808216602086015282604087015116604086015280606087015116606086015250505060ff608084015116608083015260a08301516151e160a084018261463a565b5060c08301516151f460c084018261463a565b5060e0830151614fc360e084018260ff169052565b60006020828403121561521b57600080fd5b815161116e816144fc565b6a600b5981380380925939f360a81b8152607f60f91b600b820152600c81018490526000602c8201819052606084901b6001600160601b0319166038830152600160f81b604c830152825161528281604d8501602087016145be565b91909101604d01949350505050565b600060ff821660ff81036152a7576152a7614e70565b60010192915050565b6a600b5981380380925939f360a81b8152607f60f91b600b820152600c81018490526000602c8201819052606084901b6001600160601b0319166038830152604c8201819052825161528281604d8501602087016145be565b60208082526032908201527f4552433732313a207472616e7366657220746f206e6f6e20455243373231526560408201527131b2b4bb32b91034b6b83632b6b2b73a32b960711b606082015260800190565b60006001820161536d5761536d614e70565b5060010190565b60008261538357615383614e5a565b500690565b6001600160a01b03858116825284166020820152604081018390526080606082018190526000906144d0908301846145e2565b6000602082840312156153cd57600080fd5b815161116e8161458b565b600082516153ea8184602087016145be565b9190910192915050565b60006020828403121561540657600080fd5b505191905056fe8b810f233ce7ee6e962ab4d98bf0277751de1f5589de3dcc812ac2047994d009b96a30340e86d03ce4be42f94ac02d7b27b4a4cdae942beb69026718dfe66afca264697066735822122000d31a6f39da9dd1e1b674da517bcfcdc1f817cadcdf6226a88a5cd316a3e84964736f6c634300081600338b810f233ce7ee6e962ab4d98bf0277751de1f5589de3dcc812ac2047994d009",
  "linkReferences": {
    "contracts/libs/v0.8.x/BytecodeStorageV2.sol": {
      "BytecodeStorageReader": [
        {
          "length": 20,
          "start": 15831
        },
        {
          "length": 20,
          "start": 19394
        }
      ]
    }
  },
  "deployedLinkReferences": {
    "contracts/libs/v0.8.x/BytecodeStorageV2.sol": {
      "BytecodeStorageReader": [
        {
          "length": 20,
          "start": 12648
        },
        {
          "length": 20,
          "start": 16211
        }
      ]
    }
  }
}