{
  "_format": "hh-sol-artifact-1",
  "contractName": "MinterRAMV0",
  "sourceName": "contracts/minter-suite/Minters/MinterRAMV0.sol",
  "abi": [
    {
      "inputs": [
        {
          "internalType": "address",
          "name": "minterFilter",
          "type": "address"
        }
      ],
      "stateMutability": "nonpayable",
      "type": "constructor"
    },
    {
      "anonymous": false,
      "inputs": [
        {
          "indexed": false,
          "internalType": "uint256",
          "name": "auctionBufferSeconds",
          "type": "uint256"
        },
        {
          "indexed": false,
          "internalType": "uint256",
          "name": "maxAuctionExtraSeconds",
          "type": "uint256"
        }
      ],
      "name": "AuctionBufferTimeParamsUpdated",
      "type": "event"
    },
    {
      "anonymous": false,
      "inputs": [
        {
          "indexed": true,
          "internalType": "uint256",
          "name": "projectId",
          "type": "uint256"
        },
        {
          "indexed": true,
          "internalType": "address",
          "name": "coreContract",
          "type": "address"
        },
        {
          "indexed": false,
          "internalType": "uint256",
          "name": "timestampStart",
          "type": "uint256"
        },
        {
          "indexed": false,
          "internalType": "uint256",
          "name": "timestampEnd",
          "type": "uint256"
        },
        {
          "indexed": false,
          "internalType": "uint256",
          "name": "basePrice",
          "type": "uint256"
        },
        {
          "indexed": false,
          "internalType": "bool",
          "name": "allowExtraTime",
          "type": "bool"
        },
        {
          "indexed": false,
          "internalType": "bool",
          "name": "adminArtistOnlyMintPeriodIfSellout",
          "type": "bool"
        },
        {
          "indexed": false,
          "internalType": "uint256",
          "name": "numTokensInAuction",
          "type": "uint256"
        }
      ],
      "name": "AuctionConfigUpdated",
      "type": "event"
    },
    {
      "anonymous": false,
      "inputs": [
        {
          "indexed": true,
          "internalType": "uint256",
          "name": "projectId",
          "type": "uint256"
        },
        {
          "indexed": true,
          "internalType": "address",
          "name": "coreContract",
          "type": "address"
        },
        {
          "indexed": false,
          "internalType": "uint256",
          "name": "timestampEnd",
          "type": "uint256"
        }
      ],
      "name": "AuctionTimestampEndUpdated",
      "type": "event"
    },
    {
      "anonymous": false,
      "inputs": [
        {
          "indexed": true,
          "internalType": "uint256",
          "name": "projectId",
          "type": "uint256"
        },
        {
          "indexed": true,
          "internalType": "address",
          "name": "coreContract",
          "type": "address"
        },
        {
          "indexed": false,
          "internalType": "uint256",
          "name": "slotIndex",
          "type": "uint256"
        },
        {
          "indexed": false,
          "internalType": "uint256",
          "name": "bidId",
          "type": "uint256"
        },
        {
          "indexed": false,
          "internalType": "address",
          "name": "bidder",
          "type": "address"
        }
      ],
      "name": "BidCreated",
      "type": "event"
    },
    {
      "anonymous": false,
      "inputs": [
        {
          "indexed": true,
          "internalType": "uint256",
          "name": "projectId",
          "type": "uint256"
        },
        {
          "indexed": true,
          "internalType": "address",
          "name": "coreContract",
          "type": "address"
        },
        {
          "indexed": false,
          "internalType": "uint256",
          "name": "bidId",
          "type": "uint256"
        },
        {
          "indexed": false,
          "internalType": "uint256",
          "name": "tokenId",
          "type": "uint256"
        }
      ],
      "name": "BidMinted",
      "type": "event"
    },
    {
      "anonymous": false,
      "inputs": [
        {
          "indexed": true,
          "internalType": "uint256",
          "name": "projectId",
          "type": "uint256"
        },
        {
          "indexed": true,
          "internalType": "address",
          "name": "coreContract",
          "type": "address"
        },
        {
          "indexed": false,
          "internalType": "uint256",
          "name": "bidId",
          "type": "uint256"
        }
      ],
      "name": "BidRefunded",
      "type": "event"
    },
    {
      "anonymous": false,
      "inputs": [
        {
          "indexed": true,
          "internalType": "uint256",
          "name": "projectId",
          "type": "uint256"
        },
        {
          "indexed": true,
          "internalType": "address",
          "name": "coreContract",
          "type": "address"
        },
        {
          "indexed": false,
          "internalType": "uint256",
          "name": "bidId",
          "type": "uint256"
        }
      ],
      "name": "BidRemoved",
      "type": "event"
    },
    {
      "anonymous": false,
      "inputs": [
        {
          "indexed": true,
          "internalType": "uint256",
          "name": "projectId",
          "type": "uint256"
        },
        {
          "indexed": true,
          "internalType": "address",
          "name": "coreContract",
          "type": "address"
        },
        {
          "indexed": false,
          "internalType": "uint256",
          "name": "bidId",
          "type": "uint256"
        }
      ],
      "name": "BidSettled",
      "type": "event"
    },
    {
      "anonymous": false,
      "inputs": [
        {
          "indexed": true,
          "internalType": "uint256",
          "name": "projectId",
          "type": "uint256"
        },
        {
          "indexed": true,
          "internalType": "address",
          "name": "coreContract",
          "type": "address"
        },
        {
          "indexed": false,
          "internalType": "uint256",
          "name": "bidId",
          "type": "uint256"
        },
        {
          "indexed": false,
          "internalType": "uint256",
          "name": "newSlotIndex",
          "type": "uint256"
        }
      ],
      "name": "BidToppedUp",
      "type": "event"
    },
    {
      "anonymous": false,
      "inputs": [
        {
          "indexed": true,
          "internalType": "uint256",
          "name": "projectId",
          "type": "uint256"
        },
        {
          "indexed": true,
          "internalType": "address",
          "name": "coreContract",
          "type": "address"
        },
        {
          "indexed": false,
          "internalType": "bytes32",
          "name": "key",
          "type": "bytes32"
        },
        {
          "indexed": false,
          "internalType": "bool",
          "name": "value",
          "type": "bool"
        }
      ],
      "name": "ConfigValueSet",
      "type": "event"
    },
    {
      "anonymous": false,
      "inputs": [
        {
          "indexed": true,
          "internalType": "address",
          "name": "coreContract",
          "type": "address"
        },
        {
          "indexed": false,
          "internalType": "bool",
          "name": "imposeConstraints",
          "type": "bool"
        },
        {
          "indexed": false,
          "internalType": "bool",
          "name": "requireAdminArtistOnlyMintPeriod",
          "type": "bool"
        },
        {
          "indexed": false,
          "internalType": "bool",
          "name": "requireNoAdminArtistOnlyMintPeriod",
          "type": "bool"
        }
      ],
      "name": "ContractConfigUpdated",
      "type": "event"
    },
    {
      "anonymous": false,
      "inputs": [
        {
          "indexed": false,
          "internalType": "uint256",
          "name": "minAuctionDurationSeconds",
          "type": "uint256"
        }
      ],
      "name": "MinAuctionDurationSecondsUpdated",
      "type": "event"
    },
    {
      "anonymous": false,
      "inputs": [
        {
          "indexed": false,
          "internalType": "uint24",
          "name": "refundGasLimit",
          "type": "uint24"
        }
      ],
      "name": "MinterRefundGasLimitUpdated",
      "type": "event"
    },
    {
      "anonymous": false,
      "inputs": [
        {
          "indexed": false,
          "internalType": "uint256",
          "name": "numSlots",
          "type": "uint256"
        }
      ],
      "name": "NumSlotsUpdated",
      "type": "event"
    },
    {
      "anonymous": false,
      "inputs": [
        {
          "indexed": true,
          "internalType": "uint256",
          "name": "projectId",
          "type": "uint256"
        },
        {
          "indexed": true,
          "internalType": "address",
          "name": "coreContract",
          "type": "address"
        },
        {
          "indexed": false,
          "internalType": "uint256",
          "name": "numTokensInAuction",
          "type": "uint256"
        }
      ],
      "name": "NumTokensInAuctionUpdated",
      "type": "event"
    },
    {
      "anonymous": false,
      "inputs": [
        {
          "indexed": true,
          "internalType": "uint256",
          "name": "projectId",
          "type": "uint256"
        },
        {
          "indexed": true,
          "internalType": "address",
          "name": "coreContract",
          "type": "address"
        },
        {
          "indexed": false,
          "internalType": "uint256",
          "name": "maxInvocations",
          "type": "uint256"
        }
      ],
      "name": "ProjectMaxInvocationsLimitUpdated",
      "type": "event"
    },
    {
      "anonymous": false,
      "inputs": [
        {
          "indexed": true,
          "internalType": "uint256",
          "name": "projectId",
          "type": "uint256"
        },
        {
          "indexed": true,
          "internalType": "address",
          "name": "coreContract",
          "type": "address"
        },
        {
          "indexed": false,
          "internalType": "uint256",
          "name": "tokenId",
          "type": "uint256"
        },
        {
          "indexed": false,
          "internalType": "address",
          "name": "to",
          "type": "address"
        }
      ],
      "name": "TokenPurchased",
      "type": "event"
    },
    {
      "inputs": [],
      "name": "MIN_AUCTION_DURATION_SECONDS",
      "outputs": [
        {
          "internalType": "uint256",
          "name": "",
          "type": "uint256"
        }
      ],
      "stateMutability": "view",
      "type": "function"
    },
    {
      "inputs": [
        {
          "internalType": "uint256",
          "name": "projectId",
          "type": "uint256"
        },
        {
          "internalType": "address",
          "name": "coreContract",
          "type": "address"
        },
        {
          "internalType": "uint8",
          "name": "emergencyHoursToAdd",
          "type": "uint8"
        }
      ],
      "name": "adminAddEmergencyAuctionHours",
      "outputs": [],
      "stateMutability": "nonpayable",
      "type": "function"
    },
    {
      "inputs": [
        {
          "internalType": "uint256",
          "name": "projectId",
          "type": "uint256"
        },
        {
          "internalType": "address",
          "name": "coreContract",
          "type": "address"
        },
        {
          "internalType": "uint24",
          "name": "numTokensToMint",
          "type": "uint24"
        }
      ],
      "name": "adminArtistAutoMintTokensToWinners",
      "outputs": [],
      "stateMutability": "nonpayable",
      "type": "function"
    },
    {
      "inputs": [
        {
          "internalType": "uint256",
          "name": "projectId",
          "type": "uint256"
        },
        {
          "internalType": "address",
          "name": "coreContract",
          "type": "address"
        },
        {
          "internalType": "uint32[]",
          "name": "bidIds",
          "type": "uint32[]"
        }
      ],
      "name": "adminArtistDirectMintTokensToWinners",
      "outputs": [],
      "stateMutability": "nonpayable",
      "type": "function"
    },
    {
      "inputs": [
        {
          "internalType": "uint256",
          "name": "projectId",
          "type": "uint256"
        },
        {
          "internalType": "address",
          "name": "coreContract",
          "type": "address"
        },
        {
          "internalType": "uint32[]",
          "name": "bidIds",
          "type": "uint32[]"
        }
      ],
      "name": "adminArtistDirectRefundWinners",
      "outputs": [],
      "stateMutability": "nonpayable",
      "type": "function"
    },
    {
      "inputs": [
        {
          "internalType": "uint256",
          "name": "projectId",
          "type": "uint256"
        },
        {
          "internalType": "address",
          "name": "coreContract",
          "type": "address"
        },
        {
          "internalType": "uint24",
          "name": "numBidsToRefund",
          "type": "uint24"
        }
      ],
      "name": "adminAutoRefundBidsToResolveE1",
      "outputs": [],
      "stateMutability": "nonpayable",
      "type": "function"
    },
    {
      "inputs": [
        {
          "internalType": "uint256",
          "name": "projectId",
          "type": "uint256"
        },
        {
          "internalType": "address",
          "name": "coreContract",
          "type": "address"
        },
        {
          "internalType": "uint32[]",
          "name": "bidIds",
          "type": "uint32[]"
        }
      ],
      "name": "collectSettlements",
      "outputs": [],
      "stateMutability": "nonpayable",
      "type": "function"
    },
    {
      "inputs": [
        {
          "internalType": "address",
          "name": "coreContract",
          "type": "address"
        }
      ],
      "name": "contractConfigurationDetails",
      "outputs": [
        {
          "components": [
            {
              "internalType": "bool",
              "name": "imposeConstraints",
              "type": "bool"
            },
            {
              "internalType": "bool",
              "name": "requireAdminArtistOnlyMintPeriod",
              "type": "bool"
            },
            {
              "internalType": "bool",
              "name": "requireNoAdminArtistOnlyMintPeriod",
              "type": "bool"
            }
          ],
          "internalType": "struct RAMLib.RAMContractConfig",
          "name": "",
          "type": "tuple"
        }
      ],
      "stateMutability": "view",
      "type": "function"
    },
    {
      "inputs": [
        {
          "internalType": "uint256",
          "name": "projectId",
          "type": "uint256"
        },
        {
          "internalType": "address",
          "name": "coreContract",
          "type": "address"
        },
        {
          "internalType": "uint16",
          "name": "slotIndex",
          "type": "uint16"
        }
      ],
      "name": "createBid",
      "outputs": [],
      "stateMutability": "payable",
      "type": "function"
    },
    {
      "inputs": [
        {
          "internalType": "uint256",
          "name": "projectId",
          "type": "uint256"
        },
        {
          "internalType": "address",
          "name": "coreContract",
          "type": "address"
        }
      ],
      "name": "getAuctionDetails",
      "outputs": [
        {
          "internalType": "uint256",
          "name": "auctionTimestampStart",
          "type": "uint256"
        },
        {
          "internalType": "uint256",
          "name": "auctionTimestampEnd",
          "type": "uint256"
        },
        {
          "internalType": "uint256",
          "name": "basePrice",
          "type": "uint256"
        },
        {
          "internalType": "uint256",
          "name": "numTokensInAuction",
          "type": "uint256"
        },
        {
          "internalType": "uint256",
          "name": "numBids",
          "type": "uint256"
        },
        {
          "internalType": "uint256",
          "name": "numBidsMintedTokens",
          "type": "uint256"
        },
        {
          "internalType": "uint256",
          "name": "numBidsErrorRefunded",
          "type": "uint256"
        },
        {
          "internalType": "uint256",
          "name": "minBidSlotIndex",
          "type": "uint256"
        },
        {
          "internalType": "bool",
          "name": "allowExtraTime",
          "type": "bool"
        },
        {
          "internalType": "bool",
          "name": "adminArtistOnlyMintPeriodIfSellout",
          "type": "bool"
        },
        {
          "internalType": "bool",
          "name": "revenuesCollected",
          "type": "bool"
        },
        {
          "internalType": "enum RAMLib.ProjectMinterStates",
          "name": "projectMinterState",
          "type": "uint8"
        }
      ],
      "stateMutability": "view",
      "type": "function"
    },
    {
      "inputs": [
        {
          "internalType": "uint256",
          "name": "projectId",
          "type": "uint256"
        },
        {
          "internalType": "address",
          "name": "coreContract",
          "type": "address"
        }
      ],
      "name": "getIsErrorE1",
      "outputs": [
        {
          "internalType": "bool",
          "name": "isError",
          "type": "bool"
        },
        {
          "internalType": "uint256",
          "name": "numBidsToRefund",
          "type": "uint256"
        }
      ],
      "stateMutability": "view",
      "type": "function"
    },
    {
      "inputs": [
        {
          "internalType": "uint256",
          "name": "projectId",
          "type": "uint256"
        },
        {
          "internalType": "address",
          "name": "coreContract",
          "type": "address"
        }
      ],
      "name": "getMinBidValue",
      "outputs": [
        {
          "internalType": "uint256",
          "name": "",
          "type": "uint256"
        }
      ],
      "stateMutability": "view",
      "type": "function"
    },
    {
      "inputs": [
        {
          "internalType": "uint256",
          "name": "projectId",
          "type": "uint256"
        },
        {
          "internalType": "address",
          "name": "coreContract",
          "type": "address"
        }
      ],
      "name": "getMinimumNextBid",
      "outputs": [
        {
          "internalType": "uint256",
          "name": "minNextBidValueInWei",
          "type": "uint256"
        },
        {
          "internalType": "uint256",
          "name": "minNextBidSlotIndex",
          "type": "uint256"
        }
      ],
      "stateMutability": "view",
      "type": "function"
    },
    {
      "inputs": [
        {
          "internalType": "uint256",
          "name": "projectId",
          "type": "uint256"
        },
        {
          "internalType": "address",
          "name": "coreContract",
          "type": "address"
        }
      ],
      "name": "getPriceInfo",
      "outputs": [
        {
          "internalType": "bool",
          "name": "isConfigured",
          "type": "bool"
        },
        {
          "internalType": "uint256",
          "name": "tokenPriceInWei",
          "type": "uint256"
        },
        {
          "internalType": "string",
          "name": "currencySymbol",
          "type": "string"
        },
        {
          "internalType": "address",
          "name": "currencyAddress",
          "type": "address"
        }
      ],
      "stateMutability": "view",
      "type": "function"
    },
    {
      "inputs": [
        {
          "internalType": "uint256",
          "name": "projectId",
          "type": "uint256"
        },
        {
          "internalType": "address",
          "name": "coreContract",
          "type": "address"
        }
      ],
      "name": "getProjectBalance",
      "outputs": [
        {
          "internalType": "uint256",
          "name": "",
          "type": "uint256"
        }
      ],
      "stateMutability": "view",
      "type": "function"
    },
    {
      "inputs": [
        {
          "internalType": "address",
          "name": "coreContract",
          "type": "address"
        }
      ],
      "name": "isEngineView",
      "outputs": [
        {
          "internalType": "bool",
          "name": "",
          "type": "bool"
        }
      ],
      "stateMutability": "view",
      "type": "function"
    },
    {
      "inputs": [
        {
          "internalType": "uint256",
          "name": "projectId",
          "type": "uint256"
        },
        {
          "internalType": "address",
          "name": "coreContract",
          "type": "address"
        },
        {
          "internalType": "uint24",
          "name": "maxInvocations",
          "type": "uint24"
        }
      ],
      "name": "manuallyLimitProjectMaxInvocations",
      "outputs": [],
      "stateMutability": "nonpayable",
      "type": "function"
    },
    {
      "inputs": [
        {
          "internalType": "uint256",
          "name": "projectId",
          "type": "uint256"
        },
        {
          "internalType": "address",
          "name": "coreContract",
          "type": "address"
        }
      ],
      "name": "maxInvocationsProjectConfig",
      "outputs": [
        {
          "components": [
            {
              "internalType": "bool",
              "name": "maxHasBeenInvoked",
              "type": "bool"
            },
            {
              "internalType": "uint24",
              "name": "maxInvocations",
              "type": "uint24"
            }
          ],
          "internalType": "struct MaxInvocationsLib.MaxInvocationsProjectConfig",
          "name": "",
          "type": "tuple"
        }
      ],
      "stateMutability": "view",
      "type": "function"
    },
    {
      "inputs": [],
      "name": "minterConfigurationDetails",
      "outputs": [
        {
          "internalType": "uint256",
          "name": "minAuctionDurationSeconds",
          "type": "uint256"
        },
        {
          "internalType": "uint256",
          "name": "auctionBufferSeconds",
          "type": "uint256"
        },
        {
          "internalType": "uint256",
          "name": "maxAuctionExtraSeconds",
          "type": "uint256"
        },
        {
          "internalType": "uint256",
          "name": "maxAuctionAdminEmergencyExtensionHours",
          "type": "uint256"
        },
        {
          "internalType": "uint256",
          "name": "adminArtistOnlyMintTimeSeconds",
          "type": "uint256"
        },
        {
          "internalType": "uint24",
          "name": "minterRefundGasLimit",
          "type": "uint24"
        }
      ],
      "stateMutability": "view",
      "type": "function"
    },
    {
      "inputs": [],
      "name": "minterFilterAddress",
      "outputs": [
        {
          "internalType": "address",
          "name": "",
          "type": "address"
        }
      ],
      "stateMutability": "view",
      "type": "function"
    },
    {
      "inputs": [],
      "name": "minterType",
      "outputs": [
        {
          "internalType": "string",
          "name": "",
          "type": "string"
        }
      ],
      "stateMutability": "view",
      "type": "function"
    },
    {
      "inputs": [],
      "name": "minterVersion",
      "outputs": [
        {
          "internalType": "string",
          "name": "",
          "type": "string"
        }
      ],
      "stateMutability": "view",
      "type": "function"
    },
    {
      "inputs": [
        {
          "internalType": "uint256",
          "name": "projectId",
          "type": "uint256"
        },
        {
          "internalType": "address",
          "name": "coreContract",
          "type": "address"
        }
      ],
      "name": "projectMaxHasBeenInvoked",
      "outputs": [
        {
          "internalType": "bool",
          "name": "",
          "type": "bool"
        }
      ],
      "stateMutability": "view",
      "type": "function"
    },
    {
      "inputs": [
        {
          "internalType": "uint256",
          "name": "projectId",
          "type": "uint256"
        },
        {
          "internalType": "address",
          "name": "coreContract",
          "type": "address"
        }
      ],
      "name": "projectMaxInvocations",
      "outputs": [
        {
          "internalType": "uint256",
          "name": "",
          "type": "uint256"
        }
      ],
      "stateMutability": "view",
      "type": "function"
    },
    {
      "inputs": [
        {
          "internalType": "uint256",
          "name": "projectId",
          "type": "uint256"
        },
        {
          "internalType": "address",
          "name": "coreContract",
          "type": "address"
        }
      ],
      "name": "purchase",
      "outputs": [
        {
          "internalType": "uint256",
          "name": "tokenId",
          "type": "uint256"
        }
      ],
      "stateMutability": "payable",
      "type": "function"
    },
    {
      "inputs": [
        {
          "internalType": "address",
          "name": "to",
          "type": "address"
        },
        {
          "internalType": "uint256",
          "name": "projectId",
          "type": "uint256"
        },
        {
          "internalType": "address",
          "name": "coreContract",
          "type": "address"
        }
      ],
      "name": "purchaseTo",
      "outputs": [
        {
          "internalType": "uint256",
          "name": "tokenId",
          "type": "uint256"
        }
      ],
      "stateMutability": "payable",
      "type": "function"
    },
    {
      "inputs": [
        {
          "internalType": "uint256",
          "name": "projectId",
          "type": "uint256"
        },
        {
          "internalType": "address",
          "name": "coreContract",
          "type": "address"
        },
        {
          "internalType": "uint40",
          "name": "auctionTimestampEnd",
          "type": "uint40"
        }
      ],
      "name": "reduceAuctionLength",
      "outputs": [],
      "stateMutability": "nonpayable",
      "type": "function"
    },
    {
      "inputs": [
        {
          "internalType": "uint256",
          "name": "projectId",
          "type": "uint256"
        },
        {
          "internalType": "address",
          "name": "coreContract",
          "type": "address"
        },
        {
          "internalType": "uint40",
          "name": "auctionTimestampStart",
          "type": "uint40"
        },
        {
          "internalType": "uint40",
          "name": "auctionTimestampEnd",
          "type": "uint40"
        },
        {
          "internalType": "uint256",
          "name": "basePrice",
          "type": "uint256"
        },
        {
          "internalType": "bool",
          "name": "allowExtraTime",
          "type": "bool"
        },
        {
          "internalType": "bool",
          "name": "adminArtistOnlyMintPeriodIfSellout",
          "type": "bool"
        }
      ],
      "name": "setAuctionDetails",
      "outputs": [],
      "stateMutability": "nonpayable",
      "type": "function"
    },
    {
      "inputs": [
        {
          "internalType": "address",
          "name": "coreContract",
          "type": "address"
        },
        {
          "internalType": "bool",
          "name": "requireAdminArtistOnlyMintPeriod",
          "type": "bool"
        },
        {
          "internalType": "bool",
          "name": "requireNoAdminArtistOnlyMintPeriod",
          "type": "bool"
        }
      ],
      "name": "setContractConfig",
      "outputs": [],
      "stateMutability": "nonpayable",
      "type": "function"
    },
    {
      "inputs": [
        {
          "internalType": "uint256",
          "name": "projectId",
          "type": "uint256"
        },
        {
          "internalType": "address",
          "name": "coreContract",
          "type": "address"
        },
        {
          "internalType": "uint16",
          "name": "slotIndex",
          "type": "uint16"
        }
      ],
      "name": "slotIndexToBidValue",
      "outputs": [
        {
          "internalType": "uint256",
          "name": "",
          "type": "uint256"
        }
      ],
      "stateMutability": "view",
      "type": "function"
    },
    {
      "inputs": [
        {
          "internalType": "uint256",
          "name": "",
          "type": "uint256"
        },
        {
          "internalType": "address",
          "name": "",
          "type": "address"
        }
      ],
      "name": "syncProjectMaxInvocationsToCore",
      "outputs": [],
      "stateMutability": "pure",
      "type": "function"
    },
    {
      "inputs": [
        {
          "internalType": "uint256",
          "name": "projectId",
          "type": "uint256"
        },
        {
          "internalType": "address",
          "name": "coreContract",
          "type": "address"
        },
        {
          "internalType": "uint32",
          "name": "bidId",
          "type": "uint32"
        },
        {
          "internalType": "uint16",
          "name": "newSlotIndex",
          "type": "uint16"
        }
      ],
      "name": "topUpBid",
      "outputs": [],
      "stateMutability": "payable",
      "type": "function"
    },
    {
      "inputs": [
        {
          "internalType": "uint24",
          "name": "minterRefundGasLimit",
          "type": "uint24"
        }
      ],
      "name": "updateRefundGasLimit",
      "outputs": [],
      "stateMutability": "nonpayable",
      "type": "function"
    },
    {
      "inputs": [
        {
          "internalType": "uint256",
          "name": "projectId",
          "type": "uint256"
        },
        {
          "internalType": "address",
          "name": "coreContract",
          "type": "address"
        },
        {
          "internalType": "uint32[]",
          "name": "bidIds",
          "type": "uint32[]"
        }
      ],
      "name": "winnerDirectMintTokens",
      "outputs": [],
      "stateMutability": "nonpayable",
      "type": "function"
    },
    {
      "inputs": [
        {
          "internalType": "uint256",
          "name": "projectId",
          "type": "uint256"
        },
        {
          "internalType": "address",
          "name": "coreContract",
          "type": "address"
        },
        {
          "internalType": "uint32[]",
          "name": "bidIds",
          "type": "uint32[]"
        }
      ],
      "name": "winnerDirectRefund",
      "outputs": [],
      "stateMutability": "nonpayable",
      "type": "function"
    },
    {
      "inputs": [
        {
          "internalType": "uint256",
          "name": "projectId",
          "type": "uint256"
        },
        {
          "internalType": "address",
          "name": "coreContract",
          "type": "address"
        }
      ],
      "name": "withdrawArtistAndAdminRevenues",
      "outputs": [],
      "stateMutability": "nonpayable",
      "type": "function"
    }
  ],
  "bytecode": "0x60c06040526001805462ffffff19166175301790553480156200002157600080fd5b50604051620060d4380380620060d4833981016040819052620000449162000144565b60016000556001600160a01b038116608081905260a05260405161025881527f4ef0f5aca00c220a4058c318e0dd5526680003d4e6fceb9ad65087452a8313fa9060200160405180910390a160015460405162ffffff90911681527ff28602592f2788507e76a86523ec8d5ef26873807e258d4cae31571370c0e6c89060200160405180910390a16040805161012c8152610e1060208201527f0c92d75d9ae429e723cd03b00b1498b72fd1a30fd4337bf4cbdf14650599dd38910160405180910390a160405161020081527f93eac00dcf92d1cee4f4605f83f625533396c288555591736b62533e656beaf69060200160405180910390a15062000176565b6000602082840312156200015757600080fd5b81516001600160a01b03811681146200016f57600080fd5b9392505050565b60805160a051615f07620001cd600039600081816108f901528181610a1901528181610aee01528181610bb801528181610dc601528181610ec50152611175015260008181610685015261103f0152615f076000f3fe6080604052600436106101ae5760003560e01c80639a94488a116100e85780639a94488a1461045c5780639b7b55851461049e578063ae77c237146104b4578063b000e334146104c7578063b9daf3b5146104e7578063bf54d5fb14610507578063c1b9281e14610527578063cce7c90914610547578063d009cb9d14610567578063d3ddabe61461059c578063d4f6d0e3146105db578063d9bffbce14610623578063d9eb16db14610643578063dd85582f14610673578063e624db9f146106bf578063e996766e146106df578063e9d1e8ac146106ff578063f5a759b71461073657600080fd5b806241673c146101b357806301000da7146101e6578063014053a014610216578063047fef49146102385780631290b96b1461027057806317e70c3c1461029057806340b790bd146102a35780634869f3df146102da5780634e8d8787146102fa578063630766801461030d57806365e92cde1461035c5780636881dbcf1461037c578063711ce3911461039c578063720281c3146103bc5780637ca340a6146103dc5780637e86d370146103fc5780638f13865e1461041c5780638fe8a90b1461043c575b600080fd5b3480156101bf57600080fd5b506101d36101ce3660046152fc565b610749565b6040519081526020015b60405180910390f35b3480156101f257600080fd5b5061020661020136600461533a565b6107ae565b60405190151581526020016101dd565b34801561022257600080fd5b50610236610231366004615357565b6107e6565b005b34801561024457600080fd5b506102586102533660046153e3565b610833565b6040516101dd9c9b9a99989796959493929190615429565b34801561027c57600080fd5b5061023661028b3660046154c5565b610877565b61023661029e3660046152fc565b6108c1565b3480156102af57600080fd5b506102c36102be3660046153e3565b6109ba565b6040805192151583526020830191909152016101dd565b3480156102e657600080fd5b506101d36102f53660046153e3565b6109d3565b6101d36103083660046154fa565b6109e8565b34801561031957600080fd5b5060015460408051610258815261012c6020820152610e1091810191909152604860608201526203f480608082015262ffffff90911660a082015260c0016101dd565b34801561036857600080fd5b5061023661037736600461553c565b610a4a565b34801561038857600080fd5b50610236610397366004615587565b610a8f565b3480156103a857600080fd5b506102366103b7366004615357565b610ab4565b3480156103c857600080fd5b506102366103d73660046155da565b610b18565b3480156103e857600080fd5b506102366103f7366004615357565b610b69565b34801561040857600080fd5b5061023661041736600461560f565b610be2565b34801561042857600080fd5b50610236610437366004615357565b610cd2565b34801561044857600080fd5b506102366104573660046153e3565b610d29565b34801561046857600080fd5b5061047c6104773660046153e3565b610d77565b6040805182511515815260209283015162ffffff1692810192909252016101dd565b3480156104aa57600080fd5b506101d361025881565b6101d36104c23660046153e3565b610d95565b3480156104d357600080fd5b506102366104e23660046155da565b610df6565b3480156104f357600080fd5b506102366105023660046155da565b610e7b565b34801561051357600080fd5b506101d36105223660046153e3565b610eef565b34801561053357600080fd5b50610236610542366004615357565b610efb565b34801561055357600080fd5b506102066105623660046153e3565b610f3d565b34801561057357600080fd5b506105876105823660046153e3565b610f49565b604080519283526020830191909152016101dd565b3480156105a857600080fd5b506105ce60405180604001604052806006815260200165076302e302e360d41b81525081565b6040516101dd91906156df565b3480156105e757600080fd5b506105fb6105f636600461533a565b610f61565b60408051825115158152602080840151151590820152918101511515908201526060016101dd565b34801561062f57600080fd5b5061023661063e3660046153e3565b610fbe565b34801561064f57600080fd5b5061066361065e3660046153e3565b610ffd565b6040516101dd94939291906156f2565b34801561067f57600080fd5b506106a77f000000000000000000000000000000000000000000000000000000000000000081565b6040516001600160a01b0390911681526020016101dd565b3480156106cb57600080fd5b506102366106da36600461572c565b61103a565b3480156106eb57600080fd5b506101d36106fa3660046153e3565b611101565b34801561070b57600080fd5b506105ce6040518060400160405280600b81526020016a04d696e74657252414d56360ac1b81525081565b61023661074436600461575b565b61113d565b60006102008261ffff16106107795760405162461bcd60e51b8152600401610770906157aa565b60405180910390fd5b60006107858585611229565b60060154600160901b90046001600160581b031690506107a5818461125a565b95945050505050565b6000806107ba8361129e565b8054909150610100900460ff16156107d6575460ff1692915050565b6107df836112e3565b9392505050565b6002600054036108085760405162461bcd60e51b8152600401610770906157db565b6002600055600180546108289186918691869186919062ffffff16611459565b505060016000555050565b60008060008060008060008060008060008061084f8e8e61174b565b9b509b509b509b509b509b509b509b509b509b509b509b509295989b509295989b509295989b565b6002600054036108995760405162461bcd60e51b8152600401610770906157db565b60026000556108a98383336118aa565b6108b78383836102586118ef565b5050600160005550565b6002600054036108e35760405162461bcd60e51b8152600401610770906157db565b6002600055604051635845de1f60e01b815230907f00000000000000000000000000000000000000000000000000000000000000006001600160a01b031690635845de1f906109389087908790600401615812565b602060405180830381865afa158015610955573d6000803e3d6000fd5b505050506040513d601f19601f820116820180604052508101906109799190615829565b6001600160a01b03161461099f5760405162461bcd60e51b815260040161077090615846565b6001546108b7908490849084903390349062ffffff16611b2a565b6000806109c78484611e7d565b50909590945092505050565b60006109df8383611eea565b90505b92915050565b6000600260005403610a0c5760405162461bcd60e51b8152600401610770906157db565b6002600055610a3d8484847f0000000000000000000000000000000000000000000000000000000000000000611f0a565b6001600055949350505050565b600260005403610a6c5760405162461bcd60e51b8152600401610770906157db565b6002600055610a848233306332f4966f60e11b612125565b6108b7838383612180565b610aa2833330636881dbcf60e01b612125565b610aaf836001848461233f565b505050565b600260005403610ad65760405162461bcd60e51b8152600401610770906157db565b600260005560018054610828918691869186918691907f00000000000000000000000000000000000000000000000000000000000000009062ffffff1661242d565b600260005403610b3a5760405162461bcd60e51b8152600401610770906157db565b6002600055610b5282333063720281c360e01b612125565b6001546108b79084908490849062ffffff16612645565b600260005403610b8b5760405162461bcd60e51b8152600401610770906157db565b6002600055610ba484843330633e51a05360e11b61296c565b6001546108289085908590859085906000907f00000000000000000000000000000000000000000000000000000000000000009062ffffff1661242d565b600260005403610c045760405162461bcd60e51b8152600401610770906157db565b6002600055610c148787336118aa565b6000610c2088886129d5565b6004811115610c3157610c31615413565b14610c715760405162461bcd60e51b815260206004820152601060248201526f27b7363c9038393296b0bab1ba34b7b760811b6044820152606401610770565b610258610c7e8686615887565b64ffffffffff161015610ca35760405162461bcd60e51b8152600401610770906158a5565b610cad8787612b18565b610cc487878787610cbd88612bd3565b8787612c3f565b505060016000555050505050565b600260005403610cf45760405162461bcd60e51b8152600401610770906157db565b6002600055610d0d84843330634789c32f60e11b61296c565b60015461082890859085908590859060009062ffffff16611459565b600260005403610d4b5760405162461bcd60e51b8152600401610770906157db565b6002600055610d6482823330638fe8a90b60e01b61296c565b610d6e8282612f86565b50506001600055565b60408051808201909152600080825260208201526109df838361313b565b6000600260005403610db95760405162461bcd60e51b8152600401610770906157db565b6002600055610dea3384847f0000000000000000000000000000000000000000000000000000000000000000611f0a565b60016000559392505050565b610e018383336118aa565b6000610e0d84846129d5565b90506000816004811115610e2357610e23615413565b14610e5f5760405162461bcd60e51b815260206004820152600c60248201526b4f6e6c79207374617465204160a01b6044820152606401610770565b610e6a848484613177565b610e748484613230565b5050505050565b600260005403610e9d5760405162461bcd60e51b8152600401610770906157db565b6002600055610eb68383333063b9daf3b560e01b61296c565b6001546108b7908490849084907f00000000000000000000000000000000000000000000000000000000000000009062ffffff166132b1565b60006109df83836134ce565b600260005403610f1d5760405162461bcd60e51b8152600401610770906157db565b6002600055600154610828908590859085908590339062ffffff166134f0565b60006109df83836135d5565b600080610f568484613693565b909590945092505050565b6040805160608101825260008082526020820181905291810191909152610f878261384f565b60408051606081018252915460ff808216151584526101008204811615156020850152620100009091041615159082015292915050565b60405162461bcd60e51b81526020600482015260146024820152731058dd1a5bdb881b9bdd081cdd5c1c1bdc9d195960621b6044820152606401610770565b6000806060600061100e8686613859565b60408051808201909152600381526208aa8960eb1b602082015291989097509095506000945092505050565b61106d7f0000000000000000000000000000000000000000000000000000000000000000333063e624db9f60e01b6139bd565b611b588162ffffff1610156110b55760405162461bcd60e51b815260206004820152600e60248201526d04f6e6c792067746520375f3030360941b6044820152606401610770565b6001805462ffffff191662ffffff83169081179091556040519081527ff28602592f2788507e76a86523ec8d5ef26873807e258d4cae31571370c0e6c89060200160405180910390a150565b60008061110e8484613a12565b915050600061111d8585611229565b60060154600160901b90046001600160581b031690506107a5818361125a565b60026000540361115f5760405162461bcd60e51b8152600401610770906157db565b6002600055604051635845de1f60e01b815230907f00000000000000000000000000000000000000000000000000000000000000006001600160a01b031690635845de1f906111b49088908890600401615812565b602060405180830381865afa1580156111d1573d6000803e3d6000fd5b505050506040513d601f19601f820116820180604052508101906111f59190615829565b6001600160a01b03161461121b5760405162461bcd60e51b815260040161077090615846565b610828848484843334613aa9565b6000611233613d4f565b6001600160a01b039290921660009081526020928352604080822094825293909252502090565b600061126b604061ffff84166158e6565b83901b905060406112808161ffff85166158fa565b61128a908361590e565b61129491906158e6565b6109df9082615925565b60007f69f22dd730b53ff235fa96b4306a31bef5dad48fe4bac28b1ceebbce14401b385b6001600160a01b039092166000908152600192909201602052506040902090565b6040516000602482018190526044820181905290819060640160408051601f198184030181529181526020820180516001600160e01b0316638639415b60e01b1790525190915060009081906001600160a01b03861690611345908590615938565b600060405180830381855afa9150503d8060008114611380576040519150601f19603f3d011682016040523d82523d6000602084013e611385565b606091505b5091509150816113e55760405162461bcd60e51b815260206004820152602560248201527f6765745072696d617279526576656e756553706c69747328292063616c6c2066604482015264185a5b195960da1b6064820152608401610770565b805160c08190036113fc5750600095945050505050565b80610100036114115750600195945050505050565b60405162461bcd60e51b815260206004820152601e60248201527f556e657870656374656420726576656e75652073706c697420627974657300006044820152606401610770565b82600061146688886129d5565b9050600381600481111561147c5761147c615413565b146114995760405162461bcd60e51b815260040161077090615954565b6000806114a68a8a611e7d565b5091509150816114c85760405162461bcd60e51b81526004016107709061597a565b808411156114e85760405162461bcd60e51b8152600401610770906159a4565b50505060006114f78888611229565b9050600061150482613d73565b905060005b8381101561173f576000888883818110611525576115256159db565b905060200201602081019061153a91906159f1565b63ffffffff16600081815260208690526040902090915061155c816001613dda565b8061156d575061156d816002613dda565b15611579575050611737565b87156115af578054600160501b90046001600160a01b031633146115af5760405162461bcd60e51b815260040161077090615a0c565b8360006115bc8382613dda565b611601576115cd8360006001613dfd565b50600686015482546001916115fe91600160901b9091046001600160581b031690600160401b900461ffff1661125a565b91505b61160e8360026001613dfd565b600587018054600160c81b900462ffffff1690601961162c83615a3b565b91906101000a81548162ffffff021916908362ffffff16021790555050818760070160008282829054906101000a90046001600160581b031661166f9190615a5d565b92506101000a8154816001600160581b0302191690836001600160581b031602179055506116b583600001600a9054906101000a90046001600160a01b0316838b613e59565b80156116ee578c6001600160a01b03168e600080516020615eb2833981519152866040516116e591815260200190565b60405180910390a35b8c6001600160a01b03168e7fa59312996dc68b7f0224b341fed75d5afeb3bb20624107d37942d14f594281568660405161172a91815260200190565b60405180910390a3505050505b600101611509565b50505050505050505050565b6000806000806000806000806000806000806117678e8e6129d5565b905060006117758f8f611229565b90508060060160009054906101000a900464ffffffffff1664ffffffffff169c5080600601600a9054906101000a900464ffffffffff1664ffffffffff169b508060060160129054906101000a90046001600160581b03166001600160581b03169a508060050160109054906101000a900462ffffff1662ffffff1699508060050160139054906101000a900462ffffff1662ffffff1698508060050160169054906101000a900462ffffff1662ffffff1697508060050160199054906101000a900462ffffff1662ffffff1696508060050160009054906101000a900461ffff1661ffff1695508060060160109054906101000a900460ff1694508060060160119054906101000a900460ff16935080600701600b9054906101000a900460ff169250509295989b509295989b509295989b565b6118b5838383613e8e565b610aaf5760405162461bcd60e51b815260206004820152600b60248201526a13db9b1e48105c9d1a5cdd60aa1b6044820152606401610770565b60006118fb8585611229565b9050600161190986866129d5565b600481111561191a5761191a615413565b146119375760405162461bcd60e51b815260040161077090615a7d565b6006810154600160781b900460ff16156119915760405162461bcd60e51b815260206004820152601b60248201527a273790383932bb34b7bab99030b236b4b71032bc3a32b739b4b7b760291b6044820152606401610770565b6006810154600160281b810464ffffffffff908116600160501b90920416146119cc5760405162461bcd60e51b815260040161077090615aa3565b600681015464ffffffffff600160501b909104811690841610611a2e5760405162461bcd60e51b815260206004820152601a60248201527909edcd8f240e4cac8eac6ca40c2eac6e8d2dedc40d8cadccee8d60331b6044820152606401610770565b6006810154611a4590839064ffffffffff16615925565b8364ffffffffff1611611a6a5760405162461bcd60e51b8152600401610770906158a5565b428364ffffffffff1611611ab75760405162461bcd60e51b81526020600482015260146024820152734f6e6c792066757475726520656e642074696d6560601b6044820152606401610770565b600681018054600160281b600160781b031916600160501b64ffffffffff861690810264ffffffffff60281b191691909117600160281b8202179091556040519081526001600160a01b038516908690600080516020615e92833981519152906020015b60405180910390a35050505050565b6000611b368787611229565b90506001611b4488886129d5565b6004811115611b5557611b55615413565b14611b725760405162461bcd60e51b815260040161077090615a7d565b6102008561ffff1610611b975760405162461bcd60e51b8152600401610770906157aa565b6006810154600090611bb990600160901b90046001600160581b03168761125a565b9050808414611c0a5760405162461bcd60e51b815260206004820152601f60248201527f6d73672e76616c7565206d75737420657175616c20736c6f742076616c7565006044820152606401610770565b600782018054859190600090611c2a9084906001600160581b0316615ad6565b92506101000a8154816001600160581b0302191690836001600160581b031602179055508160050160139054906101000a900462ffffff1662ffffff16600003611ca357611c788888612b18565b611c828888613230565b506005820180546201000061ffff891690810263ffffffff19909216171790555b6005820154600160801b900462ffffff1680611cf85760405162461bcd60e51b81526020600482015260146024820152732737903a37b5b2b7399034b71030bab1ba34b7b760611b6044820152606401610770565b6005830154600160981b900462ffffff1681148015611e6e576000611d1f858c8c89613f17565b6006860154909150600090611d4490600160901b90046001600160581b03168361125a565b9050611d508189614119565b611d955760405162461bcd60e51b8152602060048201526016602482015275496e73756666696369656e74206269642076616c756560501b6044820152606401610770565b6006860154600090600160801b900460ff168015611dd157506006870154611dce9061012c90600160501b900464ffffffffff16615af6565b42115b90508015611e6a576006870154611e0e90611dfd90610e1090600160281b900464ffffffffff16615925565b611e0961012c42615925565b61416f565b60068801805464ffffffffff60501b1916600160501b64ffffffffff93841681029190911791829055604051910490911681526001600160a01b038d16908e90600080516020615e928339815191529060200160405180910390a35b5050505b61173f848b8b8b8b6000614185565b600080600080611e8d8686611229565b90506000611e9a826144a4565b90506000611ea888886144f1565b9050808211955085611ebb576000611ec5565b611ec58183615af6565b945085611edb57611ed68282615af6565b611ede565b60005b93505050509250925092565b600080611ef78484614558565b54610100900462ffffff16949350505050565b600080611f178585611229565b90506000611f2586866129d5565b90506003816004811115611f3b57611f3b615413565b1480611f5857506004816004811115611f5657611f56615413565b145b611f995760405162461bcd60e51b81526020600482015260126024820152714f6e6c79207374617465732044206f72204560701b6044820152606401610770565b6000611fa58787611e7d565b9250505060008111611ff35760405162461bcd60e51b815260206004820152601760248201527652656163686564206d617820696e766f636174696f6e7360481b6044820152606401610770565b50506006810154600160901b90046001600160581b03163481146120595760405162461bcd60e51b815260206004820152601f60248201527f4f6e6c792073656e642061756374696f6e2072657365727665207072696365006044820152606401610770565b6040516117cd60e21b81526001600160a01b03851690615f3490612087908a908a908a903390600401615b09565b6020604051808303816000875af11580156120a6573d6000803e3d6000fd5b505050506040513d601f19601f820116820180604052508101906120ca9190615b34565b92506120d7868287614580565b846001600160a01b0316867fdfd0b295795ee66148297b0ff929867a78b799aca7c8def4666dfd1110e58070858a604051612113929190615812565b60405180910390a35050949350505050565b61213184848484614741565b61217a5760405162461bcd60e51b815260206004820152601a60248201527913db9b1e4810dbdc994810591b5a5b9050d308185b1b1bddd95960321b6044820152606401610770565b50505050565b600061218c8484611229565b9050600161219a85856129d5565b60048111156121ab576121ab615413565b146121c85760405162461bcd60e51b815260040161077090615a7d565b6006810154600160281b810464ffffffffff908116600160501b90920416146122035760405162461bcd60e51b815260040161077090615aa3565b600681015460ff600160781b90910481169060489061222490851683615925565b11156122705760405162461bcd60e51b815260206004820152601b60248201527a09edcd8f240cadacae4cecadcc6f240d0deeae4e640d8e840dac2f602b1b6044820152606401610770565b61227d60ff841682615925565b60068301805460ff60781b1916600160781b60ff938416021790556000906122a9908516610e10615b4d565b60068401546122ca9161ffff1690600160501b900464ffffffffff16615b6b565b600684018054600160281b600160781b031916600160501b64ffffffffff9390931692830264ffffffffff60281b191617600160281b83021790556040518181529091506001600160a01b038616908790600080516020615e92833981519152906020015b60405180910390a3505050505050565b8180156123495750805b156123965760405162461bcd60e51b815260206004820152601e60248201527f4f6e6c79206f6e6520636f6e73747261696e742063616e2062652073657400006044820152606401610770565b60006123a18561384f565b805461ffff191685151561ff00198116919091176101008615159081029190911762ff0000191662010000861515908102919091178455604080519384526020840192909252908201529091506001600160a01b038616907f259bc433e85ee67cf592c09fb7b7c1a9b5c970730454184a794f18905ad46d089060600160405180910390a25050505050565b60006124398888611229565b90508460006124488a8a6129d5565b9050600381600481111561245e5761245e615413565b1461247b5760405162461bcd60e51b815260040161077090615954565b612484836144a4565b8211156124a35760405162461bcd60e51b815260040161077090615b89565b5060006124af83613d73565b905060005b828110156126385760008989838181106124d0576124d06159db565b90506020020160208101906124e591906159f1565b63ffffffff166000818152602087905260409020805491925090600160501b90046001600160a01b03168061254d5760405162461bcd60e51b815260206004820152600e60248201526d1a5b9d985b1a5908109a5908125160921b6044820152606401610770565b612558826001613dda565b806125695750612569826002613dda565b1561257657505050612630565b89156125a457336001600160a01b038216146125a45760405162461bcd60e51b815260040161077090615a0c565b6125b082600180613dfd565b600587018054600160b01b900462ffffff169060166125ce83615a3b565b91906101000a81548162ffffff021916908362ffffff160217905550506125f88e8e85848d6147c9565b612603826000613dda565b61262c5761262c878f8f8560000160089054906101000a900461ffff1661ffff16878a8e614889565b5050505b6001016124b4565b5050505050505050505050565b600061265185856129d5565b9050600281600481111561266757612667615413565b146126845760405162461bcd60e51b815260040161077090615bc0565b6000806126918787611e7d565b5091509150816126b35760405162461bcd60e51b81526004016107709061597a565b808562ffffff1611156126d85760405162461bcd60e51b8152600401610770906159a4565b50505060006126e78585611229565b6005810154600160401b9081900463ffffffff1660008181526020849052604081205493945090929190910461ffff169061272184613d73565b905060005b8662ffffff16811015612900578360000361275e57600585015461ffff16600081815260028701602052604090205494509250612776565b6000938452602085905260409093205463ffffffff16925b836000036127ac576127928561278d856001615925565b614979565b61ffff166000818152600287016020526040902054945092505b60008481526020869052604081209083906127c78382613dda565b6127fe576127d88360006001613dfd565b5060068701546001906127fb90600160901b90046001600160581b03168761125a565b91505b61280b8360026001613dfd565b60078801805483919060009061282b9084906001600160581b0316615a5d565b92506101000a8154816001600160581b0302191690836001600160581b0316021790555061287183600001600a9054906101000a90046001600160a01b0316838b613e59565b80156128ac5760405163ffffffff881681526001600160a01b038c16908d90600080516020615eb28339815191529060200160405180910390a35b60405163ffffffff881681526001600160a01b038c16908d907fa59312996dc68b7f0224b341fed75d5afeb3bb20624107d37942d14f594281569060200160405180910390a3836001019350505050612726565b808560050160198282829054906101000a900462ffffff166129229190615be6565b92506101000a81548162ffffff021916908362ffffff160217905550838560050160086101000a81548163ffffffff021916908363ffffffff160217905550505050505050505050565b612977858585613e8e565b80612989575061298984848484614741565b610e745760405162461bcd60e51b815260206004820152601d60248201527f4f6e6c7920417274697374206f7220436f72652041646d696e2041434c0000006044820152606401610770565b6000806129e28484611229565b600681015490915064ffffffffff1680158015904283119080612a025750805b15612a145760009450505050506109e2565b6006840154600160501b900464ffffffffff1642811060008380612a355750815b1590508015612a4e5760019750505050505050506109e2565b600587015460009062ffffff600160981b8204811691612a7f91600160c81b8204811691600160b01b900416615be6565b62ffffff161490508015612a9e576004985050505050505050506109e2565b6006880154600090600160881b900460ff168015612ad557506005890154600160981b810462ffffff908116600160801b90920416145b8015612aec5750612ae96203f48086615925565b42105b90508015612b0657600299505050505050505050506109e2565b5060039b9a5050505050505050505050565b6000612b248383614558565b9050612b308383614a0a565b15612b3f57610aaf8383614a3d565b600080612b4c8585614ab7565b84549193509150610100900462ffffff1681811115612bb857835483831463ffffffff1990911661010062ffffff85160260ff1916171784556040518281526001600160a01b038616908790600080516020615e728339815191529060200160405180910390a3612bcb565b808310612bcb57835460ff191660011784555b505050505050565b60006001600160581b03821115612c3b5760405162461bcd60e51b815260206004820152602660248201527f53616665436173743a2076616c756520646f65736e27742066697420696e203860448201526538206269747360d01b6064820152608401610770565b5090565b6000612c4b8888611229565b905066b1a2bc2ec50000846001600160581b03161015612cac5760405162461bcd60e51b815260206004820152601c60248201527b09edcd8f240c4c2e6ca40e0e4d2c6ca40cee8ca40605c606a408aa8960231b6044820152606401610770565b428664ffffffffff1611612cf95760405162461bcd60e51b81526020600482015260146024820152734f6e6c79206675747572652061756374696f6e7360601b6044820152606401610770565b8564ffffffffff168564ffffffffff1611612d545760405162461bcd60e51b815260206004820152601b60248201527a4f6e6c7920656e642074696d652067742073746172742074696d6560281b6044820152606401610770565b6000612d5f8861384f565b805490915060ff1615612e26578054610100900460ff1615612dc85782612dc85760405162461bcd60e51b815260206004820152601d60248201527f4f6e6c792061646d696e2d617274697374206d696e7420706572696f640000006044820152606401610770565b805462010000900460ff1615612e26578215612e265760405162461bcd60e51b815260206004820181905260248201527f4f6e6c79206e6f2061646d696e2d617274697374206d696e7420706572696f646044820152606401610770565b868260060160006101000a81548164ffffffffff021916908364ffffffffff1602179055508582600601600a6101000a81548164ffffffffff021916908364ffffffffff160217905550858260060160056101000a81548164ffffffffff021916908364ffffffffff160217905550848260060160126101000a8154816001600160581b0302191690836001600160581b03160217905550838260060160106101000a81548160ff021916908315150217905550828260060160116101000a81548160ff0219169083151502179055506000612f028a8a613230565b6040805164ffffffffff8b811682528a1660208201526001600160581b038916818301528715156060820152861515608082015260a0810183905290519192506001600160a01b038b16918c917ff5182d65d8ff8a191c9e2f9f31fa4757a3e046c58e19c304b66f1766ec399382919081900360c00190a350505050505050505050565b6000612f928383611229565b90506000612fa084846129d5565b90506004816004811115612fb657612fb6615413565b14612ff25760405162461bcd60e51b815260206004820152600c60248201526b4f6e6c79207374617465204560a01b6044820152606401610770565b6007820154600160581b900460ff161561304b5760405162461bcd60e51b815260206004820152601a6024820152792932bb32b73ab2b99030b63932b0b23c903bb4ba34323930bbb760311b6044820152606401610770565b60078201805460ff60581b1916600160581b179055600061306b83613d73565b600584015490915060009061308c90600160b01b900462ffffff168361590e565b60078501805491925082916000906130ae9084906001600160581b0316615a5d565b92506101000a8154816001600160581b0302191690836001600160581b031602179055506130dd868287614580565b6040805177185d58dd1a5bdb94995d995b9d595cd0dbdb1b1958dd195960421b8152600160208201526001600160a01b0387169188917fbb5f9d4f49f83650956b76c40de0f082a06430bf0222e1b6b3f90a7a0f845c4d910161232f565b60408051808201909152600080825260208201526131598383611eea565b62ffffff16602082015261316d83836135d5565b1515815292915050565b6000806131848585614ab7565b91509150808362ffffff1611156131ad5760405162461bcd60e51b815260040161077090615c02565b818362ffffff1610156131d25760405162461bcd60e51b815260040161077090615c02565b60006131de8686614558565b805462ffffff861685811463ffffffff19909216610100820260ff1916179190911782556040519081529091506001600160a01b038616908790600080516020615e728339815191529060200161232f565b60008061323d8484611229565b905061324984846144f1565b60058201805462ffffff60801b1916600160801b62ffffff8416021790556040518181529092506001600160a01b0384169085907fe61b855b975f8c5d6051b121797e73a9c4e2b5fce1e570689013b3591427efa89060200160405180910390a35092915050565b60006132bd8686611229565b905060006132cb87876129d5565b905060028160048111156132e1576132e1615413565b146132fe5760405162461bcd60e51b815260040161077090615bc0565b613307826144a4565b8562ffffff16111561332b5760405162461bcd60e51b815260040161077090615b89565b506005810154600160201b900463ffffffff16600081815260208390526040812054600160401b900461ffff169061336284613d73565b905060005b8762ffffff1681101561346157836000036133a557600585015462010000900461ffff166000818152600187016020526040902054945092506133c4565b60009384526020859052604090932054600160201b900463ffffffff16925b836000036133fa576133e0856133db600186615af6565b614b35565b61ffff166000818152600187016020526040902054945092505b600084815260208690526040902061341481600180613dfd565b8054613436908c908c908890600160501b90046001600160a01b03168c6147c9565b613441816000613dda565b61345857613458868c8c8761ffff1689888d614889565b50600101613367565b808560050160168282829054906101000a900462ffffff166134839190615be6565b92506101000a81548162ffffff021916908362ffffff160217905550838560050160046101000a81548163ffffffff021916908363ffffffff16021790555050505050505050505050565b6000806134db8484611229565b600701546001600160581b0316949350505050565b60006134fc8787611229565b9050600061350a88886129d5565b9050600281600481111561352057613520615413565b148061353d5750600381600481111561353b5761353b615413565b145b61357e5760405162461bcd60e51b815260206004820152601260248201527113db9b1e481cdd185d195cc810c81bdc881160721b6044820152606401610770565b50600061358a82613d73565b90508460005b8181101561173f576135cd848b8b868c8c878181106135b1576135b16159db565b90506020020160208101906135c691906159f1565b8b8b614bdb565b600101613590565b6000806135e284846129d5565b905060008160048111156135f8576135f8615413565b036136235760006136098585611229565b60050154600160801b900462ffffff1615925061368c9050565b600181600481111561363757613637615413565b0361366d5760006136488585611229565b60050154600160801b810462ffffff908116600160981b9092041614925061368c9050565b60006136798585611e7d565b925050508060000361368a57600192505b505b5092915050565b60008060006136a285856129d5565b905060006136b08686611229565b905060008260048111156136c6576136c6615413565b0361374057600681015464ffffffffff1615158061371f5760405162461bcd60e51b8152602060048201526016602482015275185d58dd1a5bdb881b9bdd0818dbdb999a59dd5c995960521b6044820152606401610770565b506006810154600160901b90046001600160581b0316935060009250613846565b6005810154600160981b810462ffffff908116600160801b9092041614600183600481111561377157613771615413565b036137e15780156137c1576005820154613792908890889061ffff16614cae565b600683015461ffff9190911694506137ba90600160901b90046001600160581b03168561125a565b9450613844565b6006820154600160901b90046001600160581b0316945060009350613844565b80156138285760405162461bcd60e51b8152602060048201526016602482015275185d58dd1a5bdb88195b9919590b081cd95b1b1bdd5d60521b6044820152606401610770565b6006820154600160901b90046001600160581b03169450600093505b505b50509250929050565b60006112c2613d4f565b600080600061386885856129d5565b905060006138768686611229565b9050600082600481111561388c5761388c615413565b036138c357600681015464ffffffffff1615801594506138be576006810154600160901b90046001600160581b031692505b613846565b600581015460019450600160981b810462ffffff908116600160801b9092041614848360048111156138f7576138f7615413565b0361396757801561394b57600582015460009061391b908990899061ffff16614cae565b600684015461ffff91909116915061394390600160901b90046001600160581b03168261125a565b945050613844565b6006820154600160901b90046001600160581b03169350613844565b801561399c576006820154600583015461399591600160901b90046001600160581b03169061ffff1661125a565b9350613844565b50600601549295600160901b9093046001600160581b031694509192505050565b6139c984848484614741565b61217a5760405162461bcd60e51b815260206004820152601a60248201527913db9b1e48135a5b9d195c919a5b1d195c8810591b5a5b9050d360321b6044820152606401610770565b6000806000613a218585611229565b6005810154909150600160981b900462ffffff16600003613a795760405162461bcd60e51b81526020600482015260126024820152712737903134b2399034b71030bab1ba34b7b760711b6044820152606401610770565b600581015461ffff1660008181526002830160209081526040808320548352939052919091209590945092505050565b6000613ab58787611229565b63ffffffff86166000908152602082905260409020805491925090600160401b900461ffff166001613ae78a8a6129d5565b6004811115613af857613af8615413565b14613b155760405162461bcd60e51b815260040161077090615a7d565b6102008661ffff1610613b3a5760405162461bcd60e51b8152600401610770906157aa565b8154600160501b90046001600160a01b0316613b955760405162461bcd60e51b815260206004820152601a60248201527942696420646e65202d207765726520796f75206f75746269643f60301b6044820152606401610770565b81546001600160a01b03868116600160501b9092041614613bf65760405162461bcd60e51b815260206004820152601b60248201527a13db9b1e48189a5919195c881bd988195e1a5cdd1a5b99c8189a59602a1b6044820152606401610770565b6006830154600090613c1890600160901b90046001600160581b03168361125a565b6006850154909150600090613c3d90600160901b90046001600160581b03168961125a565b905080613c4a8784615925565b14613c8f5760405162461bcd60e51b8152602060048201526015602482015274696e636f72726563742061646465642076616c756560581b6044820152606401610770565b5050600783018054859190600090613cb19084906001600160581b0316615ad6565b92506101000a8154816001600160581b0302191690836001600160581b03160217905550613ce683828963ffffffff16614d16565b613cf4838a8a89898c614185565b6040805163ffffffff8916815261ffff881660208201526001600160a01b038a16918b917fbcc60406b6a319d70c3feea7347029fbdfd768eecb981b0d2f6735b1e9633c5e91015b60405180910390a3505050505050505050565b7fa3fe13710cb596cbb938328f55db0dd5473d105cbcbbac73fbdbd94800043ab490565b6005810154600090600160981b810462ffffff908116600160801b909204161480613db2576006830154600160901b90046001600160581b03166107df565b600683015460058401546107df91600160901b90046001600160581b03169061ffff1661125a565b81546000906109df90600160f01b900460ff1683600160ff919091161b16151590565b8015613e3a578254600160ff8481169190911b600160f01b90920416175b835460ff91909116600160f01b0260ff60f01b19909116178355505050565b8254613e1b90600160f01b900460ff1683600160ff919091161b191690565b600080600080858786f1610aaf57826000526073600b5360ff6020536016600b83f0610aaf57620f42405a11610aaf57600080fd5b60405163a47d29cb60e01b8152600481018490526000906001600160a01b0384169063a47d29cb90602401602060405180830381865afa158015613ed6573d6000803e3d6000fd5b505050506040513d601f19601f82011682018060405250810190613efa9190615829565b6001600160a01b0316826001600160a01b03161490509392505050565b600584015461ffff16600081815260028601602052604090205480613f685760405162461bcd60e51b81526020600482015260076024820152664e6f206269647360c81b6044820152606401610770565b600081815260208781526040808320805461ffff8716855260028b01909352922063ffffffff821690819055600589018054600160501b9093046001600160a01b031692600160981b900462ffffff16906013613fc483615c33565b91906101000a81548162ffffff021916908362ffffff160217905550508063ffffffff166000036140385761ffff8516600081815260018b016020526040812055614010908a90614e8b565b61401f8961278d876001615c52565b60058a01805461ffff191661ffff929092169190911790555b600689015460009061405a90600160901b90046001600160581b03168761125a565b60078b018054919250829160009061407c9084906001600160581b0316615a5d565b92506101000a8154816001600160581b0302191690836001600160581b031602179055506140ab838289613e59565b876001600160a01b0316897f9d1a4511ddb5e2e227897ca79bbe1d71a9af123cd7c7bde8d2bcb292243310c9876040516140e791815260200190565b60405180910390a3505050600091825250602095909552604090942080546001600160f81b0319169055509192915050565b60006706f05b59d3b2000083111561414d5761271061413a8461280a61590e565b61414491906158e6565b821190506109e2565b61271061415c8461290461590e565b61416691906158e6565b90911192915050565b600081831061417e57816109df565b5090919050565b63ffffffff81161580156141d257600587018054600c906141b290600160601b900463ffffffff16615c6d565b91906101000a81548163ffffffff021916908363ffffffff160217905591505b60008760020160008661ffff1681526020019081526020016000205490506040518060a001604052808263ffffffff168152602001600063ffffffff1681526020018661ffff168152602001856001600160a01b03168152602001600060ff168152508860000160008563ffffffff16815260200190815260200160002060008201518160000160006101000a81548163ffffffff021916908363ffffffff16021790555060208201518160000160046101000a81548163ffffffff021916908363ffffffff16021790555060408201518160000160086101000a81548161ffff021916908361ffff160217905550606082015181600001600a6101000a8154816001600160a01b0302191690836001600160a01b03160217905550608082015181600001601e6101000a81548160ff021916908360ff1602179055509050508263ffffffff168860020160008761ffff16815260200190815260200160002081905550806000036143615761ffff85166000908152600189016020526040902063ffffffff8416905561438c565b6000818152602089905260409020805463ffffffff60201b1916600160201b63ffffffff8616021790555b600588018054600160981b900462ffffff169060136143aa83615a3b565b91906101000a81548162ffffff021916908362ffffff160217905550508060000361443a576143dd888661ffff16614ec5565b600588015461ffff90811690861610156144055760058801805461ffff191661ffff87161790555b600588015461ffff620100009091048116908616111561443a5760058801805463ffff000019166201000061ffff8816021790555b811561449a576040805161ffff8716815263ffffffff851660208201526001600160a01b038681168284015291519188169189917fd278a5272d5c4a1fbd78fd96e1dc404c29b3e6fc9a525421b777de714354f5a5919081900360600190a35b5050505050505050565b60058101546000906144cb9062ffffff600160c81b8204811691600160b01b900416615be6565b60058301546144e69190600160981b900462ffffff16615c86565b62ffffff1692915050565b60008060006145008585614ab7565b9150915060006145108686614558565b805490915060009061452d908490610100900462ffffff1661416f565b90508084106145435760009450505050506109e2565b61454d8482615af6565b979650505050505050565b60007f73e3af67f35f30fb72bbaaf6cc07b987364ed643c93ba201702e213464e877ee611233565b8160000361458d57505050565b600061459882614ef3565b9050600080600080600080600080881561463657604051638639415b60e01b8152600481018d9052602481018c90526001600160a01b038b1690638639415b9060440161010060405180830381865afa1580156145f9573d6000803e3d6000fd5b505050506040513d601f19601f8201168201806040525081019061461d9190615ca2565b969e50949c50929a5090985096509450925090506146b6565b604051638639415b60e01b8152600481018d9052602481018c90526001600160a01b038b1690638639415b9060440160c060405180830381865afa158015614682573d6000803e3d6000fd5b505050506040513d601f19601f820116820180604052508101906146a69190615d2a565b949c50929a509096509450925090505b8a82856146c3898c615925565b6146cd9190615925565b6146d79190615925565b146147235760405162461bcd60e51b815260206004820152601c60248201527b496e76616c696420726576656e75652073706c697420746f74616c7360201b6044820152606401610770565b61473386868a8a88888888614f41565b505050505050505050505050565b60405163230448b160e01b81526001600160a01b03848116600483015283811660248301526001600160e01b0319831660448301526000919086169063230448b1906064016020604051808303816000875af11580156147a5573d6000803e3d6000fd5b505050506040513d601f19601f820116820180604052508101906107a59190615d93565b6040516117cd60e21b81526000906001600160a01b03831690615f34906147fa9086908a908a903390600401615b09565b6020604051808303816000875af1158015614819573d6000803e3d6000fd5b505050506040513d601f19601f8201168201806040525081019061483d9190615b34565b6040805163ffffffff87168152602081018390529192506001600160a01b0387169188917f3c81bf6062ef45a4f3a4407699b008e79d9310eb22ba240838820f37535a9285910161232f565b63ffffffff83166000908152602088905260408120906148ac9082906001613dfd565b600688015460009084906148d090600160901b90046001600160581b03168861125a565b6148da9190615af6565b90508015614948576007890180548291906000906149029084906001600160581b0316615a5d565b92506101000a8154816001600160581b0302191690836001600160581b0316021790555061494882600001600a9054906101000a90046001600160a01b03168285613e59565b60405163ffffffff861681526001600160a01b038816908990600080516020615eb283398151915290602001613d3c565b60006101ff8261ffff1611156149a15760405162461bcd60e51b815260040161077090615db0565b60ff8261ffff1611156149d05760048301546149bd90836151ee565b6149c990610100615925565b90506109e2565b60038301546149df90836151ee565b90508061ffff16610100036109e25760048301546149fe9060006151ee565b6109df90610100615925565b600080614a178484614558565b8054909150610100900462ffffff16158015614a355750805460ff16155b949350505050565b600080614a4a8484614ab7565b915091506000614a5a8585614558565b9050614a6582615221565b815460ff1962ffffff92909216610100029190911663ffffffff19909116178383141781556040516001600160a01b038516908690600080516020615e7283398151915290611b1b9086815260200190565b604051630ea5613f60e01b81526004810183905260009081906001600160a01b03841690630ea5613f9060240160c060405180830381865afa158015614b01573d6000803e3d6000fd5b505050506040513d601f19601f82011682018060405250810190614b259190615de6565b5093989297509195505050505050565b60006101ff8261ffff161115614b5d5760405162461bcd60e51b815260040161077090615db0565b6101008261ffff161015614b87576003830154600090614b7d9084615285565b5091506109e29050565b600080614ba184866004015461528590919063ffffffff16565b915091508015614bc057614bb782610100615925565b925050506109e2565b6003850154614bd09060ff615285565b5092506109e2915050565b63ffffffff8316600090815260208890526040902080546001600160a01b03848116600160501b9092041614614c415760405162461bcd60e51b815260206004820152600b60248201526a27b7363c903134b23232b960a91b6044820152606401610770565b614c4c816000613dda565b15614c8f5760405162461bcd60e51b815260206004820152601360248201527213db9b1e481d5b8b5cd95d1d1b195908189a59606a1b6044820152606401610770565b805461449a90899089908990600160401b900461ffff16888a88614889565b600080614cbb8585611229565b6006810154909150600160901b90046001600160581b03166000614cdf828661125a565b905061ffff851660005b600190910190614cf9848361125a565b9050614d058382614119565b15614ce95750979650505050505050565b60008181526020849052604081208054909163ffffffff80831692600160201b90041690829003614d645761ffff85166000908152600187016020526040902063ffffffff82169055614d98565b63ffffffff80831660009081526020889052604090208054918316600160201b0263ffffffff60201b199092169190911790555b8063ffffffff16600003614dc95761ffff85166000908152600287016020526040902063ffffffff83169055614df2565b63ffffffff8181166000908152602088905260409020805463ffffffff19169184169190911790555b600586018054600160981b900462ffffff16906013614e1083615c33565b91906101000a81548162ffffff021916908362ffffff160217905550508163ffffffff166000148015614e47575063ffffffff8116155b15612bcb57614e5a868661ffff16614e8b565b614e698661278d876001615c52565b60058701805461ffff9290921661ffff19909216919091179055505050505050565b610100811015614ead576003820154600160ff83161b19165b60038301555050565b6004820154600160ff83161b19165b60048301555050565b610100811015614ee1576003820154600160ff83161b17614ea4565b6004820154600160ff83161b17614ebc565b600080614eff8361129e565b8054909150610100900460ff1615614f1b575460ff1692915050565b6000614f26846112e3565b825481151561ffff1990911617610100179092555092915050565b8715614fec576000876001600160a01b03168960405160006040518083038185875af1925050503d8060008114614f94576040519150601f19603f3d011682016040523d82523d6000602084013e614f99565b606091505b5050905080614fea5760405162461bcd60e51b815260206004820181905260248201527f506c6174666f726d2050726f7669646572207061796d656e74206661696c65646044820152606401610770565b505b8515615097576000856001600160a01b03168760405160006040518083038185875af1925050503d806000811461503f576040519150601f19603f3d011682016040523d82523d6000602084013e615044565b606091505b50509050806150955760405162461bcd60e51b815260206004820152601e60248201527f52656e6465722050726f7669646572207061796d656e74206661696c656400006044820152606401610770565b505b831561513a576000836001600160a01b03168560405160006040518083038185875af1925050503d80600081146150ea576040519150601f19603f3d011682016040523d82523d6000602084013e6150ef565b606091505b50509050806151385760405162461bcd60e51b8152602060048201526015602482015274105c9d1a5cdd081c185e5b595b9d0819985a5b1959605a1b6044820152606401610770565b505b811561449a576000816001600160a01b03168360405160006040518083038185875af1925050503d806000811461518d576040519150601f19603f3d011682016040523d82523d6000602084013e615192565b606091505b50509050806151e35760405162461bcd60e51b815260206004820152601f60248201527f4164646974696f6e616c205061796565207061796d656e74206661696c6564006044820152606401610770565b505050505050505050565b60ff81165b6101008110801561520a5750600160ff82161b8316155b156109e2578061521981615e41565b9150506151f3565b600062ffffff821115612c3b5760405162461bcd60e51b815260206004820152602660248201527f53616665436173743a2076616c756520646f65736e27742066697420696e203260448201526534206269747360d01b6064820152608401610770565b60ff811660005b6000821180156152a25750600160ff83161b8416155b156152b957816152b181615e5a565b92505061528c565b600160ff83161b8416151590509250929050565b6001600160a01b03811681146152e257600080fd5b50565b803561ffff811681146152f757600080fd5b919050565b60008060006060848603121561531157600080fd5b833592506020840135615323816152cd565b9150615331604085016152e5565b90509250925092565b60006020828403121561534c57600080fd5b81356107df816152cd565b6000806000806060858703121561536d57600080fd5b84359350602085013561537f816152cd565b9250604085013567ffffffffffffffff8082111561539c57600080fd5b818701915087601f8301126153b057600080fd5b8135818111156153bf57600080fd5b8860208260051b85010111156153d457600080fd5b95989497505060200194505050565b600080604083850312156153f657600080fd5b823591506020830135615408816152cd565b809150509250929050565b634e487b7160e01b600052602160045260246000fd5b6000610180820190508d82528c60208301528b60408301528a60608301528960808301528860a08301528760c08301528660e08301528515156101008301528415156101208301528315156101408301526005831061549857634e487b7160e01b600052602160045260246000fd5b826101608301529d9c50505050505050505050505050565b803564ffffffffff811681146152f757600080fd5b6000806000606084860312156154da57600080fd5b8335925060208401356154ec816152cd565b9150615331604085016154b0565b60008060006060848603121561550f57600080fd5b833561551a816152cd565b9250602084013591506040840135615531816152cd565b809150509250925092565b60008060006060848603121561555157600080fd5b833592506020840135615563816152cd565b9150604084013560ff8116811461553157600080fd5b80151581146152e257600080fd5b60008060006060848603121561559c57600080fd5b83356155a7816152cd565b925060208401356155b781615579565b9150604084013561553181615579565b803562ffffff811681146152f757600080fd5b6000806000606084860312156155ef57600080fd5b833592506020840135615601816152cd565b9150615331604085016155c7565b600080600080600080600060e0888a03121561562a57600080fd5b87359650602088013561563c816152cd565b955061564a604089016154b0565b9450615658606089016154b0565b93506080880135925060a088013561566f81615579565b915060c088013561567f81615579565b8091505092959891949750929550565b60005b838110156156aa578181015183820152602001615692565b50506000910152565b600081518084526156cb81602086016020860161568f565b601f01601f19169290920160200192915050565b6020815260006109df60208301846156b3565b841515815283602082015260806040820152600061571360808301856156b3565b905060018060a01b038316606083015295945050505050565b60006020828403121561573e57600080fd5b6109df826155c7565b803563ffffffff811681146152f757600080fd5b6000806000806080858703121561577157600080fd5b843593506020850135615783816152cd565b925061579160408601615747565b915061579f606086016152e5565b905092959194509250565b602080825260179082015276536c6f7420696e646578206f7574206f662072616e676560481b604082015260600190565b6020808252601f908201527f5265656e7472616e637947756172643a207265656e7472616e742063616c6c00604082015260600190565b9182526001600160a01b0316602082015260400190565b60006020828403121561583b57600080fd5b81516107df816152cd565b6020808252601190820152704d696e746572206e6f742061637469766560781b604082015260600190565b634e487b7160e01b600052601160045260246000fd5b64ffffffffff82811682821603908082111561368c5761368c615871565b602080825260119082015270105d58dd1a5bdb881d1bdbc81cda1bdc9d607a1b604082015260600190565b634e487b7160e01b600052601260045260246000fd5b6000826158f5576158f56158d0565b500490565b600082615909576159096158d0565b500690565b80820281158282048414176109e2576109e2615871565b808201808211156109e2576109e2615871565b6000825161594a81846020870161568f565b9190910192915050565b6020808252600c908201526b13db9b1e481cdd185d19481160a21b604082015260600190565b60208082526010908201526f4f6e6c7920696e20737461746520453160801b604082015260600190565b6020808252601f908201527f6269647320746f20726566756e6420677420617661696c61626c652071747900604082015260600190565b634e487b7160e01b600052603260045260246000fd5b600060208284031215615a0357600080fd5b6109df82615747565b60208082526015908201527427b7363c9039b2b73232b91034b9903134b23232b960591b604082015260600190565b600062ffffff808316818103615a5357615a53615871565b6001019392505050565b6001600160581b0382811682821603908082111561368c5761368c615871565b6020808252600c908201526b27b7363c9039ba30ba32902160a11b604082015260600190565b6020808252601990820152784e6f7420616c6c6f77656420696e2065787472612074696d6560381b604082015260600190565b6001600160581b0381811683821601908082111561368c5761368c615871565b818103818111156109e2576109e2615871565b6001600160a01b03948516815260208101939093529083166040830152909116606082015260800190565b600060208284031215615b4657600080fd5b5051919050565b61ffff81811683821602808216919082811461368a5761368a615871565b64ffffffffff81811683821601908082111561368c5761368c615871565b6020808252601d908201527f746f6b656e7320746f206d696e7420677420746f6b656e73206f776564000000604082015260600190565b6020808252600c908201526b4f6e6c79207374617465204360a01b604082015260600190565b62ffffff81811683821601908082111561368c5761368c615871565b602080825260179082015276496e76616c6964206d617820696e766f636174696f6e7360481b604082015260600190565b600062ffffff821680615c4857615c48615871565b6000190192915050565b61ffff81811683821601908082111561368c5761368c615871565b600063ffffffff808316818103615a5357615a53615871565b62ffffff82811682821603908082111561368c5761368c615871565b600080600080600080600080610100898b031215615cbf57600080fd5b885197506020890151615cd1816152cd565b60408a015160608b01519198509650615ce9816152cd565b60808a015160a08b01519196509450615d01816152cd565b60c08a015160e08b01519194509250615d19816152cd565b809150509295985092959890939650565b60008060008060008060c08789031215615d4357600080fd5b865195506020870151615d55816152cd565b604088015160608901519196509450615d6d816152cd565b608088015160a08901519194509250615d85816152cd565b809150509295509295509295565b600060208284031215615da557600080fd5b81516107df81615579565b6020808252601c908201527b27b7363c9039ba30b93a1039b637ba1034b73232bc10363a101a989960211b604082015260600190565b60008060008060008060c08789031215615dff57600080fd5b86519550602087015194506040870151615e1881615579565b6060880151909450615e2981615579565b608088015160a08901519194509250615d8581615579565b600060018201615e5357615e53615871565b5060010190565b600081615e6957615e69615871565b50600019019056fe1c3e74a6c6fefbaeee166b031cd2016349c6c863d5188b67c9bbd0b0dcb2e237520e05d2a73ab549525f701daae4d8ac1897891bb1afca813602709aafc7a830e152fe384870d25a8d821270b8b8043fada748f138ab7f8512af64c65c726136a26469706673582212205529564d847d2f9b543403b51e128d686c43c7840b568c746381e56c6d9dbf3564736f6c63430008160033",
  "linkReferences": {},
  "deployedLinkReferences": {}
}